{
	"data": {
		"bytecode": {
			"linkReferences": {},
			"object": "608060405234801561001057600080fd5b506104c3806100206000396000f3fe608060405234801561001057600080fd5b50600436106100365760003560e01c806397aba7f91461003b578063a7bb58031461006b575b600080fd5b610055600480360381019061005091906102e5565b61009d565b6040516100629190610382565b60405180910390f35b6100856004803603810190610080919061039d565b610112565b60405161009493929190610411565b60405180910390f35b6000806000806100ac85610112565b809350819450829550505050600186848484604051600081526020016040526040516100db9493929190610448565b6020604051602081039080840390855afa1580156100fd573d6000803e3d6000fd5b50505060206040510351935050505092915050565b6000806000604184511461012557600080fd5b60008060006020870151925060408701519150606087015160001a90508083839550955095505050509193909250565b6000604051905090565b600080fd5b600080fd5b6000819050919050565b61017c81610169565b811461018757600080fd5b50565b60008135905061019981610173565b92915050565b600080fd5b600080fd5b6000601f19601f8301169050919050565b7f4e487b7100000000000000000000000000000000000000000000000000000000600052604160045260246000fd5b6101f2826101a9565b810181811067ffffffffffffffff82111715610211576102106101ba565b5b80604052505050565b6000610224610155565b905061023082826101e9565b919050565b600067ffffffffffffffff8211156102505761024f6101ba565b5b610259826101a9565b9050602081019050919050565b82818337600083830152505050565b600061028861028384610235565b61021a565b9050828152602081018484840111156102a4576102a36101a4565b5b6102af848285610266565b509392505050565b600082601f8301126102cc576102cb61019f565b5b81356102dc848260208601610275565b91505092915050565b600080604083850312156102fc576102fb61015f565b5b600061030a8582860161018a565b925050602083013567ffffffffffffffff81111561032b5761032a610164565b5b610337858286016102b7565b9150509250929050565b600073ffffffffffffffffffffffffffffffffffffffff82169050919050565b600061036c82610341565b9050919050565b61037c81610361565b82525050565b60006020820190506103976000830184610373565b92915050565b6000602082840312156103b3576103b261015f565b5b600082013567ffffffffffffffff8111156103d1576103d0610164565b5b6103dd848285016102b7565b91505092915050565b600060ff82169050919050565b6103fc816103e6565b82525050565b61040b81610169565b82525050565b600060608201905061042660008301866103f3565b6104336020830185610402565b6104406040830184610402565b949350505050565b600060808201905061045d6000830187610402565b61046a60208301866103f3565b6104776040830185610402565b6104846060830184610402565b9594505050505056fea2646970667358221220a9d59006c00c8879054c94f973263866790ad8e0885c25a6f98bee8b97534a0864736f6c63430008110033",
			"opcodes": "PUSH1 0x80 PUSH1 0x40 MSTORE CALLVALUE DUP1 ISZERO PUSH2 0x10 JUMPI PUSH1 0x0 DUP1 REVERT JUMPDEST POP PUSH2 0x4C3 DUP1 PUSH2 0x20 PUSH1 0x0 CODECOPY PUSH1 0x0 RETURN INVALID PUSH1 0x80 PUSH1 0x40 MSTORE CALLVALUE DUP1 ISZERO PUSH2 0x10 JUMPI PUSH1 0x0 DUP1 REVERT JUMPDEST POP PUSH1 0x4 CALLDATASIZE LT PUSH2 0x36 JUMPI PUSH1 0x0 CALLDATALOAD PUSH1 0xE0 SHR DUP1 PUSH4 0x97ABA7F9 EQ PUSH2 0x3B JUMPI DUP1 PUSH4 0xA7BB5803 EQ PUSH2 0x6B JUMPI JUMPDEST PUSH1 0x0 DUP1 REVERT JUMPDEST PUSH2 0x55 PUSH1 0x4 DUP1 CALLDATASIZE SUB DUP2 ADD SWAP1 PUSH2 0x50 SWAP2 SWAP1 PUSH2 0x2E5 JUMP JUMPDEST PUSH2 0x9D JUMP JUMPDEST PUSH1 0x40 MLOAD PUSH2 0x62 SWAP2 SWAP1 PUSH2 0x382 JUMP JUMPDEST PUSH1 0x40 MLOAD DUP1 SWAP2 SUB SWAP1 RETURN JUMPDEST PUSH2 0x85 PUSH1 0x4 DUP1 CALLDATASIZE SUB DUP2 ADD SWAP1 PUSH2 0x80 SWAP2 SWAP1 PUSH2 0x39D JUMP JUMPDEST PUSH2 0x112 JUMP JUMPDEST PUSH1 0x40 MLOAD PUSH2 0x94 SWAP4 SWAP3 SWAP2 SWAP1 PUSH2 0x411 JUMP JUMPDEST PUSH1 0x40 MLOAD DUP1 SWAP2 SUB SWAP1 RETURN JUMPDEST PUSH1 0x0 DUP1 PUSH1 0x0 DUP1 PUSH2 0xAC DUP6 PUSH2 0x112 JUMP JUMPDEST DUP1 SWAP4 POP DUP2 SWAP5 POP DUP3 SWAP6 POP POP POP POP PUSH1 0x1 DUP7 DUP5 DUP5 DUP5 PUSH1 0x40 MLOAD PUSH1 0x0 DUP2 MSTORE PUSH1 0x20 ADD PUSH1 0x40 MSTORE PUSH1 0x40 MLOAD PUSH2 0xDB SWAP5 SWAP4 SWAP3 SWAP2 SWAP1 PUSH2 0x448 JUMP JUMPDEST PUSH1 0x20 PUSH1 0x40 MLOAD PUSH1 0x20 DUP2 SUB SWAP1 DUP1 DUP5 SUB SWAP1 DUP6 GAS STATICCALL ISZERO DUP1 ISZERO PUSH2 0xFD JUMPI RETURNDATASIZE PUSH1 0x0 DUP1 RETURNDATACOPY RETURNDATASIZE PUSH1 0x0 REVERT JUMPDEST POP POP POP PUSH1 0x20 PUSH1 0x40 MLOAD SUB MLOAD SWAP4 POP POP POP POP SWAP3 SWAP2 POP POP JUMP JUMPDEST PUSH1 0x0 DUP1 PUSH1 0x0 PUSH1 0x41 DUP5 MLOAD EQ PUSH2 0x125 JUMPI PUSH1 0x0 DUP1 REVERT JUMPDEST PUSH1 0x0 DUP1 PUSH1 0x0 PUSH1 0x20 DUP8 ADD MLOAD SWAP3 POP PUSH1 0x40 DUP8 ADD MLOAD SWAP2 POP PUSH1 0x60 DUP8 ADD MLOAD PUSH1 0x0 BYTE SWAP1 POP DUP1 DUP4 DUP4 SWAP6 POP SWAP6 POP SWAP6 POP POP POP POP SWAP2 SWAP4 SWAP1 SWAP3 POP JUMP JUMPDEST PUSH1 0x0 PUSH1 0x40 MLOAD SWAP1 POP SWAP1 JUMP JUMPDEST PUSH1 0x0 DUP1 REVERT JUMPDEST PUSH1 0x0 DUP1 REVERT JUMPDEST PUSH1 0x0 DUP2 SWAP1 POP SWAP2 SWAP1 POP JUMP JUMPDEST PUSH2 0x17C DUP2 PUSH2 0x169 JUMP JUMPDEST DUP2 EQ PUSH2 0x187 JUMPI PUSH1 0x0 DUP1 REVERT JUMPDEST POP JUMP JUMPDEST PUSH1 0x0 DUP2 CALLDATALOAD SWAP1 POP PUSH2 0x199 DUP2 PUSH2 0x173 JUMP JUMPDEST SWAP3 SWAP2 POP POP JUMP JUMPDEST PUSH1 0x0 DUP1 REVERT JUMPDEST PUSH1 0x0 DUP1 REVERT JUMPDEST PUSH1 0x0 PUSH1 0x1F NOT PUSH1 0x1F DUP4 ADD AND SWAP1 POP SWAP2 SWAP1 POP JUMP JUMPDEST PUSH32 0x4E487B7100000000000000000000000000000000000000000000000000000000 PUSH1 0x0 MSTORE PUSH1 0x41 PUSH1 0x4 MSTORE PUSH1 0x24 PUSH1 0x0 REVERT JUMPDEST PUSH2 0x1F2 DUP3 PUSH2 0x1A9 JUMP JUMPDEST DUP2 ADD DUP2 DUP2 LT PUSH8 0xFFFFFFFFFFFFFFFF DUP3 GT OR ISZERO PUSH2 0x211 JUMPI PUSH2 0x210 PUSH2 0x1BA JUMP JUMPDEST JUMPDEST DUP1 PUSH1 0x40 MSTORE POP POP POP JUMP JUMPDEST PUSH1 0x0 PUSH2 0x224 PUSH2 0x155 JUMP JUMPDEST SWAP1 POP PUSH2 0x230 DUP3 DUP3 PUSH2 0x1E9 JUMP JUMPDEST SWAP2 SWAP1 POP JUMP JUMPDEST PUSH1 0x0 PUSH8 0xFFFFFFFFFFFFFFFF DUP3 GT ISZERO PUSH2 0x250 JUMPI PUSH2 0x24F PUSH2 0x1BA JUMP JUMPDEST JUMPDEST PUSH2 0x259 DUP3 PUSH2 0x1A9 JUMP JUMPDEST SWAP1 POP PUSH1 0x20 DUP2 ADD SWAP1 POP SWAP2 SWAP1 POP JUMP JUMPDEST DUP3 DUP2 DUP4 CALLDATACOPY PUSH1 0x0 DUP4 DUP4 ADD MSTORE POP POP POP JUMP JUMPDEST PUSH1 0x0 PUSH2 0x288 PUSH2 0x283 DUP5 PUSH2 0x235 JUMP JUMPDEST PUSH2 0x21A JUMP JUMPDEST SWAP1 POP DUP3 DUP2 MSTORE PUSH1 0x20 DUP2 ADD DUP5 DUP5 DUP5 ADD GT ISZERO PUSH2 0x2A4 JUMPI PUSH2 0x2A3 PUSH2 0x1A4 JUMP JUMPDEST JUMPDEST PUSH2 0x2AF DUP5 DUP3 DUP6 PUSH2 0x266 JUMP JUMPDEST POP SWAP4 SWAP3 POP POP POP JUMP JUMPDEST PUSH1 0x0 DUP3 PUSH1 0x1F DUP4 ADD SLT PUSH2 0x2CC JUMPI PUSH2 0x2CB PUSH2 0x19F JUMP JUMPDEST JUMPDEST DUP2 CALLDATALOAD PUSH2 0x2DC DUP5 DUP3 PUSH1 0x20 DUP7 ADD PUSH2 0x275 JUMP JUMPDEST SWAP2 POP POP SWAP3 SWAP2 POP POP JUMP JUMPDEST PUSH1 0x0 DUP1 PUSH1 0x40 DUP4 DUP6 SUB SLT ISZERO PUSH2 0x2FC JUMPI PUSH2 0x2FB PUSH2 0x15F JUMP JUMPDEST JUMPDEST PUSH1 0x0 PUSH2 0x30A DUP6 DUP3 DUP7 ADD PUSH2 0x18A JUMP JUMPDEST SWAP3 POP POP PUSH1 0x20 DUP4 ADD CALLDATALOAD PUSH8 0xFFFFFFFFFFFFFFFF DUP2 GT ISZERO PUSH2 0x32B JUMPI PUSH2 0x32A PUSH2 0x164 JUMP JUMPDEST JUMPDEST PUSH2 0x337 DUP6 DUP3 DUP7 ADD PUSH2 0x2B7 JUMP JUMPDEST SWAP2 POP POP SWAP3 POP SWAP3 SWAP1 POP JUMP JUMPDEST PUSH1 0x0 PUSH20 0xFFFFFFFFFFFFFFFFFFFFFFFFFFFFFFFFFFFFFFFF DUP3 AND SWAP1 POP SWAP2 SWAP1 POP JUMP JUMPDEST PUSH1 0x0 PUSH2 0x36C DUP3 PUSH2 0x341 JUMP JUMPDEST SWAP1 POP SWAP2 SWAP1 POP JUMP JUMPDEST PUSH2 0x37C DUP2 PUSH2 0x361 JUMP JUMPDEST DUP3 MSTORE POP POP JUMP JUMPDEST PUSH1 0x0 PUSH1 0x20 DUP3 ADD SWAP1 POP PUSH2 0x397 PUSH1 0x0 DUP4 ADD DUP5 PUSH2 0x373 JUMP JUMPDEST SWAP3 SWAP2 POP POP JUMP JUMPDEST PUSH1 0x0 PUSH1 0x20 DUP3 DUP5 SUB SLT ISZERO PUSH2 0x3B3 JUMPI PUSH2 0x3B2 PUSH2 0x15F JUMP JUMPDEST JUMPDEST PUSH1 0x0 DUP3 ADD CALLDATALOAD PUSH8 0xFFFFFFFFFFFFFFFF DUP2 GT ISZERO PUSH2 0x3D1 JUMPI PUSH2 0x3D0 PUSH2 0x164 JUMP JUMPDEST JUMPDEST PUSH2 0x3DD DUP5 DUP3 DUP6 ADD PUSH2 0x2B7 JUMP JUMPDEST SWAP2 POP POP SWAP3 SWAP2 POP POP JUMP JUMPDEST PUSH1 0x0 PUSH1 0xFF DUP3 AND SWAP1 POP SWAP2 SWAP1 POP JUMP JUMPDEST PUSH2 0x3FC DUP2 PUSH2 0x3E6 JUMP JUMPDEST DUP3 MSTORE POP POP JUMP JUMPDEST PUSH2 0x40B DUP2 PUSH2 0x169 JUMP JUMPDEST DUP3 MSTORE POP POP JUMP JUMPDEST PUSH1 0x0 PUSH1 0x60 DUP3 ADD SWAP1 POP PUSH2 0x426 PUSH1 0x0 DUP4 ADD DUP7 PUSH2 0x3F3 JUMP JUMPDEST PUSH2 0x433 PUSH1 0x20 DUP4 ADD DUP6 PUSH2 0x402 JUMP JUMPDEST PUSH2 0x440 PUSH1 0x40 DUP4 ADD DUP5 PUSH2 0x402 JUMP JUMPDEST SWAP5 SWAP4 POP POP POP POP JUMP JUMPDEST PUSH1 0x0 PUSH1 0x80 DUP3 ADD SWAP1 POP PUSH2 0x45D PUSH1 0x0 DUP4 ADD DUP8 PUSH2 0x402 JUMP JUMPDEST PUSH2 0x46A PUSH1 0x20 DUP4 ADD DUP7 PUSH2 0x3F3 JUMP JUMPDEST PUSH2 0x477 PUSH1 0x40 DUP4 ADD DUP6 PUSH2 0x402 JUMP JUMPDEST PUSH2 0x484 PUSH1 0x60 DUP4 ADD DUP5 PUSH2 0x402 JUMP JUMPDEST SWAP6 SWAP5 POP POP POP POP POP JUMP INVALID LOG2 PUSH5 0x6970667358 0x22 SLT KECCAK256 0xA9 0xD5 SWAP1 MOD 0xC0 0xC DUP9 PUSH26 0x54C94F973263866790AD8E0885C25A6F98BEE8B97534A086473 PUSH16 0x6C634300081100330000000000000000 "
		},
		"gasEstimates": {
			"creation": {
				"codeDepositCost": "243800",
				"executionCost": "287",
				"totalCost": "244087"
			},
			"external": {
				"recoverSigner(bytes32,bytes)": "infinite",
				"splitSignature(bytes)": "infinite"
			}
		},
		"methodIdentifiers": {
			"recoverSigner(bytes32,bytes)": "97aba7f9",
			"splitSignature(bytes)": "a7bb5803"
		}
	},
	"abi": [
		{
			"inputs": [
				{
					"internalType": "bytes32",
					"name": "message",
					"type": "bytes32"
				},
				{
					"internalType": "bytes",
					"name": "sig",
					"type": "bytes"
				}
			],
			"name": "recoverSigner",
			"outputs": [
				{
					"internalType": "address",
					"name": "",
					"type": "address"
				}
			],
			"stateMutability": "pure",
			"type": "function"
		},
		{
			"inputs": [
				{
					"internalType": "bytes",
					"name": "sig",
					"type": "bytes"
				}
			],
			"name": "splitSignature",
			"outputs": [
				{
					"internalType": "uint8",
					"name": "",
					"type": "uint8"
				},
				{
					"internalType": "bytes32",
					"name": "",
					"type": "bytes32"
				},
				{
					"internalType": "bytes32",
					"name": "",
					"type": "bytes32"
				}
			],
			"stateMutability": "pure",
			"type": "function"
		}
	]
}