{
	"feg.sol": {
		"FEG": {
			"abi": [
				{
					"inputs": [],
					"stateMutability": "nonpayable",
					"type": "constructor"
				},
				{
					"anonymous": false,
					"inputs": [
						{
							"indexed": true,
							"internalType": "address",
							"name": "owner",
							"type": "address"
						},
						{
							"indexed": true,
							"internalType": "address",
							"name": "spender",
							"type": "address"
						},
						{
							"indexed": false,
							"internalType": "uint256",
							"name": "value",
							"type": "uint256"
						}
					],
					"name": "Approval",
					"type": "event"
				},
				{
					"anonymous": false,
					"inputs": [
						{
							"indexed": true,
							"internalType": "address",
							"name": "previousOwner",
							"type": "address"
						},
						{
							"indexed": true,
							"internalType": "address",
							"name": "newOwner",
							"type": "address"
						}
					],
					"name": "OwnershipTransferred",
					"type": "event"
				},
				{
					"anonymous": false,
					"inputs": [
						{
							"indexed": true,
							"internalType": "address",
							"name": "from",
							"type": "address"
						},
						{
							"indexed": true,
							"internalType": "address",
							"name": "to",
							"type": "address"
						},
						{
							"indexed": false,
							"internalType": "uint256",
							"name": "value",
							"type": "uint256"
						}
					],
					"name": "Transfer",
					"type": "event"
				},
				{
					"inputs": [
						{
							"internalType": "address",
							"name": "",
							"type": "address"
						},
						{
							"internalType": "address",
							"name": "",
							"type": "address"
						}
					],
					"name": "_allowances",
					"outputs": [
						{
							"internalType": "uint256",
							"name": "",
							"type": "uint256"
						}
					],
					"stateMutability": "view",
					"type": "function"
				},
				{
					"inputs": [
						{
							"internalType": "address",
							"name": "",
							"type": "address"
						}
					],
					"name": "_rOwned",
					"outputs": [
						{
							"internalType": "uint256",
							"name": "",
							"type": "uint256"
						}
					],
					"stateMutability": "view",
					"type": "function"
				},
				{
					"inputs": [
						{
							"internalType": "address",
							"name": "",
							"type": "address"
						}
					],
					"name": "_tOwned",
					"outputs": [
						{
							"internalType": "uint256",
							"name": "",
							"type": "uint256"
						}
					],
					"stateMutability": "view",
					"type": "function"
				},
				{
					"inputs": [
						{
							"internalType": "address",
							"name": "owner",
							"type": "address"
						},
						{
							"internalType": "address",
							"name": "spender",
							"type": "address"
						}
					],
					"name": "allowance",
					"outputs": [
						{
							"internalType": "uint256",
							"name": "",
							"type": "uint256"
						}
					],
					"stateMutability": "view",
					"type": "function"
				},
				{
					"inputs": [
						{
							"internalType": "address",
							"name": "spender",
							"type": "address"
						},
						{
							"internalType": "uint256",
							"name": "amount",
							"type": "uint256"
						}
					],
					"name": "approve",
					"outputs": [
						{
							"internalType": "bool",
							"name": "",
							"type": "bool"
						}
					],
					"stateMutability": "nonpayable",
					"type": "function"
				},
				{
					"inputs": [
						{
							"internalType": "address",
							"name": "account",
							"type": "address"
						}
					],
					"name": "balanceOf",
					"outputs": [
						{
							"internalType": "uint256",
							"name": "",
							"type": "uint256"
						}
					],
					"stateMutability": "view",
					"type": "function"
				},
				{
					"inputs": [],
					"name": "decimals",
					"outputs": [
						{
							"internalType": "uint8",
							"name": "",
							"type": "uint8"
						}
					],
					"stateMutability": "view",
					"type": "function"
				},
				{
					"inputs": [
						{
							"internalType": "address",
							"name": "spender",
							"type": "address"
						},
						{
							"internalType": "uint256",
							"name": "subtractedValue",
							"type": "uint256"
						}
					],
					"name": "decreaseAllowance",
					"outputs": [
						{
							"internalType": "bool",
							"name": "",
							"type": "bool"
						}
					],
					"stateMutability": "nonpayable",
					"type": "function"
				},
				{
					"inputs": [
						{
							"internalType": "address",
							"name": "account",
							"type": "address"
						}
					],
					"name": "excludeAccount",
					"outputs": [],
					"stateMutability": "nonpayable",
					"type": "function"
				},
				{
					"inputs": [
						{
							"internalType": "address",
							"name": "account",
							"type": "address"
						}
					],
					"name": "includeAccount",
					"outputs": [],
					"stateMutability": "nonpayable",
					"type": "function"
				},
				{
					"inputs": [
						{
							"internalType": "address",
							"name": "spender",
							"type": "address"
						},
						{
							"internalType": "uint256",
							"name": "addedValue",
							"type": "uint256"
						}
					],
					"name": "increaseAllowance",
					"outputs": [
						{
							"internalType": "bool",
							"name": "",
							"type": "bool"
						}
					],
					"stateMutability": "nonpayable",
					"type": "function"
				},
				{
					"inputs": [
						{
							"internalType": "address",
							"name": "account",
							"type": "address"
						}
					],
					"name": "isExcluded",
					"outputs": [
						{
							"internalType": "bool",
							"name": "",
							"type": "bool"
						}
					],
					"stateMutability": "view",
					"type": "function"
				},
				{
					"inputs": [],
					"name": "name",
					"outputs": [
						{
							"internalType": "string",
							"name": "",
							"type": "string"
						}
					],
					"stateMutability": "view",
					"type": "function"
				},
				{
					"inputs": [],
					"name": "owner",
					"outputs": [
						{
							"internalType": "address",
							"name": "",
							"type": "address"
						}
					],
					"stateMutability": "view",
					"type": "function"
				},
				{
					"inputs": [
						{
							"internalType": "uint256",
							"name": "tAmount",
							"type": "uint256"
						}
					],
					"name": "reflect",
					"outputs": [],
					"stateMutability": "nonpayable",
					"type": "function"
				},
				{
					"inputs": [
						{
							"internalType": "uint256",
							"name": "tAmount",
							"type": "uint256"
						},
						{
							"internalType": "bool",
							"name": "deductTransferFee",
							"type": "bool"
						}
					],
					"name": "reflectionFromToken",
					"outputs": [
						{
							"internalType": "uint256",
							"name": "",
							"type": "uint256"
						}
					],
					"stateMutability": "view",
					"type": "function"
				},
				{
					"inputs": [],
					"name": "renounceOwnership",
					"outputs": [],
					"stateMutability": "nonpayable",
					"type": "function"
				},
				{
					"inputs": [],
					"name": "symbol",
					"outputs": [
						{
							"internalType": "string",
							"name": "",
							"type": "string"
						}
					],
					"stateMutability": "view",
					"type": "function"
				},
				{
					"inputs": [
						{
							"internalType": "uint256",
							"name": "rAmount",
							"type": "uint256"
						}
					],
					"name": "tokenFromReflection",
					"outputs": [
						{
							"internalType": "uint256",
							"name": "",
							"type": "uint256"
						}
					],
					"stateMutability": "view",
					"type": "function"
				},
				{
					"inputs": [],
					"name": "totalFees",
					"outputs": [
						{
							"internalType": "uint256",
							"name": "",
							"type": "uint256"
						}
					],
					"stateMutability": "view",
					"type": "function"
				},
				{
					"inputs": [],
					"name": "totalSupply",
					"outputs": [
						{
							"internalType": "uint256",
							"name": "",
							"type": "uint256"
						}
					],
					"stateMutability": "view",
					"type": "function"
				},
				{
					"inputs": [
						{
							"internalType": "address",
							"name": "recipient",
							"type": "address"
						},
						{
							"internalType": "uint256",
							"name": "amount",
							"type": "uint256"
						}
					],
					"name": "transfer",
					"outputs": [
						{
							"internalType": "bool",
							"name": "",
							"type": "bool"
						}
					],
					"stateMutability": "nonpayable",
					"type": "function"
				},
				{
					"inputs": [
						{
							"internalType": "address",
							"name": "sender",
							"type": "address"
						},
						{
							"internalType": "address",
							"name": "recipient",
							"type": "address"
						},
						{
							"internalType": "uint256",
							"name": "amount",
							"type": "uint256"
						}
					],
					"name": "transferFrom",
					"outputs": [
						{
							"internalType": "bool",
							"name": "",
							"type": "bool"
						}
					],
					"stateMutability": "nonpayable",
					"type": "function"
				},
				{
					"inputs": [
						{
							"internalType": "address",
							"name": "newOwner",
							"type": "address"
						}
					],
					"name": "transferOwnership",
					"outputs": [],
					"stateMutability": "nonpayable",
					"type": "function"
				}
			],
			"devdoc": {
				"kind": "dev",
				"methods": {
					"allowance(address,address)": {
						"details": "Returns the remaining number of tokens that `spender` will be allowed to spend on behalf of `owner` through {transferFrom}. This is zero by default. This value changes when {approve} or {transferFrom} are called."
					},
					"approve(address,uint256)": {
						"details": "Sets `amount` as the allowance of `spender` over the caller's tokens. Returns a boolean value indicating whether the operation succeeded. IMPORTANT: Beware that changing an allowance with this method brings the risk that someone may use both the old and the new allowance by unfortunate transaction ordering. One possible solution to mitigate this race condition is to first reduce the spender's allowance to 0 and set the desired value afterwards: https://github.com/ethereum/EIPs/issues/20#issuecomment-263524729 Emits an {Approval} event."
					},
					"balanceOf(address)": {
						"details": "Returns the amount of tokens owned by `account`."
					},
					"owner()": {
						"details": "Returns the address of the current owner."
					},
					"renounceOwnership()": {
						"details": "Leaves the contract without owner. It will not be possible to call `onlyOwner` functions anymore. Can only be called by the current owner. NOTE: Renouncing ownership will leave the contract without an owner, thereby removing any functionality that is only available to the owner."
					},
					"totalSupply()": {
						"details": "Returns the amount of tokens in existence."
					},
					"transfer(address,uint256)": {
						"details": "Moves `amount` tokens from the caller's account to `recipient`. Returns a boolean value indicating whether the operation succeeded. Emits a {Transfer} event."
					},
					"transferFrom(address,address,uint256)": {
						"details": "Moves `amount` tokens from `sender` to `recipient` using the allowance mechanism. `amount` is then deducted from the caller's allowance. Returns a boolean value indicating whether the operation succeeded. Emits a {Transfer} event."
					},
					"transferOwnership(address)": {
						"details": "Transfers ownership of the contract to a new account (`newOwner`). Can only be called by the current owner."
					}
				},
				"version": 1
			},
			"evm": {
				"assembly": "    /* \"feg.sol\":15540:25462  contract FEG is Context, IERC20, Ownable {... */\n  mstore(0x40, 0x80)\n    /* \"feg.sol\":15995:16023  100000000000 * 10**6 * 10**9 */\n  0x52b7d2dcc80cd2e4000000\n    /* \"feg.sol\":15952:15953  0 */\n  0x00\n    /* \"feg.sol\":15943:15954  ~uint256(0) */\n  not\n    /* \"feg.sol\":16063:16076  MAX % _tTotal */\n  dup2\n  tag_1\n  jumpi\n  invalid\ntag_1:\n  mod\n    /* \"feg.sol\":15952:15953  0 */\n  0x00\n    /* \"feg.sol\":15943:15954  ~uint256(0) */\n  not\n    /* \"feg.sol\":16056:16077  MAX - (MAX % _tTotal) */\n  sub\n    /* \"feg.sol\":16029:16078  uint256 private _rTotal = (MAX - (MAX % _tTotal)) */\n  0x06\n  sstore\n    /* \"feg.sol\":16117:16150  string private _name = 'FEGtoken' */\n  mload(0x40)\n  dup1\n  0x40\n  add\n  0x40\n  mstore\n  dup1\n  0x08\n  dup2\n  mstore\n  0x20\n  add\n  0x464547746f6b656e000000000000000000000000000000000000000000000000\n  dup2\n  mstore\n  pop\n  0x08\n  swap1\n  dup1\n  mload\n  swap1\n  0x20\n  add\n  swap1\n  tag_2\n  swap3\n  swap2\n  swap1\n  tag_3\n  jump\t// in\ntag_2:\n  pop\n    /* \"feg.sol\":16156:16186  string private _symbol = 'FEG' */\n  mload(0x40)\n  dup1\n  0x40\n  add\n  0x40\n  mstore\n  dup1\n  0x03\n  dup2\n  mstore\n  0x20\n  add\n  0x4645470000000000000000000000000000000000000000000000000000000000\n  dup2\n  mstore\n  pop\n  0x09\n  swap1\n  dup1\n  mload\n  swap1\n  0x20\n  add\n  swap1\n  tag_4\n  swap3\n  swap2\n  swap1\n  tag_3\n  jump\t// in\ntag_4:\n  pop\n    /* \"feg.sol\":16218:16219  9 */\n  0x09\n    /* \"feg.sol\":16192:16219  uint8 private _decimals = 9 */\n  0x0a\n  exp(0x0100, 0x00)\n  dup2\n  sload\n  dup2\n  0xff\n  mul\n  not\n  and\n  swap1\n  dup4\n  0xff\n  and\n  mul\n  or\n  swap1\n  sstore\n  pop\n    /* \"feg.sol\":16226:16354  constructor () public {... */\n  callvalue\n  dup1\n  iszero\n  tag_5\n  jumpi\n  0x00\n  dup1\n  revert\ntag_5:\n  pop\n    /* \"feg.sol\":14176:14193  address msgSender */\n  0x00\n    /* \"feg.sol\":14196:14208  _msgSender() */\n  tag_9\n    /* \"feg.sol\":14196:14206  _msgSender */\n  shl(0x20, tag_10)\n    /* \"feg.sol\":14196:14208  _msgSender() */\n  0x20\n  shr\n  jump\t// in\ntag_9:\n    /* \"feg.sol\":14176:14208  address msgSender = _msgSender() */\n  swap1\n  pop\n    /* \"feg.sol\":14227:14236  msgSender */\n  dup1\n    /* \"feg.sol\":14218:14224  _owner */\n  0x00\n  dup1\n    /* \"feg.sol\":14218:14236  _owner = msgSender */\n  0x0100\n  exp\n  dup2\n  sload\n  dup2\n  0xffffffffffffffffffffffffffffffffffffffff\n  mul\n  not\n  and\n  swap1\n  dup4\n  0xffffffffffffffffffffffffffffffffffffffff\n  and\n  mul\n  or\n  swap1\n  sstore\n  pop\n    /* \"feg.sol\":14284:14293  msgSender */\n  dup1\n    /* \"feg.sol\":14251:14294  OwnershipTransferred(address(0), msgSender) */\n  0xffffffffffffffffffffffffffffffffffffffff\n  and\n    /* \"feg.sol\":14280:14281  0 */\n  0x00\n    /* \"feg.sol\":14251:14294  OwnershipTransferred(address(0), msgSender) */\n  0xffffffffffffffffffffffffffffffffffffffff\n  and\n  0x8be0079c531659141344cd1fd0a4f28419497f9722a3daafe3b4186f6b6457e0\n  mload(0x40)\n  mload(0x40)\n  dup1\n  swap2\n  sub\n  swap1\n  log3\n    /* \"feg.sol\":14142:14301  constructor () internal {... */\n  pop\n    /* \"feg.sol\":16282:16289  _rTotal */\n  sload(0x06)\n    /* \"feg.sol\":16258:16265  _rOwned */\n  0x01\n    /* \"feg.sol\":16258:16279  _rOwned[_msgSender()] */\n  0x00\n    /* \"feg.sol\":16266:16278  _msgSender() */\n  tag_12\n    /* \"feg.sol\":16266:16276  _msgSender */\n  shl(0x20, tag_10)\n    /* \"feg.sol\":16266:16278  _msgSender() */\n  0x20\n  shr\n  jump\t// in\ntag_12:\n    /* \"feg.sol\":16258:16279  _rOwned[_msgSender()] */\n  0xffffffffffffffffffffffffffffffffffffffff\n  and\n  0xffffffffffffffffffffffffffffffffffffffff\n  and\n  dup2\n  mstore\n  0x20\n  add\n  swap1\n  dup2\n  mstore\n  0x20\n  add\n  0x00\n  keccak256\n    /* \"feg.sol\":16258:16289  _rOwned[_msgSender()] = _rTotal */\n  dup2\n  swap1\n  sstore\n  pop\n    /* \"feg.sol\":16325:16337  _msgSender() */\n  tag_13\n    /* \"feg.sol\":16325:16335  _msgSender */\n  shl(0x20, tag_10)\n    /* \"feg.sol\":16325:16337  _msgSender() */\n  0x20\n  shr\n  jump\t// in\ntag_13:\n    /* \"feg.sol\":16304:16347  Transfer(address(0), _msgSender(), _tTotal) */\n  0xffffffffffffffffffffffffffffffffffffffff\n  and\n    /* \"feg.sol\":16321:16322  0 */\n  0x00\n    /* \"feg.sol\":16304:16347  Transfer(address(0), _msgSender(), _tTotal) */\n  0xffffffffffffffffffffffffffffffffffffffff\n  and\n  0xddf252ad1be2c89b69c2b068fc378daa952ba7f163c4a11628f55a4df523b3ef\n    /* \"feg.sol\":15995:16023  100000000000 * 10**6 * 10**9 */\n  0x52b7d2dcc80cd2e4000000\n    /* \"feg.sol\":16304:16347  Transfer(address(0), _msgSender(), _tTotal) */\n  mload(0x40)\n  dup1\n  dup3\n  dup2\n  mstore\n  0x20\n  add\n  swap2\n  pop\n  pop\n  mload(0x40)\n  dup1\n  swap2\n  sub\n  swap1\n  log3\n    /* \"feg.sol\":15540:25462  contract FEG is Context, IERC20, Ownable {... */\n  jump(tag_14)\n    /* \"feg.sol\":448:552  function _msgSender() internal view virtual returns (address payable) {... */\ntag_10:\n    /* \"feg.sol\":501:516  address payable */\n  0x00\n    /* \"feg.sol\":535:545  msg.sender */\n  caller\n    /* \"feg.sol\":528:545  return msg.sender */\n  swap1\n  pop\n    /* \"feg.sol\":448:552  function _msgSender() internal view virtual returns (address payable) {... */\n  swap1\n  jump\t// out\n    /* \"feg.sol\":15540:25462  contract FEG is Context, IERC20, Ownable {... */\ntag_3:\n  dup3\n  dup1\n  sload\n  0x01\n  dup2\n  0x01\n  and\n  iszero\n  0x0100\n  mul\n  sub\n  and\n  0x02\n  swap1\n  div\n  swap1\n  0x00\n  mstore\n  keccak256(0x00, 0x20)\n  swap1\n  0x1f\n  add\n  0x20\n  swap1\n  div\n  dup2\n  add\n  swap3\n  dup3\n  0x1f\n  lt\n  tag_17\n  jumpi\n  dup1\n  mload\n  not(0xff)\n  and\n  dup4\n  dup1\n  add\n  or\n  dup6\n  sstore\n  jump(tag_16)\ntag_17:\n  dup3\n  dup1\n  add\n  0x01\n  add\n  dup6\n  sstore\n  dup3\n  iszero\n  tag_16\n  jumpi\n  swap2\n  dup3\n  add\ntag_18:\n  dup3\n  dup2\n  gt\n  iszero\n  tag_19\n  jumpi\n  dup3\n  mload\n  dup3\n  sstore\n  swap2\n  0x20\n  add\n  swap2\n  swap1\n  0x01\n  add\n  swap1\n  jump(tag_18)\ntag_19:\ntag_16:\n  pop\n  swap1\n  pop\n  tag_20\n  swap2\n  swap1\n  tag_21\n  jump\t// in\ntag_20:\n  pop\n  swap1\n  jump\t// out\ntag_21:\ntag_22:\n  dup1\n  dup3\n  gt\n  iszero\n  tag_23\n  jumpi\n  0x00\n  dup2\n  0x00\n  swap1\n  sstore\n  pop\n  0x01\n  add\n  jump(tag_22)\ntag_23:\n  pop\n  swap1\n  jump\t// out\ntag_14:\n  dataSize(sub_0)\n  dup1\n  dataOffset(sub_0)\n  0x00\n  codecopy\n  0x00\n  return\nstop\n\nsub_0: assembly {\n        /* \"feg.sol\":15540:25462  contract FEG is Context, IERC20, Ownable {... */\n      mstore(0x40, 0x80)\n      callvalue\n      dup1\n      iszero\n      tag_1\n      jumpi\n      0x00\n      dup1\n      revert\n    tag_1:\n      pop\n      jumpi(tag_2, lt(calldatasize, 0x04))\n      shr(0xe0, calldataload(0x00))\n      dup1\n      0x4549b039\n      gt\n      tag_27\n      jumpi\n      dup1\n      0xa9059cbb\n      gt\n      tag_28\n      jumpi\n      dup1\n      0xa9059cbb\n      eq\n      tag_21\n      jumpi\n      dup1\n      0xcba0e996\n      eq\n      tag_22\n      jumpi\n      dup1\n      0xdd62ed3e\n      eq\n      tag_23\n      jumpi\n      dup1\n      0xf2cc0c18\n      eq\n      tag_24\n      jumpi\n      dup1\n      0xf2fde38b\n      eq\n      tag_25\n      jumpi\n      dup1\n      0xf84354f1\n      eq\n      tag_26\n      jumpi\n      jump(tag_2)\n    tag_28:\n      dup1\n      0x4549b039\n      eq\n      tag_15\n      jumpi\n      dup1\n      0x70a08231\n      eq\n      tag_16\n      jumpi\n      dup1\n      0x715018a6\n      eq\n      tag_17\n      jumpi\n      dup1\n      0x8da5cb5b\n      eq\n      tag_18\n      jumpi\n      dup1\n      0x95d89b41\n      eq\n      tag_19\n      jumpi\n      dup1\n      0xa457c2d7\n      eq\n      tag_20\n      jumpi\n      jump(tag_2)\n    tag_27:\n      dup1\n      0x18160ddd\n      gt\n      tag_29\n      jumpi\n      dup1\n      0x18160ddd\n      eq\n      tag_9\n      jumpi\n      dup1\n      0x23b872dd\n      eq\n      tag_10\n      jumpi\n      dup1\n      0x2d838119\n      eq\n      tag_11\n      jumpi\n      dup1\n      0x313ce567\n      eq\n      tag_12\n      jumpi\n      dup1\n      0x39509351\n      eq\n      tag_13\n      jumpi\n      dup1\n      0x3b7e6d4a\n      eq\n      tag_14\n      jumpi\n      jump(tag_2)\n    tag_29:\n      dup1\n      0x024c2ddd\n      eq\n      tag_3\n      jumpi\n      dup1\n      0x053ab182\n      eq\n      tag_4\n      jumpi\n      dup1\n      0x06fdde03\n      eq\n      tag_5\n      jumpi\n      dup1\n      0x095ea7b3\n      eq\n      tag_6\n      jumpi\n      dup1\n      0x0cfc15f9\n      eq\n      tag_7\n      jumpi\n      dup1\n      0x13114a9d\n      eq\n      tag_8\n      jumpi\n    tag_2:\n      0x00\n      dup1\n      revert\n        /* \"feg.sol\":15749:15817  mapping (address => mapping (address => uint256)) public _allowances */\n    tag_3:\n      tag_30\n      0x04\n      dup1\n      calldatasize\n      sub\n      0x40\n      dup2\n      lt\n      iszero\n      tag_31\n      jumpi\n      0x00\n      dup1\n      revert\n    tag_31:\n      dup2\n      add\n      swap1\n      dup1\n      dup1\n      calldataload\n      0xffffffffffffffffffffffffffffffffffffffff\n      and\n      swap1\n      0x20\n      add\n      swap1\n      swap3\n      swap2\n      swap1\n      dup1\n      calldataload\n      0xffffffffffffffffffffffffffffffffffffffff\n      and\n      swap1\n      0x20\n      add\n      swap1\n      swap3\n      swap2\n      swap1\n      pop\n      pop\n      pop\n      tag_32\n      jump\t// in\n    tag_30:\n      mload(0x40)\n      dup1\n      dup3\n      dup2\n      mstore\n      0x20\n      add\n      swap2\n      pop\n      pop\n      mload(0x40)\n      dup1\n      swap2\n      sub\n      swap1\n      return\n        /* \"feg.sol\":18419:18788  function reflect(uint256 tAmount) public {... */\n    tag_4:\n      tag_33\n      0x04\n      dup1\n      calldatasize\n      sub\n      0x20\n      dup2\n      lt\n      iszero\n      tag_34\n      jumpi\n      0x00\n      dup1\n      revert\n    tag_34:\n      dup2\n      add\n      swap1\n      dup1\n      dup1\n      calldataload\n      swap1\n      0x20\n      add\n      swap1\n      swap3\n      swap2\n      swap1\n      pop\n      pop\n      pop\n      tag_35\n      jump\t// in\n    tag_33:\n      stop\n        /* \"feg.sol\":16360:16441  function name() public view returns (string memory) {... */\n    tag_5:\n      tag_36\n      tag_37\n      jump\t// in\n    tag_36:\n      mload(0x40)\n      dup1\n      dup1\n      0x20\n      add\n      dup3\n      dup2\n      sub\n      dup3\n      mstore\n      dup4\n      dup2\n      dup2\n      mload\n      dup2\n      mstore\n      0x20\n      add\n      swap2\n      pop\n      dup1\n      mload\n      swap1\n      0x20\n      add\n      swap1\n      dup1\n      dup4\n      dup4\n      0x00\n    tag_38:\n      dup4\n      dup2\n      lt\n      iszero\n      tag_40\n      jumpi\n      dup1\n      dup3\n      add\n      mload\n      dup2\n      dup5\n      add\n      mstore\n      0x20\n      dup2\n      add\n      swap1\n      pop\n      jump(tag_38)\n    tag_40:\n      pop\n      pop\n      pop\n      pop\n      swap1\n      pop\n      swap1\n      dup2\n      add\n      swap1\n      0x1f\n      and\n      dup1\n      iszero\n      tag_41\n      jumpi\n      dup1\n      dup3\n      sub\n      dup1\n      mload\n      0x01\n      dup4\n      0x20\n      sub\n      0x0100\n      exp\n      sub\n      not\n      and\n      dup2\n      mstore\n      0x20\n      add\n      swap2\n      pop\n    tag_41:\n      pop\n      swap3\n      pop\n      pop\n      pop\n      mload(0x40)\n      dup1\n      swap2\n      sub\n      swap1\n      return\n        /* \"feg.sol\":17242:17400  function approve(address spender, uint256 amount) public override returns (bool) {... */\n    tag_6:\n      tag_42\n      0x04\n      dup1\n      calldatasize\n      sub\n      0x40\n      dup2\n      lt\n      iszero\n      tag_43\n      jumpi\n      0x00\n      dup1\n      revert\n    tag_43:\n      dup2\n      add\n      swap1\n      dup1\n      dup1\n      calldataload\n      0xffffffffffffffffffffffffffffffffffffffff\n      and\n      swap1\n      0x20\n      add\n      swap1\n      swap3\n      swap2\n      swap1\n      dup1\n      calldataload\n      swap1\n      0x20\n      add\n      swap1\n      swap3\n      swap2\n      swap1\n      pop\n      pop\n      pop\n      tag_44\n      jump\t// in\n    tag_42:\n      mload(0x40)\n      dup1\n      dup3\n      iszero\n      iszero\n      dup2\n      mstore\n      0x20\n      add\n      swap2\n      pop\n      pop\n      mload(0x40)\n      dup1\n      swap2\n      sub\n      swap1\n      return\n        /* \"feg.sol\":15651:15694  mapping (address => uint256) public _rOwned */\n    tag_7:\n      tag_45\n      0x04\n      dup1\n      calldatasize\n      sub\n      0x20\n      dup2\n      lt\n      iszero\n      tag_46\n      jumpi\n      0x00\n      dup1\n      revert\n    tag_46:\n      dup2\n      add\n      swap1\n      dup1\n      dup1\n      calldataload\n      0xffffffffffffffffffffffffffffffffffffffff\n      and\n      swap1\n      0x20\n      add\n      swap1\n      swap3\n      swap2\n      swap1\n      pop\n      pop\n      pop\n      tag_47\n      jump\t// in\n    tag_45:\n      mload(0x40)\n      dup1\n      dup3\n      dup2\n      mstore\n      0x20\n      add\n      swap2\n      pop\n      pop\n      mload(0x40)\n      dup1\n      swap2\n      sub\n      swap1\n      return\n        /* \"feg.sol\":18328:18413  function totalFees() public view returns (uint256) {... */\n    tag_8:\n      tag_48\n      tag_49\n      jump\t// in\n    tag_48:\n      mload(0x40)\n      dup1\n      dup3\n      dup2\n      mstore\n      0x20\n      add\n      swap2\n      pop\n      pop\n      mload(0x40)\n      dup1\n      swap2\n      sub\n      swap1\n      return\n        /* \"feg.sol\":16625:16718  function totalSupply() public view override returns (uint256) {... */\n    tag_9:\n      tag_50\n      tag_51\n      jump\t// in\n    tag_50:\n      mload(0x40)\n      dup1\n      dup3\n      dup2\n      mstore\n      0x20\n      add\n      swap2\n      pop\n      pop\n      mload(0x40)\n      dup1\n      swap2\n      sub\n      swap1\n      return\n        /* \"feg.sol\":17406:17715  function transferFrom(address sender, address recipient, uint256 amount) public override returns (bool) {... */\n    tag_10:\n      tag_52\n      0x04\n      dup1\n      calldatasize\n      sub\n      0x60\n      dup2\n      lt\n      iszero\n      tag_53\n      jumpi\n      0x00\n      dup1\n      revert\n    tag_53:\n      dup2\n      add\n      swap1\n      dup1\n      dup1\n      calldataload\n      0xffffffffffffffffffffffffffffffffffffffff\n      and\n      swap1\n      0x20\n      add\n      swap1\n      swap3\n      swap2\n      swap1\n      dup1\n      calldataload\n      0xffffffffffffffffffffffffffffffffffffffff\n      and\n      swap1\n      0x20\n      add\n      swap1\n      swap3\n      swap2\n      swap1\n      dup1\n      calldataload\n      swap1\n      0x20\n      add\n      swap1\n      swap3\n      swap2\n      swap1\n      pop\n      pop\n      pop\n      tag_54\n      jump\t// in\n    tag_52:\n      mload(0x40)\n      dup1\n      dup3\n      iszero\n      iszero\n      dup2\n      mstore\n      0x20\n      add\n      swap2\n      pop\n      pop\n      mload(0x40)\n      dup1\n      swap2\n      sub\n      swap1\n      return\n        /* \"feg.sol\":19225:19474  function tokenFromReflection(uint256 rAmount) public view returns(uint256) {... */\n    tag_11:\n      tag_55\n      0x04\n      dup1\n      calldatasize\n      sub\n      0x20\n      dup2\n      lt\n      iszero\n      tag_56\n      jumpi\n      0x00\n      dup1\n      revert\n    tag_56:\n      dup2\n      add\n      swap1\n      dup1\n      dup1\n      calldataload\n      swap1\n      0x20\n      add\n      swap1\n      swap3\n      swap2\n      swap1\n      pop\n      pop\n      pop\n      tag_57\n      jump\t// in\n    tag_55:\n      mload(0x40)\n      dup1\n      dup3\n      dup2\n      mstore\n      0x20\n      add\n      swap2\n      pop\n      pop\n      mload(0x40)\n      dup1\n      swap2\n      sub\n      swap1\n      return\n        /* \"feg.sol\":16538:16619  function decimals() public view returns (uint8) {... */\n    tag_12:\n      tag_58\n      tag_59\n      jump\t// in\n    tag_58:\n      mload(0x40)\n      dup1\n      dup3\n      0xff\n      and\n      dup2\n      mstore\n      0x20\n      add\n      swap2\n      pop\n      pop\n      mload(0x40)\n      dup1\n      swap2\n      sub\n      swap1\n      return\n        /* \"feg.sol\":17721:17936  function increaseAllowance(address spender, uint256 addedValue) public virtual returns (bool) {... */\n    tag_13:\n      tag_60\n      0x04\n      dup1\n      calldatasize\n      sub\n      0x40\n      dup2\n      lt\n      iszero\n      tag_61\n      jumpi\n      0x00\n      dup1\n      revert\n    tag_61:\n      dup2\n      add\n      swap1\n      dup1\n      dup1\n      calldataload\n      0xffffffffffffffffffffffffffffffffffffffff\n      and\n      swap1\n      0x20\n      add\n      swap1\n      swap3\n      swap2\n      swap1\n      dup1\n      calldataload\n      swap1\n      0x20\n      add\n      swap1\n      swap3\n      swap2\n      swap1\n      pop\n      pop\n      pop\n      tag_62\n      jump\t// in\n    tag_60:\n      mload(0x40)\n      dup1\n      dup3\n      iszero\n      iszero\n      dup2\n      mstore\n      0x20\n      add\n      swap2\n      pop\n      pop\n      mload(0x40)\n      dup1\n      swap2\n      sub\n      swap1\n      return\n        /* \"feg.sol\":15700:15743  mapping (address => uint256) public _tOwned */\n    tag_14:\n      tag_63\n      0x04\n      dup1\n      calldatasize\n      sub\n      0x20\n      dup2\n      lt\n      iszero\n      tag_64\n      jumpi\n      0x00\n      dup1\n      revert\n    tag_64:\n      dup2\n      add\n      swap1\n      dup1\n      dup1\n      calldataload\n      0xffffffffffffffffffffffffffffffffffffffff\n      and\n      swap1\n      0x20\n      add\n      swap1\n      swap3\n      swap2\n      swap1\n      pop\n      pop\n      pop\n      tag_65\n      jump\t// in\n    tag_63:\n      mload(0x40)\n      dup1\n      dup3\n      dup2\n      mstore\n      0x20\n      add\n      swap2\n      pop\n      pop\n      mload(0x40)\n      dup1\n      swap2\n      sub\n      swap1\n      return\n        /* \"feg.sol\":18794:19219  function reflectionFromToken(uint256 tAmount, bool deductTransferFee) public view returns(uint256) {... */\n    tag_15:\n      tag_66\n      0x04\n      dup1\n      calldatasize\n      sub\n      0x40\n      dup2\n      lt\n      iszero\n      tag_67\n      jumpi\n      0x00\n      dup1\n      revert\n    tag_67:\n      dup2\n      add\n      swap1\n      dup1\n      dup1\n      calldataload\n      swap1\n      0x20\n      add\n      swap1\n      swap3\n      swap2\n      swap1\n      dup1\n      calldataload\n      iszero\n      iszero\n      swap1\n      0x20\n      add\n      swap1\n      swap3\n      swap2\n      swap1\n      pop\n      pop\n      pop\n      tag_68\n      jump\t// in\n    tag_66:\n      mload(0x40)\n      dup1\n      dup3\n      dup2\n      mstore\n      0x20\n      add\n      swap2\n      pop\n      pop\n      mload(0x40)\n      dup1\n      swap2\n      sub\n      swap1\n      return\n        /* \"feg.sol\":16724:16919  function balanceOf(address account) public view override returns (uint256) {... */\n    tag_16:\n      tag_69\n      0x04\n      dup1\n      calldatasize\n      sub\n      0x20\n      dup2\n      lt\n      iszero\n      tag_70\n      jumpi\n      0x00\n      dup1\n      revert\n    tag_70:\n      dup2\n      add\n      swap1\n      dup1\n      dup1\n      calldataload\n      0xffffffffffffffffffffffffffffffffffffffff\n      and\n      swap1\n      0x20\n      add\n      swap1\n      swap3\n      swap2\n      swap1\n      pop\n      pop\n      pop\n      tag_71\n      jump\t// in\n    tag_69:\n      mload(0x40)\n      dup1\n      dup3\n      dup2\n      mstore\n      0x20\n      add\n      swap2\n      pop\n      pop\n      mload(0x40)\n      dup1\n      swap2\n      sub\n      swap1\n      return\n        /* \"feg.sol\":15000:15145  function renounceOwnership() public virtual onlyOwner {... */\n    tag_17:\n      tag_72\n      tag_73\n      jump\t// in\n    tag_72:\n      stop\n        /* \"feg.sol\":14377:14454  function owner() public view returns (address) {... */\n    tag_18:\n      tag_74\n      tag_75\n      jump\t// in\n    tag_74:\n      mload(0x40)\n      dup1\n      dup3\n      0xffffffffffffffffffffffffffffffffffffffff\n      and\n      dup2\n      mstore\n      0x20\n      add\n      swap2\n      pop\n      pop\n      mload(0x40)\n      dup1\n      swap2\n      sub\n      swap1\n      return\n        /* \"feg.sol\":16447:16532  function symbol() public view returns (string memory) {... */\n    tag_19:\n      tag_76\n      tag_77\n      jump\t// in\n    tag_76:\n      mload(0x40)\n      dup1\n      dup1\n      0x20\n      add\n      dup3\n      dup2\n      sub\n      dup3\n      mstore\n      dup4\n      dup2\n      dup2\n      mload\n      dup2\n      mstore\n      0x20\n      add\n      swap2\n      pop\n      dup1\n      mload\n      swap1\n      0x20\n      add\n      swap1\n      dup1\n      dup4\n      dup4\n      0x00\n    tag_78:\n      dup4\n      dup2\n      lt\n      iszero\n      tag_80\n      jumpi\n      dup1\n      dup3\n      add\n      mload\n      dup2\n      dup5\n      add\n      mstore\n      0x20\n      dup2\n      add\n      swap1\n      pop\n      jump(tag_78)\n    tag_80:\n      pop\n      pop\n      pop\n      pop\n      swap1\n      pop\n      swap1\n      dup2\n      add\n      swap1\n      0x1f\n      and\n      dup1\n      iszero\n      tag_81\n      jumpi\n      dup1\n      dup3\n      sub\n      dup1\n      mload\n      0x01\n      dup4\n      0x20\n      sub\n      0x0100\n      exp\n      sub\n      not\n      and\n      dup2\n      mstore\n      0x20\n      add\n      swap2\n      pop\n    tag_81:\n      pop\n      swap3\n      pop\n      pop\n      pop\n      mload(0x40)\n      dup1\n      swap2\n      sub\n      swap1\n      return\n        /* \"feg.sol\":17942:18208  function decreaseAllowance(address spender, uint256 subtractedValue) public virtual returns (bool) {... */\n    tag_20:\n      tag_82\n      0x04\n      dup1\n      calldatasize\n      sub\n      0x40\n      dup2\n      lt\n      iszero\n      tag_83\n      jumpi\n      0x00\n      dup1\n      revert\n    tag_83:\n      dup2\n      add\n      swap1\n      dup1\n      dup1\n      calldataload\n      0xffffffffffffffffffffffffffffffffffffffff\n      and\n      swap1\n      0x20\n      add\n      swap1\n      swap3\n      swap2\n      swap1\n      dup1\n      calldataload\n      swap1\n      0x20\n      add\n      swap1\n      swap3\n      swap2\n      swap1\n      pop\n      pop\n      pop\n      tag_84\n      jump\t// in\n    tag_82:\n      mload(0x40)\n      dup1\n      dup3\n      iszero\n      iszero\n      dup2\n      mstore\n      0x20\n      add\n      swap2\n      pop\n      pop\n      mload(0x40)\n      dup1\n      swap2\n      sub\n      swap1\n      return\n        /* \"feg.sol\":16925:17089  function transfer(address recipient, uint256 amount) public override returns (bool) {... */\n    tag_21:\n      tag_85\n      0x04\n      dup1\n      calldatasize\n      sub\n      0x40\n      dup2\n      lt\n      iszero\n      tag_86\n      jumpi\n      0x00\n      dup1\n      revert\n    tag_86:\n      dup2\n      add\n      swap1\n      dup1\n      dup1\n      calldataload\n      0xffffffffffffffffffffffffffffffffffffffff\n      and\n      swap1\n      0x20\n      add\n      swap1\n      swap3\n      swap2\n      swap1\n      dup1\n      calldataload\n      swap1\n      0x20\n      add\n      swap1\n      swap3\n      swap2\n      swap1\n      pop\n      pop\n      pop\n      tag_87\n      jump\t// in\n    tag_85:\n      mload(0x40)\n      dup1\n      dup3\n      iszero\n      iszero\n      dup2\n      mstore\n      0x20\n      add\n      swap2\n      pop\n      pop\n      mload(0x40)\n      dup1\n      swap2\n      sub\n      swap1\n      return\n        /* \"feg.sol\":18214:18322  function isExcluded(address account) public view returns (bool) {... */\n    tag_22:\n      tag_88\n      0x04\n      dup1\n      calldatasize\n      sub\n      0x20\n      dup2\n      lt\n      iszero\n      tag_89\n      jumpi\n      0x00\n      dup1\n      revert\n    tag_89:\n      dup2\n      add\n      swap1\n      dup1\n      dup1\n      calldataload\n      0xffffffffffffffffffffffffffffffffffffffff\n      and\n      swap1\n      0x20\n      add\n      swap1\n      swap3\n      swap2\n      swap1\n      pop\n      pop\n      pop\n      tag_90\n      jump\t// in\n    tag_88:\n      mload(0x40)\n      dup1\n      dup3\n      iszero\n      iszero\n      dup2\n      mstore\n      0x20\n      add\n      swap2\n      pop\n      pop\n      mload(0x40)\n      dup1\n      swap2\n      sub\n      swap1\n      return\n        /* \"feg.sol\":17095:17236  function allowance(address owner, address spender) public view override returns (uint256) {... */\n    tag_23:\n      tag_91\n      0x04\n      dup1\n      calldatasize\n      sub\n      0x40\n      dup2\n      lt\n      iszero\n      tag_92\n      jumpi\n      0x00\n      dup1\n      revert\n    tag_92:\n      dup2\n      add\n      swap1\n      dup1\n      dup1\n      calldataload\n      0xffffffffffffffffffffffffffffffffffffffff\n      and\n      swap1\n      0x20\n      add\n      swap1\n      swap3\n      swap2\n      swap1\n      dup1\n      calldataload\n      0xffffffffffffffffffffffffffffffffffffffff\n      and\n      swap1\n      0x20\n      add\n      swap1\n      swap3\n      swap2\n      swap1\n      pop\n      pop\n      pop\n      tag_93\n      jump\t// in\n    tag_91:\n      mload(0x40)\n      dup1\n      dup3\n      dup2\n      mstore\n      0x20\n      add\n      swap2\n      pop\n      pop\n      mload(0x40)\n      dup1\n      swap2\n      sub\n      swap1\n      return\n        /* \"feg.sol\":19480:19805  function excludeAccount(address account) external onlyOwner() {... */\n    tag_24:\n      tag_94\n      0x04\n      dup1\n      calldatasize\n      sub\n      0x20\n      dup2\n      lt\n      iszero\n      tag_95\n      jumpi\n      0x00\n      dup1\n      revert\n    tag_95:\n      dup2\n      add\n      swap1\n      dup1\n      dup1\n      calldataload\n      0xffffffffffffffffffffffffffffffffffffffff\n      and\n      swap1\n      0x20\n      add\n      swap1\n      swap3\n      swap2\n      swap1\n      pop\n      pop\n      pop\n      tag_96\n      jump\t// in\n    tag_94:\n      stop\n        /* \"feg.sol\":15294:15534  function transferOwnership(address newOwner) public virtual onlyOwner {... */\n    tag_25:\n      tag_97\n      0x04\n      dup1\n      calldatasize\n      sub\n      0x20\n      dup2\n      lt\n      iszero\n      tag_98\n      jumpi\n      0x00\n      dup1\n      revert\n    tag_98:\n      dup2\n      add\n      swap1\n      dup1\n      dup1\n      calldataload\n      0xffffffffffffffffffffffffffffffffffffffff\n      and\n      swap1\n      0x20\n      add\n      swap1\n      swap3\n      swap2\n      swap1\n      pop\n      pop\n      pop\n      tag_99\n      jump\t// in\n    tag_97:\n      stop\n        /* \"feg.sol\":19811:20278  function includeAccount(address account) external onlyOwner() {... */\n    tag_26:\n      tag_100\n      0x04\n      dup1\n      calldatasize\n      sub\n      0x20\n      dup2\n      lt\n      iszero\n      tag_101\n      jumpi\n      0x00\n      dup1\n      revert\n    tag_101:\n      dup2\n      add\n      swap1\n      dup1\n      dup1\n      calldataload\n      0xffffffffffffffffffffffffffffffffffffffff\n      and\n      swap1\n      0x20\n      add\n      swap1\n      swap3\n      swap2\n      swap1\n      pop\n      pop\n      pop\n      tag_102\n      jump\t// in\n    tag_100:\n      stop\n        /* \"feg.sol\":15749:15817  mapping (address => mapping (address => uint256)) public _allowances */\n    tag_32:\n      mstore(0x20, 0x03)\n      dup2\n      0x00\n      mstore\n      mstore(0x20, keccak256(0x00, 0x40))\n      dup1\n      0x00\n      mstore\n      keccak256(0x00, 0x40)\n      0x00\n      swap2\n      pop\n      swap2\n      pop\n      pop\n      sload\n      dup2\n      jump\t// out\n        /* \"feg.sol\":18419:18788  function reflect(uint256 tAmount) public {... */\n    tag_35:\n        /* \"feg.sol\":18470:18484  address sender */\n      0x00\n        /* \"feg.sol\":18487:18499  _msgSender() */\n      tag_104\n        /* \"feg.sol\":18487:18497  _msgSender */\n      tag_105\n        /* \"feg.sol\":18487:18499  _msgSender() */\n      jump\t// in\n    tag_104:\n        /* \"feg.sol\":18470:18499  address sender = _msgSender() */\n      swap1\n      pop\n        /* \"feg.sol\":18518:18529  _isExcluded */\n      0x04\n        /* \"feg.sol\":18518:18537  _isExcluded[sender] */\n      0x00\n        /* \"feg.sol\":18530:18536  sender */\n      dup3\n        /* \"feg.sol\":18518:18537  _isExcluded[sender] */\n      0xffffffffffffffffffffffffffffffffffffffff\n      and\n      0xffffffffffffffffffffffffffffffffffffffff\n      and\n      dup2\n      mstore\n      0x20\n      add\n      swap1\n      dup2\n      mstore\n      0x20\n      add\n      0x00\n      keccak256\n      0x00\n      swap1\n      sload\n      swap1\n      0x0100\n      exp\n      swap1\n      div\n      0xff\n      and\n        /* \"feg.sol\":18517:18537  !_isExcluded[sender] */\n      iszero\n        /* \"feg.sol\":18509:18586  require(!_isExcluded[sender], \"Excluded addresses cannot call this function\") */\n      tag_106\n      jumpi\n      mload(0x40)\n      0x08c379a000000000000000000000000000000000000000000000000000000000\n      dup2\n      mstore\n      0x04\n      add\n      dup1\n      dup1\n      0x20\n      add\n      dup3\n      dup2\n      sub\n      dup3\n      mstore\n      0x2c\n      dup2\n      mstore\n      0x20\n      add\n      dup1\n      data_ecefcaf5fbcf9ca6dcdb02298ba1da96f4ead317b0a4779917ecb2e5e7dc3ac4\n      0x2c\n      swap2\n      codecopy\n      0x40\n      add\n      swap2\n      pop\n      pop\n      mload(0x40)\n      dup1\n      swap2\n      sub\n      swap1\n      revert\n    tag_106:\n        /* \"feg.sol\":18597:18612  uint256 rAmount */\n      0x00\n        /* \"feg.sol\":18620:18639  _getValues(tAmount) */\n      tag_107\n        /* \"feg.sol\":18631:18638  tAmount */\n      dup4\n        /* \"feg.sol\":18620:18630  _getValues */\n      tag_108\n        /* \"feg.sol\":18620:18639  _getValues(tAmount) */\n      jump\t// in\n    tag_107:\n        /* \"feg.sol\":18596:18639  (uint256 rAmount,,,,) = _getValues(tAmount) */\n      pop\n      pop\n      pop\n      pop\n      swap1\n      pop\n        /* \"feg.sol\":18667:18695  _rOwned[sender].sub(rAmount) */\n      tag_109\n        /* \"feg.sol\":18687:18694  rAmount */\n      dup2\n        /* \"feg.sol\":18667:18674  _rOwned */\n      0x01\n        /* \"feg.sol\":18667:18682  _rOwned[sender] */\n      0x00\n        /* \"feg.sol\":18675:18681  sender */\n      dup6\n        /* \"feg.sol\":18667:18682  _rOwned[sender] */\n      0xffffffffffffffffffffffffffffffffffffffff\n      and\n      0xffffffffffffffffffffffffffffffffffffffff\n      and\n      dup2\n      mstore\n      0x20\n      add\n      swap1\n      dup2\n      mstore\n      0x20\n      add\n      0x00\n      keccak256\n      sload\n        /* \"feg.sol\":18667:18686  _rOwned[sender].sub */\n      tag_110\n      swap1\n        /* \"feg.sol\":18667:18695  _rOwned[sender].sub(rAmount) */\n      swap2\n      swap1\n      0xffffffff\n      and\n      jump\t// in\n    tag_109:\n        /* \"feg.sol\":18649:18656  _rOwned */\n      0x01\n        /* \"feg.sol\":18649:18664  _rOwned[sender] */\n      0x00\n        /* \"feg.sol\":18657:18663  sender */\n      dup5\n        /* \"feg.sol\":18649:18664  _rOwned[sender] */\n      0xffffffffffffffffffffffffffffffffffffffff\n      and\n      0xffffffffffffffffffffffffffffffffffffffff\n      and\n      dup2\n      mstore\n      0x20\n      add\n      swap1\n      dup2\n      mstore\n      0x20\n      add\n      0x00\n      keccak256\n        /* \"feg.sol\":18649:18695  _rOwned[sender] = _rOwned[sender].sub(rAmount) */\n      dup2\n      swap1\n      sstore\n      pop\n        /* \"feg.sol\":18715:18735  _rTotal.sub(rAmount) */\n      tag_111\n        /* \"feg.sol\":18727:18734  rAmount */\n      dup2\n        /* \"feg.sol\":18715:18722  _rTotal */\n      sload(0x06)\n        /* \"feg.sol\":18715:18726  _rTotal.sub */\n      tag_110\n      swap1\n        /* \"feg.sol\":18715:18735  _rTotal.sub(rAmount) */\n      swap2\n      swap1\n      0xffffffff\n      and\n      jump\t// in\n    tag_111:\n        /* \"feg.sol\":18705:18712  _rTotal */\n      0x06\n        /* \"feg.sol\":18705:18735  _rTotal = _rTotal.sub(rAmount) */\n      dup2\n      swap1\n      sstore\n      pop\n        /* \"feg.sol\":18758:18781  _tFeeTotal.add(tAmount) */\n      tag_112\n        /* \"feg.sol\":18773:18780  tAmount */\n      dup4\n        /* \"feg.sol\":18758:18768  _tFeeTotal */\n      sload(0x07)\n        /* \"feg.sol\":18758:18772  _tFeeTotal.add */\n      tag_113\n      swap1\n        /* \"feg.sol\":18758:18781  _tFeeTotal.add(tAmount) */\n      swap2\n      swap1\n      0xffffffff\n      and\n      jump\t// in\n    tag_112:\n        /* \"feg.sol\":18745:18755  _tFeeTotal */\n      0x07\n        /* \"feg.sol\":18745:18781  _tFeeTotal = _tFeeTotal.add(tAmount) */\n      dup2\n      swap1\n      sstore\n      pop\n        /* \"feg.sol\":18419:18788  function reflect(uint256 tAmount) public {... */\n      pop\n      pop\n      pop\n      jump\t// out\n        /* \"feg.sol\":16360:16441  function name() public view returns (string memory) {... */\n    tag_37:\n        /* \"feg.sol\":16397:16410  string memory */\n      0x60\n        /* \"feg.sol\":16429:16434  _name */\n      0x08\n        /* \"feg.sol\":16422:16434  return _name */\n      dup1\n      sload\n      0x01\n      dup2\n      0x01\n      and\n      iszero\n      0x0100\n      mul\n      sub\n      and\n      0x02\n      swap1\n      div\n      dup1\n      0x1f\n      add\n      0x20\n      dup1\n      swap2\n      div\n      mul\n      0x20\n      add\n      mload(0x40)\n      swap1\n      dup2\n      add\n      0x40\n      mstore\n      dup1\n      swap3\n      swap2\n      swap1\n      dup2\n      dup2\n      mstore\n      0x20\n      add\n      dup3\n      dup1\n      sload\n      0x01\n      dup2\n      0x01\n      and\n      iszero\n      0x0100\n      mul\n      sub\n      and\n      0x02\n      swap1\n      div\n      dup1\n      iszero\n      tag_115\n      jumpi\n      dup1\n      0x1f\n      lt\n      tag_116\n      jumpi\n      0x0100\n      dup1\n      dup4\n      sload\n      div\n      mul\n      dup4\n      mstore\n      swap2\n      0x20\n      add\n      swap2\n      jump(tag_115)\n    tag_116:\n      dup3\n      add\n      swap2\n      swap1\n      0x00\n      mstore\n      keccak256(0x00, 0x20)\n      swap1\n    tag_117:\n      dup2\n      sload\n      dup2\n      mstore\n      swap1\n      0x01\n      add\n      swap1\n      0x20\n      add\n      dup1\n      dup4\n      gt\n      tag_117\n      jumpi\n      dup3\n      swap1\n      sub\n      0x1f\n      and\n      dup3\n      add\n      swap2\n    tag_115:\n      pop\n      pop\n      pop\n      pop\n      pop\n      swap1\n      pop\n        /* \"feg.sol\":16360:16441  function name() public view returns (string memory) {... */\n      swap1\n      jump\t// out\n        /* \"feg.sol\":17242:17400  function approve(address spender, uint256 amount) public override returns (bool) {... */\n    tag_44:\n        /* \"feg.sol\":17317:17321  bool */\n      0x00\n        /* \"feg.sol\":17333:17372  _approve(_msgSender(), spender, amount) */\n      tag_119\n        /* \"feg.sol\":17342:17354  _msgSender() */\n      tag_120\n        /* \"feg.sol\":17342:17352  _msgSender */\n      tag_105\n        /* \"feg.sol\":17342:17354  _msgSender() */\n      jump\t// in\n    tag_120:\n        /* \"feg.sol\":17356:17363  spender */\n      dup5\n        /* \"feg.sol\":17365:17371  amount */\n      dup5\n        /* \"feg.sol\":17333:17341  _approve */\n      tag_121\n        /* \"feg.sol\":17333:17372  _approve(_msgSender(), spender, amount) */\n      jump\t// in\n    tag_119:\n        /* \"feg.sol\":17389:17393  true */\n      0x01\n        /* \"feg.sol\":17382:17393  return true */\n      swap1\n      pop\n        /* \"feg.sol\":17242:17400  function approve(address spender, uint256 amount) public override returns (bool) {... */\n      swap3\n      swap2\n      pop\n      pop\n      jump\t// out\n        /* \"feg.sol\":15651:15694  mapping (address => uint256) public _rOwned */\n    tag_47:\n      mstore(0x20, 0x01)\n      dup1\n      0x00\n      mstore\n      keccak256(0x00, 0x40)\n      0x00\n      swap2\n      pop\n      swap1\n      pop\n      sload\n      dup2\n      jump\t// out\n        /* \"feg.sol\":18328:18413  function totalFees() public view returns (uint256) {... */\n    tag_49:\n        /* \"feg.sol\":18370:18377  uint256 */\n      0x00\n        /* \"feg.sol\":18396:18406  _tFeeTotal */\n      sload(0x07)\n        /* \"feg.sol\":18389:18406  return _tFeeTotal */\n      swap1\n      pop\n        /* \"feg.sol\":18328:18413  function totalFees() public view returns (uint256) {... */\n      swap1\n      jump\t// out\n        /* \"feg.sol\":16625:16718  function totalSupply() public view override returns (uint256) {... */\n    tag_51:\n        /* \"feg.sol\":16678:16685  uint256 */\n      0x00\n        /* \"feg.sol\":15995:16023  100000000000 * 10**6 * 10**9 */\n      0x52b7d2dcc80cd2e4000000\n        /* \"feg.sol\":16697:16711  return _tTotal */\n      swap1\n      pop\n        /* \"feg.sol\":16625:16718  function totalSupply() public view override returns (uint256) {... */\n      swap1\n      jump\t// out\n        /* \"feg.sol\":17406:17715  function transferFrom(address sender, address recipient, uint256 amount) public override returns (bool) {... */\n    tag_54:\n        /* \"feg.sol\":17504:17508  bool */\n      0x00\n        /* \"feg.sol\":17520:17556  _transfer(sender, recipient, amount) */\n      tag_125\n        /* \"feg.sol\":17530:17536  sender */\n      dup5\n        /* \"feg.sol\":17538:17547  recipient */\n      dup5\n        /* \"feg.sol\":17549:17555  amount */\n      dup5\n        /* \"feg.sol\":17520:17529  _transfer */\n      tag_126\n        /* \"feg.sol\":17520:17556  _transfer(sender, recipient, amount) */\n      jump\t// in\n    tag_125:\n        /* \"feg.sol\":17566:17687  _approve(sender, _msgSender(), _allowances[sender][_msgSender()].sub(amount, \"ERC20: transfer amount exceeds allowance\")) */\n      tag_127\n        /* \"feg.sol\":17575:17581  sender */\n      dup5\n        /* \"feg.sol\":17583:17595  _msgSender() */\n      tag_128\n        /* \"feg.sol\":17583:17593  _msgSender */\n      tag_105\n        /* \"feg.sol\":17583:17595  _msgSender() */\n      jump\t// in\n    tag_128:\n        /* \"feg.sol\":17597:17686  _allowances[sender][_msgSender()].sub(amount, \"ERC20: transfer amount exceeds allowance\") */\n      tag_129\n        /* \"feg.sol\":17635:17641  amount */\n      dup6\n        /* \"feg.sol\":17597:17686  _allowances[sender][_msgSender()].sub(amount, \"ERC20: transfer amount exceeds allowance\") */\n      mload(0x40)\n      dup1\n      0x60\n      add\n      0x40\n      mstore\n      dup1\n      0x28\n      dup2\n      mstore\n      0x20\n      add\n      data_974d1b4421da69cc60b481194f0dad36a5bb4e23da810da7a7fb30cdba178330\n      0x28\n      swap2\n      codecopy\n        /* \"feg.sol\":17597:17608  _allowances */\n      0x03\n        /* \"feg.sol\":17597:17616  _allowances[sender] */\n      0x00\n        /* \"feg.sol\":17609:17615  sender */\n      dup12\n        /* \"feg.sol\":17597:17616  _allowances[sender] */\n      0xffffffffffffffffffffffffffffffffffffffff\n      and\n      0xffffffffffffffffffffffffffffffffffffffff\n      and\n      dup2\n      mstore\n      0x20\n      add\n      swap1\n      dup2\n      mstore\n      0x20\n      add\n      0x00\n      keccak256\n        /* \"feg.sol\":17597:17630  _allowances[sender][_msgSender()] */\n      0x00\n        /* \"feg.sol\":17617:17629  _msgSender() */\n      tag_130\n        /* \"feg.sol\":17617:17627  _msgSender */\n      tag_105\n        /* \"feg.sol\":17617:17629  _msgSender() */\n      jump\t// in\n    tag_130:\n        /* \"feg.sol\":17597:17630  _allowances[sender][_msgSender()] */\n      0xffffffffffffffffffffffffffffffffffffffff\n      and\n      0xffffffffffffffffffffffffffffffffffffffff\n      and\n      dup2\n      mstore\n      0x20\n      add\n      swap1\n      dup2\n      mstore\n      0x20\n      add\n      0x00\n      keccak256\n      sload\n        /* \"feg.sol\":17597:17634  _allowances[sender][_msgSender()].sub */\n      tag_131\n      swap1\n        /* \"feg.sol\":17597:17686  _allowances[sender][_msgSender()].sub(amount, \"ERC20: transfer amount exceeds allowance\") */\n      swap3\n      swap2\n      swap1\n      0xffffffff\n      and\n      jump\t// in\n    tag_129:\n        /* \"feg.sol\":17566:17574  _approve */\n      tag_121\n        /* \"feg.sol\":17566:17687  _approve(sender, _msgSender(), _allowances[sender][_msgSender()].sub(amount, \"ERC20: transfer amount exceeds allowance\")) */\n      jump\t// in\n    tag_127:\n        /* \"feg.sol\":17704:17708  true */\n      0x01\n        /* \"feg.sol\":17697:17708  return true */\n      swap1\n      pop\n        /* \"feg.sol\":17406:17715  function transferFrom(address sender, address recipient, uint256 amount) public override returns (bool) {... */\n      swap4\n      swap3\n      pop\n      pop\n      pop\n      jump\t// out\n        /* \"feg.sol\":19225:19474  function tokenFromReflection(uint256 rAmount) public view returns(uint256) {... */\n    tag_57:\n        /* \"feg.sol\":19291:19298  uint256 */\n      0x00\n        /* \"feg.sol\":19329:19336  _rTotal */\n      sload(0x06)\n        /* \"feg.sol\":19318:19325  rAmount */\n      dup3\n        /* \"feg.sol\":19318:19336  rAmount <= _rTotal */\n      gt\n      iszero\n        /* \"feg.sol\":19310:19383  require(rAmount <= _rTotal, \"Amount must be less than total reflections\") */\n      tag_133\n      jumpi\n      mload(0x40)\n      0x08c379a000000000000000000000000000000000000000000000000000000000\n      dup2\n      mstore\n      0x04\n      add\n      dup1\n      dup1\n      0x20\n      add\n      dup3\n      dup2\n      sub\n      dup3\n      mstore\n      0x2a\n      dup2\n      mstore\n      0x20\n      add\n      dup1\n      data_22f7af55a509c3b14f0d528f087748dec8a8bf425135e3f5dc28c6a31ec6d812\n      0x2a\n      swap2\n      codecopy\n      0x40\n      add\n      swap2\n      pop\n      pop\n      mload(0x40)\n      dup1\n      swap2\n      sub\n      swap1\n      revert\n    tag_133:\n        /* \"feg.sol\":19393:19412  uint256 currentRate */\n      0x00\n        /* \"feg.sol\":19416:19426  _getRate() */\n      tag_134\n        /* \"feg.sol\":19416:19424  _getRate */\n      tag_135\n        /* \"feg.sol\":19416:19426  _getRate() */\n      jump\t// in\n    tag_134:\n        /* \"feg.sol\":19393:19426  uint256 currentRate =  _getRate() */\n      swap1\n      pop\n        /* \"feg.sol\":19443:19467  rAmount.div(currentRate) */\n      tag_136\n        /* \"feg.sol\":19455:19466  currentRate */\n      dup2\n        /* \"feg.sol\":19443:19450  rAmount */\n      dup5\n        /* \"feg.sol\":19443:19454  rAmount.div */\n      tag_137\n      swap1\n        /* \"feg.sol\":19443:19467  rAmount.div(currentRate) */\n      swap2\n      swap1\n      0xffffffff\n      and\n      jump\t// in\n    tag_136:\n        /* \"feg.sol\":19436:19467  return rAmount.div(currentRate) */\n      swap2\n      pop\n      pop\n        /* \"feg.sol\":19225:19474  function tokenFromReflection(uint256 rAmount) public view returns(uint256) {... */\n      swap2\n      swap1\n      pop\n      jump\t// out\n        /* \"feg.sol\":16538:16619  function decimals() public view returns (uint8) {... */\n    tag_59:\n        /* \"feg.sol\":16579:16584  uint8 */\n      0x00\n        /* \"feg.sol\":16603:16612  _decimals */\n      0x0a\n      0x00\n      swap1\n      sload\n      swap1\n      0x0100\n      exp\n      swap1\n      div\n      0xff\n      and\n        /* \"feg.sol\":16596:16612  return _decimals */\n      swap1\n      pop\n        /* \"feg.sol\":16538:16619  function decimals() public view returns (uint8) {... */\n      swap1\n      jump\t// out\n        /* \"feg.sol\":17721:17936  function increaseAllowance(address spender, uint256 addedValue) public virtual returns (bool) {... */\n    tag_62:\n        /* \"feg.sol\":17809:17813  bool */\n      0x00\n        /* \"feg.sol\":17825:17908  _approve(_msgSender(), spender, _allowances[_msgSender()][spender].add(addedValue)) */\n      tag_140\n        /* \"feg.sol\":17834:17846  _msgSender() */\n      tag_141\n        /* \"feg.sol\":17834:17844  _msgSender */\n      tag_105\n        /* \"feg.sol\":17834:17846  _msgSender() */\n      jump\t// in\n    tag_141:\n        /* \"feg.sol\":17848:17855  spender */\n      dup5\n        /* \"feg.sol\":17857:17907  _allowances[_msgSender()][spender].add(addedValue) */\n      tag_142\n        /* \"feg.sol\":17896:17906  addedValue */\n      dup6\n        /* \"feg.sol\":17857:17868  _allowances */\n      0x03\n        /* \"feg.sol\":17857:17882  _allowances[_msgSender()] */\n      0x00\n        /* \"feg.sol\":17869:17881  _msgSender() */\n      tag_143\n        /* \"feg.sol\":17869:17879  _msgSender */\n      tag_105\n        /* \"feg.sol\":17869:17881  _msgSender() */\n      jump\t// in\n    tag_143:\n        /* \"feg.sol\":17857:17882  _allowances[_msgSender()] */\n      0xffffffffffffffffffffffffffffffffffffffff\n      and\n      0xffffffffffffffffffffffffffffffffffffffff\n      and\n      dup2\n      mstore\n      0x20\n      add\n      swap1\n      dup2\n      mstore\n      0x20\n      add\n      0x00\n      keccak256\n        /* \"feg.sol\":17857:17891  _allowances[_msgSender()][spender] */\n      0x00\n        /* \"feg.sol\":17883:17890  spender */\n      dup10\n        /* \"feg.sol\":17857:17891  _allowances[_msgSender()][spender] */\n      0xffffffffffffffffffffffffffffffffffffffff\n      and\n      0xffffffffffffffffffffffffffffffffffffffff\n      and\n      dup2\n      mstore\n      0x20\n      add\n      swap1\n      dup2\n      mstore\n      0x20\n      add\n      0x00\n      keccak256\n      sload\n        /* \"feg.sol\":17857:17895  _allowances[_msgSender()][spender].add */\n      tag_113\n      swap1\n        /* \"feg.sol\":17857:17907  _allowances[_msgSender()][spender].add(addedValue) */\n      swap2\n      swap1\n      0xffffffff\n      and\n      jump\t// in\n    tag_142:\n        /* \"feg.sol\":17825:17833  _approve */\n      tag_121\n        /* \"feg.sol\":17825:17908  _approve(_msgSender(), spender, _allowances[_msgSender()][spender].add(addedValue)) */\n      jump\t// in\n    tag_140:\n        /* \"feg.sol\":17925:17929  true */\n      0x01\n        /* \"feg.sol\":17918:17929  return true */\n      swap1\n      pop\n        /* \"feg.sol\":17721:17936  function increaseAllowance(address spender, uint256 addedValue) public virtual returns (bool) {... */\n      swap3\n      swap2\n      pop\n      pop\n      jump\t// out\n        /* \"feg.sol\":15700:15743  mapping (address => uint256) public _tOwned */\n    tag_65:\n      mstore(0x20, 0x02)\n      dup1\n      0x00\n      mstore\n      keccak256(0x00, 0x40)\n      0x00\n      swap2\n      pop\n      swap1\n      pop\n      sload\n      dup2\n      jump\t// out\n        /* \"feg.sol\":18794:19219  function reflectionFromToken(uint256 tAmount, bool deductTransferFee) public view returns(uint256) {... */\n    tag_68:\n        /* \"feg.sol\":18884:18891  uint256 */\n      0x00\n        /* \"feg.sol\":15995:16023  100000000000 * 10**6 * 10**9 */\n      0x52b7d2dcc80cd2e4000000\n        /* \"feg.sol\":18911:18918  tAmount */\n      dup4\n        /* \"feg.sol\":18911:18929  tAmount <= _tTotal */\n      gt\n      iszero\n        /* \"feg.sol\":18903:18965  require(tAmount <= _tTotal, \"Amount must be less than supply\") */\n      tag_145\n      jumpi\n      mload(0x40)\n      0x08c379a000000000000000000000000000000000000000000000000000000000\n      dup2\n      mstore\n      0x04\n      add\n      dup1\n      dup1\n      0x20\n      add\n      dup3\n      dup2\n      sub\n      dup3\n      mstore\n      0x1f\n      dup2\n      mstore\n      0x20\n      add\n      dup1\n      0x416d6f756e74206d757374206265206c657373207468616e20737570706c7900\n      dup2\n      mstore\n      pop\n      0x20\n      add\n      swap2\n      pop\n      pop\n      mload(0x40)\n      dup1\n      swap2\n      sub\n      swap1\n      revert\n    tag_145:\n        /* \"feg.sol\":18980:18997  deductTransferFee */\n      dup2\n        /* \"feg.sol\":18975:19213  if (!deductTransferFee) {... */\n      tag_146\n      jumpi\n        /* \"feg.sol\":19014:19029  uint256 rAmount */\n      0x00\n        /* \"feg.sol\":19037:19056  _getValues(tAmount) */\n      tag_147\n        /* \"feg.sol\":19048:19055  tAmount */\n      dup5\n        /* \"feg.sol\":19037:19047  _getValues */\n      tag_108\n        /* \"feg.sol\":19037:19056  _getValues(tAmount) */\n      jump\t// in\n    tag_147:\n        /* \"feg.sol\":19013:19056  (uint256 rAmount,,,,) = _getValues(tAmount) */\n      pop\n      pop\n      pop\n      pop\n      swap1\n      pop\n        /* \"feg.sol\":19077:19084  rAmount */\n      dup1\n        /* \"feg.sol\":19070:19084  return rAmount */\n      swap2\n      pop\n      pop\n      jump(tag_144)\n        /* \"feg.sol\":18975:19213  if (!deductTransferFee) {... */\n    tag_146:\n        /* \"feg.sol\":19117:19140  uint256 rTransferAmount */\n      0x00\n        /* \"feg.sol\":19147:19166  _getValues(tAmount) */\n      tag_149\n        /* \"feg.sol\":19158:19165  tAmount */\n      dup5\n        /* \"feg.sol\":19147:19157  _getValues */\n      tag_108\n        /* \"feg.sol\":19147:19166  _getValues(tAmount) */\n      jump\t// in\n    tag_149:\n        /* \"feg.sol\":19115:19166  (,uint256 rTransferAmount,,,) = _getValues(tAmount) */\n      pop\n      pop\n      pop\n      swap2\n      pop\n      pop\n        /* \"feg.sol\":19187:19202  rTransferAmount */\n      dup1\n        /* \"feg.sol\":19180:19202  return rTransferAmount */\n      swap2\n      pop\n      pop\n        /* \"feg.sol\":18794:19219  function reflectionFromToken(uint256 tAmount, bool deductTransferFee) public view returns(uint256) {... */\n    tag_144:\n      swap3\n      swap2\n      pop\n      pop\n      jump\t// out\n        /* \"feg.sol\":16724:16919  function balanceOf(address account) public view override returns (uint256) {... */\n    tag_71:\n        /* \"feg.sol\":16790:16797  uint256 */\n      0x00\n        /* \"feg.sol\":16813:16824  _isExcluded */\n      0x04\n        /* \"feg.sol\":16813:16833  _isExcluded[account] */\n      0x00\n        /* \"feg.sol\":16825:16832  account */\n      dup4\n        /* \"feg.sol\":16813:16833  _isExcluded[account] */\n      0xffffffffffffffffffffffffffffffffffffffff\n      and\n      0xffffffffffffffffffffffffffffffffffffffff\n      and\n      dup2\n      mstore\n      0x20\n      add\n      swap1\n      dup2\n      mstore\n      0x20\n      add\n      0x00\n      keccak256\n      0x00\n      swap1\n      sload\n      swap1\n      0x0100\n      exp\n      swap1\n      div\n      0xff\n      and\n        /* \"feg.sol\":16809:16858  if (_isExcluded[account]) return _tOwned[account] */\n      iszero\n      tag_151\n      jumpi\n        /* \"feg.sol\":16842:16849  _tOwned */\n      0x02\n        /* \"feg.sol\":16842:16858  _tOwned[account] */\n      0x00\n        /* \"feg.sol\":16850:16857  account */\n      dup4\n        /* \"feg.sol\":16842:16858  _tOwned[account] */\n      0xffffffffffffffffffffffffffffffffffffffff\n      and\n      0xffffffffffffffffffffffffffffffffffffffff\n      and\n      dup2\n      mstore\n      0x20\n      add\n      swap1\n      dup2\n      mstore\n      0x20\n      add\n      0x00\n      keccak256\n      sload\n        /* \"feg.sol\":16835:16858  return _tOwned[account] */\n      swap1\n      pop\n      jump(tag_150)\n        /* \"feg.sol\":16809:16858  if (_isExcluded[account]) return _tOwned[account] */\n    tag_151:\n        /* \"feg.sol\":16875:16912  tokenFromReflection(_rOwned[account]) */\n      tag_152\n        /* \"feg.sol\":16895:16902  _rOwned */\n      0x01\n        /* \"feg.sol\":16895:16911  _rOwned[account] */\n      0x00\n        /* \"feg.sol\":16903:16910  account */\n      dup5\n        /* \"feg.sol\":16895:16911  _rOwned[account] */\n      0xffffffffffffffffffffffffffffffffffffffff\n      and\n      0xffffffffffffffffffffffffffffffffffffffff\n      and\n      dup2\n      mstore\n      0x20\n      add\n      swap1\n      dup2\n      mstore\n      0x20\n      add\n      0x00\n      keccak256\n      sload\n        /* \"feg.sol\":16875:16894  tokenFromReflection */\n      tag_57\n        /* \"feg.sol\":16875:16912  tokenFromReflection(_rOwned[account]) */\n      jump\t// in\n    tag_152:\n        /* \"feg.sol\":16868:16912  return tokenFromReflection(_rOwned[account]) */\n      swap1\n      pop\n        /* \"feg.sol\":16724:16919  function balanceOf(address account) public view override returns (uint256) {... */\n    tag_150:\n      swap2\n      swap1\n      pop\n      jump\t// out\n        /* \"feg.sol\":15000:15145  function renounceOwnership() public virtual onlyOwner {... */\n    tag_73:\n        /* \"feg.sol\":14591:14603  _msgSender() */\n      tag_154\n        /* \"feg.sol\":14591:14601  _msgSender */\n      tag_105\n        /* \"feg.sol\":14591:14603  _msgSender() */\n      jump\t// in\n    tag_154:\n        /* \"feg.sol\":14581:14603  _owner == _msgSender() */\n      0xffffffffffffffffffffffffffffffffffffffff\n      and\n        /* \"feg.sol\":14581:14587  _owner */\n      0x00\n      dup1\n      sload\n      swap1\n      0x0100\n      exp\n      swap1\n      div\n      0xffffffffffffffffffffffffffffffffffffffff\n      and\n        /* \"feg.sol\":14581:14603  _owner == _msgSender() */\n      0xffffffffffffffffffffffffffffffffffffffff\n      and\n      eq\n        /* \"feg.sol\":14573:14640  require(_owner == _msgSender(), \"Ownable: caller is not the owner\") */\n      tag_155\n      jumpi\n      mload(0x40)\n      0x08c379a000000000000000000000000000000000000000000000000000000000\n      dup2\n      mstore\n      0x04\n      add\n      dup1\n      dup1\n      0x20\n      add\n      dup3\n      dup2\n      sub\n      dup3\n      mstore\n      0x20\n      dup2\n      mstore\n      0x20\n      add\n      dup1\n      0x4f776e61626c653a2063616c6c6572206973206e6f7420746865206f776e6572\n      dup2\n      mstore\n      pop\n      0x20\n      add\n      swap2\n      pop\n      pop\n      mload(0x40)\n      dup1\n      swap2\n      sub\n      swap1\n      revert\n    tag_155:\n        /* \"feg.sol\":15106:15107  0 */\n      0x00\n        /* \"feg.sol\":15069:15109  OwnershipTransferred(_owner, address(0)) */\n      0xffffffffffffffffffffffffffffffffffffffff\n      and\n        /* \"feg.sol\":15090:15096  _owner */\n      0x00\n      dup1\n      sload\n      swap1\n      0x0100\n      exp\n      swap1\n      div\n      0xffffffffffffffffffffffffffffffffffffffff\n      and\n        /* \"feg.sol\":15069:15109  OwnershipTransferred(_owner, address(0)) */\n      0xffffffffffffffffffffffffffffffffffffffff\n      and\n      0x8be0079c531659141344cd1fd0a4f28419497f9722a3daafe3b4186f6b6457e0\n      mload(0x40)\n      mload(0x40)\n      dup1\n      swap2\n      sub\n      swap1\n      log3\n        /* \"feg.sol\":15136:15137  0 */\n      0x00\n        /* \"feg.sol\":15119:15125  _owner */\n      dup1\n      0x00\n        /* \"feg.sol\":15119:15138  _owner = address(0) */\n      0x0100\n      exp\n      dup2\n      sload\n      dup2\n      0xffffffffffffffffffffffffffffffffffffffff\n      mul\n      not\n      and\n      swap1\n      dup4\n      0xffffffffffffffffffffffffffffffffffffffff\n      and\n      mul\n      or\n      swap1\n      sstore\n      pop\n        /* \"feg.sol\":15000:15145  function renounceOwnership() public virtual onlyOwner {... */\n      jump\t// out\n        /* \"feg.sol\":14377:14454  function owner() public view returns (address) {... */\n    tag_75:\n        /* \"feg.sol\":14415:14422  address */\n      0x00\n        /* \"feg.sol\":14441:14447  _owner */\n      dup1\n      0x00\n      swap1\n      sload\n      swap1\n      0x0100\n      exp\n      swap1\n      div\n      0xffffffffffffffffffffffffffffffffffffffff\n      and\n        /* \"feg.sol\":14434:14447  return _owner */\n      swap1\n      pop\n        /* \"feg.sol\":14377:14454  function owner() public view returns (address) {... */\n      swap1\n      jump\t// out\n        /* \"feg.sol\":16447:16532  function symbol() public view returns (string memory) {... */\n    tag_77:\n        /* \"feg.sol\":16486:16499  string memory */\n      0x60\n        /* \"feg.sol\":16518:16525  _symbol */\n      0x09\n        /* \"feg.sol\":16511:16525  return _symbol */\n      dup1\n      sload\n      0x01\n      dup2\n      0x01\n      and\n      iszero\n      0x0100\n      mul\n      sub\n      and\n      0x02\n      swap1\n      div\n      dup1\n      0x1f\n      add\n      0x20\n      dup1\n      swap2\n      div\n      mul\n      0x20\n      add\n      mload(0x40)\n      swap1\n      dup2\n      add\n      0x40\n      mstore\n      dup1\n      swap3\n      swap2\n      swap1\n      dup2\n      dup2\n      mstore\n      0x20\n      add\n      dup3\n      dup1\n      sload\n      0x01\n      dup2\n      0x01\n      and\n      iszero\n      0x0100\n      mul\n      sub\n      and\n      0x02\n      swap1\n      div\n      dup1\n      iszero\n      tag_159\n      jumpi\n      dup1\n      0x1f\n      lt\n      tag_160\n      jumpi\n      0x0100\n      dup1\n      dup4\n      sload\n      div\n      mul\n      dup4\n      mstore\n      swap2\n      0x20\n      add\n      swap2\n      jump(tag_159)\n    tag_160:\n      dup3\n      add\n      swap2\n      swap1\n      0x00\n      mstore\n      keccak256(0x00, 0x20)\n      swap1\n    tag_161:\n      dup2\n      sload\n      dup2\n      mstore\n      swap1\n      0x01\n      add\n      swap1\n      0x20\n      add\n      dup1\n      dup4\n      gt\n      tag_161\n      jumpi\n      dup3\n      swap1\n      sub\n      0x1f\n      and\n      dup3\n      add\n      swap2\n    tag_159:\n      pop\n      pop\n      pop\n      pop\n      pop\n      swap1\n      pop\n        /* \"feg.sol\":16447:16532  function symbol() public view returns (string memory) {... */\n      swap1\n      jump\t// out\n        /* \"feg.sol\":17942:18208  function decreaseAllowance(address spender, uint256 subtractedValue) public virtual returns (bool) {... */\n    tag_84:\n        /* \"feg.sol\":18035:18039  bool */\n      0x00\n        /* \"feg.sol\":18051:18180  _approve(_msgSender(), spender, _allowances[_msgSender()][spender].sub(subtractedValue, \"ERC20: decreased allowance below zero\")) */\n      tag_163\n        /* \"feg.sol\":18060:18072  _msgSender() */\n      tag_164\n        /* \"feg.sol\":18060:18070  _msgSender */\n      tag_105\n        /* \"feg.sol\":18060:18072  _msgSender() */\n      jump\t// in\n    tag_164:\n        /* \"feg.sol\":18074:18081  spender */\n      dup5\n        /* \"feg.sol\":18083:18179  _allowances[_msgSender()][spender].sub(subtractedValue, \"ERC20: decreased allowance below zero\") */\n      tag_165\n        /* \"feg.sol\":18122:18137  subtractedValue */\n      dup6\n        /* \"feg.sol\":18083:18179  _allowances[_msgSender()][spender].sub(subtractedValue, \"ERC20: decreased allowance below zero\") */\n      mload(0x40)\n      dup1\n      0x60\n      add\n      0x40\n      mstore\n      dup1\n      0x25\n      dup2\n      mstore\n      0x20\n      add\n      data_f8b476f7d28209d77d4a4ac1fe36b9f8259aa1bb6bddfa6e89de7e51615cf8a8\n      0x25\n      swap2\n      codecopy\n        /* \"feg.sol\":18083:18094  _allowances */\n      0x03\n        /* \"feg.sol\":18083:18108  _allowances[_msgSender()] */\n      0x00\n        /* \"feg.sol\":18095:18107  _msgSender() */\n      tag_166\n        /* \"feg.sol\":18095:18105  _msgSender */\n      tag_105\n        /* \"feg.sol\":18095:18107  _msgSender() */\n      jump\t// in\n    tag_166:\n        /* \"feg.sol\":18083:18108  _allowances[_msgSender()] */\n      0xffffffffffffffffffffffffffffffffffffffff\n      and\n      0xffffffffffffffffffffffffffffffffffffffff\n      and\n      dup2\n      mstore\n      0x20\n      add\n      swap1\n      dup2\n      mstore\n      0x20\n      add\n      0x00\n      keccak256\n        /* \"feg.sol\":18083:18117  _allowances[_msgSender()][spender] */\n      0x00\n        /* \"feg.sol\":18109:18116  spender */\n      dup11\n        /* \"feg.sol\":18083:18117  _allowances[_msgSender()][spender] */\n      0xffffffffffffffffffffffffffffffffffffffff\n      and\n      0xffffffffffffffffffffffffffffffffffffffff\n      and\n      dup2\n      mstore\n      0x20\n      add\n      swap1\n      dup2\n      mstore\n      0x20\n      add\n      0x00\n      keccak256\n      sload\n        /* \"feg.sol\":18083:18121  _allowances[_msgSender()][spender].sub */\n      tag_131\n      swap1\n        /* \"feg.sol\":18083:18179  _allowances[_msgSender()][spender].sub(subtractedValue, \"ERC20: decreased allowance below zero\") */\n      swap3\n      swap2\n      swap1\n      0xffffffff\n      and\n      jump\t// in\n    tag_165:\n        /* \"feg.sol\":18051:18059  _approve */\n      tag_121\n        /* \"feg.sol\":18051:18180  _approve(_msgSender(), spender, _allowances[_msgSender()][spender].sub(subtractedValue, \"ERC20: decreased allowance below zero\")) */\n      jump\t// in\n    tag_163:\n        /* \"feg.sol\":18197:18201  true */\n      0x01\n        /* \"feg.sol\":18190:18201  return true */\n      swap1\n      pop\n        /* \"feg.sol\":17942:18208  function decreaseAllowance(address spender, uint256 subtractedValue) public virtual returns (bool) {... */\n      swap3\n      swap2\n      pop\n      pop\n      jump\t// out\n        /* \"feg.sol\":16925:17089  function transfer(address recipient, uint256 amount) public override returns (bool) {... */\n    tag_87:\n        /* \"feg.sol\":17003:17007  bool */\n      0x00\n        /* \"feg.sol\":17019:17061  _transfer(_msgSender(), recipient, amount) */\n      tag_168\n        /* \"feg.sol\":17029:17041  _msgSender() */\n      tag_169\n        /* \"feg.sol\":17029:17039  _msgSender */\n      tag_105\n        /* \"feg.sol\":17029:17041  _msgSender() */\n      jump\t// in\n    tag_169:\n        /* \"feg.sol\":17043:17052  recipient */\n      dup5\n        /* \"feg.sol\":17054:17060  amount */\n      dup5\n        /* \"feg.sol\":17019:17028  _transfer */\n      tag_126\n        /* \"feg.sol\":17019:17061  _transfer(_msgSender(), recipient, amount) */\n      jump\t// in\n    tag_168:\n        /* \"feg.sol\":17078:17082  true */\n      0x01\n        /* \"feg.sol\":17071:17082  return true */\n      swap1\n      pop\n        /* \"feg.sol\":16925:17089  function transfer(address recipient, uint256 amount) public override returns (bool) {... */\n      swap3\n      swap2\n      pop\n      pop\n      jump\t// out\n        /* \"feg.sol\":18214:18322  function isExcluded(address account) public view returns (bool) {... */\n    tag_90:\n        /* \"feg.sol\":18272:18276  bool */\n      0x00\n        /* \"feg.sol\":18295:18306  _isExcluded */\n      0x04\n        /* \"feg.sol\":18295:18315  _isExcluded[account] */\n      0x00\n        /* \"feg.sol\":18307:18314  account */\n      dup4\n        /* \"feg.sol\":18295:18315  _isExcluded[account] */\n      0xffffffffffffffffffffffffffffffffffffffff\n      and\n      0xffffffffffffffffffffffffffffffffffffffff\n      and\n      dup2\n      mstore\n      0x20\n      add\n      swap1\n      dup2\n      mstore\n      0x20\n      add\n      0x00\n      keccak256\n      0x00\n      swap1\n      sload\n      swap1\n      0x0100\n      exp\n      swap1\n      div\n      0xff\n      and\n        /* \"feg.sol\":18288:18315  return _isExcluded[account] */\n      swap1\n      pop\n        /* \"feg.sol\":18214:18322  function isExcluded(address account) public view returns (bool) {... */\n      swap2\n      swap1\n      pop\n      jump\t// out\n        /* \"feg.sol\":17095:17236  function allowance(address owner, address spender) public view override returns (uint256) {... */\n    tag_93:\n        /* \"feg.sol\":17176:17183  uint256 */\n      0x00\n        /* \"feg.sol\":17202:17213  _allowances */\n      0x03\n        /* \"feg.sol\":17202:17220  _allowances[owner] */\n      0x00\n        /* \"feg.sol\":17214:17219  owner */\n      dup5\n        /* \"feg.sol\":17202:17220  _allowances[owner] */\n      0xffffffffffffffffffffffffffffffffffffffff\n      and\n      0xffffffffffffffffffffffffffffffffffffffff\n      and\n      dup2\n      mstore\n      0x20\n      add\n      swap1\n      dup2\n      mstore\n      0x20\n      add\n      0x00\n      keccak256\n        /* \"feg.sol\":17202:17229  _allowances[owner][spender] */\n      0x00\n        /* \"feg.sol\":17221:17228  spender */\n      dup4\n        /* \"feg.sol\":17202:17229  _allowances[owner][spender] */\n      0xffffffffffffffffffffffffffffffffffffffff\n      and\n      0xffffffffffffffffffffffffffffffffffffffff\n      and\n      dup2\n      mstore\n      0x20\n      add\n      swap1\n      dup2\n      mstore\n      0x20\n      add\n      0x00\n      keccak256\n      sload\n        /* \"feg.sol\":17195:17229  return _allowances[owner][spender] */\n      swap1\n      pop\n        /* \"feg.sol\":17095:17236  function allowance(address owner, address spender) public view override returns (uint256) {... */\n      swap3\n      swap2\n      pop\n      pop\n      jump\t// out\n        /* \"feg.sol\":19480:19805  function excludeAccount(address account) external onlyOwner() {... */\n    tag_96:\n        /* \"feg.sol\":14591:14603  _msgSender() */\n      tag_173\n        /* \"feg.sol\":14591:14601  _msgSender */\n      tag_105\n        /* \"feg.sol\":14591:14603  _msgSender() */\n      jump\t// in\n    tag_173:\n        /* \"feg.sol\":14581:14603  _owner == _msgSender() */\n      0xffffffffffffffffffffffffffffffffffffffff\n      and\n        /* \"feg.sol\":14581:14587  _owner */\n      0x00\n      dup1\n      sload\n      swap1\n      0x0100\n      exp\n      swap1\n      div\n      0xffffffffffffffffffffffffffffffffffffffff\n      and\n        /* \"feg.sol\":14581:14603  _owner == _msgSender() */\n      0xffffffffffffffffffffffffffffffffffffffff\n      and\n      eq\n        /* \"feg.sol\":14573:14640  require(_owner == _msgSender(), \"Ownable: caller is not the owner\") */\n      tag_174\n      jumpi\n      mload(0x40)\n      0x08c379a000000000000000000000000000000000000000000000000000000000\n      dup2\n      mstore\n      0x04\n      add\n      dup1\n      dup1\n      0x20\n      add\n      dup3\n      dup2\n      sub\n      dup3\n      mstore\n      0x20\n      dup2\n      mstore\n      0x20\n      add\n      dup1\n      0x4f776e61626c653a2063616c6c6572206973206e6f7420746865206f776e6572\n      dup2\n      mstore\n      pop\n      0x20\n      add\n      swap2\n      pop\n      pop\n      mload(0x40)\n      dup1\n      swap2\n      sub\n      swap1\n      revert\n    tag_174:\n        /* \"feg.sol\":19561:19572  _isExcluded */\n      0x04\n        /* \"feg.sol\":19561:19581  _isExcluded[account] */\n      0x00\n        /* \"feg.sol\":19573:19580  account */\n      dup3\n        /* \"feg.sol\":19561:19581  _isExcluded[account] */\n      0xffffffffffffffffffffffffffffffffffffffff\n      and\n      0xffffffffffffffffffffffffffffffffffffffff\n      and\n      dup2\n      mstore\n      0x20\n      add\n      swap1\n      dup2\n      mstore\n      0x20\n      add\n      0x00\n      keccak256\n      0x00\n      swap1\n      sload\n      swap1\n      0x0100\n      exp\n      swap1\n      div\n      0xff\n      and\n        /* \"feg.sol\":19560:19581  !_isExcluded[account] */\n      iszero\n        /* \"feg.sol\":19552:19613  require(!_isExcluded[account], \"Account is already excluded\") */\n      tag_176\n      jumpi\n      mload(0x40)\n      0x08c379a000000000000000000000000000000000000000000000000000000000\n      dup2\n      mstore\n      0x04\n      add\n      dup1\n      dup1\n      0x20\n      add\n      dup3\n      dup2\n      sub\n      dup3\n      mstore\n      0x1b\n      dup2\n      mstore\n      0x20\n      add\n      dup1\n      0x4163636f756e7420697320616c7265616479206578636c756465640000000000\n      dup2\n      mstore\n      pop\n      0x20\n      add\n      swap2\n      pop\n      pop\n      mload(0x40)\n      dup1\n      swap2\n      sub\n      swap1\n      revert\n    tag_176:\n        /* \"feg.sol\":19645:19646  0 */\n      0x00\n        /* \"feg.sol\":19626:19633  _rOwned */\n      0x01\n        /* \"feg.sol\":19626:19642  _rOwned[account] */\n      0x00\n        /* \"feg.sol\":19634:19641  account */\n      dup4\n        /* \"feg.sol\":19626:19642  _rOwned[account] */\n      0xffffffffffffffffffffffffffffffffffffffff\n      and\n      0xffffffffffffffffffffffffffffffffffffffff\n      and\n      dup2\n      mstore\n      0x20\n      add\n      swap1\n      dup2\n      mstore\n      0x20\n      add\n      0x00\n      keccak256\n      sload\n        /* \"feg.sol\":19626:19646  _rOwned[account] > 0 */\n      gt\n        /* \"feg.sol\":19623:19729  if(_rOwned[account] > 0) {... */\n      iszero\n      tag_177\n      jumpi\n        /* \"feg.sol\":19681:19718  tokenFromReflection(_rOwned[account]) */\n      tag_178\n        /* \"feg.sol\":19701:19708  _rOwned */\n      0x01\n        /* \"feg.sol\":19701:19717  _rOwned[account] */\n      0x00\n        /* \"feg.sol\":19709:19716  account */\n      dup4\n        /* \"feg.sol\":19701:19717  _rOwned[account] */\n      0xffffffffffffffffffffffffffffffffffffffff\n      and\n      0xffffffffffffffffffffffffffffffffffffffff\n      and\n      dup2\n      mstore\n      0x20\n      add\n      swap1\n      dup2\n      mstore\n      0x20\n      add\n      0x00\n      keccak256\n      sload\n        /* \"feg.sol\":19681:19700  tokenFromReflection */\n      tag_57\n        /* \"feg.sol\":19681:19718  tokenFromReflection(_rOwned[account]) */\n      jump\t// in\n    tag_178:\n        /* \"feg.sol\":19662:19669  _tOwned */\n      0x02\n        /* \"feg.sol\":19662:19678  _tOwned[account] */\n      0x00\n        /* \"feg.sol\":19670:19677  account */\n      dup4\n        /* \"feg.sol\":19662:19678  _tOwned[account] */\n      0xffffffffffffffffffffffffffffffffffffffff\n      and\n      0xffffffffffffffffffffffffffffffffffffffff\n      and\n      dup2\n      mstore\n      0x20\n      add\n      swap1\n      dup2\n      mstore\n      0x20\n      add\n      0x00\n      keccak256\n        /* \"feg.sol\":19662:19718  _tOwned[account] = tokenFromReflection(_rOwned[account]) */\n      dup2\n      swap1\n      sstore\n      pop\n        /* \"feg.sol\":19623:19729  if(_rOwned[account] > 0) {... */\n    tag_177:\n        /* \"feg.sol\":19761:19765  true */\n      0x01\n        /* \"feg.sol\":19738:19749  _isExcluded */\n      0x04\n        /* \"feg.sol\":19738:19758  _isExcluded[account] */\n      0x00\n        /* \"feg.sol\":19750:19757  account */\n      dup4\n        /* \"feg.sol\":19738:19758  _isExcluded[account] */\n      0xffffffffffffffffffffffffffffffffffffffff\n      and\n      0xffffffffffffffffffffffffffffffffffffffff\n      and\n      dup2\n      mstore\n      0x20\n      add\n      swap1\n      dup2\n      mstore\n      0x20\n      add\n      0x00\n      keccak256\n      0x00\n        /* \"feg.sol\":19738:19765  _isExcluded[account] = true */\n      0x0100\n      exp\n      dup2\n      sload\n      dup2\n      0xff\n      mul\n      not\n      and\n      swap1\n      dup4\n      iszero\n      iszero\n      mul\n      or\n      swap1\n      sstore\n      pop\n        /* \"feg.sol\":19775:19784  _excluded */\n      0x05\n        /* \"feg.sol\":19790:19797  account */\n      dup2\n        /* \"feg.sol\":19775:19798  _excluded.push(account) */\n      swap1\n      dup1\n      0x01\n      dup2\n      sload\n      add\n      dup1\n      dup3\n      sstore\n      dup1\n      swap2\n      pop\n      pop\n      0x01\n      swap1\n      sub\n      swap1\n      0x00\n      mstore\n      keccak256(0x00, 0x20)\n      add\n      0x00\n      swap1\n      swap2\n      swap1\n      swap2\n      swap1\n      swap2\n      0x0100\n      exp\n      dup2\n      sload\n      dup2\n      0xffffffffffffffffffffffffffffffffffffffff\n      mul\n      not\n      and\n      swap1\n      dup4\n      0xffffffffffffffffffffffffffffffffffffffff\n      and\n      mul\n      or\n      swap1\n      sstore\n      pop\n        /* \"feg.sol\":19480:19805  function excludeAccount(address account) external onlyOwner() {... */\n      pop\n      jump\t// out\n        /* \"feg.sol\":15294:15534  function transferOwnership(address newOwner) public virtual onlyOwner {... */\n    tag_99:\n        /* \"feg.sol\":14591:14603  _msgSender() */\n      tag_181\n        /* \"feg.sol\":14591:14601  _msgSender */\n      tag_105\n        /* \"feg.sol\":14591:14603  _msgSender() */\n      jump\t// in\n    tag_181:\n        /* \"feg.sol\":14581:14603  _owner == _msgSender() */\n      0xffffffffffffffffffffffffffffffffffffffff\n      and\n        /* \"feg.sol\":14581:14587  _owner */\n      0x00\n      dup1\n      sload\n      swap1\n      0x0100\n      exp\n      swap1\n      div\n      0xffffffffffffffffffffffffffffffffffffffff\n      and\n        /* \"feg.sol\":14581:14603  _owner == _msgSender() */\n      0xffffffffffffffffffffffffffffffffffffffff\n      and\n      eq\n        /* \"feg.sol\":14573:14640  require(_owner == _msgSender(), \"Ownable: caller is not the owner\") */\n      tag_182\n      jumpi\n      mload(0x40)\n      0x08c379a000000000000000000000000000000000000000000000000000000000\n      dup2\n      mstore\n      0x04\n      add\n      dup1\n      dup1\n      0x20\n      add\n      dup3\n      dup2\n      sub\n      dup3\n      mstore\n      0x20\n      dup2\n      mstore\n      0x20\n      add\n      dup1\n      0x4f776e61626c653a2063616c6c6572206973206e6f7420746865206f776e6572\n      dup2\n      mstore\n      pop\n      0x20\n      add\n      swap2\n      pop\n      pop\n      mload(0x40)\n      dup1\n      swap2\n      sub\n      swap1\n      revert\n    tag_182:\n        /* \"feg.sol\":15402:15403  0 */\n      0x00\n        /* \"feg.sol\":15382:15404  newOwner != address(0) */\n      0xffffffffffffffffffffffffffffffffffffffff\n      and\n        /* \"feg.sol\":15382:15390  newOwner */\n      dup2\n        /* \"feg.sol\":15382:15404  newOwner != address(0) */\n      0xffffffffffffffffffffffffffffffffffffffff\n      and\n      eq\n      iszero\n        /* \"feg.sol\":15374:15447  require(newOwner != address(0), \"Ownable: new owner is the zero address\") */\n      tag_184\n      jumpi\n      mload(0x40)\n      0x08c379a000000000000000000000000000000000000000000000000000000000\n      dup2\n      mstore\n      0x04\n      add\n      dup1\n      dup1\n      0x20\n      add\n      dup3\n      dup2\n      sub\n      dup3\n      mstore\n      0x26\n      dup2\n      mstore\n      0x20\n      add\n      dup1\n      data_245f15ff17f551913a7a18385165551503906a406f905ac1c2437281a7cd0cfe\n      0x26\n      swap2\n      codecopy\n      0x40\n      add\n      swap2\n      pop\n      pop\n      mload(0x40)\n      dup1\n      swap2\n      sub\n      swap1\n      revert\n    tag_184:\n        /* \"feg.sol\":15491:15499  newOwner */\n      dup1\n        /* \"feg.sol\":15462:15500  OwnershipTransferred(_owner, newOwner) */\n      0xffffffffffffffffffffffffffffffffffffffff\n      and\n        /* \"feg.sol\":15483:15489  _owner */\n      0x00\n      dup1\n      sload\n      swap1\n      0x0100\n      exp\n      swap1\n      div\n      0xffffffffffffffffffffffffffffffffffffffff\n      and\n        /* \"feg.sol\":15462:15500  OwnershipTransferred(_owner, newOwner) */\n      0xffffffffffffffffffffffffffffffffffffffff\n      and\n      0x8be0079c531659141344cd1fd0a4f28419497f9722a3daafe3b4186f6b6457e0\n      mload(0x40)\n      mload(0x40)\n      dup1\n      swap2\n      sub\n      swap1\n      log3\n        /* \"feg.sol\":15519:15527  newOwner */\n      dup1\n        /* \"feg.sol\":15510:15516  _owner */\n      0x00\n      dup1\n        /* \"feg.sol\":15510:15527  _owner = newOwner */\n      0x0100\n      exp\n      dup2\n      sload\n      dup2\n      0xffffffffffffffffffffffffffffffffffffffff\n      mul\n      not\n      and\n      swap1\n      dup4\n      0xffffffffffffffffffffffffffffffffffffffff\n      and\n      mul\n      or\n      swap1\n      sstore\n      pop\n        /* \"feg.sol\":15294:15534  function transferOwnership(address newOwner) public virtual onlyOwner {... */\n      pop\n      jump\t// out\n        /* \"feg.sol\":19811:20278  function includeAccount(address account) external onlyOwner() {... */\n    tag_102:\n        /* \"feg.sol\":14591:14603  _msgSender() */\n      tag_186\n        /* \"feg.sol\":14591:14601  _msgSender */\n      tag_105\n        /* \"feg.sol\":14591:14603  _msgSender() */\n      jump\t// in\n    tag_186:\n        /* \"feg.sol\":14581:14603  _owner == _msgSender() */\n      0xffffffffffffffffffffffffffffffffffffffff\n      and\n        /* \"feg.sol\":14581:14587  _owner */\n      0x00\n      dup1\n      sload\n      swap1\n      0x0100\n      exp\n      swap1\n      div\n      0xffffffffffffffffffffffffffffffffffffffff\n      and\n        /* \"feg.sol\":14581:14603  _owner == _msgSender() */\n      0xffffffffffffffffffffffffffffffffffffffff\n      and\n      eq\n        /* \"feg.sol\":14573:14640  require(_owner == _msgSender(), \"Ownable: caller is not the owner\") */\n      tag_187\n      jumpi\n      mload(0x40)\n      0x08c379a000000000000000000000000000000000000000000000000000000000\n      dup2\n      mstore\n      0x04\n      add\n      dup1\n      dup1\n      0x20\n      add\n      dup3\n      dup2\n      sub\n      dup3\n      mstore\n      0x20\n      dup2\n      mstore\n      0x20\n      add\n      dup1\n      0x4f776e61626c653a2063616c6c6572206973206e6f7420746865206f776e6572\n      dup2\n      mstore\n      pop\n      0x20\n      add\n      swap2\n      pop\n      pop\n      mload(0x40)\n      dup1\n      swap2\n      sub\n      swap1\n      revert\n    tag_187:\n        /* \"feg.sol\":19891:19902  _isExcluded */\n      0x04\n        /* \"feg.sol\":19891:19911  _isExcluded[account] */\n      0x00\n        /* \"feg.sol\":19903:19910  account */\n      dup3\n        /* \"feg.sol\":19891:19911  _isExcluded[account] */\n      0xffffffffffffffffffffffffffffffffffffffff\n      and\n      0xffffffffffffffffffffffffffffffffffffffff\n      and\n      dup2\n      mstore\n      0x20\n      add\n      swap1\n      dup2\n      mstore\n      0x20\n      add\n      0x00\n      keccak256\n      0x00\n      swap1\n      sload\n      swap1\n      0x0100\n      exp\n      swap1\n      div\n      0xff\n      and\n        /* \"feg.sol\":19883:19943  require(_isExcluded[account], \"Account is already excluded\") */\n      tag_189\n      jumpi\n      mload(0x40)\n      0x08c379a000000000000000000000000000000000000000000000000000000000\n      dup2\n      mstore\n      0x04\n      add\n      dup1\n      dup1\n      0x20\n      add\n      dup3\n      dup2\n      sub\n      dup3\n      mstore\n      0x1b\n      dup2\n      mstore\n      0x20\n      add\n      dup1\n      0x4163636f756e7420697320616c7265616479206578636c756465640000000000\n      dup2\n      mstore\n      pop\n      0x20\n      add\n      swap2\n      pop\n      pop\n      mload(0x40)\n      dup1\n      swap2\n      sub\n      swap1\n      revert\n    tag_189:\n        /* \"feg.sol\":19958:19967  uint256 i */\n      0x00\n        /* \"feg.sol\":19953:20272  for (uint256 i = 0; i < _excluded.length; i++) {... */\n    tag_190:\n        /* \"feg.sol\":19977:19986  _excluded */\n      0x05\n        /* \"feg.sol\":19977:19993  _excluded.length */\n      dup1\n      sload\n      swap1\n      pop\n        /* \"feg.sol\":19973:19974  i */\n      dup2\n        /* \"feg.sol\":19973:19993  i < _excluded.length */\n      lt\n        /* \"feg.sol\":19953:20272  for (uint256 i = 0; i < _excluded.length; i++) {... */\n      iszero\n      tag_191\n      jumpi\n        /* \"feg.sol\":20034:20041  account */\n      dup2\n        /* \"feg.sol\":20018:20041  _excluded[i] == account */\n      0xffffffffffffffffffffffffffffffffffffffff\n      and\n        /* \"feg.sol\":20018:20027  _excluded */\n      0x05\n        /* \"feg.sol\":20028:20029  i */\n      dup3\n        /* \"feg.sol\":20018:20030  _excluded[i] */\n      dup2\n      sload\n      dup2\n      lt\n      tag_193\n      jumpi\n      invalid\n    tag_193:\n      swap1\n      0x00\n      mstore\n      keccak256(0x00, 0x20)\n      add\n      0x00\n      swap1\n      sload\n      swap1\n      0x0100\n      exp\n      swap1\n      div\n      0xffffffffffffffffffffffffffffffffffffffff\n      and\n        /* \"feg.sol\":20018:20041  _excluded[i] == account */\n      0xffffffffffffffffffffffffffffffffffffffff\n      and\n      eq\n        /* \"feg.sol\":20014:20262  if (_excluded[i] == account) {... */\n      iszero\n      tag_195\n      jumpi\n        /* \"feg.sol\":20076:20085  _excluded */\n      0x05\n        /* \"feg.sol\":20105:20106  1 */\n      0x01\n        /* \"feg.sol\":20086:20095  _excluded */\n      0x05\n        /* \"feg.sol\":20086:20102  _excluded.length */\n      dup1\n      sload\n      swap1\n      pop\n        /* \"feg.sol\":20086:20106  _excluded.length - 1 */\n      sub\n        /* \"feg.sol\":20076:20107  _excluded[_excluded.length - 1] */\n      dup2\n      sload\n      dup2\n      lt\n      tag_196\n      jumpi\n      invalid\n    tag_196:\n      swap1\n      0x00\n      mstore\n      keccak256(0x00, 0x20)\n      add\n      0x00\n      swap1\n      sload\n      swap1\n      0x0100\n      exp\n      swap1\n      div\n      0xffffffffffffffffffffffffffffffffffffffff\n      and\n        /* \"feg.sol\":20061:20070  _excluded */\n      0x05\n        /* \"feg.sol\":20071:20072  i */\n      dup3\n        /* \"feg.sol\":20061:20073  _excluded[i] */\n      dup2\n      sload\n      dup2\n      lt\n      tag_198\n      jumpi\n      invalid\n    tag_198:\n      swap1\n      0x00\n      mstore\n      keccak256(0x00, 0x20)\n      add\n      0x00\n        /* \"feg.sol\":20061:20107  _excluded[i] = _excluded[_excluded.length - 1] */\n      0x0100\n      exp\n      dup2\n      sload\n      dup2\n      0xffffffffffffffffffffffffffffffffffffffff\n      mul\n      not\n      and\n      swap1\n      dup4\n      0xffffffffffffffffffffffffffffffffffffffff\n      and\n      mul\n      or\n      swap1\n      sstore\n      pop\n        /* \"feg.sol\":20144:20145  0 */\n      0x00\n        /* \"feg.sol\":20125:20132  _tOwned */\n      0x02\n        /* \"feg.sol\":20125:20141  _tOwned[account] */\n      0x00\n        /* \"feg.sol\":20133:20140  account */\n      dup5\n        /* \"feg.sol\":20125:20141  _tOwned[account] */\n      0xffffffffffffffffffffffffffffffffffffffff\n      and\n      0xffffffffffffffffffffffffffffffffffffffff\n      and\n      dup2\n      mstore\n      0x20\n      add\n      swap1\n      dup2\n      mstore\n      0x20\n      add\n      0x00\n      keccak256\n        /* \"feg.sol\":20125:20145  _tOwned[account] = 0 */\n      dup2\n      swap1\n      sstore\n      pop\n        /* \"feg.sol\":20186:20191  false */\n      0x00\n        /* \"feg.sol\":20163:20174  _isExcluded */\n      0x04\n        /* \"feg.sol\":20163:20183  _isExcluded[account] */\n      0x00\n        /* \"feg.sol\":20175:20182  account */\n      dup5\n        /* \"feg.sol\":20163:20183  _isExcluded[account] */\n      0xffffffffffffffffffffffffffffffffffffffff\n      and\n      0xffffffffffffffffffffffffffffffffffffffff\n      and\n      dup2\n      mstore\n      0x20\n      add\n      swap1\n      dup2\n      mstore\n      0x20\n      add\n      0x00\n      keccak256\n      0x00\n        /* \"feg.sol\":20163:20191  _isExcluded[account] = false */\n      0x0100\n      exp\n      dup2\n      sload\n      dup2\n      0xff\n      mul\n      not\n      and\n      swap1\n      dup4\n      iszero\n      iszero\n      mul\n      or\n      swap1\n      sstore\n      pop\n        /* \"feg.sol\":20209:20218  _excluded */\n      0x05\n        /* \"feg.sol\":20209:20224  _excluded.pop() */\n      dup1\n      sload\n      dup1\n      tag_200\n      jumpi\n      invalid\n    tag_200:\n      0x01\n      swap1\n      sub\n      dup2\n      dup2\n      swap1\n      0x00\n      mstore\n      keccak256(0x00, 0x20)\n      add\n      exp(0x0100, 0x00)\n      dup2\n      sload\n      swap1\n      0xffffffffffffffffffffffffffffffffffffffff\n      mul\n      not\n      and\n      swap1\n      sstore\n      swap1\n      sstore\n        /* \"feg.sol\":20242:20247  break */\n      jump(tag_191)\n        /* \"feg.sol\":20014:20262  if (_excluded[i] == account) {... */\n    tag_195:\n        /* \"feg.sol\":19995:19998  i++ */\n      dup1\n      dup1\n      0x01\n      add\n      swap2\n      pop\n      pop\n        /* \"feg.sol\":19953:20272  for (uint256 i = 0; i < _excluded.length; i++) {... */\n      jump(tag_190)\n    tag_191:\n      pop\n        /* \"feg.sol\":19811:20278  function includeAccount(address account) external onlyOwner() {... */\n      pop\n      jump\t// out\n        /* \"feg.sol\":448:552  function _msgSender() internal view virtual returns (address payable) {... */\n    tag_105:\n        /* \"feg.sol\":501:516  address payable */\n      0x00\n        /* \"feg.sol\":535:545  msg.sender */\n      caller\n        /* \"feg.sol\":528:545  return msg.sender */\n      swap1\n      pop\n        /* \"feg.sol\":448:552  function _msgSender() internal view virtual returns (address payable) {... */\n      swap1\n      jump\t// out\n        /* \"feg.sol\":23764:24170  function _getValues(uint256 tAmount) private view returns (uint256, uint256, uint256, uint256, uint256) {... */\n    tag_108:\n        /* \"feg.sol\":23823:23830  uint256 */\n      0x00\n        /* \"feg.sol\":23832:23839  uint256 */\n      dup1\n        /* \"feg.sol\":23841:23848  uint256 */\n      0x00\n        /* \"feg.sol\":23850:23857  uint256 */\n      dup1\n        /* \"feg.sol\":23859:23866  uint256 */\n      0x00\n        /* \"feg.sol\":23879:23902  uint256 tTransferAmount */\n      dup1\n        /* \"feg.sol\":23904:23916  uint256 tFee */\n      0x00\n        /* \"feg.sol\":23920:23940  _getTValues(tAmount) */\n      tag_204\n        /* \"feg.sol\":23932:23939  tAmount */\n      dup9\n        /* \"feg.sol\":23920:23931  _getTValues */\n      tag_205\n        /* \"feg.sol\":23920:23940  _getTValues(tAmount) */\n      jump\t// in\n    tag_204:\n        /* \"feg.sol\":23878:23940  (uint256 tTransferAmount, uint256 tFee) = _getTValues(tAmount) */\n      swap2\n      pop\n      swap2\n      pop\n        /* \"feg.sol\":23950:23969  uint256 currentRate */\n      0x00\n        /* \"feg.sol\":23973:23983  _getRate() */\n      tag_206\n        /* \"feg.sol\":23973:23981  _getRate */\n      tag_135\n        /* \"feg.sol\":23973:23983  _getRate() */\n      jump\t// in\n    tag_206:\n        /* \"feg.sol\":23950:23983  uint256 currentRate =  _getRate() */\n      swap1\n      pop\n        /* \"feg.sol\":23994:24009  uint256 rAmount */\n      0x00\n        /* \"feg.sol\":24011:24034  uint256 rTransferAmount */\n      dup1\n        /* \"feg.sol\":24036:24048  uint256 rFee */\n      0x00\n        /* \"feg.sol\":24052:24091  _getRValues(tAmount, tFee, currentRate) */\n      tag_207\n        /* \"feg.sol\":24064:24071  tAmount */\n      dup13\n        /* \"feg.sol\":24073:24077  tFee */\n      dup7\n        /* \"feg.sol\":24079:24090  currentRate */\n      dup7\n        /* \"feg.sol\":24052:24063  _getRValues */\n      tag_208\n        /* \"feg.sol\":24052:24091  _getRValues(tAmount, tFee, currentRate) */\n      jump\t// in\n    tag_207:\n        /* \"feg.sol\":23993:24091  (uint256 rAmount, uint256 rTransferAmount, uint256 rFee) = _getRValues(tAmount, tFee, currentRate) */\n      swap3\n      pop\n      swap3\n      pop\n      swap3\n      pop\n        /* \"feg.sol\":24109:24116  rAmount */\n      dup3\n        /* \"feg.sol\":24118:24133  rTransferAmount */\n      dup3\n        /* \"feg.sol\":24135:24139  rFee */\n      dup3\n        /* \"feg.sol\":24141:24156  tTransferAmount */\n      dup9\n        /* \"feg.sol\":24158:24162  tFee */\n      dup9\n        /* \"feg.sol\":24101:24163  return (rAmount, rTransferAmount, rFee, tTransferAmount, tFee) */\n      swap11\n      pop\n      swap11\n      pop\n      swap11\n      pop\n      swap11\n      pop\n      swap11\n      pop\n      pop\n      pop\n      pop\n      pop\n      pop\n      pop\n        /* \"feg.sol\":23764:24170  function _getValues(uint256 tAmount) private view returns (uint256, uint256, uint256, uint256, uint256) {... */\n      swap2\n      swap4\n      swap6\n      swap1\n      swap3\n      swap5\n      pop\n      jump\t// out\n        /* \"feg.sol\":4059:4193  function sub(uint256 a, uint256 b) internal pure returns (uint256) {... */\n    tag_110:\n        /* \"feg.sol\":4117:4124  uint256 */\n      0x00\n        /* \"feg.sol\":4143:4186  sub(a, b, \"SafeMath: subtraction overflow\") */\n      tag_210\n        /* \"feg.sol\":4147:4148  a */\n      dup4\n        /* \"feg.sol\":4150:4151  b */\n      dup4\n        /* \"feg.sol\":4143:4186  sub(a, b, \"SafeMath: subtraction overflow\") */\n      mload(0x40)\n      dup1\n      0x40\n      add\n      0x40\n      mstore\n      dup1\n      0x1e\n      dup2\n      mstore\n      0x20\n      add\n      0x536166654d6174683a207375627472616374696f6e206f766572666c6f770000\n      dup2\n      mstore\n      pop\n        /* \"feg.sol\":4143:4146  sub */\n      tag_131\n        /* \"feg.sol\":4143:4186  sub(a, b, \"SafeMath: subtraction overflow\") */\n      jump\t// in\n    tag_210:\n        /* \"feg.sol\":4136:4186  return sub(a, b, \"SafeMath: subtraction overflow\") */\n      swap1\n      pop\n        /* \"feg.sol\":4059:4193  function sub(uint256 a, uint256 b) internal pure returns (uint256) {... */\n      swap3\n      swap2\n      pop\n      pop\n      jump\t// out\n        /* \"feg.sol\":3612:3788  function add(uint256 a, uint256 b) internal pure returns (uint256) {... */\n    tag_113:\n        /* \"feg.sol\":3670:3677  uint256 */\n      0x00\n        /* \"feg.sol\":3689:3698  uint256 c */\n      dup1\n        /* \"feg.sol\":3705:3706  b */\n      dup3\n        /* \"feg.sol\":3701:3702  a */\n      dup5\n        /* \"feg.sol\":3701:3706  a + b */\n      add\n        /* \"feg.sol\":3689:3706  uint256 c = a + b */\n      swap1\n      pop\n        /* \"feg.sol\":3729:3730  a */\n      dup4\n        /* \"feg.sol\":3724:3725  c */\n      dup2\n        /* \"feg.sol\":3724:3730  c >= a */\n      lt\n      iszero\n        /* \"feg.sol\":3716:3762  require(c >= a, \"SafeMath: addition overflow\") */\n      tag_212\n      jumpi\n      mload(0x40)\n      0x08c379a000000000000000000000000000000000000000000000000000000000\n      dup2\n      mstore\n      0x04\n      add\n      dup1\n      dup1\n      0x20\n      add\n      dup3\n      dup2\n      sub\n      dup3\n      mstore\n      0x1b\n      dup2\n      mstore\n      0x20\n      add\n      dup1\n      0x536166654d6174683a206164646974696f6e206f766572666c6f770000000000\n      dup2\n      mstore\n      pop\n      0x20\n      add\n      swap2\n      pop\n      pop\n      mload(0x40)\n      dup1\n      swap2\n      sub\n      swap1\n      revert\n    tag_212:\n        /* \"feg.sol\":3780:3781  c */\n      dup1\n        /* \"feg.sol\":3773:3781  return c */\n      swap2\n      pop\n      pop\n        /* \"feg.sol\":3612:3788  function add(uint256 a, uint256 b) internal pure returns (uint256) {... */\n      swap3\n      swap2\n      pop\n      pop\n      jump\t// out\n        /* \"feg.sol\":20284:20615  function _approve(address owner, address spender, uint256 amount) private {... */\n    tag_121:\n        /* \"feg.sol\":20393:20394  0 */\n      0x00\n        /* \"feg.sol\":20376:20395  owner != address(0) */\n      0xffffffffffffffffffffffffffffffffffffffff\n      and\n        /* \"feg.sol\":20376:20381  owner */\n      dup4\n        /* \"feg.sol\":20376:20395  owner != address(0) */\n      0xffffffffffffffffffffffffffffffffffffffff\n      and\n      eq\n      iszero\n        /* \"feg.sol\":20368:20436  require(owner != address(0), \"ERC20: approve from the zero address\") */\n      tag_214\n      jumpi\n      mload(0x40)\n      0x08c379a000000000000000000000000000000000000000000000000000000000\n      dup2\n      mstore\n      0x04\n      add\n      dup1\n      dup1\n      0x20\n      add\n      dup3\n      dup2\n      sub\n      dup3\n      mstore\n      0x24\n      dup2\n      mstore\n      0x20\n      add\n      dup1\n      data_c953f4879035ed60e766b34720f656aab5c697b141d924c283124ecedb91c208\n      0x24\n      swap2\n      codecopy\n      0x40\n      add\n      swap2\n      pop\n      pop\n      mload(0x40)\n      dup1\n      swap2\n      sub\n      swap1\n      revert\n    tag_214:\n        /* \"feg.sol\":20473:20474  0 */\n      0x00\n        /* \"feg.sol\":20454:20475  spender != address(0) */\n      0xffffffffffffffffffffffffffffffffffffffff\n      and\n        /* \"feg.sol\":20454:20461  spender */\n      dup3\n        /* \"feg.sol\":20454:20475  spender != address(0) */\n      0xffffffffffffffffffffffffffffffffffffffff\n      and\n      eq\n      iszero\n        /* \"feg.sol\":20446:20514  require(spender != address(0), \"ERC20: approve to the zero address\") */\n      tag_215\n      jumpi\n      mload(0x40)\n      0x08c379a000000000000000000000000000000000000000000000000000000000\n      dup2\n      mstore\n      0x04\n      add\n      dup1\n      dup1\n      0x20\n      add\n      dup3\n      dup2\n      sub\n      dup3\n      mstore\n      0x22\n      dup2\n      mstore\n      0x20\n      add\n      dup1\n      data_24883cc5fe64ace9d0df1893501ecb93c77180f0ff69cca79affb3c316dc8029\n      0x22\n      swap2\n      codecopy\n      0x40\n      add\n      swap2\n      pop\n      pop\n      mload(0x40)\n      dup1\n      swap2\n      sub\n      swap1\n      revert\n    tag_215:\n        /* \"feg.sol\":20555:20561  amount */\n      dup1\n        /* \"feg.sol\":20525:20536  _allowances */\n      0x03\n        /* \"feg.sol\":20525:20543  _allowances[owner] */\n      0x00\n        /* \"feg.sol\":20537:20542  owner */\n      dup6\n        /* \"feg.sol\":20525:20543  _allowances[owner] */\n      0xffffffffffffffffffffffffffffffffffffffff\n      and\n      0xffffffffffffffffffffffffffffffffffffffff\n      and\n      dup2\n      mstore\n      0x20\n      add\n      swap1\n      dup2\n      mstore\n      0x20\n      add\n      0x00\n      keccak256\n        /* \"feg.sol\":20525:20552  _allowances[owner][spender] */\n      0x00\n        /* \"feg.sol\":20544:20551  spender */\n      dup5\n        /* \"feg.sol\":20525:20552  _allowances[owner][spender] */\n      0xffffffffffffffffffffffffffffffffffffffff\n      and\n      0xffffffffffffffffffffffffffffffffffffffff\n      and\n      dup2\n      mstore\n      0x20\n      add\n      swap1\n      dup2\n      mstore\n      0x20\n      add\n      0x00\n      keccak256\n        /* \"feg.sol\":20525:20561  _allowances[owner][spender] = amount */\n      dup2\n      swap1\n      sstore\n      pop\n        /* \"feg.sol\":20592:20599  spender */\n      dup2\n        /* \"feg.sol\":20576:20608  Approval(owner, spender, amount) */\n      0xffffffffffffffffffffffffffffffffffffffff\n      and\n        /* \"feg.sol\":20585:20590  owner */\n      dup4\n        /* \"feg.sol\":20576:20608  Approval(owner, spender, amount) */\n      0xffffffffffffffffffffffffffffffffffffffff\n      and\n      0x8c5be1e5ebec7d5bd14f71427d1e84f3dd0314c0f7b2291e5b200ac8c7c3b925\n        /* \"feg.sol\":20601:20607  amount */\n      dup4\n        /* \"feg.sol\":20576:20608  Approval(owner, spender, amount) */\n      mload(0x40)\n      dup1\n      dup3\n      dup2\n      mstore\n      0x20\n      add\n      swap2\n      pop\n      pop\n      mload(0x40)\n      dup1\n      swap2\n      sub\n      swap1\n      log3\n        /* \"feg.sol\":20284:20615  function _approve(address owner, address spender, uint256 amount) private {... */\n      pop\n      pop\n      pop\n      jump\t// out\n        /* \"feg.sol\":20621:21537  function _transfer(address sender, address recipient, uint256 amount) private {... */\n    tag_126:\n        /* \"feg.sol\":20735:20736  0 */\n      0x00\n        /* \"feg.sol\":20717:20737  sender != address(0) */\n      0xffffffffffffffffffffffffffffffffffffffff\n      and\n        /* \"feg.sol\":20717:20723  sender */\n      dup4\n        /* \"feg.sol\":20717:20737  sender != address(0) */\n      0xffffffffffffffffffffffffffffffffffffffff\n      and\n      eq\n      iszero\n        /* \"feg.sol\":20709:20779  require(sender != address(0), \"ERC20: transfer from the zero address\") */\n      tag_217\n      jumpi\n      mload(0x40)\n      0x08c379a000000000000000000000000000000000000000000000000000000000\n      dup2\n      mstore\n      0x04\n      add\n      dup1\n      dup1\n      0x20\n      add\n      dup3\n      dup2\n      sub\n      dup3\n      mstore\n      0x25\n      dup2\n      mstore\n      0x20\n      add\n      dup1\n      data_baecc556b46f4ed0f2b4cb599d60785ac8563dd2dc0a5bf12edea1c39e5e1fea\n      0x25\n      swap2\n      codecopy\n      0x40\n      add\n      swap2\n      pop\n      pop\n      mload(0x40)\n      dup1\n      swap2\n      sub\n      swap1\n      revert\n    tag_217:\n        /* \"feg.sol\":20818:20819  0 */\n      0x00\n        /* \"feg.sol\":20797:20820  recipient != address(0) */\n      0xffffffffffffffffffffffffffffffffffffffff\n      and\n        /* \"feg.sol\":20797:20806  recipient */\n      dup3\n        /* \"feg.sol\":20797:20820  recipient != address(0) */\n      0xffffffffffffffffffffffffffffffffffffffff\n      and\n      eq\n      iszero\n        /* \"feg.sol\":20789:20860  require(recipient != address(0), \"ERC20: transfer to the zero address\") */\n      tag_218\n      jumpi\n      mload(0x40)\n      0x08c379a000000000000000000000000000000000000000000000000000000000\n      dup2\n      mstore\n      0x04\n      add\n      dup1\n      dup1\n      0x20\n      add\n      dup3\n      dup2\n      sub\n      dup3\n      mstore\n      0x23\n      dup2\n      mstore\n      0x20\n      add\n      dup1\n      data_0557e210f7a69a685100a7e4e3d0a7024c546085cee28910fd17d0b081d9516f\n      0x23\n      swap2\n      codecopy\n      0x40\n      add\n      swap2\n      pop\n      pop\n      mload(0x40)\n      dup1\n      swap2\n      sub\n      swap1\n      revert\n    tag_218:\n        /* \"feg.sol\":20887:20888  0 */\n      0x00\n        /* \"feg.sol\":20878:20884  amount */\n      dup2\n        /* \"feg.sol\":20878:20888  amount > 0 */\n      gt\n        /* \"feg.sol\":20870:20934  require(amount > 0, \"Transfer amount must be greater than zero\") */\n      tag_219\n      jumpi\n      mload(0x40)\n      0x08c379a000000000000000000000000000000000000000000000000000000000\n      dup2\n      mstore\n      0x04\n      add\n      dup1\n      dup1\n      0x20\n      add\n      dup3\n      dup2\n      sub\n      dup3\n      mstore\n      0x29\n      dup2\n      mstore\n      0x20\n      add\n      dup1\n      data_9edb5ab58321f35d2386ea65721c9b107daa2c273610fc16d394af2a320ba785\n      0x29\n      swap2\n      codecopy\n      0x40\n      add\n      swap2\n      pop\n      pop\n      mload(0x40)\n      dup1\n      swap2\n      sub\n      swap1\n      revert\n    tag_219:\n        /* \"feg.sol\":20948:20959  _isExcluded */\n      0x04\n        /* \"feg.sol\":20948:20967  _isExcluded[sender] */\n      0x00\n        /* \"feg.sol\":20960:20966  sender */\n      dup5\n        /* \"feg.sol\":20948:20967  _isExcluded[sender] */\n      0xffffffffffffffffffffffffffffffffffffffff\n      and\n      0xffffffffffffffffffffffffffffffffffffffff\n      and\n      dup2\n      mstore\n      0x20\n      add\n      swap1\n      dup2\n      mstore\n      0x20\n      add\n      0x00\n      keccak256\n      0x00\n      swap1\n      sload\n      swap1\n      0x0100\n      exp\n      swap1\n      div\n      0xff\n      and\n        /* \"feg.sol\":20948:20994  _isExcluded[sender] && !_isExcluded[recipient] */\n      dup1\n      iszero\n      tag_220\n      jumpi\n      pop\n        /* \"feg.sol\":20972:20983  _isExcluded */\n      0x04\n        /* \"feg.sol\":20972:20994  _isExcluded[recipient] */\n      0x00\n        /* \"feg.sol\":20984:20993  recipient */\n      dup4\n        /* \"feg.sol\":20972:20994  _isExcluded[recipient] */\n      0xffffffffffffffffffffffffffffffffffffffff\n      and\n      0xffffffffffffffffffffffffffffffffffffffff\n      and\n      dup2\n      mstore\n      0x20\n      add\n      swap1\n      dup2\n      mstore\n      0x20\n      add\n      0x00\n      keccak256\n      0x00\n      swap1\n      sload\n      swap1\n      0x0100\n      exp\n      swap1\n      div\n      0xff\n      and\n        /* \"feg.sol\":20971:20994  !_isExcluded[recipient] */\n      iszero\n        /* \"feg.sol\":20948:20994  _isExcluded[sender] && !_isExcluded[recipient] */\n    tag_220:\n        /* \"feg.sol\":20944:21531  if (_isExcluded[sender] && !_isExcluded[recipient]) {... */\n      iszero\n      tag_221\n      jumpi\n        /* \"feg.sol\":21010:21058  _transferFromExcluded(sender, recipient, amount) */\n      tag_222\n        /* \"feg.sol\":21032:21038  sender */\n      dup4\n        /* \"feg.sol\":21040:21049  recipient */\n      dup4\n        /* \"feg.sol\":21051:21057  amount */\n      dup4\n        /* \"feg.sol\":21010:21031  _transferFromExcluded */\n      tag_223\n        /* \"feg.sol\":21010:21058  _transferFromExcluded(sender, recipient, amount) */\n      jump\t// in\n    tag_222:\n        /* \"feg.sol\":20944:21531  if (_isExcluded[sender] && !_isExcluded[recipient]) {... */\n      jump(tag_224)\n    tag_221:\n        /* \"feg.sol\":21080:21091  _isExcluded */\n      0x04\n        /* \"feg.sol\":21080:21099  _isExcluded[sender] */\n      0x00\n        /* \"feg.sol\":21092:21098  sender */\n      dup5\n        /* \"feg.sol\":21080:21099  _isExcluded[sender] */\n      0xffffffffffffffffffffffffffffffffffffffff\n      and\n      0xffffffffffffffffffffffffffffffffffffffff\n      and\n      dup2\n      mstore\n      0x20\n      add\n      swap1\n      dup2\n      mstore\n      0x20\n      add\n      0x00\n      keccak256\n      0x00\n      swap1\n      sload\n      swap1\n      0x0100\n      exp\n      swap1\n      div\n      0xff\n      and\n        /* \"feg.sol\":21079:21099  !_isExcluded[sender] */\n      iszero\n        /* \"feg.sol\":21079:21125  !_isExcluded[sender] && _isExcluded[recipient] */\n      dup1\n      iszero\n      tag_225\n      jumpi\n      pop\n        /* \"feg.sol\":21103:21114  _isExcluded */\n      0x04\n        /* \"feg.sol\":21103:21125  _isExcluded[recipient] */\n      0x00\n        /* \"feg.sol\":21115:21124  recipient */\n      dup4\n        /* \"feg.sol\":21103:21125  _isExcluded[recipient] */\n      0xffffffffffffffffffffffffffffffffffffffff\n      and\n      0xffffffffffffffffffffffffffffffffffffffff\n      and\n      dup2\n      mstore\n      0x20\n      add\n      swap1\n      dup2\n      mstore\n      0x20\n      add\n      0x00\n      keccak256\n      0x00\n      swap1\n      sload\n      swap1\n      0x0100\n      exp\n      swap1\n      div\n      0xff\n      and\n        /* \"feg.sol\":21079:21125  !_isExcluded[sender] && _isExcluded[recipient] */\n    tag_225:\n        /* \"feg.sol\":21075:21531  if (!_isExcluded[sender] && _isExcluded[recipient]) {... */\n      iszero\n      tag_226\n      jumpi\n        /* \"feg.sol\":21141:21187  _transferToExcluded(sender, recipient, amount) */\n      tag_227\n        /* \"feg.sol\":21161:21167  sender */\n      dup4\n        /* \"feg.sol\":21169:21178  recipient */\n      dup4\n        /* \"feg.sol\":21180:21186  amount */\n      dup4\n        /* \"feg.sol\":21141:21160  _transferToExcluded */\n      tag_228\n        /* \"feg.sol\":21141:21187  _transferToExcluded(sender, recipient, amount) */\n      jump\t// in\n    tag_227:\n        /* \"feg.sol\":21075:21531  if (!_isExcluded[sender] && _isExcluded[recipient]) {... */\n      jump(tag_229)\n    tag_226:\n        /* \"feg.sol\":21209:21220  _isExcluded */\n      0x04\n        /* \"feg.sol\":21209:21228  _isExcluded[sender] */\n      0x00\n        /* \"feg.sol\":21221:21227  sender */\n      dup5\n        /* \"feg.sol\":21209:21228  _isExcluded[sender] */\n      0xffffffffffffffffffffffffffffffffffffffff\n      and\n      0xffffffffffffffffffffffffffffffffffffffff\n      and\n      dup2\n      mstore\n      0x20\n      add\n      swap1\n      dup2\n      mstore\n      0x20\n      add\n      0x00\n      keccak256\n      0x00\n      swap1\n      sload\n      swap1\n      0x0100\n      exp\n      swap1\n      div\n      0xff\n      and\n        /* \"feg.sol\":21208:21228  !_isExcluded[sender] */\n      iszero\n        /* \"feg.sol\":21208:21255  !_isExcluded[sender] && !_isExcluded[recipient] */\n      dup1\n      iszero\n      tag_230\n      jumpi\n      pop\n        /* \"feg.sol\":21233:21244  _isExcluded */\n      0x04\n        /* \"feg.sol\":21233:21255  _isExcluded[recipient] */\n      0x00\n        /* \"feg.sol\":21245:21254  recipient */\n      dup4\n        /* \"feg.sol\":21233:21255  _isExcluded[recipient] */\n      0xffffffffffffffffffffffffffffffffffffffff\n      and\n      0xffffffffffffffffffffffffffffffffffffffff\n      and\n      dup2\n      mstore\n      0x20\n      add\n      swap1\n      dup2\n      mstore\n      0x20\n      add\n      0x00\n      keccak256\n      0x00\n      swap1\n      sload\n      swap1\n      0x0100\n      exp\n      swap1\n      div\n      0xff\n      and\n        /* \"feg.sol\":21232:21255  !_isExcluded[recipient] */\n      iszero\n        /* \"feg.sol\":21208:21255  !_isExcluded[sender] && !_isExcluded[recipient] */\n    tag_230:\n        /* \"feg.sol\":21204:21531  if (!_isExcluded[sender] && !_isExcluded[recipient]) {... */\n      iszero\n      tag_231\n      jumpi\n        /* \"feg.sol\":21271:21315  _transferStandard(sender, recipient, amount) */\n      tag_232\n        /* \"feg.sol\":21289:21295  sender */\n      dup4\n        /* \"feg.sol\":21297:21306  recipient */\n      dup4\n        /* \"feg.sol\":21308:21314  amount */\n      dup4\n        /* \"feg.sol\":21271:21288  _transferStandard */\n      tag_233\n        /* \"feg.sol\":21271:21315  _transferStandard(sender, recipient, amount) */\n      jump\t// in\n    tag_232:\n        /* \"feg.sol\":21204:21531  if (!_isExcluded[sender] && !_isExcluded[recipient]) {... */\n      jump(tag_234)\n    tag_231:\n        /* \"feg.sol\":21336:21347  _isExcluded */\n      0x04\n        /* \"feg.sol\":21336:21355  _isExcluded[sender] */\n      0x00\n        /* \"feg.sol\":21348:21354  sender */\n      dup5\n        /* \"feg.sol\":21336:21355  _isExcluded[sender] */\n      0xffffffffffffffffffffffffffffffffffffffff\n      and\n      0xffffffffffffffffffffffffffffffffffffffff\n      and\n      dup2\n      mstore\n      0x20\n      add\n      swap1\n      dup2\n      mstore\n      0x20\n      add\n      0x00\n      keccak256\n      0x00\n      swap1\n      sload\n      swap1\n      0x0100\n      exp\n      swap1\n      div\n      0xff\n      and\n        /* \"feg.sol\":21336:21381  _isExcluded[sender] && _isExcluded[recipient] */\n      dup1\n      iszero\n      tag_235\n      jumpi\n      pop\n        /* \"feg.sol\":21359:21370  _isExcluded */\n      0x04\n        /* \"feg.sol\":21359:21381  _isExcluded[recipient] */\n      0x00\n        /* \"feg.sol\":21371:21380  recipient */\n      dup4\n        /* \"feg.sol\":21359:21381  _isExcluded[recipient] */\n      0xffffffffffffffffffffffffffffffffffffffff\n      and\n      0xffffffffffffffffffffffffffffffffffffffff\n      and\n      dup2\n      mstore\n      0x20\n      add\n      swap1\n      dup2\n      mstore\n      0x20\n      add\n      0x00\n      keccak256\n      0x00\n      swap1\n      sload\n      swap1\n      0x0100\n      exp\n      swap1\n      div\n      0xff\n      and\n        /* \"feg.sol\":21336:21381  _isExcluded[sender] && _isExcluded[recipient] */\n    tag_235:\n        /* \"feg.sol\":21332:21531  if (_isExcluded[sender] && _isExcluded[recipient]) {... */\n      iszero\n      tag_236\n      jumpi\n        /* \"feg.sol\":21397:21445  _transferBothExcluded(sender, recipient, amount) */\n      tag_237\n        /* \"feg.sol\":21419:21425  sender */\n      dup4\n        /* \"feg.sol\":21427:21436  recipient */\n      dup4\n        /* \"feg.sol\":21438:21444  amount */\n      dup4\n        /* \"feg.sol\":21397:21418  _transferBothExcluded */\n      tag_238\n        /* \"feg.sol\":21397:21445  _transferBothExcluded(sender, recipient, amount) */\n      jump\t// in\n    tag_237:\n        /* \"feg.sol\":21332:21531  if (_isExcluded[sender] && _isExcluded[recipient]) {... */\n      jump(tag_239)\n    tag_236:\n        /* \"feg.sol\":21476:21520  _transferStandard(sender, recipient, amount) */\n      tag_240\n        /* \"feg.sol\":21494:21500  sender */\n      dup4\n        /* \"feg.sol\":21502:21511  recipient */\n      dup4\n        /* \"feg.sol\":21513:21519  amount */\n      dup4\n        /* \"feg.sol\":21476:21493  _transferStandard */\n      tag_233\n        /* \"feg.sol\":21476:21520  _transferStandard(sender, recipient, amount) */\n      jump\t// in\n    tag_240:\n        /* \"feg.sol\":21332:21531  if (_isExcluded[sender] && _isExcluded[recipient]) {... */\n    tag_239:\n        /* \"feg.sol\":21204:21531  if (!_isExcluded[sender] && !_isExcluded[recipient]) {... */\n    tag_234:\n        /* \"feg.sol\":21075:21531  if (!_isExcluded[sender] && _isExcluded[recipient]) {... */\n    tag_229:\n        /* \"feg.sol\":20944:21531  if (_isExcluded[sender] && !_isExcluded[recipient]) {... */\n    tag_224:\n        /* \"feg.sol\":20621:21537  function _transfer(address sender, address recipient, uint256 amount) private {... */\n      pop\n      pop\n      pop\n      jump\t// out\n        /* \"feg.sol\":4484:4671  function sub(uint256 a, uint256 b, string memory errorMessage) internal pure returns (uint256) {... */\n    tag_131:\n        /* \"feg.sol\":4570:4577  uint256 */\n      0x00\n        /* \"feg.sol\":4602:4603  a */\n      dup4\n        /* \"feg.sol\":4597:4598  b */\n      dup4\n        /* \"feg.sol\":4597:4603  b <= a */\n      gt\n      iszero\n        /* \"feg.sol\":4605:4617  errorMessage */\n      dup3\n        /* \"feg.sol\":4589:4618  require(b <= a, errorMessage) */\n      swap1\n      tag_242\n      jumpi\n      mload(0x40)\n      0x08c379a000000000000000000000000000000000000000000000000000000000\n      dup2\n      mstore\n      0x04\n      add\n      dup1\n      dup1\n      0x20\n      add\n      dup3\n      dup2\n      sub\n      dup3\n      mstore\n      dup4\n      dup2\n      dup2\n      mload\n      dup2\n      mstore\n      0x20\n      add\n      swap2\n      pop\n      dup1\n      mload\n      swap1\n      0x20\n      add\n      swap1\n      dup1\n      dup4\n      dup4\n      0x00\n    tag_243:\n      dup4\n      dup2\n      lt\n      iszero\n      tag_245\n      jumpi\n      dup1\n      dup3\n      add\n      mload\n      dup2\n      dup5\n      add\n      mstore\n      0x20\n      dup2\n      add\n      swap1\n      pop\n      jump(tag_243)\n    tag_245:\n      pop\n      pop\n      pop\n      pop\n      swap1\n      pop\n      swap1\n      dup2\n      add\n      swap1\n      0x1f\n      and\n      dup1\n      iszero\n      tag_246\n      jumpi\n      dup1\n      dup3\n      sub\n      dup1\n      mload\n      0x01\n      dup4\n      0x20\n      sub\n      0x0100\n      exp\n      sub\n      not\n      and\n      dup2\n      mstore\n      0x20\n      add\n      swap2\n      pop\n    tag_246:\n      pop\n      swap3\n      pop\n      pop\n      pop\n      mload(0x40)\n      dup1\n      swap2\n      sub\n      swap1\n      revert\n    tag_242:\n      pop\n        /* \"feg.sol\":4628:4637  uint256 c */\n      0x00\n        /* \"feg.sol\":4644:4645  b */\n      dup4\n        /* \"feg.sol\":4640:4641  a */\n      dup6\n        /* \"feg.sol\":4640:4645  a - b */\n      sub\n        /* \"feg.sol\":4628:4645  uint256 c = a - b */\n      swap1\n      pop\n        /* \"feg.sol\":4663:4664  c */\n      dup1\n        /* \"feg.sol\":4656:4664  return c */\n      swap2\n      pop\n      pop\n        /* \"feg.sol\":4484:4671  function sub(uint256 a, uint256 b, string memory errorMessage) internal pure returns (uint256) {... */\n      swap4\n      swap3\n      pop\n      pop\n      pop\n      jump\t// out\n        /* \"feg.sol\":24743:24903  function _getRate() private view returns(uint256) {... */\n    tag_135:\n        /* \"feg.sol\":24784:24791  uint256 */\n      0x00\n        /* \"feg.sol\":24804:24819  uint256 rSupply */\n      dup1\n        /* \"feg.sol\":24821:24836  uint256 tSupply */\n      0x00\n        /* \"feg.sol\":24840:24859  _getCurrentSupply() */\n      tag_248\n        /* \"feg.sol\":24840:24857  _getCurrentSupply */\n      tag_249\n        /* \"feg.sol\":24840:24859  _getCurrentSupply() */\n      jump\t// in\n    tag_248:\n        /* \"feg.sol\":24803:24859  (uint256 rSupply, uint256 tSupply) = _getCurrentSupply() */\n      swap2\n      pop\n      swap2\n      pop\n        /* \"feg.sol\":24876:24896  rSupply.div(tSupply) */\n      tag_250\n        /* \"feg.sol\":24888:24895  tSupply */\n      dup2\n        /* \"feg.sol\":24876:24883  rSupply */\n      dup4\n        /* \"feg.sol\":24876:24887  rSupply.div */\n      tag_137\n      swap1\n        /* \"feg.sol\":24876:24896  rSupply.div(tSupply) */\n      swap2\n      swap1\n      0xffffffff\n      and\n      jump\t// in\n    tag_250:\n        /* \"feg.sol\":24869:24896  return rSupply.div(tSupply) */\n      swap3\n      pop\n      pop\n      pop\n        /* \"feg.sol\":24743:24903  function _getRate() private view returns(uint256) {... */\n      swap1\n      jump\t// out\n        /* \"feg.sol\":5839:5969  function div(uint256 a, uint256 b) internal pure returns (uint256) {... */\n    tag_137:\n        /* \"feg.sol\":5897:5904  uint256 */\n      0x00\n        /* \"feg.sol\":5923:5962  div(a, b, \"SafeMath: division by zero\") */\n      tag_252\n        /* \"feg.sol\":5927:5928  a */\n      dup4\n        /* \"feg.sol\":5930:5931  b */\n      dup4\n        /* \"feg.sol\":5923:5962  div(a, b, \"SafeMath: division by zero\") */\n      mload(0x40)\n      dup1\n      0x40\n      add\n      0x40\n      mstore\n      dup1\n      0x1a\n      dup2\n      mstore\n      0x20\n      add\n      0x536166654d6174683a206469766973696f6e206279207a65726f000000000000\n      dup2\n      mstore\n      pop\n        /* \"feg.sol\":5923:5926  div */\n      tag_253\n        /* \"feg.sol\":5923:5962  div(a, b, \"SafeMath: division by zero\") */\n      jump\t// in\n    tag_252:\n        /* \"feg.sol\":5916:5962  return div(a, b, \"SafeMath: division by zero\") */\n      swap1\n      pop\n        /* \"feg.sol\":5839:5969  function div(uint256 a, uint256 b) internal pure returns (uint256) {... */\n      swap3\n      swap2\n      pop\n      pop\n      jump\t// out\n        /* \"feg.sol\":24176:24402  function _getTValues(uint256 tAmount) private pure returns (uint256, uint256) {... */\n    tag_205:\n        /* \"feg.sol\":24236:24243  uint256 */\n      0x00\n        /* \"feg.sol\":24245:24252  uint256 */\n      dup1\n        /* \"feg.sol\":24264:24276  uint256 tFee */\n      0x00\n        /* \"feg.sol\":24279:24302  tAmount.div(100).mul(2) */\n      tag_255\n        /* \"feg.sol\":24300:24301  2 */\n      0x02\n        /* \"feg.sol\":24279:24295  tAmount.div(100) */\n      tag_256\n        /* \"feg.sol\":24291:24294  100 */\n      0x64\n        /* \"feg.sol\":24279:24286  tAmount */\n      dup8\n        /* \"feg.sol\":24279:24290  tAmount.div */\n      tag_137\n      swap1\n        /* \"feg.sol\":24279:24295  tAmount.div(100) */\n      swap2\n      swap1\n      0xffffffff\n      and\n      jump\t// in\n    tag_256:\n        /* \"feg.sol\":24279:24299  tAmount.div(100).mul */\n      tag_257\n      swap1\n        /* \"feg.sol\":24279:24302  tAmount.div(100).mul(2) */\n      swap2\n      swap1\n      0xffffffff\n      and\n      jump\t// in\n    tag_255:\n        /* \"feg.sol\":24264:24302  uint256 tFee = tAmount.div(100).mul(2) */\n      swap1\n      pop\n        /* \"feg.sol\":24312:24335  uint256 tTransferAmount */\n      0x00\n        /* \"feg.sol\":24338:24355  tAmount.sub(tFee) */\n      tag_258\n        /* \"feg.sol\":24350:24354  tFee */\n      dup3\n        /* \"feg.sol\":24338:24345  tAmount */\n      dup7\n        /* \"feg.sol\":24338:24349  tAmount.sub */\n      tag_110\n      swap1\n        /* \"feg.sol\":24338:24355  tAmount.sub(tFee) */\n      swap2\n      swap1\n      0xffffffff\n      and\n      jump\t// in\n    tag_258:\n        /* \"feg.sol\":24312:24355  uint256 tTransferAmount = tAmount.sub(tFee) */\n      swap1\n      pop\n        /* \"feg.sol\":24373:24388  tTransferAmount */\n      dup1\n        /* \"feg.sol\":24390:24394  tFee */\n      dup3\n        /* \"feg.sol\":24365:24395  return (tTransferAmount, tFee) */\n      swap4\n      pop\n      swap4\n      pop\n      pop\n      pop\n        /* \"feg.sol\":24176:24402  function _getTValues(uint256 tAmount) private pure returns (uint256, uint256) {... */\n      swap2\n      pop\n      swap2\n      jump\t// out\n        /* \"feg.sol\":24408:24737  function _getRValues(uint256 tAmount, uint256 tFee, uint256 currentRate) private pure returns (uint256, uint256, uint256) {... */\n    tag_208:\n        /* \"feg.sol\":24503:24510  uint256 */\n      0x00\n        /* \"feg.sol\":24512:24519  uint256 */\n      dup1\n        /* \"feg.sol\":24521:24528  uint256 */\n      0x00\n        /* \"feg.sol\":24540:24555  uint256 rAmount */\n      dup1\n        /* \"feg.sol\":24558:24582  tAmount.mul(currentRate) */\n      tag_260\n        /* \"feg.sol\":24570:24581  currentRate */\n      dup6\n        /* \"feg.sol\":24558:24565  tAmount */\n      dup9\n        /* \"feg.sol\":24558:24569  tAmount.mul */\n      tag_257\n      swap1\n        /* \"feg.sol\":24558:24582  tAmount.mul(currentRate) */\n      swap2\n      swap1\n      0xffffffff\n      and\n      jump\t// in\n    tag_260:\n        /* \"feg.sol\":24540:24582  uint256 rAmount = tAmount.mul(currentRate) */\n      swap1\n      pop\n        /* \"feg.sol\":24592:24604  uint256 rFee */\n      0x00\n        /* \"feg.sol\":24607:24628  tFee.mul(currentRate) */\n      tag_261\n        /* \"feg.sol\":24616:24627  currentRate */\n      dup7\n        /* \"feg.sol\":24607:24611  tFee */\n      dup9\n        /* \"feg.sol\":24607:24615  tFee.mul */\n      tag_257\n      swap1\n        /* \"feg.sol\":24607:24628  tFee.mul(currentRate) */\n      swap2\n      swap1\n      0xffffffff\n      and\n      jump\t// in\n    tag_261:\n        /* \"feg.sol\":24592:24628  uint256 rFee = tFee.mul(currentRate) */\n      swap1\n      pop\n        /* \"feg.sol\":24638:24661  uint256 rTransferAmount */\n      0x00\n        /* \"feg.sol\":24664:24681  rAmount.sub(rFee) */\n      tag_262\n        /* \"feg.sol\":24676:24680  rFee */\n      dup3\n        /* \"feg.sol\":24664:24671  rAmount */\n      dup5\n        /* \"feg.sol\":24664:24675  rAmount.sub */\n      tag_110\n      swap1\n        /* \"feg.sol\":24664:24681  rAmount.sub(rFee) */\n      swap2\n      swap1\n      0xffffffff\n      and\n      jump\t// in\n    tag_262:\n        /* \"feg.sol\":24638:24681  uint256 rTransferAmount = rAmount.sub(rFee) */\n      swap1\n      pop\n        /* \"feg.sol\":24699:24706  rAmount */\n      dup3\n        /* \"feg.sol\":24708:24723  rTransferAmount */\n      dup2\n        /* \"feg.sol\":24725:24729  rFee */\n      dup4\n        /* \"feg.sol\":24691:24730  return (rAmount, rTransferAmount, rFee) */\n      swap6\n      pop\n      swap6\n      pop\n      swap6\n      pop\n      pop\n      pop\n      pop\n        /* \"feg.sol\":24408:24737  function _getRValues(uint256 tAmount, uint256 tFee, uint256 currentRate) private pure returns (uint256, uint256, uint256) {... */\n      swap4\n      pop\n      swap4\n      pop\n      swap4\n      swap1\n      pop\n      jump\t// out\n        /* \"feg.sol\":22523:23025  function _transferFromExcluded(address sender, address recipient, uint256 tAmount) private {... */\n    tag_223:\n        /* \"feg.sol\":22625:22640  uint256 rAmount */\n      0x00\n        /* \"feg.sol\":22642:22665  uint256 rTransferAmount */\n      dup1\n        /* \"feg.sol\":22667:22679  uint256 rFee */\n      0x00\n        /* \"feg.sol\":22681:22704  uint256 tTransferAmount */\n      dup1\n        /* \"feg.sol\":22706:22718  uint256 tFee */\n      0x00\n        /* \"feg.sol\":22722:22741  _getValues(tAmount) */\n      tag_264\n        /* \"feg.sol\":22733:22740  tAmount */\n      dup7\n        /* \"feg.sol\":22722:22732  _getValues */\n      tag_108\n        /* \"feg.sol\":22722:22741  _getValues(tAmount) */\n      jump\t// in\n    tag_264:\n        /* \"feg.sol\":22624:22741  (uint256 rAmount, uint256 rTransferAmount, uint256 rFee, uint256 tTransferAmount, uint256 tFee) = _getValues(tAmount) */\n      swap5\n      pop\n      swap5\n      pop\n      swap5\n      pop\n      swap5\n      pop\n      swap5\n      pop\n        /* \"feg.sol\":22769:22797  _tOwned[sender].sub(tAmount) */\n      tag_265\n        /* \"feg.sol\":22789:22796  tAmount */\n      dup7\n        /* \"feg.sol\":22769:22776  _tOwned */\n      0x02\n        /* \"feg.sol\":22769:22784  _tOwned[sender] */\n      0x00\n        /* \"feg.sol\":22777:22783  sender */\n      dup12\n        /* \"feg.sol\":22769:22784  _tOwned[sender] */\n      0xffffffffffffffffffffffffffffffffffffffff\n      and\n      0xffffffffffffffffffffffffffffffffffffffff\n      and\n      dup2\n      mstore\n      0x20\n      add\n      swap1\n      dup2\n      mstore\n      0x20\n      add\n      0x00\n      keccak256\n      sload\n        /* \"feg.sol\":22769:22788  _tOwned[sender].sub */\n      tag_110\n      swap1\n        /* \"feg.sol\":22769:22797  _tOwned[sender].sub(tAmount) */\n      swap2\n      swap1\n      0xffffffff\n      and\n      jump\t// in\n    tag_265:\n        /* \"feg.sol\":22751:22758  _tOwned */\n      0x02\n        /* \"feg.sol\":22751:22766  _tOwned[sender] */\n      0x00\n        /* \"feg.sol\":22759:22765  sender */\n      dup11\n        /* \"feg.sol\":22751:22766  _tOwned[sender] */\n      0xffffffffffffffffffffffffffffffffffffffff\n      and\n      0xffffffffffffffffffffffffffffffffffffffff\n      and\n      dup2\n      mstore\n      0x20\n      add\n      swap1\n      dup2\n      mstore\n      0x20\n      add\n      0x00\n      keccak256\n        /* \"feg.sol\":22751:22797  _tOwned[sender] = _tOwned[sender].sub(tAmount) */\n      dup2\n      swap1\n      sstore\n      pop\n        /* \"feg.sol\":22825:22853  _rOwned[sender].sub(rAmount) */\n      tag_266\n        /* \"feg.sol\":22845:22852  rAmount */\n      dup6\n        /* \"feg.sol\":22825:22832  _rOwned */\n      0x01\n        /* \"feg.sol\":22825:22840  _rOwned[sender] */\n      0x00\n        /* \"feg.sol\":22833:22839  sender */\n      dup12\n        /* \"feg.sol\":22825:22840  _rOwned[sender] */\n      0xffffffffffffffffffffffffffffffffffffffff\n      and\n      0xffffffffffffffffffffffffffffffffffffffff\n      and\n      dup2\n      mstore\n      0x20\n      add\n      swap1\n      dup2\n      mstore\n      0x20\n      add\n      0x00\n      keccak256\n      sload\n        /* \"feg.sol\":22825:22844  _rOwned[sender].sub */\n      tag_110\n      swap1\n        /* \"feg.sol\":22825:22853  _rOwned[sender].sub(rAmount) */\n      swap2\n      swap1\n      0xffffffff\n      and\n      jump\t// in\n    tag_266:\n        /* \"feg.sol\":22807:22814  _rOwned */\n      0x01\n        /* \"feg.sol\":22807:22822  _rOwned[sender] */\n      0x00\n        /* \"feg.sol\":22815:22821  sender */\n      dup11\n        /* \"feg.sol\":22807:22822  _rOwned[sender] */\n      0xffffffffffffffffffffffffffffffffffffffff\n      and\n      0xffffffffffffffffffffffffffffffffffffffff\n      and\n      dup2\n      mstore\n      0x20\n      add\n      swap1\n      dup2\n      mstore\n      0x20\n      add\n      0x00\n      keccak256\n        /* \"feg.sol\":22807:22853  _rOwned[sender] = _rOwned[sender].sub(rAmount) */\n      dup2\n      swap1\n      sstore\n      pop\n        /* \"feg.sol\":22884:22923  _rOwned[recipient].add(rTransferAmount) */\n      tag_267\n        /* \"feg.sol\":22907:22922  rTransferAmount */\n      dup5\n        /* \"feg.sol\":22884:22891  _rOwned */\n      0x01\n        /* \"feg.sol\":22884:22902  _rOwned[recipient] */\n      0x00\n        /* \"feg.sol\":22892:22901  recipient */\n      dup11\n        /* \"feg.sol\":22884:22902  _rOwned[recipient] */\n      0xffffffffffffffffffffffffffffffffffffffff\n      and\n      0xffffffffffffffffffffffffffffffffffffffff\n      and\n      dup2\n      mstore\n      0x20\n      add\n      swap1\n      dup2\n      mstore\n      0x20\n      add\n      0x00\n      keccak256\n      sload\n        /* \"feg.sol\":22884:22906  _rOwned[recipient].add */\n      tag_113\n      swap1\n        /* \"feg.sol\":22884:22923  _rOwned[recipient].add(rTransferAmount) */\n      swap2\n      swap1\n      0xffffffff\n      and\n      jump\t// in\n    tag_267:\n        /* \"feg.sol\":22863:22870  _rOwned */\n      0x01\n        /* \"feg.sol\":22863:22881  _rOwned[recipient] */\n      0x00\n        /* \"feg.sol\":22871:22880  recipient */\n      dup10\n        /* \"feg.sol\":22863:22881  _rOwned[recipient] */\n      0xffffffffffffffffffffffffffffffffffffffff\n      and\n      0xffffffffffffffffffffffffffffffffffffffff\n      and\n      dup2\n      mstore\n      0x20\n      add\n      swap1\n      dup2\n      mstore\n      0x20\n      add\n      0x00\n      keccak256\n        /* \"feg.sol\":22863:22923  _rOwned[recipient] = _rOwned[recipient].add(rTransferAmount) */\n      dup2\n      swap1\n      sstore\n      pop\n        /* \"feg.sol\":22936:22959  _reflectFee(rFee, tFee) */\n      tag_268\n        /* \"feg.sol\":22948:22952  rFee */\n      dup4\n        /* \"feg.sol\":22954:22958  tFee */\n      dup3\n        /* \"feg.sol\":22936:22947  _reflectFee */\n      tag_269\n        /* \"feg.sol\":22936:22959  _reflectFee(rFee, tFee) */\n      jump\t// in\n    tag_268:\n        /* \"feg.sol\":22991:23000  recipient */\n      dup7\n        /* \"feg.sol\":22974:23018  Transfer(sender, recipient, tTransferAmount) */\n      0xffffffffffffffffffffffffffffffffffffffff\n      and\n        /* \"feg.sol\":22983:22989  sender */\n      dup9\n        /* \"feg.sol\":22974:23018  Transfer(sender, recipient, tTransferAmount) */\n      0xffffffffffffffffffffffffffffffffffffffff\n      and\n      0xddf252ad1be2c89b69c2b068fc378daa952ba7f163c4a11628f55a4df523b3ef\n        /* \"feg.sol\":23002:23017  tTransferAmount */\n      dup5\n        /* \"feg.sol\":22974:23018  Transfer(sender, recipient, tTransferAmount) */\n      mload(0x40)\n      dup1\n      dup3\n      dup2\n      mstore\n      0x20\n      add\n      swap2\n      pop\n      pop\n      mload(0x40)\n      dup1\n      swap2\n      sub\n      swap1\n      log3\n        /* \"feg.sol\":22523:23025  function _transferFromExcluded(address sender, address recipient, uint256 tAmount) private {... */\n      pop\n      pop\n      pop\n      pop\n      pop\n      pop\n      pop\n      pop\n      jump\t// out\n        /* \"feg.sol\":21995:22517  function _transferToExcluded(address sender, address recipient, uint256 tAmount) private {... */\n    tag_228:\n        /* \"feg.sol\":22095:22110  uint256 rAmount */\n      0x00\n        /* \"feg.sol\":22112:22135  uint256 rTransferAmount */\n      dup1\n        /* \"feg.sol\":22137:22149  uint256 rFee */\n      0x00\n        /* \"feg.sol\":22151:22174  uint256 tTransferAmount */\n      dup1\n        /* \"feg.sol\":22176:22188  uint256 tFee */\n      0x00\n        /* \"feg.sol\":22192:22211  _getValues(tAmount) */\n      tag_271\n        /* \"feg.sol\":22203:22210  tAmount */\n      dup7\n        /* \"feg.sol\":22192:22202  _getValues */\n      tag_108\n        /* \"feg.sol\":22192:22211  _getValues(tAmount) */\n      jump\t// in\n    tag_271:\n        /* \"feg.sol\":22094:22211  (uint256 rAmount, uint256 rTransferAmount, uint256 rFee, uint256 tTransferAmount, uint256 tFee) = _getValues(tAmount) */\n      swap5\n      pop\n      swap5\n      pop\n      swap5\n      pop\n      swap5\n      pop\n      swap5\n      pop\n        /* \"feg.sol\":22239:22267  _rOwned[sender].sub(rAmount) */\n      tag_272\n        /* \"feg.sol\":22259:22266  rAmount */\n      dup6\n        /* \"feg.sol\":22239:22246  _rOwned */\n      0x01\n        /* \"feg.sol\":22239:22254  _rOwned[sender] */\n      0x00\n        /* \"feg.sol\":22247:22253  sender */\n      dup12\n        /* \"feg.sol\":22239:22254  _rOwned[sender] */\n      0xffffffffffffffffffffffffffffffffffffffff\n      and\n      0xffffffffffffffffffffffffffffffffffffffff\n      and\n      dup2\n      mstore\n      0x20\n      add\n      swap1\n      dup2\n      mstore\n      0x20\n      add\n      0x00\n      keccak256\n      sload\n        /* \"feg.sol\":22239:22258  _rOwned[sender].sub */\n      tag_110\n      swap1\n        /* \"feg.sol\":22239:22267  _rOwned[sender].sub(rAmount) */\n      swap2\n      swap1\n      0xffffffff\n      and\n      jump\t// in\n    tag_272:\n        /* \"feg.sol\":22221:22228  _rOwned */\n      0x01\n        /* \"feg.sol\":22221:22236  _rOwned[sender] */\n      0x00\n        /* \"feg.sol\":22229:22235  sender */\n      dup11\n        /* \"feg.sol\":22221:22236  _rOwned[sender] */\n      0xffffffffffffffffffffffffffffffffffffffff\n      and\n      0xffffffffffffffffffffffffffffffffffffffff\n      and\n      dup2\n      mstore\n      0x20\n      add\n      swap1\n      dup2\n      mstore\n      0x20\n      add\n      0x00\n      keccak256\n        /* \"feg.sol\":22221:22267  _rOwned[sender] = _rOwned[sender].sub(rAmount) */\n      dup2\n      swap1\n      sstore\n      pop\n        /* \"feg.sol\":22298:22337  _tOwned[recipient].add(tTransferAmount) */\n      tag_273\n        /* \"feg.sol\":22321:22336  tTransferAmount */\n      dup3\n        /* \"feg.sol\":22298:22305  _tOwned */\n      0x02\n        /* \"feg.sol\":22298:22316  _tOwned[recipient] */\n      0x00\n        /* \"feg.sol\":22306:22315  recipient */\n      dup11\n        /* \"feg.sol\":22298:22316  _tOwned[recipient] */\n      0xffffffffffffffffffffffffffffffffffffffff\n      and\n      0xffffffffffffffffffffffffffffffffffffffff\n      and\n      dup2\n      mstore\n      0x20\n      add\n      swap1\n      dup2\n      mstore\n      0x20\n      add\n      0x00\n      keccak256\n      sload\n        /* \"feg.sol\":22298:22320  _tOwned[recipient].add */\n      tag_113\n      swap1\n        /* \"feg.sol\":22298:22337  _tOwned[recipient].add(tTransferAmount) */\n      swap2\n      swap1\n      0xffffffff\n      and\n      jump\t// in\n    tag_273:\n        /* \"feg.sol\":22277:22284  _tOwned */\n      0x02\n        /* \"feg.sol\":22277:22295  _tOwned[recipient] */\n      0x00\n        /* \"feg.sol\":22285:22294  recipient */\n      dup10\n        /* \"feg.sol\":22277:22295  _tOwned[recipient] */\n      0xffffffffffffffffffffffffffffffffffffffff\n      and\n      0xffffffffffffffffffffffffffffffffffffffff\n      and\n      dup2\n      mstore\n      0x20\n      add\n      swap1\n      dup2\n      mstore\n      0x20\n      add\n      0x00\n      keccak256\n        /* \"feg.sol\":22277:22337  _tOwned[recipient] = _tOwned[recipient].add(tTransferAmount) */\n      dup2\n      swap1\n      sstore\n      pop\n        /* \"feg.sol\":22368:22407  _rOwned[recipient].add(rTransferAmount) */\n      tag_274\n        /* \"feg.sol\":22391:22406  rTransferAmount */\n      dup5\n        /* \"feg.sol\":22368:22375  _rOwned */\n      0x01\n        /* \"feg.sol\":22368:22386  _rOwned[recipient] */\n      0x00\n        /* \"feg.sol\":22376:22385  recipient */\n      dup11\n        /* \"feg.sol\":22368:22386  _rOwned[recipient] */\n      0xffffffffffffffffffffffffffffffffffffffff\n      and\n      0xffffffffffffffffffffffffffffffffffffffff\n      and\n      dup2\n      mstore\n      0x20\n      add\n      swap1\n      dup2\n      mstore\n      0x20\n      add\n      0x00\n      keccak256\n      sload\n        /* \"feg.sol\":22368:22390  _rOwned[recipient].add */\n      tag_113\n      swap1\n        /* \"feg.sol\":22368:22407  _rOwned[recipient].add(rTransferAmount) */\n      swap2\n      swap1\n      0xffffffff\n      and\n      jump\t// in\n    tag_274:\n        /* \"feg.sol\":22347:22354  _rOwned */\n      0x01\n        /* \"feg.sol\":22347:22365  _rOwned[recipient] */\n      0x00\n        /* \"feg.sol\":22355:22364  recipient */\n      dup10\n        /* \"feg.sol\":22347:22365  _rOwned[recipient] */\n      0xffffffffffffffffffffffffffffffffffffffff\n      and\n      0xffffffffffffffffffffffffffffffffffffffff\n      and\n      dup2\n      mstore\n      0x20\n      add\n      swap1\n      dup2\n      mstore\n      0x20\n      add\n      0x00\n      keccak256\n        /* \"feg.sol\":22347:22407  _rOwned[recipient] = _rOwned[recipient].add(rTransferAmount) */\n      dup2\n      swap1\n      sstore\n      pop\n        /* \"feg.sol\":22428:22451  _reflectFee(rFee, tFee) */\n      tag_275\n        /* \"feg.sol\":22440:22444  rFee */\n      dup4\n        /* \"feg.sol\":22446:22450  tFee */\n      dup3\n        /* \"feg.sol\":22428:22439  _reflectFee */\n      tag_269\n        /* \"feg.sol\":22428:22451  _reflectFee(rFee, tFee) */\n      jump\t// in\n    tag_275:\n        /* \"feg.sol\":22483:22492  recipient */\n      dup7\n        /* \"feg.sol\":22466:22510  Transfer(sender, recipient, tTransferAmount) */\n      0xffffffffffffffffffffffffffffffffffffffff\n      and\n        /* \"feg.sol\":22475:22481  sender */\n      dup9\n        /* \"feg.sol\":22466:22510  Transfer(sender, recipient, tTransferAmount) */\n      0xffffffffffffffffffffffffffffffffffffffff\n      and\n      0xddf252ad1be2c89b69c2b068fc378daa952ba7f163c4a11628f55a4df523b3ef\n        /* \"feg.sol\":22494:22509  tTransferAmount */\n      dup5\n        /* \"feg.sol\":22466:22510  Transfer(sender, recipient, tTransferAmount) */\n      mload(0x40)\n      dup1\n      dup3\n      dup2\n      mstore\n      0x20\n      add\n      swap2\n      pop\n      pop\n      mload(0x40)\n      dup1\n      swap2\n      sub\n      swap1\n      log3\n        /* \"feg.sol\":21995:22517  function _transferToExcluded(address sender, address recipient, uint256 tAmount) private {... */\n      pop\n      pop\n      pop\n      pop\n      pop\n      pop\n      pop\n      pop\n      jump\t// out\n        /* \"feg.sol\":21543:21989  function _transferStandard(address sender, address recipient, uint256 tAmount) private {... */\n    tag_233:\n        /* \"feg.sol\":21641:21656  uint256 rAmount */\n      0x00\n        /* \"feg.sol\":21658:21681  uint256 rTransferAmount */\n      dup1\n        /* \"feg.sol\":21683:21695  uint256 rFee */\n      0x00\n        /* \"feg.sol\":21697:21720  uint256 tTransferAmount */\n      dup1\n        /* \"feg.sol\":21722:21734  uint256 tFee */\n      0x00\n        /* \"feg.sol\":21738:21757  _getValues(tAmount) */\n      tag_277\n        /* \"feg.sol\":21749:21756  tAmount */\n      dup7\n        /* \"feg.sol\":21738:21748  _getValues */\n      tag_108\n        /* \"feg.sol\":21738:21757  _getValues(tAmount) */\n      jump\t// in\n    tag_277:\n        /* \"feg.sol\":21640:21757  (uint256 rAmount, uint256 rTransferAmount, uint256 rFee, uint256 tTransferAmount, uint256 tFee) = _getValues(tAmount) */\n      swap5\n      pop\n      swap5\n      pop\n      swap5\n      pop\n      swap5\n      pop\n      swap5\n      pop\n        /* \"feg.sol\":21785:21813  _rOwned[sender].sub(rAmount) */\n      tag_278\n        /* \"feg.sol\":21805:21812  rAmount */\n      dup6\n        /* \"feg.sol\":21785:21792  _rOwned */\n      0x01\n        /* \"feg.sol\":21785:21800  _rOwned[sender] */\n      0x00\n        /* \"feg.sol\":21793:21799  sender */\n      dup12\n        /* \"feg.sol\":21785:21800  _rOwned[sender] */\n      0xffffffffffffffffffffffffffffffffffffffff\n      and\n      0xffffffffffffffffffffffffffffffffffffffff\n      and\n      dup2\n      mstore\n      0x20\n      add\n      swap1\n      dup2\n      mstore\n      0x20\n      add\n      0x00\n      keccak256\n      sload\n        /* \"feg.sol\":21785:21804  _rOwned[sender].sub */\n      tag_110\n      swap1\n        /* \"feg.sol\":21785:21813  _rOwned[sender].sub(rAmount) */\n      swap2\n      swap1\n      0xffffffff\n      and\n      jump\t// in\n    tag_278:\n        /* \"feg.sol\":21767:21774  _rOwned */\n      0x01\n        /* \"feg.sol\":21767:21782  _rOwned[sender] */\n      0x00\n        /* \"feg.sol\":21775:21781  sender */\n      dup11\n        /* \"feg.sol\":21767:21782  _rOwned[sender] */\n      0xffffffffffffffffffffffffffffffffffffffff\n      and\n      0xffffffffffffffffffffffffffffffffffffffff\n      and\n      dup2\n      mstore\n      0x20\n      add\n      swap1\n      dup2\n      mstore\n      0x20\n      add\n      0x00\n      keccak256\n        /* \"feg.sol\":21767:21813  _rOwned[sender] = _rOwned[sender].sub(rAmount) */\n      dup2\n      swap1\n      sstore\n      pop\n        /* \"feg.sol\":21844:21883  _rOwned[recipient].add(rTransferAmount) */\n      tag_279\n        /* \"feg.sol\":21867:21882  rTransferAmount */\n      dup5\n        /* \"feg.sol\":21844:21851  _rOwned */\n      0x01\n        /* \"feg.sol\":21844:21862  _rOwned[recipient] */\n      0x00\n        /* \"feg.sol\":21852:21861  recipient */\n      dup11\n        /* \"feg.sol\":21844:21862  _rOwned[recipient] */\n      0xffffffffffffffffffffffffffffffffffffffff\n      and\n      0xffffffffffffffffffffffffffffffffffffffff\n      and\n      dup2\n      mstore\n      0x20\n      add\n      swap1\n      dup2\n      mstore\n      0x20\n      add\n      0x00\n      keccak256\n      sload\n        /* \"feg.sol\":21844:21866  _rOwned[recipient].add */\n      tag_113\n      swap1\n        /* \"feg.sol\":21844:21883  _rOwned[recipient].add(rTransferAmount) */\n      swap2\n      swap1\n      0xffffffff\n      and\n      jump\t// in\n    tag_279:\n        /* \"feg.sol\":21823:21830  _rOwned */\n      0x01\n        /* \"feg.sol\":21823:21841  _rOwned[recipient] */\n      0x00\n        /* \"feg.sol\":21831:21840  recipient */\n      dup10\n        /* \"feg.sol\":21823:21841  _rOwned[recipient] */\n      0xffffffffffffffffffffffffffffffffffffffff\n      and\n      0xffffffffffffffffffffffffffffffffffffffff\n      and\n      dup2\n      mstore\n      0x20\n      add\n      swap1\n      dup2\n      mstore\n      0x20\n      add\n      0x00\n      keccak256\n        /* \"feg.sol\":21823:21883  _rOwned[recipient] = _rOwned[recipient].add(rTransferAmount) */\n      dup2\n      swap1\n      sstore\n      pop\n        /* \"feg.sol\":21900:21923  _reflectFee(rFee, tFee) */\n      tag_280\n        /* \"feg.sol\":21912:21916  rFee */\n      dup4\n        /* \"feg.sol\":21918:21922  tFee */\n      dup3\n        /* \"feg.sol\":21900:21911  _reflectFee */\n      tag_269\n        /* \"feg.sol\":21900:21923  _reflectFee(rFee, tFee) */\n      jump\t// in\n    tag_280:\n        /* \"feg.sol\":21955:21964  recipient */\n      dup7\n        /* \"feg.sol\":21938:21982  Transfer(sender, recipient, tTransferAmount) */\n      0xffffffffffffffffffffffffffffffffffffffff\n      and\n        /* \"feg.sol\":21947:21953  sender */\n      dup9\n        /* \"feg.sol\":21938:21982  Transfer(sender, recipient, tTransferAmount) */\n      0xffffffffffffffffffffffffffffffffffffffff\n      and\n      0xddf252ad1be2c89b69c2b068fc378daa952ba7f163c4a11628f55a4df523b3ef\n        /* \"feg.sol\":21966:21981  tTransferAmount */\n      dup5\n        /* \"feg.sol\":21938:21982  Transfer(sender, recipient, tTransferAmount) */\n      mload(0x40)\n      dup1\n      dup3\n      dup2\n      mstore\n      0x20\n      add\n      swap2\n      pop\n      pop\n      mload(0x40)\n      dup1\n      swap2\n      sub\n      swap1\n      log3\n        /* \"feg.sol\":21543:21989  function _transferStandard(address sender, address recipient, uint256 tAmount) private {... */\n      pop\n      pop\n      pop\n      pop\n      pop\n      pop\n      pop\n      pop\n      jump\t// out\n        /* \"feg.sol\":23031:23608  function _transferBothExcluded(address sender, address recipient, uint256 tAmount) private {... */\n    tag_238:\n        /* \"feg.sol\":23133:23148  uint256 rAmount */\n      0x00\n        /* \"feg.sol\":23150:23173  uint256 rTransferAmount */\n      dup1\n        /* \"feg.sol\":23175:23187  uint256 rFee */\n      0x00\n        /* \"feg.sol\":23189:23212  uint256 tTransferAmount */\n      dup1\n        /* \"feg.sol\":23214:23226  uint256 tFee */\n      0x00\n        /* \"feg.sol\":23230:23249  _getValues(tAmount) */\n      tag_282\n        /* \"feg.sol\":23241:23248  tAmount */\n      dup7\n        /* \"feg.sol\":23230:23240  _getValues */\n      tag_108\n        /* \"feg.sol\":23230:23249  _getValues(tAmount) */\n      jump\t// in\n    tag_282:\n        /* \"feg.sol\":23132:23249  (uint256 rAmount, uint256 rTransferAmount, uint256 rFee, uint256 tTransferAmount, uint256 tFee) = _getValues(tAmount) */\n      swap5\n      pop\n      swap5\n      pop\n      swap5\n      pop\n      swap5\n      pop\n      swap5\n      pop\n        /* \"feg.sol\":23277:23305  _tOwned[sender].sub(tAmount) */\n      tag_283\n        /* \"feg.sol\":23297:23304  tAmount */\n      dup7\n        /* \"feg.sol\":23277:23284  _tOwned */\n      0x02\n        /* \"feg.sol\":23277:23292  _tOwned[sender] */\n      0x00\n        /* \"feg.sol\":23285:23291  sender */\n      dup12\n        /* \"feg.sol\":23277:23292  _tOwned[sender] */\n      0xffffffffffffffffffffffffffffffffffffffff\n      and\n      0xffffffffffffffffffffffffffffffffffffffff\n      and\n      dup2\n      mstore\n      0x20\n      add\n      swap1\n      dup2\n      mstore\n      0x20\n      add\n      0x00\n      keccak256\n      sload\n        /* \"feg.sol\":23277:23296  _tOwned[sender].sub */\n      tag_110\n      swap1\n        /* \"feg.sol\":23277:23305  _tOwned[sender].sub(tAmount) */\n      swap2\n      swap1\n      0xffffffff\n      and\n      jump\t// in\n    tag_283:\n        /* \"feg.sol\":23259:23266  _tOwned */\n      0x02\n        /* \"feg.sol\":23259:23274  _tOwned[sender] */\n      0x00\n        /* \"feg.sol\":23267:23273  sender */\n      dup11\n        /* \"feg.sol\":23259:23274  _tOwned[sender] */\n      0xffffffffffffffffffffffffffffffffffffffff\n      and\n      0xffffffffffffffffffffffffffffffffffffffff\n      and\n      dup2\n      mstore\n      0x20\n      add\n      swap1\n      dup2\n      mstore\n      0x20\n      add\n      0x00\n      keccak256\n        /* \"feg.sol\":23259:23305  _tOwned[sender] = _tOwned[sender].sub(tAmount) */\n      dup2\n      swap1\n      sstore\n      pop\n        /* \"feg.sol\":23333:23361  _rOwned[sender].sub(rAmount) */\n      tag_284\n        /* \"feg.sol\":23353:23360  rAmount */\n      dup6\n        /* \"feg.sol\":23333:23340  _rOwned */\n      0x01\n        /* \"feg.sol\":23333:23348  _rOwned[sender] */\n      0x00\n        /* \"feg.sol\":23341:23347  sender */\n      dup12\n        /* \"feg.sol\":23333:23348  _rOwned[sender] */\n      0xffffffffffffffffffffffffffffffffffffffff\n      and\n      0xffffffffffffffffffffffffffffffffffffffff\n      and\n      dup2\n      mstore\n      0x20\n      add\n      swap1\n      dup2\n      mstore\n      0x20\n      add\n      0x00\n      keccak256\n      sload\n        /* \"feg.sol\":23333:23352  _rOwned[sender].sub */\n      tag_110\n      swap1\n        /* \"feg.sol\":23333:23361  _rOwned[sender].sub(rAmount) */\n      swap2\n      swap1\n      0xffffffff\n      and\n      jump\t// in\n    tag_284:\n        /* \"feg.sol\":23315:23322  _rOwned */\n      0x01\n        /* \"feg.sol\":23315:23330  _rOwned[sender] */\n      0x00\n        /* \"feg.sol\":23323:23329  sender */\n      dup11\n        /* \"feg.sol\":23315:23330  _rOwned[sender] */\n      0xffffffffffffffffffffffffffffffffffffffff\n      and\n      0xffffffffffffffffffffffffffffffffffffffff\n      and\n      dup2\n      mstore\n      0x20\n      add\n      swap1\n      dup2\n      mstore\n      0x20\n      add\n      0x00\n      keccak256\n        /* \"feg.sol\":23315:23361  _rOwned[sender] = _rOwned[sender].sub(rAmount) */\n      dup2\n      swap1\n      sstore\n      pop\n        /* \"feg.sol\":23392:23431  _tOwned[recipient].add(tTransferAmount) */\n      tag_285\n        /* \"feg.sol\":23415:23430  tTransferAmount */\n      dup3\n        /* \"feg.sol\":23392:23399  _tOwned */\n      0x02\n        /* \"feg.sol\":23392:23410  _tOwned[recipient] */\n      0x00\n        /* \"feg.sol\":23400:23409  recipient */\n      dup11\n        /* \"feg.sol\":23392:23410  _tOwned[recipient] */\n      0xffffffffffffffffffffffffffffffffffffffff\n      and\n      0xffffffffffffffffffffffffffffffffffffffff\n      and\n      dup2\n      mstore\n      0x20\n      add\n      swap1\n      dup2\n      mstore\n      0x20\n      add\n      0x00\n      keccak256\n      sload\n        /* \"feg.sol\":23392:23414  _tOwned[recipient].add */\n      tag_113\n      swap1\n        /* \"feg.sol\":23392:23431  _tOwned[recipient].add(tTransferAmount) */\n      swap2\n      swap1\n      0xffffffff\n      and\n      jump\t// in\n    tag_285:\n        /* \"feg.sol\":23371:23378  _tOwned */\n      0x02\n        /* \"feg.sol\":23371:23389  _tOwned[recipient] */\n      0x00\n        /* \"feg.sol\":23379:23388  recipient */\n      dup10\n        /* \"feg.sol\":23371:23389  _tOwned[recipient] */\n      0xffffffffffffffffffffffffffffffffffffffff\n      and\n      0xffffffffffffffffffffffffffffffffffffffff\n      and\n      dup2\n      mstore\n      0x20\n      add\n      swap1\n      dup2\n      mstore\n      0x20\n      add\n      0x00\n      keccak256\n        /* \"feg.sol\":23371:23431  _tOwned[recipient] = _tOwned[recipient].add(tTransferAmount) */\n      dup2\n      swap1\n      sstore\n      pop\n        /* \"feg.sol\":23462:23501  _rOwned[recipient].add(rTransferAmount) */\n      tag_286\n        /* \"feg.sol\":23485:23500  rTransferAmount */\n      dup5\n        /* \"feg.sol\":23462:23469  _rOwned */\n      0x01\n        /* \"feg.sol\":23462:23480  _rOwned[recipient] */\n      0x00\n        /* \"feg.sol\":23470:23479  recipient */\n      dup11\n        /* \"feg.sol\":23462:23480  _rOwned[recipient] */\n      0xffffffffffffffffffffffffffffffffffffffff\n      and\n      0xffffffffffffffffffffffffffffffffffffffff\n      and\n      dup2\n      mstore\n      0x20\n      add\n      swap1\n      dup2\n      mstore\n      0x20\n      add\n      0x00\n      keccak256\n      sload\n        /* \"feg.sol\":23462:23484  _rOwned[recipient].add */\n      tag_113\n      swap1\n        /* \"feg.sol\":23462:23501  _rOwned[recipient].add(rTransferAmount) */\n      swap2\n      swap1\n      0xffffffff\n      and\n      jump\t// in\n    tag_286:\n        /* \"feg.sol\":23441:23448  _rOwned */\n      0x01\n        /* \"feg.sol\":23441:23459  _rOwned[recipient] */\n      0x00\n        /* \"feg.sol\":23449:23458  recipient */\n      dup10\n        /* \"feg.sol\":23441:23459  _rOwned[recipient] */\n      0xffffffffffffffffffffffffffffffffffffffff\n      and\n      0xffffffffffffffffffffffffffffffffffffffff\n      and\n      dup2\n      mstore\n      0x20\n      add\n      swap1\n      dup2\n      mstore\n      0x20\n      add\n      0x00\n      keccak256\n        /* \"feg.sol\":23441:23501  _rOwned[recipient] = _rOwned[recipient].add(rTransferAmount) */\n      dup2\n      swap1\n      sstore\n      pop\n        /* \"feg.sol\":23519:23542  _reflectFee(rFee, tFee) */\n      tag_287\n        /* \"feg.sol\":23531:23535  rFee */\n      dup4\n        /* \"feg.sol\":23537:23541  tFee */\n      dup3\n        /* \"feg.sol\":23519:23530  _reflectFee */\n      tag_269\n        /* \"feg.sol\":23519:23542  _reflectFee(rFee, tFee) */\n      jump\t// in\n    tag_287:\n        /* \"feg.sol\":23574:23583  recipient */\n      dup7\n        /* \"feg.sol\":23557:23601  Transfer(sender, recipient, tTransferAmount) */\n      0xffffffffffffffffffffffffffffffffffffffff\n      and\n        /* \"feg.sol\":23566:23572  sender */\n      dup9\n        /* \"feg.sol\":23557:23601  Transfer(sender, recipient, tTransferAmount) */\n      0xffffffffffffffffffffffffffffffffffffffff\n      and\n      0xddf252ad1be2c89b69c2b068fc378daa952ba7f163c4a11628f55a4df523b3ef\n        /* \"feg.sol\":23585:23600  tTransferAmount */\n      dup5\n        /* \"feg.sol\":23557:23601  Transfer(sender, recipient, tTransferAmount) */\n      mload(0x40)\n      dup1\n      dup3\n      dup2\n      mstore\n      0x20\n      add\n      swap2\n      pop\n      pop\n      mload(0x40)\n      dup1\n      swap2\n      sub\n      swap1\n      log3\n        /* \"feg.sol\":23031:23608  function _transferBothExcluded(address sender, address recipient, uint256 tAmount) private {... */\n      pop\n      pop\n      pop\n      pop\n      pop\n      pop\n      pop\n      pop\n      jump\t// out\n        /* \"feg.sol\":24909:25460  function _getCurrentSupply() private view returns(uint256, uint256) {... */\n    tag_249:\n        /* \"feg.sol\":24959:24966  uint256 */\n      0x00\n        /* \"feg.sol\":24968:24975  uint256 */\n      dup1\n        /* \"feg.sol\":24987:25002  uint256 rSupply */\n      0x00\n        /* \"feg.sol\":25005:25012  _rTotal */\n      sload(0x06)\n        /* \"feg.sol\":24987:25012  uint256 rSupply = _rTotal */\n      swap1\n      pop\n        /* \"feg.sol\":25022:25037  uint256 tSupply */\n      0x00\n        /* \"feg.sol\":15995:16023  100000000000 * 10**6 * 10**9 */\n      0x52b7d2dcc80cd2e4000000\n        /* \"feg.sol\":25022:25047  uint256 tSupply = _tTotal */\n      swap1\n      pop\n        /* \"feg.sol\":25068:25077  uint256 i */\n      0x00\n        /* \"feg.sol\":25063:25348  for (uint256 i = 0; i < _excluded.length; i++) {... */\n    tag_289:\n        /* \"feg.sol\":25087:25096  _excluded */\n      0x05\n        /* \"feg.sol\":25087:25103  _excluded.length */\n      dup1\n      sload\n      swap1\n      pop\n        /* \"feg.sol\":25083:25084  i */\n      dup2\n        /* \"feg.sol\":25083:25103  i < _excluded.length */\n      lt\n        /* \"feg.sol\":25063:25348  for (uint256 i = 0; i < _excluded.length; i++) {... */\n      iszero\n      tag_290\n      jumpi\n        /* \"feg.sol\":25152:25159  rSupply */\n      dup3\n        /* \"feg.sol\":25128:25135  _rOwned */\n      0x01\n        /* \"feg.sol\":25128:25149  _rOwned[_excluded[i]] */\n      0x00\n        /* \"feg.sol\":25136:25145  _excluded */\n      0x05\n        /* \"feg.sol\":25146:25147  i */\n      dup5\n        /* \"feg.sol\":25136:25148  _excluded[i] */\n      dup2\n      sload\n      dup2\n      lt\n      tag_292\n      jumpi\n      invalid\n    tag_292:\n      swap1\n      0x00\n      mstore\n      keccak256(0x00, 0x20)\n      add\n      0x00\n      swap1\n      sload\n      swap1\n      0x0100\n      exp\n      swap1\n      div\n      0xffffffffffffffffffffffffffffffffffffffff\n      and\n        /* \"feg.sol\":25128:25149  _rOwned[_excluded[i]] */\n      0xffffffffffffffffffffffffffffffffffffffff\n      and\n      0xffffffffffffffffffffffffffffffffffffffff\n      and\n      dup2\n      mstore\n      0x20\n      add\n      swap1\n      dup2\n      mstore\n      0x20\n      add\n      0x00\n      keccak256\n      sload\n        /* \"feg.sol\":25128:25159  _rOwned[_excluded[i]] > rSupply */\n      gt\n        /* \"feg.sol\":25128:25194  _rOwned[_excluded[i]] > rSupply || _tOwned[_excluded[i]] > tSupply */\n      dup1\n      tag_294\n      jumpi\n      pop\n        /* \"feg.sol\":25187:25194  tSupply */\n      dup2\n        /* \"feg.sol\":25163:25170  _tOwned */\n      0x02\n        /* \"feg.sol\":25163:25184  _tOwned[_excluded[i]] */\n      0x00\n        /* \"feg.sol\":25171:25180  _excluded */\n      0x05\n        /* \"feg.sol\":25181:25182  i */\n      dup5\n        /* \"feg.sol\":25171:25183  _excluded[i] */\n      dup2\n      sload\n      dup2\n      lt\n      tag_295\n      jumpi\n      invalid\n    tag_295:\n      swap1\n      0x00\n      mstore\n      keccak256(0x00, 0x20)\n      add\n      0x00\n      swap1\n      sload\n      swap1\n      0x0100\n      exp\n      swap1\n      div\n      0xffffffffffffffffffffffffffffffffffffffff\n      and\n        /* \"feg.sol\":25163:25184  _tOwned[_excluded[i]] */\n      0xffffffffffffffffffffffffffffffffffffffff\n      and\n      0xffffffffffffffffffffffffffffffffffffffff\n      and\n      dup2\n      mstore\n      0x20\n      add\n      swap1\n      dup2\n      mstore\n      0x20\n      add\n      0x00\n      keccak256\n      sload\n        /* \"feg.sol\":25163:25194  _tOwned[_excluded[i]] > tSupply */\n      gt\n        /* \"feg.sol\":25128:25194  _rOwned[_excluded[i]] > rSupply || _tOwned[_excluded[i]] > tSupply */\n    tag_294:\n        /* \"feg.sol\":25124:25221  if (_rOwned[_excluded[i]] > rSupply || _tOwned[_excluded[i]] > tSupply) return (_rTotal, _tTotal) */\n      iszero\n      tag_297\n      jumpi\n        /* \"feg.sol\":25204:25211  _rTotal */\n      sload(0x06)\n        /* \"feg.sol\":15995:16023  100000000000 * 10**6 * 10**9 */\n      0x52b7d2dcc80cd2e4000000\n        /* \"feg.sol\":25196:25221  return (_rTotal, _tTotal) */\n      swap5\n      pop\n      swap5\n      pop\n      pop\n      pop\n      pop\n      jump(tag_288)\n        /* \"feg.sol\":25124:25221  if (_rOwned[_excluded[i]] > rSupply || _tOwned[_excluded[i]] > tSupply) return (_rTotal, _tTotal) */\n    tag_297:\n        /* \"feg.sol\":25245:25279  rSupply.sub(_rOwned[_excluded[i]]) */\n      tag_298\n        /* \"feg.sol\":25257:25264  _rOwned */\n      0x01\n        /* \"feg.sol\":25257:25278  _rOwned[_excluded[i]] */\n      0x00\n        /* \"feg.sol\":25265:25274  _excluded */\n      0x05\n        /* \"feg.sol\":25275:25276  i */\n      dup5\n        /* \"feg.sol\":25265:25277  _excluded[i] */\n      dup2\n      sload\n      dup2\n      lt\n      tag_299\n      jumpi\n      invalid\n    tag_299:\n      swap1\n      0x00\n      mstore\n      keccak256(0x00, 0x20)\n      add\n      0x00\n      swap1\n      sload\n      swap1\n      0x0100\n      exp\n      swap1\n      div\n      0xffffffffffffffffffffffffffffffffffffffff\n      and\n        /* \"feg.sol\":25257:25278  _rOwned[_excluded[i]] */\n      0xffffffffffffffffffffffffffffffffffffffff\n      and\n      0xffffffffffffffffffffffffffffffffffffffff\n      and\n      dup2\n      mstore\n      0x20\n      add\n      swap1\n      dup2\n      mstore\n      0x20\n      add\n      0x00\n      keccak256\n      sload\n        /* \"feg.sol\":25245:25252  rSupply */\n      dup5\n        /* \"feg.sol\":25245:25256  rSupply.sub */\n      tag_110\n      swap1\n        /* \"feg.sol\":25245:25279  rSupply.sub(_rOwned[_excluded[i]]) */\n      swap2\n      swap1\n      0xffffffff\n      and\n      jump\t// in\n    tag_298:\n        /* \"feg.sol\":25235:25279  rSupply = rSupply.sub(_rOwned[_excluded[i]]) */\n      swap3\n      pop\n        /* \"feg.sol\":25303:25337  tSupply.sub(_tOwned[_excluded[i]]) */\n      tag_301\n        /* \"feg.sol\":25315:25322  _tOwned */\n      0x02\n        /* \"feg.sol\":25315:25336  _tOwned[_excluded[i]] */\n      0x00\n        /* \"feg.sol\":25323:25332  _excluded */\n      0x05\n        /* \"feg.sol\":25333:25334  i */\n      dup5\n        /* \"feg.sol\":25323:25335  _excluded[i] */\n      dup2\n      sload\n      dup2\n      lt\n      tag_302\n      jumpi\n      invalid\n    tag_302:\n      swap1\n      0x00\n      mstore\n      keccak256(0x00, 0x20)\n      add\n      0x00\n      swap1\n      sload\n      swap1\n      0x0100\n      exp\n      swap1\n      div\n      0xffffffffffffffffffffffffffffffffffffffff\n      and\n        /* \"feg.sol\":25315:25336  _tOwned[_excluded[i]] */\n      0xffffffffffffffffffffffffffffffffffffffff\n      and\n      0xffffffffffffffffffffffffffffffffffffffff\n      and\n      dup2\n      mstore\n      0x20\n      add\n      swap1\n      dup2\n      mstore\n      0x20\n      add\n      0x00\n      keccak256\n      sload\n        /* \"feg.sol\":25303:25310  tSupply */\n      dup4\n        /* \"feg.sol\":25303:25314  tSupply.sub */\n      tag_110\n      swap1\n        /* \"feg.sol\":25303:25337  tSupply.sub(_tOwned[_excluded[i]]) */\n      swap2\n      swap1\n      0xffffffff\n      and\n      jump\t// in\n    tag_301:\n        /* \"feg.sol\":25293:25337  tSupply = tSupply.sub(_tOwned[_excluded[i]]) */\n      swap2\n      pop\n        /* \"feg.sol\":25105:25108  i++ */\n      dup1\n      dup1\n      0x01\n      add\n      swap2\n      pop\n      pop\n        /* \"feg.sol\":25063:25348  for (uint256 i = 0; i < _excluded.length; i++) {... */\n      jump(tag_289)\n    tag_290:\n      pop\n        /* \"feg.sol\":25371:25391  _rTotal.div(_tTotal) */\n      tag_304\n        /* \"feg.sol\":15995:16023  100000000000 * 10**6 * 10**9 */\n      0x52b7d2dcc80cd2e4000000\n        /* \"feg.sol\":25371:25378  _rTotal */\n      sload(0x06)\n        /* \"feg.sol\":25371:25382  _rTotal.div */\n      tag_137\n      swap1\n        /* \"feg.sol\":25371:25391  _rTotal.div(_tTotal) */\n      swap2\n      swap1\n      0xffffffff\n      and\n      jump\t// in\n    tag_304:\n        /* \"feg.sol\":25361:25368  rSupply */\n      dup3\n        /* \"feg.sol\":25361:25391  rSupply < _rTotal.div(_tTotal) */\n      lt\n        /* \"feg.sol\":25357:25418  if (rSupply < _rTotal.div(_tTotal)) return (_rTotal, _tTotal) */\n      iszero\n      tag_305\n      jumpi\n        /* \"feg.sol\":25401:25408  _rTotal */\n      sload(0x06)\n        /* \"feg.sol\":15995:16023  100000000000 * 10**6 * 10**9 */\n      0x52b7d2dcc80cd2e4000000\n        /* \"feg.sol\":25393:25418  return (_rTotal, _tTotal) */\n      swap4\n      pop\n      swap4\n      pop\n      pop\n      pop\n      jump(tag_288)\n        /* \"feg.sol\":25357:25418  if (rSupply < _rTotal.div(_tTotal)) return (_rTotal, _tTotal) */\n    tag_305:\n        /* \"feg.sol\":25436:25443  rSupply */\n      dup2\n        /* \"feg.sol\":25445:25452  tSupply */\n      dup2\n        /* \"feg.sol\":25428:25453  return (rSupply, tSupply) */\n      swap4\n      pop\n      swap4\n      pop\n      pop\n      pop\n        /* \"feg.sol\":24909:25460  function _getCurrentSupply() private view returns(uint256, uint256) {... */\n    tag_288:\n      swap1\n      swap2\n      jump\t// out\n        /* \"feg.sol\":6451:6723  function div(uint256 a, uint256 b, string memory errorMessage) internal pure returns (uint256) {... */\n    tag_253:\n        /* \"feg.sol\":6537:6544  uint256 */\n      0x00\n        /* \"feg.sol\":6568:6569  0 */\n      dup1\n        /* \"feg.sol\":6564:6565  b */\n      dup4\n        /* \"feg.sol\":6564:6569  b > 0 */\n      gt\n        /* \"feg.sol\":6571:6583  errorMessage */\n      dup3\n        /* \"feg.sol\":6556:6584  require(b > 0, errorMessage) */\n      swap1\n      tag_307\n      jumpi\n      mload(0x40)\n      0x08c379a000000000000000000000000000000000000000000000000000000000\n      dup2\n      mstore\n      0x04\n      add\n      dup1\n      dup1\n      0x20\n      add\n      dup3\n      dup2\n      sub\n      dup3\n      mstore\n      dup4\n      dup2\n      dup2\n      mload\n      dup2\n      mstore\n      0x20\n      add\n      swap2\n      pop\n      dup1\n      mload\n      swap1\n      0x20\n      add\n      swap1\n      dup1\n      dup4\n      dup4\n      0x00\n    tag_308:\n      dup4\n      dup2\n      lt\n      iszero\n      tag_310\n      jumpi\n      dup1\n      dup3\n      add\n      mload\n      dup2\n      dup5\n      add\n      mstore\n      0x20\n      dup2\n      add\n      swap1\n      pop\n      jump(tag_308)\n    tag_310:\n      pop\n      pop\n      pop\n      pop\n      swap1\n      pop\n      swap1\n      dup2\n      add\n      swap1\n      0x1f\n      and\n      dup1\n      iszero\n      tag_311\n      jumpi\n      dup1\n      dup3\n      sub\n      dup1\n      mload\n      0x01\n      dup4\n      0x20\n      sub\n      0x0100\n      exp\n      sub\n      not\n      and\n      dup2\n      mstore\n      0x20\n      add\n      swap2\n      pop\n    tag_311:\n      pop\n      swap3\n      pop\n      pop\n      pop\n      mload(0x40)\n      dup1\n      swap2\n      sub\n      swap1\n      revert\n    tag_307:\n      pop\n        /* \"feg.sol\":6594:6603  uint256 c */\n      0x00\n        /* \"feg.sol\":6610:6611  b */\n      dup4\n        /* \"feg.sol\":6606:6607  a */\n      dup6\n        /* \"feg.sol\":6606:6611  a / b */\n      dup2\n      tag_312\n      jumpi\n      invalid\n    tag_312:\n      div\n        /* \"feg.sol\":6594:6611  uint256 c = a / b */\n      swap1\n      pop\n        /* \"feg.sol\":6715:6716  c */\n      dup1\n        /* \"feg.sol\":6708:6716  return c */\n      swap2\n      pop\n      pop\n        /* \"feg.sol\":6451:6723  function div(uint256 a, uint256 b, string memory errorMessage) internal pure returns (uint256) {... */\n      swap4\n      swap3\n      pop\n      pop\n      pop\n      jump\t// out\n        /* \"feg.sol\":4918:5377  function mul(uint256 a, uint256 b) internal pure returns (uint256) {... */\n    tag_257:\n        /* \"feg.sol\":4976:4983  uint256 */\n      0x00\n        /* \"feg.sol\":5222:5223  0 */\n      dup1\n        /* \"feg.sol\":5217:5218  a */\n      dup4\n        /* \"feg.sol\":5217:5223  a == 0 */\n      eq\n        /* \"feg.sol\":5213:5258  if (a == 0) {... */\n      iszero\n      tag_314\n      jumpi\n        /* \"feg.sol\":5246:5247  0 */\n      0x00\n        /* \"feg.sol\":5239:5247  return 0 */\n      swap1\n      pop\n      jump(tag_313)\n        /* \"feg.sol\":5213:5258  if (a == 0) {... */\n    tag_314:\n        /* \"feg.sol\":5268:5277  uint256 c */\n      0x00\n        /* \"feg.sol\":5284:5285  b */\n      dup3\n        /* \"feg.sol\":5280:5281  a */\n      dup5\n        /* \"feg.sol\":5280:5285  a * b */\n      mul\n        /* \"feg.sol\":5268:5285  uint256 c = a * b */\n      swap1\n      pop\n        /* \"feg.sol\":5312:5313  b */\n      dup3\n        /* \"feg.sol\":5307:5308  a */\n      dup5\n        /* \"feg.sol\":5303:5304  c */\n      dup3\n        /* \"feg.sol\":5303:5308  c / a */\n      dup2\n      tag_315\n      jumpi\n      invalid\n    tag_315:\n      div\n        /* \"feg.sol\":5303:5313  c / a == b */\n      eq\n        /* \"feg.sol\":5295:5351  require(c / a == b, \"SafeMath: multiplication overflow\") */\n      tag_316\n      jumpi\n      mload(0x40)\n      0x08c379a000000000000000000000000000000000000000000000000000000000\n      dup2\n      mstore\n      0x04\n      add\n      dup1\n      dup1\n      0x20\n      add\n      dup3\n      dup2\n      sub\n      dup3\n      mstore\n      0x21\n      dup2\n      mstore\n      0x20\n      add\n      dup1\n      data_9113bb53c2876a3805b2c9242029423fc540a728243ce887ab24c82cf119fba3\n      0x21\n      swap2\n      codecopy\n      0x40\n      add\n      swap2\n      pop\n      pop\n      mload(0x40)\n      dup1\n      swap2\n      sub\n      swap1\n      revert\n    tag_316:\n        /* \"feg.sol\":5369:5370  c */\n      dup1\n        /* \"feg.sol\":5362:5370  return c */\n      swap2\n      pop\n      pop\n        /* \"feg.sol\":4918:5377  function mul(uint256 a, uint256 b) internal pure returns (uint256) {... */\n    tag_313:\n      swap3\n      swap2\n      pop\n      pop\n      jump\t// out\n        /* \"feg.sol\":23614:23758  function _reflectFee(uint256 rFee, uint256 tFee) private {... */\n    tag_269:\n        /* \"feg.sol\":23691:23708  _rTotal.sub(rFee) */\n      tag_318\n        /* \"feg.sol\":23703:23707  rFee */\n      dup3\n        /* \"feg.sol\":23691:23698  _rTotal */\n      sload(0x06)\n        /* \"feg.sol\":23691:23702  _rTotal.sub */\n      tag_110\n      swap1\n        /* \"feg.sol\":23691:23708  _rTotal.sub(rFee) */\n      swap2\n      swap1\n      0xffffffff\n      and\n      jump\t// in\n    tag_318:\n        /* \"feg.sol\":23681:23688  _rTotal */\n      0x06\n        /* \"feg.sol\":23681:23708  _rTotal = _rTotal.sub(rFee) */\n      dup2\n      swap1\n      sstore\n      pop\n        /* \"feg.sol\":23731:23751  _tFeeTotal.add(tFee) */\n      tag_319\n        /* \"feg.sol\":23746:23750  tFee */\n      dup2\n        /* \"feg.sol\":23731:23741  _tFeeTotal */\n      sload(0x07)\n        /* \"feg.sol\":23731:23745  _tFeeTotal.add */\n      tag_113\n      swap1\n        /* \"feg.sol\":23731:23751  _tFeeTotal.add(tFee) */\n      swap2\n      swap1\n      0xffffffff\n      and\n      jump\t// in\n    tag_319:\n        /* \"feg.sol\":23718:23728  _tFeeTotal */\n      0x07\n        /* \"feg.sol\":23718:23751  _tFeeTotal = _tFeeTotal.add(tFee) */\n      dup2\n      swap1\n      sstore\n      pop\n        /* \"feg.sol\":23614:23758  function _reflectFee(uint256 rFee, uint256 tFee) private {... */\n      pop\n      pop\n      jump\t// out\n    stop\n    data_0557e210f7a69a685100a7e4e3d0a7024c546085cee28910fd17d0b081d9516f 45524332303a207472616e7366657220746f20746865207a65726f2061646472657373\n    data_22f7af55a509c3b14f0d528f087748dec8a8bf425135e3f5dc28c6a31ec6d812 416d6f756e74206d757374206265206c657373207468616e20746f74616c207265666c656374696f6e73\n    data_245f15ff17f551913a7a18385165551503906a406f905ac1c2437281a7cd0cfe 4f776e61626c653a206e6577206f776e657220697320746865207a65726f2061646472657373\n    data_24883cc5fe64ace9d0df1893501ecb93c77180f0ff69cca79affb3c316dc8029 45524332303a20617070726f766520746f20746865207a65726f2061646472657373\n    data_9113bb53c2876a3805b2c9242029423fc540a728243ce887ab24c82cf119fba3 536166654d6174683a206d756c7469706c69636174696f6e206f766572666c6f77\n    data_974d1b4421da69cc60b481194f0dad36a5bb4e23da810da7a7fb30cdba178330 45524332303a207472616e7366657220616d6f756e74206578636565647320616c6c6f77616e6365\n    data_9edb5ab58321f35d2386ea65721c9b107daa2c273610fc16d394af2a320ba785 5472616e7366657220616d6f756e74206d7573742062652067726561746572207468616e207a65726f\n    data_baecc556b46f4ed0f2b4cb599d60785ac8563dd2dc0a5bf12edea1c39e5e1fea 45524332303a207472616e736665722066726f6d20746865207a65726f2061646472657373\n    data_c953f4879035ed60e766b34720f656aab5c697b141d924c283124ecedb91c208 45524332303a20617070726f76652066726f6d20746865207a65726f2061646472657373\n    data_ecefcaf5fbcf9ca6dcdb02298ba1da96f4ead317b0a4779917ecb2e5e7dc3ac4 4578636c75646564206164647265737365732063616e6e6f742063616c6c20746869732066756e6374696f6e\n    data_f8b476f7d28209d77d4a4ac1fe36b9f8259aa1bb6bddfa6e89de7e51615cf8a8 45524332303a2064656372656173656420616c6c6f77616e63652062656c6f77207a65726f\n\n    auxdata: 0xa2646970667358221220528e337450e1dbfac67e4f0d6e939b0d2b8148e579fe6a073a1c866d773ec16964736f6c634300060c0033\n}\n",
				"bytecode": {
					"linkReferences": {},
					"object": "60806040526a52b7d2dcc80cd2e4000000600019816200001b57fe5b06600019036006556040518060400160405280600881526020017f464547746f6b656e00000000000000000000000000000000000000000000000081525060089080519060200190620000709291906200027c565b506040518060400160405280600381526020017f464547000000000000000000000000000000000000000000000000000000000081525060099080519060200190620000be9291906200027c565b506009600a60006101000a81548160ff021916908360ff160217905550348015620000e857600080fd5b506000620000fb6200027460201b60201c565b9050806000806101000a81548173ffffffffffffffffffffffffffffffffffffffff021916908373ffffffffffffffffffffffffffffffffffffffff1602179055508073ffffffffffffffffffffffffffffffffffffffff16600073ffffffffffffffffffffffffffffffffffffffff167f8be0079c531659141344cd1fd0a4f28419497f9722a3daafe3b4186f6b6457e060405160405180910390a35060065460016000620001b06200027460201b60201c565b73ffffffffffffffffffffffffffffffffffffffff1673ffffffffffffffffffffffffffffffffffffffff16815260200190815260200160002081905550620001fe6200027460201b60201c565b73ffffffffffffffffffffffffffffffffffffffff16600073ffffffffffffffffffffffffffffffffffffffff167fddf252ad1be2c89b69c2b068fc378daa952ba7f163c4a11628f55a4df523b3ef6a52b7d2dcc80cd2e40000006040518082815260200191505060405180910390a362000322565b600033905090565b828054600181600116156101000203166002900490600052602060002090601f016020900481019282601f10620002bf57805160ff1916838001178555620002f0565b82800160010185558215620002f0579182015b82811115620002ef578251825591602001919060010190620002d2565b5b509050620002ff919062000303565b5090565b5b808211156200031e57600081600090555060010162000304565b5090565b61350d80620003326000396000f3fe608060405234801561001057600080fd5b50600436106101585760003560e01c80634549b039116100c3578063a9059cbb1161007c578063a9059cbb146106ec578063cba0e99614610750578063dd62ed3e146107aa578063f2cc0c1814610822578063f2fde38b14610866578063f84354f1146108aa57610158565b80634549b0391461052157806370a082311461056f578063715018a6146105c75780638da5cb5b146105d157806395d89b4114610605578063a457c2d71461068857610158565b806318160ddd1161011557806318160ddd1461036057806323b872dd1461037e5780632d83811914610402578063313ce5671461044457806339509351146104655780633b7e6d4a146104c957610158565b8063024c2ddd1461015d578063053ab182146101d557806306fdde0314610203578063095ea7b3146102865780630cfc15f9146102ea57806313114a9d14610342575b600080fd5b6101bf6004803603604081101561017357600080fd5b81019080803573ffffffffffffffffffffffffffffffffffffffff169060200190929190803573ffffffffffffffffffffffffffffffffffffffff1690602001909291905050506108ee565b6040518082815260200191505060405180910390f35b610201600480360360208110156101eb57600080fd5b8101908080359060200190929190505050610913565b005b61020b610aa3565b6040518080602001828103825283818151815260200191508051906020019080838360005b8381101561024b578082015181840152602081019050610230565b50505050905090810190601f1680156102785780820380516001836020036101000a031916815260200191505b509250505060405180910390f35b6102d26004803603604081101561029c57600080fd5b81019080803573ffffffffffffffffffffffffffffffffffffffff16906020019092919080359060200190929190505050610b45565b60405180821515815260200191505060405180910390f35b61032c6004803603602081101561030057600080fd5b81019080803573ffffffffffffffffffffffffffffffffffffffff169060200190929190505050610b63565b6040518082815260200191505060405180910390f35b61034a610b7b565b6040518082815260200191505060405180910390f35b610368610b85565b6040518082815260200191505060405180910390f35b6103ea6004803603606081101561039457600080fd5b81019080803573ffffffffffffffffffffffffffffffffffffffff169060200190929190803573ffffffffffffffffffffffffffffffffffffffff16906020019092919080359060200190929190505050610b98565b60405180821515815260200191505060405180910390f35b61042e6004803603602081101561041857600080fd5b8101908080359060200190929190505050610c71565b6040518082815260200191505060405180910390f35b61044c610cf5565b604051808260ff16815260200191505060405180910390f35b6104b16004803603604081101561047b57600080fd5b81019080803573ffffffffffffffffffffffffffffffffffffffff16906020019092919080359060200190929190505050610d0c565b60405180821515815260200191505060405180910390f35b61050b600480360360208110156104df57600080fd5b81019080803573ffffffffffffffffffffffffffffffffffffffff169060200190929190505050610dbf565b6040518082815260200191505060405180910390f35b6105596004803603604081101561053757600080fd5b8101908080359060200190929190803515159060200190929190505050610dd7565b6040518082815260200191505060405180910390f35b6105b16004803603602081101561058557600080fd5b81019080803573ffffffffffffffffffffffffffffffffffffffff169060200190929190505050610e95565b6040518082815260200191505060405180910390f35b6105cf610f80565b005b6105d9611106565b604051808273ffffffffffffffffffffffffffffffffffffffff16815260200191505060405180910390f35b61060d61112f565b6040518080602001828103825283818151815260200191508051906020019080838360005b8381101561064d578082015181840152602081019050610632565b50505050905090810190601f16801561067a5780820380516001836020036101000a031916815260200191505b509250505060405180910390f35b6106d46004803603604081101561069e57600080fd5b81019080803573ffffffffffffffffffffffffffffffffffffffff169060200190929190803590602001909291905050506111d1565b60405180821515815260200191505060405180910390f35b6107386004803603604081101561070257600080fd5b81019080803573ffffffffffffffffffffffffffffffffffffffff1690602001909291908035906020019092919050505061129e565b60405180821515815260200191505060405180910390f35b6107926004803603602081101561076657600080fd5b81019080803573ffffffffffffffffffffffffffffffffffffffff1690602001909291905050506112bc565b60405180821515815260200191505060405180910390f35b61080c600480360360408110156107c057600080fd5b81019080803573ffffffffffffffffffffffffffffffffffffffff169060200190929190803573ffffffffffffffffffffffffffffffffffffffff169060200190929190505050611312565b6040518082815260200191505060405180910390f35b6108646004803603602081101561083857600080fd5b81019080803573ffffffffffffffffffffffffffffffffffffffff169060200190929190505050611399565b005b6108a86004803603602081101561087c57600080fd5b81019080803573ffffffffffffffffffffffffffffffffffffffff1690602001909291905050506116b3565b005b6108ec600480360360208110156108c057600080fd5b81019080803573ffffffffffffffffffffffffffffffffffffffff1690602001909291905050506118be565b005b6003602052816000526040600020602052806000526040600020600091509150505481565b600061091d611c48565b9050600460008273ffffffffffffffffffffffffffffffffffffffff1673ffffffffffffffffffffffffffffffffffffffff16815260200190815260200160002060009054906101000a900460ff16156109c2576040517f08c379a000000000000000000000000000000000000000000000000000000000815260040180806020018281038252602c815260200180613487602c913960400191505060405180910390fd5b60006109cd83611c50565b505050509050610a2581600160008573ffffffffffffffffffffffffffffffffffffffff1673ffffffffffffffffffffffffffffffffffffffff16815260200190815260200160002054611ca890919063ffffffff16565b600160008473ffffffffffffffffffffffffffffffffffffffff1673ffffffffffffffffffffffffffffffffffffffff16815260200190815260200160002081905550610a7d81600654611ca890919063ffffffff16565b600681905550610a9883600754611cf290919063ffffffff16565b600781905550505050565b606060088054600181600116156101000203166002900480601f016020809104026020016040519081016040528092919081815260200182805460018160011615610100020316600290048015610b3b5780601f10610b1057610100808354040283529160200191610b3b565b820191906000526020600020905b815481529060010190602001808311610b1e57829003601f168201915b5050505050905090565b6000610b59610b52611c48565b8484611d7a565b6001905092915050565b60016020528060005260406000206000915090505481565b6000600754905090565b60006a52b7d2dcc80cd2e4000000905090565b6000610ba5848484611f71565b610c6684610bb1611c48565b610c61856040518060600160405280602881526020016133ed60289139600360008b73ffffffffffffffffffffffffffffffffffffffff1673ffffffffffffffffffffffffffffffffffffffff1681526020019081526020016000206000610c17611c48565b73ffffffffffffffffffffffffffffffffffffffff1673ffffffffffffffffffffffffffffffffffffffff168152602001908152602001600020546123ca9092919063ffffffff16565b611d7a565b600190509392505050565b6000600654821115610cce576040517f08c379a000000000000000000000000000000000000000000000000000000000815260040180806020018281038252602a81526020018061335a602a913960400191505060405180910390fd5b6000610cd861248a565b9050610ced81846124b590919063ffffffff16565b915050919050565b6000600a60009054906101000a900460ff16905090565b6000610db5610d19611c48565b84610db08560036000610d2a611c48565b73ffffffffffffffffffffffffffffffffffffffff1673ffffffffffffffffffffffffffffffffffffffff16815260200190815260200160002060008973ffffffffffffffffffffffffffffffffffffffff1673ffffffffffffffffffffffffffffffffffffffff16815260200190815260200160002054611cf290919063ffffffff16565b611d7a565b6001905092915050565b60026020528060005260406000206000915090505481565b60006a52b7d2dcc80cd2e4000000831115610e5a576040517f08c379a000000000000000000000000000000000000000000000000000000000815260040180806020018281038252601f8152602001807f416d6f756e74206d757374206265206c657373207468616e20737570706c790081525060200191505060405180910390fd5b81610e79576000610e6a84611c50565b50505050905080915050610e8f565b6000610e8484611c50565b505050915050809150505b92915050565b6000600460008373ffffffffffffffffffffffffffffffffffffffff1673ffffffffffffffffffffffffffffffffffffffff16815260200190815260200160002060009054906101000a900460ff1615610f3057600260008373ffffffffffffffffffffffffffffffffffffffff1673ffffffffffffffffffffffffffffffffffffffff168152602001908152602001600020549050610f7b565b610f78600160008473ffffffffffffffffffffffffffffffffffffffff1673ffffffffffffffffffffffffffffffffffffffff16815260200190815260200160002054610c71565b90505b919050565b610f88611c48565b73ffffffffffffffffffffffffffffffffffffffff1660008054906101000a900473ffffffffffffffffffffffffffffffffffffffff1673ffffffffffffffffffffffffffffffffffffffff1614611048576040517f08c379a00000000000000000000000000000000000000000000000000000000081526004018080602001828103825260208152602001807f4f776e61626c653a2063616c6c6572206973206e6f7420746865206f776e657281525060200191505060405180910390fd5b600073ffffffffffffffffffffffffffffffffffffffff1660008054906101000a900473ffffffffffffffffffffffffffffffffffffffff1673ffffffffffffffffffffffffffffffffffffffff167f8be0079c531659141344cd1fd0a4f28419497f9722a3daafe3b4186f6b6457e060405160405180910390a360008060006101000a81548173ffffffffffffffffffffffffffffffffffffffff021916908373ffffffffffffffffffffffffffffffffffffffff160217905550565b60008060009054906101000a900473ffffffffffffffffffffffffffffffffffffffff16905090565b606060098054600181600116156101000203166002900480601f0160208091040260200160405190810160405280929190818152602001828054600181600116156101000203166002900480156111c75780601f1061119c576101008083540402835291602001916111c7565b820191906000526020600020905b8154815290600101906020018083116111aa57829003601f168201915b5050505050905090565b60006112946111de611c48565b8461128f856040518060600160405280602581526020016134b36025913960036000611208611c48565b73ffffffffffffffffffffffffffffffffffffffff1673ffffffffffffffffffffffffffffffffffffffff16815260200190815260200160002060008a73ffffffffffffffffffffffffffffffffffffffff1673ffffffffffffffffffffffffffffffffffffffff168152602001908152602001600020546123ca9092919063ffffffff16565b611d7a565b6001905092915050565b60006112b26112ab611c48565b8484611f71565b6001905092915050565b6000600460008373ffffffffffffffffffffffffffffffffffffffff1673ffffffffffffffffffffffffffffffffffffffff16815260200190815260200160002060009054906101000a900460ff169050919050565b6000600360008473ffffffffffffffffffffffffffffffffffffffff1673ffffffffffffffffffffffffffffffffffffffff16815260200190815260200160002060008373ffffffffffffffffffffffffffffffffffffffff1673ffffffffffffffffffffffffffffffffffffffff16815260200190815260200160002054905092915050565b6113a1611c48565b73ffffffffffffffffffffffffffffffffffffffff1660008054906101000a900473ffffffffffffffffffffffffffffffffffffffff1673ffffffffffffffffffffffffffffffffffffffff1614611461576040517f08c379a00000000000000000000000000000000000000000000000000000000081526004018080602001828103825260208152602001807f4f776e61626c653a2063616c6c6572206973206e6f7420746865206f776e657281525060200191505060405180910390fd5b600460008273ffffffffffffffffffffffffffffffffffffffff1673ffffffffffffffffffffffffffffffffffffffff16815260200190815260200160002060009054906101000a900460ff1615611521576040517f08c379a000000000000000000000000000000000000000000000000000000000815260040180806020018281038252601b8152602001807f4163636f756e7420697320616c7265616479206578636c75646564000000000081525060200191505060405180910390fd5b6000600160008373ffffffffffffffffffffffffffffffffffffffff1673ffffffffffffffffffffffffffffffffffffffff1681526020019081526020016000205411156115f5576115b1600160008373ffffffffffffffffffffffffffffffffffffffff1673ffffffffffffffffffffffffffffffffffffffff16815260200190815260200160002054610c71565b600260008373ffffffffffffffffffffffffffffffffffffffff1673ffffffffffffffffffffffffffffffffffffffff168152602001908152602001600020819055505b6001600460008373ffffffffffffffffffffffffffffffffffffffff1673ffffffffffffffffffffffffffffffffffffffff16815260200190815260200160002060006101000a81548160ff0219169083151502179055506005819080600181540180825580915050600190039060005260206000200160009091909190916101000a81548173ffffffffffffffffffffffffffffffffffffffff021916908373ffffffffffffffffffffffffffffffffffffffff16021790555050565b6116bb611c48565b73ffffffffffffffffffffffffffffffffffffffff1660008054906101000a900473ffffffffffffffffffffffffffffffffffffffff1673ffffffffffffffffffffffffffffffffffffffff161461177b576040517f08c379a00000000000000000000000000000000000000000000000000000000081526004018080602001828103825260208152602001807f4f776e61626c653a2063616c6c6572206973206e6f7420746865206f776e657281525060200191505060405180910390fd5b600073ffffffffffffffffffffffffffffffffffffffff168173ffffffffffffffffffffffffffffffffffffffff161415611801576040517f08c379a00000000000000000000000000000000000000000000000000000000081526004018080602001828103825260268152602001806133846026913960400191505060405180910390fd5b8073ffffffffffffffffffffffffffffffffffffffff1660008054906101000a900473ffffffffffffffffffffffffffffffffffffffff1673ffffffffffffffffffffffffffffffffffffffff167f8be0079c531659141344cd1fd0a4f28419497f9722a3daafe3b4186f6b6457e060405160405180910390a3806000806101000a81548173ffffffffffffffffffffffffffffffffffffffff021916908373ffffffffffffffffffffffffffffffffffffffff16021790555050565b6118c6611c48565b73ffffffffffffffffffffffffffffffffffffffff1660008054906101000a900473ffffffffffffffffffffffffffffffffffffffff1673ffffffffffffffffffffffffffffffffffffffff1614611986576040517f08c379a00000000000000000000000000000000000000000000000000000000081526004018080602001828103825260208152602001807f4f776e61626c653a2063616c6c6572206973206e6f7420746865206f776e657281525060200191505060405180910390fd5b600460008273ffffffffffffffffffffffffffffffffffffffff1673ffffffffffffffffffffffffffffffffffffffff16815260200190815260200160002060009054906101000a900460ff16611a45576040517f08c379a000000000000000000000000000000000000000000000000000000000815260040180806020018281038252601b8152602001807f4163636f756e7420697320616c7265616479206578636c75646564000000000081525060200191505060405180910390fd5b60005b600580549050811015611c44578173ffffffffffffffffffffffffffffffffffffffff1660058281548110611a7957fe5b9060005260206000200160009054906101000a900473ffffffffffffffffffffffffffffffffffffffff1673ffffffffffffffffffffffffffffffffffffffff161415611c3757600560016005805490500381548110611ad557fe5b9060005260206000200160009054906101000a900473ffffffffffffffffffffffffffffffffffffffff1660058281548110611b0d57fe5b9060005260206000200160006101000a81548173ffffffffffffffffffffffffffffffffffffffff021916908373ffffffffffffffffffffffffffffffffffffffff1602179055506000600260008473ffffffffffffffffffffffffffffffffffffffff1673ffffffffffffffffffffffffffffffffffffffff168152602001908152602001600020819055506000600460008473ffffffffffffffffffffffffffffffffffffffff1673ffffffffffffffffffffffffffffffffffffffff16815260200190815260200160002060006101000a81548160ff0219169083151502179055506005805480611bfd57fe5b6001900381819060005260206000200160006101000a81549073ffffffffffffffffffffffffffffffffffffffff02191690559055611c44565b8080600101915050611a48565b5050565b600033905090565b6000806000806000806000611c64886124ff565b915091506000611c7261248a565b90506000806000611c848c8686612551565b92509250925082828288889a509a509a509a509a5050505050505091939590929450565b6000611cea83836040518060400160405280601e81526020017f536166654d6174683a207375627472616374696f6e206f766572666c6f7700008152506123ca565b905092915050565b600080828401905083811015611d70576040517f08c379a000000000000000000000000000000000000000000000000000000000815260040180806020018281038252601b8152602001807f536166654d6174683a206164646974696f6e206f766572666c6f77000000000081525060200191505060405180910390fd5b8091505092915050565b600073ffffffffffffffffffffffffffffffffffffffff168373ffffffffffffffffffffffffffffffffffffffff161415611e00576040517f08c379a00000000000000000000000000000000000000000000000000000000081526004018080602001828103825260248152602001806134636024913960400191505060405180910390fd5b600073ffffffffffffffffffffffffffffffffffffffff168273ffffffffffffffffffffffffffffffffffffffff161415611e86576040517f08c379a00000000000000000000000000000000000000000000000000000000081526004018080602001828103825260228152602001806133aa6022913960400191505060405180910390fd5b80600360008573ffffffffffffffffffffffffffffffffffffffff1673ffffffffffffffffffffffffffffffffffffffff16815260200190815260200160002060008473ffffffffffffffffffffffffffffffffffffffff1673ffffffffffffffffffffffffffffffffffffffff168152602001908152602001600020819055508173ffffffffffffffffffffffffffffffffffffffff168373ffffffffffffffffffffffffffffffffffffffff167f8c5be1e5ebec7d5bd14f71427d1e84f3dd0314c0f7b2291e5b200ac8c7c3b925836040518082815260200191505060405180910390a3505050565b600073ffffffffffffffffffffffffffffffffffffffff168373ffffffffffffffffffffffffffffffffffffffff161415611ff7576040517f08c379a000000000000000000000000000000000000000000000000000000000815260040180806020018281038252602581526020018061343e6025913960400191505060405180910390fd5b600073ffffffffffffffffffffffffffffffffffffffff168273ffffffffffffffffffffffffffffffffffffffff16141561207d576040517f08c379a00000000000000000000000000000000000000000000000000000000081526004018080602001828103825260238152602001806133376023913960400191505060405180910390fd5b600081116120d6576040517f08c379a00000000000000000000000000000000000000000000000000000000081526004018080602001828103825260298152602001806134156029913960400191505060405180910390fd5b600460008473ffffffffffffffffffffffffffffffffffffffff1673ffffffffffffffffffffffffffffffffffffffff16815260200190815260200160002060009054906101000a900460ff1680156121795750600460008373ffffffffffffffffffffffffffffffffffffffff1673ffffffffffffffffffffffffffffffffffffffff16815260200190815260200160002060009054906101000a900460ff16155b1561218e576121898383836125af565b6123c5565b600460008473ffffffffffffffffffffffffffffffffffffffff1673ffffffffffffffffffffffffffffffffffffffff16815260200190815260200160002060009054906101000a900460ff161580156122315750600460008373ffffffffffffffffffffffffffffffffffffffff1673ffffffffffffffffffffffffffffffffffffffff16815260200190815260200160002060009054906101000a900460ff165b1561224657612241838383612802565b6123c4565b600460008473ffffffffffffffffffffffffffffffffffffffff1673ffffffffffffffffffffffffffffffffffffffff16815260200190815260200160002060009054906101000a900460ff161580156122ea5750600460008373ffffffffffffffffffffffffffffffffffffffff1673ffffffffffffffffffffffffffffffffffffffff16815260200190815260200160002060009054906101000a900460ff16155b156122ff576122fa838383612a55565b6123c3565b600460008473ffffffffffffffffffffffffffffffffffffffff1673ffffffffffffffffffffffffffffffffffffffff16815260200190815260200160002060009054906101000a900460ff1680156123a15750600460008373ffffffffffffffffffffffffffffffffffffffff1673ffffffffffffffffffffffffffffffffffffffff16815260200190815260200160002060009054906101000a900460ff165b156123b6576123b1838383612c13565b6123c2565b6123c1838383612a55565b5b5b5b5b505050565b6000838311158290612477576040517f08c379a00000000000000000000000000000000000000000000000000000000081526004018080602001828103825283818151815260200191508051906020019080838360005b8381101561243c578082015181840152602081019050612421565b50505050905090810190601f1680156124695780820380516001836020036101000a031916815260200191505b509250505060405180910390fd5b5060008385039050809150509392505050565b6000806000612497612efb565b915091506124ae81836124b590919063ffffffff16565b9250505090565b60006124f783836040518060400160405280601a81526020017f536166654d6174683a206469766973696f6e206279207a65726f0000000000008152506131b0565b905092915050565b600080600061252b600261251d6064876124b590919063ffffffff16565b61327690919063ffffffff16565b905060006125428286611ca890919063ffffffff16565b90508082935093505050915091565b60008060008061256a858861327690919063ffffffff16565b90506000612581868861327690919063ffffffff16565b905060006125988284611ca890919063ffffffff16565b905082818395509550955050505093509350939050565b60008060008060006125c086611c50565b9450945094509450945061261c86600260008b73ffffffffffffffffffffffffffffffffffffffff1673ffffffffffffffffffffffffffffffffffffffff16815260200190815260200160002054611ca890919063ffffffff16565b600260008a73ffffffffffffffffffffffffffffffffffffffff1673ffffffffffffffffffffffffffffffffffffffff168152602001908152602001600020819055506126b185600160008b73ffffffffffffffffffffffffffffffffffffffff1673ffffffffffffffffffffffffffffffffffffffff16815260200190815260200160002054611ca890919063ffffffff16565b600160008a73ffffffffffffffffffffffffffffffffffffffff1673ffffffffffffffffffffffffffffffffffffffff1681526020019081526020016000208190555061274684600160008a73ffffffffffffffffffffffffffffffffffffffff1673ffffffffffffffffffffffffffffffffffffffff16815260200190815260200160002054611cf290919063ffffffff16565b600160008973ffffffffffffffffffffffffffffffffffffffff1673ffffffffffffffffffffffffffffffffffffffff1681526020019081526020016000208190555061279383826132fc565b8673ffffffffffffffffffffffffffffffffffffffff168873ffffffffffffffffffffffffffffffffffffffff167fddf252ad1be2c89b69c2b068fc378daa952ba7f163c4a11628f55a4df523b3ef846040518082815260200191505060405180910390a35050505050505050565b600080600080600061281386611c50565b9450945094509450945061286f85600160008b73ffffffffffffffffffffffffffffffffffffffff1673ffffffffffffffffffffffffffffffffffffffff16815260200190815260200160002054611ca890919063ffffffff16565b600160008a73ffffffffffffffffffffffffffffffffffffffff1673ffffffffffffffffffffffffffffffffffffffff1681526020019081526020016000208190555061290482600260008a73ffffffffffffffffffffffffffffffffffffffff1673ffffffffffffffffffffffffffffffffffffffff16815260200190815260200160002054611cf290919063ffffffff16565b600260008973ffffffffffffffffffffffffffffffffffffffff1673ffffffffffffffffffffffffffffffffffffffff1681526020019081526020016000208190555061299984600160008a73ffffffffffffffffffffffffffffffffffffffff1673ffffffffffffffffffffffffffffffffffffffff16815260200190815260200160002054611cf290919063ffffffff16565b600160008973ffffffffffffffffffffffffffffffffffffffff1673ffffffffffffffffffffffffffffffffffffffff168152602001908152602001600020819055506129e683826132fc565b8673ffffffffffffffffffffffffffffffffffffffff168873ffffffffffffffffffffffffffffffffffffffff167fddf252ad1be2c89b69c2b068fc378daa952ba7f163c4a11628f55a4df523b3ef846040518082815260200191505060405180910390a35050505050505050565b6000806000806000612a6686611c50565b94509450945094509450612ac285600160008b73ffffffffffffffffffffffffffffffffffffffff1673ffffffffffffffffffffffffffffffffffffffff16815260200190815260200160002054611ca890919063ffffffff16565b600160008a73ffffffffffffffffffffffffffffffffffffffff1673ffffffffffffffffffffffffffffffffffffffff16815260200190815260200160002081905550612b5784600160008a73ffffffffffffffffffffffffffffffffffffffff1673ffffffffffffffffffffffffffffffffffffffff16815260200190815260200160002054611cf290919063ffffffff16565b600160008973ffffffffffffffffffffffffffffffffffffffff1673ffffffffffffffffffffffffffffffffffffffff16815260200190815260200160002081905550612ba483826132fc565b8673ffffffffffffffffffffffffffffffffffffffff168873ffffffffffffffffffffffffffffffffffffffff167fddf252ad1be2c89b69c2b068fc378daa952ba7f163c4a11628f55a4df523b3ef846040518082815260200191505060405180910390a35050505050505050565b6000806000806000612c2486611c50565b94509450945094509450612c8086600260008b73ffffffffffffffffffffffffffffffffffffffff1673ffffffffffffffffffffffffffffffffffffffff16815260200190815260200160002054611ca890919063ffffffff16565b600260008a73ffffffffffffffffffffffffffffffffffffffff1673ffffffffffffffffffffffffffffffffffffffff16815260200190815260200160002081905550612d1585600160008b73ffffffffffffffffffffffffffffffffffffffff1673ffffffffffffffffffffffffffffffffffffffff16815260200190815260200160002054611ca890919063ffffffff16565b600160008a73ffffffffffffffffffffffffffffffffffffffff1673ffffffffffffffffffffffffffffffffffffffff16815260200190815260200160002081905550612daa82600260008a73ffffffffffffffffffffffffffffffffffffffff1673ffffffffffffffffffffffffffffffffffffffff16815260200190815260200160002054611cf290919063ffffffff16565b600260008973ffffffffffffffffffffffffffffffffffffffff1673ffffffffffffffffffffffffffffffffffffffff16815260200190815260200160002081905550612e3f84600160008a73ffffffffffffffffffffffffffffffffffffffff1673ffffffffffffffffffffffffffffffffffffffff16815260200190815260200160002054611cf290919063ffffffff16565b600160008973ffffffffffffffffffffffffffffffffffffffff1673ffffffffffffffffffffffffffffffffffffffff16815260200190815260200160002081905550612e8c83826132fc565b8673ffffffffffffffffffffffffffffffffffffffff168873ffffffffffffffffffffffffffffffffffffffff167fddf252ad1be2c89b69c2b068fc378daa952ba7f163c4a11628f55a4df523b3ef846040518082815260200191505060405180910390a35050505050505050565b6000806000600654905060006a52b7d2dcc80cd2e4000000905060005b60058054905081101561316157826001600060058481548110612f3757fe5b9060005260206000200160009054906101000a900473ffffffffffffffffffffffffffffffffffffffff1673ffffffffffffffffffffffffffffffffffffffff1673ffffffffffffffffffffffffffffffffffffffff16815260200190815260200160002054118061301e5750816002600060058481548110612fb657fe5b9060005260206000200160009054906101000a900473ffffffffffffffffffffffffffffffffffffffff1673ffffffffffffffffffffffffffffffffffffffff1673ffffffffffffffffffffffffffffffffffffffff16815260200190815260200160002054115b1561303e576006546a52b7d2dcc80cd2e4000000945094505050506131ac565b6130c7600160006005848154811061305257fe5b9060005260206000200160009054906101000a900473ffffffffffffffffffffffffffffffffffffffff1673ffffffffffffffffffffffffffffffffffffffff1673ffffffffffffffffffffffffffffffffffffffff1681526020019081526020016000205484611ca890919063ffffffff16565b925061315260026000600584815481106130dd57fe5b9060005260206000200160009054906101000a900473ffffffffffffffffffffffffffffffffffffffff1673ffffffffffffffffffffffffffffffffffffffff1673ffffffffffffffffffffffffffffffffffffffff1681526020019081526020016000205483611ca890919063ffffffff16565b91508080600101915050612f18565b506131826a52b7d2dcc80cd2e40000006006546124b590919063ffffffff16565b8210156131a3576006546a52b7d2dcc80cd2e40000009350935050506131ac565b81819350935050505b9091565b6000808311829061325c576040517f08c379a00000000000000000000000000000000000000000000000000000000081526004018080602001828103825283818151815260200191508051906020019080838360005b83811015613221578082015181840152602081019050613206565b50505050905090810190601f16801561324e5780820380516001836020036101000a031916815260200191505b509250505060405180910390fd5b50600083858161326857fe5b049050809150509392505050565b60008083141561328957600090506132f6565b600082840290508284828161329a57fe5b04146132f1576040517f08c379a00000000000000000000000000000000000000000000000000000000081526004018080602001828103825260218152602001806133cc6021913960400191505060405180910390fd5b809150505b92915050565b61331182600654611ca890919063ffffffff16565b60068190555061332c81600754611cf290919063ffffffff16565b600781905550505056fe45524332303a207472616e7366657220746f20746865207a65726f2061646472657373416d6f756e74206d757374206265206c657373207468616e20746f74616c207265666c656374696f6e734f776e61626c653a206e6577206f776e657220697320746865207a65726f206164647265737345524332303a20617070726f766520746f20746865207a65726f2061646472657373536166654d6174683a206d756c7469706c69636174696f6e206f766572666c6f7745524332303a207472616e7366657220616d6f756e74206578636565647320616c6c6f77616e63655472616e7366657220616d6f756e74206d7573742062652067726561746572207468616e207a65726f45524332303a207472616e736665722066726f6d20746865207a65726f206164647265737345524332303a20617070726f76652066726f6d20746865207a65726f20616464726573734578636c75646564206164647265737365732063616e6e6f742063616c6c20746869732066756e6374696f6e45524332303a2064656372656173656420616c6c6f77616e63652062656c6f77207a65726fa2646970667358221220528e337450e1dbfac67e4f0d6e939b0d2b8148e579fe6a073a1c866d773ec16964736f6c634300060c0033",
					"opcodes": "PUSH1 0x80 PUSH1 0x40 MSTORE PUSH11 0x52B7D2DCC80CD2E4000000 PUSH1 0x0 NOT DUP2 PUSH3 0x1B JUMPI INVALID JUMPDEST MOD PUSH1 0x0 NOT SUB PUSH1 0x6 SSTORE PUSH1 0x40 MLOAD DUP1 PUSH1 0x40 ADD PUSH1 0x40 MSTORE DUP1 PUSH1 0x8 DUP2 MSTORE PUSH1 0x20 ADD PUSH32 0x464547746F6B656E000000000000000000000000000000000000000000000000 DUP2 MSTORE POP PUSH1 0x8 SWAP1 DUP1 MLOAD SWAP1 PUSH1 0x20 ADD SWAP1 PUSH3 0x70 SWAP3 SWAP2 SWAP1 PUSH3 0x27C JUMP JUMPDEST POP PUSH1 0x40 MLOAD DUP1 PUSH1 0x40 ADD PUSH1 0x40 MSTORE DUP1 PUSH1 0x3 DUP2 MSTORE PUSH1 0x20 ADD PUSH32 0x4645470000000000000000000000000000000000000000000000000000000000 DUP2 MSTORE POP PUSH1 0x9 SWAP1 DUP1 MLOAD SWAP1 PUSH1 0x20 ADD SWAP1 PUSH3 0xBE SWAP3 SWAP2 SWAP1 PUSH3 0x27C JUMP JUMPDEST POP PUSH1 0x9 PUSH1 0xA PUSH1 0x0 PUSH2 0x100 EXP DUP2 SLOAD DUP2 PUSH1 0xFF MUL NOT AND SWAP1 DUP4 PUSH1 0xFF AND MUL OR SWAP1 SSTORE POP CALLVALUE DUP1 ISZERO PUSH3 0xE8 JUMPI PUSH1 0x0 DUP1 REVERT JUMPDEST POP PUSH1 0x0 PUSH3 0xFB PUSH3 0x274 PUSH1 0x20 SHL PUSH1 0x20 SHR JUMP JUMPDEST SWAP1 POP DUP1 PUSH1 0x0 DUP1 PUSH2 0x100 EXP DUP2 SLOAD DUP2 PUSH20 0xFFFFFFFFFFFFFFFFFFFFFFFFFFFFFFFFFFFFFFFF MUL NOT AND SWAP1 DUP4 PUSH20 0xFFFFFFFFFFFFFFFFFFFFFFFFFFFFFFFFFFFFFFFF AND MUL OR SWAP1 SSTORE POP DUP1 PUSH20 0xFFFFFFFFFFFFFFFFFFFFFFFFFFFFFFFFFFFFFFFF AND PUSH1 0x0 PUSH20 0xFFFFFFFFFFFFFFFFFFFFFFFFFFFFFFFFFFFFFFFF AND PUSH32 0x8BE0079C531659141344CD1FD0A4F28419497F9722A3DAAFE3B4186F6B6457E0 PUSH1 0x40 MLOAD PUSH1 0x40 MLOAD DUP1 SWAP2 SUB SWAP1 LOG3 POP PUSH1 0x6 SLOAD PUSH1 0x1 PUSH1 0x0 PUSH3 0x1B0 PUSH3 0x274 PUSH1 0x20 SHL PUSH1 0x20 SHR JUMP JUMPDEST PUSH20 0xFFFFFFFFFFFFFFFFFFFFFFFFFFFFFFFFFFFFFFFF AND PUSH20 0xFFFFFFFFFFFFFFFFFFFFFFFFFFFFFFFFFFFFFFFF AND DUP2 MSTORE PUSH1 0x20 ADD SWAP1 DUP2 MSTORE PUSH1 0x20 ADD PUSH1 0x0 KECCAK256 DUP2 SWAP1 SSTORE POP PUSH3 0x1FE PUSH3 0x274 PUSH1 0x20 SHL PUSH1 0x20 SHR JUMP JUMPDEST PUSH20 0xFFFFFFFFFFFFFFFFFFFFFFFFFFFFFFFFFFFFFFFF AND PUSH1 0x0 PUSH20 0xFFFFFFFFFFFFFFFFFFFFFFFFFFFFFFFFFFFFFFFF AND PUSH32 0xDDF252AD1BE2C89B69C2B068FC378DAA952BA7F163C4A11628F55A4DF523B3EF PUSH11 0x52B7D2DCC80CD2E4000000 PUSH1 0x40 MLOAD DUP1 DUP3 DUP2 MSTORE PUSH1 0x20 ADD SWAP2 POP POP PUSH1 0x40 MLOAD DUP1 SWAP2 SUB SWAP1 LOG3 PUSH3 0x322 JUMP JUMPDEST PUSH1 0x0 CALLER SWAP1 POP SWAP1 JUMP JUMPDEST DUP3 DUP1 SLOAD PUSH1 0x1 DUP2 PUSH1 0x1 AND ISZERO PUSH2 0x100 MUL SUB AND PUSH1 0x2 SWAP1 DIV SWAP1 PUSH1 0x0 MSTORE PUSH1 0x20 PUSH1 0x0 KECCAK256 SWAP1 PUSH1 0x1F ADD PUSH1 0x20 SWAP1 DIV DUP2 ADD SWAP3 DUP3 PUSH1 0x1F LT PUSH3 0x2BF JUMPI DUP1 MLOAD PUSH1 0xFF NOT AND DUP4 DUP1 ADD OR DUP6 SSTORE PUSH3 0x2F0 JUMP JUMPDEST DUP3 DUP1 ADD PUSH1 0x1 ADD DUP6 SSTORE DUP3 ISZERO PUSH3 0x2F0 JUMPI SWAP2 DUP3 ADD JUMPDEST DUP3 DUP2 GT ISZERO PUSH3 0x2EF JUMPI DUP3 MLOAD DUP3 SSTORE SWAP2 PUSH1 0x20 ADD SWAP2 SWAP1 PUSH1 0x1 ADD SWAP1 PUSH3 0x2D2 JUMP JUMPDEST JUMPDEST POP SWAP1 POP PUSH3 0x2FF SWAP2 SWAP1 PUSH3 0x303 JUMP JUMPDEST POP SWAP1 JUMP JUMPDEST JUMPDEST DUP1 DUP3 GT ISZERO PUSH3 0x31E JUMPI PUSH1 0x0 DUP2 PUSH1 0x0 SWAP1 SSTORE POP PUSH1 0x1 ADD PUSH3 0x304 JUMP JUMPDEST POP SWAP1 JUMP JUMPDEST PUSH2 0x350D DUP1 PUSH3 0x332 PUSH1 0x0 CODECOPY PUSH1 0x0 RETURN INVALID PUSH1 0x80 PUSH1 0x40 MSTORE CALLVALUE DUP1 ISZERO PUSH2 0x10 JUMPI PUSH1 0x0 DUP1 REVERT JUMPDEST POP PUSH1 0x4 CALLDATASIZE LT PUSH2 0x158 JUMPI PUSH1 0x0 CALLDATALOAD PUSH1 0xE0 SHR DUP1 PUSH4 0x4549B039 GT PUSH2 0xC3 JUMPI DUP1 PUSH4 0xA9059CBB GT PUSH2 0x7C JUMPI DUP1 PUSH4 0xA9059CBB EQ PUSH2 0x6EC JUMPI DUP1 PUSH4 0xCBA0E996 EQ PUSH2 0x750 JUMPI DUP1 PUSH4 0xDD62ED3E EQ PUSH2 0x7AA JUMPI DUP1 PUSH4 0xF2CC0C18 EQ PUSH2 0x822 JUMPI DUP1 PUSH4 0xF2FDE38B EQ PUSH2 0x866 JUMPI DUP1 PUSH4 0xF84354F1 EQ PUSH2 0x8AA JUMPI PUSH2 0x158 JUMP JUMPDEST DUP1 PUSH4 0x4549B039 EQ PUSH2 0x521 JUMPI DUP1 PUSH4 0x70A08231 EQ PUSH2 0x56F JUMPI DUP1 PUSH4 0x715018A6 EQ PUSH2 0x5C7 JUMPI DUP1 PUSH4 0x8DA5CB5B EQ PUSH2 0x5D1 JUMPI DUP1 PUSH4 0x95D89B41 EQ PUSH2 0x605 JUMPI DUP1 PUSH4 0xA457C2D7 EQ PUSH2 0x688 JUMPI PUSH2 0x158 JUMP JUMPDEST DUP1 PUSH4 0x18160DDD GT PUSH2 0x115 JUMPI DUP1 PUSH4 0x18160DDD EQ PUSH2 0x360 JUMPI DUP1 PUSH4 0x23B872DD EQ PUSH2 0x37E JUMPI DUP1 PUSH4 0x2D838119 EQ PUSH2 0x402 JUMPI DUP1 PUSH4 0x313CE567 EQ PUSH2 0x444 JUMPI DUP1 PUSH4 0x39509351 EQ PUSH2 0x465 JUMPI DUP1 PUSH4 0x3B7E6D4A EQ PUSH2 0x4C9 JUMPI PUSH2 0x158 JUMP JUMPDEST DUP1 PUSH4 0x24C2DDD EQ PUSH2 0x15D JUMPI DUP1 PUSH4 0x53AB182 EQ PUSH2 0x1D5 JUMPI DUP1 PUSH4 0x6FDDE03 EQ PUSH2 0x203 JUMPI DUP1 PUSH4 0x95EA7B3 EQ PUSH2 0x286 JUMPI DUP1 PUSH4 0xCFC15F9 EQ PUSH2 0x2EA JUMPI DUP1 PUSH4 0x13114A9D EQ PUSH2 0x342 JUMPI JUMPDEST PUSH1 0x0 DUP1 REVERT JUMPDEST PUSH2 0x1BF PUSH1 0x4 DUP1 CALLDATASIZE SUB PUSH1 0x40 DUP2 LT ISZERO PUSH2 0x173 JUMPI PUSH1 0x0 DUP1 REVERT JUMPDEST DUP2 ADD SWAP1 DUP1 DUP1 CALLDATALOAD PUSH20 0xFFFFFFFFFFFFFFFFFFFFFFFFFFFFFFFFFFFFFFFF AND SWAP1 PUSH1 0x20 ADD SWAP1 SWAP3 SWAP2 SWAP1 DUP1 CALLDATALOAD PUSH20 0xFFFFFFFFFFFFFFFFFFFFFFFFFFFFFFFFFFFFFFFF AND SWAP1 PUSH1 0x20 ADD SWAP1 SWAP3 SWAP2 SWAP1 POP POP POP PUSH2 0x8EE JUMP JUMPDEST PUSH1 0x40 MLOAD DUP1 DUP3 DUP2 MSTORE PUSH1 0x20 ADD SWAP2 POP POP PUSH1 0x40 MLOAD DUP1 SWAP2 SUB SWAP1 RETURN JUMPDEST PUSH2 0x201 PUSH1 0x4 DUP1 CALLDATASIZE SUB PUSH1 0x20 DUP2 LT ISZERO PUSH2 0x1EB JUMPI PUSH1 0x0 DUP1 REVERT JUMPDEST DUP2 ADD SWAP1 DUP1 DUP1 CALLDATALOAD SWAP1 PUSH1 0x20 ADD SWAP1 SWAP3 SWAP2 SWAP1 POP POP POP PUSH2 0x913 JUMP JUMPDEST STOP JUMPDEST PUSH2 0x20B PUSH2 0xAA3 JUMP JUMPDEST PUSH1 0x40 MLOAD DUP1 DUP1 PUSH1 0x20 ADD DUP3 DUP2 SUB DUP3 MSTORE DUP4 DUP2 DUP2 MLOAD DUP2 MSTORE PUSH1 0x20 ADD SWAP2 POP DUP1 MLOAD SWAP1 PUSH1 0x20 ADD SWAP1 DUP1 DUP4 DUP4 PUSH1 0x0 JUMPDEST DUP4 DUP2 LT ISZERO PUSH2 0x24B JUMPI DUP1 DUP3 ADD MLOAD DUP2 DUP5 ADD MSTORE PUSH1 0x20 DUP2 ADD SWAP1 POP PUSH2 0x230 JUMP JUMPDEST POP POP POP POP SWAP1 POP SWAP1 DUP2 ADD SWAP1 PUSH1 0x1F AND DUP1 ISZERO PUSH2 0x278 JUMPI DUP1 DUP3 SUB DUP1 MLOAD PUSH1 0x1 DUP4 PUSH1 0x20 SUB PUSH2 0x100 EXP SUB NOT AND DUP2 MSTORE PUSH1 0x20 ADD SWAP2 POP JUMPDEST POP SWAP3 POP POP POP PUSH1 0x40 MLOAD DUP1 SWAP2 SUB SWAP1 RETURN JUMPDEST PUSH2 0x2D2 PUSH1 0x4 DUP1 CALLDATASIZE SUB PUSH1 0x40 DUP2 LT ISZERO PUSH2 0x29C JUMPI PUSH1 0x0 DUP1 REVERT JUMPDEST DUP2 ADD SWAP1 DUP1 DUP1 CALLDATALOAD PUSH20 0xFFFFFFFFFFFFFFFFFFFFFFFFFFFFFFFFFFFFFFFF AND SWAP1 PUSH1 0x20 ADD SWAP1 SWAP3 SWAP2 SWAP1 DUP1 CALLDATALOAD SWAP1 PUSH1 0x20 ADD SWAP1 SWAP3 SWAP2 SWAP1 POP POP POP PUSH2 0xB45 JUMP JUMPDEST PUSH1 0x40 MLOAD DUP1 DUP3 ISZERO ISZERO DUP2 MSTORE PUSH1 0x20 ADD SWAP2 POP POP PUSH1 0x40 MLOAD DUP1 SWAP2 SUB SWAP1 RETURN JUMPDEST PUSH2 0x32C PUSH1 0x4 DUP1 CALLDATASIZE SUB PUSH1 0x20 DUP2 LT ISZERO PUSH2 0x300 JUMPI PUSH1 0x0 DUP1 REVERT JUMPDEST DUP2 ADD SWAP1 DUP1 DUP1 CALLDATALOAD PUSH20 0xFFFFFFFFFFFFFFFFFFFFFFFFFFFFFFFFFFFFFFFF AND SWAP1 PUSH1 0x20 ADD SWAP1 SWAP3 SWAP2 SWAP1 POP POP POP PUSH2 0xB63 JUMP JUMPDEST PUSH1 0x40 MLOAD DUP1 DUP3 DUP2 MSTORE PUSH1 0x20 ADD SWAP2 POP POP PUSH1 0x40 MLOAD DUP1 SWAP2 SUB SWAP1 RETURN JUMPDEST PUSH2 0x34A PUSH2 0xB7B JUMP JUMPDEST PUSH1 0x40 MLOAD DUP1 DUP3 DUP2 MSTORE PUSH1 0x20 ADD SWAP2 POP POP PUSH1 0x40 MLOAD DUP1 SWAP2 SUB SWAP1 RETURN JUMPDEST PUSH2 0x368 PUSH2 0xB85 JUMP JUMPDEST PUSH1 0x40 MLOAD DUP1 DUP3 DUP2 MSTORE PUSH1 0x20 ADD SWAP2 POP POP PUSH1 0x40 MLOAD DUP1 SWAP2 SUB SWAP1 RETURN JUMPDEST PUSH2 0x3EA PUSH1 0x4 DUP1 CALLDATASIZE SUB PUSH1 0x60 DUP2 LT ISZERO PUSH2 0x394 JUMPI PUSH1 0x0 DUP1 REVERT JUMPDEST DUP2 ADD SWAP1 DUP1 DUP1 CALLDATALOAD PUSH20 0xFFFFFFFFFFFFFFFFFFFFFFFFFFFFFFFFFFFFFFFF AND SWAP1 PUSH1 0x20 ADD SWAP1 SWAP3 SWAP2 SWAP1 DUP1 CALLDATALOAD PUSH20 0xFFFFFFFFFFFFFFFFFFFFFFFFFFFFFFFFFFFFFFFF AND SWAP1 PUSH1 0x20 ADD SWAP1 SWAP3 SWAP2 SWAP1 DUP1 CALLDATALOAD SWAP1 PUSH1 0x20 ADD SWAP1 SWAP3 SWAP2 SWAP1 POP POP POP PUSH2 0xB98 JUMP JUMPDEST PUSH1 0x40 MLOAD DUP1 DUP3 ISZERO ISZERO DUP2 MSTORE PUSH1 0x20 ADD SWAP2 POP POP PUSH1 0x40 MLOAD DUP1 SWAP2 SUB SWAP1 RETURN JUMPDEST PUSH2 0x42E PUSH1 0x4 DUP1 CALLDATASIZE SUB PUSH1 0x20 DUP2 LT ISZERO PUSH2 0x418 JUMPI PUSH1 0x0 DUP1 REVERT JUMPDEST DUP2 ADD SWAP1 DUP1 DUP1 CALLDATALOAD SWAP1 PUSH1 0x20 ADD SWAP1 SWAP3 SWAP2 SWAP1 POP POP POP PUSH2 0xC71 JUMP JUMPDEST PUSH1 0x40 MLOAD DUP1 DUP3 DUP2 MSTORE PUSH1 0x20 ADD SWAP2 POP POP PUSH1 0x40 MLOAD DUP1 SWAP2 SUB SWAP1 RETURN JUMPDEST PUSH2 0x44C PUSH2 0xCF5 JUMP JUMPDEST PUSH1 0x40 MLOAD DUP1 DUP3 PUSH1 0xFF AND DUP2 MSTORE PUSH1 0x20 ADD SWAP2 POP POP PUSH1 0x40 MLOAD DUP1 SWAP2 SUB SWAP1 RETURN JUMPDEST PUSH2 0x4B1 PUSH1 0x4 DUP1 CALLDATASIZE SUB PUSH1 0x40 DUP2 LT ISZERO PUSH2 0x47B JUMPI PUSH1 0x0 DUP1 REVERT JUMPDEST DUP2 ADD SWAP1 DUP1 DUP1 CALLDATALOAD PUSH20 0xFFFFFFFFFFFFFFFFFFFFFFFFFFFFFFFFFFFFFFFF AND SWAP1 PUSH1 0x20 ADD SWAP1 SWAP3 SWAP2 SWAP1 DUP1 CALLDATALOAD SWAP1 PUSH1 0x20 ADD SWAP1 SWAP3 SWAP2 SWAP1 POP POP POP PUSH2 0xD0C JUMP JUMPDEST PUSH1 0x40 MLOAD DUP1 DUP3 ISZERO ISZERO DUP2 MSTORE PUSH1 0x20 ADD SWAP2 POP POP PUSH1 0x40 MLOAD DUP1 SWAP2 SUB SWAP1 RETURN JUMPDEST PUSH2 0x50B PUSH1 0x4 DUP1 CALLDATASIZE SUB PUSH1 0x20 DUP2 LT ISZERO PUSH2 0x4DF JUMPI PUSH1 0x0 DUP1 REVERT JUMPDEST DUP2 ADD SWAP1 DUP1 DUP1 CALLDATALOAD PUSH20 0xFFFFFFFFFFFFFFFFFFFFFFFFFFFFFFFFFFFFFFFF AND SWAP1 PUSH1 0x20 ADD SWAP1 SWAP3 SWAP2 SWAP1 POP POP POP PUSH2 0xDBF JUMP JUMPDEST PUSH1 0x40 MLOAD DUP1 DUP3 DUP2 MSTORE PUSH1 0x20 ADD SWAP2 POP POP PUSH1 0x40 MLOAD DUP1 SWAP2 SUB SWAP1 RETURN JUMPDEST PUSH2 0x559 PUSH1 0x4 DUP1 CALLDATASIZE SUB PUSH1 0x40 DUP2 LT ISZERO PUSH2 0x537 JUMPI PUSH1 0x0 DUP1 REVERT JUMPDEST DUP2 ADD SWAP1 DUP1 DUP1 CALLDATALOAD SWAP1 PUSH1 0x20 ADD SWAP1 SWAP3 SWAP2 SWAP1 DUP1 CALLDATALOAD ISZERO ISZERO SWAP1 PUSH1 0x20 ADD SWAP1 SWAP3 SWAP2 SWAP1 POP POP POP PUSH2 0xDD7 JUMP JUMPDEST PUSH1 0x40 MLOAD DUP1 DUP3 DUP2 MSTORE PUSH1 0x20 ADD SWAP2 POP POP PUSH1 0x40 MLOAD DUP1 SWAP2 SUB SWAP1 RETURN JUMPDEST PUSH2 0x5B1 PUSH1 0x4 DUP1 CALLDATASIZE SUB PUSH1 0x20 DUP2 LT ISZERO PUSH2 0x585 JUMPI PUSH1 0x0 DUP1 REVERT JUMPDEST DUP2 ADD SWAP1 DUP1 DUP1 CALLDATALOAD PUSH20 0xFFFFFFFFFFFFFFFFFFFFFFFFFFFFFFFFFFFFFFFF AND SWAP1 PUSH1 0x20 ADD SWAP1 SWAP3 SWAP2 SWAP1 POP POP POP PUSH2 0xE95 JUMP JUMPDEST PUSH1 0x40 MLOAD DUP1 DUP3 DUP2 MSTORE PUSH1 0x20 ADD SWAP2 POP POP PUSH1 0x40 MLOAD DUP1 SWAP2 SUB SWAP1 RETURN JUMPDEST PUSH2 0x5CF PUSH2 0xF80 JUMP JUMPDEST STOP JUMPDEST PUSH2 0x5D9 PUSH2 0x1106 JUMP JUMPDEST PUSH1 0x40 MLOAD DUP1 DUP3 PUSH20 0xFFFFFFFFFFFFFFFFFFFFFFFFFFFFFFFFFFFFFFFF AND DUP2 MSTORE PUSH1 0x20 ADD SWAP2 POP POP PUSH1 0x40 MLOAD DUP1 SWAP2 SUB SWAP1 RETURN JUMPDEST PUSH2 0x60D PUSH2 0x112F JUMP JUMPDEST PUSH1 0x40 MLOAD DUP1 DUP1 PUSH1 0x20 ADD DUP3 DUP2 SUB DUP3 MSTORE DUP4 DUP2 DUP2 MLOAD DUP2 MSTORE PUSH1 0x20 ADD SWAP2 POP DUP1 MLOAD SWAP1 PUSH1 0x20 ADD SWAP1 DUP1 DUP4 DUP4 PUSH1 0x0 JUMPDEST DUP4 DUP2 LT ISZERO PUSH2 0x64D JUMPI DUP1 DUP3 ADD MLOAD DUP2 DUP5 ADD MSTORE PUSH1 0x20 DUP2 ADD SWAP1 POP PUSH2 0x632 JUMP JUMPDEST POP POP POP POP SWAP1 POP SWAP1 DUP2 ADD SWAP1 PUSH1 0x1F AND DUP1 ISZERO PUSH2 0x67A JUMPI DUP1 DUP3 SUB DUP1 MLOAD PUSH1 0x1 DUP4 PUSH1 0x20 SUB PUSH2 0x100 EXP SUB NOT AND DUP2 MSTORE PUSH1 0x20 ADD SWAP2 POP JUMPDEST POP SWAP3 POP POP POP PUSH1 0x40 MLOAD DUP1 SWAP2 SUB SWAP1 RETURN JUMPDEST PUSH2 0x6D4 PUSH1 0x4 DUP1 CALLDATASIZE SUB PUSH1 0x40 DUP2 LT ISZERO PUSH2 0x69E JUMPI PUSH1 0x0 DUP1 REVERT JUMPDEST DUP2 ADD SWAP1 DUP1 DUP1 CALLDATALOAD PUSH20 0xFFFFFFFFFFFFFFFFFFFFFFFFFFFFFFFFFFFFFFFF AND SWAP1 PUSH1 0x20 ADD SWAP1 SWAP3 SWAP2 SWAP1 DUP1 CALLDATALOAD SWAP1 PUSH1 0x20 ADD SWAP1 SWAP3 SWAP2 SWAP1 POP POP POP PUSH2 0x11D1 JUMP JUMPDEST PUSH1 0x40 MLOAD DUP1 DUP3 ISZERO ISZERO DUP2 MSTORE PUSH1 0x20 ADD SWAP2 POP POP PUSH1 0x40 MLOAD DUP1 SWAP2 SUB SWAP1 RETURN JUMPDEST PUSH2 0x738 PUSH1 0x4 DUP1 CALLDATASIZE SUB PUSH1 0x40 DUP2 LT ISZERO PUSH2 0x702 JUMPI PUSH1 0x0 DUP1 REVERT JUMPDEST DUP2 ADD SWAP1 DUP1 DUP1 CALLDATALOAD PUSH20 0xFFFFFFFFFFFFFFFFFFFFFFFFFFFFFFFFFFFFFFFF AND SWAP1 PUSH1 0x20 ADD SWAP1 SWAP3 SWAP2 SWAP1 DUP1 CALLDATALOAD SWAP1 PUSH1 0x20 ADD SWAP1 SWAP3 SWAP2 SWAP1 POP POP POP PUSH2 0x129E JUMP JUMPDEST PUSH1 0x40 MLOAD DUP1 DUP3 ISZERO ISZERO DUP2 MSTORE PUSH1 0x20 ADD SWAP2 POP POP PUSH1 0x40 MLOAD DUP1 SWAP2 SUB SWAP1 RETURN JUMPDEST PUSH2 0x792 PUSH1 0x4 DUP1 CALLDATASIZE SUB PUSH1 0x20 DUP2 LT ISZERO PUSH2 0x766 JUMPI PUSH1 0x0 DUP1 REVERT JUMPDEST DUP2 ADD SWAP1 DUP1 DUP1 CALLDATALOAD PUSH20 0xFFFFFFFFFFFFFFFFFFFFFFFFFFFFFFFFFFFFFFFF AND SWAP1 PUSH1 0x20 ADD SWAP1 SWAP3 SWAP2 SWAP1 POP POP POP PUSH2 0x12BC JUMP JUMPDEST PUSH1 0x40 MLOAD DUP1 DUP3 ISZERO ISZERO DUP2 MSTORE PUSH1 0x20 ADD SWAP2 POP POP PUSH1 0x40 MLOAD DUP1 SWAP2 SUB SWAP1 RETURN JUMPDEST PUSH2 0x80C PUSH1 0x4 DUP1 CALLDATASIZE SUB PUSH1 0x40 DUP2 LT ISZERO PUSH2 0x7C0 JUMPI PUSH1 0x0 DUP1 REVERT JUMPDEST DUP2 ADD SWAP1 DUP1 DUP1 CALLDATALOAD PUSH20 0xFFFFFFFFFFFFFFFFFFFFFFFFFFFFFFFFFFFFFFFF AND SWAP1 PUSH1 0x20 ADD SWAP1 SWAP3 SWAP2 SWAP1 DUP1 CALLDATALOAD PUSH20 0xFFFFFFFFFFFFFFFFFFFFFFFFFFFFFFFFFFFFFFFF AND SWAP1 PUSH1 0x20 ADD SWAP1 SWAP3 SWAP2 SWAP1 POP POP POP PUSH2 0x1312 JUMP JUMPDEST PUSH1 0x40 MLOAD DUP1 DUP3 DUP2 MSTORE PUSH1 0x20 ADD SWAP2 POP POP PUSH1 0x40 MLOAD DUP1 SWAP2 SUB SWAP1 RETURN JUMPDEST PUSH2 0x864 PUSH1 0x4 DUP1 CALLDATASIZE SUB PUSH1 0x20 DUP2 LT ISZERO PUSH2 0x838 JUMPI PUSH1 0x0 DUP1 REVERT JUMPDEST DUP2 ADD SWAP1 DUP1 DUP1 CALLDATALOAD PUSH20 0xFFFFFFFFFFFFFFFFFFFFFFFFFFFFFFFFFFFFFFFF AND SWAP1 PUSH1 0x20 ADD SWAP1 SWAP3 SWAP2 SWAP1 POP POP POP PUSH2 0x1399 JUMP JUMPDEST STOP JUMPDEST PUSH2 0x8A8 PUSH1 0x4 DUP1 CALLDATASIZE SUB PUSH1 0x20 DUP2 LT ISZERO PUSH2 0x87C JUMPI PUSH1 0x0 DUP1 REVERT JUMPDEST DUP2 ADD SWAP1 DUP1 DUP1 CALLDATALOAD PUSH20 0xFFFFFFFFFFFFFFFFFFFFFFFFFFFFFFFFFFFFFFFF AND SWAP1 PUSH1 0x20 ADD SWAP1 SWAP3 SWAP2 SWAP1 POP POP POP PUSH2 0x16B3 JUMP JUMPDEST STOP JUMPDEST PUSH2 0x8EC PUSH1 0x4 DUP1 CALLDATASIZE SUB PUSH1 0x20 DUP2 LT ISZERO PUSH2 0x8C0 JUMPI PUSH1 0x0 DUP1 REVERT JUMPDEST DUP2 ADD SWAP1 DUP1 DUP1 CALLDATALOAD PUSH20 0xFFFFFFFFFFFFFFFFFFFFFFFFFFFFFFFFFFFFFFFF AND SWAP1 PUSH1 0x20 ADD SWAP1 SWAP3 SWAP2 SWAP1 POP POP POP PUSH2 0x18BE JUMP JUMPDEST STOP JUMPDEST PUSH1 0x3 PUSH1 0x20 MSTORE DUP2 PUSH1 0x0 MSTORE PUSH1 0x40 PUSH1 0x0 KECCAK256 PUSH1 0x20 MSTORE DUP1 PUSH1 0x0 MSTORE PUSH1 0x40 PUSH1 0x0 KECCAK256 PUSH1 0x0 SWAP2 POP SWAP2 POP POP SLOAD DUP2 JUMP JUMPDEST PUSH1 0x0 PUSH2 0x91D PUSH2 0x1C48 JUMP JUMPDEST SWAP1 POP PUSH1 0x4 PUSH1 0x0 DUP3 PUSH20 0xFFFFFFFFFFFFFFFFFFFFFFFFFFFFFFFFFFFFFFFF AND PUSH20 0xFFFFFFFFFFFFFFFFFFFFFFFFFFFFFFFFFFFFFFFF AND DUP2 MSTORE PUSH1 0x20 ADD SWAP1 DUP2 MSTORE PUSH1 0x20 ADD PUSH1 0x0 KECCAK256 PUSH1 0x0 SWAP1 SLOAD SWAP1 PUSH2 0x100 EXP SWAP1 DIV PUSH1 0xFF AND ISZERO PUSH2 0x9C2 JUMPI PUSH1 0x40 MLOAD PUSH32 0x8C379A000000000000000000000000000000000000000000000000000000000 DUP2 MSTORE PUSH1 0x4 ADD DUP1 DUP1 PUSH1 0x20 ADD DUP3 DUP2 SUB DUP3 MSTORE PUSH1 0x2C DUP2 MSTORE PUSH1 0x20 ADD DUP1 PUSH2 0x3487 PUSH1 0x2C SWAP2 CODECOPY PUSH1 0x40 ADD SWAP2 POP POP PUSH1 0x40 MLOAD DUP1 SWAP2 SUB SWAP1 REVERT JUMPDEST PUSH1 0x0 PUSH2 0x9CD DUP4 PUSH2 0x1C50 JUMP JUMPDEST POP POP POP POP SWAP1 POP PUSH2 0xA25 DUP2 PUSH1 0x1 PUSH1 0x0 DUP6 PUSH20 0xFFFFFFFFFFFFFFFFFFFFFFFFFFFFFFFFFFFFFFFF AND PUSH20 0xFFFFFFFFFFFFFFFFFFFFFFFFFFFFFFFFFFFFFFFF AND DUP2 MSTORE PUSH1 0x20 ADD SWAP1 DUP2 MSTORE PUSH1 0x20 ADD PUSH1 0x0 KECCAK256 SLOAD PUSH2 0x1CA8 SWAP1 SWAP2 SWAP1 PUSH4 0xFFFFFFFF AND JUMP JUMPDEST PUSH1 0x1 PUSH1 0x0 DUP5 PUSH20 0xFFFFFFFFFFFFFFFFFFFFFFFFFFFFFFFFFFFFFFFF AND PUSH20 0xFFFFFFFFFFFFFFFFFFFFFFFFFFFFFFFFFFFFFFFF AND DUP2 MSTORE PUSH1 0x20 ADD SWAP1 DUP2 MSTORE PUSH1 0x20 ADD PUSH1 0x0 KECCAK256 DUP2 SWAP1 SSTORE POP PUSH2 0xA7D DUP2 PUSH1 0x6 SLOAD PUSH2 0x1CA8 SWAP1 SWAP2 SWAP1 PUSH4 0xFFFFFFFF AND JUMP JUMPDEST PUSH1 0x6 DUP2 SWAP1 SSTORE POP PUSH2 0xA98 DUP4 PUSH1 0x7 SLOAD PUSH2 0x1CF2 SWAP1 SWAP2 SWAP1 PUSH4 0xFFFFFFFF AND JUMP JUMPDEST PUSH1 0x7 DUP2 SWAP1 SSTORE POP POP POP POP JUMP JUMPDEST PUSH1 0x60 PUSH1 0x8 DUP1 SLOAD PUSH1 0x1 DUP2 PUSH1 0x1 AND ISZERO PUSH2 0x100 MUL SUB AND PUSH1 0x2 SWAP1 DIV DUP1 PUSH1 0x1F ADD PUSH1 0x20 DUP1 SWAP2 DIV MUL PUSH1 0x20 ADD PUSH1 0x40 MLOAD SWAP1 DUP2 ADD PUSH1 0x40 MSTORE DUP1 SWAP3 SWAP2 SWAP1 DUP2 DUP2 MSTORE PUSH1 0x20 ADD DUP3 DUP1 SLOAD PUSH1 0x1 DUP2 PUSH1 0x1 AND ISZERO PUSH2 0x100 MUL SUB AND PUSH1 0x2 SWAP1 DIV DUP1 ISZERO PUSH2 0xB3B JUMPI DUP1 PUSH1 0x1F LT PUSH2 0xB10 JUMPI PUSH2 0x100 DUP1 DUP4 SLOAD DIV MUL DUP4 MSTORE SWAP2 PUSH1 0x20 ADD SWAP2 PUSH2 0xB3B JUMP JUMPDEST DUP3 ADD SWAP2 SWAP1 PUSH1 0x0 MSTORE PUSH1 0x20 PUSH1 0x0 KECCAK256 SWAP1 JUMPDEST DUP2 SLOAD DUP2 MSTORE SWAP1 PUSH1 0x1 ADD SWAP1 PUSH1 0x20 ADD DUP1 DUP4 GT PUSH2 0xB1E JUMPI DUP3 SWAP1 SUB PUSH1 0x1F AND DUP3 ADD SWAP2 JUMPDEST POP POP POP POP POP SWAP1 POP SWAP1 JUMP JUMPDEST PUSH1 0x0 PUSH2 0xB59 PUSH2 0xB52 PUSH2 0x1C48 JUMP JUMPDEST DUP5 DUP5 PUSH2 0x1D7A JUMP JUMPDEST PUSH1 0x1 SWAP1 POP SWAP3 SWAP2 POP POP JUMP JUMPDEST PUSH1 0x1 PUSH1 0x20 MSTORE DUP1 PUSH1 0x0 MSTORE PUSH1 0x40 PUSH1 0x0 KECCAK256 PUSH1 0x0 SWAP2 POP SWAP1 POP SLOAD DUP2 JUMP JUMPDEST PUSH1 0x0 PUSH1 0x7 SLOAD SWAP1 POP SWAP1 JUMP JUMPDEST PUSH1 0x0 PUSH11 0x52B7D2DCC80CD2E4000000 SWAP1 POP SWAP1 JUMP JUMPDEST PUSH1 0x0 PUSH2 0xBA5 DUP5 DUP5 DUP5 PUSH2 0x1F71 JUMP JUMPDEST PUSH2 0xC66 DUP5 PUSH2 0xBB1 PUSH2 0x1C48 JUMP JUMPDEST PUSH2 0xC61 DUP6 PUSH1 0x40 MLOAD DUP1 PUSH1 0x60 ADD PUSH1 0x40 MSTORE DUP1 PUSH1 0x28 DUP2 MSTORE PUSH1 0x20 ADD PUSH2 0x33ED PUSH1 0x28 SWAP2 CODECOPY PUSH1 0x3 PUSH1 0x0 DUP12 PUSH20 0xFFFFFFFFFFFFFFFFFFFFFFFFFFFFFFFFFFFFFFFF AND PUSH20 0xFFFFFFFFFFFFFFFFFFFFFFFFFFFFFFFFFFFFFFFF AND DUP2 MSTORE PUSH1 0x20 ADD SWAP1 DUP2 MSTORE PUSH1 0x20 ADD PUSH1 0x0 KECCAK256 PUSH1 0x0 PUSH2 0xC17 PUSH2 0x1C48 JUMP JUMPDEST PUSH20 0xFFFFFFFFFFFFFFFFFFFFFFFFFFFFFFFFFFFFFFFF AND PUSH20 0xFFFFFFFFFFFFFFFFFFFFFFFFFFFFFFFFFFFFFFFF AND DUP2 MSTORE PUSH1 0x20 ADD SWAP1 DUP2 MSTORE PUSH1 0x20 ADD PUSH1 0x0 KECCAK256 SLOAD PUSH2 0x23CA SWAP1 SWAP3 SWAP2 SWAP1 PUSH4 0xFFFFFFFF AND JUMP JUMPDEST PUSH2 0x1D7A JUMP JUMPDEST PUSH1 0x1 SWAP1 POP SWAP4 SWAP3 POP POP POP JUMP JUMPDEST PUSH1 0x0 PUSH1 0x6 SLOAD DUP3 GT ISZERO PUSH2 0xCCE JUMPI PUSH1 0x40 MLOAD PUSH32 0x8C379A000000000000000000000000000000000000000000000000000000000 DUP2 MSTORE PUSH1 0x4 ADD DUP1 DUP1 PUSH1 0x20 ADD DUP3 DUP2 SUB DUP3 MSTORE PUSH1 0x2A DUP2 MSTORE PUSH1 0x20 ADD DUP1 PUSH2 0x335A PUSH1 0x2A SWAP2 CODECOPY PUSH1 0x40 ADD SWAP2 POP POP PUSH1 0x40 MLOAD DUP1 SWAP2 SUB SWAP1 REVERT JUMPDEST PUSH1 0x0 PUSH2 0xCD8 PUSH2 0x248A JUMP JUMPDEST SWAP1 POP PUSH2 0xCED DUP2 DUP5 PUSH2 0x24B5 SWAP1 SWAP2 SWAP1 PUSH4 0xFFFFFFFF AND JUMP JUMPDEST SWAP2 POP POP SWAP2 SWAP1 POP JUMP JUMPDEST PUSH1 0x0 PUSH1 0xA PUSH1 0x0 SWAP1 SLOAD SWAP1 PUSH2 0x100 EXP SWAP1 DIV PUSH1 0xFF AND SWAP1 POP SWAP1 JUMP JUMPDEST PUSH1 0x0 PUSH2 0xDB5 PUSH2 0xD19 PUSH2 0x1C48 JUMP JUMPDEST DUP5 PUSH2 0xDB0 DUP6 PUSH1 0x3 PUSH1 0x0 PUSH2 0xD2A PUSH2 0x1C48 JUMP JUMPDEST PUSH20 0xFFFFFFFFFFFFFFFFFFFFFFFFFFFFFFFFFFFFFFFF AND PUSH20 0xFFFFFFFFFFFFFFFFFFFFFFFFFFFFFFFFFFFFFFFF AND DUP2 MSTORE PUSH1 0x20 ADD SWAP1 DUP2 MSTORE PUSH1 0x20 ADD PUSH1 0x0 KECCAK256 PUSH1 0x0 DUP10 PUSH20 0xFFFFFFFFFFFFFFFFFFFFFFFFFFFFFFFFFFFFFFFF AND PUSH20 0xFFFFFFFFFFFFFFFFFFFFFFFFFFFFFFFFFFFFFFFF AND DUP2 MSTORE PUSH1 0x20 ADD SWAP1 DUP2 MSTORE PUSH1 0x20 ADD PUSH1 0x0 KECCAK256 SLOAD PUSH2 0x1CF2 SWAP1 SWAP2 SWAP1 PUSH4 0xFFFFFFFF AND JUMP JUMPDEST PUSH2 0x1D7A JUMP JUMPDEST PUSH1 0x1 SWAP1 POP SWAP3 SWAP2 POP POP JUMP JUMPDEST PUSH1 0x2 PUSH1 0x20 MSTORE DUP1 PUSH1 0x0 MSTORE PUSH1 0x40 PUSH1 0x0 KECCAK256 PUSH1 0x0 SWAP2 POP SWAP1 POP SLOAD DUP2 JUMP JUMPDEST PUSH1 0x0 PUSH11 0x52B7D2DCC80CD2E4000000 DUP4 GT ISZERO PUSH2 0xE5A JUMPI PUSH1 0x40 MLOAD PUSH32 0x8C379A000000000000000000000000000000000000000000000000000000000 DUP2 MSTORE PUSH1 0x4 ADD DUP1 DUP1 PUSH1 0x20 ADD DUP3 DUP2 SUB DUP3 MSTORE PUSH1 0x1F DUP2 MSTORE PUSH1 0x20 ADD DUP1 PUSH32 0x416D6F756E74206D757374206265206C657373207468616E20737570706C7900 DUP2 MSTORE POP PUSH1 0x20 ADD SWAP2 POP POP PUSH1 0x40 MLOAD DUP1 SWAP2 SUB SWAP1 REVERT JUMPDEST DUP2 PUSH2 0xE79 JUMPI PUSH1 0x0 PUSH2 0xE6A DUP5 PUSH2 0x1C50 JUMP JUMPDEST POP POP POP POP SWAP1 POP DUP1 SWAP2 POP POP PUSH2 0xE8F JUMP JUMPDEST PUSH1 0x0 PUSH2 0xE84 DUP5 PUSH2 0x1C50 JUMP JUMPDEST POP POP POP SWAP2 POP POP DUP1 SWAP2 POP POP JUMPDEST SWAP3 SWAP2 POP POP JUMP JUMPDEST PUSH1 0x0 PUSH1 0x4 PUSH1 0x0 DUP4 PUSH20 0xFFFFFFFFFFFFFFFFFFFFFFFFFFFFFFFFFFFFFFFF AND PUSH20 0xFFFFFFFFFFFFFFFFFFFFFFFFFFFFFFFFFFFFFFFF AND DUP2 MSTORE PUSH1 0x20 ADD SWAP1 DUP2 MSTORE PUSH1 0x20 ADD PUSH1 0x0 KECCAK256 PUSH1 0x0 SWAP1 SLOAD SWAP1 PUSH2 0x100 EXP SWAP1 DIV PUSH1 0xFF AND ISZERO PUSH2 0xF30 JUMPI PUSH1 0x2 PUSH1 0x0 DUP4 PUSH20 0xFFFFFFFFFFFFFFFFFFFFFFFFFFFFFFFFFFFFFFFF AND PUSH20 0xFFFFFFFFFFFFFFFFFFFFFFFFFFFFFFFFFFFFFFFF AND DUP2 MSTORE PUSH1 0x20 ADD SWAP1 DUP2 MSTORE PUSH1 0x20 ADD PUSH1 0x0 KECCAK256 SLOAD SWAP1 POP PUSH2 0xF7B JUMP JUMPDEST PUSH2 0xF78 PUSH1 0x1 PUSH1 0x0 DUP5 PUSH20 0xFFFFFFFFFFFFFFFFFFFFFFFFFFFFFFFFFFFFFFFF AND PUSH20 0xFFFFFFFFFFFFFFFFFFFFFFFFFFFFFFFFFFFFFFFF AND DUP2 MSTORE PUSH1 0x20 ADD SWAP1 DUP2 MSTORE PUSH1 0x20 ADD PUSH1 0x0 KECCAK256 SLOAD PUSH2 0xC71 JUMP JUMPDEST SWAP1 POP JUMPDEST SWAP2 SWAP1 POP JUMP JUMPDEST PUSH2 0xF88 PUSH2 0x1C48 JUMP JUMPDEST PUSH20 0xFFFFFFFFFFFFFFFFFFFFFFFFFFFFFFFFFFFFFFFF AND PUSH1 0x0 DUP1 SLOAD SWAP1 PUSH2 0x100 EXP SWAP1 DIV PUSH20 0xFFFFFFFFFFFFFFFFFFFFFFFFFFFFFFFFFFFFFFFF AND PUSH20 0xFFFFFFFFFFFFFFFFFFFFFFFFFFFFFFFFFFFFFFFF AND EQ PUSH2 0x1048 JUMPI PUSH1 0x40 MLOAD PUSH32 0x8C379A000000000000000000000000000000000000000000000000000000000 DUP2 MSTORE PUSH1 0x4 ADD DUP1 DUP1 PUSH1 0x20 ADD DUP3 DUP2 SUB DUP3 MSTORE PUSH1 0x20 DUP2 MSTORE PUSH1 0x20 ADD DUP1 PUSH32 0x4F776E61626C653A2063616C6C6572206973206E6F7420746865206F776E6572 DUP2 MSTORE POP PUSH1 0x20 ADD SWAP2 POP POP PUSH1 0x40 MLOAD DUP1 SWAP2 SUB SWAP1 REVERT JUMPDEST PUSH1 0x0 PUSH20 0xFFFFFFFFFFFFFFFFFFFFFFFFFFFFFFFFFFFFFFFF AND PUSH1 0x0 DUP1 SLOAD SWAP1 PUSH2 0x100 EXP SWAP1 DIV PUSH20 0xFFFFFFFFFFFFFFFFFFFFFFFFFFFFFFFFFFFFFFFF AND PUSH20 0xFFFFFFFFFFFFFFFFFFFFFFFFFFFFFFFFFFFFFFFF AND PUSH32 0x8BE0079C531659141344CD1FD0A4F28419497F9722A3DAAFE3B4186F6B6457E0 PUSH1 0x40 MLOAD PUSH1 0x40 MLOAD DUP1 SWAP2 SUB SWAP1 LOG3 PUSH1 0x0 DUP1 PUSH1 0x0 PUSH2 0x100 EXP DUP2 SLOAD DUP2 PUSH20 0xFFFFFFFFFFFFFFFFFFFFFFFFFFFFFFFFFFFFFFFF MUL NOT AND SWAP1 DUP4 PUSH20 0xFFFFFFFFFFFFFFFFFFFFFFFFFFFFFFFFFFFFFFFF AND MUL OR SWAP1 SSTORE POP JUMP JUMPDEST PUSH1 0x0 DUP1 PUSH1 0x0 SWAP1 SLOAD SWAP1 PUSH2 0x100 EXP SWAP1 DIV PUSH20 0xFFFFFFFFFFFFFFFFFFFFFFFFFFFFFFFFFFFFFFFF AND SWAP1 POP SWAP1 JUMP JUMPDEST PUSH1 0x60 PUSH1 0x9 DUP1 SLOAD PUSH1 0x1 DUP2 PUSH1 0x1 AND ISZERO PUSH2 0x100 MUL SUB AND PUSH1 0x2 SWAP1 DIV DUP1 PUSH1 0x1F ADD PUSH1 0x20 DUP1 SWAP2 DIV MUL PUSH1 0x20 ADD PUSH1 0x40 MLOAD SWAP1 DUP2 ADD PUSH1 0x40 MSTORE DUP1 SWAP3 SWAP2 SWAP1 DUP2 DUP2 MSTORE PUSH1 0x20 ADD DUP3 DUP1 SLOAD PUSH1 0x1 DUP2 PUSH1 0x1 AND ISZERO PUSH2 0x100 MUL SUB AND PUSH1 0x2 SWAP1 DIV DUP1 ISZERO PUSH2 0x11C7 JUMPI DUP1 PUSH1 0x1F LT PUSH2 0x119C JUMPI PUSH2 0x100 DUP1 DUP4 SLOAD DIV MUL DUP4 MSTORE SWAP2 PUSH1 0x20 ADD SWAP2 PUSH2 0x11C7 JUMP JUMPDEST DUP3 ADD SWAP2 SWAP1 PUSH1 0x0 MSTORE PUSH1 0x20 PUSH1 0x0 KECCAK256 SWAP1 JUMPDEST DUP2 SLOAD DUP2 MSTORE SWAP1 PUSH1 0x1 ADD SWAP1 PUSH1 0x20 ADD DUP1 DUP4 GT PUSH2 0x11AA JUMPI DUP3 SWAP1 SUB PUSH1 0x1F AND DUP3 ADD SWAP2 JUMPDEST POP POP POP POP POP SWAP1 POP SWAP1 JUMP JUMPDEST PUSH1 0x0 PUSH2 0x1294 PUSH2 0x11DE PUSH2 0x1C48 JUMP JUMPDEST DUP5 PUSH2 0x128F DUP6 PUSH1 0x40 MLOAD DUP1 PUSH1 0x60 ADD PUSH1 0x40 MSTORE DUP1 PUSH1 0x25 DUP2 MSTORE PUSH1 0x20 ADD PUSH2 0x34B3 PUSH1 0x25 SWAP2 CODECOPY PUSH1 0x3 PUSH1 0x0 PUSH2 0x1208 PUSH2 0x1C48 JUMP JUMPDEST PUSH20 0xFFFFFFFFFFFFFFFFFFFFFFFFFFFFFFFFFFFFFFFF AND PUSH20 0xFFFFFFFFFFFFFFFFFFFFFFFFFFFFFFFFFFFFFFFF AND DUP2 MSTORE PUSH1 0x20 ADD SWAP1 DUP2 MSTORE PUSH1 0x20 ADD PUSH1 0x0 KECCAK256 PUSH1 0x0 DUP11 PUSH20 0xFFFFFFFFFFFFFFFFFFFFFFFFFFFFFFFFFFFFFFFF AND PUSH20 0xFFFFFFFFFFFFFFFFFFFFFFFFFFFFFFFFFFFFFFFF AND DUP2 MSTORE PUSH1 0x20 ADD SWAP1 DUP2 MSTORE PUSH1 0x20 ADD PUSH1 0x0 KECCAK256 SLOAD PUSH2 0x23CA SWAP1 SWAP3 SWAP2 SWAP1 PUSH4 0xFFFFFFFF AND JUMP JUMPDEST PUSH2 0x1D7A JUMP JUMPDEST PUSH1 0x1 SWAP1 POP SWAP3 SWAP2 POP POP JUMP JUMPDEST PUSH1 0x0 PUSH2 0x12B2 PUSH2 0x12AB PUSH2 0x1C48 JUMP JUMPDEST DUP5 DUP5 PUSH2 0x1F71 JUMP JUMPDEST PUSH1 0x1 SWAP1 POP SWAP3 SWAP2 POP POP JUMP JUMPDEST PUSH1 0x0 PUSH1 0x4 PUSH1 0x0 DUP4 PUSH20 0xFFFFFFFFFFFFFFFFFFFFFFFFFFFFFFFFFFFFFFFF AND PUSH20 0xFFFFFFFFFFFFFFFFFFFFFFFFFFFFFFFFFFFFFFFF AND DUP2 MSTORE PUSH1 0x20 ADD SWAP1 DUP2 MSTORE PUSH1 0x20 ADD PUSH1 0x0 KECCAK256 PUSH1 0x0 SWAP1 SLOAD SWAP1 PUSH2 0x100 EXP SWAP1 DIV PUSH1 0xFF AND SWAP1 POP SWAP2 SWAP1 POP JUMP JUMPDEST PUSH1 0x0 PUSH1 0x3 PUSH1 0x0 DUP5 PUSH20 0xFFFFFFFFFFFFFFFFFFFFFFFFFFFFFFFFFFFFFFFF AND PUSH20 0xFFFFFFFFFFFFFFFFFFFFFFFFFFFFFFFFFFFFFFFF AND DUP2 MSTORE PUSH1 0x20 ADD SWAP1 DUP2 MSTORE PUSH1 0x20 ADD PUSH1 0x0 KECCAK256 PUSH1 0x0 DUP4 PUSH20 0xFFFFFFFFFFFFFFFFFFFFFFFFFFFFFFFFFFFFFFFF AND PUSH20 0xFFFFFFFFFFFFFFFFFFFFFFFFFFFFFFFFFFFFFFFF AND DUP2 MSTORE PUSH1 0x20 ADD SWAP1 DUP2 MSTORE PUSH1 0x20 ADD PUSH1 0x0 KECCAK256 SLOAD SWAP1 POP SWAP3 SWAP2 POP POP JUMP JUMPDEST PUSH2 0x13A1 PUSH2 0x1C48 JUMP JUMPDEST PUSH20 0xFFFFFFFFFFFFFFFFFFFFFFFFFFFFFFFFFFFFFFFF AND PUSH1 0x0 DUP1 SLOAD SWAP1 PUSH2 0x100 EXP SWAP1 DIV PUSH20 0xFFFFFFFFFFFFFFFFFFFFFFFFFFFFFFFFFFFFFFFF AND PUSH20 0xFFFFFFFFFFFFFFFFFFFFFFFFFFFFFFFFFFFFFFFF AND EQ PUSH2 0x1461 JUMPI PUSH1 0x40 MLOAD PUSH32 0x8C379A000000000000000000000000000000000000000000000000000000000 DUP2 MSTORE PUSH1 0x4 ADD DUP1 DUP1 PUSH1 0x20 ADD DUP3 DUP2 SUB DUP3 MSTORE PUSH1 0x20 DUP2 MSTORE PUSH1 0x20 ADD DUP1 PUSH32 0x4F776E61626C653A2063616C6C6572206973206E6F7420746865206F776E6572 DUP2 MSTORE POP PUSH1 0x20 ADD SWAP2 POP POP PUSH1 0x40 MLOAD DUP1 SWAP2 SUB SWAP1 REVERT JUMPDEST PUSH1 0x4 PUSH1 0x0 DUP3 PUSH20 0xFFFFFFFFFFFFFFFFFFFFFFFFFFFFFFFFFFFFFFFF AND PUSH20 0xFFFFFFFFFFFFFFFFFFFFFFFFFFFFFFFFFFFFFFFF AND DUP2 MSTORE PUSH1 0x20 ADD SWAP1 DUP2 MSTORE PUSH1 0x20 ADD PUSH1 0x0 KECCAK256 PUSH1 0x0 SWAP1 SLOAD SWAP1 PUSH2 0x100 EXP SWAP1 DIV PUSH1 0xFF AND ISZERO PUSH2 0x1521 JUMPI PUSH1 0x40 MLOAD PUSH32 0x8C379A000000000000000000000000000000000000000000000000000000000 DUP2 MSTORE PUSH1 0x4 ADD DUP1 DUP1 PUSH1 0x20 ADD DUP3 DUP2 SUB DUP3 MSTORE PUSH1 0x1B DUP2 MSTORE PUSH1 0x20 ADD DUP1 PUSH32 0x4163636F756E7420697320616C7265616479206578636C756465640000000000 DUP2 MSTORE POP PUSH1 0x20 ADD SWAP2 POP POP PUSH1 0x40 MLOAD DUP1 SWAP2 SUB SWAP1 REVERT JUMPDEST PUSH1 0x0 PUSH1 0x1 PUSH1 0x0 DUP4 PUSH20 0xFFFFFFFFFFFFFFFFFFFFFFFFFFFFFFFFFFFFFFFF AND PUSH20 0xFFFFFFFFFFFFFFFFFFFFFFFFFFFFFFFFFFFFFFFF AND DUP2 MSTORE PUSH1 0x20 ADD SWAP1 DUP2 MSTORE PUSH1 0x20 ADD PUSH1 0x0 KECCAK256 SLOAD GT ISZERO PUSH2 0x15F5 JUMPI PUSH2 0x15B1 PUSH1 0x1 PUSH1 0x0 DUP4 PUSH20 0xFFFFFFFFFFFFFFFFFFFFFFFFFFFFFFFFFFFFFFFF AND PUSH20 0xFFFFFFFFFFFFFFFFFFFFFFFFFFFFFFFFFFFFFFFF AND DUP2 MSTORE PUSH1 0x20 ADD SWAP1 DUP2 MSTORE PUSH1 0x20 ADD PUSH1 0x0 KECCAK256 SLOAD PUSH2 0xC71 JUMP JUMPDEST PUSH1 0x2 PUSH1 0x0 DUP4 PUSH20 0xFFFFFFFFFFFFFFFFFFFFFFFFFFFFFFFFFFFFFFFF AND PUSH20 0xFFFFFFFFFFFFFFFFFFFFFFFFFFFFFFFFFFFFFFFF AND DUP2 MSTORE PUSH1 0x20 ADD SWAP1 DUP2 MSTORE PUSH1 0x20 ADD PUSH1 0x0 KECCAK256 DUP2 SWAP1 SSTORE POP JUMPDEST PUSH1 0x1 PUSH1 0x4 PUSH1 0x0 DUP4 PUSH20 0xFFFFFFFFFFFFFFFFFFFFFFFFFFFFFFFFFFFFFFFF AND PUSH20 0xFFFFFFFFFFFFFFFFFFFFFFFFFFFFFFFFFFFFFFFF AND DUP2 MSTORE PUSH1 0x20 ADD SWAP1 DUP2 MSTORE PUSH1 0x20 ADD PUSH1 0x0 KECCAK256 PUSH1 0x0 PUSH2 0x100 EXP DUP2 SLOAD DUP2 PUSH1 0xFF MUL NOT AND SWAP1 DUP4 ISZERO ISZERO MUL OR SWAP1 SSTORE POP PUSH1 0x5 DUP2 SWAP1 DUP1 PUSH1 0x1 DUP2 SLOAD ADD DUP1 DUP3 SSTORE DUP1 SWAP2 POP POP PUSH1 0x1 SWAP1 SUB SWAP1 PUSH1 0x0 MSTORE PUSH1 0x20 PUSH1 0x0 KECCAK256 ADD PUSH1 0x0 SWAP1 SWAP2 SWAP1 SWAP2 SWAP1 SWAP2 PUSH2 0x100 EXP DUP2 SLOAD DUP2 PUSH20 0xFFFFFFFFFFFFFFFFFFFFFFFFFFFFFFFFFFFFFFFF MUL NOT AND SWAP1 DUP4 PUSH20 0xFFFFFFFFFFFFFFFFFFFFFFFFFFFFFFFFFFFFFFFF AND MUL OR SWAP1 SSTORE POP POP JUMP JUMPDEST PUSH2 0x16BB PUSH2 0x1C48 JUMP JUMPDEST PUSH20 0xFFFFFFFFFFFFFFFFFFFFFFFFFFFFFFFFFFFFFFFF AND PUSH1 0x0 DUP1 SLOAD SWAP1 PUSH2 0x100 EXP SWAP1 DIV PUSH20 0xFFFFFFFFFFFFFFFFFFFFFFFFFFFFFFFFFFFFFFFF AND PUSH20 0xFFFFFFFFFFFFFFFFFFFFFFFFFFFFFFFFFFFFFFFF AND EQ PUSH2 0x177B JUMPI PUSH1 0x40 MLOAD PUSH32 0x8C379A000000000000000000000000000000000000000000000000000000000 DUP2 MSTORE PUSH1 0x4 ADD DUP1 DUP1 PUSH1 0x20 ADD DUP3 DUP2 SUB DUP3 MSTORE PUSH1 0x20 DUP2 MSTORE PUSH1 0x20 ADD DUP1 PUSH32 0x4F776E61626C653A2063616C6C6572206973206E6F7420746865206F776E6572 DUP2 MSTORE POP PUSH1 0x20 ADD SWAP2 POP POP PUSH1 0x40 MLOAD DUP1 SWAP2 SUB SWAP1 REVERT JUMPDEST PUSH1 0x0 PUSH20 0xFFFFFFFFFFFFFFFFFFFFFFFFFFFFFFFFFFFFFFFF AND DUP2 PUSH20 0xFFFFFFFFFFFFFFFFFFFFFFFFFFFFFFFFFFFFFFFF AND EQ ISZERO PUSH2 0x1801 JUMPI PUSH1 0x40 MLOAD PUSH32 0x8C379A000000000000000000000000000000000000000000000000000000000 DUP2 MSTORE PUSH1 0x4 ADD DUP1 DUP1 PUSH1 0x20 ADD DUP3 DUP2 SUB DUP3 MSTORE PUSH1 0x26 DUP2 MSTORE PUSH1 0x20 ADD DUP1 PUSH2 0x3384 PUSH1 0x26 SWAP2 CODECOPY PUSH1 0x40 ADD SWAP2 POP POP PUSH1 0x40 MLOAD DUP1 SWAP2 SUB SWAP1 REVERT JUMPDEST DUP1 PUSH20 0xFFFFFFFFFFFFFFFFFFFFFFFFFFFFFFFFFFFFFFFF AND PUSH1 0x0 DUP1 SLOAD SWAP1 PUSH2 0x100 EXP SWAP1 DIV PUSH20 0xFFFFFFFFFFFFFFFFFFFFFFFFFFFFFFFFFFFFFFFF AND PUSH20 0xFFFFFFFFFFFFFFFFFFFFFFFFFFFFFFFFFFFFFFFF AND PUSH32 0x8BE0079C531659141344CD1FD0A4F28419497F9722A3DAAFE3B4186F6B6457E0 PUSH1 0x40 MLOAD PUSH1 0x40 MLOAD DUP1 SWAP2 SUB SWAP1 LOG3 DUP1 PUSH1 0x0 DUP1 PUSH2 0x100 EXP DUP2 SLOAD DUP2 PUSH20 0xFFFFFFFFFFFFFFFFFFFFFFFFFFFFFFFFFFFFFFFF MUL NOT AND SWAP1 DUP4 PUSH20 0xFFFFFFFFFFFFFFFFFFFFFFFFFFFFFFFFFFFFFFFF AND MUL OR SWAP1 SSTORE POP POP JUMP JUMPDEST PUSH2 0x18C6 PUSH2 0x1C48 JUMP JUMPDEST PUSH20 0xFFFFFFFFFFFFFFFFFFFFFFFFFFFFFFFFFFFFFFFF AND PUSH1 0x0 DUP1 SLOAD SWAP1 PUSH2 0x100 EXP SWAP1 DIV PUSH20 0xFFFFFFFFFFFFFFFFFFFFFFFFFFFFFFFFFFFFFFFF AND PUSH20 0xFFFFFFFFFFFFFFFFFFFFFFFFFFFFFFFFFFFFFFFF AND EQ PUSH2 0x1986 JUMPI PUSH1 0x40 MLOAD PUSH32 0x8C379A000000000000000000000000000000000000000000000000000000000 DUP2 MSTORE PUSH1 0x4 ADD DUP1 DUP1 PUSH1 0x20 ADD DUP3 DUP2 SUB DUP3 MSTORE PUSH1 0x20 DUP2 MSTORE PUSH1 0x20 ADD DUP1 PUSH32 0x4F776E61626C653A2063616C6C6572206973206E6F7420746865206F776E6572 DUP2 MSTORE POP PUSH1 0x20 ADD SWAP2 POP POP PUSH1 0x40 MLOAD DUP1 SWAP2 SUB SWAP1 REVERT JUMPDEST PUSH1 0x4 PUSH1 0x0 DUP3 PUSH20 0xFFFFFFFFFFFFFFFFFFFFFFFFFFFFFFFFFFFFFFFF AND PUSH20 0xFFFFFFFFFFFFFFFFFFFFFFFFFFFFFFFFFFFFFFFF AND DUP2 MSTORE PUSH1 0x20 ADD SWAP1 DUP2 MSTORE PUSH1 0x20 ADD PUSH1 0x0 KECCAK256 PUSH1 0x0 SWAP1 SLOAD SWAP1 PUSH2 0x100 EXP SWAP1 DIV PUSH1 0xFF AND PUSH2 0x1A45 JUMPI PUSH1 0x40 MLOAD PUSH32 0x8C379A000000000000000000000000000000000000000000000000000000000 DUP2 MSTORE PUSH1 0x4 ADD DUP1 DUP1 PUSH1 0x20 ADD DUP3 DUP2 SUB DUP3 MSTORE PUSH1 0x1B DUP2 MSTORE PUSH1 0x20 ADD DUP1 PUSH32 0x4163636F756E7420697320616C7265616479206578636C756465640000000000 DUP2 MSTORE POP PUSH1 0x20 ADD SWAP2 POP POP PUSH1 0x40 MLOAD DUP1 SWAP2 SUB SWAP1 REVERT JUMPDEST PUSH1 0x0 JUMPDEST PUSH1 0x5 DUP1 SLOAD SWAP1 POP DUP2 LT ISZERO PUSH2 0x1C44 JUMPI DUP2 PUSH20 0xFFFFFFFFFFFFFFFFFFFFFFFFFFFFFFFFFFFFFFFF AND PUSH1 0x5 DUP3 DUP2 SLOAD DUP2 LT PUSH2 0x1A79 JUMPI INVALID JUMPDEST SWAP1 PUSH1 0x0 MSTORE PUSH1 0x20 PUSH1 0x0 KECCAK256 ADD PUSH1 0x0 SWAP1 SLOAD SWAP1 PUSH2 0x100 EXP SWAP1 DIV PUSH20 0xFFFFFFFFFFFFFFFFFFFFFFFFFFFFFFFFFFFFFFFF AND PUSH20 0xFFFFFFFFFFFFFFFFFFFFFFFFFFFFFFFFFFFFFFFF AND EQ ISZERO PUSH2 0x1C37 JUMPI PUSH1 0x5 PUSH1 0x1 PUSH1 0x5 DUP1 SLOAD SWAP1 POP SUB DUP2 SLOAD DUP2 LT PUSH2 0x1AD5 JUMPI INVALID JUMPDEST SWAP1 PUSH1 0x0 MSTORE PUSH1 0x20 PUSH1 0x0 KECCAK256 ADD PUSH1 0x0 SWAP1 SLOAD SWAP1 PUSH2 0x100 EXP SWAP1 DIV PUSH20 0xFFFFFFFFFFFFFFFFFFFFFFFFFFFFFFFFFFFFFFFF AND PUSH1 0x5 DUP3 DUP2 SLOAD DUP2 LT PUSH2 0x1B0D JUMPI INVALID JUMPDEST SWAP1 PUSH1 0x0 MSTORE PUSH1 0x20 PUSH1 0x0 KECCAK256 ADD PUSH1 0x0 PUSH2 0x100 EXP DUP2 SLOAD DUP2 PUSH20 0xFFFFFFFFFFFFFFFFFFFFFFFFFFFFFFFFFFFFFFFF MUL NOT AND SWAP1 DUP4 PUSH20 0xFFFFFFFFFFFFFFFFFFFFFFFFFFFFFFFFFFFFFFFF AND MUL OR SWAP1 SSTORE POP PUSH1 0x0 PUSH1 0x2 PUSH1 0x0 DUP5 PUSH20 0xFFFFFFFFFFFFFFFFFFFFFFFFFFFFFFFFFFFFFFFF AND PUSH20 0xFFFFFFFFFFFFFFFFFFFFFFFFFFFFFFFFFFFFFFFF AND DUP2 MSTORE PUSH1 0x20 ADD SWAP1 DUP2 MSTORE PUSH1 0x20 ADD PUSH1 0x0 KECCAK256 DUP2 SWAP1 SSTORE POP PUSH1 0x0 PUSH1 0x4 PUSH1 0x0 DUP5 PUSH20 0xFFFFFFFFFFFFFFFFFFFFFFFFFFFFFFFFFFFFFFFF AND PUSH20 0xFFFFFFFFFFFFFFFFFFFFFFFFFFFFFFFFFFFFFFFF AND DUP2 MSTORE PUSH1 0x20 ADD SWAP1 DUP2 MSTORE PUSH1 0x20 ADD PUSH1 0x0 KECCAK256 PUSH1 0x0 PUSH2 0x100 EXP DUP2 SLOAD DUP2 PUSH1 0xFF MUL NOT AND SWAP1 DUP4 ISZERO ISZERO MUL OR SWAP1 SSTORE POP PUSH1 0x5 DUP1 SLOAD DUP1 PUSH2 0x1BFD JUMPI INVALID JUMPDEST PUSH1 0x1 SWAP1 SUB DUP2 DUP2 SWAP1 PUSH1 0x0 MSTORE PUSH1 0x20 PUSH1 0x0 KECCAK256 ADD PUSH1 0x0 PUSH2 0x100 EXP DUP2 SLOAD SWAP1 PUSH20 0xFFFFFFFFFFFFFFFFFFFFFFFFFFFFFFFFFFFFFFFF MUL NOT AND SWAP1 SSTORE SWAP1 SSTORE PUSH2 0x1C44 JUMP JUMPDEST DUP1 DUP1 PUSH1 0x1 ADD SWAP2 POP POP PUSH2 0x1A48 JUMP JUMPDEST POP POP JUMP JUMPDEST PUSH1 0x0 CALLER SWAP1 POP SWAP1 JUMP JUMPDEST PUSH1 0x0 DUP1 PUSH1 0x0 DUP1 PUSH1 0x0 DUP1 PUSH1 0x0 PUSH2 0x1C64 DUP9 PUSH2 0x24FF JUMP JUMPDEST SWAP2 POP SWAP2 POP PUSH1 0x0 PUSH2 0x1C72 PUSH2 0x248A JUMP JUMPDEST SWAP1 POP PUSH1 0x0 DUP1 PUSH1 0x0 PUSH2 0x1C84 DUP13 DUP7 DUP7 PUSH2 0x2551 JUMP JUMPDEST SWAP3 POP SWAP3 POP SWAP3 POP DUP3 DUP3 DUP3 DUP9 DUP9 SWAP11 POP SWAP11 POP SWAP11 POP SWAP11 POP SWAP11 POP POP POP POP POP POP POP SWAP2 SWAP4 SWAP6 SWAP1 SWAP3 SWAP5 POP JUMP JUMPDEST PUSH1 0x0 PUSH2 0x1CEA DUP4 DUP4 PUSH1 0x40 MLOAD DUP1 PUSH1 0x40 ADD PUSH1 0x40 MSTORE DUP1 PUSH1 0x1E DUP2 MSTORE PUSH1 0x20 ADD PUSH32 0x536166654D6174683A207375627472616374696F6E206F766572666C6F770000 DUP2 MSTORE POP PUSH2 0x23CA JUMP JUMPDEST SWAP1 POP SWAP3 SWAP2 POP POP JUMP JUMPDEST PUSH1 0x0 DUP1 DUP3 DUP5 ADD SWAP1 POP DUP4 DUP2 LT ISZERO PUSH2 0x1D70 JUMPI PUSH1 0x40 MLOAD PUSH32 0x8C379A000000000000000000000000000000000000000000000000000000000 DUP2 MSTORE PUSH1 0x4 ADD DUP1 DUP1 PUSH1 0x20 ADD DUP3 DUP2 SUB DUP3 MSTORE PUSH1 0x1B DUP2 MSTORE PUSH1 0x20 ADD DUP1 PUSH32 0x536166654D6174683A206164646974696F6E206F766572666C6F770000000000 DUP2 MSTORE POP PUSH1 0x20 ADD SWAP2 POP POP PUSH1 0x40 MLOAD DUP1 SWAP2 SUB SWAP1 REVERT JUMPDEST DUP1 SWAP2 POP POP SWAP3 SWAP2 POP POP JUMP JUMPDEST PUSH1 0x0 PUSH20 0xFFFFFFFFFFFFFFFFFFFFFFFFFFFFFFFFFFFFFFFF AND DUP4 PUSH20 0xFFFFFFFFFFFFFFFFFFFFFFFFFFFFFFFFFFFFFFFF AND EQ ISZERO PUSH2 0x1E00 JUMPI PUSH1 0x40 MLOAD PUSH32 0x8C379A000000000000000000000000000000000000000000000000000000000 DUP2 MSTORE PUSH1 0x4 ADD DUP1 DUP1 PUSH1 0x20 ADD DUP3 DUP2 SUB DUP3 MSTORE PUSH1 0x24 DUP2 MSTORE PUSH1 0x20 ADD DUP1 PUSH2 0x3463 PUSH1 0x24 SWAP2 CODECOPY PUSH1 0x40 ADD SWAP2 POP POP PUSH1 0x40 MLOAD DUP1 SWAP2 SUB SWAP1 REVERT JUMPDEST PUSH1 0x0 PUSH20 0xFFFFFFFFFFFFFFFFFFFFFFFFFFFFFFFFFFFFFFFF AND DUP3 PUSH20 0xFFFFFFFFFFFFFFFFFFFFFFFFFFFFFFFFFFFFFFFF AND EQ ISZERO PUSH2 0x1E86 JUMPI PUSH1 0x40 MLOAD PUSH32 0x8C379A000000000000000000000000000000000000000000000000000000000 DUP2 MSTORE PUSH1 0x4 ADD DUP1 DUP1 PUSH1 0x20 ADD DUP3 DUP2 SUB DUP3 MSTORE PUSH1 0x22 DUP2 MSTORE PUSH1 0x20 ADD DUP1 PUSH2 0x33AA PUSH1 0x22 SWAP2 CODECOPY PUSH1 0x40 ADD SWAP2 POP POP PUSH1 0x40 MLOAD DUP1 SWAP2 SUB SWAP1 REVERT JUMPDEST DUP1 PUSH1 0x3 PUSH1 0x0 DUP6 PUSH20 0xFFFFFFFFFFFFFFFFFFFFFFFFFFFFFFFFFFFFFFFF AND PUSH20 0xFFFFFFFFFFFFFFFFFFFFFFFFFFFFFFFFFFFFFFFF AND DUP2 MSTORE PUSH1 0x20 ADD SWAP1 DUP2 MSTORE PUSH1 0x20 ADD PUSH1 0x0 KECCAK256 PUSH1 0x0 DUP5 PUSH20 0xFFFFFFFFFFFFFFFFFFFFFFFFFFFFFFFFFFFFFFFF AND PUSH20 0xFFFFFFFFFFFFFFFFFFFFFFFFFFFFFFFFFFFFFFFF AND DUP2 MSTORE PUSH1 0x20 ADD SWAP1 DUP2 MSTORE PUSH1 0x20 ADD PUSH1 0x0 KECCAK256 DUP2 SWAP1 SSTORE POP DUP2 PUSH20 0xFFFFFFFFFFFFFFFFFFFFFFFFFFFFFFFFFFFFFFFF AND DUP4 PUSH20 0xFFFFFFFFFFFFFFFFFFFFFFFFFFFFFFFFFFFFFFFF AND PUSH32 0x8C5BE1E5EBEC7D5BD14F71427D1E84F3DD0314C0F7B2291E5B200AC8C7C3B925 DUP4 PUSH1 0x40 MLOAD DUP1 DUP3 DUP2 MSTORE PUSH1 0x20 ADD SWAP2 POP POP PUSH1 0x40 MLOAD DUP1 SWAP2 SUB SWAP1 LOG3 POP POP POP JUMP JUMPDEST PUSH1 0x0 PUSH20 0xFFFFFFFFFFFFFFFFFFFFFFFFFFFFFFFFFFFFFFFF AND DUP4 PUSH20 0xFFFFFFFFFFFFFFFFFFFFFFFFFFFFFFFFFFFFFFFF AND EQ ISZERO PUSH2 0x1FF7 JUMPI PUSH1 0x40 MLOAD PUSH32 0x8C379A000000000000000000000000000000000000000000000000000000000 DUP2 MSTORE PUSH1 0x4 ADD DUP1 DUP1 PUSH1 0x20 ADD DUP3 DUP2 SUB DUP3 MSTORE PUSH1 0x25 DUP2 MSTORE PUSH1 0x20 ADD DUP1 PUSH2 0x343E PUSH1 0x25 SWAP2 CODECOPY PUSH1 0x40 ADD SWAP2 POP POP PUSH1 0x40 MLOAD DUP1 SWAP2 SUB SWAP1 REVERT JUMPDEST PUSH1 0x0 PUSH20 0xFFFFFFFFFFFFFFFFFFFFFFFFFFFFFFFFFFFFFFFF AND DUP3 PUSH20 0xFFFFFFFFFFFFFFFFFFFFFFFFFFFFFFFFFFFFFFFF AND EQ ISZERO PUSH2 0x207D JUMPI PUSH1 0x40 MLOAD PUSH32 0x8C379A000000000000000000000000000000000000000000000000000000000 DUP2 MSTORE PUSH1 0x4 ADD DUP1 DUP1 PUSH1 0x20 ADD DUP3 DUP2 SUB DUP3 MSTORE PUSH1 0x23 DUP2 MSTORE PUSH1 0x20 ADD DUP1 PUSH2 0x3337 PUSH1 0x23 SWAP2 CODECOPY PUSH1 0x40 ADD SWAP2 POP POP PUSH1 0x40 MLOAD DUP1 SWAP2 SUB SWAP1 REVERT JUMPDEST PUSH1 0x0 DUP2 GT PUSH2 0x20D6 JUMPI PUSH1 0x40 MLOAD PUSH32 0x8C379A000000000000000000000000000000000000000000000000000000000 DUP2 MSTORE PUSH1 0x4 ADD DUP1 DUP1 PUSH1 0x20 ADD DUP3 DUP2 SUB DUP3 MSTORE PUSH1 0x29 DUP2 MSTORE PUSH1 0x20 ADD DUP1 PUSH2 0x3415 PUSH1 0x29 SWAP2 CODECOPY PUSH1 0x40 ADD SWAP2 POP POP PUSH1 0x40 MLOAD DUP1 SWAP2 SUB SWAP1 REVERT JUMPDEST PUSH1 0x4 PUSH1 0x0 DUP5 PUSH20 0xFFFFFFFFFFFFFFFFFFFFFFFFFFFFFFFFFFFFFFFF AND PUSH20 0xFFFFFFFFFFFFFFFFFFFFFFFFFFFFFFFFFFFFFFFF AND DUP2 MSTORE PUSH1 0x20 ADD SWAP1 DUP2 MSTORE PUSH1 0x20 ADD PUSH1 0x0 KECCAK256 PUSH1 0x0 SWAP1 SLOAD SWAP1 PUSH2 0x100 EXP SWAP1 DIV PUSH1 0xFF AND DUP1 ISZERO PUSH2 0x2179 JUMPI POP PUSH1 0x4 PUSH1 0x0 DUP4 PUSH20 0xFFFFFFFFFFFFFFFFFFFFFFFFFFFFFFFFFFFFFFFF AND PUSH20 0xFFFFFFFFFFFFFFFFFFFFFFFFFFFFFFFFFFFFFFFF AND DUP2 MSTORE PUSH1 0x20 ADD SWAP1 DUP2 MSTORE PUSH1 0x20 ADD PUSH1 0x0 KECCAK256 PUSH1 0x0 SWAP1 SLOAD SWAP1 PUSH2 0x100 EXP SWAP1 DIV PUSH1 0xFF AND ISZERO JUMPDEST ISZERO PUSH2 0x218E JUMPI PUSH2 0x2189 DUP4 DUP4 DUP4 PUSH2 0x25AF JUMP JUMPDEST PUSH2 0x23C5 JUMP JUMPDEST PUSH1 0x4 PUSH1 0x0 DUP5 PUSH20 0xFFFFFFFFFFFFFFFFFFFFFFFFFFFFFFFFFFFFFFFF AND PUSH20 0xFFFFFFFFFFFFFFFFFFFFFFFFFFFFFFFFFFFFFFFF AND DUP2 MSTORE PUSH1 0x20 ADD SWAP1 DUP2 MSTORE PUSH1 0x20 ADD PUSH1 0x0 KECCAK256 PUSH1 0x0 SWAP1 SLOAD SWAP1 PUSH2 0x100 EXP SWAP1 DIV PUSH1 0xFF AND ISZERO DUP1 ISZERO PUSH2 0x2231 JUMPI POP PUSH1 0x4 PUSH1 0x0 DUP4 PUSH20 0xFFFFFFFFFFFFFFFFFFFFFFFFFFFFFFFFFFFFFFFF AND PUSH20 0xFFFFFFFFFFFFFFFFFFFFFFFFFFFFFFFFFFFFFFFF AND DUP2 MSTORE PUSH1 0x20 ADD SWAP1 DUP2 MSTORE PUSH1 0x20 ADD PUSH1 0x0 KECCAK256 PUSH1 0x0 SWAP1 SLOAD SWAP1 PUSH2 0x100 EXP SWAP1 DIV PUSH1 0xFF AND JUMPDEST ISZERO PUSH2 0x2246 JUMPI PUSH2 0x2241 DUP4 DUP4 DUP4 PUSH2 0x2802 JUMP JUMPDEST PUSH2 0x23C4 JUMP JUMPDEST PUSH1 0x4 PUSH1 0x0 DUP5 PUSH20 0xFFFFFFFFFFFFFFFFFFFFFFFFFFFFFFFFFFFFFFFF AND PUSH20 0xFFFFFFFFFFFFFFFFFFFFFFFFFFFFFFFFFFFFFFFF AND DUP2 MSTORE PUSH1 0x20 ADD SWAP1 DUP2 MSTORE PUSH1 0x20 ADD PUSH1 0x0 KECCAK256 PUSH1 0x0 SWAP1 SLOAD SWAP1 PUSH2 0x100 EXP SWAP1 DIV PUSH1 0xFF AND ISZERO DUP1 ISZERO PUSH2 0x22EA JUMPI POP PUSH1 0x4 PUSH1 0x0 DUP4 PUSH20 0xFFFFFFFFFFFFFFFFFFFFFFFFFFFFFFFFFFFFFFFF AND PUSH20 0xFFFFFFFFFFFFFFFFFFFFFFFFFFFFFFFFFFFFFFFF AND DUP2 MSTORE PUSH1 0x20 ADD SWAP1 DUP2 MSTORE PUSH1 0x20 ADD PUSH1 0x0 KECCAK256 PUSH1 0x0 SWAP1 SLOAD SWAP1 PUSH2 0x100 EXP SWAP1 DIV PUSH1 0xFF AND ISZERO JUMPDEST ISZERO PUSH2 0x22FF JUMPI PUSH2 0x22FA DUP4 DUP4 DUP4 PUSH2 0x2A55 JUMP JUMPDEST PUSH2 0x23C3 JUMP JUMPDEST PUSH1 0x4 PUSH1 0x0 DUP5 PUSH20 0xFFFFFFFFFFFFFFFFFFFFFFFFFFFFFFFFFFFFFFFF AND PUSH20 0xFFFFFFFFFFFFFFFFFFFFFFFFFFFFFFFFFFFFFFFF AND DUP2 MSTORE PUSH1 0x20 ADD SWAP1 DUP2 MSTORE PUSH1 0x20 ADD PUSH1 0x0 KECCAK256 PUSH1 0x0 SWAP1 SLOAD SWAP1 PUSH2 0x100 EXP SWAP1 DIV PUSH1 0xFF AND DUP1 ISZERO PUSH2 0x23A1 JUMPI POP PUSH1 0x4 PUSH1 0x0 DUP4 PUSH20 0xFFFFFFFFFFFFFFFFFFFFFFFFFFFFFFFFFFFFFFFF AND PUSH20 0xFFFFFFFFFFFFFFFFFFFFFFFFFFFFFFFFFFFFFFFF AND DUP2 MSTORE PUSH1 0x20 ADD SWAP1 DUP2 MSTORE PUSH1 0x20 ADD PUSH1 0x0 KECCAK256 PUSH1 0x0 SWAP1 SLOAD SWAP1 PUSH2 0x100 EXP SWAP1 DIV PUSH1 0xFF AND JUMPDEST ISZERO PUSH2 0x23B6 JUMPI PUSH2 0x23B1 DUP4 DUP4 DUP4 PUSH2 0x2C13 JUMP JUMPDEST PUSH2 0x23C2 JUMP JUMPDEST PUSH2 0x23C1 DUP4 DUP4 DUP4 PUSH2 0x2A55 JUMP JUMPDEST JUMPDEST JUMPDEST JUMPDEST JUMPDEST POP POP POP JUMP JUMPDEST PUSH1 0x0 DUP4 DUP4 GT ISZERO DUP3 SWAP1 PUSH2 0x2477 JUMPI PUSH1 0x40 MLOAD PUSH32 0x8C379A000000000000000000000000000000000000000000000000000000000 DUP2 MSTORE PUSH1 0x4 ADD DUP1 DUP1 PUSH1 0x20 ADD DUP3 DUP2 SUB DUP3 MSTORE DUP4 DUP2 DUP2 MLOAD DUP2 MSTORE PUSH1 0x20 ADD SWAP2 POP DUP1 MLOAD SWAP1 PUSH1 0x20 ADD SWAP1 DUP1 DUP4 DUP4 PUSH1 0x0 JUMPDEST DUP4 DUP2 LT ISZERO PUSH2 0x243C JUMPI DUP1 DUP3 ADD MLOAD DUP2 DUP5 ADD MSTORE PUSH1 0x20 DUP2 ADD SWAP1 POP PUSH2 0x2421 JUMP JUMPDEST POP POP POP POP SWAP1 POP SWAP1 DUP2 ADD SWAP1 PUSH1 0x1F AND DUP1 ISZERO PUSH2 0x2469 JUMPI DUP1 DUP3 SUB DUP1 MLOAD PUSH1 0x1 DUP4 PUSH1 0x20 SUB PUSH2 0x100 EXP SUB NOT AND DUP2 MSTORE PUSH1 0x20 ADD SWAP2 POP JUMPDEST POP SWAP3 POP POP POP PUSH1 0x40 MLOAD DUP1 SWAP2 SUB SWAP1 REVERT JUMPDEST POP PUSH1 0x0 DUP4 DUP6 SUB SWAP1 POP DUP1 SWAP2 POP POP SWAP4 SWAP3 POP POP POP JUMP JUMPDEST PUSH1 0x0 DUP1 PUSH1 0x0 PUSH2 0x2497 PUSH2 0x2EFB JUMP JUMPDEST SWAP2 POP SWAP2 POP PUSH2 0x24AE DUP2 DUP4 PUSH2 0x24B5 SWAP1 SWAP2 SWAP1 PUSH4 0xFFFFFFFF AND JUMP JUMPDEST SWAP3 POP POP POP SWAP1 JUMP JUMPDEST PUSH1 0x0 PUSH2 0x24F7 DUP4 DUP4 PUSH1 0x40 MLOAD DUP1 PUSH1 0x40 ADD PUSH1 0x40 MSTORE DUP1 PUSH1 0x1A DUP2 MSTORE PUSH1 0x20 ADD PUSH32 0x536166654D6174683A206469766973696F6E206279207A65726F000000000000 DUP2 MSTORE POP PUSH2 0x31B0 JUMP JUMPDEST SWAP1 POP SWAP3 SWAP2 POP POP JUMP JUMPDEST PUSH1 0x0 DUP1 PUSH1 0x0 PUSH2 0x252B PUSH1 0x2 PUSH2 0x251D PUSH1 0x64 DUP8 PUSH2 0x24B5 SWAP1 SWAP2 SWAP1 PUSH4 0xFFFFFFFF AND JUMP JUMPDEST PUSH2 0x3276 SWAP1 SWAP2 SWAP1 PUSH4 0xFFFFFFFF AND JUMP JUMPDEST SWAP1 POP PUSH1 0x0 PUSH2 0x2542 DUP3 DUP7 PUSH2 0x1CA8 SWAP1 SWAP2 SWAP1 PUSH4 0xFFFFFFFF AND JUMP JUMPDEST SWAP1 POP DUP1 DUP3 SWAP4 POP SWAP4 POP POP POP SWAP2 POP SWAP2 JUMP JUMPDEST PUSH1 0x0 DUP1 PUSH1 0x0 DUP1 PUSH2 0x256A DUP6 DUP9 PUSH2 0x3276 SWAP1 SWAP2 SWAP1 PUSH4 0xFFFFFFFF AND JUMP JUMPDEST SWAP1 POP PUSH1 0x0 PUSH2 0x2581 DUP7 DUP9 PUSH2 0x3276 SWAP1 SWAP2 SWAP1 PUSH4 0xFFFFFFFF AND JUMP JUMPDEST SWAP1 POP PUSH1 0x0 PUSH2 0x2598 DUP3 DUP5 PUSH2 0x1CA8 SWAP1 SWAP2 SWAP1 PUSH4 0xFFFFFFFF AND JUMP JUMPDEST SWAP1 POP DUP3 DUP2 DUP4 SWAP6 POP SWAP6 POP SWAP6 POP POP POP POP SWAP4 POP SWAP4 POP SWAP4 SWAP1 POP JUMP JUMPDEST PUSH1 0x0 DUP1 PUSH1 0x0 DUP1 PUSH1 0x0 PUSH2 0x25C0 DUP7 PUSH2 0x1C50 JUMP JUMPDEST SWAP5 POP SWAP5 POP SWAP5 POP SWAP5 POP SWAP5 POP PUSH2 0x261C DUP7 PUSH1 0x2 PUSH1 0x0 DUP12 PUSH20 0xFFFFFFFFFFFFFFFFFFFFFFFFFFFFFFFFFFFFFFFF AND PUSH20 0xFFFFFFFFFFFFFFFFFFFFFFFFFFFFFFFFFFFFFFFF AND DUP2 MSTORE PUSH1 0x20 ADD SWAP1 DUP2 MSTORE PUSH1 0x20 ADD PUSH1 0x0 KECCAK256 SLOAD PUSH2 0x1CA8 SWAP1 SWAP2 SWAP1 PUSH4 0xFFFFFFFF AND JUMP JUMPDEST PUSH1 0x2 PUSH1 0x0 DUP11 PUSH20 0xFFFFFFFFFFFFFFFFFFFFFFFFFFFFFFFFFFFFFFFF AND PUSH20 0xFFFFFFFFFFFFFFFFFFFFFFFFFFFFFFFFFFFFFFFF AND DUP2 MSTORE PUSH1 0x20 ADD SWAP1 DUP2 MSTORE PUSH1 0x20 ADD PUSH1 0x0 KECCAK256 DUP2 SWAP1 SSTORE POP PUSH2 0x26B1 DUP6 PUSH1 0x1 PUSH1 0x0 DUP12 PUSH20 0xFFFFFFFFFFFFFFFFFFFFFFFFFFFFFFFFFFFFFFFF AND PUSH20 0xFFFFFFFFFFFFFFFFFFFFFFFFFFFFFFFFFFFFFFFF AND DUP2 MSTORE PUSH1 0x20 ADD SWAP1 DUP2 MSTORE PUSH1 0x20 ADD PUSH1 0x0 KECCAK256 SLOAD PUSH2 0x1CA8 SWAP1 SWAP2 SWAP1 PUSH4 0xFFFFFFFF AND JUMP JUMPDEST PUSH1 0x1 PUSH1 0x0 DUP11 PUSH20 0xFFFFFFFFFFFFFFFFFFFFFFFFFFFFFFFFFFFFFFFF AND PUSH20 0xFFFFFFFFFFFFFFFFFFFFFFFFFFFFFFFFFFFFFFFF AND DUP2 MSTORE PUSH1 0x20 ADD SWAP1 DUP2 MSTORE PUSH1 0x20 ADD PUSH1 0x0 KECCAK256 DUP2 SWAP1 SSTORE POP PUSH2 0x2746 DUP5 PUSH1 0x1 PUSH1 0x0 DUP11 PUSH20 0xFFFFFFFFFFFFFFFFFFFFFFFFFFFFFFFFFFFFFFFF AND PUSH20 0xFFFFFFFFFFFFFFFFFFFFFFFFFFFFFFFFFFFFFFFF AND DUP2 MSTORE PUSH1 0x20 ADD SWAP1 DUP2 MSTORE PUSH1 0x20 ADD PUSH1 0x0 KECCAK256 SLOAD PUSH2 0x1CF2 SWAP1 SWAP2 SWAP1 PUSH4 0xFFFFFFFF AND JUMP JUMPDEST PUSH1 0x1 PUSH1 0x0 DUP10 PUSH20 0xFFFFFFFFFFFFFFFFFFFFFFFFFFFFFFFFFFFFFFFF AND PUSH20 0xFFFFFFFFFFFFFFFFFFFFFFFFFFFFFFFFFFFFFFFF AND DUP2 MSTORE PUSH1 0x20 ADD SWAP1 DUP2 MSTORE PUSH1 0x20 ADD PUSH1 0x0 KECCAK256 DUP2 SWAP1 SSTORE POP PUSH2 0x2793 DUP4 DUP3 PUSH2 0x32FC JUMP JUMPDEST DUP7 PUSH20 0xFFFFFFFFFFFFFFFFFFFFFFFFFFFFFFFFFFFFFFFF AND DUP9 PUSH20 0xFFFFFFFFFFFFFFFFFFFFFFFFFFFFFFFFFFFFFFFF AND PUSH32 0xDDF252AD1BE2C89B69C2B068FC378DAA952BA7F163C4A11628F55A4DF523B3EF DUP5 PUSH1 0x40 MLOAD DUP1 DUP3 DUP2 MSTORE PUSH1 0x20 ADD SWAP2 POP POP PUSH1 0x40 MLOAD DUP1 SWAP2 SUB SWAP1 LOG3 POP POP POP POP POP POP POP POP JUMP JUMPDEST PUSH1 0x0 DUP1 PUSH1 0x0 DUP1 PUSH1 0x0 PUSH2 0x2813 DUP7 PUSH2 0x1C50 JUMP JUMPDEST SWAP5 POP SWAP5 POP SWAP5 POP SWAP5 POP SWAP5 POP PUSH2 0x286F DUP6 PUSH1 0x1 PUSH1 0x0 DUP12 PUSH20 0xFFFFFFFFFFFFFFFFFFFFFFFFFFFFFFFFFFFFFFFF AND PUSH20 0xFFFFFFFFFFFFFFFFFFFFFFFFFFFFFFFFFFFFFFFF AND DUP2 MSTORE PUSH1 0x20 ADD SWAP1 DUP2 MSTORE PUSH1 0x20 ADD PUSH1 0x0 KECCAK256 SLOAD PUSH2 0x1CA8 SWAP1 SWAP2 SWAP1 PUSH4 0xFFFFFFFF AND JUMP JUMPDEST PUSH1 0x1 PUSH1 0x0 DUP11 PUSH20 0xFFFFFFFFFFFFFFFFFFFFFFFFFFFFFFFFFFFFFFFF AND PUSH20 0xFFFFFFFFFFFFFFFFFFFFFFFFFFFFFFFFFFFFFFFF AND DUP2 MSTORE PUSH1 0x20 ADD SWAP1 DUP2 MSTORE PUSH1 0x20 ADD PUSH1 0x0 KECCAK256 DUP2 SWAP1 SSTORE POP PUSH2 0x2904 DUP3 PUSH1 0x2 PUSH1 0x0 DUP11 PUSH20 0xFFFFFFFFFFFFFFFFFFFFFFFFFFFFFFFFFFFFFFFF AND PUSH20 0xFFFFFFFFFFFFFFFFFFFFFFFFFFFFFFFFFFFFFFFF AND DUP2 MSTORE PUSH1 0x20 ADD SWAP1 DUP2 MSTORE PUSH1 0x20 ADD PUSH1 0x0 KECCAK256 SLOAD PUSH2 0x1CF2 SWAP1 SWAP2 SWAP1 PUSH4 0xFFFFFFFF AND JUMP JUMPDEST PUSH1 0x2 PUSH1 0x0 DUP10 PUSH20 0xFFFFFFFFFFFFFFFFFFFFFFFFFFFFFFFFFFFFFFFF AND PUSH20 0xFFFFFFFFFFFFFFFFFFFFFFFFFFFFFFFFFFFFFFFF AND DUP2 MSTORE PUSH1 0x20 ADD SWAP1 DUP2 MSTORE PUSH1 0x20 ADD PUSH1 0x0 KECCAK256 DUP2 SWAP1 SSTORE POP PUSH2 0x2999 DUP5 PUSH1 0x1 PUSH1 0x0 DUP11 PUSH20 0xFFFFFFFFFFFFFFFFFFFFFFFFFFFFFFFFFFFFFFFF AND PUSH20 0xFFFFFFFFFFFFFFFFFFFFFFFFFFFFFFFFFFFFFFFF AND DUP2 MSTORE PUSH1 0x20 ADD SWAP1 DUP2 MSTORE PUSH1 0x20 ADD PUSH1 0x0 KECCAK256 SLOAD PUSH2 0x1CF2 SWAP1 SWAP2 SWAP1 PUSH4 0xFFFFFFFF AND JUMP JUMPDEST PUSH1 0x1 PUSH1 0x0 DUP10 PUSH20 0xFFFFFFFFFFFFFFFFFFFFFFFFFFFFFFFFFFFFFFFF AND PUSH20 0xFFFFFFFFFFFFFFFFFFFFFFFFFFFFFFFFFFFFFFFF AND DUP2 MSTORE PUSH1 0x20 ADD SWAP1 DUP2 MSTORE PUSH1 0x20 ADD PUSH1 0x0 KECCAK256 DUP2 SWAP1 SSTORE POP PUSH2 0x29E6 DUP4 DUP3 PUSH2 0x32FC JUMP JUMPDEST DUP7 PUSH20 0xFFFFFFFFFFFFFFFFFFFFFFFFFFFFFFFFFFFFFFFF AND DUP9 PUSH20 0xFFFFFFFFFFFFFFFFFFFFFFFFFFFFFFFFFFFFFFFF AND PUSH32 0xDDF252AD1BE2C89B69C2B068FC378DAA952BA7F163C4A11628F55A4DF523B3EF DUP5 PUSH1 0x40 MLOAD DUP1 DUP3 DUP2 MSTORE PUSH1 0x20 ADD SWAP2 POP POP PUSH1 0x40 MLOAD DUP1 SWAP2 SUB SWAP1 LOG3 POP POP POP POP POP POP POP POP JUMP JUMPDEST PUSH1 0x0 DUP1 PUSH1 0x0 DUP1 PUSH1 0x0 PUSH2 0x2A66 DUP7 PUSH2 0x1C50 JUMP JUMPDEST SWAP5 POP SWAP5 POP SWAP5 POP SWAP5 POP SWAP5 POP PUSH2 0x2AC2 DUP6 PUSH1 0x1 PUSH1 0x0 DUP12 PUSH20 0xFFFFFFFFFFFFFFFFFFFFFFFFFFFFFFFFFFFFFFFF AND PUSH20 0xFFFFFFFFFFFFFFFFFFFFFFFFFFFFFFFFFFFFFFFF AND DUP2 MSTORE PUSH1 0x20 ADD SWAP1 DUP2 MSTORE PUSH1 0x20 ADD PUSH1 0x0 KECCAK256 SLOAD PUSH2 0x1CA8 SWAP1 SWAP2 SWAP1 PUSH4 0xFFFFFFFF AND JUMP JUMPDEST PUSH1 0x1 PUSH1 0x0 DUP11 PUSH20 0xFFFFFFFFFFFFFFFFFFFFFFFFFFFFFFFFFFFFFFFF AND PUSH20 0xFFFFFFFFFFFFFFFFFFFFFFFFFFFFFFFFFFFFFFFF AND DUP2 MSTORE PUSH1 0x20 ADD SWAP1 DUP2 MSTORE PUSH1 0x20 ADD PUSH1 0x0 KECCAK256 DUP2 SWAP1 SSTORE POP PUSH2 0x2B57 DUP5 PUSH1 0x1 PUSH1 0x0 DUP11 PUSH20 0xFFFFFFFFFFFFFFFFFFFFFFFFFFFFFFFFFFFFFFFF AND PUSH20 0xFFFFFFFFFFFFFFFFFFFFFFFFFFFFFFFFFFFFFFFF AND DUP2 MSTORE PUSH1 0x20 ADD SWAP1 DUP2 MSTORE PUSH1 0x20 ADD PUSH1 0x0 KECCAK256 SLOAD PUSH2 0x1CF2 SWAP1 SWAP2 SWAP1 PUSH4 0xFFFFFFFF AND JUMP JUMPDEST PUSH1 0x1 PUSH1 0x0 DUP10 PUSH20 0xFFFFFFFFFFFFFFFFFFFFFFFFFFFFFFFFFFFFFFFF AND PUSH20 0xFFFFFFFFFFFFFFFFFFFFFFFFFFFFFFFFFFFFFFFF AND DUP2 MSTORE PUSH1 0x20 ADD SWAP1 DUP2 MSTORE PUSH1 0x20 ADD PUSH1 0x0 KECCAK256 DUP2 SWAP1 SSTORE POP PUSH2 0x2BA4 DUP4 DUP3 PUSH2 0x32FC JUMP JUMPDEST DUP7 PUSH20 0xFFFFFFFFFFFFFFFFFFFFFFFFFFFFFFFFFFFFFFFF AND DUP9 PUSH20 0xFFFFFFFFFFFFFFFFFFFFFFFFFFFFFFFFFFFFFFFF AND PUSH32 0xDDF252AD1BE2C89B69C2B068FC378DAA952BA7F163C4A11628F55A4DF523B3EF DUP5 PUSH1 0x40 MLOAD DUP1 DUP3 DUP2 MSTORE PUSH1 0x20 ADD SWAP2 POP POP PUSH1 0x40 MLOAD DUP1 SWAP2 SUB SWAP1 LOG3 POP POP POP POP POP POP POP POP JUMP JUMPDEST PUSH1 0x0 DUP1 PUSH1 0x0 DUP1 PUSH1 0x0 PUSH2 0x2C24 DUP7 PUSH2 0x1C50 JUMP JUMPDEST SWAP5 POP SWAP5 POP SWAP5 POP SWAP5 POP SWAP5 POP PUSH2 0x2C80 DUP7 PUSH1 0x2 PUSH1 0x0 DUP12 PUSH20 0xFFFFFFFFFFFFFFFFFFFFFFFFFFFFFFFFFFFFFFFF AND PUSH20 0xFFFFFFFFFFFFFFFFFFFFFFFFFFFFFFFFFFFFFFFF AND DUP2 MSTORE PUSH1 0x20 ADD SWAP1 DUP2 MSTORE PUSH1 0x20 ADD PUSH1 0x0 KECCAK256 SLOAD PUSH2 0x1CA8 SWAP1 SWAP2 SWAP1 PUSH4 0xFFFFFFFF AND JUMP JUMPDEST PUSH1 0x2 PUSH1 0x0 DUP11 PUSH20 0xFFFFFFFFFFFFFFFFFFFFFFFFFFFFFFFFFFFFFFFF AND PUSH20 0xFFFFFFFFFFFFFFFFFFFFFFFFFFFFFFFFFFFFFFFF AND DUP2 MSTORE PUSH1 0x20 ADD SWAP1 DUP2 MSTORE PUSH1 0x20 ADD PUSH1 0x0 KECCAK256 DUP2 SWAP1 SSTORE POP PUSH2 0x2D15 DUP6 PUSH1 0x1 PUSH1 0x0 DUP12 PUSH20 0xFFFFFFFFFFFFFFFFFFFFFFFFFFFFFFFFFFFFFFFF AND PUSH20 0xFFFFFFFFFFFFFFFFFFFFFFFFFFFFFFFFFFFFFFFF AND DUP2 MSTORE PUSH1 0x20 ADD SWAP1 DUP2 MSTORE PUSH1 0x20 ADD PUSH1 0x0 KECCAK256 SLOAD PUSH2 0x1CA8 SWAP1 SWAP2 SWAP1 PUSH4 0xFFFFFFFF AND JUMP JUMPDEST PUSH1 0x1 PUSH1 0x0 DUP11 PUSH20 0xFFFFFFFFFFFFFFFFFFFFFFFFFFFFFFFFFFFFFFFF AND PUSH20 0xFFFFFFFFFFFFFFFFFFFFFFFFFFFFFFFFFFFFFFFF AND DUP2 MSTORE PUSH1 0x20 ADD SWAP1 DUP2 MSTORE PUSH1 0x20 ADD PUSH1 0x0 KECCAK256 DUP2 SWAP1 SSTORE POP PUSH2 0x2DAA DUP3 PUSH1 0x2 PUSH1 0x0 DUP11 PUSH20 0xFFFFFFFFFFFFFFFFFFFFFFFFFFFFFFFFFFFFFFFF AND PUSH20 0xFFFFFFFFFFFFFFFFFFFFFFFFFFFFFFFFFFFFFFFF AND DUP2 MSTORE PUSH1 0x20 ADD SWAP1 DUP2 MSTORE PUSH1 0x20 ADD PUSH1 0x0 KECCAK256 SLOAD PUSH2 0x1CF2 SWAP1 SWAP2 SWAP1 PUSH4 0xFFFFFFFF AND JUMP JUMPDEST PUSH1 0x2 PUSH1 0x0 DUP10 PUSH20 0xFFFFFFFFFFFFFFFFFFFFFFFFFFFFFFFFFFFFFFFF AND PUSH20 0xFFFFFFFFFFFFFFFFFFFFFFFFFFFFFFFFFFFFFFFF AND DUP2 MSTORE PUSH1 0x20 ADD SWAP1 DUP2 MSTORE PUSH1 0x20 ADD PUSH1 0x0 KECCAK256 DUP2 SWAP1 SSTORE POP PUSH2 0x2E3F DUP5 PUSH1 0x1 PUSH1 0x0 DUP11 PUSH20 0xFFFFFFFFFFFFFFFFFFFFFFFFFFFFFFFFFFFFFFFF AND PUSH20 0xFFFFFFFFFFFFFFFFFFFFFFFFFFFFFFFFFFFFFFFF AND DUP2 MSTORE PUSH1 0x20 ADD SWAP1 DUP2 MSTORE PUSH1 0x20 ADD PUSH1 0x0 KECCAK256 SLOAD PUSH2 0x1CF2 SWAP1 SWAP2 SWAP1 PUSH4 0xFFFFFFFF AND JUMP JUMPDEST PUSH1 0x1 PUSH1 0x0 DUP10 PUSH20 0xFFFFFFFFFFFFFFFFFFFFFFFFFFFFFFFFFFFFFFFF AND PUSH20 0xFFFFFFFFFFFFFFFFFFFFFFFFFFFFFFFFFFFFFFFF AND DUP2 MSTORE PUSH1 0x20 ADD SWAP1 DUP2 MSTORE PUSH1 0x20 ADD PUSH1 0x0 KECCAK256 DUP2 SWAP1 SSTORE POP PUSH2 0x2E8C DUP4 DUP3 PUSH2 0x32FC JUMP JUMPDEST DUP7 PUSH20 0xFFFFFFFFFFFFFFFFFFFFFFFFFFFFFFFFFFFFFFFF AND DUP9 PUSH20 0xFFFFFFFFFFFFFFFFFFFFFFFFFFFFFFFFFFFFFFFF AND PUSH32 0xDDF252AD1BE2C89B69C2B068FC378DAA952BA7F163C4A11628F55A4DF523B3EF DUP5 PUSH1 0x40 MLOAD DUP1 DUP3 DUP2 MSTORE PUSH1 0x20 ADD SWAP2 POP POP PUSH1 0x40 MLOAD DUP1 SWAP2 SUB SWAP1 LOG3 POP POP POP POP POP POP POP POP JUMP JUMPDEST PUSH1 0x0 DUP1 PUSH1 0x0 PUSH1 0x6 SLOAD SWAP1 POP PUSH1 0x0 PUSH11 0x52B7D2DCC80CD2E4000000 SWAP1 POP PUSH1 0x0 JUMPDEST PUSH1 0x5 DUP1 SLOAD SWAP1 POP DUP2 LT ISZERO PUSH2 0x3161 JUMPI DUP3 PUSH1 0x1 PUSH1 0x0 PUSH1 0x5 DUP5 DUP2 SLOAD DUP2 LT PUSH2 0x2F37 JUMPI INVALID JUMPDEST SWAP1 PUSH1 0x0 MSTORE PUSH1 0x20 PUSH1 0x0 KECCAK256 ADD PUSH1 0x0 SWAP1 SLOAD SWAP1 PUSH2 0x100 EXP SWAP1 DIV PUSH20 0xFFFFFFFFFFFFFFFFFFFFFFFFFFFFFFFFFFFFFFFF AND PUSH20 0xFFFFFFFFFFFFFFFFFFFFFFFFFFFFFFFFFFFFFFFF AND PUSH20 0xFFFFFFFFFFFFFFFFFFFFFFFFFFFFFFFFFFFFFFFF AND DUP2 MSTORE PUSH1 0x20 ADD SWAP1 DUP2 MSTORE PUSH1 0x20 ADD PUSH1 0x0 KECCAK256 SLOAD GT DUP1 PUSH2 0x301E JUMPI POP DUP2 PUSH1 0x2 PUSH1 0x0 PUSH1 0x5 DUP5 DUP2 SLOAD DUP2 LT PUSH2 0x2FB6 JUMPI INVALID JUMPDEST SWAP1 PUSH1 0x0 MSTORE PUSH1 0x20 PUSH1 0x0 KECCAK256 ADD PUSH1 0x0 SWAP1 SLOAD SWAP1 PUSH2 0x100 EXP SWAP1 DIV PUSH20 0xFFFFFFFFFFFFFFFFFFFFFFFFFFFFFFFFFFFFFFFF AND PUSH20 0xFFFFFFFFFFFFFFFFFFFFFFFFFFFFFFFFFFFFFFFF AND PUSH20 0xFFFFFFFFFFFFFFFFFFFFFFFFFFFFFFFFFFFFFFFF AND DUP2 MSTORE PUSH1 0x20 ADD SWAP1 DUP2 MSTORE PUSH1 0x20 ADD PUSH1 0x0 KECCAK256 SLOAD GT JUMPDEST ISZERO PUSH2 0x303E JUMPI PUSH1 0x6 SLOAD PUSH11 0x52B7D2DCC80CD2E4000000 SWAP5 POP SWAP5 POP POP POP POP PUSH2 0x31AC JUMP JUMPDEST PUSH2 0x30C7 PUSH1 0x1 PUSH1 0x0 PUSH1 0x5 DUP5 DUP2 SLOAD DUP2 LT PUSH2 0x3052 JUMPI INVALID JUMPDEST SWAP1 PUSH1 0x0 MSTORE PUSH1 0x20 PUSH1 0x0 KECCAK256 ADD PUSH1 0x0 SWAP1 SLOAD SWAP1 PUSH2 0x100 EXP SWAP1 DIV PUSH20 0xFFFFFFFFFFFFFFFFFFFFFFFFFFFFFFFFFFFFFFFF AND PUSH20 0xFFFFFFFFFFFFFFFFFFFFFFFFFFFFFFFFFFFFFFFF AND PUSH20 0xFFFFFFFFFFFFFFFFFFFFFFFFFFFFFFFFFFFFFFFF AND DUP2 MSTORE PUSH1 0x20 ADD SWAP1 DUP2 MSTORE PUSH1 0x20 ADD PUSH1 0x0 KECCAK256 SLOAD DUP5 PUSH2 0x1CA8 SWAP1 SWAP2 SWAP1 PUSH4 0xFFFFFFFF AND JUMP JUMPDEST SWAP3 POP PUSH2 0x3152 PUSH1 0x2 PUSH1 0x0 PUSH1 0x5 DUP5 DUP2 SLOAD DUP2 LT PUSH2 0x30DD JUMPI INVALID JUMPDEST SWAP1 PUSH1 0x0 MSTORE PUSH1 0x20 PUSH1 0x0 KECCAK256 ADD PUSH1 0x0 SWAP1 SLOAD SWAP1 PUSH2 0x100 EXP SWAP1 DIV PUSH20 0xFFFFFFFFFFFFFFFFFFFFFFFFFFFFFFFFFFFFFFFF AND PUSH20 0xFFFFFFFFFFFFFFFFFFFFFFFFFFFFFFFFFFFFFFFF AND PUSH20 0xFFFFFFFFFFFFFFFFFFFFFFFFFFFFFFFFFFFFFFFF AND DUP2 MSTORE PUSH1 0x20 ADD SWAP1 DUP2 MSTORE PUSH1 0x20 ADD PUSH1 0x0 KECCAK256 SLOAD DUP4 PUSH2 0x1CA8 SWAP1 SWAP2 SWAP1 PUSH4 0xFFFFFFFF AND JUMP JUMPDEST SWAP2 POP DUP1 DUP1 PUSH1 0x1 ADD SWAP2 POP POP PUSH2 0x2F18 JUMP JUMPDEST POP PUSH2 0x3182 PUSH11 0x52B7D2DCC80CD2E4000000 PUSH1 0x6 SLOAD PUSH2 0x24B5 SWAP1 SWAP2 SWAP1 PUSH4 0xFFFFFFFF AND JUMP JUMPDEST DUP3 LT ISZERO PUSH2 0x31A3 JUMPI PUSH1 0x6 SLOAD PUSH11 0x52B7D2DCC80CD2E4000000 SWAP4 POP SWAP4 POP POP POP PUSH2 0x31AC JUMP JUMPDEST DUP2 DUP2 SWAP4 POP SWAP4 POP POP POP JUMPDEST SWAP1 SWAP2 JUMP JUMPDEST PUSH1 0x0 DUP1 DUP4 GT DUP3 SWAP1 PUSH2 0x325C JUMPI PUSH1 0x40 MLOAD PUSH32 0x8C379A000000000000000000000000000000000000000000000000000000000 DUP2 MSTORE PUSH1 0x4 ADD DUP1 DUP1 PUSH1 0x20 ADD DUP3 DUP2 SUB DUP3 MSTORE DUP4 DUP2 DUP2 MLOAD DUP2 MSTORE PUSH1 0x20 ADD SWAP2 POP DUP1 MLOAD SWAP1 PUSH1 0x20 ADD SWAP1 DUP1 DUP4 DUP4 PUSH1 0x0 JUMPDEST DUP4 DUP2 LT ISZERO PUSH2 0x3221 JUMPI DUP1 DUP3 ADD MLOAD DUP2 DUP5 ADD MSTORE PUSH1 0x20 DUP2 ADD SWAP1 POP PUSH2 0x3206 JUMP JUMPDEST POP POP POP POP SWAP1 POP SWAP1 DUP2 ADD SWAP1 PUSH1 0x1F AND DUP1 ISZERO PUSH2 0x324E JUMPI DUP1 DUP3 SUB DUP1 MLOAD PUSH1 0x1 DUP4 PUSH1 0x20 SUB PUSH2 0x100 EXP SUB NOT AND DUP2 MSTORE PUSH1 0x20 ADD SWAP2 POP JUMPDEST POP SWAP3 POP POP POP PUSH1 0x40 MLOAD DUP1 SWAP2 SUB SWAP1 REVERT JUMPDEST POP PUSH1 0x0 DUP4 DUP6 DUP2 PUSH2 0x3268 JUMPI INVALID JUMPDEST DIV SWAP1 POP DUP1 SWAP2 POP POP SWAP4 SWAP3 POP POP POP JUMP JUMPDEST PUSH1 0x0 DUP1 DUP4 EQ ISZERO PUSH2 0x3289 JUMPI PUSH1 0x0 SWAP1 POP PUSH2 0x32F6 JUMP JUMPDEST PUSH1 0x0 DUP3 DUP5 MUL SWAP1 POP DUP3 DUP5 DUP3 DUP2 PUSH2 0x329A JUMPI INVALID JUMPDEST DIV EQ PUSH2 0x32F1 JUMPI PUSH1 0x40 MLOAD PUSH32 0x8C379A000000000000000000000000000000000000000000000000000000000 DUP2 MSTORE PUSH1 0x4 ADD DUP1 DUP1 PUSH1 0x20 ADD DUP3 DUP2 SUB DUP3 MSTORE PUSH1 0x21 DUP2 MSTORE PUSH1 0x20 ADD DUP1 PUSH2 0x33CC PUSH1 0x21 SWAP2 CODECOPY PUSH1 0x40 ADD SWAP2 POP POP PUSH1 0x40 MLOAD DUP1 SWAP2 SUB SWAP1 REVERT JUMPDEST DUP1 SWAP2 POP POP JUMPDEST SWAP3 SWAP2 POP POP JUMP JUMPDEST PUSH2 0x3311 DUP3 PUSH1 0x6 SLOAD PUSH2 0x1CA8 SWAP1 SWAP2 SWAP1 PUSH4 0xFFFFFFFF AND JUMP JUMPDEST PUSH1 0x6 DUP2 SWAP1 SSTORE POP PUSH2 0x332C DUP2 PUSH1 0x7 SLOAD PUSH2 0x1CF2 SWAP1 SWAP2 SWAP1 PUSH4 0xFFFFFFFF AND JUMP JUMPDEST PUSH1 0x7 DUP2 SWAP1 SSTORE POP POP POP JUMP INVALID GASLIMIT MSTORE NUMBER ORIGIN ADDRESS GASPRICE KECCAK256 PUSH21 0x72616E7366657220746F20746865207A65726F2061 PUSH5 0x6472657373 COINBASE PUSH14 0x6F756E74206D757374206265206C PUSH6 0x737320746861 PUSH15 0x20746F74616C207265666C65637469 PUSH16 0x6E734F776E61626C653A206E6577206F PUSH24 0x6E657220697320746865207A65726F206164647265737345 MSTORE NUMBER ORIGIN ADDRESS GASPRICE KECCAK256 PUSH2 0x7070 PUSH19 0x6F766520746F20746865207A65726F20616464 PUSH19 0x657373536166654D6174683A206D756C746970 PUSH13 0x69636174696F6E206F76657266 PUSH13 0x6F7745524332303A207472616E PUSH20 0x66657220616D6F756E7420657863656564732061 PUSH13 0x6C6F77616E63655472616E7366 PUSH6 0x7220616D6F75 PUSH15 0x74206D757374206265206772656174 PUSH6 0x72207468616E KECCAK256 PUSH27 0x65726F45524332303A207472616E736665722066726F6D20746865 KECCAK256 PUSH27 0x65726F206164647265737345524332303A20617070726F76652066 PUSH19 0x6F6D20746865207A65726F2061646472657373 GASLIMIT PUSH25 0x636C75646564206164647265737365732063616E6E6F742063 PUSH2 0x6C6C KECCAK256 PUSH21 0x6869732066756E6374696F6E45524332303A206465 PUSH4 0x72656173 PUSH6 0x6420616C6C6F PUSH24 0x616E63652062656C6F77207A65726FA26469706673582212 KECCAK256 MSTORE DUP15 CALLER PUSH21 0x50E1DBFAC67E4F0D6E939B0D2B8148E579FE6A073A SHR DUP7 PUSH14 0x773EC16964736F6C634300060C00 CALLER "
				},
				"gasEstimates": {
					"creation": {
						"codeDepositCost": "2716200",
						"executionCost": "infinite",
						"totalCost": "infinite"
					},
					"external": {
						"_allowances(address,address)": "1291",
						"_rOwned(address)": "1281",
						"_tOwned(address)": "1302",
						"allowance(address,address)": "1387",
						"approve(address,uint256)": "infinite",
						"balanceOf(address)": "infinite",
						"decimals()": "1144",
						"decreaseAllowance(address,uint256)": "infinite",
						"excludeAccount(address)": "infinite",
						"includeAccount(address)": "infinite",
						"increaseAllowance(address,uint256)": "infinite",
						"isExcluded(address)": "1282",
						"name()": "infinite",
						"owner()": "1144",
						"reflect(uint256)": "infinite",
						"reflectionFromToken(uint256,bool)": "infinite",
						"renounceOwnership()": "24358",
						"symbol()": "infinite",
						"tokenFromReflection(uint256)": "infinite",
						"totalFees()": "1147",
						"totalSupply()": "236",
						"transfer(address,uint256)": "infinite",
						"transferFrom(address,address,uint256)": "infinite",
						"transferOwnership(address)": "infinite"
					},
					"internal": {
						"_approve(address,address,uint256)": "infinite",
						"_getCurrentSupply()": "infinite",
						"_getRValues(uint256,uint256,uint256)": "infinite",
						"_getRate()": "infinite",
						"_getTValues(uint256)": "infinite",
						"_getValues(uint256)": "infinite",
						"_reflectFee(uint256,uint256)": "infinite",
						"_transfer(address,address,uint256)": "infinite",
						"_transferBothExcluded(address,address,uint256)": "infinite",
						"_transferFromExcluded(address,address,uint256)": "infinite",
						"_transferStandard(address,address,uint256)": "infinite",
						"_transferToExcluded(address,address,uint256)": "infinite"
					}
				},
				"methodIdentifiers": {
					"_allowances(address,address)": "024c2ddd",
					"_rOwned(address)": "0cfc15f9",
					"_tOwned(address)": "3b7e6d4a",
					"allowance(address,address)": "dd62ed3e",
					"approve(address,uint256)": "095ea7b3",
					"balanceOf(address)": "70a08231",
					"decimals()": "313ce567",
					"decreaseAllowance(address,uint256)": "a457c2d7",
					"excludeAccount(address)": "f2cc0c18",
					"includeAccount(address)": "f84354f1",
					"increaseAllowance(address,uint256)": "39509351",
					"isExcluded(address)": "cba0e996",
					"name()": "06fdde03",
					"owner()": "8da5cb5b",
					"reflect(uint256)": "053ab182",
					"reflectionFromToken(uint256,bool)": "4549b039",
					"renounceOwnership()": "715018a6",
					"symbol()": "95d89b41",
					"tokenFromReflection(uint256)": "2d838119",
					"totalFees()": "13114a9d",
					"totalSupply()": "18160ddd",
					"transfer(address,uint256)": "a9059cbb",
					"transferFrom(address,address,uint256)": "23b872dd",
					"transferOwnership(address)": "f2fde38b"
				}
			},
			"storageLayout": {
				"storage": [
					{
						"astId": 495,
						"contract": "feg.sol:FEG",
						"label": "_owner",
						"offset": 0,
						"slot": "0",
						"type": "t_address"
					},
					{
						"astId": 612,
						"contract": "feg.sol:FEG",
						"label": "_rOwned",
						"offset": 0,
						"slot": "1",
						"type": "t_mapping(t_address,t_uint256)"
					},
					{
						"astId": 616,
						"contract": "feg.sol:FEG",
						"label": "_tOwned",
						"offset": 0,
						"slot": "2",
						"type": "t_mapping(t_address,t_uint256)"
					},
					{
						"astId": 622,
						"contract": "feg.sol:FEG",
						"label": "_allowances",
						"offset": 0,
						"slot": "3",
						"type": "t_mapping(t_address,t_mapping(t_address,t_uint256))"
					},
					{
						"astId": 626,
						"contract": "feg.sol:FEG",
						"label": "_isExcluded",
						"offset": 0,
						"slot": "4",
						"type": "t_mapping(t_address,t_bool)"
					},
					{
						"astId": 629,
						"contract": "feg.sol:FEG",
						"label": "_excluded",
						"offset": 0,
						"slot": "5",
						"type": "t_array(t_address)dyn_storage"
					},
					{
						"astId": 656,
						"contract": "feg.sol:FEG",
						"label": "_rTotal",
						"offset": 0,
						"slot": "6",
						"type": "t_uint256"
					},
					{
						"astId": 658,
						"contract": "feg.sol:FEG",
						"label": "_tFeeTotal",
						"offset": 0,
						"slot": "7",
						"type": "t_uint256"
					},
					{
						"astId": 661,
						"contract": "feg.sol:FEG",
						"label": "_name",
						"offset": 0,
						"slot": "8",
						"type": "t_string_storage"
					},
					{
						"astId": 664,
						"contract": "feg.sol:FEG",
						"label": "_symbol",
						"offset": 0,
						"slot": "9",
						"type": "t_string_storage"
					},
					{
						"astId": 667,
						"contract": "feg.sol:FEG",
						"label": "_decimals",
						"offset": 0,
						"slot": "10",
						"type": "t_uint8"
					}
				],
				"types": {
					"t_address": {
						"encoding": "inplace",
						"label": "address",
						"numberOfBytes": "20"
					},
					"t_array(t_address)dyn_storage": {
						"base": "t_address",
						"encoding": "dynamic_array",
						"label": "address[]",
						"numberOfBytes": "32"
					},
					"t_bool": {
						"encoding": "inplace",
						"label": "bool",
						"numberOfBytes": "1"
					},
					"t_mapping(t_address,t_bool)": {
						"encoding": "mapping",
						"key": "t_address",
						"label": "mapping(address => bool)",
						"numberOfBytes": "32",
						"value": "t_bool"
					},
					"t_mapping(t_address,t_mapping(t_address,t_uint256))": {
						"encoding": "mapping",
						"key": "t_address",
						"label": "mapping(address => mapping(address => uint256))",
						"numberOfBytes": "32",
						"value": "t_mapping(t_address,t_uint256)"
					},
					"t_mapping(t_address,t_uint256)": {
						"encoding": "mapping",
						"key": "t_address",
						"label": "mapping(address => uint256)",
						"numberOfBytes": "32",
						"value": "t_uint256"
					},
					"t_string_storage": {
						"encoding": "bytes",
						"label": "string",
						"numberOfBytes": "32"
					},
					"t_uint256": {
						"encoding": "inplace",
						"label": "uint256",
						"numberOfBytes": "32"
					},
					"t_uint8": {
						"encoding": "inplace",
						"label": "uint8",
						"numberOfBytes": "1"
					}
				}
			},
			"userdoc": {
				"kind": "user",
				"methods": {},
				"version": 1
			}
		}
	}
}