{
	"contract-71ad24318f.sol": {
		"BallotBox": {
			"abi": [
				{
					"inputs": [
						{
							"internalType": "address",
							"name": "_twitt",
							"type": "address"
						}
					],
					"stateMutability": "nonpayable",
					"type": "constructor"
				},
				{
					"anonymous": false,
					"inputs": [
						{
							"indexed": false,
							"internalType": "uint256",
							"name": "balances",
							"type": "uint256"
						}
					],
					"name": "balncer",
					"type": "event"
				},
				{
					"inputs": [],
					"name": "chairperson",
					"outputs": [
						{
							"internalType": "address",
							"name": "",
							"type": "address"
						}
					],
					"stateMutability": "view",
					"type": "function"
				},
				{
					"inputs": [
						{
							"internalType": "uint256",
							"name": "",
							"type": "uint256"
						}
					],
					"name": "proposals",
					"outputs": [
						{
							"internalType": "bytes32",
							"name": "name",
							"type": "bytes32"
						},
						{
							"internalType": "uint256",
							"name": "voteCount",
							"type": "uint256"
						}
					],
					"stateMutability": "view",
					"type": "function"
				},
				{
					"inputs": [],
					"name": "test",
					"outputs": [],
					"stateMutability": "nonpayable",
					"type": "function"
				},
				{
					"inputs": [],
					"name": "twitt",
					"outputs": [
						{
							"internalType": "contract IERC20",
							"name": "",
							"type": "address"
						}
					],
					"stateMutability": "view",
					"type": "function"
				},
				{
					"inputs": [
						{
							"internalType": "uint256",
							"name": "proposal",
							"type": "uint256"
						}
					],
					"name": "vote",
					"outputs": [],
					"stateMutability": "nonpayable",
					"type": "function"
				},
				{
					"inputs": [
						{
							"internalType": "address",
							"name": "",
							"type": "address"
						}
					],
					"name": "voters",
					"outputs": [
						{
							"internalType": "uint256",
							"name": "weight",
							"type": "uint256"
						},
						{
							"internalType": "bool",
							"name": "voted",
							"type": "bool"
						},
						{
							"internalType": "address",
							"name": "delegate",
							"type": "address"
						},
						{
							"internalType": "uint256",
							"name": "vote",
							"type": "uint256"
						}
					],
					"stateMutability": "view",
					"type": "function"
				},
				{
					"inputs": [],
					"name": "winnerName",
					"outputs": [
						{
							"internalType": "bytes32",
							"name": "winnerName_",
							"type": "bytes32"
						}
					],
					"stateMutability": "view",
					"type": "function"
				},
				{
					"inputs": [],
					"name": "winningProposal",
					"outputs": [
						{
							"internalType": "uint256",
							"name": "winningProposal_",
							"type": "uint256"
						}
					],
					"stateMutability": "view",
					"type": "function"
				}
			],
			"devdoc": {
				"kind": "dev",
				"methods": {
					"winningProposal()": {
						"details": "Computes the winning proposal taking all previous votes into account."
					}
				},
				"title": "Voting with delegation.",
				"version": 1
			},
			"evm": {
				"assembly": "    /* \"contract-71ad24318f.sol\":160:2919  contract BallotBox {... */\n  mstore(0x40, 0x80)\n    /* \"contract-71ad24318f.sol\":1499:1567  constructor(address  _twitt) {... */\n  callvalue\n  dup1\n  iszero\n  tag_1\n  jumpi\n  0x00\n  dup1\n  revert\ntag_1:\n  pop\n  mload(0x40)\n  sub(codesize, bytecodeSize)\n  dup1\n  bytecodeSize\n  dup4\n  codecopy\n  dup2\n  dup2\n  add\n  0x40\n  mstore\n  dup2\n  add\n  swap1\n  tag_2\n  swap2\n  swap1\n  tag_3\n  jump\t// in\ntag_2:\n    /* \"contract-71ad24318f.sol\":1553:1559  _twitt */\n  dup1\n    /* \"contract-71ad24318f.sol\":1538:1543  twitt */\n  0x00\n  dup1\n    /* \"contract-71ad24318f.sol\":1538:1560  twitt = IERC20(_twitt) */\n  0x0100\n  exp\n  dup2\n  sload\n  dup2\n  0xffffffffffffffffffffffffffffffffffffffff\n  mul\n  not\n  and\n  swap1\n  dup4\n  0xffffffffffffffffffffffffffffffffffffffff\n  and\n  mul\n  or\n  swap1\n  sstore\n  pop\n    /* \"contract-71ad24318f.sol\":1499:1567  constructor(address  _twitt) {... */\n  pop\n    /* \"contract-71ad24318f.sol\":160:2919  contract BallotBox {... */\n  jump(tag_6)\n    /* \"#utility.yul\":88:205   */\ntag_8:\n    /* \"#utility.yul\":197:198   */\n  0x00\n    /* \"#utility.yul\":194:195   */\n  dup1\n    /* \"#utility.yul\":187:199   */\n  revert\n    /* \"#utility.yul\":334:460   */\ntag_10:\n    /* \"#utility.yul\":371:378   */\n  0x00\n    /* \"#utility.yul\":411:453   */\n  0xffffffffffffffffffffffffffffffffffffffff\n    /* \"#utility.yul\":404:409   */\n  dup3\n    /* \"#utility.yul\":400:454   */\n  and\n    /* \"#utility.yul\":389:454   */\n  swap1\n  pop\n    /* \"#utility.yul\":334:460   */\n  swap2\n  swap1\n  pop\n  jump\t// out\n    /* \"#utility.yul\":466:562   */\ntag_11:\n    /* \"#utility.yul\":503:510   */\n  0x00\n    /* \"#utility.yul\":532:556   */\n  tag_20\n    /* \"#utility.yul\":550:555   */\n  dup3\n    /* \"#utility.yul\":532:556   */\n  tag_10\n  jump\t// in\ntag_20:\n    /* \"#utility.yul\":521:556   */\n  swap1\n  pop\n    /* \"#utility.yul\":466:562   */\n  swap2\n  swap1\n  pop\n  jump\t// out\n    /* \"#utility.yul\":568:690   */\ntag_12:\n    /* \"#utility.yul\":641:665   */\n  tag_22\n    /* \"#utility.yul\":659:664   */\n  dup2\n    /* \"#utility.yul\":641:665   */\n  tag_11\n  jump\t// in\ntag_22:\n    /* \"#utility.yul\":634:639   */\n  dup2\n    /* \"#utility.yul\":631:666   */\n  eq\n    /* \"#utility.yul\":621:684   */\n  tag_23\n  jumpi\n    /* \"#utility.yul\":680:681   */\n  0x00\n    /* \"#utility.yul\":677:678   */\n  dup1\n    /* \"#utility.yul\":670:682   */\n  revert\n    /* \"#utility.yul\":621:684   */\ntag_23:\n    /* \"#utility.yul\":568:690   */\n  pop\n  jump\t// out\n    /* \"#utility.yul\":696:839   */\ntag_13:\n    /* \"#utility.yul\":753:758   */\n  0x00\n    /* \"#utility.yul\":784:790   */\n  dup2\n    /* \"#utility.yul\":778:791   */\n  mload\n    /* \"#utility.yul\":769:791   */\n  swap1\n  pop\n    /* \"#utility.yul\":800:833   */\n  tag_25\n    /* \"#utility.yul\":827:832   */\n  dup2\n    /* \"#utility.yul\":800:833   */\n  tag_12\n  jump\t// in\ntag_25:\n    /* \"#utility.yul\":696:839   */\n  swap3\n  swap2\n  pop\n  pop\n  jump\t// out\n    /* \"#utility.yul\":845:1196   */\ntag_3:\n    /* \"#utility.yul\":915:921   */\n  0x00\n    /* \"#utility.yul\":964:966   */\n  0x20\n    /* \"#utility.yul\":952:961   */\n  dup3\n    /* \"#utility.yul\":943:950   */\n  dup5\n    /* \"#utility.yul\":939:962   */\n  sub\n    /* \"#utility.yul\":935:967   */\n  slt\n    /* \"#utility.yul\":932:1051   */\n  iszero\n  tag_27\n  jumpi\n    /* \"#utility.yul\":970:1049   */\n  tag_28\n  tag_8\n  jump\t// in\ntag_28:\n    /* \"#utility.yul\":932:1051   */\ntag_27:\n    /* \"#utility.yul\":1090:1091   */\n  0x00\n    /* \"#utility.yul\":1115:1179   */\n  tag_29\n    /* \"#utility.yul\":1171:1178   */\n  dup5\n    /* \"#utility.yul\":1162:1168   */\n  dup3\n    /* \"#utility.yul\":1151:1160   */\n  dup6\n    /* \"#utility.yul\":1147:1169   */\n  add\n    /* \"#utility.yul\":1115:1179   */\n  tag_13\n  jump\t// in\ntag_29:\n    /* \"#utility.yul\":1105:1179   */\n  swap2\n  pop\n    /* \"#utility.yul\":1061:1189   */\n  pop\n    /* \"#utility.yul\":845:1196   */\n  swap3\n  swap2\n  pop\n  pop\n  jump\t// out\n    /* \"contract-71ad24318f.sol\":160:2919  contract BallotBox {... */\ntag_6:\n  dataSize(sub_0)\n  dup1\n  dataOffset(sub_0)\n  0x00\n  codecopy\n  0x00\n  return\nstop\n\nsub_0: assembly {\n        /* \"contract-71ad24318f.sol\":160:2919  contract BallotBox {... */\n      mstore(0x40, 0x80)\n      callvalue\n      dup1\n      iszero\n      tag_1\n      jumpi\n      0x00\n      dup1\n      revert\n    tag_1:\n      pop\n      jumpi(tag_2, lt(calldatasize, 0x04))\n      shr(0xe0, calldataload(0x00))\n      dup1\n      0x609ff1bd\n      gt\n      tag_11\n      jumpi\n      dup1\n      0x609ff1bd\n      eq\n      tag_7\n      jumpi\n      dup1\n      0xa3ec138d\n      eq\n      tag_8\n      jumpi\n      dup1\n      0xe2ba53f0\n      eq\n      tag_9\n      jumpi\n      dup1\n      0xf8a8fd6d\n      eq\n      tag_10\n      jumpi\n      jump(tag_2)\n    tag_11:\n      dup1\n      0x0121b93f\n      eq\n      tag_3\n      jumpi\n      dup1\n      0x013cf08b\n      eq\n      tag_4\n      jumpi\n      dup1\n      0x2e4176cf\n      eq\n      tag_5\n      jumpi\n      dup1\n      0x49e0335f\n      eq\n      tag_6\n      jumpi\n    tag_2:\n      0x00\n      dup1\n      revert\n        /* \"contract-71ad24318f.sol\":1685:2145  function vote(uint proposal) external {... */\n    tag_3:\n      tag_12\n      0x04\n      dup1\n      calldatasize\n      sub\n      dup2\n      add\n      swap1\n      tag_13\n      swap2\n      swap1\n      tag_14\n      jump\t// in\n    tag_13:\n      tag_15\n      jump\t// in\n    tag_12:\n      stop\n        /* \"contract-71ad24318f.sol\":1403:1430  Proposal[] public proposals */\n    tag_4:\n      tag_16\n      0x04\n      dup1\n      calldatasize\n      sub\n      dup2\n      add\n      swap1\n      tag_17\n      swap2\n      swap1\n      tag_14\n      jump\t// in\n    tag_17:\n      tag_18\n      jump\t// in\n    tag_16:\n      mload(0x40)\n      tag_19\n      swap3\n      swap2\n      swap1\n      tag_20\n      jump\t// in\n    tag_19:\n      mload(0x40)\n      dup1\n      swap2\n      sub\n      swap1\n      return\n        /* \"contract-71ad24318f.sol\":1167:1193  address public chairperson */\n    tag_5:\n      tag_21\n      tag_22\n      jump\t// in\n    tag_21:\n      mload(0x40)\n      tag_23\n      swap2\n      swap1\n      tag_24\n      jump\t// in\n    tag_23:\n      mload(0x40)\n      dup1\n      swap2\n      sub\n      swap1\n      return\n        /* \"contract-71ad24318f.sol\":313:332  IERC20 public twitt */\n    tag_6:\n      tag_25\n      tag_26\n      jump\t// in\n    tag_25:\n      mload(0x40)\n      tag_27\n      swap2\n      swap1\n      tag_28\n      jump\t// in\n    tag_27:\n      mload(0x40)\n      dup1\n      swap2\n      sub\n      swap1\n      return\n        /* \"contract-71ad24318f.sol\":2242:2607  function winningProposal() public view... */\n    tag_7:\n      tag_29\n      tag_30\n      jump\t// in\n    tag_29:\n      mload(0x40)\n      tag_31\n      swap2\n      swap1\n      tag_32\n      jump\t// in\n    tag_31:\n      mload(0x40)\n      dup1\n      swap2\n      sub\n      swap1\n      return\n        /* \"contract-71ad24318f.sol\":1301:1340  mapping(address => Voter) public voters */\n    tag_8:\n      tag_33\n      0x04\n      dup1\n      calldatasize\n      sub\n      dup2\n      add\n      swap1\n      tag_34\n      swap2\n      swap1\n      tag_35\n      jump\t// in\n    tag_34:\n      tag_36\n      jump\t// in\n    tag_33:\n      mload(0x40)\n      tag_37\n      swap5\n      swap4\n      swap3\n      swap2\n      swap1\n      tag_38\n      jump\t// in\n    tag_37:\n      mload(0x40)\n      dup1\n      swap2\n      sub\n      swap1\n      return\n        /* \"contract-71ad24318f.sol\":2771:2917  function winnerName() external view... */\n    tag_9:\n      tag_39\n      tag_40\n      jump\t// in\n    tag_39:\n      mload(0x40)\n      tag_41\n      swap2\n      swap1\n      tag_42\n      jump\t// in\n    tag_41:\n      mload(0x40)\n      dup1\n      swap2\n      sub\n      swap1\n      return\n        /* \"contract-71ad24318f.sol\":650:731  function test() public {... */\n    tag_10:\n      tag_43\n      tag_44\n      jump\t// in\n    tag_43:\n      stop\n        /* \"contract-71ad24318f.sol\":1685:2145  function vote(uint proposal) external {... */\n    tag_15:\n        /* \"contract-71ad24318f.sol\":1733:1753  Voter storage sender */\n      0x00\n        /* \"contract-71ad24318f.sol\":1756:1762  voters */\n      0x02\n        /* \"contract-71ad24318f.sol\":1756:1774  voters[msg.sender] */\n      0x00\n        /* \"contract-71ad24318f.sol\":1763:1773  msg.sender */\n      caller\n        /* \"contract-71ad24318f.sol\":1756:1774  voters[msg.sender] */\n      0xffffffffffffffffffffffffffffffffffffffff\n      and\n      0xffffffffffffffffffffffffffffffffffffffff\n      and\n      dup2\n      mstore\n      0x20\n      add\n      swap1\n      dup2\n      mstore\n      0x20\n      add\n      0x00\n      keccak256\n        /* \"contract-71ad24318f.sol\":1733:1774  Voter storage sender = voters[msg.sender] */\n      swap1\n      pop\n        /* \"contract-71ad24318f.sol\":1809:1810  0 */\n      0x00\n        /* \"contract-71ad24318f.sol\":1792:1798  sender */\n      dup2\n        /* \"contract-71ad24318f.sol\":1792:1805  sender.weight */\n      0x00\n      add\n      sload\n        /* \"contract-71ad24318f.sol\":1792:1810  sender.weight != 0 */\n      sub\n        /* \"contract-71ad24318f.sol\":1784:1835  require(sender.weight != 0, \"Has no right to vote\") */\n      tag_46\n      jumpi\n      mload(0x40)\n      0x08c379a000000000000000000000000000000000000000000000000000000000\n      dup2\n      mstore\n      0x04\n      add\n      tag_47\n      swap1\n      tag_48\n      jump\t// in\n    tag_47:\n      mload(0x40)\n      dup1\n      swap2\n      sub\n      swap1\n      revert\n    tag_46:\n        /* \"contract-71ad24318f.sol\":1854:1860  sender */\n      dup1\n        /* \"contract-71ad24318f.sol\":1854:1866  sender.voted */\n      0x01\n      add\n      0x00\n      swap1\n      sload\n      swap1\n      0x0100\n      exp\n      swap1\n      div\n      0xff\n      and\n        /* \"contract-71ad24318f.sol\":1853:1866  !sender.voted */\n      iszero\n        /* \"contract-71ad24318f.sol\":1845:1885  require(!sender.voted, \"Already voted.\") */\n      tag_49\n      jumpi\n      mload(0x40)\n      0x08c379a000000000000000000000000000000000000000000000000000000000\n      dup2\n      mstore\n      0x04\n      add\n      tag_50\n      swap1\n      tag_51\n      jump\t// in\n    tag_50:\n      mload(0x40)\n      dup1\n      swap2\n      sub\n      swap1\n      revert\n    tag_49:\n        /* \"contract-71ad24318f.sol\":1910:1914  true */\n      0x01\n        /* \"contract-71ad24318f.sol\":1895:1901  sender */\n      dup2\n        /* \"contract-71ad24318f.sol\":1895:1907  sender.voted */\n      0x01\n      add\n      0x00\n        /* \"contract-71ad24318f.sol\":1895:1914  sender.voted = true */\n      0x0100\n      exp\n      dup2\n      sload\n      dup2\n      0xff\n      mul\n      not\n      and\n      swap1\n      dup4\n      iszero\n      iszero\n      mul\n      or\n      swap1\n      sstore\n      pop\n        /* \"contract-71ad24318f.sol\":1938:1946  proposal */\n      dup2\n        /* \"contract-71ad24318f.sol\":1924:1930  sender */\n      dup2\n        /* \"contract-71ad24318f.sol\":1924:1935  sender.vote */\n      0x02\n      add\n        /* \"contract-71ad24318f.sol\":1924:1946  sender.vote = proposal */\n      dup2\n      swap1\n      sstore\n      pop\n        /* \"contract-71ad24318f.sol\":2125:2131  sender */\n      dup1\n        /* \"contract-71ad24318f.sol\":2125:2138  sender.weight */\n      0x00\n      add\n      sload\n        /* \"contract-71ad24318f.sol\":2092:2101  proposals */\n      0x03\n        /* \"contract-71ad24318f.sol\":2102:2110  proposal */\n      dup4\n        /* \"contract-71ad24318f.sol\":2092:2111  proposals[proposal] */\n      dup2\n      sload\n      dup2\n      lt\n      tag_52\n      jumpi\n      tag_53\n      tag_54\n      jump\t// in\n    tag_53:\n    tag_52:\n      swap1\n      0x00\n      mstore\n      keccak256(0x00, 0x20)\n      swap1\n      0x02\n      mul\n      add\n        /* \"contract-71ad24318f.sol\":2092:2121  proposals[proposal].voteCount */\n      0x01\n      add\n      0x00\n        /* \"contract-71ad24318f.sol\":2092:2138  proposals[proposal].voteCount += sender.weight */\n      dup3\n      dup3\n      sload\n      tag_56\n      swap2\n      swap1\n      tag_57\n      jump\t// in\n    tag_56:\n      swap3\n      pop\n      pop\n      dup2\n      swap1\n      sstore\n      pop\n        /* \"contract-71ad24318f.sol\":1723:2145  {... */\n      pop\n        /* \"contract-71ad24318f.sol\":1685:2145  function vote(uint proposal) external {... */\n      pop\n      jump\t// out\n        /* \"contract-71ad24318f.sol\":1403:1430  Proposal[] public proposals */\n    tag_18:\n      0x03\n      dup2\n      dup2\n      sload\n      dup2\n      lt\n      tag_58\n      jumpi\n      0x00\n      dup1\n      revert\n    tag_58:\n      swap1\n      0x00\n      mstore\n      keccak256(0x00, 0x20)\n      swap1\n      0x02\n      mul\n      add\n      0x00\n      swap2\n      pop\n      swap1\n      pop\n      dup1\n      0x00\n      add\n      sload\n      swap1\n      dup1\n      0x01\n      add\n      sload\n      swap1\n      pop\n      dup3\n      jump\t// out\n        /* \"contract-71ad24318f.sol\":1167:1193  address public chairperson */\n    tag_22:\n      0x01\n      0x00\n      swap1\n      sload\n      swap1\n      0x0100\n      exp\n      swap1\n      div\n      0xffffffffffffffffffffffffffffffffffffffff\n      and\n      dup2\n      jump\t// out\n        /* \"contract-71ad24318f.sol\":313:332  IERC20 public twitt */\n    tag_26:\n      0x00\n      dup1\n      sload\n      swap1\n      0x0100\n      exp\n      swap1\n      div\n      0xffffffffffffffffffffffffffffffffffffffff\n      and\n      dup2\n      jump\t// out\n        /* \"contract-71ad24318f.sol\":2242:2607  function winningProposal() public view... */\n    tag_30:\n        /* \"contract-71ad24318f.sol\":2302:2323  uint winningProposal_ */\n      0x00\n        /* \"contract-71ad24318f.sol\":2339:2360  uint winningVoteCount */\n      dup1\n        /* \"contract-71ad24318f.sol\":2363:2364  0 */\n      0x00\n        /* \"contract-71ad24318f.sol\":2339:2364  uint winningVoteCount = 0 */\n      swap1\n      pop\n        /* \"contract-71ad24318f.sol\":2379:2385  uint p */\n      0x00\n        /* \"contract-71ad24318f.sol\":2374:2601  for (uint p = 0; p < proposals.length; p++) {... */\n    tag_61:\n        /* \"contract-71ad24318f.sol\":2395:2404  proposals */\n      0x03\n        /* \"contract-71ad24318f.sol\":2395:2411  proposals.length */\n      dup1\n      sload\n      swap1\n      pop\n        /* \"contract-71ad24318f.sol\":2391:2392  p */\n      dup2\n        /* \"contract-71ad24318f.sol\":2391:2411  p < proposals.length */\n      lt\n        /* \"contract-71ad24318f.sol\":2374:2601  for (uint p = 0; p < proposals.length; p++) {... */\n      iszero\n      tag_62\n      jumpi\n        /* \"contract-71ad24318f.sol\":2461:2477  winningVoteCount */\n      dup2\n        /* \"contract-71ad24318f.sol\":2436:2445  proposals */\n      0x03\n        /* \"contract-71ad24318f.sol\":2446:2447  p */\n      dup3\n        /* \"contract-71ad24318f.sol\":2436:2448  proposals[p] */\n      dup2\n      sload\n      dup2\n      lt\n      tag_64\n      jumpi\n      tag_65\n      tag_54\n      jump\t// in\n    tag_65:\n    tag_64:\n      swap1\n      0x00\n      mstore\n      keccak256(0x00, 0x20)\n      swap1\n      0x02\n      mul\n      add\n        /* \"contract-71ad24318f.sol\":2436:2458  proposals[p].voteCount */\n      0x01\n      add\n      sload\n        /* \"contract-71ad24318f.sol\":2436:2477  proposals[p].voteCount > winningVoteCount */\n      gt\n        /* \"contract-71ad24318f.sol\":2432:2591  if (proposals[p].voteCount > winningVoteCount) {... */\n      iszero\n      tag_67\n      jumpi\n        /* \"contract-71ad24318f.sol\":2516:2525  proposals */\n      0x03\n        /* \"contract-71ad24318f.sol\":2526:2527  p */\n      dup2\n        /* \"contract-71ad24318f.sol\":2516:2528  proposals[p] */\n      dup2\n      sload\n      dup2\n      lt\n      tag_68\n      jumpi\n      tag_69\n      tag_54\n      jump\t// in\n    tag_69:\n    tag_68:\n      swap1\n      0x00\n      mstore\n      keccak256(0x00, 0x20)\n      swap1\n      0x02\n      mul\n      add\n        /* \"contract-71ad24318f.sol\":2516:2538  proposals[p].voteCount */\n      0x01\n      add\n      sload\n        /* \"contract-71ad24318f.sol\":2497:2538  winningVoteCount = proposals[p].voteCount */\n      swap2\n      pop\n        /* \"contract-71ad24318f.sol\":2575:2576  p */\n      dup1\n        /* \"contract-71ad24318f.sol\":2556:2576  winningProposal_ = p */\n      swap3\n      pop\n        /* \"contract-71ad24318f.sol\":2432:2591  if (proposals[p].voteCount > winningVoteCount) {... */\n    tag_67:\n        /* \"contract-71ad24318f.sol\":2413:2416  p++ */\n      dup1\n      dup1\n      tag_71\n      swap1\n      tag_72\n      jump\t// in\n    tag_71:\n      swap2\n      pop\n      pop\n        /* \"contract-71ad24318f.sol\":2374:2601  for (uint p = 0; p < proposals.length; p++) {... */\n      jump(tag_61)\n    tag_62:\n      pop\n        /* \"contract-71ad24318f.sol\":2329:2607  {... */\n      pop\n        /* \"contract-71ad24318f.sol\":2242:2607  function winningProposal() public view... */\n      swap1\n      jump\t// out\n        /* \"contract-71ad24318f.sol\":1301:1340  mapping(address => Voter) public voters */\n    tag_36:\n      mstore(0x20, 0x02)\n      dup1\n      0x00\n      mstore\n      keccak256(0x00, 0x40)\n      0x00\n      swap2\n      pop\n      swap1\n      pop\n      dup1\n      0x00\n      add\n      sload\n      swap1\n      dup1\n      0x01\n      add\n      0x00\n      swap1\n      sload\n      swap1\n      0x0100\n      exp\n      swap1\n      div\n      0xff\n      and\n      swap1\n      dup1\n      0x01\n      add\n      0x01\n      swap1\n      sload\n      swap1\n      0x0100\n      exp\n      swap1\n      div\n      0xffffffffffffffffffffffffffffffffffffffff\n      and\n      swap1\n      dup1\n      0x02\n      add\n      sload\n      swap1\n      pop\n      dup5\n      jump\t// out\n        /* \"contract-71ad24318f.sol\":2771:2917  function winnerName() external view... */\n    tag_40:\n        /* \"contract-71ad24318f.sol\":2828:2847  bytes32 winnerName_ */\n      0x00\n        /* \"contract-71ad24318f.sol\":2877:2886  proposals */\n      0x03\n        /* \"contract-71ad24318f.sol\":2887:2904  winningProposal() */\n      tag_74\n        /* \"contract-71ad24318f.sol\":2887:2902  winningProposal */\n      tag_30\n        /* \"contract-71ad24318f.sol\":2887:2904  winningProposal() */\n      jump\t// in\n    tag_74:\n        /* \"contract-71ad24318f.sol\":2877:2905  proposals[winningProposal()] */\n      dup2\n      sload\n      dup2\n      lt\n      tag_75\n      jumpi\n      tag_76\n      tag_54\n      jump\t// in\n    tag_76:\n    tag_75:\n      swap1\n      0x00\n      mstore\n      keccak256(0x00, 0x20)\n      swap1\n      0x02\n      mul\n      add\n        /* \"contract-71ad24318f.sol\":2877:2910  proposals[winningProposal()].name */\n      0x00\n      add\n      sload\n        /* \"contract-71ad24318f.sol\":2863:2910  winnerName_ = proposals[winningProposal()].name */\n      swap1\n      pop\n        /* \"contract-71ad24318f.sol\":2771:2917  function winnerName() external view... */\n      swap1\n      jump\t// out\n        /* \"contract-71ad24318f.sol\":650:731  function test() public {... */\n    tag_44:\n        /* \"contract-71ad24318f.sol\":688:724  balncer(twitt.balanceOf(msg.sender)) */\n      0x0eb9f2c7847c327566a2cffcd0cc9edbc0d5b763e17989a09b04e8945a1a1e56\n        /* \"contract-71ad24318f.sol\":696:701  twitt */\n      0x00\n      dup1\n      sload\n      swap1\n      0x0100\n      exp\n      swap1\n      div\n      0xffffffffffffffffffffffffffffffffffffffff\n      and\n        /* \"contract-71ad24318f.sol\":696:711  twitt.balanceOf */\n      0xffffffffffffffffffffffffffffffffffffffff\n      and\n      0x70a08231\n        /* \"contract-71ad24318f.sol\":712:722  msg.sender */\n      caller\n        /* \"contract-71ad24318f.sol\":696:723  twitt.balanceOf(msg.sender) */\n      mload(0x40)\n      dup3\n      0xffffffff\n      and\n      0xe0\n      shl\n      dup2\n      mstore\n      0x04\n      add\n      tag_79\n      swap2\n      swap1\n      tag_24\n      jump\t// in\n    tag_79:\n      0x20\n      mload(0x40)\n      dup1\n      dup4\n      sub\n      dup2\n      dup7\n      gas\n      staticcall\n      iszero\n      dup1\n      iszero\n      tag_81\n      jumpi\n      returndatasize\n      0x00\n      dup1\n      returndatacopy\n      revert(0x00, returndatasize)\n    tag_81:\n      pop\n      pop\n      pop\n      pop\n      mload(0x40)\n      returndatasize\n      not(0x1f)\n      0x1f\n      dup3\n      add\n      and\n      dup3\n      add\n      dup1\n      0x40\n      mstore\n      pop\n      dup2\n      add\n      swap1\n      tag_82\n      swap2\n      swap1\n      tag_83\n      jump\t// in\n    tag_82:\n        /* \"contract-71ad24318f.sol\":688:724  balncer(twitt.balanceOf(msg.sender)) */\n      mload(0x40)\n      tag_84\n      swap2\n      swap1\n      tag_32\n      jump\t// in\n    tag_84:\n      mload(0x40)\n      dup1\n      swap2\n      sub\n      swap1\n      log1\n        /* \"contract-71ad24318f.sol\":650:731  function test() public {... */\n      jump\t// out\n        /* \"#utility.yul\":88:205   */\n    tag_86:\n        /* \"#utility.yul\":197:198   */\n      0x00\n        /* \"#utility.yul\":194:195   */\n      dup1\n        /* \"#utility.yul\":187:199   */\n      revert\n        /* \"#utility.yul\":334:411   */\n    tag_88:\n        /* \"#utility.yul\":371:378   */\n      0x00\n        /* \"#utility.yul\":400:405   */\n      dup2\n        /* \"#utility.yul\":389:405   */\n      swap1\n      pop\n        /* \"#utility.yul\":334:411   */\n      swap2\n      swap1\n      pop\n      jump\t// out\n        /* \"#utility.yul\":417:539   */\n    tag_89:\n        /* \"#utility.yul\":490:514   */\n      tag_119\n        /* \"#utility.yul\":508:513   */\n      dup2\n        /* \"#utility.yul\":490:514   */\n      tag_88\n      jump\t// in\n    tag_119:\n        /* \"#utility.yul\":483:488   */\n      dup2\n        /* \"#utility.yul\":480:515   */\n      eq\n        /* \"#utility.yul\":470:533   */\n      tag_120\n      jumpi\n        /* \"#utility.yul\":529:530   */\n      0x00\n        /* \"#utility.yul\":526:527   */\n      dup1\n        /* \"#utility.yul\":519:531   */\n      revert\n        /* \"#utility.yul\":470:533   */\n    tag_120:\n        /* \"#utility.yul\":417:539   */\n      pop\n      jump\t// out\n        /* \"#utility.yul\":545:684   */\n    tag_90:\n        /* \"#utility.yul\":591:596   */\n      0x00\n        /* \"#utility.yul\":629:635   */\n      dup2\n        /* \"#utility.yul\":616:636   */\n      calldataload\n        /* \"#utility.yul\":607:636   */\n      swap1\n      pop\n        /* \"#utility.yul\":645:678   */\n      tag_122\n        /* \"#utility.yul\":672:677   */\n      dup2\n        /* \"#utility.yul\":645:678   */\n      tag_89\n      jump\t// in\n    tag_122:\n        /* \"#utility.yul\":545:684   */\n      swap3\n      swap2\n      pop\n      pop\n      jump\t// out\n        /* \"#utility.yul\":690:1019   */\n    tag_14:\n        /* \"#utility.yul\":749:755   */\n      0x00\n        /* \"#utility.yul\":798:800   */\n      0x20\n        /* \"#utility.yul\":786:795   */\n      dup3\n        /* \"#utility.yul\":777:784   */\n      dup5\n        /* \"#utility.yul\":773:796   */\n      sub\n        /* \"#utility.yul\":769:801   */\n      slt\n        /* \"#utility.yul\":766:885   */\n      iszero\n      tag_124\n      jumpi\n        /* \"#utility.yul\":804:883   */\n      tag_125\n      tag_86\n      jump\t// in\n    tag_125:\n        /* \"#utility.yul\":766:885   */\n    tag_124:\n        /* \"#utility.yul\":924:925   */\n      0x00\n        /* \"#utility.yul\":949:1002   */\n      tag_126\n        /* \"#utility.yul\":994:1001   */\n      dup5\n        /* \"#utility.yul\":985:991   */\n      dup3\n        /* \"#utility.yul\":974:983   */\n      dup6\n        /* \"#utility.yul\":970:992   */\n      add\n        /* \"#utility.yul\":949:1002   */\n      tag_90\n      jump\t// in\n    tag_126:\n        /* \"#utility.yul\":939:1002   */\n      swap2\n      pop\n        /* \"#utility.yul\":895:1012   */\n      pop\n        /* \"#utility.yul\":690:1019   */\n      swap3\n      swap2\n      pop\n      pop\n      jump\t// out\n        /* \"#utility.yul\":1025:1102   */\n    tag_91:\n        /* \"#utility.yul\":1062:1069   */\n      0x00\n        /* \"#utility.yul\":1091:1096   */\n      dup2\n        /* \"#utility.yul\":1080:1096   */\n      swap1\n      pop\n        /* \"#utility.yul\":1025:1102   */\n      swap2\n      swap1\n      pop\n      jump\t// out\n        /* \"#utility.yul\":1108:1226   */\n    tag_92:\n        /* \"#utility.yul\":1195:1219   */\n      tag_129\n        /* \"#utility.yul\":1213:1218   */\n      dup2\n        /* \"#utility.yul\":1195:1219   */\n      tag_91\n      jump\t// in\n    tag_129:\n        /* \"#utility.yul\":1190:1193   */\n      dup3\n        /* \"#utility.yul\":1183:1220   */\n      mstore\n        /* \"#utility.yul\":1108:1226   */\n      pop\n      pop\n      jump\t// out\n        /* \"#utility.yul\":1232:1350   */\n    tag_93:\n        /* \"#utility.yul\":1319:1343   */\n      tag_131\n        /* \"#utility.yul\":1337:1342   */\n      dup2\n        /* \"#utility.yul\":1319:1343   */\n      tag_88\n      jump\t// in\n    tag_131:\n        /* \"#utility.yul\":1314:1317   */\n      dup3\n        /* \"#utility.yul\":1307:1344   */\n      mstore\n        /* \"#utility.yul\":1232:1350   */\n      pop\n      pop\n      jump\t// out\n        /* \"#utility.yul\":1356:1688   */\n    tag_20:\n        /* \"#utility.yul\":1477:1481   */\n      0x00\n        /* \"#utility.yul\":1515:1517   */\n      0x40\n        /* \"#utility.yul\":1504:1513   */\n      dup3\n        /* \"#utility.yul\":1500:1518   */\n      add\n        /* \"#utility.yul\":1492:1518   */\n      swap1\n      pop\n        /* \"#utility.yul\":1528:1599   */\n      tag_133\n        /* \"#utility.yul\":1596:1597   */\n      0x00\n        /* \"#utility.yul\":1585:1594   */\n      dup4\n        /* \"#utility.yul\":1581:1598   */\n      add\n        /* \"#utility.yul\":1572:1578   */\n      dup6\n        /* \"#utility.yul\":1528:1599   */\n      tag_92\n      jump\t// in\n    tag_133:\n        /* \"#utility.yul\":1609:1681   */\n      tag_134\n        /* \"#utility.yul\":1677:1679   */\n      0x20\n        /* \"#utility.yul\":1666:1675   */\n      dup4\n        /* \"#utility.yul\":1662:1680   */\n      add\n        /* \"#utility.yul\":1653:1659   */\n      dup5\n        /* \"#utility.yul\":1609:1681   */\n      tag_93\n      jump\t// in\n    tag_134:\n        /* \"#utility.yul\":1356:1688   */\n      swap4\n      swap3\n      pop\n      pop\n      pop\n      jump\t// out\n        /* \"#utility.yul\":1694:1820   */\n    tag_94:\n        /* \"#utility.yul\":1731:1738   */\n      0x00\n        /* \"#utility.yul\":1771:1813   */\n      0xffffffffffffffffffffffffffffffffffffffff\n        /* \"#utility.yul\":1764:1769   */\n      dup3\n        /* \"#utility.yul\":1760:1814   */\n      and\n        /* \"#utility.yul\":1749:1814   */\n      swap1\n      pop\n        /* \"#utility.yul\":1694:1820   */\n      swap2\n      swap1\n      pop\n      jump\t// out\n        /* \"#utility.yul\":1826:1922   */\n    tag_95:\n        /* \"#utility.yul\":1863:1870   */\n      0x00\n        /* \"#utility.yul\":1892:1916   */\n      tag_137\n        /* \"#utility.yul\":1910:1915   */\n      dup3\n        /* \"#utility.yul\":1892:1916   */\n      tag_94\n      jump\t// in\n    tag_137:\n        /* \"#utility.yul\":1881:1916   */\n      swap1\n      pop\n        /* \"#utility.yul\":1826:1922   */\n      swap2\n      swap1\n      pop\n      jump\t// out\n        /* \"#utility.yul\":1928:2046   */\n    tag_96:\n        /* \"#utility.yul\":2015:2039   */\n      tag_139\n        /* \"#utility.yul\":2033:2038   */\n      dup2\n        /* \"#utility.yul\":2015:2039   */\n      tag_95\n      jump\t// in\n    tag_139:\n        /* \"#utility.yul\":2010:2013   */\n      dup3\n        /* \"#utility.yul\":2003:2040   */\n      mstore\n        /* \"#utility.yul\":1928:2046   */\n      pop\n      pop\n      jump\t// out\n        /* \"#utility.yul\":2052:2274   */\n    tag_24:\n        /* \"#utility.yul\":2145:2149   */\n      0x00\n        /* \"#utility.yul\":2183:2185   */\n      0x20\n        /* \"#utility.yul\":2172:2181   */\n      dup3\n        /* \"#utility.yul\":2168:2186   */\n      add\n        /* \"#utility.yul\":2160:2186   */\n      swap1\n      pop\n        /* \"#utility.yul\":2196:2267   */\n      tag_141\n        /* \"#utility.yul\":2264:2265   */\n      0x00\n        /* \"#utility.yul\":2253:2262   */\n      dup4\n        /* \"#utility.yul\":2249:2266   */\n      add\n        /* \"#utility.yul\":2240:2246   */\n      dup5\n        /* \"#utility.yul\":2196:2267   */\n      tag_96\n      jump\t// in\n    tag_141:\n        /* \"#utility.yul\":2052:2274   */\n      swap3\n      swap2\n      pop\n      pop\n      jump\t// out\n        /* \"#utility.yul\":2280:2340   */\n    tag_97:\n        /* \"#utility.yul\":2308:2311   */\n      0x00\n        /* \"#utility.yul\":2329:2334   */\n      dup2\n        /* \"#utility.yul\":2322:2334   */\n      swap1\n      pop\n        /* \"#utility.yul\":2280:2340   */\n      swap2\n      swap1\n      pop\n      jump\t// out\n        /* \"#utility.yul\":2346:2488   */\n    tag_98:\n        /* \"#utility.yul\":2396:2405   */\n      0x00\n        /* \"#utility.yul\":2429:2482   */\n      tag_144\n        /* \"#utility.yul\":2447:2481   */\n      tag_145\n        /* \"#utility.yul\":2456:2480   */\n      tag_146\n        /* \"#utility.yul\":2474:2479   */\n      dup5\n        /* \"#utility.yul\":2456:2480   */\n      tag_94\n      jump\t// in\n    tag_146:\n        /* \"#utility.yul\":2447:2481   */\n      tag_97\n      jump\t// in\n    tag_145:\n        /* \"#utility.yul\":2429:2482   */\n      tag_94\n      jump\t// in\n    tag_144:\n        /* \"#utility.yul\":2416:2482   */\n      swap1\n      pop\n        /* \"#utility.yul\":2346:2488   */\n      swap2\n      swap1\n      pop\n      jump\t// out\n        /* \"#utility.yul\":2494:2620   */\n    tag_99:\n        /* \"#utility.yul\":2544:2553   */\n      0x00\n        /* \"#utility.yul\":2577:2614   */\n      tag_148\n        /* \"#utility.yul\":2608:2613   */\n      dup3\n        /* \"#utility.yul\":2577:2614   */\n      tag_98\n      jump\t// in\n    tag_148:\n        /* \"#utility.yul\":2564:2614   */\n      swap1\n      pop\n        /* \"#utility.yul\":2494:2620   */\n      swap2\n      swap1\n      pop\n      jump\t// out\n        /* \"#utility.yul\":2626:2765   */\n    tag_100:\n        /* \"#utility.yul\":2689:2698   */\n      0x00\n        /* \"#utility.yul\":2722:2759   */\n      tag_150\n        /* \"#utility.yul\":2753:2758   */\n      dup3\n        /* \"#utility.yul\":2722:2759   */\n      tag_99\n      jump\t// in\n    tag_150:\n        /* \"#utility.yul\":2709:2759   */\n      swap1\n      pop\n        /* \"#utility.yul\":2626:2765   */\n      swap2\n      swap1\n      pop\n      jump\t// out\n        /* \"#utility.yul\":2771:2928   */\n    tag_101:\n        /* \"#utility.yul\":2871:2921   */\n      tag_152\n        /* \"#utility.yul\":2915:2920   */\n      dup2\n        /* \"#utility.yul\":2871:2921   */\n      tag_100\n      jump\t// in\n    tag_152:\n        /* \"#utility.yul\":2866:2869   */\n      dup3\n        /* \"#utility.yul\":2859:2922   */\n      mstore\n        /* \"#utility.yul\":2771:2928   */\n      pop\n      pop\n      jump\t// out\n        /* \"#utility.yul\":2934:3182   */\n    tag_28:\n        /* \"#utility.yul\":3040:3044   */\n      0x00\n        /* \"#utility.yul\":3078:3080   */\n      0x20\n        /* \"#utility.yul\":3067:3076   */\n      dup3\n        /* \"#utility.yul\":3063:3081   */\n      add\n        /* \"#utility.yul\":3055:3081   */\n      swap1\n      pop\n        /* \"#utility.yul\":3091:3175   */\n      tag_154\n        /* \"#utility.yul\":3172:3173   */\n      0x00\n        /* \"#utility.yul\":3161:3170   */\n      dup4\n        /* \"#utility.yul\":3157:3174   */\n      add\n        /* \"#utility.yul\":3148:3154   */\n      dup5\n        /* \"#utility.yul\":3091:3175   */\n      tag_101\n      jump\t// in\n    tag_154:\n        /* \"#utility.yul\":2934:3182   */\n      swap3\n      swap2\n      pop\n      pop\n      jump\t// out\n        /* \"#utility.yul\":3188:3410   */\n    tag_32:\n        /* \"#utility.yul\":3281:3285   */\n      0x00\n        /* \"#utility.yul\":3319:3321   */\n      0x20\n        /* \"#utility.yul\":3308:3317   */\n      dup3\n        /* \"#utility.yul\":3304:3322   */\n      add\n        /* \"#utility.yul\":3296:3322   */\n      swap1\n      pop\n        /* \"#utility.yul\":3332:3403   */\n      tag_156\n        /* \"#utility.yul\":3400:3401   */\n      0x00\n        /* \"#utility.yul\":3389:3398   */\n      dup4\n        /* \"#utility.yul\":3385:3402   */\n      add\n        /* \"#utility.yul\":3376:3382   */\n      dup5\n        /* \"#utility.yul\":3332:3403   */\n      tag_93\n      jump\t// in\n    tag_156:\n        /* \"#utility.yul\":3188:3410   */\n      swap3\n      swap2\n      pop\n      pop\n      jump\t// out\n        /* \"#utility.yul\":3416:3538   */\n    tag_102:\n        /* \"#utility.yul\":3489:3513   */\n      tag_158\n        /* \"#utility.yul\":3507:3512   */\n      dup2\n        /* \"#utility.yul\":3489:3513   */\n      tag_95\n      jump\t// in\n    tag_158:\n        /* \"#utility.yul\":3482:3487   */\n      dup2\n        /* \"#utility.yul\":3479:3514   */\n      eq\n        /* \"#utility.yul\":3469:3532   */\n      tag_159\n      jumpi\n        /* \"#utility.yul\":3528:3529   */\n      0x00\n        /* \"#utility.yul\":3525:3526   */\n      dup1\n        /* \"#utility.yul\":3518:3530   */\n      revert\n        /* \"#utility.yul\":3469:3532   */\n    tag_159:\n        /* \"#utility.yul\":3416:3538   */\n      pop\n      jump\t// out\n        /* \"#utility.yul\":3544:3683   */\n    tag_103:\n        /* \"#utility.yul\":3590:3595   */\n      0x00\n        /* \"#utility.yul\":3628:3634   */\n      dup2\n        /* \"#utility.yul\":3615:3635   */\n      calldataload\n        /* \"#utility.yul\":3606:3635   */\n      swap1\n      pop\n        /* \"#utility.yul\":3644:3677   */\n      tag_161\n        /* \"#utility.yul\":3671:3676   */\n      dup2\n        /* \"#utility.yul\":3644:3677   */\n      tag_102\n      jump\t// in\n    tag_161:\n        /* \"#utility.yul\":3544:3683   */\n      swap3\n      swap2\n      pop\n      pop\n      jump\t// out\n        /* \"#utility.yul\":3689:4018   */\n    tag_35:\n        /* \"#utility.yul\":3748:3754   */\n      0x00\n        /* \"#utility.yul\":3797:3799   */\n      0x20\n        /* \"#utility.yul\":3785:3794   */\n      dup3\n        /* \"#utility.yul\":3776:3783   */\n      dup5\n        /* \"#utility.yul\":3772:3795   */\n      sub\n        /* \"#utility.yul\":3768:3800   */\n      slt\n        /* \"#utility.yul\":3765:3884   */\n      iszero\n      tag_163\n      jumpi\n        /* \"#utility.yul\":3803:3882   */\n      tag_164\n      tag_86\n      jump\t// in\n    tag_164:\n        /* \"#utility.yul\":3765:3884   */\n    tag_163:\n        /* \"#utility.yul\":3923:3924   */\n      0x00\n        /* \"#utility.yul\":3948:4001   */\n      tag_165\n        /* \"#utility.yul\":3993:4000   */\n      dup5\n        /* \"#utility.yul\":3984:3990   */\n      dup3\n        /* \"#utility.yul\":3973:3982   */\n      dup6\n        /* \"#utility.yul\":3969:3991   */\n      add\n        /* \"#utility.yul\":3948:4001   */\n      tag_103\n      jump\t// in\n    tag_165:\n        /* \"#utility.yul\":3938:4001   */\n      swap2\n      pop\n        /* \"#utility.yul\":3894:4011   */\n      pop\n        /* \"#utility.yul\":3689:4018   */\n      swap3\n      swap2\n      pop\n      pop\n      jump\t// out\n        /* \"#utility.yul\":4024:4114   */\n    tag_104:\n        /* \"#utility.yul\":4058:4065   */\n      0x00\n        /* \"#utility.yul\":4101:4106   */\n      dup2\n        /* \"#utility.yul\":4094:4107   */\n      iszero\n        /* \"#utility.yul\":4087:4108   */\n      iszero\n        /* \"#utility.yul\":4076:4108   */\n      swap1\n      pop\n        /* \"#utility.yul\":4024:4114   */\n      swap2\n      swap1\n      pop\n      jump\t// out\n        /* \"#utility.yul\":4120:4229   */\n    tag_105:\n        /* \"#utility.yul\":4201:4222   */\n      tag_168\n        /* \"#utility.yul\":4216:4221   */\n      dup2\n        /* \"#utility.yul\":4201:4222   */\n      tag_104\n      jump\t// in\n    tag_168:\n        /* \"#utility.yul\":4196:4199   */\n      dup3\n        /* \"#utility.yul\":4189:4223   */\n      mstore\n        /* \"#utility.yul\":4120:4229   */\n      pop\n      pop\n      jump\t// out\n        /* \"#utility.yul\":4235:4776   */\n    tag_38:\n        /* \"#utility.yul\":4406:4410   */\n      0x00\n        /* \"#utility.yul\":4444:4447   */\n      0x80\n        /* \"#utility.yul\":4433:4442   */\n      dup3\n        /* \"#utility.yul\":4429:4448   */\n      add\n        /* \"#utility.yul\":4421:4448   */\n      swap1\n      pop\n        /* \"#utility.yul\":4458:4529   */\n      tag_170\n        /* \"#utility.yul\":4526:4527   */\n      0x00\n        /* \"#utility.yul\":4515:4524   */\n      dup4\n        /* \"#utility.yul\":4511:4528   */\n      add\n        /* \"#utility.yul\":4502:4508   */\n      dup8\n        /* \"#utility.yul\":4458:4529   */\n      tag_93\n      jump\t// in\n    tag_170:\n        /* \"#utility.yul\":4539:4605   */\n      tag_171\n        /* \"#utility.yul\":4601:4603   */\n      0x20\n        /* \"#utility.yul\":4590:4599   */\n      dup4\n        /* \"#utility.yul\":4586:4604   */\n      add\n        /* \"#utility.yul\":4577:4583   */\n      dup7\n        /* \"#utility.yul\":4539:4605   */\n      tag_105\n      jump\t// in\n    tag_171:\n        /* \"#utility.yul\":4615:4687   */\n      tag_172\n        /* \"#utility.yul\":4683:4685   */\n      0x40\n        /* \"#utility.yul\":4672:4681   */\n      dup4\n        /* \"#utility.yul\":4668:4686   */\n      add\n        /* \"#utility.yul\":4659:4665   */\n      dup6\n        /* \"#utility.yul\":4615:4687   */\n      tag_96\n      jump\t// in\n    tag_172:\n        /* \"#utility.yul\":4697:4769   */\n      tag_173\n        /* \"#utility.yul\":4765:4767   */\n      0x60\n        /* \"#utility.yul\":4754:4763   */\n      dup4\n        /* \"#utility.yul\":4750:4768   */\n      add\n        /* \"#utility.yul\":4741:4747   */\n      dup5\n        /* \"#utility.yul\":4697:4769   */\n      tag_93\n      jump\t// in\n    tag_173:\n        /* \"#utility.yul\":4235:4776   */\n      swap6\n      swap5\n      pop\n      pop\n      pop\n      pop\n      pop\n      jump\t// out\n        /* \"#utility.yul\":4782:5004   */\n    tag_42:\n        /* \"#utility.yul\":4875:4879   */\n      0x00\n        /* \"#utility.yul\":4913:4915   */\n      0x20\n        /* \"#utility.yul\":4902:4911   */\n      dup3\n        /* \"#utility.yul\":4898:4916   */\n      add\n        /* \"#utility.yul\":4890:4916   */\n      swap1\n      pop\n        /* \"#utility.yul\":4926:4997   */\n      tag_175\n        /* \"#utility.yul\":4994:4995   */\n      0x00\n        /* \"#utility.yul\":4983:4992   */\n      dup4\n        /* \"#utility.yul\":4979:4996   */\n      add\n        /* \"#utility.yul\":4970:4976   */\n      dup5\n        /* \"#utility.yul\":4926:4997   */\n      tag_92\n      jump\t// in\n    tag_175:\n        /* \"#utility.yul\":4782:5004   */\n      swap3\n      swap2\n      pop\n      pop\n      jump\t// out\n        /* \"#utility.yul\":5010:5179   */\n    tag_106:\n        /* \"#utility.yul\":5094:5105   */\n      0x00\n        /* \"#utility.yul\":5128:5134   */\n      dup3\n        /* \"#utility.yul\":5123:5126   */\n      dup3\n        /* \"#utility.yul\":5116:5135   */\n      mstore\n        /* \"#utility.yul\":5168:5172   */\n      0x20\n        /* \"#utility.yul\":5163:5166   */\n      dup3\n        /* \"#utility.yul\":5159:5173   */\n      add\n        /* \"#utility.yul\":5144:5173   */\n      swap1\n      pop\n        /* \"#utility.yul\":5010:5179   */\n      swap3\n      swap2\n      pop\n      pop\n      jump\t// out\n        /* \"#utility.yul\":5185:5355   */\n    tag_107:\n        /* \"#utility.yul\":5325:5347   */\n      0x486173206e6f20726967687420746f20766f7465000000000000000000000000\n        /* \"#utility.yul\":5321:5322   */\n      0x00\n        /* \"#utility.yul\":5313:5319   */\n      dup3\n        /* \"#utility.yul\":5309:5323   */\n      add\n        /* \"#utility.yul\":5302:5348   */\n      mstore\n        /* \"#utility.yul\":5185:5355   */\n      pop\n      jump\t// out\n        /* \"#utility.yul\":5361:5727   */\n    tag_108:\n        /* \"#utility.yul\":5503:5506   */\n      0x00\n        /* \"#utility.yul\":5524:5591   */\n      tag_179\n        /* \"#utility.yul\":5588:5590   */\n      0x14\n        /* \"#utility.yul\":5583:5586   */\n      dup4\n        /* \"#utility.yul\":5524:5591   */\n      tag_106\n      jump\t// in\n    tag_179:\n        /* \"#utility.yul\":5517:5591   */\n      swap2\n      pop\n        /* \"#utility.yul\":5600:5693   */\n      tag_180\n        /* \"#utility.yul\":5689:5692   */\n      dup3\n        /* \"#utility.yul\":5600:5693   */\n      tag_107\n      jump\t// in\n    tag_180:\n        /* \"#utility.yul\":5718:5720   */\n      0x20\n        /* \"#utility.yul\":5713:5716   */\n      dup3\n        /* \"#utility.yul\":5709:5721   */\n      add\n        /* \"#utility.yul\":5702:5721   */\n      swap1\n      pop\n        /* \"#utility.yul\":5361:5727   */\n      swap2\n      swap1\n      pop\n      jump\t// out\n        /* \"#utility.yul\":5733:6152   */\n    tag_48:\n        /* \"#utility.yul\":5899:5903   */\n      0x00\n        /* \"#utility.yul\":5937:5939   */\n      0x20\n        /* \"#utility.yul\":5926:5935   */\n      dup3\n        /* \"#utility.yul\":5922:5940   */\n      add\n        /* \"#utility.yul\":5914:5940   */\n      swap1\n      pop\n        /* \"#utility.yul\":5986:5995   */\n      dup2\n        /* \"#utility.yul\":5980:5984   */\n      dup2\n        /* \"#utility.yul\":5976:5996   */\n      sub\n        /* \"#utility.yul\":5972:5973   */\n      0x00\n        /* \"#utility.yul\":5961:5970   */\n      dup4\n        /* \"#utility.yul\":5957:5974   */\n      add\n        /* \"#utility.yul\":5950:5997   */\n      mstore\n        /* \"#utility.yul\":6014:6145   */\n      tag_182\n        /* \"#utility.yul\":6140:6144   */\n      dup2\n        /* \"#utility.yul\":6014:6145   */\n      tag_108\n      jump\t// in\n    tag_182:\n        /* \"#utility.yul\":6006:6145   */\n      swap1\n      pop\n        /* \"#utility.yul\":5733:6152   */\n      swap2\n      swap1\n      pop\n      jump\t// out\n        /* \"#utility.yul\":6158:6322   */\n    tag_109:\n        /* \"#utility.yul\":6298:6314   */\n      0x416c726561647920766f7465642e000000000000000000000000000000000000\n        /* \"#utility.yul\":6294:6295   */\n      0x00\n        /* \"#utility.yul\":6286:6292   */\n      dup3\n        /* \"#utility.yul\":6282:6296   */\n      add\n        /* \"#utility.yul\":6275:6315   */\n      mstore\n        /* \"#utility.yul\":6158:6322   */\n      pop\n      jump\t// out\n        /* \"#utility.yul\":6328:6694   */\n    tag_110:\n        /* \"#utility.yul\":6470:6473   */\n      0x00\n        /* \"#utility.yul\":6491:6558   */\n      tag_185\n        /* \"#utility.yul\":6555:6557   */\n      0x0e\n        /* \"#utility.yul\":6550:6553   */\n      dup4\n        /* \"#utility.yul\":6491:6558   */\n      tag_106\n      jump\t// in\n    tag_185:\n        /* \"#utility.yul\":6484:6558   */\n      swap2\n      pop\n        /* \"#utility.yul\":6567:6660   */\n      tag_186\n        /* \"#utility.yul\":6656:6659   */\n      dup3\n        /* \"#utility.yul\":6567:6660   */\n      tag_109\n      jump\t// in\n    tag_186:\n        /* \"#utility.yul\":6685:6687   */\n      0x20\n        /* \"#utility.yul\":6680:6683   */\n      dup3\n        /* \"#utility.yul\":6676:6688   */\n      add\n        /* \"#utility.yul\":6669:6688   */\n      swap1\n      pop\n        /* \"#utility.yul\":6328:6694   */\n      swap2\n      swap1\n      pop\n      jump\t// out\n        /* \"#utility.yul\":6700:7119   */\n    tag_51:\n        /* \"#utility.yul\":6866:6870   */\n      0x00\n        /* \"#utility.yul\":6904:6906   */\n      0x20\n        /* \"#utility.yul\":6893:6902   */\n      dup3\n        /* \"#utility.yul\":6889:6907   */\n      add\n        /* \"#utility.yul\":6881:6907   */\n      swap1\n      pop\n        /* \"#utility.yul\":6953:6962   */\n      dup2\n        /* \"#utility.yul\":6947:6951   */\n      dup2\n        /* \"#utility.yul\":6943:6963   */\n      sub\n        /* \"#utility.yul\":6939:6940   */\n      0x00\n        /* \"#utility.yul\":6928:6937   */\n      dup4\n        /* \"#utility.yul\":6924:6941   */\n      add\n        /* \"#utility.yul\":6917:6964   */\n      mstore\n        /* \"#utility.yul\":6981:7112   */\n      tag_188\n        /* \"#utility.yul\":7107:7111   */\n      dup2\n        /* \"#utility.yul\":6981:7112   */\n      tag_110\n      jump\t// in\n    tag_188:\n        /* \"#utility.yul\":6973:7112   */\n      swap1\n      pop\n        /* \"#utility.yul\":6700:7119   */\n      swap2\n      swap1\n      pop\n      jump\t// out\n        /* \"#utility.yul\":7125:7305   */\n    tag_54:\n        /* \"#utility.yul\":7173:7250   */\n      0x4e487b7100000000000000000000000000000000000000000000000000000000\n        /* \"#utility.yul\":7170:7171   */\n      0x00\n        /* \"#utility.yul\":7163:7251   */\n      mstore\n        /* \"#utility.yul\":7270:7274   */\n      0x32\n        /* \"#utility.yul\":7267:7268   */\n      0x04\n        /* \"#utility.yul\":7260:7275   */\n      mstore\n        /* \"#utility.yul\":7294:7298   */\n      0x24\n        /* \"#utility.yul\":7291:7292   */\n      0x00\n        /* \"#utility.yul\":7284:7299   */\n      revert\n        /* \"#utility.yul\":7311:7491   */\n    tag_111:\n        /* \"#utility.yul\":7359:7436   */\n      0x4e487b7100000000000000000000000000000000000000000000000000000000\n        /* \"#utility.yul\":7356:7357   */\n      0x00\n        /* \"#utility.yul\":7349:7437   */\n      mstore\n        /* \"#utility.yul\":7456:7460   */\n      0x11\n        /* \"#utility.yul\":7453:7454   */\n      0x04\n        /* \"#utility.yul\":7446:7461   */\n      mstore\n        /* \"#utility.yul\":7480:7484   */\n      0x24\n        /* \"#utility.yul\":7477:7478   */\n      0x00\n        /* \"#utility.yul\":7470:7485   */\n      revert\n        /* \"#utility.yul\":7497:7688   */\n    tag_57:\n        /* \"#utility.yul\":7537:7540   */\n      0x00\n        /* \"#utility.yul\":7556:7576   */\n      tag_192\n        /* \"#utility.yul\":7574:7575   */\n      dup3\n        /* \"#utility.yul\":7556:7576   */\n      tag_88\n      jump\t// in\n    tag_192:\n        /* \"#utility.yul\":7551:7576   */\n      swap2\n      pop\n        /* \"#utility.yul\":7590:7610   */\n      tag_193\n        /* \"#utility.yul\":7608:7609   */\n      dup4\n        /* \"#utility.yul\":7590:7610   */\n      tag_88\n      jump\t// in\n    tag_193:\n        /* \"#utility.yul\":7585:7610   */\n      swap3\n      pop\n        /* \"#utility.yul\":7633:7634   */\n      dup3\n        /* \"#utility.yul\":7630:7631   */\n      dup3\n        /* \"#utility.yul\":7626:7635   */\n      add\n        /* \"#utility.yul\":7619:7635   */\n      swap1\n      pop\n        /* \"#utility.yul\":7654:7657   */\n      dup1\n        /* \"#utility.yul\":7651:7652   */\n      dup3\n        /* \"#utility.yul\":7648:7658   */\n      gt\n        /* \"#utility.yul\":7645:7681   */\n      iszero\n      tag_194\n      jumpi\n        /* \"#utility.yul\":7661:7679   */\n      tag_195\n      tag_111\n      jump\t// in\n    tag_195:\n        /* \"#utility.yul\":7645:7681   */\n    tag_194:\n        /* \"#utility.yul\":7497:7688   */\n      swap3\n      swap2\n      pop\n      pop\n      jump\t// out\n        /* \"#utility.yul\":7694:7927   */\n    tag_72:\n        /* \"#utility.yul\":7733:7736   */\n      0x00\n        /* \"#utility.yul\":7756:7780   */\n      tag_197\n        /* \"#utility.yul\":7774:7779   */\n      dup3\n        /* \"#utility.yul\":7756:7780   */\n      tag_88\n      jump\t// in\n    tag_197:\n        /* \"#utility.yul\":7747:7780   */\n      swap2\n      pop\n        /* \"#utility.yul\":7802:7868   */\n      0xffffffffffffffffffffffffffffffffffffffffffffffffffffffffffffffff\n        /* \"#utility.yul\":7795:7800   */\n      dup3\n        /* \"#utility.yul\":7792:7869   */\n      sub\n        /* \"#utility.yul\":7789:7892   */\n      tag_198\n      jumpi\n        /* \"#utility.yul\":7872:7890   */\n      tag_199\n      tag_111\n      jump\t// in\n    tag_199:\n        /* \"#utility.yul\":7789:7892   */\n    tag_198:\n        /* \"#utility.yul\":7919:7920   */\n      0x01\n        /* \"#utility.yul\":7912:7917   */\n      dup3\n        /* \"#utility.yul\":7908:7921   */\n      add\n        /* \"#utility.yul\":7901:7921   */\n      swap1\n      pop\n        /* \"#utility.yul\":7694:7927   */\n      swap2\n      swap1\n      pop\n      jump\t// out\n        /* \"#utility.yul\":7933:8076   */\n    tag_112:\n        /* \"#utility.yul\":7990:7995   */\n      0x00\n        /* \"#utility.yul\":8021:8027   */\n      dup2\n        /* \"#utility.yul\":8015:8028   */\n      mload\n        /* \"#utility.yul\":8006:8028   */\n      swap1\n      pop\n        /* \"#utility.yul\":8037:8070   */\n      tag_201\n        /* \"#utility.yul\":8064:8069   */\n      dup2\n        /* \"#utility.yul\":8037:8070   */\n      tag_89\n      jump\t// in\n    tag_201:\n        /* \"#utility.yul\":7933:8076   */\n      swap3\n      swap2\n      pop\n      pop\n      jump\t// out\n        /* \"#utility.yul\":8082:8433   */\n    tag_83:\n        /* \"#utility.yul\":8152:8158   */\n      0x00\n        /* \"#utility.yul\":8201:8203   */\n      0x20\n        /* \"#utility.yul\":8189:8198   */\n      dup3\n        /* \"#utility.yul\":8180:8187   */\n      dup5\n        /* \"#utility.yul\":8176:8199   */\n      sub\n        /* \"#utility.yul\":8172:8204   */\n      slt\n        /* \"#utility.yul\":8169:8288   */\n      iszero\n      tag_203\n      jumpi\n        /* \"#utility.yul\":8207:8286   */\n      tag_204\n      tag_86\n      jump\t// in\n    tag_204:\n        /* \"#utility.yul\":8169:8288   */\n    tag_203:\n        /* \"#utility.yul\":8327:8328   */\n      0x00\n        /* \"#utility.yul\":8352:8416   */\n      tag_205\n        /* \"#utility.yul\":8408:8415   */\n      dup5\n        /* \"#utility.yul\":8399:8405   */\n      dup3\n        /* \"#utility.yul\":8388:8397   */\n      dup6\n        /* \"#utility.yul\":8384:8406   */\n      add\n        /* \"#utility.yul\":8352:8416   */\n      tag_112\n      jump\t// in\n    tag_205:\n        /* \"#utility.yul\":8342:8416   */\n      swap2\n      pop\n        /* \"#utility.yul\":8298:8426   */\n      pop\n        /* \"#utility.yul\":8082:8433   */\n      swap3\n      swap2\n      pop\n      pop\n      jump\t// out\n\n    auxdata: 0xa2646970667358221220bf150cf39f7c99f91c1804b0bcef4a7e74b4fa72f7006940b0b604a1ea268acb64736f6c63430008110033\n}\n",
				"bytecode": {
					"linkReferences": {},
					"object": "608060405234801561001057600080fd5b50604051610b0e380380610b0e833981810160405281019061003291906100db565b806000806101000a81548173ffffffffffffffffffffffffffffffffffffffff021916908373ffffffffffffffffffffffffffffffffffffffff16021790555050610108565b600080fd5b600073ffffffffffffffffffffffffffffffffffffffff82169050919050565b60006100a88261007d565b9050919050565b6100b88161009d565b81146100c357600080fd5b50565b6000815190506100d5816100af565b92915050565b6000602082840312156100f1576100f0610078565b5b60006100ff848285016100c6565b91505092915050565b6109f7806101176000396000f3fe608060405234801561001057600080fd5b50600436106100885760003560e01c8063609ff1bd1161005b578063609ff1bd14610116578063a3ec138d14610134578063e2ba53f014610167578063f8a8fd6d1461018557610088565b80630121b93f1461008d578063013cf08b146100a95780632e4176cf146100da57806349e0335f146100f8575b600080fd5b6100a760048036038101906100a29190610579565b61018f565b005b6100c360048036038101906100be9190610579565b6102d5565b6040516100d19291906105ce565b60405180910390f35b6100e2610309565b6040516100ef9190610638565b60405180910390f35b61010061032f565b60405161010d91906106b2565b60405180910390f35b61011e610353565b60405161012b91906106cd565b60405180910390f35b61014e60048036038101906101499190610714565b6103db565b60405161015e949392919061075c565b60405180910390f35b61016f610438565b60405161017c91906107a1565b60405180910390f35b61018d61046c565b005b6000600260003373ffffffffffffffffffffffffffffffffffffffff1673ffffffffffffffffffffffffffffffffffffffff16815260200190815260200160002090506000816000015403610219576040517f08c379a000000000000000000000000000000000000000000000000000000000815260040161021090610819565b60405180910390fd5b8060010160009054906101000a900460ff161561026b576040517f08c379a000000000000000000000000000000000000000000000000000000000815260040161026290610885565b60405180910390fd5b60018160010160006101000a81548160ff0219169083151502179055508181600201819055508060000154600383815481106102aa576102a96108a5565b5b906000526020600020906002020160010160008282546102ca9190610903565b925050819055505050565b600381815481106102e557600080fd5b90600052602060002090600202016000915090508060000154908060010154905082565b600160009054906101000a900473ffffffffffffffffffffffffffffffffffffffff1681565b60008054906101000a900473ffffffffffffffffffffffffffffffffffffffff1681565b6000806000905060005b6003805490508110156103d657816003828154811061037f5761037e6108a5565b5b90600052602060002090600202016001015411156103c357600381815481106103ab576103aa6108a5565b5b90600052602060002090600202016001015491508092505b80806103ce90610937565b91505061035d565b505090565b60026020528060005260406000206000915090508060000154908060010160009054906101000a900460ff16908060010160019054906101000a900473ffffffffffffffffffffffffffffffffffffffff16908060020154905084565b60006003610444610353565b81548110610455576104546108a5565b5b906000526020600020906002020160000154905090565b7f0eb9f2c7847c327566a2cffcd0cc9edbc0d5b763e17989a09b04e8945a1a1e5660008054906101000a900473ffffffffffffffffffffffffffffffffffffffff1673ffffffffffffffffffffffffffffffffffffffff166370a08231336040518263ffffffff1660e01b81526004016104e69190610638565b602060405180830381865afa158015610503573d6000803e3d6000fd5b505050506040513d601f19601f820116820180604052508101906105279190610994565b60405161053491906106cd565b60405180910390a1565b600080fd5b6000819050919050565b61055681610543565b811461056157600080fd5b50565b6000813590506105738161054d565b92915050565b60006020828403121561058f5761058e61053e565b5b600061059d84828501610564565b91505092915050565b6000819050919050565b6105b9816105a6565b82525050565b6105c881610543565b82525050565b60006040820190506105e360008301856105b0565b6105f060208301846105bf565b9392505050565b600073ffffffffffffffffffffffffffffffffffffffff82169050919050565b6000610622826105f7565b9050919050565b61063281610617565b82525050565b600060208201905061064d6000830184610629565b92915050565b6000819050919050565b600061067861067361066e846105f7565b610653565b6105f7565b9050919050565b600061068a8261065d565b9050919050565b600061069c8261067f565b9050919050565b6106ac81610691565b82525050565b60006020820190506106c760008301846106a3565b92915050565b60006020820190506106e260008301846105bf565b92915050565b6106f181610617565b81146106fc57600080fd5b50565b60008135905061070e816106e8565b92915050565b60006020828403121561072a5761072961053e565b5b6000610738848285016106ff565b91505092915050565b60008115159050919050565b61075681610741565b82525050565b600060808201905061077160008301876105bf565b61077e602083018661074d565b61078b6040830185610629565b61079860608301846105bf565b95945050505050565b60006020820190506107b660008301846105b0565b92915050565b600082825260208201905092915050565b7f486173206e6f20726967687420746f20766f7465000000000000000000000000600082015250565b60006108036014836107bc565b915061080e826107cd565b602082019050919050565b60006020820190508181036000830152610832816107f6565b9050919050565b7f416c726561647920766f7465642e000000000000000000000000000000000000600082015250565b600061086f600e836107bc565b915061087a82610839565b602082019050919050565b6000602082019050818103600083015261089e81610862565b9050919050565b7f4e487b7100000000000000000000000000000000000000000000000000000000600052603260045260246000fd5b7f4e487b7100000000000000000000000000000000000000000000000000000000600052601160045260246000fd5b600061090e82610543565b915061091983610543565b9250828201905080821115610931576109306108d4565b5b92915050565b600061094282610543565b91507fffffffffffffffffffffffffffffffffffffffffffffffffffffffffffffffff8203610974576109736108d4565b5b600182019050919050565b60008151905061098e8161054d565b92915050565b6000602082840312156109aa576109a961053e565b5b60006109b88482850161097f565b9150509291505056fea2646970667358221220bf150cf39f7c99f91c1804b0bcef4a7e74b4fa72f7006940b0b604a1ea268acb64736f6c63430008110033",
					"opcodes": "PUSH1 0x80 PUSH1 0x40 MSTORE CALLVALUE DUP1 ISZERO PUSH2 0x10 JUMPI PUSH1 0x0 DUP1 REVERT JUMPDEST POP PUSH1 0x40 MLOAD PUSH2 0xB0E CODESIZE SUB DUP1 PUSH2 0xB0E DUP4 CODECOPY DUP2 DUP2 ADD PUSH1 0x40 MSTORE DUP2 ADD SWAP1 PUSH2 0x32 SWAP2 SWAP1 PUSH2 0xDB JUMP JUMPDEST DUP1 PUSH1 0x0 DUP1 PUSH2 0x100 EXP DUP2 SLOAD DUP2 PUSH20 0xFFFFFFFFFFFFFFFFFFFFFFFFFFFFFFFFFFFFFFFF MUL NOT AND SWAP1 DUP4 PUSH20 0xFFFFFFFFFFFFFFFFFFFFFFFFFFFFFFFFFFFFFFFF AND MUL OR SWAP1 SSTORE POP POP PUSH2 0x108 JUMP JUMPDEST PUSH1 0x0 DUP1 REVERT JUMPDEST PUSH1 0x0 PUSH20 0xFFFFFFFFFFFFFFFFFFFFFFFFFFFFFFFFFFFFFFFF DUP3 AND SWAP1 POP SWAP2 SWAP1 POP JUMP JUMPDEST PUSH1 0x0 PUSH2 0xA8 DUP3 PUSH2 0x7D JUMP JUMPDEST SWAP1 POP SWAP2 SWAP1 POP JUMP JUMPDEST PUSH2 0xB8 DUP2 PUSH2 0x9D JUMP JUMPDEST DUP2 EQ PUSH2 0xC3 JUMPI PUSH1 0x0 DUP1 REVERT JUMPDEST POP JUMP JUMPDEST PUSH1 0x0 DUP2 MLOAD SWAP1 POP PUSH2 0xD5 DUP2 PUSH2 0xAF JUMP JUMPDEST SWAP3 SWAP2 POP POP JUMP JUMPDEST PUSH1 0x0 PUSH1 0x20 DUP3 DUP5 SUB SLT ISZERO PUSH2 0xF1 JUMPI PUSH2 0xF0 PUSH2 0x78 JUMP JUMPDEST JUMPDEST PUSH1 0x0 PUSH2 0xFF DUP5 DUP3 DUP6 ADD PUSH2 0xC6 JUMP JUMPDEST SWAP2 POP POP SWAP3 SWAP2 POP POP JUMP JUMPDEST PUSH2 0x9F7 DUP1 PUSH2 0x117 PUSH1 0x0 CODECOPY PUSH1 0x0 RETURN INVALID PUSH1 0x80 PUSH1 0x40 MSTORE CALLVALUE DUP1 ISZERO PUSH2 0x10 JUMPI PUSH1 0x0 DUP1 REVERT JUMPDEST POP PUSH1 0x4 CALLDATASIZE LT PUSH2 0x88 JUMPI PUSH1 0x0 CALLDATALOAD PUSH1 0xE0 SHR DUP1 PUSH4 0x609FF1BD GT PUSH2 0x5B JUMPI DUP1 PUSH4 0x609FF1BD EQ PUSH2 0x116 JUMPI DUP1 PUSH4 0xA3EC138D EQ PUSH2 0x134 JUMPI DUP1 PUSH4 0xE2BA53F0 EQ PUSH2 0x167 JUMPI DUP1 PUSH4 0xF8A8FD6D EQ PUSH2 0x185 JUMPI PUSH2 0x88 JUMP JUMPDEST DUP1 PUSH4 0x121B93F EQ PUSH2 0x8D JUMPI DUP1 PUSH4 0x13CF08B EQ PUSH2 0xA9 JUMPI DUP1 PUSH4 0x2E4176CF EQ PUSH2 0xDA JUMPI DUP1 PUSH4 0x49E0335F EQ PUSH2 0xF8 JUMPI JUMPDEST PUSH1 0x0 DUP1 REVERT JUMPDEST PUSH2 0xA7 PUSH1 0x4 DUP1 CALLDATASIZE SUB DUP2 ADD SWAP1 PUSH2 0xA2 SWAP2 SWAP1 PUSH2 0x579 JUMP JUMPDEST PUSH2 0x18F JUMP JUMPDEST STOP JUMPDEST PUSH2 0xC3 PUSH1 0x4 DUP1 CALLDATASIZE SUB DUP2 ADD SWAP1 PUSH2 0xBE SWAP2 SWAP1 PUSH2 0x579 JUMP JUMPDEST PUSH2 0x2D5 JUMP JUMPDEST PUSH1 0x40 MLOAD PUSH2 0xD1 SWAP3 SWAP2 SWAP1 PUSH2 0x5CE JUMP JUMPDEST PUSH1 0x40 MLOAD DUP1 SWAP2 SUB SWAP1 RETURN JUMPDEST PUSH2 0xE2 PUSH2 0x309 JUMP JUMPDEST PUSH1 0x40 MLOAD PUSH2 0xEF SWAP2 SWAP1 PUSH2 0x638 JUMP JUMPDEST PUSH1 0x40 MLOAD DUP1 SWAP2 SUB SWAP1 RETURN JUMPDEST PUSH2 0x100 PUSH2 0x32F JUMP JUMPDEST PUSH1 0x40 MLOAD PUSH2 0x10D SWAP2 SWAP1 PUSH2 0x6B2 JUMP JUMPDEST PUSH1 0x40 MLOAD DUP1 SWAP2 SUB SWAP1 RETURN JUMPDEST PUSH2 0x11E PUSH2 0x353 JUMP JUMPDEST PUSH1 0x40 MLOAD PUSH2 0x12B SWAP2 SWAP1 PUSH2 0x6CD JUMP JUMPDEST PUSH1 0x40 MLOAD DUP1 SWAP2 SUB SWAP1 RETURN JUMPDEST PUSH2 0x14E PUSH1 0x4 DUP1 CALLDATASIZE SUB DUP2 ADD SWAP1 PUSH2 0x149 SWAP2 SWAP1 PUSH2 0x714 JUMP JUMPDEST PUSH2 0x3DB JUMP JUMPDEST PUSH1 0x40 MLOAD PUSH2 0x15E SWAP5 SWAP4 SWAP3 SWAP2 SWAP1 PUSH2 0x75C JUMP JUMPDEST PUSH1 0x40 MLOAD DUP1 SWAP2 SUB SWAP1 RETURN JUMPDEST PUSH2 0x16F PUSH2 0x438 JUMP JUMPDEST PUSH1 0x40 MLOAD PUSH2 0x17C SWAP2 SWAP1 PUSH2 0x7A1 JUMP JUMPDEST PUSH1 0x40 MLOAD DUP1 SWAP2 SUB SWAP1 RETURN JUMPDEST PUSH2 0x18D PUSH2 0x46C JUMP JUMPDEST STOP JUMPDEST PUSH1 0x0 PUSH1 0x2 PUSH1 0x0 CALLER PUSH20 0xFFFFFFFFFFFFFFFFFFFFFFFFFFFFFFFFFFFFFFFF AND PUSH20 0xFFFFFFFFFFFFFFFFFFFFFFFFFFFFFFFFFFFFFFFF AND DUP2 MSTORE PUSH1 0x20 ADD SWAP1 DUP2 MSTORE PUSH1 0x20 ADD PUSH1 0x0 KECCAK256 SWAP1 POP PUSH1 0x0 DUP2 PUSH1 0x0 ADD SLOAD SUB PUSH2 0x219 JUMPI PUSH1 0x40 MLOAD PUSH32 0x8C379A000000000000000000000000000000000000000000000000000000000 DUP2 MSTORE PUSH1 0x4 ADD PUSH2 0x210 SWAP1 PUSH2 0x819 JUMP JUMPDEST PUSH1 0x40 MLOAD DUP1 SWAP2 SUB SWAP1 REVERT JUMPDEST DUP1 PUSH1 0x1 ADD PUSH1 0x0 SWAP1 SLOAD SWAP1 PUSH2 0x100 EXP SWAP1 DIV PUSH1 0xFF AND ISZERO PUSH2 0x26B JUMPI PUSH1 0x40 MLOAD PUSH32 0x8C379A000000000000000000000000000000000000000000000000000000000 DUP2 MSTORE PUSH1 0x4 ADD PUSH2 0x262 SWAP1 PUSH2 0x885 JUMP JUMPDEST PUSH1 0x40 MLOAD DUP1 SWAP2 SUB SWAP1 REVERT JUMPDEST PUSH1 0x1 DUP2 PUSH1 0x1 ADD PUSH1 0x0 PUSH2 0x100 EXP DUP2 SLOAD DUP2 PUSH1 0xFF MUL NOT AND SWAP1 DUP4 ISZERO ISZERO MUL OR SWAP1 SSTORE POP DUP2 DUP2 PUSH1 0x2 ADD DUP2 SWAP1 SSTORE POP DUP1 PUSH1 0x0 ADD SLOAD PUSH1 0x3 DUP4 DUP2 SLOAD DUP2 LT PUSH2 0x2AA JUMPI PUSH2 0x2A9 PUSH2 0x8A5 JUMP JUMPDEST JUMPDEST SWAP1 PUSH1 0x0 MSTORE PUSH1 0x20 PUSH1 0x0 KECCAK256 SWAP1 PUSH1 0x2 MUL ADD PUSH1 0x1 ADD PUSH1 0x0 DUP3 DUP3 SLOAD PUSH2 0x2CA SWAP2 SWAP1 PUSH2 0x903 JUMP JUMPDEST SWAP3 POP POP DUP2 SWAP1 SSTORE POP POP POP JUMP JUMPDEST PUSH1 0x3 DUP2 DUP2 SLOAD DUP2 LT PUSH2 0x2E5 JUMPI PUSH1 0x0 DUP1 REVERT JUMPDEST SWAP1 PUSH1 0x0 MSTORE PUSH1 0x20 PUSH1 0x0 KECCAK256 SWAP1 PUSH1 0x2 MUL ADD PUSH1 0x0 SWAP2 POP SWAP1 POP DUP1 PUSH1 0x0 ADD SLOAD SWAP1 DUP1 PUSH1 0x1 ADD SLOAD SWAP1 POP DUP3 JUMP JUMPDEST PUSH1 0x1 PUSH1 0x0 SWAP1 SLOAD SWAP1 PUSH2 0x100 EXP SWAP1 DIV PUSH20 0xFFFFFFFFFFFFFFFFFFFFFFFFFFFFFFFFFFFFFFFF AND DUP2 JUMP JUMPDEST PUSH1 0x0 DUP1 SLOAD SWAP1 PUSH2 0x100 EXP SWAP1 DIV PUSH20 0xFFFFFFFFFFFFFFFFFFFFFFFFFFFFFFFFFFFFFFFF AND DUP2 JUMP JUMPDEST PUSH1 0x0 DUP1 PUSH1 0x0 SWAP1 POP PUSH1 0x0 JUMPDEST PUSH1 0x3 DUP1 SLOAD SWAP1 POP DUP2 LT ISZERO PUSH2 0x3D6 JUMPI DUP2 PUSH1 0x3 DUP3 DUP2 SLOAD DUP2 LT PUSH2 0x37F JUMPI PUSH2 0x37E PUSH2 0x8A5 JUMP JUMPDEST JUMPDEST SWAP1 PUSH1 0x0 MSTORE PUSH1 0x20 PUSH1 0x0 KECCAK256 SWAP1 PUSH1 0x2 MUL ADD PUSH1 0x1 ADD SLOAD GT ISZERO PUSH2 0x3C3 JUMPI PUSH1 0x3 DUP2 DUP2 SLOAD DUP2 LT PUSH2 0x3AB JUMPI PUSH2 0x3AA PUSH2 0x8A5 JUMP JUMPDEST JUMPDEST SWAP1 PUSH1 0x0 MSTORE PUSH1 0x20 PUSH1 0x0 KECCAK256 SWAP1 PUSH1 0x2 MUL ADD PUSH1 0x1 ADD SLOAD SWAP2 POP DUP1 SWAP3 POP JUMPDEST DUP1 DUP1 PUSH2 0x3CE SWAP1 PUSH2 0x937 JUMP JUMPDEST SWAP2 POP POP PUSH2 0x35D JUMP JUMPDEST POP POP SWAP1 JUMP JUMPDEST PUSH1 0x2 PUSH1 0x20 MSTORE DUP1 PUSH1 0x0 MSTORE PUSH1 0x40 PUSH1 0x0 KECCAK256 PUSH1 0x0 SWAP2 POP SWAP1 POP DUP1 PUSH1 0x0 ADD SLOAD SWAP1 DUP1 PUSH1 0x1 ADD PUSH1 0x0 SWAP1 SLOAD SWAP1 PUSH2 0x100 EXP SWAP1 DIV PUSH1 0xFF AND SWAP1 DUP1 PUSH1 0x1 ADD PUSH1 0x1 SWAP1 SLOAD SWAP1 PUSH2 0x100 EXP SWAP1 DIV PUSH20 0xFFFFFFFFFFFFFFFFFFFFFFFFFFFFFFFFFFFFFFFF AND SWAP1 DUP1 PUSH1 0x2 ADD SLOAD SWAP1 POP DUP5 JUMP JUMPDEST PUSH1 0x0 PUSH1 0x3 PUSH2 0x444 PUSH2 0x353 JUMP JUMPDEST DUP2 SLOAD DUP2 LT PUSH2 0x455 JUMPI PUSH2 0x454 PUSH2 0x8A5 JUMP JUMPDEST JUMPDEST SWAP1 PUSH1 0x0 MSTORE PUSH1 0x20 PUSH1 0x0 KECCAK256 SWAP1 PUSH1 0x2 MUL ADD PUSH1 0x0 ADD SLOAD SWAP1 POP SWAP1 JUMP JUMPDEST PUSH32 0xEB9F2C7847C327566A2CFFCD0CC9EDBC0D5B763E17989A09B04E8945A1A1E56 PUSH1 0x0 DUP1 SLOAD SWAP1 PUSH2 0x100 EXP SWAP1 DIV PUSH20 0xFFFFFFFFFFFFFFFFFFFFFFFFFFFFFFFFFFFFFFFF AND PUSH20 0xFFFFFFFFFFFFFFFFFFFFFFFFFFFFFFFFFFFFFFFF AND PUSH4 0x70A08231 CALLER PUSH1 0x40 MLOAD DUP3 PUSH4 0xFFFFFFFF AND PUSH1 0xE0 SHL DUP2 MSTORE PUSH1 0x4 ADD PUSH2 0x4E6 SWAP2 SWAP1 PUSH2 0x638 JUMP JUMPDEST PUSH1 0x20 PUSH1 0x40 MLOAD DUP1 DUP4 SUB DUP2 DUP7 GAS STATICCALL ISZERO DUP1 ISZERO PUSH2 0x503 JUMPI RETURNDATASIZE PUSH1 0x0 DUP1 RETURNDATACOPY RETURNDATASIZE PUSH1 0x0 REVERT JUMPDEST POP POP POP POP PUSH1 0x40 MLOAD RETURNDATASIZE PUSH1 0x1F NOT PUSH1 0x1F DUP3 ADD AND DUP3 ADD DUP1 PUSH1 0x40 MSTORE POP DUP2 ADD SWAP1 PUSH2 0x527 SWAP2 SWAP1 PUSH2 0x994 JUMP JUMPDEST PUSH1 0x40 MLOAD PUSH2 0x534 SWAP2 SWAP1 PUSH2 0x6CD JUMP JUMPDEST PUSH1 0x40 MLOAD DUP1 SWAP2 SUB SWAP1 LOG1 JUMP JUMPDEST PUSH1 0x0 DUP1 REVERT JUMPDEST PUSH1 0x0 DUP2 SWAP1 POP SWAP2 SWAP1 POP JUMP JUMPDEST PUSH2 0x556 DUP2 PUSH2 0x543 JUMP JUMPDEST DUP2 EQ PUSH2 0x561 JUMPI PUSH1 0x0 DUP1 REVERT JUMPDEST POP JUMP JUMPDEST PUSH1 0x0 DUP2 CALLDATALOAD SWAP1 POP PUSH2 0x573 DUP2 PUSH2 0x54D JUMP JUMPDEST SWAP3 SWAP2 POP POP JUMP JUMPDEST PUSH1 0x0 PUSH1 0x20 DUP3 DUP5 SUB SLT ISZERO PUSH2 0x58F JUMPI PUSH2 0x58E PUSH2 0x53E JUMP JUMPDEST JUMPDEST PUSH1 0x0 PUSH2 0x59D DUP5 DUP3 DUP6 ADD PUSH2 0x564 JUMP JUMPDEST SWAP2 POP POP SWAP3 SWAP2 POP POP JUMP JUMPDEST PUSH1 0x0 DUP2 SWAP1 POP SWAP2 SWAP1 POP JUMP JUMPDEST PUSH2 0x5B9 DUP2 PUSH2 0x5A6 JUMP JUMPDEST DUP3 MSTORE POP POP JUMP JUMPDEST PUSH2 0x5C8 DUP2 PUSH2 0x543 JUMP JUMPDEST DUP3 MSTORE POP POP JUMP JUMPDEST PUSH1 0x0 PUSH1 0x40 DUP3 ADD SWAP1 POP PUSH2 0x5E3 PUSH1 0x0 DUP4 ADD DUP6 PUSH2 0x5B0 JUMP JUMPDEST PUSH2 0x5F0 PUSH1 0x20 DUP4 ADD DUP5 PUSH2 0x5BF JUMP JUMPDEST SWAP4 SWAP3 POP POP POP JUMP JUMPDEST PUSH1 0x0 PUSH20 0xFFFFFFFFFFFFFFFFFFFFFFFFFFFFFFFFFFFFFFFF DUP3 AND SWAP1 POP SWAP2 SWAP1 POP JUMP JUMPDEST PUSH1 0x0 PUSH2 0x622 DUP3 PUSH2 0x5F7 JUMP JUMPDEST SWAP1 POP SWAP2 SWAP1 POP JUMP JUMPDEST PUSH2 0x632 DUP2 PUSH2 0x617 JUMP JUMPDEST DUP3 MSTORE POP POP JUMP JUMPDEST PUSH1 0x0 PUSH1 0x20 DUP3 ADD SWAP1 POP PUSH2 0x64D PUSH1 0x0 DUP4 ADD DUP5 PUSH2 0x629 JUMP JUMPDEST SWAP3 SWAP2 POP POP JUMP JUMPDEST PUSH1 0x0 DUP2 SWAP1 POP SWAP2 SWAP1 POP JUMP JUMPDEST PUSH1 0x0 PUSH2 0x678 PUSH2 0x673 PUSH2 0x66E DUP5 PUSH2 0x5F7 JUMP JUMPDEST PUSH2 0x653 JUMP JUMPDEST PUSH2 0x5F7 JUMP JUMPDEST SWAP1 POP SWAP2 SWAP1 POP JUMP JUMPDEST PUSH1 0x0 PUSH2 0x68A DUP3 PUSH2 0x65D JUMP JUMPDEST SWAP1 POP SWAP2 SWAP1 POP JUMP JUMPDEST PUSH1 0x0 PUSH2 0x69C DUP3 PUSH2 0x67F JUMP JUMPDEST SWAP1 POP SWAP2 SWAP1 POP JUMP JUMPDEST PUSH2 0x6AC DUP2 PUSH2 0x691 JUMP JUMPDEST DUP3 MSTORE POP POP JUMP JUMPDEST PUSH1 0x0 PUSH1 0x20 DUP3 ADD SWAP1 POP PUSH2 0x6C7 PUSH1 0x0 DUP4 ADD DUP5 PUSH2 0x6A3 JUMP JUMPDEST SWAP3 SWAP2 POP POP JUMP JUMPDEST PUSH1 0x0 PUSH1 0x20 DUP3 ADD SWAP1 POP PUSH2 0x6E2 PUSH1 0x0 DUP4 ADD DUP5 PUSH2 0x5BF JUMP JUMPDEST SWAP3 SWAP2 POP POP JUMP JUMPDEST PUSH2 0x6F1 DUP2 PUSH2 0x617 JUMP JUMPDEST DUP2 EQ PUSH2 0x6FC JUMPI PUSH1 0x0 DUP1 REVERT JUMPDEST POP JUMP JUMPDEST PUSH1 0x0 DUP2 CALLDATALOAD SWAP1 POP PUSH2 0x70E DUP2 PUSH2 0x6E8 JUMP JUMPDEST SWAP3 SWAP2 POP POP JUMP JUMPDEST PUSH1 0x0 PUSH1 0x20 DUP3 DUP5 SUB SLT ISZERO PUSH2 0x72A JUMPI PUSH2 0x729 PUSH2 0x53E JUMP JUMPDEST JUMPDEST PUSH1 0x0 PUSH2 0x738 DUP5 DUP3 DUP6 ADD PUSH2 0x6FF JUMP JUMPDEST SWAP2 POP POP SWAP3 SWAP2 POP POP JUMP JUMPDEST PUSH1 0x0 DUP2 ISZERO ISZERO SWAP1 POP SWAP2 SWAP1 POP JUMP JUMPDEST PUSH2 0x756 DUP2 PUSH2 0x741 JUMP JUMPDEST DUP3 MSTORE POP POP JUMP JUMPDEST PUSH1 0x0 PUSH1 0x80 DUP3 ADD SWAP1 POP PUSH2 0x771 PUSH1 0x0 DUP4 ADD DUP8 PUSH2 0x5BF JUMP JUMPDEST PUSH2 0x77E PUSH1 0x20 DUP4 ADD DUP7 PUSH2 0x74D JUMP JUMPDEST PUSH2 0x78B PUSH1 0x40 DUP4 ADD DUP6 PUSH2 0x629 JUMP JUMPDEST PUSH2 0x798 PUSH1 0x60 DUP4 ADD DUP5 PUSH2 0x5BF JUMP JUMPDEST SWAP6 SWAP5 POP POP POP POP POP JUMP JUMPDEST PUSH1 0x0 PUSH1 0x20 DUP3 ADD SWAP1 POP PUSH2 0x7B6 PUSH1 0x0 DUP4 ADD DUP5 PUSH2 0x5B0 JUMP JUMPDEST SWAP3 SWAP2 POP POP JUMP JUMPDEST PUSH1 0x0 DUP3 DUP3 MSTORE PUSH1 0x20 DUP3 ADD SWAP1 POP SWAP3 SWAP2 POP POP JUMP JUMPDEST PUSH32 0x486173206E6F20726967687420746F20766F7465000000000000000000000000 PUSH1 0x0 DUP3 ADD MSTORE POP JUMP JUMPDEST PUSH1 0x0 PUSH2 0x803 PUSH1 0x14 DUP4 PUSH2 0x7BC JUMP JUMPDEST SWAP2 POP PUSH2 0x80E DUP3 PUSH2 0x7CD JUMP JUMPDEST PUSH1 0x20 DUP3 ADD SWAP1 POP SWAP2 SWAP1 POP JUMP JUMPDEST PUSH1 0x0 PUSH1 0x20 DUP3 ADD SWAP1 POP DUP2 DUP2 SUB PUSH1 0x0 DUP4 ADD MSTORE PUSH2 0x832 DUP2 PUSH2 0x7F6 JUMP JUMPDEST SWAP1 POP SWAP2 SWAP1 POP JUMP JUMPDEST PUSH32 0x416C726561647920766F7465642E000000000000000000000000000000000000 PUSH1 0x0 DUP3 ADD MSTORE POP JUMP JUMPDEST PUSH1 0x0 PUSH2 0x86F PUSH1 0xE DUP4 PUSH2 0x7BC JUMP JUMPDEST SWAP2 POP PUSH2 0x87A DUP3 PUSH2 0x839 JUMP JUMPDEST PUSH1 0x20 DUP3 ADD SWAP1 POP SWAP2 SWAP1 POP JUMP JUMPDEST PUSH1 0x0 PUSH1 0x20 DUP3 ADD SWAP1 POP DUP2 DUP2 SUB PUSH1 0x0 DUP4 ADD MSTORE PUSH2 0x89E DUP2 PUSH2 0x862 JUMP JUMPDEST SWAP1 POP SWAP2 SWAP1 POP JUMP JUMPDEST PUSH32 0x4E487B7100000000000000000000000000000000000000000000000000000000 PUSH1 0x0 MSTORE PUSH1 0x32 PUSH1 0x4 MSTORE PUSH1 0x24 PUSH1 0x0 REVERT JUMPDEST PUSH32 0x4E487B7100000000000000000000000000000000000000000000000000000000 PUSH1 0x0 MSTORE PUSH1 0x11 PUSH1 0x4 MSTORE PUSH1 0x24 PUSH1 0x0 REVERT JUMPDEST PUSH1 0x0 PUSH2 0x90E DUP3 PUSH2 0x543 JUMP JUMPDEST SWAP2 POP PUSH2 0x919 DUP4 PUSH2 0x543 JUMP JUMPDEST SWAP3 POP DUP3 DUP3 ADD SWAP1 POP DUP1 DUP3 GT ISZERO PUSH2 0x931 JUMPI PUSH2 0x930 PUSH2 0x8D4 JUMP JUMPDEST JUMPDEST SWAP3 SWAP2 POP POP JUMP JUMPDEST PUSH1 0x0 PUSH2 0x942 DUP3 PUSH2 0x543 JUMP JUMPDEST SWAP2 POP PUSH32 0xFFFFFFFFFFFFFFFFFFFFFFFFFFFFFFFFFFFFFFFFFFFFFFFFFFFFFFFFFFFFFFFF DUP3 SUB PUSH2 0x974 JUMPI PUSH2 0x973 PUSH2 0x8D4 JUMP JUMPDEST JUMPDEST PUSH1 0x1 DUP3 ADD SWAP1 POP SWAP2 SWAP1 POP JUMP JUMPDEST PUSH1 0x0 DUP2 MLOAD SWAP1 POP PUSH2 0x98E DUP2 PUSH2 0x54D JUMP JUMPDEST SWAP3 SWAP2 POP POP JUMP JUMPDEST PUSH1 0x0 PUSH1 0x20 DUP3 DUP5 SUB SLT ISZERO PUSH2 0x9AA JUMPI PUSH2 0x9A9 PUSH2 0x53E JUMP JUMPDEST JUMPDEST PUSH1 0x0 PUSH2 0x9B8 DUP5 DUP3 DUP6 ADD PUSH2 0x97F JUMP JUMPDEST SWAP2 POP POP SWAP3 SWAP2 POP POP JUMP INVALID LOG2 PUSH5 0x6970667358 0x22 SLT KECCAK256 0xBF ISZERO 0xC RETURN SWAP16 PUSH29 0x99F91C1804B0BCEF4A7E74B4FA72F7006940B0B604A1EA268ACB64736F PUSH13 0x63430008110033000000000000 "
				},
				"gasEstimates": {
					"creation": {
						"codeDepositCost": "510200",
						"executionCost": "infinite",
						"totalCost": "infinite"
					},
					"external": {
						"chairperson()": "2559",
						"proposals(uint256)": "infinite",
						"test()": "infinite",
						"twitt()": "infinite",
						"vote(uint256)": "infinite",
						"voters(address)": "infinite",
						"winnerName()": "infinite",
						"winningProposal()": "infinite"
					}
				},
				"methodIdentifiers": {
					"chairperson()": "2e4176cf",
					"proposals(uint256)": "013cf08b",
					"test()": "f8a8fd6d",
					"twitt()": "49e0335f",
					"vote(uint256)": "0121b93f",
					"voters(address)": "a3ec138d",
					"winnerName()": "e2ba53f0",
					"winningProposal()": "609ff1bd"
				}
			},
			"storageLayout": {
				"storage": [
					{
						"astId": 84,
						"contract": "contract-71ad24318f.sol:BallotBox",
						"label": "twitt",
						"offset": 0,
						"slot": "0",
						"type": "t_contract(IERC20)77"
					},
					{
						"astId": 86,
						"contract": "contract-71ad24318f.sol:BallotBox",
						"label": "locked",
						"offset": 20,
						"slot": "0",
						"type": "t_bool"
					},
					{
						"astId": 151,
						"contract": "contract-71ad24318f.sol:BallotBox",
						"label": "chairperson",
						"offset": 0,
						"slot": "1",
						"type": "t_address"
					},
					{
						"astId": 156,
						"contract": "contract-71ad24318f.sol:BallotBox",
						"label": "voters",
						"offset": 0,
						"slot": "2",
						"type": "t_mapping(t_address,t_struct(Voter)144_storage)"
					},
					{
						"astId": 160,
						"contract": "contract-71ad24318f.sol:BallotBox",
						"label": "proposals",
						"offset": 0,
						"slot": "3",
						"type": "t_array(t_struct(Proposal)149_storage)dyn_storage"
					}
				],
				"types": {
					"t_address": {
						"encoding": "inplace",
						"label": "address",
						"numberOfBytes": "20"
					},
					"t_array(t_struct(Proposal)149_storage)dyn_storage": {
						"base": "t_struct(Proposal)149_storage",
						"encoding": "dynamic_array",
						"label": "struct BallotBox.Proposal[]",
						"numberOfBytes": "32"
					},
					"t_bool": {
						"encoding": "inplace",
						"label": "bool",
						"numberOfBytes": "1"
					},
					"t_bytes32": {
						"encoding": "inplace",
						"label": "bytes32",
						"numberOfBytes": "32"
					},
					"t_contract(IERC20)77": {
						"encoding": "inplace",
						"label": "contract IERC20",
						"numberOfBytes": "20"
					},
					"t_mapping(t_address,t_struct(Voter)144_storage)": {
						"encoding": "mapping",
						"key": "t_address",
						"label": "mapping(address => struct BallotBox.Voter)",
						"numberOfBytes": "32",
						"value": "t_struct(Voter)144_storage"
					},
					"t_struct(Proposal)149_storage": {
						"encoding": "inplace",
						"label": "struct BallotBox.Proposal",
						"members": [
							{
								"astId": 146,
								"contract": "contract-71ad24318f.sol:BallotBox",
								"label": "name",
								"offset": 0,
								"slot": "0",
								"type": "t_bytes32"
							},
							{
								"astId": 148,
								"contract": "contract-71ad24318f.sol:BallotBox",
								"label": "voteCount",
								"offset": 0,
								"slot": "1",
								"type": "t_uint256"
							}
						],
						"numberOfBytes": "64"
					},
					"t_struct(Voter)144_storage": {
						"encoding": "inplace",
						"label": "struct BallotBox.Voter",
						"members": [
							{
								"astId": 137,
								"contract": "contract-71ad24318f.sol:BallotBox",
								"label": "weight",
								"offset": 0,
								"slot": "0",
								"type": "t_uint256"
							},
							{
								"astId": 139,
								"contract": "contract-71ad24318f.sol:BallotBox",
								"label": "voted",
								"offset": 0,
								"slot": "1",
								"type": "t_bool"
							},
							{
								"astId": 141,
								"contract": "contract-71ad24318f.sol:BallotBox",
								"label": "delegate",
								"offset": 1,
								"slot": "1",
								"type": "t_address"
							},
							{
								"astId": 143,
								"contract": "contract-71ad24318f.sol:BallotBox",
								"label": "vote",
								"offset": 0,
								"slot": "2",
								"type": "t_uint256"
							}
						],
						"numberOfBytes": "96"
					},
					"t_uint256": {
						"encoding": "inplace",
						"label": "uint256",
						"numberOfBytes": "32"
					}
				}
			},
			"userdoc": {
				"kind": "user",
				"methods": {
					"constructor": {
						"notice": "Create a new ballot to choose one of `proposalNames`."
					},
					"vote(uint256)": {
						"notice": "Give your vote (including votes delegated to you) to proposal `proposals[proposal].name`."
					}
				},
				"version": 1
			}
		}
	}
}