{
	"contract-71ad24318f.sol": {
		"BallotBox": {
			"abi": [
				{
					"inputs": [
						{
							"internalType": "address",
							"name": "_twitt",
							"type": "address"
						}
					],
					"stateMutability": "nonpayable",
					"type": "constructor"
				},
				{
					"anonymous": false,
					"inputs": [
						{
							"indexed": false,
							"internalType": "uint256",
							"name": "balances",
							"type": "uint256"
						}
					],
					"name": "balncer",
					"type": "event"
				},
				{
					"inputs": [
						{
							"internalType": "uint256",
							"name": "",
							"type": "uint256"
						}
					],
					"name": "proposals",
					"outputs": [
						{
							"internalType": "bytes32",
							"name": "hashtag",
							"type": "bytes32"
						},
						{
							"internalType": "uint256",
							"name": "voteCount",
							"type": "uint256"
						}
					],
					"stateMutability": "view",
					"type": "function"
				},
				{
					"inputs": [],
					"name": "test",
					"outputs": [],
					"stateMutability": "nonpayable",
					"type": "function"
				},
				{
					"inputs": [],
					"name": "twitt",
					"outputs": [
						{
							"internalType": "contract IERC20",
							"name": "",
							"type": "address"
						}
					],
					"stateMutability": "view",
					"type": "function"
				},
				{
					"inputs": [
						{
							"internalType": "uint256",
							"name": "proposal",
							"type": "uint256"
						}
					],
					"name": "voteExisting",
					"outputs": [],
					"stateMutability": "nonpayable",
					"type": "function"
				},
				{
					"inputs": [
						{
							"internalType": "bytes32",
							"name": "_hashtag",
							"type": "bytes32"
						}
					],
					"name": "voteNew",
					"outputs": [],
					"stateMutability": "nonpayable",
					"type": "function"
				},
				{
					"inputs": [
						{
							"internalType": "address",
							"name": "",
							"type": "address"
						}
					],
					"name": "voters",
					"outputs": [
						{
							"internalType": "bool",
							"name": "voted",
							"type": "bool"
						},
						{
							"internalType": "uint256",
							"name": "vote",
							"type": "uint256"
						},
						{
							"internalType": "bytes32",
							"name": "hashtag",
							"type": "bytes32"
						}
					],
					"stateMutability": "view",
					"type": "function"
				},
				{
					"inputs": [],
					"name": "winnerName",
					"outputs": [
						{
							"internalType": "bytes32",
							"name": "winnerName_",
							"type": "bytes32"
						}
					],
					"stateMutability": "view",
					"type": "function"
				},
				{
					"inputs": [],
					"name": "winningProposal",
					"outputs": [
						{
							"internalType": "uint256",
							"name": "winningProposal_",
							"type": "uint256"
						}
					],
					"stateMutability": "view",
					"type": "function"
				}
			],
			"devdoc": {
				"kind": "dev",
				"methods": {
					"winningProposal()": {
						"details": "Computes the winning proposal taking all previous votes into account."
					}
				},
				"title": "Voting with delegation.",
				"version": 1
			},
			"evm": {
				"assembly": "    /* \"contract-71ad24318f.sol\":160:3406  contract BallotBox {... */\n  mstore(0x40, 0x80)\n    /* \"contract-71ad24318f.sol\":1393:1461  constructor(address  _twitt) {... */\n  callvalue\n  dup1\n  iszero\n  tag_1\n  jumpi\n  0x00\n  dup1\n  revert\ntag_1:\n  pop\n  mload(0x40)\n  sub(codesize, bytecodeSize)\n  dup1\n  bytecodeSize\n  dup4\n  codecopy\n  dup2\n  dup2\n  add\n  0x40\n  mstore\n  dup2\n  add\n  swap1\n  tag_2\n  swap2\n  swap1\n  tag_3\n  jump\t// in\ntag_2:\n    /* \"contract-71ad24318f.sol\":1447:1453  _twitt */\n  dup1\n    /* \"contract-71ad24318f.sol\":1432:1437  twitt */\n  0x00\n  dup1\n    /* \"contract-71ad24318f.sol\":1432:1454  twitt = IERC20(_twitt) */\n  0x0100\n  exp\n  dup2\n  sload\n  dup2\n  0xffffffffffffffffffffffffffffffffffffffff\n  mul\n  not\n  and\n  swap1\n  dup4\n  0xffffffffffffffffffffffffffffffffffffffff\n  and\n  mul\n  or\n  swap1\n  sstore\n  pop\n    /* \"contract-71ad24318f.sol\":1393:1461  constructor(address  _twitt) {... */\n  pop\n    /* \"contract-71ad24318f.sol\":160:3406  contract BallotBox {... */\n  jump(tag_6)\n    /* \"#utility.yul\":88:205   */\ntag_8:\n    /* \"#utility.yul\":197:198   */\n  0x00\n    /* \"#utility.yul\":194:195   */\n  dup1\n    /* \"#utility.yul\":187:199   */\n  revert\n    /* \"#utility.yul\":334:460   */\ntag_10:\n    /* \"#utility.yul\":371:378   */\n  0x00\n    /* \"#utility.yul\":411:453   */\n  0xffffffffffffffffffffffffffffffffffffffff\n    /* \"#utility.yul\":404:409   */\n  dup3\n    /* \"#utility.yul\":400:454   */\n  and\n    /* \"#utility.yul\":389:454   */\n  swap1\n  pop\n    /* \"#utility.yul\":334:460   */\n  swap2\n  swap1\n  pop\n  jump\t// out\n    /* \"#utility.yul\":466:562   */\ntag_11:\n    /* \"#utility.yul\":503:510   */\n  0x00\n    /* \"#utility.yul\":532:556   */\n  tag_20\n    /* \"#utility.yul\":550:555   */\n  dup3\n    /* \"#utility.yul\":532:556   */\n  tag_10\n  jump\t// in\ntag_20:\n    /* \"#utility.yul\":521:556   */\n  swap1\n  pop\n    /* \"#utility.yul\":466:562   */\n  swap2\n  swap1\n  pop\n  jump\t// out\n    /* \"#utility.yul\":568:690   */\ntag_12:\n    /* \"#utility.yul\":641:665   */\n  tag_22\n    /* \"#utility.yul\":659:664   */\n  dup2\n    /* \"#utility.yul\":641:665   */\n  tag_11\n  jump\t// in\ntag_22:\n    /* \"#utility.yul\":634:639   */\n  dup2\n    /* \"#utility.yul\":631:666   */\n  eq\n    /* \"#utility.yul\":621:684   */\n  tag_23\n  jumpi\n    /* \"#utility.yul\":680:681   */\n  0x00\n    /* \"#utility.yul\":677:678   */\n  dup1\n    /* \"#utility.yul\":670:682   */\n  revert\n    /* \"#utility.yul\":621:684   */\ntag_23:\n    /* \"#utility.yul\":568:690   */\n  pop\n  jump\t// out\n    /* \"#utility.yul\":696:839   */\ntag_13:\n    /* \"#utility.yul\":753:758   */\n  0x00\n    /* \"#utility.yul\":784:790   */\n  dup2\n    /* \"#utility.yul\":778:791   */\n  mload\n    /* \"#utility.yul\":769:791   */\n  swap1\n  pop\n    /* \"#utility.yul\":800:833   */\n  tag_25\n    /* \"#utility.yul\":827:832   */\n  dup2\n    /* \"#utility.yul\":800:833   */\n  tag_12\n  jump\t// in\ntag_25:\n    /* \"#utility.yul\":696:839   */\n  swap3\n  swap2\n  pop\n  pop\n  jump\t// out\n    /* \"#utility.yul\":845:1196   */\ntag_3:\n    /* \"#utility.yul\":915:921   */\n  0x00\n    /* \"#utility.yul\":964:966   */\n  0x20\n    /* \"#utility.yul\":952:961   */\n  dup3\n    /* \"#utility.yul\":943:950   */\n  dup5\n    /* \"#utility.yul\":939:962   */\n  sub\n    /* \"#utility.yul\":935:967   */\n  slt\n    /* \"#utility.yul\":932:1051   */\n  iszero\n  tag_27\n  jumpi\n    /* \"#utility.yul\":970:1049   */\n  tag_28\n  tag_8\n  jump\t// in\ntag_28:\n    /* \"#utility.yul\":932:1051   */\ntag_27:\n    /* \"#utility.yul\":1090:1091   */\n  0x00\n    /* \"#utility.yul\":1115:1179   */\n  tag_29\n    /* \"#utility.yul\":1171:1178   */\n  dup5\n    /* \"#utility.yul\":1162:1168   */\n  dup3\n    /* \"#utility.yul\":1151:1160   */\n  dup6\n    /* \"#utility.yul\":1147:1169   */\n  add\n    /* \"#utility.yul\":1115:1179   */\n  tag_13\n  jump\t// in\ntag_29:\n    /* \"#utility.yul\":1105:1179   */\n  swap2\n  pop\n    /* \"#utility.yul\":1061:1189   */\n  pop\n    /* \"#utility.yul\":845:1196   */\n  swap3\n  swap2\n  pop\n  pop\n  jump\t// out\n    /* \"contract-71ad24318f.sol\":160:3406  contract BallotBox {... */\ntag_6:\n  dataSize(sub_0)\n  dup1\n  dataOffset(sub_0)\n  0x00\n  codecopy\n  0x00\n  return\nstop\n\nsub_0: assembly {\n        /* \"contract-71ad24318f.sol\":160:3406  contract BallotBox {... */\n      mstore(0x40, 0x80)\n      callvalue\n      dup1\n      iszero\n      tag_1\n      jumpi\n      0x00\n      dup1\n      revert\n    tag_1:\n      pop\n      jumpi(tag_2, lt(calldatasize, 0x04))\n      shr(0xe0, calldataload(0x00))\n      dup1\n      0xa3ec138d\n      gt\n      tag_11\n      jumpi\n      dup1\n      0xa3ec138d\n      eq\n      tag_7\n      jumpi\n      dup1\n      0xd055f2f0\n      eq\n      tag_8\n      jumpi\n      dup1\n      0xe2ba53f0\n      eq\n      tag_9\n      jumpi\n      dup1\n      0xf8a8fd6d\n      eq\n      tag_10\n      jumpi\n      jump(tag_2)\n    tag_11:\n      dup1\n      0x013cf08b\n      eq\n      tag_3\n      jumpi\n      dup1\n      0x420336b5\n      eq\n      tag_4\n      jumpi\n      dup1\n      0x49e0335f\n      eq\n      tag_5\n      jumpi\n      dup1\n      0x609ff1bd\n      eq\n      tag_6\n      jumpi\n    tag_2:\n      0x00\n      dup1\n      revert\n        /* \"contract-71ad24318f.sol\":1297:1324  Proposal[] public proposals */\n    tag_3:\n      tag_12\n      0x04\n      dup1\n      calldatasize\n      sub\n      dup2\n      add\n      swap1\n      tag_13\n      swap2\n      swap1\n      tag_14\n      jump\t// in\n    tag_13:\n      tag_15\n      jump\t// in\n    tag_12:\n      mload(0x40)\n      tag_16\n      swap3\n      swap2\n      swap1\n      tag_17\n      jump\t// in\n    tag_16:\n      mload(0x40)\n      dup1\n      swap2\n      sub\n      swap1\n      return\n        /* \"contract-71ad24318f.sol\":2028:2629  function voteNew(bytes32 _hashtag) isHolder noReentrant external {... */\n    tag_4:\n      tag_18\n      0x04\n      dup1\n      calldatasize\n      sub\n      dup2\n      add\n      swap1\n      tag_19\n      swap2\n      swap1\n      tag_20\n      jump\t// in\n    tag_19:\n      tag_21\n      jump\t// in\n    tag_18:\n      stop\n        /* \"contract-71ad24318f.sol\":313:332  IERC20 public twitt */\n    tag_5:\n      tag_22\n      tag_23\n      jump\t// in\n    tag_22:\n      mload(0x40)\n      tag_24\n      swap2\n      swap1\n      tag_25\n      jump\t// in\n    tag_24:\n      mload(0x40)\n      dup1\n      swap2\n      sub\n      swap1\n      return\n        /* \"contract-71ad24318f.sol\":2726:3091  function winningProposal() public view... */\n    tag_6:\n      tag_26\n      tag_27\n      jump\t// in\n    tag_26:\n      mload(0x40)\n      tag_28\n      swap2\n      swap1\n      tag_29\n      jump\t// in\n    tag_28:\n      mload(0x40)\n      dup1\n      swap2\n      sub\n      swap1\n      return\n        /* \"contract-71ad24318f.sol\":1195:1234  mapping(address => Voter) public voters */\n    tag_7:\n      tag_30\n      0x04\n      dup1\n      calldatasize\n      sub\n      dup2\n      add\n      swap1\n      tag_31\n      swap2\n      swap1\n      tag_32\n      jump\t// in\n    tag_31:\n      tag_33\n      jump\t// in\n    tag_30:\n      mload(0x40)\n      tag_34\n      swap4\n      swap3\n      swap2\n      swap1\n      tag_35\n      jump\t// in\n    tag_34:\n      mload(0x40)\n      dup1\n      swap2\n      sub\n      swap1\n      return\n        /* \"contract-71ad24318f.sol\":1579:2022  function voteExisting(uint proposal) isHolder noReentrant external {... */\n    tag_8:\n      tag_36\n      0x04\n      dup1\n      calldatasize\n      sub\n      dup2\n      add\n      swap1\n      tag_37\n      swap2\n      swap1\n      tag_14\n      jump\t// in\n    tag_37:\n      tag_38\n      jump\t// in\n    tag_36:\n      stop\n        /* \"contract-71ad24318f.sol\":3255:3404  function winnerName() external view... */\n    tag_9:\n      tag_39\n      tag_40\n      jump\t// in\n    tag_39:\n      mload(0x40)\n      tag_41\n      swap2\n      swap1\n      tag_42\n      jump\t// in\n    tag_41:\n      mload(0x40)\n      dup1\n      swap2\n      sub\n      swap1\n      return\n        /* \"contract-71ad24318f.sol\":657:738  function test() public {... */\n    tag_10:\n      tag_43\n      tag_44\n      jump\t// in\n    tag_43:\n      stop\n        /* \"contract-71ad24318f.sol\":1297:1324  Proposal[] public proposals */\n    tag_15:\n      0x02\n      dup2\n      dup2\n      sload\n      dup2\n      lt\n      tag_45\n      jumpi\n      0x00\n      dup1\n      revert\n    tag_45:\n      swap1\n      0x00\n      mstore\n      keccak256(0x00, 0x20)\n      swap1\n      0x02\n      mul\n      add\n      0x00\n      swap2\n      pop\n      swap1\n      pop\n      dup1\n      0x00\n      add\n      sload\n      swap1\n      dup1\n      0x01\n      add\n      sload\n      swap1\n      pop\n      dup3\n      jump\t// out\n        /* \"contract-71ad24318f.sol\":2028:2629  function voteNew(bytes32 _hashtag) isHolder noReentrant external {... */\n    tag_21:\n        /* \"contract-71ad24318f.sol\":569:570  0 */\n      0x00\n        /* \"contract-71ad24318f.sol\":541:546  twitt */\n      dup1\n      0x00\n      swap1\n      sload\n      swap1\n      0x0100\n      exp\n      swap1\n      div\n      0xffffffffffffffffffffffffffffffffffffffff\n      and\n        /* \"contract-71ad24318f.sol\":541:556  twitt.balanceOf */\n      0xffffffffffffffffffffffffffffffffffffffff\n      and\n      0x70a08231\n        /* \"contract-71ad24318f.sol\":557:567  msg.sender */\n      caller\n        /* \"contract-71ad24318f.sol\":541:568  twitt.balanceOf(msg.sender) */\n      mload(0x40)\n      dup3\n      0xffffffff\n      and\n      0xe0\n      shl\n      dup2\n      mstore\n      0x04\n      add\n      tag_48\n      swap2\n      swap1\n      tag_49\n      jump\t// in\n    tag_48:\n      0x20\n      mload(0x40)\n      dup1\n      dup4\n      sub\n      dup2\n      dup7\n      gas\n      staticcall\n      iszero\n      dup1\n      iszero\n      tag_51\n      jumpi\n      returndatasize\n      0x00\n      dup1\n      returndatacopy\n      revert(0x00, returndatasize)\n    tag_51:\n      pop\n      pop\n      pop\n      pop\n      mload(0x40)\n      returndatasize\n      not(0x1f)\n      0x1f\n      dup3\n      add\n      and\n      dup3\n      add\n      dup1\n      0x40\n      mstore\n      pop\n      dup2\n      add\n      swap1\n      tag_52\n      swap2\n      swap1\n      tag_53\n      jump\t// in\n    tag_52:\n        /* \"contract-71ad24318f.sol\":541:570  twitt.balanceOf(msg.sender)>0 */\n      gt\n        /* \"contract-71ad24318f.sol\":533:596  require(twitt.balanceOf(msg.sender)>0, \"you cant vote bastard\") */\n      tag_54\n      jumpi\n      mload(0x40)\n      0x08c379a000000000000000000000000000000000000000000000000000000000\n      dup2\n      mstore\n      0x04\n      add\n      tag_55\n      swap1\n      tag_56\n      jump\t// in\n    tag_55:\n      mload(0x40)\n      dup1\n      swap2\n      sub\n      swap1\n      revert\n    tag_54:\n        /* \"contract-71ad24318f.sol\":407:413  locked */\n      0x00\n      0x14\n      swap1\n      sload\n      swap1\n      0x0100\n      exp\n      swap1\n      div\n      0xff\n      and\n        /* \"contract-71ad24318f.sol\":406:413  !locked */\n      iszero\n        /* \"contract-71ad24318f.sol\":398:432  require(!locked, \"No re-entrancy\") */\n      tag_58\n      jumpi\n      mload(0x40)\n      0x08c379a000000000000000000000000000000000000000000000000000000000\n      dup2\n      mstore\n      0x04\n      add\n      tag_59\n      swap1\n      tag_60\n      jump\t// in\n    tag_59:\n      mload(0x40)\n      dup1\n      swap2\n      sub\n      swap1\n      revert\n    tag_58:\n        /* \"contract-71ad24318f.sol\":451:455  true */\n      0x01\n        /* \"contract-71ad24318f.sol\":442:448  locked */\n      0x00\n      0x14\n        /* \"contract-71ad24318f.sol\":442:455  locked = true */\n      0x0100\n      exp\n      dup2\n      sload\n      dup2\n      0xff\n      mul\n      not\n      and\n      swap1\n      dup4\n      iszero\n      iszero\n      mul\n      or\n      swap1\n      sstore\n      pop\n        /* \"contract-71ad24318f.sol\":2103:2123  Voter storage sender */\n      0x00\n        /* \"contract-71ad24318f.sol\":2126:2132  voters */\n      0x01\n        /* \"contract-71ad24318f.sol\":2126:2144  voters[msg.sender] */\n      0x00\n        /* \"contract-71ad24318f.sol\":2133:2143  msg.sender */\n      caller\n        /* \"contract-71ad24318f.sol\":2126:2144  voters[msg.sender] */\n      0xffffffffffffffffffffffffffffffffffffffff\n      and\n      0xffffffffffffffffffffffffffffffffffffffff\n      and\n      dup2\n      mstore\n      0x20\n      add\n      swap1\n      dup2\n      mstore\n      0x20\n      add\n      0x00\n      keccak256\n        /* \"contract-71ad24318f.sol\":2103:2144  Voter storage sender = voters[msg.sender] */\n      swap1\n      pop\n        /* \"contract-71ad24318f.sol\":2163:2169  sender */\n      dup1\n        /* \"contract-71ad24318f.sol\":2163:2175  sender.voted */\n      0x00\n      add\n      0x00\n      swap1\n      sload\n      swap1\n      0x0100\n      exp\n      swap1\n      div\n      0xff\n      and\n        /* \"contract-71ad24318f.sol\":2162:2175  !sender.voted */\n      iszero\n        /* \"contract-71ad24318f.sol\":2154:2194  require(!sender.voted, \"Already voted.\") */\n      tag_62\n      jumpi\n      mload(0x40)\n      0x08c379a000000000000000000000000000000000000000000000000000000000\n      dup2\n      mstore\n      0x04\n      add\n      tag_63\n      swap1\n      tag_64\n      jump\t// in\n    tag_63:\n      mload(0x40)\n      dup1\n      swap2\n      sub\n      swap1\n      revert\n    tag_62:\n        /* \"contract-71ad24318f.sol\":2219:2223  true */\n      0x01\n        /* \"contract-71ad24318f.sol\":2204:2210  sender */\n      dup2\n        /* \"contract-71ad24318f.sol\":2204:2216  sender.voted */\n      0x00\n      add\n      0x00\n        /* \"contract-71ad24318f.sol\":2204:2223  sender.voted = true */\n      0x0100\n      exp\n      dup2\n      sload\n      dup2\n      0xff\n      mul\n      not\n      and\n      swap1\n      dup4\n      iszero\n      iszero\n      mul\n      or\n      swap1\n      sstore\n      pop\n        /* \"contract-71ad24318f.sol\":2233:2242  proposals */\n      0x02\n        /* \"contract-71ad24318f.sol\":2248:2337  Proposal({... */\n      mload(0x40)\n      dup1\n      0x40\n      add\n      0x40\n      mstore\n      dup1\n        /* \"contract-71ad24318f.sol\":2284:2292  _hashtag */\n      dup5\n        /* \"contract-71ad24318f.sol\":2248:2337  Proposal({... */\n      dup2\n      mstore\n      0x20\n      add\n        /* \"contract-71ad24318f.sol\":2321:2322  0 */\n      0x00\n        /* \"contract-71ad24318f.sol\":2248:2337  Proposal({... */\n      dup2\n      mstore\n      pop\n        /* \"contract-71ad24318f.sol\":2233:2338  proposals.push(Proposal({... */\n      swap1\n      dup1\n      0x01\n      dup2\n      sload\n      add\n      dup1\n      dup3\n      sstore\n      dup1\n      swap2\n      pop\n      pop\n      0x01\n      swap1\n      sub\n      swap1\n      0x00\n      mstore\n      keccak256(0x00, 0x20)\n      swap1\n      0x02\n      mul\n      add\n      0x00\n      swap1\n      swap2\n      swap1\n      swap2\n      swap1\n      swap2\n      pop\n      0x00\n      dup3\n      add\n      mload\n      dup2\n      0x00\n      add\n      sstore\n      0x20\n      dup3\n      add\n      mload\n      dup2\n      0x01\n      add\n      sstore\n      pop\n      pop\n        /* \"contract-71ad24318f.sol\":2348:2364  uint256 proposal */\n      0x00\n        /* \"contract-71ad24318f.sol\":2384:2385  1 */\n      0x01\n        /* \"contract-71ad24318f.sol\":2367:2376  proposals */\n      0x02\n        /* \"contract-71ad24318f.sol\":2367:2383  proposals.length */\n      dup1\n      sload\n      swap1\n      pop\n        /* \"contract-71ad24318f.sol\":2367:2385  proposals.length-1 */\n      tag_66\n      swap2\n      swap1\n      tag_67\n      jump\t// in\n    tag_66:\n        /* \"contract-71ad24318f.sol\":2348:2385  uint256 proposal = proposals.length-1 */\n      swap1\n      pop\n        /* \"contract-71ad24318f.sol\":2409:2417  proposal */\n      dup1\n        /* \"contract-71ad24318f.sol\":2395:2401  sender */\n      dup3\n        /* \"contract-71ad24318f.sol\":2395:2406  sender.vote */\n      0x01\n      add\n        /* \"contract-71ad24318f.sol\":2395:2417  sender.vote = proposal */\n      dup2\n      swap1\n      sstore\n      pop\n        /* \"contract-71ad24318f.sol\":2595:2600  twitt */\n      0x00\n      dup1\n      sload\n      swap1\n      0x0100\n      exp\n      swap1\n      div\n      0xffffffffffffffffffffffffffffffffffffffff\n      and\n        /* \"contract-71ad24318f.sol\":2595:2610  twitt.balanceOf */\n      0xffffffffffffffffffffffffffffffffffffffff\n      and\n      0x70a08231\n        /* \"contract-71ad24318f.sol\":2611:2621  msg.sender */\n      caller\n        /* \"contract-71ad24318f.sol\":2595:2622  twitt.balanceOf(msg.sender) */\n      mload(0x40)\n      dup3\n      0xffffffff\n      and\n      0xe0\n      shl\n      dup2\n      mstore\n      0x04\n      add\n      tag_68\n      swap2\n      swap1\n      tag_49\n      jump\t// in\n    tag_68:\n      0x20\n      mload(0x40)\n      dup1\n      dup4\n      sub\n      dup2\n      dup7\n      gas\n      staticcall\n      iszero\n      dup1\n      iszero\n      tag_70\n      jumpi\n      returndatasize\n      0x00\n      dup1\n      returndatacopy\n      revert(0x00, returndatasize)\n    tag_70:\n      pop\n      pop\n      pop\n      pop\n      mload(0x40)\n      returndatasize\n      not(0x1f)\n      0x1f\n      dup3\n      add\n      and\n      dup3\n      add\n      dup1\n      0x40\n      mstore\n      pop\n      dup2\n      add\n      swap1\n      tag_71\n      swap2\n      swap1\n      tag_53\n      jump\t// in\n    tag_71:\n        /* \"contract-71ad24318f.sol\":2562:2571  proposals */\n      0x02\n        /* \"contract-71ad24318f.sol\":2572:2580  proposal */\n      dup3\n        /* \"contract-71ad24318f.sol\":2562:2581  proposals[proposal] */\n      dup2\n      sload\n      dup2\n      lt\n      tag_72\n      jumpi\n      tag_73\n      tag_74\n      jump\t// in\n    tag_73:\n    tag_72:\n      swap1\n      0x00\n      mstore\n      keccak256(0x00, 0x20)\n      swap1\n      0x02\n      mul\n      add\n        /* \"contract-71ad24318f.sol\":2562:2591  proposals[proposal].voteCount */\n      0x01\n      add\n      0x00\n        /* \"contract-71ad24318f.sol\":2562:2622  proposals[proposal].voteCount += twitt.balanceOf(msg.sender) */\n      dup3\n      dup3\n      sload\n      tag_76\n      swap2\n      swap1\n      tag_77\n      jump\t// in\n    tag_76:\n      swap3\n      pop\n      pop\n      dup2\n      swap1\n      sstore\n      pop\n        /* \"contract-71ad24318f.sol\":2093:2629  {... */\n      pop\n      pop\n        /* \"contract-71ad24318f.sol\":485:490  false */\n      0x00\n        /* \"contract-71ad24318f.sol\":476:482  locked */\n      dup1\n      0x14\n        /* \"contract-71ad24318f.sol\":476:490  locked = false */\n      0x0100\n      exp\n      dup2\n      sload\n      dup2\n      0xff\n      mul\n      not\n      and\n      swap1\n      dup4\n      iszero\n      iszero\n      mul\n      or\n      swap1\n      sstore\n      pop\n        /* \"contract-71ad24318f.sol\":2028:2629  function voteNew(bytes32 _hashtag) isHolder noReentrant external {... */\n      pop\n      jump\t// out\n        /* \"contract-71ad24318f.sol\":313:332  IERC20 public twitt */\n    tag_23:\n      0x00\n      dup1\n      sload\n      swap1\n      0x0100\n      exp\n      swap1\n      div\n      0xffffffffffffffffffffffffffffffffffffffff\n      and\n      dup2\n      jump\t// out\n        /* \"contract-71ad24318f.sol\":2726:3091  function winningProposal() public view... */\n    tag_27:\n        /* \"contract-71ad24318f.sol\":2786:2807  uint winningProposal_ */\n      0x00\n        /* \"contract-71ad24318f.sol\":2823:2844  uint winningVoteCount */\n      dup1\n        /* \"contract-71ad24318f.sol\":2847:2848  0 */\n      0x00\n        /* \"contract-71ad24318f.sol\":2823:2848  uint winningVoteCount = 0 */\n      swap1\n      pop\n        /* \"contract-71ad24318f.sol\":2863:2869  uint p */\n      0x00\n        /* \"contract-71ad24318f.sol\":2858:3085  for (uint p = 0; p < proposals.length; p++) {... */\n    tag_79:\n        /* \"contract-71ad24318f.sol\":2879:2888  proposals */\n      0x02\n        /* \"contract-71ad24318f.sol\":2879:2895  proposals.length */\n      dup1\n      sload\n      swap1\n      pop\n        /* \"contract-71ad24318f.sol\":2875:2876  p */\n      dup2\n        /* \"contract-71ad24318f.sol\":2875:2895  p < proposals.length */\n      lt\n        /* \"contract-71ad24318f.sol\":2858:3085  for (uint p = 0; p < proposals.length; p++) {... */\n      iszero\n      tag_80\n      jumpi\n        /* \"contract-71ad24318f.sol\":2945:2961  winningVoteCount */\n      dup2\n        /* \"contract-71ad24318f.sol\":2920:2929  proposals */\n      0x02\n        /* \"contract-71ad24318f.sol\":2930:2931  p */\n      dup3\n        /* \"contract-71ad24318f.sol\":2920:2932  proposals[p] */\n      dup2\n      sload\n      dup2\n      lt\n      tag_82\n      jumpi\n      tag_83\n      tag_74\n      jump\t// in\n    tag_83:\n    tag_82:\n      swap1\n      0x00\n      mstore\n      keccak256(0x00, 0x20)\n      swap1\n      0x02\n      mul\n      add\n        /* \"contract-71ad24318f.sol\":2920:2942  proposals[p].voteCount */\n      0x01\n      add\n      sload\n        /* \"contract-71ad24318f.sol\":2920:2961  proposals[p].voteCount > winningVoteCount */\n      gt\n        /* \"contract-71ad24318f.sol\":2916:3075  if (proposals[p].voteCount > winningVoteCount) {... */\n      iszero\n      tag_85\n      jumpi\n        /* \"contract-71ad24318f.sol\":3000:3009  proposals */\n      0x02\n        /* \"contract-71ad24318f.sol\":3010:3011  p */\n      dup2\n        /* \"contract-71ad24318f.sol\":3000:3012  proposals[p] */\n      dup2\n      sload\n      dup2\n      lt\n      tag_86\n      jumpi\n      tag_87\n      tag_74\n      jump\t// in\n    tag_87:\n    tag_86:\n      swap1\n      0x00\n      mstore\n      keccak256(0x00, 0x20)\n      swap1\n      0x02\n      mul\n      add\n        /* \"contract-71ad24318f.sol\":3000:3022  proposals[p].voteCount */\n      0x01\n      add\n      sload\n        /* \"contract-71ad24318f.sol\":2981:3022  winningVoteCount = proposals[p].voteCount */\n      swap2\n      pop\n        /* \"contract-71ad24318f.sol\":3059:3060  p */\n      dup1\n        /* \"contract-71ad24318f.sol\":3040:3060  winningProposal_ = p */\n      swap3\n      pop\n        /* \"contract-71ad24318f.sol\":2916:3075  if (proposals[p].voteCount > winningVoteCount) {... */\n    tag_85:\n        /* \"contract-71ad24318f.sol\":2897:2900  p++ */\n      dup1\n      dup1\n      tag_89\n      swap1\n      tag_90\n      jump\t// in\n    tag_89:\n      swap2\n      pop\n      pop\n        /* \"contract-71ad24318f.sol\":2858:3085  for (uint p = 0; p < proposals.length; p++) {... */\n      jump(tag_79)\n    tag_80:\n      pop\n        /* \"contract-71ad24318f.sol\":2813:3091  {... */\n      pop\n        /* \"contract-71ad24318f.sol\":2726:3091  function winningProposal() public view... */\n      swap1\n      jump\t// out\n        /* \"contract-71ad24318f.sol\":1195:1234  mapping(address => Voter) public voters */\n    tag_33:\n      mstore(0x20, 0x01)\n      dup1\n      0x00\n      mstore\n      keccak256(0x00, 0x40)\n      0x00\n      swap2\n      pop\n      swap1\n      pop\n      dup1\n      0x00\n      add\n      0x00\n      swap1\n      sload\n      swap1\n      0x0100\n      exp\n      swap1\n      div\n      0xff\n      and\n      swap1\n      dup1\n      0x01\n      add\n      sload\n      swap1\n      dup1\n      0x02\n      add\n      sload\n      swap1\n      pop\n      dup4\n      jump\t// out\n        /* \"contract-71ad24318f.sol\":1579:2022  function voteExisting(uint proposal) isHolder noReentrant external {... */\n    tag_38:\n        /* \"contract-71ad24318f.sol\":569:570  0 */\n      0x00\n        /* \"contract-71ad24318f.sol\":541:546  twitt */\n      dup1\n      0x00\n      swap1\n      sload\n      swap1\n      0x0100\n      exp\n      swap1\n      div\n      0xffffffffffffffffffffffffffffffffffffffff\n      and\n        /* \"contract-71ad24318f.sol\":541:556  twitt.balanceOf */\n      0xffffffffffffffffffffffffffffffffffffffff\n      and\n      0x70a08231\n        /* \"contract-71ad24318f.sol\":557:567  msg.sender */\n      caller\n        /* \"contract-71ad24318f.sol\":541:568  twitt.balanceOf(msg.sender) */\n      mload(0x40)\n      dup3\n      0xffffffff\n      and\n      0xe0\n      shl\n      dup2\n      mstore\n      0x04\n      add\n      tag_92\n      swap2\n      swap1\n      tag_49\n      jump\t// in\n    tag_92:\n      0x20\n      mload(0x40)\n      dup1\n      dup4\n      sub\n      dup2\n      dup7\n      gas\n      staticcall\n      iszero\n      dup1\n      iszero\n      tag_94\n      jumpi\n      returndatasize\n      0x00\n      dup1\n      returndatacopy\n      revert(0x00, returndatasize)\n    tag_94:\n      pop\n      pop\n      pop\n      pop\n      mload(0x40)\n      returndatasize\n      not(0x1f)\n      0x1f\n      dup3\n      add\n      and\n      dup3\n      add\n      dup1\n      0x40\n      mstore\n      pop\n      dup2\n      add\n      swap1\n      tag_95\n      swap2\n      swap1\n      tag_53\n      jump\t// in\n    tag_95:\n        /* \"contract-71ad24318f.sol\":541:570  twitt.balanceOf(msg.sender)>0 */\n      gt\n        /* \"contract-71ad24318f.sol\":533:596  require(twitt.balanceOf(msg.sender)>0, \"you cant vote bastard\") */\n      tag_96\n      jumpi\n      mload(0x40)\n      0x08c379a000000000000000000000000000000000000000000000000000000000\n      dup2\n      mstore\n      0x04\n      add\n      tag_97\n      swap1\n      tag_56\n      jump\t// in\n    tag_97:\n      mload(0x40)\n      dup1\n      swap2\n      sub\n      swap1\n      revert\n    tag_96:\n        /* \"contract-71ad24318f.sol\":407:413  locked */\n      0x00\n      0x14\n      swap1\n      sload\n      swap1\n      0x0100\n      exp\n      swap1\n      div\n      0xff\n      and\n        /* \"contract-71ad24318f.sol\":406:413  !locked */\n      iszero\n        /* \"contract-71ad24318f.sol\":398:432  require(!locked, \"No re-entrancy\") */\n      tag_99\n      jumpi\n      mload(0x40)\n      0x08c379a000000000000000000000000000000000000000000000000000000000\n      dup2\n      mstore\n      0x04\n      add\n      tag_100\n      swap1\n      tag_60\n      jump\t// in\n    tag_100:\n      mload(0x40)\n      dup1\n      swap2\n      sub\n      swap1\n      revert\n    tag_99:\n        /* \"contract-71ad24318f.sol\":451:455  true */\n      0x01\n        /* \"contract-71ad24318f.sol\":442:448  locked */\n      0x00\n      0x14\n        /* \"contract-71ad24318f.sol\":442:455  locked = true */\n      0x0100\n      exp\n      dup2\n      sload\n      dup2\n      0xff\n      mul\n      not\n      and\n      swap1\n      dup4\n      iszero\n      iszero\n      mul\n      or\n      swap1\n      sstore\n      pop\n        /* \"contract-71ad24318f.sol\":1657:1677  Voter storage sender */\n      0x00\n        /* \"contract-71ad24318f.sol\":1680:1686  voters */\n      0x01\n        /* \"contract-71ad24318f.sol\":1680:1698  voters[msg.sender] */\n      0x00\n        /* \"contract-71ad24318f.sol\":1687:1697  msg.sender */\n      caller\n        /* \"contract-71ad24318f.sol\":1680:1698  voters[msg.sender] */\n      0xffffffffffffffffffffffffffffffffffffffff\n      and\n      0xffffffffffffffffffffffffffffffffffffffff\n      and\n      dup2\n      mstore\n      0x20\n      add\n      swap1\n      dup2\n      mstore\n      0x20\n      add\n      0x00\n      keccak256\n        /* \"contract-71ad24318f.sol\":1657:1698  Voter storage sender = voters[msg.sender] */\n      swap1\n      pop\n        /* \"contract-71ad24318f.sol\":1717:1723  sender */\n      dup1\n        /* \"contract-71ad24318f.sol\":1717:1729  sender.voted */\n      0x00\n      add\n      0x00\n      swap1\n      sload\n      swap1\n      0x0100\n      exp\n      swap1\n      div\n      0xff\n      and\n        /* \"contract-71ad24318f.sol\":1716:1729  !sender.voted */\n      iszero\n        /* \"contract-71ad24318f.sol\":1708:1748  require(!sender.voted, \"Already voted.\") */\n      tag_102\n      jumpi\n      mload(0x40)\n      0x08c379a000000000000000000000000000000000000000000000000000000000\n      dup2\n      mstore\n      0x04\n      add\n      tag_103\n      swap1\n      tag_64\n      jump\t// in\n    tag_103:\n      mload(0x40)\n      dup1\n      swap2\n      sub\n      swap1\n      revert\n    tag_102:\n        /* \"contract-71ad24318f.sol\":1773:1777  true */\n      0x01\n        /* \"contract-71ad24318f.sol\":1758:1764  sender */\n      dup2\n        /* \"contract-71ad24318f.sol\":1758:1770  sender.voted */\n      0x00\n      add\n      0x00\n        /* \"contract-71ad24318f.sol\":1758:1777  sender.voted = true */\n      0x0100\n      exp\n      dup2\n      sload\n      dup2\n      0xff\n      mul\n      not\n      and\n      swap1\n      dup4\n      iszero\n      iszero\n      mul\n      or\n      swap1\n      sstore\n      pop\n        /* \"contract-71ad24318f.sol\":1801:1809  proposal */\n      dup2\n        /* \"contract-71ad24318f.sol\":1787:1793  sender */\n      dup2\n        /* \"contract-71ad24318f.sol\":1787:1798  sender.vote */\n      0x01\n      add\n        /* \"contract-71ad24318f.sol\":1787:1809  sender.vote = proposal */\n      dup2\n      swap1\n      sstore\n      pop\n        /* \"contract-71ad24318f.sol\":1988:1993  twitt */\n      0x00\n      dup1\n      sload\n      swap1\n      0x0100\n      exp\n      swap1\n      div\n      0xffffffffffffffffffffffffffffffffffffffff\n      and\n        /* \"contract-71ad24318f.sol\":1988:2003  twitt.balanceOf */\n      0xffffffffffffffffffffffffffffffffffffffff\n      and\n      0x70a08231\n        /* \"contract-71ad24318f.sol\":2004:2014  msg.sender */\n      caller\n        /* \"contract-71ad24318f.sol\":1988:2015  twitt.balanceOf(msg.sender) */\n      mload(0x40)\n      dup3\n      0xffffffff\n      and\n      0xe0\n      shl\n      dup2\n      mstore\n      0x04\n      add\n      tag_104\n      swap2\n      swap1\n      tag_49\n      jump\t// in\n    tag_104:\n      0x20\n      mload(0x40)\n      dup1\n      dup4\n      sub\n      dup2\n      dup7\n      gas\n      staticcall\n      iszero\n      dup1\n      iszero\n      tag_106\n      jumpi\n      returndatasize\n      0x00\n      dup1\n      returndatacopy\n      revert(0x00, returndatasize)\n    tag_106:\n      pop\n      pop\n      pop\n      pop\n      mload(0x40)\n      returndatasize\n      not(0x1f)\n      0x1f\n      dup3\n      add\n      and\n      dup3\n      add\n      dup1\n      0x40\n      mstore\n      pop\n      dup2\n      add\n      swap1\n      tag_107\n      swap2\n      swap1\n      tag_53\n      jump\t// in\n    tag_107:\n        /* \"contract-71ad24318f.sol\":1955:1964  proposals */\n      0x02\n        /* \"contract-71ad24318f.sol\":1965:1973  proposal */\n      dup4\n        /* \"contract-71ad24318f.sol\":1955:1974  proposals[proposal] */\n      dup2\n      sload\n      dup2\n      lt\n      tag_108\n      jumpi\n      tag_109\n      tag_74\n      jump\t// in\n    tag_109:\n    tag_108:\n      swap1\n      0x00\n      mstore\n      keccak256(0x00, 0x20)\n      swap1\n      0x02\n      mul\n      add\n        /* \"contract-71ad24318f.sol\":1955:1984  proposals[proposal].voteCount */\n      0x01\n      add\n      0x00\n        /* \"contract-71ad24318f.sol\":1955:2015  proposals[proposal].voteCount += twitt.balanceOf(msg.sender) */\n      dup3\n      dup3\n      sload\n      tag_111\n      swap2\n      swap1\n      tag_77\n      jump\t// in\n    tag_111:\n      swap3\n      pop\n      pop\n      dup2\n      swap1\n      sstore\n      pop\n        /* \"contract-71ad24318f.sol\":1646:2022  {... */\n      pop\n        /* \"contract-71ad24318f.sol\":485:490  false */\n      0x00\n        /* \"contract-71ad24318f.sol\":476:482  locked */\n      dup1\n      0x14\n        /* \"contract-71ad24318f.sol\":476:490  locked = false */\n      0x0100\n      exp\n      dup2\n      sload\n      dup2\n      0xff\n      mul\n      not\n      and\n      swap1\n      dup4\n      iszero\n      iszero\n      mul\n      or\n      swap1\n      sstore\n      pop\n        /* \"contract-71ad24318f.sol\":1579:2022  function voteExisting(uint proposal) isHolder noReentrant external {... */\n      pop\n      jump\t// out\n        /* \"contract-71ad24318f.sol\":3255:3404  function winnerName() external view... */\n    tag_40:\n        /* \"contract-71ad24318f.sol\":3312:3331  bytes32 winnerName_ */\n      0x00\n        /* \"contract-71ad24318f.sol\":3361:3370  proposals */\n      0x02\n        /* \"contract-71ad24318f.sol\":3371:3388  winningProposal() */\n      tag_113\n        /* \"contract-71ad24318f.sol\":3371:3386  winningProposal */\n      tag_27\n        /* \"contract-71ad24318f.sol\":3371:3388  winningProposal() */\n      jump\t// in\n    tag_113:\n        /* \"contract-71ad24318f.sol\":3361:3389  proposals[winningProposal()] */\n      dup2\n      sload\n      dup2\n      lt\n      tag_114\n      jumpi\n      tag_115\n      tag_74\n      jump\t// in\n    tag_115:\n    tag_114:\n      swap1\n      0x00\n      mstore\n      keccak256(0x00, 0x20)\n      swap1\n      0x02\n      mul\n      add\n        /* \"contract-71ad24318f.sol\":3361:3397  proposals[winningProposal()].hashtag */\n      0x00\n      add\n      sload\n        /* \"contract-71ad24318f.sol\":3347:3397  winnerName_ = proposals[winningProposal()].hashtag */\n      swap1\n      pop\n        /* \"contract-71ad24318f.sol\":3255:3404  function winnerName() external view... */\n      swap1\n      jump\t// out\n        /* \"contract-71ad24318f.sol\":657:738  function test() public {... */\n    tag_44:\n        /* \"contract-71ad24318f.sol\":695:731  balncer(twitt.balanceOf(msg.sender)) */\n      0x0eb9f2c7847c327566a2cffcd0cc9edbc0d5b763e17989a09b04e8945a1a1e56\n        /* \"contract-71ad24318f.sol\":703:708  twitt */\n      0x00\n      dup1\n      sload\n      swap1\n      0x0100\n      exp\n      swap1\n      div\n      0xffffffffffffffffffffffffffffffffffffffff\n      and\n        /* \"contract-71ad24318f.sol\":703:718  twitt.balanceOf */\n      0xffffffffffffffffffffffffffffffffffffffff\n      and\n      0x70a08231\n        /* \"contract-71ad24318f.sol\":719:729  msg.sender */\n      caller\n        /* \"contract-71ad24318f.sol\":703:730  twitt.balanceOf(msg.sender) */\n      mload(0x40)\n      dup3\n      0xffffffff\n      and\n      0xe0\n      shl\n      dup2\n      mstore\n      0x04\n      add\n      tag_118\n      swap2\n      swap1\n      tag_49\n      jump\t// in\n    tag_118:\n      0x20\n      mload(0x40)\n      dup1\n      dup4\n      sub\n      dup2\n      dup7\n      gas\n      staticcall\n      iszero\n      dup1\n      iszero\n      tag_120\n      jumpi\n      returndatasize\n      0x00\n      dup1\n      returndatacopy\n      revert(0x00, returndatasize)\n    tag_120:\n      pop\n      pop\n      pop\n      pop\n      mload(0x40)\n      returndatasize\n      not(0x1f)\n      0x1f\n      dup3\n      add\n      and\n      dup3\n      add\n      dup1\n      0x40\n      mstore\n      pop\n      dup2\n      add\n      swap1\n      tag_121\n      swap2\n      swap1\n      tag_53\n      jump\t// in\n    tag_121:\n        /* \"contract-71ad24318f.sol\":695:731  balncer(twitt.balanceOf(msg.sender)) */\n      mload(0x40)\n      tag_122\n      swap2\n      swap1\n      tag_29\n      jump\t// in\n    tag_122:\n      mload(0x40)\n      dup1\n      swap2\n      sub\n      swap1\n      log1\n        /* \"contract-71ad24318f.sol\":657:738  function test() public {... */\n      jump\t// out\n        /* \"#utility.yul\":88:205   */\n    tag_124:\n        /* \"#utility.yul\":197:198   */\n      0x00\n        /* \"#utility.yul\":194:195   */\n      dup1\n        /* \"#utility.yul\":187:199   */\n      revert\n        /* \"#utility.yul\":334:411   */\n    tag_126:\n        /* \"#utility.yul\":371:378   */\n      0x00\n        /* \"#utility.yul\":400:405   */\n      dup2\n        /* \"#utility.yul\":389:405   */\n      swap1\n      pop\n        /* \"#utility.yul\":334:411   */\n      swap2\n      swap1\n      pop\n      jump\t// out\n        /* \"#utility.yul\":417:539   */\n    tag_127:\n        /* \"#utility.yul\":490:514   */\n      tag_161\n        /* \"#utility.yul\":508:513   */\n      dup2\n        /* \"#utility.yul\":490:514   */\n      tag_126\n      jump\t// in\n    tag_161:\n        /* \"#utility.yul\":483:488   */\n      dup2\n        /* \"#utility.yul\":480:515   */\n      eq\n        /* \"#utility.yul\":470:533   */\n      tag_162\n      jumpi\n        /* \"#utility.yul\":529:530   */\n      0x00\n        /* \"#utility.yul\":526:527   */\n      dup1\n        /* \"#utility.yul\":519:531   */\n      revert\n        /* \"#utility.yul\":470:533   */\n    tag_162:\n        /* \"#utility.yul\":417:539   */\n      pop\n      jump\t// out\n        /* \"#utility.yul\":545:684   */\n    tag_128:\n        /* \"#utility.yul\":591:596   */\n      0x00\n        /* \"#utility.yul\":629:635   */\n      dup2\n        /* \"#utility.yul\":616:636   */\n      calldataload\n        /* \"#utility.yul\":607:636   */\n      swap1\n      pop\n        /* \"#utility.yul\":645:678   */\n      tag_164\n        /* \"#utility.yul\":672:677   */\n      dup2\n        /* \"#utility.yul\":645:678   */\n      tag_127\n      jump\t// in\n    tag_164:\n        /* \"#utility.yul\":545:684   */\n      swap3\n      swap2\n      pop\n      pop\n      jump\t// out\n        /* \"#utility.yul\":690:1019   */\n    tag_14:\n        /* \"#utility.yul\":749:755   */\n      0x00\n        /* \"#utility.yul\":798:800   */\n      0x20\n        /* \"#utility.yul\":786:795   */\n      dup3\n        /* \"#utility.yul\":777:784   */\n      dup5\n        /* \"#utility.yul\":773:796   */\n      sub\n        /* \"#utility.yul\":769:801   */\n      slt\n        /* \"#utility.yul\":766:885   */\n      iszero\n      tag_166\n      jumpi\n        /* \"#utility.yul\":804:883   */\n      tag_167\n      tag_124\n      jump\t// in\n    tag_167:\n        /* \"#utility.yul\":766:885   */\n    tag_166:\n        /* \"#utility.yul\":924:925   */\n      0x00\n        /* \"#utility.yul\":949:1002   */\n      tag_168\n        /* \"#utility.yul\":994:1001   */\n      dup5\n        /* \"#utility.yul\":985:991   */\n      dup3\n        /* \"#utility.yul\":974:983   */\n      dup6\n        /* \"#utility.yul\":970:992   */\n      add\n        /* \"#utility.yul\":949:1002   */\n      tag_128\n      jump\t// in\n    tag_168:\n        /* \"#utility.yul\":939:1002   */\n      swap2\n      pop\n        /* \"#utility.yul\":895:1012   */\n      pop\n        /* \"#utility.yul\":690:1019   */\n      swap3\n      swap2\n      pop\n      pop\n      jump\t// out\n        /* \"#utility.yul\":1025:1102   */\n    tag_129:\n        /* \"#utility.yul\":1062:1069   */\n      0x00\n        /* \"#utility.yul\":1091:1096   */\n      dup2\n        /* \"#utility.yul\":1080:1096   */\n      swap1\n      pop\n        /* \"#utility.yul\":1025:1102   */\n      swap2\n      swap1\n      pop\n      jump\t// out\n        /* \"#utility.yul\":1108:1226   */\n    tag_130:\n        /* \"#utility.yul\":1195:1219   */\n      tag_171\n        /* \"#utility.yul\":1213:1218   */\n      dup2\n        /* \"#utility.yul\":1195:1219   */\n      tag_129\n      jump\t// in\n    tag_171:\n        /* \"#utility.yul\":1190:1193   */\n      dup3\n        /* \"#utility.yul\":1183:1220   */\n      mstore\n        /* \"#utility.yul\":1108:1226   */\n      pop\n      pop\n      jump\t// out\n        /* \"#utility.yul\":1232:1350   */\n    tag_131:\n        /* \"#utility.yul\":1319:1343   */\n      tag_173\n        /* \"#utility.yul\":1337:1342   */\n      dup2\n        /* \"#utility.yul\":1319:1343   */\n      tag_126\n      jump\t// in\n    tag_173:\n        /* \"#utility.yul\":1314:1317   */\n      dup3\n        /* \"#utility.yul\":1307:1344   */\n      mstore\n        /* \"#utility.yul\":1232:1350   */\n      pop\n      pop\n      jump\t// out\n        /* \"#utility.yul\":1356:1688   */\n    tag_17:\n        /* \"#utility.yul\":1477:1481   */\n      0x00\n        /* \"#utility.yul\":1515:1517   */\n      0x40\n        /* \"#utility.yul\":1504:1513   */\n      dup3\n        /* \"#utility.yul\":1500:1518   */\n      add\n        /* \"#utility.yul\":1492:1518   */\n      swap1\n      pop\n        /* \"#utility.yul\":1528:1599   */\n      tag_175\n        /* \"#utility.yul\":1596:1597   */\n      0x00\n        /* \"#utility.yul\":1585:1594   */\n      dup4\n        /* \"#utility.yul\":1581:1598   */\n      add\n        /* \"#utility.yul\":1572:1578   */\n      dup6\n        /* \"#utility.yul\":1528:1599   */\n      tag_130\n      jump\t// in\n    tag_175:\n        /* \"#utility.yul\":1609:1681   */\n      tag_176\n        /* \"#utility.yul\":1677:1679   */\n      0x20\n        /* \"#utility.yul\":1666:1675   */\n      dup4\n        /* \"#utility.yul\":1662:1680   */\n      add\n        /* \"#utility.yul\":1653:1659   */\n      dup5\n        /* \"#utility.yul\":1609:1681   */\n      tag_131\n      jump\t// in\n    tag_176:\n        /* \"#utility.yul\":1356:1688   */\n      swap4\n      swap3\n      pop\n      pop\n      pop\n      jump\t// out\n        /* \"#utility.yul\":1694:1816   */\n    tag_132:\n        /* \"#utility.yul\":1767:1791   */\n      tag_178\n        /* \"#utility.yul\":1785:1790   */\n      dup2\n        /* \"#utility.yul\":1767:1791   */\n      tag_129\n      jump\t// in\n    tag_178:\n        /* \"#utility.yul\":1760:1765   */\n      dup2\n        /* \"#utility.yul\":1757:1792   */\n      eq\n        /* \"#utility.yul\":1747:1810   */\n      tag_179\n      jumpi\n        /* \"#utility.yul\":1806:1807   */\n      0x00\n        /* \"#utility.yul\":1803:1804   */\n      dup1\n        /* \"#utility.yul\":1796:1808   */\n      revert\n        /* \"#utility.yul\":1747:1810   */\n    tag_179:\n        /* \"#utility.yul\":1694:1816   */\n      pop\n      jump\t// out\n        /* \"#utility.yul\":1822:1961   */\n    tag_133:\n        /* \"#utility.yul\":1868:1873   */\n      0x00\n        /* \"#utility.yul\":1906:1912   */\n      dup2\n        /* \"#utility.yul\":1893:1913   */\n      calldataload\n        /* \"#utility.yul\":1884:1913   */\n      swap1\n      pop\n        /* \"#utility.yul\":1922:1955   */\n      tag_181\n        /* \"#utility.yul\":1949:1954   */\n      dup2\n        /* \"#utility.yul\":1922:1955   */\n      tag_132\n      jump\t// in\n    tag_181:\n        /* \"#utility.yul\":1822:1961   */\n      swap3\n      swap2\n      pop\n      pop\n      jump\t// out\n        /* \"#utility.yul\":1967:2296   */\n    tag_20:\n        /* \"#utility.yul\":2026:2032   */\n      0x00\n        /* \"#utility.yul\":2075:2077   */\n      0x20\n        /* \"#utility.yul\":2063:2072   */\n      dup3\n        /* \"#utility.yul\":2054:2061   */\n      dup5\n        /* \"#utility.yul\":2050:2073   */\n      sub\n        /* \"#utility.yul\":2046:2078   */\n      slt\n        /* \"#utility.yul\":2043:2162   */\n      iszero\n      tag_183\n      jumpi\n        /* \"#utility.yul\":2081:2160   */\n      tag_184\n      tag_124\n      jump\t// in\n    tag_184:\n        /* \"#utility.yul\":2043:2162   */\n    tag_183:\n        /* \"#utility.yul\":2201:2202   */\n      0x00\n        /* \"#utility.yul\":2226:2279   */\n      tag_185\n        /* \"#utility.yul\":2271:2278   */\n      dup5\n        /* \"#utility.yul\":2262:2268   */\n      dup3\n        /* \"#utility.yul\":2251:2260   */\n      dup6\n        /* \"#utility.yul\":2247:2269   */\n      add\n        /* \"#utility.yul\":2226:2279   */\n      tag_133\n      jump\t// in\n    tag_185:\n        /* \"#utility.yul\":2216:2279   */\n      swap2\n      pop\n        /* \"#utility.yul\":2172:2289   */\n      pop\n        /* \"#utility.yul\":1967:2296   */\n      swap3\n      swap2\n      pop\n      pop\n      jump\t// out\n        /* \"#utility.yul\":2302:2428   */\n    tag_134:\n        /* \"#utility.yul\":2339:2346   */\n      0x00\n        /* \"#utility.yul\":2379:2421   */\n      0xffffffffffffffffffffffffffffffffffffffff\n        /* \"#utility.yul\":2372:2377   */\n      dup3\n        /* \"#utility.yul\":2368:2422   */\n      and\n        /* \"#utility.yul\":2357:2422   */\n      swap1\n      pop\n        /* \"#utility.yul\":2302:2428   */\n      swap2\n      swap1\n      pop\n      jump\t// out\n        /* \"#utility.yul\":2434:2494   */\n    tag_135:\n        /* \"#utility.yul\":2462:2465   */\n      0x00\n        /* \"#utility.yul\":2483:2488   */\n      dup2\n        /* \"#utility.yul\":2476:2488   */\n      swap1\n      pop\n        /* \"#utility.yul\":2434:2494   */\n      swap2\n      swap1\n      pop\n      jump\t// out\n        /* \"#utility.yul\":2500:2642   */\n    tag_136:\n        /* \"#utility.yul\":2550:2559   */\n      0x00\n        /* \"#utility.yul\":2583:2636   */\n      tag_189\n        /* \"#utility.yul\":2601:2635   */\n      tag_190\n        /* \"#utility.yul\":2610:2634   */\n      tag_191\n        /* \"#utility.yul\":2628:2633   */\n      dup5\n        /* \"#utility.yul\":2610:2634   */\n      tag_134\n      jump\t// in\n    tag_191:\n        /* \"#utility.yul\":2601:2635   */\n      tag_135\n      jump\t// in\n    tag_190:\n        /* \"#utility.yul\":2583:2636   */\n      tag_134\n      jump\t// in\n    tag_189:\n        /* \"#utility.yul\":2570:2636   */\n      swap1\n      pop\n        /* \"#utility.yul\":2500:2642   */\n      swap2\n      swap1\n      pop\n      jump\t// out\n        /* \"#utility.yul\":2648:2774   */\n    tag_137:\n        /* \"#utility.yul\":2698:2707   */\n      0x00\n        /* \"#utility.yul\":2731:2768   */\n      tag_193\n        /* \"#utility.yul\":2762:2767   */\n      dup3\n        /* \"#utility.yul\":2731:2768   */\n      tag_136\n      jump\t// in\n    tag_193:\n        /* \"#utility.yul\":2718:2768   */\n      swap1\n      pop\n        /* \"#utility.yul\":2648:2774   */\n      swap2\n      swap1\n      pop\n      jump\t// out\n        /* \"#utility.yul\":2780:2919   */\n    tag_138:\n        /* \"#utility.yul\":2843:2852   */\n      0x00\n        /* \"#utility.yul\":2876:2913   */\n      tag_195\n        /* \"#utility.yul\":2907:2912   */\n      dup3\n        /* \"#utility.yul\":2876:2913   */\n      tag_137\n      jump\t// in\n    tag_195:\n        /* \"#utility.yul\":2863:2913   */\n      swap1\n      pop\n        /* \"#utility.yul\":2780:2919   */\n      swap2\n      swap1\n      pop\n      jump\t// out\n        /* \"#utility.yul\":2925:3082   */\n    tag_139:\n        /* \"#utility.yul\":3025:3075   */\n      tag_197\n        /* \"#utility.yul\":3069:3074   */\n      dup2\n        /* \"#utility.yul\":3025:3075   */\n      tag_138\n      jump\t// in\n    tag_197:\n        /* \"#utility.yul\":3020:3023   */\n      dup3\n        /* \"#utility.yul\":3013:3076   */\n      mstore\n        /* \"#utility.yul\":2925:3082   */\n      pop\n      pop\n      jump\t// out\n        /* \"#utility.yul\":3088:3336   */\n    tag_25:\n        /* \"#utility.yul\":3194:3198   */\n      0x00\n        /* \"#utility.yul\":3232:3234   */\n      0x20\n        /* \"#utility.yul\":3221:3230   */\n      dup3\n        /* \"#utility.yul\":3217:3235   */\n      add\n        /* \"#utility.yul\":3209:3235   */\n      swap1\n      pop\n        /* \"#utility.yul\":3245:3329   */\n      tag_199\n        /* \"#utility.yul\":3326:3327   */\n      0x00\n        /* \"#utility.yul\":3315:3324   */\n      dup4\n        /* \"#utility.yul\":3311:3328   */\n      add\n        /* \"#utility.yul\":3302:3308   */\n      dup5\n        /* \"#utility.yul\":3245:3329   */\n      tag_139\n      jump\t// in\n    tag_199:\n        /* \"#utility.yul\":3088:3336   */\n      swap3\n      swap2\n      pop\n      pop\n      jump\t// out\n        /* \"#utility.yul\":3342:3564   */\n    tag_29:\n        /* \"#utility.yul\":3435:3439   */\n      0x00\n        /* \"#utility.yul\":3473:3475   */\n      0x20\n        /* \"#utility.yul\":3462:3471   */\n      dup3\n        /* \"#utility.yul\":3458:3476   */\n      add\n        /* \"#utility.yul\":3450:3476   */\n      swap1\n      pop\n        /* \"#utility.yul\":3486:3557   */\n      tag_201\n        /* \"#utility.yul\":3554:3555   */\n      0x00\n        /* \"#utility.yul\":3543:3552   */\n      dup4\n        /* \"#utility.yul\":3539:3556   */\n      add\n        /* \"#utility.yul\":3530:3536   */\n      dup5\n        /* \"#utility.yul\":3486:3557   */\n      tag_131\n      jump\t// in\n    tag_201:\n        /* \"#utility.yul\":3342:3564   */\n      swap3\n      swap2\n      pop\n      pop\n      jump\t// out\n        /* \"#utility.yul\":3570:3666   */\n    tag_140:\n        /* \"#utility.yul\":3607:3614   */\n      0x00\n        /* \"#utility.yul\":3636:3660   */\n      tag_203\n        /* \"#utility.yul\":3654:3659   */\n      dup3\n        /* \"#utility.yul\":3636:3660   */\n      tag_134\n      jump\t// in\n    tag_203:\n        /* \"#utility.yul\":3625:3660   */\n      swap1\n      pop\n        /* \"#utility.yul\":3570:3666   */\n      swap2\n      swap1\n      pop\n      jump\t// out\n        /* \"#utility.yul\":3672:3794   */\n    tag_141:\n        /* \"#utility.yul\":3745:3769   */\n      tag_205\n        /* \"#utility.yul\":3763:3768   */\n      dup2\n        /* \"#utility.yul\":3745:3769   */\n      tag_140\n      jump\t// in\n    tag_205:\n        /* \"#utility.yul\":3738:3743   */\n      dup2\n        /* \"#utility.yul\":3735:3770   */\n      eq\n        /* \"#utility.yul\":3725:3788   */\n      tag_206\n      jumpi\n        /* \"#utility.yul\":3784:3785   */\n      0x00\n        /* \"#utility.yul\":3781:3782   */\n      dup1\n        /* \"#utility.yul\":3774:3786   */\n      revert\n        /* \"#utility.yul\":3725:3788   */\n    tag_206:\n        /* \"#utility.yul\":3672:3794   */\n      pop\n      jump\t// out\n        /* \"#utility.yul\":3800:3939   */\n    tag_142:\n        /* \"#utility.yul\":3846:3851   */\n      0x00\n        /* \"#utility.yul\":3884:3890   */\n      dup2\n        /* \"#utility.yul\":3871:3891   */\n      calldataload\n        /* \"#utility.yul\":3862:3891   */\n      swap1\n      pop\n        /* \"#utility.yul\":3900:3933   */\n      tag_208\n        /* \"#utility.yul\":3927:3932   */\n      dup2\n        /* \"#utility.yul\":3900:3933   */\n      tag_141\n      jump\t// in\n    tag_208:\n        /* \"#utility.yul\":3800:3939   */\n      swap3\n      swap2\n      pop\n      pop\n      jump\t// out\n        /* \"#utility.yul\":3945:4274   */\n    tag_32:\n        /* \"#utility.yul\":4004:4010   */\n      0x00\n        /* \"#utility.yul\":4053:4055   */\n      0x20\n        /* \"#utility.yul\":4041:4050   */\n      dup3\n        /* \"#utility.yul\":4032:4039   */\n      dup5\n        /* \"#utility.yul\":4028:4051   */\n      sub\n        /* \"#utility.yul\":4024:4056   */\n      slt\n        /* \"#utility.yul\":4021:4140   */\n      iszero\n      tag_210\n      jumpi\n        /* \"#utility.yul\":4059:4138   */\n      tag_211\n      tag_124\n      jump\t// in\n    tag_211:\n        /* \"#utility.yul\":4021:4140   */\n    tag_210:\n        /* \"#utility.yul\":4179:4180   */\n      0x00\n        /* \"#utility.yul\":4204:4257   */\n      tag_212\n        /* \"#utility.yul\":4249:4256   */\n      dup5\n        /* \"#utility.yul\":4240:4246   */\n      dup3\n        /* \"#utility.yul\":4229:4238   */\n      dup6\n        /* \"#utility.yul\":4225:4247   */\n      add\n        /* \"#utility.yul\":4204:4257   */\n      tag_142\n      jump\t// in\n    tag_212:\n        /* \"#utility.yul\":4194:4257   */\n      swap2\n      pop\n        /* \"#utility.yul\":4150:4267   */\n      pop\n        /* \"#utility.yul\":3945:4274   */\n      swap3\n      swap2\n      pop\n      pop\n      jump\t// out\n        /* \"#utility.yul\":4280:4370   */\n    tag_143:\n        /* \"#utility.yul\":4314:4321   */\n      0x00\n        /* \"#utility.yul\":4357:4362   */\n      dup2\n        /* \"#utility.yul\":4350:4363   */\n      iszero\n        /* \"#utility.yul\":4343:4364   */\n      iszero\n        /* \"#utility.yul\":4332:4364   */\n      swap1\n      pop\n        /* \"#utility.yul\":4280:4370   */\n      swap2\n      swap1\n      pop\n      jump\t// out\n        /* \"#utility.yul\":4376:4485   */\n    tag_144:\n        /* \"#utility.yul\":4457:4478   */\n      tag_215\n        /* \"#utility.yul\":4472:4477   */\n      dup2\n        /* \"#utility.yul\":4457:4478   */\n      tag_143\n      jump\t// in\n    tag_215:\n        /* \"#utility.yul\":4452:4455   */\n      dup3\n        /* \"#utility.yul\":4445:4479   */\n      mstore\n        /* \"#utility.yul\":4376:4485   */\n      pop\n      pop\n      jump\t// out\n        /* \"#utility.yul\":4491:4921   */\n    tag_35:\n        /* \"#utility.yul\":4634:4638   */\n      0x00\n        /* \"#utility.yul\":4672:4674   */\n      0x60\n        /* \"#utility.yul\":4661:4670   */\n      dup3\n        /* \"#utility.yul\":4657:4675   */\n      add\n        /* \"#utility.yul\":4649:4675   */\n      swap1\n      pop\n        /* \"#utility.yul\":4685:4750   */\n      tag_217\n        /* \"#utility.yul\":4747:4748   */\n      0x00\n        /* \"#utility.yul\":4736:4745   */\n      dup4\n        /* \"#utility.yul\":4732:4749   */\n      add\n        /* \"#utility.yul\":4723:4729   */\n      dup7\n        /* \"#utility.yul\":4685:4750   */\n      tag_144\n      jump\t// in\n    tag_217:\n        /* \"#utility.yul\":4760:4832   */\n      tag_218\n        /* \"#utility.yul\":4828:4830   */\n      0x20\n        /* \"#utility.yul\":4817:4826   */\n      dup4\n        /* \"#utility.yul\":4813:4831   */\n      add\n        /* \"#utility.yul\":4804:4810   */\n      dup6\n        /* \"#utility.yul\":4760:4832   */\n      tag_131\n      jump\t// in\n    tag_218:\n        /* \"#utility.yul\":4842:4914   */\n      tag_219\n        /* \"#utility.yul\":4910:4912   */\n      0x40\n        /* \"#utility.yul\":4899:4908   */\n      dup4\n        /* \"#utility.yul\":4895:4913   */\n      add\n        /* \"#utility.yul\":4886:4892   */\n      dup5\n        /* \"#utility.yul\":4842:4914   */\n      tag_130\n      jump\t// in\n    tag_219:\n        /* \"#utility.yul\":4491:4921   */\n      swap5\n      swap4\n      pop\n      pop\n      pop\n      pop\n      jump\t// out\n        /* \"#utility.yul\":4927:5149   */\n    tag_42:\n        /* \"#utility.yul\":5020:5024   */\n      0x00\n        /* \"#utility.yul\":5058:5060   */\n      0x20\n        /* \"#utility.yul\":5047:5056   */\n      dup3\n        /* \"#utility.yul\":5043:5061   */\n      add\n        /* \"#utility.yul\":5035:5061   */\n      swap1\n      pop\n        /* \"#utility.yul\":5071:5142   */\n      tag_221\n        /* \"#utility.yul\":5139:5140   */\n      0x00\n        /* \"#utility.yul\":5128:5137   */\n      dup4\n        /* \"#utility.yul\":5124:5141   */\n      add\n        /* \"#utility.yul\":5115:5121   */\n      dup5\n        /* \"#utility.yul\":5071:5142   */\n      tag_130\n      jump\t// in\n    tag_221:\n        /* \"#utility.yul\":4927:5149   */\n      swap3\n      swap2\n      pop\n      pop\n      jump\t// out\n        /* \"#utility.yul\":5155:5273   */\n    tag_145:\n        /* \"#utility.yul\":5242:5266   */\n      tag_223\n        /* \"#utility.yul\":5260:5265   */\n      dup2\n        /* \"#utility.yul\":5242:5266   */\n      tag_140\n      jump\t// in\n    tag_223:\n        /* \"#utility.yul\":5237:5240   */\n      dup3\n        /* \"#utility.yul\":5230:5267   */\n      mstore\n        /* \"#utility.yul\":5155:5273   */\n      pop\n      pop\n      jump\t// out\n        /* \"#utility.yul\":5279:5501   */\n    tag_49:\n        /* \"#utility.yul\":5372:5376   */\n      0x00\n        /* \"#utility.yul\":5410:5412   */\n      0x20\n        /* \"#utility.yul\":5399:5408   */\n      dup3\n        /* \"#utility.yul\":5395:5413   */\n      add\n        /* \"#utility.yul\":5387:5413   */\n      swap1\n      pop\n        /* \"#utility.yul\":5423:5494   */\n      tag_225\n        /* \"#utility.yul\":5491:5492   */\n      0x00\n        /* \"#utility.yul\":5480:5489   */\n      dup4\n        /* \"#utility.yul\":5476:5493   */\n      add\n        /* \"#utility.yul\":5467:5473   */\n      dup5\n        /* \"#utility.yul\":5423:5494   */\n      tag_145\n      jump\t// in\n    tag_225:\n        /* \"#utility.yul\":5279:5501   */\n      swap3\n      swap2\n      pop\n      pop\n      jump\t// out\n        /* \"#utility.yul\":5507:5650   */\n    tag_146:\n        /* \"#utility.yul\":5564:5569   */\n      0x00\n        /* \"#utility.yul\":5595:5601   */\n      dup2\n        /* \"#utility.yul\":5589:5602   */\n      mload\n        /* \"#utility.yul\":5580:5602   */\n      swap1\n      pop\n        /* \"#utility.yul\":5611:5644   */\n      tag_227\n        /* \"#utility.yul\":5638:5643   */\n      dup2\n        /* \"#utility.yul\":5611:5644   */\n      tag_127\n      jump\t// in\n    tag_227:\n        /* \"#utility.yul\":5507:5650   */\n      swap3\n      swap2\n      pop\n      pop\n      jump\t// out\n        /* \"#utility.yul\":5656:6007   */\n    tag_53:\n        /* \"#utility.yul\":5726:5732   */\n      0x00\n        /* \"#utility.yul\":5775:5777   */\n      0x20\n        /* \"#utility.yul\":5763:5772   */\n      dup3\n        /* \"#utility.yul\":5754:5761   */\n      dup5\n        /* \"#utility.yul\":5750:5773   */\n      sub\n        /* \"#utility.yul\":5746:5778   */\n      slt\n        /* \"#utility.yul\":5743:5862   */\n      iszero\n      tag_229\n      jumpi\n        /* \"#utility.yul\":5781:5860   */\n      tag_230\n      tag_124\n      jump\t// in\n    tag_230:\n        /* \"#utility.yul\":5743:5862   */\n    tag_229:\n        /* \"#utility.yul\":5901:5902   */\n      0x00\n        /* \"#utility.yul\":5926:5990   */\n      tag_231\n        /* \"#utility.yul\":5982:5989   */\n      dup5\n        /* \"#utility.yul\":5973:5979   */\n      dup3\n        /* \"#utility.yul\":5962:5971   */\n      dup6\n        /* \"#utility.yul\":5958:5980   */\n      add\n        /* \"#utility.yul\":5926:5990   */\n      tag_146\n      jump\t// in\n    tag_231:\n        /* \"#utility.yul\":5916:5990   */\n      swap2\n      pop\n        /* \"#utility.yul\":5872:6000   */\n      pop\n        /* \"#utility.yul\":5656:6007   */\n      swap3\n      swap2\n      pop\n      pop\n      jump\t// out\n        /* \"#utility.yul\":6013:6182   */\n    tag_147:\n        /* \"#utility.yul\":6097:6108   */\n      0x00\n        /* \"#utility.yul\":6131:6137   */\n      dup3\n        /* \"#utility.yul\":6126:6129   */\n      dup3\n        /* \"#utility.yul\":6119:6138   */\n      mstore\n        /* \"#utility.yul\":6171:6175   */\n      0x20\n        /* \"#utility.yul\":6166:6169   */\n      dup3\n        /* \"#utility.yul\":6162:6176   */\n      add\n        /* \"#utility.yul\":6147:6176   */\n      swap1\n      pop\n        /* \"#utility.yul\":6013:6182   */\n      swap3\n      swap2\n      pop\n      pop\n      jump\t// out\n        /* \"#utility.yul\":6188:6359   */\n    tag_148:\n        /* \"#utility.yul\":6328:6351   */\n      0x796f752063616e7420766f746520626173746172640000000000000000000000\n        /* \"#utility.yul\":6324:6325   */\n      0x00\n        /* \"#utility.yul\":6316:6322   */\n      dup3\n        /* \"#utility.yul\":6312:6326   */\n      add\n        /* \"#utility.yul\":6305:6352   */\n      mstore\n        /* \"#utility.yul\":6188:6359   */\n      pop\n      jump\t// out\n        /* \"#utility.yul\":6365:6731   */\n    tag_149:\n        /* \"#utility.yul\":6507:6510   */\n      0x00\n        /* \"#utility.yul\":6528:6595   */\n      tag_235\n        /* \"#utility.yul\":6592:6594   */\n      0x15\n        /* \"#utility.yul\":6587:6590   */\n      dup4\n        /* \"#utility.yul\":6528:6595   */\n      tag_147\n      jump\t// in\n    tag_235:\n        /* \"#utility.yul\":6521:6595   */\n      swap2\n      pop\n        /* \"#utility.yul\":6604:6697   */\n      tag_236\n        /* \"#utility.yul\":6693:6696   */\n      dup3\n        /* \"#utility.yul\":6604:6697   */\n      tag_148\n      jump\t// in\n    tag_236:\n        /* \"#utility.yul\":6722:6724   */\n      0x20\n        /* \"#utility.yul\":6717:6720   */\n      dup3\n        /* \"#utility.yul\":6713:6725   */\n      add\n        /* \"#utility.yul\":6706:6725   */\n      swap1\n      pop\n        /* \"#utility.yul\":6365:6731   */\n      swap2\n      swap1\n      pop\n      jump\t// out\n        /* \"#utility.yul\":6737:7156   */\n    tag_56:\n        /* \"#utility.yul\":6903:6907   */\n      0x00\n        /* \"#utility.yul\":6941:6943   */\n      0x20\n        /* \"#utility.yul\":6930:6939   */\n      dup3\n        /* \"#utility.yul\":6926:6944   */\n      add\n        /* \"#utility.yul\":6918:6944   */\n      swap1\n      pop\n        /* \"#utility.yul\":6990:6999   */\n      dup2\n        /* \"#utility.yul\":6984:6988   */\n      dup2\n        /* \"#utility.yul\":6980:7000   */\n      sub\n        /* \"#utility.yul\":6976:6977   */\n      0x00\n        /* \"#utility.yul\":6965:6974   */\n      dup4\n        /* \"#utility.yul\":6961:6978   */\n      add\n        /* \"#utility.yul\":6954:7001   */\n      mstore\n        /* \"#utility.yul\":7018:7149   */\n      tag_238\n        /* \"#utility.yul\":7144:7148   */\n      dup2\n        /* \"#utility.yul\":7018:7149   */\n      tag_149\n      jump\t// in\n    tag_238:\n        /* \"#utility.yul\":7010:7149   */\n      swap1\n      pop\n        /* \"#utility.yul\":6737:7156   */\n      swap2\n      swap1\n      pop\n      jump\t// out\n        /* \"#utility.yul\":7162:7326   */\n    tag_150:\n        /* \"#utility.yul\":7302:7318   */\n      0x4e6f2072652d656e7472616e6379000000000000000000000000000000000000\n        /* \"#utility.yul\":7298:7299   */\n      0x00\n        /* \"#utility.yul\":7290:7296   */\n      dup3\n        /* \"#utility.yul\":7286:7300   */\n      add\n        /* \"#utility.yul\":7279:7319   */\n      mstore\n        /* \"#utility.yul\":7162:7326   */\n      pop\n      jump\t// out\n        /* \"#utility.yul\":7332:7698   */\n    tag_151:\n        /* \"#utility.yul\":7474:7477   */\n      0x00\n        /* \"#utility.yul\":7495:7562   */\n      tag_241\n        /* \"#utility.yul\":7559:7561   */\n      0x0e\n        /* \"#utility.yul\":7554:7557   */\n      dup4\n        /* \"#utility.yul\":7495:7562   */\n      tag_147\n      jump\t// in\n    tag_241:\n        /* \"#utility.yul\":7488:7562   */\n      swap2\n      pop\n        /* \"#utility.yul\":7571:7664   */\n      tag_242\n        /* \"#utility.yul\":7660:7663   */\n      dup3\n        /* \"#utility.yul\":7571:7664   */\n      tag_150\n      jump\t// in\n    tag_242:\n        /* \"#utility.yul\":7689:7691   */\n      0x20\n        /* \"#utility.yul\":7684:7687   */\n      dup3\n        /* \"#utility.yul\":7680:7692   */\n      add\n        /* \"#utility.yul\":7673:7692   */\n      swap1\n      pop\n        /* \"#utility.yul\":7332:7698   */\n      swap2\n      swap1\n      pop\n      jump\t// out\n        /* \"#utility.yul\":7704:8123   */\n    tag_60:\n        /* \"#utility.yul\":7870:7874   */\n      0x00\n        /* \"#utility.yul\":7908:7910   */\n      0x20\n        /* \"#utility.yul\":7897:7906   */\n      dup3\n        /* \"#utility.yul\":7893:7911   */\n      add\n        /* \"#utility.yul\":7885:7911   */\n      swap1\n      pop\n        /* \"#utility.yul\":7957:7966   */\n      dup2\n        /* \"#utility.yul\":7951:7955   */\n      dup2\n        /* \"#utility.yul\":7947:7967   */\n      sub\n        /* \"#utility.yul\":7943:7944   */\n      0x00\n        /* \"#utility.yul\":7932:7941   */\n      dup4\n        /* \"#utility.yul\":7928:7945   */\n      add\n        /* \"#utility.yul\":7921:7968   */\n      mstore\n        /* \"#utility.yul\":7985:8116   */\n      tag_244\n        /* \"#utility.yul\":8111:8115   */\n      dup2\n        /* \"#utility.yul\":7985:8116   */\n      tag_151\n      jump\t// in\n    tag_244:\n        /* \"#utility.yul\":7977:8116   */\n      swap1\n      pop\n        /* \"#utility.yul\":7704:8123   */\n      swap2\n      swap1\n      pop\n      jump\t// out\n        /* \"#utility.yul\":8129:8293   */\n    tag_152:\n        /* \"#utility.yul\":8269:8285   */\n      0x416c726561647920766f7465642e000000000000000000000000000000000000\n        /* \"#utility.yul\":8265:8266   */\n      0x00\n        /* \"#utility.yul\":8257:8263   */\n      dup3\n        /* \"#utility.yul\":8253:8267   */\n      add\n        /* \"#utility.yul\":8246:8286   */\n      mstore\n        /* \"#utility.yul\":8129:8293   */\n      pop\n      jump\t// out\n        /* \"#utility.yul\":8299:8665   */\n    tag_153:\n        /* \"#utility.yul\":8441:8444   */\n      0x00\n        /* \"#utility.yul\":8462:8529   */\n      tag_247\n        /* \"#utility.yul\":8526:8528   */\n      0x0e\n        /* \"#utility.yul\":8521:8524   */\n      dup4\n        /* \"#utility.yul\":8462:8529   */\n      tag_147\n      jump\t// in\n    tag_247:\n        /* \"#utility.yul\":8455:8529   */\n      swap2\n      pop\n        /* \"#utility.yul\":8538:8631   */\n      tag_248\n        /* \"#utility.yul\":8627:8630   */\n      dup3\n        /* \"#utility.yul\":8538:8631   */\n      tag_152\n      jump\t// in\n    tag_248:\n        /* \"#utility.yul\":8656:8658   */\n      0x20\n        /* \"#utility.yul\":8651:8654   */\n      dup3\n        /* \"#utility.yul\":8647:8659   */\n      add\n        /* \"#utility.yul\":8640:8659   */\n      swap1\n      pop\n        /* \"#utility.yul\":8299:8665   */\n      swap2\n      swap1\n      pop\n      jump\t// out\n        /* \"#utility.yul\":8671:9090   */\n    tag_64:\n        /* \"#utility.yul\":8837:8841   */\n      0x00\n        /* \"#utility.yul\":8875:8877   */\n      0x20\n        /* \"#utility.yul\":8864:8873   */\n      dup3\n        /* \"#utility.yul\":8860:8878   */\n      add\n        /* \"#utility.yul\":8852:8878   */\n      swap1\n      pop\n        /* \"#utility.yul\":8924:8933   */\n      dup2\n        /* \"#utility.yul\":8918:8922   */\n      dup2\n        /* \"#utility.yul\":8914:8934   */\n      sub\n        /* \"#utility.yul\":8910:8911   */\n      0x00\n        /* \"#utility.yul\":8899:8908   */\n      dup4\n        /* \"#utility.yul\":8895:8912   */\n      add\n        /* \"#utility.yul\":8888:8935   */\n      mstore\n        /* \"#utility.yul\":8952:9083   */\n      tag_250\n        /* \"#utility.yul\":9078:9082   */\n      dup2\n        /* \"#utility.yul\":8952:9083   */\n      tag_153\n      jump\t// in\n    tag_250:\n        /* \"#utility.yul\":8944:9083   */\n      swap1\n      pop\n        /* \"#utility.yul\":8671:9090   */\n      swap2\n      swap1\n      pop\n      jump\t// out\n        /* \"#utility.yul\":9096:9276   */\n    tag_154:\n        /* \"#utility.yul\":9144:9221   */\n      0x4e487b7100000000000000000000000000000000000000000000000000000000\n        /* \"#utility.yul\":9141:9142   */\n      0x00\n        /* \"#utility.yul\":9134:9222   */\n      mstore\n        /* \"#utility.yul\":9241:9245   */\n      0x11\n        /* \"#utility.yul\":9238:9239   */\n      0x04\n        /* \"#utility.yul\":9231:9246   */\n      mstore\n        /* \"#utility.yul\":9265:9269   */\n      0x24\n        /* \"#utility.yul\":9262:9263   */\n      0x00\n        /* \"#utility.yul\":9255:9270   */\n      revert\n        /* \"#utility.yul\":9282:9476   */\n    tag_67:\n        /* \"#utility.yul\":9322:9326   */\n      0x00\n        /* \"#utility.yul\":9342:9362   */\n      tag_253\n        /* \"#utility.yul\":9360:9361   */\n      dup3\n        /* \"#utility.yul\":9342:9362   */\n      tag_126\n      jump\t// in\n    tag_253:\n        /* \"#utility.yul\":9337:9362   */\n      swap2\n      pop\n        /* \"#utility.yul\":9376:9396   */\n      tag_254\n        /* \"#utility.yul\":9394:9395   */\n      dup4\n        /* \"#utility.yul\":9376:9396   */\n      tag_126\n      jump\t// in\n    tag_254:\n        /* \"#utility.yul\":9371:9396   */\n      swap3\n      pop\n        /* \"#utility.yul\":9420:9421   */\n      dup3\n        /* \"#utility.yul\":9417:9418   */\n      dup3\n        /* \"#utility.yul\":9413:9422   */\n      sub\n        /* \"#utility.yul\":9405:9422   */\n      swap1\n      pop\n        /* \"#utility.yul\":9444:9445   */\n      dup2\n        /* \"#utility.yul\":9438:9442   */\n      dup2\n        /* \"#utility.yul\":9435:9446   */\n      gt\n        /* \"#utility.yul\":9432:9469   */\n      iszero\n      tag_255\n      jumpi\n        /* \"#utility.yul\":9449:9467   */\n      tag_256\n      tag_154\n      jump\t// in\n    tag_256:\n        /* \"#utility.yul\":9432:9469   */\n    tag_255:\n        /* \"#utility.yul\":9282:9476   */\n      swap3\n      swap2\n      pop\n      pop\n      jump\t// out\n        /* \"#utility.yul\":9482:9662   */\n    tag_74:\n        /* \"#utility.yul\":9530:9607   */\n      0x4e487b7100000000000000000000000000000000000000000000000000000000\n        /* \"#utility.yul\":9527:9528   */\n      0x00\n        /* \"#utility.yul\":9520:9608   */\n      mstore\n        /* \"#utility.yul\":9627:9631   */\n      0x32\n        /* \"#utility.yul\":9624:9625   */\n      0x04\n        /* \"#utility.yul\":9617:9632   */\n      mstore\n        /* \"#utility.yul\":9651:9655   */\n      0x24\n        /* \"#utility.yul\":9648:9649   */\n      0x00\n        /* \"#utility.yul\":9641:9656   */\n      revert\n        /* \"#utility.yul\":9668:9859   */\n    tag_77:\n        /* \"#utility.yul\":9708:9711   */\n      0x00\n        /* \"#utility.yul\":9727:9747   */\n      tag_259\n        /* \"#utility.yul\":9745:9746   */\n      dup3\n        /* \"#utility.yul\":9727:9747   */\n      tag_126\n      jump\t// in\n    tag_259:\n        /* \"#utility.yul\":9722:9747   */\n      swap2\n      pop\n        /* \"#utility.yul\":9761:9781   */\n      tag_260\n        /* \"#utility.yul\":9779:9780   */\n      dup4\n        /* \"#utility.yul\":9761:9781   */\n      tag_126\n      jump\t// in\n    tag_260:\n        /* \"#utility.yul\":9756:9781   */\n      swap3\n      pop\n        /* \"#utility.yul\":9804:9805   */\n      dup3\n        /* \"#utility.yul\":9801:9802   */\n      dup3\n        /* \"#utility.yul\":9797:9806   */\n      add\n        /* \"#utility.yul\":9790:9806   */\n      swap1\n      pop\n        /* \"#utility.yul\":9825:9828   */\n      dup1\n        /* \"#utility.yul\":9822:9823   */\n      dup3\n        /* \"#utility.yul\":9819:9829   */\n      gt\n        /* \"#utility.yul\":9816:9852   */\n      iszero\n      tag_261\n      jumpi\n        /* \"#utility.yul\":9832:9850   */\n      tag_262\n      tag_154\n      jump\t// in\n    tag_262:\n        /* \"#utility.yul\":9816:9852   */\n    tag_261:\n        /* \"#utility.yul\":9668:9859   */\n      swap3\n      swap2\n      pop\n      pop\n      jump\t// out\n        /* \"#utility.yul\":9865:10098   */\n    tag_90:\n        /* \"#utility.yul\":9904:9907   */\n      0x00\n        /* \"#utility.yul\":9927:9951   */\n      tag_264\n        /* \"#utility.yul\":9945:9950   */\n      dup3\n        /* \"#utility.yul\":9927:9951   */\n      tag_126\n      jump\t// in\n    tag_264:\n        /* \"#utility.yul\":9918:9951   */\n      swap2\n      pop\n        /* \"#utility.yul\":9973:10039   */\n      0xffffffffffffffffffffffffffffffffffffffffffffffffffffffffffffffff\n        /* \"#utility.yul\":9966:9971   */\n      dup3\n        /* \"#utility.yul\":9963:10040   */\n      sub\n        /* \"#utility.yul\":9960:10063   */\n      tag_265\n      jumpi\n        /* \"#utility.yul\":10043:10061   */\n      tag_266\n      tag_154\n      jump\t// in\n    tag_266:\n        /* \"#utility.yul\":9960:10063   */\n    tag_265:\n        /* \"#utility.yul\":10090:10091   */\n      0x01\n        /* \"#utility.yul\":10083:10088   */\n      dup3\n        /* \"#utility.yul\":10079:10092   */\n      add\n        /* \"#utility.yul\":10072:10092   */\n      swap1\n      pop\n        /* \"#utility.yul\":9865:10098   */\n      swap2\n      swap1\n      pop\n      jump\t// out\n\n    auxdata: 0xa264697066735822122046285d845ea8cf928d10c2f11acb83fc0803f04e9d0c2fb152bc2bec407fdbb164736f6c63430008110033\n}\n",
				"bytecode": {
					"linkReferences": {},
					"object": "60806040523480156200001157600080fd5b50604051620010d1380380620010d18339818101604052810190620000379190620000e8565b806000806101000a81548173ffffffffffffffffffffffffffffffffffffffff021916908373ffffffffffffffffffffffffffffffffffffffff160217905550506200011a565b600080fd5b600073ffffffffffffffffffffffffffffffffffffffff82169050919050565b6000620000b08262000083565b9050919050565b620000c281620000a3565b8114620000ce57600080fd5b50565b600081519050620000e281620000b7565b92915050565b6000602082840312156200010157620001006200007e565b5b60006200011184828501620000d1565b91505092915050565b610fa7806200012a6000396000f3fe608060405234801561001057600080fd5b50600436106100885760003560e01c8063a3ec138d1161005b578063a3ec138d14610116578063d055f2f014610148578063e2ba53f014610164578063f8a8fd6d1461018257610088565b8063013cf08b1461008d578063420336b5146100be57806349e0335f146100da578063609ff1bd146100f8575b600080fd5b6100a760048036038101906100a29190610a3e565b61018c565b6040516100b5929190610a93565b60405180910390f35b6100d860048036038101906100d39190610ae8565b6101c0565b005b6100e2610524565b6040516100ef9190610b94565b60405180910390f35b610100610548565b60405161010d9190610baf565b60405180910390f35b610130600480360381019061012b9190610c08565b6105d0565b60405161013f93929190610c50565b60405180910390f35b610162600480360381019061015d9190610a3e565b610607565b005b61016c6108fd565b6040516101799190610c87565b60405180910390f35b61018a610931565b005b6002818154811061019c57600080fd5b90600052602060002090600202016000915090508060000154908060010154905082565b60008060009054906101000a900473ffffffffffffffffffffffffffffffffffffffff1673ffffffffffffffffffffffffffffffffffffffff166370a08231336040518263ffffffff1660e01b815260040161021c9190610cb1565b602060405180830381865afa158015610239573d6000803e3d6000fd5b505050506040513d601f19601f8201168201806040525081019061025d9190610ce1565b1161029d576040517f08c379a000000000000000000000000000000000000000000000000000000000815260040161029490610d6b565b60405180910390fd5b600060149054906101000a900460ff16156102ed576040517f08c379a00000000000000000000000000000000000000000000000000000000081526004016102e490610dd7565b60405180910390fd5b6001600060146101000a81548160ff0219169083151502179055506000600160003373ffffffffffffffffffffffffffffffffffffffff1673ffffffffffffffffffffffffffffffffffffffff16815260200190815260200160002090508060000160009054906101000a900460ff161561039d576040517f08c379a000000000000000000000000000000000000000000000000000000000815260040161039490610e43565b60405180910390fd5b60018160000160006101000a81548160ff021916908315150217905550600260405180604001604052808481526020016000815250908060018154018082558091505060019003906000526020600020906002020160009091909190915060008201518160000155602082015181600101555050600060016002805490506104259190610e92565b905080826001018190555060008054906101000a900473ffffffffffffffffffffffffffffffffffffffff1673ffffffffffffffffffffffffffffffffffffffff166370a08231336040518263ffffffff1660e01b81526004016104899190610cb1565b602060405180830381865afa1580156104a6573d6000803e3d6000fd5b505050506040513d601f19601f820116820180604052508101906104ca9190610ce1565b600282815481106104de576104dd610ec6565b5b906000526020600020906002020160010160008282546104fe9190610ef5565b92505081905550505060008060146101000a81548160ff02191690831515021790555050565b60008054906101000a900473ffffffffffffffffffffffffffffffffffffffff1681565b6000806000905060005b6002805490508110156105cb57816002828154811061057457610573610ec6565b5b90600052602060002090600202016001015411156105b857600281815481106105a05761059f610ec6565b5b90600052602060002090600202016001015491508092505b80806105c390610f29565b915050610552565b505090565b60016020528060005260406000206000915090508060000160009054906101000a900460ff16908060010154908060020154905083565b60008060009054906101000a900473ffffffffffffffffffffffffffffffffffffffff1673ffffffffffffffffffffffffffffffffffffffff166370a08231336040518263ffffffff1660e01b81526004016106639190610cb1565b602060405180830381865afa158015610680573d6000803e3d6000fd5b505050506040513d601f19601f820116820180604052508101906106a49190610ce1565b116106e4576040517f08c379a00000000000000000000000000000000000000000000000000000000081526004016106db90610d6b565b60405180910390fd5b600060149054906101000a900460ff1615610734576040517f08c379a000000000000000000000000000000000000000000000000000000000815260040161072b90610dd7565b60405180910390fd5b6001600060146101000a81548160ff0219169083151502179055506000600160003373ffffffffffffffffffffffffffffffffffffffff1673ffffffffffffffffffffffffffffffffffffffff16815260200190815260200160002090508060000160009054906101000a900460ff16156107e4576040517f08c379a00000000000000000000000000000000000000000000000000000000081526004016107db90610e43565b60405180910390fd5b60018160000160006101000a81548160ff02191690831515021790555081816001018190555060008054906101000a900473ffffffffffffffffffffffffffffffffffffffff1673ffffffffffffffffffffffffffffffffffffffff166370a08231336040518263ffffffff1660e01b81526004016108639190610cb1565b602060405180830381865afa158015610880573d6000803e3d6000fd5b505050506040513d601f19601f820116820180604052508101906108a49190610ce1565b600283815481106108b8576108b7610ec6565b5b906000526020600020906002020160010160008282546108d89190610ef5565b925050819055505060008060146101000a81548160ff02191690831515021790555050565b60006002610909610548565b8154811061091a57610919610ec6565b5b906000526020600020906002020160000154905090565b7f0eb9f2c7847c327566a2cffcd0cc9edbc0d5b763e17989a09b04e8945a1a1e5660008054906101000a900473ffffffffffffffffffffffffffffffffffffffff1673ffffffffffffffffffffffffffffffffffffffff166370a08231336040518263ffffffff1660e01b81526004016109ab9190610cb1565b602060405180830381865afa1580156109c8573d6000803e3d6000fd5b505050506040513d601f19601f820116820180604052508101906109ec9190610ce1565b6040516109f99190610baf565b60405180910390a1565b600080fd5b6000819050919050565b610a1b81610a08565b8114610a2657600080fd5b50565b600081359050610a3881610a12565b92915050565b600060208284031215610a5457610a53610a03565b5b6000610a6284828501610a29565b91505092915050565b6000819050919050565b610a7e81610a6b565b82525050565b610a8d81610a08565b82525050565b6000604082019050610aa86000830185610a75565b610ab56020830184610a84565b9392505050565b610ac581610a6b565b8114610ad057600080fd5b50565b600081359050610ae281610abc565b92915050565b600060208284031215610afe57610afd610a03565b5b6000610b0c84828501610ad3565b91505092915050565b600073ffffffffffffffffffffffffffffffffffffffff82169050919050565b6000819050919050565b6000610b5a610b55610b5084610b15565b610b35565b610b15565b9050919050565b6000610b6c82610b3f565b9050919050565b6000610b7e82610b61565b9050919050565b610b8e81610b73565b82525050565b6000602082019050610ba96000830184610b85565b92915050565b6000602082019050610bc46000830184610a84565b92915050565b6000610bd582610b15565b9050919050565b610be581610bca565b8114610bf057600080fd5b50565b600081359050610c0281610bdc565b92915050565b600060208284031215610c1e57610c1d610a03565b5b6000610c2c84828501610bf3565b91505092915050565b60008115159050919050565b610c4a81610c35565b82525050565b6000606082019050610c656000830186610c41565b610c726020830185610a84565b610c7f6040830184610a75565b949350505050565b6000602082019050610c9c6000830184610a75565b92915050565b610cab81610bca565b82525050565b6000602082019050610cc66000830184610ca2565b92915050565b600081519050610cdb81610a12565b92915050565b600060208284031215610cf757610cf6610a03565b5b6000610d0584828501610ccc565b91505092915050565b600082825260208201905092915050565b7f796f752063616e7420766f746520626173746172640000000000000000000000600082015250565b6000610d55601583610d0e565b9150610d6082610d1f565b602082019050919050565b60006020820190508181036000830152610d8481610d48565b9050919050565b7f4e6f2072652d656e7472616e6379000000000000000000000000000000000000600082015250565b6000610dc1600e83610d0e565b9150610dcc82610d8b565b602082019050919050565b60006020820190508181036000830152610df081610db4565b9050919050565b7f416c726561647920766f7465642e000000000000000000000000000000000000600082015250565b6000610e2d600e83610d0e565b9150610e3882610df7565b602082019050919050565b60006020820190508181036000830152610e5c81610e20565b9050919050565b7f4e487b7100000000000000000000000000000000000000000000000000000000600052601160045260246000fd5b6000610e9d82610a08565b9150610ea883610a08565b9250828203905081811115610ec057610ebf610e63565b5b92915050565b7f4e487b7100000000000000000000000000000000000000000000000000000000600052603260045260246000fd5b6000610f0082610a08565b9150610f0b83610a08565b9250828201905080821115610f2357610f22610e63565b5b92915050565b6000610f3482610a08565b91507fffffffffffffffffffffffffffffffffffffffffffffffffffffffffffffffff8203610f6657610f65610e63565b5b60018201905091905056fea264697066735822122046285d845ea8cf928d10c2f11acb83fc0803f04e9d0c2fb152bc2bec407fdbb164736f6c63430008110033",
					"opcodes": "PUSH1 0x80 PUSH1 0x40 MSTORE CALLVALUE DUP1 ISZERO PUSH3 0x11 JUMPI PUSH1 0x0 DUP1 REVERT JUMPDEST POP PUSH1 0x40 MLOAD PUSH3 0x10D1 CODESIZE SUB DUP1 PUSH3 0x10D1 DUP4 CODECOPY DUP2 DUP2 ADD PUSH1 0x40 MSTORE DUP2 ADD SWAP1 PUSH3 0x37 SWAP2 SWAP1 PUSH3 0xE8 JUMP JUMPDEST DUP1 PUSH1 0x0 DUP1 PUSH2 0x100 EXP DUP2 SLOAD DUP2 PUSH20 0xFFFFFFFFFFFFFFFFFFFFFFFFFFFFFFFFFFFFFFFF MUL NOT AND SWAP1 DUP4 PUSH20 0xFFFFFFFFFFFFFFFFFFFFFFFFFFFFFFFFFFFFFFFF AND MUL OR SWAP1 SSTORE POP POP PUSH3 0x11A JUMP JUMPDEST PUSH1 0x0 DUP1 REVERT JUMPDEST PUSH1 0x0 PUSH20 0xFFFFFFFFFFFFFFFFFFFFFFFFFFFFFFFFFFFFFFFF DUP3 AND SWAP1 POP SWAP2 SWAP1 POP JUMP JUMPDEST PUSH1 0x0 PUSH3 0xB0 DUP3 PUSH3 0x83 JUMP JUMPDEST SWAP1 POP SWAP2 SWAP1 POP JUMP JUMPDEST PUSH3 0xC2 DUP2 PUSH3 0xA3 JUMP JUMPDEST DUP2 EQ PUSH3 0xCE JUMPI PUSH1 0x0 DUP1 REVERT JUMPDEST POP JUMP JUMPDEST PUSH1 0x0 DUP2 MLOAD SWAP1 POP PUSH3 0xE2 DUP2 PUSH3 0xB7 JUMP JUMPDEST SWAP3 SWAP2 POP POP JUMP JUMPDEST PUSH1 0x0 PUSH1 0x20 DUP3 DUP5 SUB SLT ISZERO PUSH3 0x101 JUMPI PUSH3 0x100 PUSH3 0x7E JUMP JUMPDEST JUMPDEST PUSH1 0x0 PUSH3 0x111 DUP5 DUP3 DUP6 ADD PUSH3 0xD1 JUMP JUMPDEST SWAP2 POP POP SWAP3 SWAP2 POP POP JUMP JUMPDEST PUSH2 0xFA7 DUP1 PUSH3 0x12A PUSH1 0x0 CODECOPY PUSH1 0x0 RETURN INVALID PUSH1 0x80 PUSH1 0x40 MSTORE CALLVALUE DUP1 ISZERO PUSH2 0x10 JUMPI PUSH1 0x0 DUP1 REVERT JUMPDEST POP PUSH1 0x4 CALLDATASIZE LT PUSH2 0x88 JUMPI PUSH1 0x0 CALLDATALOAD PUSH1 0xE0 SHR DUP1 PUSH4 0xA3EC138D GT PUSH2 0x5B JUMPI DUP1 PUSH4 0xA3EC138D EQ PUSH2 0x116 JUMPI DUP1 PUSH4 0xD055F2F0 EQ PUSH2 0x148 JUMPI DUP1 PUSH4 0xE2BA53F0 EQ PUSH2 0x164 JUMPI DUP1 PUSH4 0xF8A8FD6D EQ PUSH2 0x182 JUMPI PUSH2 0x88 JUMP JUMPDEST DUP1 PUSH4 0x13CF08B EQ PUSH2 0x8D JUMPI DUP1 PUSH4 0x420336B5 EQ PUSH2 0xBE JUMPI DUP1 PUSH4 0x49E0335F EQ PUSH2 0xDA JUMPI DUP1 PUSH4 0x609FF1BD EQ PUSH2 0xF8 JUMPI JUMPDEST PUSH1 0x0 DUP1 REVERT JUMPDEST PUSH2 0xA7 PUSH1 0x4 DUP1 CALLDATASIZE SUB DUP2 ADD SWAP1 PUSH2 0xA2 SWAP2 SWAP1 PUSH2 0xA3E JUMP JUMPDEST PUSH2 0x18C JUMP JUMPDEST PUSH1 0x40 MLOAD PUSH2 0xB5 SWAP3 SWAP2 SWAP1 PUSH2 0xA93 JUMP JUMPDEST PUSH1 0x40 MLOAD DUP1 SWAP2 SUB SWAP1 RETURN JUMPDEST PUSH2 0xD8 PUSH1 0x4 DUP1 CALLDATASIZE SUB DUP2 ADD SWAP1 PUSH2 0xD3 SWAP2 SWAP1 PUSH2 0xAE8 JUMP JUMPDEST PUSH2 0x1C0 JUMP JUMPDEST STOP JUMPDEST PUSH2 0xE2 PUSH2 0x524 JUMP JUMPDEST PUSH1 0x40 MLOAD PUSH2 0xEF SWAP2 SWAP1 PUSH2 0xB94 JUMP JUMPDEST PUSH1 0x40 MLOAD DUP1 SWAP2 SUB SWAP1 RETURN JUMPDEST PUSH2 0x100 PUSH2 0x548 JUMP JUMPDEST PUSH1 0x40 MLOAD PUSH2 0x10D SWAP2 SWAP1 PUSH2 0xBAF JUMP JUMPDEST PUSH1 0x40 MLOAD DUP1 SWAP2 SUB SWAP1 RETURN JUMPDEST PUSH2 0x130 PUSH1 0x4 DUP1 CALLDATASIZE SUB DUP2 ADD SWAP1 PUSH2 0x12B SWAP2 SWAP1 PUSH2 0xC08 JUMP JUMPDEST PUSH2 0x5D0 JUMP JUMPDEST PUSH1 0x40 MLOAD PUSH2 0x13F SWAP4 SWAP3 SWAP2 SWAP1 PUSH2 0xC50 JUMP JUMPDEST PUSH1 0x40 MLOAD DUP1 SWAP2 SUB SWAP1 RETURN JUMPDEST PUSH2 0x162 PUSH1 0x4 DUP1 CALLDATASIZE SUB DUP2 ADD SWAP1 PUSH2 0x15D SWAP2 SWAP1 PUSH2 0xA3E JUMP JUMPDEST PUSH2 0x607 JUMP JUMPDEST STOP JUMPDEST PUSH2 0x16C PUSH2 0x8FD JUMP JUMPDEST PUSH1 0x40 MLOAD PUSH2 0x179 SWAP2 SWAP1 PUSH2 0xC87 JUMP JUMPDEST PUSH1 0x40 MLOAD DUP1 SWAP2 SUB SWAP1 RETURN JUMPDEST PUSH2 0x18A PUSH2 0x931 JUMP JUMPDEST STOP JUMPDEST PUSH1 0x2 DUP2 DUP2 SLOAD DUP2 LT PUSH2 0x19C JUMPI PUSH1 0x0 DUP1 REVERT JUMPDEST SWAP1 PUSH1 0x0 MSTORE PUSH1 0x20 PUSH1 0x0 KECCAK256 SWAP1 PUSH1 0x2 MUL ADD PUSH1 0x0 SWAP2 POP SWAP1 POP DUP1 PUSH1 0x0 ADD SLOAD SWAP1 DUP1 PUSH1 0x1 ADD SLOAD SWAP1 POP DUP3 JUMP JUMPDEST PUSH1 0x0 DUP1 PUSH1 0x0 SWAP1 SLOAD SWAP1 PUSH2 0x100 EXP SWAP1 DIV PUSH20 0xFFFFFFFFFFFFFFFFFFFFFFFFFFFFFFFFFFFFFFFF AND PUSH20 0xFFFFFFFFFFFFFFFFFFFFFFFFFFFFFFFFFFFFFFFF AND PUSH4 0x70A08231 CALLER PUSH1 0x40 MLOAD DUP3 PUSH4 0xFFFFFFFF AND PUSH1 0xE0 SHL DUP2 MSTORE PUSH1 0x4 ADD PUSH2 0x21C SWAP2 SWAP1 PUSH2 0xCB1 JUMP JUMPDEST PUSH1 0x20 PUSH1 0x40 MLOAD DUP1 DUP4 SUB DUP2 DUP7 GAS STATICCALL ISZERO DUP1 ISZERO PUSH2 0x239 JUMPI RETURNDATASIZE PUSH1 0x0 DUP1 RETURNDATACOPY RETURNDATASIZE PUSH1 0x0 REVERT JUMPDEST POP POP POP POP PUSH1 0x40 MLOAD RETURNDATASIZE PUSH1 0x1F NOT PUSH1 0x1F DUP3 ADD AND DUP3 ADD DUP1 PUSH1 0x40 MSTORE POP DUP2 ADD SWAP1 PUSH2 0x25D SWAP2 SWAP1 PUSH2 0xCE1 JUMP JUMPDEST GT PUSH2 0x29D JUMPI PUSH1 0x40 MLOAD PUSH32 0x8C379A000000000000000000000000000000000000000000000000000000000 DUP2 MSTORE PUSH1 0x4 ADD PUSH2 0x294 SWAP1 PUSH2 0xD6B JUMP JUMPDEST PUSH1 0x40 MLOAD DUP1 SWAP2 SUB SWAP1 REVERT JUMPDEST PUSH1 0x0 PUSH1 0x14 SWAP1 SLOAD SWAP1 PUSH2 0x100 EXP SWAP1 DIV PUSH1 0xFF AND ISZERO PUSH2 0x2ED JUMPI PUSH1 0x40 MLOAD PUSH32 0x8C379A000000000000000000000000000000000000000000000000000000000 DUP2 MSTORE PUSH1 0x4 ADD PUSH2 0x2E4 SWAP1 PUSH2 0xDD7 JUMP JUMPDEST PUSH1 0x40 MLOAD DUP1 SWAP2 SUB SWAP1 REVERT JUMPDEST PUSH1 0x1 PUSH1 0x0 PUSH1 0x14 PUSH2 0x100 EXP DUP2 SLOAD DUP2 PUSH1 0xFF MUL NOT AND SWAP1 DUP4 ISZERO ISZERO MUL OR SWAP1 SSTORE POP PUSH1 0x0 PUSH1 0x1 PUSH1 0x0 CALLER PUSH20 0xFFFFFFFFFFFFFFFFFFFFFFFFFFFFFFFFFFFFFFFF AND PUSH20 0xFFFFFFFFFFFFFFFFFFFFFFFFFFFFFFFFFFFFFFFF AND DUP2 MSTORE PUSH1 0x20 ADD SWAP1 DUP2 MSTORE PUSH1 0x20 ADD PUSH1 0x0 KECCAK256 SWAP1 POP DUP1 PUSH1 0x0 ADD PUSH1 0x0 SWAP1 SLOAD SWAP1 PUSH2 0x100 EXP SWAP1 DIV PUSH1 0xFF AND ISZERO PUSH2 0x39D JUMPI PUSH1 0x40 MLOAD PUSH32 0x8C379A000000000000000000000000000000000000000000000000000000000 DUP2 MSTORE PUSH1 0x4 ADD PUSH2 0x394 SWAP1 PUSH2 0xE43 JUMP JUMPDEST PUSH1 0x40 MLOAD DUP1 SWAP2 SUB SWAP1 REVERT JUMPDEST PUSH1 0x1 DUP2 PUSH1 0x0 ADD PUSH1 0x0 PUSH2 0x100 EXP DUP2 SLOAD DUP2 PUSH1 0xFF MUL NOT AND SWAP1 DUP4 ISZERO ISZERO MUL OR SWAP1 SSTORE POP PUSH1 0x2 PUSH1 0x40 MLOAD DUP1 PUSH1 0x40 ADD PUSH1 0x40 MSTORE DUP1 DUP5 DUP2 MSTORE PUSH1 0x20 ADD PUSH1 0x0 DUP2 MSTORE POP SWAP1 DUP1 PUSH1 0x1 DUP2 SLOAD ADD DUP1 DUP3 SSTORE DUP1 SWAP2 POP POP PUSH1 0x1 SWAP1 SUB SWAP1 PUSH1 0x0 MSTORE PUSH1 0x20 PUSH1 0x0 KECCAK256 SWAP1 PUSH1 0x2 MUL ADD PUSH1 0x0 SWAP1 SWAP2 SWAP1 SWAP2 SWAP1 SWAP2 POP PUSH1 0x0 DUP3 ADD MLOAD DUP2 PUSH1 0x0 ADD SSTORE PUSH1 0x20 DUP3 ADD MLOAD DUP2 PUSH1 0x1 ADD SSTORE POP POP PUSH1 0x0 PUSH1 0x1 PUSH1 0x2 DUP1 SLOAD SWAP1 POP PUSH2 0x425 SWAP2 SWAP1 PUSH2 0xE92 JUMP JUMPDEST SWAP1 POP DUP1 DUP3 PUSH1 0x1 ADD DUP2 SWAP1 SSTORE POP PUSH1 0x0 DUP1 SLOAD SWAP1 PUSH2 0x100 EXP SWAP1 DIV PUSH20 0xFFFFFFFFFFFFFFFFFFFFFFFFFFFFFFFFFFFFFFFF AND PUSH20 0xFFFFFFFFFFFFFFFFFFFFFFFFFFFFFFFFFFFFFFFF AND PUSH4 0x70A08231 CALLER PUSH1 0x40 MLOAD DUP3 PUSH4 0xFFFFFFFF AND PUSH1 0xE0 SHL DUP2 MSTORE PUSH1 0x4 ADD PUSH2 0x489 SWAP2 SWAP1 PUSH2 0xCB1 JUMP JUMPDEST PUSH1 0x20 PUSH1 0x40 MLOAD DUP1 DUP4 SUB DUP2 DUP7 GAS STATICCALL ISZERO DUP1 ISZERO PUSH2 0x4A6 JUMPI RETURNDATASIZE PUSH1 0x0 DUP1 RETURNDATACOPY RETURNDATASIZE PUSH1 0x0 REVERT JUMPDEST POP POP POP POP PUSH1 0x40 MLOAD RETURNDATASIZE PUSH1 0x1F NOT PUSH1 0x1F DUP3 ADD AND DUP3 ADD DUP1 PUSH1 0x40 MSTORE POP DUP2 ADD SWAP1 PUSH2 0x4CA SWAP2 SWAP1 PUSH2 0xCE1 JUMP JUMPDEST PUSH1 0x2 DUP3 DUP2 SLOAD DUP2 LT PUSH2 0x4DE JUMPI PUSH2 0x4DD PUSH2 0xEC6 JUMP JUMPDEST JUMPDEST SWAP1 PUSH1 0x0 MSTORE PUSH1 0x20 PUSH1 0x0 KECCAK256 SWAP1 PUSH1 0x2 MUL ADD PUSH1 0x1 ADD PUSH1 0x0 DUP3 DUP3 SLOAD PUSH2 0x4FE SWAP2 SWAP1 PUSH2 0xEF5 JUMP JUMPDEST SWAP3 POP POP DUP2 SWAP1 SSTORE POP POP POP PUSH1 0x0 DUP1 PUSH1 0x14 PUSH2 0x100 EXP DUP2 SLOAD DUP2 PUSH1 0xFF MUL NOT AND SWAP1 DUP4 ISZERO ISZERO MUL OR SWAP1 SSTORE POP POP JUMP JUMPDEST PUSH1 0x0 DUP1 SLOAD SWAP1 PUSH2 0x100 EXP SWAP1 DIV PUSH20 0xFFFFFFFFFFFFFFFFFFFFFFFFFFFFFFFFFFFFFFFF AND DUP2 JUMP JUMPDEST PUSH1 0x0 DUP1 PUSH1 0x0 SWAP1 POP PUSH1 0x0 JUMPDEST PUSH1 0x2 DUP1 SLOAD SWAP1 POP DUP2 LT ISZERO PUSH2 0x5CB JUMPI DUP2 PUSH1 0x2 DUP3 DUP2 SLOAD DUP2 LT PUSH2 0x574 JUMPI PUSH2 0x573 PUSH2 0xEC6 JUMP JUMPDEST JUMPDEST SWAP1 PUSH1 0x0 MSTORE PUSH1 0x20 PUSH1 0x0 KECCAK256 SWAP1 PUSH1 0x2 MUL ADD PUSH1 0x1 ADD SLOAD GT ISZERO PUSH2 0x5B8 JUMPI PUSH1 0x2 DUP2 DUP2 SLOAD DUP2 LT PUSH2 0x5A0 JUMPI PUSH2 0x59F PUSH2 0xEC6 JUMP JUMPDEST JUMPDEST SWAP1 PUSH1 0x0 MSTORE PUSH1 0x20 PUSH1 0x0 KECCAK256 SWAP1 PUSH1 0x2 MUL ADD PUSH1 0x1 ADD SLOAD SWAP2 POP DUP1 SWAP3 POP JUMPDEST DUP1 DUP1 PUSH2 0x5C3 SWAP1 PUSH2 0xF29 JUMP JUMPDEST SWAP2 POP POP PUSH2 0x552 JUMP JUMPDEST POP POP SWAP1 JUMP JUMPDEST PUSH1 0x1 PUSH1 0x20 MSTORE DUP1 PUSH1 0x0 MSTORE PUSH1 0x40 PUSH1 0x0 KECCAK256 PUSH1 0x0 SWAP2 POP SWAP1 POP DUP1 PUSH1 0x0 ADD PUSH1 0x0 SWAP1 SLOAD SWAP1 PUSH2 0x100 EXP SWAP1 DIV PUSH1 0xFF AND SWAP1 DUP1 PUSH1 0x1 ADD SLOAD SWAP1 DUP1 PUSH1 0x2 ADD SLOAD SWAP1 POP DUP4 JUMP JUMPDEST PUSH1 0x0 DUP1 PUSH1 0x0 SWAP1 SLOAD SWAP1 PUSH2 0x100 EXP SWAP1 DIV PUSH20 0xFFFFFFFFFFFFFFFFFFFFFFFFFFFFFFFFFFFFFFFF AND PUSH20 0xFFFFFFFFFFFFFFFFFFFFFFFFFFFFFFFFFFFFFFFF AND PUSH4 0x70A08231 CALLER PUSH1 0x40 MLOAD DUP3 PUSH4 0xFFFFFFFF AND PUSH1 0xE0 SHL DUP2 MSTORE PUSH1 0x4 ADD PUSH2 0x663 SWAP2 SWAP1 PUSH2 0xCB1 JUMP JUMPDEST PUSH1 0x20 PUSH1 0x40 MLOAD DUP1 DUP4 SUB DUP2 DUP7 GAS STATICCALL ISZERO DUP1 ISZERO PUSH2 0x680 JUMPI RETURNDATASIZE PUSH1 0x0 DUP1 RETURNDATACOPY RETURNDATASIZE PUSH1 0x0 REVERT JUMPDEST POP POP POP POP PUSH1 0x40 MLOAD RETURNDATASIZE PUSH1 0x1F NOT PUSH1 0x1F DUP3 ADD AND DUP3 ADD DUP1 PUSH1 0x40 MSTORE POP DUP2 ADD SWAP1 PUSH2 0x6A4 SWAP2 SWAP1 PUSH2 0xCE1 JUMP JUMPDEST GT PUSH2 0x6E4 JUMPI PUSH1 0x40 MLOAD PUSH32 0x8C379A000000000000000000000000000000000000000000000000000000000 DUP2 MSTORE PUSH1 0x4 ADD PUSH2 0x6DB SWAP1 PUSH2 0xD6B JUMP JUMPDEST PUSH1 0x40 MLOAD DUP1 SWAP2 SUB SWAP1 REVERT JUMPDEST PUSH1 0x0 PUSH1 0x14 SWAP1 SLOAD SWAP1 PUSH2 0x100 EXP SWAP1 DIV PUSH1 0xFF AND ISZERO PUSH2 0x734 JUMPI PUSH1 0x40 MLOAD PUSH32 0x8C379A000000000000000000000000000000000000000000000000000000000 DUP2 MSTORE PUSH1 0x4 ADD PUSH2 0x72B SWAP1 PUSH2 0xDD7 JUMP JUMPDEST PUSH1 0x40 MLOAD DUP1 SWAP2 SUB SWAP1 REVERT JUMPDEST PUSH1 0x1 PUSH1 0x0 PUSH1 0x14 PUSH2 0x100 EXP DUP2 SLOAD DUP2 PUSH1 0xFF MUL NOT AND SWAP1 DUP4 ISZERO ISZERO MUL OR SWAP1 SSTORE POP PUSH1 0x0 PUSH1 0x1 PUSH1 0x0 CALLER PUSH20 0xFFFFFFFFFFFFFFFFFFFFFFFFFFFFFFFFFFFFFFFF AND PUSH20 0xFFFFFFFFFFFFFFFFFFFFFFFFFFFFFFFFFFFFFFFF AND DUP2 MSTORE PUSH1 0x20 ADD SWAP1 DUP2 MSTORE PUSH1 0x20 ADD PUSH1 0x0 KECCAK256 SWAP1 POP DUP1 PUSH1 0x0 ADD PUSH1 0x0 SWAP1 SLOAD SWAP1 PUSH2 0x100 EXP SWAP1 DIV PUSH1 0xFF AND ISZERO PUSH2 0x7E4 JUMPI PUSH1 0x40 MLOAD PUSH32 0x8C379A000000000000000000000000000000000000000000000000000000000 DUP2 MSTORE PUSH1 0x4 ADD PUSH2 0x7DB SWAP1 PUSH2 0xE43 JUMP JUMPDEST PUSH1 0x40 MLOAD DUP1 SWAP2 SUB SWAP1 REVERT JUMPDEST PUSH1 0x1 DUP2 PUSH1 0x0 ADD PUSH1 0x0 PUSH2 0x100 EXP DUP2 SLOAD DUP2 PUSH1 0xFF MUL NOT AND SWAP1 DUP4 ISZERO ISZERO MUL OR SWAP1 SSTORE POP DUP2 DUP2 PUSH1 0x1 ADD DUP2 SWAP1 SSTORE POP PUSH1 0x0 DUP1 SLOAD SWAP1 PUSH2 0x100 EXP SWAP1 DIV PUSH20 0xFFFFFFFFFFFFFFFFFFFFFFFFFFFFFFFFFFFFFFFF AND PUSH20 0xFFFFFFFFFFFFFFFFFFFFFFFFFFFFFFFFFFFFFFFF AND PUSH4 0x70A08231 CALLER PUSH1 0x40 MLOAD DUP3 PUSH4 0xFFFFFFFF AND PUSH1 0xE0 SHL DUP2 MSTORE PUSH1 0x4 ADD PUSH2 0x863 SWAP2 SWAP1 PUSH2 0xCB1 JUMP JUMPDEST PUSH1 0x20 PUSH1 0x40 MLOAD DUP1 DUP4 SUB DUP2 DUP7 GAS STATICCALL ISZERO DUP1 ISZERO PUSH2 0x880 JUMPI RETURNDATASIZE PUSH1 0x0 DUP1 RETURNDATACOPY RETURNDATASIZE PUSH1 0x0 REVERT JUMPDEST POP POP POP POP PUSH1 0x40 MLOAD RETURNDATASIZE PUSH1 0x1F NOT PUSH1 0x1F DUP3 ADD AND DUP3 ADD DUP1 PUSH1 0x40 MSTORE POP DUP2 ADD SWAP1 PUSH2 0x8A4 SWAP2 SWAP1 PUSH2 0xCE1 JUMP JUMPDEST PUSH1 0x2 DUP4 DUP2 SLOAD DUP2 LT PUSH2 0x8B8 JUMPI PUSH2 0x8B7 PUSH2 0xEC6 JUMP JUMPDEST JUMPDEST SWAP1 PUSH1 0x0 MSTORE PUSH1 0x20 PUSH1 0x0 KECCAK256 SWAP1 PUSH1 0x2 MUL ADD PUSH1 0x1 ADD PUSH1 0x0 DUP3 DUP3 SLOAD PUSH2 0x8D8 SWAP2 SWAP1 PUSH2 0xEF5 JUMP JUMPDEST SWAP3 POP POP DUP2 SWAP1 SSTORE POP POP PUSH1 0x0 DUP1 PUSH1 0x14 PUSH2 0x100 EXP DUP2 SLOAD DUP2 PUSH1 0xFF MUL NOT AND SWAP1 DUP4 ISZERO ISZERO MUL OR SWAP1 SSTORE POP POP JUMP JUMPDEST PUSH1 0x0 PUSH1 0x2 PUSH2 0x909 PUSH2 0x548 JUMP JUMPDEST DUP2 SLOAD DUP2 LT PUSH2 0x91A JUMPI PUSH2 0x919 PUSH2 0xEC6 JUMP JUMPDEST JUMPDEST SWAP1 PUSH1 0x0 MSTORE PUSH1 0x20 PUSH1 0x0 KECCAK256 SWAP1 PUSH1 0x2 MUL ADD PUSH1 0x0 ADD SLOAD SWAP1 POP SWAP1 JUMP JUMPDEST PUSH32 0xEB9F2C7847C327566A2CFFCD0CC9EDBC0D5B763E17989A09B04E8945A1A1E56 PUSH1 0x0 DUP1 SLOAD SWAP1 PUSH2 0x100 EXP SWAP1 DIV PUSH20 0xFFFFFFFFFFFFFFFFFFFFFFFFFFFFFFFFFFFFFFFF AND PUSH20 0xFFFFFFFFFFFFFFFFFFFFFFFFFFFFFFFFFFFFFFFF AND PUSH4 0x70A08231 CALLER PUSH1 0x40 MLOAD DUP3 PUSH4 0xFFFFFFFF AND PUSH1 0xE0 SHL DUP2 MSTORE PUSH1 0x4 ADD PUSH2 0x9AB SWAP2 SWAP1 PUSH2 0xCB1 JUMP JUMPDEST PUSH1 0x20 PUSH1 0x40 MLOAD DUP1 DUP4 SUB DUP2 DUP7 GAS STATICCALL ISZERO DUP1 ISZERO PUSH2 0x9C8 JUMPI RETURNDATASIZE PUSH1 0x0 DUP1 RETURNDATACOPY RETURNDATASIZE PUSH1 0x0 REVERT JUMPDEST POP POP POP POP PUSH1 0x40 MLOAD RETURNDATASIZE PUSH1 0x1F NOT PUSH1 0x1F DUP3 ADD AND DUP3 ADD DUP1 PUSH1 0x40 MSTORE POP DUP2 ADD SWAP1 PUSH2 0x9EC SWAP2 SWAP1 PUSH2 0xCE1 JUMP JUMPDEST PUSH1 0x40 MLOAD PUSH2 0x9F9 SWAP2 SWAP1 PUSH2 0xBAF JUMP JUMPDEST PUSH1 0x40 MLOAD DUP1 SWAP2 SUB SWAP1 LOG1 JUMP JUMPDEST PUSH1 0x0 DUP1 REVERT JUMPDEST PUSH1 0x0 DUP2 SWAP1 POP SWAP2 SWAP1 POP JUMP JUMPDEST PUSH2 0xA1B DUP2 PUSH2 0xA08 JUMP JUMPDEST DUP2 EQ PUSH2 0xA26 JUMPI PUSH1 0x0 DUP1 REVERT JUMPDEST POP JUMP JUMPDEST PUSH1 0x0 DUP2 CALLDATALOAD SWAP1 POP PUSH2 0xA38 DUP2 PUSH2 0xA12 JUMP JUMPDEST SWAP3 SWAP2 POP POP JUMP JUMPDEST PUSH1 0x0 PUSH1 0x20 DUP3 DUP5 SUB SLT ISZERO PUSH2 0xA54 JUMPI PUSH2 0xA53 PUSH2 0xA03 JUMP JUMPDEST JUMPDEST PUSH1 0x0 PUSH2 0xA62 DUP5 DUP3 DUP6 ADD PUSH2 0xA29 JUMP JUMPDEST SWAP2 POP POP SWAP3 SWAP2 POP POP JUMP JUMPDEST PUSH1 0x0 DUP2 SWAP1 POP SWAP2 SWAP1 POP JUMP JUMPDEST PUSH2 0xA7E DUP2 PUSH2 0xA6B JUMP JUMPDEST DUP3 MSTORE POP POP JUMP JUMPDEST PUSH2 0xA8D DUP2 PUSH2 0xA08 JUMP JUMPDEST DUP3 MSTORE POP POP JUMP JUMPDEST PUSH1 0x0 PUSH1 0x40 DUP3 ADD SWAP1 POP PUSH2 0xAA8 PUSH1 0x0 DUP4 ADD DUP6 PUSH2 0xA75 JUMP JUMPDEST PUSH2 0xAB5 PUSH1 0x20 DUP4 ADD DUP5 PUSH2 0xA84 JUMP JUMPDEST SWAP4 SWAP3 POP POP POP JUMP JUMPDEST PUSH2 0xAC5 DUP2 PUSH2 0xA6B JUMP JUMPDEST DUP2 EQ PUSH2 0xAD0 JUMPI PUSH1 0x0 DUP1 REVERT JUMPDEST POP JUMP JUMPDEST PUSH1 0x0 DUP2 CALLDATALOAD SWAP1 POP PUSH2 0xAE2 DUP2 PUSH2 0xABC JUMP JUMPDEST SWAP3 SWAP2 POP POP JUMP JUMPDEST PUSH1 0x0 PUSH1 0x20 DUP3 DUP5 SUB SLT ISZERO PUSH2 0xAFE JUMPI PUSH2 0xAFD PUSH2 0xA03 JUMP JUMPDEST JUMPDEST PUSH1 0x0 PUSH2 0xB0C DUP5 DUP3 DUP6 ADD PUSH2 0xAD3 JUMP JUMPDEST SWAP2 POP POP SWAP3 SWAP2 POP POP JUMP JUMPDEST PUSH1 0x0 PUSH20 0xFFFFFFFFFFFFFFFFFFFFFFFFFFFFFFFFFFFFFFFF DUP3 AND SWAP1 POP SWAP2 SWAP1 POP JUMP JUMPDEST PUSH1 0x0 DUP2 SWAP1 POP SWAP2 SWAP1 POP JUMP JUMPDEST PUSH1 0x0 PUSH2 0xB5A PUSH2 0xB55 PUSH2 0xB50 DUP5 PUSH2 0xB15 JUMP JUMPDEST PUSH2 0xB35 JUMP JUMPDEST PUSH2 0xB15 JUMP JUMPDEST SWAP1 POP SWAP2 SWAP1 POP JUMP JUMPDEST PUSH1 0x0 PUSH2 0xB6C DUP3 PUSH2 0xB3F JUMP JUMPDEST SWAP1 POP SWAP2 SWAP1 POP JUMP JUMPDEST PUSH1 0x0 PUSH2 0xB7E DUP3 PUSH2 0xB61 JUMP JUMPDEST SWAP1 POP SWAP2 SWAP1 POP JUMP JUMPDEST PUSH2 0xB8E DUP2 PUSH2 0xB73 JUMP JUMPDEST DUP3 MSTORE POP POP JUMP JUMPDEST PUSH1 0x0 PUSH1 0x20 DUP3 ADD SWAP1 POP PUSH2 0xBA9 PUSH1 0x0 DUP4 ADD DUP5 PUSH2 0xB85 JUMP JUMPDEST SWAP3 SWAP2 POP POP JUMP JUMPDEST PUSH1 0x0 PUSH1 0x20 DUP3 ADD SWAP1 POP PUSH2 0xBC4 PUSH1 0x0 DUP4 ADD DUP5 PUSH2 0xA84 JUMP JUMPDEST SWAP3 SWAP2 POP POP JUMP JUMPDEST PUSH1 0x0 PUSH2 0xBD5 DUP3 PUSH2 0xB15 JUMP JUMPDEST SWAP1 POP SWAP2 SWAP1 POP JUMP JUMPDEST PUSH2 0xBE5 DUP2 PUSH2 0xBCA JUMP JUMPDEST DUP2 EQ PUSH2 0xBF0 JUMPI PUSH1 0x0 DUP1 REVERT JUMPDEST POP JUMP JUMPDEST PUSH1 0x0 DUP2 CALLDATALOAD SWAP1 POP PUSH2 0xC02 DUP2 PUSH2 0xBDC JUMP JUMPDEST SWAP3 SWAP2 POP POP JUMP JUMPDEST PUSH1 0x0 PUSH1 0x20 DUP3 DUP5 SUB SLT ISZERO PUSH2 0xC1E JUMPI PUSH2 0xC1D PUSH2 0xA03 JUMP JUMPDEST JUMPDEST PUSH1 0x0 PUSH2 0xC2C DUP5 DUP3 DUP6 ADD PUSH2 0xBF3 JUMP JUMPDEST SWAP2 POP POP SWAP3 SWAP2 POP POP JUMP JUMPDEST PUSH1 0x0 DUP2 ISZERO ISZERO SWAP1 POP SWAP2 SWAP1 POP JUMP JUMPDEST PUSH2 0xC4A DUP2 PUSH2 0xC35 JUMP JUMPDEST DUP3 MSTORE POP POP JUMP JUMPDEST PUSH1 0x0 PUSH1 0x60 DUP3 ADD SWAP1 POP PUSH2 0xC65 PUSH1 0x0 DUP4 ADD DUP7 PUSH2 0xC41 JUMP JUMPDEST PUSH2 0xC72 PUSH1 0x20 DUP4 ADD DUP6 PUSH2 0xA84 JUMP JUMPDEST PUSH2 0xC7F PUSH1 0x40 DUP4 ADD DUP5 PUSH2 0xA75 JUMP JUMPDEST SWAP5 SWAP4 POP POP POP POP JUMP JUMPDEST PUSH1 0x0 PUSH1 0x20 DUP3 ADD SWAP1 POP PUSH2 0xC9C PUSH1 0x0 DUP4 ADD DUP5 PUSH2 0xA75 JUMP JUMPDEST SWAP3 SWAP2 POP POP JUMP JUMPDEST PUSH2 0xCAB DUP2 PUSH2 0xBCA JUMP JUMPDEST DUP3 MSTORE POP POP JUMP JUMPDEST PUSH1 0x0 PUSH1 0x20 DUP3 ADD SWAP1 POP PUSH2 0xCC6 PUSH1 0x0 DUP4 ADD DUP5 PUSH2 0xCA2 JUMP JUMPDEST SWAP3 SWAP2 POP POP JUMP JUMPDEST PUSH1 0x0 DUP2 MLOAD SWAP1 POP PUSH2 0xCDB DUP2 PUSH2 0xA12 JUMP JUMPDEST SWAP3 SWAP2 POP POP JUMP JUMPDEST PUSH1 0x0 PUSH1 0x20 DUP3 DUP5 SUB SLT ISZERO PUSH2 0xCF7 JUMPI PUSH2 0xCF6 PUSH2 0xA03 JUMP JUMPDEST JUMPDEST PUSH1 0x0 PUSH2 0xD05 DUP5 DUP3 DUP6 ADD PUSH2 0xCCC JUMP JUMPDEST SWAP2 POP POP SWAP3 SWAP2 POP POP JUMP JUMPDEST PUSH1 0x0 DUP3 DUP3 MSTORE PUSH1 0x20 DUP3 ADD SWAP1 POP SWAP3 SWAP2 POP POP JUMP JUMPDEST PUSH32 0x796F752063616E7420766F746520626173746172640000000000000000000000 PUSH1 0x0 DUP3 ADD MSTORE POP JUMP JUMPDEST PUSH1 0x0 PUSH2 0xD55 PUSH1 0x15 DUP4 PUSH2 0xD0E JUMP JUMPDEST SWAP2 POP PUSH2 0xD60 DUP3 PUSH2 0xD1F JUMP JUMPDEST PUSH1 0x20 DUP3 ADD SWAP1 POP SWAP2 SWAP1 POP JUMP JUMPDEST PUSH1 0x0 PUSH1 0x20 DUP3 ADD SWAP1 POP DUP2 DUP2 SUB PUSH1 0x0 DUP4 ADD MSTORE PUSH2 0xD84 DUP2 PUSH2 0xD48 JUMP JUMPDEST SWAP1 POP SWAP2 SWAP1 POP JUMP JUMPDEST PUSH32 0x4E6F2072652D656E7472616E6379000000000000000000000000000000000000 PUSH1 0x0 DUP3 ADD MSTORE POP JUMP JUMPDEST PUSH1 0x0 PUSH2 0xDC1 PUSH1 0xE DUP4 PUSH2 0xD0E JUMP JUMPDEST SWAP2 POP PUSH2 0xDCC DUP3 PUSH2 0xD8B JUMP JUMPDEST PUSH1 0x20 DUP3 ADD SWAP1 POP SWAP2 SWAP1 POP JUMP JUMPDEST PUSH1 0x0 PUSH1 0x20 DUP3 ADD SWAP1 POP DUP2 DUP2 SUB PUSH1 0x0 DUP4 ADD MSTORE PUSH2 0xDF0 DUP2 PUSH2 0xDB4 JUMP JUMPDEST SWAP1 POP SWAP2 SWAP1 POP JUMP JUMPDEST PUSH32 0x416C726561647920766F7465642E000000000000000000000000000000000000 PUSH1 0x0 DUP3 ADD MSTORE POP JUMP JUMPDEST PUSH1 0x0 PUSH2 0xE2D PUSH1 0xE DUP4 PUSH2 0xD0E JUMP JUMPDEST SWAP2 POP PUSH2 0xE38 DUP3 PUSH2 0xDF7 JUMP JUMPDEST PUSH1 0x20 DUP3 ADD SWAP1 POP SWAP2 SWAP1 POP JUMP JUMPDEST PUSH1 0x0 PUSH1 0x20 DUP3 ADD SWAP1 POP DUP2 DUP2 SUB PUSH1 0x0 DUP4 ADD MSTORE PUSH2 0xE5C DUP2 PUSH2 0xE20 JUMP JUMPDEST SWAP1 POP SWAP2 SWAP1 POP JUMP JUMPDEST PUSH32 0x4E487B7100000000000000000000000000000000000000000000000000000000 PUSH1 0x0 MSTORE PUSH1 0x11 PUSH1 0x4 MSTORE PUSH1 0x24 PUSH1 0x0 REVERT JUMPDEST PUSH1 0x0 PUSH2 0xE9D DUP3 PUSH2 0xA08 JUMP JUMPDEST SWAP2 POP PUSH2 0xEA8 DUP4 PUSH2 0xA08 JUMP JUMPDEST SWAP3 POP DUP3 DUP3 SUB SWAP1 POP DUP2 DUP2 GT ISZERO PUSH2 0xEC0 JUMPI PUSH2 0xEBF PUSH2 0xE63 JUMP JUMPDEST JUMPDEST SWAP3 SWAP2 POP POP JUMP JUMPDEST PUSH32 0x4E487B7100000000000000000000000000000000000000000000000000000000 PUSH1 0x0 MSTORE PUSH1 0x32 PUSH1 0x4 MSTORE PUSH1 0x24 PUSH1 0x0 REVERT JUMPDEST PUSH1 0x0 PUSH2 0xF00 DUP3 PUSH2 0xA08 JUMP JUMPDEST SWAP2 POP PUSH2 0xF0B DUP4 PUSH2 0xA08 JUMP JUMPDEST SWAP3 POP DUP3 DUP3 ADD SWAP1 POP DUP1 DUP3 GT ISZERO PUSH2 0xF23 JUMPI PUSH2 0xF22 PUSH2 0xE63 JUMP JUMPDEST JUMPDEST SWAP3 SWAP2 POP POP JUMP JUMPDEST PUSH1 0x0 PUSH2 0xF34 DUP3 PUSH2 0xA08 JUMP JUMPDEST SWAP2 POP PUSH32 0xFFFFFFFFFFFFFFFFFFFFFFFFFFFFFFFFFFFFFFFFFFFFFFFFFFFFFFFFFFFFFFFF DUP3 SUB PUSH2 0xF66 JUMPI PUSH2 0xF65 PUSH2 0xE63 JUMP JUMPDEST JUMPDEST PUSH1 0x1 DUP3 ADD SWAP1 POP SWAP2 SWAP1 POP JUMP INVALID LOG2 PUSH5 0x6970667358 0x22 SLT KECCAK256 CHAINID 0x28 0x5D DUP5 0x5E 0xA8 0xCF SWAP3 DUP14 LT 0xC2 CALL BYTE 0xCB DUP4 0xFC ADDMOD SUB CREATE 0x4E SWAP14 0xC 0x2F 0xB1 MSTORE 0xBC 0x2B 0xEC BLOCKHASH PUSH32 0xDBB164736F6C6343000811003300000000000000000000000000000000000000 "
				},
				"gasEstimates": {
					"creation": {
						"codeDepositCost": "801400",
						"executionCost": "infinite",
						"totalCost": "infinite"
					},
					"external": {
						"proposals(uint256)": "infinite",
						"test()": "infinite",
						"twitt()": "infinite",
						"voteExisting(uint256)": "infinite",
						"voteNew(bytes32)": "infinite",
						"voters(address)": "7294",
						"winnerName()": "infinite",
						"winningProposal()": "infinite"
					}
				},
				"methodIdentifiers": {
					"proposals(uint256)": "013cf08b",
					"test()": "f8a8fd6d",
					"twitt()": "49e0335f",
					"voteExisting(uint256)": "d055f2f0",
					"voteNew(bytes32)": "420336b5",
					"voters(address)": "a3ec138d",
					"winnerName()": "e2ba53f0",
					"winningProposal()": "609ff1bd"
				}
			},
			"storageLayout": {
				"storage": [
					{
						"astId": 84,
						"contract": "contract-71ad24318f.sol:BallotBox",
						"label": "twitt",
						"offset": 0,
						"slot": "0",
						"type": "t_contract(IERC20)77"
					},
					{
						"astId": 86,
						"contract": "contract-71ad24318f.sol:BallotBox",
						"label": "locked",
						"offset": 20,
						"slot": "0",
						"type": "t_bool"
					},
					{
						"astId": 152,
						"contract": "contract-71ad24318f.sol:BallotBox",
						"label": "voters",
						"offset": 0,
						"slot": "1",
						"type": "t_mapping(t_address,t_struct(Voter)142_storage)"
					},
					{
						"astId": 156,
						"contract": "contract-71ad24318f.sol:BallotBox",
						"label": "proposals",
						"offset": 0,
						"slot": "2",
						"type": "t_array(t_struct(Proposal)147_storage)dyn_storage"
					}
				],
				"types": {
					"t_address": {
						"encoding": "inplace",
						"label": "address",
						"numberOfBytes": "20"
					},
					"t_array(t_struct(Proposal)147_storage)dyn_storage": {
						"base": "t_struct(Proposal)147_storage",
						"encoding": "dynamic_array",
						"label": "struct BallotBox.Proposal[]",
						"numberOfBytes": "32"
					},
					"t_bool": {
						"encoding": "inplace",
						"label": "bool",
						"numberOfBytes": "1"
					},
					"t_bytes32": {
						"encoding": "inplace",
						"label": "bytes32",
						"numberOfBytes": "32"
					},
					"t_contract(IERC20)77": {
						"encoding": "inplace",
						"label": "contract IERC20",
						"numberOfBytes": "20"
					},
					"t_mapping(t_address,t_struct(Voter)142_storage)": {
						"encoding": "mapping",
						"key": "t_address",
						"label": "mapping(address => struct BallotBox.Voter)",
						"numberOfBytes": "32",
						"value": "t_struct(Voter)142_storage"
					},
					"t_struct(Proposal)147_storage": {
						"encoding": "inplace",
						"label": "struct BallotBox.Proposal",
						"members": [
							{
								"astId": 144,
								"contract": "contract-71ad24318f.sol:BallotBox",
								"label": "hashtag",
								"offset": 0,
								"slot": "0",
								"type": "t_bytes32"
							},
							{
								"astId": 146,
								"contract": "contract-71ad24318f.sol:BallotBox",
								"label": "voteCount",
								"offset": 0,
								"slot": "1",
								"type": "t_uint256"
							}
						],
						"numberOfBytes": "64"
					},
					"t_struct(Voter)142_storage": {
						"encoding": "inplace",
						"label": "struct BallotBox.Voter",
						"members": [
							{
								"astId": 137,
								"contract": "contract-71ad24318f.sol:BallotBox",
								"label": "voted",
								"offset": 0,
								"slot": "0",
								"type": "t_bool"
							},
							{
								"astId": 139,
								"contract": "contract-71ad24318f.sol:BallotBox",
								"label": "vote",
								"offset": 0,
								"slot": "1",
								"type": "t_uint256"
							},
							{
								"astId": 141,
								"contract": "contract-71ad24318f.sol:BallotBox",
								"label": "hashtag",
								"offset": 0,
								"slot": "2",
								"type": "t_bytes32"
							}
						],
						"numberOfBytes": "96"
					},
					"t_uint256": {
						"encoding": "inplace",
						"label": "uint256",
						"numberOfBytes": "32"
					}
				}
			},
			"userdoc": {
				"kind": "user",
				"methods": {
					"constructor": {
						"notice": "Create a new ballot to choose one of `proposalNames`."
					},
					"voteExisting(uint256)": {
						"notice": "Give your vote (including votes delegated to you) to proposal `proposals[proposal].name`."
					}
				},
				"version": 1
			}
		}
	}
}