{
	"contract-442812f524.sol": {
		"Verify": {
			"abi": [
				{
					"inputs": [
						{
							"internalType": "address",
							"name": "_importantAddress",
							"type": "address"
						}
					],
					"stateMutability": "nonpayable",
					"type": "constructor"
				},
				{
					"inputs": [],
					"name": "importantAddress",
					"outputs": [
						{
							"internalType": "address",
							"name": "",
							"type": "address"
						}
					],
					"stateMutability": "view",
					"type": "function"
				},
				{
					"inputs": [
						{
							"internalType": "string",
							"name": "_word",
							"type": "string"
						},
						{
							"internalType": "bytes",
							"name": "sig",
							"type": "bytes"
						}
					],
					"name": "isValidData",
					"outputs": [
						{
							"internalType": "bool",
							"name": "",
							"type": "bool"
						}
					],
					"stateMutability": "view",
					"type": "function"
				},
				{
					"inputs": [],
					"name": "messg",
					"outputs": [
						{
							"internalType": "bytes32",
							"name": "",
							"type": "bytes32"
						}
					],
					"stateMutability": "view",
					"type": "function"
				},
				{
					"inputs": [
						{
							"internalType": "string",
							"name": "_w",
							"type": "string"
						}
					],
					"name": "msgR",
					"outputs": [
						{
							"internalType": "bytes32",
							"name": "",
							"type": "bytes32"
						}
					],
					"stateMutability": "nonpayable",
					"type": "function"
				},
				{
					"inputs": [
						{
							"internalType": "bytes32",
							"name": "message",
							"type": "bytes32"
						},
						{
							"internalType": "bytes",
							"name": "sig",
							"type": "bytes"
						}
					],
					"name": "recoverSigner",
					"outputs": [
						{
							"internalType": "address",
							"name": "",
							"type": "address"
						}
					],
					"stateMutability": "pure",
					"type": "function"
				},
				{
					"inputs": [
						{
							"internalType": "bytes",
							"name": "sig",
							"type": "bytes"
						}
					],
					"name": "splitSignature",
					"outputs": [
						{
							"internalType": "uint8",
							"name": "",
							"type": "uint8"
						},
						{
							"internalType": "bytes32",
							"name": "",
							"type": "bytes32"
						},
						{
							"internalType": "bytes32",
							"name": "",
							"type": "bytes32"
						}
					],
					"stateMutability": "pure",
					"type": "function"
				}
			],
			"devdoc": {
				"kind": "dev",
				"methods": {},
				"version": 1
			},
			"evm": {
				"assembly": "    /* \"contract-442812f524.sol\":57:1395  contract Verify {... */\n  mstore(0x40, 0x80)\n    /* \"contract-442812f524.sol\":143:240  constructor (address _importantAddress) public{... */\n  callvalue\n  dup1\n  iszero\n  tag_1\n  jumpi\n  0x00\n  dup1\n  revert\ntag_1:\n  pop\n  mload(0x40)\n  sub(codesize, bytecodeSize)\n  dup1\n  bytecodeSize\n  dup4\n  codecopy\n  dup2\n  dup2\n  add\n  0x40\n  mstore\n  dup2\n  add\n  swap1\n  tag_2\n  swap2\n  swap1\n  tag_3\n  jump\t// in\ntag_2:\n    /* \"contract-442812f524.sol\":217:234  _importantAddress */\n  dup1\n    /* \"contract-442812f524.sol\":198:214  importantAddress */\n  0x00\n  dup1\n    /* \"contract-442812f524.sol\":198:234  importantAddress = _importantAddress */\n  0x0100\n  exp\n  dup2\n  sload\n  dup2\n  0xffffffffffffffffffffffffffffffffffffffff\n  mul\n  not\n  and\n  swap1\n  dup4\n  0xffffffffffffffffffffffffffffffffffffffff\n  and\n  mul\n  or\n  swap1\n  sstore\n  pop\n    /* \"contract-442812f524.sol\":143:240  constructor (address _importantAddress) public{... */\n  pop\n    /* \"contract-442812f524.sol\":57:1395  contract Verify {... */\n  jump(tag_6)\n    /* \"#utility.yul\":88:205   */\ntag_8:\n    /* \"#utility.yul\":197:198   */\n  0x00\n    /* \"#utility.yul\":194:195   */\n  dup1\n    /* \"#utility.yul\":187:199   */\n  revert\n    /* \"#utility.yul\":334:460   */\ntag_10:\n    /* \"#utility.yul\":371:378   */\n  0x00\n    /* \"#utility.yul\":411:453   */\n  0xffffffffffffffffffffffffffffffffffffffff\n    /* \"#utility.yul\":404:409   */\n  dup3\n    /* \"#utility.yul\":400:454   */\n  and\n    /* \"#utility.yul\":389:454   */\n  swap1\n  pop\n    /* \"#utility.yul\":334:460   */\n  swap2\n  swap1\n  pop\n  jump\t// out\n    /* \"#utility.yul\":466:562   */\ntag_11:\n    /* \"#utility.yul\":503:510   */\n  0x00\n    /* \"#utility.yul\":532:556   */\n  tag_20\n    /* \"#utility.yul\":550:555   */\n  dup3\n    /* \"#utility.yul\":532:556   */\n  tag_10\n  jump\t// in\ntag_20:\n    /* \"#utility.yul\":521:556   */\n  swap1\n  pop\n    /* \"#utility.yul\":466:562   */\n  swap2\n  swap1\n  pop\n  jump\t// out\n    /* \"#utility.yul\":568:690   */\ntag_12:\n    /* \"#utility.yul\":641:665   */\n  tag_22\n    /* \"#utility.yul\":659:664   */\n  dup2\n    /* \"#utility.yul\":641:665   */\n  tag_11\n  jump\t// in\ntag_22:\n    /* \"#utility.yul\":634:639   */\n  dup2\n    /* \"#utility.yul\":631:666   */\n  eq\n    /* \"#utility.yul\":621:684   */\n  tag_23\n  jumpi\n    /* \"#utility.yul\":680:681   */\n  0x00\n    /* \"#utility.yul\":677:678   */\n  dup1\n    /* \"#utility.yul\":670:682   */\n  revert\n    /* \"#utility.yul\":621:684   */\ntag_23:\n    /* \"#utility.yul\":568:690   */\n  pop\n  jump\t// out\n    /* \"#utility.yul\":696:839   */\ntag_13:\n    /* \"#utility.yul\":753:758   */\n  0x00\n    /* \"#utility.yul\":784:790   */\n  dup2\n    /* \"#utility.yul\":778:791   */\n  mload\n    /* \"#utility.yul\":769:791   */\n  swap1\n  pop\n    /* \"#utility.yul\":800:833   */\n  tag_25\n    /* \"#utility.yul\":827:832   */\n  dup2\n    /* \"#utility.yul\":800:833   */\n  tag_12\n  jump\t// in\ntag_25:\n    /* \"#utility.yul\":696:839   */\n  swap3\n  swap2\n  pop\n  pop\n  jump\t// out\n    /* \"#utility.yul\":845:1196   */\ntag_3:\n    /* \"#utility.yul\":915:921   */\n  0x00\n    /* \"#utility.yul\":964:966   */\n  0x20\n    /* \"#utility.yul\":952:961   */\n  dup3\n    /* \"#utility.yul\":943:950   */\n  dup5\n    /* \"#utility.yul\":939:962   */\n  sub\n    /* \"#utility.yul\":935:967   */\n  slt\n    /* \"#utility.yul\":932:1051   */\n  iszero\n  tag_27\n  jumpi\n    /* \"#utility.yul\":970:1049   */\n  tag_28\n  tag_8\n  jump\t// in\ntag_28:\n    /* \"#utility.yul\":932:1051   */\ntag_27:\n    /* \"#utility.yul\":1090:1091   */\n  0x00\n    /* \"#utility.yul\":1115:1179   */\n  tag_29\n    /* \"#utility.yul\":1171:1178   */\n  dup5\n    /* \"#utility.yul\":1162:1168   */\n  dup3\n    /* \"#utility.yul\":1151:1160   */\n  dup6\n    /* \"#utility.yul\":1147:1169   */\n  add\n    /* \"#utility.yul\":1115:1179   */\n  tag_13\n  jump\t// in\ntag_29:\n    /* \"#utility.yul\":1105:1179   */\n  swap2\n  pop\n    /* \"#utility.yul\":1061:1189   */\n  pop\n    /* \"#utility.yul\":845:1196   */\n  swap3\n  swap2\n  pop\n  pop\n  jump\t// out\n    /* \"contract-442812f524.sol\":57:1395  contract Verify {... */\ntag_6:\n  dataSize(sub_0)\n  dup1\n  dataOffset(sub_0)\n  0x00\n  codecopy\n  0x00\n  return\nstop\n\nsub_0: assembly {\n        /* \"contract-442812f524.sol\":57:1395  contract Verify {... */\n      mstore(0x40, 0x80)\n      callvalue\n      dup1\n      iszero\n      tag_1\n      jumpi\n      0x00\n      dup1\n      revert\n    tag_1:\n      pop\n      jumpi(tag_2, lt(calldatasize, 0x04))\n      shr(0xe0, calldataload(0x00))\n      dup1\n      0x1398b444\n      eq\n      tag_3\n      jumpi\n      dup1\n      0x71524b93\n      eq\n      tag_4\n      jumpi\n      dup1\n      0x97aba7f9\n      eq\n      tag_5\n      jumpi\n      dup1\n      0xa7bb5803\n      eq\n      tag_6\n      jumpi\n      dup1\n      0xadb41f75\n      eq\n      tag_7\n      jumpi\n      dup1\n      0xb4604750\n      eq\n      tag_8\n      jumpi\n    tag_2:\n      0x00\n      dup1\n      revert\n        /* \"contract-442812f524.sol\":80:111  address public importantAddress */\n    tag_3:\n      tag_9\n      tag_10\n      jump\t// in\n    tag_9:\n      mload(0x40)\n      tag_11\n      swap2\n      swap1\n      tag_12\n      jump\t// in\n    tag_11:\n      mload(0x40)\n      dup1\n      swap2\n      sub\n      swap1\n      return\n        /* \"contract-442812f524.sol\":117:137  bytes32 public messg */\n    tag_4:\n      tag_13\n      tag_14\n      jump\t// in\n    tag_13:\n      mload(0x40)\n      tag_15\n      swap2\n      swap1\n      tag_16\n      jump\t// in\n    tag_15:\n      mload(0x40)\n      dup1\n      swap2\n      sub\n      swap1\n      return\n        /* \"contract-442812f524.sol\":611:866  function recoverSigner(bytes32 message, bytes memory sig)... */\n    tag_5:\n      tag_17\n      0x04\n      dup1\n      calldatasize\n      sub\n      dup2\n      add\n      swap1\n      tag_18\n      swap2\n      swap1\n      tag_19\n      jump\t// in\n    tag_18:\n      tag_20\n      jump\t// in\n    tag_17:\n      mload(0x40)\n      tag_21\n      swap2\n      swap1\n      tag_12\n      jump\t// in\n    tag_21:\n      mload(0x40)\n      dup1\n      swap2\n      sub\n      swap1\n      return\n        /* \"contract-442812f524.sol\":871:1393  function splitSignature(bytes memory sig)... */\n    tag_6:\n      tag_22\n      0x04\n      dup1\n      calldatasize\n      sub\n      dup2\n      add\n      swap1\n      tag_23\n      swap2\n      swap1\n      tag_24\n      jump\t// in\n    tag_23:\n      tag_25\n      jump\t// in\n    tag_22:\n      mload(0x40)\n      tag_26\n      swap4\n      swap3\n      swap2\n      swap1\n      tag_27\n      jump\t// in\n    tag_26:\n      mload(0x40)\n      dup1\n      swap2\n      sub\n      swap1\n      return\n        /* \"contract-442812f524.sol\":247:466  function isValidData( string memory _word, bytes memory sig) public view returns(bool){... */\n    tag_7:\n      tag_28\n      0x04\n      dup1\n      calldatasize\n      sub\n      dup2\n      add\n      swap1\n      tag_29\n      swap2\n      swap1\n      tag_30\n      jump\t// in\n    tag_29:\n      tag_31\n      jump\t// in\n    tag_28:\n      mload(0x40)\n      tag_32\n      swap2\n      swap1\n      tag_33\n      jump\t// in\n    tag_32:\n      mload(0x40)\n      dup1\n      swap2\n      sub\n      swap1\n      return\n        /* \"contract-442812f524.sol\":472:606  function msgR(string memory _w)public returns(bytes32){... */\n    tag_8:\n      tag_34\n      0x04\n      dup1\n      calldatasize\n      sub\n      dup2\n      add\n      swap1\n      tag_35\n      swap2\n      swap1\n      tag_36\n      jump\t// in\n    tag_35:\n      tag_37\n      jump\t// in\n    tag_34:\n      mload(0x40)\n      tag_38\n      swap2\n      swap1\n      tag_16\n      jump\t// in\n    tag_38:\n      mload(0x40)\n      dup1\n      swap2\n      sub\n      swap1\n      return\n        /* \"contract-442812f524.sol\":80:111  address public importantAddress */\n    tag_10:\n      0x00\n      dup1\n      sload\n      swap1\n      0x0100\n      exp\n      swap1\n      div\n      0xffffffffffffffffffffffffffffffffffffffff\n      and\n      dup2\n      jump\t// out\n        /* \"contract-442812f524.sol\":117:137  bytes32 public messg */\n    tag_14:\n      sload(0x01)\n      dup2\n      jump\t// out\n        /* \"contract-442812f524.sol\":611:866  function recoverSigner(bytes32 message, bytes memory sig)... */\n    tag_20:\n        /* \"contract-442812f524.sol\":711:718  address */\n      0x00\n        /* \"contract-442812f524.sol\":734:741  uint8 v */\n      dup1\n        /* \"contract-442812f524.sol\":750:759  bytes32 r */\n      0x00\n        /* \"contract-442812f524.sol\":768:777  bytes32 s */\n      dup1\n        /* \"contract-442812f524.sol\":798:817  splitSignature(sig) */\n      tag_40\n        /* \"contract-442812f524.sol\":813:816  sig */\n      dup6\n        /* \"contract-442812f524.sol\":798:812  splitSignature */\n      tag_25\n        /* \"contract-442812f524.sol\":798:817  splitSignature(sig) */\n      jump\t// in\n    tag_40:\n        /* \"contract-442812f524.sol\":786:817  (v, r, s) = splitSignature(sig) */\n      dup1\n      swap4\n      pop\n      dup2\n      swap5\n      pop\n      dup3\n      swap6\n      pop\n      pop\n      pop\n      pop\n        /* \"contract-442812f524.sol\":833:860  ecrecover(message, v, r, s) */\n      0x01\n        /* \"contract-442812f524.sol\":843:850  message */\n      dup7\n        /* \"contract-442812f524.sol\":852:853  v */\n      dup5\n        /* \"contract-442812f524.sol\":855:856  r */\n      dup5\n        /* \"contract-442812f524.sol\":858:859  s */\n      dup5\n        /* \"contract-442812f524.sol\":833:860  ecrecover(message, v, r, s) */\n      mload(0x40)\n      0x00\n      dup2\n      mstore\n      0x20\n      add\n      0x40\n      mstore\n      mload(0x40)\n      tag_41\n      swap5\n      swap4\n      swap3\n      swap2\n      swap1\n      tag_42\n      jump\t// in\n    tag_41:\n      0x20\n      mload(0x40)\n      0x20\n      dup2\n      sub\n      swap1\n      dup1\n      dup5\n      sub\n      swap1\n      dup6\n      gas\n      staticcall\n      iszero\n      dup1\n      iszero\n      tag_44\n      jumpi\n      returndatasize\n      0x00\n      dup1\n      returndatacopy\n      revert(0x00, returndatasize)\n    tag_44:\n      pop\n      pop\n      pop\n      mload(sub(mload(0x40), 0x20))\n        /* \"contract-442812f524.sol\":826:860  return ecrecover(message, v, r, s) */\n      swap4\n      pop\n      pop\n      pop\n      pop\n        /* \"contract-442812f524.sol\":611:866  function recoverSigner(bytes32 message, bytes memory sig)... */\n      swap3\n      swap2\n      pop\n      pop\n      jump\t// out\n        /* \"contract-442812f524.sol\":871:1393  function splitSignature(bytes memory sig)... */\n    tag_25:\n        /* \"contract-442812f524.sol\":955:960  uint8 */\n      0x00\n        /* \"contract-442812f524.sol\":962:969  bytes32 */\n      dup1\n        /* \"contract-442812f524.sol\":971:978  bytes32 */\n      0x00\n        /* \"contract-442812f524.sol\":1016:1018  65 */\n      0x41\n        /* \"contract-442812f524.sol\":1002:1005  sig */\n      dup5\n        /* \"contract-442812f524.sol\":1002:1012  sig.length */\n      mload\n        /* \"contract-442812f524.sol\":1002:1018  sig.length == 65 */\n      eq\n        /* \"contract-442812f524.sol\":994:1019  require(sig.length == 65) */\n      tag_46\n      jumpi\n      0x00\n      dup1\n      revert\n    tag_46:\n        /* \"contract-442812f524.sol\":1029:1038  bytes32 r */\n      0x00\n        /* \"contract-442812f524.sol\":1047:1056  bytes32 s */\n      dup1\n        /* \"contract-442812f524.sol\":1065:1072  uint8 v */\n      0x00\n        /* \"contract-442812f524.sol\":1178:1180  32 */\n      0x20\n        /* \"contract-442812f524.sol\":1173:1176  sig */\n      dup8\n        /* \"contract-442812f524.sol\":1169:1181  add(sig, 32) */\n      add\n        /* \"contract-442812f524.sol\":1163:1182  mload(add(sig, 32)) */\n      mload\n        /* \"contract-442812f524.sol\":1158:1182  r := mload(add(sig, 32)) */\n      swap3\n      pop\n        /* \"contract-442812f524.sol\":1244:1246  64 */\n      0x40\n        /* \"contract-442812f524.sol\":1239:1242  sig */\n      dup8\n        /* \"contract-442812f524.sol\":1235:1247  add(sig, 64) */\n      add\n        /* \"contract-442812f524.sol\":1229:1248  mload(add(sig, 64)) */\n      mload\n        /* \"contract-442812f524.sol\":1224:1248  s := mload(add(sig, 64)) */\n      swap2\n      pop\n        /* \"contract-442812f524.sol\":1347:1349  96 */\n      0x60\n        /* \"contract-442812f524.sol\":1342:1345  sig */\n      dup8\n        /* \"contract-442812f524.sol\":1338:1350  add(sig, 96) */\n      add\n        /* \"contract-442812f524.sol\":1332:1351  mload(add(sig, 96)) */\n      mload\n        /* \"contract-442812f524.sol\":1329:1330  0 */\n      0x00\n        /* \"contract-442812f524.sol\":1324:1352  byte(0, mload(add(sig, 96))) */\n      byte\n        /* \"contract-442812f524.sol\":1319:1352  v := byte(0, mload(add(sig, 96))) */\n      swap1\n      pop\n        /* \"contract-442812f524.sol\":1379:1380  v */\n      dup1\n        /* \"contract-442812f524.sol\":1382:1383  r */\n      dup4\n        /* \"contract-442812f524.sol\":1385:1386  s */\n      dup4\n        /* \"contract-442812f524.sol\":1371:1387  return (v, r, s) */\n      swap6\n      pop\n      swap6\n      pop\n      swap6\n      pop\n      pop\n      pop\n      pop\n        /* \"contract-442812f524.sol\":871:1393  function splitSignature(bytes memory sig)... */\n      swap2\n      swap4\n      swap1\n      swap3\n      pop\n      jump\t// out\n        /* \"contract-442812f524.sol\":247:466  function isValidData( string memory _word, bytes memory sig) public view returns(bool){... */\n    tag_31:\n        /* \"contract-442812f524.sol\":328:332  bool */\n      0x00\n        /* \"contract-442812f524.sol\":342:357  bytes32 message */\n      dup1\n        /* \"contract-442812f524.sol\":388:393  _word */\n      dup4\n        /* \"contract-442812f524.sol\":370:394  abi.encodePacked( _word) */\n      add(0x20, mload(0x40))\n      tag_48\n      swap2\n      swap1\n      tag_49\n      jump\t// in\n    tag_48:\n      mload(0x40)\n      0x20\n      dup2\n      dup4\n      sub\n      sub\n      dup2\n      mstore\n      swap1\n      0x40\n      mstore\n        /* \"contract-442812f524.sol\":360:395  keccak256(abi.encodePacked( _word)) */\n      dup1\n      mload\n      swap1\n      0x20\n      add\n      keccak256\n        /* \"contract-442812f524.sol\":342:395  bytes32 message = keccak256(abi.encodePacked( _word)) */\n      swap1\n      pop\n        /* \"contract-442812f524.sol\":443:459  importantAddress */\n      0x00\n      dup1\n      sload\n      swap1\n      0x0100\n      exp\n      swap1\n      div\n      0xffffffffffffffffffffffffffffffffffffffff\n      and\n        /* \"contract-442812f524.sol\":412:459  recoverSigner(message, sig) == importantAddress */\n      0xffffffffffffffffffffffffffffffffffffffff\n      and\n        /* \"contract-442812f524.sol\":412:439  recoverSigner(message, sig) */\n      tag_50\n        /* \"contract-442812f524.sol\":426:433  message */\n      dup3\n        /* \"contract-442812f524.sol\":435:438  sig */\n      dup6\n        /* \"contract-442812f524.sol\":412:425  recoverSigner */\n      tag_20\n        /* \"contract-442812f524.sol\":412:439  recoverSigner(message, sig) */\n      jump\t// in\n    tag_50:\n        /* \"contract-442812f524.sol\":412:459  recoverSigner(message, sig) == importantAddress */\n      0xffffffffffffffffffffffffffffffffffffffff\n      and\n      eq\n        /* \"contract-442812f524.sol\":404:460  return (recoverSigner(message, sig) == importantAddress) */\n      swap2\n      pop\n      pop\n        /* \"contract-442812f524.sol\":247:466  function isValidData( string memory _word, bytes memory sig) public view returns(bool){... */\n      swap3\n      swap2\n      pop\n      pop\n      jump\t// out\n        /* \"contract-442812f524.sol\":472:606  function msgR(string memory _w)public returns(bytes32){... */\n    tag_37:\n        /* \"contract-442812f524.sol\":518:525  bytes32 */\n      0x00\n        /* \"contract-442812f524.sol\":573:575  _w */\n      dup2\n        /* \"contract-442812f524.sol\":555:576  abi.encodePacked( _w) */\n      add(0x20, mload(0x40))\n      tag_52\n      swap2\n      swap1\n      tag_49\n      jump\t// in\n    tag_52:\n      mload(0x40)\n      0x20\n      dup2\n      dup4\n      sub\n      sub\n      dup2\n      mstore\n      swap1\n      0x40\n      mstore\n        /* \"contract-442812f524.sol\":545:577  keccak256(abi.encodePacked( _w)) */\n      dup1\n      mload\n      swap1\n      0x20\n      add\n      keccak256\n        /* \"contract-442812f524.sol\":537:542  messg */\n      0x01\n        /* \"contract-442812f524.sol\":537:577  messg = keccak256(abi.encodePacked( _w)) */\n      dup2\n      swap1\n      sstore\n      pop\n        /* \"contract-442812f524.sol\":594:599  messg */\n      sload(0x01)\n        /* \"contract-442812f524.sol\":587:599  return messg */\n      swap1\n      pop\n        /* \"contract-442812f524.sol\":472:606  function msgR(string memory _w)public returns(bytes32){... */\n      swap2\n      swap1\n      pop\n      jump\t// out\n        /* \"#utility.yul\":7:133   */\n    tag_53:\n        /* \"#utility.yul\":44:51   */\n      0x00\n        /* \"#utility.yul\":84:126   */\n      0xffffffffffffffffffffffffffffffffffffffff\n        /* \"#utility.yul\":77:82   */\n      dup3\n        /* \"#utility.yul\":73:127   */\n      and\n        /* \"#utility.yul\":62:127   */\n      swap1\n      pop\n        /* \"#utility.yul\":7:133   */\n      swap2\n      swap1\n      pop\n      jump\t// out\n        /* \"#utility.yul\":139:235   */\n    tag_54:\n        /* \"#utility.yul\":176:183   */\n      0x00\n        /* \"#utility.yul\":205:229   */\n      tag_87\n        /* \"#utility.yul\":223:228   */\n      dup3\n        /* \"#utility.yul\":205:229   */\n      tag_53\n      jump\t// in\n    tag_87:\n        /* \"#utility.yul\":194:229   */\n      swap1\n      pop\n        /* \"#utility.yul\":139:235   */\n      swap2\n      swap1\n      pop\n      jump\t// out\n        /* \"#utility.yul\":241:359   */\n    tag_55:\n        /* \"#utility.yul\":328:352   */\n      tag_89\n        /* \"#utility.yul\":346:351   */\n      dup2\n        /* \"#utility.yul\":328:352   */\n      tag_54\n      jump\t// in\n    tag_89:\n        /* \"#utility.yul\":323:326   */\n      dup3\n        /* \"#utility.yul\":316:353   */\n      mstore\n        /* \"#utility.yul\":241:359   */\n      pop\n      pop\n      jump\t// out\n        /* \"#utility.yul\":365:587   */\n    tag_12:\n        /* \"#utility.yul\":458:462   */\n      0x00\n        /* \"#utility.yul\":496:498   */\n      0x20\n        /* \"#utility.yul\":485:494   */\n      dup3\n        /* \"#utility.yul\":481:499   */\n      add\n        /* \"#utility.yul\":473:499   */\n      swap1\n      pop\n        /* \"#utility.yul\":509:580   */\n      tag_91\n        /* \"#utility.yul\":577:578   */\n      0x00\n        /* \"#utility.yul\":566:575   */\n      dup4\n        /* \"#utility.yul\":562:579   */\n      add\n        /* \"#utility.yul\":553:559   */\n      dup5\n        /* \"#utility.yul\":509:580   */\n      tag_55\n      jump\t// in\n    tag_91:\n        /* \"#utility.yul\":365:587   */\n      swap3\n      swap2\n      pop\n      pop\n      jump\t// out\n        /* \"#utility.yul\":593:670   */\n    tag_56:\n        /* \"#utility.yul\":630:637   */\n      0x00\n        /* \"#utility.yul\":659:664   */\n      dup2\n        /* \"#utility.yul\":648:664   */\n      swap1\n      pop\n        /* \"#utility.yul\":593:670   */\n      swap2\n      swap1\n      pop\n      jump\t// out\n        /* \"#utility.yul\":676:794   */\n    tag_57:\n        /* \"#utility.yul\":763:787   */\n      tag_94\n        /* \"#utility.yul\":781:786   */\n      dup2\n        /* \"#utility.yul\":763:787   */\n      tag_56\n      jump\t// in\n    tag_94:\n        /* \"#utility.yul\":758:761   */\n      dup3\n        /* \"#utility.yul\":751:788   */\n      mstore\n        /* \"#utility.yul\":676:794   */\n      pop\n      pop\n      jump\t// out\n        /* \"#utility.yul\":800:1022   */\n    tag_16:\n        /* \"#utility.yul\":893:897   */\n      0x00\n        /* \"#utility.yul\":931:933   */\n      0x20\n        /* \"#utility.yul\":920:929   */\n      dup3\n        /* \"#utility.yul\":916:934   */\n      add\n        /* \"#utility.yul\":908:934   */\n      swap1\n      pop\n        /* \"#utility.yul\":944:1015   */\n      tag_96\n        /* \"#utility.yul\":1012:1013   */\n      0x00\n        /* \"#utility.yul\":1001:1010   */\n      dup4\n        /* \"#utility.yul\":997:1014   */\n      add\n        /* \"#utility.yul\":988:994   */\n      dup5\n        /* \"#utility.yul\":944:1015   */\n      tag_57\n      jump\t// in\n    tag_96:\n        /* \"#utility.yul\":800:1022   */\n      swap3\n      swap2\n      pop\n      pop\n      jump\t// out\n        /* \"#utility.yul\":1028:1103   */\n    tag_58:\n        /* \"#utility.yul\":1061:1067   */\n      0x00\n        /* \"#utility.yul\":1094:1096   */\n      0x40\n        /* \"#utility.yul\":1088:1097   */\n      mload\n        /* \"#utility.yul\":1078:1097   */\n      swap1\n      pop\n        /* \"#utility.yul\":1028:1103   */\n      swap1\n      jump\t// out\n        /* \"#utility.yul\":1109:1226   */\n    tag_59:\n        /* \"#utility.yul\":1218:1219   */\n      0x00\n        /* \"#utility.yul\":1215:1216   */\n      dup1\n        /* \"#utility.yul\":1208:1220   */\n      revert\n        /* \"#utility.yul\":1232:1349   */\n    tag_60:\n        /* \"#utility.yul\":1341:1342   */\n      0x00\n        /* \"#utility.yul\":1338:1339   */\n      dup1\n        /* \"#utility.yul\":1331:1343   */\n      revert\n        /* \"#utility.yul\":1355:1477   */\n    tag_61:\n        /* \"#utility.yul\":1428:1452   */\n      tag_101\n        /* \"#utility.yul\":1446:1451   */\n      dup2\n        /* \"#utility.yul\":1428:1452   */\n      tag_56\n      jump\t// in\n    tag_101:\n        /* \"#utility.yul\":1421:1426   */\n      dup2\n        /* \"#utility.yul\":1418:1453   */\n      eq\n        /* \"#utility.yul\":1408:1471   */\n      tag_102\n      jumpi\n        /* \"#utility.yul\":1467:1468   */\n      0x00\n        /* \"#utility.yul\":1464:1465   */\n      dup1\n        /* \"#utility.yul\":1457:1469   */\n      revert\n        /* \"#utility.yul\":1408:1471   */\n    tag_102:\n        /* \"#utility.yul\":1355:1477   */\n      pop\n      jump\t// out\n        /* \"#utility.yul\":1483:1622   */\n    tag_62:\n        /* \"#utility.yul\":1529:1534   */\n      0x00\n        /* \"#utility.yul\":1567:1573   */\n      dup2\n        /* \"#utility.yul\":1554:1574   */\n      calldataload\n        /* \"#utility.yul\":1545:1574   */\n      swap1\n      pop\n        /* \"#utility.yul\":1583:1616   */\n      tag_104\n        /* \"#utility.yul\":1610:1615   */\n      dup2\n        /* \"#utility.yul\":1583:1616   */\n      tag_61\n      jump\t// in\n    tag_104:\n        /* \"#utility.yul\":1483:1622   */\n      swap3\n      swap2\n      pop\n      pop\n      jump\t// out\n        /* \"#utility.yul\":1628:1745   */\n    tag_63:\n        /* \"#utility.yul\":1737:1738   */\n      0x00\n        /* \"#utility.yul\":1734:1735   */\n      dup1\n        /* \"#utility.yul\":1727:1739   */\n      revert\n        /* \"#utility.yul\":1751:1868   */\n    tag_64:\n        /* \"#utility.yul\":1860:1861   */\n      0x00\n        /* \"#utility.yul\":1857:1858   */\n      dup1\n        /* \"#utility.yul\":1850:1862   */\n      revert\n        /* \"#utility.yul\":1874:1976   */\n    tag_65:\n        /* \"#utility.yul\":1915:1921   */\n      0x00\n        /* \"#utility.yul\":1966:1968   */\n      0x1f\n        /* \"#utility.yul\":1962:1969   */\n      not\n        /* \"#utility.yul\":1957:1959   */\n      0x1f\n        /* \"#utility.yul\":1950:1955   */\n      dup4\n        /* \"#utility.yul\":1946:1960   */\n      add\n        /* \"#utility.yul\":1942:1970   */\n      and\n        /* \"#utility.yul\":1932:1970   */\n      swap1\n      pop\n        /* \"#utility.yul\":1874:1976   */\n      swap2\n      swap1\n      pop\n      jump\t// out\n        /* \"#utility.yul\":1982:2162   */\n    tag_66:\n        /* \"#utility.yul\":2030:2107   */\n      0x4e487b7100000000000000000000000000000000000000000000000000000000\n        /* \"#utility.yul\":2027:2028   */\n      0x00\n        /* \"#utility.yul\":2020:2108   */\n      mstore\n        /* \"#utility.yul\":2127:2131   */\n      0x41\n        /* \"#utility.yul\":2124:2125   */\n      0x04\n        /* \"#utility.yul\":2117:2132   */\n      mstore\n        /* \"#utility.yul\":2151:2155   */\n      0x24\n        /* \"#utility.yul\":2148:2149   */\n      0x00\n        /* \"#utility.yul\":2141:2156   */\n      revert\n        /* \"#utility.yul\":2168:2449   */\n    tag_67:\n        /* \"#utility.yul\":2251:2278   */\n      tag_110\n        /* \"#utility.yul\":2273:2277   */\n      dup3\n        /* \"#utility.yul\":2251:2278   */\n      tag_65\n      jump\t// in\n    tag_110:\n        /* \"#utility.yul\":2243:2249   */\n      dup2\n        /* \"#utility.yul\":2239:2279   */\n      add\n        /* \"#utility.yul\":2381:2387   */\n      dup2\n        /* \"#utility.yul\":2369:2379   */\n      dup2\n        /* \"#utility.yul\":2366:2388   */\n      lt\n        /* \"#utility.yul\":2345:2363   */\n      0xffffffffffffffff\n        /* \"#utility.yul\":2333:2343   */\n      dup3\n        /* \"#utility.yul\":2330:2364   */\n      gt\n        /* \"#utility.yul\":2327:2389   */\n      or\n        /* \"#utility.yul\":2324:2412   */\n      iszero\n      tag_111\n      jumpi\n        /* \"#utility.yul\":2392:2410   */\n      tag_112\n      tag_66\n      jump\t// in\n    tag_112:\n        /* \"#utility.yul\":2324:2412   */\n    tag_111:\n        /* \"#utility.yul\":2432:2442   */\n      dup1\n        /* \"#utility.yul\":2428:2430   */\n      0x40\n        /* \"#utility.yul\":2421:2443   */\n      mstore\n        /* \"#utility.yul\":2211:2449   */\n      pop\n        /* \"#utility.yul\":2168:2449   */\n      pop\n      pop\n      jump\t// out\n        /* \"#utility.yul\":2455:2584   */\n    tag_68:\n        /* \"#utility.yul\":2489:2495   */\n      0x00\n        /* \"#utility.yul\":2516:2536   */\n      tag_114\n      tag_58\n      jump\t// in\n    tag_114:\n        /* \"#utility.yul\":2506:2536   */\n      swap1\n      pop\n        /* \"#utility.yul\":2545:2578   */\n      tag_115\n        /* \"#utility.yul\":2573:2577   */\n      dup3\n        /* \"#utility.yul\":2565:2571   */\n      dup3\n        /* \"#utility.yul\":2545:2578   */\n      tag_67\n      jump\t// in\n    tag_115:\n        /* \"#utility.yul\":2455:2584   */\n      swap2\n      swap1\n      pop\n      jump\t// out\n        /* \"#utility.yul\":2590:2897   */\n    tag_69:\n        /* \"#utility.yul\":2651:2655   */\n      0x00\n        /* \"#utility.yul\":2741:2759   */\n      0xffffffffffffffff\n        /* \"#utility.yul\":2733:2739   */\n      dup3\n        /* \"#utility.yul\":2730:2760   */\n      gt\n        /* \"#utility.yul\":2727:2783   */\n      iszero\n      tag_117\n      jumpi\n        /* \"#utility.yul\":2763:2781   */\n      tag_118\n      tag_66\n      jump\t// in\n    tag_118:\n        /* \"#utility.yul\":2727:2783   */\n    tag_117:\n        /* \"#utility.yul\":2801:2830   */\n      tag_119\n        /* \"#utility.yul\":2823:2829   */\n      dup3\n        /* \"#utility.yul\":2801:2830   */\n      tag_65\n      jump\t// in\n    tag_119:\n        /* \"#utility.yul\":2793:2830   */\n      swap1\n      pop\n        /* \"#utility.yul\":2885:2889   */\n      0x20\n        /* \"#utility.yul\":2879:2883   */\n      dup2\n        /* \"#utility.yul\":2875:2890   */\n      add\n        /* \"#utility.yul\":2867:2890   */\n      swap1\n      pop\n        /* \"#utility.yul\":2590:2897   */\n      swap2\n      swap1\n      pop\n      jump\t// out\n        /* \"#utility.yul\":2903:3049   */\n    tag_70:\n        /* \"#utility.yul\":3000:3006   */\n      dup3\n        /* \"#utility.yul\":2995:2998   */\n      dup2\n        /* \"#utility.yul\":2990:2993   */\n      dup4\n        /* \"#utility.yul\":2977:3007   */\n      calldatacopy\n        /* \"#utility.yul\":3041:3042   */\n      0x00\n        /* \"#utility.yul\":3032:3038   */\n      dup4\n        /* \"#utility.yul\":3027:3030   */\n      dup4\n        /* \"#utility.yul\":3023:3039   */\n      add\n        /* \"#utility.yul\":3016:3043   */\n      mstore\n        /* \"#utility.yul\":2903:3049   */\n      pop\n      pop\n      pop\n      jump\t// out\n        /* \"#utility.yul\":3055:3478   */\n    tag_71:\n        /* \"#utility.yul\":3132:3137   */\n      0x00\n        /* \"#utility.yul\":3157:3222   */\n      tag_122\n        /* \"#utility.yul\":3173:3221   */\n      tag_123\n        /* \"#utility.yul\":3214:3220   */\n      dup5\n        /* \"#utility.yul\":3173:3221   */\n      tag_69\n      jump\t// in\n    tag_123:\n        /* \"#utility.yul\":3157:3222   */\n      tag_68\n      jump\t// in\n    tag_122:\n        /* \"#utility.yul\":3148:3222   */\n      swap1\n      pop\n        /* \"#utility.yul\":3245:3251   */\n      dup3\n        /* \"#utility.yul\":3238:3243   */\n      dup2\n        /* \"#utility.yul\":3231:3252   */\n      mstore\n        /* \"#utility.yul\":3283:3287   */\n      0x20\n        /* \"#utility.yul\":3276:3281   */\n      dup2\n        /* \"#utility.yul\":3272:3288   */\n      add\n        /* \"#utility.yul\":3321:3324   */\n      dup5\n        /* \"#utility.yul\":3312:3318   */\n      dup5\n        /* \"#utility.yul\":3307:3310   */\n      dup5\n        /* \"#utility.yul\":3303:3319   */\n      add\n        /* \"#utility.yul\":3300:3325   */\n      gt\n        /* \"#utility.yul\":3297:3409   */\n      iszero\n      tag_124\n      jumpi\n        /* \"#utility.yul\":3328:3407   */\n      tag_125\n      tag_64\n      jump\t// in\n    tag_125:\n        /* \"#utility.yul\":3297:3409   */\n    tag_124:\n        /* \"#utility.yul\":3418:3472   */\n      tag_126\n        /* \"#utility.yul\":3465:3471   */\n      dup5\n        /* \"#utility.yul\":3460:3463   */\n      dup3\n        /* \"#utility.yul\":3455:3458   */\n      dup6\n        /* \"#utility.yul\":3418:3472   */\n      tag_70\n      jump\t// in\n    tag_126:\n        /* \"#utility.yul\":3138:3478   */\n      pop\n        /* \"#utility.yul\":3055:3478   */\n      swap4\n      swap3\n      pop\n      pop\n      pop\n      jump\t// out\n        /* \"#utility.yul\":3497:3835   */\n    tag_72:\n        /* \"#utility.yul\":3552:3557   */\n      0x00\n        /* \"#utility.yul\":3601:3604   */\n      dup3\n        /* \"#utility.yul\":3594:3598   */\n      0x1f\n        /* \"#utility.yul\":3586:3592   */\n      dup4\n        /* \"#utility.yul\":3582:3599   */\n      add\n        /* \"#utility.yul\":3578:3605   */\n      slt\n        /* \"#utility.yul\":3568:3690   */\n      tag_128\n      jumpi\n        /* \"#utility.yul\":3609:3688   */\n      tag_129\n      tag_63\n      jump\t// in\n    tag_129:\n        /* \"#utility.yul\":3568:3690   */\n    tag_128:\n        /* \"#utility.yul\":3726:3732   */\n      dup2\n        /* \"#utility.yul\":3713:3733   */\n      calldataload\n        /* \"#utility.yul\":3751:3829   */\n      tag_130\n        /* \"#utility.yul\":3825:3828   */\n      dup5\n        /* \"#utility.yul\":3817:3823   */\n      dup3\n        /* \"#utility.yul\":3810:3814   */\n      0x20\n        /* \"#utility.yul\":3802:3808   */\n      dup7\n        /* \"#utility.yul\":3798:3815   */\n      add\n        /* \"#utility.yul\":3751:3829   */\n      tag_71\n      jump\t// in\n    tag_130:\n        /* \"#utility.yul\":3742:3829   */\n      swap2\n      pop\n        /* \"#utility.yul\":3558:3835   */\n      pop\n        /* \"#utility.yul\":3497:3835   */\n      swap3\n      swap2\n      pop\n      pop\n      jump\t// out\n        /* \"#utility.yul\":3841:4493   */\n    tag_19:\n        /* \"#utility.yul\":3918:3924   */\n      0x00\n        /* \"#utility.yul\":3926:3932   */\n      dup1\n        /* \"#utility.yul\":3975:3977   */\n      0x40\n        /* \"#utility.yul\":3963:3972   */\n      dup4\n        /* \"#utility.yul\":3954:3961   */\n      dup6\n        /* \"#utility.yul\":3950:3973   */\n      sub\n        /* \"#utility.yul\":3946:3978   */\n      slt\n        /* \"#utility.yul\":3943:4062   */\n      iszero\n      tag_132\n      jumpi\n        /* \"#utility.yul\":3981:4060   */\n      tag_133\n      tag_59\n      jump\t// in\n    tag_133:\n        /* \"#utility.yul\":3943:4062   */\n    tag_132:\n        /* \"#utility.yul\":4101:4102   */\n      0x00\n        /* \"#utility.yul\":4126:4179   */\n      tag_134\n        /* \"#utility.yul\":4171:4178   */\n      dup6\n        /* \"#utility.yul\":4162:4168   */\n      dup3\n        /* \"#utility.yul\":4151:4160   */\n      dup7\n        /* \"#utility.yul\":4147:4169   */\n      add\n        /* \"#utility.yul\":4126:4179   */\n      tag_62\n      jump\t// in\n    tag_134:\n        /* \"#utility.yul\":4116:4179   */\n      swap3\n      pop\n        /* \"#utility.yul\":4072:4189   */\n      pop\n        /* \"#utility.yul\":4256:4258   */\n      0x20\n        /* \"#utility.yul\":4245:4254   */\n      dup4\n        /* \"#utility.yul\":4241:4259   */\n      add\n        /* \"#utility.yul\":4228:4260   */\n      calldataload\n        /* \"#utility.yul\":4287:4305   */\n      0xffffffffffffffff\n        /* \"#utility.yul\":4279:4285   */\n      dup2\n        /* \"#utility.yul\":4276:4306   */\n      gt\n        /* \"#utility.yul\":4273:4390   */\n      iszero\n      tag_135\n      jumpi\n        /* \"#utility.yul\":4309:4388   */\n      tag_136\n      tag_60\n      jump\t// in\n    tag_136:\n        /* \"#utility.yul\":4273:4390   */\n    tag_135:\n        /* \"#utility.yul\":4414:4476   */\n      tag_137\n        /* \"#utility.yul\":4468:4475   */\n      dup6\n        /* \"#utility.yul\":4459:4465   */\n      dup3\n        /* \"#utility.yul\":4448:4457   */\n      dup7\n        /* \"#utility.yul\":4444:4466   */\n      add\n        /* \"#utility.yul\":4414:4476   */\n      tag_72\n      jump\t// in\n    tag_137:\n        /* \"#utility.yul\":4404:4476   */\n      swap2\n      pop\n        /* \"#utility.yul\":4199:4486   */\n      pop\n        /* \"#utility.yul\":3841:4493   */\n      swap3\n      pop\n      swap3\n      swap1\n      pop\n      jump\t// out\n        /* \"#utility.yul\":4499:5006   */\n    tag_24:\n        /* \"#utility.yul\":4567:4573   */\n      0x00\n        /* \"#utility.yul\":4616:4618   */\n      0x20\n        /* \"#utility.yul\":4604:4613   */\n      dup3\n        /* \"#utility.yul\":4595:4602   */\n      dup5\n        /* \"#utility.yul\":4591:4614   */\n      sub\n        /* \"#utility.yul\":4587:4619   */\n      slt\n        /* \"#utility.yul\":4584:4703   */\n      iszero\n      tag_139\n      jumpi\n        /* \"#utility.yul\":4622:4701   */\n      tag_140\n      tag_59\n      jump\t// in\n    tag_140:\n        /* \"#utility.yul\":4584:4703   */\n    tag_139:\n        /* \"#utility.yul\":4770:4771   */\n      0x00\n        /* \"#utility.yul\":4759:4768   */\n      dup3\n        /* \"#utility.yul\":4755:4772   */\n      add\n        /* \"#utility.yul\":4742:4773   */\n      calldataload\n        /* \"#utility.yul\":4800:4818   */\n      0xffffffffffffffff\n        /* \"#utility.yul\":4792:4798   */\n      dup2\n        /* \"#utility.yul\":4789:4819   */\n      gt\n        /* \"#utility.yul\":4786:4903   */\n      iszero\n      tag_141\n      jumpi\n        /* \"#utility.yul\":4822:4901   */\n      tag_142\n      tag_60\n      jump\t// in\n    tag_142:\n        /* \"#utility.yul\":4786:4903   */\n    tag_141:\n        /* \"#utility.yul\":4927:4989   */\n      tag_143\n        /* \"#utility.yul\":4981:4988   */\n      dup5\n        /* \"#utility.yul\":4972:4978   */\n      dup3\n        /* \"#utility.yul\":4961:4970   */\n      dup6\n        /* \"#utility.yul\":4957:4979   */\n      add\n        /* \"#utility.yul\":4927:4989   */\n      tag_72\n      jump\t// in\n    tag_143:\n        /* \"#utility.yul\":4917:4989   */\n      swap2\n      pop\n        /* \"#utility.yul\":4713:4999   */\n      pop\n        /* \"#utility.yul\":4499:5006   */\n      swap3\n      swap2\n      pop\n      pop\n      jump\t// out\n        /* \"#utility.yul\":5012:5098   */\n    tag_73:\n        /* \"#utility.yul\":5047:5054   */\n      0x00\n        /* \"#utility.yul\":5087:5091   */\n      0xff\n        /* \"#utility.yul\":5080:5085   */\n      dup3\n        /* \"#utility.yul\":5076:5092   */\n      and\n        /* \"#utility.yul\":5065:5092   */\n      swap1\n      pop\n        /* \"#utility.yul\":5012:5098   */\n      swap2\n      swap1\n      pop\n      jump\t// out\n        /* \"#utility.yul\":5104:5216   */\n    tag_74:\n        /* \"#utility.yul\":5187:5209   */\n      tag_146\n        /* \"#utility.yul\":5203:5208   */\n      dup2\n        /* \"#utility.yul\":5187:5209   */\n      tag_73\n      jump\t// in\n    tag_146:\n        /* \"#utility.yul\":5182:5185   */\n      dup3\n        /* \"#utility.yul\":5175:5210   */\n      mstore\n        /* \"#utility.yul\":5104:5216   */\n      pop\n      pop\n      jump\t// out\n        /* \"#utility.yul\":5222:5656   */\n    tag_27:\n        /* \"#utility.yul\":5367:5371   */\n      0x00\n        /* \"#utility.yul\":5405:5407   */\n      0x60\n        /* \"#utility.yul\":5394:5403   */\n      dup3\n        /* \"#utility.yul\":5390:5408   */\n      add\n        /* \"#utility.yul\":5382:5408   */\n      swap1\n      pop\n        /* \"#utility.yul\":5418:5485   */\n      tag_148\n        /* \"#utility.yul\":5482:5483   */\n      0x00\n        /* \"#utility.yul\":5471:5480   */\n      dup4\n        /* \"#utility.yul\":5467:5484   */\n      add\n        /* \"#utility.yul\":5458:5464   */\n      dup7\n        /* \"#utility.yul\":5418:5485   */\n      tag_74\n      jump\t// in\n    tag_148:\n        /* \"#utility.yul\":5495:5567   */\n      tag_149\n        /* \"#utility.yul\":5563:5565   */\n      0x20\n        /* \"#utility.yul\":5552:5561   */\n      dup4\n        /* \"#utility.yul\":5548:5566   */\n      add\n        /* \"#utility.yul\":5539:5545   */\n      dup6\n        /* \"#utility.yul\":5495:5567   */\n      tag_57\n      jump\t// in\n    tag_149:\n        /* \"#utility.yul\":5577:5649   */\n      tag_150\n        /* \"#utility.yul\":5645:5647   */\n      0x40\n        /* \"#utility.yul\":5634:5643   */\n      dup4\n        /* \"#utility.yul\":5630:5648   */\n      add\n        /* \"#utility.yul\":5621:5627   */\n      dup5\n        /* \"#utility.yul\":5577:5649   */\n      tag_57\n      jump\t// in\n    tag_150:\n        /* \"#utility.yul\":5222:5656   */\n      swap5\n      swap4\n      pop\n      pop\n      pop\n      pop\n      jump\t// out\n        /* \"#utility.yul\":5662:5970   */\n    tag_75:\n        /* \"#utility.yul\":5724:5728   */\n      0x00\n        /* \"#utility.yul\":5814:5832   */\n      0xffffffffffffffff\n        /* \"#utility.yul\":5806:5812   */\n      dup3\n        /* \"#utility.yul\":5803:5833   */\n      gt\n        /* \"#utility.yul\":5800:5856   */\n      iszero\n      tag_152\n      jumpi\n        /* \"#utility.yul\":5836:5854   */\n      tag_153\n      tag_66\n      jump\t// in\n    tag_153:\n        /* \"#utility.yul\":5800:5856   */\n    tag_152:\n        /* \"#utility.yul\":5874:5903   */\n      tag_154\n        /* \"#utility.yul\":5896:5902   */\n      dup3\n        /* \"#utility.yul\":5874:5903   */\n      tag_65\n      jump\t// in\n    tag_154:\n        /* \"#utility.yul\":5866:5903   */\n      swap1\n      pop\n        /* \"#utility.yul\":5958:5962   */\n      0x20\n        /* \"#utility.yul\":5952:5956   */\n      dup2\n        /* \"#utility.yul\":5948:5963   */\n      add\n        /* \"#utility.yul\":5940:5963   */\n      swap1\n      pop\n        /* \"#utility.yul\":5662:5970   */\n      swap2\n      swap1\n      pop\n      jump\t// out\n        /* \"#utility.yul\":5976:6401   */\n    tag_76:\n        /* \"#utility.yul\":6054:6059   */\n      0x00\n        /* \"#utility.yul\":6079:6145   */\n      tag_156\n        /* \"#utility.yul\":6095:6144   */\n      tag_157\n        /* \"#utility.yul\":6137:6143   */\n      dup5\n        /* \"#utility.yul\":6095:6144   */\n      tag_75\n      jump\t// in\n    tag_157:\n        /* \"#utility.yul\":6079:6145   */\n      tag_68\n      jump\t// in\n    tag_156:\n        /* \"#utility.yul\":6070:6145   */\n      swap1\n      pop\n        /* \"#utility.yul\":6168:6174   */\n      dup3\n        /* \"#utility.yul\":6161:6166   */\n      dup2\n        /* \"#utility.yul\":6154:6175   */\n      mstore\n        /* \"#utility.yul\":6206:6210   */\n      0x20\n        /* \"#utility.yul\":6199:6204   */\n      dup2\n        /* \"#utility.yul\":6195:6211   */\n      add\n        /* \"#utility.yul\":6244:6247   */\n      dup5\n        /* \"#utility.yul\":6235:6241   */\n      dup5\n        /* \"#utility.yul\":6230:6233   */\n      dup5\n        /* \"#utility.yul\":6226:6242   */\n      add\n        /* \"#utility.yul\":6223:6248   */\n      gt\n        /* \"#utility.yul\":6220:6332   */\n      iszero\n      tag_158\n      jumpi\n        /* \"#utility.yul\":6251:6330   */\n      tag_159\n      tag_64\n      jump\t// in\n    tag_159:\n        /* \"#utility.yul\":6220:6332   */\n    tag_158:\n        /* \"#utility.yul\":6341:6395   */\n      tag_160\n        /* \"#utility.yul\":6388:6394   */\n      dup5\n        /* \"#utility.yul\":6383:6386   */\n      dup3\n        /* \"#utility.yul\":6378:6381   */\n      dup6\n        /* \"#utility.yul\":6341:6395   */\n      tag_70\n      jump\t// in\n    tag_160:\n        /* \"#utility.yul\":6060:6401   */\n      pop\n        /* \"#utility.yul\":5976:6401   */\n      swap4\n      swap3\n      pop\n      pop\n      pop\n      jump\t// out\n        /* \"#utility.yul\":6421:6761   */\n    tag_77:\n        /* \"#utility.yul\":6477:6482   */\n      0x00\n        /* \"#utility.yul\":6526:6529   */\n      dup3\n        /* \"#utility.yul\":6519:6523   */\n      0x1f\n        /* \"#utility.yul\":6511:6517   */\n      dup4\n        /* \"#utility.yul\":6507:6524   */\n      add\n        /* \"#utility.yul\":6503:6530   */\n      slt\n        /* \"#utility.yul\":6493:6615   */\n      tag_162\n      jumpi\n        /* \"#utility.yul\":6534:6613   */\n      tag_163\n      tag_63\n      jump\t// in\n    tag_163:\n        /* \"#utility.yul\":6493:6615   */\n    tag_162:\n        /* \"#utility.yul\":6651:6657   */\n      dup2\n        /* \"#utility.yul\":6638:6658   */\n      calldataload\n        /* \"#utility.yul\":6676:6755   */\n      tag_164\n        /* \"#utility.yul\":6751:6754   */\n      dup5\n        /* \"#utility.yul\":6743:6749   */\n      dup3\n        /* \"#utility.yul\":6736:6740   */\n      0x20\n        /* \"#utility.yul\":6728:6734   */\n      dup7\n        /* \"#utility.yul\":6724:6741   */\n      add\n        /* \"#utility.yul\":6676:6755   */\n      tag_76\n      jump\t// in\n    tag_164:\n        /* \"#utility.yul\":6667:6755   */\n      swap2\n      pop\n        /* \"#utility.yul\":6483:6761   */\n      pop\n        /* \"#utility.yul\":6421:6761   */\n      swap3\n      swap2\n      pop\n      pop\n      jump\t// out\n        /* \"#utility.yul\":6767:7599   */\n    tag_30:\n        /* \"#utility.yul\":6854:6860   */\n      0x00\n        /* \"#utility.yul\":6862:6868   */\n      dup1\n        /* \"#utility.yul\":6911:6913   */\n      0x40\n        /* \"#utility.yul\":6899:6908   */\n      dup4\n        /* \"#utility.yul\":6890:6897   */\n      dup6\n        /* \"#utility.yul\":6886:6909   */\n      sub\n        /* \"#utility.yul\":6882:6914   */\n      slt\n        /* \"#utility.yul\":6879:6998   */\n      iszero\n      tag_166\n      jumpi\n        /* \"#utility.yul\":6917:6996   */\n      tag_167\n      tag_59\n      jump\t// in\n    tag_167:\n        /* \"#utility.yul\":6879:6998   */\n    tag_166:\n        /* \"#utility.yul\":7065:7066   */\n      0x00\n        /* \"#utility.yul\":7054:7063   */\n      dup4\n        /* \"#utility.yul\":7050:7067   */\n      add\n        /* \"#utility.yul\":7037:7068   */\n      calldataload\n        /* \"#utility.yul\":7095:7113   */\n      0xffffffffffffffff\n        /* \"#utility.yul\":7087:7093   */\n      dup2\n        /* \"#utility.yul\":7084:7114   */\n      gt\n        /* \"#utility.yul\":7081:7198   */\n      iszero\n      tag_168\n      jumpi\n        /* \"#utility.yul\":7117:7196   */\n      tag_169\n      tag_60\n      jump\t// in\n    tag_169:\n        /* \"#utility.yul\":7081:7198   */\n    tag_168:\n        /* \"#utility.yul\":7222:7285   */\n      tag_170\n        /* \"#utility.yul\":7277:7284   */\n      dup6\n        /* \"#utility.yul\":7268:7274   */\n      dup3\n        /* \"#utility.yul\":7257:7266   */\n      dup7\n        /* \"#utility.yul\":7253:7275   */\n      add\n        /* \"#utility.yul\":7222:7285   */\n      tag_77\n      jump\t// in\n    tag_170:\n        /* \"#utility.yul\":7212:7285   */\n      swap3\n      pop\n        /* \"#utility.yul\":7008:7295   */\n      pop\n        /* \"#utility.yul\":7362:7364   */\n      0x20\n        /* \"#utility.yul\":7351:7360   */\n      dup4\n        /* \"#utility.yul\":7347:7365   */\n      add\n        /* \"#utility.yul\":7334:7366   */\n      calldataload\n        /* \"#utility.yul\":7393:7411   */\n      0xffffffffffffffff\n        /* \"#utility.yul\":7385:7391   */\n      dup2\n        /* \"#utility.yul\":7382:7412   */\n      gt\n        /* \"#utility.yul\":7379:7496   */\n      iszero\n      tag_171\n      jumpi\n        /* \"#utility.yul\":7415:7494   */\n      tag_172\n      tag_60\n      jump\t// in\n    tag_172:\n        /* \"#utility.yul\":7379:7496   */\n    tag_171:\n        /* \"#utility.yul\":7520:7582   */\n      tag_173\n        /* \"#utility.yul\":7574:7581   */\n      dup6\n        /* \"#utility.yul\":7565:7571   */\n      dup3\n        /* \"#utility.yul\":7554:7563   */\n      dup7\n        /* \"#utility.yul\":7550:7572   */\n      add\n        /* \"#utility.yul\":7520:7582   */\n      tag_72\n      jump\t// in\n    tag_173:\n        /* \"#utility.yul\":7510:7582   */\n      swap2\n      pop\n        /* \"#utility.yul\":7305:7592   */\n      pop\n        /* \"#utility.yul\":6767:7599   */\n      swap3\n      pop\n      swap3\n      swap1\n      pop\n      jump\t// out\n        /* \"#utility.yul\":7605:7695   */\n    tag_78:\n        /* \"#utility.yul\":7639:7646   */\n      0x00\n        /* \"#utility.yul\":7682:7687   */\n      dup2\n        /* \"#utility.yul\":7675:7688   */\n      iszero\n        /* \"#utility.yul\":7668:7689   */\n      iszero\n        /* \"#utility.yul\":7657:7689   */\n      swap1\n      pop\n        /* \"#utility.yul\":7605:7695   */\n      swap2\n      swap1\n      pop\n      jump\t// out\n        /* \"#utility.yul\":7701:7810   */\n    tag_79:\n        /* \"#utility.yul\":7782:7803   */\n      tag_176\n        /* \"#utility.yul\":7797:7802   */\n      dup2\n        /* \"#utility.yul\":7782:7803   */\n      tag_78\n      jump\t// in\n    tag_176:\n        /* \"#utility.yul\":7777:7780   */\n      dup3\n        /* \"#utility.yul\":7770:7804   */\n      mstore\n        /* \"#utility.yul\":7701:7810   */\n      pop\n      pop\n      jump\t// out\n        /* \"#utility.yul\":7816:8026   */\n    tag_33:\n        /* \"#utility.yul\":7903:7907   */\n      0x00\n        /* \"#utility.yul\":7941:7943   */\n      0x20\n        /* \"#utility.yul\":7930:7939   */\n      dup3\n        /* \"#utility.yul\":7926:7944   */\n      add\n        /* \"#utility.yul\":7918:7944   */\n      swap1\n      pop\n        /* \"#utility.yul\":7954:8019   */\n      tag_178\n        /* \"#utility.yul\":8016:8017   */\n      0x00\n        /* \"#utility.yul\":8005:8014   */\n      dup4\n        /* \"#utility.yul\":8001:8018   */\n      add\n        /* \"#utility.yul\":7992:7998   */\n      dup5\n        /* \"#utility.yul\":7954:8019   */\n      tag_79\n      jump\t// in\n    tag_178:\n        /* \"#utility.yul\":7816:8026   */\n      swap3\n      swap2\n      pop\n      pop\n      jump\t// out\n        /* \"#utility.yul\":8032:8541   */\n    tag_36:\n        /* \"#utility.yul\":8101:8107   */\n      0x00\n        /* \"#utility.yul\":8150:8152   */\n      0x20\n        /* \"#utility.yul\":8138:8147   */\n      dup3\n        /* \"#utility.yul\":8129:8136   */\n      dup5\n        /* \"#utility.yul\":8125:8148   */\n      sub\n        /* \"#utility.yul\":8121:8153   */\n      slt\n        /* \"#utility.yul\":8118:8237   */\n      iszero\n      tag_180\n      jumpi\n        /* \"#utility.yul\":8156:8235   */\n      tag_181\n      tag_59\n      jump\t// in\n    tag_181:\n        /* \"#utility.yul\":8118:8237   */\n    tag_180:\n        /* \"#utility.yul\":8304:8305   */\n      0x00\n        /* \"#utility.yul\":8293:8302   */\n      dup3\n        /* \"#utility.yul\":8289:8306   */\n      add\n        /* \"#utility.yul\":8276:8307   */\n      calldataload\n        /* \"#utility.yul\":8334:8352   */\n      0xffffffffffffffff\n        /* \"#utility.yul\":8326:8332   */\n      dup2\n        /* \"#utility.yul\":8323:8353   */\n      gt\n        /* \"#utility.yul\":8320:8437   */\n      iszero\n      tag_182\n      jumpi\n        /* \"#utility.yul\":8356:8435   */\n      tag_183\n      tag_60\n      jump\t// in\n    tag_183:\n        /* \"#utility.yul\":8320:8437   */\n    tag_182:\n        /* \"#utility.yul\":8461:8524   */\n      tag_184\n        /* \"#utility.yul\":8516:8523   */\n      dup5\n        /* \"#utility.yul\":8507:8513   */\n      dup3\n        /* \"#utility.yul\":8496:8505   */\n      dup6\n        /* \"#utility.yul\":8492:8514   */\n      add\n        /* \"#utility.yul\":8461:8524   */\n      tag_77\n      jump\t// in\n    tag_184:\n        /* \"#utility.yul\":8451:8524   */\n      swap2\n      pop\n        /* \"#utility.yul\":8247:8534   */\n      pop\n        /* \"#utility.yul\":8032:8541   */\n      swap3\n      swap2\n      pop\n      pop\n      jump\t// out\n        /* \"#utility.yul\":8547:9092   */\n    tag_42:\n        /* \"#utility.yul\":8720:8724   */\n      0x00\n        /* \"#utility.yul\":8758:8761   */\n      0x80\n        /* \"#utility.yul\":8747:8756   */\n      dup3\n        /* \"#utility.yul\":8743:8762   */\n      add\n        /* \"#utility.yul\":8735:8762   */\n      swap1\n      pop\n        /* \"#utility.yul\":8772:8843   */\n      tag_186\n        /* \"#utility.yul\":8840:8841   */\n      0x00\n        /* \"#utility.yul\":8829:8838   */\n      dup4\n        /* \"#utility.yul\":8825:8842   */\n      add\n        /* \"#utility.yul\":8816:8822   */\n      dup8\n        /* \"#utility.yul\":8772:8843   */\n      tag_57\n      jump\t// in\n    tag_186:\n        /* \"#utility.yul\":8853:8921   */\n      tag_187\n        /* \"#utility.yul\":8917:8919   */\n      0x20\n        /* \"#utility.yul\":8906:8915   */\n      dup4\n        /* \"#utility.yul\":8902:8920   */\n      add\n        /* \"#utility.yul\":8893:8899   */\n      dup7\n        /* \"#utility.yul\":8853:8921   */\n      tag_74\n      jump\t// in\n    tag_187:\n        /* \"#utility.yul\":8931:9003   */\n      tag_188\n        /* \"#utility.yul\":8999:9001   */\n      0x40\n        /* \"#utility.yul\":8988:8997   */\n      dup4\n        /* \"#utility.yul\":8984:9002   */\n      add\n        /* \"#utility.yul\":8975:8981   */\n      dup6\n        /* \"#utility.yul\":8931:9003   */\n      tag_57\n      jump\t// in\n    tag_188:\n        /* \"#utility.yul\":9013:9085   */\n      tag_189\n        /* \"#utility.yul\":9081:9083   */\n      0x60\n        /* \"#utility.yul\":9070:9079   */\n      dup4\n        /* \"#utility.yul\":9066:9084   */\n      add\n        /* \"#utility.yul\":9057:9063   */\n      dup5\n        /* \"#utility.yul\":9013:9085   */\n      tag_57\n      jump\t// in\n    tag_189:\n        /* \"#utility.yul\":8547:9092   */\n      swap6\n      swap5\n      pop\n      pop\n      pop\n      pop\n      pop\n      jump\t// out\n        /* \"#utility.yul\":9098:9197   */\n    tag_80:\n        /* \"#utility.yul\":9150:9156   */\n      0x00\n        /* \"#utility.yul\":9184:9189   */\n      dup2\n        /* \"#utility.yul\":9178:9190   */\n      mload\n        /* \"#utility.yul\":9168:9190   */\n      swap1\n      pop\n        /* \"#utility.yul\":9098:9197   */\n      swap2\n      swap1\n      pop\n      jump\t// out\n        /* \"#utility.yul\":9203:9351   */\n    tag_81:\n        /* \"#utility.yul\":9305:9316   */\n      0x00\n        /* \"#utility.yul\":9342:9345   */\n      dup2\n        /* \"#utility.yul\":9327:9345   */\n      swap1\n      pop\n        /* \"#utility.yul\":9203:9351   */\n      swap3\n      swap2\n      pop\n      pop\n      jump\t// out\n        /* \"#utility.yul\":9357:9603   */\n    tag_82:\n        /* \"#utility.yul\":9438:9439   */\n      0x00\n        /* \"#utility.yul\":9448:9561   */\n    tag_193:\n        /* \"#utility.yul\":9462:9468   */\n      dup4\n        /* \"#utility.yul\":9459:9460   */\n      dup2\n        /* \"#utility.yul\":9456:9469   */\n      lt\n        /* \"#utility.yul\":9448:9561   */\n      iszero\n      tag_195\n      jumpi\n        /* \"#utility.yul\":9547:9548   */\n      dup1\n        /* \"#utility.yul\":9542:9545   */\n      dup3\n        /* \"#utility.yul\":9538:9549   */\n      add\n        /* \"#utility.yul\":9532:9550   */\n      mload\n        /* \"#utility.yul\":9528:9529   */\n      dup2\n        /* \"#utility.yul\":9523:9526   */\n      dup5\n        /* \"#utility.yul\":9519:9530   */\n      add\n        /* \"#utility.yul\":9512:9551   */\n      mstore\n        /* \"#utility.yul\":9484:9486   */\n      0x20\n        /* \"#utility.yul\":9481:9482   */\n      dup2\n        /* \"#utility.yul\":9477:9487   */\n      add\n        /* \"#utility.yul\":9472:9487   */\n      swap1\n      pop\n        /* \"#utility.yul\":9448:9561   */\n      jump(tag_193)\n    tag_195:\n        /* \"#utility.yul\":9595:9596   */\n      0x00\n        /* \"#utility.yul\":9586:9592   */\n      dup5\n        /* \"#utility.yul\":9581:9584   */\n      dup5\n        /* \"#utility.yul\":9577:9593   */\n      add\n        /* \"#utility.yul\":9570:9597   */\n      mstore\n        /* \"#utility.yul\":9419:9603   */\n      pop\n        /* \"#utility.yul\":9357:9603   */\n      pop\n      pop\n      pop\n      jump\t// out\n        /* \"#utility.yul\":9609:9999   */\n    tag_83:\n        /* \"#utility.yul\":9715:9718   */\n      0x00\n        /* \"#utility.yul\":9743:9782   */\n      tag_197\n        /* \"#utility.yul\":9776:9781   */\n      dup3\n        /* \"#utility.yul\":9743:9782   */\n      tag_80\n      jump\t// in\n    tag_197:\n        /* \"#utility.yul\":9798:9887   */\n      tag_198\n        /* \"#utility.yul\":9880:9886   */\n      dup2\n        /* \"#utility.yul\":9875:9878   */\n      dup6\n        /* \"#utility.yul\":9798:9887   */\n      tag_81\n      jump\t// in\n    tag_198:\n        /* \"#utility.yul\":9791:9887   */\n      swap4\n      pop\n        /* \"#utility.yul\":9896:9961   */\n      tag_199\n        /* \"#utility.yul\":9954:9960   */\n      dup2\n        /* \"#utility.yul\":9949:9952   */\n      dup6\n        /* \"#utility.yul\":9942:9946   */\n      0x20\n        /* \"#utility.yul\":9935:9940   */\n      dup7\n        /* \"#utility.yul\":9931:9947   */\n      add\n        /* \"#utility.yul\":9896:9961   */\n      tag_82\n      jump\t// in\n    tag_199:\n        /* \"#utility.yul\":9986:9992   */\n      dup1\n        /* \"#utility.yul\":9981:9984   */\n      dup5\n        /* \"#utility.yul\":9977:9993   */\n      add\n        /* \"#utility.yul\":9970:9993   */\n      swap2\n      pop\n        /* \"#utility.yul\":9719:9999   */\n      pop\n        /* \"#utility.yul\":9609:9999   */\n      swap3\n      swap2\n      pop\n      pop\n      jump\t// out\n        /* \"#utility.yul\":10005:10280   */\n    tag_49:\n        /* \"#utility.yul\":10137:10140   */\n      0x00\n        /* \"#utility.yul\":10159:10254   */\n      tag_201\n        /* \"#utility.yul\":10250:10253   */\n      dup3\n        /* \"#utility.yul\":10241:10247   */\n      dup5\n        /* \"#utility.yul\":10159:10254   */\n      tag_83\n      jump\t// in\n    tag_201:\n        /* \"#utility.yul\":10152:10254   */\n      swap2\n      pop\n        /* \"#utility.yul\":10271:10274   */\n      dup2\n        /* \"#utility.yul\":10264:10274   */\n      swap1\n      pop\n        /* \"#utility.yul\":10005:10280   */\n      swap3\n      swap2\n      pop\n      pop\n      jump\t// out\n\n    auxdata: 0xa26469706673582212204028b7a9cbe37103477902c132d31701ba5086ffb74204f007844354002a475464736f6c63430008110033\n}\n",
				"bytecode": {
					"linkReferences": {},
					"object": "608060405234801561001057600080fd5b506040516109cd3803806109cd833981810160405281019061003291906100db565b806000806101000a81548173ffffffffffffffffffffffffffffffffffffffff021916908373ffffffffffffffffffffffffffffffffffffffff16021790555050610108565b600080fd5b600073ffffffffffffffffffffffffffffffffffffffff82169050919050565b60006100a88261007d565b9050919050565b6100b88161009d565b81146100c357600080fd5b50565b6000815190506100d5816100af565b92915050565b6000602082840312156100f1576100f0610078565b5b60006100ff848285016100c6565b91505092915050565b6108b6806101176000396000f3fe608060405234801561001057600080fd5b50600436106100625760003560e01c80631398b4441461006757806371524b931461008557806397aba7f9146100a3578063a7bb5803146100d3578063adb41f7514610105578063b460475014610135575b600080fd5b61006f610165565b60405161007c919061034e565b60405180910390f35b61008d610189565b60405161009a9190610382565b60405180910390f35b6100bd60048036038101906100b89190610523565b61018f565b6040516100ca919061034e565b60405180910390f35b6100ed60048036038101906100e8919061057f565b610204565b6040516100fc939291906105e4565b60405180910390f35b61011f600480360381019061011a91906106bc565b610247565b60405161012c919061074f565b60405180910390f35b61014f600480360381019061014a919061076a565b6102d4565b60405161015c9190610382565b60405180910390f35b60008054906101000a900473ffffffffffffffffffffffffffffffffffffffff1681565b60015481565b60008060008061019e85610204565b809350819450829550505050600186848484604051600081526020016040526040516101cd94939291906107b3565b6020604051602081039080840390855afa1580156101ef573d6000803e3d6000fd5b50505060206040510351935050505092915050565b6000806000604184511461021757600080fd5b60008060006020870151925060408701519150606087015160001a90508083839550955095505050509193909250565b6000808360405160200161025b9190610869565b60405160208183030381529060405280519060200120905060008054906101000a900473ffffffffffffffffffffffffffffffffffffffff1673ffffffffffffffffffffffffffffffffffffffff166102b4828561018f565b73ffffffffffffffffffffffffffffffffffffffff161491505092915050565b6000816040516020016102e79190610869565b604051602081830303815290604052805190602001206001819055506001549050919050565b600073ffffffffffffffffffffffffffffffffffffffff82169050919050565b60006103388261030d565b9050919050565b6103488161032d565b82525050565b6000602082019050610363600083018461033f565b92915050565b6000819050919050565b61037c81610369565b82525050565b60006020820190506103976000830184610373565b92915050565b6000604051905090565b600080fd5b600080fd5b6103ba81610369565b81146103c557600080fd5b50565b6000813590506103d7816103b1565b92915050565b600080fd5b600080fd5b6000601f19601f8301169050919050565b7f4e487b7100000000000000000000000000000000000000000000000000000000600052604160045260246000fd5b610430826103e7565b810181811067ffffffffffffffff8211171561044f5761044e6103f8565b5b80604052505050565b600061046261039d565b905061046e8282610427565b919050565b600067ffffffffffffffff82111561048e5761048d6103f8565b5b610497826103e7565b9050602081019050919050565b82818337600083830152505050565b60006104c66104c184610473565b610458565b9050828152602081018484840111156104e2576104e16103e2565b5b6104ed8482856104a4565b509392505050565b600082601f83011261050a576105096103dd565b5b813561051a8482602086016104b3565b91505092915050565b6000806040838503121561053a576105396103a7565b5b6000610548858286016103c8565b925050602083013567ffffffffffffffff811115610569576105686103ac565b5b610575858286016104f5565b9150509250929050565b600060208284031215610595576105946103a7565b5b600082013567ffffffffffffffff8111156105b3576105b26103ac565b5b6105bf848285016104f5565b91505092915050565b600060ff82169050919050565b6105de816105c8565b82525050565b60006060820190506105f960008301866105d5565b6106066020830185610373565b6106136040830184610373565b949350505050565b600067ffffffffffffffff821115610636576106356103f8565b5b61063f826103e7565b9050602081019050919050565b600061065f61065a8461061b565b610458565b90508281526020810184848401111561067b5761067a6103e2565b5b6106868482856104a4565b509392505050565b600082601f8301126106a3576106a26103dd565b5b81356106b384826020860161064c565b91505092915050565b600080604083850312156106d3576106d26103a7565b5b600083013567ffffffffffffffff8111156106f1576106f06103ac565b5b6106fd8582860161068e565b925050602083013567ffffffffffffffff81111561071e5761071d6103ac565b5b61072a858286016104f5565b9150509250929050565b60008115159050919050565b61074981610734565b82525050565b60006020820190506107646000830184610740565b92915050565b6000602082840312156107805761077f6103a7565b5b600082013567ffffffffffffffff81111561079e5761079d6103ac565b5b6107aa8482850161068e565b91505092915050565b60006080820190506107c86000830187610373565b6107d560208301866105d5565b6107e26040830185610373565b6107ef6060830184610373565b95945050505050565b600081519050919050565b600081905092915050565b60005b8381101561082c578082015181840152602081019050610811565b60008484015250505050565b6000610843826107f8565b61084d8185610803565b935061085d81856020860161080e565b80840191505092915050565b60006108758284610838565b91508190509291505056fea26469706673582212204028b7a9cbe37103477902c132d31701ba5086ffb74204f007844354002a475464736f6c63430008110033",
					"opcodes": "PUSH1 0x80 PUSH1 0x40 MSTORE CALLVALUE DUP1 ISZERO PUSH2 0x10 JUMPI PUSH1 0x0 DUP1 REVERT JUMPDEST POP PUSH1 0x40 MLOAD PUSH2 0x9CD CODESIZE SUB DUP1 PUSH2 0x9CD DUP4 CODECOPY DUP2 DUP2 ADD PUSH1 0x40 MSTORE DUP2 ADD SWAP1 PUSH2 0x32 SWAP2 SWAP1 PUSH2 0xDB JUMP JUMPDEST DUP1 PUSH1 0x0 DUP1 PUSH2 0x100 EXP DUP2 SLOAD DUP2 PUSH20 0xFFFFFFFFFFFFFFFFFFFFFFFFFFFFFFFFFFFFFFFF MUL NOT AND SWAP1 DUP4 PUSH20 0xFFFFFFFFFFFFFFFFFFFFFFFFFFFFFFFFFFFFFFFF AND MUL OR SWAP1 SSTORE POP POP PUSH2 0x108 JUMP JUMPDEST PUSH1 0x0 DUP1 REVERT JUMPDEST PUSH1 0x0 PUSH20 0xFFFFFFFFFFFFFFFFFFFFFFFFFFFFFFFFFFFFFFFF DUP3 AND SWAP1 POP SWAP2 SWAP1 POP JUMP JUMPDEST PUSH1 0x0 PUSH2 0xA8 DUP3 PUSH2 0x7D JUMP JUMPDEST SWAP1 POP SWAP2 SWAP1 POP JUMP JUMPDEST PUSH2 0xB8 DUP2 PUSH2 0x9D JUMP JUMPDEST DUP2 EQ PUSH2 0xC3 JUMPI PUSH1 0x0 DUP1 REVERT JUMPDEST POP JUMP JUMPDEST PUSH1 0x0 DUP2 MLOAD SWAP1 POP PUSH2 0xD5 DUP2 PUSH2 0xAF JUMP JUMPDEST SWAP3 SWAP2 POP POP JUMP JUMPDEST PUSH1 0x0 PUSH1 0x20 DUP3 DUP5 SUB SLT ISZERO PUSH2 0xF1 JUMPI PUSH2 0xF0 PUSH2 0x78 JUMP JUMPDEST JUMPDEST PUSH1 0x0 PUSH2 0xFF DUP5 DUP3 DUP6 ADD PUSH2 0xC6 JUMP JUMPDEST SWAP2 POP POP SWAP3 SWAP2 POP POP JUMP JUMPDEST PUSH2 0x8B6 DUP1 PUSH2 0x117 PUSH1 0x0 CODECOPY PUSH1 0x0 RETURN INVALID PUSH1 0x80 PUSH1 0x40 MSTORE CALLVALUE DUP1 ISZERO PUSH2 0x10 JUMPI PUSH1 0x0 DUP1 REVERT JUMPDEST POP PUSH1 0x4 CALLDATASIZE LT PUSH2 0x62 JUMPI PUSH1 0x0 CALLDATALOAD PUSH1 0xE0 SHR DUP1 PUSH4 0x1398B444 EQ PUSH2 0x67 JUMPI DUP1 PUSH4 0x71524B93 EQ PUSH2 0x85 JUMPI DUP1 PUSH4 0x97ABA7F9 EQ PUSH2 0xA3 JUMPI DUP1 PUSH4 0xA7BB5803 EQ PUSH2 0xD3 JUMPI DUP1 PUSH4 0xADB41F75 EQ PUSH2 0x105 JUMPI DUP1 PUSH4 0xB4604750 EQ PUSH2 0x135 JUMPI JUMPDEST PUSH1 0x0 DUP1 REVERT JUMPDEST PUSH2 0x6F PUSH2 0x165 JUMP JUMPDEST PUSH1 0x40 MLOAD PUSH2 0x7C SWAP2 SWAP1 PUSH2 0x34E JUMP JUMPDEST PUSH1 0x40 MLOAD DUP1 SWAP2 SUB SWAP1 RETURN JUMPDEST PUSH2 0x8D PUSH2 0x189 JUMP JUMPDEST PUSH1 0x40 MLOAD PUSH2 0x9A SWAP2 SWAP1 PUSH2 0x382 JUMP JUMPDEST PUSH1 0x40 MLOAD DUP1 SWAP2 SUB SWAP1 RETURN JUMPDEST PUSH2 0xBD PUSH1 0x4 DUP1 CALLDATASIZE SUB DUP2 ADD SWAP1 PUSH2 0xB8 SWAP2 SWAP1 PUSH2 0x523 JUMP JUMPDEST PUSH2 0x18F JUMP JUMPDEST PUSH1 0x40 MLOAD PUSH2 0xCA SWAP2 SWAP1 PUSH2 0x34E JUMP JUMPDEST PUSH1 0x40 MLOAD DUP1 SWAP2 SUB SWAP1 RETURN JUMPDEST PUSH2 0xED PUSH1 0x4 DUP1 CALLDATASIZE SUB DUP2 ADD SWAP1 PUSH2 0xE8 SWAP2 SWAP1 PUSH2 0x57F JUMP JUMPDEST PUSH2 0x204 JUMP JUMPDEST PUSH1 0x40 MLOAD PUSH2 0xFC SWAP4 SWAP3 SWAP2 SWAP1 PUSH2 0x5E4 JUMP JUMPDEST PUSH1 0x40 MLOAD DUP1 SWAP2 SUB SWAP1 RETURN JUMPDEST PUSH2 0x11F PUSH1 0x4 DUP1 CALLDATASIZE SUB DUP2 ADD SWAP1 PUSH2 0x11A SWAP2 SWAP1 PUSH2 0x6BC JUMP JUMPDEST PUSH2 0x247 JUMP JUMPDEST PUSH1 0x40 MLOAD PUSH2 0x12C SWAP2 SWAP1 PUSH2 0x74F JUMP JUMPDEST PUSH1 0x40 MLOAD DUP1 SWAP2 SUB SWAP1 RETURN JUMPDEST PUSH2 0x14F PUSH1 0x4 DUP1 CALLDATASIZE SUB DUP2 ADD SWAP1 PUSH2 0x14A SWAP2 SWAP1 PUSH2 0x76A JUMP JUMPDEST PUSH2 0x2D4 JUMP JUMPDEST PUSH1 0x40 MLOAD PUSH2 0x15C SWAP2 SWAP1 PUSH2 0x382 JUMP JUMPDEST PUSH1 0x40 MLOAD DUP1 SWAP2 SUB SWAP1 RETURN JUMPDEST PUSH1 0x0 DUP1 SLOAD SWAP1 PUSH2 0x100 EXP SWAP1 DIV PUSH20 0xFFFFFFFFFFFFFFFFFFFFFFFFFFFFFFFFFFFFFFFF AND DUP2 JUMP JUMPDEST PUSH1 0x1 SLOAD DUP2 JUMP JUMPDEST PUSH1 0x0 DUP1 PUSH1 0x0 DUP1 PUSH2 0x19E DUP6 PUSH2 0x204 JUMP JUMPDEST DUP1 SWAP4 POP DUP2 SWAP5 POP DUP3 SWAP6 POP POP POP POP PUSH1 0x1 DUP7 DUP5 DUP5 DUP5 PUSH1 0x40 MLOAD PUSH1 0x0 DUP2 MSTORE PUSH1 0x20 ADD PUSH1 0x40 MSTORE PUSH1 0x40 MLOAD PUSH2 0x1CD SWAP5 SWAP4 SWAP3 SWAP2 SWAP1 PUSH2 0x7B3 JUMP JUMPDEST PUSH1 0x20 PUSH1 0x40 MLOAD PUSH1 0x20 DUP2 SUB SWAP1 DUP1 DUP5 SUB SWAP1 DUP6 GAS STATICCALL ISZERO DUP1 ISZERO PUSH2 0x1EF JUMPI RETURNDATASIZE PUSH1 0x0 DUP1 RETURNDATACOPY RETURNDATASIZE PUSH1 0x0 REVERT JUMPDEST POP POP POP PUSH1 0x20 PUSH1 0x40 MLOAD SUB MLOAD SWAP4 POP POP POP POP SWAP3 SWAP2 POP POP JUMP JUMPDEST PUSH1 0x0 DUP1 PUSH1 0x0 PUSH1 0x41 DUP5 MLOAD EQ PUSH2 0x217 JUMPI PUSH1 0x0 DUP1 REVERT JUMPDEST PUSH1 0x0 DUP1 PUSH1 0x0 PUSH1 0x20 DUP8 ADD MLOAD SWAP3 POP PUSH1 0x40 DUP8 ADD MLOAD SWAP2 POP PUSH1 0x60 DUP8 ADD MLOAD PUSH1 0x0 BYTE SWAP1 POP DUP1 DUP4 DUP4 SWAP6 POP SWAP6 POP SWAP6 POP POP POP POP SWAP2 SWAP4 SWAP1 SWAP3 POP JUMP JUMPDEST PUSH1 0x0 DUP1 DUP4 PUSH1 0x40 MLOAD PUSH1 0x20 ADD PUSH2 0x25B SWAP2 SWAP1 PUSH2 0x869 JUMP JUMPDEST PUSH1 0x40 MLOAD PUSH1 0x20 DUP2 DUP4 SUB SUB DUP2 MSTORE SWAP1 PUSH1 0x40 MSTORE DUP1 MLOAD SWAP1 PUSH1 0x20 ADD KECCAK256 SWAP1 POP PUSH1 0x0 DUP1 SLOAD SWAP1 PUSH2 0x100 EXP SWAP1 DIV PUSH20 0xFFFFFFFFFFFFFFFFFFFFFFFFFFFFFFFFFFFFFFFF AND PUSH20 0xFFFFFFFFFFFFFFFFFFFFFFFFFFFFFFFFFFFFFFFF AND PUSH2 0x2B4 DUP3 DUP6 PUSH2 0x18F JUMP JUMPDEST PUSH20 0xFFFFFFFFFFFFFFFFFFFFFFFFFFFFFFFFFFFFFFFF AND EQ SWAP2 POP POP SWAP3 SWAP2 POP POP JUMP JUMPDEST PUSH1 0x0 DUP2 PUSH1 0x40 MLOAD PUSH1 0x20 ADD PUSH2 0x2E7 SWAP2 SWAP1 PUSH2 0x869 JUMP JUMPDEST PUSH1 0x40 MLOAD PUSH1 0x20 DUP2 DUP4 SUB SUB DUP2 MSTORE SWAP1 PUSH1 0x40 MSTORE DUP1 MLOAD SWAP1 PUSH1 0x20 ADD KECCAK256 PUSH1 0x1 DUP2 SWAP1 SSTORE POP PUSH1 0x1 SLOAD SWAP1 POP SWAP2 SWAP1 POP JUMP JUMPDEST PUSH1 0x0 PUSH20 0xFFFFFFFFFFFFFFFFFFFFFFFFFFFFFFFFFFFFFFFF DUP3 AND SWAP1 POP SWAP2 SWAP1 POP JUMP JUMPDEST PUSH1 0x0 PUSH2 0x338 DUP3 PUSH2 0x30D JUMP JUMPDEST SWAP1 POP SWAP2 SWAP1 POP JUMP JUMPDEST PUSH2 0x348 DUP2 PUSH2 0x32D JUMP JUMPDEST DUP3 MSTORE POP POP JUMP JUMPDEST PUSH1 0x0 PUSH1 0x20 DUP3 ADD SWAP1 POP PUSH2 0x363 PUSH1 0x0 DUP4 ADD DUP5 PUSH2 0x33F JUMP JUMPDEST SWAP3 SWAP2 POP POP JUMP JUMPDEST PUSH1 0x0 DUP2 SWAP1 POP SWAP2 SWAP1 POP JUMP JUMPDEST PUSH2 0x37C DUP2 PUSH2 0x369 JUMP JUMPDEST DUP3 MSTORE POP POP JUMP JUMPDEST PUSH1 0x0 PUSH1 0x20 DUP3 ADD SWAP1 POP PUSH2 0x397 PUSH1 0x0 DUP4 ADD DUP5 PUSH2 0x373 JUMP JUMPDEST SWAP3 SWAP2 POP POP JUMP JUMPDEST PUSH1 0x0 PUSH1 0x40 MLOAD SWAP1 POP SWAP1 JUMP JUMPDEST PUSH1 0x0 DUP1 REVERT JUMPDEST PUSH1 0x0 DUP1 REVERT JUMPDEST PUSH2 0x3BA DUP2 PUSH2 0x369 JUMP JUMPDEST DUP2 EQ PUSH2 0x3C5 JUMPI PUSH1 0x0 DUP1 REVERT JUMPDEST POP JUMP JUMPDEST PUSH1 0x0 DUP2 CALLDATALOAD SWAP1 POP PUSH2 0x3D7 DUP2 PUSH2 0x3B1 JUMP JUMPDEST SWAP3 SWAP2 POP POP JUMP JUMPDEST PUSH1 0x0 DUP1 REVERT JUMPDEST PUSH1 0x0 DUP1 REVERT JUMPDEST PUSH1 0x0 PUSH1 0x1F NOT PUSH1 0x1F DUP4 ADD AND SWAP1 POP SWAP2 SWAP1 POP JUMP JUMPDEST PUSH32 0x4E487B7100000000000000000000000000000000000000000000000000000000 PUSH1 0x0 MSTORE PUSH1 0x41 PUSH1 0x4 MSTORE PUSH1 0x24 PUSH1 0x0 REVERT JUMPDEST PUSH2 0x430 DUP3 PUSH2 0x3E7 JUMP JUMPDEST DUP2 ADD DUP2 DUP2 LT PUSH8 0xFFFFFFFFFFFFFFFF DUP3 GT OR ISZERO PUSH2 0x44F JUMPI PUSH2 0x44E PUSH2 0x3F8 JUMP JUMPDEST JUMPDEST DUP1 PUSH1 0x40 MSTORE POP POP POP JUMP JUMPDEST PUSH1 0x0 PUSH2 0x462 PUSH2 0x39D JUMP JUMPDEST SWAP1 POP PUSH2 0x46E DUP3 DUP3 PUSH2 0x427 JUMP JUMPDEST SWAP2 SWAP1 POP JUMP JUMPDEST PUSH1 0x0 PUSH8 0xFFFFFFFFFFFFFFFF DUP3 GT ISZERO PUSH2 0x48E JUMPI PUSH2 0x48D PUSH2 0x3F8 JUMP JUMPDEST JUMPDEST PUSH2 0x497 DUP3 PUSH2 0x3E7 JUMP JUMPDEST SWAP1 POP PUSH1 0x20 DUP2 ADD SWAP1 POP SWAP2 SWAP1 POP JUMP JUMPDEST DUP3 DUP2 DUP4 CALLDATACOPY PUSH1 0x0 DUP4 DUP4 ADD MSTORE POP POP POP JUMP JUMPDEST PUSH1 0x0 PUSH2 0x4C6 PUSH2 0x4C1 DUP5 PUSH2 0x473 JUMP JUMPDEST PUSH2 0x458 JUMP JUMPDEST SWAP1 POP DUP3 DUP2 MSTORE PUSH1 0x20 DUP2 ADD DUP5 DUP5 DUP5 ADD GT ISZERO PUSH2 0x4E2 JUMPI PUSH2 0x4E1 PUSH2 0x3E2 JUMP JUMPDEST JUMPDEST PUSH2 0x4ED DUP5 DUP3 DUP6 PUSH2 0x4A4 JUMP JUMPDEST POP SWAP4 SWAP3 POP POP POP JUMP JUMPDEST PUSH1 0x0 DUP3 PUSH1 0x1F DUP4 ADD SLT PUSH2 0x50A JUMPI PUSH2 0x509 PUSH2 0x3DD JUMP JUMPDEST JUMPDEST DUP2 CALLDATALOAD PUSH2 0x51A DUP5 DUP3 PUSH1 0x20 DUP7 ADD PUSH2 0x4B3 JUMP JUMPDEST SWAP2 POP POP SWAP3 SWAP2 POP POP JUMP JUMPDEST PUSH1 0x0 DUP1 PUSH1 0x40 DUP4 DUP6 SUB SLT ISZERO PUSH2 0x53A JUMPI PUSH2 0x539 PUSH2 0x3A7 JUMP JUMPDEST JUMPDEST PUSH1 0x0 PUSH2 0x548 DUP6 DUP3 DUP7 ADD PUSH2 0x3C8 JUMP JUMPDEST SWAP3 POP POP PUSH1 0x20 DUP4 ADD CALLDATALOAD PUSH8 0xFFFFFFFFFFFFFFFF DUP2 GT ISZERO PUSH2 0x569 JUMPI PUSH2 0x568 PUSH2 0x3AC JUMP JUMPDEST JUMPDEST PUSH2 0x575 DUP6 DUP3 DUP7 ADD PUSH2 0x4F5 JUMP JUMPDEST SWAP2 POP POP SWAP3 POP SWAP3 SWAP1 POP JUMP JUMPDEST PUSH1 0x0 PUSH1 0x20 DUP3 DUP5 SUB SLT ISZERO PUSH2 0x595 JUMPI PUSH2 0x594 PUSH2 0x3A7 JUMP JUMPDEST JUMPDEST PUSH1 0x0 DUP3 ADD CALLDATALOAD PUSH8 0xFFFFFFFFFFFFFFFF DUP2 GT ISZERO PUSH2 0x5B3 JUMPI PUSH2 0x5B2 PUSH2 0x3AC JUMP JUMPDEST JUMPDEST PUSH2 0x5BF DUP5 DUP3 DUP6 ADD PUSH2 0x4F5 JUMP JUMPDEST SWAP2 POP POP SWAP3 SWAP2 POP POP JUMP JUMPDEST PUSH1 0x0 PUSH1 0xFF DUP3 AND SWAP1 POP SWAP2 SWAP1 POP JUMP JUMPDEST PUSH2 0x5DE DUP2 PUSH2 0x5C8 JUMP JUMPDEST DUP3 MSTORE POP POP JUMP JUMPDEST PUSH1 0x0 PUSH1 0x60 DUP3 ADD SWAP1 POP PUSH2 0x5F9 PUSH1 0x0 DUP4 ADD DUP7 PUSH2 0x5D5 JUMP JUMPDEST PUSH2 0x606 PUSH1 0x20 DUP4 ADD DUP6 PUSH2 0x373 JUMP JUMPDEST PUSH2 0x613 PUSH1 0x40 DUP4 ADD DUP5 PUSH2 0x373 JUMP JUMPDEST SWAP5 SWAP4 POP POP POP POP JUMP JUMPDEST PUSH1 0x0 PUSH8 0xFFFFFFFFFFFFFFFF DUP3 GT ISZERO PUSH2 0x636 JUMPI PUSH2 0x635 PUSH2 0x3F8 JUMP JUMPDEST JUMPDEST PUSH2 0x63F DUP3 PUSH2 0x3E7 JUMP JUMPDEST SWAP1 POP PUSH1 0x20 DUP2 ADD SWAP1 POP SWAP2 SWAP1 POP JUMP JUMPDEST PUSH1 0x0 PUSH2 0x65F PUSH2 0x65A DUP5 PUSH2 0x61B JUMP JUMPDEST PUSH2 0x458 JUMP JUMPDEST SWAP1 POP DUP3 DUP2 MSTORE PUSH1 0x20 DUP2 ADD DUP5 DUP5 DUP5 ADD GT ISZERO PUSH2 0x67B JUMPI PUSH2 0x67A PUSH2 0x3E2 JUMP JUMPDEST JUMPDEST PUSH2 0x686 DUP5 DUP3 DUP6 PUSH2 0x4A4 JUMP JUMPDEST POP SWAP4 SWAP3 POP POP POP JUMP JUMPDEST PUSH1 0x0 DUP3 PUSH1 0x1F DUP4 ADD SLT PUSH2 0x6A3 JUMPI PUSH2 0x6A2 PUSH2 0x3DD JUMP JUMPDEST JUMPDEST DUP2 CALLDATALOAD PUSH2 0x6B3 DUP5 DUP3 PUSH1 0x20 DUP7 ADD PUSH2 0x64C JUMP JUMPDEST SWAP2 POP POP SWAP3 SWAP2 POP POP JUMP JUMPDEST PUSH1 0x0 DUP1 PUSH1 0x40 DUP4 DUP6 SUB SLT ISZERO PUSH2 0x6D3 JUMPI PUSH2 0x6D2 PUSH2 0x3A7 JUMP JUMPDEST JUMPDEST PUSH1 0x0 DUP4 ADD CALLDATALOAD PUSH8 0xFFFFFFFFFFFFFFFF DUP2 GT ISZERO PUSH2 0x6F1 JUMPI PUSH2 0x6F0 PUSH2 0x3AC JUMP JUMPDEST JUMPDEST PUSH2 0x6FD DUP6 DUP3 DUP7 ADD PUSH2 0x68E JUMP JUMPDEST SWAP3 POP POP PUSH1 0x20 DUP4 ADD CALLDATALOAD PUSH8 0xFFFFFFFFFFFFFFFF DUP2 GT ISZERO PUSH2 0x71E JUMPI PUSH2 0x71D PUSH2 0x3AC JUMP JUMPDEST JUMPDEST PUSH2 0x72A DUP6 DUP3 DUP7 ADD PUSH2 0x4F5 JUMP JUMPDEST SWAP2 POP POP SWAP3 POP SWAP3 SWAP1 POP JUMP JUMPDEST PUSH1 0x0 DUP2 ISZERO ISZERO SWAP1 POP SWAP2 SWAP1 POP JUMP JUMPDEST PUSH2 0x749 DUP2 PUSH2 0x734 JUMP JUMPDEST DUP3 MSTORE POP POP JUMP JUMPDEST PUSH1 0x0 PUSH1 0x20 DUP3 ADD SWAP1 POP PUSH2 0x764 PUSH1 0x0 DUP4 ADD DUP5 PUSH2 0x740 JUMP JUMPDEST SWAP3 SWAP2 POP POP JUMP JUMPDEST PUSH1 0x0 PUSH1 0x20 DUP3 DUP5 SUB SLT ISZERO PUSH2 0x780 JUMPI PUSH2 0x77F PUSH2 0x3A7 JUMP JUMPDEST JUMPDEST PUSH1 0x0 DUP3 ADD CALLDATALOAD PUSH8 0xFFFFFFFFFFFFFFFF DUP2 GT ISZERO PUSH2 0x79E JUMPI PUSH2 0x79D PUSH2 0x3AC JUMP JUMPDEST JUMPDEST PUSH2 0x7AA DUP5 DUP3 DUP6 ADD PUSH2 0x68E JUMP JUMPDEST SWAP2 POP POP SWAP3 SWAP2 POP POP JUMP JUMPDEST PUSH1 0x0 PUSH1 0x80 DUP3 ADD SWAP1 POP PUSH2 0x7C8 PUSH1 0x0 DUP4 ADD DUP8 PUSH2 0x373 JUMP JUMPDEST PUSH2 0x7D5 PUSH1 0x20 DUP4 ADD DUP7 PUSH2 0x5D5 JUMP JUMPDEST PUSH2 0x7E2 PUSH1 0x40 DUP4 ADD DUP6 PUSH2 0x373 JUMP JUMPDEST PUSH2 0x7EF PUSH1 0x60 DUP4 ADD DUP5 PUSH2 0x373 JUMP JUMPDEST SWAP6 SWAP5 POP POP POP POP POP JUMP JUMPDEST PUSH1 0x0 DUP2 MLOAD SWAP1 POP SWAP2 SWAP1 POP JUMP JUMPDEST PUSH1 0x0 DUP2 SWAP1 POP SWAP3 SWAP2 POP POP JUMP JUMPDEST PUSH1 0x0 JUMPDEST DUP4 DUP2 LT ISZERO PUSH2 0x82C JUMPI DUP1 DUP3 ADD MLOAD DUP2 DUP5 ADD MSTORE PUSH1 0x20 DUP2 ADD SWAP1 POP PUSH2 0x811 JUMP JUMPDEST PUSH1 0x0 DUP5 DUP5 ADD MSTORE POP POP POP POP JUMP JUMPDEST PUSH1 0x0 PUSH2 0x843 DUP3 PUSH2 0x7F8 JUMP JUMPDEST PUSH2 0x84D DUP2 DUP6 PUSH2 0x803 JUMP JUMPDEST SWAP4 POP PUSH2 0x85D DUP2 DUP6 PUSH1 0x20 DUP7 ADD PUSH2 0x80E JUMP JUMPDEST DUP1 DUP5 ADD SWAP2 POP POP SWAP3 SWAP2 POP POP JUMP JUMPDEST PUSH1 0x0 PUSH2 0x875 DUP3 DUP5 PUSH2 0x838 JUMP JUMPDEST SWAP2 POP DUP2 SWAP1 POP SWAP3 SWAP2 POP POP JUMP INVALID LOG2 PUSH5 0x6970667358 0x22 SLT KECCAK256 BLOCKHASH 0x28 0xB7 0xA9 0xCB 0xE3 PUSH18 0x3477902C132D31701BA5086FFB74204F007 DUP5 NUMBER SLOAD STOP 0x2A SELFBALANCE SLOAD PUSH5 0x736F6C6343 STOP ADDMOD GT STOP CALLER "
				},
				"gasEstimates": {
					"creation": {
						"codeDepositCost": "446000",
						"executionCost": "infinite",
						"totalCost": "infinite"
					},
					"external": {
						"importantAddress()": "2489",
						"isValidData(string,bytes)": "infinite",
						"messg()": "2429",
						"msgR(string)": "infinite",
						"recoverSigner(bytes32,bytes)": "infinite",
						"splitSignature(bytes)": "infinite"
					}
				},
				"methodIdentifiers": {
					"importantAddress()": "1398b444",
					"isValidData(string,bytes)": "adb41f75",
					"messg()": "71524b93",
					"msgR(string)": "b4604750",
					"recoverSigner(bytes32,bytes)": "97aba7f9",
					"splitSignature(bytes)": "a7bb5803"
				}
			},
			"storageLayout": {
				"storage": [
					{
						"astId": 3,
						"contract": "contract-442812f524.sol:Verify",
						"label": "importantAddress",
						"offset": 0,
						"slot": "0",
						"type": "t_address"
					},
					{
						"astId": 5,
						"contract": "contract-442812f524.sol:Verify",
						"label": "messg",
						"offset": 0,
						"slot": "1",
						"type": "t_bytes32"
					}
				],
				"types": {
					"t_address": {
						"encoding": "inplace",
						"label": "address",
						"numberOfBytes": "20"
					},
					"t_bytes32": {
						"encoding": "inplace",
						"label": "bytes32",
						"numberOfBytes": "32"
					}
				}
			},
			"userdoc": {
				"kind": "user",
				"methods": {},
				"version": 1
			}
		}
	}
}