{
	"feg.sol": {
		"FEG": {
			"abi": [
				{
					"inputs": [],
					"stateMutability": "nonpayable",
					"type": "constructor"
				},
				{
					"anonymous": false,
					"inputs": [
						{
							"indexed": true,
							"internalType": "address",
							"name": "owner",
							"type": "address"
						},
						{
							"indexed": true,
							"internalType": "address",
							"name": "spender",
							"type": "address"
						},
						{
							"indexed": false,
							"internalType": "uint256",
							"name": "value",
							"type": "uint256"
						}
					],
					"name": "Approval",
					"type": "event"
				},
				{
					"anonymous": false,
					"inputs": [
						{
							"indexed": true,
							"internalType": "address",
							"name": "previousOwner",
							"type": "address"
						},
						{
							"indexed": true,
							"internalType": "address",
							"name": "newOwner",
							"type": "address"
						}
					],
					"name": "OwnershipTransferred",
					"type": "event"
				},
				{
					"anonymous": false,
					"inputs": [
						{
							"indexed": true,
							"internalType": "address",
							"name": "from",
							"type": "address"
						},
						{
							"indexed": true,
							"internalType": "address",
							"name": "to",
							"type": "address"
						},
						{
							"indexed": false,
							"internalType": "uint256",
							"name": "value",
							"type": "uint256"
						}
					],
					"name": "Transfer",
					"type": "event"
				},
				{
					"inputs": [],
					"name": "MAX",
					"outputs": [
						{
							"internalType": "uint256",
							"name": "",
							"type": "uint256"
						}
					],
					"stateMutability": "view",
					"type": "function"
				},
				{
					"inputs": [
						{
							"internalType": "address",
							"name": "",
							"type": "address"
						},
						{
							"internalType": "address",
							"name": "",
							"type": "address"
						}
					],
					"name": "_allowances",
					"outputs": [
						{
							"internalType": "uint256",
							"name": "",
							"type": "uint256"
						}
					],
					"stateMutability": "view",
					"type": "function"
				},
				{
					"inputs": [
						{
							"internalType": "uint256",
							"name": "",
							"type": "uint256"
						}
					],
					"name": "_excluded",
					"outputs": [
						{
							"internalType": "address",
							"name": "",
							"type": "address"
						}
					],
					"stateMutability": "view",
					"type": "function"
				},
				{
					"inputs": [
						{
							"internalType": "address",
							"name": "",
							"type": "address"
						}
					],
					"name": "_isExcluded",
					"outputs": [
						{
							"internalType": "bool",
							"name": "",
							"type": "bool"
						}
					],
					"stateMutability": "view",
					"type": "function"
				},
				{
					"inputs": [
						{
							"internalType": "address",
							"name": "",
							"type": "address"
						}
					],
					"name": "_rOwned",
					"outputs": [
						{
							"internalType": "uint256",
							"name": "",
							"type": "uint256"
						}
					],
					"stateMutability": "view",
					"type": "function"
				},
				{
					"inputs": [],
					"name": "_rTotal",
					"outputs": [
						{
							"internalType": "uint256",
							"name": "",
							"type": "uint256"
						}
					],
					"stateMutability": "view",
					"type": "function"
				},
				{
					"inputs": [],
					"name": "_tFeeTotal",
					"outputs": [
						{
							"internalType": "uint256",
							"name": "",
							"type": "uint256"
						}
					],
					"stateMutability": "view",
					"type": "function"
				},
				{
					"inputs": [
						{
							"internalType": "address",
							"name": "",
							"type": "address"
						}
					],
					"name": "_tOwned",
					"outputs": [
						{
							"internalType": "uint256",
							"name": "",
							"type": "uint256"
						}
					],
					"stateMutability": "view",
					"type": "function"
				},
				{
					"inputs": [],
					"name": "_tTotal",
					"outputs": [
						{
							"internalType": "uint256",
							"name": "",
							"type": "uint256"
						}
					],
					"stateMutability": "view",
					"type": "function"
				},
				{
					"inputs": [
						{
							"internalType": "address",
							"name": "owner",
							"type": "address"
						},
						{
							"internalType": "address",
							"name": "spender",
							"type": "address"
						}
					],
					"name": "allowance",
					"outputs": [
						{
							"internalType": "uint256",
							"name": "",
							"type": "uint256"
						}
					],
					"stateMutability": "view",
					"type": "function"
				},
				{
					"inputs": [
						{
							"internalType": "address",
							"name": "spender",
							"type": "address"
						},
						{
							"internalType": "uint256",
							"name": "amount",
							"type": "uint256"
						}
					],
					"name": "approve",
					"outputs": [
						{
							"internalType": "bool",
							"name": "",
							"type": "bool"
						}
					],
					"stateMutability": "nonpayable",
					"type": "function"
				},
				{
					"inputs": [
						{
							"internalType": "address",
							"name": "account",
							"type": "address"
						}
					],
					"name": "balanceOf",
					"outputs": [
						{
							"internalType": "uint256",
							"name": "",
							"type": "uint256"
						}
					],
					"stateMutability": "view",
					"type": "function"
				},
				{
					"inputs": [],
					"name": "decimals",
					"outputs": [
						{
							"internalType": "uint8",
							"name": "",
							"type": "uint8"
						}
					],
					"stateMutability": "view",
					"type": "function"
				},
				{
					"inputs": [
						{
							"internalType": "address",
							"name": "spender",
							"type": "address"
						},
						{
							"internalType": "uint256",
							"name": "subtractedValue",
							"type": "uint256"
						}
					],
					"name": "decreaseAllowance",
					"outputs": [
						{
							"internalType": "bool",
							"name": "",
							"type": "bool"
						}
					],
					"stateMutability": "nonpayable",
					"type": "function"
				},
				{
					"inputs": [
						{
							"internalType": "address",
							"name": "account",
							"type": "address"
						}
					],
					"name": "excludeAccount",
					"outputs": [],
					"stateMutability": "nonpayable",
					"type": "function"
				},
				{
					"inputs": [
						{
							"internalType": "address",
							"name": "account",
							"type": "address"
						}
					],
					"name": "includeAccount",
					"outputs": [],
					"stateMutability": "nonpayable",
					"type": "function"
				},
				{
					"inputs": [
						{
							"internalType": "address",
							"name": "spender",
							"type": "address"
						},
						{
							"internalType": "uint256",
							"name": "addedValue",
							"type": "uint256"
						}
					],
					"name": "increaseAllowance",
					"outputs": [
						{
							"internalType": "bool",
							"name": "",
							"type": "bool"
						}
					],
					"stateMutability": "nonpayable",
					"type": "function"
				},
				{
					"inputs": [
						{
							"internalType": "address",
							"name": "account",
							"type": "address"
						}
					],
					"name": "isExcluded",
					"outputs": [
						{
							"internalType": "bool",
							"name": "",
							"type": "bool"
						}
					],
					"stateMutability": "view",
					"type": "function"
				},
				{
					"inputs": [],
					"name": "name",
					"outputs": [
						{
							"internalType": "string",
							"name": "",
							"type": "string"
						}
					],
					"stateMutability": "view",
					"type": "function"
				},
				{
					"inputs": [],
					"name": "owner",
					"outputs": [
						{
							"internalType": "address",
							"name": "",
							"type": "address"
						}
					],
					"stateMutability": "view",
					"type": "function"
				},
				{
					"inputs": [
						{
							"internalType": "uint256",
							"name": "tAmount",
							"type": "uint256"
						}
					],
					"name": "reflect",
					"outputs": [],
					"stateMutability": "nonpayable",
					"type": "function"
				},
				{
					"inputs": [
						{
							"internalType": "uint256",
							"name": "tAmount",
							"type": "uint256"
						},
						{
							"internalType": "bool",
							"name": "deductTransferFee",
							"type": "bool"
						}
					],
					"name": "reflectionFromToken",
					"outputs": [
						{
							"internalType": "uint256",
							"name": "",
							"type": "uint256"
						}
					],
					"stateMutability": "view",
					"type": "function"
				},
				{
					"inputs": [],
					"name": "renounceOwnership",
					"outputs": [],
					"stateMutability": "nonpayable",
					"type": "function"
				},
				{
					"inputs": [],
					"name": "symbol",
					"outputs": [
						{
							"internalType": "string",
							"name": "",
							"type": "string"
						}
					],
					"stateMutability": "view",
					"type": "function"
				},
				{
					"inputs": [
						{
							"internalType": "uint256",
							"name": "rAmount",
							"type": "uint256"
						}
					],
					"name": "tokenFromReflection",
					"outputs": [
						{
							"internalType": "uint256",
							"name": "",
							"type": "uint256"
						}
					],
					"stateMutability": "view",
					"type": "function"
				},
				{
					"inputs": [],
					"name": "totalFees",
					"outputs": [
						{
							"internalType": "uint256",
							"name": "",
							"type": "uint256"
						}
					],
					"stateMutability": "view",
					"type": "function"
				},
				{
					"inputs": [],
					"name": "totalSupply",
					"outputs": [
						{
							"internalType": "uint256",
							"name": "",
							"type": "uint256"
						}
					],
					"stateMutability": "view",
					"type": "function"
				},
				{
					"inputs": [
						{
							"internalType": "address",
							"name": "recipient",
							"type": "address"
						},
						{
							"internalType": "uint256",
							"name": "amount",
							"type": "uint256"
						}
					],
					"name": "transfer",
					"outputs": [
						{
							"internalType": "bool",
							"name": "",
							"type": "bool"
						}
					],
					"stateMutability": "nonpayable",
					"type": "function"
				},
				{
					"inputs": [
						{
							"internalType": "address",
							"name": "sender",
							"type": "address"
						},
						{
							"internalType": "address",
							"name": "recipient",
							"type": "address"
						},
						{
							"internalType": "uint256",
							"name": "amount",
							"type": "uint256"
						}
					],
					"name": "transferFrom",
					"outputs": [
						{
							"internalType": "bool",
							"name": "",
							"type": "bool"
						}
					],
					"stateMutability": "nonpayable",
					"type": "function"
				},
				{
					"inputs": [
						{
							"internalType": "address",
							"name": "newOwner",
							"type": "address"
						}
					],
					"name": "transferOwnership",
					"outputs": [],
					"stateMutability": "nonpayable",
					"type": "function"
				}
			],
			"devdoc": {
				"kind": "dev",
				"methods": {
					"allowance(address,address)": {
						"details": "Returns the remaining number of tokens that `spender` will be allowed to spend on behalf of `owner` through {transferFrom}. This is zero by default. This value changes when {approve} or {transferFrom} are called."
					},
					"approve(address,uint256)": {
						"details": "Sets `amount` as the allowance of `spender` over the caller's tokens. Returns a boolean value indicating whether the operation succeeded. IMPORTANT: Beware that changing an allowance with this method brings the risk that someone may use both the old and the new allowance by unfortunate transaction ordering. One possible solution to mitigate this race condition is to first reduce the spender's allowance to 0 and set the desired value afterwards: https://github.com/ethereum/EIPs/issues/20#issuecomment-263524729 Emits an {Approval} event."
					},
					"balanceOf(address)": {
						"details": "Returns the amount of tokens owned by `account`."
					},
					"owner()": {
						"details": "Returns the address of the current owner."
					},
					"renounceOwnership()": {
						"details": "Leaves the contract without owner. It will not be possible to call `onlyOwner` functions anymore. Can only be called by the current owner. NOTE: Renouncing ownership will leave the contract without an owner, thereby removing any functionality that is only available to the owner."
					},
					"totalSupply()": {
						"details": "Returns the amount of tokens in existence."
					},
					"transfer(address,uint256)": {
						"details": "Moves `amount` tokens from the caller's account to `recipient`. Returns a boolean value indicating whether the operation succeeded. Emits a {Transfer} event."
					},
					"transferFrom(address,address,uint256)": {
						"details": "Moves `amount` tokens from `sender` to `recipient` using the allowance mechanism. `amount` is then deducted from the caller's allowance. Returns a boolean value indicating whether the operation succeeded. Emits a {Transfer} event."
					},
					"transferOwnership(address)": {
						"details": "Transfers ownership of the contract to a new account (`newOwner`). Can only be called by the current owner."
					}
				},
				"version": 1
			},
			"evm": {
				"assembly": "    /* \"feg.sol\":15540:25456  contract FEG is Context, IERC20, Ownable {... */\n  mstore(0x40, 0x80)\n    /* \"feg.sol\":15991:16019  100000000000 * 10**6 * 10**9 */\n  0x52b7d2dcc80cd2e4000000\n    /* \"feg.sol\":15949:15950  0 */\n  0x00\n    /* \"feg.sol\":15940:15951  ~uint256(0) */\n  not\n    /* \"feg.sol\":16058:16071  MAX % _tTotal */\n  dup2\n  tag_1\n  jumpi\n  invalid\ntag_1:\n  mod\n    /* \"feg.sol\":15949:15950  0 */\n  0x00\n    /* \"feg.sol\":15940:15951  ~uint256(0) */\n  not\n    /* \"feg.sol\":16051:16072  MAX - (MAX % _tTotal) */\n  sub\n    /* \"feg.sol\":16025:16073  uint256 public _rTotal = (MAX - (MAX % _tTotal)) */\n  0x06\n  sstore\n    /* \"feg.sol\":16111:16144  string private _name = 'FEGtoken' */\n  mload(0x40)\n  dup1\n  0x40\n  add\n  0x40\n  mstore\n  dup1\n  0x08\n  dup2\n  mstore\n  0x20\n  add\n  0x464547746f6b656e000000000000000000000000000000000000000000000000\n  dup2\n  mstore\n  pop\n  0x08\n  swap1\n  dup1\n  mload\n  swap1\n  0x20\n  add\n  swap1\n  tag_2\n  swap3\n  swap2\n  swap1\n  tag_3\n  jump\t// in\ntag_2:\n  pop\n    /* \"feg.sol\":16150:16180  string private _symbol = 'FEG' */\n  mload(0x40)\n  dup1\n  0x40\n  add\n  0x40\n  mstore\n  dup1\n  0x03\n  dup2\n  mstore\n  0x20\n  add\n  0x4645470000000000000000000000000000000000000000000000000000000000\n  dup2\n  mstore\n  pop\n  0x09\n  swap1\n  dup1\n  mload\n  swap1\n  0x20\n  add\n  swap1\n  tag_4\n  swap3\n  swap2\n  swap1\n  tag_3\n  jump\t// in\ntag_4:\n  pop\n    /* \"feg.sol\":16212:16213  9 */\n  0x09\n    /* \"feg.sol\":16186:16213  uint8 private _decimals = 9 */\n  0x0a\n  exp(0x0100, 0x00)\n  dup2\n  sload\n  dup2\n  0xff\n  mul\n  not\n  and\n  swap1\n  dup4\n  0xff\n  and\n  mul\n  or\n  swap1\n  sstore\n  pop\n    /* \"feg.sol\":16220:16348  constructor () public {... */\n  callvalue\n  dup1\n  iszero\n  tag_5\n  jumpi\n  0x00\n  dup1\n  revert\ntag_5:\n  pop\n    /* \"feg.sol\":14176:14193  address msgSender */\n  0x00\n    /* \"feg.sol\":14196:14208  _msgSender() */\n  tag_9\n    /* \"feg.sol\":14196:14206  _msgSender */\n  shl(0x20, tag_10)\n    /* \"feg.sol\":14196:14208  _msgSender() */\n  0x20\n  shr\n  jump\t// in\ntag_9:\n    /* \"feg.sol\":14176:14208  address msgSender = _msgSender() */\n  swap1\n  pop\n    /* \"feg.sol\":14227:14236  msgSender */\n  dup1\n    /* \"feg.sol\":14218:14224  _owner */\n  0x00\n  dup1\n    /* \"feg.sol\":14218:14236  _owner = msgSender */\n  0x0100\n  exp\n  dup2\n  sload\n  dup2\n  0xffffffffffffffffffffffffffffffffffffffff\n  mul\n  not\n  and\n  swap1\n  dup4\n  0xffffffffffffffffffffffffffffffffffffffff\n  and\n  mul\n  or\n  swap1\n  sstore\n  pop\n    /* \"feg.sol\":14284:14293  msgSender */\n  dup1\n    /* \"feg.sol\":14251:14294  OwnershipTransferred(address(0), msgSender) */\n  0xffffffffffffffffffffffffffffffffffffffff\n  and\n    /* \"feg.sol\":14280:14281  0 */\n  0x00\n    /* \"feg.sol\":14251:14294  OwnershipTransferred(address(0), msgSender) */\n  0xffffffffffffffffffffffffffffffffffffffff\n  and\n  0x8be0079c531659141344cd1fd0a4f28419497f9722a3daafe3b4186f6b6457e0\n  mload(0x40)\n  mload(0x40)\n  dup1\n  swap2\n  sub\n  swap1\n  log3\n    /* \"feg.sol\":14142:14301  constructor () internal {... */\n  pop\n    /* \"feg.sol\":16276:16283  _rTotal */\n  sload(0x06)\n    /* \"feg.sol\":16252:16259  _rOwned */\n  0x01\n    /* \"feg.sol\":16252:16273  _rOwned[_msgSender()] */\n  0x00\n    /* \"feg.sol\":16260:16272  _msgSender() */\n  tag_12\n    /* \"feg.sol\":16260:16270  _msgSender */\n  shl(0x20, tag_10)\n    /* \"feg.sol\":16260:16272  _msgSender() */\n  0x20\n  shr\n  jump\t// in\ntag_12:\n    /* \"feg.sol\":16252:16273  _rOwned[_msgSender()] */\n  0xffffffffffffffffffffffffffffffffffffffff\n  and\n  0xffffffffffffffffffffffffffffffffffffffff\n  and\n  dup2\n  mstore\n  0x20\n  add\n  swap1\n  dup2\n  mstore\n  0x20\n  add\n  0x00\n  keccak256\n    /* \"feg.sol\":16252:16283  _rOwned[_msgSender()] = _rTotal */\n  dup2\n  swap1\n  sstore\n  pop\n    /* \"feg.sol\":16319:16331  _msgSender() */\n  tag_13\n    /* \"feg.sol\":16319:16329  _msgSender */\n  shl(0x20, tag_10)\n    /* \"feg.sol\":16319:16331  _msgSender() */\n  0x20\n  shr\n  jump\t// in\ntag_13:\n    /* \"feg.sol\":16298:16341  Transfer(address(0), _msgSender(), _tTotal) */\n  0xffffffffffffffffffffffffffffffffffffffff\n  and\n    /* \"feg.sol\":16315:16316  0 */\n  0x00\n    /* \"feg.sol\":16298:16341  Transfer(address(0), _msgSender(), _tTotal) */\n  0xffffffffffffffffffffffffffffffffffffffff\n  and\n  0xddf252ad1be2c89b69c2b068fc378daa952ba7f163c4a11628f55a4df523b3ef\n    /* \"feg.sol\":15991:16019  100000000000 * 10**6 * 10**9 */\n  0x52b7d2dcc80cd2e4000000\n    /* \"feg.sol\":16298:16341  Transfer(address(0), _msgSender(), _tTotal) */\n  mload(0x40)\n  dup1\n  dup3\n  dup2\n  mstore\n  0x20\n  add\n  swap2\n  pop\n  pop\n  mload(0x40)\n  dup1\n  swap2\n  sub\n  swap1\n  log3\n    /* \"feg.sol\":15540:25456  contract FEG is Context, IERC20, Ownable {... */\n  jump(tag_14)\n    /* \"feg.sol\":448:552  function _msgSender() internal view virtual returns (address payable) {... */\ntag_10:\n    /* \"feg.sol\":501:516  address payable */\n  0x00\n    /* \"feg.sol\":535:545  msg.sender */\n  caller\n    /* \"feg.sol\":528:545  return msg.sender */\n  swap1\n  pop\n    /* \"feg.sol\":448:552  function _msgSender() internal view virtual returns (address payable) {... */\n  swap1\n  jump\t// out\n    /* \"feg.sol\":15540:25456  contract FEG is Context, IERC20, Ownable {... */\ntag_3:\n  dup3\n  dup1\n  sload\n  0x01\n  dup2\n  0x01\n  and\n  iszero\n  0x0100\n  mul\n  sub\n  and\n  0x02\n  swap1\n  div\n  swap1\n  0x00\n  mstore\n  keccak256(0x00, 0x20)\n  swap1\n  0x1f\n  add\n  0x20\n  swap1\n  div\n  dup2\n  add\n  swap3\n  dup3\n  0x1f\n  lt\n  tag_17\n  jumpi\n  dup1\n  mload\n  not(0xff)\n  and\n  dup4\n  dup1\n  add\n  or\n  dup6\n  sstore\n  jump(tag_16)\ntag_17:\n  dup3\n  dup1\n  add\n  0x01\n  add\n  dup6\n  sstore\n  dup3\n  iszero\n  tag_16\n  jumpi\n  swap2\n  dup3\n  add\ntag_18:\n  dup3\n  dup2\n  gt\n  iszero\n  tag_19\n  jumpi\n  dup3\n  mload\n  dup3\n  sstore\n  swap2\n  0x20\n  add\n  swap2\n  swap1\n  0x01\n  add\n  swap1\n  jump(tag_18)\ntag_19:\ntag_16:\n  pop\n  swap1\n  pop\n  tag_20\n  swap2\n  swap1\n  tag_21\n  jump\t// in\ntag_20:\n  pop\n  swap1\n  jump\t// out\ntag_21:\ntag_22:\n  dup1\n  dup3\n  gt\n  iszero\n  tag_23\n  jumpi\n  0x00\n  dup2\n  0x00\n  swap1\n  sstore\n  pop\n  0x01\n  add\n  jump(tag_22)\ntag_23:\n  pop\n  swap1\n  jump\t// out\ntag_14:\n  dataSize(sub_0)\n  dup1\n  dataOffset(sub_0)\n  0x00\n  codecopy\n  0x00\n  return\nstop\n\nsub_0: assembly {\n        /* \"feg.sol\":15540:25456  contract FEG is Context, IERC20, Ownable {... */\n      mstore(0x40, 0x80)\n      callvalue\n      dup1\n      iszero\n      tag_1\n      jumpi\n      0x00\n      dup1\n      revert\n    tag_1:\n      pop\n      jumpi(tag_2, lt(calldatasize, 0x04))\n      shr(0xe0, calldataload(0x00))\n      dup1\n      0x4d09deb3\n      gt\n      tag_33\n      jumpi\n      dup1\n      0xaf465a27\n      gt\n      tag_34\n      jumpi\n      dup1\n      0xf2cc0c18\n      gt\n      tag_35\n      jumpi\n      dup1\n      0xf2cc0c18\n      eq\n      tag_29\n      jumpi\n      dup1\n      0xf2fde38b\n      eq\n      tag_30\n      jumpi\n      dup1\n      0xf84354f1\n      eq\n      tag_31\n      jumpi\n      dup1\n      0xfb1eb14b\n      eq\n      tag_32\n      jumpi\n      jump(tag_2)\n    tag_35:\n      dup1\n      0xaf465a27\n      eq\n      tag_25\n      jumpi\n      dup1\n      0xcba0e996\n      eq\n      tag_26\n      jumpi\n      dup1\n      0xd49d5181\n      eq\n      tag_27\n      jumpi\n      dup1\n      0xdd62ed3e\n      eq\n      tag_28\n      jumpi\n      jump(tag_2)\n    tag_34:\n      dup1\n      0x8da5cb5b\n      gt\n      tag_36\n      jumpi\n      dup1\n      0x8da5cb5b\n      eq\n      tag_21\n      jumpi\n      dup1\n      0x95d89b41\n      eq\n      tag_22\n      jumpi\n      dup1\n      0xa457c2d7\n      eq\n      tag_23\n      jumpi\n      dup1\n      0xa9059cbb\n      eq\n      tag_24\n      jumpi\n      jump(tag_2)\n    tag_36:\n      dup1\n      0x4d09deb3\n      eq\n      tag_18\n      jumpi\n      dup1\n      0x70a08231\n      eq\n      tag_19\n      jumpi\n      dup1\n      0x715018a6\n      eq\n      tag_20\n      jumpi\n      jump(tag_2)\n    tag_33:\n      dup1\n      0x18160ddd\n      gt\n      tag_37\n      jumpi\n      dup1\n      0x39509351\n      gt\n      tag_38\n      jumpi\n      dup1\n      0x39509351\n      eq\n      tag_14\n      jumpi\n      dup1\n      0x3b7e6d4a\n      eq\n      tag_15\n      jumpi\n      dup1\n      0x4549b039\n      eq\n      tag_16\n      jumpi\n      dup1\n      0x45e0b9d4\n      eq\n      tag_17\n      jumpi\n      jump(tag_2)\n    tag_38:\n      dup1\n      0x18160ddd\n      eq\n      tag_10\n      jumpi\n      dup1\n      0x23b872dd\n      eq\n      tag_11\n      jumpi\n      dup1\n      0x2d838119\n      eq\n      tag_12\n      jumpi\n      dup1\n      0x313ce567\n      eq\n      tag_13\n      jumpi\n      jump(tag_2)\n    tag_37:\n      dup1\n      0x095ea7b3\n      gt\n      tag_39\n      jumpi\n      dup1\n      0x095ea7b3\n      eq\n      tag_6\n      jumpi\n      dup1\n      0x0b285b1f\n      eq\n      tag_7\n      jumpi\n      dup1\n      0x0cfc15f9\n      eq\n      tag_8\n      jumpi\n      dup1\n      0x13114a9d\n      eq\n      tag_9\n      jumpi\n      jump(tag_2)\n    tag_39:\n      dup1\n      0x024c2ddd\n      eq\n      tag_3\n      jumpi\n      dup1\n      0x053ab182\n      eq\n      tag_4\n      jumpi\n      dup1\n      0x06fdde03\n      eq\n      tag_5\n      jumpi\n    tag_2:\n      0x00\n      dup1\n      revert\n        /* \"feg.sol\":15749:15817  mapping (address => mapping (address => uint256)) public _allowances */\n    tag_3:\n      tag_40\n      0x04\n      dup1\n      calldatasize\n      sub\n      0x40\n      dup2\n      lt\n      iszero\n      tag_41\n      jumpi\n      0x00\n      dup1\n      revert\n    tag_41:\n      dup2\n      add\n      swap1\n      dup1\n      dup1\n      calldataload\n      0xffffffffffffffffffffffffffffffffffffffff\n      and\n      swap1\n      0x20\n      add\n      swap1\n      swap3\n      swap2\n      swap1\n      dup1\n      calldataload\n      0xffffffffffffffffffffffffffffffffffffffff\n      and\n      swap1\n      0x20\n      add\n      swap1\n      swap3\n      swap2\n      swap1\n      pop\n      pop\n      pop\n      tag_42\n      jump\t// in\n    tag_40:\n      mload(0x40)\n      dup1\n      dup3\n      dup2\n      mstore\n      0x20\n      add\n      swap2\n      pop\n      pop\n      mload(0x40)\n      dup1\n      swap2\n      sub\n      swap1\n      return\n        /* \"feg.sol\":18413:18782  function reflect(uint256 tAmount) public {... */\n    tag_4:\n      tag_43\n      0x04\n      dup1\n      calldatasize\n      sub\n      0x20\n      dup2\n      lt\n      iszero\n      tag_44\n      jumpi\n      0x00\n      dup1\n      revert\n    tag_44:\n      dup2\n      add\n      swap1\n      dup1\n      dup1\n      calldataload\n      swap1\n      0x20\n      add\n      swap1\n      swap3\n      swap2\n      swap1\n      pop\n      pop\n      pop\n      tag_45\n      jump\t// in\n    tag_43:\n      stop\n        /* \"feg.sol\":16354:16435  function name() public view returns (string memory) {... */\n    tag_5:\n      tag_46\n      tag_47\n      jump\t// in\n    tag_46:\n      mload(0x40)\n      dup1\n      dup1\n      0x20\n      add\n      dup3\n      dup2\n      sub\n      dup3\n      mstore\n      dup4\n      dup2\n      dup2\n      mload\n      dup2\n      mstore\n      0x20\n      add\n      swap2\n      pop\n      dup1\n      mload\n      swap1\n      0x20\n      add\n      swap1\n      dup1\n      dup4\n      dup4\n      0x00\n    tag_48:\n      dup4\n      dup2\n      lt\n      iszero\n      tag_50\n      jumpi\n      dup1\n      dup3\n      add\n      mload\n      dup2\n      dup5\n      add\n      mstore\n      0x20\n      dup2\n      add\n      swap1\n      pop\n      jump(tag_48)\n    tag_50:\n      pop\n      pop\n      pop\n      pop\n      swap1\n      pop\n      swap1\n      dup2\n      add\n      swap1\n      0x1f\n      and\n      dup1\n      iszero\n      tag_51\n      jumpi\n      dup1\n      dup3\n      sub\n      dup1\n      mload\n      0x01\n      dup4\n      0x20\n      sub\n      0x0100\n      exp\n      sub\n      not\n      and\n      dup2\n      mstore\n      0x20\n      add\n      swap2\n      pop\n    tag_51:\n      pop\n      swap3\n      pop\n      pop\n      pop\n      mload(0x40)\n      dup1\n      swap2\n      sub\n      swap1\n      return\n        /* \"feg.sol\":17236:17394  function approve(address spender, uint256 amount) public override returns (bool) {... */\n    tag_6:\n      tag_52\n      0x04\n      dup1\n      calldatasize\n      sub\n      0x40\n      dup2\n      lt\n      iszero\n      tag_53\n      jumpi\n      0x00\n      dup1\n      revert\n    tag_53:\n      dup2\n      add\n      swap1\n      dup1\n      dup1\n      calldataload\n      0xffffffffffffffffffffffffffffffffffffffff\n      and\n      swap1\n      0x20\n      add\n      swap1\n      swap3\n      swap2\n      swap1\n      dup1\n      calldataload\n      swap1\n      0x20\n      add\n      swap1\n      swap3\n      swap2\n      swap1\n      pop\n      pop\n      pop\n      tag_54\n      jump\t// in\n    tag_52:\n      mload(0x40)\n      dup1\n      dup3\n      iszero\n      iszero\n      dup2\n      mstore\n      0x20\n      add\n      swap2\n      pop\n      pop\n      mload(0x40)\n      dup1\n      swap2\n      sub\n      swap1\n      return\n        /* \"feg.sol\":15824:15868  mapping (address => bool) public _isExcluded */\n    tag_7:\n      tag_55\n      0x04\n      dup1\n      calldatasize\n      sub\n      0x20\n      dup2\n      lt\n      iszero\n      tag_56\n      jumpi\n      0x00\n      dup1\n      revert\n    tag_56:\n      dup2\n      add\n      swap1\n      dup1\n      dup1\n      calldataload\n      0xffffffffffffffffffffffffffffffffffffffff\n      and\n      swap1\n      0x20\n      add\n      swap1\n      swap3\n      swap2\n      swap1\n      pop\n      pop\n      pop\n      tag_57\n      jump\t// in\n    tag_55:\n      mload(0x40)\n      dup1\n      dup3\n      iszero\n      iszero\n      dup2\n      mstore\n      0x20\n      add\n      swap2\n      pop\n      pop\n      mload(0x40)\n      dup1\n      swap2\n      sub\n      swap1\n      return\n        /* \"feg.sol\":15651:15694  mapping (address => uint256) public _rOwned */\n    tag_8:\n      tag_58\n      0x04\n      dup1\n      calldatasize\n      sub\n      0x20\n      dup2\n      lt\n      iszero\n      tag_59\n      jumpi\n      0x00\n      dup1\n      revert\n    tag_59:\n      dup2\n      add\n      swap1\n      dup1\n      dup1\n      calldataload\n      0xffffffffffffffffffffffffffffffffffffffff\n      and\n      swap1\n      0x20\n      add\n      swap1\n      swap3\n      swap2\n      swap1\n      pop\n      pop\n      pop\n      tag_60\n      jump\t// in\n    tag_58:\n      mload(0x40)\n      dup1\n      dup3\n      dup2\n      mstore\n      0x20\n      add\n      swap2\n      pop\n      pop\n      mload(0x40)\n      dup1\n      swap2\n      sub\n      swap1\n      return\n        /* \"feg.sol\":18322:18407  function totalFees() public view returns (uint256) {... */\n    tag_9:\n      tag_61\n      tag_62\n      jump\t// in\n    tag_61:\n      mload(0x40)\n      dup1\n      dup3\n      dup2\n      mstore\n      0x20\n      add\n      swap2\n      pop\n      pop\n      mload(0x40)\n      dup1\n      swap2\n      sub\n      swap1\n      return\n        /* \"feg.sol\":16619:16712  function totalSupply() public view override returns (uint256) {... */\n    tag_10:\n      tag_63\n      tag_64\n      jump\t// in\n    tag_63:\n      mload(0x40)\n      dup1\n      dup3\n      dup2\n      mstore\n      0x20\n      add\n      swap2\n      pop\n      pop\n      mload(0x40)\n      dup1\n      swap2\n      sub\n      swap1\n      return\n        /* \"feg.sol\":17400:17709  function transferFrom(address sender, address recipient, uint256 amount) public override returns (bool) {... */\n    tag_11:\n      tag_65\n      0x04\n      dup1\n      calldatasize\n      sub\n      0x60\n      dup2\n      lt\n      iszero\n      tag_66\n      jumpi\n      0x00\n      dup1\n      revert\n    tag_66:\n      dup2\n      add\n      swap1\n      dup1\n      dup1\n      calldataload\n      0xffffffffffffffffffffffffffffffffffffffff\n      and\n      swap1\n      0x20\n      add\n      swap1\n      swap3\n      swap2\n      swap1\n      dup1\n      calldataload\n      0xffffffffffffffffffffffffffffffffffffffff\n      and\n      swap1\n      0x20\n      add\n      swap1\n      swap3\n      swap2\n      swap1\n      dup1\n      calldataload\n      swap1\n      0x20\n      add\n      swap1\n      swap3\n      swap2\n      swap1\n      pop\n      pop\n      pop\n      tag_67\n      jump\t// in\n    tag_65:\n      mload(0x40)\n      dup1\n      dup3\n      iszero\n      iszero\n      dup2\n      mstore\n      0x20\n      add\n      swap2\n      pop\n      pop\n      mload(0x40)\n      dup1\n      swap2\n      sub\n      swap1\n      return\n        /* \"feg.sol\":19219:19468  function tokenFromReflection(uint256 rAmount) public view returns(uint256) {... */\n    tag_12:\n      tag_68\n      0x04\n      dup1\n      calldatasize\n      sub\n      0x20\n      dup2\n      lt\n      iszero\n      tag_69\n      jumpi\n      0x00\n      dup1\n      revert\n    tag_69:\n      dup2\n      add\n      swap1\n      dup1\n      dup1\n      calldataload\n      swap1\n      0x20\n      add\n      swap1\n      swap3\n      swap2\n      swap1\n      pop\n      pop\n      pop\n      tag_70\n      jump\t// in\n    tag_68:\n      mload(0x40)\n      dup1\n      dup3\n      dup2\n      mstore\n      0x20\n      add\n      swap2\n      pop\n      pop\n      mload(0x40)\n      dup1\n      swap2\n      sub\n      swap1\n      return\n        /* \"feg.sol\":16532:16613  function decimals() public view returns (uint8) {... */\n    tag_13:\n      tag_71\n      tag_72\n      jump\t// in\n    tag_71:\n      mload(0x40)\n      dup1\n      dup3\n      0xff\n      and\n      dup2\n      mstore\n      0x20\n      add\n      swap2\n      pop\n      pop\n      mload(0x40)\n      dup1\n      swap2\n      sub\n      swap1\n      return\n        /* \"feg.sol\":17715:17930  function increaseAllowance(address spender, uint256 addedValue) public virtual returns (bool) {... */\n    tag_14:\n      tag_73\n      0x04\n      dup1\n      calldatasize\n      sub\n      0x40\n      dup2\n      lt\n      iszero\n      tag_74\n      jumpi\n      0x00\n      dup1\n      revert\n    tag_74:\n      dup2\n      add\n      swap1\n      dup1\n      dup1\n      calldataload\n      0xffffffffffffffffffffffffffffffffffffffff\n      and\n      swap1\n      0x20\n      add\n      swap1\n      swap3\n      swap2\n      swap1\n      dup1\n      calldataload\n      swap1\n      0x20\n      add\n      swap1\n      swap3\n      swap2\n      swap1\n      pop\n      pop\n      pop\n      tag_75\n      jump\t// in\n    tag_73:\n      mload(0x40)\n      dup1\n      dup3\n      iszero\n      iszero\n      dup2\n      mstore\n      0x20\n      add\n      swap2\n      pop\n      pop\n      mload(0x40)\n      dup1\n      swap2\n      sub\n      swap1\n      return\n        /* \"feg.sol\":15700:15743  mapping (address => uint256) public _tOwned */\n    tag_15:\n      tag_76\n      0x04\n      dup1\n      calldatasize\n      sub\n      0x20\n      dup2\n      lt\n      iszero\n      tag_77\n      jumpi\n      0x00\n      dup1\n      revert\n    tag_77:\n      dup2\n      add\n      swap1\n      dup1\n      dup1\n      calldataload\n      0xffffffffffffffffffffffffffffffffffffffff\n      and\n      swap1\n      0x20\n      add\n      swap1\n      swap3\n      swap2\n      swap1\n      pop\n      pop\n      pop\n      tag_78\n      jump\t// in\n    tag_76:\n      mload(0x40)\n      dup1\n      dup3\n      dup2\n      mstore\n      0x20\n      add\n      swap2\n      pop\n      pop\n      mload(0x40)\n      dup1\n      swap2\n      sub\n      swap1\n      return\n        /* \"feg.sol\":18788:19213  function reflectionFromToken(uint256 tAmount, bool deductTransferFee) public view returns(uint256) {... */\n    tag_16:\n      tag_79\n      0x04\n      dup1\n      calldatasize\n      sub\n      0x40\n      dup2\n      lt\n      iszero\n      tag_80\n      jumpi\n      0x00\n      dup1\n      revert\n    tag_80:\n      dup2\n      add\n      swap1\n      dup1\n      dup1\n      calldataload\n      swap1\n      0x20\n      add\n      swap1\n      swap3\n      swap2\n      swap1\n      dup1\n      calldataload\n      iszero\n      iszero\n      swap1\n      0x20\n      add\n      swap1\n      swap3\n      swap2\n      swap1\n      pop\n      pop\n      pop\n      tag_81\n      jump\t// in\n    tag_79:\n      mload(0x40)\n      dup1\n      dup3\n      dup2\n      mstore\n      0x20\n      add\n      swap2\n      pop\n      pop\n      mload(0x40)\n      dup1\n      swap2\n      sub\n      swap1\n      return\n        /* \"feg.sol\":16025:16073  uint256 public _rTotal = (MAX - (MAX % _tTotal)) */\n    tag_17:\n      tag_82\n      tag_83\n      jump\t// in\n    tag_82:\n      mload(0x40)\n      dup1\n      dup3\n      dup2\n      mstore\n      0x20\n      add\n      swap2\n      pop\n      pop\n      mload(0x40)\n      dup1\n      swap2\n      sub\n      swap1\n      return\n        /* \"feg.sol\":15874:15900  address[] public _excluded */\n    tag_18:\n      tag_84\n      0x04\n      dup1\n      calldatasize\n      sub\n      0x20\n      dup2\n      lt\n      iszero\n      tag_85\n      jumpi\n      0x00\n      dup1\n      revert\n    tag_85:\n      dup2\n      add\n      swap1\n      dup1\n      dup1\n      calldataload\n      swap1\n      0x20\n      add\n      swap1\n      swap3\n      swap2\n      swap1\n      pop\n      pop\n      pop\n      tag_86\n      jump\t// in\n    tag_84:\n      mload(0x40)\n      dup1\n      dup3\n      0xffffffffffffffffffffffffffffffffffffffff\n      and\n      dup2\n      mstore\n      0x20\n      add\n      swap2\n      pop\n      pop\n      mload(0x40)\n      dup1\n      swap2\n      sub\n      swap1\n      return\n        /* \"feg.sol\":16718:16913  function balanceOf(address account) public view override returns (uint256) {... */\n    tag_19:\n      tag_87\n      0x04\n      dup1\n      calldatasize\n      sub\n      0x20\n      dup2\n      lt\n      iszero\n      tag_88\n      jumpi\n      0x00\n      dup1\n      revert\n    tag_88:\n      dup2\n      add\n      swap1\n      dup1\n      dup1\n      calldataload\n      0xffffffffffffffffffffffffffffffffffffffff\n      and\n      swap1\n      0x20\n      add\n      swap1\n      swap3\n      swap2\n      swap1\n      pop\n      pop\n      pop\n      tag_89\n      jump\t// in\n    tag_87:\n      mload(0x40)\n      dup1\n      dup3\n      dup2\n      mstore\n      0x20\n      add\n      swap2\n      pop\n      pop\n      mload(0x40)\n      dup1\n      swap2\n      sub\n      swap1\n      return\n        /* \"feg.sol\":15000:15145  function renounceOwnership() public virtual onlyOwner {... */\n    tag_20:\n      tag_90\n      tag_91\n      jump\t// in\n    tag_90:\n      stop\n        /* \"feg.sol\":14377:14454  function owner() public view returns (address) {... */\n    tag_21:\n      tag_92\n      tag_93\n      jump\t// in\n    tag_92:\n      mload(0x40)\n      dup1\n      dup3\n      0xffffffffffffffffffffffffffffffffffffffff\n      and\n      dup2\n      mstore\n      0x20\n      add\n      swap2\n      pop\n      pop\n      mload(0x40)\n      dup1\n      swap2\n      sub\n      swap1\n      return\n        /* \"feg.sol\":16441:16526  function symbol() public view returns (string memory) {... */\n    tag_22:\n      tag_94\n      tag_95\n      jump\t// in\n    tag_94:\n      mload(0x40)\n      dup1\n      dup1\n      0x20\n      add\n      dup3\n      dup2\n      sub\n      dup3\n      mstore\n      dup4\n      dup2\n      dup2\n      mload\n      dup2\n      mstore\n      0x20\n      add\n      swap2\n      pop\n      dup1\n      mload\n      swap1\n      0x20\n      add\n      swap1\n      dup1\n      dup4\n      dup4\n      0x00\n    tag_96:\n      dup4\n      dup2\n      lt\n      iszero\n      tag_98\n      jumpi\n      dup1\n      dup3\n      add\n      mload\n      dup2\n      dup5\n      add\n      mstore\n      0x20\n      dup2\n      add\n      swap1\n      pop\n      jump(tag_96)\n    tag_98:\n      pop\n      pop\n      pop\n      pop\n      swap1\n      pop\n      swap1\n      dup2\n      add\n      swap1\n      0x1f\n      and\n      dup1\n      iszero\n      tag_99\n      jumpi\n      dup1\n      dup3\n      sub\n      dup1\n      mload\n      0x01\n      dup4\n      0x20\n      sub\n      0x0100\n      exp\n      sub\n      not\n      and\n      dup2\n      mstore\n      0x20\n      add\n      swap2\n      pop\n    tag_99:\n      pop\n      swap3\n      pop\n      pop\n      pop\n      mload(0x40)\n      dup1\n      swap2\n      sub\n      swap1\n      return\n        /* \"feg.sol\":17936:18202  function decreaseAllowance(address spender, uint256 subtractedValue) public virtual returns (bool) {... */\n    tag_23:\n      tag_100\n      0x04\n      dup1\n      calldatasize\n      sub\n      0x40\n      dup2\n      lt\n      iszero\n      tag_101\n      jumpi\n      0x00\n      dup1\n      revert\n    tag_101:\n      dup2\n      add\n      swap1\n      dup1\n      dup1\n      calldataload\n      0xffffffffffffffffffffffffffffffffffffffff\n      and\n      swap1\n      0x20\n      add\n      swap1\n      swap3\n      swap2\n      swap1\n      dup1\n      calldataload\n      swap1\n      0x20\n      add\n      swap1\n      swap3\n      swap2\n      swap1\n      pop\n      pop\n      pop\n      tag_102\n      jump\t// in\n    tag_100:\n      mload(0x40)\n      dup1\n      dup3\n      iszero\n      iszero\n      dup2\n      mstore\n      0x20\n      add\n      swap2\n      pop\n      pop\n      mload(0x40)\n      dup1\n      swap2\n      sub\n      swap1\n      return\n        /* \"feg.sol\":16919:17083  function transfer(address recipient, uint256 amount) public override returns (bool) {... */\n    tag_24:\n      tag_103\n      0x04\n      dup1\n      calldatasize\n      sub\n      0x40\n      dup2\n      lt\n      iszero\n      tag_104\n      jumpi\n      0x00\n      dup1\n      revert\n    tag_104:\n      dup2\n      add\n      swap1\n      dup1\n      dup1\n      calldataload\n      0xffffffffffffffffffffffffffffffffffffffff\n      and\n      swap1\n      0x20\n      add\n      swap1\n      swap3\n      swap2\n      swap1\n      dup1\n      calldataload\n      swap1\n      0x20\n      add\n      swap1\n      swap3\n      swap2\n      swap1\n      pop\n      pop\n      pop\n      tag_105\n      jump\t// in\n    tag_103:\n      mload(0x40)\n      dup1\n      dup3\n      iszero\n      iszero\n      dup2\n      mstore\n      0x20\n      add\n      swap2\n      pop\n      pop\n      mload(0x40)\n      dup1\n      swap2\n      sub\n      swap1\n      return\n        /* \"feg.sol\":15957:16019  uint256 public constant _tTotal = 100000000000 * 10**6 * 10**9 */\n    tag_25:\n      tag_106\n      tag_107\n      jump\t// in\n    tag_106:\n      mload(0x40)\n      dup1\n      dup3\n      dup2\n      mstore\n      0x20\n      add\n      swap2\n      pop\n      pop\n      mload(0x40)\n      dup1\n      swap2\n      sub\n      swap1\n      return\n        /* \"feg.sol\":18208:18316  function isExcluded(address account) public view returns (bool) {... */\n    tag_26:\n      tag_108\n      0x04\n      dup1\n      calldatasize\n      sub\n      0x20\n      dup2\n      lt\n      iszero\n      tag_109\n      jumpi\n      0x00\n      dup1\n      revert\n    tag_109:\n      dup2\n      add\n      swap1\n      dup1\n      dup1\n      calldataload\n      0xffffffffffffffffffffffffffffffffffffffff\n      and\n      swap1\n      0x20\n      add\n      swap1\n      swap3\n      swap2\n      swap1\n      pop\n      pop\n      pop\n      tag_110\n      jump\t// in\n    tag_108:\n      mload(0x40)\n      dup1\n      dup3\n      iszero\n      iszero\n      dup2\n      mstore\n      0x20\n      add\n      swap2\n      pop\n      pop\n      mload(0x40)\n      dup1\n      swap2\n      sub\n      swap1\n      return\n        /* \"feg.sol\":15910:15951  uint256 public constant MAX = ~uint256(0) */\n    tag_27:\n      tag_111\n      tag_112\n      jump\t// in\n    tag_111:\n      mload(0x40)\n      dup1\n      dup3\n      dup2\n      mstore\n      0x20\n      add\n      swap2\n      pop\n      pop\n      mload(0x40)\n      dup1\n      swap2\n      sub\n      swap1\n      return\n        /* \"feg.sol\":17089:17230  function allowance(address owner, address spender) public view override returns (uint256) {... */\n    tag_28:\n      tag_113\n      0x04\n      dup1\n      calldatasize\n      sub\n      0x40\n      dup2\n      lt\n      iszero\n      tag_114\n      jumpi\n      0x00\n      dup1\n      revert\n    tag_114:\n      dup2\n      add\n      swap1\n      dup1\n      dup1\n      calldataload\n      0xffffffffffffffffffffffffffffffffffffffff\n      and\n      swap1\n      0x20\n      add\n      swap1\n      swap3\n      swap2\n      swap1\n      dup1\n      calldataload\n      0xffffffffffffffffffffffffffffffffffffffff\n      and\n      swap1\n      0x20\n      add\n      swap1\n      swap3\n      swap2\n      swap1\n      pop\n      pop\n      pop\n      tag_115\n      jump\t// in\n    tag_113:\n      mload(0x40)\n      dup1\n      dup3\n      dup2\n      mstore\n      0x20\n      add\n      swap2\n      pop\n      pop\n      mload(0x40)\n      dup1\n      swap2\n      sub\n      swap1\n      return\n        /* \"feg.sol\":19474:19799  function excludeAccount(address account) external onlyOwner() {... */\n    tag_29:\n      tag_116\n      0x04\n      dup1\n      calldatasize\n      sub\n      0x20\n      dup2\n      lt\n      iszero\n      tag_117\n      jumpi\n      0x00\n      dup1\n      revert\n    tag_117:\n      dup2\n      add\n      swap1\n      dup1\n      dup1\n      calldataload\n      0xffffffffffffffffffffffffffffffffffffffff\n      and\n      swap1\n      0x20\n      add\n      swap1\n      swap3\n      swap2\n      swap1\n      pop\n      pop\n      pop\n      tag_118\n      jump\t// in\n    tag_116:\n      stop\n        /* \"feg.sol\":15294:15534  function transferOwnership(address newOwner) public virtual onlyOwner {... */\n    tag_30:\n      tag_119\n      0x04\n      dup1\n      calldatasize\n      sub\n      0x20\n      dup2\n      lt\n      iszero\n      tag_120\n      jumpi\n      0x00\n      dup1\n      revert\n    tag_120:\n      dup2\n      add\n      swap1\n      dup1\n      dup1\n      calldataload\n      0xffffffffffffffffffffffffffffffffffffffff\n      and\n      swap1\n      0x20\n      add\n      swap1\n      swap3\n      swap2\n      swap1\n      pop\n      pop\n      pop\n      tag_121\n      jump\t// in\n    tag_119:\n      stop\n        /* \"feg.sol\":19805:20272  function includeAccount(address account) external onlyOwner() {... */\n    tag_31:\n      tag_122\n      0x04\n      dup1\n      calldatasize\n      sub\n      0x20\n      dup2\n      lt\n      iszero\n      tag_123\n      jumpi\n      0x00\n      dup1\n      revert\n    tag_123:\n      dup2\n      add\n      swap1\n      dup1\n      dup1\n      calldataload\n      0xffffffffffffffffffffffffffffffffffffffff\n      and\n      swap1\n      0x20\n      add\n      swap1\n      swap3\n      swap2\n      swap1\n      pop\n      pop\n      pop\n      tag_124\n      jump\t// in\n    tag_122:\n      stop\n        /* \"feg.sol\":16079:16104  uint256 public _tFeeTotal */\n    tag_32:\n      tag_125\n      tag_126\n      jump\t// in\n    tag_125:\n      mload(0x40)\n      dup1\n      dup3\n      dup2\n      mstore\n      0x20\n      add\n      swap2\n      pop\n      pop\n      mload(0x40)\n      dup1\n      swap2\n      sub\n      swap1\n      return\n        /* \"feg.sol\":15749:15817  mapping (address => mapping (address => uint256)) public _allowances */\n    tag_42:\n      mstore(0x20, 0x03)\n      dup2\n      0x00\n      mstore\n      mstore(0x20, keccak256(0x00, 0x40))\n      dup1\n      0x00\n      mstore\n      keccak256(0x00, 0x40)\n      0x00\n      swap2\n      pop\n      swap2\n      pop\n      pop\n      sload\n      dup2\n      jump\t// out\n        /* \"feg.sol\":18413:18782  function reflect(uint256 tAmount) public {... */\n    tag_45:\n        /* \"feg.sol\":18464:18478  address sender */\n      0x00\n        /* \"feg.sol\":18481:18493  _msgSender() */\n      tag_128\n        /* \"feg.sol\":18481:18491  _msgSender */\n      tag_129\n        /* \"feg.sol\":18481:18493  _msgSender() */\n      jump\t// in\n    tag_128:\n        /* \"feg.sol\":18464:18493  address sender = _msgSender() */\n      swap1\n      pop\n        /* \"feg.sol\":18512:18523  _isExcluded */\n      0x04\n        /* \"feg.sol\":18512:18531  _isExcluded[sender] */\n      0x00\n        /* \"feg.sol\":18524:18530  sender */\n      dup3\n        /* \"feg.sol\":18512:18531  _isExcluded[sender] */\n      0xffffffffffffffffffffffffffffffffffffffff\n      and\n      0xffffffffffffffffffffffffffffffffffffffff\n      and\n      dup2\n      mstore\n      0x20\n      add\n      swap1\n      dup2\n      mstore\n      0x20\n      add\n      0x00\n      keccak256\n      0x00\n      swap1\n      sload\n      swap1\n      0x0100\n      exp\n      swap1\n      div\n      0xff\n      and\n        /* \"feg.sol\":18511:18531  !_isExcluded[sender] */\n      iszero\n        /* \"feg.sol\":18503:18580  require(!_isExcluded[sender], \"Excluded addresses cannot call this function\") */\n      tag_130\n      jumpi\n      mload(0x40)\n      0x08c379a000000000000000000000000000000000000000000000000000000000\n      dup2\n      mstore\n      0x04\n      add\n      dup1\n      dup1\n      0x20\n      add\n      dup3\n      dup2\n      sub\n      dup3\n      mstore\n      0x2c\n      dup2\n      mstore\n      0x20\n      add\n      dup1\n      data_ecefcaf5fbcf9ca6dcdb02298ba1da96f4ead317b0a4779917ecb2e5e7dc3ac4\n      0x2c\n      swap2\n      codecopy\n      0x40\n      add\n      swap2\n      pop\n      pop\n      mload(0x40)\n      dup1\n      swap2\n      sub\n      swap1\n      revert\n    tag_130:\n        /* \"feg.sol\":18591:18606  uint256 rAmount */\n      0x00\n        /* \"feg.sol\":18614:18633  _getValues(tAmount) */\n      tag_131\n        /* \"feg.sol\":18625:18632  tAmount */\n      dup4\n        /* \"feg.sol\":18614:18624  _getValues */\n      tag_132\n        /* \"feg.sol\":18614:18633  _getValues(tAmount) */\n      jump\t// in\n    tag_131:\n        /* \"feg.sol\":18590:18633  (uint256 rAmount,,,,) = _getValues(tAmount) */\n      pop\n      pop\n      pop\n      pop\n      swap1\n      pop\n        /* \"feg.sol\":18661:18689  _rOwned[sender].sub(rAmount) */\n      tag_133\n        /* \"feg.sol\":18681:18688  rAmount */\n      dup2\n        /* \"feg.sol\":18661:18668  _rOwned */\n      0x01\n        /* \"feg.sol\":18661:18676  _rOwned[sender] */\n      0x00\n        /* \"feg.sol\":18669:18675  sender */\n      dup6\n        /* \"feg.sol\":18661:18676  _rOwned[sender] */\n      0xffffffffffffffffffffffffffffffffffffffff\n      and\n      0xffffffffffffffffffffffffffffffffffffffff\n      and\n      dup2\n      mstore\n      0x20\n      add\n      swap1\n      dup2\n      mstore\n      0x20\n      add\n      0x00\n      keccak256\n      sload\n        /* \"feg.sol\":18661:18680  _rOwned[sender].sub */\n      tag_134\n      swap1\n        /* \"feg.sol\":18661:18689  _rOwned[sender].sub(rAmount) */\n      swap2\n      swap1\n      0xffffffff\n      and\n      jump\t// in\n    tag_133:\n        /* \"feg.sol\":18643:18650  _rOwned */\n      0x01\n        /* \"feg.sol\":18643:18658  _rOwned[sender] */\n      0x00\n        /* \"feg.sol\":18651:18657  sender */\n      dup5\n        /* \"feg.sol\":18643:18658  _rOwned[sender] */\n      0xffffffffffffffffffffffffffffffffffffffff\n      and\n      0xffffffffffffffffffffffffffffffffffffffff\n      and\n      dup2\n      mstore\n      0x20\n      add\n      swap1\n      dup2\n      mstore\n      0x20\n      add\n      0x00\n      keccak256\n        /* \"feg.sol\":18643:18689  _rOwned[sender] = _rOwned[sender].sub(rAmount) */\n      dup2\n      swap1\n      sstore\n      pop\n        /* \"feg.sol\":18709:18729  _rTotal.sub(rAmount) */\n      tag_135\n        /* \"feg.sol\":18721:18728  rAmount */\n      dup2\n        /* \"feg.sol\":18709:18716  _rTotal */\n      sload(0x06)\n        /* \"feg.sol\":18709:18720  _rTotal.sub */\n      tag_134\n      swap1\n        /* \"feg.sol\":18709:18729  _rTotal.sub(rAmount) */\n      swap2\n      swap1\n      0xffffffff\n      and\n      jump\t// in\n    tag_135:\n        /* \"feg.sol\":18699:18706  _rTotal */\n      0x06\n        /* \"feg.sol\":18699:18729  _rTotal = _rTotal.sub(rAmount) */\n      dup2\n      swap1\n      sstore\n      pop\n        /* \"feg.sol\":18752:18775  _tFeeTotal.add(tAmount) */\n      tag_136\n        /* \"feg.sol\":18767:18774  tAmount */\n      dup4\n        /* \"feg.sol\":18752:18762  _tFeeTotal */\n      sload(0x07)\n        /* \"feg.sol\":18752:18766  _tFeeTotal.add */\n      tag_137\n      swap1\n        /* \"feg.sol\":18752:18775  _tFeeTotal.add(tAmount) */\n      swap2\n      swap1\n      0xffffffff\n      and\n      jump\t// in\n    tag_136:\n        /* \"feg.sol\":18739:18749  _tFeeTotal */\n      0x07\n        /* \"feg.sol\":18739:18775  _tFeeTotal = _tFeeTotal.add(tAmount) */\n      dup2\n      swap1\n      sstore\n      pop\n        /* \"feg.sol\":18413:18782  function reflect(uint256 tAmount) public {... */\n      pop\n      pop\n      pop\n      jump\t// out\n        /* \"feg.sol\":16354:16435  function name() public view returns (string memory) {... */\n    tag_47:\n        /* \"feg.sol\":16391:16404  string memory */\n      0x60\n        /* \"feg.sol\":16423:16428  _name */\n      0x08\n        /* \"feg.sol\":16416:16428  return _name */\n      dup1\n      sload\n      0x01\n      dup2\n      0x01\n      and\n      iszero\n      0x0100\n      mul\n      sub\n      and\n      0x02\n      swap1\n      div\n      dup1\n      0x1f\n      add\n      0x20\n      dup1\n      swap2\n      div\n      mul\n      0x20\n      add\n      mload(0x40)\n      swap1\n      dup2\n      add\n      0x40\n      mstore\n      dup1\n      swap3\n      swap2\n      swap1\n      dup2\n      dup2\n      mstore\n      0x20\n      add\n      dup3\n      dup1\n      sload\n      0x01\n      dup2\n      0x01\n      and\n      iszero\n      0x0100\n      mul\n      sub\n      and\n      0x02\n      swap1\n      div\n      dup1\n      iszero\n      tag_139\n      jumpi\n      dup1\n      0x1f\n      lt\n      tag_140\n      jumpi\n      0x0100\n      dup1\n      dup4\n      sload\n      div\n      mul\n      dup4\n      mstore\n      swap2\n      0x20\n      add\n      swap2\n      jump(tag_139)\n    tag_140:\n      dup3\n      add\n      swap2\n      swap1\n      0x00\n      mstore\n      keccak256(0x00, 0x20)\n      swap1\n    tag_141:\n      dup2\n      sload\n      dup2\n      mstore\n      swap1\n      0x01\n      add\n      swap1\n      0x20\n      add\n      dup1\n      dup4\n      gt\n      tag_141\n      jumpi\n      dup3\n      swap1\n      sub\n      0x1f\n      and\n      dup3\n      add\n      swap2\n    tag_139:\n      pop\n      pop\n      pop\n      pop\n      pop\n      swap1\n      pop\n        /* \"feg.sol\":16354:16435  function name() public view returns (string memory) {... */\n      swap1\n      jump\t// out\n        /* \"feg.sol\":17236:17394  function approve(address spender, uint256 amount) public override returns (bool) {... */\n    tag_54:\n        /* \"feg.sol\":17311:17315  bool */\n      0x00\n        /* \"feg.sol\":17327:17366  _approve(_msgSender(), spender, amount) */\n      tag_143\n        /* \"feg.sol\":17336:17348  _msgSender() */\n      tag_144\n        /* \"feg.sol\":17336:17346  _msgSender */\n      tag_129\n        /* \"feg.sol\":17336:17348  _msgSender() */\n      jump\t// in\n    tag_144:\n        /* \"feg.sol\":17350:17357  spender */\n      dup5\n        /* \"feg.sol\":17359:17365  amount */\n      dup5\n        /* \"feg.sol\":17327:17335  _approve */\n      tag_145\n        /* \"feg.sol\":17327:17366  _approve(_msgSender(), spender, amount) */\n      jump\t// in\n    tag_143:\n        /* \"feg.sol\":17383:17387  true */\n      0x01\n        /* \"feg.sol\":17376:17387  return true */\n      swap1\n      pop\n        /* \"feg.sol\":17236:17394  function approve(address spender, uint256 amount) public override returns (bool) {... */\n      swap3\n      swap2\n      pop\n      pop\n      jump\t// out\n        /* \"feg.sol\":15824:15868  mapping (address => bool) public _isExcluded */\n    tag_57:\n      mstore(0x20, 0x04)\n      dup1\n      0x00\n      mstore\n      keccak256(0x00, 0x40)\n      0x00\n      swap2\n      pop\n      sload\n      swap1\n      0x0100\n      exp\n      swap1\n      div\n      0xff\n      and\n      dup2\n      jump\t// out\n        /* \"feg.sol\":15651:15694  mapping (address => uint256) public _rOwned */\n    tag_60:\n      mstore(0x20, 0x01)\n      dup1\n      0x00\n      mstore\n      keccak256(0x00, 0x40)\n      0x00\n      swap2\n      pop\n      swap1\n      pop\n      sload\n      dup2\n      jump\t// out\n        /* \"feg.sol\":18322:18407  function totalFees() public view returns (uint256) {... */\n    tag_62:\n        /* \"feg.sol\":18364:18371  uint256 */\n      0x00\n        /* \"feg.sol\":18390:18400  _tFeeTotal */\n      sload(0x07)\n        /* \"feg.sol\":18383:18400  return _tFeeTotal */\n      swap1\n      pop\n        /* \"feg.sol\":18322:18407  function totalFees() public view returns (uint256) {... */\n      swap1\n      jump\t// out\n        /* \"feg.sol\":16619:16712  function totalSupply() public view override returns (uint256) {... */\n    tag_64:\n        /* \"feg.sol\":16672:16679  uint256 */\n      0x00\n        /* \"feg.sol\":15991:16019  100000000000 * 10**6 * 10**9 */\n      0x52b7d2dcc80cd2e4000000\n        /* \"feg.sol\":16691:16705  return _tTotal */\n      swap1\n      pop\n        /* \"feg.sol\":16619:16712  function totalSupply() public view override returns (uint256) {... */\n      swap1\n      jump\t// out\n        /* \"feg.sol\":17400:17709  function transferFrom(address sender, address recipient, uint256 amount) public override returns (bool) {... */\n    tag_67:\n        /* \"feg.sol\":17498:17502  bool */\n      0x00\n        /* \"feg.sol\":17514:17550  _transfer(sender, recipient, amount) */\n      tag_149\n        /* \"feg.sol\":17524:17530  sender */\n      dup5\n        /* \"feg.sol\":17532:17541  recipient */\n      dup5\n        /* \"feg.sol\":17543:17549  amount */\n      dup5\n        /* \"feg.sol\":17514:17523  _transfer */\n      tag_150\n        /* \"feg.sol\":17514:17550  _transfer(sender, recipient, amount) */\n      jump\t// in\n    tag_149:\n        /* \"feg.sol\":17560:17681  _approve(sender, _msgSender(), _allowances[sender][_msgSender()].sub(amount, \"ERC20: transfer amount exceeds allowance\")) */\n      tag_151\n        /* \"feg.sol\":17569:17575  sender */\n      dup5\n        /* \"feg.sol\":17577:17589  _msgSender() */\n      tag_152\n        /* \"feg.sol\":17577:17587  _msgSender */\n      tag_129\n        /* \"feg.sol\":17577:17589  _msgSender() */\n      jump\t// in\n    tag_152:\n        /* \"feg.sol\":17591:17680  _allowances[sender][_msgSender()].sub(amount, \"ERC20: transfer amount exceeds allowance\") */\n      tag_153\n        /* \"feg.sol\":17629:17635  amount */\n      dup6\n        /* \"feg.sol\":17591:17680  _allowances[sender][_msgSender()].sub(amount, \"ERC20: transfer amount exceeds allowance\") */\n      mload(0x40)\n      dup1\n      0x60\n      add\n      0x40\n      mstore\n      dup1\n      0x28\n      dup2\n      mstore\n      0x20\n      add\n      data_974d1b4421da69cc60b481194f0dad36a5bb4e23da810da7a7fb30cdba178330\n      0x28\n      swap2\n      codecopy\n        /* \"feg.sol\":17591:17602  _allowances */\n      0x03\n        /* \"feg.sol\":17591:17610  _allowances[sender] */\n      0x00\n        /* \"feg.sol\":17603:17609  sender */\n      dup12\n        /* \"feg.sol\":17591:17610  _allowances[sender] */\n      0xffffffffffffffffffffffffffffffffffffffff\n      and\n      0xffffffffffffffffffffffffffffffffffffffff\n      and\n      dup2\n      mstore\n      0x20\n      add\n      swap1\n      dup2\n      mstore\n      0x20\n      add\n      0x00\n      keccak256\n        /* \"feg.sol\":17591:17624  _allowances[sender][_msgSender()] */\n      0x00\n        /* \"feg.sol\":17611:17623  _msgSender() */\n      tag_154\n        /* \"feg.sol\":17611:17621  _msgSender */\n      tag_129\n        /* \"feg.sol\":17611:17623  _msgSender() */\n      jump\t// in\n    tag_154:\n        /* \"feg.sol\":17591:17624  _allowances[sender][_msgSender()] */\n      0xffffffffffffffffffffffffffffffffffffffff\n      and\n      0xffffffffffffffffffffffffffffffffffffffff\n      and\n      dup2\n      mstore\n      0x20\n      add\n      swap1\n      dup2\n      mstore\n      0x20\n      add\n      0x00\n      keccak256\n      sload\n        /* \"feg.sol\":17591:17628  _allowances[sender][_msgSender()].sub */\n      tag_155\n      swap1\n        /* \"feg.sol\":17591:17680  _allowances[sender][_msgSender()].sub(amount, \"ERC20: transfer amount exceeds allowance\") */\n      swap3\n      swap2\n      swap1\n      0xffffffff\n      and\n      jump\t// in\n    tag_153:\n        /* \"feg.sol\":17560:17568  _approve */\n      tag_145\n        /* \"feg.sol\":17560:17681  _approve(sender, _msgSender(), _allowances[sender][_msgSender()].sub(amount, \"ERC20: transfer amount exceeds allowance\")) */\n      jump\t// in\n    tag_151:\n        /* \"feg.sol\":17698:17702  true */\n      0x01\n        /* \"feg.sol\":17691:17702  return true */\n      swap1\n      pop\n        /* \"feg.sol\":17400:17709  function transferFrom(address sender, address recipient, uint256 amount) public override returns (bool) {... */\n      swap4\n      swap3\n      pop\n      pop\n      pop\n      jump\t// out\n        /* \"feg.sol\":19219:19468  function tokenFromReflection(uint256 rAmount) public view returns(uint256) {... */\n    tag_70:\n        /* \"feg.sol\":19285:19292  uint256 */\n      0x00\n        /* \"feg.sol\":19323:19330  _rTotal */\n      sload(0x06)\n        /* \"feg.sol\":19312:19319  rAmount */\n      dup3\n        /* \"feg.sol\":19312:19330  rAmount <= _rTotal */\n      gt\n      iszero\n        /* \"feg.sol\":19304:19377  require(rAmount <= _rTotal, \"Amount must be less than total reflections\") */\n      tag_157\n      jumpi\n      mload(0x40)\n      0x08c379a000000000000000000000000000000000000000000000000000000000\n      dup2\n      mstore\n      0x04\n      add\n      dup1\n      dup1\n      0x20\n      add\n      dup3\n      dup2\n      sub\n      dup3\n      mstore\n      0x2a\n      dup2\n      mstore\n      0x20\n      add\n      dup1\n      data_22f7af55a509c3b14f0d528f087748dec8a8bf425135e3f5dc28c6a31ec6d812\n      0x2a\n      swap2\n      codecopy\n      0x40\n      add\n      swap2\n      pop\n      pop\n      mload(0x40)\n      dup1\n      swap2\n      sub\n      swap1\n      revert\n    tag_157:\n        /* \"feg.sol\":19387:19406  uint256 currentRate */\n      0x00\n        /* \"feg.sol\":19410:19420  _getRate() */\n      tag_158\n        /* \"feg.sol\":19410:19418  _getRate */\n      tag_159\n        /* \"feg.sol\":19410:19420  _getRate() */\n      jump\t// in\n    tag_158:\n        /* \"feg.sol\":19387:19420  uint256 currentRate =  _getRate() */\n      swap1\n      pop\n        /* \"feg.sol\":19437:19461  rAmount.div(currentRate) */\n      tag_160\n        /* \"feg.sol\":19449:19460  currentRate */\n      dup2\n        /* \"feg.sol\":19437:19444  rAmount */\n      dup5\n        /* \"feg.sol\":19437:19448  rAmount.div */\n      tag_161\n      swap1\n        /* \"feg.sol\":19437:19461  rAmount.div(currentRate) */\n      swap2\n      swap1\n      0xffffffff\n      and\n      jump\t// in\n    tag_160:\n        /* \"feg.sol\":19430:19461  return rAmount.div(currentRate) */\n      swap2\n      pop\n      pop\n        /* \"feg.sol\":19219:19468  function tokenFromReflection(uint256 rAmount) public view returns(uint256) {... */\n      swap2\n      swap1\n      pop\n      jump\t// out\n        /* \"feg.sol\":16532:16613  function decimals() public view returns (uint8) {... */\n    tag_72:\n        /* \"feg.sol\":16573:16578  uint8 */\n      0x00\n        /* \"feg.sol\":16597:16606  _decimals */\n      0x0a\n      0x00\n      swap1\n      sload\n      swap1\n      0x0100\n      exp\n      swap1\n      div\n      0xff\n      and\n        /* \"feg.sol\":16590:16606  return _decimals */\n      swap1\n      pop\n        /* \"feg.sol\":16532:16613  function decimals() public view returns (uint8) {... */\n      swap1\n      jump\t// out\n        /* \"feg.sol\":17715:17930  function increaseAllowance(address spender, uint256 addedValue) public virtual returns (bool) {... */\n    tag_75:\n        /* \"feg.sol\":17803:17807  bool */\n      0x00\n        /* \"feg.sol\":17819:17902  _approve(_msgSender(), spender, _allowances[_msgSender()][spender].add(addedValue)) */\n      tag_164\n        /* \"feg.sol\":17828:17840  _msgSender() */\n      tag_165\n        /* \"feg.sol\":17828:17838  _msgSender */\n      tag_129\n        /* \"feg.sol\":17828:17840  _msgSender() */\n      jump\t// in\n    tag_165:\n        /* \"feg.sol\":17842:17849  spender */\n      dup5\n        /* \"feg.sol\":17851:17901  _allowances[_msgSender()][spender].add(addedValue) */\n      tag_166\n        /* \"feg.sol\":17890:17900  addedValue */\n      dup6\n        /* \"feg.sol\":17851:17862  _allowances */\n      0x03\n        /* \"feg.sol\":17851:17876  _allowances[_msgSender()] */\n      0x00\n        /* \"feg.sol\":17863:17875  _msgSender() */\n      tag_167\n        /* \"feg.sol\":17863:17873  _msgSender */\n      tag_129\n        /* \"feg.sol\":17863:17875  _msgSender() */\n      jump\t// in\n    tag_167:\n        /* \"feg.sol\":17851:17876  _allowances[_msgSender()] */\n      0xffffffffffffffffffffffffffffffffffffffff\n      and\n      0xffffffffffffffffffffffffffffffffffffffff\n      and\n      dup2\n      mstore\n      0x20\n      add\n      swap1\n      dup2\n      mstore\n      0x20\n      add\n      0x00\n      keccak256\n        /* \"feg.sol\":17851:17885  _allowances[_msgSender()][spender] */\n      0x00\n        /* \"feg.sol\":17877:17884  spender */\n      dup10\n        /* \"feg.sol\":17851:17885  _allowances[_msgSender()][spender] */\n      0xffffffffffffffffffffffffffffffffffffffff\n      and\n      0xffffffffffffffffffffffffffffffffffffffff\n      and\n      dup2\n      mstore\n      0x20\n      add\n      swap1\n      dup2\n      mstore\n      0x20\n      add\n      0x00\n      keccak256\n      sload\n        /* \"feg.sol\":17851:17889  _allowances[_msgSender()][spender].add */\n      tag_137\n      swap1\n        /* \"feg.sol\":17851:17901  _allowances[_msgSender()][spender].add(addedValue) */\n      swap2\n      swap1\n      0xffffffff\n      and\n      jump\t// in\n    tag_166:\n        /* \"feg.sol\":17819:17827  _approve */\n      tag_145\n        /* \"feg.sol\":17819:17902  _approve(_msgSender(), spender, _allowances[_msgSender()][spender].add(addedValue)) */\n      jump\t// in\n    tag_164:\n        /* \"feg.sol\":17919:17923  true */\n      0x01\n        /* \"feg.sol\":17912:17923  return true */\n      swap1\n      pop\n        /* \"feg.sol\":17715:17930  function increaseAllowance(address spender, uint256 addedValue) public virtual returns (bool) {... */\n      swap3\n      swap2\n      pop\n      pop\n      jump\t// out\n        /* \"feg.sol\":15700:15743  mapping (address => uint256) public _tOwned */\n    tag_78:\n      mstore(0x20, 0x02)\n      dup1\n      0x00\n      mstore\n      keccak256(0x00, 0x40)\n      0x00\n      swap2\n      pop\n      swap1\n      pop\n      sload\n      dup2\n      jump\t// out\n        /* \"feg.sol\":18788:19213  function reflectionFromToken(uint256 tAmount, bool deductTransferFee) public view returns(uint256) {... */\n    tag_81:\n        /* \"feg.sol\":18878:18885  uint256 */\n      0x00\n        /* \"feg.sol\":15991:16019  100000000000 * 10**6 * 10**9 */\n      0x52b7d2dcc80cd2e4000000\n        /* \"feg.sol\":18905:18912  tAmount */\n      dup4\n        /* \"feg.sol\":18905:18923  tAmount <= _tTotal */\n      gt\n      iszero\n        /* \"feg.sol\":18897:18959  require(tAmount <= _tTotal, \"Amount must be less than supply\") */\n      tag_169\n      jumpi\n      mload(0x40)\n      0x08c379a000000000000000000000000000000000000000000000000000000000\n      dup2\n      mstore\n      0x04\n      add\n      dup1\n      dup1\n      0x20\n      add\n      dup3\n      dup2\n      sub\n      dup3\n      mstore\n      0x1f\n      dup2\n      mstore\n      0x20\n      add\n      dup1\n      0x416d6f756e74206d757374206265206c657373207468616e20737570706c7900\n      dup2\n      mstore\n      pop\n      0x20\n      add\n      swap2\n      pop\n      pop\n      mload(0x40)\n      dup1\n      swap2\n      sub\n      swap1\n      revert\n    tag_169:\n        /* \"feg.sol\":18974:18991  deductTransferFee */\n      dup2\n        /* \"feg.sol\":18969:19207  if (!deductTransferFee) {... */\n      tag_170\n      jumpi\n        /* \"feg.sol\":19008:19023  uint256 rAmount */\n      0x00\n        /* \"feg.sol\":19031:19050  _getValues(tAmount) */\n      tag_171\n        /* \"feg.sol\":19042:19049  tAmount */\n      dup5\n        /* \"feg.sol\":19031:19041  _getValues */\n      tag_132\n        /* \"feg.sol\":19031:19050  _getValues(tAmount) */\n      jump\t// in\n    tag_171:\n        /* \"feg.sol\":19007:19050  (uint256 rAmount,,,,) = _getValues(tAmount) */\n      pop\n      pop\n      pop\n      pop\n      swap1\n      pop\n        /* \"feg.sol\":19071:19078  rAmount */\n      dup1\n        /* \"feg.sol\":19064:19078  return rAmount */\n      swap2\n      pop\n      pop\n      jump(tag_168)\n        /* \"feg.sol\":18969:19207  if (!deductTransferFee) {... */\n    tag_170:\n        /* \"feg.sol\":19111:19134  uint256 rTransferAmount */\n      0x00\n        /* \"feg.sol\":19141:19160  _getValues(tAmount) */\n      tag_173\n        /* \"feg.sol\":19152:19159  tAmount */\n      dup5\n        /* \"feg.sol\":19141:19151  _getValues */\n      tag_132\n        /* \"feg.sol\":19141:19160  _getValues(tAmount) */\n      jump\t// in\n    tag_173:\n        /* \"feg.sol\":19109:19160  (,uint256 rTransferAmount,,,) = _getValues(tAmount) */\n      pop\n      pop\n      pop\n      swap2\n      pop\n      pop\n        /* \"feg.sol\":19181:19196  rTransferAmount */\n      dup1\n        /* \"feg.sol\":19174:19196  return rTransferAmount */\n      swap2\n      pop\n      pop\n        /* \"feg.sol\":18788:19213  function reflectionFromToken(uint256 tAmount, bool deductTransferFee) public view returns(uint256) {... */\n    tag_168:\n      swap3\n      swap2\n      pop\n      pop\n      jump\t// out\n        /* \"feg.sol\":16025:16073  uint256 public _rTotal = (MAX - (MAX % _tTotal)) */\n    tag_83:\n      sload(0x06)\n      dup2\n      jump\t// out\n        /* \"feg.sol\":15874:15900  address[] public _excluded */\n    tag_86:\n      0x05\n      dup2\n      dup2\n      sload\n      dup2\n      lt\n      tag_174\n      jumpi\n      invalid\n    tag_174:\n      swap1\n      0x00\n      mstore\n      keccak256(0x00, 0x20)\n      add\n      0x00\n      swap2\n      pop\n      sload\n      swap1\n      0x0100\n      exp\n      swap1\n      div\n      0xffffffffffffffffffffffffffffffffffffffff\n      and\n      dup2\n      jump\t// out\n        /* \"feg.sol\":16718:16913  function balanceOf(address account) public view override returns (uint256) {... */\n    tag_89:\n        /* \"feg.sol\":16784:16791  uint256 */\n      0x00\n        /* \"feg.sol\":16807:16818  _isExcluded */\n      0x04\n        /* \"feg.sol\":16807:16827  _isExcluded[account] */\n      0x00\n        /* \"feg.sol\":16819:16826  account */\n      dup4\n        /* \"feg.sol\":16807:16827  _isExcluded[account] */\n      0xffffffffffffffffffffffffffffffffffffffff\n      and\n      0xffffffffffffffffffffffffffffffffffffffff\n      and\n      dup2\n      mstore\n      0x20\n      add\n      swap1\n      dup2\n      mstore\n      0x20\n      add\n      0x00\n      keccak256\n      0x00\n      swap1\n      sload\n      swap1\n      0x0100\n      exp\n      swap1\n      div\n      0xff\n      and\n        /* \"feg.sol\":16803:16852  if (_isExcluded[account]) return _tOwned[account] */\n      iszero\n      tag_177\n      jumpi\n        /* \"feg.sol\":16836:16843  _tOwned */\n      0x02\n        /* \"feg.sol\":16836:16852  _tOwned[account] */\n      0x00\n        /* \"feg.sol\":16844:16851  account */\n      dup4\n        /* \"feg.sol\":16836:16852  _tOwned[account] */\n      0xffffffffffffffffffffffffffffffffffffffff\n      and\n      0xffffffffffffffffffffffffffffffffffffffff\n      and\n      dup2\n      mstore\n      0x20\n      add\n      swap1\n      dup2\n      mstore\n      0x20\n      add\n      0x00\n      keccak256\n      sload\n        /* \"feg.sol\":16829:16852  return _tOwned[account] */\n      swap1\n      pop\n      jump(tag_176)\n        /* \"feg.sol\":16803:16852  if (_isExcluded[account]) return _tOwned[account] */\n    tag_177:\n        /* \"feg.sol\":16869:16906  tokenFromReflection(_rOwned[account]) */\n      tag_178\n        /* \"feg.sol\":16889:16896  _rOwned */\n      0x01\n        /* \"feg.sol\":16889:16905  _rOwned[account] */\n      0x00\n        /* \"feg.sol\":16897:16904  account */\n      dup5\n        /* \"feg.sol\":16889:16905  _rOwned[account] */\n      0xffffffffffffffffffffffffffffffffffffffff\n      and\n      0xffffffffffffffffffffffffffffffffffffffff\n      and\n      dup2\n      mstore\n      0x20\n      add\n      swap1\n      dup2\n      mstore\n      0x20\n      add\n      0x00\n      keccak256\n      sload\n        /* \"feg.sol\":16869:16888  tokenFromReflection */\n      tag_70\n        /* \"feg.sol\":16869:16906  tokenFromReflection(_rOwned[account]) */\n      jump\t// in\n    tag_178:\n        /* \"feg.sol\":16862:16906  return tokenFromReflection(_rOwned[account]) */\n      swap1\n      pop\n        /* \"feg.sol\":16718:16913  function balanceOf(address account) public view override returns (uint256) {... */\n    tag_176:\n      swap2\n      swap1\n      pop\n      jump\t// out\n        /* \"feg.sol\":15000:15145  function renounceOwnership() public virtual onlyOwner {... */\n    tag_91:\n        /* \"feg.sol\":14591:14603  _msgSender() */\n      tag_180\n        /* \"feg.sol\":14591:14601  _msgSender */\n      tag_129\n        /* \"feg.sol\":14591:14603  _msgSender() */\n      jump\t// in\n    tag_180:\n        /* \"feg.sol\":14581:14603  _owner == _msgSender() */\n      0xffffffffffffffffffffffffffffffffffffffff\n      and\n        /* \"feg.sol\":14581:14587  _owner */\n      0x00\n      dup1\n      sload\n      swap1\n      0x0100\n      exp\n      swap1\n      div\n      0xffffffffffffffffffffffffffffffffffffffff\n      and\n        /* \"feg.sol\":14581:14603  _owner == _msgSender() */\n      0xffffffffffffffffffffffffffffffffffffffff\n      and\n      eq\n        /* \"feg.sol\":14573:14640  require(_owner == _msgSender(), \"Ownable: caller is not the owner\") */\n      tag_181\n      jumpi\n      mload(0x40)\n      0x08c379a000000000000000000000000000000000000000000000000000000000\n      dup2\n      mstore\n      0x04\n      add\n      dup1\n      dup1\n      0x20\n      add\n      dup3\n      dup2\n      sub\n      dup3\n      mstore\n      0x20\n      dup2\n      mstore\n      0x20\n      add\n      dup1\n      0x4f776e61626c653a2063616c6c6572206973206e6f7420746865206f776e6572\n      dup2\n      mstore\n      pop\n      0x20\n      add\n      swap2\n      pop\n      pop\n      mload(0x40)\n      dup1\n      swap2\n      sub\n      swap1\n      revert\n    tag_181:\n        /* \"feg.sol\":15106:15107  0 */\n      0x00\n        /* \"feg.sol\":15069:15109  OwnershipTransferred(_owner, address(0)) */\n      0xffffffffffffffffffffffffffffffffffffffff\n      and\n        /* \"feg.sol\":15090:15096  _owner */\n      0x00\n      dup1\n      sload\n      swap1\n      0x0100\n      exp\n      swap1\n      div\n      0xffffffffffffffffffffffffffffffffffffffff\n      and\n        /* \"feg.sol\":15069:15109  OwnershipTransferred(_owner, address(0)) */\n      0xffffffffffffffffffffffffffffffffffffffff\n      and\n      0x8be0079c531659141344cd1fd0a4f28419497f9722a3daafe3b4186f6b6457e0\n      mload(0x40)\n      mload(0x40)\n      dup1\n      swap2\n      sub\n      swap1\n      log3\n        /* \"feg.sol\":15136:15137  0 */\n      0x00\n        /* \"feg.sol\":15119:15125  _owner */\n      dup1\n      0x00\n        /* \"feg.sol\":15119:15138  _owner = address(0) */\n      0x0100\n      exp\n      dup2\n      sload\n      dup2\n      0xffffffffffffffffffffffffffffffffffffffff\n      mul\n      not\n      and\n      swap1\n      dup4\n      0xffffffffffffffffffffffffffffffffffffffff\n      and\n      mul\n      or\n      swap1\n      sstore\n      pop\n        /* \"feg.sol\":15000:15145  function renounceOwnership() public virtual onlyOwner {... */\n      jump\t// out\n        /* \"feg.sol\":14377:14454  function owner() public view returns (address) {... */\n    tag_93:\n        /* \"feg.sol\":14415:14422  address */\n      0x00\n        /* \"feg.sol\":14441:14447  _owner */\n      dup1\n      0x00\n      swap1\n      sload\n      swap1\n      0x0100\n      exp\n      swap1\n      div\n      0xffffffffffffffffffffffffffffffffffffffff\n      and\n        /* \"feg.sol\":14434:14447  return _owner */\n      swap1\n      pop\n        /* \"feg.sol\":14377:14454  function owner() public view returns (address) {... */\n      swap1\n      jump\t// out\n        /* \"feg.sol\":16441:16526  function symbol() public view returns (string memory) {... */\n    tag_95:\n        /* \"feg.sol\":16480:16493  string memory */\n      0x60\n        /* \"feg.sol\":16512:16519  _symbol */\n      0x09\n        /* \"feg.sol\":16505:16519  return _symbol */\n      dup1\n      sload\n      0x01\n      dup2\n      0x01\n      and\n      iszero\n      0x0100\n      mul\n      sub\n      and\n      0x02\n      swap1\n      div\n      dup1\n      0x1f\n      add\n      0x20\n      dup1\n      swap2\n      div\n      mul\n      0x20\n      add\n      mload(0x40)\n      swap1\n      dup2\n      add\n      0x40\n      mstore\n      dup1\n      swap3\n      swap2\n      swap1\n      dup2\n      dup2\n      mstore\n      0x20\n      add\n      dup3\n      dup1\n      sload\n      0x01\n      dup2\n      0x01\n      and\n      iszero\n      0x0100\n      mul\n      sub\n      and\n      0x02\n      swap1\n      div\n      dup1\n      iszero\n      tag_185\n      jumpi\n      dup1\n      0x1f\n      lt\n      tag_186\n      jumpi\n      0x0100\n      dup1\n      dup4\n      sload\n      div\n      mul\n      dup4\n      mstore\n      swap2\n      0x20\n      add\n      swap2\n      jump(tag_185)\n    tag_186:\n      dup3\n      add\n      swap2\n      swap1\n      0x00\n      mstore\n      keccak256(0x00, 0x20)\n      swap1\n    tag_187:\n      dup2\n      sload\n      dup2\n      mstore\n      swap1\n      0x01\n      add\n      swap1\n      0x20\n      add\n      dup1\n      dup4\n      gt\n      tag_187\n      jumpi\n      dup3\n      swap1\n      sub\n      0x1f\n      and\n      dup3\n      add\n      swap2\n    tag_185:\n      pop\n      pop\n      pop\n      pop\n      pop\n      swap1\n      pop\n        /* \"feg.sol\":16441:16526  function symbol() public view returns (string memory) {... */\n      swap1\n      jump\t// out\n        /* \"feg.sol\":17936:18202  function decreaseAllowance(address spender, uint256 subtractedValue) public virtual returns (bool) {... */\n    tag_102:\n        /* \"feg.sol\":18029:18033  bool */\n      0x00\n        /* \"feg.sol\":18045:18174  _approve(_msgSender(), spender, _allowances[_msgSender()][spender].sub(subtractedValue, \"ERC20: decreased allowance below zero\")) */\n      tag_189\n        /* \"feg.sol\":18054:18066  _msgSender() */\n      tag_190\n        /* \"feg.sol\":18054:18064  _msgSender */\n      tag_129\n        /* \"feg.sol\":18054:18066  _msgSender() */\n      jump\t// in\n    tag_190:\n        /* \"feg.sol\":18068:18075  spender */\n      dup5\n        /* \"feg.sol\":18077:18173  _allowances[_msgSender()][spender].sub(subtractedValue, \"ERC20: decreased allowance below zero\") */\n      tag_191\n        /* \"feg.sol\":18116:18131  subtractedValue */\n      dup6\n        /* \"feg.sol\":18077:18173  _allowances[_msgSender()][spender].sub(subtractedValue, \"ERC20: decreased allowance below zero\") */\n      mload(0x40)\n      dup1\n      0x60\n      add\n      0x40\n      mstore\n      dup1\n      0x25\n      dup2\n      mstore\n      0x20\n      add\n      data_f8b476f7d28209d77d4a4ac1fe36b9f8259aa1bb6bddfa6e89de7e51615cf8a8\n      0x25\n      swap2\n      codecopy\n        /* \"feg.sol\":18077:18088  _allowances */\n      0x03\n        /* \"feg.sol\":18077:18102  _allowances[_msgSender()] */\n      0x00\n        /* \"feg.sol\":18089:18101  _msgSender() */\n      tag_192\n        /* \"feg.sol\":18089:18099  _msgSender */\n      tag_129\n        /* \"feg.sol\":18089:18101  _msgSender() */\n      jump\t// in\n    tag_192:\n        /* \"feg.sol\":18077:18102  _allowances[_msgSender()] */\n      0xffffffffffffffffffffffffffffffffffffffff\n      and\n      0xffffffffffffffffffffffffffffffffffffffff\n      and\n      dup2\n      mstore\n      0x20\n      add\n      swap1\n      dup2\n      mstore\n      0x20\n      add\n      0x00\n      keccak256\n        /* \"feg.sol\":18077:18111  _allowances[_msgSender()][spender] */\n      0x00\n        /* \"feg.sol\":18103:18110  spender */\n      dup11\n        /* \"feg.sol\":18077:18111  _allowances[_msgSender()][spender] */\n      0xffffffffffffffffffffffffffffffffffffffff\n      and\n      0xffffffffffffffffffffffffffffffffffffffff\n      and\n      dup2\n      mstore\n      0x20\n      add\n      swap1\n      dup2\n      mstore\n      0x20\n      add\n      0x00\n      keccak256\n      sload\n        /* \"feg.sol\":18077:18115  _allowances[_msgSender()][spender].sub */\n      tag_155\n      swap1\n        /* \"feg.sol\":18077:18173  _allowances[_msgSender()][spender].sub(subtractedValue, \"ERC20: decreased allowance below zero\") */\n      swap3\n      swap2\n      swap1\n      0xffffffff\n      and\n      jump\t// in\n    tag_191:\n        /* \"feg.sol\":18045:18053  _approve */\n      tag_145\n        /* \"feg.sol\":18045:18174  _approve(_msgSender(), spender, _allowances[_msgSender()][spender].sub(subtractedValue, \"ERC20: decreased allowance below zero\")) */\n      jump\t// in\n    tag_189:\n        /* \"feg.sol\":18191:18195  true */\n      0x01\n        /* \"feg.sol\":18184:18195  return true */\n      swap1\n      pop\n        /* \"feg.sol\":17936:18202  function decreaseAllowance(address spender, uint256 subtractedValue) public virtual returns (bool) {... */\n      swap3\n      swap2\n      pop\n      pop\n      jump\t// out\n        /* \"feg.sol\":16919:17083  function transfer(address recipient, uint256 amount) public override returns (bool) {... */\n    tag_105:\n        /* \"feg.sol\":16997:17001  bool */\n      0x00\n        /* \"feg.sol\":17013:17055  _transfer(_msgSender(), recipient, amount) */\n      tag_194\n        /* \"feg.sol\":17023:17035  _msgSender() */\n      tag_195\n        /* \"feg.sol\":17023:17033  _msgSender */\n      tag_129\n        /* \"feg.sol\":17023:17035  _msgSender() */\n      jump\t// in\n    tag_195:\n        /* \"feg.sol\":17037:17046  recipient */\n      dup5\n        /* \"feg.sol\":17048:17054  amount */\n      dup5\n        /* \"feg.sol\":17013:17022  _transfer */\n      tag_150\n        /* \"feg.sol\":17013:17055  _transfer(_msgSender(), recipient, amount) */\n      jump\t// in\n    tag_194:\n        /* \"feg.sol\":17072:17076  true */\n      0x01\n        /* \"feg.sol\":17065:17076  return true */\n      swap1\n      pop\n        /* \"feg.sol\":16919:17083  function transfer(address recipient, uint256 amount) public override returns (bool) {... */\n      swap3\n      swap2\n      pop\n      pop\n      jump\t// out\n        /* \"feg.sol\":15957:16019  uint256 public constant _tTotal = 100000000000 * 10**6 * 10**9 */\n    tag_107:\n        /* \"feg.sol\":15991:16019  100000000000 * 10**6 * 10**9 */\n      0x52b7d2dcc80cd2e4000000\n        /* \"feg.sol\":15957:16019  uint256 public constant _tTotal = 100000000000 * 10**6 * 10**9 */\n      dup2\n      jump\t// out\n        /* \"feg.sol\":18208:18316  function isExcluded(address account) public view returns (bool) {... */\n    tag_110:\n        /* \"feg.sol\":18266:18270  bool */\n      0x00\n        /* \"feg.sol\":18289:18300  _isExcluded */\n      0x04\n        /* \"feg.sol\":18289:18309  _isExcluded[account] */\n      0x00\n        /* \"feg.sol\":18301:18308  account */\n      dup4\n        /* \"feg.sol\":18289:18309  _isExcluded[account] */\n      0xffffffffffffffffffffffffffffffffffffffff\n      and\n      0xffffffffffffffffffffffffffffffffffffffff\n      and\n      dup2\n      mstore\n      0x20\n      add\n      swap1\n      dup2\n      mstore\n      0x20\n      add\n      0x00\n      keccak256\n      0x00\n      swap1\n      sload\n      swap1\n      0x0100\n      exp\n      swap1\n      div\n      0xff\n      and\n        /* \"feg.sol\":18282:18309  return _isExcluded[account] */\n      swap1\n      pop\n        /* \"feg.sol\":18208:18316  function isExcluded(address account) public view returns (bool) {... */\n      swap2\n      swap1\n      pop\n      jump\t// out\n        /* \"feg.sol\":15910:15951  uint256 public constant MAX = ~uint256(0) */\n    tag_112:\n        /* \"feg.sol\":15949:15950  0 */\n      0x00\n        /* \"feg.sol\":15940:15951  ~uint256(0) */\n      not\n        /* \"feg.sol\":15910:15951  uint256 public constant MAX = ~uint256(0) */\n      dup2\n      jump\t// out\n        /* \"feg.sol\":17089:17230  function allowance(address owner, address spender) public view override returns (uint256) {... */\n    tag_115:\n        /* \"feg.sol\":17170:17177  uint256 */\n      0x00\n        /* \"feg.sol\":17196:17207  _allowances */\n      0x03\n        /* \"feg.sol\":17196:17214  _allowances[owner] */\n      0x00\n        /* \"feg.sol\":17208:17213  owner */\n      dup5\n        /* \"feg.sol\":17196:17214  _allowances[owner] */\n      0xffffffffffffffffffffffffffffffffffffffff\n      and\n      0xffffffffffffffffffffffffffffffffffffffff\n      and\n      dup2\n      mstore\n      0x20\n      add\n      swap1\n      dup2\n      mstore\n      0x20\n      add\n      0x00\n      keccak256\n        /* \"feg.sol\":17196:17223  _allowances[owner][spender] */\n      0x00\n        /* \"feg.sol\":17215:17222  spender */\n      dup4\n        /* \"feg.sol\":17196:17223  _allowances[owner][spender] */\n      0xffffffffffffffffffffffffffffffffffffffff\n      and\n      0xffffffffffffffffffffffffffffffffffffffff\n      and\n      dup2\n      mstore\n      0x20\n      add\n      swap1\n      dup2\n      mstore\n      0x20\n      add\n      0x00\n      keccak256\n      sload\n        /* \"feg.sol\":17189:17223  return _allowances[owner][spender] */\n      swap1\n      pop\n        /* \"feg.sol\":17089:17230  function allowance(address owner, address spender) public view override returns (uint256) {... */\n      swap3\n      swap2\n      pop\n      pop\n      jump\t// out\n        /* \"feg.sol\":19474:19799  function excludeAccount(address account) external onlyOwner() {... */\n    tag_118:\n        /* \"feg.sol\":14591:14603  _msgSender() */\n      tag_199\n        /* \"feg.sol\":14591:14601  _msgSender */\n      tag_129\n        /* \"feg.sol\":14591:14603  _msgSender() */\n      jump\t// in\n    tag_199:\n        /* \"feg.sol\":14581:14603  _owner == _msgSender() */\n      0xffffffffffffffffffffffffffffffffffffffff\n      and\n        /* \"feg.sol\":14581:14587  _owner */\n      0x00\n      dup1\n      sload\n      swap1\n      0x0100\n      exp\n      swap1\n      div\n      0xffffffffffffffffffffffffffffffffffffffff\n      and\n        /* \"feg.sol\":14581:14603  _owner == _msgSender() */\n      0xffffffffffffffffffffffffffffffffffffffff\n      and\n      eq\n        /* \"feg.sol\":14573:14640  require(_owner == _msgSender(), \"Ownable: caller is not the owner\") */\n      tag_200\n      jumpi\n      mload(0x40)\n      0x08c379a000000000000000000000000000000000000000000000000000000000\n      dup2\n      mstore\n      0x04\n      add\n      dup1\n      dup1\n      0x20\n      add\n      dup3\n      dup2\n      sub\n      dup3\n      mstore\n      0x20\n      dup2\n      mstore\n      0x20\n      add\n      dup1\n      0x4f776e61626c653a2063616c6c6572206973206e6f7420746865206f776e6572\n      dup2\n      mstore\n      pop\n      0x20\n      add\n      swap2\n      pop\n      pop\n      mload(0x40)\n      dup1\n      swap2\n      sub\n      swap1\n      revert\n    tag_200:\n        /* \"feg.sol\":19555:19566  _isExcluded */\n      0x04\n        /* \"feg.sol\":19555:19575  _isExcluded[account] */\n      0x00\n        /* \"feg.sol\":19567:19574  account */\n      dup3\n        /* \"feg.sol\":19555:19575  _isExcluded[account] */\n      0xffffffffffffffffffffffffffffffffffffffff\n      and\n      0xffffffffffffffffffffffffffffffffffffffff\n      and\n      dup2\n      mstore\n      0x20\n      add\n      swap1\n      dup2\n      mstore\n      0x20\n      add\n      0x00\n      keccak256\n      0x00\n      swap1\n      sload\n      swap1\n      0x0100\n      exp\n      swap1\n      div\n      0xff\n      and\n        /* \"feg.sol\":19554:19575  !_isExcluded[account] */\n      iszero\n        /* \"feg.sol\":19546:19607  require(!_isExcluded[account], \"Account is already excluded\") */\n      tag_202\n      jumpi\n      mload(0x40)\n      0x08c379a000000000000000000000000000000000000000000000000000000000\n      dup2\n      mstore\n      0x04\n      add\n      dup1\n      dup1\n      0x20\n      add\n      dup3\n      dup2\n      sub\n      dup3\n      mstore\n      0x1b\n      dup2\n      mstore\n      0x20\n      add\n      dup1\n      0x4163636f756e7420697320616c7265616479206578636c756465640000000000\n      dup2\n      mstore\n      pop\n      0x20\n      add\n      swap2\n      pop\n      pop\n      mload(0x40)\n      dup1\n      swap2\n      sub\n      swap1\n      revert\n    tag_202:\n        /* \"feg.sol\":19639:19640  0 */\n      0x00\n        /* \"feg.sol\":19620:19627  _rOwned */\n      0x01\n        /* \"feg.sol\":19620:19636  _rOwned[account] */\n      0x00\n        /* \"feg.sol\":19628:19635  account */\n      dup4\n        /* \"feg.sol\":19620:19636  _rOwned[account] */\n      0xffffffffffffffffffffffffffffffffffffffff\n      and\n      0xffffffffffffffffffffffffffffffffffffffff\n      and\n      dup2\n      mstore\n      0x20\n      add\n      swap1\n      dup2\n      mstore\n      0x20\n      add\n      0x00\n      keccak256\n      sload\n        /* \"feg.sol\":19620:19640  _rOwned[account] > 0 */\n      gt\n        /* \"feg.sol\":19617:19723  if(_rOwned[account] > 0) {... */\n      iszero\n      tag_203\n      jumpi\n        /* \"feg.sol\":19675:19712  tokenFromReflection(_rOwned[account]) */\n      tag_204\n        /* \"feg.sol\":19695:19702  _rOwned */\n      0x01\n        /* \"feg.sol\":19695:19711  _rOwned[account] */\n      0x00\n        /* \"feg.sol\":19703:19710  account */\n      dup4\n        /* \"feg.sol\":19695:19711  _rOwned[account] */\n      0xffffffffffffffffffffffffffffffffffffffff\n      and\n      0xffffffffffffffffffffffffffffffffffffffff\n      and\n      dup2\n      mstore\n      0x20\n      add\n      swap1\n      dup2\n      mstore\n      0x20\n      add\n      0x00\n      keccak256\n      sload\n        /* \"feg.sol\":19675:19694  tokenFromReflection */\n      tag_70\n        /* \"feg.sol\":19675:19712  tokenFromReflection(_rOwned[account]) */\n      jump\t// in\n    tag_204:\n        /* \"feg.sol\":19656:19663  _tOwned */\n      0x02\n        /* \"feg.sol\":19656:19672  _tOwned[account] */\n      0x00\n        /* \"feg.sol\":19664:19671  account */\n      dup4\n        /* \"feg.sol\":19656:19672  _tOwned[account] */\n      0xffffffffffffffffffffffffffffffffffffffff\n      and\n      0xffffffffffffffffffffffffffffffffffffffff\n      and\n      dup2\n      mstore\n      0x20\n      add\n      swap1\n      dup2\n      mstore\n      0x20\n      add\n      0x00\n      keccak256\n        /* \"feg.sol\":19656:19712  _tOwned[account] = tokenFromReflection(_rOwned[account]) */\n      dup2\n      swap1\n      sstore\n      pop\n        /* \"feg.sol\":19617:19723  if(_rOwned[account] > 0) {... */\n    tag_203:\n        /* \"feg.sol\":19755:19759  true */\n      0x01\n        /* \"feg.sol\":19732:19743  _isExcluded */\n      0x04\n        /* \"feg.sol\":19732:19752  _isExcluded[account] */\n      0x00\n        /* \"feg.sol\":19744:19751  account */\n      dup4\n        /* \"feg.sol\":19732:19752  _isExcluded[account] */\n      0xffffffffffffffffffffffffffffffffffffffff\n      and\n      0xffffffffffffffffffffffffffffffffffffffff\n      and\n      dup2\n      mstore\n      0x20\n      add\n      swap1\n      dup2\n      mstore\n      0x20\n      add\n      0x00\n      keccak256\n      0x00\n        /* \"feg.sol\":19732:19759  _isExcluded[account] = true */\n      0x0100\n      exp\n      dup2\n      sload\n      dup2\n      0xff\n      mul\n      not\n      and\n      swap1\n      dup4\n      iszero\n      iszero\n      mul\n      or\n      swap1\n      sstore\n      pop\n        /* \"feg.sol\":19769:19778  _excluded */\n      0x05\n        /* \"feg.sol\":19784:19791  account */\n      dup2\n        /* \"feg.sol\":19769:19792  _excluded.push(account) */\n      swap1\n      dup1\n      0x01\n      dup2\n      sload\n      add\n      dup1\n      dup3\n      sstore\n      dup1\n      swap2\n      pop\n      pop\n      0x01\n      swap1\n      sub\n      swap1\n      0x00\n      mstore\n      keccak256(0x00, 0x20)\n      add\n      0x00\n      swap1\n      swap2\n      swap1\n      swap2\n      swap1\n      swap2\n      0x0100\n      exp\n      dup2\n      sload\n      dup2\n      0xffffffffffffffffffffffffffffffffffffffff\n      mul\n      not\n      and\n      swap1\n      dup4\n      0xffffffffffffffffffffffffffffffffffffffff\n      and\n      mul\n      or\n      swap1\n      sstore\n      pop\n        /* \"feg.sol\":19474:19799  function excludeAccount(address account) external onlyOwner() {... */\n      pop\n      jump\t// out\n        /* \"feg.sol\":15294:15534  function transferOwnership(address newOwner) public virtual onlyOwner {... */\n    tag_121:\n        /* \"feg.sol\":14591:14603  _msgSender() */\n      tag_207\n        /* \"feg.sol\":14591:14601  _msgSender */\n      tag_129\n        /* \"feg.sol\":14591:14603  _msgSender() */\n      jump\t// in\n    tag_207:\n        /* \"feg.sol\":14581:14603  _owner == _msgSender() */\n      0xffffffffffffffffffffffffffffffffffffffff\n      and\n        /* \"feg.sol\":14581:14587  _owner */\n      0x00\n      dup1\n      sload\n      swap1\n      0x0100\n      exp\n      swap1\n      div\n      0xffffffffffffffffffffffffffffffffffffffff\n      and\n        /* \"feg.sol\":14581:14603  _owner == _msgSender() */\n      0xffffffffffffffffffffffffffffffffffffffff\n      and\n      eq\n        /* \"feg.sol\":14573:14640  require(_owner == _msgSender(), \"Ownable: caller is not the owner\") */\n      tag_208\n      jumpi\n      mload(0x40)\n      0x08c379a000000000000000000000000000000000000000000000000000000000\n      dup2\n      mstore\n      0x04\n      add\n      dup1\n      dup1\n      0x20\n      add\n      dup3\n      dup2\n      sub\n      dup3\n      mstore\n      0x20\n      dup2\n      mstore\n      0x20\n      add\n      dup1\n      0x4f776e61626c653a2063616c6c6572206973206e6f7420746865206f776e6572\n      dup2\n      mstore\n      pop\n      0x20\n      add\n      swap2\n      pop\n      pop\n      mload(0x40)\n      dup1\n      swap2\n      sub\n      swap1\n      revert\n    tag_208:\n        /* \"feg.sol\":15402:15403  0 */\n      0x00\n        /* \"feg.sol\":15382:15404  newOwner != address(0) */\n      0xffffffffffffffffffffffffffffffffffffffff\n      and\n        /* \"feg.sol\":15382:15390  newOwner */\n      dup2\n        /* \"feg.sol\":15382:15404  newOwner != address(0) */\n      0xffffffffffffffffffffffffffffffffffffffff\n      and\n      eq\n      iszero\n        /* \"feg.sol\":15374:15447  require(newOwner != address(0), \"Ownable: new owner is the zero address\") */\n      tag_210\n      jumpi\n      mload(0x40)\n      0x08c379a000000000000000000000000000000000000000000000000000000000\n      dup2\n      mstore\n      0x04\n      add\n      dup1\n      dup1\n      0x20\n      add\n      dup3\n      dup2\n      sub\n      dup3\n      mstore\n      0x26\n      dup2\n      mstore\n      0x20\n      add\n      dup1\n      data_245f15ff17f551913a7a18385165551503906a406f905ac1c2437281a7cd0cfe\n      0x26\n      swap2\n      codecopy\n      0x40\n      add\n      swap2\n      pop\n      pop\n      mload(0x40)\n      dup1\n      swap2\n      sub\n      swap1\n      revert\n    tag_210:\n        /* \"feg.sol\":15491:15499  newOwner */\n      dup1\n        /* \"feg.sol\":15462:15500  OwnershipTransferred(_owner, newOwner) */\n      0xffffffffffffffffffffffffffffffffffffffff\n      and\n        /* \"feg.sol\":15483:15489  _owner */\n      0x00\n      dup1\n      sload\n      swap1\n      0x0100\n      exp\n      swap1\n      div\n      0xffffffffffffffffffffffffffffffffffffffff\n      and\n        /* \"feg.sol\":15462:15500  OwnershipTransferred(_owner, newOwner) */\n      0xffffffffffffffffffffffffffffffffffffffff\n      and\n      0x8be0079c531659141344cd1fd0a4f28419497f9722a3daafe3b4186f6b6457e0\n      mload(0x40)\n      mload(0x40)\n      dup1\n      swap2\n      sub\n      swap1\n      log3\n        /* \"feg.sol\":15519:15527  newOwner */\n      dup1\n        /* \"feg.sol\":15510:15516  _owner */\n      0x00\n      dup1\n        /* \"feg.sol\":15510:15527  _owner = newOwner */\n      0x0100\n      exp\n      dup2\n      sload\n      dup2\n      0xffffffffffffffffffffffffffffffffffffffff\n      mul\n      not\n      and\n      swap1\n      dup4\n      0xffffffffffffffffffffffffffffffffffffffff\n      and\n      mul\n      or\n      swap1\n      sstore\n      pop\n        /* \"feg.sol\":15294:15534  function transferOwnership(address newOwner) public virtual onlyOwner {... */\n      pop\n      jump\t// out\n        /* \"feg.sol\":19805:20272  function includeAccount(address account) external onlyOwner() {... */\n    tag_124:\n        /* \"feg.sol\":14591:14603  _msgSender() */\n      tag_212\n        /* \"feg.sol\":14591:14601  _msgSender */\n      tag_129\n        /* \"feg.sol\":14591:14603  _msgSender() */\n      jump\t// in\n    tag_212:\n        /* \"feg.sol\":14581:14603  _owner == _msgSender() */\n      0xffffffffffffffffffffffffffffffffffffffff\n      and\n        /* \"feg.sol\":14581:14587  _owner */\n      0x00\n      dup1\n      sload\n      swap1\n      0x0100\n      exp\n      swap1\n      div\n      0xffffffffffffffffffffffffffffffffffffffff\n      and\n        /* \"feg.sol\":14581:14603  _owner == _msgSender() */\n      0xffffffffffffffffffffffffffffffffffffffff\n      and\n      eq\n        /* \"feg.sol\":14573:14640  require(_owner == _msgSender(), \"Ownable: caller is not the owner\") */\n      tag_213\n      jumpi\n      mload(0x40)\n      0x08c379a000000000000000000000000000000000000000000000000000000000\n      dup2\n      mstore\n      0x04\n      add\n      dup1\n      dup1\n      0x20\n      add\n      dup3\n      dup2\n      sub\n      dup3\n      mstore\n      0x20\n      dup2\n      mstore\n      0x20\n      add\n      dup1\n      0x4f776e61626c653a2063616c6c6572206973206e6f7420746865206f776e6572\n      dup2\n      mstore\n      pop\n      0x20\n      add\n      swap2\n      pop\n      pop\n      mload(0x40)\n      dup1\n      swap2\n      sub\n      swap1\n      revert\n    tag_213:\n        /* \"feg.sol\":19885:19896  _isExcluded */\n      0x04\n        /* \"feg.sol\":19885:19905  _isExcluded[account] */\n      0x00\n        /* \"feg.sol\":19897:19904  account */\n      dup3\n        /* \"feg.sol\":19885:19905  _isExcluded[account] */\n      0xffffffffffffffffffffffffffffffffffffffff\n      and\n      0xffffffffffffffffffffffffffffffffffffffff\n      and\n      dup2\n      mstore\n      0x20\n      add\n      swap1\n      dup2\n      mstore\n      0x20\n      add\n      0x00\n      keccak256\n      0x00\n      swap1\n      sload\n      swap1\n      0x0100\n      exp\n      swap1\n      div\n      0xff\n      and\n        /* \"feg.sol\":19877:19937  require(_isExcluded[account], \"Account is already excluded\") */\n      tag_215\n      jumpi\n      mload(0x40)\n      0x08c379a000000000000000000000000000000000000000000000000000000000\n      dup2\n      mstore\n      0x04\n      add\n      dup1\n      dup1\n      0x20\n      add\n      dup3\n      dup2\n      sub\n      dup3\n      mstore\n      0x1b\n      dup2\n      mstore\n      0x20\n      add\n      dup1\n      0x4163636f756e7420697320616c7265616479206578636c756465640000000000\n      dup2\n      mstore\n      pop\n      0x20\n      add\n      swap2\n      pop\n      pop\n      mload(0x40)\n      dup1\n      swap2\n      sub\n      swap1\n      revert\n    tag_215:\n        /* \"feg.sol\":19952:19961  uint256 i */\n      0x00\n        /* \"feg.sol\":19947:20266  for (uint256 i = 0; i < _excluded.length; i++) {... */\n    tag_216:\n        /* \"feg.sol\":19971:19980  _excluded */\n      0x05\n        /* \"feg.sol\":19971:19987  _excluded.length */\n      dup1\n      sload\n      swap1\n      pop\n        /* \"feg.sol\":19967:19968  i */\n      dup2\n        /* \"feg.sol\":19967:19987  i < _excluded.length */\n      lt\n        /* \"feg.sol\":19947:20266  for (uint256 i = 0; i < _excluded.length; i++) {... */\n      iszero\n      tag_217\n      jumpi\n        /* \"feg.sol\":20028:20035  account */\n      dup2\n        /* \"feg.sol\":20012:20035  _excluded[i] == account */\n      0xffffffffffffffffffffffffffffffffffffffff\n      and\n        /* \"feg.sol\":20012:20021  _excluded */\n      0x05\n        /* \"feg.sol\":20022:20023  i */\n      dup3\n        /* \"feg.sol\":20012:20024  _excluded[i] */\n      dup2\n      sload\n      dup2\n      lt\n      tag_219\n      jumpi\n      invalid\n    tag_219:\n      swap1\n      0x00\n      mstore\n      keccak256(0x00, 0x20)\n      add\n      0x00\n      swap1\n      sload\n      swap1\n      0x0100\n      exp\n      swap1\n      div\n      0xffffffffffffffffffffffffffffffffffffffff\n      and\n        /* \"feg.sol\":20012:20035  _excluded[i] == account */\n      0xffffffffffffffffffffffffffffffffffffffff\n      and\n      eq\n        /* \"feg.sol\":20008:20256  if (_excluded[i] == account) {... */\n      iszero\n      tag_221\n      jumpi\n        /* \"feg.sol\":20070:20079  _excluded */\n      0x05\n        /* \"feg.sol\":20099:20100  1 */\n      0x01\n        /* \"feg.sol\":20080:20089  _excluded */\n      0x05\n        /* \"feg.sol\":20080:20096  _excluded.length */\n      dup1\n      sload\n      swap1\n      pop\n        /* \"feg.sol\":20080:20100  _excluded.length - 1 */\n      sub\n        /* \"feg.sol\":20070:20101  _excluded[_excluded.length - 1] */\n      dup2\n      sload\n      dup2\n      lt\n      tag_222\n      jumpi\n      invalid\n    tag_222:\n      swap1\n      0x00\n      mstore\n      keccak256(0x00, 0x20)\n      add\n      0x00\n      swap1\n      sload\n      swap1\n      0x0100\n      exp\n      swap1\n      div\n      0xffffffffffffffffffffffffffffffffffffffff\n      and\n        /* \"feg.sol\":20055:20064  _excluded */\n      0x05\n        /* \"feg.sol\":20065:20066  i */\n      dup3\n        /* \"feg.sol\":20055:20067  _excluded[i] */\n      dup2\n      sload\n      dup2\n      lt\n      tag_224\n      jumpi\n      invalid\n    tag_224:\n      swap1\n      0x00\n      mstore\n      keccak256(0x00, 0x20)\n      add\n      0x00\n        /* \"feg.sol\":20055:20101  _excluded[i] = _excluded[_excluded.length - 1] */\n      0x0100\n      exp\n      dup2\n      sload\n      dup2\n      0xffffffffffffffffffffffffffffffffffffffff\n      mul\n      not\n      and\n      swap1\n      dup4\n      0xffffffffffffffffffffffffffffffffffffffff\n      and\n      mul\n      or\n      swap1\n      sstore\n      pop\n        /* \"feg.sol\":20138:20139  0 */\n      0x00\n        /* \"feg.sol\":20119:20126  _tOwned */\n      0x02\n        /* \"feg.sol\":20119:20135  _tOwned[account] */\n      0x00\n        /* \"feg.sol\":20127:20134  account */\n      dup5\n        /* \"feg.sol\":20119:20135  _tOwned[account] */\n      0xffffffffffffffffffffffffffffffffffffffff\n      and\n      0xffffffffffffffffffffffffffffffffffffffff\n      and\n      dup2\n      mstore\n      0x20\n      add\n      swap1\n      dup2\n      mstore\n      0x20\n      add\n      0x00\n      keccak256\n        /* \"feg.sol\":20119:20139  _tOwned[account] = 0 */\n      dup2\n      swap1\n      sstore\n      pop\n        /* \"feg.sol\":20180:20185  false */\n      0x00\n        /* \"feg.sol\":20157:20168  _isExcluded */\n      0x04\n        /* \"feg.sol\":20157:20177  _isExcluded[account] */\n      0x00\n        /* \"feg.sol\":20169:20176  account */\n      dup5\n        /* \"feg.sol\":20157:20177  _isExcluded[account] */\n      0xffffffffffffffffffffffffffffffffffffffff\n      and\n      0xffffffffffffffffffffffffffffffffffffffff\n      and\n      dup2\n      mstore\n      0x20\n      add\n      swap1\n      dup2\n      mstore\n      0x20\n      add\n      0x00\n      keccak256\n      0x00\n        /* \"feg.sol\":20157:20185  _isExcluded[account] = false */\n      0x0100\n      exp\n      dup2\n      sload\n      dup2\n      0xff\n      mul\n      not\n      and\n      swap1\n      dup4\n      iszero\n      iszero\n      mul\n      or\n      swap1\n      sstore\n      pop\n        /* \"feg.sol\":20203:20212  _excluded */\n      0x05\n        /* \"feg.sol\":20203:20218  _excluded.pop() */\n      dup1\n      sload\n      dup1\n      tag_226\n      jumpi\n      invalid\n    tag_226:\n      0x01\n      swap1\n      sub\n      dup2\n      dup2\n      swap1\n      0x00\n      mstore\n      keccak256(0x00, 0x20)\n      add\n      exp(0x0100, 0x00)\n      dup2\n      sload\n      swap1\n      0xffffffffffffffffffffffffffffffffffffffff\n      mul\n      not\n      and\n      swap1\n      sstore\n      swap1\n      sstore\n        /* \"feg.sol\":20236:20241  break */\n      jump(tag_217)\n        /* \"feg.sol\":20008:20256  if (_excluded[i] == account) {... */\n    tag_221:\n        /* \"feg.sol\":19989:19992  i++ */\n      dup1\n      dup1\n      0x01\n      add\n      swap2\n      pop\n      pop\n        /* \"feg.sol\":19947:20266  for (uint256 i = 0; i < _excluded.length; i++) {... */\n      jump(tag_216)\n    tag_217:\n      pop\n        /* \"feg.sol\":19805:20272  function includeAccount(address account) external onlyOwner() {... */\n      pop\n      jump\t// out\n        /* \"feg.sol\":16079:16104  uint256 public _tFeeTotal */\n    tag_126:\n      sload(0x07)\n      dup2\n      jump\t// out\n        /* \"feg.sol\":448:552  function _msgSender() internal view virtual returns (address payable) {... */\n    tag_129:\n        /* \"feg.sol\":501:516  address payable */\n      0x00\n        /* \"feg.sol\":535:545  msg.sender */\n      caller\n        /* \"feg.sol\":528:545  return msg.sender */\n      swap1\n      pop\n        /* \"feg.sol\":448:552  function _msgSender() internal view virtual returns (address payable) {... */\n      swap1\n      jump\t// out\n        /* \"feg.sol\":23758:24164  function _getValues(uint256 tAmount) private view returns (uint256, uint256, uint256, uint256, uint256) {... */\n    tag_132:\n        /* \"feg.sol\":23817:23824  uint256 */\n      0x00\n        /* \"feg.sol\":23826:23833  uint256 */\n      dup1\n        /* \"feg.sol\":23835:23842  uint256 */\n      0x00\n        /* \"feg.sol\":23844:23851  uint256 */\n      dup1\n        /* \"feg.sol\":23853:23860  uint256 */\n      0x00\n        /* \"feg.sol\":23873:23896  uint256 tTransferAmount */\n      dup1\n        /* \"feg.sol\":23898:23910  uint256 tFee */\n      0x00\n        /* \"feg.sol\":23914:23934  _getTValues(tAmount) */\n      tag_230\n        /* \"feg.sol\":23926:23933  tAmount */\n      dup9\n        /* \"feg.sol\":23914:23925  _getTValues */\n      tag_231\n        /* \"feg.sol\":23914:23934  _getTValues(tAmount) */\n      jump\t// in\n    tag_230:\n        /* \"feg.sol\":23872:23934  (uint256 tTransferAmount, uint256 tFee) = _getTValues(tAmount) */\n      swap2\n      pop\n      swap2\n      pop\n        /* \"feg.sol\":23944:23963  uint256 currentRate */\n      0x00\n        /* \"feg.sol\":23967:23977  _getRate() */\n      tag_232\n        /* \"feg.sol\":23967:23975  _getRate */\n      tag_159\n        /* \"feg.sol\":23967:23977  _getRate() */\n      jump\t// in\n    tag_232:\n        /* \"feg.sol\":23944:23977  uint256 currentRate =  _getRate() */\n      swap1\n      pop\n        /* \"feg.sol\":23988:24003  uint256 rAmount */\n      0x00\n        /* \"feg.sol\":24005:24028  uint256 rTransferAmount */\n      dup1\n        /* \"feg.sol\":24030:24042  uint256 rFee */\n      0x00\n        /* \"feg.sol\":24046:24085  _getRValues(tAmount, tFee, currentRate) */\n      tag_233\n        /* \"feg.sol\":24058:24065  tAmount */\n      dup13\n        /* \"feg.sol\":24067:24071  tFee */\n      dup7\n        /* \"feg.sol\":24073:24084  currentRate */\n      dup7\n        /* \"feg.sol\":24046:24057  _getRValues */\n      tag_234\n        /* \"feg.sol\":24046:24085  _getRValues(tAmount, tFee, currentRate) */\n      jump\t// in\n    tag_233:\n        /* \"feg.sol\":23987:24085  (uint256 rAmount, uint256 rTransferAmount, uint256 rFee) = _getRValues(tAmount, tFee, currentRate) */\n      swap3\n      pop\n      swap3\n      pop\n      swap3\n      pop\n        /* \"feg.sol\":24103:24110  rAmount */\n      dup3\n        /* \"feg.sol\":24112:24127  rTransferAmount */\n      dup3\n        /* \"feg.sol\":24129:24133  rFee */\n      dup3\n        /* \"feg.sol\":24135:24150  tTransferAmount */\n      dup9\n        /* \"feg.sol\":24152:24156  tFee */\n      dup9\n        /* \"feg.sol\":24095:24157  return (rAmount, rTransferAmount, rFee, tTransferAmount, tFee) */\n      swap11\n      pop\n      swap11\n      pop\n      swap11\n      pop\n      swap11\n      pop\n      swap11\n      pop\n      pop\n      pop\n      pop\n      pop\n      pop\n      pop\n        /* \"feg.sol\":23758:24164  function _getValues(uint256 tAmount) private view returns (uint256, uint256, uint256, uint256, uint256) {... */\n      swap2\n      swap4\n      swap6\n      swap1\n      swap3\n      swap5\n      pop\n      jump\t// out\n        /* \"feg.sol\":4059:4193  function sub(uint256 a, uint256 b) internal pure returns (uint256) {... */\n    tag_134:\n        /* \"feg.sol\":4117:4124  uint256 */\n      0x00\n        /* \"feg.sol\":4143:4186  sub(a, b, \"SafeMath: subtraction overflow\") */\n      tag_236\n        /* \"feg.sol\":4147:4148  a */\n      dup4\n        /* \"feg.sol\":4150:4151  b */\n      dup4\n        /* \"feg.sol\":4143:4186  sub(a, b, \"SafeMath: subtraction overflow\") */\n      mload(0x40)\n      dup1\n      0x40\n      add\n      0x40\n      mstore\n      dup1\n      0x1e\n      dup2\n      mstore\n      0x20\n      add\n      0x536166654d6174683a207375627472616374696f6e206f766572666c6f770000\n      dup2\n      mstore\n      pop\n        /* \"feg.sol\":4143:4146  sub */\n      tag_155\n        /* \"feg.sol\":4143:4186  sub(a, b, \"SafeMath: subtraction overflow\") */\n      jump\t// in\n    tag_236:\n        /* \"feg.sol\":4136:4186  return sub(a, b, \"SafeMath: subtraction overflow\") */\n      swap1\n      pop\n        /* \"feg.sol\":4059:4193  function sub(uint256 a, uint256 b) internal pure returns (uint256) {... */\n      swap3\n      swap2\n      pop\n      pop\n      jump\t// out\n        /* \"feg.sol\":3612:3788  function add(uint256 a, uint256 b) internal pure returns (uint256) {... */\n    tag_137:\n        /* \"feg.sol\":3670:3677  uint256 */\n      0x00\n        /* \"feg.sol\":3689:3698  uint256 c */\n      dup1\n        /* \"feg.sol\":3705:3706  b */\n      dup3\n        /* \"feg.sol\":3701:3702  a */\n      dup5\n        /* \"feg.sol\":3701:3706  a + b */\n      add\n        /* \"feg.sol\":3689:3706  uint256 c = a + b */\n      swap1\n      pop\n        /* \"feg.sol\":3729:3730  a */\n      dup4\n        /* \"feg.sol\":3724:3725  c */\n      dup2\n        /* \"feg.sol\":3724:3730  c >= a */\n      lt\n      iszero\n        /* \"feg.sol\":3716:3762  require(c >= a, \"SafeMath: addition overflow\") */\n      tag_238\n      jumpi\n      mload(0x40)\n      0x08c379a000000000000000000000000000000000000000000000000000000000\n      dup2\n      mstore\n      0x04\n      add\n      dup1\n      dup1\n      0x20\n      add\n      dup3\n      dup2\n      sub\n      dup3\n      mstore\n      0x1b\n      dup2\n      mstore\n      0x20\n      add\n      dup1\n      0x536166654d6174683a206164646974696f6e206f766572666c6f770000000000\n      dup2\n      mstore\n      pop\n      0x20\n      add\n      swap2\n      pop\n      pop\n      mload(0x40)\n      dup1\n      swap2\n      sub\n      swap1\n      revert\n    tag_238:\n        /* \"feg.sol\":3780:3781  c */\n      dup1\n        /* \"feg.sol\":3773:3781  return c */\n      swap2\n      pop\n      pop\n        /* \"feg.sol\":3612:3788  function add(uint256 a, uint256 b) internal pure returns (uint256) {... */\n      swap3\n      swap2\n      pop\n      pop\n      jump\t// out\n        /* \"feg.sol\":20278:20609  function _approve(address owner, address spender, uint256 amount) private {... */\n    tag_145:\n        /* \"feg.sol\":20387:20388  0 */\n      0x00\n        /* \"feg.sol\":20370:20389  owner != address(0) */\n      0xffffffffffffffffffffffffffffffffffffffff\n      and\n        /* \"feg.sol\":20370:20375  owner */\n      dup4\n        /* \"feg.sol\":20370:20389  owner != address(0) */\n      0xffffffffffffffffffffffffffffffffffffffff\n      and\n      eq\n      iszero\n        /* \"feg.sol\":20362:20430  require(owner != address(0), \"ERC20: approve from the zero address\") */\n      tag_240\n      jumpi\n      mload(0x40)\n      0x08c379a000000000000000000000000000000000000000000000000000000000\n      dup2\n      mstore\n      0x04\n      add\n      dup1\n      dup1\n      0x20\n      add\n      dup3\n      dup2\n      sub\n      dup3\n      mstore\n      0x24\n      dup2\n      mstore\n      0x20\n      add\n      dup1\n      data_c953f4879035ed60e766b34720f656aab5c697b141d924c283124ecedb91c208\n      0x24\n      swap2\n      codecopy\n      0x40\n      add\n      swap2\n      pop\n      pop\n      mload(0x40)\n      dup1\n      swap2\n      sub\n      swap1\n      revert\n    tag_240:\n        /* \"feg.sol\":20467:20468  0 */\n      0x00\n        /* \"feg.sol\":20448:20469  spender != address(0) */\n      0xffffffffffffffffffffffffffffffffffffffff\n      and\n        /* \"feg.sol\":20448:20455  spender */\n      dup3\n        /* \"feg.sol\":20448:20469  spender != address(0) */\n      0xffffffffffffffffffffffffffffffffffffffff\n      and\n      eq\n      iszero\n        /* \"feg.sol\":20440:20508  require(spender != address(0), \"ERC20: approve to the zero address\") */\n      tag_241\n      jumpi\n      mload(0x40)\n      0x08c379a000000000000000000000000000000000000000000000000000000000\n      dup2\n      mstore\n      0x04\n      add\n      dup1\n      dup1\n      0x20\n      add\n      dup3\n      dup2\n      sub\n      dup3\n      mstore\n      0x22\n      dup2\n      mstore\n      0x20\n      add\n      dup1\n      data_24883cc5fe64ace9d0df1893501ecb93c77180f0ff69cca79affb3c316dc8029\n      0x22\n      swap2\n      codecopy\n      0x40\n      add\n      swap2\n      pop\n      pop\n      mload(0x40)\n      dup1\n      swap2\n      sub\n      swap1\n      revert\n    tag_241:\n        /* \"feg.sol\":20549:20555  amount */\n      dup1\n        /* \"feg.sol\":20519:20530  _allowances */\n      0x03\n        /* \"feg.sol\":20519:20537  _allowances[owner] */\n      0x00\n        /* \"feg.sol\":20531:20536  owner */\n      dup6\n        /* \"feg.sol\":20519:20537  _allowances[owner] */\n      0xffffffffffffffffffffffffffffffffffffffff\n      and\n      0xffffffffffffffffffffffffffffffffffffffff\n      and\n      dup2\n      mstore\n      0x20\n      add\n      swap1\n      dup2\n      mstore\n      0x20\n      add\n      0x00\n      keccak256\n        /* \"feg.sol\":20519:20546  _allowances[owner][spender] */\n      0x00\n        /* \"feg.sol\":20538:20545  spender */\n      dup5\n        /* \"feg.sol\":20519:20546  _allowances[owner][spender] */\n      0xffffffffffffffffffffffffffffffffffffffff\n      and\n      0xffffffffffffffffffffffffffffffffffffffff\n      and\n      dup2\n      mstore\n      0x20\n      add\n      swap1\n      dup2\n      mstore\n      0x20\n      add\n      0x00\n      keccak256\n        /* \"feg.sol\":20519:20555  _allowances[owner][spender] = amount */\n      dup2\n      swap1\n      sstore\n      pop\n        /* \"feg.sol\":20586:20593  spender */\n      dup2\n        /* \"feg.sol\":20570:20602  Approval(owner, spender, amount) */\n      0xffffffffffffffffffffffffffffffffffffffff\n      and\n        /* \"feg.sol\":20579:20584  owner */\n      dup4\n        /* \"feg.sol\":20570:20602  Approval(owner, spender, amount) */\n      0xffffffffffffffffffffffffffffffffffffffff\n      and\n      0x8c5be1e5ebec7d5bd14f71427d1e84f3dd0314c0f7b2291e5b200ac8c7c3b925\n        /* \"feg.sol\":20595:20601  amount */\n      dup4\n        /* \"feg.sol\":20570:20602  Approval(owner, spender, amount) */\n      mload(0x40)\n      dup1\n      dup3\n      dup2\n      mstore\n      0x20\n      add\n      swap2\n      pop\n      pop\n      mload(0x40)\n      dup1\n      swap2\n      sub\n      swap1\n      log3\n        /* \"feg.sol\":20278:20609  function _approve(address owner, address spender, uint256 amount) private {... */\n      pop\n      pop\n      pop\n      jump\t// out\n        /* \"feg.sol\":20615:21531  function _transfer(address sender, address recipient, uint256 amount) private {... */\n    tag_150:\n        /* \"feg.sol\":20729:20730  0 */\n      0x00\n        /* \"feg.sol\":20711:20731  sender != address(0) */\n      0xffffffffffffffffffffffffffffffffffffffff\n      and\n        /* \"feg.sol\":20711:20717  sender */\n      dup4\n        /* \"feg.sol\":20711:20731  sender != address(0) */\n      0xffffffffffffffffffffffffffffffffffffffff\n      and\n      eq\n      iszero\n        /* \"feg.sol\":20703:20773  require(sender != address(0), \"ERC20: transfer from the zero address\") */\n      tag_243\n      jumpi\n      mload(0x40)\n      0x08c379a000000000000000000000000000000000000000000000000000000000\n      dup2\n      mstore\n      0x04\n      add\n      dup1\n      dup1\n      0x20\n      add\n      dup3\n      dup2\n      sub\n      dup3\n      mstore\n      0x25\n      dup2\n      mstore\n      0x20\n      add\n      dup1\n      data_baecc556b46f4ed0f2b4cb599d60785ac8563dd2dc0a5bf12edea1c39e5e1fea\n      0x25\n      swap2\n      codecopy\n      0x40\n      add\n      swap2\n      pop\n      pop\n      mload(0x40)\n      dup1\n      swap2\n      sub\n      swap1\n      revert\n    tag_243:\n        /* \"feg.sol\":20812:20813  0 */\n      0x00\n        /* \"feg.sol\":20791:20814  recipient != address(0) */\n      0xffffffffffffffffffffffffffffffffffffffff\n      and\n        /* \"feg.sol\":20791:20800  recipient */\n      dup3\n        /* \"feg.sol\":20791:20814  recipient != address(0) */\n      0xffffffffffffffffffffffffffffffffffffffff\n      and\n      eq\n      iszero\n        /* \"feg.sol\":20783:20854  require(recipient != address(0), \"ERC20: transfer to the zero address\") */\n      tag_244\n      jumpi\n      mload(0x40)\n      0x08c379a000000000000000000000000000000000000000000000000000000000\n      dup2\n      mstore\n      0x04\n      add\n      dup1\n      dup1\n      0x20\n      add\n      dup3\n      dup2\n      sub\n      dup3\n      mstore\n      0x23\n      dup2\n      mstore\n      0x20\n      add\n      dup1\n      data_0557e210f7a69a685100a7e4e3d0a7024c546085cee28910fd17d0b081d9516f\n      0x23\n      swap2\n      codecopy\n      0x40\n      add\n      swap2\n      pop\n      pop\n      mload(0x40)\n      dup1\n      swap2\n      sub\n      swap1\n      revert\n    tag_244:\n        /* \"feg.sol\":20881:20882  0 */\n      0x00\n        /* \"feg.sol\":20872:20878  amount */\n      dup2\n        /* \"feg.sol\":20872:20882  amount > 0 */\n      gt\n        /* \"feg.sol\":20864:20928  require(amount > 0, \"Transfer amount must be greater than zero\") */\n      tag_245\n      jumpi\n      mload(0x40)\n      0x08c379a000000000000000000000000000000000000000000000000000000000\n      dup2\n      mstore\n      0x04\n      add\n      dup1\n      dup1\n      0x20\n      add\n      dup3\n      dup2\n      sub\n      dup3\n      mstore\n      0x29\n      dup2\n      mstore\n      0x20\n      add\n      dup1\n      data_9edb5ab58321f35d2386ea65721c9b107daa2c273610fc16d394af2a320ba785\n      0x29\n      swap2\n      codecopy\n      0x40\n      add\n      swap2\n      pop\n      pop\n      mload(0x40)\n      dup1\n      swap2\n      sub\n      swap1\n      revert\n    tag_245:\n        /* \"feg.sol\":20942:20953  _isExcluded */\n      0x04\n        /* \"feg.sol\":20942:20961  _isExcluded[sender] */\n      0x00\n        /* \"feg.sol\":20954:20960  sender */\n      dup5\n        /* \"feg.sol\":20942:20961  _isExcluded[sender] */\n      0xffffffffffffffffffffffffffffffffffffffff\n      and\n      0xffffffffffffffffffffffffffffffffffffffff\n      and\n      dup2\n      mstore\n      0x20\n      add\n      swap1\n      dup2\n      mstore\n      0x20\n      add\n      0x00\n      keccak256\n      0x00\n      swap1\n      sload\n      swap1\n      0x0100\n      exp\n      swap1\n      div\n      0xff\n      and\n        /* \"feg.sol\":20942:20988  _isExcluded[sender] && !_isExcluded[recipient] */\n      dup1\n      iszero\n      tag_246\n      jumpi\n      pop\n        /* \"feg.sol\":20966:20977  _isExcluded */\n      0x04\n        /* \"feg.sol\":20966:20988  _isExcluded[recipient] */\n      0x00\n        /* \"feg.sol\":20978:20987  recipient */\n      dup4\n        /* \"feg.sol\":20966:20988  _isExcluded[recipient] */\n      0xffffffffffffffffffffffffffffffffffffffff\n      and\n      0xffffffffffffffffffffffffffffffffffffffff\n      and\n      dup2\n      mstore\n      0x20\n      add\n      swap1\n      dup2\n      mstore\n      0x20\n      add\n      0x00\n      keccak256\n      0x00\n      swap1\n      sload\n      swap1\n      0x0100\n      exp\n      swap1\n      div\n      0xff\n      and\n        /* \"feg.sol\":20965:20988  !_isExcluded[recipient] */\n      iszero\n        /* \"feg.sol\":20942:20988  _isExcluded[sender] && !_isExcluded[recipient] */\n    tag_246:\n        /* \"feg.sol\":20938:21525  if (_isExcluded[sender] && !_isExcluded[recipient]) {... */\n      iszero\n      tag_247\n      jumpi\n        /* \"feg.sol\":21004:21052  _transferFromExcluded(sender, recipient, amount) */\n      tag_248\n        /* \"feg.sol\":21026:21032  sender */\n      dup4\n        /* \"feg.sol\":21034:21043  recipient */\n      dup4\n        /* \"feg.sol\":21045:21051  amount */\n      dup4\n        /* \"feg.sol\":21004:21025  _transferFromExcluded */\n      tag_249\n        /* \"feg.sol\":21004:21052  _transferFromExcluded(sender, recipient, amount) */\n      jump\t// in\n    tag_248:\n        /* \"feg.sol\":20938:21525  if (_isExcluded[sender] && !_isExcluded[recipient]) {... */\n      jump(tag_250)\n    tag_247:\n        /* \"feg.sol\":21074:21085  _isExcluded */\n      0x04\n        /* \"feg.sol\":21074:21093  _isExcluded[sender] */\n      0x00\n        /* \"feg.sol\":21086:21092  sender */\n      dup5\n        /* \"feg.sol\":21074:21093  _isExcluded[sender] */\n      0xffffffffffffffffffffffffffffffffffffffff\n      and\n      0xffffffffffffffffffffffffffffffffffffffff\n      and\n      dup2\n      mstore\n      0x20\n      add\n      swap1\n      dup2\n      mstore\n      0x20\n      add\n      0x00\n      keccak256\n      0x00\n      swap1\n      sload\n      swap1\n      0x0100\n      exp\n      swap1\n      div\n      0xff\n      and\n        /* \"feg.sol\":21073:21093  !_isExcluded[sender] */\n      iszero\n        /* \"feg.sol\":21073:21119  !_isExcluded[sender] && _isExcluded[recipient] */\n      dup1\n      iszero\n      tag_251\n      jumpi\n      pop\n        /* \"feg.sol\":21097:21108  _isExcluded */\n      0x04\n        /* \"feg.sol\":21097:21119  _isExcluded[recipient] */\n      0x00\n        /* \"feg.sol\":21109:21118  recipient */\n      dup4\n        /* \"feg.sol\":21097:21119  _isExcluded[recipient] */\n      0xffffffffffffffffffffffffffffffffffffffff\n      and\n      0xffffffffffffffffffffffffffffffffffffffff\n      and\n      dup2\n      mstore\n      0x20\n      add\n      swap1\n      dup2\n      mstore\n      0x20\n      add\n      0x00\n      keccak256\n      0x00\n      swap1\n      sload\n      swap1\n      0x0100\n      exp\n      swap1\n      div\n      0xff\n      and\n        /* \"feg.sol\":21073:21119  !_isExcluded[sender] && _isExcluded[recipient] */\n    tag_251:\n        /* \"feg.sol\":21069:21525  if (!_isExcluded[sender] && _isExcluded[recipient]) {... */\n      iszero\n      tag_252\n      jumpi\n        /* \"feg.sol\":21135:21181  _transferToExcluded(sender, recipient, amount) */\n      tag_253\n        /* \"feg.sol\":21155:21161  sender */\n      dup4\n        /* \"feg.sol\":21163:21172  recipient */\n      dup4\n        /* \"feg.sol\":21174:21180  amount */\n      dup4\n        /* \"feg.sol\":21135:21154  _transferToExcluded */\n      tag_254\n        /* \"feg.sol\":21135:21181  _transferToExcluded(sender, recipient, amount) */\n      jump\t// in\n    tag_253:\n        /* \"feg.sol\":21069:21525  if (!_isExcluded[sender] && _isExcluded[recipient]) {... */\n      jump(tag_255)\n    tag_252:\n        /* \"feg.sol\":21203:21214  _isExcluded */\n      0x04\n        /* \"feg.sol\":21203:21222  _isExcluded[sender] */\n      0x00\n        /* \"feg.sol\":21215:21221  sender */\n      dup5\n        /* \"feg.sol\":21203:21222  _isExcluded[sender] */\n      0xffffffffffffffffffffffffffffffffffffffff\n      and\n      0xffffffffffffffffffffffffffffffffffffffff\n      and\n      dup2\n      mstore\n      0x20\n      add\n      swap1\n      dup2\n      mstore\n      0x20\n      add\n      0x00\n      keccak256\n      0x00\n      swap1\n      sload\n      swap1\n      0x0100\n      exp\n      swap1\n      div\n      0xff\n      and\n        /* \"feg.sol\":21202:21222  !_isExcluded[sender] */\n      iszero\n        /* \"feg.sol\":21202:21249  !_isExcluded[sender] && !_isExcluded[recipient] */\n      dup1\n      iszero\n      tag_256\n      jumpi\n      pop\n        /* \"feg.sol\":21227:21238  _isExcluded */\n      0x04\n        /* \"feg.sol\":21227:21249  _isExcluded[recipient] */\n      0x00\n        /* \"feg.sol\":21239:21248  recipient */\n      dup4\n        /* \"feg.sol\":21227:21249  _isExcluded[recipient] */\n      0xffffffffffffffffffffffffffffffffffffffff\n      and\n      0xffffffffffffffffffffffffffffffffffffffff\n      and\n      dup2\n      mstore\n      0x20\n      add\n      swap1\n      dup2\n      mstore\n      0x20\n      add\n      0x00\n      keccak256\n      0x00\n      swap1\n      sload\n      swap1\n      0x0100\n      exp\n      swap1\n      div\n      0xff\n      and\n        /* \"feg.sol\":21226:21249  !_isExcluded[recipient] */\n      iszero\n        /* \"feg.sol\":21202:21249  !_isExcluded[sender] && !_isExcluded[recipient] */\n    tag_256:\n        /* \"feg.sol\":21198:21525  if (!_isExcluded[sender] && !_isExcluded[recipient]) {... */\n      iszero\n      tag_257\n      jumpi\n        /* \"feg.sol\":21265:21309  _transferStandard(sender, recipient, amount) */\n      tag_258\n        /* \"feg.sol\":21283:21289  sender */\n      dup4\n        /* \"feg.sol\":21291:21300  recipient */\n      dup4\n        /* \"feg.sol\":21302:21308  amount */\n      dup4\n        /* \"feg.sol\":21265:21282  _transferStandard */\n      tag_259\n        /* \"feg.sol\":21265:21309  _transferStandard(sender, recipient, amount) */\n      jump\t// in\n    tag_258:\n        /* \"feg.sol\":21198:21525  if (!_isExcluded[sender] && !_isExcluded[recipient]) {... */\n      jump(tag_260)\n    tag_257:\n        /* \"feg.sol\":21330:21341  _isExcluded */\n      0x04\n        /* \"feg.sol\":21330:21349  _isExcluded[sender] */\n      0x00\n        /* \"feg.sol\":21342:21348  sender */\n      dup5\n        /* \"feg.sol\":21330:21349  _isExcluded[sender] */\n      0xffffffffffffffffffffffffffffffffffffffff\n      and\n      0xffffffffffffffffffffffffffffffffffffffff\n      and\n      dup2\n      mstore\n      0x20\n      add\n      swap1\n      dup2\n      mstore\n      0x20\n      add\n      0x00\n      keccak256\n      0x00\n      swap1\n      sload\n      swap1\n      0x0100\n      exp\n      swap1\n      div\n      0xff\n      and\n        /* \"feg.sol\":21330:21375  _isExcluded[sender] && _isExcluded[recipient] */\n      dup1\n      iszero\n      tag_261\n      jumpi\n      pop\n        /* \"feg.sol\":21353:21364  _isExcluded */\n      0x04\n        /* \"feg.sol\":21353:21375  _isExcluded[recipient] */\n      0x00\n        /* \"feg.sol\":21365:21374  recipient */\n      dup4\n        /* \"feg.sol\":21353:21375  _isExcluded[recipient] */\n      0xffffffffffffffffffffffffffffffffffffffff\n      and\n      0xffffffffffffffffffffffffffffffffffffffff\n      and\n      dup2\n      mstore\n      0x20\n      add\n      swap1\n      dup2\n      mstore\n      0x20\n      add\n      0x00\n      keccak256\n      0x00\n      swap1\n      sload\n      swap1\n      0x0100\n      exp\n      swap1\n      div\n      0xff\n      and\n        /* \"feg.sol\":21330:21375  _isExcluded[sender] && _isExcluded[recipient] */\n    tag_261:\n        /* \"feg.sol\":21326:21525  if (_isExcluded[sender] && _isExcluded[recipient]) {... */\n      iszero\n      tag_262\n      jumpi\n        /* \"feg.sol\":21391:21439  _transferBothExcluded(sender, recipient, amount) */\n      tag_263\n        /* \"feg.sol\":21413:21419  sender */\n      dup4\n        /* \"feg.sol\":21421:21430  recipient */\n      dup4\n        /* \"feg.sol\":21432:21438  amount */\n      dup4\n        /* \"feg.sol\":21391:21412  _transferBothExcluded */\n      tag_264\n        /* \"feg.sol\":21391:21439  _transferBothExcluded(sender, recipient, amount) */\n      jump\t// in\n    tag_263:\n        /* \"feg.sol\":21326:21525  if (_isExcluded[sender] && _isExcluded[recipient]) {... */\n      jump(tag_265)\n    tag_262:\n        /* \"feg.sol\":21470:21514  _transferStandard(sender, recipient, amount) */\n      tag_266\n        /* \"feg.sol\":21488:21494  sender */\n      dup4\n        /* \"feg.sol\":21496:21505  recipient */\n      dup4\n        /* \"feg.sol\":21507:21513  amount */\n      dup4\n        /* \"feg.sol\":21470:21487  _transferStandard */\n      tag_259\n        /* \"feg.sol\":21470:21514  _transferStandard(sender, recipient, amount) */\n      jump\t// in\n    tag_266:\n        /* \"feg.sol\":21326:21525  if (_isExcluded[sender] && _isExcluded[recipient]) {... */\n    tag_265:\n        /* \"feg.sol\":21198:21525  if (!_isExcluded[sender] && !_isExcluded[recipient]) {... */\n    tag_260:\n        /* \"feg.sol\":21069:21525  if (!_isExcluded[sender] && _isExcluded[recipient]) {... */\n    tag_255:\n        /* \"feg.sol\":20938:21525  if (_isExcluded[sender] && !_isExcluded[recipient]) {... */\n    tag_250:\n        /* \"feg.sol\":20615:21531  function _transfer(address sender, address recipient, uint256 amount) private {... */\n      pop\n      pop\n      pop\n      jump\t// out\n        /* \"feg.sol\":4484:4671  function sub(uint256 a, uint256 b, string memory errorMessage) internal pure returns (uint256) {... */\n    tag_155:\n        /* \"feg.sol\":4570:4577  uint256 */\n      0x00\n        /* \"feg.sol\":4602:4603  a */\n      dup4\n        /* \"feg.sol\":4597:4598  b */\n      dup4\n        /* \"feg.sol\":4597:4603  b <= a */\n      gt\n      iszero\n        /* \"feg.sol\":4605:4617  errorMessage */\n      dup3\n        /* \"feg.sol\":4589:4618  require(b <= a, errorMessage) */\n      swap1\n      tag_268\n      jumpi\n      mload(0x40)\n      0x08c379a000000000000000000000000000000000000000000000000000000000\n      dup2\n      mstore\n      0x04\n      add\n      dup1\n      dup1\n      0x20\n      add\n      dup3\n      dup2\n      sub\n      dup3\n      mstore\n      dup4\n      dup2\n      dup2\n      mload\n      dup2\n      mstore\n      0x20\n      add\n      swap2\n      pop\n      dup1\n      mload\n      swap1\n      0x20\n      add\n      swap1\n      dup1\n      dup4\n      dup4\n      0x00\n    tag_269:\n      dup4\n      dup2\n      lt\n      iszero\n      tag_271\n      jumpi\n      dup1\n      dup3\n      add\n      mload\n      dup2\n      dup5\n      add\n      mstore\n      0x20\n      dup2\n      add\n      swap1\n      pop\n      jump(tag_269)\n    tag_271:\n      pop\n      pop\n      pop\n      pop\n      swap1\n      pop\n      swap1\n      dup2\n      add\n      swap1\n      0x1f\n      and\n      dup1\n      iszero\n      tag_272\n      jumpi\n      dup1\n      dup3\n      sub\n      dup1\n      mload\n      0x01\n      dup4\n      0x20\n      sub\n      0x0100\n      exp\n      sub\n      not\n      and\n      dup2\n      mstore\n      0x20\n      add\n      swap2\n      pop\n    tag_272:\n      pop\n      swap3\n      pop\n      pop\n      pop\n      mload(0x40)\n      dup1\n      swap2\n      sub\n      swap1\n      revert\n    tag_268:\n      pop\n        /* \"feg.sol\":4628:4637  uint256 c */\n      0x00\n        /* \"feg.sol\":4644:4645  b */\n      dup4\n        /* \"feg.sol\":4640:4641  a */\n      dup6\n        /* \"feg.sol\":4640:4645  a - b */\n      sub\n        /* \"feg.sol\":4628:4645  uint256 c = a - b */\n      swap1\n      pop\n        /* \"feg.sol\":4663:4664  c */\n      dup1\n        /* \"feg.sol\":4656:4664  return c */\n      swap2\n      pop\n      pop\n        /* \"feg.sol\":4484:4671  function sub(uint256 a, uint256 b, string memory errorMessage) internal pure returns (uint256) {... */\n      swap4\n      swap3\n      pop\n      pop\n      pop\n      jump\t// out\n        /* \"feg.sol\":24737:24897  function _getRate() private view returns(uint256) {... */\n    tag_159:\n        /* \"feg.sol\":24778:24785  uint256 */\n      0x00\n        /* \"feg.sol\":24798:24813  uint256 rSupply */\n      dup1\n        /* \"feg.sol\":24815:24830  uint256 tSupply */\n      0x00\n        /* \"feg.sol\":24834:24853  _getCurrentSupply() */\n      tag_274\n        /* \"feg.sol\":24834:24851  _getCurrentSupply */\n      tag_275\n        /* \"feg.sol\":24834:24853  _getCurrentSupply() */\n      jump\t// in\n    tag_274:\n        /* \"feg.sol\":24797:24853  (uint256 rSupply, uint256 tSupply) = _getCurrentSupply() */\n      swap2\n      pop\n      swap2\n      pop\n        /* \"feg.sol\":24870:24890  rSupply.div(tSupply) */\n      tag_276\n        /* \"feg.sol\":24882:24889  tSupply */\n      dup2\n        /* \"feg.sol\":24870:24877  rSupply */\n      dup4\n        /* \"feg.sol\":24870:24881  rSupply.div */\n      tag_161\n      swap1\n        /* \"feg.sol\":24870:24890  rSupply.div(tSupply) */\n      swap2\n      swap1\n      0xffffffff\n      and\n      jump\t// in\n    tag_276:\n        /* \"feg.sol\":24863:24890  return rSupply.div(tSupply) */\n      swap3\n      pop\n      pop\n      pop\n        /* \"feg.sol\":24737:24897  function _getRate() private view returns(uint256) {... */\n      swap1\n      jump\t// out\n        /* \"feg.sol\":5839:5969  function div(uint256 a, uint256 b) internal pure returns (uint256) {... */\n    tag_161:\n        /* \"feg.sol\":5897:5904  uint256 */\n      0x00\n        /* \"feg.sol\":5923:5962  div(a, b, \"SafeMath: division by zero\") */\n      tag_278\n        /* \"feg.sol\":5927:5928  a */\n      dup4\n        /* \"feg.sol\":5930:5931  b */\n      dup4\n        /* \"feg.sol\":5923:5962  div(a, b, \"SafeMath: division by zero\") */\n      mload(0x40)\n      dup1\n      0x40\n      add\n      0x40\n      mstore\n      dup1\n      0x1a\n      dup2\n      mstore\n      0x20\n      add\n      0x536166654d6174683a206469766973696f6e206279207a65726f000000000000\n      dup2\n      mstore\n      pop\n        /* \"feg.sol\":5923:5926  div */\n      tag_279\n        /* \"feg.sol\":5923:5962  div(a, b, \"SafeMath: division by zero\") */\n      jump\t// in\n    tag_278:\n        /* \"feg.sol\":5916:5962  return div(a, b, \"SafeMath: division by zero\") */\n      swap1\n      pop\n        /* \"feg.sol\":5839:5969  function div(uint256 a, uint256 b) internal pure returns (uint256) {... */\n      swap3\n      swap2\n      pop\n      pop\n      jump\t// out\n        /* \"feg.sol\":24170:24396  function _getTValues(uint256 tAmount) private pure returns (uint256, uint256) {... */\n    tag_231:\n        /* \"feg.sol\":24230:24237  uint256 */\n      0x00\n        /* \"feg.sol\":24239:24246  uint256 */\n      dup1\n        /* \"feg.sol\":24258:24270  uint256 tFee */\n      0x00\n        /* \"feg.sol\":24273:24296  tAmount.div(100).mul(2) */\n      tag_281\n        /* \"feg.sol\":24294:24295  2 */\n      0x02\n        /* \"feg.sol\":24273:24289  tAmount.div(100) */\n      tag_282\n        /* \"feg.sol\":24285:24288  100 */\n      0x64\n        /* \"feg.sol\":24273:24280  tAmount */\n      dup8\n        /* \"feg.sol\":24273:24284  tAmount.div */\n      tag_161\n      swap1\n        /* \"feg.sol\":24273:24289  tAmount.div(100) */\n      swap2\n      swap1\n      0xffffffff\n      and\n      jump\t// in\n    tag_282:\n        /* \"feg.sol\":24273:24293  tAmount.div(100).mul */\n      tag_283\n      swap1\n        /* \"feg.sol\":24273:24296  tAmount.div(100).mul(2) */\n      swap2\n      swap1\n      0xffffffff\n      and\n      jump\t// in\n    tag_281:\n        /* \"feg.sol\":24258:24296  uint256 tFee = tAmount.div(100).mul(2) */\n      swap1\n      pop\n        /* \"feg.sol\":24306:24329  uint256 tTransferAmount */\n      0x00\n        /* \"feg.sol\":24332:24349  tAmount.sub(tFee) */\n      tag_284\n        /* \"feg.sol\":24344:24348  tFee */\n      dup3\n        /* \"feg.sol\":24332:24339  tAmount */\n      dup7\n        /* \"feg.sol\":24332:24343  tAmount.sub */\n      tag_134\n      swap1\n        /* \"feg.sol\":24332:24349  tAmount.sub(tFee) */\n      swap2\n      swap1\n      0xffffffff\n      and\n      jump\t// in\n    tag_284:\n        /* \"feg.sol\":24306:24349  uint256 tTransferAmount = tAmount.sub(tFee) */\n      swap1\n      pop\n        /* \"feg.sol\":24367:24382  tTransferAmount */\n      dup1\n        /* \"feg.sol\":24384:24388  tFee */\n      dup3\n        /* \"feg.sol\":24359:24389  return (tTransferAmount, tFee) */\n      swap4\n      pop\n      swap4\n      pop\n      pop\n      pop\n        /* \"feg.sol\":24170:24396  function _getTValues(uint256 tAmount) private pure returns (uint256, uint256) {... */\n      swap2\n      pop\n      swap2\n      jump\t// out\n        /* \"feg.sol\":24402:24731  function _getRValues(uint256 tAmount, uint256 tFee, uint256 currentRate) private pure returns (uint256, uint256, uint256) {... */\n    tag_234:\n        /* \"feg.sol\":24497:24504  uint256 */\n      0x00\n        /* \"feg.sol\":24506:24513  uint256 */\n      dup1\n        /* \"feg.sol\":24515:24522  uint256 */\n      0x00\n        /* \"feg.sol\":24534:24549  uint256 rAmount */\n      dup1\n        /* \"feg.sol\":24552:24576  tAmount.mul(currentRate) */\n      tag_286\n        /* \"feg.sol\":24564:24575  currentRate */\n      dup6\n        /* \"feg.sol\":24552:24559  tAmount */\n      dup9\n        /* \"feg.sol\":24552:24563  tAmount.mul */\n      tag_283\n      swap1\n        /* \"feg.sol\":24552:24576  tAmount.mul(currentRate) */\n      swap2\n      swap1\n      0xffffffff\n      and\n      jump\t// in\n    tag_286:\n        /* \"feg.sol\":24534:24576  uint256 rAmount = tAmount.mul(currentRate) */\n      swap1\n      pop\n        /* \"feg.sol\":24586:24598  uint256 rFee */\n      0x00\n        /* \"feg.sol\":24601:24622  tFee.mul(currentRate) */\n      tag_287\n        /* \"feg.sol\":24610:24621  currentRate */\n      dup7\n        /* \"feg.sol\":24601:24605  tFee */\n      dup9\n        /* \"feg.sol\":24601:24609  tFee.mul */\n      tag_283\n      swap1\n        /* \"feg.sol\":24601:24622  tFee.mul(currentRate) */\n      swap2\n      swap1\n      0xffffffff\n      and\n      jump\t// in\n    tag_287:\n        /* \"feg.sol\":24586:24622  uint256 rFee = tFee.mul(currentRate) */\n      swap1\n      pop\n        /* \"feg.sol\":24632:24655  uint256 rTransferAmount */\n      0x00\n        /* \"feg.sol\":24658:24675  rAmount.sub(rFee) */\n      tag_288\n        /* \"feg.sol\":24670:24674  rFee */\n      dup3\n        /* \"feg.sol\":24658:24665  rAmount */\n      dup5\n        /* \"feg.sol\":24658:24669  rAmount.sub */\n      tag_134\n      swap1\n        /* \"feg.sol\":24658:24675  rAmount.sub(rFee) */\n      swap2\n      swap1\n      0xffffffff\n      and\n      jump\t// in\n    tag_288:\n        /* \"feg.sol\":24632:24675  uint256 rTransferAmount = rAmount.sub(rFee) */\n      swap1\n      pop\n        /* \"feg.sol\":24693:24700  rAmount */\n      dup3\n        /* \"feg.sol\":24702:24717  rTransferAmount */\n      dup2\n        /* \"feg.sol\":24719:24723  rFee */\n      dup4\n        /* \"feg.sol\":24685:24724  return (rAmount, rTransferAmount, rFee) */\n      swap6\n      pop\n      swap6\n      pop\n      swap6\n      pop\n      pop\n      pop\n      pop\n        /* \"feg.sol\":24402:24731  function _getRValues(uint256 tAmount, uint256 tFee, uint256 currentRate) private pure returns (uint256, uint256, uint256) {... */\n      swap4\n      pop\n      swap4\n      pop\n      swap4\n      swap1\n      pop\n      jump\t// out\n        /* \"feg.sol\":22517:23019  function _transferFromExcluded(address sender, address recipient, uint256 tAmount) private {... */\n    tag_249:\n        /* \"feg.sol\":22619:22634  uint256 rAmount */\n      0x00\n        /* \"feg.sol\":22636:22659  uint256 rTransferAmount */\n      dup1\n        /* \"feg.sol\":22661:22673  uint256 rFee */\n      0x00\n        /* \"feg.sol\":22675:22698  uint256 tTransferAmount */\n      dup1\n        /* \"feg.sol\":22700:22712  uint256 tFee */\n      0x00\n        /* \"feg.sol\":22716:22735  _getValues(tAmount) */\n      tag_290\n        /* \"feg.sol\":22727:22734  tAmount */\n      dup7\n        /* \"feg.sol\":22716:22726  _getValues */\n      tag_132\n        /* \"feg.sol\":22716:22735  _getValues(tAmount) */\n      jump\t// in\n    tag_290:\n        /* \"feg.sol\":22618:22735  (uint256 rAmount, uint256 rTransferAmount, uint256 rFee, uint256 tTransferAmount, uint256 tFee) = _getValues(tAmount) */\n      swap5\n      pop\n      swap5\n      pop\n      swap5\n      pop\n      swap5\n      pop\n      swap5\n      pop\n        /* \"feg.sol\":22763:22791  _tOwned[sender].sub(tAmount) */\n      tag_291\n        /* \"feg.sol\":22783:22790  tAmount */\n      dup7\n        /* \"feg.sol\":22763:22770  _tOwned */\n      0x02\n        /* \"feg.sol\":22763:22778  _tOwned[sender] */\n      0x00\n        /* \"feg.sol\":22771:22777  sender */\n      dup12\n        /* \"feg.sol\":22763:22778  _tOwned[sender] */\n      0xffffffffffffffffffffffffffffffffffffffff\n      and\n      0xffffffffffffffffffffffffffffffffffffffff\n      and\n      dup2\n      mstore\n      0x20\n      add\n      swap1\n      dup2\n      mstore\n      0x20\n      add\n      0x00\n      keccak256\n      sload\n        /* \"feg.sol\":22763:22782  _tOwned[sender].sub */\n      tag_134\n      swap1\n        /* \"feg.sol\":22763:22791  _tOwned[sender].sub(tAmount) */\n      swap2\n      swap1\n      0xffffffff\n      and\n      jump\t// in\n    tag_291:\n        /* \"feg.sol\":22745:22752  _tOwned */\n      0x02\n        /* \"feg.sol\":22745:22760  _tOwned[sender] */\n      0x00\n        /* \"feg.sol\":22753:22759  sender */\n      dup11\n        /* \"feg.sol\":22745:22760  _tOwned[sender] */\n      0xffffffffffffffffffffffffffffffffffffffff\n      and\n      0xffffffffffffffffffffffffffffffffffffffff\n      and\n      dup2\n      mstore\n      0x20\n      add\n      swap1\n      dup2\n      mstore\n      0x20\n      add\n      0x00\n      keccak256\n        /* \"feg.sol\":22745:22791  _tOwned[sender] = _tOwned[sender].sub(tAmount) */\n      dup2\n      swap1\n      sstore\n      pop\n        /* \"feg.sol\":22819:22847  _rOwned[sender].sub(rAmount) */\n      tag_292\n        /* \"feg.sol\":22839:22846  rAmount */\n      dup6\n        /* \"feg.sol\":22819:22826  _rOwned */\n      0x01\n        /* \"feg.sol\":22819:22834  _rOwned[sender] */\n      0x00\n        /* \"feg.sol\":22827:22833  sender */\n      dup12\n        /* \"feg.sol\":22819:22834  _rOwned[sender] */\n      0xffffffffffffffffffffffffffffffffffffffff\n      and\n      0xffffffffffffffffffffffffffffffffffffffff\n      and\n      dup2\n      mstore\n      0x20\n      add\n      swap1\n      dup2\n      mstore\n      0x20\n      add\n      0x00\n      keccak256\n      sload\n        /* \"feg.sol\":22819:22838  _rOwned[sender].sub */\n      tag_134\n      swap1\n        /* \"feg.sol\":22819:22847  _rOwned[sender].sub(rAmount) */\n      swap2\n      swap1\n      0xffffffff\n      and\n      jump\t// in\n    tag_292:\n        /* \"feg.sol\":22801:22808  _rOwned */\n      0x01\n        /* \"feg.sol\":22801:22816  _rOwned[sender] */\n      0x00\n        /* \"feg.sol\":22809:22815  sender */\n      dup11\n        /* \"feg.sol\":22801:22816  _rOwned[sender] */\n      0xffffffffffffffffffffffffffffffffffffffff\n      and\n      0xffffffffffffffffffffffffffffffffffffffff\n      and\n      dup2\n      mstore\n      0x20\n      add\n      swap1\n      dup2\n      mstore\n      0x20\n      add\n      0x00\n      keccak256\n        /* \"feg.sol\":22801:22847  _rOwned[sender] = _rOwned[sender].sub(rAmount) */\n      dup2\n      swap1\n      sstore\n      pop\n        /* \"feg.sol\":22878:22917  _rOwned[recipient].add(rTransferAmount) */\n      tag_293\n        /* \"feg.sol\":22901:22916  rTransferAmount */\n      dup5\n        /* \"feg.sol\":22878:22885  _rOwned */\n      0x01\n        /* \"feg.sol\":22878:22896  _rOwned[recipient] */\n      0x00\n        /* \"feg.sol\":22886:22895  recipient */\n      dup11\n        /* \"feg.sol\":22878:22896  _rOwned[recipient] */\n      0xffffffffffffffffffffffffffffffffffffffff\n      and\n      0xffffffffffffffffffffffffffffffffffffffff\n      and\n      dup2\n      mstore\n      0x20\n      add\n      swap1\n      dup2\n      mstore\n      0x20\n      add\n      0x00\n      keccak256\n      sload\n        /* \"feg.sol\":22878:22900  _rOwned[recipient].add */\n      tag_137\n      swap1\n        /* \"feg.sol\":22878:22917  _rOwned[recipient].add(rTransferAmount) */\n      swap2\n      swap1\n      0xffffffff\n      and\n      jump\t// in\n    tag_293:\n        /* \"feg.sol\":22857:22864  _rOwned */\n      0x01\n        /* \"feg.sol\":22857:22875  _rOwned[recipient] */\n      0x00\n        /* \"feg.sol\":22865:22874  recipient */\n      dup10\n        /* \"feg.sol\":22857:22875  _rOwned[recipient] */\n      0xffffffffffffffffffffffffffffffffffffffff\n      and\n      0xffffffffffffffffffffffffffffffffffffffff\n      and\n      dup2\n      mstore\n      0x20\n      add\n      swap1\n      dup2\n      mstore\n      0x20\n      add\n      0x00\n      keccak256\n        /* \"feg.sol\":22857:22917  _rOwned[recipient] = _rOwned[recipient].add(rTransferAmount) */\n      dup2\n      swap1\n      sstore\n      pop\n        /* \"feg.sol\":22930:22953  _reflectFee(rFee, tFee) */\n      tag_294\n        /* \"feg.sol\":22942:22946  rFee */\n      dup4\n        /* \"feg.sol\":22948:22952  tFee */\n      dup3\n        /* \"feg.sol\":22930:22941  _reflectFee */\n      tag_295\n        /* \"feg.sol\":22930:22953  _reflectFee(rFee, tFee) */\n      jump\t// in\n    tag_294:\n        /* \"feg.sol\":22985:22994  recipient */\n      dup7\n        /* \"feg.sol\":22968:23012  Transfer(sender, recipient, tTransferAmount) */\n      0xffffffffffffffffffffffffffffffffffffffff\n      and\n        /* \"feg.sol\":22977:22983  sender */\n      dup9\n        /* \"feg.sol\":22968:23012  Transfer(sender, recipient, tTransferAmount) */\n      0xffffffffffffffffffffffffffffffffffffffff\n      and\n      0xddf252ad1be2c89b69c2b068fc378daa952ba7f163c4a11628f55a4df523b3ef\n        /* \"feg.sol\":22996:23011  tTransferAmount */\n      dup5\n        /* \"feg.sol\":22968:23012  Transfer(sender, recipient, tTransferAmount) */\n      mload(0x40)\n      dup1\n      dup3\n      dup2\n      mstore\n      0x20\n      add\n      swap2\n      pop\n      pop\n      mload(0x40)\n      dup1\n      swap2\n      sub\n      swap1\n      log3\n        /* \"feg.sol\":22517:23019  function _transferFromExcluded(address sender, address recipient, uint256 tAmount) private {... */\n      pop\n      pop\n      pop\n      pop\n      pop\n      pop\n      pop\n      pop\n      jump\t// out\n        /* \"feg.sol\":21989:22511  function _transferToExcluded(address sender, address recipient, uint256 tAmount) private {... */\n    tag_254:\n        /* \"feg.sol\":22089:22104  uint256 rAmount */\n      0x00\n        /* \"feg.sol\":22106:22129  uint256 rTransferAmount */\n      dup1\n        /* \"feg.sol\":22131:22143  uint256 rFee */\n      0x00\n        /* \"feg.sol\":22145:22168  uint256 tTransferAmount */\n      dup1\n        /* \"feg.sol\":22170:22182  uint256 tFee */\n      0x00\n        /* \"feg.sol\":22186:22205  _getValues(tAmount) */\n      tag_297\n        /* \"feg.sol\":22197:22204  tAmount */\n      dup7\n        /* \"feg.sol\":22186:22196  _getValues */\n      tag_132\n        /* \"feg.sol\":22186:22205  _getValues(tAmount) */\n      jump\t// in\n    tag_297:\n        /* \"feg.sol\":22088:22205  (uint256 rAmount, uint256 rTransferAmount, uint256 rFee, uint256 tTransferAmount, uint256 tFee) = _getValues(tAmount) */\n      swap5\n      pop\n      swap5\n      pop\n      swap5\n      pop\n      swap5\n      pop\n      swap5\n      pop\n        /* \"feg.sol\":22233:22261  _rOwned[sender].sub(rAmount) */\n      tag_298\n        /* \"feg.sol\":22253:22260  rAmount */\n      dup6\n        /* \"feg.sol\":22233:22240  _rOwned */\n      0x01\n        /* \"feg.sol\":22233:22248  _rOwned[sender] */\n      0x00\n        /* \"feg.sol\":22241:22247  sender */\n      dup12\n        /* \"feg.sol\":22233:22248  _rOwned[sender] */\n      0xffffffffffffffffffffffffffffffffffffffff\n      and\n      0xffffffffffffffffffffffffffffffffffffffff\n      and\n      dup2\n      mstore\n      0x20\n      add\n      swap1\n      dup2\n      mstore\n      0x20\n      add\n      0x00\n      keccak256\n      sload\n        /* \"feg.sol\":22233:22252  _rOwned[sender].sub */\n      tag_134\n      swap1\n        /* \"feg.sol\":22233:22261  _rOwned[sender].sub(rAmount) */\n      swap2\n      swap1\n      0xffffffff\n      and\n      jump\t// in\n    tag_298:\n        /* \"feg.sol\":22215:22222  _rOwned */\n      0x01\n        /* \"feg.sol\":22215:22230  _rOwned[sender] */\n      0x00\n        /* \"feg.sol\":22223:22229  sender */\n      dup11\n        /* \"feg.sol\":22215:22230  _rOwned[sender] */\n      0xffffffffffffffffffffffffffffffffffffffff\n      and\n      0xffffffffffffffffffffffffffffffffffffffff\n      and\n      dup2\n      mstore\n      0x20\n      add\n      swap1\n      dup2\n      mstore\n      0x20\n      add\n      0x00\n      keccak256\n        /* \"feg.sol\":22215:22261  _rOwned[sender] = _rOwned[sender].sub(rAmount) */\n      dup2\n      swap1\n      sstore\n      pop\n        /* \"feg.sol\":22292:22331  _tOwned[recipient].add(tTransferAmount) */\n      tag_299\n        /* \"feg.sol\":22315:22330  tTransferAmount */\n      dup3\n        /* \"feg.sol\":22292:22299  _tOwned */\n      0x02\n        /* \"feg.sol\":22292:22310  _tOwned[recipient] */\n      0x00\n        /* \"feg.sol\":22300:22309  recipient */\n      dup11\n        /* \"feg.sol\":22292:22310  _tOwned[recipient] */\n      0xffffffffffffffffffffffffffffffffffffffff\n      and\n      0xffffffffffffffffffffffffffffffffffffffff\n      and\n      dup2\n      mstore\n      0x20\n      add\n      swap1\n      dup2\n      mstore\n      0x20\n      add\n      0x00\n      keccak256\n      sload\n        /* \"feg.sol\":22292:22314  _tOwned[recipient].add */\n      tag_137\n      swap1\n        /* \"feg.sol\":22292:22331  _tOwned[recipient].add(tTransferAmount) */\n      swap2\n      swap1\n      0xffffffff\n      and\n      jump\t// in\n    tag_299:\n        /* \"feg.sol\":22271:22278  _tOwned */\n      0x02\n        /* \"feg.sol\":22271:22289  _tOwned[recipient] */\n      0x00\n        /* \"feg.sol\":22279:22288  recipient */\n      dup10\n        /* \"feg.sol\":22271:22289  _tOwned[recipient] */\n      0xffffffffffffffffffffffffffffffffffffffff\n      and\n      0xffffffffffffffffffffffffffffffffffffffff\n      and\n      dup2\n      mstore\n      0x20\n      add\n      swap1\n      dup2\n      mstore\n      0x20\n      add\n      0x00\n      keccak256\n        /* \"feg.sol\":22271:22331  _tOwned[recipient] = _tOwned[recipient].add(tTransferAmount) */\n      dup2\n      swap1\n      sstore\n      pop\n        /* \"feg.sol\":22362:22401  _rOwned[recipient].add(rTransferAmount) */\n      tag_300\n        /* \"feg.sol\":22385:22400  rTransferAmount */\n      dup5\n        /* \"feg.sol\":22362:22369  _rOwned */\n      0x01\n        /* \"feg.sol\":22362:22380  _rOwned[recipient] */\n      0x00\n        /* \"feg.sol\":22370:22379  recipient */\n      dup11\n        /* \"feg.sol\":22362:22380  _rOwned[recipient] */\n      0xffffffffffffffffffffffffffffffffffffffff\n      and\n      0xffffffffffffffffffffffffffffffffffffffff\n      and\n      dup2\n      mstore\n      0x20\n      add\n      swap1\n      dup2\n      mstore\n      0x20\n      add\n      0x00\n      keccak256\n      sload\n        /* \"feg.sol\":22362:22384  _rOwned[recipient].add */\n      tag_137\n      swap1\n        /* \"feg.sol\":22362:22401  _rOwned[recipient].add(rTransferAmount) */\n      swap2\n      swap1\n      0xffffffff\n      and\n      jump\t// in\n    tag_300:\n        /* \"feg.sol\":22341:22348  _rOwned */\n      0x01\n        /* \"feg.sol\":22341:22359  _rOwned[recipient] */\n      0x00\n        /* \"feg.sol\":22349:22358  recipient */\n      dup10\n        /* \"feg.sol\":22341:22359  _rOwned[recipient] */\n      0xffffffffffffffffffffffffffffffffffffffff\n      and\n      0xffffffffffffffffffffffffffffffffffffffff\n      and\n      dup2\n      mstore\n      0x20\n      add\n      swap1\n      dup2\n      mstore\n      0x20\n      add\n      0x00\n      keccak256\n        /* \"feg.sol\":22341:22401  _rOwned[recipient] = _rOwned[recipient].add(rTransferAmount) */\n      dup2\n      swap1\n      sstore\n      pop\n        /* \"feg.sol\":22422:22445  _reflectFee(rFee, tFee) */\n      tag_301\n        /* \"feg.sol\":22434:22438  rFee */\n      dup4\n        /* \"feg.sol\":22440:22444  tFee */\n      dup3\n        /* \"feg.sol\":22422:22433  _reflectFee */\n      tag_295\n        /* \"feg.sol\":22422:22445  _reflectFee(rFee, tFee) */\n      jump\t// in\n    tag_301:\n        /* \"feg.sol\":22477:22486  recipient */\n      dup7\n        /* \"feg.sol\":22460:22504  Transfer(sender, recipient, tTransferAmount) */\n      0xffffffffffffffffffffffffffffffffffffffff\n      and\n        /* \"feg.sol\":22469:22475  sender */\n      dup9\n        /* \"feg.sol\":22460:22504  Transfer(sender, recipient, tTransferAmount) */\n      0xffffffffffffffffffffffffffffffffffffffff\n      and\n      0xddf252ad1be2c89b69c2b068fc378daa952ba7f163c4a11628f55a4df523b3ef\n        /* \"feg.sol\":22488:22503  tTransferAmount */\n      dup5\n        /* \"feg.sol\":22460:22504  Transfer(sender, recipient, tTransferAmount) */\n      mload(0x40)\n      dup1\n      dup3\n      dup2\n      mstore\n      0x20\n      add\n      swap2\n      pop\n      pop\n      mload(0x40)\n      dup1\n      swap2\n      sub\n      swap1\n      log3\n        /* \"feg.sol\":21989:22511  function _transferToExcluded(address sender, address recipient, uint256 tAmount) private {... */\n      pop\n      pop\n      pop\n      pop\n      pop\n      pop\n      pop\n      pop\n      jump\t// out\n        /* \"feg.sol\":21537:21983  function _transferStandard(address sender, address recipient, uint256 tAmount) private {... */\n    tag_259:\n        /* \"feg.sol\":21635:21650  uint256 rAmount */\n      0x00\n        /* \"feg.sol\":21652:21675  uint256 rTransferAmount */\n      dup1\n        /* \"feg.sol\":21677:21689  uint256 rFee */\n      0x00\n        /* \"feg.sol\":21691:21714  uint256 tTransferAmount */\n      dup1\n        /* \"feg.sol\":21716:21728  uint256 tFee */\n      0x00\n        /* \"feg.sol\":21732:21751  _getValues(tAmount) */\n      tag_303\n        /* \"feg.sol\":21743:21750  tAmount */\n      dup7\n        /* \"feg.sol\":21732:21742  _getValues */\n      tag_132\n        /* \"feg.sol\":21732:21751  _getValues(tAmount) */\n      jump\t// in\n    tag_303:\n        /* \"feg.sol\":21634:21751  (uint256 rAmount, uint256 rTransferAmount, uint256 rFee, uint256 tTransferAmount, uint256 tFee) = _getValues(tAmount) */\n      swap5\n      pop\n      swap5\n      pop\n      swap5\n      pop\n      swap5\n      pop\n      swap5\n      pop\n        /* \"feg.sol\":21779:21807  _rOwned[sender].sub(rAmount) */\n      tag_304\n        /* \"feg.sol\":21799:21806  rAmount */\n      dup6\n        /* \"feg.sol\":21779:21786  _rOwned */\n      0x01\n        /* \"feg.sol\":21779:21794  _rOwned[sender] */\n      0x00\n        /* \"feg.sol\":21787:21793  sender */\n      dup12\n        /* \"feg.sol\":21779:21794  _rOwned[sender] */\n      0xffffffffffffffffffffffffffffffffffffffff\n      and\n      0xffffffffffffffffffffffffffffffffffffffff\n      and\n      dup2\n      mstore\n      0x20\n      add\n      swap1\n      dup2\n      mstore\n      0x20\n      add\n      0x00\n      keccak256\n      sload\n        /* \"feg.sol\":21779:21798  _rOwned[sender].sub */\n      tag_134\n      swap1\n        /* \"feg.sol\":21779:21807  _rOwned[sender].sub(rAmount) */\n      swap2\n      swap1\n      0xffffffff\n      and\n      jump\t// in\n    tag_304:\n        /* \"feg.sol\":21761:21768  _rOwned */\n      0x01\n        /* \"feg.sol\":21761:21776  _rOwned[sender] */\n      0x00\n        /* \"feg.sol\":21769:21775  sender */\n      dup11\n        /* \"feg.sol\":21761:21776  _rOwned[sender] */\n      0xffffffffffffffffffffffffffffffffffffffff\n      and\n      0xffffffffffffffffffffffffffffffffffffffff\n      and\n      dup2\n      mstore\n      0x20\n      add\n      swap1\n      dup2\n      mstore\n      0x20\n      add\n      0x00\n      keccak256\n        /* \"feg.sol\":21761:21807  _rOwned[sender] = _rOwned[sender].sub(rAmount) */\n      dup2\n      swap1\n      sstore\n      pop\n        /* \"feg.sol\":21838:21877  _rOwned[recipient].add(rTransferAmount) */\n      tag_305\n        /* \"feg.sol\":21861:21876  rTransferAmount */\n      dup5\n        /* \"feg.sol\":21838:21845  _rOwned */\n      0x01\n        /* \"feg.sol\":21838:21856  _rOwned[recipient] */\n      0x00\n        /* \"feg.sol\":21846:21855  recipient */\n      dup11\n        /* \"feg.sol\":21838:21856  _rOwned[recipient] */\n      0xffffffffffffffffffffffffffffffffffffffff\n      and\n      0xffffffffffffffffffffffffffffffffffffffff\n      and\n      dup2\n      mstore\n      0x20\n      add\n      swap1\n      dup2\n      mstore\n      0x20\n      add\n      0x00\n      keccak256\n      sload\n        /* \"feg.sol\":21838:21860  _rOwned[recipient].add */\n      tag_137\n      swap1\n        /* \"feg.sol\":21838:21877  _rOwned[recipient].add(rTransferAmount) */\n      swap2\n      swap1\n      0xffffffff\n      and\n      jump\t// in\n    tag_305:\n        /* \"feg.sol\":21817:21824  _rOwned */\n      0x01\n        /* \"feg.sol\":21817:21835  _rOwned[recipient] */\n      0x00\n        /* \"feg.sol\":21825:21834  recipient */\n      dup10\n        /* \"feg.sol\":21817:21835  _rOwned[recipient] */\n      0xffffffffffffffffffffffffffffffffffffffff\n      and\n      0xffffffffffffffffffffffffffffffffffffffff\n      and\n      dup2\n      mstore\n      0x20\n      add\n      swap1\n      dup2\n      mstore\n      0x20\n      add\n      0x00\n      keccak256\n        /* \"feg.sol\":21817:21877  _rOwned[recipient] = _rOwned[recipient].add(rTransferAmount) */\n      dup2\n      swap1\n      sstore\n      pop\n        /* \"feg.sol\":21894:21917  _reflectFee(rFee, tFee) */\n      tag_306\n        /* \"feg.sol\":21906:21910  rFee */\n      dup4\n        /* \"feg.sol\":21912:21916  tFee */\n      dup3\n        /* \"feg.sol\":21894:21905  _reflectFee */\n      tag_295\n        /* \"feg.sol\":21894:21917  _reflectFee(rFee, tFee) */\n      jump\t// in\n    tag_306:\n        /* \"feg.sol\":21949:21958  recipient */\n      dup7\n        /* \"feg.sol\":21932:21976  Transfer(sender, recipient, tTransferAmount) */\n      0xffffffffffffffffffffffffffffffffffffffff\n      and\n        /* \"feg.sol\":21941:21947  sender */\n      dup9\n        /* \"feg.sol\":21932:21976  Transfer(sender, recipient, tTransferAmount) */\n      0xffffffffffffffffffffffffffffffffffffffff\n      and\n      0xddf252ad1be2c89b69c2b068fc378daa952ba7f163c4a11628f55a4df523b3ef\n        /* \"feg.sol\":21960:21975  tTransferAmount */\n      dup5\n        /* \"feg.sol\":21932:21976  Transfer(sender, recipient, tTransferAmount) */\n      mload(0x40)\n      dup1\n      dup3\n      dup2\n      mstore\n      0x20\n      add\n      swap2\n      pop\n      pop\n      mload(0x40)\n      dup1\n      swap2\n      sub\n      swap1\n      log3\n        /* \"feg.sol\":21537:21983  function _transferStandard(address sender, address recipient, uint256 tAmount) private {... */\n      pop\n      pop\n      pop\n      pop\n      pop\n      pop\n      pop\n      pop\n      jump\t// out\n        /* \"feg.sol\":23025:23602  function _transferBothExcluded(address sender, address recipient, uint256 tAmount) private {... */\n    tag_264:\n        /* \"feg.sol\":23127:23142  uint256 rAmount */\n      0x00\n        /* \"feg.sol\":23144:23167  uint256 rTransferAmount */\n      dup1\n        /* \"feg.sol\":23169:23181  uint256 rFee */\n      0x00\n        /* \"feg.sol\":23183:23206  uint256 tTransferAmount */\n      dup1\n        /* \"feg.sol\":23208:23220  uint256 tFee */\n      0x00\n        /* \"feg.sol\":23224:23243  _getValues(tAmount) */\n      tag_308\n        /* \"feg.sol\":23235:23242  tAmount */\n      dup7\n        /* \"feg.sol\":23224:23234  _getValues */\n      tag_132\n        /* \"feg.sol\":23224:23243  _getValues(tAmount) */\n      jump\t// in\n    tag_308:\n        /* \"feg.sol\":23126:23243  (uint256 rAmount, uint256 rTransferAmount, uint256 rFee, uint256 tTransferAmount, uint256 tFee) = _getValues(tAmount) */\n      swap5\n      pop\n      swap5\n      pop\n      swap5\n      pop\n      swap5\n      pop\n      swap5\n      pop\n        /* \"feg.sol\":23271:23299  _tOwned[sender].sub(tAmount) */\n      tag_309\n        /* \"feg.sol\":23291:23298  tAmount */\n      dup7\n        /* \"feg.sol\":23271:23278  _tOwned */\n      0x02\n        /* \"feg.sol\":23271:23286  _tOwned[sender] */\n      0x00\n        /* \"feg.sol\":23279:23285  sender */\n      dup12\n        /* \"feg.sol\":23271:23286  _tOwned[sender] */\n      0xffffffffffffffffffffffffffffffffffffffff\n      and\n      0xffffffffffffffffffffffffffffffffffffffff\n      and\n      dup2\n      mstore\n      0x20\n      add\n      swap1\n      dup2\n      mstore\n      0x20\n      add\n      0x00\n      keccak256\n      sload\n        /* \"feg.sol\":23271:23290  _tOwned[sender].sub */\n      tag_134\n      swap1\n        /* \"feg.sol\":23271:23299  _tOwned[sender].sub(tAmount) */\n      swap2\n      swap1\n      0xffffffff\n      and\n      jump\t// in\n    tag_309:\n        /* \"feg.sol\":23253:23260  _tOwned */\n      0x02\n        /* \"feg.sol\":23253:23268  _tOwned[sender] */\n      0x00\n        /* \"feg.sol\":23261:23267  sender */\n      dup11\n        /* \"feg.sol\":23253:23268  _tOwned[sender] */\n      0xffffffffffffffffffffffffffffffffffffffff\n      and\n      0xffffffffffffffffffffffffffffffffffffffff\n      and\n      dup2\n      mstore\n      0x20\n      add\n      swap1\n      dup2\n      mstore\n      0x20\n      add\n      0x00\n      keccak256\n        /* \"feg.sol\":23253:23299  _tOwned[sender] = _tOwned[sender].sub(tAmount) */\n      dup2\n      swap1\n      sstore\n      pop\n        /* \"feg.sol\":23327:23355  _rOwned[sender].sub(rAmount) */\n      tag_310\n        /* \"feg.sol\":23347:23354  rAmount */\n      dup6\n        /* \"feg.sol\":23327:23334  _rOwned */\n      0x01\n        /* \"feg.sol\":23327:23342  _rOwned[sender] */\n      0x00\n        /* \"feg.sol\":23335:23341  sender */\n      dup12\n        /* \"feg.sol\":23327:23342  _rOwned[sender] */\n      0xffffffffffffffffffffffffffffffffffffffff\n      and\n      0xffffffffffffffffffffffffffffffffffffffff\n      and\n      dup2\n      mstore\n      0x20\n      add\n      swap1\n      dup2\n      mstore\n      0x20\n      add\n      0x00\n      keccak256\n      sload\n        /* \"feg.sol\":23327:23346  _rOwned[sender].sub */\n      tag_134\n      swap1\n        /* \"feg.sol\":23327:23355  _rOwned[sender].sub(rAmount) */\n      swap2\n      swap1\n      0xffffffff\n      and\n      jump\t// in\n    tag_310:\n        /* \"feg.sol\":23309:23316  _rOwned */\n      0x01\n        /* \"feg.sol\":23309:23324  _rOwned[sender] */\n      0x00\n        /* \"feg.sol\":23317:23323  sender */\n      dup11\n        /* \"feg.sol\":23309:23324  _rOwned[sender] */\n      0xffffffffffffffffffffffffffffffffffffffff\n      and\n      0xffffffffffffffffffffffffffffffffffffffff\n      and\n      dup2\n      mstore\n      0x20\n      add\n      swap1\n      dup2\n      mstore\n      0x20\n      add\n      0x00\n      keccak256\n        /* \"feg.sol\":23309:23355  _rOwned[sender] = _rOwned[sender].sub(rAmount) */\n      dup2\n      swap1\n      sstore\n      pop\n        /* \"feg.sol\":23386:23425  _tOwned[recipient].add(tTransferAmount) */\n      tag_311\n        /* \"feg.sol\":23409:23424  tTransferAmount */\n      dup3\n        /* \"feg.sol\":23386:23393  _tOwned */\n      0x02\n        /* \"feg.sol\":23386:23404  _tOwned[recipient] */\n      0x00\n        /* \"feg.sol\":23394:23403  recipient */\n      dup11\n        /* \"feg.sol\":23386:23404  _tOwned[recipient] */\n      0xffffffffffffffffffffffffffffffffffffffff\n      and\n      0xffffffffffffffffffffffffffffffffffffffff\n      and\n      dup2\n      mstore\n      0x20\n      add\n      swap1\n      dup2\n      mstore\n      0x20\n      add\n      0x00\n      keccak256\n      sload\n        /* \"feg.sol\":23386:23408  _tOwned[recipient].add */\n      tag_137\n      swap1\n        /* \"feg.sol\":23386:23425  _tOwned[recipient].add(tTransferAmount) */\n      swap2\n      swap1\n      0xffffffff\n      and\n      jump\t// in\n    tag_311:\n        /* \"feg.sol\":23365:23372  _tOwned */\n      0x02\n        /* \"feg.sol\":23365:23383  _tOwned[recipient] */\n      0x00\n        /* \"feg.sol\":23373:23382  recipient */\n      dup10\n        /* \"feg.sol\":23365:23383  _tOwned[recipient] */\n      0xffffffffffffffffffffffffffffffffffffffff\n      and\n      0xffffffffffffffffffffffffffffffffffffffff\n      and\n      dup2\n      mstore\n      0x20\n      add\n      swap1\n      dup2\n      mstore\n      0x20\n      add\n      0x00\n      keccak256\n        /* \"feg.sol\":23365:23425  _tOwned[recipient] = _tOwned[recipient].add(tTransferAmount) */\n      dup2\n      swap1\n      sstore\n      pop\n        /* \"feg.sol\":23456:23495  _rOwned[recipient].add(rTransferAmount) */\n      tag_312\n        /* \"feg.sol\":23479:23494  rTransferAmount */\n      dup5\n        /* \"feg.sol\":23456:23463  _rOwned */\n      0x01\n        /* \"feg.sol\":23456:23474  _rOwned[recipient] */\n      0x00\n        /* \"feg.sol\":23464:23473  recipient */\n      dup11\n        /* \"feg.sol\":23456:23474  _rOwned[recipient] */\n      0xffffffffffffffffffffffffffffffffffffffff\n      and\n      0xffffffffffffffffffffffffffffffffffffffff\n      and\n      dup2\n      mstore\n      0x20\n      add\n      swap1\n      dup2\n      mstore\n      0x20\n      add\n      0x00\n      keccak256\n      sload\n        /* \"feg.sol\":23456:23478  _rOwned[recipient].add */\n      tag_137\n      swap1\n        /* \"feg.sol\":23456:23495  _rOwned[recipient].add(rTransferAmount) */\n      swap2\n      swap1\n      0xffffffff\n      and\n      jump\t// in\n    tag_312:\n        /* \"feg.sol\":23435:23442  _rOwned */\n      0x01\n        /* \"feg.sol\":23435:23453  _rOwned[recipient] */\n      0x00\n        /* \"feg.sol\":23443:23452  recipient */\n      dup10\n        /* \"feg.sol\":23435:23453  _rOwned[recipient] */\n      0xffffffffffffffffffffffffffffffffffffffff\n      and\n      0xffffffffffffffffffffffffffffffffffffffff\n      and\n      dup2\n      mstore\n      0x20\n      add\n      swap1\n      dup2\n      mstore\n      0x20\n      add\n      0x00\n      keccak256\n        /* \"feg.sol\":23435:23495  _rOwned[recipient] = _rOwned[recipient].add(rTransferAmount) */\n      dup2\n      swap1\n      sstore\n      pop\n        /* \"feg.sol\":23513:23536  _reflectFee(rFee, tFee) */\n      tag_313\n        /* \"feg.sol\":23525:23529  rFee */\n      dup4\n        /* \"feg.sol\":23531:23535  tFee */\n      dup3\n        /* \"feg.sol\":23513:23524  _reflectFee */\n      tag_295\n        /* \"feg.sol\":23513:23536  _reflectFee(rFee, tFee) */\n      jump\t// in\n    tag_313:\n        /* \"feg.sol\":23568:23577  recipient */\n      dup7\n        /* \"feg.sol\":23551:23595  Transfer(sender, recipient, tTransferAmount) */\n      0xffffffffffffffffffffffffffffffffffffffff\n      and\n        /* \"feg.sol\":23560:23566  sender */\n      dup9\n        /* \"feg.sol\":23551:23595  Transfer(sender, recipient, tTransferAmount) */\n      0xffffffffffffffffffffffffffffffffffffffff\n      and\n      0xddf252ad1be2c89b69c2b068fc378daa952ba7f163c4a11628f55a4df523b3ef\n        /* \"feg.sol\":23579:23594  tTransferAmount */\n      dup5\n        /* \"feg.sol\":23551:23595  Transfer(sender, recipient, tTransferAmount) */\n      mload(0x40)\n      dup1\n      dup3\n      dup2\n      mstore\n      0x20\n      add\n      swap2\n      pop\n      pop\n      mload(0x40)\n      dup1\n      swap2\n      sub\n      swap1\n      log3\n        /* \"feg.sol\":23025:23602  function _transferBothExcluded(address sender, address recipient, uint256 tAmount) private {... */\n      pop\n      pop\n      pop\n      pop\n      pop\n      pop\n      pop\n      pop\n      jump\t// out\n        /* \"feg.sol\":24903:25454  function _getCurrentSupply() private view returns(uint256, uint256) {... */\n    tag_275:\n        /* \"feg.sol\":24953:24960  uint256 */\n      0x00\n        /* \"feg.sol\":24962:24969  uint256 */\n      dup1\n        /* \"feg.sol\":24981:24996  uint256 rSupply */\n      0x00\n        /* \"feg.sol\":24999:25006  _rTotal */\n      sload(0x06)\n        /* \"feg.sol\":24981:25006  uint256 rSupply = _rTotal */\n      swap1\n      pop\n        /* \"feg.sol\":25016:25031  uint256 tSupply */\n      0x00\n        /* \"feg.sol\":15991:16019  100000000000 * 10**6 * 10**9 */\n      0x52b7d2dcc80cd2e4000000\n        /* \"feg.sol\":25016:25041  uint256 tSupply = _tTotal */\n      swap1\n      pop\n        /* \"feg.sol\":25062:25071  uint256 i */\n      0x00\n        /* \"feg.sol\":25057:25342  for (uint256 i = 0; i < _excluded.length; i++) {... */\n    tag_315:\n        /* \"feg.sol\":25081:25090  _excluded */\n      0x05\n        /* \"feg.sol\":25081:25097  _excluded.length */\n      dup1\n      sload\n      swap1\n      pop\n        /* \"feg.sol\":25077:25078  i */\n      dup2\n        /* \"feg.sol\":25077:25097  i < _excluded.length */\n      lt\n        /* \"feg.sol\":25057:25342  for (uint256 i = 0; i < _excluded.length; i++) {... */\n      iszero\n      tag_316\n      jumpi\n        /* \"feg.sol\":25146:25153  rSupply */\n      dup3\n        /* \"feg.sol\":25122:25129  _rOwned */\n      0x01\n        /* \"feg.sol\":25122:25143  _rOwned[_excluded[i]] */\n      0x00\n        /* \"feg.sol\":25130:25139  _excluded */\n      0x05\n        /* \"feg.sol\":25140:25141  i */\n      dup5\n        /* \"feg.sol\":25130:25142  _excluded[i] */\n      dup2\n      sload\n      dup2\n      lt\n      tag_318\n      jumpi\n      invalid\n    tag_318:\n      swap1\n      0x00\n      mstore\n      keccak256(0x00, 0x20)\n      add\n      0x00\n      swap1\n      sload\n      swap1\n      0x0100\n      exp\n      swap1\n      div\n      0xffffffffffffffffffffffffffffffffffffffff\n      and\n        /* \"feg.sol\":25122:25143  _rOwned[_excluded[i]] */\n      0xffffffffffffffffffffffffffffffffffffffff\n      and\n      0xffffffffffffffffffffffffffffffffffffffff\n      and\n      dup2\n      mstore\n      0x20\n      add\n      swap1\n      dup2\n      mstore\n      0x20\n      add\n      0x00\n      keccak256\n      sload\n        /* \"feg.sol\":25122:25153  _rOwned[_excluded[i]] > rSupply */\n      gt\n        /* \"feg.sol\":25122:25188  _rOwned[_excluded[i]] > rSupply || _tOwned[_excluded[i]] > tSupply */\n      dup1\n      tag_320\n      jumpi\n      pop\n        /* \"feg.sol\":25181:25188  tSupply */\n      dup2\n        /* \"feg.sol\":25157:25164  _tOwned */\n      0x02\n        /* \"feg.sol\":25157:25178  _tOwned[_excluded[i]] */\n      0x00\n        /* \"feg.sol\":25165:25174  _excluded */\n      0x05\n        /* \"feg.sol\":25175:25176  i */\n      dup5\n        /* \"feg.sol\":25165:25177  _excluded[i] */\n      dup2\n      sload\n      dup2\n      lt\n      tag_321\n      jumpi\n      invalid\n    tag_321:\n      swap1\n      0x00\n      mstore\n      keccak256(0x00, 0x20)\n      add\n      0x00\n      swap1\n      sload\n      swap1\n      0x0100\n      exp\n      swap1\n      div\n      0xffffffffffffffffffffffffffffffffffffffff\n      and\n        /* \"feg.sol\":25157:25178  _tOwned[_excluded[i]] */\n      0xffffffffffffffffffffffffffffffffffffffff\n      and\n      0xffffffffffffffffffffffffffffffffffffffff\n      and\n      dup2\n      mstore\n      0x20\n      add\n      swap1\n      dup2\n      mstore\n      0x20\n      add\n      0x00\n      keccak256\n      sload\n        /* \"feg.sol\":25157:25188  _tOwned[_excluded[i]] > tSupply */\n      gt\n        /* \"feg.sol\":25122:25188  _rOwned[_excluded[i]] > rSupply || _tOwned[_excluded[i]] > tSupply */\n    tag_320:\n        /* \"feg.sol\":25118:25215  if (_rOwned[_excluded[i]] > rSupply || _tOwned[_excluded[i]] > tSupply) return (_rTotal, _tTotal) */\n      iszero\n      tag_323\n      jumpi\n        /* \"feg.sol\":25198:25205  _rTotal */\n      sload(0x06)\n        /* \"feg.sol\":15991:16019  100000000000 * 10**6 * 10**9 */\n      0x52b7d2dcc80cd2e4000000\n        /* \"feg.sol\":25190:25215  return (_rTotal, _tTotal) */\n      swap5\n      pop\n      swap5\n      pop\n      pop\n      pop\n      pop\n      jump(tag_314)\n        /* \"feg.sol\":25118:25215  if (_rOwned[_excluded[i]] > rSupply || _tOwned[_excluded[i]] > tSupply) return (_rTotal, _tTotal) */\n    tag_323:\n        /* \"feg.sol\":25239:25273  rSupply.sub(_rOwned[_excluded[i]]) */\n      tag_324\n        /* \"feg.sol\":25251:25258  _rOwned */\n      0x01\n        /* \"feg.sol\":25251:25272  _rOwned[_excluded[i]] */\n      0x00\n        /* \"feg.sol\":25259:25268  _excluded */\n      0x05\n        /* \"feg.sol\":25269:25270  i */\n      dup5\n        /* \"feg.sol\":25259:25271  _excluded[i] */\n      dup2\n      sload\n      dup2\n      lt\n      tag_325\n      jumpi\n      invalid\n    tag_325:\n      swap1\n      0x00\n      mstore\n      keccak256(0x00, 0x20)\n      add\n      0x00\n      swap1\n      sload\n      swap1\n      0x0100\n      exp\n      swap1\n      div\n      0xffffffffffffffffffffffffffffffffffffffff\n      and\n        /* \"feg.sol\":25251:25272  _rOwned[_excluded[i]] */\n      0xffffffffffffffffffffffffffffffffffffffff\n      and\n      0xffffffffffffffffffffffffffffffffffffffff\n      and\n      dup2\n      mstore\n      0x20\n      add\n      swap1\n      dup2\n      mstore\n      0x20\n      add\n      0x00\n      keccak256\n      sload\n        /* \"feg.sol\":25239:25246  rSupply */\n      dup5\n        /* \"feg.sol\":25239:25250  rSupply.sub */\n      tag_134\n      swap1\n        /* \"feg.sol\":25239:25273  rSupply.sub(_rOwned[_excluded[i]]) */\n      swap2\n      swap1\n      0xffffffff\n      and\n      jump\t// in\n    tag_324:\n        /* \"feg.sol\":25229:25273  rSupply = rSupply.sub(_rOwned[_excluded[i]]) */\n      swap3\n      pop\n        /* \"feg.sol\":25297:25331  tSupply.sub(_tOwned[_excluded[i]]) */\n      tag_327\n        /* \"feg.sol\":25309:25316  _tOwned */\n      0x02\n        /* \"feg.sol\":25309:25330  _tOwned[_excluded[i]] */\n      0x00\n        /* \"feg.sol\":25317:25326  _excluded */\n      0x05\n        /* \"feg.sol\":25327:25328  i */\n      dup5\n        /* \"feg.sol\":25317:25329  _excluded[i] */\n      dup2\n      sload\n      dup2\n      lt\n      tag_328\n      jumpi\n      invalid\n    tag_328:\n      swap1\n      0x00\n      mstore\n      keccak256(0x00, 0x20)\n      add\n      0x00\n      swap1\n      sload\n      swap1\n      0x0100\n      exp\n      swap1\n      div\n      0xffffffffffffffffffffffffffffffffffffffff\n      and\n        /* \"feg.sol\":25309:25330  _tOwned[_excluded[i]] */\n      0xffffffffffffffffffffffffffffffffffffffff\n      and\n      0xffffffffffffffffffffffffffffffffffffffff\n      and\n      dup2\n      mstore\n      0x20\n      add\n      swap1\n      dup2\n      mstore\n      0x20\n      add\n      0x00\n      keccak256\n      sload\n        /* \"feg.sol\":25297:25304  tSupply */\n      dup4\n        /* \"feg.sol\":25297:25308  tSupply.sub */\n      tag_134\n      swap1\n        /* \"feg.sol\":25297:25331  tSupply.sub(_tOwned[_excluded[i]]) */\n      swap2\n      swap1\n      0xffffffff\n      and\n      jump\t// in\n    tag_327:\n        /* \"feg.sol\":25287:25331  tSupply = tSupply.sub(_tOwned[_excluded[i]]) */\n      swap2\n      pop\n        /* \"feg.sol\":25099:25102  i++ */\n      dup1\n      dup1\n      0x01\n      add\n      swap2\n      pop\n      pop\n        /* \"feg.sol\":25057:25342  for (uint256 i = 0; i < _excluded.length; i++) {... */\n      jump(tag_315)\n    tag_316:\n      pop\n        /* \"feg.sol\":25365:25385  _rTotal.div(_tTotal) */\n      tag_330\n        /* \"feg.sol\":15991:16019  100000000000 * 10**6 * 10**9 */\n      0x52b7d2dcc80cd2e4000000\n        /* \"feg.sol\":25365:25372  _rTotal */\n      sload(0x06)\n        /* \"feg.sol\":25365:25376  _rTotal.div */\n      tag_161\n      swap1\n        /* \"feg.sol\":25365:25385  _rTotal.div(_tTotal) */\n      swap2\n      swap1\n      0xffffffff\n      and\n      jump\t// in\n    tag_330:\n        /* \"feg.sol\":25355:25362  rSupply */\n      dup3\n        /* \"feg.sol\":25355:25385  rSupply < _rTotal.div(_tTotal) */\n      lt\n        /* \"feg.sol\":25351:25412  if (rSupply < _rTotal.div(_tTotal)) return (_rTotal, _tTotal) */\n      iszero\n      tag_331\n      jumpi\n        /* \"feg.sol\":25395:25402  _rTotal */\n      sload(0x06)\n        /* \"feg.sol\":15991:16019  100000000000 * 10**6 * 10**9 */\n      0x52b7d2dcc80cd2e4000000\n        /* \"feg.sol\":25387:25412  return (_rTotal, _tTotal) */\n      swap4\n      pop\n      swap4\n      pop\n      pop\n      pop\n      jump(tag_314)\n        /* \"feg.sol\":25351:25412  if (rSupply < _rTotal.div(_tTotal)) return (_rTotal, _tTotal) */\n    tag_331:\n        /* \"feg.sol\":25430:25437  rSupply */\n      dup2\n        /* \"feg.sol\":25439:25446  tSupply */\n      dup2\n        /* \"feg.sol\":25422:25447  return (rSupply, tSupply) */\n      swap4\n      pop\n      swap4\n      pop\n      pop\n      pop\n        /* \"feg.sol\":24903:25454  function _getCurrentSupply() private view returns(uint256, uint256) {... */\n    tag_314:\n      swap1\n      swap2\n      jump\t// out\n        /* \"feg.sol\":6451:6723  function div(uint256 a, uint256 b, string memory errorMessage) internal pure returns (uint256) {... */\n    tag_279:\n        /* \"feg.sol\":6537:6544  uint256 */\n      0x00\n        /* \"feg.sol\":6568:6569  0 */\n      dup1\n        /* \"feg.sol\":6564:6565  b */\n      dup4\n        /* \"feg.sol\":6564:6569  b > 0 */\n      gt\n        /* \"feg.sol\":6571:6583  errorMessage */\n      dup3\n        /* \"feg.sol\":6556:6584  require(b > 0, errorMessage) */\n      swap1\n      tag_333\n      jumpi\n      mload(0x40)\n      0x08c379a000000000000000000000000000000000000000000000000000000000\n      dup2\n      mstore\n      0x04\n      add\n      dup1\n      dup1\n      0x20\n      add\n      dup3\n      dup2\n      sub\n      dup3\n      mstore\n      dup4\n      dup2\n      dup2\n      mload\n      dup2\n      mstore\n      0x20\n      add\n      swap2\n      pop\n      dup1\n      mload\n      swap1\n      0x20\n      add\n      swap1\n      dup1\n      dup4\n      dup4\n      0x00\n    tag_334:\n      dup4\n      dup2\n      lt\n      iszero\n      tag_336\n      jumpi\n      dup1\n      dup3\n      add\n      mload\n      dup2\n      dup5\n      add\n      mstore\n      0x20\n      dup2\n      add\n      swap1\n      pop\n      jump(tag_334)\n    tag_336:\n      pop\n      pop\n      pop\n      pop\n      swap1\n      pop\n      swap1\n      dup2\n      add\n      swap1\n      0x1f\n      and\n      dup1\n      iszero\n      tag_337\n      jumpi\n      dup1\n      dup3\n      sub\n      dup1\n      mload\n      0x01\n      dup4\n      0x20\n      sub\n      0x0100\n      exp\n      sub\n      not\n      and\n      dup2\n      mstore\n      0x20\n      add\n      swap2\n      pop\n    tag_337:\n      pop\n      swap3\n      pop\n      pop\n      pop\n      mload(0x40)\n      dup1\n      swap2\n      sub\n      swap1\n      revert\n    tag_333:\n      pop\n        /* \"feg.sol\":6594:6603  uint256 c */\n      0x00\n        /* \"feg.sol\":6610:6611  b */\n      dup4\n        /* \"feg.sol\":6606:6607  a */\n      dup6\n        /* \"feg.sol\":6606:6611  a / b */\n      dup2\n      tag_338\n      jumpi\n      invalid\n    tag_338:\n      div\n        /* \"feg.sol\":6594:6611  uint256 c = a / b */\n      swap1\n      pop\n        /* \"feg.sol\":6715:6716  c */\n      dup1\n        /* \"feg.sol\":6708:6716  return c */\n      swap2\n      pop\n      pop\n        /* \"feg.sol\":6451:6723  function div(uint256 a, uint256 b, string memory errorMessage) internal pure returns (uint256) {... */\n      swap4\n      swap3\n      pop\n      pop\n      pop\n      jump\t// out\n        /* \"feg.sol\":4918:5377  function mul(uint256 a, uint256 b) internal pure returns (uint256) {... */\n    tag_283:\n        /* \"feg.sol\":4976:4983  uint256 */\n      0x00\n        /* \"feg.sol\":5222:5223  0 */\n      dup1\n        /* \"feg.sol\":5217:5218  a */\n      dup4\n        /* \"feg.sol\":5217:5223  a == 0 */\n      eq\n        /* \"feg.sol\":5213:5258  if (a == 0) {... */\n      iszero\n      tag_340\n      jumpi\n        /* \"feg.sol\":5246:5247  0 */\n      0x00\n        /* \"feg.sol\":5239:5247  return 0 */\n      swap1\n      pop\n      jump(tag_339)\n        /* \"feg.sol\":5213:5258  if (a == 0) {... */\n    tag_340:\n        /* \"feg.sol\":5268:5277  uint256 c */\n      0x00\n        /* \"feg.sol\":5284:5285  b */\n      dup3\n        /* \"feg.sol\":5280:5281  a */\n      dup5\n        /* \"feg.sol\":5280:5285  a * b */\n      mul\n        /* \"feg.sol\":5268:5285  uint256 c = a * b */\n      swap1\n      pop\n        /* \"feg.sol\":5312:5313  b */\n      dup3\n        /* \"feg.sol\":5307:5308  a */\n      dup5\n        /* \"feg.sol\":5303:5304  c */\n      dup3\n        /* \"feg.sol\":5303:5308  c / a */\n      dup2\n      tag_341\n      jumpi\n      invalid\n    tag_341:\n      div\n        /* \"feg.sol\":5303:5313  c / a == b */\n      eq\n        /* \"feg.sol\":5295:5351  require(c / a == b, \"SafeMath: multiplication overflow\") */\n      tag_342\n      jumpi\n      mload(0x40)\n      0x08c379a000000000000000000000000000000000000000000000000000000000\n      dup2\n      mstore\n      0x04\n      add\n      dup1\n      dup1\n      0x20\n      add\n      dup3\n      dup2\n      sub\n      dup3\n      mstore\n      0x21\n      dup2\n      mstore\n      0x20\n      add\n      dup1\n      data_9113bb53c2876a3805b2c9242029423fc540a728243ce887ab24c82cf119fba3\n      0x21\n      swap2\n      codecopy\n      0x40\n      add\n      swap2\n      pop\n      pop\n      mload(0x40)\n      dup1\n      swap2\n      sub\n      swap1\n      revert\n    tag_342:\n        /* \"feg.sol\":5369:5370  c */\n      dup1\n        /* \"feg.sol\":5362:5370  return c */\n      swap2\n      pop\n      pop\n        /* \"feg.sol\":4918:5377  function mul(uint256 a, uint256 b) internal pure returns (uint256) {... */\n    tag_339:\n      swap3\n      swap2\n      pop\n      pop\n      jump\t// out\n        /* \"feg.sol\":23608:23752  function _reflectFee(uint256 rFee, uint256 tFee) private {... */\n    tag_295:\n        /* \"feg.sol\":23685:23702  _rTotal.sub(rFee) */\n      tag_344\n        /* \"feg.sol\":23697:23701  rFee */\n      dup3\n        /* \"feg.sol\":23685:23692  _rTotal */\n      sload(0x06)\n        /* \"feg.sol\":23685:23696  _rTotal.sub */\n      tag_134\n      swap1\n        /* \"feg.sol\":23685:23702  _rTotal.sub(rFee) */\n      swap2\n      swap1\n      0xffffffff\n      and\n      jump\t// in\n    tag_344:\n        /* \"feg.sol\":23675:23682  _rTotal */\n      0x06\n        /* \"feg.sol\":23675:23702  _rTotal = _rTotal.sub(rFee) */\n      dup2\n      swap1\n      sstore\n      pop\n        /* \"feg.sol\":23725:23745  _tFeeTotal.add(tFee) */\n      tag_345\n        /* \"feg.sol\":23740:23744  tFee */\n      dup2\n        /* \"feg.sol\":23725:23735  _tFeeTotal */\n      sload(0x07)\n        /* \"feg.sol\":23725:23739  _tFeeTotal.add */\n      tag_137\n      swap1\n        /* \"feg.sol\":23725:23745  _tFeeTotal.add(tFee) */\n      swap2\n      swap1\n      0xffffffff\n      and\n      jump\t// in\n    tag_345:\n        /* \"feg.sol\":23712:23722  _tFeeTotal */\n      0x07\n        /* \"feg.sol\":23712:23745  _tFeeTotal = _tFeeTotal.add(tFee) */\n      dup2\n      swap1\n      sstore\n      pop\n        /* \"feg.sol\":23608:23752  function _reflectFee(uint256 rFee, uint256 tFee) private {... */\n      pop\n      pop\n      jump\t// out\n    stop\n    data_0557e210f7a69a685100a7e4e3d0a7024c546085cee28910fd17d0b081d9516f 45524332303a207472616e7366657220746f20746865207a65726f2061646472657373\n    data_22f7af55a509c3b14f0d528f087748dec8a8bf425135e3f5dc28c6a31ec6d812 416d6f756e74206d757374206265206c657373207468616e20746f74616c207265666c656374696f6e73\n    data_245f15ff17f551913a7a18385165551503906a406f905ac1c2437281a7cd0cfe 4f776e61626c653a206e6577206f776e657220697320746865207a65726f2061646472657373\n    data_24883cc5fe64ace9d0df1893501ecb93c77180f0ff69cca79affb3c316dc8029 45524332303a20617070726f766520746f20746865207a65726f2061646472657373\n    data_9113bb53c2876a3805b2c9242029423fc540a728243ce887ab24c82cf119fba3 536166654d6174683a206d756c7469706c69636174696f6e206f766572666c6f77\n    data_974d1b4421da69cc60b481194f0dad36a5bb4e23da810da7a7fb30cdba178330 45524332303a207472616e7366657220616d6f756e74206578636565647320616c6c6f77616e6365\n    data_9edb5ab58321f35d2386ea65721c9b107daa2c273610fc16d394af2a320ba785 5472616e7366657220616d6f756e74206d7573742062652067726561746572207468616e207a65726f\n    data_baecc556b46f4ed0f2b4cb599d60785ac8563dd2dc0a5bf12edea1c39e5e1fea 45524332303a207472616e736665722066726f6d20746865207a65726f2061646472657373\n    data_c953f4879035ed60e766b34720f656aab5c697b141d924c283124ecedb91c208 45524332303a20617070726f76652066726f6d20746865207a65726f2061646472657373\n    data_ecefcaf5fbcf9ca6dcdb02298ba1da96f4ead317b0a4779917ecb2e5e7dc3ac4 4578636c75646564206164647265737365732063616e6e6f742063616c6c20746869732066756e6374696f6e\n    data_f8b476f7d28209d77d4a4ac1fe36b9f8259aa1bb6bddfa6e89de7e51615cf8a8 45524332303a2064656372656173656420616c6c6f77616e63652062656c6f77207a65726f\n\n    auxdata: 0xa2646970667358221220845ac6596d9c4322f54f93f68f51b20440519effce7c1ee59276029d3c89099164736f6c634300060c0033\n}\n",
				"bytecode": {
					"linkReferences": {},
					"object": "60806040526a52b7d2dcc80cd2e4000000600019816200001b57fe5b06600019036006556040518060400160405280600881526020017f464547746f6b656e00000000000000000000000000000000000000000000000081525060089080519060200190620000709291906200027c565b506040518060400160405280600381526020017f464547000000000000000000000000000000000000000000000000000000000081525060099080519060200190620000be9291906200027c565b506009600a60006101000a81548160ff021916908360ff160217905550348015620000e857600080fd5b506000620000fb6200027460201b60201c565b9050806000806101000a81548173ffffffffffffffffffffffffffffffffffffffff021916908373ffffffffffffffffffffffffffffffffffffffff1602179055508073ffffffffffffffffffffffffffffffffffffffff16600073ffffffffffffffffffffffffffffffffffffffff167f8be0079c531659141344cd1fd0a4f28419497f9722a3daafe3b4186f6b6457e060405160405180910390a35060065460016000620001b06200027460201b60201c565b73ffffffffffffffffffffffffffffffffffffffff1673ffffffffffffffffffffffffffffffffffffffff16815260200190815260200160002081905550620001fe6200027460201b60201c565b73ffffffffffffffffffffffffffffffffffffffff16600073ffffffffffffffffffffffffffffffffffffffff167fddf252ad1be2c89b69c2b068fc378daa952ba7f163c4a11628f55a4df523b3ef6a52b7d2dcc80cd2e40000006040518082815260200191505060405180910390a362000322565b600033905090565b828054600181600116156101000203166002900490600052602060002090601f016020900481019282601f10620002bf57805160ff1916838001178555620002f0565b82800160010185558215620002f0579182015b82811115620002ef578251825591602001919060010190620002d2565b5b509050620002ff919062000303565b5090565b5b808211156200031e57600081600090555060010162000304565b5090565b61373680620003326000396000f3fe608060405234801561001057600080fd5b50600436106101da5760003560e01c80634d09deb311610104578063af465a27116100a2578063f2cc0c1811610071578063f2cc0c18146109b0578063f2fde38b146109f4578063f84354f114610a38578063fb1eb14b14610a7c576101da565b8063af465a27146108a2578063cba0e996146108c0578063d49d51811461091a578063dd62ed3e14610938576101da565b80638da5cb5b116100de5780638da5cb5b1461072357806395d89b4114610757578063a457c2d7146107da578063a9059cbb1461083e576101da565b80634d09deb31461066957806370a08231146106c1578063715018a614610719576101da565b806318160ddd1161017c578063395093511161014b57806339509351146105415780633b7e6d4a146105a55780634549b039146105fd57806345e0b9d41461064b576101da565b806318160ddd1461043c57806323b872dd1461045a5780632d838119146104de578063313ce56714610520576101da565b8063095ea7b3116101b8578063095ea7b3146103085780630b285b1f1461036c5780630cfc15f9146103c657806313114a9d1461041e576101da565b8063024c2ddd146101df578063053ab1821461025757806306fdde0314610285575b600080fd5b610241600480360360408110156101f557600080fd5b81019080803573ffffffffffffffffffffffffffffffffffffffff169060200190929190803573ffffffffffffffffffffffffffffffffffffffff169060200190929190505050610a9a565b6040518082815260200191505060405180910390f35b6102836004803603602081101561026d57600080fd5b8101908080359060200190929190505050610abf565b005b61028d610c4f565b6040518080602001828103825283818151815260200191508051906020019080838360005b838110156102cd5780820151818401526020810190506102b2565b50505050905090810190601f1680156102fa5780820380516001836020036101000a031916815260200191505b509250505060405180910390f35b6103546004803603604081101561031e57600080fd5b81019080803573ffffffffffffffffffffffffffffffffffffffff16906020019092919080359060200190929190505050610cf1565b60405180821515815260200191505060405180910390f35b6103ae6004803603602081101561038257600080fd5b81019080803573ffffffffffffffffffffffffffffffffffffffff169060200190929190505050610d0f565b60405180821515815260200191505060405180910390f35b610408600480360360208110156103dc57600080fd5b81019080803573ffffffffffffffffffffffffffffffffffffffff169060200190929190505050610d2f565b6040518082815260200191505060405180910390f35b610426610d47565b6040518082815260200191505060405180910390f35b610444610d51565b6040518082815260200191505060405180910390f35b6104c66004803603606081101561047057600080fd5b81019080803573ffffffffffffffffffffffffffffffffffffffff169060200190929190803573ffffffffffffffffffffffffffffffffffffffff16906020019092919080359060200190929190505050610d64565b60405180821515815260200191505060405180910390f35b61050a600480360360208110156104f457600080fd5b8101908080359060200190929190505050610e3d565b6040518082815260200191505060405180910390f35b610528610ec1565b604051808260ff16815260200191505060405180910390f35b61058d6004803603604081101561055757600080fd5b81019080803573ffffffffffffffffffffffffffffffffffffffff16906020019092919080359060200190929190505050610ed8565b60405180821515815260200191505060405180910390f35b6105e7600480360360208110156105bb57600080fd5b81019080803573ffffffffffffffffffffffffffffffffffffffff169060200190929190505050610f8b565b6040518082815260200191505060405180910390f35b6106356004803603604081101561061357600080fd5b8101908080359060200190929190803515159060200190929190505050610fa3565b6040518082815260200191505060405180910390f35b610653611061565b6040518082815260200191505060405180910390f35b6106956004803603602081101561067f57600080fd5b8101908080359060200190929190505050611067565b604051808273ffffffffffffffffffffffffffffffffffffffff16815260200191505060405180910390f35b610703600480360360208110156106d757600080fd5b81019080803573ffffffffffffffffffffffffffffffffffffffff1690602001909291905050506110a3565b6040518082815260200191505060405180910390f35b61072161118e565b005b61072b611314565b604051808273ffffffffffffffffffffffffffffffffffffffff16815260200191505060405180910390f35b61075f61133d565b6040518080602001828103825283818151815260200191508051906020019080838360005b8381101561079f578082015181840152602081019050610784565b50505050905090810190601f1680156107cc5780820380516001836020036101000a031916815260200191505b509250505060405180910390f35b610826600480360360408110156107f057600080fd5b81019080803573ffffffffffffffffffffffffffffffffffffffff169060200190929190803590602001909291905050506113df565b60405180821515815260200191505060405180910390f35b61088a6004803603604081101561085457600080fd5b81019080803573ffffffffffffffffffffffffffffffffffffffff169060200190929190803590602001909291905050506114ac565b60405180821515815260200191505060405180910390f35b6108aa6114ca565b6040518082815260200191505060405180910390f35b610902600480360360208110156108d657600080fd5b81019080803573ffffffffffffffffffffffffffffffffffffffff1690602001909291905050506114d9565b60405180821515815260200191505060405180910390f35b61092261152f565b6040518082815260200191505060405180910390f35b61099a6004803603604081101561094e57600080fd5b81019080803573ffffffffffffffffffffffffffffffffffffffff169060200190929190803573ffffffffffffffffffffffffffffffffffffffff169060200190929190505050611535565b6040518082815260200191505060405180910390f35b6109f2600480360360208110156109c657600080fd5b81019080803573ffffffffffffffffffffffffffffffffffffffff1690602001909291905050506115bc565b005b610a3660048036036020811015610a0a57600080fd5b81019080803573ffffffffffffffffffffffffffffffffffffffff1690602001909291905050506118d6565b005b610a7a60048036036020811015610a4e57600080fd5b81019080803573ffffffffffffffffffffffffffffffffffffffff169060200190929190505050611ae1565b005b610a84611e6b565b6040518082815260200191505060405180910390f35b6003602052816000526040600020602052806000526040600020600091509150505481565b6000610ac9611e71565b9050600460008273ffffffffffffffffffffffffffffffffffffffff1673ffffffffffffffffffffffffffffffffffffffff16815260200190815260200160002060009054906101000a900460ff1615610b6e576040517f08c379a000000000000000000000000000000000000000000000000000000000815260040180806020018281038252602c8152602001806136b0602c913960400191505060405180910390fd5b6000610b7983611e79565b505050509050610bd181600160008573ffffffffffffffffffffffffffffffffffffffff1673ffffffffffffffffffffffffffffffffffffffff16815260200190815260200160002054611ed190919063ffffffff16565b600160008473ffffffffffffffffffffffffffffffffffffffff1673ffffffffffffffffffffffffffffffffffffffff16815260200190815260200160002081905550610c2981600654611ed190919063ffffffff16565b600681905550610c4483600754611f1b90919063ffffffff16565b600781905550505050565b606060088054600181600116156101000203166002900480601f016020809104026020016040519081016040528092919081815260200182805460018160011615610100020316600290048015610ce75780601f10610cbc57610100808354040283529160200191610ce7565b820191906000526020600020905b815481529060010190602001808311610cca57829003601f168201915b5050505050905090565b6000610d05610cfe611e71565b8484611fa3565b6001905092915050565b60046020528060005260406000206000915054906101000a900460ff1681565b60016020528060005260406000206000915090505481565b6000600754905090565b60006a52b7d2dcc80cd2e4000000905090565b6000610d7184848461219a565b610e3284610d7d611e71565b610e2d8560405180606001604052806028815260200161361660289139600360008b73ffffffffffffffffffffffffffffffffffffffff1673ffffffffffffffffffffffffffffffffffffffff1681526020019081526020016000206000610de3611e71565b73ffffffffffffffffffffffffffffffffffffffff1673ffffffffffffffffffffffffffffffffffffffff168152602001908152602001600020546125f39092919063ffffffff16565b611fa3565b600190509392505050565b6000600654821115610e9a576040517f08c379a000000000000000000000000000000000000000000000000000000000815260040180806020018281038252602a815260200180613583602a913960400191505060405180910390fd5b6000610ea46126b3565b9050610eb981846126de90919063ffffffff16565b915050919050565b6000600a60009054906101000a900460ff16905090565b6000610f81610ee5611e71565b84610f7c8560036000610ef6611e71565b73ffffffffffffffffffffffffffffffffffffffff1673ffffffffffffffffffffffffffffffffffffffff16815260200190815260200160002060008973ffffffffffffffffffffffffffffffffffffffff1673ffffffffffffffffffffffffffffffffffffffff16815260200190815260200160002054611f1b90919063ffffffff16565b611fa3565b6001905092915050565b60026020528060005260406000206000915090505481565b60006a52b7d2dcc80cd2e4000000831115611026576040517f08c379a000000000000000000000000000000000000000000000000000000000815260040180806020018281038252601f8152602001807f416d6f756e74206d757374206265206c657373207468616e20737570706c790081525060200191505060405180910390fd5b8161104557600061103684611e79565b5050505090508091505061105b565b600061105084611e79565b505050915050809150505b92915050565b60065481565b6005818154811061107457fe5b906000526020600020016000915054906101000a900473ffffffffffffffffffffffffffffffffffffffff1681565b6000600460008373ffffffffffffffffffffffffffffffffffffffff1673ffffffffffffffffffffffffffffffffffffffff16815260200190815260200160002060009054906101000a900460ff161561113e57600260008373ffffffffffffffffffffffffffffffffffffffff1673ffffffffffffffffffffffffffffffffffffffff168152602001908152602001600020549050611189565b611186600160008473ffffffffffffffffffffffffffffffffffffffff1673ffffffffffffffffffffffffffffffffffffffff16815260200190815260200160002054610e3d565b90505b919050565b611196611e71565b73ffffffffffffffffffffffffffffffffffffffff1660008054906101000a900473ffffffffffffffffffffffffffffffffffffffff1673ffffffffffffffffffffffffffffffffffffffff1614611256576040517f08c379a00000000000000000000000000000000000000000000000000000000081526004018080602001828103825260208152602001807f4f776e61626c653a2063616c6c6572206973206e6f7420746865206f776e657281525060200191505060405180910390fd5b600073ffffffffffffffffffffffffffffffffffffffff1660008054906101000a900473ffffffffffffffffffffffffffffffffffffffff1673ffffffffffffffffffffffffffffffffffffffff167f8be0079c531659141344cd1fd0a4f28419497f9722a3daafe3b4186f6b6457e060405160405180910390a360008060006101000a81548173ffffffffffffffffffffffffffffffffffffffff021916908373ffffffffffffffffffffffffffffffffffffffff160217905550565b60008060009054906101000a900473ffffffffffffffffffffffffffffffffffffffff16905090565b606060098054600181600116156101000203166002900480601f0160208091040260200160405190810160405280929190818152602001828054600181600116156101000203166002900480156113d55780601f106113aa576101008083540402835291602001916113d5565b820191906000526020600020905b8154815290600101906020018083116113b857829003601f168201915b5050505050905090565b60006114a26113ec611e71565b8461149d856040518060600160405280602581526020016136dc6025913960036000611416611e71565b73ffffffffffffffffffffffffffffffffffffffff1673ffffffffffffffffffffffffffffffffffffffff16815260200190815260200160002060008a73ffffffffffffffffffffffffffffffffffffffff1673ffffffffffffffffffffffffffffffffffffffff168152602001908152602001600020546125f39092919063ffffffff16565b611fa3565b6001905092915050565b60006114c06114b9611e71565b848461219a565b6001905092915050565b6a52b7d2dcc80cd2e400000081565b6000600460008373ffffffffffffffffffffffffffffffffffffffff1673ffffffffffffffffffffffffffffffffffffffff16815260200190815260200160002060009054906101000a900460ff169050919050565b60001981565b6000600360008473ffffffffffffffffffffffffffffffffffffffff1673ffffffffffffffffffffffffffffffffffffffff16815260200190815260200160002060008373ffffffffffffffffffffffffffffffffffffffff1673ffffffffffffffffffffffffffffffffffffffff16815260200190815260200160002054905092915050565b6115c4611e71565b73ffffffffffffffffffffffffffffffffffffffff1660008054906101000a900473ffffffffffffffffffffffffffffffffffffffff1673ffffffffffffffffffffffffffffffffffffffff1614611684576040517f08c379a00000000000000000000000000000000000000000000000000000000081526004018080602001828103825260208152602001807f4f776e61626c653a2063616c6c6572206973206e6f7420746865206f776e657281525060200191505060405180910390fd5b600460008273ffffffffffffffffffffffffffffffffffffffff1673ffffffffffffffffffffffffffffffffffffffff16815260200190815260200160002060009054906101000a900460ff1615611744576040517f08c379a000000000000000000000000000000000000000000000000000000000815260040180806020018281038252601b8152602001807f4163636f756e7420697320616c7265616479206578636c75646564000000000081525060200191505060405180910390fd5b6000600160008373ffffffffffffffffffffffffffffffffffffffff1673ffffffffffffffffffffffffffffffffffffffff168152602001908152602001600020541115611818576117d4600160008373ffffffffffffffffffffffffffffffffffffffff1673ffffffffffffffffffffffffffffffffffffffff16815260200190815260200160002054610e3d565b600260008373ffffffffffffffffffffffffffffffffffffffff1673ffffffffffffffffffffffffffffffffffffffff168152602001908152602001600020819055505b6001600460008373ffffffffffffffffffffffffffffffffffffffff1673ffffffffffffffffffffffffffffffffffffffff16815260200190815260200160002060006101000a81548160ff0219169083151502179055506005819080600181540180825580915050600190039060005260206000200160009091909190916101000a81548173ffffffffffffffffffffffffffffffffffffffff021916908373ffffffffffffffffffffffffffffffffffffffff16021790555050565b6118de611e71565b73ffffffffffffffffffffffffffffffffffffffff1660008054906101000a900473ffffffffffffffffffffffffffffffffffffffff1673ffffffffffffffffffffffffffffffffffffffff161461199e576040517f08c379a00000000000000000000000000000000000000000000000000000000081526004018080602001828103825260208152602001807f4f776e61626c653a2063616c6c6572206973206e6f7420746865206f776e657281525060200191505060405180910390fd5b600073ffffffffffffffffffffffffffffffffffffffff168173ffffffffffffffffffffffffffffffffffffffff161415611a24576040517f08c379a00000000000000000000000000000000000000000000000000000000081526004018080602001828103825260268152602001806135ad6026913960400191505060405180910390fd5b8073ffffffffffffffffffffffffffffffffffffffff1660008054906101000a900473ffffffffffffffffffffffffffffffffffffffff1673ffffffffffffffffffffffffffffffffffffffff167f8be0079c531659141344cd1fd0a4f28419497f9722a3daafe3b4186f6b6457e060405160405180910390a3806000806101000a81548173ffffffffffffffffffffffffffffffffffffffff021916908373ffffffffffffffffffffffffffffffffffffffff16021790555050565b611ae9611e71565b73ffffffffffffffffffffffffffffffffffffffff1660008054906101000a900473ffffffffffffffffffffffffffffffffffffffff1673ffffffffffffffffffffffffffffffffffffffff1614611ba9576040517f08c379a00000000000000000000000000000000000000000000000000000000081526004018080602001828103825260208152602001807f4f776e61626c653a2063616c6c6572206973206e6f7420746865206f776e657281525060200191505060405180910390fd5b600460008273ffffffffffffffffffffffffffffffffffffffff1673ffffffffffffffffffffffffffffffffffffffff16815260200190815260200160002060009054906101000a900460ff16611c68576040517f08c379a000000000000000000000000000000000000000000000000000000000815260040180806020018281038252601b8152602001807f4163636f756e7420697320616c7265616479206578636c75646564000000000081525060200191505060405180910390fd5b60005b600580549050811015611e67578173ffffffffffffffffffffffffffffffffffffffff1660058281548110611c9c57fe5b9060005260206000200160009054906101000a900473ffffffffffffffffffffffffffffffffffffffff1673ffffffffffffffffffffffffffffffffffffffff161415611e5a57600560016005805490500381548110611cf857fe5b9060005260206000200160009054906101000a900473ffffffffffffffffffffffffffffffffffffffff1660058281548110611d3057fe5b9060005260206000200160006101000a81548173ffffffffffffffffffffffffffffffffffffffff021916908373ffffffffffffffffffffffffffffffffffffffff1602179055506000600260008473ffffffffffffffffffffffffffffffffffffffff1673ffffffffffffffffffffffffffffffffffffffff168152602001908152602001600020819055506000600460008473ffffffffffffffffffffffffffffffffffffffff1673ffffffffffffffffffffffffffffffffffffffff16815260200190815260200160002060006101000a81548160ff0219169083151502179055506005805480611e2057fe5b6001900381819060005260206000200160006101000a81549073ffffffffffffffffffffffffffffffffffffffff02191690559055611e67565b8080600101915050611c6b565b5050565b60075481565b600033905090565b6000806000806000806000611e8d88612728565b915091506000611e9b6126b3565b90506000806000611ead8c868661277a565b92509250925082828288889a509a509a509a509a5050505050505091939590929450565b6000611f1383836040518060400160405280601e81526020017f536166654d6174683a207375627472616374696f6e206f766572666c6f7700008152506125f3565b905092915050565b600080828401905083811015611f99576040517f08c379a000000000000000000000000000000000000000000000000000000000815260040180806020018281038252601b8152602001807f536166654d6174683a206164646974696f6e206f766572666c6f77000000000081525060200191505060405180910390fd5b8091505092915050565b600073ffffffffffffffffffffffffffffffffffffffff168373ffffffffffffffffffffffffffffffffffffffff161415612029576040517f08c379a000000000000000000000000000000000000000000000000000000000815260040180806020018281038252602481526020018061368c6024913960400191505060405180910390fd5b600073ffffffffffffffffffffffffffffffffffffffff168273ffffffffffffffffffffffffffffffffffffffff1614156120af576040517f08c379a00000000000000000000000000000000000000000000000000000000081526004018080602001828103825260228152602001806135d36022913960400191505060405180910390fd5b80600360008573ffffffffffffffffffffffffffffffffffffffff1673ffffffffffffffffffffffffffffffffffffffff16815260200190815260200160002060008473ffffffffffffffffffffffffffffffffffffffff1673ffffffffffffffffffffffffffffffffffffffff168152602001908152602001600020819055508173ffffffffffffffffffffffffffffffffffffffff168373ffffffffffffffffffffffffffffffffffffffff167f8c5be1e5ebec7d5bd14f71427d1e84f3dd0314c0f7b2291e5b200ac8c7c3b925836040518082815260200191505060405180910390a3505050565b600073ffffffffffffffffffffffffffffffffffffffff168373ffffffffffffffffffffffffffffffffffffffff161415612220576040517f08c379a00000000000000000000000000000000000000000000000000000000081526004018080602001828103825260258152602001806136676025913960400191505060405180910390fd5b600073ffffffffffffffffffffffffffffffffffffffff168273ffffffffffffffffffffffffffffffffffffffff1614156122a6576040517f08c379a00000000000000000000000000000000000000000000000000000000081526004018080602001828103825260238152602001806135606023913960400191505060405180910390fd5b600081116122ff576040517f08c379a000000000000000000000000000000000000000000000000000000000815260040180806020018281038252602981526020018061363e6029913960400191505060405180910390fd5b600460008473ffffffffffffffffffffffffffffffffffffffff1673ffffffffffffffffffffffffffffffffffffffff16815260200190815260200160002060009054906101000a900460ff1680156123a25750600460008373ffffffffffffffffffffffffffffffffffffffff1673ffffffffffffffffffffffffffffffffffffffff16815260200190815260200160002060009054906101000a900460ff16155b156123b7576123b28383836127d8565b6125ee565b600460008473ffffffffffffffffffffffffffffffffffffffff1673ffffffffffffffffffffffffffffffffffffffff16815260200190815260200160002060009054906101000a900460ff1615801561245a5750600460008373ffffffffffffffffffffffffffffffffffffffff1673ffffffffffffffffffffffffffffffffffffffff16815260200190815260200160002060009054906101000a900460ff165b1561246f5761246a838383612a2b565b6125ed565b600460008473ffffffffffffffffffffffffffffffffffffffff1673ffffffffffffffffffffffffffffffffffffffff16815260200190815260200160002060009054906101000a900460ff161580156125135750600460008373ffffffffffffffffffffffffffffffffffffffff1673ffffffffffffffffffffffffffffffffffffffff16815260200190815260200160002060009054906101000a900460ff16155b1561252857612523838383612c7e565b6125ec565b600460008473ffffffffffffffffffffffffffffffffffffffff1673ffffffffffffffffffffffffffffffffffffffff16815260200190815260200160002060009054906101000a900460ff1680156125ca5750600460008373ffffffffffffffffffffffffffffffffffffffff1673ffffffffffffffffffffffffffffffffffffffff16815260200190815260200160002060009054906101000a900460ff165b156125df576125da838383612e3c565b6125eb565b6125ea838383612c7e565b5b5b5b5b505050565b60008383111582906126a0576040517f08c379a00000000000000000000000000000000000000000000000000000000081526004018080602001828103825283818151815260200191508051906020019080838360005b8381101561266557808201518184015260208101905061264a565b50505050905090810190601f1680156126925780820380516001836020036101000a031916815260200191505b509250505060405180910390fd5b5060008385039050809150509392505050565b60008060006126c0613124565b915091506126d781836126de90919063ffffffff16565b9250505090565b600061272083836040518060400160405280601a81526020017f536166654d6174683a206469766973696f6e206279207a65726f0000000000008152506133d9565b905092915050565b600080600061275460026127466064876126de90919063ffffffff16565b61349f90919063ffffffff16565b9050600061276b8286611ed190919063ffffffff16565b90508082935093505050915091565b600080600080612793858861349f90919063ffffffff16565b905060006127aa868861349f90919063ffffffff16565b905060006127c18284611ed190919063ffffffff16565b905082818395509550955050505093509350939050565b60008060008060006127e986611e79565b9450945094509450945061284586600260008b73ffffffffffffffffffffffffffffffffffffffff1673ffffffffffffffffffffffffffffffffffffffff16815260200190815260200160002054611ed190919063ffffffff16565b600260008a73ffffffffffffffffffffffffffffffffffffffff1673ffffffffffffffffffffffffffffffffffffffff168152602001908152602001600020819055506128da85600160008b73ffffffffffffffffffffffffffffffffffffffff1673ffffffffffffffffffffffffffffffffffffffff16815260200190815260200160002054611ed190919063ffffffff16565b600160008a73ffffffffffffffffffffffffffffffffffffffff1673ffffffffffffffffffffffffffffffffffffffff1681526020019081526020016000208190555061296f84600160008a73ffffffffffffffffffffffffffffffffffffffff1673ffffffffffffffffffffffffffffffffffffffff16815260200190815260200160002054611f1b90919063ffffffff16565b600160008973ffffffffffffffffffffffffffffffffffffffff1673ffffffffffffffffffffffffffffffffffffffff168152602001908152602001600020819055506129bc8382613525565b8673ffffffffffffffffffffffffffffffffffffffff168873ffffffffffffffffffffffffffffffffffffffff167fddf252ad1be2c89b69c2b068fc378daa952ba7f163c4a11628f55a4df523b3ef846040518082815260200191505060405180910390a35050505050505050565b6000806000806000612a3c86611e79565b94509450945094509450612a9885600160008b73ffffffffffffffffffffffffffffffffffffffff1673ffffffffffffffffffffffffffffffffffffffff16815260200190815260200160002054611ed190919063ffffffff16565b600160008a73ffffffffffffffffffffffffffffffffffffffff1673ffffffffffffffffffffffffffffffffffffffff16815260200190815260200160002081905550612b2d82600260008a73ffffffffffffffffffffffffffffffffffffffff1673ffffffffffffffffffffffffffffffffffffffff16815260200190815260200160002054611f1b90919063ffffffff16565b600260008973ffffffffffffffffffffffffffffffffffffffff1673ffffffffffffffffffffffffffffffffffffffff16815260200190815260200160002081905550612bc284600160008a73ffffffffffffffffffffffffffffffffffffffff1673ffffffffffffffffffffffffffffffffffffffff16815260200190815260200160002054611f1b90919063ffffffff16565b600160008973ffffffffffffffffffffffffffffffffffffffff1673ffffffffffffffffffffffffffffffffffffffff16815260200190815260200160002081905550612c0f8382613525565b8673ffffffffffffffffffffffffffffffffffffffff168873ffffffffffffffffffffffffffffffffffffffff167fddf252ad1be2c89b69c2b068fc378daa952ba7f163c4a11628f55a4df523b3ef846040518082815260200191505060405180910390a35050505050505050565b6000806000806000612c8f86611e79565b94509450945094509450612ceb85600160008b73ffffffffffffffffffffffffffffffffffffffff1673ffffffffffffffffffffffffffffffffffffffff16815260200190815260200160002054611ed190919063ffffffff16565b600160008a73ffffffffffffffffffffffffffffffffffffffff1673ffffffffffffffffffffffffffffffffffffffff16815260200190815260200160002081905550612d8084600160008a73ffffffffffffffffffffffffffffffffffffffff1673ffffffffffffffffffffffffffffffffffffffff16815260200190815260200160002054611f1b90919063ffffffff16565b600160008973ffffffffffffffffffffffffffffffffffffffff1673ffffffffffffffffffffffffffffffffffffffff16815260200190815260200160002081905550612dcd8382613525565b8673ffffffffffffffffffffffffffffffffffffffff168873ffffffffffffffffffffffffffffffffffffffff167fddf252ad1be2c89b69c2b068fc378daa952ba7f163c4a11628f55a4df523b3ef846040518082815260200191505060405180910390a35050505050505050565b6000806000806000612e4d86611e79565b94509450945094509450612ea986600260008b73ffffffffffffffffffffffffffffffffffffffff1673ffffffffffffffffffffffffffffffffffffffff16815260200190815260200160002054611ed190919063ffffffff16565b600260008a73ffffffffffffffffffffffffffffffffffffffff1673ffffffffffffffffffffffffffffffffffffffff16815260200190815260200160002081905550612f3e85600160008b73ffffffffffffffffffffffffffffffffffffffff1673ffffffffffffffffffffffffffffffffffffffff16815260200190815260200160002054611ed190919063ffffffff16565b600160008a73ffffffffffffffffffffffffffffffffffffffff1673ffffffffffffffffffffffffffffffffffffffff16815260200190815260200160002081905550612fd382600260008a73ffffffffffffffffffffffffffffffffffffffff1673ffffffffffffffffffffffffffffffffffffffff16815260200190815260200160002054611f1b90919063ffffffff16565b600260008973ffffffffffffffffffffffffffffffffffffffff1673ffffffffffffffffffffffffffffffffffffffff1681526020019081526020016000208190555061306884600160008a73ffffffffffffffffffffffffffffffffffffffff1673ffffffffffffffffffffffffffffffffffffffff16815260200190815260200160002054611f1b90919063ffffffff16565b600160008973ffffffffffffffffffffffffffffffffffffffff1673ffffffffffffffffffffffffffffffffffffffff168152602001908152602001600020819055506130b58382613525565b8673ffffffffffffffffffffffffffffffffffffffff168873ffffffffffffffffffffffffffffffffffffffff167fddf252ad1be2c89b69c2b068fc378daa952ba7f163c4a11628f55a4df523b3ef846040518082815260200191505060405180910390a35050505050505050565b6000806000600654905060006a52b7d2dcc80cd2e4000000905060005b60058054905081101561338a5782600160006005848154811061316057fe5b9060005260206000200160009054906101000a900473ffffffffffffffffffffffffffffffffffffffff1673ffffffffffffffffffffffffffffffffffffffff1673ffffffffffffffffffffffffffffffffffffffff16815260200190815260200160002054118061324757508160026000600584815481106131df57fe5b9060005260206000200160009054906101000a900473ffffffffffffffffffffffffffffffffffffffff1673ffffffffffffffffffffffffffffffffffffffff1673ffffffffffffffffffffffffffffffffffffffff16815260200190815260200160002054115b15613267576006546a52b7d2dcc80cd2e4000000945094505050506133d5565b6132f0600160006005848154811061327b57fe5b9060005260206000200160009054906101000a900473ffffffffffffffffffffffffffffffffffffffff1673ffffffffffffffffffffffffffffffffffffffff1673ffffffffffffffffffffffffffffffffffffffff1681526020019081526020016000205484611ed190919063ffffffff16565b925061337b600260006005848154811061330657fe5b9060005260206000200160009054906101000a900473ffffffffffffffffffffffffffffffffffffffff1673ffffffffffffffffffffffffffffffffffffffff1673ffffffffffffffffffffffffffffffffffffffff1681526020019081526020016000205483611ed190919063ffffffff16565b91508080600101915050613141565b506133ab6a52b7d2dcc80cd2e40000006006546126de90919063ffffffff16565b8210156133cc576006546a52b7d2dcc80cd2e40000009350935050506133d5565b81819350935050505b9091565b60008083118290613485576040517f08c379a00000000000000000000000000000000000000000000000000000000081526004018080602001828103825283818151815260200191508051906020019080838360005b8381101561344a57808201518184015260208101905061342f565b50505050905090810190601f1680156134775780820380516001836020036101000a031916815260200191505b509250505060405180910390fd5b50600083858161349157fe5b049050809150509392505050565b6000808314156134b2576000905061351f565b60008284029050828482816134c357fe5b041461351a576040517f08c379a00000000000000000000000000000000000000000000000000000000081526004018080602001828103825260218152602001806135f56021913960400191505060405180910390fd5b809150505b92915050565b61353a82600654611ed190919063ffffffff16565b60068190555061355581600754611f1b90919063ffffffff16565b600781905550505056fe45524332303a207472616e7366657220746f20746865207a65726f2061646472657373416d6f756e74206d757374206265206c657373207468616e20746f74616c207265666c656374696f6e734f776e61626c653a206e6577206f776e657220697320746865207a65726f206164647265737345524332303a20617070726f766520746f20746865207a65726f2061646472657373536166654d6174683a206d756c7469706c69636174696f6e206f766572666c6f7745524332303a207472616e7366657220616d6f756e74206578636565647320616c6c6f77616e63655472616e7366657220616d6f756e74206d7573742062652067726561746572207468616e207a65726f45524332303a207472616e736665722066726f6d20746865207a65726f206164647265737345524332303a20617070726f76652066726f6d20746865207a65726f20616464726573734578636c75646564206164647265737365732063616e6e6f742063616c6c20746869732066756e6374696f6e45524332303a2064656372656173656420616c6c6f77616e63652062656c6f77207a65726fa2646970667358221220845ac6596d9c4322f54f93f68f51b20440519effce7c1ee59276029d3c89099164736f6c634300060c0033",
					"opcodes": "PUSH1 0x80 PUSH1 0x40 MSTORE PUSH11 0x52B7D2DCC80CD2E4000000 PUSH1 0x0 NOT DUP2 PUSH3 0x1B JUMPI INVALID JUMPDEST MOD PUSH1 0x0 NOT SUB PUSH1 0x6 SSTORE PUSH1 0x40 MLOAD DUP1 PUSH1 0x40 ADD PUSH1 0x40 MSTORE DUP1 PUSH1 0x8 DUP2 MSTORE PUSH1 0x20 ADD PUSH32 0x464547746F6B656E000000000000000000000000000000000000000000000000 DUP2 MSTORE POP PUSH1 0x8 SWAP1 DUP1 MLOAD SWAP1 PUSH1 0x20 ADD SWAP1 PUSH3 0x70 SWAP3 SWAP2 SWAP1 PUSH3 0x27C JUMP JUMPDEST POP PUSH1 0x40 MLOAD DUP1 PUSH1 0x40 ADD PUSH1 0x40 MSTORE DUP1 PUSH1 0x3 DUP2 MSTORE PUSH1 0x20 ADD PUSH32 0x4645470000000000000000000000000000000000000000000000000000000000 DUP2 MSTORE POP PUSH1 0x9 SWAP1 DUP1 MLOAD SWAP1 PUSH1 0x20 ADD SWAP1 PUSH3 0xBE SWAP3 SWAP2 SWAP1 PUSH3 0x27C JUMP JUMPDEST POP PUSH1 0x9 PUSH1 0xA PUSH1 0x0 PUSH2 0x100 EXP DUP2 SLOAD DUP2 PUSH1 0xFF MUL NOT AND SWAP1 DUP4 PUSH1 0xFF AND MUL OR SWAP1 SSTORE POP CALLVALUE DUP1 ISZERO PUSH3 0xE8 JUMPI PUSH1 0x0 DUP1 REVERT JUMPDEST POP PUSH1 0x0 PUSH3 0xFB PUSH3 0x274 PUSH1 0x20 SHL PUSH1 0x20 SHR JUMP JUMPDEST SWAP1 POP DUP1 PUSH1 0x0 DUP1 PUSH2 0x100 EXP DUP2 SLOAD DUP2 PUSH20 0xFFFFFFFFFFFFFFFFFFFFFFFFFFFFFFFFFFFFFFFF MUL NOT AND SWAP1 DUP4 PUSH20 0xFFFFFFFFFFFFFFFFFFFFFFFFFFFFFFFFFFFFFFFF AND MUL OR SWAP1 SSTORE POP DUP1 PUSH20 0xFFFFFFFFFFFFFFFFFFFFFFFFFFFFFFFFFFFFFFFF AND PUSH1 0x0 PUSH20 0xFFFFFFFFFFFFFFFFFFFFFFFFFFFFFFFFFFFFFFFF AND PUSH32 0x8BE0079C531659141344CD1FD0A4F28419497F9722A3DAAFE3B4186F6B6457E0 PUSH1 0x40 MLOAD PUSH1 0x40 MLOAD DUP1 SWAP2 SUB SWAP1 LOG3 POP PUSH1 0x6 SLOAD PUSH1 0x1 PUSH1 0x0 PUSH3 0x1B0 PUSH3 0x274 PUSH1 0x20 SHL PUSH1 0x20 SHR JUMP JUMPDEST PUSH20 0xFFFFFFFFFFFFFFFFFFFFFFFFFFFFFFFFFFFFFFFF AND PUSH20 0xFFFFFFFFFFFFFFFFFFFFFFFFFFFFFFFFFFFFFFFF AND DUP2 MSTORE PUSH1 0x20 ADD SWAP1 DUP2 MSTORE PUSH1 0x20 ADD PUSH1 0x0 KECCAK256 DUP2 SWAP1 SSTORE POP PUSH3 0x1FE PUSH3 0x274 PUSH1 0x20 SHL PUSH1 0x20 SHR JUMP JUMPDEST PUSH20 0xFFFFFFFFFFFFFFFFFFFFFFFFFFFFFFFFFFFFFFFF AND PUSH1 0x0 PUSH20 0xFFFFFFFFFFFFFFFFFFFFFFFFFFFFFFFFFFFFFFFF AND PUSH32 0xDDF252AD1BE2C89B69C2B068FC378DAA952BA7F163C4A11628F55A4DF523B3EF PUSH11 0x52B7D2DCC80CD2E4000000 PUSH1 0x40 MLOAD DUP1 DUP3 DUP2 MSTORE PUSH1 0x20 ADD SWAP2 POP POP PUSH1 0x40 MLOAD DUP1 SWAP2 SUB SWAP1 LOG3 PUSH3 0x322 JUMP JUMPDEST PUSH1 0x0 CALLER SWAP1 POP SWAP1 JUMP JUMPDEST DUP3 DUP1 SLOAD PUSH1 0x1 DUP2 PUSH1 0x1 AND ISZERO PUSH2 0x100 MUL SUB AND PUSH1 0x2 SWAP1 DIV SWAP1 PUSH1 0x0 MSTORE PUSH1 0x20 PUSH1 0x0 KECCAK256 SWAP1 PUSH1 0x1F ADD PUSH1 0x20 SWAP1 DIV DUP2 ADD SWAP3 DUP3 PUSH1 0x1F LT PUSH3 0x2BF JUMPI DUP1 MLOAD PUSH1 0xFF NOT AND DUP4 DUP1 ADD OR DUP6 SSTORE PUSH3 0x2F0 JUMP JUMPDEST DUP3 DUP1 ADD PUSH1 0x1 ADD DUP6 SSTORE DUP3 ISZERO PUSH3 0x2F0 JUMPI SWAP2 DUP3 ADD JUMPDEST DUP3 DUP2 GT ISZERO PUSH3 0x2EF JUMPI DUP3 MLOAD DUP3 SSTORE SWAP2 PUSH1 0x20 ADD SWAP2 SWAP1 PUSH1 0x1 ADD SWAP1 PUSH3 0x2D2 JUMP JUMPDEST JUMPDEST POP SWAP1 POP PUSH3 0x2FF SWAP2 SWAP1 PUSH3 0x303 JUMP JUMPDEST POP SWAP1 JUMP JUMPDEST JUMPDEST DUP1 DUP3 GT ISZERO PUSH3 0x31E JUMPI PUSH1 0x0 DUP2 PUSH1 0x0 SWAP1 SSTORE POP PUSH1 0x1 ADD PUSH3 0x304 JUMP JUMPDEST POP SWAP1 JUMP JUMPDEST PUSH2 0x3736 DUP1 PUSH3 0x332 PUSH1 0x0 CODECOPY PUSH1 0x0 RETURN INVALID PUSH1 0x80 PUSH1 0x40 MSTORE CALLVALUE DUP1 ISZERO PUSH2 0x10 JUMPI PUSH1 0x0 DUP1 REVERT JUMPDEST POP PUSH1 0x4 CALLDATASIZE LT PUSH2 0x1DA JUMPI PUSH1 0x0 CALLDATALOAD PUSH1 0xE0 SHR DUP1 PUSH4 0x4D09DEB3 GT PUSH2 0x104 JUMPI DUP1 PUSH4 0xAF465A27 GT PUSH2 0xA2 JUMPI DUP1 PUSH4 0xF2CC0C18 GT PUSH2 0x71 JUMPI DUP1 PUSH4 0xF2CC0C18 EQ PUSH2 0x9B0 JUMPI DUP1 PUSH4 0xF2FDE38B EQ PUSH2 0x9F4 JUMPI DUP1 PUSH4 0xF84354F1 EQ PUSH2 0xA38 JUMPI DUP1 PUSH4 0xFB1EB14B EQ PUSH2 0xA7C JUMPI PUSH2 0x1DA JUMP JUMPDEST DUP1 PUSH4 0xAF465A27 EQ PUSH2 0x8A2 JUMPI DUP1 PUSH4 0xCBA0E996 EQ PUSH2 0x8C0 JUMPI DUP1 PUSH4 0xD49D5181 EQ PUSH2 0x91A JUMPI DUP1 PUSH4 0xDD62ED3E EQ PUSH2 0x938 JUMPI PUSH2 0x1DA JUMP JUMPDEST DUP1 PUSH4 0x8DA5CB5B GT PUSH2 0xDE JUMPI DUP1 PUSH4 0x8DA5CB5B EQ PUSH2 0x723 JUMPI DUP1 PUSH4 0x95D89B41 EQ PUSH2 0x757 JUMPI DUP1 PUSH4 0xA457C2D7 EQ PUSH2 0x7DA JUMPI DUP1 PUSH4 0xA9059CBB EQ PUSH2 0x83E JUMPI PUSH2 0x1DA JUMP JUMPDEST DUP1 PUSH4 0x4D09DEB3 EQ PUSH2 0x669 JUMPI DUP1 PUSH4 0x70A08231 EQ PUSH2 0x6C1 JUMPI DUP1 PUSH4 0x715018A6 EQ PUSH2 0x719 JUMPI PUSH2 0x1DA JUMP JUMPDEST DUP1 PUSH4 0x18160DDD GT PUSH2 0x17C JUMPI DUP1 PUSH4 0x39509351 GT PUSH2 0x14B JUMPI DUP1 PUSH4 0x39509351 EQ PUSH2 0x541 JUMPI DUP1 PUSH4 0x3B7E6D4A EQ PUSH2 0x5A5 JUMPI DUP1 PUSH4 0x4549B039 EQ PUSH2 0x5FD JUMPI DUP1 PUSH4 0x45E0B9D4 EQ PUSH2 0x64B JUMPI PUSH2 0x1DA JUMP JUMPDEST DUP1 PUSH4 0x18160DDD EQ PUSH2 0x43C JUMPI DUP1 PUSH4 0x23B872DD EQ PUSH2 0x45A JUMPI DUP1 PUSH4 0x2D838119 EQ PUSH2 0x4DE JUMPI DUP1 PUSH4 0x313CE567 EQ PUSH2 0x520 JUMPI PUSH2 0x1DA JUMP JUMPDEST DUP1 PUSH4 0x95EA7B3 GT PUSH2 0x1B8 JUMPI DUP1 PUSH4 0x95EA7B3 EQ PUSH2 0x308 JUMPI DUP1 PUSH4 0xB285B1F EQ PUSH2 0x36C JUMPI DUP1 PUSH4 0xCFC15F9 EQ PUSH2 0x3C6 JUMPI DUP1 PUSH4 0x13114A9D EQ PUSH2 0x41E JUMPI PUSH2 0x1DA JUMP JUMPDEST DUP1 PUSH4 0x24C2DDD EQ PUSH2 0x1DF JUMPI DUP1 PUSH4 0x53AB182 EQ PUSH2 0x257 JUMPI DUP1 PUSH4 0x6FDDE03 EQ PUSH2 0x285 JUMPI JUMPDEST PUSH1 0x0 DUP1 REVERT JUMPDEST PUSH2 0x241 PUSH1 0x4 DUP1 CALLDATASIZE SUB PUSH1 0x40 DUP2 LT ISZERO PUSH2 0x1F5 JUMPI PUSH1 0x0 DUP1 REVERT JUMPDEST DUP2 ADD SWAP1 DUP1 DUP1 CALLDATALOAD PUSH20 0xFFFFFFFFFFFFFFFFFFFFFFFFFFFFFFFFFFFFFFFF AND SWAP1 PUSH1 0x20 ADD SWAP1 SWAP3 SWAP2 SWAP1 DUP1 CALLDATALOAD PUSH20 0xFFFFFFFFFFFFFFFFFFFFFFFFFFFFFFFFFFFFFFFF AND SWAP1 PUSH1 0x20 ADD SWAP1 SWAP3 SWAP2 SWAP1 POP POP POP PUSH2 0xA9A JUMP JUMPDEST PUSH1 0x40 MLOAD DUP1 DUP3 DUP2 MSTORE PUSH1 0x20 ADD SWAP2 POP POP PUSH1 0x40 MLOAD DUP1 SWAP2 SUB SWAP1 RETURN JUMPDEST PUSH2 0x283 PUSH1 0x4 DUP1 CALLDATASIZE SUB PUSH1 0x20 DUP2 LT ISZERO PUSH2 0x26D JUMPI PUSH1 0x0 DUP1 REVERT JUMPDEST DUP2 ADD SWAP1 DUP1 DUP1 CALLDATALOAD SWAP1 PUSH1 0x20 ADD SWAP1 SWAP3 SWAP2 SWAP1 POP POP POP PUSH2 0xABF JUMP JUMPDEST STOP JUMPDEST PUSH2 0x28D PUSH2 0xC4F JUMP JUMPDEST PUSH1 0x40 MLOAD DUP1 DUP1 PUSH1 0x20 ADD DUP3 DUP2 SUB DUP3 MSTORE DUP4 DUP2 DUP2 MLOAD DUP2 MSTORE PUSH1 0x20 ADD SWAP2 POP DUP1 MLOAD SWAP1 PUSH1 0x20 ADD SWAP1 DUP1 DUP4 DUP4 PUSH1 0x0 JUMPDEST DUP4 DUP2 LT ISZERO PUSH2 0x2CD JUMPI DUP1 DUP3 ADD MLOAD DUP2 DUP5 ADD MSTORE PUSH1 0x20 DUP2 ADD SWAP1 POP PUSH2 0x2B2 JUMP JUMPDEST POP POP POP POP SWAP1 POP SWAP1 DUP2 ADD SWAP1 PUSH1 0x1F AND DUP1 ISZERO PUSH2 0x2FA JUMPI DUP1 DUP3 SUB DUP1 MLOAD PUSH1 0x1 DUP4 PUSH1 0x20 SUB PUSH2 0x100 EXP SUB NOT AND DUP2 MSTORE PUSH1 0x20 ADD SWAP2 POP JUMPDEST POP SWAP3 POP POP POP PUSH1 0x40 MLOAD DUP1 SWAP2 SUB SWAP1 RETURN JUMPDEST PUSH2 0x354 PUSH1 0x4 DUP1 CALLDATASIZE SUB PUSH1 0x40 DUP2 LT ISZERO PUSH2 0x31E JUMPI PUSH1 0x0 DUP1 REVERT JUMPDEST DUP2 ADD SWAP1 DUP1 DUP1 CALLDATALOAD PUSH20 0xFFFFFFFFFFFFFFFFFFFFFFFFFFFFFFFFFFFFFFFF AND SWAP1 PUSH1 0x20 ADD SWAP1 SWAP3 SWAP2 SWAP1 DUP1 CALLDATALOAD SWAP1 PUSH1 0x20 ADD SWAP1 SWAP3 SWAP2 SWAP1 POP POP POP PUSH2 0xCF1 JUMP JUMPDEST PUSH1 0x40 MLOAD DUP1 DUP3 ISZERO ISZERO DUP2 MSTORE PUSH1 0x20 ADD SWAP2 POP POP PUSH1 0x40 MLOAD DUP1 SWAP2 SUB SWAP1 RETURN JUMPDEST PUSH2 0x3AE PUSH1 0x4 DUP1 CALLDATASIZE SUB PUSH1 0x20 DUP2 LT ISZERO PUSH2 0x382 JUMPI PUSH1 0x0 DUP1 REVERT JUMPDEST DUP2 ADD SWAP1 DUP1 DUP1 CALLDATALOAD PUSH20 0xFFFFFFFFFFFFFFFFFFFFFFFFFFFFFFFFFFFFFFFF AND SWAP1 PUSH1 0x20 ADD SWAP1 SWAP3 SWAP2 SWAP1 POP POP POP PUSH2 0xD0F JUMP JUMPDEST PUSH1 0x40 MLOAD DUP1 DUP3 ISZERO ISZERO DUP2 MSTORE PUSH1 0x20 ADD SWAP2 POP POP PUSH1 0x40 MLOAD DUP1 SWAP2 SUB SWAP1 RETURN JUMPDEST PUSH2 0x408 PUSH1 0x4 DUP1 CALLDATASIZE SUB PUSH1 0x20 DUP2 LT ISZERO PUSH2 0x3DC JUMPI PUSH1 0x0 DUP1 REVERT JUMPDEST DUP2 ADD SWAP1 DUP1 DUP1 CALLDATALOAD PUSH20 0xFFFFFFFFFFFFFFFFFFFFFFFFFFFFFFFFFFFFFFFF AND SWAP1 PUSH1 0x20 ADD SWAP1 SWAP3 SWAP2 SWAP1 POP POP POP PUSH2 0xD2F JUMP JUMPDEST PUSH1 0x40 MLOAD DUP1 DUP3 DUP2 MSTORE PUSH1 0x20 ADD SWAP2 POP POP PUSH1 0x40 MLOAD DUP1 SWAP2 SUB SWAP1 RETURN JUMPDEST PUSH2 0x426 PUSH2 0xD47 JUMP JUMPDEST PUSH1 0x40 MLOAD DUP1 DUP3 DUP2 MSTORE PUSH1 0x20 ADD SWAP2 POP POP PUSH1 0x40 MLOAD DUP1 SWAP2 SUB SWAP1 RETURN JUMPDEST PUSH2 0x444 PUSH2 0xD51 JUMP JUMPDEST PUSH1 0x40 MLOAD DUP1 DUP3 DUP2 MSTORE PUSH1 0x20 ADD SWAP2 POP POP PUSH1 0x40 MLOAD DUP1 SWAP2 SUB SWAP1 RETURN JUMPDEST PUSH2 0x4C6 PUSH1 0x4 DUP1 CALLDATASIZE SUB PUSH1 0x60 DUP2 LT ISZERO PUSH2 0x470 JUMPI PUSH1 0x0 DUP1 REVERT JUMPDEST DUP2 ADD SWAP1 DUP1 DUP1 CALLDATALOAD PUSH20 0xFFFFFFFFFFFFFFFFFFFFFFFFFFFFFFFFFFFFFFFF AND SWAP1 PUSH1 0x20 ADD SWAP1 SWAP3 SWAP2 SWAP1 DUP1 CALLDATALOAD PUSH20 0xFFFFFFFFFFFFFFFFFFFFFFFFFFFFFFFFFFFFFFFF AND SWAP1 PUSH1 0x20 ADD SWAP1 SWAP3 SWAP2 SWAP1 DUP1 CALLDATALOAD SWAP1 PUSH1 0x20 ADD SWAP1 SWAP3 SWAP2 SWAP1 POP POP POP PUSH2 0xD64 JUMP JUMPDEST PUSH1 0x40 MLOAD DUP1 DUP3 ISZERO ISZERO DUP2 MSTORE PUSH1 0x20 ADD SWAP2 POP POP PUSH1 0x40 MLOAD DUP1 SWAP2 SUB SWAP1 RETURN JUMPDEST PUSH2 0x50A PUSH1 0x4 DUP1 CALLDATASIZE SUB PUSH1 0x20 DUP2 LT ISZERO PUSH2 0x4F4 JUMPI PUSH1 0x0 DUP1 REVERT JUMPDEST DUP2 ADD SWAP1 DUP1 DUP1 CALLDATALOAD SWAP1 PUSH1 0x20 ADD SWAP1 SWAP3 SWAP2 SWAP1 POP POP POP PUSH2 0xE3D JUMP JUMPDEST PUSH1 0x40 MLOAD DUP1 DUP3 DUP2 MSTORE PUSH1 0x20 ADD SWAP2 POP POP PUSH1 0x40 MLOAD DUP1 SWAP2 SUB SWAP1 RETURN JUMPDEST PUSH2 0x528 PUSH2 0xEC1 JUMP JUMPDEST PUSH1 0x40 MLOAD DUP1 DUP3 PUSH1 0xFF AND DUP2 MSTORE PUSH1 0x20 ADD SWAP2 POP POP PUSH1 0x40 MLOAD DUP1 SWAP2 SUB SWAP1 RETURN JUMPDEST PUSH2 0x58D PUSH1 0x4 DUP1 CALLDATASIZE SUB PUSH1 0x40 DUP2 LT ISZERO PUSH2 0x557 JUMPI PUSH1 0x0 DUP1 REVERT JUMPDEST DUP2 ADD SWAP1 DUP1 DUP1 CALLDATALOAD PUSH20 0xFFFFFFFFFFFFFFFFFFFFFFFFFFFFFFFFFFFFFFFF AND SWAP1 PUSH1 0x20 ADD SWAP1 SWAP3 SWAP2 SWAP1 DUP1 CALLDATALOAD SWAP1 PUSH1 0x20 ADD SWAP1 SWAP3 SWAP2 SWAP1 POP POP POP PUSH2 0xED8 JUMP JUMPDEST PUSH1 0x40 MLOAD DUP1 DUP3 ISZERO ISZERO DUP2 MSTORE PUSH1 0x20 ADD SWAP2 POP POP PUSH1 0x40 MLOAD DUP1 SWAP2 SUB SWAP1 RETURN JUMPDEST PUSH2 0x5E7 PUSH1 0x4 DUP1 CALLDATASIZE SUB PUSH1 0x20 DUP2 LT ISZERO PUSH2 0x5BB JUMPI PUSH1 0x0 DUP1 REVERT JUMPDEST DUP2 ADD SWAP1 DUP1 DUP1 CALLDATALOAD PUSH20 0xFFFFFFFFFFFFFFFFFFFFFFFFFFFFFFFFFFFFFFFF AND SWAP1 PUSH1 0x20 ADD SWAP1 SWAP3 SWAP2 SWAP1 POP POP POP PUSH2 0xF8B JUMP JUMPDEST PUSH1 0x40 MLOAD DUP1 DUP3 DUP2 MSTORE PUSH1 0x20 ADD SWAP2 POP POP PUSH1 0x40 MLOAD DUP1 SWAP2 SUB SWAP1 RETURN JUMPDEST PUSH2 0x635 PUSH1 0x4 DUP1 CALLDATASIZE SUB PUSH1 0x40 DUP2 LT ISZERO PUSH2 0x613 JUMPI PUSH1 0x0 DUP1 REVERT JUMPDEST DUP2 ADD SWAP1 DUP1 DUP1 CALLDATALOAD SWAP1 PUSH1 0x20 ADD SWAP1 SWAP3 SWAP2 SWAP1 DUP1 CALLDATALOAD ISZERO ISZERO SWAP1 PUSH1 0x20 ADD SWAP1 SWAP3 SWAP2 SWAP1 POP POP POP PUSH2 0xFA3 JUMP JUMPDEST PUSH1 0x40 MLOAD DUP1 DUP3 DUP2 MSTORE PUSH1 0x20 ADD SWAP2 POP POP PUSH1 0x40 MLOAD DUP1 SWAP2 SUB SWAP1 RETURN JUMPDEST PUSH2 0x653 PUSH2 0x1061 JUMP JUMPDEST PUSH1 0x40 MLOAD DUP1 DUP3 DUP2 MSTORE PUSH1 0x20 ADD SWAP2 POP POP PUSH1 0x40 MLOAD DUP1 SWAP2 SUB SWAP1 RETURN JUMPDEST PUSH2 0x695 PUSH1 0x4 DUP1 CALLDATASIZE SUB PUSH1 0x20 DUP2 LT ISZERO PUSH2 0x67F JUMPI PUSH1 0x0 DUP1 REVERT JUMPDEST DUP2 ADD SWAP1 DUP1 DUP1 CALLDATALOAD SWAP1 PUSH1 0x20 ADD SWAP1 SWAP3 SWAP2 SWAP1 POP POP POP PUSH2 0x1067 JUMP JUMPDEST PUSH1 0x40 MLOAD DUP1 DUP3 PUSH20 0xFFFFFFFFFFFFFFFFFFFFFFFFFFFFFFFFFFFFFFFF AND DUP2 MSTORE PUSH1 0x20 ADD SWAP2 POP POP PUSH1 0x40 MLOAD DUP1 SWAP2 SUB SWAP1 RETURN JUMPDEST PUSH2 0x703 PUSH1 0x4 DUP1 CALLDATASIZE SUB PUSH1 0x20 DUP2 LT ISZERO PUSH2 0x6D7 JUMPI PUSH1 0x0 DUP1 REVERT JUMPDEST DUP2 ADD SWAP1 DUP1 DUP1 CALLDATALOAD PUSH20 0xFFFFFFFFFFFFFFFFFFFFFFFFFFFFFFFFFFFFFFFF AND SWAP1 PUSH1 0x20 ADD SWAP1 SWAP3 SWAP2 SWAP1 POP POP POP PUSH2 0x10A3 JUMP JUMPDEST PUSH1 0x40 MLOAD DUP1 DUP3 DUP2 MSTORE PUSH1 0x20 ADD SWAP2 POP POP PUSH1 0x40 MLOAD DUP1 SWAP2 SUB SWAP1 RETURN JUMPDEST PUSH2 0x721 PUSH2 0x118E JUMP JUMPDEST STOP JUMPDEST PUSH2 0x72B PUSH2 0x1314 JUMP JUMPDEST PUSH1 0x40 MLOAD DUP1 DUP3 PUSH20 0xFFFFFFFFFFFFFFFFFFFFFFFFFFFFFFFFFFFFFFFF AND DUP2 MSTORE PUSH1 0x20 ADD SWAP2 POP POP PUSH1 0x40 MLOAD DUP1 SWAP2 SUB SWAP1 RETURN JUMPDEST PUSH2 0x75F PUSH2 0x133D JUMP JUMPDEST PUSH1 0x40 MLOAD DUP1 DUP1 PUSH1 0x20 ADD DUP3 DUP2 SUB DUP3 MSTORE DUP4 DUP2 DUP2 MLOAD DUP2 MSTORE PUSH1 0x20 ADD SWAP2 POP DUP1 MLOAD SWAP1 PUSH1 0x20 ADD SWAP1 DUP1 DUP4 DUP4 PUSH1 0x0 JUMPDEST DUP4 DUP2 LT ISZERO PUSH2 0x79F JUMPI DUP1 DUP3 ADD MLOAD DUP2 DUP5 ADD MSTORE PUSH1 0x20 DUP2 ADD SWAP1 POP PUSH2 0x784 JUMP JUMPDEST POP POP POP POP SWAP1 POP SWAP1 DUP2 ADD SWAP1 PUSH1 0x1F AND DUP1 ISZERO PUSH2 0x7CC JUMPI DUP1 DUP3 SUB DUP1 MLOAD PUSH1 0x1 DUP4 PUSH1 0x20 SUB PUSH2 0x100 EXP SUB NOT AND DUP2 MSTORE PUSH1 0x20 ADD SWAP2 POP JUMPDEST POP SWAP3 POP POP POP PUSH1 0x40 MLOAD DUP1 SWAP2 SUB SWAP1 RETURN JUMPDEST PUSH2 0x826 PUSH1 0x4 DUP1 CALLDATASIZE SUB PUSH1 0x40 DUP2 LT ISZERO PUSH2 0x7F0 JUMPI PUSH1 0x0 DUP1 REVERT JUMPDEST DUP2 ADD SWAP1 DUP1 DUP1 CALLDATALOAD PUSH20 0xFFFFFFFFFFFFFFFFFFFFFFFFFFFFFFFFFFFFFFFF AND SWAP1 PUSH1 0x20 ADD SWAP1 SWAP3 SWAP2 SWAP1 DUP1 CALLDATALOAD SWAP1 PUSH1 0x20 ADD SWAP1 SWAP3 SWAP2 SWAP1 POP POP POP PUSH2 0x13DF JUMP JUMPDEST PUSH1 0x40 MLOAD DUP1 DUP3 ISZERO ISZERO DUP2 MSTORE PUSH1 0x20 ADD SWAP2 POP POP PUSH1 0x40 MLOAD DUP1 SWAP2 SUB SWAP1 RETURN JUMPDEST PUSH2 0x88A PUSH1 0x4 DUP1 CALLDATASIZE SUB PUSH1 0x40 DUP2 LT ISZERO PUSH2 0x854 JUMPI PUSH1 0x0 DUP1 REVERT JUMPDEST DUP2 ADD SWAP1 DUP1 DUP1 CALLDATALOAD PUSH20 0xFFFFFFFFFFFFFFFFFFFFFFFFFFFFFFFFFFFFFFFF AND SWAP1 PUSH1 0x20 ADD SWAP1 SWAP3 SWAP2 SWAP1 DUP1 CALLDATALOAD SWAP1 PUSH1 0x20 ADD SWAP1 SWAP3 SWAP2 SWAP1 POP POP POP PUSH2 0x14AC JUMP JUMPDEST PUSH1 0x40 MLOAD DUP1 DUP3 ISZERO ISZERO DUP2 MSTORE PUSH1 0x20 ADD SWAP2 POP POP PUSH1 0x40 MLOAD DUP1 SWAP2 SUB SWAP1 RETURN JUMPDEST PUSH2 0x8AA PUSH2 0x14CA JUMP JUMPDEST PUSH1 0x40 MLOAD DUP1 DUP3 DUP2 MSTORE PUSH1 0x20 ADD SWAP2 POP POP PUSH1 0x40 MLOAD DUP1 SWAP2 SUB SWAP1 RETURN JUMPDEST PUSH2 0x902 PUSH1 0x4 DUP1 CALLDATASIZE SUB PUSH1 0x20 DUP2 LT ISZERO PUSH2 0x8D6 JUMPI PUSH1 0x0 DUP1 REVERT JUMPDEST DUP2 ADD SWAP1 DUP1 DUP1 CALLDATALOAD PUSH20 0xFFFFFFFFFFFFFFFFFFFFFFFFFFFFFFFFFFFFFFFF AND SWAP1 PUSH1 0x20 ADD SWAP1 SWAP3 SWAP2 SWAP1 POP POP POP PUSH2 0x14D9 JUMP JUMPDEST PUSH1 0x40 MLOAD DUP1 DUP3 ISZERO ISZERO DUP2 MSTORE PUSH1 0x20 ADD SWAP2 POP POP PUSH1 0x40 MLOAD DUP1 SWAP2 SUB SWAP1 RETURN JUMPDEST PUSH2 0x922 PUSH2 0x152F JUMP JUMPDEST PUSH1 0x40 MLOAD DUP1 DUP3 DUP2 MSTORE PUSH1 0x20 ADD SWAP2 POP POP PUSH1 0x40 MLOAD DUP1 SWAP2 SUB SWAP1 RETURN JUMPDEST PUSH2 0x99A PUSH1 0x4 DUP1 CALLDATASIZE SUB PUSH1 0x40 DUP2 LT ISZERO PUSH2 0x94E JUMPI PUSH1 0x0 DUP1 REVERT JUMPDEST DUP2 ADD SWAP1 DUP1 DUP1 CALLDATALOAD PUSH20 0xFFFFFFFFFFFFFFFFFFFFFFFFFFFFFFFFFFFFFFFF AND SWAP1 PUSH1 0x20 ADD SWAP1 SWAP3 SWAP2 SWAP1 DUP1 CALLDATALOAD PUSH20 0xFFFFFFFFFFFFFFFFFFFFFFFFFFFFFFFFFFFFFFFF AND SWAP1 PUSH1 0x20 ADD SWAP1 SWAP3 SWAP2 SWAP1 POP POP POP PUSH2 0x1535 JUMP JUMPDEST PUSH1 0x40 MLOAD DUP1 DUP3 DUP2 MSTORE PUSH1 0x20 ADD SWAP2 POP POP PUSH1 0x40 MLOAD DUP1 SWAP2 SUB SWAP1 RETURN JUMPDEST PUSH2 0x9F2 PUSH1 0x4 DUP1 CALLDATASIZE SUB PUSH1 0x20 DUP2 LT ISZERO PUSH2 0x9C6 JUMPI PUSH1 0x0 DUP1 REVERT JUMPDEST DUP2 ADD SWAP1 DUP1 DUP1 CALLDATALOAD PUSH20 0xFFFFFFFFFFFFFFFFFFFFFFFFFFFFFFFFFFFFFFFF AND SWAP1 PUSH1 0x20 ADD SWAP1 SWAP3 SWAP2 SWAP1 POP POP POP PUSH2 0x15BC JUMP JUMPDEST STOP JUMPDEST PUSH2 0xA36 PUSH1 0x4 DUP1 CALLDATASIZE SUB PUSH1 0x20 DUP2 LT ISZERO PUSH2 0xA0A JUMPI PUSH1 0x0 DUP1 REVERT JUMPDEST DUP2 ADD SWAP1 DUP1 DUP1 CALLDATALOAD PUSH20 0xFFFFFFFFFFFFFFFFFFFFFFFFFFFFFFFFFFFFFFFF AND SWAP1 PUSH1 0x20 ADD SWAP1 SWAP3 SWAP2 SWAP1 POP POP POP PUSH2 0x18D6 JUMP JUMPDEST STOP JUMPDEST PUSH2 0xA7A PUSH1 0x4 DUP1 CALLDATASIZE SUB PUSH1 0x20 DUP2 LT ISZERO PUSH2 0xA4E JUMPI PUSH1 0x0 DUP1 REVERT JUMPDEST DUP2 ADD SWAP1 DUP1 DUP1 CALLDATALOAD PUSH20 0xFFFFFFFFFFFFFFFFFFFFFFFFFFFFFFFFFFFFFFFF AND SWAP1 PUSH1 0x20 ADD SWAP1 SWAP3 SWAP2 SWAP1 POP POP POP PUSH2 0x1AE1 JUMP JUMPDEST STOP JUMPDEST PUSH2 0xA84 PUSH2 0x1E6B JUMP JUMPDEST PUSH1 0x40 MLOAD DUP1 DUP3 DUP2 MSTORE PUSH1 0x20 ADD SWAP2 POP POP PUSH1 0x40 MLOAD DUP1 SWAP2 SUB SWAP1 RETURN JUMPDEST PUSH1 0x3 PUSH1 0x20 MSTORE DUP2 PUSH1 0x0 MSTORE PUSH1 0x40 PUSH1 0x0 KECCAK256 PUSH1 0x20 MSTORE DUP1 PUSH1 0x0 MSTORE PUSH1 0x40 PUSH1 0x0 KECCAK256 PUSH1 0x0 SWAP2 POP SWAP2 POP POP SLOAD DUP2 JUMP JUMPDEST PUSH1 0x0 PUSH2 0xAC9 PUSH2 0x1E71 JUMP JUMPDEST SWAP1 POP PUSH1 0x4 PUSH1 0x0 DUP3 PUSH20 0xFFFFFFFFFFFFFFFFFFFFFFFFFFFFFFFFFFFFFFFF AND PUSH20 0xFFFFFFFFFFFFFFFFFFFFFFFFFFFFFFFFFFFFFFFF AND DUP2 MSTORE PUSH1 0x20 ADD SWAP1 DUP2 MSTORE PUSH1 0x20 ADD PUSH1 0x0 KECCAK256 PUSH1 0x0 SWAP1 SLOAD SWAP1 PUSH2 0x100 EXP SWAP1 DIV PUSH1 0xFF AND ISZERO PUSH2 0xB6E JUMPI PUSH1 0x40 MLOAD PUSH32 0x8C379A000000000000000000000000000000000000000000000000000000000 DUP2 MSTORE PUSH1 0x4 ADD DUP1 DUP1 PUSH1 0x20 ADD DUP3 DUP2 SUB DUP3 MSTORE PUSH1 0x2C DUP2 MSTORE PUSH1 0x20 ADD DUP1 PUSH2 0x36B0 PUSH1 0x2C SWAP2 CODECOPY PUSH1 0x40 ADD SWAP2 POP POP PUSH1 0x40 MLOAD DUP1 SWAP2 SUB SWAP1 REVERT JUMPDEST PUSH1 0x0 PUSH2 0xB79 DUP4 PUSH2 0x1E79 JUMP JUMPDEST POP POP POP POP SWAP1 POP PUSH2 0xBD1 DUP2 PUSH1 0x1 PUSH1 0x0 DUP6 PUSH20 0xFFFFFFFFFFFFFFFFFFFFFFFFFFFFFFFFFFFFFFFF AND PUSH20 0xFFFFFFFFFFFFFFFFFFFFFFFFFFFFFFFFFFFFFFFF AND DUP2 MSTORE PUSH1 0x20 ADD SWAP1 DUP2 MSTORE PUSH1 0x20 ADD PUSH1 0x0 KECCAK256 SLOAD PUSH2 0x1ED1 SWAP1 SWAP2 SWAP1 PUSH4 0xFFFFFFFF AND JUMP JUMPDEST PUSH1 0x1 PUSH1 0x0 DUP5 PUSH20 0xFFFFFFFFFFFFFFFFFFFFFFFFFFFFFFFFFFFFFFFF AND PUSH20 0xFFFFFFFFFFFFFFFFFFFFFFFFFFFFFFFFFFFFFFFF AND DUP2 MSTORE PUSH1 0x20 ADD SWAP1 DUP2 MSTORE PUSH1 0x20 ADD PUSH1 0x0 KECCAK256 DUP2 SWAP1 SSTORE POP PUSH2 0xC29 DUP2 PUSH1 0x6 SLOAD PUSH2 0x1ED1 SWAP1 SWAP2 SWAP1 PUSH4 0xFFFFFFFF AND JUMP JUMPDEST PUSH1 0x6 DUP2 SWAP1 SSTORE POP PUSH2 0xC44 DUP4 PUSH1 0x7 SLOAD PUSH2 0x1F1B SWAP1 SWAP2 SWAP1 PUSH4 0xFFFFFFFF AND JUMP JUMPDEST PUSH1 0x7 DUP2 SWAP1 SSTORE POP POP POP POP JUMP JUMPDEST PUSH1 0x60 PUSH1 0x8 DUP1 SLOAD PUSH1 0x1 DUP2 PUSH1 0x1 AND ISZERO PUSH2 0x100 MUL SUB AND PUSH1 0x2 SWAP1 DIV DUP1 PUSH1 0x1F ADD PUSH1 0x20 DUP1 SWAP2 DIV MUL PUSH1 0x20 ADD PUSH1 0x40 MLOAD SWAP1 DUP2 ADD PUSH1 0x40 MSTORE DUP1 SWAP3 SWAP2 SWAP1 DUP2 DUP2 MSTORE PUSH1 0x20 ADD DUP3 DUP1 SLOAD PUSH1 0x1 DUP2 PUSH1 0x1 AND ISZERO PUSH2 0x100 MUL SUB AND PUSH1 0x2 SWAP1 DIV DUP1 ISZERO PUSH2 0xCE7 JUMPI DUP1 PUSH1 0x1F LT PUSH2 0xCBC JUMPI PUSH2 0x100 DUP1 DUP4 SLOAD DIV MUL DUP4 MSTORE SWAP2 PUSH1 0x20 ADD SWAP2 PUSH2 0xCE7 JUMP JUMPDEST DUP3 ADD SWAP2 SWAP1 PUSH1 0x0 MSTORE PUSH1 0x20 PUSH1 0x0 KECCAK256 SWAP1 JUMPDEST DUP2 SLOAD DUP2 MSTORE SWAP1 PUSH1 0x1 ADD SWAP1 PUSH1 0x20 ADD DUP1 DUP4 GT PUSH2 0xCCA JUMPI DUP3 SWAP1 SUB PUSH1 0x1F AND DUP3 ADD SWAP2 JUMPDEST POP POP POP POP POP SWAP1 POP SWAP1 JUMP JUMPDEST PUSH1 0x0 PUSH2 0xD05 PUSH2 0xCFE PUSH2 0x1E71 JUMP JUMPDEST DUP5 DUP5 PUSH2 0x1FA3 JUMP JUMPDEST PUSH1 0x1 SWAP1 POP SWAP3 SWAP2 POP POP JUMP JUMPDEST PUSH1 0x4 PUSH1 0x20 MSTORE DUP1 PUSH1 0x0 MSTORE PUSH1 0x40 PUSH1 0x0 KECCAK256 PUSH1 0x0 SWAP2 POP SLOAD SWAP1 PUSH2 0x100 EXP SWAP1 DIV PUSH1 0xFF AND DUP2 JUMP JUMPDEST PUSH1 0x1 PUSH1 0x20 MSTORE DUP1 PUSH1 0x0 MSTORE PUSH1 0x40 PUSH1 0x0 KECCAK256 PUSH1 0x0 SWAP2 POP SWAP1 POP SLOAD DUP2 JUMP JUMPDEST PUSH1 0x0 PUSH1 0x7 SLOAD SWAP1 POP SWAP1 JUMP JUMPDEST PUSH1 0x0 PUSH11 0x52B7D2DCC80CD2E4000000 SWAP1 POP SWAP1 JUMP JUMPDEST PUSH1 0x0 PUSH2 0xD71 DUP5 DUP5 DUP5 PUSH2 0x219A JUMP JUMPDEST PUSH2 0xE32 DUP5 PUSH2 0xD7D PUSH2 0x1E71 JUMP JUMPDEST PUSH2 0xE2D DUP6 PUSH1 0x40 MLOAD DUP1 PUSH1 0x60 ADD PUSH1 0x40 MSTORE DUP1 PUSH1 0x28 DUP2 MSTORE PUSH1 0x20 ADD PUSH2 0x3616 PUSH1 0x28 SWAP2 CODECOPY PUSH1 0x3 PUSH1 0x0 DUP12 PUSH20 0xFFFFFFFFFFFFFFFFFFFFFFFFFFFFFFFFFFFFFFFF AND PUSH20 0xFFFFFFFFFFFFFFFFFFFFFFFFFFFFFFFFFFFFFFFF AND DUP2 MSTORE PUSH1 0x20 ADD SWAP1 DUP2 MSTORE PUSH1 0x20 ADD PUSH1 0x0 KECCAK256 PUSH1 0x0 PUSH2 0xDE3 PUSH2 0x1E71 JUMP JUMPDEST PUSH20 0xFFFFFFFFFFFFFFFFFFFFFFFFFFFFFFFFFFFFFFFF AND PUSH20 0xFFFFFFFFFFFFFFFFFFFFFFFFFFFFFFFFFFFFFFFF AND DUP2 MSTORE PUSH1 0x20 ADD SWAP1 DUP2 MSTORE PUSH1 0x20 ADD PUSH1 0x0 KECCAK256 SLOAD PUSH2 0x25F3 SWAP1 SWAP3 SWAP2 SWAP1 PUSH4 0xFFFFFFFF AND JUMP JUMPDEST PUSH2 0x1FA3 JUMP JUMPDEST PUSH1 0x1 SWAP1 POP SWAP4 SWAP3 POP POP POP JUMP JUMPDEST PUSH1 0x0 PUSH1 0x6 SLOAD DUP3 GT ISZERO PUSH2 0xE9A JUMPI PUSH1 0x40 MLOAD PUSH32 0x8C379A000000000000000000000000000000000000000000000000000000000 DUP2 MSTORE PUSH1 0x4 ADD DUP1 DUP1 PUSH1 0x20 ADD DUP3 DUP2 SUB DUP3 MSTORE PUSH1 0x2A DUP2 MSTORE PUSH1 0x20 ADD DUP1 PUSH2 0x3583 PUSH1 0x2A SWAP2 CODECOPY PUSH1 0x40 ADD SWAP2 POP POP PUSH1 0x40 MLOAD DUP1 SWAP2 SUB SWAP1 REVERT JUMPDEST PUSH1 0x0 PUSH2 0xEA4 PUSH2 0x26B3 JUMP JUMPDEST SWAP1 POP PUSH2 0xEB9 DUP2 DUP5 PUSH2 0x26DE SWAP1 SWAP2 SWAP1 PUSH4 0xFFFFFFFF AND JUMP JUMPDEST SWAP2 POP POP SWAP2 SWAP1 POP JUMP JUMPDEST PUSH1 0x0 PUSH1 0xA PUSH1 0x0 SWAP1 SLOAD SWAP1 PUSH2 0x100 EXP SWAP1 DIV PUSH1 0xFF AND SWAP1 POP SWAP1 JUMP JUMPDEST PUSH1 0x0 PUSH2 0xF81 PUSH2 0xEE5 PUSH2 0x1E71 JUMP JUMPDEST DUP5 PUSH2 0xF7C DUP6 PUSH1 0x3 PUSH1 0x0 PUSH2 0xEF6 PUSH2 0x1E71 JUMP JUMPDEST PUSH20 0xFFFFFFFFFFFFFFFFFFFFFFFFFFFFFFFFFFFFFFFF AND PUSH20 0xFFFFFFFFFFFFFFFFFFFFFFFFFFFFFFFFFFFFFFFF AND DUP2 MSTORE PUSH1 0x20 ADD SWAP1 DUP2 MSTORE PUSH1 0x20 ADD PUSH1 0x0 KECCAK256 PUSH1 0x0 DUP10 PUSH20 0xFFFFFFFFFFFFFFFFFFFFFFFFFFFFFFFFFFFFFFFF AND PUSH20 0xFFFFFFFFFFFFFFFFFFFFFFFFFFFFFFFFFFFFFFFF AND DUP2 MSTORE PUSH1 0x20 ADD SWAP1 DUP2 MSTORE PUSH1 0x20 ADD PUSH1 0x0 KECCAK256 SLOAD PUSH2 0x1F1B SWAP1 SWAP2 SWAP1 PUSH4 0xFFFFFFFF AND JUMP JUMPDEST PUSH2 0x1FA3 JUMP JUMPDEST PUSH1 0x1 SWAP1 POP SWAP3 SWAP2 POP POP JUMP JUMPDEST PUSH1 0x2 PUSH1 0x20 MSTORE DUP1 PUSH1 0x0 MSTORE PUSH1 0x40 PUSH1 0x0 KECCAK256 PUSH1 0x0 SWAP2 POP SWAP1 POP SLOAD DUP2 JUMP JUMPDEST PUSH1 0x0 PUSH11 0x52B7D2DCC80CD2E4000000 DUP4 GT ISZERO PUSH2 0x1026 JUMPI PUSH1 0x40 MLOAD PUSH32 0x8C379A000000000000000000000000000000000000000000000000000000000 DUP2 MSTORE PUSH1 0x4 ADD DUP1 DUP1 PUSH1 0x20 ADD DUP3 DUP2 SUB DUP3 MSTORE PUSH1 0x1F DUP2 MSTORE PUSH1 0x20 ADD DUP1 PUSH32 0x416D6F756E74206D757374206265206C657373207468616E20737570706C7900 DUP2 MSTORE POP PUSH1 0x20 ADD SWAP2 POP POP PUSH1 0x40 MLOAD DUP1 SWAP2 SUB SWAP1 REVERT JUMPDEST DUP2 PUSH2 0x1045 JUMPI PUSH1 0x0 PUSH2 0x1036 DUP5 PUSH2 0x1E79 JUMP JUMPDEST POP POP POP POP SWAP1 POP DUP1 SWAP2 POP POP PUSH2 0x105B JUMP JUMPDEST PUSH1 0x0 PUSH2 0x1050 DUP5 PUSH2 0x1E79 JUMP JUMPDEST POP POP POP SWAP2 POP POP DUP1 SWAP2 POP POP JUMPDEST SWAP3 SWAP2 POP POP JUMP JUMPDEST PUSH1 0x6 SLOAD DUP2 JUMP JUMPDEST PUSH1 0x5 DUP2 DUP2 SLOAD DUP2 LT PUSH2 0x1074 JUMPI INVALID JUMPDEST SWAP1 PUSH1 0x0 MSTORE PUSH1 0x20 PUSH1 0x0 KECCAK256 ADD PUSH1 0x0 SWAP2 POP SLOAD SWAP1 PUSH2 0x100 EXP SWAP1 DIV PUSH20 0xFFFFFFFFFFFFFFFFFFFFFFFFFFFFFFFFFFFFFFFF AND DUP2 JUMP JUMPDEST PUSH1 0x0 PUSH1 0x4 PUSH1 0x0 DUP4 PUSH20 0xFFFFFFFFFFFFFFFFFFFFFFFFFFFFFFFFFFFFFFFF AND PUSH20 0xFFFFFFFFFFFFFFFFFFFFFFFFFFFFFFFFFFFFFFFF AND DUP2 MSTORE PUSH1 0x20 ADD SWAP1 DUP2 MSTORE PUSH1 0x20 ADD PUSH1 0x0 KECCAK256 PUSH1 0x0 SWAP1 SLOAD SWAP1 PUSH2 0x100 EXP SWAP1 DIV PUSH1 0xFF AND ISZERO PUSH2 0x113E JUMPI PUSH1 0x2 PUSH1 0x0 DUP4 PUSH20 0xFFFFFFFFFFFFFFFFFFFFFFFFFFFFFFFFFFFFFFFF AND PUSH20 0xFFFFFFFFFFFFFFFFFFFFFFFFFFFFFFFFFFFFFFFF AND DUP2 MSTORE PUSH1 0x20 ADD SWAP1 DUP2 MSTORE PUSH1 0x20 ADD PUSH1 0x0 KECCAK256 SLOAD SWAP1 POP PUSH2 0x1189 JUMP JUMPDEST PUSH2 0x1186 PUSH1 0x1 PUSH1 0x0 DUP5 PUSH20 0xFFFFFFFFFFFFFFFFFFFFFFFFFFFFFFFFFFFFFFFF AND PUSH20 0xFFFFFFFFFFFFFFFFFFFFFFFFFFFFFFFFFFFFFFFF AND DUP2 MSTORE PUSH1 0x20 ADD SWAP1 DUP2 MSTORE PUSH1 0x20 ADD PUSH1 0x0 KECCAK256 SLOAD PUSH2 0xE3D JUMP JUMPDEST SWAP1 POP JUMPDEST SWAP2 SWAP1 POP JUMP JUMPDEST PUSH2 0x1196 PUSH2 0x1E71 JUMP JUMPDEST PUSH20 0xFFFFFFFFFFFFFFFFFFFFFFFFFFFFFFFFFFFFFFFF AND PUSH1 0x0 DUP1 SLOAD SWAP1 PUSH2 0x100 EXP SWAP1 DIV PUSH20 0xFFFFFFFFFFFFFFFFFFFFFFFFFFFFFFFFFFFFFFFF AND PUSH20 0xFFFFFFFFFFFFFFFFFFFFFFFFFFFFFFFFFFFFFFFF AND EQ PUSH2 0x1256 JUMPI PUSH1 0x40 MLOAD PUSH32 0x8C379A000000000000000000000000000000000000000000000000000000000 DUP2 MSTORE PUSH1 0x4 ADD DUP1 DUP1 PUSH1 0x20 ADD DUP3 DUP2 SUB DUP3 MSTORE PUSH1 0x20 DUP2 MSTORE PUSH1 0x20 ADD DUP1 PUSH32 0x4F776E61626C653A2063616C6C6572206973206E6F7420746865206F776E6572 DUP2 MSTORE POP PUSH1 0x20 ADD SWAP2 POP POP PUSH1 0x40 MLOAD DUP1 SWAP2 SUB SWAP1 REVERT JUMPDEST PUSH1 0x0 PUSH20 0xFFFFFFFFFFFFFFFFFFFFFFFFFFFFFFFFFFFFFFFF AND PUSH1 0x0 DUP1 SLOAD SWAP1 PUSH2 0x100 EXP SWAP1 DIV PUSH20 0xFFFFFFFFFFFFFFFFFFFFFFFFFFFFFFFFFFFFFFFF AND PUSH20 0xFFFFFFFFFFFFFFFFFFFFFFFFFFFFFFFFFFFFFFFF AND PUSH32 0x8BE0079C531659141344CD1FD0A4F28419497F9722A3DAAFE3B4186F6B6457E0 PUSH1 0x40 MLOAD PUSH1 0x40 MLOAD DUP1 SWAP2 SUB SWAP1 LOG3 PUSH1 0x0 DUP1 PUSH1 0x0 PUSH2 0x100 EXP DUP2 SLOAD DUP2 PUSH20 0xFFFFFFFFFFFFFFFFFFFFFFFFFFFFFFFFFFFFFFFF MUL NOT AND SWAP1 DUP4 PUSH20 0xFFFFFFFFFFFFFFFFFFFFFFFFFFFFFFFFFFFFFFFF AND MUL OR SWAP1 SSTORE POP JUMP JUMPDEST PUSH1 0x0 DUP1 PUSH1 0x0 SWAP1 SLOAD SWAP1 PUSH2 0x100 EXP SWAP1 DIV PUSH20 0xFFFFFFFFFFFFFFFFFFFFFFFFFFFFFFFFFFFFFFFF AND SWAP1 POP SWAP1 JUMP JUMPDEST PUSH1 0x60 PUSH1 0x9 DUP1 SLOAD PUSH1 0x1 DUP2 PUSH1 0x1 AND ISZERO PUSH2 0x100 MUL SUB AND PUSH1 0x2 SWAP1 DIV DUP1 PUSH1 0x1F ADD PUSH1 0x20 DUP1 SWAP2 DIV MUL PUSH1 0x20 ADD PUSH1 0x40 MLOAD SWAP1 DUP2 ADD PUSH1 0x40 MSTORE DUP1 SWAP3 SWAP2 SWAP1 DUP2 DUP2 MSTORE PUSH1 0x20 ADD DUP3 DUP1 SLOAD PUSH1 0x1 DUP2 PUSH1 0x1 AND ISZERO PUSH2 0x100 MUL SUB AND PUSH1 0x2 SWAP1 DIV DUP1 ISZERO PUSH2 0x13D5 JUMPI DUP1 PUSH1 0x1F LT PUSH2 0x13AA JUMPI PUSH2 0x100 DUP1 DUP4 SLOAD DIV MUL DUP4 MSTORE SWAP2 PUSH1 0x20 ADD SWAP2 PUSH2 0x13D5 JUMP JUMPDEST DUP3 ADD SWAP2 SWAP1 PUSH1 0x0 MSTORE PUSH1 0x20 PUSH1 0x0 KECCAK256 SWAP1 JUMPDEST DUP2 SLOAD DUP2 MSTORE SWAP1 PUSH1 0x1 ADD SWAP1 PUSH1 0x20 ADD DUP1 DUP4 GT PUSH2 0x13B8 JUMPI DUP3 SWAP1 SUB PUSH1 0x1F AND DUP3 ADD SWAP2 JUMPDEST POP POP POP POP POP SWAP1 POP SWAP1 JUMP JUMPDEST PUSH1 0x0 PUSH2 0x14A2 PUSH2 0x13EC PUSH2 0x1E71 JUMP JUMPDEST DUP5 PUSH2 0x149D DUP6 PUSH1 0x40 MLOAD DUP1 PUSH1 0x60 ADD PUSH1 0x40 MSTORE DUP1 PUSH1 0x25 DUP2 MSTORE PUSH1 0x20 ADD PUSH2 0x36DC PUSH1 0x25 SWAP2 CODECOPY PUSH1 0x3 PUSH1 0x0 PUSH2 0x1416 PUSH2 0x1E71 JUMP JUMPDEST PUSH20 0xFFFFFFFFFFFFFFFFFFFFFFFFFFFFFFFFFFFFFFFF AND PUSH20 0xFFFFFFFFFFFFFFFFFFFFFFFFFFFFFFFFFFFFFFFF AND DUP2 MSTORE PUSH1 0x20 ADD SWAP1 DUP2 MSTORE PUSH1 0x20 ADD PUSH1 0x0 KECCAK256 PUSH1 0x0 DUP11 PUSH20 0xFFFFFFFFFFFFFFFFFFFFFFFFFFFFFFFFFFFFFFFF AND PUSH20 0xFFFFFFFFFFFFFFFFFFFFFFFFFFFFFFFFFFFFFFFF AND DUP2 MSTORE PUSH1 0x20 ADD SWAP1 DUP2 MSTORE PUSH1 0x20 ADD PUSH1 0x0 KECCAK256 SLOAD PUSH2 0x25F3 SWAP1 SWAP3 SWAP2 SWAP1 PUSH4 0xFFFFFFFF AND JUMP JUMPDEST PUSH2 0x1FA3 JUMP JUMPDEST PUSH1 0x1 SWAP1 POP SWAP3 SWAP2 POP POP JUMP JUMPDEST PUSH1 0x0 PUSH2 0x14C0 PUSH2 0x14B9 PUSH2 0x1E71 JUMP JUMPDEST DUP5 DUP5 PUSH2 0x219A JUMP JUMPDEST PUSH1 0x1 SWAP1 POP SWAP3 SWAP2 POP POP JUMP JUMPDEST PUSH11 0x52B7D2DCC80CD2E4000000 DUP2 JUMP JUMPDEST PUSH1 0x0 PUSH1 0x4 PUSH1 0x0 DUP4 PUSH20 0xFFFFFFFFFFFFFFFFFFFFFFFFFFFFFFFFFFFFFFFF AND PUSH20 0xFFFFFFFFFFFFFFFFFFFFFFFFFFFFFFFFFFFFFFFF AND DUP2 MSTORE PUSH1 0x20 ADD SWAP1 DUP2 MSTORE PUSH1 0x20 ADD PUSH1 0x0 KECCAK256 PUSH1 0x0 SWAP1 SLOAD SWAP1 PUSH2 0x100 EXP SWAP1 DIV PUSH1 0xFF AND SWAP1 POP SWAP2 SWAP1 POP JUMP JUMPDEST PUSH1 0x0 NOT DUP2 JUMP JUMPDEST PUSH1 0x0 PUSH1 0x3 PUSH1 0x0 DUP5 PUSH20 0xFFFFFFFFFFFFFFFFFFFFFFFFFFFFFFFFFFFFFFFF AND PUSH20 0xFFFFFFFFFFFFFFFFFFFFFFFFFFFFFFFFFFFFFFFF AND DUP2 MSTORE PUSH1 0x20 ADD SWAP1 DUP2 MSTORE PUSH1 0x20 ADD PUSH1 0x0 KECCAK256 PUSH1 0x0 DUP4 PUSH20 0xFFFFFFFFFFFFFFFFFFFFFFFFFFFFFFFFFFFFFFFF AND PUSH20 0xFFFFFFFFFFFFFFFFFFFFFFFFFFFFFFFFFFFFFFFF AND DUP2 MSTORE PUSH1 0x20 ADD SWAP1 DUP2 MSTORE PUSH1 0x20 ADD PUSH1 0x0 KECCAK256 SLOAD SWAP1 POP SWAP3 SWAP2 POP POP JUMP JUMPDEST PUSH2 0x15C4 PUSH2 0x1E71 JUMP JUMPDEST PUSH20 0xFFFFFFFFFFFFFFFFFFFFFFFFFFFFFFFFFFFFFFFF AND PUSH1 0x0 DUP1 SLOAD SWAP1 PUSH2 0x100 EXP SWAP1 DIV PUSH20 0xFFFFFFFFFFFFFFFFFFFFFFFFFFFFFFFFFFFFFFFF AND PUSH20 0xFFFFFFFFFFFFFFFFFFFFFFFFFFFFFFFFFFFFFFFF AND EQ PUSH2 0x1684 JUMPI PUSH1 0x40 MLOAD PUSH32 0x8C379A000000000000000000000000000000000000000000000000000000000 DUP2 MSTORE PUSH1 0x4 ADD DUP1 DUP1 PUSH1 0x20 ADD DUP3 DUP2 SUB DUP3 MSTORE PUSH1 0x20 DUP2 MSTORE PUSH1 0x20 ADD DUP1 PUSH32 0x4F776E61626C653A2063616C6C6572206973206E6F7420746865206F776E6572 DUP2 MSTORE POP PUSH1 0x20 ADD SWAP2 POP POP PUSH1 0x40 MLOAD DUP1 SWAP2 SUB SWAP1 REVERT JUMPDEST PUSH1 0x4 PUSH1 0x0 DUP3 PUSH20 0xFFFFFFFFFFFFFFFFFFFFFFFFFFFFFFFFFFFFFFFF AND PUSH20 0xFFFFFFFFFFFFFFFFFFFFFFFFFFFFFFFFFFFFFFFF AND DUP2 MSTORE PUSH1 0x20 ADD SWAP1 DUP2 MSTORE PUSH1 0x20 ADD PUSH1 0x0 KECCAK256 PUSH1 0x0 SWAP1 SLOAD SWAP1 PUSH2 0x100 EXP SWAP1 DIV PUSH1 0xFF AND ISZERO PUSH2 0x1744 JUMPI PUSH1 0x40 MLOAD PUSH32 0x8C379A000000000000000000000000000000000000000000000000000000000 DUP2 MSTORE PUSH1 0x4 ADD DUP1 DUP1 PUSH1 0x20 ADD DUP3 DUP2 SUB DUP3 MSTORE PUSH1 0x1B DUP2 MSTORE PUSH1 0x20 ADD DUP1 PUSH32 0x4163636F756E7420697320616C7265616479206578636C756465640000000000 DUP2 MSTORE POP PUSH1 0x20 ADD SWAP2 POP POP PUSH1 0x40 MLOAD DUP1 SWAP2 SUB SWAP1 REVERT JUMPDEST PUSH1 0x0 PUSH1 0x1 PUSH1 0x0 DUP4 PUSH20 0xFFFFFFFFFFFFFFFFFFFFFFFFFFFFFFFFFFFFFFFF AND PUSH20 0xFFFFFFFFFFFFFFFFFFFFFFFFFFFFFFFFFFFFFFFF AND DUP2 MSTORE PUSH1 0x20 ADD SWAP1 DUP2 MSTORE PUSH1 0x20 ADD PUSH1 0x0 KECCAK256 SLOAD GT ISZERO PUSH2 0x1818 JUMPI PUSH2 0x17D4 PUSH1 0x1 PUSH1 0x0 DUP4 PUSH20 0xFFFFFFFFFFFFFFFFFFFFFFFFFFFFFFFFFFFFFFFF AND PUSH20 0xFFFFFFFFFFFFFFFFFFFFFFFFFFFFFFFFFFFFFFFF AND DUP2 MSTORE PUSH1 0x20 ADD SWAP1 DUP2 MSTORE PUSH1 0x20 ADD PUSH1 0x0 KECCAK256 SLOAD PUSH2 0xE3D JUMP JUMPDEST PUSH1 0x2 PUSH1 0x0 DUP4 PUSH20 0xFFFFFFFFFFFFFFFFFFFFFFFFFFFFFFFFFFFFFFFF AND PUSH20 0xFFFFFFFFFFFFFFFFFFFFFFFFFFFFFFFFFFFFFFFF AND DUP2 MSTORE PUSH1 0x20 ADD SWAP1 DUP2 MSTORE PUSH1 0x20 ADD PUSH1 0x0 KECCAK256 DUP2 SWAP1 SSTORE POP JUMPDEST PUSH1 0x1 PUSH1 0x4 PUSH1 0x0 DUP4 PUSH20 0xFFFFFFFFFFFFFFFFFFFFFFFFFFFFFFFFFFFFFFFF AND PUSH20 0xFFFFFFFFFFFFFFFFFFFFFFFFFFFFFFFFFFFFFFFF AND DUP2 MSTORE PUSH1 0x20 ADD SWAP1 DUP2 MSTORE PUSH1 0x20 ADD PUSH1 0x0 KECCAK256 PUSH1 0x0 PUSH2 0x100 EXP DUP2 SLOAD DUP2 PUSH1 0xFF MUL NOT AND SWAP1 DUP4 ISZERO ISZERO MUL OR SWAP1 SSTORE POP PUSH1 0x5 DUP2 SWAP1 DUP1 PUSH1 0x1 DUP2 SLOAD ADD DUP1 DUP3 SSTORE DUP1 SWAP2 POP POP PUSH1 0x1 SWAP1 SUB SWAP1 PUSH1 0x0 MSTORE PUSH1 0x20 PUSH1 0x0 KECCAK256 ADD PUSH1 0x0 SWAP1 SWAP2 SWAP1 SWAP2 SWAP1 SWAP2 PUSH2 0x100 EXP DUP2 SLOAD DUP2 PUSH20 0xFFFFFFFFFFFFFFFFFFFFFFFFFFFFFFFFFFFFFFFF MUL NOT AND SWAP1 DUP4 PUSH20 0xFFFFFFFFFFFFFFFFFFFFFFFFFFFFFFFFFFFFFFFF AND MUL OR SWAP1 SSTORE POP POP JUMP JUMPDEST PUSH2 0x18DE PUSH2 0x1E71 JUMP JUMPDEST PUSH20 0xFFFFFFFFFFFFFFFFFFFFFFFFFFFFFFFFFFFFFFFF AND PUSH1 0x0 DUP1 SLOAD SWAP1 PUSH2 0x100 EXP SWAP1 DIV PUSH20 0xFFFFFFFFFFFFFFFFFFFFFFFFFFFFFFFFFFFFFFFF AND PUSH20 0xFFFFFFFFFFFFFFFFFFFFFFFFFFFFFFFFFFFFFFFF AND EQ PUSH2 0x199E JUMPI PUSH1 0x40 MLOAD PUSH32 0x8C379A000000000000000000000000000000000000000000000000000000000 DUP2 MSTORE PUSH1 0x4 ADD DUP1 DUP1 PUSH1 0x20 ADD DUP3 DUP2 SUB DUP3 MSTORE PUSH1 0x20 DUP2 MSTORE PUSH1 0x20 ADD DUP1 PUSH32 0x4F776E61626C653A2063616C6C6572206973206E6F7420746865206F776E6572 DUP2 MSTORE POP PUSH1 0x20 ADD SWAP2 POP POP PUSH1 0x40 MLOAD DUP1 SWAP2 SUB SWAP1 REVERT JUMPDEST PUSH1 0x0 PUSH20 0xFFFFFFFFFFFFFFFFFFFFFFFFFFFFFFFFFFFFFFFF AND DUP2 PUSH20 0xFFFFFFFFFFFFFFFFFFFFFFFFFFFFFFFFFFFFFFFF AND EQ ISZERO PUSH2 0x1A24 JUMPI PUSH1 0x40 MLOAD PUSH32 0x8C379A000000000000000000000000000000000000000000000000000000000 DUP2 MSTORE PUSH1 0x4 ADD DUP1 DUP1 PUSH1 0x20 ADD DUP3 DUP2 SUB DUP3 MSTORE PUSH1 0x26 DUP2 MSTORE PUSH1 0x20 ADD DUP1 PUSH2 0x35AD PUSH1 0x26 SWAP2 CODECOPY PUSH1 0x40 ADD SWAP2 POP POP PUSH1 0x40 MLOAD DUP1 SWAP2 SUB SWAP1 REVERT JUMPDEST DUP1 PUSH20 0xFFFFFFFFFFFFFFFFFFFFFFFFFFFFFFFFFFFFFFFF AND PUSH1 0x0 DUP1 SLOAD SWAP1 PUSH2 0x100 EXP SWAP1 DIV PUSH20 0xFFFFFFFFFFFFFFFFFFFFFFFFFFFFFFFFFFFFFFFF AND PUSH20 0xFFFFFFFFFFFFFFFFFFFFFFFFFFFFFFFFFFFFFFFF AND PUSH32 0x8BE0079C531659141344CD1FD0A4F28419497F9722A3DAAFE3B4186F6B6457E0 PUSH1 0x40 MLOAD PUSH1 0x40 MLOAD DUP1 SWAP2 SUB SWAP1 LOG3 DUP1 PUSH1 0x0 DUP1 PUSH2 0x100 EXP DUP2 SLOAD DUP2 PUSH20 0xFFFFFFFFFFFFFFFFFFFFFFFFFFFFFFFFFFFFFFFF MUL NOT AND SWAP1 DUP4 PUSH20 0xFFFFFFFFFFFFFFFFFFFFFFFFFFFFFFFFFFFFFFFF AND MUL OR SWAP1 SSTORE POP POP JUMP JUMPDEST PUSH2 0x1AE9 PUSH2 0x1E71 JUMP JUMPDEST PUSH20 0xFFFFFFFFFFFFFFFFFFFFFFFFFFFFFFFFFFFFFFFF AND PUSH1 0x0 DUP1 SLOAD SWAP1 PUSH2 0x100 EXP SWAP1 DIV PUSH20 0xFFFFFFFFFFFFFFFFFFFFFFFFFFFFFFFFFFFFFFFF AND PUSH20 0xFFFFFFFFFFFFFFFFFFFFFFFFFFFFFFFFFFFFFFFF AND EQ PUSH2 0x1BA9 JUMPI PUSH1 0x40 MLOAD PUSH32 0x8C379A000000000000000000000000000000000000000000000000000000000 DUP2 MSTORE PUSH1 0x4 ADD DUP1 DUP1 PUSH1 0x20 ADD DUP3 DUP2 SUB DUP3 MSTORE PUSH1 0x20 DUP2 MSTORE PUSH1 0x20 ADD DUP1 PUSH32 0x4F776E61626C653A2063616C6C6572206973206E6F7420746865206F776E6572 DUP2 MSTORE POP PUSH1 0x20 ADD SWAP2 POP POP PUSH1 0x40 MLOAD DUP1 SWAP2 SUB SWAP1 REVERT JUMPDEST PUSH1 0x4 PUSH1 0x0 DUP3 PUSH20 0xFFFFFFFFFFFFFFFFFFFFFFFFFFFFFFFFFFFFFFFF AND PUSH20 0xFFFFFFFFFFFFFFFFFFFFFFFFFFFFFFFFFFFFFFFF AND DUP2 MSTORE PUSH1 0x20 ADD SWAP1 DUP2 MSTORE PUSH1 0x20 ADD PUSH1 0x0 KECCAK256 PUSH1 0x0 SWAP1 SLOAD SWAP1 PUSH2 0x100 EXP SWAP1 DIV PUSH1 0xFF AND PUSH2 0x1C68 JUMPI PUSH1 0x40 MLOAD PUSH32 0x8C379A000000000000000000000000000000000000000000000000000000000 DUP2 MSTORE PUSH1 0x4 ADD DUP1 DUP1 PUSH1 0x20 ADD DUP3 DUP2 SUB DUP3 MSTORE PUSH1 0x1B DUP2 MSTORE PUSH1 0x20 ADD DUP1 PUSH32 0x4163636F756E7420697320616C7265616479206578636C756465640000000000 DUP2 MSTORE POP PUSH1 0x20 ADD SWAP2 POP POP PUSH1 0x40 MLOAD DUP1 SWAP2 SUB SWAP1 REVERT JUMPDEST PUSH1 0x0 JUMPDEST PUSH1 0x5 DUP1 SLOAD SWAP1 POP DUP2 LT ISZERO PUSH2 0x1E67 JUMPI DUP2 PUSH20 0xFFFFFFFFFFFFFFFFFFFFFFFFFFFFFFFFFFFFFFFF AND PUSH1 0x5 DUP3 DUP2 SLOAD DUP2 LT PUSH2 0x1C9C JUMPI INVALID JUMPDEST SWAP1 PUSH1 0x0 MSTORE PUSH1 0x20 PUSH1 0x0 KECCAK256 ADD PUSH1 0x0 SWAP1 SLOAD SWAP1 PUSH2 0x100 EXP SWAP1 DIV PUSH20 0xFFFFFFFFFFFFFFFFFFFFFFFFFFFFFFFFFFFFFFFF AND PUSH20 0xFFFFFFFFFFFFFFFFFFFFFFFFFFFFFFFFFFFFFFFF AND EQ ISZERO PUSH2 0x1E5A JUMPI PUSH1 0x5 PUSH1 0x1 PUSH1 0x5 DUP1 SLOAD SWAP1 POP SUB DUP2 SLOAD DUP2 LT PUSH2 0x1CF8 JUMPI INVALID JUMPDEST SWAP1 PUSH1 0x0 MSTORE PUSH1 0x20 PUSH1 0x0 KECCAK256 ADD PUSH1 0x0 SWAP1 SLOAD SWAP1 PUSH2 0x100 EXP SWAP1 DIV PUSH20 0xFFFFFFFFFFFFFFFFFFFFFFFFFFFFFFFFFFFFFFFF AND PUSH1 0x5 DUP3 DUP2 SLOAD DUP2 LT PUSH2 0x1D30 JUMPI INVALID JUMPDEST SWAP1 PUSH1 0x0 MSTORE PUSH1 0x20 PUSH1 0x0 KECCAK256 ADD PUSH1 0x0 PUSH2 0x100 EXP DUP2 SLOAD DUP2 PUSH20 0xFFFFFFFFFFFFFFFFFFFFFFFFFFFFFFFFFFFFFFFF MUL NOT AND SWAP1 DUP4 PUSH20 0xFFFFFFFFFFFFFFFFFFFFFFFFFFFFFFFFFFFFFFFF AND MUL OR SWAP1 SSTORE POP PUSH1 0x0 PUSH1 0x2 PUSH1 0x0 DUP5 PUSH20 0xFFFFFFFFFFFFFFFFFFFFFFFFFFFFFFFFFFFFFFFF AND PUSH20 0xFFFFFFFFFFFFFFFFFFFFFFFFFFFFFFFFFFFFFFFF AND DUP2 MSTORE PUSH1 0x20 ADD SWAP1 DUP2 MSTORE PUSH1 0x20 ADD PUSH1 0x0 KECCAK256 DUP2 SWAP1 SSTORE POP PUSH1 0x0 PUSH1 0x4 PUSH1 0x0 DUP5 PUSH20 0xFFFFFFFFFFFFFFFFFFFFFFFFFFFFFFFFFFFFFFFF AND PUSH20 0xFFFFFFFFFFFFFFFFFFFFFFFFFFFFFFFFFFFFFFFF AND DUP2 MSTORE PUSH1 0x20 ADD SWAP1 DUP2 MSTORE PUSH1 0x20 ADD PUSH1 0x0 KECCAK256 PUSH1 0x0 PUSH2 0x100 EXP DUP2 SLOAD DUP2 PUSH1 0xFF MUL NOT AND SWAP1 DUP4 ISZERO ISZERO MUL OR SWAP1 SSTORE POP PUSH1 0x5 DUP1 SLOAD DUP1 PUSH2 0x1E20 JUMPI INVALID JUMPDEST PUSH1 0x1 SWAP1 SUB DUP2 DUP2 SWAP1 PUSH1 0x0 MSTORE PUSH1 0x20 PUSH1 0x0 KECCAK256 ADD PUSH1 0x0 PUSH2 0x100 EXP DUP2 SLOAD SWAP1 PUSH20 0xFFFFFFFFFFFFFFFFFFFFFFFFFFFFFFFFFFFFFFFF MUL NOT AND SWAP1 SSTORE SWAP1 SSTORE PUSH2 0x1E67 JUMP JUMPDEST DUP1 DUP1 PUSH1 0x1 ADD SWAP2 POP POP PUSH2 0x1C6B JUMP JUMPDEST POP POP JUMP JUMPDEST PUSH1 0x7 SLOAD DUP2 JUMP JUMPDEST PUSH1 0x0 CALLER SWAP1 POP SWAP1 JUMP JUMPDEST PUSH1 0x0 DUP1 PUSH1 0x0 DUP1 PUSH1 0x0 DUP1 PUSH1 0x0 PUSH2 0x1E8D DUP9 PUSH2 0x2728 JUMP JUMPDEST SWAP2 POP SWAP2 POP PUSH1 0x0 PUSH2 0x1E9B PUSH2 0x26B3 JUMP JUMPDEST SWAP1 POP PUSH1 0x0 DUP1 PUSH1 0x0 PUSH2 0x1EAD DUP13 DUP7 DUP7 PUSH2 0x277A JUMP JUMPDEST SWAP3 POP SWAP3 POP SWAP3 POP DUP3 DUP3 DUP3 DUP9 DUP9 SWAP11 POP SWAP11 POP SWAP11 POP SWAP11 POP SWAP11 POP POP POP POP POP POP POP SWAP2 SWAP4 SWAP6 SWAP1 SWAP3 SWAP5 POP JUMP JUMPDEST PUSH1 0x0 PUSH2 0x1F13 DUP4 DUP4 PUSH1 0x40 MLOAD DUP1 PUSH1 0x40 ADD PUSH1 0x40 MSTORE DUP1 PUSH1 0x1E DUP2 MSTORE PUSH1 0x20 ADD PUSH32 0x536166654D6174683A207375627472616374696F6E206F766572666C6F770000 DUP2 MSTORE POP PUSH2 0x25F3 JUMP JUMPDEST SWAP1 POP SWAP3 SWAP2 POP POP JUMP JUMPDEST PUSH1 0x0 DUP1 DUP3 DUP5 ADD SWAP1 POP DUP4 DUP2 LT ISZERO PUSH2 0x1F99 JUMPI PUSH1 0x40 MLOAD PUSH32 0x8C379A000000000000000000000000000000000000000000000000000000000 DUP2 MSTORE PUSH1 0x4 ADD DUP1 DUP1 PUSH1 0x20 ADD DUP3 DUP2 SUB DUP3 MSTORE PUSH1 0x1B DUP2 MSTORE PUSH1 0x20 ADD DUP1 PUSH32 0x536166654D6174683A206164646974696F6E206F766572666C6F770000000000 DUP2 MSTORE POP PUSH1 0x20 ADD SWAP2 POP POP PUSH1 0x40 MLOAD DUP1 SWAP2 SUB SWAP1 REVERT JUMPDEST DUP1 SWAP2 POP POP SWAP3 SWAP2 POP POP JUMP JUMPDEST PUSH1 0x0 PUSH20 0xFFFFFFFFFFFFFFFFFFFFFFFFFFFFFFFFFFFFFFFF AND DUP4 PUSH20 0xFFFFFFFFFFFFFFFFFFFFFFFFFFFFFFFFFFFFFFFF AND EQ ISZERO PUSH2 0x2029 JUMPI PUSH1 0x40 MLOAD PUSH32 0x8C379A000000000000000000000000000000000000000000000000000000000 DUP2 MSTORE PUSH1 0x4 ADD DUP1 DUP1 PUSH1 0x20 ADD DUP3 DUP2 SUB DUP3 MSTORE PUSH1 0x24 DUP2 MSTORE PUSH1 0x20 ADD DUP1 PUSH2 0x368C PUSH1 0x24 SWAP2 CODECOPY PUSH1 0x40 ADD SWAP2 POP POP PUSH1 0x40 MLOAD DUP1 SWAP2 SUB SWAP1 REVERT JUMPDEST PUSH1 0x0 PUSH20 0xFFFFFFFFFFFFFFFFFFFFFFFFFFFFFFFFFFFFFFFF AND DUP3 PUSH20 0xFFFFFFFFFFFFFFFFFFFFFFFFFFFFFFFFFFFFFFFF AND EQ ISZERO PUSH2 0x20AF JUMPI PUSH1 0x40 MLOAD PUSH32 0x8C379A000000000000000000000000000000000000000000000000000000000 DUP2 MSTORE PUSH1 0x4 ADD DUP1 DUP1 PUSH1 0x20 ADD DUP3 DUP2 SUB DUP3 MSTORE PUSH1 0x22 DUP2 MSTORE PUSH1 0x20 ADD DUP1 PUSH2 0x35D3 PUSH1 0x22 SWAP2 CODECOPY PUSH1 0x40 ADD SWAP2 POP POP PUSH1 0x40 MLOAD DUP1 SWAP2 SUB SWAP1 REVERT JUMPDEST DUP1 PUSH1 0x3 PUSH1 0x0 DUP6 PUSH20 0xFFFFFFFFFFFFFFFFFFFFFFFFFFFFFFFFFFFFFFFF AND PUSH20 0xFFFFFFFFFFFFFFFFFFFFFFFFFFFFFFFFFFFFFFFF AND DUP2 MSTORE PUSH1 0x20 ADD SWAP1 DUP2 MSTORE PUSH1 0x20 ADD PUSH1 0x0 KECCAK256 PUSH1 0x0 DUP5 PUSH20 0xFFFFFFFFFFFFFFFFFFFFFFFFFFFFFFFFFFFFFFFF AND PUSH20 0xFFFFFFFFFFFFFFFFFFFFFFFFFFFFFFFFFFFFFFFF AND DUP2 MSTORE PUSH1 0x20 ADD SWAP1 DUP2 MSTORE PUSH1 0x20 ADD PUSH1 0x0 KECCAK256 DUP2 SWAP1 SSTORE POP DUP2 PUSH20 0xFFFFFFFFFFFFFFFFFFFFFFFFFFFFFFFFFFFFFFFF AND DUP4 PUSH20 0xFFFFFFFFFFFFFFFFFFFFFFFFFFFFFFFFFFFFFFFF AND PUSH32 0x8C5BE1E5EBEC7D5BD14F71427D1E84F3DD0314C0F7B2291E5B200AC8C7C3B925 DUP4 PUSH1 0x40 MLOAD DUP1 DUP3 DUP2 MSTORE PUSH1 0x20 ADD SWAP2 POP POP PUSH1 0x40 MLOAD DUP1 SWAP2 SUB SWAP1 LOG3 POP POP POP JUMP JUMPDEST PUSH1 0x0 PUSH20 0xFFFFFFFFFFFFFFFFFFFFFFFFFFFFFFFFFFFFFFFF AND DUP4 PUSH20 0xFFFFFFFFFFFFFFFFFFFFFFFFFFFFFFFFFFFFFFFF AND EQ ISZERO PUSH2 0x2220 JUMPI PUSH1 0x40 MLOAD PUSH32 0x8C379A000000000000000000000000000000000000000000000000000000000 DUP2 MSTORE PUSH1 0x4 ADD DUP1 DUP1 PUSH1 0x20 ADD DUP3 DUP2 SUB DUP3 MSTORE PUSH1 0x25 DUP2 MSTORE PUSH1 0x20 ADD DUP1 PUSH2 0x3667 PUSH1 0x25 SWAP2 CODECOPY PUSH1 0x40 ADD SWAP2 POP POP PUSH1 0x40 MLOAD DUP1 SWAP2 SUB SWAP1 REVERT JUMPDEST PUSH1 0x0 PUSH20 0xFFFFFFFFFFFFFFFFFFFFFFFFFFFFFFFFFFFFFFFF AND DUP3 PUSH20 0xFFFFFFFFFFFFFFFFFFFFFFFFFFFFFFFFFFFFFFFF AND EQ ISZERO PUSH2 0x22A6 JUMPI PUSH1 0x40 MLOAD PUSH32 0x8C379A000000000000000000000000000000000000000000000000000000000 DUP2 MSTORE PUSH1 0x4 ADD DUP1 DUP1 PUSH1 0x20 ADD DUP3 DUP2 SUB DUP3 MSTORE PUSH1 0x23 DUP2 MSTORE PUSH1 0x20 ADD DUP1 PUSH2 0x3560 PUSH1 0x23 SWAP2 CODECOPY PUSH1 0x40 ADD SWAP2 POP POP PUSH1 0x40 MLOAD DUP1 SWAP2 SUB SWAP1 REVERT JUMPDEST PUSH1 0x0 DUP2 GT PUSH2 0x22FF JUMPI PUSH1 0x40 MLOAD PUSH32 0x8C379A000000000000000000000000000000000000000000000000000000000 DUP2 MSTORE PUSH1 0x4 ADD DUP1 DUP1 PUSH1 0x20 ADD DUP3 DUP2 SUB DUP3 MSTORE PUSH1 0x29 DUP2 MSTORE PUSH1 0x20 ADD DUP1 PUSH2 0x363E PUSH1 0x29 SWAP2 CODECOPY PUSH1 0x40 ADD SWAP2 POP POP PUSH1 0x40 MLOAD DUP1 SWAP2 SUB SWAP1 REVERT JUMPDEST PUSH1 0x4 PUSH1 0x0 DUP5 PUSH20 0xFFFFFFFFFFFFFFFFFFFFFFFFFFFFFFFFFFFFFFFF AND PUSH20 0xFFFFFFFFFFFFFFFFFFFFFFFFFFFFFFFFFFFFFFFF AND DUP2 MSTORE PUSH1 0x20 ADD SWAP1 DUP2 MSTORE PUSH1 0x20 ADD PUSH1 0x0 KECCAK256 PUSH1 0x0 SWAP1 SLOAD SWAP1 PUSH2 0x100 EXP SWAP1 DIV PUSH1 0xFF AND DUP1 ISZERO PUSH2 0x23A2 JUMPI POP PUSH1 0x4 PUSH1 0x0 DUP4 PUSH20 0xFFFFFFFFFFFFFFFFFFFFFFFFFFFFFFFFFFFFFFFF AND PUSH20 0xFFFFFFFFFFFFFFFFFFFFFFFFFFFFFFFFFFFFFFFF AND DUP2 MSTORE PUSH1 0x20 ADD SWAP1 DUP2 MSTORE PUSH1 0x20 ADD PUSH1 0x0 KECCAK256 PUSH1 0x0 SWAP1 SLOAD SWAP1 PUSH2 0x100 EXP SWAP1 DIV PUSH1 0xFF AND ISZERO JUMPDEST ISZERO PUSH2 0x23B7 JUMPI PUSH2 0x23B2 DUP4 DUP4 DUP4 PUSH2 0x27D8 JUMP JUMPDEST PUSH2 0x25EE JUMP JUMPDEST PUSH1 0x4 PUSH1 0x0 DUP5 PUSH20 0xFFFFFFFFFFFFFFFFFFFFFFFFFFFFFFFFFFFFFFFF AND PUSH20 0xFFFFFFFFFFFFFFFFFFFFFFFFFFFFFFFFFFFFFFFF AND DUP2 MSTORE PUSH1 0x20 ADD SWAP1 DUP2 MSTORE PUSH1 0x20 ADD PUSH1 0x0 KECCAK256 PUSH1 0x0 SWAP1 SLOAD SWAP1 PUSH2 0x100 EXP SWAP1 DIV PUSH1 0xFF AND ISZERO DUP1 ISZERO PUSH2 0x245A JUMPI POP PUSH1 0x4 PUSH1 0x0 DUP4 PUSH20 0xFFFFFFFFFFFFFFFFFFFFFFFFFFFFFFFFFFFFFFFF AND PUSH20 0xFFFFFFFFFFFFFFFFFFFFFFFFFFFFFFFFFFFFFFFF AND DUP2 MSTORE PUSH1 0x20 ADD SWAP1 DUP2 MSTORE PUSH1 0x20 ADD PUSH1 0x0 KECCAK256 PUSH1 0x0 SWAP1 SLOAD SWAP1 PUSH2 0x100 EXP SWAP1 DIV PUSH1 0xFF AND JUMPDEST ISZERO PUSH2 0x246F JUMPI PUSH2 0x246A DUP4 DUP4 DUP4 PUSH2 0x2A2B JUMP JUMPDEST PUSH2 0x25ED JUMP JUMPDEST PUSH1 0x4 PUSH1 0x0 DUP5 PUSH20 0xFFFFFFFFFFFFFFFFFFFFFFFFFFFFFFFFFFFFFFFF AND PUSH20 0xFFFFFFFFFFFFFFFFFFFFFFFFFFFFFFFFFFFFFFFF AND DUP2 MSTORE PUSH1 0x20 ADD SWAP1 DUP2 MSTORE PUSH1 0x20 ADD PUSH1 0x0 KECCAK256 PUSH1 0x0 SWAP1 SLOAD SWAP1 PUSH2 0x100 EXP SWAP1 DIV PUSH1 0xFF AND ISZERO DUP1 ISZERO PUSH2 0x2513 JUMPI POP PUSH1 0x4 PUSH1 0x0 DUP4 PUSH20 0xFFFFFFFFFFFFFFFFFFFFFFFFFFFFFFFFFFFFFFFF AND PUSH20 0xFFFFFFFFFFFFFFFFFFFFFFFFFFFFFFFFFFFFFFFF AND DUP2 MSTORE PUSH1 0x20 ADD SWAP1 DUP2 MSTORE PUSH1 0x20 ADD PUSH1 0x0 KECCAK256 PUSH1 0x0 SWAP1 SLOAD SWAP1 PUSH2 0x100 EXP SWAP1 DIV PUSH1 0xFF AND ISZERO JUMPDEST ISZERO PUSH2 0x2528 JUMPI PUSH2 0x2523 DUP4 DUP4 DUP4 PUSH2 0x2C7E JUMP JUMPDEST PUSH2 0x25EC JUMP JUMPDEST PUSH1 0x4 PUSH1 0x0 DUP5 PUSH20 0xFFFFFFFFFFFFFFFFFFFFFFFFFFFFFFFFFFFFFFFF AND PUSH20 0xFFFFFFFFFFFFFFFFFFFFFFFFFFFFFFFFFFFFFFFF AND DUP2 MSTORE PUSH1 0x20 ADD SWAP1 DUP2 MSTORE PUSH1 0x20 ADD PUSH1 0x0 KECCAK256 PUSH1 0x0 SWAP1 SLOAD SWAP1 PUSH2 0x100 EXP SWAP1 DIV PUSH1 0xFF AND DUP1 ISZERO PUSH2 0x25CA JUMPI POP PUSH1 0x4 PUSH1 0x0 DUP4 PUSH20 0xFFFFFFFFFFFFFFFFFFFFFFFFFFFFFFFFFFFFFFFF AND PUSH20 0xFFFFFFFFFFFFFFFFFFFFFFFFFFFFFFFFFFFFFFFF AND DUP2 MSTORE PUSH1 0x20 ADD SWAP1 DUP2 MSTORE PUSH1 0x20 ADD PUSH1 0x0 KECCAK256 PUSH1 0x0 SWAP1 SLOAD SWAP1 PUSH2 0x100 EXP SWAP1 DIV PUSH1 0xFF AND JUMPDEST ISZERO PUSH2 0x25DF JUMPI PUSH2 0x25DA DUP4 DUP4 DUP4 PUSH2 0x2E3C JUMP JUMPDEST PUSH2 0x25EB JUMP JUMPDEST PUSH2 0x25EA DUP4 DUP4 DUP4 PUSH2 0x2C7E JUMP JUMPDEST JUMPDEST JUMPDEST JUMPDEST JUMPDEST POP POP POP JUMP JUMPDEST PUSH1 0x0 DUP4 DUP4 GT ISZERO DUP3 SWAP1 PUSH2 0x26A0 JUMPI PUSH1 0x40 MLOAD PUSH32 0x8C379A000000000000000000000000000000000000000000000000000000000 DUP2 MSTORE PUSH1 0x4 ADD DUP1 DUP1 PUSH1 0x20 ADD DUP3 DUP2 SUB DUP3 MSTORE DUP4 DUP2 DUP2 MLOAD DUP2 MSTORE PUSH1 0x20 ADD SWAP2 POP DUP1 MLOAD SWAP1 PUSH1 0x20 ADD SWAP1 DUP1 DUP4 DUP4 PUSH1 0x0 JUMPDEST DUP4 DUP2 LT ISZERO PUSH2 0x2665 JUMPI DUP1 DUP3 ADD MLOAD DUP2 DUP5 ADD MSTORE PUSH1 0x20 DUP2 ADD SWAP1 POP PUSH2 0x264A JUMP JUMPDEST POP POP POP POP SWAP1 POP SWAP1 DUP2 ADD SWAP1 PUSH1 0x1F AND DUP1 ISZERO PUSH2 0x2692 JUMPI DUP1 DUP3 SUB DUP1 MLOAD PUSH1 0x1 DUP4 PUSH1 0x20 SUB PUSH2 0x100 EXP SUB NOT AND DUP2 MSTORE PUSH1 0x20 ADD SWAP2 POP JUMPDEST POP SWAP3 POP POP POP PUSH1 0x40 MLOAD DUP1 SWAP2 SUB SWAP1 REVERT JUMPDEST POP PUSH1 0x0 DUP4 DUP6 SUB SWAP1 POP DUP1 SWAP2 POP POP SWAP4 SWAP3 POP POP POP JUMP JUMPDEST PUSH1 0x0 DUP1 PUSH1 0x0 PUSH2 0x26C0 PUSH2 0x3124 JUMP JUMPDEST SWAP2 POP SWAP2 POP PUSH2 0x26D7 DUP2 DUP4 PUSH2 0x26DE SWAP1 SWAP2 SWAP1 PUSH4 0xFFFFFFFF AND JUMP JUMPDEST SWAP3 POP POP POP SWAP1 JUMP JUMPDEST PUSH1 0x0 PUSH2 0x2720 DUP4 DUP4 PUSH1 0x40 MLOAD DUP1 PUSH1 0x40 ADD PUSH1 0x40 MSTORE DUP1 PUSH1 0x1A DUP2 MSTORE PUSH1 0x20 ADD PUSH32 0x536166654D6174683A206469766973696F6E206279207A65726F000000000000 DUP2 MSTORE POP PUSH2 0x33D9 JUMP JUMPDEST SWAP1 POP SWAP3 SWAP2 POP POP JUMP JUMPDEST PUSH1 0x0 DUP1 PUSH1 0x0 PUSH2 0x2754 PUSH1 0x2 PUSH2 0x2746 PUSH1 0x64 DUP8 PUSH2 0x26DE SWAP1 SWAP2 SWAP1 PUSH4 0xFFFFFFFF AND JUMP JUMPDEST PUSH2 0x349F SWAP1 SWAP2 SWAP1 PUSH4 0xFFFFFFFF AND JUMP JUMPDEST SWAP1 POP PUSH1 0x0 PUSH2 0x276B DUP3 DUP7 PUSH2 0x1ED1 SWAP1 SWAP2 SWAP1 PUSH4 0xFFFFFFFF AND JUMP JUMPDEST SWAP1 POP DUP1 DUP3 SWAP4 POP SWAP4 POP POP POP SWAP2 POP SWAP2 JUMP JUMPDEST PUSH1 0x0 DUP1 PUSH1 0x0 DUP1 PUSH2 0x2793 DUP6 DUP9 PUSH2 0x349F SWAP1 SWAP2 SWAP1 PUSH4 0xFFFFFFFF AND JUMP JUMPDEST SWAP1 POP PUSH1 0x0 PUSH2 0x27AA DUP7 DUP9 PUSH2 0x349F SWAP1 SWAP2 SWAP1 PUSH4 0xFFFFFFFF AND JUMP JUMPDEST SWAP1 POP PUSH1 0x0 PUSH2 0x27C1 DUP3 DUP5 PUSH2 0x1ED1 SWAP1 SWAP2 SWAP1 PUSH4 0xFFFFFFFF AND JUMP JUMPDEST SWAP1 POP DUP3 DUP2 DUP4 SWAP6 POP SWAP6 POP SWAP6 POP POP POP POP SWAP4 POP SWAP4 POP SWAP4 SWAP1 POP JUMP JUMPDEST PUSH1 0x0 DUP1 PUSH1 0x0 DUP1 PUSH1 0x0 PUSH2 0x27E9 DUP7 PUSH2 0x1E79 JUMP JUMPDEST SWAP5 POP SWAP5 POP SWAP5 POP SWAP5 POP SWAP5 POP PUSH2 0x2845 DUP7 PUSH1 0x2 PUSH1 0x0 DUP12 PUSH20 0xFFFFFFFFFFFFFFFFFFFFFFFFFFFFFFFFFFFFFFFF AND PUSH20 0xFFFFFFFFFFFFFFFFFFFFFFFFFFFFFFFFFFFFFFFF AND DUP2 MSTORE PUSH1 0x20 ADD SWAP1 DUP2 MSTORE PUSH1 0x20 ADD PUSH1 0x0 KECCAK256 SLOAD PUSH2 0x1ED1 SWAP1 SWAP2 SWAP1 PUSH4 0xFFFFFFFF AND JUMP JUMPDEST PUSH1 0x2 PUSH1 0x0 DUP11 PUSH20 0xFFFFFFFFFFFFFFFFFFFFFFFFFFFFFFFFFFFFFFFF AND PUSH20 0xFFFFFFFFFFFFFFFFFFFFFFFFFFFFFFFFFFFFFFFF AND DUP2 MSTORE PUSH1 0x20 ADD SWAP1 DUP2 MSTORE PUSH1 0x20 ADD PUSH1 0x0 KECCAK256 DUP2 SWAP1 SSTORE POP PUSH2 0x28DA DUP6 PUSH1 0x1 PUSH1 0x0 DUP12 PUSH20 0xFFFFFFFFFFFFFFFFFFFFFFFFFFFFFFFFFFFFFFFF AND PUSH20 0xFFFFFFFFFFFFFFFFFFFFFFFFFFFFFFFFFFFFFFFF AND DUP2 MSTORE PUSH1 0x20 ADD SWAP1 DUP2 MSTORE PUSH1 0x20 ADD PUSH1 0x0 KECCAK256 SLOAD PUSH2 0x1ED1 SWAP1 SWAP2 SWAP1 PUSH4 0xFFFFFFFF AND JUMP JUMPDEST PUSH1 0x1 PUSH1 0x0 DUP11 PUSH20 0xFFFFFFFFFFFFFFFFFFFFFFFFFFFFFFFFFFFFFFFF AND PUSH20 0xFFFFFFFFFFFFFFFFFFFFFFFFFFFFFFFFFFFFFFFF AND DUP2 MSTORE PUSH1 0x20 ADD SWAP1 DUP2 MSTORE PUSH1 0x20 ADD PUSH1 0x0 KECCAK256 DUP2 SWAP1 SSTORE POP PUSH2 0x296F DUP5 PUSH1 0x1 PUSH1 0x0 DUP11 PUSH20 0xFFFFFFFFFFFFFFFFFFFFFFFFFFFFFFFFFFFFFFFF AND PUSH20 0xFFFFFFFFFFFFFFFFFFFFFFFFFFFFFFFFFFFFFFFF AND DUP2 MSTORE PUSH1 0x20 ADD SWAP1 DUP2 MSTORE PUSH1 0x20 ADD PUSH1 0x0 KECCAK256 SLOAD PUSH2 0x1F1B SWAP1 SWAP2 SWAP1 PUSH4 0xFFFFFFFF AND JUMP JUMPDEST PUSH1 0x1 PUSH1 0x0 DUP10 PUSH20 0xFFFFFFFFFFFFFFFFFFFFFFFFFFFFFFFFFFFFFFFF AND PUSH20 0xFFFFFFFFFFFFFFFFFFFFFFFFFFFFFFFFFFFFFFFF AND DUP2 MSTORE PUSH1 0x20 ADD SWAP1 DUP2 MSTORE PUSH1 0x20 ADD PUSH1 0x0 KECCAK256 DUP2 SWAP1 SSTORE POP PUSH2 0x29BC DUP4 DUP3 PUSH2 0x3525 JUMP JUMPDEST DUP7 PUSH20 0xFFFFFFFFFFFFFFFFFFFFFFFFFFFFFFFFFFFFFFFF AND DUP9 PUSH20 0xFFFFFFFFFFFFFFFFFFFFFFFFFFFFFFFFFFFFFFFF AND PUSH32 0xDDF252AD1BE2C89B69C2B068FC378DAA952BA7F163C4A11628F55A4DF523B3EF DUP5 PUSH1 0x40 MLOAD DUP1 DUP3 DUP2 MSTORE PUSH1 0x20 ADD SWAP2 POP POP PUSH1 0x40 MLOAD DUP1 SWAP2 SUB SWAP1 LOG3 POP POP POP POP POP POP POP POP JUMP JUMPDEST PUSH1 0x0 DUP1 PUSH1 0x0 DUP1 PUSH1 0x0 PUSH2 0x2A3C DUP7 PUSH2 0x1E79 JUMP JUMPDEST SWAP5 POP SWAP5 POP SWAP5 POP SWAP5 POP SWAP5 POP PUSH2 0x2A98 DUP6 PUSH1 0x1 PUSH1 0x0 DUP12 PUSH20 0xFFFFFFFFFFFFFFFFFFFFFFFFFFFFFFFFFFFFFFFF AND PUSH20 0xFFFFFFFFFFFFFFFFFFFFFFFFFFFFFFFFFFFFFFFF AND DUP2 MSTORE PUSH1 0x20 ADD SWAP1 DUP2 MSTORE PUSH1 0x20 ADD PUSH1 0x0 KECCAK256 SLOAD PUSH2 0x1ED1 SWAP1 SWAP2 SWAP1 PUSH4 0xFFFFFFFF AND JUMP JUMPDEST PUSH1 0x1 PUSH1 0x0 DUP11 PUSH20 0xFFFFFFFFFFFFFFFFFFFFFFFFFFFFFFFFFFFFFFFF AND PUSH20 0xFFFFFFFFFFFFFFFFFFFFFFFFFFFFFFFFFFFFFFFF AND DUP2 MSTORE PUSH1 0x20 ADD SWAP1 DUP2 MSTORE PUSH1 0x20 ADD PUSH1 0x0 KECCAK256 DUP2 SWAP1 SSTORE POP PUSH2 0x2B2D DUP3 PUSH1 0x2 PUSH1 0x0 DUP11 PUSH20 0xFFFFFFFFFFFFFFFFFFFFFFFFFFFFFFFFFFFFFFFF AND PUSH20 0xFFFFFFFFFFFFFFFFFFFFFFFFFFFFFFFFFFFFFFFF AND DUP2 MSTORE PUSH1 0x20 ADD SWAP1 DUP2 MSTORE PUSH1 0x20 ADD PUSH1 0x0 KECCAK256 SLOAD PUSH2 0x1F1B SWAP1 SWAP2 SWAP1 PUSH4 0xFFFFFFFF AND JUMP JUMPDEST PUSH1 0x2 PUSH1 0x0 DUP10 PUSH20 0xFFFFFFFFFFFFFFFFFFFFFFFFFFFFFFFFFFFFFFFF AND PUSH20 0xFFFFFFFFFFFFFFFFFFFFFFFFFFFFFFFFFFFFFFFF AND DUP2 MSTORE PUSH1 0x20 ADD SWAP1 DUP2 MSTORE PUSH1 0x20 ADD PUSH1 0x0 KECCAK256 DUP2 SWAP1 SSTORE POP PUSH2 0x2BC2 DUP5 PUSH1 0x1 PUSH1 0x0 DUP11 PUSH20 0xFFFFFFFFFFFFFFFFFFFFFFFFFFFFFFFFFFFFFFFF AND PUSH20 0xFFFFFFFFFFFFFFFFFFFFFFFFFFFFFFFFFFFFFFFF AND DUP2 MSTORE PUSH1 0x20 ADD SWAP1 DUP2 MSTORE PUSH1 0x20 ADD PUSH1 0x0 KECCAK256 SLOAD PUSH2 0x1F1B SWAP1 SWAP2 SWAP1 PUSH4 0xFFFFFFFF AND JUMP JUMPDEST PUSH1 0x1 PUSH1 0x0 DUP10 PUSH20 0xFFFFFFFFFFFFFFFFFFFFFFFFFFFFFFFFFFFFFFFF AND PUSH20 0xFFFFFFFFFFFFFFFFFFFFFFFFFFFFFFFFFFFFFFFF AND DUP2 MSTORE PUSH1 0x20 ADD SWAP1 DUP2 MSTORE PUSH1 0x20 ADD PUSH1 0x0 KECCAK256 DUP2 SWAP1 SSTORE POP PUSH2 0x2C0F DUP4 DUP3 PUSH2 0x3525 JUMP JUMPDEST DUP7 PUSH20 0xFFFFFFFFFFFFFFFFFFFFFFFFFFFFFFFFFFFFFFFF AND DUP9 PUSH20 0xFFFFFFFFFFFFFFFFFFFFFFFFFFFFFFFFFFFFFFFF AND PUSH32 0xDDF252AD1BE2C89B69C2B068FC378DAA952BA7F163C4A11628F55A4DF523B3EF DUP5 PUSH1 0x40 MLOAD DUP1 DUP3 DUP2 MSTORE PUSH1 0x20 ADD SWAP2 POP POP PUSH1 0x40 MLOAD DUP1 SWAP2 SUB SWAP1 LOG3 POP POP POP POP POP POP POP POP JUMP JUMPDEST PUSH1 0x0 DUP1 PUSH1 0x0 DUP1 PUSH1 0x0 PUSH2 0x2C8F DUP7 PUSH2 0x1E79 JUMP JUMPDEST SWAP5 POP SWAP5 POP SWAP5 POP SWAP5 POP SWAP5 POP PUSH2 0x2CEB DUP6 PUSH1 0x1 PUSH1 0x0 DUP12 PUSH20 0xFFFFFFFFFFFFFFFFFFFFFFFFFFFFFFFFFFFFFFFF AND PUSH20 0xFFFFFFFFFFFFFFFFFFFFFFFFFFFFFFFFFFFFFFFF AND DUP2 MSTORE PUSH1 0x20 ADD SWAP1 DUP2 MSTORE PUSH1 0x20 ADD PUSH1 0x0 KECCAK256 SLOAD PUSH2 0x1ED1 SWAP1 SWAP2 SWAP1 PUSH4 0xFFFFFFFF AND JUMP JUMPDEST PUSH1 0x1 PUSH1 0x0 DUP11 PUSH20 0xFFFFFFFFFFFFFFFFFFFFFFFFFFFFFFFFFFFFFFFF AND PUSH20 0xFFFFFFFFFFFFFFFFFFFFFFFFFFFFFFFFFFFFFFFF AND DUP2 MSTORE PUSH1 0x20 ADD SWAP1 DUP2 MSTORE PUSH1 0x20 ADD PUSH1 0x0 KECCAK256 DUP2 SWAP1 SSTORE POP PUSH2 0x2D80 DUP5 PUSH1 0x1 PUSH1 0x0 DUP11 PUSH20 0xFFFFFFFFFFFFFFFFFFFFFFFFFFFFFFFFFFFFFFFF AND PUSH20 0xFFFFFFFFFFFFFFFFFFFFFFFFFFFFFFFFFFFFFFFF AND DUP2 MSTORE PUSH1 0x20 ADD SWAP1 DUP2 MSTORE PUSH1 0x20 ADD PUSH1 0x0 KECCAK256 SLOAD PUSH2 0x1F1B SWAP1 SWAP2 SWAP1 PUSH4 0xFFFFFFFF AND JUMP JUMPDEST PUSH1 0x1 PUSH1 0x0 DUP10 PUSH20 0xFFFFFFFFFFFFFFFFFFFFFFFFFFFFFFFFFFFFFFFF AND PUSH20 0xFFFFFFFFFFFFFFFFFFFFFFFFFFFFFFFFFFFFFFFF AND DUP2 MSTORE PUSH1 0x20 ADD SWAP1 DUP2 MSTORE PUSH1 0x20 ADD PUSH1 0x0 KECCAK256 DUP2 SWAP1 SSTORE POP PUSH2 0x2DCD DUP4 DUP3 PUSH2 0x3525 JUMP JUMPDEST DUP7 PUSH20 0xFFFFFFFFFFFFFFFFFFFFFFFFFFFFFFFFFFFFFFFF AND DUP9 PUSH20 0xFFFFFFFFFFFFFFFFFFFFFFFFFFFFFFFFFFFFFFFF AND PUSH32 0xDDF252AD1BE2C89B69C2B068FC378DAA952BA7F163C4A11628F55A4DF523B3EF DUP5 PUSH1 0x40 MLOAD DUP1 DUP3 DUP2 MSTORE PUSH1 0x20 ADD SWAP2 POP POP PUSH1 0x40 MLOAD DUP1 SWAP2 SUB SWAP1 LOG3 POP POP POP POP POP POP POP POP JUMP JUMPDEST PUSH1 0x0 DUP1 PUSH1 0x0 DUP1 PUSH1 0x0 PUSH2 0x2E4D DUP7 PUSH2 0x1E79 JUMP JUMPDEST SWAP5 POP SWAP5 POP SWAP5 POP SWAP5 POP SWAP5 POP PUSH2 0x2EA9 DUP7 PUSH1 0x2 PUSH1 0x0 DUP12 PUSH20 0xFFFFFFFFFFFFFFFFFFFFFFFFFFFFFFFFFFFFFFFF AND PUSH20 0xFFFFFFFFFFFFFFFFFFFFFFFFFFFFFFFFFFFFFFFF AND DUP2 MSTORE PUSH1 0x20 ADD SWAP1 DUP2 MSTORE PUSH1 0x20 ADD PUSH1 0x0 KECCAK256 SLOAD PUSH2 0x1ED1 SWAP1 SWAP2 SWAP1 PUSH4 0xFFFFFFFF AND JUMP JUMPDEST PUSH1 0x2 PUSH1 0x0 DUP11 PUSH20 0xFFFFFFFFFFFFFFFFFFFFFFFFFFFFFFFFFFFFFFFF AND PUSH20 0xFFFFFFFFFFFFFFFFFFFFFFFFFFFFFFFFFFFFFFFF AND DUP2 MSTORE PUSH1 0x20 ADD SWAP1 DUP2 MSTORE PUSH1 0x20 ADD PUSH1 0x0 KECCAK256 DUP2 SWAP1 SSTORE POP PUSH2 0x2F3E DUP6 PUSH1 0x1 PUSH1 0x0 DUP12 PUSH20 0xFFFFFFFFFFFFFFFFFFFFFFFFFFFFFFFFFFFFFFFF AND PUSH20 0xFFFFFFFFFFFFFFFFFFFFFFFFFFFFFFFFFFFFFFFF AND DUP2 MSTORE PUSH1 0x20 ADD SWAP1 DUP2 MSTORE PUSH1 0x20 ADD PUSH1 0x0 KECCAK256 SLOAD PUSH2 0x1ED1 SWAP1 SWAP2 SWAP1 PUSH4 0xFFFFFFFF AND JUMP JUMPDEST PUSH1 0x1 PUSH1 0x0 DUP11 PUSH20 0xFFFFFFFFFFFFFFFFFFFFFFFFFFFFFFFFFFFFFFFF AND PUSH20 0xFFFFFFFFFFFFFFFFFFFFFFFFFFFFFFFFFFFFFFFF AND DUP2 MSTORE PUSH1 0x20 ADD SWAP1 DUP2 MSTORE PUSH1 0x20 ADD PUSH1 0x0 KECCAK256 DUP2 SWAP1 SSTORE POP PUSH2 0x2FD3 DUP3 PUSH1 0x2 PUSH1 0x0 DUP11 PUSH20 0xFFFFFFFFFFFFFFFFFFFFFFFFFFFFFFFFFFFFFFFF AND PUSH20 0xFFFFFFFFFFFFFFFFFFFFFFFFFFFFFFFFFFFFFFFF AND DUP2 MSTORE PUSH1 0x20 ADD SWAP1 DUP2 MSTORE PUSH1 0x20 ADD PUSH1 0x0 KECCAK256 SLOAD PUSH2 0x1F1B SWAP1 SWAP2 SWAP1 PUSH4 0xFFFFFFFF AND JUMP JUMPDEST PUSH1 0x2 PUSH1 0x0 DUP10 PUSH20 0xFFFFFFFFFFFFFFFFFFFFFFFFFFFFFFFFFFFFFFFF AND PUSH20 0xFFFFFFFFFFFFFFFFFFFFFFFFFFFFFFFFFFFFFFFF AND DUP2 MSTORE PUSH1 0x20 ADD SWAP1 DUP2 MSTORE PUSH1 0x20 ADD PUSH1 0x0 KECCAK256 DUP2 SWAP1 SSTORE POP PUSH2 0x3068 DUP5 PUSH1 0x1 PUSH1 0x0 DUP11 PUSH20 0xFFFFFFFFFFFFFFFFFFFFFFFFFFFFFFFFFFFFFFFF AND PUSH20 0xFFFFFFFFFFFFFFFFFFFFFFFFFFFFFFFFFFFFFFFF AND DUP2 MSTORE PUSH1 0x20 ADD SWAP1 DUP2 MSTORE PUSH1 0x20 ADD PUSH1 0x0 KECCAK256 SLOAD PUSH2 0x1F1B SWAP1 SWAP2 SWAP1 PUSH4 0xFFFFFFFF AND JUMP JUMPDEST PUSH1 0x1 PUSH1 0x0 DUP10 PUSH20 0xFFFFFFFFFFFFFFFFFFFFFFFFFFFFFFFFFFFFFFFF AND PUSH20 0xFFFFFFFFFFFFFFFFFFFFFFFFFFFFFFFFFFFFFFFF AND DUP2 MSTORE PUSH1 0x20 ADD SWAP1 DUP2 MSTORE PUSH1 0x20 ADD PUSH1 0x0 KECCAK256 DUP2 SWAP1 SSTORE POP PUSH2 0x30B5 DUP4 DUP3 PUSH2 0x3525 JUMP JUMPDEST DUP7 PUSH20 0xFFFFFFFFFFFFFFFFFFFFFFFFFFFFFFFFFFFFFFFF AND DUP9 PUSH20 0xFFFFFFFFFFFFFFFFFFFFFFFFFFFFFFFFFFFFFFFF AND PUSH32 0xDDF252AD1BE2C89B69C2B068FC378DAA952BA7F163C4A11628F55A4DF523B3EF DUP5 PUSH1 0x40 MLOAD DUP1 DUP3 DUP2 MSTORE PUSH1 0x20 ADD SWAP2 POP POP PUSH1 0x40 MLOAD DUP1 SWAP2 SUB SWAP1 LOG3 POP POP POP POP POP POP POP POP JUMP JUMPDEST PUSH1 0x0 DUP1 PUSH1 0x0 PUSH1 0x6 SLOAD SWAP1 POP PUSH1 0x0 PUSH11 0x52B7D2DCC80CD2E4000000 SWAP1 POP PUSH1 0x0 JUMPDEST PUSH1 0x5 DUP1 SLOAD SWAP1 POP DUP2 LT ISZERO PUSH2 0x338A JUMPI DUP3 PUSH1 0x1 PUSH1 0x0 PUSH1 0x5 DUP5 DUP2 SLOAD DUP2 LT PUSH2 0x3160 JUMPI INVALID JUMPDEST SWAP1 PUSH1 0x0 MSTORE PUSH1 0x20 PUSH1 0x0 KECCAK256 ADD PUSH1 0x0 SWAP1 SLOAD SWAP1 PUSH2 0x100 EXP SWAP1 DIV PUSH20 0xFFFFFFFFFFFFFFFFFFFFFFFFFFFFFFFFFFFFFFFF AND PUSH20 0xFFFFFFFFFFFFFFFFFFFFFFFFFFFFFFFFFFFFFFFF AND PUSH20 0xFFFFFFFFFFFFFFFFFFFFFFFFFFFFFFFFFFFFFFFF AND DUP2 MSTORE PUSH1 0x20 ADD SWAP1 DUP2 MSTORE PUSH1 0x20 ADD PUSH1 0x0 KECCAK256 SLOAD GT DUP1 PUSH2 0x3247 JUMPI POP DUP2 PUSH1 0x2 PUSH1 0x0 PUSH1 0x5 DUP5 DUP2 SLOAD DUP2 LT PUSH2 0x31DF JUMPI INVALID JUMPDEST SWAP1 PUSH1 0x0 MSTORE PUSH1 0x20 PUSH1 0x0 KECCAK256 ADD PUSH1 0x0 SWAP1 SLOAD SWAP1 PUSH2 0x100 EXP SWAP1 DIV PUSH20 0xFFFFFFFFFFFFFFFFFFFFFFFFFFFFFFFFFFFFFFFF AND PUSH20 0xFFFFFFFFFFFFFFFFFFFFFFFFFFFFFFFFFFFFFFFF AND PUSH20 0xFFFFFFFFFFFFFFFFFFFFFFFFFFFFFFFFFFFFFFFF AND DUP2 MSTORE PUSH1 0x20 ADD SWAP1 DUP2 MSTORE PUSH1 0x20 ADD PUSH1 0x0 KECCAK256 SLOAD GT JUMPDEST ISZERO PUSH2 0x3267 JUMPI PUSH1 0x6 SLOAD PUSH11 0x52B7D2DCC80CD2E4000000 SWAP5 POP SWAP5 POP POP POP POP PUSH2 0x33D5 JUMP JUMPDEST PUSH2 0x32F0 PUSH1 0x1 PUSH1 0x0 PUSH1 0x5 DUP5 DUP2 SLOAD DUP2 LT PUSH2 0x327B JUMPI INVALID JUMPDEST SWAP1 PUSH1 0x0 MSTORE PUSH1 0x20 PUSH1 0x0 KECCAK256 ADD PUSH1 0x0 SWAP1 SLOAD SWAP1 PUSH2 0x100 EXP SWAP1 DIV PUSH20 0xFFFFFFFFFFFFFFFFFFFFFFFFFFFFFFFFFFFFFFFF AND PUSH20 0xFFFFFFFFFFFFFFFFFFFFFFFFFFFFFFFFFFFFFFFF AND PUSH20 0xFFFFFFFFFFFFFFFFFFFFFFFFFFFFFFFFFFFFFFFF AND DUP2 MSTORE PUSH1 0x20 ADD SWAP1 DUP2 MSTORE PUSH1 0x20 ADD PUSH1 0x0 KECCAK256 SLOAD DUP5 PUSH2 0x1ED1 SWAP1 SWAP2 SWAP1 PUSH4 0xFFFFFFFF AND JUMP JUMPDEST SWAP3 POP PUSH2 0x337B PUSH1 0x2 PUSH1 0x0 PUSH1 0x5 DUP5 DUP2 SLOAD DUP2 LT PUSH2 0x3306 JUMPI INVALID JUMPDEST SWAP1 PUSH1 0x0 MSTORE PUSH1 0x20 PUSH1 0x0 KECCAK256 ADD PUSH1 0x0 SWAP1 SLOAD SWAP1 PUSH2 0x100 EXP SWAP1 DIV PUSH20 0xFFFFFFFFFFFFFFFFFFFFFFFFFFFFFFFFFFFFFFFF AND PUSH20 0xFFFFFFFFFFFFFFFFFFFFFFFFFFFFFFFFFFFFFFFF AND PUSH20 0xFFFFFFFFFFFFFFFFFFFFFFFFFFFFFFFFFFFFFFFF AND DUP2 MSTORE PUSH1 0x20 ADD SWAP1 DUP2 MSTORE PUSH1 0x20 ADD PUSH1 0x0 KECCAK256 SLOAD DUP4 PUSH2 0x1ED1 SWAP1 SWAP2 SWAP1 PUSH4 0xFFFFFFFF AND JUMP JUMPDEST SWAP2 POP DUP1 DUP1 PUSH1 0x1 ADD SWAP2 POP POP PUSH2 0x3141 JUMP JUMPDEST POP PUSH2 0x33AB PUSH11 0x52B7D2DCC80CD2E4000000 PUSH1 0x6 SLOAD PUSH2 0x26DE SWAP1 SWAP2 SWAP1 PUSH4 0xFFFFFFFF AND JUMP JUMPDEST DUP3 LT ISZERO PUSH2 0x33CC JUMPI PUSH1 0x6 SLOAD PUSH11 0x52B7D2DCC80CD2E4000000 SWAP4 POP SWAP4 POP POP POP PUSH2 0x33D5 JUMP JUMPDEST DUP2 DUP2 SWAP4 POP SWAP4 POP POP POP JUMPDEST SWAP1 SWAP2 JUMP JUMPDEST PUSH1 0x0 DUP1 DUP4 GT DUP3 SWAP1 PUSH2 0x3485 JUMPI PUSH1 0x40 MLOAD PUSH32 0x8C379A000000000000000000000000000000000000000000000000000000000 DUP2 MSTORE PUSH1 0x4 ADD DUP1 DUP1 PUSH1 0x20 ADD DUP3 DUP2 SUB DUP3 MSTORE DUP4 DUP2 DUP2 MLOAD DUP2 MSTORE PUSH1 0x20 ADD SWAP2 POP DUP1 MLOAD SWAP1 PUSH1 0x20 ADD SWAP1 DUP1 DUP4 DUP4 PUSH1 0x0 JUMPDEST DUP4 DUP2 LT ISZERO PUSH2 0x344A JUMPI DUP1 DUP3 ADD MLOAD DUP2 DUP5 ADD MSTORE PUSH1 0x20 DUP2 ADD SWAP1 POP PUSH2 0x342F JUMP JUMPDEST POP POP POP POP SWAP1 POP SWAP1 DUP2 ADD SWAP1 PUSH1 0x1F AND DUP1 ISZERO PUSH2 0x3477 JUMPI DUP1 DUP3 SUB DUP1 MLOAD PUSH1 0x1 DUP4 PUSH1 0x20 SUB PUSH2 0x100 EXP SUB NOT AND DUP2 MSTORE PUSH1 0x20 ADD SWAP2 POP JUMPDEST POP SWAP3 POP POP POP PUSH1 0x40 MLOAD DUP1 SWAP2 SUB SWAP1 REVERT JUMPDEST POP PUSH1 0x0 DUP4 DUP6 DUP2 PUSH2 0x3491 JUMPI INVALID JUMPDEST DIV SWAP1 POP DUP1 SWAP2 POP POP SWAP4 SWAP3 POP POP POP JUMP JUMPDEST PUSH1 0x0 DUP1 DUP4 EQ ISZERO PUSH2 0x34B2 JUMPI PUSH1 0x0 SWAP1 POP PUSH2 0x351F JUMP JUMPDEST PUSH1 0x0 DUP3 DUP5 MUL SWAP1 POP DUP3 DUP5 DUP3 DUP2 PUSH2 0x34C3 JUMPI INVALID JUMPDEST DIV EQ PUSH2 0x351A JUMPI PUSH1 0x40 MLOAD PUSH32 0x8C379A000000000000000000000000000000000000000000000000000000000 DUP2 MSTORE PUSH1 0x4 ADD DUP1 DUP1 PUSH1 0x20 ADD DUP3 DUP2 SUB DUP3 MSTORE PUSH1 0x21 DUP2 MSTORE PUSH1 0x20 ADD DUP1 PUSH2 0x35F5 PUSH1 0x21 SWAP2 CODECOPY PUSH1 0x40 ADD SWAP2 POP POP PUSH1 0x40 MLOAD DUP1 SWAP2 SUB SWAP1 REVERT JUMPDEST DUP1 SWAP2 POP POP JUMPDEST SWAP3 SWAP2 POP POP JUMP JUMPDEST PUSH2 0x353A DUP3 PUSH1 0x6 SLOAD PUSH2 0x1ED1 SWAP1 SWAP2 SWAP1 PUSH4 0xFFFFFFFF AND JUMP JUMPDEST PUSH1 0x6 DUP2 SWAP1 SSTORE POP PUSH2 0x3555 DUP2 PUSH1 0x7 SLOAD PUSH2 0x1F1B SWAP1 SWAP2 SWAP1 PUSH4 0xFFFFFFFF AND JUMP JUMPDEST PUSH1 0x7 DUP2 SWAP1 SSTORE POP POP POP JUMP INVALID GASLIMIT MSTORE NUMBER ORIGIN ADDRESS GASPRICE KECCAK256 PUSH21 0x72616E7366657220746F20746865207A65726F2061 PUSH5 0x6472657373 COINBASE PUSH14 0x6F756E74206D757374206265206C PUSH6 0x737320746861 PUSH15 0x20746F74616C207265666C65637469 PUSH16 0x6E734F776E61626C653A206E6577206F PUSH24 0x6E657220697320746865207A65726F206164647265737345 MSTORE NUMBER ORIGIN ADDRESS GASPRICE KECCAK256 PUSH2 0x7070 PUSH19 0x6F766520746F20746865207A65726F20616464 PUSH19 0x657373536166654D6174683A206D756C746970 PUSH13 0x69636174696F6E206F76657266 PUSH13 0x6F7745524332303A207472616E PUSH20 0x66657220616D6F756E7420657863656564732061 PUSH13 0x6C6F77616E63655472616E7366 PUSH6 0x7220616D6F75 PUSH15 0x74206D757374206265206772656174 PUSH6 0x72207468616E KECCAK256 PUSH27 0x65726F45524332303A207472616E736665722066726F6D20746865 KECCAK256 PUSH27 0x65726F206164647265737345524332303A20617070726F76652066 PUSH19 0x6F6D20746865207A65726F2061646472657373 GASLIMIT PUSH25 0x636C75646564206164647265737365732063616E6E6F742063 PUSH2 0x6C6C KECCAK256 PUSH21 0x6869732066756E6374696F6E45524332303A206465 PUSH4 0x72656173 PUSH6 0x6420616C6C6F PUSH24 0x616E63652062656C6F77207A65726FA26469706673582212 KECCAK256 DUP5 GAS 0xC6 MSIZE PUSH14 0x9C4322F54F93F68F51B20440519E SELFDESTRUCT 0xCE PUSH29 0x1EE59276029D3C89099164736F6C634300060C00330000000000000000 "
				},
				"gasEstimates": {
					"creation": {
						"codeDepositCost": "2826800",
						"executionCost": "infinite",
						"totalCost": "infinite"
					},
					"external": {
						"MAX()": "297",
						"_allowances(address,address)": "1314",
						"_excluded(uint256)": "2057",
						"_isExcluded(address)": "1268",
						"_rOwned(address)": "1259",
						"_rTotal()": "1116",
						"_tFeeTotal()": "1115",
						"_tOwned(address)": "1236",
						"_tTotal()": "250",
						"allowance(address,address)": "1432",
						"approve(address,uint256)": "infinite",
						"balanceOf(address)": "infinite",
						"decimals()": "1167",
						"decreaseAllowance(address,uint256)": "infinite",
						"excludeAccount(address)": "infinite",
						"includeAccount(address)": "infinite",
						"increaseAllowance(address,uint256)": "infinite",
						"isExcluded(address)": "1305",
						"name()": "infinite",
						"owner()": "1100",
						"reflect(uint256)": "infinite",
						"reflectionFromToken(uint256,bool)": "infinite",
						"renounceOwnership()": "24381",
						"symbol()": "infinite",
						"tokenFromReflection(uint256)": "infinite",
						"totalFees()": "1125",
						"totalSupply()": "259",
						"transfer(address,uint256)": "infinite",
						"transferFrom(address,address,uint256)": "infinite",
						"transferOwnership(address)": "infinite"
					},
					"internal": {
						"_approve(address,address,uint256)": "infinite",
						"_getCurrentSupply()": "infinite",
						"_getRValues(uint256,uint256,uint256)": "infinite",
						"_getRate()": "infinite",
						"_getTValues(uint256)": "infinite",
						"_getValues(uint256)": "infinite",
						"_reflectFee(uint256,uint256)": "infinite",
						"_transfer(address,address,uint256)": "infinite",
						"_transferBothExcluded(address,address,uint256)": "infinite",
						"_transferFromExcluded(address,address,uint256)": "infinite",
						"_transferStandard(address,address,uint256)": "infinite",
						"_transferToExcluded(address,address,uint256)": "infinite"
					}
				},
				"methodIdentifiers": {
					"MAX()": "d49d5181",
					"_allowances(address,address)": "024c2ddd",
					"_excluded(uint256)": "4d09deb3",
					"_isExcluded(address)": "0b285b1f",
					"_rOwned(address)": "0cfc15f9",
					"_rTotal()": "45e0b9d4",
					"_tFeeTotal()": "fb1eb14b",
					"_tOwned(address)": "3b7e6d4a",
					"_tTotal()": "af465a27",
					"allowance(address,address)": "dd62ed3e",
					"approve(address,uint256)": "095ea7b3",
					"balanceOf(address)": "70a08231",
					"decimals()": "313ce567",
					"decreaseAllowance(address,uint256)": "a457c2d7",
					"excludeAccount(address)": "f2cc0c18",
					"includeAccount(address)": "f84354f1",
					"increaseAllowance(address,uint256)": "39509351",
					"isExcluded(address)": "cba0e996",
					"name()": "06fdde03",
					"owner()": "8da5cb5b",
					"reflect(uint256)": "053ab182",
					"reflectionFromToken(uint256,bool)": "4549b039",
					"renounceOwnership()": "715018a6",
					"symbol()": "95d89b41",
					"tokenFromReflection(uint256)": "2d838119",
					"totalFees()": "13114a9d",
					"totalSupply()": "18160ddd",
					"transfer(address,uint256)": "a9059cbb",
					"transferFrom(address,address,uint256)": "23b872dd",
					"transferOwnership(address)": "f2fde38b"
				}
			},
			"storageLayout": {
				"storage": [
					{
						"astId": 495,
						"contract": "feg.sol:FEG",
						"label": "_owner",
						"offset": 0,
						"slot": "0",
						"type": "t_address"
					},
					{
						"astId": 612,
						"contract": "feg.sol:FEG",
						"label": "_rOwned",
						"offset": 0,
						"slot": "1",
						"type": "t_mapping(t_address,t_uint256)"
					},
					{
						"astId": 616,
						"contract": "feg.sol:FEG",
						"label": "_tOwned",
						"offset": 0,
						"slot": "2",
						"type": "t_mapping(t_address,t_uint256)"
					},
					{
						"astId": 622,
						"contract": "feg.sol:FEG",
						"label": "_allowances",
						"offset": 0,
						"slot": "3",
						"type": "t_mapping(t_address,t_mapping(t_address,t_uint256))"
					},
					{
						"astId": 626,
						"contract": "feg.sol:FEG",
						"label": "_isExcluded",
						"offset": 0,
						"slot": "4",
						"type": "t_mapping(t_address,t_bool)"
					},
					{
						"astId": 629,
						"contract": "feg.sol:FEG",
						"label": "_excluded",
						"offset": 0,
						"slot": "5",
						"type": "t_array(t_address)dyn_storage"
					},
					{
						"astId": 656,
						"contract": "feg.sol:FEG",
						"label": "_rTotal",
						"offset": 0,
						"slot": "6",
						"type": "t_uint256"
					},
					{
						"astId": 658,
						"contract": "feg.sol:FEG",
						"label": "_tFeeTotal",
						"offset": 0,
						"slot": "7",
						"type": "t_uint256"
					},
					{
						"astId": 661,
						"contract": "feg.sol:FEG",
						"label": "_name",
						"offset": 0,
						"slot": "8",
						"type": "t_string_storage"
					},
					{
						"astId": 664,
						"contract": "feg.sol:FEG",
						"label": "_symbol",
						"offset": 0,
						"slot": "9",
						"type": "t_string_storage"
					},
					{
						"astId": 667,
						"contract": "feg.sol:FEG",
						"label": "_decimals",
						"offset": 0,
						"slot": "10",
						"type": "t_uint8"
					}
				],
				"types": {
					"t_address": {
						"encoding": "inplace",
						"label": "address",
						"numberOfBytes": "20"
					},
					"t_array(t_address)dyn_storage": {
						"base": "t_address",
						"encoding": "dynamic_array",
						"label": "address[]",
						"numberOfBytes": "32"
					},
					"t_bool": {
						"encoding": "inplace",
						"label": "bool",
						"numberOfBytes": "1"
					},
					"t_mapping(t_address,t_bool)": {
						"encoding": "mapping",
						"key": "t_address",
						"label": "mapping(address => bool)",
						"numberOfBytes": "32",
						"value": "t_bool"
					},
					"t_mapping(t_address,t_mapping(t_address,t_uint256))": {
						"encoding": "mapping",
						"key": "t_address",
						"label": "mapping(address => mapping(address => uint256))",
						"numberOfBytes": "32",
						"value": "t_mapping(t_address,t_uint256)"
					},
					"t_mapping(t_address,t_uint256)": {
						"encoding": "mapping",
						"key": "t_address",
						"label": "mapping(address => uint256)",
						"numberOfBytes": "32",
						"value": "t_uint256"
					},
					"t_string_storage": {
						"encoding": "bytes",
						"label": "string",
						"numberOfBytes": "32"
					},
					"t_uint256": {
						"encoding": "inplace",
						"label": "uint256",
						"numberOfBytes": "32"
					},
					"t_uint8": {
						"encoding": "inplace",
						"label": "uint8",
						"numberOfBytes": "1"
					}
				}
			},
			"userdoc": {
				"kind": "user",
				"methods": {},
				"version": 1
			}
		}
	}
}