{
	"contract-442812f524.sol": {
		"Verify": {
			"abi": [
				{
					"inputs": [
						{
							"internalType": "address",
							"name": "_importantAddress",
							"type": "address"
						}
					],
					"stateMutability": "nonpayable",
					"type": "constructor"
				},
				{
					"inputs": [],
					"name": "importantAddress",
					"outputs": [
						{
							"internalType": "address",
							"name": "",
							"type": "address"
						}
					],
					"stateMutability": "view",
					"type": "function"
				},
				{
					"inputs": [
						{
							"internalType": "string",
							"name": "_word",
							"type": "string"
						},
						{
							"internalType": "bytes",
							"name": "sig",
							"type": "bytes"
						}
					],
					"name": "isValidData",
					"outputs": [
						{
							"internalType": "bool",
							"name": "",
							"type": "bool"
						}
					],
					"stateMutability": "view",
					"type": "function"
				},
				{
					"inputs": [
						{
							"internalType": "string",
							"name": "_word",
							"type": "string"
						},
						{
							"internalType": "bytes",
							"name": "sig",
							"type": "bytes"
						}
					],
					"name": "isValidData2",
					"outputs": [
						{
							"internalType": "bool",
							"name": "",
							"type": "bool"
						}
					],
					"stateMutability": "view",
					"type": "function"
				},
				{
					"inputs": [],
					"name": "messg",
					"outputs": [
						{
							"internalType": "bytes32",
							"name": "",
							"type": "bytes32"
						}
					],
					"stateMutability": "view",
					"type": "function"
				},
				{
					"inputs": [
						{
							"internalType": "string",
							"name": "_w",
							"type": "string"
						}
					],
					"name": "msgR",
					"outputs": [
						{
							"internalType": "bytes32",
							"name": "",
							"type": "bytes32"
						}
					],
					"stateMutability": "nonpayable",
					"type": "function"
				},
				{
					"inputs": [
						{
							"internalType": "bytes32",
							"name": "message",
							"type": "bytes32"
						},
						{
							"internalType": "bytes",
							"name": "sig",
							"type": "bytes"
						}
					],
					"name": "recoverSigner",
					"outputs": [
						{
							"internalType": "address",
							"name": "",
							"type": "address"
						}
					],
					"stateMutability": "pure",
					"type": "function"
				},
				{
					"inputs": [
						{
							"internalType": "bytes",
							"name": "sig",
							"type": "bytes"
						}
					],
					"name": "splitSignature",
					"outputs": [
						{
							"internalType": "uint8",
							"name": "",
							"type": "uint8"
						},
						{
							"internalType": "bytes32",
							"name": "",
							"type": "bytes32"
						},
						{
							"internalType": "bytes32",
							"name": "",
							"type": "bytes32"
						}
					],
					"stateMutability": "pure",
					"type": "function"
				}
			],
			"devdoc": {
				"kind": "dev",
				"methods": {},
				"version": 1
			},
			"evm": {
				"assembly": "    /* \"contract-442812f524.sol\":57:1610  contract Verify {... */\n  mstore(0x40, 0x80)\n    /* \"contract-442812f524.sol\":143:234  constructor (address _importantAddress) {... */\n  callvalue\n  dup1\n  iszero\n  tag_1\n  jumpi\n  0x00\n  dup1\n  revert\ntag_1:\n  pop\n  mload(0x40)\n  sub(codesize, bytecodeSize)\n  dup1\n  bytecodeSize\n  dup4\n  codecopy\n  dup2\n  dup2\n  add\n  0x40\n  mstore\n  dup2\n  add\n  swap1\n  tag_2\n  swap2\n  swap1\n  tag_3\n  jump\t// in\ntag_2:\n    /* \"contract-442812f524.sol\":211:228  _importantAddress */\n  dup1\n    /* \"contract-442812f524.sol\":192:208  importantAddress */\n  0x00\n  dup1\n    /* \"contract-442812f524.sol\":192:228  importantAddress = _importantAddress */\n  0x0100\n  exp\n  dup2\n  sload\n  dup2\n  0xffffffffffffffffffffffffffffffffffffffff\n  mul\n  not\n  and\n  swap1\n  dup4\n  0xffffffffffffffffffffffffffffffffffffffff\n  and\n  mul\n  or\n  swap1\n  sstore\n  pop\n    /* \"contract-442812f524.sol\":143:234  constructor (address _importantAddress) {... */\n  pop\n    /* \"contract-442812f524.sol\":57:1610  contract Verify {... */\n  jump(tag_6)\n    /* \"#utility.yul\":88:205   */\ntag_8:\n    /* \"#utility.yul\":197:198   */\n  0x00\n    /* \"#utility.yul\":194:195   */\n  dup1\n    /* \"#utility.yul\":187:199   */\n  revert\n    /* \"#utility.yul\":334:460   */\ntag_10:\n    /* \"#utility.yul\":371:378   */\n  0x00\n    /* \"#utility.yul\":411:453   */\n  0xffffffffffffffffffffffffffffffffffffffff\n    /* \"#utility.yul\":404:409   */\n  dup3\n    /* \"#utility.yul\":400:454   */\n  and\n    /* \"#utility.yul\":389:454   */\n  swap1\n  pop\n    /* \"#utility.yul\":334:460   */\n  swap2\n  swap1\n  pop\n  jump\t// out\n    /* \"#utility.yul\":466:562   */\ntag_11:\n    /* \"#utility.yul\":503:510   */\n  0x00\n    /* \"#utility.yul\":532:556   */\n  tag_20\n    /* \"#utility.yul\":550:555   */\n  dup3\n    /* \"#utility.yul\":532:556   */\n  tag_10\n  jump\t// in\ntag_20:\n    /* \"#utility.yul\":521:556   */\n  swap1\n  pop\n    /* \"#utility.yul\":466:562   */\n  swap2\n  swap1\n  pop\n  jump\t// out\n    /* \"#utility.yul\":568:690   */\ntag_12:\n    /* \"#utility.yul\":641:665   */\n  tag_22\n    /* \"#utility.yul\":659:664   */\n  dup2\n    /* \"#utility.yul\":641:665   */\n  tag_11\n  jump\t// in\ntag_22:\n    /* \"#utility.yul\":634:639   */\n  dup2\n    /* \"#utility.yul\":631:666   */\n  eq\n    /* \"#utility.yul\":621:684   */\n  tag_23\n  jumpi\n    /* \"#utility.yul\":680:681   */\n  0x00\n    /* \"#utility.yul\":677:678   */\n  dup1\n    /* \"#utility.yul\":670:682   */\n  revert\n    /* \"#utility.yul\":621:684   */\ntag_23:\n    /* \"#utility.yul\":568:690   */\n  pop\n  jump\t// out\n    /* \"#utility.yul\":696:839   */\ntag_13:\n    /* \"#utility.yul\":753:758   */\n  0x00\n    /* \"#utility.yul\":784:790   */\n  dup2\n    /* \"#utility.yul\":778:791   */\n  mload\n    /* \"#utility.yul\":769:791   */\n  swap1\n  pop\n    /* \"#utility.yul\":800:833   */\n  tag_25\n    /* \"#utility.yul\":827:832   */\n  dup2\n    /* \"#utility.yul\":800:833   */\n  tag_12\n  jump\t// in\ntag_25:\n    /* \"#utility.yul\":696:839   */\n  swap3\n  swap2\n  pop\n  pop\n  jump\t// out\n    /* \"#utility.yul\":845:1196   */\ntag_3:\n    /* \"#utility.yul\":915:921   */\n  0x00\n    /* \"#utility.yul\":964:966   */\n  0x20\n    /* \"#utility.yul\":952:961   */\n  dup3\n    /* \"#utility.yul\":943:950   */\n  dup5\n    /* \"#utility.yul\":939:962   */\n  sub\n    /* \"#utility.yul\":935:967   */\n  slt\n    /* \"#utility.yul\":932:1051   */\n  iszero\n  tag_27\n  jumpi\n    /* \"#utility.yul\":970:1049   */\n  tag_28\n  tag_8\n  jump\t// in\ntag_28:\n    /* \"#utility.yul\":932:1051   */\ntag_27:\n    /* \"#utility.yul\":1090:1091   */\n  0x00\n    /* \"#utility.yul\":1115:1179   */\n  tag_29\n    /* \"#utility.yul\":1171:1178   */\n  dup5\n    /* \"#utility.yul\":1162:1168   */\n  dup3\n    /* \"#utility.yul\":1151:1160   */\n  dup6\n    /* \"#utility.yul\":1147:1169   */\n  add\n    /* \"#utility.yul\":1115:1179   */\n  tag_13\n  jump\t// in\ntag_29:\n    /* \"#utility.yul\":1105:1179   */\n  swap2\n  pop\n    /* \"#utility.yul\":1061:1189   */\n  pop\n    /* \"#utility.yul\":845:1196   */\n  swap3\n  swap2\n  pop\n  pop\n  jump\t// out\n    /* \"contract-442812f524.sol\":57:1610  contract Verify {... */\ntag_6:\n  dataSize(sub_0)\n  dup1\n  dataOffset(sub_0)\n  0x00\n  codecopy\n  0x00\n  return\nstop\n\nsub_0: assembly {\n        /* \"contract-442812f524.sol\":57:1610  contract Verify {... */\n      mstore(0x40, 0x80)\n      callvalue\n      dup1\n      iszero\n      tag_1\n      jumpi\n      0x00\n      dup1\n      revert\n    tag_1:\n      pop\n      jumpi(tag_2, lt(calldatasize, 0x04))\n      shr(0xe0, calldataload(0x00))\n      dup1\n      0x97aba7f9\n      gt\n      tag_10\n      jumpi\n      dup1\n      0x97aba7f9\n      eq\n      tag_6\n      jumpi\n      dup1\n      0xa7bb5803\n      eq\n      tag_7\n      jumpi\n      dup1\n      0xadb41f75\n      eq\n      tag_8\n      jumpi\n      dup1\n      0xb4604750\n      eq\n      tag_9\n      jumpi\n      jump(tag_2)\n    tag_10:\n      dup1\n      0x1398b444\n      eq\n      tag_3\n      jumpi\n      dup1\n      0x71524b93\n      eq\n      tag_4\n      jumpi\n      dup1\n      0x751466a8\n      eq\n      tag_5\n      jumpi\n    tag_2:\n      0x00\n      dup1\n      revert\n        /* \"contract-442812f524.sol\":80:111  address public importantAddress */\n    tag_3:\n      tag_11\n      tag_12\n      jump\t// in\n    tag_11:\n      mload(0x40)\n      tag_13\n      swap2\n      swap1\n      tag_14\n      jump\t// in\n    tag_13:\n      mload(0x40)\n      dup1\n      swap2\n      sub\n      swap1\n      return\n        /* \"contract-442812f524.sol\":117:137  bytes32 public messg */\n    tag_4:\n      tag_15\n      tag_16\n      jump\t// in\n    tag_15:\n      mload(0x40)\n      tag_17\n      swap2\n      swap1\n      tag_18\n      jump\t// in\n    tag_17:\n      mload(0x40)\n      dup1\n      swap2\n      sub\n      swap1\n      return\n        /* \"contract-442812f524.sol\":462:682  function isValidData2( string memory _word, bytes memory sig) public view returns(bool){... */\n    tag_5:\n      tag_19\n      0x04\n      dup1\n      calldatasize\n      sub\n      dup2\n      add\n      swap1\n      tag_20\n      swap2\n      swap1\n      tag_21\n      jump\t// in\n    tag_20:\n      tag_22\n      jump\t// in\n    tag_19:\n      mload(0x40)\n      tag_23\n      swap2\n      swap1\n      tag_24\n      jump\t// in\n    tag_23:\n      mload(0x40)\n      dup1\n      swap2\n      sub\n      swap1\n      return\n        /* \"contract-442812f524.sol\":826:1081  function recoverSigner(bytes32 message, bytes memory sig)... */\n    tag_6:\n      tag_25\n      0x04\n      dup1\n      calldatasize\n      sub\n      dup2\n      add\n      swap1\n      tag_26\n      swap2\n      swap1\n      tag_27\n      jump\t// in\n    tag_26:\n      tag_28\n      jump\t// in\n    tag_25:\n      mload(0x40)\n      tag_29\n      swap2\n      swap1\n      tag_14\n      jump\t// in\n    tag_29:\n      mload(0x40)\n      dup1\n      swap2\n      sub\n      swap1\n      return\n        /* \"contract-442812f524.sol\":1086:1608  function splitSignature(bytes memory sig)... */\n    tag_7:\n      tag_30\n      0x04\n      dup1\n      calldatasize\n      sub\n      dup2\n      add\n      swap1\n      tag_31\n      swap2\n      swap1\n      tag_32\n      jump\t// in\n    tag_31:\n      tag_33\n      jump\t// in\n    tag_30:\n      mload(0x40)\n      tag_34\n      swap4\n      swap3\n      swap2\n      swap1\n      tag_35\n      jump\t// in\n    tag_34:\n      mload(0x40)\n      dup1\n      swap2\n      sub\n      swap1\n      return\n        /* \"contract-442812f524.sol\":241:460  function isValidData( string memory _word, bytes memory sig) public view returns(bool){... */\n    tag_8:\n      tag_36\n      0x04\n      dup1\n      calldatasize\n      sub\n      dup2\n      add\n      swap1\n      tag_37\n      swap2\n      swap1\n      tag_21\n      jump\t// in\n    tag_37:\n      tag_38\n      jump\t// in\n    tag_36:\n      mload(0x40)\n      tag_39\n      swap2\n      swap1\n      tag_24\n      jump\t// in\n    tag_39:\n      mload(0x40)\n      dup1\n      swap2\n      sub\n      swap1\n      return\n        /* \"contract-442812f524.sol\":687:821  function msgR(string memory _w)public returns(bytes32){... */\n    tag_9:\n      tag_40\n      0x04\n      dup1\n      calldatasize\n      sub\n      dup2\n      add\n      swap1\n      tag_41\n      swap2\n      swap1\n      tag_42\n      jump\t// in\n    tag_41:\n      tag_43\n      jump\t// in\n    tag_40:\n      mload(0x40)\n      tag_44\n      swap2\n      swap1\n      tag_18\n      jump\t// in\n    tag_44:\n      mload(0x40)\n      dup1\n      swap2\n      sub\n      swap1\n      return\n        /* \"contract-442812f524.sol\":80:111  address public importantAddress */\n    tag_12:\n      0x00\n      dup1\n      sload\n      swap1\n      0x0100\n      exp\n      swap1\n      div\n      0xffffffffffffffffffffffffffffffffffffffff\n      and\n      dup2\n      jump\t// out\n        /* \"contract-442812f524.sol\":117:137  bytes32 public messg */\n    tag_16:\n      sload(0x01)\n      dup2\n      jump\t// out\n        /* \"contract-442812f524.sol\":462:682  function isValidData2( string memory _word, bytes memory sig) public view returns(bool){... */\n    tag_22:\n        /* \"contract-442812f524.sol\":544:548  bool */\n      0x00\n        /* \"contract-442812f524.sol\":558:573  bytes32 message */\n      dup1\n        /* \"contract-442812f524.sol\":604:609  _word */\n      dup4\n        /* \"contract-442812f524.sol\":586:610  abi.encodePacked( _word) */\n      add(0x20, mload(0x40))\n      tag_46\n      swap2\n      swap1\n      tag_47\n      jump\t// in\n    tag_46:\n      mload(0x40)\n      0x20\n      dup2\n      dup4\n      sub\n      sub\n      dup2\n      mstore\n      swap1\n      0x40\n      mstore\n        /* \"contract-442812f524.sol\":576:611  keccak256(abi.encodePacked( _word)) */\n      dup1\n      mload\n      swap1\n      0x20\n      add\n      keccak256\n        /* \"contract-442812f524.sol\":558:611  bytes32 message = keccak256(abi.encodePacked( _word)) */\n      swap1\n      pop\n        /* \"contract-442812f524.sol\":659:675  importantAddress */\n      0x00\n      dup1\n      sload\n      swap1\n      0x0100\n      exp\n      swap1\n      div\n      0xffffffffffffffffffffffffffffffffffffffff\n      and\n        /* \"contract-442812f524.sol\":628:675  recoverSigner(message, sig) == importantAddress */\n      0xffffffffffffffffffffffffffffffffffffffff\n      and\n        /* \"contract-442812f524.sol\":628:655  recoverSigner(message, sig) */\n      tag_48\n        /* \"contract-442812f524.sol\":642:649  message */\n      dup3\n        /* \"contract-442812f524.sol\":651:654  sig */\n      dup6\n        /* \"contract-442812f524.sol\":628:641  recoverSigner */\n      tag_28\n        /* \"contract-442812f524.sol\":628:655  recoverSigner(message, sig) */\n      jump\t// in\n    tag_48:\n        /* \"contract-442812f524.sol\":628:675  recoverSigner(message, sig) == importantAddress */\n      0xffffffffffffffffffffffffffffffffffffffff\n      and\n      eq\n        /* \"contract-442812f524.sol\":620:676  return (recoverSigner(message, sig) == importantAddress) */\n      swap2\n      pop\n      pop\n        /* \"contract-442812f524.sol\":462:682  function isValidData2( string memory _word, bytes memory sig) public view returns(bool){... */\n      swap3\n      swap2\n      pop\n      pop\n      jump\t// out\n        /* \"contract-442812f524.sol\":826:1081  function recoverSigner(bytes32 message, bytes memory sig)... */\n    tag_28:\n        /* \"contract-442812f524.sol\":926:933  address */\n      0x00\n        /* \"contract-442812f524.sol\":949:956  uint8 v */\n      dup1\n        /* \"contract-442812f524.sol\":965:974  bytes32 r */\n      0x00\n        /* \"contract-442812f524.sol\":983:992  bytes32 s */\n      dup1\n        /* \"contract-442812f524.sol\":1013:1032  splitSignature(sig) */\n      tag_50\n        /* \"contract-442812f524.sol\":1028:1031  sig */\n      dup6\n        /* \"contract-442812f524.sol\":1013:1027  splitSignature */\n      tag_33\n        /* \"contract-442812f524.sol\":1013:1032  splitSignature(sig) */\n      jump\t// in\n    tag_50:\n        /* \"contract-442812f524.sol\":1001:1032  (v, r, s) = splitSignature(sig) */\n      dup1\n      swap4\n      pop\n      dup2\n      swap5\n      pop\n      dup3\n      swap6\n      pop\n      pop\n      pop\n      pop\n        /* \"contract-442812f524.sol\":1048:1075  ecrecover(message, v, r, s) */\n      0x01\n        /* \"contract-442812f524.sol\":1058:1065  message */\n      dup7\n        /* \"contract-442812f524.sol\":1067:1068  v */\n      dup5\n        /* \"contract-442812f524.sol\":1070:1071  r */\n      dup5\n        /* \"contract-442812f524.sol\":1073:1074  s */\n      dup5\n        /* \"contract-442812f524.sol\":1048:1075  ecrecover(message, v, r, s) */\n      mload(0x40)\n      0x00\n      dup2\n      mstore\n      0x20\n      add\n      0x40\n      mstore\n      mload(0x40)\n      tag_51\n      swap5\n      swap4\n      swap3\n      swap2\n      swap1\n      tag_52\n      jump\t// in\n    tag_51:\n      0x20\n      mload(0x40)\n      0x20\n      dup2\n      sub\n      swap1\n      dup1\n      dup5\n      sub\n      swap1\n      dup6\n      gas\n      staticcall\n      iszero\n      dup1\n      iszero\n      tag_54\n      jumpi\n      returndatasize\n      0x00\n      dup1\n      returndatacopy\n      revert(0x00, returndatasize)\n    tag_54:\n      pop\n      pop\n      pop\n      mload(sub(mload(0x40), 0x20))\n        /* \"contract-442812f524.sol\":1041:1075  return ecrecover(message, v, r, s) */\n      swap4\n      pop\n      pop\n      pop\n      pop\n        /* \"contract-442812f524.sol\":826:1081  function recoverSigner(bytes32 message, bytes memory sig)... */\n      swap3\n      swap2\n      pop\n      pop\n      jump\t// out\n        /* \"contract-442812f524.sol\":1086:1608  function splitSignature(bytes memory sig)... */\n    tag_33:\n        /* \"contract-442812f524.sol\":1170:1175  uint8 */\n      0x00\n        /* \"contract-442812f524.sol\":1177:1184  bytes32 */\n      dup1\n        /* \"contract-442812f524.sol\":1186:1193  bytes32 */\n      0x00\n        /* \"contract-442812f524.sol\":1231:1233  65 */\n      0x41\n        /* \"contract-442812f524.sol\":1217:1220  sig */\n      dup5\n        /* \"contract-442812f524.sol\":1217:1227  sig.length */\n      mload\n        /* \"contract-442812f524.sol\":1217:1233  sig.length == 65 */\n      eq\n        /* \"contract-442812f524.sol\":1209:1234  require(sig.length == 65) */\n      tag_56\n      jumpi\n      0x00\n      dup1\n      revert\n    tag_56:\n        /* \"contract-442812f524.sol\":1244:1253  bytes32 r */\n      0x00\n        /* \"contract-442812f524.sol\":1262:1271  bytes32 s */\n      dup1\n        /* \"contract-442812f524.sol\":1280:1287  uint8 v */\n      0x00\n        /* \"contract-442812f524.sol\":1393:1395  32 */\n      0x20\n        /* \"contract-442812f524.sol\":1388:1391  sig */\n      dup8\n        /* \"contract-442812f524.sol\":1384:1396  add(sig, 32) */\n      add\n        /* \"contract-442812f524.sol\":1378:1397  mload(add(sig, 32)) */\n      mload\n        /* \"contract-442812f524.sol\":1373:1397  r := mload(add(sig, 32)) */\n      swap3\n      pop\n        /* \"contract-442812f524.sol\":1459:1461  64 */\n      0x40\n        /* \"contract-442812f524.sol\":1454:1457  sig */\n      dup8\n        /* \"contract-442812f524.sol\":1450:1462  add(sig, 64) */\n      add\n        /* \"contract-442812f524.sol\":1444:1463  mload(add(sig, 64)) */\n      mload\n        /* \"contract-442812f524.sol\":1439:1463  s := mload(add(sig, 64)) */\n      swap2\n      pop\n        /* \"contract-442812f524.sol\":1562:1564  96 */\n      0x60\n        /* \"contract-442812f524.sol\":1557:1560  sig */\n      dup8\n        /* \"contract-442812f524.sol\":1553:1565  add(sig, 96) */\n      add\n        /* \"contract-442812f524.sol\":1547:1566  mload(add(sig, 96)) */\n      mload\n        /* \"contract-442812f524.sol\":1544:1545  0 */\n      0x00\n        /* \"contract-442812f524.sol\":1539:1567  byte(0, mload(add(sig, 96))) */\n      byte\n        /* \"contract-442812f524.sol\":1534:1567  v := byte(0, mload(add(sig, 96))) */\n      swap1\n      pop\n        /* \"contract-442812f524.sol\":1594:1595  v */\n      dup1\n        /* \"contract-442812f524.sol\":1597:1598  r */\n      dup4\n        /* \"contract-442812f524.sol\":1600:1601  s */\n      dup4\n        /* \"contract-442812f524.sol\":1586:1602  return (v, r, s) */\n      swap6\n      pop\n      swap6\n      pop\n      swap6\n      pop\n      pop\n      pop\n      pop\n        /* \"contract-442812f524.sol\":1086:1608  function splitSignature(bytes memory sig)... */\n      swap2\n      swap4\n      swap1\n      swap3\n      pop\n      jump\t// out\n        /* \"contract-442812f524.sol\":241:460  function isValidData( string memory _word, bytes memory sig) public view returns(bool){... */\n    tag_38:\n        /* \"contract-442812f524.sol\":322:326  bool */\n      0x00\n        /* \"contract-442812f524.sol\":336:351  bytes32 message */\n      dup1\n        /* \"contract-442812f524.sol\":382:387  _word */\n      dup4\n        /* \"contract-442812f524.sol\":364:388  abi.encodePacked( _word) */\n      add(0x20, mload(0x40))\n      tag_58\n      swap2\n      swap1\n      tag_47\n      jump\t// in\n    tag_58:\n      mload(0x40)\n      0x20\n      dup2\n      dup4\n      sub\n      sub\n      dup2\n      mstore\n      swap1\n      0x40\n      mstore\n        /* \"contract-442812f524.sol\":354:389  keccak256(abi.encodePacked( _word)) */\n      dup1\n      mload\n      swap1\n      0x20\n      add\n      keccak256\n        /* \"contract-442812f524.sol\":336:389  bytes32 message = keccak256(abi.encodePacked( _word)) */\n      swap1\n      pop\n        /* \"contract-442812f524.sol\":437:453  importantAddress */\n      0x00\n      dup1\n      sload\n      swap1\n      0x0100\n      exp\n      swap1\n      div\n      0xffffffffffffffffffffffffffffffffffffffff\n      and\n        /* \"contract-442812f524.sol\":406:453  recoverSigner(message, sig) == importantAddress */\n      0xffffffffffffffffffffffffffffffffffffffff\n      and\n        /* \"contract-442812f524.sol\":406:433  recoverSigner(message, sig) */\n      tag_59\n        /* \"contract-442812f524.sol\":420:427  message */\n      dup3\n        /* \"contract-442812f524.sol\":429:432  sig */\n      dup6\n        /* \"contract-442812f524.sol\":406:419  recoverSigner */\n      tag_28\n        /* \"contract-442812f524.sol\":406:433  recoverSigner(message, sig) */\n      jump\t// in\n    tag_59:\n        /* \"contract-442812f524.sol\":406:453  recoverSigner(message, sig) == importantAddress */\n      0xffffffffffffffffffffffffffffffffffffffff\n      and\n      eq\n        /* \"contract-442812f524.sol\":398:454  return (recoverSigner(message, sig) == importantAddress) */\n      swap2\n      pop\n      pop\n        /* \"contract-442812f524.sol\":241:460  function isValidData( string memory _word, bytes memory sig) public view returns(bool){... */\n      swap3\n      swap2\n      pop\n      pop\n      jump\t// out\n        /* \"contract-442812f524.sol\":687:821  function msgR(string memory _w)public returns(bytes32){... */\n    tag_43:\n        /* \"contract-442812f524.sol\":733:740  bytes32 */\n      0x00\n        /* \"contract-442812f524.sol\":788:790  _w */\n      dup2\n        /* \"contract-442812f524.sol\":770:791  abi.encodePacked( _w) */\n      add(0x20, mload(0x40))\n      tag_61\n      swap2\n      swap1\n      tag_47\n      jump\t// in\n    tag_61:\n      mload(0x40)\n      0x20\n      dup2\n      dup4\n      sub\n      sub\n      dup2\n      mstore\n      swap1\n      0x40\n      mstore\n        /* \"contract-442812f524.sol\":760:792  keccak256(abi.encodePacked( _w)) */\n      dup1\n      mload\n      swap1\n      0x20\n      add\n      keccak256\n        /* \"contract-442812f524.sol\":752:757  messg */\n      0x01\n        /* \"contract-442812f524.sol\":752:792  messg = keccak256(abi.encodePacked( _w)) */\n      dup2\n      swap1\n      sstore\n      pop\n        /* \"contract-442812f524.sol\":809:814  messg */\n      sload(0x01)\n        /* \"contract-442812f524.sol\":802:814  return messg */\n      swap1\n      pop\n        /* \"contract-442812f524.sol\":687:821  function msgR(string memory _w)public returns(bytes32){... */\n      swap2\n      swap1\n      pop\n      jump\t// out\n        /* \"#utility.yul\":7:133   */\n    tag_62:\n        /* \"#utility.yul\":44:51   */\n      0x00\n        /* \"#utility.yul\":84:126   */\n      0xffffffffffffffffffffffffffffffffffffffff\n        /* \"#utility.yul\":77:82   */\n      dup3\n        /* \"#utility.yul\":73:127   */\n      and\n        /* \"#utility.yul\":62:127   */\n      swap1\n      pop\n        /* \"#utility.yul\":7:133   */\n      swap2\n      swap1\n      pop\n      jump\t// out\n        /* \"#utility.yul\":139:235   */\n    tag_63:\n        /* \"#utility.yul\":176:183   */\n      0x00\n        /* \"#utility.yul\":205:229   */\n      tag_96\n        /* \"#utility.yul\":223:228   */\n      dup3\n        /* \"#utility.yul\":205:229   */\n      tag_62\n      jump\t// in\n    tag_96:\n        /* \"#utility.yul\":194:229   */\n      swap1\n      pop\n        /* \"#utility.yul\":139:235   */\n      swap2\n      swap1\n      pop\n      jump\t// out\n        /* \"#utility.yul\":241:359   */\n    tag_64:\n        /* \"#utility.yul\":328:352   */\n      tag_98\n        /* \"#utility.yul\":346:351   */\n      dup2\n        /* \"#utility.yul\":328:352   */\n      tag_63\n      jump\t// in\n    tag_98:\n        /* \"#utility.yul\":323:326   */\n      dup3\n        /* \"#utility.yul\":316:353   */\n      mstore\n        /* \"#utility.yul\":241:359   */\n      pop\n      pop\n      jump\t// out\n        /* \"#utility.yul\":365:587   */\n    tag_14:\n        /* \"#utility.yul\":458:462   */\n      0x00\n        /* \"#utility.yul\":496:498   */\n      0x20\n        /* \"#utility.yul\":485:494   */\n      dup3\n        /* \"#utility.yul\":481:499   */\n      add\n        /* \"#utility.yul\":473:499   */\n      swap1\n      pop\n        /* \"#utility.yul\":509:580   */\n      tag_100\n        /* \"#utility.yul\":577:578   */\n      0x00\n        /* \"#utility.yul\":566:575   */\n      dup4\n        /* \"#utility.yul\":562:579   */\n      add\n        /* \"#utility.yul\":553:559   */\n      dup5\n        /* \"#utility.yul\":509:580   */\n      tag_64\n      jump\t// in\n    tag_100:\n        /* \"#utility.yul\":365:587   */\n      swap3\n      swap2\n      pop\n      pop\n      jump\t// out\n        /* \"#utility.yul\":593:670   */\n    tag_65:\n        /* \"#utility.yul\":630:637   */\n      0x00\n        /* \"#utility.yul\":659:664   */\n      dup2\n        /* \"#utility.yul\":648:664   */\n      swap1\n      pop\n        /* \"#utility.yul\":593:670   */\n      swap2\n      swap1\n      pop\n      jump\t// out\n        /* \"#utility.yul\":676:794   */\n    tag_66:\n        /* \"#utility.yul\":763:787   */\n      tag_103\n        /* \"#utility.yul\":781:786   */\n      dup2\n        /* \"#utility.yul\":763:787   */\n      tag_65\n      jump\t// in\n    tag_103:\n        /* \"#utility.yul\":758:761   */\n      dup3\n        /* \"#utility.yul\":751:788   */\n      mstore\n        /* \"#utility.yul\":676:794   */\n      pop\n      pop\n      jump\t// out\n        /* \"#utility.yul\":800:1022   */\n    tag_18:\n        /* \"#utility.yul\":893:897   */\n      0x00\n        /* \"#utility.yul\":931:933   */\n      0x20\n        /* \"#utility.yul\":920:929   */\n      dup3\n        /* \"#utility.yul\":916:934   */\n      add\n        /* \"#utility.yul\":908:934   */\n      swap1\n      pop\n        /* \"#utility.yul\":944:1015   */\n      tag_105\n        /* \"#utility.yul\":1012:1013   */\n      0x00\n        /* \"#utility.yul\":1001:1010   */\n      dup4\n        /* \"#utility.yul\":997:1014   */\n      add\n        /* \"#utility.yul\":988:994   */\n      dup5\n        /* \"#utility.yul\":944:1015   */\n      tag_66\n      jump\t// in\n    tag_105:\n        /* \"#utility.yul\":800:1022   */\n      swap3\n      swap2\n      pop\n      pop\n      jump\t// out\n        /* \"#utility.yul\":1028:1103   */\n    tag_67:\n        /* \"#utility.yul\":1061:1067   */\n      0x00\n        /* \"#utility.yul\":1094:1096   */\n      0x40\n        /* \"#utility.yul\":1088:1097   */\n      mload\n        /* \"#utility.yul\":1078:1097   */\n      swap1\n      pop\n        /* \"#utility.yul\":1028:1103   */\n      swap1\n      jump\t// out\n        /* \"#utility.yul\":1109:1226   */\n    tag_68:\n        /* \"#utility.yul\":1218:1219   */\n      0x00\n        /* \"#utility.yul\":1215:1216   */\n      dup1\n        /* \"#utility.yul\":1208:1220   */\n      revert\n        /* \"#utility.yul\":1232:1349   */\n    tag_69:\n        /* \"#utility.yul\":1341:1342   */\n      0x00\n        /* \"#utility.yul\":1338:1339   */\n      dup1\n        /* \"#utility.yul\":1331:1343   */\n      revert\n        /* \"#utility.yul\":1355:1472   */\n    tag_70:\n        /* \"#utility.yul\":1464:1465   */\n      0x00\n        /* \"#utility.yul\":1461:1462   */\n      dup1\n        /* \"#utility.yul\":1454:1466   */\n      revert\n        /* \"#utility.yul\":1478:1595   */\n    tag_71:\n        /* \"#utility.yul\":1587:1588   */\n      0x00\n        /* \"#utility.yul\":1584:1585   */\n      dup1\n        /* \"#utility.yul\":1577:1589   */\n      revert\n        /* \"#utility.yul\":1601:1703   */\n    tag_72:\n        /* \"#utility.yul\":1642:1648   */\n      0x00\n        /* \"#utility.yul\":1693:1695   */\n      0x1f\n        /* \"#utility.yul\":1689:1696   */\n      not\n        /* \"#utility.yul\":1684:1686   */\n      0x1f\n        /* \"#utility.yul\":1677:1682   */\n      dup4\n        /* \"#utility.yul\":1673:1687   */\n      add\n        /* \"#utility.yul\":1669:1697   */\n      and\n        /* \"#utility.yul\":1659:1697   */\n      swap1\n      pop\n        /* \"#utility.yul\":1601:1703   */\n      swap2\n      swap1\n      pop\n      jump\t// out\n        /* \"#utility.yul\":1709:1889   */\n    tag_73:\n        /* \"#utility.yul\":1757:1834   */\n      0x4e487b7100000000000000000000000000000000000000000000000000000000\n        /* \"#utility.yul\":1754:1755   */\n      0x00\n        /* \"#utility.yul\":1747:1835   */\n      mstore\n        /* \"#utility.yul\":1854:1858   */\n      0x41\n        /* \"#utility.yul\":1851:1852   */\n      0x04\n        /* \"#utility.yul\":1844:1859   */\n      mstore\n        /* \"#utility.yul\":1878:1882   */\n      0x24\n        /* \"#utility.yul\":1875:1876   */\n      0x00\n        /* \"#utility.yul\":1868:1883   */\n      revert\n        /* \"#utility.yul\":1895:2176   */\n    tag_74:\n        /* \"#utility.yul\":1978:2005   */\n      tag_114\n        /* \"#utility.yul\":2000:2004   */\n      dup3\n        /* \"#utility.yul\":1978:2005   */\n      tag_72\n      jump\t// in\n    tag_114:\n        /* \"#utility.yul\":1970:1976   */\n      dup2\n        /* \"#utility.yul\":1966:2006   */\n      add\n        /* \"#utility.yul\":2108:2114   */\n      dup2\n        /* \"#utility.yul\":2096:2106   */\n      dup2\n        /* \"#utility.yul\":2093:2115   */\n      lt\n        /* \"#utility.yul\":2072:2090   */\n      0xffffffffffffffff\n        /* \"#utility.yul\":2060:2070   */\n      dup3\n        /* \"#utility.yul\":2057:2091   */\n      gt\n        /* \"#utility.yul\":2054:2116   */\n      or\n        /* \"#utility.yul\":2051:2139   */\n      iszero\n      tag_115\n      jumpi\n        /* \"#utility.yul\":2119:2137   */\n      tag_116\n      tag_73\n      jump\t// in\n    tag_116:\n        /* \"#utility.yul\":2051:2139   */\n    tag_115:\n        /* \"#utility.yul\":2159:2169   */\n      dup1\n        /* \"#utility.yul\":2155:2157   */\n      0x40\n        /* \"#utility.yul\":2148:2170   */\n      mstore\n        /* \"#utility.yul\":1938:2176   */\n      pop\n        /* \"#utility.yul\":1895:2176   */\n      pop\n      pop\n      jump\t// out\n        /* \"#utility.yul\":2182:2311   */\n    tag_75:\n        /* \"#utility.yul\":2216:2222   */\n      0x00\n        /* \"#utility.yul\":2243:2263   */\n      tag_118\n      tag_67\n      jump\t// in\n    tag_118:\n        /* \"#utility.yul\":2233:2263   */\n      swap1\n      pop\n        /* \"#utility.yul\":2272:2305   */\n      tag_119\n        /* \"#utility.yul\":2300:2304   */\n      dup3\n        /* \"#utility.yul\":2292:2298   */\n      dup3\n        /* \"#utility.yul\":2272:2305   */\n      tag_74\n      jump\t// in\n    tag_119:\n        /* \"#utility.yul\":2182:2311   */\n      swap2\n      swap1\n      pop\n      jump\t// out\n        /* \"#utility.yul\":2317:2625   */\n    tag_76:\n        /* \"#utility.yul\":2379:2383   */\n      0x00\n        /* \"#utility.yul\":2469:2487   */\n      0xffffffffffffffff\n        /* \"#utility.yul\":2461:2467   */\n      dup3\n        /* \"#utility.yul\":2458:2488   */\n      gt\n        /* \"#utility.yul\":2455:2511   */\n      iszero\n      tag_121\n      jumpi\n        /* \"#utility.yul\":2491:2509   */\n      tag_122\n      tag_73\n      jump\t// in\n    tag_122:\n        /* \"#utility.yul\":2455:2511   */\n    tag_121:\n        /* \"#utility.yul\":2529:2558   */\n      tag_123\n        /* \"#utility.yul\":2551:2557   */\n      dup3\n        /* \"#utility.yul\":2529:2558   */\n      tag_72\n      jump\t// in\n    tag_123:\n        /* \"#utility.yul\":2521:2558   */\n      swap1\n      pop\n        /* \"#utility.yul\":2613:2617   */\n      0x20\n        /* \"#utility.yul\":2607:2611   */\n      dup2\n        /* \"#utility.yul\":2603:2618   */\n      add\n        /* \"#utility.yul\":2595:2618   */\n      swap1\n      pop\n        /* \"#utility.yul\":2317:2625   */\n      swap2\n      swap1\n      pop\n      jump\t// out\n        /* \"#utility.yul\":2631:2777   */\n    tag_77:\n        /* \"#utility.yul\":2728:2734   */\n      dup3\n        /* \"#utility.yul\":2723:2726   */\n      dup2\n        /* \"#utility.yul\":2718:2721   */\n      dup4\n        /* \"#utility.yul\":2705:2735   */\n      calldatacopy\n        /* \"#utility.yul\":2769:2770   */\n      0x00\n        /* \"#utility.yul\":2760:2766   */\n      dup4\n        /* \"#utility.yul\":2755:2758   */\n      dup4\n        /* \"#utility.yul\":2751:2767   */\n      add\n        /* \"#utility.yul\":2744:2771   */\n      mstore\n        /* \"#utility.yul\":2631:2777   */\n      pop\n      pop\n      pop\n      jump\t// out\n        /* \"#utility.yul\":2783:3208   */\n    tag_78:\n        /* \"#utility.yul\":2861:2866   */\n      0x00\n        /* \"#utility.yul\":2886:2952   */\n      tag_126\n        /* \"#utility.yul\":2902:2951   */\n      tag_127\n        /* \"#utility.yul\":2944:2950   */\n      dup5\n        /* \"#utility.yul\":2902:2951   */\n      tag_76\n      jump\t// in\n    tag_127:\n        /* \"#utility.yul\":2886:2952   */\n      tag_75\n      jump\t// in\n    tag_126:\n        /* \"#utility.yul\":2877:2952   */\n      swap1\n      pop\n        /* \"#utility.yul\":2975:2981   */\n      dup3\n        /* \"#utility.yul\":2968:2973   */\n      dup2\n        /* \"#utility.yul\":2961:2982   */\n      mstore\n        /* \"#utility.yul\":3013:3017   */\n      0x20\n        /* \"#utility.yul\":3006:3011   */\n      dup2\n        /* \"#utility.yul\":3002:3018   */\n      add\n        /* \"#utility.yul\":3051:3054   */\n      dup5\n        /* \"#utility.yul\":3042:3048   */\n      dup5\n        /* \"#utility.yul\":3037:3040   */\n      dup5\n        /* \"#utility.yul\":3033:3049   */\n      add\n        /* \"#utility.yul\":3030:3055   */\n      gt\n        /* \"#utility.yul\":3027:3139   */\n      iszero\n      tag_128\n      jumpi\n        /* \"#utility.yul\":3058:3137   */\n      tag_129\n      tag_71\n      jump\t// in\n    tag_129:\n        /* \"#utility.yul\":3027:3139   */\n    tag_128:\n        /* \"#utility.yul\":3148:3202   */\n      tag_130\n        /* \"#utility.yul\":3195:3201   */\n      dup5\n        /* \"#utility.yul\":3190:3193   */\n      dup3\n        /* \"#utility.yul\":3185:3188   */\n      dup6\n        /* \"#utility.yul\":3148:3202   */\n      tag_77\n      jump\t// in\n    tag_130:\n        /* \"#utility.yul\":2867:3208   */\n      pop\n        /* \"#utility.yul\":2783:3208   */\n      swap4\n      swap3\n      pop\n      pop\n      pop\n      jump\t// out\n        /* \"#utility.yul\":3228:3568   */\n    tag_79:\n        /* \"#utility.yul\":3284:3289   */\n      0x00\n        /* \"#utility.yul\":3333:3336   */\n      dup3\n        /* \"#utility.yul\":3326:3330   */\n      0x1f\n        /* \"#utility.yul\":3318:3324   */\n      dup4\n        /* \"#utility.yul\":3314:3331   */\n      add\n        /* \"#utility.yul\":3310:3337   */\n      slt\n        /* \"#utility.yul\":3300:3422   */\n      tag_132\n      jumpi\n        /* \"#utility.yul\":3341:3420   */\n      tag_133\n      tag_70\n      jump\t// in\n    tag_133:\n        /* \"#utility.yul\":3300:3422   */\n    tag_132:\n        /* \"#utility.yul\":3458:3464   */\n      dup2\n        /* \"#utility.yul\":3445:3465   */\n      calldataload\n        /* \"#utility.yul\":3483:3562   */\n      tag_134\n        /* \"#utility.yul\":3558:3561   */\n      dup5\n        /* \"#utility.yul\":3550:3556   */\n      dup3\n        /* \"#utility.yul\":3543:3547   */\n      0x20\n        /* \"#utility.yul\":3535:3541   */\n      dup7\n        /* \"#utility.yul\":3531:3548   */\n      add\n        /* \"#utility.yul\":3483:3562   */\n      tag_78\n      jump\t// in\n    tag_134:\n        /* \"#utility.yul\":3474:3562   */\n      swap2\n      pop\n        /* \"#utility.yul\":3290:3568   */\n      pop\n        /* \"#utility.yul\":3228:3568   */\n      swap3\n      swap2\n      pop\n      pop\n      jump\t// out\n        /* \"#utility.yul\":3574:3881   */\n    tag_80:\n        /* \"#utility.yul\":3635:3639   */\n      0x00\n        /* \"#utility.yul\":3725:3743   */\n      0xffffffffffffffff\n        /* \"#utility.yul\":3717:3723   */\n      dup3\n        /* \"#utility.yul\":3714:3744   */\n      gt\n        /* \"#utility.yul\":3711:3767   */\n      iszero\n      tag_136\n      jumpi\n        /* \"#utility.yul\":3747:3765   */\n      tag_137\n      tag_73\n      jump\t// in\n    tag_137:\n        /* \"#utility.yul\":3711:3767   */\n    tag_136:\n        /* \"#utility.yul\":3785:3814   */\n      tag_138\n        /* \"#utility.yul\":3807:3813   */\n      dup3\n        /* \"#utility.yul\":3785:3814   */\n      tag_72\n      jump\t// in\n    tag_138:\n        /* \"#utility.yul\":3777:3814   */\n      swap1\n      pop\n        /* \"#utility.yul\":3869:3873   */\n      0x20\n        /* \"#utility.yul\":3863:3867   */\n      dup2\n        /* \"#utility.yul\":3859:3874   */\n      add\n        /* \"#utility.yul\":3851:3874   */\n      swap1\n      pop\n        /* \"#utility.yul\":3574:3881   */\n      swap2\n      swap1\n      pop\n      jump\t// out\n        /* \"#utility.yul\":3887:4310   */\n    tag_81:\n        /* \"#utility.yul\":3964:3969   */\n      0x00\n        /* \"#utility.yul\":3989:4054   */\n      tag_140\n        /* \"#utility.yul\":4005:4053   */\n      tag_141\n        /* \"#utility.yul\":4046:4052   */\n      dup5\n        /* \"#utility.yul\":4005:4053   */\n      tag_80\n      jump\t// in\n    tag_141:\n        /* \"#utility.yul\":3989:4054   */\n      tag_75\n      jump\t// in\n    tag_140:\n        /* \"#utility.yul\":3980:4054   */\n      swap1\n      pop\n        /* \"#utility.yul\":4077:4083   */\n      dup3\n        /* \"#utility.yul\":4070:4075   */\n      dup2\n        /* \"#utility.yul\":4063:4084   */\n      mstore\n        /* \"#utility.yul\":4115:4119   */\n      0x20\n        /* \"#utility.yul\":4108:4113   */\n      dup2\n        /* \"#utility.yul\":4104:4120   */\n      add\n        /* \"#utility.yul\":4153:4156   */\n      dup5\n        /* \"#utility.yul\":4144:4150   */\n      dup5\n        /* \"#utility.yul\":4139:4142   */\n      dup5\n        /* \"#utility.yul\":4135:4151   */\n      add\n        /* \"#utility.yul\":4132:4157   */\n      gt\n        /* \"#utility.yul\":4129:4241   */\n      iszero\n      tag_142\n      jumpi\n        /* \"#utility.yul\":4160:4239   */\n      tag_143\n      tag_71\n      jump\t// in\n    tag_143:\n        /* \"#utility.yul\":4129:4241   */\n    tag_142:\n        /* \"#utility.yul\":4250:4304   */\n      tag_144\n        /* \"#utility.yul\":4297:4303   */\n      dup5\n        /* \"#utility.yul\":4292:4295   */\n      dup3\n        /* \"#utility.yul\":4287:4290   */\n      dup6\n        /* \"#utility.yul\":4250:4304   */\n      tag_77\n      jump\t// in\n    tag_144:\n        /* \"#utility.yul\":3970:4310   */\n      pop\n        /* \"#utility.yul\":3887:4310   */\n      swap4\n      swap3\n      pop\n      pop\n      pop\n      jump\t// out\n        /* \"#utility.yul\":4329:4667   */\n    tag_82:\n        /* \"#utility.yul\":4384:4389   */\n      0x00\n        /* \"#utility.yul\":4433:4436   */\n      dup3\n        /* \"#utility.yul\":4426:4430   */\n      0x1f\n        /* \"#utility.yul\":4418:4424   */\n      dup4\n        /* \"#utility.yul\":4414:4431   */\n      add\n        /* \"#utility.yul\":4410:4437   */\n      slt\n        /* \"#utility.yul\":4400:4522   */\n      tag_146\n      jumpi\n        /* \"#utility.yul\":4441:4520   */\n      tag_147\n      tag_70\n      jump\t// in\n    tag_147:\n        /* \"#utility.yul\":4400:4522   */\n    tag_146:\n        /* \"#utility.yul\":4558:4564   */\n      dup2\n        /* \"#utility.yul\":4545:4565   */\n      calldataload\n        /* \"#utility.yul\":4583:4661   */\n      tag_148\n        /* \"#utility.yul\":4657:4660   */\n      dup5\n        /* \"#utility.yul\":4649:4655   */\n      dup3\n        /* \"#utility.yul\":4642:4646   */\n      0x20\n        /* \"#utility.yul\":4634:4640   */\n      dup7\n        /* \"#utility.yul\":4630:4647   */\n      add\n        /* \"#utility.yul\":4583:4661   */\n      tag_81\n      jump\t// in\n    tag_148:\n        /* \"#utility.yul\":4574:4661   */\n      swap2\n      pop\n        /* \"#utility.yul\":4390:4667   */\n      pop\n        /* \"#utility.yul\":4329:4667   */\n      swap3\n      swap2\n      pop\n      pop\n      jump\t// out\n        /* \"#utility.yul\":4673:5505   */\n    tag_21:\n        /* \"#utility.yul\":4760:4766   */\n      0x00\n        /* \"#utility.yul\":4768:4774   */\n      dup1\n        /* \"#utility.yul\":4817:4819   */\n      0x40\n        /* \"#utility.yul\":4805:4814   */\n      dup4\n        /* \"#utility.yul\":4796:4803   */\n      dup6\n        /* \"#utility.yul\":4792:4815   */\n      sub\n        /* \"#utility.yul\":4788:4820   */\n      slt\n        /* \"#utility.yul\":4785:4904   */\n      iszero\n      tag_150\n      jumpi\n        /* \"#utility.yul\":4823:4902   */\n      tag_151\n      tag_68\n      jump\t// in\n    tag_151:\n        /* \"#utility.yul\":4785:4904   */\n    tag_150:\n        /* \"#utility.yul\":4971:4972   */\n      0x00\n        /* \"#utility.yul\":4960:4969   */\n      dup4\n        /* \"#utility.yul\":4956:4973   */\n      add\n        /* \"#utility.yul\":4943:4974   */\n      calldataload\n        /* \"#utility.yul\":5001:5019   */\n      0xffffffffffffffff\n        /* \"#utility.yul\":4993:4999   */\n      dup2\n        /* \"#utility.yul\":4990:5020   */\n      gt\n        /* \"#utility.yul\":4987:5104   */\n      iszero\n      tag_152\n      jumpi\n        /* \"#utility.yul\":5023:5102   */\n      tag_153\n      tag_69\n      jump\t// in\n    tag_153:\n        /* \"#utility.yul\":4987:5104   */\n    tag_152:\n        /* \"#utility.yul\":5128:5191   */\n      tag_154\n        /* \"#utility.yul\":5183:5190   */\n      dup6\n        /* \"#utility.yul\":5174:5180   */\n      dup3\n        /* \"#utility.yul\":5163:5172   */\n      dup7\n        /* \"#utility.yul\":5159:5181   */\n      add\n        /* \"#utility.yul\":5128:5191   */\n      tag_79\n      jump\t// in\n    tag_154:\n        /* \"#utility.yul\":5118:5191   */\n      swap3\n      pop\n        /* \"#utility.yul\":4914:5201   */\n      pop\n        /* \"#utility.yul\":5268:5270   */\n      0x20\n        /* \"#utility.yul\":5257:5266   */\n      dup4\n        /* \"#utility.yul\":5253:5271   */\n      add\n        /* \"#utility.yul\":5240:5272   */\n      calldataload\n        /* \"#utility.yul\":5299:5317   */\n      0xffffffffffffffff\n        /* \"#utility.yul\":5291:5297   */\n      dup2\n        /* \"#utility.yul\":5288:5318   */\n      gt\n        /* \"#utility.yul\":5285:5402   */\n      iszero\n      tag_155\n      jumpi\n        /* \"#utility.yul\":5321:5400   */\n      tag_156\n      tag_69\n      jump\t// in\n    tag_156:\n        /* \"#utility.yul\":5285:5402   */\n    tag_155:\n        /* \"#utility.yul\":5426:5488   */\n      tag_157\n        /* \"#utility.yul\":5480:5487   */\n      dup6\n        /* \"#utility.yul\":5471:5477   */\n      dup3\n        /* \"#utility.yul\":5460:5469   */\n      dup7\n        /* \"#utility.yul\":5456:5478   */\n      add\n        /* \"#utility.yul\":5426:5488   */\n      tag_82\n      jump\t// in\n    tag_157:\n        /* \"#utility.yul\":5416:5488   */\n      swap2\n      pop\n        /* \"#utility.yul\":5211:5498   */\n      pop\n        /* \"#utility.yul\":4673:5505   */\n      swap3\n      pop\n      swap3\n      swap1\n      pop\n      jump\t// out\n        /* \"#utility.yul\":5511:5601   */\n    tag_83:\n        /* \"#utility.yul\":5545:5552   */\n      0x00\n        /* \"#utility.yul\":5588:5593   */\n      dup2\n        /* \"#utility.yul\":5581:5594   */\n      iszero\n        /* \"#utility.yul\":5574:5595   */\n      iszero\n        /* \"#utility.yul\":5563:5595   */\n      swap1\n      pop\n        /* \"#utility.yul\":5511:5601   */\n      swap2\n      swap1\n      pop\n      jump\t// out\n        /* \"#utility.yul\":5607:5716   */\n    tag_84:\n        /* \"#utility.yul\":5688:5709   */\n      tag_160\n        /* \"#utility.yul\":5703:5708   */\n      dup2\n        /* \"#utility.yul\":5688:5709   */\n      tag_83\n      jump\t// in\n    tag_160:\n        /* \"#utility.yul\":5683:5686   */\n      dup3\n        /* \"#utility.yul\":5676:5710   */\n      mstore\n        /* \"#utility.yul\":5607:5716   */\n      pop\n      pop\n      jump\t// out\n        /* \"#utility.yul\":5722:5932   */\n    tag_24:\n        /* \"#utility.yul\":5809:5813   */\n      0x00\n        /* \"#utility.yul\":5847:5849   */\n      0x20\n        /* \"#utility.yul\":5836:5845   */\n      dup3\n        /* \"#utility.yul\":5832:5850   */\n      add\n        /* \"#utility.yul\":5824:5850   */\n      swap1\n      pop\n        /* \"#utility.yul\":5860:5925   */\n      tag_162\n        /* \"#utility.yul\":5922:5923   */\n      0x00\n        /* \"#utility.yul\":5911:5920   */\n      dup4\n        /* \"#utility.yul\":5907:5924   */\n      add\n        /* \"#utility.yul\":5898:5904   */\n      dup5\n        /* \"#utility.yul\":5860:5925   */\n      tag_84\n      jump\t// in\n    tag_162:\n        /* \"#utility.yul\":5722:5932   */\n      swap3\n      swap2\n      pop\n      pop\n      jump\t// out\n        /* \"#utility.yul\":5938:6060   */\n    tag_85:\n        /* \"#utility.yul\":6011:6035   */\n      tag_164\n        /* \"#utility.yul\":6029:6034   */\n      dup2\n        /* \"#utility.yul\":6011:6035   */\n      tag_65\n      jump\t// in\n    tag_164:\n        /* \"#utility.yul\":6004:6009   */\n      dup2\n        /* \"#utility.yul\":6001:6036   */\n      eq\n        /* \"#utility.yul\":5991:6054   */\n      tag_165\n      jumpi\n        /* \"#utility.yul\":6050:6051   */\n      0x00\n        /* \"#utility.yul\":6047:6048   */\n      dup1\n        /* \"#utility.yul\":6040:6052   */\n      revert\n        /* \"#utility.yul\":5991:6054   */\n    tag_165:\n        /* \"#utility.yul\":5938:6060   */\n      pop\n      jump\t// out\n        /* \"#utility.yul\":6066:6205   */\n    tag_86:\n        /* \"#utility.yul\":6112:6117   */\n      0x00\n        /* \"#utility.yul\":6150:6156   */\n      dup2\n        /* \"#utility.yul\":6137:6157   */\n      calldataload\n        /* \"#utility.yul\":6128:6157   */\n      swap1\n      pop\n        /* \"#utility.yul\":6166:6199   */\n      tag_167\n        /* \"#utility.yul\":6193:6198   */\n      dup2\n        /* \"#utility.yul\":6166:6199   */\n      tag_85\n      jump\t// in\n    tag_167:\n        /* \"#utility.yul\":6066:6205   */\n      swap3\n      swap2\n      pop\n      pop\n      jump\t// out\n        /* \"#utility.yul\":6211:6863   */\n    tag_27:\n        /* \"#utility.yul\":6288:6294   */\n      0x00\n        /* \"#utility.yul\":6296:6302   */\n      dup1\n        /* \"#utility.yul\":6345:6347   */\n      0x40\n        /* \"#utility.yul\":6333:6342   */\n      dup4\n        /* \"#utility.yul\":6324:6331   */\n      dup6\n        /* \"#utility.yul\":6320:6343   */\n      sub\n        /* \"#utility.yul\":6316:6348   */\n      slt\n        /* \"#utility.yul\":6313:6432   */\n      iszero\n      tag_169\n      jumpi\n        /* \"#utility.yul\":6351:6430   */\n      tag_170\n      tag_68\n      jump\t// in\n    tag_170:\n        /* \"#utility.yul\":6313:6432   */\n    tag_169:\n        /* \"#utility.yul\":6471:6472   */\n      0x00\n        /* \"#utility.yul\":6496:6549   */\n      tag_171\n        /* \"#utility.yul\":6541:6548   */\n      dup6\n        /* \"#utility.yul\":6532:6538   */\n      dup3\n        /* \"#utility.yul\":6521:6530   */\n      dup7\n        /* \"#utility.yul\":6517:6539   */\n      add\n        /* \"#utility.yul\":6496:6549   */\n      tag_86\n      jump\t// in\n    tag_171:\n        /* \"#utility.yul\":6486:6549   */\n      swap3\n      pop\n        /* \"#utility.yul\":6442:6559   */\n      pop\n        /* \"#utility.yul\":6626:6628   */\n      0x20\n        /* \"#utility.yul\":6615:6624   */\n      dup4\n        /* \"#utility.yul\":6611:6629   */\n      add\n        /* \"#utility.yul\":6598:6630   */\n      calldataload\n        /* \"#utility.yul\":6657:6675   */\n      0xffffffffffffffff\n        /* \"#utility.yul\":6649:6655   */\n      dup2\n        /* \"#utility.yul\":6646:6676   */\n      gt\n        /* \"#utility.yul\":6643:6760   */\n      iszero\n      tag_172\n      jumpi\n        /* \"#utility.yul\":6679:6758   */\n      tag_173\n      tag_69\n      jump\t// in\n    tag_173:\n        /* \"#utility.yul\":6643:6760   */\n    tag_172:\n        /* \"#utility.yul\":6784:6846   */\n      tag_174\n        /* \"#utility.yul\":6838:6845   */\n      dup6\n        /* \"#utility.yul\":6829:6835   */\n      dup3\n        /* \"#utility.yul\":6818:6827   */\n      dup7\n        /* \"#utility.yul\":6814:6836   */\n      add\n        /* \"#utility.yul\":6784:6846   */\n      tag_82\n      jump\t// in\n    tag_174:\n        /* \"#utility.yul\":6774:6846   */\n      swap2\n      pop\n        /* \"#utility.yul\":6569:6856   */\n      pop\n        /* \"#utility.yul\":6211:6863   */\n      swap3\n      pop\n      swap3\n      swap1\n      pop\n      jump\t// out\n        /* \"#utility.yul\":6869:7376   */\n    tag_32:\n        /* \"#utility.yul\":6937:6943   */\n      0x00\n        /* \"#utility.yul\":6986:6988   */\n      0x20\n        /* \"#utility.yul\":6974:6983   */\n      dup3\n        /* \"#utility.yul\":6965:6972   */\n      dup5\n        /* \"#utility.yul\":6961:6984   */\n      sub\n        /* \"#utility.yul\":6957:6989   */\n      slt\n        /* \"#utility.yul\":6954:7073   */\n      iszero\n      tag_176\n      jumpi\n        /* \"#utility.yul\":6992:7071   */\n      tag_177\n      tag_68\n      jump\t// in\n    tag_177:\n        /* \"#utility.yul\":6954:7073   */\n    tag_176:\n        /* \"#utility.yul\":7140:7141   */\n      0x00\n        /* \"#utility.yul\":7129:7138   */\n      dup3\n        /* \"#utility.yul\":7125:7142   */\n      add\n        /* \"#utility.yul\":7112:7143   */\n      calldataload\n        /* \"#utility.yul\":7170:7188   */\n      0xffffffffffffffff\n        /* \"#utility.yul\":7162:7168   */\n      dup2\n        /* \"#utility.yul\":7159:7189   */\n      gt\n        /* \"#utility.yul\":7156:7273   */\n      iszero\n      tag_178\n      jumpi\n        /* \"#utility.yul\":7192:7271   */\n      tag_179\n      tag_69\n      jump\t// in\n    tag_179:\n        /* \"#utility.yul\":7156:7273   */\n    tag_178:\n        /* \"#utility.yul\":7297:7359   */\n      tag_180\n        /* \"#utility.yul\":7351:7358   */\n      dup5\n        /* \"#utility.yul\":7342:7348   */\n      dup3\n        /* \"#utility.yul\":7331:7340   */\n      dup6\n        /* \"#utility.yul\":7327:7349   */\n      add\n        /* \"#utility.yul\":7297:7359   */\n      tag_82\n      jump\t// in\n    tag_180:\n        /* \"#utility.yul\":7287:7359   */\n      swap2\n      pop\n        /* \"#utility.yul\":7083:7369   */\n      pop\n        /* \"#utility.yul\":6869:7376   */\n      swap3\n      swap2\n      pop\n      pop\n      jump\t// out\n        /* \"#utility.yul\":7382:7468   */\n    tag_87:\n        /* \"#utility.yul\":7417:7424   */\n      0x00\n        /* \"#utility.yul\":7457:7461   */\n      0xff\n        /* \"#utility.yul\":7450:7455   */\n      dup3\n        /* \"#utility.yul\":7446:7462   */\n      and\n        /* \"#utility.yul\":7435:7462   */\n      swap1\n      pop\n        /* \"#utility.yul\":7382:7468   */\n      swap2\n      swap1\n      pop\n      jump\t// out\n        /* \"#utility.yul\":7474:7586   */\n    tag_88:\n        /* \"#utility.yul\":7557:7579   */\n      tag_183\n        /* \"#utility.yul\":7573:7578   */\n      dup2\n        /* \"#utility.yul\":7557:7579   */\n      tag_87\n      jump\t// in\n    tag_183:\n        /* \"#utility.yul\":7552:7555   */\n      dup3\n        /* \"#utility.yul\":7545:7580   */\n      mstore\n        /* \"#utility.yul\":7474:7586   */\n      pop\n      pop\n      jump\t// out\n        /* \"#utility.yul\":7592:8026   */\n    tag_35:\n        /* \"#utility.yul\":7737:7741   */\n      0x00\n        /* \"#utility.yul\":7775:7777   */\n      0x60\n        /* \"#utility.yul\":7764:7773   */\n      dup3\n        /* \"#utility.yul\":7760:7778   */\n      add\n        /* \"#utility.yul\":7752:7778   */\n      swap1\n      pop\n        /* \"#utility.yul\":7788:7855   */\n      tag_185\n        /* \"#utility.yul\":7852:7853   */\n      0x00\n        /* \"#utility.yul\":7841:7850   */\n      dup4\n        /* \"#utility.yul\":7837:7854   */\n      add\n        /* \"#utility.yul\":7828:7834   */\n      dup7\n        /* \"#utility.yul\":7788:7855   */\n      tag_88\n      jump\t// in\n    tag_185:\n        /* \"#utility.yul\":7865:7937   */\n      tag_186\n        /* \"#utility.yul\":7933:7935   */\n      0x20\n        /* \"#utility.yul\":7922:7931   */\n      dup4\n        /* \"#utility.yul\":7918:7936   */\n      add\n        /* \"#utility.yul\":7909:7915   */\n      dup6\n        /* \"#utility.yul\":7865:7937   */\n      tag_66\n      jump\t// in\n    tag_186:\n        /* \"#utility.yul\":7947:8019   */\n      tag_187\n        /* \"#utility.yul\":8015:8017   */\n      0x40\n        /* \"#utility.yul\":8004:8013   */\n      dup4\n        /* \"#utility.yul\":8000:8018   */\n      add\n        /* \"#utility.yul\":7991:7997   */\n      dup5\n        /* \"#utility.yul\":7947:8019   */\n      tag_66\n      jump\t// in\n    tag_187:\n        /* \"#utility.yul\":7592:8026   */\n      swap5\n      swap4\n      pop\n      pop\n      pop\n      pop\n      jump\t// out\n        /* \"#utility.yul\":8032:8541   */\n    tag_42:\n        /* \"#utility.yul\":8101:8107   */\n      0x00\n        /* \"#utility.yul\":8150:8152   */\n      0x20\n        /* \"#utility.yul\":8138:8147   */\n      dup3\n        /* \"#utility.yul\":8129:8136   */\n      dup5\n        /* \"#utility.yul\":8125:8148   */\n      sub\n        /* \"#utility.yul\":8121:8153   */\n      slt\n        /* \"#utility.yul\":8118:8237   */\n      iszero\n      tag_189\n      jumpi\n        /* \"#utility.yul\":8156:8235   */\n      tag_190\n      tag_68\n      jump\t// in\n    tag_190:\n        /* \"#utility.yul\":8118:8237   */\n    tag_189:\n        /* \"#utility.yul\":8304:8305   */\n      0x00\n        /* \"#utility.yul\":8293:8302   */\n      dup3\n        /* \"#utility.yul\":8289:8306   */\n      add\n        /* \"#utility.yul\":8276:8307   */\n      calldataload\n        /* \"#utility.yul\":8334:8352   */\n      0xffffffffffffffff\n        /* \"#utility.yul\":8326:8332   */\n      dup2\n        /* \"#utility.yul\":8323:8353   */\n      gt\n        /* \"#utility.yul\":8320:8437   */\n      iszero\n      tag_191\n      jumpi\n        /* \"#utility.yul\":8356:8435   */\n      tag_192\n      tag_69\n      jump\t// in\n    tag_192:\n        /* \"#utility.yul\":8320:8437   */\n    tag_191:\n        /* \"#utility.yul\":8461:8524   */\n      tag_193\n        /* \"#utility.yul\":8516:8523   */\n      dup5\n        /* \"#utility.yul\":8507:8513   */\n      dup3\n        /* \"#utility.yul\":8496:8505   */\n      dup6\n        /* \"#utility.yul\":8492:8514   */\n      add\n        /* \"#utility.yul\":8461:8524   */\n      tag_79\n      jump\t// in\n    tag_193:\n        /* \"#utility.yul\":8451:8524   */\n      swap2\n      pop\n        /* \"#utility.yul\":8247:8534   */\n      pop\n        /* \"#utility.yul\":8032:8541   */\n      swap3\n      swap2\n      pop\n      pop\n      jump\t// out\n        /* \"#utility.yul\":8547:8646   */\n    tag_89:\n        /* \"#utility.yul\":8599:8605   */\n      0x00\n        /* \"#utility.yul\":8633:8638   */\n      dup2\n        /* \"#utility.yul\":8627:8639   */\n      mload\n        /* \"#utility.yul\":8617:8639   */\n      swap1\n      pop\n        /* \"#utility.yul\":8547:8646   */\n      swap2\n      swap1\n      pop\n      jump\t// out\n        /* \"#utility.yul\":8652:8800   */\n    tag_90:\n        /* \"#utility.yul\":8754:8765   */\n      0x00\n        /* \"#utility.yul\":8791:8794   */\n      dup2\n        /* \"#utility.yul\":8776:8794   */\n      swap1\n      pop\n        /* \"#utility.yul\":8652:8800   */\n      swap3\n      swap2\n      pop\n      pop\n      jump\t// out\n        /* \"#utility.yul\":8806:9052   */\n    tag_91:\n        /* \"#utility.yul\":8887:8888   */\n      0x00\n        /* \"#utility.yul\":8897:9010   */\n    tag_197:\n        /* \"#utility.yul\":8911:8917   */\n      dup4\n        /* \"#utility.yul\":8908:8909   */\n      dup2\n        /* \"#utility.yul\":8905:8918   */\n      lt\n        /* \"#utility.yul\":8897:9010   */\n      iszero\n      tag_199\n      jumpi\n        /* \"#utility.yul\":8996:8997   */\n      dup1\n        /* \"#utility.yul\":8991:8994   */\n      dup3\n        /* \"#utility.yul\":8987:8998   */\n      add\n        /* \"#utility.yul\":8981:8999   */\n      mload\n        /* \"#utility.yul\":8977:8978   */\n      dup2\n        /* \"#utility.yul\":8972:8975   */\n      dup5\n        /* \"#utility.yul\":8968:8979   */\n      add\n        /* \"#utility.yul\":8961:9000   */\n      mstore\n        /* \"#utility.yul\":8933:8935   */\n      0x20\n        /* \"#utility.yul\":8930:8931   */\n      dup2\n        /* \"#utility.yul\":8926:8936   */\n      add\n        /* \"#utility.yul\":8921:8936   */\n      swap1\n      pop\n        /* \"#utility.yul\":8897:9010   */\n      jump(tag_197)\n    tag_199:\n        /* \"#utility.yul\":9044:9045   */\n      0x00\n        /* \"#utility.yul\":9035:9041   */\n      dup5\n        /* \"#utility.yul\":9030:9033   */\n      dup5\n        /* \"#utility.yul\":9026:9042   */\n      add\n        /* \"#utility.yul\":9019:9046   */\n      mstore\n        /* \"#utility.yul\":8868:9052   */\n      pop\n        /* \"#utility.yul\":8806:9052   */\n      pop\n      pop\n      pop\n      jump\t// out\n        /* \"#utility.yul\":9058:9448   */\n    tag_92:\n        /* \"#utility.yul\":9164:9167   */\n      0x00\n        /* \"#utility.yul\":9192:9231   */\n      tag_201\n        /* \"#utility.yul\":9225:9230   */\n      dup3\n        /* \"#utility.yul\":9192:9231   */\n      tag_89\n      jump\t// in\n    tag_201:\n        /* \"#utility.yul\":9247:9336   */\n      tag_202\n        /* \"#utility.yul\":9329:9335   */\n      dup2\n        /* \"#utility.yul\":9324:9327   */\n      dup6\n        /* \"#utility.yul\":9247:9336   */\n      tag_90\n      jump\t// in\n    tag_202:\n        /* \"#utility.yul\":9240:9336   */\n      swap4\n      pop\n        /* \"#utility.yul\":9345:9410   */\n      tag_203\n        /* \"#utility.yul\":9403:9409   */\n      dup2\n        /* \"#utility.yul\":9398:9401   */\n      dup6\n        /* \"#utility.yul\":9391:9395   */\n      0x20\n        /* \"#utility.yul\":9384:9389   */\n      dup7\n        /* \"#utility.yul\":9380:9396   */\n      add\n        /* \"#utility.yul\":9345:9410   */\n      tag_91\n      jump\t// in\n    tag_203:\n        /* \"#utility.yul\":9435:9441   */\n      dup1\n        /* \"#utility.yul\":9430:9433   */\n      dup5\n        /* \"#utility.yul\":9426:9442   */\n      add\n        /* \"#utility.yul\":9419:9442   */\n      swap2\n      pop\n        /* \"#utility.yul\":9168:9448   */\n      pop\n        /* \"#utility.yul\":9058:9448   */\n      swap3\n      swap2\n      pop\n      pop\n      jump\t// out\n        /* \"#utility.yul\":9454:9729   */\n    tag_47:\n        /* \"#utility.yul\":9586:9589   */\n      0x00\n        /* \"#utility.yul\":9608:9703   */\n      tag_205\n        /* \"#utility.yul\":9699:9702   */\n      dup3\n        /* \"#utility.yul\":9690:9696   */\n      dup5\n        /* \"#utility.yul\":9608:9703   */\n      tag_92\n      jump\t// in\n    tag_205:\n        /* \"#utility.yul\":9601:9703   */\n      swap2\n      pop\n        /* \"#utility.yul\":9720:9723   */\n      dup2\n        /* \"#utility.yul\":9713:9723   */\n      swap1\n      pop\n        /* \"#utility.yul\":9454:9729   */\n      swap3\n      swap2\n      pop\n      pop\n      jump\t// out\n        /* \"#utility.yul\":9735:10280   */\n    tag_52:\n        /* \"#utility.yul\":9908:9912   */\n      0x00\n        /* \"#utility.yul\":9946:9949   */\n      0x80\n        /* \"#utility.yul\":9935:9944   */\n      dup3\n        /* \"#utility.yul\":9931:9950   */\n      add\n        /* \"#utility.yul\":9923:9950   */\n      swap1\n      pop\n        /* \"#utility.yul\":9960:10031   */\n      tag_207\n        /* \"#utility.yul\":10028:10029   */\n      0x00\n        /* \"#utility.yul\":10017:10026   */\n      dup4\n        /* \"#utility.yul\":10013:10030   */\n      add\n        /* \"#utility.yul\":10004:10010   */\n      dup8\n        /* \"#utility.yul\":9960:10031   */\n      tag_66\n      jump\t// in\n    tag_207:\n        /* \"#utility.yul\":10041:10109   */\n      tag_208\n        /* \"#utility.yul\":10105:10107   */\n      0x20\n        /* \"#utility.yul\":10094:10103   */\n      dup4\n        /* \"#utility.yul\":10090:10108   */\n      add\n        /* \"#utility.yul\":10081:10087   */\n      dup7\n        /* \"#utility.yul\":10041:10109   */\n      tag_88\n      jump\t// in\n    tag_208:\n        /* \"#utility.yul\":10119:10191   */\n      tag_209\n        /* \"#utility.yul\":10187:10189   */\n      0x40\n        /* \"#utility.yul\":10176:10185   */\n      dup4\n        /* \"#utility.yul\":10172:10190   */\n      add\n        /* \"#utility.yul\":10163:10169   */\n      dup6\n        /* \"#utility.yul\":10119:10191   */\n      tag_66\n      jump\t// in\n    tag_209:\n        /* \"#utility.yul\":10201:10273   */\n      tag_210\n        /* \"#utility.yul\":10269:10271   */\n      0x60\n        /* \"#utility.yul\":10258:10267   */\n      dup4\n        /* \"#utility.yul\":10254:10272   */\n      add\n        /* \"#utility.yul\":10245:10251   */\n      dup5\n        /* \"#utility.yul\":10201:10273   */\n      tag_66\n      jump\t// in\n    tag_210:\n        /* \"#utility.yul\":9735:10280   */\n      swap6\n      swap5\n      pop\n      pop\n      pop\n      pop\n      pop\n      jump\t// out\n\n    auxdata: 0xa2646970667358221220e53bcf9cbd7a47af6bee15a6e9a75aabcf8501fabf5dd52f8787a1bdfa596b9464736f6c63430008110033\n}\n",
				"bytecode": {
					"linkReferences": {},
					"object": "608060405234801561001057600080fd5b50604051610aa5380380610aa5833981810160405281019061003291906100db565b806000806101000a81548173ffffffffffffffffffffffffffffffffffffffff021916908373ffffffffffffffffffffffffffffffffffffffff16021790555050610108565b600080fd5b600073ffffffffffffffffffffffffffffffffffffffff82169050919050565b60006100a88261007d565b9050919050565b6100b88161009d565b81146100c357600080fd5b50565b6000815190506100d5816100af565b92915050565b6000602082840312156100f1576100f0610078565b5b60006100ff848285016100c6565b91505092915050565b61098e806101176000396000f3fe608060405234801561001057600080fd5b506004361061007d5760003560e01c806397aba7f91161005b57806397aba7f9146100ee578063a7bb58031461011e578063adb41f7514610150578063b4604750146101805761007d565b80631398b4441461008257806371524b93146100a0578063751466a8146100be575b600080fd5b61008a6101b0565b6040516100979190610426565b60405180910390f35b6100a86101d4565b6040516100b5919061045a565b60405180910390f35b6100d860048036038101906100d39190610670565b6101da565b6040516100e59190610703565b60405180910390f35b6101086004803603810190610103919061074a565b610267565b6040516101159190610426565b60405180910390f35b610138600480360381019061013391906107a6565b6102dc565b6040516101479392919061080b565b60405180910390f35b61016a60048036038101906101659190610670565b61031f565b6040516101779190610703565b60405180910390f35b61019a60048036038101906101959190610842565b6103ac565b6040516101a7919061045a565b60405180910390f35b60008054906101000a900473ffffffffffffffffffffffffffffffffffffffff1681565b60015481565b600080836040516020016101ee91906108fc565b60405160208183030381529060405280519060200120905060008054906101000a900473ffffffffffffffffffffffffffffffffffffffff1673ffffffffffffffffffffffffffffffffffffffff166102478285610267565b73ffffffffffffffffffffffffffffffffffffffff161491505092915050565b600080600080610276856102dc565b809350819450829550505050600186848484604051600081526020016040526040516102a59493929190610913565b6020604051602081039080840390855afa1580156102c7573d6000803e3d6000fd5b50505060206040510351935050505092915050565b600080600060418451146102ef57600080fd5b60008060006020870151925060408701519150606087015160001a90508083839550955095505050509193909250565b6000808360405160200161033391906108fc565b60405160208183030381529060405280519060200120905060008054906101000a900473ffffffffffffffffffffffffffffffffffffffff1673ffffffffffffffffffffffffffffffffffffffff1661038c8285610267565b73ffffffffffffffffffffffffffffffffffffffff161491505092915050565b6000816040516020016103bf91906108fc565b604051602081830303815290604052805190602001206001819055506001549050919050565b600073ffffffffffffffffffffffffffffffffffffffff82169050919050565b6000610410826103e5565b9050919050565b61042081610405565b82525050565b600060208201905061043b6000830184610417565b92915050565b6000819050919050565b61045481610441565b82525050565b600060208201905061046f600083018461044b565b92915050565b6000604051905090565b600080fd5b600080fd5b600080fd5b600080fd5b6000601f19601f8301169050919050565b7f4e487b7100000000000000000000000000000000000000000000000000000000600052604160045260246000fd5b6104dc82610493565b810181811067ffffffffffffffff821117156104fb576104fa6104a4565b5b80604052505050565b600061050e610475565b905061051a82826104d3565b919050565b600067ffffffffffffffff82111561053a576105396104a4565b5b61054382610493565b9050602081019050919050565b82818337600083830152505050565b600061057261056d8461051f565b610504565b90508281526020810184848401111561058e5761058d61048e565b5b610599848285610550565b509392505050565b600082601f8301126105b6576105b5610489565b5b81356105c684826020860161055f565b91505092915050565b600067ffffffffffffffff8211156105ea576105e96104a4565b5b6105f382610493565b9050602081019050919050565b600061061361060e846105cf565b610504565b90508281526020810184848401111561062f5761062e61048e565b5b61063a848285610550565b509392505050565b600082601f83011261065757610656610489565b5b8135610667848260208601610600565b91505092915050565b600080604083850312156106875761068661047f565b5b600083013567ffffffffffffffff8111156106a5576106a4610484565b5b6106b1858286016105a1565b925050602083013567ffffffffffffffff8111156106d2576106d1610484565b5b6106de85828601610642565b9150509250929050565b60008115159050919050565b6106fd816106e8565b82525050565b600060208201905061071860008301846106f4565b92915050565b61072781610441565b811461073257600080fd5b50565b6000813590506107448161071e565b92915050565b600080604083850312156107615761076061047f565b5b600061076f85828601610735565b925050602083013567ffffffffffffffff8111156107905761078f610484565b5b61079c85828601610642565b9150509250929050565b6000602082840312156107bc576107bb61047f565b5b600082013567ffffffffffffffff8111156107da576107d9610484565b5b6107e684828501610642565b91505092915050565b600060ff82169050919050565b610805816107ef565b82525050565b600060608201905061082060008301866107fc565b61082d602083018561044b565b61083a604083018461044b565b949350505050565b6000602082840312156108585761085761047f565b5b600082013567ffffffffffffffff81111561087657610875610484565b5b610882848285016105a1565b91505092915050565b600081519050919050565b600081905092915050565b60005b838110156108bf5780820151818401526020810190506108a4565b60008484015250505050565b60006108d68261088b565b6108e08185610896565b93506108f08185602086016108a1565b80840191505092915050565b600061090882846108cb565b915081905092915050565b6000608082019050610928600083018761044b565b61093560208301866107fc565b610942604083018561044b565b61094f606083018461044b565b9594505050505056fea2646970667358221220e53bcf9cbd7a47af6bee15a6e9a75aabcf8501fabf5dd52f8787a1bdfa596b9464736f6c63430008110033",
					"opcodes": "PUSH1 0x80 PUSH1 0x40 MSTORE CALLVALUE DUP1 ISZERO PUSH2 0x10 JUMPI PUSH1 0x0 DUP1 REVERT JUMPDEST POP PUSH1 0x40 MLOAD PUSH2 0xAA5 CODESIZE SUB DUP1 PUSH2 0xAA5 DUP4 CODECOPY DUP2 DUP2 ADD PUSH1 0x40 MSTORE DUP2 ADD SWAP1 PUSH2 0x32 SWAP2 SWAP1 PUSH2 0xDB JUMP JUMPDEST DUP1 PUSH1 0x0 DUP1 PUSH2 0x100 EXP DUP2 SLOAD DUP2 PUSH20 0xFFFFFFFFFFFFFFFFFFFFFFFFFFFFFFFFFFFFFFFF MUL NOT AND SWAP1 DUP4 PUSH20 0xFFFFFFFFFFFFFFFFFFFFFFFFFFFFFFFFFFFFFFFF AND MUL OR SWAP1 SSTORE POP POP PUSH2 0x108 JUMP JUMPDEST PUSH1 0x0 DUP1 REVERT JUMPDEST PUSH1 0x0 PUSH20 0xFFFFFFFFFFFFFFFFFFFFFFFFFFFFFFFFFFFFFFFF DUP3 AND SWAP1 POP SWAP2 SWAP1 POP JUMP JUMPDEST PUSH1 0x0 PUSH2 0xA8 DUP3 PUSH2 0x7D JUMP JUMPDEST SWAP1 POP SWAP2 SWAP1 POP JUMP JUMPDEST PUSH2 0xB8 DUP2 PUSH2 0x9D JUMP JUMPDEST DUP2 EQ PUSH2 0xC3 JUMPI PUSH1 0x0 DUP1 REVERT JUMPDEST POP JUMP JUMPDEST PUSH1 0x0 DUP2 MLOAD SWAP1 POP PUSH2 0xD5 DUP2 PUSH2 0xAF JUMP JUMPDEST SWAP3 SWAP2 POP POP JUMP JUMPDEST PUSH1 0x0 PUSH1 0x20 DUP3 DUP5 SUB SLT ISZERO PUSH2 0xF1 JUMPI PUSH2 0xF0 PUSH2 0x78 JUMP JUMPDEST JUMPDEST PUSH1 0x0 PUSH2 0xFF DUP5 DUP3 DUP6 ADD PUSH2 0xC6 JUMP JUMPDEST SWAP2 POP POP SWAP3 SWAP2 POP POP JUMP JUMPDEST PUSH2 0x98E DUP1 PUSH2 0x117 PUSH1 0x0 CODECOPY PUSH1 0x0 RETURN INVALID PUSH1 0x80 PUSH1 0x40 MSTORE CALLVALUE DUP1 ISZERO PUSH2 0x10 JUMPI PUSH1 0x0 DUP1 REVERT JUMPDEST POP PUSH1 0x4 CALLDATASIZE LT PUSH2 0x7D JUMPI PUSH1 0x0 CALLDATALOAD PUSH1 0xE0 SHR DUP1 PUSH4 0x97ABA7F9 GT PUSH2 0x5B JUMPI DUP1 PUSH4 0x97ABA7F9 EQ PUSH2 0xEE JUMPI DUP1 PUSH4 0xA7BB5803 EQ PUSH2 0x11E JUMPI DUP1 PUSH4 0xADB41F75 EQ PUSH2 0x150 JUMPI DUP1 PUSH4 0xB4604750 EQ PUSH2 0x180 JUMPI PUSH2 0x7D JUMP JUMPDEST DUP1 PUSH4 0x1398B444 EQ PUSH2 0x82 JUMPI DUP1 PUSH4 0x71524B93 EQ PUSH2 0xA0 JUMPI DUP1 PUSH4 0x751466A8 EQ PUSH2 0xBE JUMPI JUMPDEST PUSH1 0x0 DUP1 REVERT JUMPDEST PUSH2 0x8A PUSH2 0x1B0 JUMP JUMPDEST PUSH1 0x40 MLOAD PUSH2 0x97 SWAP2 SWAP1 PUSH2 0x426 JUMP JUMPDEST PUSH1 0x40 MLOAD DUP1 SWAP2 SUB SWAP1 RETURN JUMPDEST PUSH2 0xA8 PUSH2 0x1D4 JUMP JUMPDEST PUSH1 0x40 MLOAD PUSH2 0xB5 SWAP2 SWAP1 PUSH2 0x45A JUMP JUMPDEST PUSH1 0x40 MLOAD DUP1 SWAP2 SUB SWAP1 RETURN JUMPDEST PUSH2 0xD8 PUSH1 0x4 DUP1 CALLDATASIZE SUB DUP2 ADD SWAP1 PUSH2 0xD3 SWAP2 SWAP1 PUSH2 0x670 JUMP JUMPDEST PUSH2 0x1DA JUMP JUMPDEST PUSH1 0x40 MLOAD PUSH2 0xE5 SWAP2 SWAP1 PUSH2 0x703 JUMP JUMPDEST PUSH1 0x40 MLOAD DUP1 SWAP2 SUB SWAP1 RETURN JUMPDEST PUSH2 0x108 PUSH1 0x4 DUP1 CALLDATASIZE SUB DUP2 ADD SWAP1 PUSH2 0x103 SWAP2 SWAP1 PUSH2 0x74A JUMP JUMPDEST PUSH2 0x267 JUMP JUMPDEST PUSH1 0x40 MLOAD PUSH2 0x115 SWAP2 SWAP1 PUSH2 0x426 JUMP JUMPDEST PUSH1 0x40 MLOAD DUP1 SWAP2 SUB SWAP1 RETURN JUMPDEST PUSH2 0x138 PUSH1 0x4 DUP1 CALLDATASIZE SUB DUP2 ADD SWAP1 PUSH2 0x133 SWAP2 SWAP1 PUSH2 0x7A6 JUMP JUMPDEST PUSH2 0x2DC JUMP JUMPDEST PUSH1 0x40 MLOAD PUSH2 0x147 SWAP4 SWAP3 SWAP2 SWAP1 PUSH2 0x80B JUMP JUMPDEST PUSH1 0x40 MLOAD DUP1 SWAP2 SUB SWAP1 RETURN JUMPDEST PUSH2 0x16A PUSH1 0x4 DUP1 CALLDATASIZE SUB DUP2 ADD SWAP1 PUSH2 0x165 SWAP2 SWAP1 PUSH2 0x670 JUMP JUMPDEST PUSH2 0x31F JUMP JUMPDEST PUSH1 0x40 MLOAD PUSH2 0x177 SWAP2 SWAP1 PUSH2 0x703 JUMP JUMPDEST PUSH1 0x40 MLOAD DUP1 SWAP2 SUB SWAP1 RETURN JUMPDEST PUSH2 0x19A PUSH1 0x4 DUP1 CALLDATASIZE SUB DUP2 ADD SWAP1 PUSH2 0x195 SWAP2 SWAP1 PUSH2 0x842 JUMP JUMPDEST PUSH2 0x3AC JUMP JUMPDEST PUSH1 0x40 MLOAD PUSH2 0x1A7 SWAP2 SWAP1 PUSH2 0x45A JUMP JUMPDEST PUSH1 0x40 MLOAD DUP1 SWAP2 SUB SWAP1 RETURN JUMPDEST PUSH1 0x0 DUP1 SLOAD SWAP1 PUSH2 0x100 EXP SWAP1 DIV PUSH20 0xFFFFFFFFFFFFFFFFFFFFFFFFFFFFFFFFFFFFFFFF AND DUP2 JUMP JUMPDEST PUSH1 0x1 SLOAD DUP2 JUMP JUMPDEST PUSH1 0x0 DUP1 DUP4 PUSH1 0x40 MLOAD PUSH1 0x20 ADD PUSH2 0x1EE SWAP2 SWAP1 PUSH2 0x8FC JUMP JUMPDEST PUSH1 0x40 MLOAD PUSH1 0x20 DUP2 DUP4 SUB SUB DUP2 MSTORE SWAP1 PUSH1 0x40 MSTORE DUP1 MLOAD SWAP1 PUSH1 0x20 ADD KECCAK256 SWAP1 POP PUSH1 0x0 DUP1 SLOAD SWAP1 PUSH2 0x100 EXP SWAP1 DIV PUSH20 0xFFFFFFFFFFFFFFFFFFFFFFFFFFFFFFFFFFFFFFFF AND PUSH20 0xFFFFFFFFFFFFFFFFFFFFFFFFFFFFFFFFFFFFFFFF AND PUSH2 0x247 DUP3 DUP6 PUSH2 0x267 JUMP JUMPDEST PUSH20 0xFFFFFFFFFFFFFFFFFFFFFFFFFFFFFFFFFFFFFFFF AND EQ SWAP2 POP POP SWAP3 SWAP2 POP POP JUMP JUMPDEST PUSH1 0x0 DUP1 PUSH1 0x0 DUP1 PUSH2 0x276 DUP6 PUSH2 0x2DC JUMP JUMPDEST DUP1 SWAP4 POP DUP2 SWAP5 POP DUP3 SWAP6 POP POP POP POP PUSH1 0x1 DUP7 DUP5 DUP5 DUP5 PUSH1 0x40 MLOAD PUSH1 0x0 DUP2 MSTORE PUSH1 0x20 ADD PUSH1 0x40 MSTORE PUSH1 0x40 MLOAD PUSH2 0x2A5 SWAP5 SWAP4 SWAP3 SWAP2 SWAP1 PUSH2 0x913 JUMP JUMPDEST PUSH1 0x20 PUSH1 0x40 MLOAD PUSH1 0x20 DUP2 SUB SWAP1 DUP1 DUP5 SUB SWAP1 DUP6 GAS STATICCALL ISZERO DUP1 ISZERO PUSH2 0x2C7 JUMPI RETURNDATASIZE PUSH1 0x0 DUP1 RETURNDATACOPY RETURNDATASIZE PUSH1 0x0 REVERT JUMPDEST POP POP POP PUSH1 0x20 PUSH1 0x40 MLOAD SUB MLOAD SWAP4 POP POP POP POP SWAP3 SWAP2 POP POP JUMP JUMPDEST PUSH1 0x0 DUP1 PUSH1 0x0 PUSH1 0x41 DUP5 MLOAD EQ PUSH2 0x2EF JUMPI PUSH1 0x0 DUP1 REVERT JUMPDEST PUSH1 0x0 DUP1 PUSH1 0x0 PUSH1 0x20 DUP8 ADD MLOAD SWAP3 POP PUSH1 0x40 DUP8 ADD MLOAD SWAP2 POP PUSH1 0x60 DUP8 ADD MLOAD PUSH1 0x0 BYTE SWAP1 POP DUP1 DUP4 DUP4 SWAP6 POP SWAP6 POP SWAP6 POP POP POP POP SWAP2 SWAP4 SWAP1 SWAP3 POP JUMP JUMPDEST PUSH1 0x0 DUP1 DUP4 PUSH1 0x40 MLOAD PUSH1 0x20 ADD PUSH2 0x333 SWAP2 SWAP1 PUSH2 0x8FC JUMP JUMPDEST PUSH1 0x40 MLOAD PUSH1 0x20 DUP2 DUP4 SUB SUB DUP2 MSTORE SWAP1 PUSH1 0x40 MSTORE DUP1 MLOAD SWAP1 PUSH1 0x20 ADD KECCAK256 SWAP1 POP PUSH1 0x0 DUP1 SLOAD SWAP1 PUSH2 0x100 EXP SWAP1 DIV PUSH20 0xFFFFFFFFFFFFFFFFFFFFFFFFFFFFFFFFFFFFFFFF AND PUSH20 0xFFFFFFFFFFFFFFFFFFFFFFFFFFFFFFFFFFFFFFFF AND PUSH2 0x38C DUP3 DUP6 PUSH2 0x267 JUMP JUMPDEST PUSH20 0xFFFFFFFFFFFFFFFFFFFFFFFFFFFFFFFFFFFFFFFF AND EQ SWAP2 POP POP SWAP3 SWAP2 POP POP JUMP JUMPDEST PUSH1 0x0 DUP2 PUSH1 0x40 MLOAD PUSH1 0x20 ADD PUSH2 0x3BF SWAP2 SWAP1 PUSH2 0x8FC JUMP JUMPDEST PUSH1 0x40 MLOAD PUSH1 0x20 DUP2 DUP4 SUB SUB DUP2 MSTORE SWAP1 PUSH1 0x40 MSTORE DUP1 MLOAD SWAP1 PUSH1 0x20 ADD KECCAK256 PUSH1 0x1 DUP2 SWAP1 SSTORE POP PUSH1 0x1 SLOAD SWAP1 POP SWAP2 SWAP1 POP JUMP JUMPDEST PUSH1 0x0 PUSH20 0xFFFFFFFFFFFFFFFFFFFFFFFFFFFFFFFFFFFFFFFF DUP3 AND SWAP1 POP SWAP2 SWAP1 POP JUMP JUMPDEST PUSH1 0x0 PUSH2 0x410 DUP3 PUSH2 0x3E5 JUMP JUMPDEST SWAP1 POP SWAP2 SWAP1 POP JUMP JUMPDEST PUSH2 0x420 DUP2 PUSH2 0x405 JUMP JUMPDEST DUP3 MSTORE POP POP JUMP JUMPDEST PUSH1 0x0 PUSH1 0x20 DUP3 ADD SWAP1 POP PUSH2 0x43B PUSH1 0x0 DUP4 ADD DUP5 PUSH2 0x417 JUMP JUMPDEST SWAP3 SWAP2 POP POP JUMP JUMPDEST PUSH1 0x0 DUP2 SWAP1 POP SWAP2 SWAP1 POP JUMP JUMPDEST PUSH2 0x454 DUP2 PUSH2 0x441 JUMP JUMPDEST DUP3 MSTORE POP POP JUMP JUMPDEST PUSH1 0x0 PUSH1 0x20 DUP3 ADD SWAP1 POP PUSH2 0x46F PUSH1 0x0 DUP4 ADD DUP5 PUSH2 0x44B JUMP JUMPDEST SWAP3 SWAP2 POP POP JUMP JUMPDEST PUSH1 0x0 PUSH1 0x40 MLOAD SWAP1 POP SWAP1 JUMP JUMPDEST PUSH1 0x0 DUP1 REVERT JUMPDEST PUSH1 0x0 DUP1 REVERT JUMPDEST PUSH1 0x0 DUP1 REVERT JUMPDEST PUSH1 0x0 DUP1 REVERT JUMPDEST PUSH1 0x0 PUSH1 0x1F NOT PUSH1 0x1F DUP4 ADD AND SWAP1 POP SWAP2 SWAP1 POP JUMP JUMPDEST PUSH32 0x4E487B7100000000000000000000000000000000000000000000000000000000 PUSH1 0x0 MSTORE PUSH1 0x41 PUSH1 0x4 MSTORE PUSH1 0x24 PUSH1 0x0 REVERT JUMPDEST PUSH2 0x4DC DUP3 PUSH2 0x493 JUMP JUMPDEST DUP2 ADD DUP2 DUP2 LT PUSH8 0xFFFFFFFFFFFFFFFF DUP3 GT OR ISZERO PUSH2 0x4FB JUMPI PUSH2 0x4FA PUSH2 0x4A4 JUMP JUMPDEST JUMPDEST DUP1 PUSH1 0x40 MSTORE POP POP POP JUMP JUMPDEST PUSH1 0x0 PUSH2 0x50E PUSH2 0x475 JUMP JUMPDEST SWAP1 POP PUSH2 0x51A DUP3 DUP3 PUSH2 0x4D3 JUMP JUMPDEST SWAP2 SWAP1 POP JUMP JUMPDEST PUSH1 0x0 PUSH8 0xFFFFFFFFFFFFFFFF DUP3 GT ISZERO PUSH2 0x53A JUMPI PUSH2 0x539 PUSH2 0x4A4 JUMP JUMPDEST JUMPDEST PUSH2 0x543 DUP3 PUSH2 0x493 JUMP JUMPDEST SWAP1 POP PUSH1 0x20 DUP2 ADD SWAP1 POP SWAP2 SWAP1 POP JUMP JUMPDEST DUP3 DUP2 DUP4 CALLDATACOPY PUSH1 0x0 DUP4 DUP4 ADD MSTORE POP POP POP JUMP JUMPDEST PUSH1 0x0 PUSH2 0x572 PUSH2 0x56D DUP5 PUSH2 0x51F JUMP JUMPDEST PUSH2 0x504 JUMP JUMPDEST SWAP1 POP DUP3 DUP2 MSTORE PUSH1 0x20 DUP2 ADD DUP5 DUP5 DUP5 ADD GT ISZERO PUSH2 0x58E JUMPI PUSH2 0x58D PUSH2 0x48E JUMP JUMPDEST JUMPDEST PUSH2 0x599 DUP5 DUP3 DUP6 PUSH2 0x550 JUMP JUMPDEST POP SWAP4 SWAP3 POP POP POP JUMP JUMPDEST PUSH1 0x0 DUP3 PUSH1 0x1F DUP4 ADD SLT PUSH2 0x5B6 JUMPI PUSH2 0x5B5 PUSH2 0x489 JUMP JUMPDEST JUMPDEST DUP2 CALLDATALOAD PUSH2 0x5C6 DUP5 DUP3 PUSH1 0x20 DUP7 ADD PUSH2 0x55F JUMP JUMPDEST SWAP2 POP POP SWAP3 SWAP2 POP POP JUMP JUMPDEST PUSH1 0x0 PUSH8 0xFFFFFFFFFFFFFFFF DUP3 GT ISZERO PUSH2 0x5EA JUMPI PUSH2 0x5E9 PUSH2 0x4A4 JUMP JUMPDEST JUMPDEST PUSH2 0x5F3 DUP3 PUSH2 0x493 JUMP JUMPDEST SWAP1 POP PUSH1 0x20 DUP2 ADD SWAP1 POP SWAP2 SWAP1 POP JUMP JUMPDEST PUSH1 0x0 PUSH2 0x613 PUSH2 0x60E DUP5 PUSH2 0x5CF JUMP JUMPDEST PUSH2 0x504 JUMP JUMPDEST SWAP1 POP DUP3 DUP2 MSTORE PUSH1 0x20 DUP2 ADD DUP5 DUP5 DUP5 ADD GT ISZERO PUSH2 0x62F JUMPI PUSH2 0x62E PUSH2 0x48E JUMP JUMPDEST JUMPDEST PUSH2 0x63A DUP5 DUP3 DUP6 PUSH2 0x550 JUMP JUMPDEST POP SWAP4 SWAP3 POP POP POP JUMP JUMPDEST PUSH1 0x0 DUP3 PUSH1 0x1F DUP4 ADD SLT PUSH2 0x657 JUMPI PUSH2 0x656 PUSH2 0x489 JUMP JUMPDEST JUMPDEST DUP2 CALLDATALOAD PUSH2 0x667 DUP5 DUP3 PUSH1 0x20 DUP7 ADD PUSH2 0x600 JUMP JUMPDEST SWAP2 POP POP SWAP3 SWAP2 POP POP JUMP JUMPDEST PUSH1 0x0 DUP1 PUSH1 0x40 DUP4 DUP6 SUB SLT ISZERO PUSH2 0x687 JUMPI PUSH2 0x686 PUSH2 0x47F JUMP JUMPDEST JUMPDEST PUSH1 0x0 DUP4 ADD CALLDATALOAD PUSH8 0xFFFFFFFFFFFFFFFF DUP2 GT ISZERO PUSH2 0x6A5 JUMPI PUSH2 0x6A4 PUSH2 0x484 JUMP JUMPDEST JUMPDEST PUSH2 0x6B1 DUP6 DUP3 DUP7 ADD PUSH2 0x5A1 JUMP JUMPDEST SWAP3 POP POP PUSH1 0x20 DUP4 ADD CALLDATALOAD PUSH8 0xFFFFFFFFFFFFFFFF DUP2 GT ISZERO PUSH2 0x6D2 JUMPI PUSH2 0x6D1 PUSH2 0x484 JUMP JUMPDEST JUMPDEST PUSH2 0x6DE DUP6 DUP3 DUP7 ADD PUSH2 0x642 JUMP JUMPDEST SWAP2 POP POP SWAP3 POP SWAP3 SWAP1 POP JUMP JUMPDEST PUSH1 0x0 DUP2 ISZERO ISZERO SWAP1 POP SWAP2 SWAP1 POP JUMP JUMPDEST PUSH2 0x6FD DUP2 PUSH2 0x6E8 JUMP JUMPDEST DUP3 MSTORE POP POP JUMP JUMPDEST PUSH1 0x0 PUSH1 0x20 DUP3 ADD SWAP1 POP PUSH2 0x718 PUSH1 0x0 DUP4 ADD DUP5 PUSH2 0x6F4 JUMP JUMPDEST SWAP3 SWAP2 POP POP JUMP JUMPDEST PUSH2 0x727 DUP2 PUSH2 0x441 JUMP JUMPDEST DUP2 EQ PUSH2 0x732 JUMPI PUSH1 0x0 DUP1 REVERT JUMPDEST POP JUMP JUMPDEST PUSH1 0x0 DUP2 CALLDATALOAD SWAP1 POP PUSH2 0x744 DUP2 PUSH2 0x71E JUMP JUMPDEST SWAP3 SWAP2 POP POP JUMP JUMPDEST PUSH1 0x0 DUP1 PUSH1 0x40 DUP4 DUP6 SUB SLT ISZERO PUSH2 0x761 JUMPI PUSH2 0x760 PUSH2 0x47F JUMP JUMPDEST JUMPDEST PUSH1 0x0 PUSH2 0x76F DUP6 DUP3 DUP7 ADD PUSH2 0x735 JUMP JUMPDEST SWAP3 POP POP PUSH1 0x20 DUP4 ADD CALLDATALOAD PUSH8 0xFFFFFFFFFFFFFFFF DUP2 GT ISZERO PUSH2 0x790 JUMPI PUSH2 0x78F PUSH2 0x484 JUMP JUMPDEST JUMPDEST PUSH2 0x79C DUP6 DUP3 DUP7 ADD PUSH2 0x642 JUMP JUMPDEST SWAP2 POP POP SWAP3 POP SWAP3 SWAP1 POP JUMP JUMPDEST PUSH1 0x0 PUSH1 0x20 DUP3 DUP5 SUB SLT ISZERO PUSH2 0x7BC JUMPI PUSH2 0x7BB PUSH2 0x47F JUMP JUMPDEST JUMPDEST PUSH1 0x0 DUP3 ADD CALLDATALOAD PUSH8 0xFFFFFFFFFFFFFFFF DUP2 GT ISZERO PUSH2 0x7DA JUMPI PUSH2 0x7D9 PUSH2 0x484 JUMP JUMPDEST JUMPDEST PUSH2 0x7E6 DUP5 DUP3 DUP6 ADD PUSH2 0x642 JUMP JUMPDEST SWAP2 POP POP SWAP3 SWAP2 POP POP JUMP JUMPDEST PUSH1 0x0 PUSH1 0xFF DUP3 AND SWAP1 POP SWAP2 SWAP1 POP JUMP JUMPDEST PUSH2 0x805 DUP2 PUSH2 0x7EF JUMP JUMPDEST DUP3 MSTORE POP POP JUMP JUMPDEST PUSH1 0x0 PUSH1 0x60 DUP3 ADD SWAP1 POP PUSH2 0x820 PUSH1 0x0 DUP4 ADD DUP7 PUSH2 0x7FC JUMP JUMPDEST PUSH2 0x82D PUSH1 0x20 DUP4 ADD DUP6 PUSH2 0x44B JUMP JUMPDEST PUSH2 0x83A PUSH1 0x40 DUP4 ADD DUP5 PUSH2 0x44B JUMP JUMPDEST SWAP5 SWAP4 POP POP POP POP JUMP JUMPDEST PUSH1 0x0 PUSH1 0x20 DUP3 DUP5 SUB SLT ISZERO PUSH2 0x858 JUMPI PUSH2 0x857 PUSH2 0x47F JUMP JUMPDEST JUMPDEST PUSH1 0x0 DUP3 ADD CALLDATALOAD PUSH8 0xFFFFFFFFFFFFFFFF DUP2 GT ISZERO PUSH2 0x876 JUMPI PUSH2 0x875 PUSH2 0x484 JUMP JUMPDEST JUMPDEST PUSH2 0x882 DUP5 DUP3 DUP6 ADD PUSH2 0x5A1 JUMP JUMPDEST SWAP2 POP POP SWAP3 SWAP2 POP POP JUMP JUMPDEST PUSH1 0x0 DUP2 MLOAD SWAP1 POP SWAP2 SWAP1 POP JUMP JUMPDEST PUSH1 0x0 DUP2 SWAP1 POP SWAP3 SWAP2 POP POP JUMP JUMPDEST PUSH1 0x0 JUMPDEST DUP4 DUP2 LT ISZERO PUSH2 0x8BF JUMPI DUP1 DUP3 ADD MLOAD DUP2 DUP5 ADD MSTORE PUSH1 0x20 DUP2 ADD SWAP1 POP PUSH2 0x8A4 JUMP JUMPDEST PUSH1 0x0 DUP5 DUP5 ADD MSTORE POP POP POP POP JUMP JUMPDEST PUSH1 0x0 PUSH2 0x8D6 DUP3 PUSH2 0x88B JUMP JUMPDEST PUSH2 0x8E0 DUP2 DUP6 PUSH2 0x896 JUMP JUMPDEST SWAP4 POP PUSH2 0x8F0 DUP2 DUP6 PUSH1 0x20 DUP7 ADD PUSH2 0x8A1 JUMP JUMPDEST DUP1 DUP5 ADD SWAP2 POP POP SWAP3 SWAP2 POP POP JUMP JUMPDEST PUSH1 0x0 PUSH2 0x908 DUP3 DUP5 PUSH2 0x8CB JUMP JUMPDEST SWAP2 POP DUP2 SWAP1 POP SWAP3 SWAP2 POP POP JUMP JUMPDEST PUSH1 0x0 PUSH1 0x80 DUP3 ADD SWAP1 POP PUSH2 0x928 PUSH1 0x0 DUP4 ADD DUP8 PUSH2 0x44B JUMP JUMPDEST PUSH2 0x935 PUSH1 0x20 DUP4 ADD DUP7 PUSH2 0x7FC JUMP JUMPDEST PUSH2 0x942 PUSH1 0x40 DUP4 ADD DUP6 PUSH2 0x44B JUMP JUMPDEST PUSH2 0x94F PUSH1 0x60 DUP4 ADD DUP5 PUSH2 0x44B JUMP JUMPDEST SWAP6 SWAP5 POP POP POP POP POP JUMP INVALID LOG2 PUSH5 0x6970667358 0x22 SLT KECCAK256 0xE5 EXTCODESIZE 0xCF SWAP13 0xBD PUSH27 0x47AF6BEE15A6E9A75AABCF8501FABF5DD52F8787A1BDFA596B9464 PUSH20 0x6F6C634300081100330000000000000000000000 "
				},
				"gasEstimates": {
					"creation": {
						"codeDepositCost": "489200",
						"executionCost": "infinite",
						"totalCost": "infinite"
					},
					"external": {
						"importantAddress()": "2512",
						"isValidData(string,bytes)": "infinite",
						"isValidData2(string,bytes)": "infinite",
						"messg()": "2452",
						"msgR(string)": "infinite",
						"recoverSigner(bytes32,bytes)": "infinite",
						"splitSignature(bytes)": "infinite"
					}
				},
				"methodIdentifiers": {
					"importantAddress()": "1398b444",
					"isValidData(string,bytes)": "adb41f75",
					"isValidData2(string,bytes)": "751466a8",
					"messg()": "71524b93",
					"msgR(string)": "b4604750",
					"recoverSigner(bytes32,bytes)": "97aba7f9",
					"splitSignature(bytes)": "a7bb5803"
				}
			},
			"storageLayout": {
				"storage": [
					{
						"astId": 3,
						"contract": "contract-442812f524.sol:Verify",
						"label": "importantAddress",
						"offset": 0,
						"slot": "0",
						"type": "t_address"
					},
					{
						"astId": 5,
						"contract": "contract-442812f524.sol:Verify",
						"label": "messg",
						"offset": 0,
						"slot": "1",
						"type": "t_bytes32"
					}
				],
				"types": {
					"t_address": {
						"encoding": "inplace",
						"label": "address",
						"numberOfBytes": "20"
					},
					"t_bytes32": {
						"encoding": "inplace",
						"label": "bytes32",
						"numberOfBytes": "32"
					}
				}
			},
			"userdoc": {
				"kind": "user",
				"methods": {},
				"version": 1
			}
		}
	}
}