{
	"a.sol": {
		"ballot": {
			"abi": [
				{
					"constant": true,
					"inputs": [],
					"name": "MAX",
					"outputs": [
						{
							"internalType": "uint256",
							"name": "",
							"type": "uint256"
						}
					],
					"payable": false,
					"stateMutability": "view",
					"type": "function"
				},
				{
					"constant": true,
					"inputs": [],
					"name": "g",
					"outputs": [
						{
							"internalType": "uint256",
							"name": "",
							"type": "uint256"
						}
					],
					"payable": false,
					"stateMutability": "view",
					"type": "function"
				}
			],
			"devdoc": {
				"methods": {}
			},
			"evm": {
				"assembly": "    /* \"a.sol\":24:458  contract ballot {... */\n  mstore(0x40, 0x80)\n  callvalue\n    /* \"--CODEGEN--\":8:17   */\n  dup1\n    /* \"--CODEGEN--\":5:7   */\n  iszero\n  tag_1\n  jumpi\n    /* \"--CODEGEN--\":30:31   */\n  0x00\n    /* \"--CODEGEN--\":27:28   */\n  dup1\n    /* \"--CODEGEN--\":20:32   */\n  revert\n    /* \"--CODEGEN--\":5:7   */\ntag_1:\n    /* \"a.sol\":24:458  contract ballot {... */\n  pop\n  dataSize(sub_0)\n  dup1\n  dataOffset(sub_0)\n  0x00\n  codecopy\n  0x00\n  return\nstop\n\nsub_0: assembly {\n        /* \"a.sol\":24:458  contract ballot {... */\n      mstore(0x40, 0x80)\n      callvalue\n        /* \"--CODEGEN--\":8:17   */\n      dup1\n        /* \"--CODEGEN--\":5:7   */\n      iszero\n      tag_1\n      jumpi\n        /* \"--CODEGEN--\":30:31   */\n      0x00\n        /* \"--CODEGEN--\":27:28   */\n      dup1\n        /* \"--CODEGEN--\":20:32   */\n      revert\n        /* \"--CODEGEN--\":5:7   */\n    tag_1:\n        /* \"a.sol\":24:458  contract ballot {... */\n      pop\n      jumpi(tag_2, lt(calldatasize, 0x04))\n      shr(0xe0, calldataload(0x00))\n      dup1\n      0xd49d5181\n      eq\n      tag_3\n      jumpi\n      dup1\n      0xe2179b8e\n      eq\n      tag_4\n      jumpi\n    tag_2:\n      0x00\n      dup1\n      revert\n        /* \"a.sol\":143:184  uint256 public constant MAX = ~uint256(0) */\n    tag_3:\n      tag_5\n      tag_6\n      jump\t// in\n    tag_5:\n      mload(0x40)\n      dup1\n      dup3\n      dup2\n      mstore\n      0x20\n      add\n      swap2\n      pop\n      pop\n      mload(0x40)\n      dup1\n      swap2\n      sub\n      swap1\n      return\n        /* \"a.sol\":239:306  function g()public pure returns(uint256){... */\n    tag_4:\n      tag_7\n      tag_8\n      jump\t// in\n    tag_7:\n      mload(0x40)\n      dup1\n      dup3\n      dup2\n      mstore\n      0x20\n      add\n      swap2\n      pop\n      pop\n      mload(0x40)\n      dup1\n      swap2\n      sub\n      swap1\n      return\n        /* \"a.sol\":143:184  uint256 public constant MAX = ~uint256(0) */\n    tag_6:\n        /* \"a.sol\":182:183  0 */\n      0x00\n        /* \"a.sol\":173:184  ~uint256(0) */\n      not\n        /* \"a.sol\":143:184  uint256 public constant MAX = ~uint256(0) */\n      dup2\n      jump\t// out\n        /* \"a.sol\":239:306  function g()public pure returns(uint256){... */\n    tag_8:\n        /* \"a.sol\":271:278  uint256 */\n      0x00\n        /* \"a.sol\":182:183  0 */\n      dup1\n        /* \"a.sol\":173:184  ~uint256(0) */\n      not\n        /* \"a.sol\":289:299  return MAX */\n      swap1\n      pop\n        /* \"a.sol\":239:306  function g()public pure returns(uint256){... */\n      swap1\n      jump\t// out\n\n    auxdata: 0xa265627a7a723158205d582d09b58dbefc1afff4e6892a69bdceb3354614a0bdeb6cdeb79398e8d30b64736f6c63430005110032\n}\n",
				"bytecode": {
					"linkReferences": {},
					"object": "608060405234801561001057600080fd5b5060b38061001f6000396000f3fe6080604052348015600f57600080fd5b506004361060325760003560e01c8063d49d5181146037578063e2179b8e146053575b600080fd5b603d606f565b6040518082815260200191505060405180910390f35b60596075565b6040518082815260200191505060405180910390f35b60001981565b6000801990509056fea265627a7a723158205d582d09b58dbefc1afff4e6892a69bdceb3354614a0bdeb6cdeb79398e8d30b64736f6c63430005110032",
					"opcodes": "PUSH1 0x80 PUSH1 0x40 MSTORE CALLVALUE DUP1 ISZERO PUSH2 0x10 JUMPI PUSH1 0x0 DUP1 REVERT JUMPDEST POP PUSH1 0xB3 DUP1 PUSH2 0x1F PUSH1 0x0 CODECOPY PUSH1 0x0 RETURN INVALID PUSH1 0x80 PUSH1 0x40 MSTORE CALLVALUE DUP1 ISZERO PUSH1 0xF JUMPI PUSH1 0x0 DUP1 REVERT JUMPDEST POP PUSH1 0x4 CALLDATASIZE LT PUSH1 0x32 JUMPI PUSH1 0x0 CALLDATALOAD PUSH1 0xE0 SHR DUP1 PUSH4 0xD49D5181 EQ PUSH1 0x37 JUMPI DUP1 PUSH4 0xE2179B8E EQ PUSH1 0x53 JUMPI JUMPDEST PUSH1 0x0 DUP1 REVERT JUMPDEST PUSH1 0x3D PUSH1 0x6F JUMP JUMPDEST PUSH1 0x40 MLOAD DUP1 DUP3 DUP2 MSTORE PUSH1 0x20 ADD SWAP2 POP POP PUSH1 0x40 MLOAD DUP1 SWAP2 SUB SWAP1 RETURN JUMPDEST PUSH1 0x59 PUSH1 0x75 JUMP JUMPDEST PUSH1 0x40 MLOAD DUP1 DUP3 DUP2 MSTORE PUSH1 0x20 ADD SWAP2 POP POP PUSH1 0x40 MLOAD DUP1 SWAP2 SUB SWAP1 RETURN JUMPDEST PUSH1 0x0 NOT DUP2 JUMP JUMPDEST PUSH1 0x0 DUP1 NOT SWAP1 POP SWAP1 JUMP INVALID LOG2 PUSH6 0x627A7A723158 KECCAK256 0x5D PC 0x2D MULMOD 0xB5 DUP14 0xBE 0xFC BYTE SELFDESTRUCT DELEGATECALL 0xE6 DUP10 0x2A PUSH10 0xBDCEB3354614A0BDEB6C 0xDE 0xB7 SWAP4 SWAP9 0xE8 0xD3 SIGNEXTEND PUSH5 0x736F6C6343 STOP SDIV GT STOP ORIGIN "
				},
				"gasEstimates": {
					"creation": {
						"codeDepositCost": "35800",
						"executionCost": "87",
						"totalCost": "35887"
					},
					"external": {
						"MAX()": "186",
						"g()": "216"
					}
				},
				"methodIdentifiers": {
					"MAX()": "d49d5181",
					"g()": "e2179b8e"
				}
			},
			"storageLayout": {
				"storage": [
					{
						"astId": 8,
						"contract": "a.sol:ballot",
						"label": "voter",
						"offset": 0,
						"slot": "0",
						"type": "t_mapping(t_address,t_struct(vote)4_storage)"
					}
				],
				"types": {
					"t_address": {
						"encoding": "inplace",
						"label": "address",
						"numberOfBytes": "20"
					},
					"t_bytes32": {
						"encoding": "inplace",
						"label": "bytes32",
						"numberOfBytes": "32"
					},
					"t_mapping(t_address,t_struct(vote)4_storage)": {
						"encoding": "mapping",
						"key": "t_address",
						"label": "mapping(address => struct ballot.vote)",
						"numberOfBytes": "32",
						"value": "t_struct(vote)4_storage"
					},
					"t_struct(vote)4_storage": {
						"encoding": "inplace",
						"label": "struct ballot.vote",
						"members": [
							{
								"astId": 3,
								"contract": "a.sol:ballot",
								"label": "prop",
								"offset": 0,
								"slot": "0",
								"type": "t_bytes32"
							}
						],
						"numberOfBytes": "32"
					}
				}
			},
			"userdoc": {
				"methods": {}
			}
		}
	}
}