{
	"contract-442812f524.sol": {
		"Verify": {
			"abi": [
				{
					"inputs": [
						{
							"internalType": "address",
							"name": "_importantAddress",
							"type": "address"
						}
					],
					"stateMutability": "nonpayable",
					"type": "constructor"
				},
				{
					"inputs": [
						{
							"internalType": "string",
							"name": "_word",
							"type": "string"
						},
						{
							"internalType": "bytes",
							"name": "sig",
							"type": "bytes"
						}
					],
					"name": "isValidData",
					"outputs": [
						{
							"internalType": "bool",
							"name": "",
							"type": "bool"
						}
					],
					"stateMutability": "view",
					"type": "function"
				},
				{
					"inputs": [],
					"name": "msgR",
					"outputs": [
						{
							"internalType": "bytes32",
							"name": "",
							"type": "bytes32"
						}
					],
					"stateMutability": "view",
					"type": "function"
				},
				{
					"inputs": [
						{
							"internalType": "string",
							"name": "_w",
							"type": "string"
						}
					],
					"name": "msgRR",
					"outputs": [
						{
							"internalType": "bytes32",
							"name": "",
							"type": "bytes32"
						}
					],
					"stateMutability": "nonpayable",
					"type": "function"
				},
				{
					"inputs": [
						{
							"internalType": "bytes32",
							"name": "message",
							"type": "bytes32"
						},
						{
							"internalType": "bytes",
							"name": "sig",
							"type": "bytes"
						}
					],
					"name": "recoverSigner",
					"outputs": [
						{
							"internalType": "address",
							"name": "",
							"type": "address"
						}
					],
					"stateMutability": "pure",
					"type": "function"
				},
				{
					"inputs": [
						{
							"internalType": "bytes",
							"name": "sig",
							"type": "bytes"
						}
					],
					"name": "splitSignature",
					"outputs": [
						{
							"internalType": "uint8",
							"name": "",
							"type": "uint8"
						},
						{
							"internalType": "bytes32",
							"name": "",
							"type": "bytes32"
						},
						{
							"internalType": "bytes32",
							"name": "",
							"type": "bytes32"
						}
					],
					"stateMutability": "pure",
					"type": "function"
				}
			],
			"devdoc": {
				"kind": "dev",
				"methods": {},
				"version": 1
			},
			"evm": {
				"assembly": "    /* \"contract-442812f524.sol\":58:1373  contract Verify {... */\n  mstore(0x40, 0x80)\n    /* \"contract-442812f524.sol\":134:225  constructor (address _importantAddress) {... */\n  callvalue\n  dup1\n  iszero\n  tag_1\n  jumpi\n  0x00\n  dup1\n  revert\ntag_1:\n  pop\n  mload(0x40)\n  sub(codesize, bytecodeSize)\n  dup1\n  bytecodeSize\n  dup4\n  codecopy\n  dup2\n  dup2\n  add\n  0x40\n  mstore\n  dup2\n  add\n  swap1\n  tag_2\n  swap2\n  swap1\n  tag_3\n  jump\t// in\ntag_2:\n    /* \"contract-442812f524.sol\":202:219  _importantAddress */\n  dup1\n    /* \"contract-442812f524.sol\":183:199  importantAddress */\n  0x00\n  dup1\n    /* \"contract-442812f524.sol\":183:219  importantAddress = _importantAddress */\n  0x0100\n  exp\n  dup2\n  sload\n  dup2\n  0xffffffffffffffffffffffffffffffffffffffff\n  mul\n  not\n  and\n  swap1\n  dup4\n  0xffffffffffffffffffffffffffffffffffffffff\n  and\n  mul\n  or\n  swap1\n  sstore\n  pop\n    /* \"contract-442812f524.sol\":134:225  constructor (address _importantAddress) {... */\n  pop\n    /* \"contract-442812f524.sol\":58:1373  contract Verify {... */\n  jump(tag_6)\n    /* \"#utility.yul\":88:205   */\ntag_8:\n    /* \"#utility.yul\":197:198   */\n  0x00\n    /* \"#utility.yul\":194:195   */\n  dup1\n    /* \"#utility.yul\":187:199   */\n  revert\n    /* \"#utility.yul\":334:460   */\ntag_10:\n    /* \"#utility.yul\":371:378   */\n  0x00\n    /* \"#utility.yul\":411:453   */\n  0xffffffffffffffffffffffffffffffffffffffff\n    /* \"#utility.yul\":404:409   */\n  dup3\n    /* \"#utility.yul\":400:454   */\n  and\n    /* \"#utility.yul\":389:454   */\n  swap1\n  pop\n    /* \"#utility.yul\":334:460   */\n  swap2\n  swap1\n  pop\n  jump\t// out\n    /* \"#utility.yul\":466:562   */\ntag_11:\n    /* \"#utility.yul\":503:510   */\n  0x00\n    /* \"#utility.yul\":532:556   */\n  tag_20\n    /* \"#utility.yul\":550:555   */\n  dup3\n    /* \"#utility.yul\":532:556   */\n  tag_10\n  jump\t// in\ntag_20:\n    /* \"#utility.yul\":521:556   */\n  swap1\n  pop\n    /* \"#utility.yul\":466:562   */\n  swap2\n  swap1\n  pop\n  jump\t// out\n    /* \"#utility.yul\":568:690   */\ntag_12:\n    /* \"#utility.yul\":641:665   */\n  tag_22\n    /* \"#utility.yul\":659:664   */\n  dup2\n    /* \"#utility.yul\":641:665   */\n  tag_11\n  jump\t// in\ntag_22:\n    /* \"#utility.yul\":634:639   */\n  dup2\n    /* \"#utility.yul\":631:666   */\n  eq\n    /* \"#utility.yul\":621:684   */\n  tag_23\n  jumpi\n    /* \"#utility.yul\":680:681   */\n  0x00\n    /* \"#utility.yul\":677:678   */\n  dup1\n    /* \"#utility.yul\":670:682   */\n  revert\n    /* \"#utility.yul\":621:684   */\ntag_23:\n    /* \"#utility.yul\":568:690   */\n  pop\n  jump\t// out\n    /* \"#utility.yul\":696:839   */\ntag_13:\n    /* \"#utility.yul\":753:758   */\n  0x00\n    /* \"#utility.yul\":784:790   */\n  dup2\n    /* \"#utility.yul\":778:791   */\n  mload\n    /* \"#utility.yul\":769:791   */\n  swap1\n  pop\n    /* \"#utility.yul\":800:833   */\n  tag_25\n    /* \"#utility.yul\":827:832   */\n  dup2\n    /* \"#utility.yul\":800:833   */\n  tag_12\n  jump\t// in\ntag_25:\n    /* \"#utility.yul\":696:839   */\n  swap3\n  swap2\n  pop\n  pop\n  jump\t// out\n    /* \"#utility.yul\":845:1196   */\ntag_3:\n    /* \"#utility.yul\":915:921   */\n  0x00\n    /* \"#utility.yul\":964:966   */\n  0x20\n    /* \"#utility.yul\":952:961   */\n  dup3\n    /* \"#utility.yul\":943:950   */\n  dup5\n    /* \"#utility.yul\":939:962   */\n  sub\n    /* \"#utility.yul\":935:967   */\n  slt\n    /* \"#utility.yul\":932:1051   */\n  iszero\n  tag_27\n  jumpi\n    /* \"#utility.yul\":970:1049   */\n  tag_28\n  tag_8\n  jump\t// in\ntag_28:\n    /* \"#utility.yul\":932:1051   */\ntag_27:\n    /* \"#utility.yul\":1090:1091   */\n  0x00\n    /* \"#utility.yul\":1115:1179   */\n  tag_29\n    /* \"#utility.yul\":1171:1178   */\n  dup5\n    /* \"#utility.yul\":1162:1168   */\n  dup3\n    /* \"#utility.yul\":1151:1160   */\n  dup6\n    /* \"#utility.yul\":1147:1169   */\n  add\n    /* \"#utility.yul\":1115:1179   */\n  tag_13\n  jump\t// in\ntag_29:\n    /* \"#utility.yul\":1105:1179   */\n  swap2\n  pop\n    /* \"#utility.yul\":1061:1189   */\n  pop\n    /* \"#utility.yul\":845:1196   */\n  swap3\n  swap2\n  pop\n  pop\n  jump\t// out\n    /* \"contract-442812f524.sol\":58:1373  contract Verify {... */\ntag_6:\n  dataSize(sub_0)\n  dup1\n  dataOffset(sub_0)\n  0x00\n  codecopy\n  0x00\n  return\nstop\n\nsub_0: assembly {\n        /* \"contract-442812f524.sol\":58:1373  contract Verify {... */\n      mstore(0x40, 0x80)\n      callvalue\n      dup1\n      iszero\n      tag_1\n      jumpi\n      0x00\n      dup1\n      revert\n    tag_1:\n      pop\n      jumpi(tag_2, lt(calldatasize, 0x04))\n      shr(0xe0, calldataload(0x00))\n      dup1\n      0x4a719623\n      eq\n      tag_3\n      jumpi\n      dup1\n      0x97aba7f9\n      eq\n      tag_4\n      jumpi\n      dup1\n      0x9ac71bde\n      eq\n      tag_5\n      jumpi\n      dup1\n      0xa7bb5803\n      eq\n      tag_6\n      jumpi\n      dup1\n      0xadb41f75\n      eq\n      tag_7\n      jumpi\n    tag_2:\n      0x00\n      dup1\n      revert\n        /* \"contract-442812f524.sol\":110:129  bytes32 public msgR */\n    tag_3:\n      tag_8\n      tag_9\n      jump\t// in\n    tag_8:\n      mload(0x40)\n      tag_10\n      swap2\n      swap1\n      tag_11\n      jump\t// in\n    tag_10:\n      mload(0x40)\n      dup1\n      swap2\n      sub\n      swap1\n      return\n        /* \"contract-442812f524.sol\":592:847  function recoverSigner(bytes32 message, bytes memory sig)... */\n    tag_4:\n      tag_12\n      0x04\n      dup1\n      calldatasize\n      sub\n      dup2\n      add\n      swap1\n      tag_13\n      swap2\n      swap1\n      tag_14\n      jump\t// in\n    tag_13:\n      tag_15\n      jump\t// in\n    tag_12:\n      mload(0x40)\n      tag_16\n      swap2\n      swap1\n      tag_17\n      jump\t// in\n    tag_16:\n      mload(0x40)\n      dup1\n      swap2\n      sub\n      swap1\n      return\n        /* \"contract-442812f524.sol\":233:366  function msgRR(string memory _w) public returns(bytes32){... */\n    tag_5:\n      tag_18\n      0x04\n      dup1\n      calldatasize\n      sub\n      dup2\n      add\n      swap1\n      tag_19\n      swap2\n      swap1\n      tag_20\n      jump\t// in\n    tag_19:\n      tag_21\n      jump\t// in\n    tag_18:\n      mload(0x40)\n      tag_22\n      swap2\n      swap1\n      tag_11\n      jump\t// in\n    tag_22:\n      mload(0x40)\n      dup1\n      swap2\n      sub\n      swap1\n      return\n        /* \"contract-442812f524.sol\":851:1371  function splitSignature(bytes memory sig)... */\n    tag_6:\n      tag_23\n      0x04\n      dup1\n      calldatasize\n      sub\n      dup2\n      add\n      swap1\n      tag_24\n      swap2\n      swap1\n      tag_25\n      jump\t// in\n    tag_24:\n      tag_26\n      jump\t// in\n    tag_23:\n      mload(0x40)\n      tag_27\n      swap4\n      swap3\n      swap2\n      swap1\n      tag_28\n      jump\t// in\n    tag_27:\n      mload(0x40)\n      dup1\n      swap2\n      sub\n      swap1\n      return\n        /* \"contract-442812f524.sol\":370:588  function isValidData(string memory _word, bytes memory sig) public view returns(bool){... */\n    tag_7:\n      tag_29\n      0x04\n      dup1\n      calldatasize\n      sub\n      dup2\n      add\n      swap1\n      tag_30\n      swap2\n      swap1\n      tag_31\n      jump\t// in\n    tag_30:\n      tag_32\n      jump\t// in\n    tag_29:\n      mload(0x40)\n      tag_33\n      swap2\n      swap1\n      tag_34\n      jump\t// in\n    tag_33:\n      mload(0x40)\n      dup1\n      swap2\n      sub\n      swap1\n      return\n        /* \"contract-442812f524.sol\":110:129  bytes32 public msgR */\n    tag_9:\n      sload(0x01)\n      dup2\n      jump\t// out\n        /* \"contract-442812f524.sol\":592:847  function recoverSigner(bytes32 message, bytes memory sig)... */\n    tag_15:\n        /* \"contract-442812f524.sol\":692:699  address */\n      0x00\n        /* \"contract-442812f524.sol\":715:722  uint8 v */\n      dup1\n        /* \"contract-442812f524.sol\":731:740  bytes32 r */\n      0x00\n        /* \"contract-442812f524.sol\":749:758  bytes32 s */\n      dup1\n        /* \"contract-442812f524.sol\":779:798  splitSignature(sig) */\n      tag_36\n        /* \"contract-442812f524.sol\":794:797  sig */\n      dup6\n        /* \"contract-442812f524.sol\":779:793  splitSignature */\n      tag_26\n        /* \"contract-442812f524.sol\":779:798  splitSignature(sig) */\n      jump\t// in\n    tag_36:\n        /* \"contract-442812f524.sol\":767:798  (v, r, s) = splitSignature(sig) */\n      dup1\n      swap4\n      pop\n      dup2\n      swap5\n      pop\n      dup3\n      swap6\n      pop\n      pop\n      pop\n      pop\n        /* \"contract-442812f524.sol\":814:841  ecrecover(message, v, r, s) */\n      0x01\n        /* \"contract-442812f524.sol\":824:831  message */\n      dup7\n        /* \"contract-442812f524.sol\":833:834  v */\n      dup5\n        /* \"contract-442812f524.sol\":836:837  r */\n      dup5\n        /* \"contract-442812f524.sol\":839:840  s */\n      dup5\n        /* \"contract-442812f524.sol\":814:841  ecrecover(message, v, r, s) */\n      mload(0x40)\n      0x00\n      dup2\n      mstore\n      0x20\n      add\n      0x40\n      mstore\n      mload(0x40)\n      tag_37\n      swap5\n      swap4\n      swap3\n      swap2\n      swap1\n      tag_38\n      jump\t// in\n    tag_37:\n      0x20\n      mload(0x40)\n      0x20\n      dup2\n      sub\n      swap1\n      dup1\n      dup5\n      sub\n      swap1\n      dup6\n      gas\n      staticcall\n      iszero\n      dup1\n      iszero\n      tag_40\n      jumpi\n      returndatasize\n      0x00\n      dup1\n      returndatacopy\n      revert(0x00, returndatasize)\n    tag_40:\n      pop\n      pop\n      pop\n      mload(sub(mload(0x40), 0x20))\n        /* \"contract-442812f524.sol\":807:841  return ecrecover(message, v, r, s) */\n      swap4\n      pop\n      pop\n      pop\n      pop\n        /* \"contract-442812f524.sol\":592:847  function recoverSigner(bytes32 message, bytes memory sig)... */\n      swap3\n      swap2\n      pop\n      pop\n      jump\t// out\n        /* \"contract-442812f524.sol\":233:366  function msgRR(string memory _w) public returns(bytes32){... */\n    tag_21:\n        /* \"contract-442812f524.sol\":281:288  bytes32 */\n      0x00\n        /* \"contract-442812f524.sol\":334:336  _w */\n      dup2\n        /* \"contract-442812f524.sol\":316:337  abi.encodePacked( _w) */\n      add(0x20, mload(0x40))\n      tag_42\n      swap2\n      swap1\n      tag_43\n      jump\t// in\n    tag_42:\n      mload(0x40)\n      0x20\n      dup2\n      dup4\n      sub\n      sub\n      dup2\n      mstore\n      swap1\n      0x40\n      mstore\n        /* \"contract-442812f524.sol\":306:338  keccak256(abi.encodePacked( _w)) */\n      dup1\n      mload\n      swap1\n      0x20\n      add\n      keccak256\n        /* \"contract-442812f524.sol\":299:303  msgR */\n      0x01\n        /* \"contract-442812f524.sol\":299:338  msgR = keccak256(abi.encodePacked( _w)) */\n      dup2\n      swap1\n      sstore\n      pop\n        /* \"contract-442812f524.sol\":355:359  msgR */\n      sload(0x01)\n        /* \"contract-442812f524.sol\":348:359  return msgR */\n      swap1\n      pop\n        /* \"contract-442812f524.sol\":233:366  function msgRR(string memory _w) public returns(bytes32){... */\n      swap2\n      swap1\n      pop\n      jump\t// out\n        /* \"contract-442812f524.sol\":851:1371  function splitSignature(bytes memory sig)... */\n    tag_26:\n        /* \"contract-442812f524.sol\":935:940  uint8 */\n      0x00\n        /* \"contract-442812f524.sol\":942:949  bytes32 */\n      dup1\n        /* \"contract-442812f524.sol\":951:958  bytes32 */\n      0x00\n        /* \"contract-442812f524.sol\":996:998  65 */\n      0x41\n        /* \"contract-442812f524.sol\":982:985  sig */\n      dup5\n        /* \"contract-442812f524.sol\":982:992  sig.length */\n      mload\n        /* \"contract-442812f524.sol\":982:998  sig.length == 65 */\n      eq\n        /* \"contract-442812f524.sol\":974:999  require(sig.length == 65) */\n      tag_45\n      jumpi\n      0x00\n      dup1\n      revert\n    tag_45:\n        /* \"contract-442812f524.sol\":1008:1017  bytes32 r */\n      0x00\n        /* \"contract-442812f524.sol\":1026:1035  bytes32 s */\n      dup1\n        /* \"contract-442812f524.sol\":1044:1051  uint8 v */\n      0x00\n        /* \"contract-442812f524.sol\":1156:1158  32 */\n      0x20\n        /* \"contract-442812f524.sol\":1151:1154  sig */\n      dup8\n        /* \"contract-442812f524.sol\":1147:1159  add(sig, 32) */\n      add\n        /* \"contract-442812f524.sol\":1141:1160  mload(add(sig, 32)) */\n      mload\n        /* \"contract-442812f524.sol\":1136:1160  r := mload(add(sig, 32)) */\n      swap3\n      pop\n        /* \"contract-442812f524.sol\":1222:1224  64 */\n      0x40\n        /* \"contract-442812f524.sol\":1217:1220  sig */\n      dup8\n        /* \"contract-442812f524.sol\":1213:1225  add(sig, 64) */\n      add\n        /* \"contract-442812f524.sol\":1207:1226  mload(add(sig, 64)) */\n      mload\n        /* \"contract-442812f524.sol\":1202:1226  s := mload(add(sig, 64)) */\n      swap2\n      pop\n        /* \"contract-442812f524.sol\":1325:1327  96 */\n      0x60\n        /* \"contract-442812f524.sol\":1320:1323  sig */\n      dup8\n        /* \"contract-442812f524.sol\":1316:1328  add(sig, 96) */\n      add\n        /* \"contract-442812f524.sol\":1310:1329  mload(add(sig, 96)) */\n      mload\n        /* \"contract-442812f524.sol\":1307:1308  0 */\n      0x00\n        /* \"contract-442812f524.sol\":1302:1330  byte(0, mload(add(sig, 96))) */\n      byte\n        /* \"contract-442812f524.sol\":1297:1330  v := byte(0, mload(add(sig, 96))) */\n      swap1\n      pop\n        /* \"contract-442812f524.sol\":1357:1358  v */\n      dup1\n        /* \"contract-442812f524.sol\":1360:1361  r */\n      dup4\n        /* \"contract-442812f524.sol\":1363:1364  s */\n      dup4\n        /* \"contract-442812f524.sol\":1349:1365  return (v, r, s) */\n      swap6\n      pop\n      swap6\n      pop\n      swap6\n      pop\n      pop\n      pop\n      pop\n        /* \"contract-442812f524.sol\":851:1371  function splitSignature(bytes memory sig)... */\n      swap2\n      swap4\n      swap1\n      swap3\n      pop\n      jump\t// out\n        /* \"contract-442812f524.sol\":370:588  function isValidData(string memory _word, bytes memory sig) public view returns(bool){... */\n    tag_32:\n        /* \"contract-442812f524.sol\":450:454  bool */\n      0x00\n        /* \"contract-442812f524.sol\":464:479  bytes32 message */\n      dup1\n        /* \"contract-442812f524.sol\":510:515  _word */\n      dup4\n        /* \"contract-442812f524.sol\":492:516  abi.encodePacked( _word) */\n      add(0x20, mload(0x40))\n      tag_47\n      swap2\n      swap1\n      tag_43\n      jump\t// in\n    tag_47:\n      mload(0x40)\n      0x20\n      dup2\n      dup4\n      sub\n      sub\n      dup2\n      mstore\n      swap1\n      0x40\n      mstore\n        /* \"contract-442812f524.sol\":482:517  keccak256(abi.encodePacked( _word)) */\n      dup1\n      mload\n      swap1\n      0x20\n      add\n      keccak256\n        /* \"contract-442812f524.sol\":464:517  bytes32 message = keccak256(abi.encodePacked( _word)) */\n      swap1\n      pop\n        /* \"contract-442812f524.sol\":565:581  importantAddress */\n      0x00\n      dup1\n      sload\n      swap1\n      0x0100\n      exp\n      swap1\n      div\n      0xffffffffffffffffffffffffffffffffffffffff\n      and\n        /* \"contract-442812f524.sol\":534:581  recoverSigner(message, sig) == importantAddress */\n      0xffffffffffffffffffffffffffffffffffffffff\n      and\n        /* \"contract-442812f524.sol\":534:561  recoverSigner(message, sig) */\n      tag_48\n        /* \"contract-442812f524.sol\":548:555  message */\n      dup3\n        /* \"contract-442812f524.sol\":557:560  sig */\n      dup6\n        /* \"contract-442812f524.sol\":534:547  recoverSigner */\n      tag_15\n        /* \"contract-442812f524.sol\":534:561  recoverSigner(message, sig) */\n      jump\t// in\n    tag_48:\n        /* \"contract-442812f524.sol\":534:581  recoverSigner(message, sig) == importantAddress */\n      0xffffffffffffffffffffffffffffffffffffffff\n      and\n      eq\n        /* \"contract-442812f524.sol\":526:582  return (recoverSigner(message, sig) == importantAddress) */\n      swap2\n      pop\n      pop\n        /* \"contract-442812f524.sol\":370:588  function isValidData(string memory _word, bytes memory sig) public view returns(bool){... */\n      swap3\n      swap2\n      pop\n      pop\n      jump\t// out\n        /* \"#utility.yul\":7:84   */\n    tag_49:\n        /* \"#utility.yul\":44:51   */\n      0x00\n        /* \"#utility.yul\":73:78   */\n      dup2\n        /* \"#utility.yul\":62:78   */\n      swap1\n      pop\n        /* \"#utility.yul\":7:84   */\n      swap2\n      swap1\n      pop\n      jump\t// out\n        /* \"#utility.yul\":90:208   */\n    tag_50:\n        /* \"#utility.yul\":177:201   */\n      tag_83\n        /* \"#utility.yul\":195:200   */\n      dup2\n        /* \"#utility.yul\":177:201   */\n      tag_49\n      jump\t// in\n    tag_83:\n        /* \"#utility.yul\":172:175   */\n      dup3\n        /* \"#utility.yul\":165:202   */\n      mstore\n        /* \"#utility.yul\":90:208   */\n      pop\n      pop\n      jump\t// out\n        /* \"#utility.yul\":214:436   */\n    tag_11:\n        /* \"#utility.yul\":307:311   */\n      0x00\n        /* \"#utility.yul\":345:347   */\n      0x20\n        /* \"#utility.yul\":334:343   */\n      dup3\n        /* \"#utility.yul\":330:348   */\n      add\n        /* \"#utility.yul\":322:348   */\n      swap1\n      pop\n        /* \"#utility.yul\":358:429   */\n      tag_85\n        /* \"#utility.yul\":426:427   */\n      0x00\n        /* \"#utility.yul\":415:424   */\n      dup4\n        /* \"#utility.yul\":411:428   */\n      add\n        /* \"#utility.yul\":402:408   */\n      dup5\n        /* \"#utility.yul\":358:429   */\n      tag_50\n      jump\t// in\n    tag_85:\n        /* \"#utility.yul\":214:436   */\n      swap3\n      swap2\n      pop\n      pop\n      jump\t// out\n        /* \"#utility.yul\":442:517   */\n    tag_51:\n        /* \"#utility.yul\":475:481   */\n      0x00\n        /* \"#utility.yul\":508:510   */\n      0x40\n        /* \"#utility.yul\":502:511   */\n      mload\n        /* \"#utility.yul\":492:511   */\n      swap1\n      pop\n        /* \"#utility.yul\":442:517   */\n      swap1\n      jump\t// out\n        /* \"#utility.yul\":523:640   */\n    tag_52:\n        /* \"#utility.yul\":632:633   */\n      0x00\n        /* \"#utility.yul\":629:630   */\n      dup1\n        /* \"#utility.yul\":622:634   */\n      revert\n        /* \"#utility.yul\":646:763   */\n    tag_53:\n        /* \"#utility.yul\":755:756   */\n      0x00\n        /* \"#utility.yul\":752:753   */\n      dup1\n        /* \"#utility.yul\":745:757   */\n      revert\n        /* \"#utility.yul\":769:891   */\n    tag_54:\n        /* \"#utility.yul\":842:866   */\n      tag_90\n        /* \"#utility.yul\":860:865   */\n      dup2\n        /* \"#utility.yul\":842:866   */\n      tag_49\n      jump\t// in\n    tag_90:\n        /* \"#utility.yul\":835:840   */\n      dup2\n        /* \"#utility.yul\":832:867   */\n      eq\n        /* \"#utility.yul\":822:885   */\n      tag_91\n      jumpi\n        /* \"#utility.yul\":881:882   */\n      0x00\n        /* \"#utility.yul\":878:879   */\n      dup1\n        /* \"#utility.yul\":871:883   */\n      revert\n        /* \"#utility.yul\":822:885   */\n    tag_91:\n        /* \"#utility.yul\":769:891   */\n      pop\n      jump\t// out\n        /* \"#utility.yul\":897:1036   */\n    tag_55:\n        /* \"#utility.yul\":943:948   */\n      0x00\n        /* \"#utility.yul\":981:987   */\n      dup2\n        /* \"#utility.yul\":968:988   */\n      calldataload\n        /* \"#utility.yul\":959:988   */\n      swap1\n      pop\n        /* \"#utility.yul\":997:1030   */\n      tag_93\n        /* \"#utility.yul\":1024:1029   */\n      dup2\n        /* \"#utility.yul\":997:1030   */\n      tag_54\n      jump\t// in\n    tag_93:\n        /* \"#utility.yul\":897:1036   */\n      swap3\n      swap2\n      pop\n      pop\n      jump\t// out\n        /* \"#utility.yul\":1042:1159   */\n    tag_56:\n        /* \"#utility.yul\":1151:1152   */\n      0x00\n        /* \"#utility.yul\":1148:1149   */\n      dup1\n        /* \"#utility.yul\":1141:1153   */\n      revert\n        /* \"#utility.yul\":1165:1282   */\n    tag_57:\n        /* \"#utility.yul\":1274:1275   */\n      0x00\n        /* \"#utility.yul\":1271:1272   */\n      dup1\n        /* \"#utility.yul\":1264:1276   */\n      revert\n        /* \"#utility.yul\":1288:1390   */\n    tag_58:\n        /* \"#utility.yul\":1329:1335   */\n      0x00\n        /* \"#utility.yul\":1380:1382   */\n      0x1f\n        /* \"#utility.yul\":1376:1383   */\n      not\n        /* \"#utility.yul\":1371:1373   */\n      0x1f\n        /* \"#utility.yul\":1364:1369   */\n      dup4\n        /* \"#utility.yul\":1360:1374   */\n      add\n        /* \"#utility.yul\":1356:1384   */\n      and\n        /* \"#utility.yul\":1346:1384   */\n      swap1\n      pop\n        /* \"#utility.yul\":1288:1390   */\n      swap2\n      swap1\n      pop\n      jump\t// out\n        /* \"#utility.yul\":1396:1576   */\n    tag_59:\n        /* \"#utility.yul\":1444:1521   */\n      0x4e487b7100000000000000000000000000000000000000000000000000000000\n        /* \"#utility.yul\":1441:1442   */\n      0x00\n        /* \"#utility.yul\":1434:1522   */\n      mstore\n        /* \"#utility.yul\":1541:1545   */\n      0x41\n        /* \"#utility.yul\":1538:1539   */\n      0x04\n        /* \"#utility.yul\":1531:1546   */\n      mstore\n        /* \"#utility.yul\":1565:1569   */\n      0x24\n        /* \"#utility.yul\":1562:1563   */\n      0x00\n        /* \"#utility.yul\":1555:1570   */\n      revert\n        /* \"#utility.yul\":1582:1863   */\n    tag_60:\n        /* \"#utility.yul\":1665:1692   */\n      tag_99\n        /* \"#utility.yul\":1687:1691   */\n      dup3\n        /* \"#utility.yul\":1665:1692   */\n      tag_58\n      jump\t// in\n    tag_99:\n        /* \"#utility.yul\":1657:1663   */\n      dup2\n        /* \"#utility.yul\":1653:1693   */\n      add\n        /* \"#utility.yul\":1795:1801   */\n      dup2\n        /* \"#utility.yul\":1783:1793   */\n      dup2\n        /* \"#utility.yul\":1780:1802   */\n      lt\n        /* \"#utility.yul\":1759:1777   */\n      0xffffffffffffffff\n        /* \"#utility.yul\":1747:1757   */\n      dup3\n        /* \"#utility.yul\":1744:1778   */\n      gt\n        /* \"#utility.yul\":1741:1803   */\n      or\n        /* \"#utility.yul\":1738:1826   */\n      iszero\n      tag_100\n      jumpi\n        /* \"#utility.yul\":1806:1824   */\n      tag_101\n      tag_59\n      jump\t// in\n    tag_101:\n        /* \"#utility.yul\":1738:1826   */\n    tag_100:\n        /* \"#utility.yul\":1846:1856   */\n      dup1\n        /* \"#utility.yul\":1842:1844   */\n      0x40\n        /* \"#utility.yul\":1835:1857   */\n      mstore\n        /* \"#utility.yul\":1625:1863   */\n      pop\n        /* \"#utility.yul\":1582:1863   */\n      pop\n      pop\n      jump\t// out\n        /* \"#utility.yul\":1869:1998   */\n    tag_61:\n        /* \"#utility.yul\":1903:1909   */\n      0x00\n        /* \"#utility.yul\":1930:1950   */\n      tag_103\n      tag_51\n      jump\t// in\n    tag_103:\n        /* \"#utility.yul\":1920:1950   */\n      swap1\n      pop\n        /* \"#utility.yul\":1959:1992   */\n      tag_104\n        /* \"#utility.yul\":1987:1991   */\n      dup3\n        /* \"#utility.yul\":1979:1985   */\n      dup3\n        /* \"#utility.yul\":1959:1992   */\n      tag_60\n      jump\t// in\n    tag_104:\n        /* \"#utility.yul\":1869:1998   */\n      swap2\n      swap1\n      pop\n      jump\t// out\n        /* \"#utility.yul\":2004:2311   */\n    tag_62:\n        /* \"#utility.yul\":2065:2069   */\n      0x00\n        /* \"#utility.yul\":2155:2173   */\n      0xffffffffffffffff\n        /* \"#utility.yul\":2147:2153   */\n      dup3\n        /* \"#utility.yul\":2144:2174   */\n      gt\n        /* \"#utility.yul\":2141:2197   */\n      iszero\n      tag_106\n      jumpi\n        /* \"#utility.yul\":2177:2195   */\n      tag_107\n      tag_59\n      jump\t// in\n    tag_107:\n        /* \"#utility.yul\":2141:2197   */\n    tag_106:\n        /* \"#utility.yul\":2215:2244   */\n      tag_108\n        /* \"#utility.yul\":2237:2243   */\n      dup3\n        /* \"#utility.yul\":2215:2244   */\n      tag_58\n      jump\t// in\n    tag_108:\n        /* \"#utility.yul\":2207:2244   */\n      swap1\n      pop\n        /* \"#utility.yul\":2299:2303   */\n      0x20\n        /* \"#utility.yul\":2293:2297   */\n      dup2\n        /* \"#utility.yul\":2289:2304   */\n      add\n        /* \"#utility.yul\":2281:2304   */\n      swap1\n      pop\n        /* \"#utility.yul\":2004:2311   */\n      swap2\n      swap1\n      pop\n      jump\t// out\n        /* \"#utility.yul\":2317:2463   */\n    tag_63:\n        /* \"#utility.yul\":2414:2420   */\n      dup3\n        /* \"#utility.yul\":2409:2412   */\n      dup2\n        /* \"#utility.yul\":2404:2407   */\n      dup4\n        /* \"#utility.yul\":2391:2421   */\n      calldatacopy\n        /* \"#utility.yul\":2455:2456   */\n      0x00\n        /* \"#utility.yul\":2446:2452   */\n      dup4\n        /* \"#utility.yul\":2441:2444   */\n      dup4\n        /* \"#utility.yul\":2437:2453   */\n      add\n        /* \"#utility.yul\":2430:2457   */\n      mstore\n        /* \"#utility.yul\":2317:2463   */\n      pop\n      pop\n      pop\n      jump\t// out\n        /* \"#utility.yul\":2469:2892   */\n    tag_64:\n        /* \"#utility.yul\":2546:2551   */\n      0x00\n        /* \"#utility.yul\":2571:2636   */\n      tag_111\n        /* \"#utility.yul\":2587:2635   */\n      tag_112\n        /* \"#utility.yul\":2628:2634   */\n      dup5\n        /* \"#utility.yul\":2587:2635   */\n      tag_62\n      jump\t// in\n    tag_112:\n        /* \"#utility.yul\":2571:2636   */\n      tag_61\n      jump\t// in\n    tag_111:\n        /* \"#utility.yul\":2562:2636   */\n      swap1\n      pop\n        /* \"#utility.yul\":2659:2665   */\n      dup3\n        /* \"#utility.yul\":2652:2657   */\n      dup2\n        /* \"#utility.yul\":2645:2666   */\n      mstore\n        /* \"#utility.yul\":2697:2701   */\n      0x20\n        /* \"#utility.yul\":2690:2695   */\n      dup2\n        /* \"#utility.yul\":2686:2702   */\n      add\n        /* \"#utility.yul\":2735:2738   */\n      dup5\n        /* \"#utility.yul\":2726:2732   */\n      dup5\n        /* \"#utility.yul\":2721:2724   */\n      dup5\n        /* \"#utility.yul\":2717:2733   */\n      add\n        /* \"#utility.yul\":2714:2739   */\n      gt\n        /* \"#utility.yul\":2711:2823   */\n      iszero\n      tag_113\n      jumpi\n        /* \"#utility.yul\":2742:2821   */\n      tag_114\n      tag_57\n      jump\t// in\n    tag_114:\n        /* \"#utility.yul\":2711:2823   */\n    tag_113:\n        /* \"#utility.yul\":2832:2886   */\n      tag_115\n        /* \"#utility.yul\":2879:2885   */\n      dup5\n        /* \"#utility.yul\":2874:2877   */\n      dup3\n        /* \"#utility.yul\":2869:2872   */\n      dup6\n        /* \"#utility.yul\":2832:2886   */\n      tag_63\n      jump\t// in\n    tag_115:\n        /* \"#utility.yul\":2552:2892   */\n      pop\n        /* \"#utility.yul\":2469:2892   */\n      swap4\n      swap3\n      pop\n      pop\n      pop\n      jump\t// out\n        /* \"#utility.yul\":2911:3249   */\n    tag_65:\n        /* \"#utility.yul\":2966:2971   */\n      0x00\n        /* \"#utility.yul\":3015:3018   */\n      dup3\n        /* \"#utility.yul\":3008:3012   */\n      0x1f\n        /* \"#utility.yul\":3000:3006   */\n      dup4\n        /* \"#utility.yul\":2996:3013   */\n      add\n        /* \"#utility.yul\":2992:3019   */\n      slt\n        /* \"#utility.yul\":2982:3104   */\n      tag_117\n      jumpi\n        /* \"#utility.yul\":3023:3102   */\n      tag_118\n      tag_56\n      jump\t// in\n    tag_118:\n        /* \"#utility.yul\":2982:3104   */\n    tag_117:\n        /* \"#utility.yul\":3140:3146   */\n      dup2\n        /* \"#utility.yul\":3127:3147   */\n      calldataload\n        /* \"#utility.yul\":3165:3243   */\n      tag_119\n        /* \"#utility.yul\":3239:3242   */\n      dup5\n        /* \"#utility.yul\":3231:3237   */\n      dup3\n        /* \"#utility.yul\":3224:3228   */\n      0x20\n        /* \"#utility.yul\":3216:3222   */\n      dup7\n        /* \"#utility.yul\":3212:3229   */\n      add\n        /* \"#utility.yul\":3165:3243   */\n      tag_64\n      jump\t// in\n    tag_119:\n        /* \"#utility.yul\":3156:3243   */\n      swap2\n      pop\n        /* \"#utility.yul\":2972:3249   */\n      pop\n        /* \"#utility.yul\":2911:3249   */\n      swap3\n      swap2\n      pop\n      pop\n      jump\t// out\n        /* \"#utility.yul\":3255:3907   */\n    tag_14:\n        /* \"#utility.yul\":3332:3338   */\n      0x00\n        /* \"#utility.yul\":3340:3346   */\n      dup1\n        /* \"#utility.yul\":3389:3391   */\n      0x40\n        /* \"#utility.yul\":3377:3386   */\n      dup4\n        /* \"#utility.yul\":3368:3375   */\n      dup6\n        /* \"#utility.yul\":3364:3387   */\n      sub\n        /* \"#utility.yul\":3360:3392   */\n      slt\n        /* \"#utility.yul\":3357:3476   */\n      iszero\n      tag_121\n      jumpi\n        /* \"#utility.yul\":3395:3474   */\n      tag_122\n      tag_52\n      jump\t// in\n    tag_122:\n        /* \"#utility.yul\":3357:3476   */\n    tag_121:\n        /* \"#utility.yul\":3515:3516   */\n      0x00\n        /* \"#utility.yul\":3540:3593   */\n      tag_123\n        /* \"#utility.yul\":3585:3592   */\n      dup6\n        /* \"#utility.yul\":3576:3582   */\n      dup3\n        /* \"#utility.yul\":3565:3574   */\n      dup7\n        /* \"#utility.yul\":3561:3583   */\n      add\n        /* \"#utility.yul\":3540:3593   */\n      tag_55\n      jump\t// in\n    tag_123:\n        /* \"#utility.yul\":3530:3593   */\n      swap3\n      pop\n        /* \"#utility.yul\":3486:3603   */\n      pop\n        /* \"#utility.yul\":3670:3672   */\n      0x20\n        /* \"#utility.yul\":3659:3668   */\n      dup4\n        /* \"#utility.yul\":3655:3673   */\n      add\n        /* \"#utility.yul\":3642:3674   */\n      calldataload\n        /* \"#utility.yul\":3701:3719   */\n      0xffffffffffffffff\n        /* \"#utility.yul\":3693:3699   */\n      dup2\n        /* \"#utility.yul\":3690:3720   */\n      gt\n        /* \"#utility.yul\":3687:3804   */\n      iszero\n      tag_124\n      jumpi\n        /* \"#utility.yul\":3723:3802   */\n      tag_125\n      tag_53\n      jump\t// in\n    tag_125:\n        /* \"#utility.yul\":3687:3804   */\n    tag_124:\n        /* \"#utility.yul\":3828:3890   */\n      tag_126\n        /* \"#utility.yul\":3882:3889   */\n      dup6\n        /* \"#utility.yul\":3873:3879   */\n      dup3\n        /* \"#utility.yul\":3862:3871   */\n      dup7\n        /* \"#utility.yul\":3858:3880   */\n      add\n        /* \"#utility.yul\":3828:3890   */\n      tag_65\n      jump\t// in\n    tag_126:\n        /* \"#utility.yul\":3818:3890   */\n      swap2\n      pop\n        /* \"#utility.yul\":3613:3900   */\n      pop\n        /* \"#utility.yul\":3255:3907   */\n      swap3\n      pop\n      swap3\n      swap1\n      pop\n      jump\t// out\n        /* \"#utility.yul\":3913:4039   */\n    tag_66:\n        /* \"#utility.yul\":3950:3957   */\n      0x00\n        /* \"#utility.yul\":3990:4032   */\n      0xffffffffffffffffffffffffffffffffffffffff\n        /* \"#utility.yul\":3983:3988   */\n      dup3\n        /* \"#utility.yul\":3979:4033   */\n      and\n        /* \"#utility.yul\":3968:4033   */\n      swap1\n      pop\n        /* \"#utility.yul\":3913:4039   */\n      swap2\n      swap1\n      pop\n      jump\t// out\n        /* \"#utility.yul\":4045:4141   */\n    tag_67:\n        /* \"#utility.yul\":4082:4089   */\n      0x00\n        /* \"#utility.yul\":4111:4135   */\n      tag_129\n        /* \"#utility.yul\":4129:4134   */\n      dup3\n        /* \"#utility.yul\":4111:4135   */\n      tag_66\n      jump\t// in\n    tag_129:\n        /* \"#utility.yul\":4100:4135   */\n      swap1\n      pop\n        /* \"#utility.yul\":4045:4141   */\n      swap2\n      swap1\n      pop\n      jump\t// out\n        /* \"#utility.yul\":4147:4265   */\n    tag_68:\n        /* \"#utility.yul\":4234:4258   */\n      tag_131\n        /* \"#utility.yul\":4252:4257   */\n      dup2\n        /* \"#utility.yul\":4234:4258   */\n      tag_67\n      jump\t// in\n    tag_131:\n        /* \"#utility.yul\":4229:4232   */\n      dup3\n        /* \"#utility.yul\":4222:4259   */\n      mstore\n        /* \"#utility.yul\":4147:4265   */\n      pop\n      pop\n      jump\t// out\n        /* \"#utility.yul\":4271:4493   */\n    tag_17:\n        /* \"#utility.yul\":4364:4368   */\n      0x00\n        /* \"#utility.yul\":4402:4404   */\n      0x20\n        /* \"#utility.yul\":4391:4400   */\n      dup3\n        /* \"#utility.yul\":4387:4405   */\n      add\n        /* \"#utility.yul\":4379:4405   */\n      swap1\n      pop\n        /* \"#utility.yul\":4415:4486   */\n      tag_133\n        /* \"#utility.yul\":4483:4484   */\n      0x00\n        /* \"#utility.yul\":4472:4481   */\n      dup4\n        /* \"#utility.yul\":4468:4485   */\n      add\n        /* \"#utility.yul\":4459:4465   */\n      dup5\n        /* \"#utility.yul\":4415:4486   */\n      tag_68\n      jump\t// in\n    tag_133:\n        /* \"#utility.yul\":4271:4493   */\n      swap3\n      swap2\n      pop\n      pop\n      jump\t// out\n        /* \"#utility.yul\":4499:4807   */\n    tag_69:\n        /* \"#utility.yul\":4561:4565   */\n      0x00\n        /* \"#utility.yul\":4651:4669   */\n      0xffffffffffffffff\n        /* \"#utility.yul\":4643:4649   */\n      dup3\n        /* \"#utility.yul\":4640:4670   */\n      gt\n        /* \"#utility.yul\":4637:4693   */\n      iszero\n      tag_135\n      jumpi\n        /* \"#utility.yul\":4673:4691   */\n      tag_136\n      tag_59\n      jump\t// in\n    tag_136:\n        /* \"#utility.yul\":4637:4693   */\n    tag_135:\n        /* \"#utility.yul\":4711:4740   */\n      tag_137\n        /* \"#utility.yul\":4733:4739   */\n      dup3\n        /* \"#utility.yul\":4711:4740   */\n      tag_58\n      jump\t// in\n    tag_137:\n        /* \"#utility.yul\":4703:4740   */\n      swap1\n      pop\n        /* \"#utility.yul\":4795:4799   */\n      0x20\n        /* \"#utility.yul\":4789:4793   */\n      dup2\n        /* \"#utility.yul\":4785:4800   */\n      add\n        /* \"#utility.yul\":4777:4800   */\n      swap1\n      pop\n        /* \"#utility.yul\":4499:4807   */\n      swap2\n      swap1\n      pop\n      jump\t// out\n        /* \"#utility.yul\":4813:5238   */\n    tag_70:\n        /* \"#utility.yul\":4891:4896   */\n      0x00\n        /* \"#utility.yul\":4916:4982   */\n      tag_139\n        /* \"#utility.yul\":4932:4981   */\n      tag_140\n        /* \"#utility.yul\":4974:4980   */\n      dup5\n        /* \"#utility.yul\":4932:4981   */\n      tag_69\n      jump\t// in\n    tag_140:\n        /* \"#utility.yul\":4916:4982   */\n      tag_61\n      jump\t// in\n    tag_139:\n        /* \"#utility.yul\":4907:4982   */\n      swap1\n      pop\n        /* \"#utility.yul\":5005:5011   */\n      dup3\n        /* \"#utility.yul\":4998:5003   */\n      dup2\n        /* \"#utility.yul\":4991:5012   */\n      mstore\n        /* \"#utility.yul\":5043:5047   */\n      0x20\n        /* \"#utility.yul\":5036:5041   */\n      dup2\n        /* \"#utility.yul\":5032:5048   */\n      add\n        /* \"#utility.yul\":5081:5084   */\n      dup5\n        /* \"#utility.yul\":5072:5078   */\n      dup5\n        /* \"#utility.yul\":5067:5070   */\n      dup5\n        /* \"#utility.yul\":5063:5079   */\n      add\n        /* \"#utility.yul\":5060:5085   */\n      gt\n        /* \"#utility.yul\":5057:5169   */\n      iszero\n      tag_141\n      jumpi\n        /* \"#utility.yul\":5088:5167   */\n      tag_142\n      tag_57\n      jump\t// in\n    tag_142:\n        /* \"#utility.yul\":5057:5169   */\n    tag_141:\n        /* \"#utility.yul\":5178:5232   */\n      tag_143\n        /* \"#utility.yul\":5225:5231   */\n      dup5\n        /* \"#utility.yul\":5220:5223   */\n      dup3\n        /* \"#utility.yul\":5215:5218   */\n      dup6\n        /* \"#utility.yul\":5178:5232   */\n      tag_63\n      jump\t// in\n    tag_143:\n        /* \"#utility.yul\":4897:5238   */\n      pop\n        /* \"#utility.yul\":4813:5238   */\n      swap4\n      swap3\n      pop\n      pop\n      pop\n      jump\t// out\n        /* \"#utility.yul\":5258:5598   */\n    tag_71:\n        /* \"#utility.yul\":5314:5319   */\n      0x00\n        /* \"#utility.yul\":5363:5366   */\n      dup3\n        /* \"#utility.yul\":5356:5360   */\n      0x1f\n        /* \"#utility.yul\":5348:5354   */\n      dup4\n        /* \"#utility.yul\":5344:5361   */\n      add\n        /* \"#utility.yul\":5340:5367   */\n      slt\n        /* \"#utility.yul\":5330:5452   */\n      tag_145\n      jumpi\n        /* \"#utility.yul\":5371:5450   */\n      tag_146\n      tag_56\n      jump\t// in\n    tag_146:\n        /* \"#utility.yul\":5330:5452   */\n    tag_145:\n        /* \"#utility.yul\":5488:5494   */\n      dup2\n        /* \"#utility.yul\":5475:5495   */\n      calldataload\n        /* \"#utility.yul\":5513:5592   */\n      tag_147\n        /* \"#utility.yul\":5588:5591   */\n      dup5\n        /* \"#utility.yul\":5580:5586   */\n      dup3\n        /* \"#utility.yul\":5573:5577   */\n      0x20\n        /* \"#utility.yul\":5565:5571   */\n      dup7\n        /* \"#utility.yul\":5561:5578   */\n      add\n        /* \"#utility.yul\":5513:5592   */\n      tag_70\n      jump\t// in\n    tag_147:\n        /* \"#utility.yul\":5504:5592   */\n      swap2\n      pop\n        /* \"#utility.yul\":5320:5598   */\n      pop\n        /* \"#utility.yul\":5258:5598   */\n      swap3\n      swap2\n      pop\n      pop\n      jump\t// out\n        /* \"#utility.yul\":5604:6113   */\n    tag_20:\n        /* \"#utility.yul\":5673:5679   */\n      0x00\n        /* \"#utility.yul\":5722:5724   */\n      0x20\n        /* \"#utility.yul\":5710:5719   */\n      dup3\n        /* \"#utility.yul\":5701:5708   */\n      dup5\n        /* \"#utility.yul\":5697:5720   */\n      sub\n        /* \"#utility.yul\":5693:5725   */\n      slt\n        /* \"#utility.yul\":5690:5809   */\n      iszero\n      tag_149\n      jumpi\n        /* \"#utility.yul\":5728:5807   */\n      tag_150\n      tag_52\n      jump\t// in\n    tag_150:\n        /* \"#utility.yul\":5690:5809   */\n    tag_149:\n        /* \"#utility.yul\":5876:5877   */\n      0x00\n        /* \"#utility.yul\":5865:5874   */\n      dup3\n        /* \"#utility.yul\":5861:5878   */\n      add\n        /* \"#utility.yul\":5848:5879   */\n      calldataload\n        /* \"#utility.yul\":5906:5924   */\n      0xffffffffffffffff\n        /* \"#utility.yul\":5898:5904   */\n      dup2\n        /* \"#utility.yul\":5895:5925   */\n      gt\n        /* \"#utility.yul\":5892:6009   */\n      iszero\n      tag_151\n      jumpi\n        /* \"#utility.yul\":5928:6007   */\n      tag_152\n      tag_53\n      jump\t// in\n    tag_152:\n        /* \"#utility.yul\":5892:6009   */\n    tag_151:\n        /* \"#utility.yul\":6033:6096   */\n      tag_153\n        /* \"#utility.yul\":6088:6095   */\n      dup5\n        /* \"#utility.yul\":6079:6085   */\n      dup3\n        /* \"#utility.yul\":6068:6077   */\n      dup6\n        /* \"#utility.yul\":6064:6086   */\n      add\n        /* \"#utility.yul\":6033:6096   */\n      tag_71\n      jump\t// in\n    tag_153:\n        /* \"#utility.yul\":6023:6096   */\n      swap2\n      pop\n        /* \"#utility.yul\":5819:6106   */\n      pop\n        /* \"#utility.yul\":5604:6113   */\n      swap3\n      swap2\n      pop\n      pop\n      jump\t// out\n        /* \"#utility.yul\":6119:6626   */\n    tag_25:\n        /* \"#utility.yul\":6187:6193   */\n      0x00\n        /* \"#utility.yul\":6236:6238   */\n      0x20\n        /* \"#utility.yul\":6224:6233   */\n      dup3\n        /* \"#utility.yul\":6215:6222   */\n      dup5\n        /* \"#utility.yul\":6211:6234   */\n      sub\n        /* \"#utility.yul\":6207:6239   */\n      slt\n        /* \"#utility.yul\":6204:6323   */\n      iszero\n      tag_155\n      jumpi\n        /* \"#utility.yul\":6242:6321   */\n      tag_156\n      tag_52\n      jump\t// in\n    tag_156:\n        /* \"#utility.yul\":6204:6323   */\n    tag_155:\n        /* \"#utility.yul\":6390:6391   */\n      0x00\n        /* \"#utility.yul\":6379:6388   */\n      dup3\n        /* \"#utility.yul\":6375:6392   */\n      add\n        /* \"#utility.yul\":6362:6393   */\n      calldataload\n        /* \"#utility.yul\":6420:6438   */\n      0xffffffffffffffff\n        /* \"#utility.yul\":6412:6418   */\n      dup2\n        /* \"#utility.yul\":6409:6439   */\n      gt\n        /* \"#utility.yul\":6406:6523   */\n      iszero\n      tag_157\n      jumpi\n        /* \"#utility.yul\":6442:6521   */\n      tag_158\n      tag_53\n      jump\t// in\n    tag_158:\n        /* \"#utility.yul\":6406:6523   */\n    tag_157:\n        /* \"#utility.yul\":6547:6609   */\n      tag_159\n        /* \"#utility.yul\":6601:6608   */\n      dup5\n        /* \"#utility.yul\":6592:6598   */\n      dup3\n        /* \"#utility.yul\":6581:6590   */\n      dup6\n        /* \"#utility.yul\":6577:6599   */\n      add\n        /* \"#utility.yul\":6547:6609   */\n      tag_65\n      jump\t// in\n    tag_159:\n        /* \"#utility.yul\":6537:6609   */\n      swap2\n      pop\n        /* \"#utility.yul\":6333:6619   */\n      pop\n        /* \"#utility.yul\":6119:6626   */\n      swap3\n      swap2\n      pop\n      pop\n      jump\t// out\n        /* \"#utility.yul\":6632:6718   */\n    tag_72:\n        /* \"#utility.yul\":6667:6674   */\n      0x00\n        /* \"#utility.yul\":6707:6711   */\n      0xff\n        /* \"#utility.yul\":6700:6705   */\n      dup3\n        /* \"#utility.yul\":6696:6712   */\n      and\n        /* \"#utility.yul\":6685:6712   */\n      swap1\n      pop\n        /* \"#utility.yul\":6632:6718   */\n      swap2\n      swap1\n      pop\n      jump\t// out\n        /* \"#utility.yul\":6724:6836   */\n    tag_73:\n        /* \"#utility.yul\":6807:6829   */\n      tag_162\n        /* \"#utility.yul\":6823:6828   */\n      dup2\n        /* \"#utility.yul\":6807:6829   */\n      tag_72\n      jump\t// in\n    tag_162:\n        /* \"#utility.yul\":6802:6805   */\n      dup3\n        /* \"#utility.yul\":6795:6830   */\n      mstore\n        /* \"#utility.yul\":6724:6836   */\n      pop\n      pop\n      jump\t// out\n        /* \"#utility.yul\":6842:7276   */\n    tag_28:\n        /* \"#utility.yul\":6987:6991   */\n      0x00\n        /* \"#utility.yul\":7025:7027   */\n      0x60\n        /* \"#utility.yul\":7014:7023   */\n      dup3\n        /* \"#utility.yul\":7010:7028   */\n      add\n        /* \"#utility.yul\":7002:7028   */\n      swap1\n      pop\n        /* \"#utility.yul\":7038:7105   */\n      tag_164\n        /* \"#utility.yul\":7102:7103   */\n      0x00\n        /* \"#utility.yul\":7091:7100   */\n      dup4\n        /* \"#utility.yul\":7087:7104   */\n      add\n        /* \"#utility.yul\":7078:7084   */\n      dup7\n        /* \"#utility.yul\":7038:7105   */\n      tag_73\n      jump\t// in\n    tag_164:\n        /* \"#utility.yul\":7115:7187   */\n      tag_165\n        /* \"#utility.yul\":7183:7185   */\n      0x20\n        /* \"#utility.yul\":7172:7181   */\n      dup4\n        /* \"#utility.yul\":7168:7186   */\n      add\n        /* \"#utility.yul\":7159:7165   */\n      dup6\n        /* \"#utility.yul\":7115:7187   */\n      tag_50\n      jump\t// in\n    tag_165:\n        /* \"#utility.yul\":7197:7269   */\n      tag_166\n        /* \"#utility.yul\":7265:7267   */\n      0x40\n        /* \"#utility.yul\":7254:7263   */\n      dup4\n        /* \"#utility.yul\":7250:7268   */\n      add\n        /* \"#utility.yul\":7241:7247   */\n      dup5\n        /* \"#utility.yul\":7197:7269   */\n      tag_50\n      jump\t// in\n    tag_166:\n        /* \"#utility.yul\":6842:7276   */\n      swap5\n      swap4\n      pop\n      pop\n      pop\n      pop\n      jump\t// out\n        /* \"#utility.yul\":7282:8114   */\n    tag_31:\n        /* \"#utility.yul\":7369:7375   */\n      0x00\n        /* \"#utility.yul\":7377:7383   */\n      dup1\n        /* \"#utility.yul\":7426:7428   */\n      0x40\n        /* \"#utility.yul\":7414:7423   */\n      dup4\n        /* \"#utility.yul\":7405:7412   */\n      dup6\n        /* \"#utility.yul\":7401:7424   */\n      sub\n        /* \"#utility.yul\":7397:7429   */\n      slt\n        /* \"#utility.yul\":7394:7513   */\n      iszero\n      tag_168\n      jumpi\n        /* \"#utility.yul\":7432:7511   */\n      tag_169\n      tag_52\n      jump\t// in\n    tag_169:\n        /* \"#utility.yul\":7394:7513   */\n    tag_168:\n        /* \"#utility.yul\":7580:7581   */\n      0x00\n        /* \"#utility.yul\":7569:7578   */\n      dup4\n        /* \"#utility.yul\":7565:7582   */\n      add\n        /* \"#utility.yul\":7552:7583   */\n      calldataload\n        /* \"#utility.yul\":7610:7628   */\n      0xffffffffffffffff\n        /* \"#utility.yul\":7602:7608   */\n      dup2\n        /* \"#utility.yul\":7599:7629   */\n      gt\n        /* \"#utility.yul\":7596:7713   */\n      iszero\n      tag_170\n      jumpi\n        /* \"#utility.yul\":7632:7711   */\n      tag_171\n      tag_53\n      jump\t// in\n    tag_171:\n        /* \"#utility.yul\":7596:7713   */\n    tag_170:\n        /* \"#utility.yul\":7737:7800   */\n      tag_172\n        /* \"#utility.yul\":7792:7799   */\n      dup6\n        /* \"#utility.yul\":7783:7789   */\n      dup3\n        /* \"#utility.yul\":7772:7781   */\n      dup7\n        /* \"#utility.yul\":7768:7790   */\n      add\n        /* \"#utility.yul\":7737:7800   */\n      tag_71\n      jump\t// in\n    tag_172:\n        /* \"#utility.yul\":7727:7800   */\n      swap3\n      pop\n        /* \"#utility.yul\":7523:7810   */\n      pop\n        /* \"#utility.yul\":7877:7879   */\n      0x20\n        /* \"#utility.yul\":7866:7875   */\n      dup4\n        /* \"#utility.yul\":7862:7880   */\n      add\n        /* \"#utility.yul\":7849:7881   */\n      calldataload\n        /* \"#utility.yul\":7908:7926   */\n      0xffffffffffffffff\n        /* \"#utility.yul\":7900:7906   */\n      dup2\n        /* \"#utility.yul\":7897:7927   */\n      gt\n        /* \"#utility.yul\":7894:8011   */\n      iszero\n      tag_173\n      jumpi\n        /* \"#utility.yul\":7930:8009   */\n      tag_174\n      tag_53\n      jump\t// in\n    tag_174:\n        /* \"#utility.yul\":7894:8011   */\n    tag_173:\n        /* \"#utility.yul\":8035:8097   */\n      tag_175\n        /* \"#utility.yul\":8089:8096   */\n      dup6\n        /* \"#utility.yul\":8080:8086   */\n      dup3\n        /* \"#utility.yul\":8069:8078   */\n      dup7\n        /* \"#utility.yul\":8065:8087   */\n      add\n        /* \"#utility.yul\":8035:8097   */\n      tag_65\n      jump\t// in\n    tag_175:\n        /* \"#utility.yul\":8025:8097   */\n      swap2\n      pop\n        /* \"#utility.yul\":7820:8107   */\n      pop\n        /* \"#utility.yul\":7282:8114   */\n      swap3\n      pop\n      swap3\n      swap1\n      pop\n      jump\t// out\n        /* \"#utility.yul\":8120:8210   */\n    tag_74:\n        /* \"#utility.yul\":8154:8161   */\n      0x00\n        /* \"#utility.yul\":8197:8202   */\n      dup2\n        /* \"#utility.yul\":8190:8203   */\n      iszero\n        /* \"#utility.yul\":8183:8204   */\n      iszero\n        /* \"#utility.yul\":8172:8204   */\n      swap1\n      pop\n        /* \"#utility.yul\":8120:8210   */\n      swap2\n      swap1\n      pop\n      jump\t// out\n        /* \"#utility.yul\":8216:8325   */\n    tag_75:\n        /* \"#utility.yul\":8297:8318   */\n      tag_178\n        /* \"#utility.yul\":8312:8317   */\n      dup2\n        /* \"#utility.yul\":8297:8318   */\n      tag_74\n      jump\t// in\n    tag_178:\n        /* \"#utility.yul\":8292:8295   */\n      dup3\n        /* \"#utility.yul\":8285:8319   */\n      mstore\n        /* \"#utility.yul\":8216:8325   */\n      pop\n      pop\n      jump\t// out\n        /* \"#utility.yul\":8331:8541   */\n    tag_34:\n        /* \"#utility.yul\":8418:8422   */\n      0x00\n        /* \"#utility.yul\":8456:8458   */\n      0x20\n        /* \"#utility.yul\":8445:8454   */\n      dup3\n        /* \"#utility.yul\":8441:8459   */\n      add\n        /* \"#utility.yul\":8433:8459   */\n      swap1\n      pop\n        /* \"#utility.yul\":8469:8534   */\n      tag_180\n        /* \"#utility.yul\":8531:8532   */\n      0x00\n        /* \"#utility.yul\":8520:8529   */\n      dup4\n        /* \"#utility.yul\":8516:8533   */\n      add\n        /* \"#utility.yul\":8507:8513   */\n      dup5\n        /* \"#utility.yul\":8469:8534   */\n      tag_75\n      jump\t// in\n    tag_180:\n        /* \"#utility.yul\":8331:8541   */\n      swap3\n      swap2\n      pop\n      pop\n      jump\t// out\n        /* \"#utility.yul\":8547:9092   */\n    tag_38:\n        /* \"#utility.yul\":8720:8724   */\n      0x00\n        /* \"#utility.yul\":8758:8761   */\n      0x80\n        /* \"#utility.yul\":8747:8756   */\n      dup3\n        /* \"#utility.yul\":8743:8762   */\n      add\n        /* \"#utility.yul\":8735:8762   */\n      swap1\n      pop\n        /* \"#utility.yul\":8772:8843   */\n      tag_182\n        /* \"#utility.yul\":8840:8841   */\n      0x00\n        /* \"#utility.yul\":8829:8838   */\n      dup4\n        /* \"#utility.yul\":8825:8842   */\n      add\n        /* \"#utility.yul\":8816:8822   */\n      dup8\n        /* \"#utility.yul\":8772:8843   */\n      tag_50\n      jump\t// in\n    tag_182:\n        /* \"#utility.yul\":8853:8921   */\n      tag_183\n        /* \"#utility.yul\":8917:8919   */\n      0x20\n        /* \"#utility.yul\":8906:8915   */\n      dup4\n        /* \"#utility.yul\":8902:8920   */\n      add\n        /* \"#utility.yul\":8893:8899   */\n      dup7\n        /* \"#utility.yul\":8853:8921   */\n      tag_73\n      jump\t// in\n    tag_183:\n        /* \"#utility.yul\":8931:9003   */\n      tag_184\n        /* \"#utility.yul\":8999:9001   */\n      0x40\n        /* \"#utility.yul\":8988:8997   */\n      dup4\n        /* \"#utility.yul\":8984:9002   */\n      add\n        /* \"#utility.yul\":8975:8981   */\n      dup6\n        /* \"#utility.yul\":8931:9003   */\n      tag_50\n      jump\t// in\n    tag_184:\n        /* \"#utility.yul\":9013:9085   */\n      tag_185\n        /* \"#utility.yul\":9081:9083   */\n      0x60\n        /* \"#utility.yul\":9070:9079   */\n      dup4\n        /* \"#utility.yul\":9066:9084   */\n      add\n        /* \"#utility.yul\":9057:9063   */\n      dup5\n        /* \"#utility.yul\":9013:9085   */\n      tag_50\n      jump\t// in\n    tag_185:\n        /* \"#utility.yul\":8547:9092   */\n      swap6\n      swap5\n      pop\n      pop\n      pop\n      pop\n      pop\n      jump\t// out\n        /* \"#utility.yul\":9098:9197   */\n    tag_76:\n        /* \"#utility.yul\":9150:9156   */\n      0x00\n        /* \"#utility.yul\":9184:9189   */\n      dup2\n        /* \"#utility.yul\":9178:9190   */\n      mload\n        /* \"#utility.yul\":9168:9190   */\n      swap1\n      pop\n        /* \"#utility.yul\":9098:9197   */\n      swap2\n      swap1\n      pop\n      jump\t// out\n        /* \"#utility.yul\":9203:9351   */\n    tag_77:\n        /* \"#utility.yul\":9305:9316   */\n      0x00\n        /* \"#utility.yul\":9342:9345   */\n      dup2\n        /* \"#utility.yul\":9327:9345   */\n      swap1\n      pop\n        /* \"#utility.yul\":9203:9351   */\n      swap3\n      swap2\n      pop\n      pop\n      jump\t// out\n        /* \"#utility.yul\":9357:9603   */\n    tag_78:\n        /* \"#utility.yul\":9438:9439   */\n      0x00\n        /* \"#utility.yul\":9448:9561   */\n    tag_189:\n        /* \"#utility.yul\":9462:9468   */\n      dup4\n        /* \"#utility.yul\":9459:9460   */\n      dup2\n        /* \"#utility.yul\":9456:9469   */\n      lt\n        /* \"#utility.yul\":9448:9561   */\n      iszero\n      tag_191\n      jumpi\n        /* \"#utility.yul\":9547:9548   */\n      dup1\n        /* \"#utility.yul\":9542:9545   */\n      dup3\n        /* \"#utility.yul\":9538:9549   */\n      add\n        /* \"#utility.yul\":9532:9550   */\n      mload\n        /* \"#utility.yul\":9528:9529   */\n      dup2\n        /* \"#utility.yul\":9523:9526   */\n      dup5\n        /* \"#utility.yul\":9519:9530   */\n      add\n        /* \"#utility.yul\":9512:9551   */\n      mstore\n        /* \"#utility.yul\":9484:9486   */\n      0x20\n        /* \"#utility.yul\":9481:9482   */\n      dup2\n        /* \"#utility.yul\":9477:9487   */\n      add\n        /* \"#utility.yul\":9472:9487   */\n      swap1\n      pop\n        /* \"#utility.yul\":9448:9561   */\n      jump(tag_189)\n    tag_191:\n        /* \"#utility.yul\":9595:9596   */\n      0x00\n        /* \"#utility.yul\":9586:9592   */\n      dup5\n        /* \"#utility.yul\":9581:9584   */\n      dup5\n        /* \"#utility.yul\":9577:9593   */\n      add\n        /* \"#utility.yul\":9570:9597   */\n      mstore\n        /* \"#utility.yul\":9419:9603   */\n      pop\n        /* \"#utility.yul\":9357:9603   */\n      pop\n      pop\n      pop\n      jump\t// out\n        /* \"#utility.yul\":9609:9999   */\n    tag_79:\n        /* \"#utility.yul\":9715:9718   */\n      0x00\n        /* \"#utility.yul\":9743:9782   */\n      tag_193\n        /* \"#utility.yul\":9776:9781   */\n      dup3\n        /* \"#utility.yul\":9743:9782   */\n      tag_76\n      jump\t// in\n    tag_193:\n        /* \"#utility.yul\":9798:9887   */\n      tag_194\n        /* \"#utility.yul\":9880:9886   */\n      dup2\n        /* \"#utility.yul\":9875:9878   */\n      dup6\n        /* \"#utility.yul\":9798:9887   */\n      tag_77\n      jump\t// in\n    tag_194:\n        /* \"#utility.yul\":9791:9887   */\n      swap4\n      pop\n        /* \"#utility.yul\":9896:9961   */\n      tag_195\n        /* \"#utility.yul\":9954:9960   */\n      dup2\n        /* \"#utility.yul\":9949:9952   */\n      dup6\n        /* \"#utility.yul\":9942:9946   */\n      0x20\n        /* \"#utility.yul\":9935:9940   */\n      dup7\n        /* \"#utility.yul\":9931:9947   */\n      add\n        /* \"#utility.yul\":9896:9961   */\n      tag_78\n      jump\t// in\n    tag_195:\n        /* \"#utility.yul\":9986:9992   */\n      dup1\n        /* \"#utility.yul\":9981:9984   */\n      dup5\n        /* \"#utility.yul\":9977:9993   */\n      add\n        /* \"#utility.yul\":9970:9993   */\n      swap2\n      pop\n        /* \"#utility.yul\":9719:9999   */\n      pop\n        /* \"#utility.yul\":9609:9999   */\n      swap3\n      swap2\n      pop\n      pop\n      jump\t// out\n        /* \"#utility.yul\":10005:10280   */\n    tag_43:\n        /* \"#utility.yul\":10137:10140   */\n      0x00\n        /* \"#utility.yul\":10159:10254   */\n      tag_197\n        /* \"#utility.yul\":10250:10253   */\n      dup3\n        /* \"#utility.yul\":10241:10247   */\n      dup5\n        /* \"#utility.yul\":10159:10254   */\n      tag_79\n      jump\t// in\n    tag_197:\n        /* \"#utility.yul\":10152:10254   */\n      swap2\n      pop\n        /* \"#utility.yul\":10271:10274   */\n      dup2\n        /* \"#utility.yul\":10264:10274   */\n      swap1\n      pop\n        /* \"#utility.yul\":10005:10280   */\n      swap3\n      swap2\n      pop\n      pop\n      jump\t// out\n\n    auxdata: 0xa2646970667358221220aa02d028f4e32aa2976c483fc21ab854bc94495ae52f3175335041995bb6940064736f6c63430008110033\n}\n",
				"bytecode": {
					"linkReferences": {},
					"object": "608060405234801561001057600080fd5b50604051610980380380610980833981810160405281019061003291906100db565b806000806101000a81548173ffffffffffffffffffffffffffffffffffffffff021916908373ffffffffffffffffffffffffffffffffffffffff16021790555050610108565b600080fd5b600073ffffffffffffffffffffffffffffffffffffffff82169050919050565b60006100a88261007d565b9050919050565b6100b88161009d565b81146100c357600080fd5b50565b6000815190506100d5816100af565b92915050565b6000602082840312156100f1576100f0610078565b5b60006100ff848285016100c6565b91505092915050565b610869806101176000396000f3fe608060405234801561001057600080fd5b50600436106100575760003560e01c80634a7196231461005c57806397aba7f91461007a5780639ac71bde146100aa578063a7bb5803146100da578063adb41f751461010c575b600080fd5b61006461013c565b60405161007191906102d9565b60405180910390f35b610094600480360381019061008f919061047a565b610142565b6040516100a19190610517565b60405180910390f35b6100c460048036038101906100bf91906105d3565b6101b7565b6040516100d191906102d9565b60405180910390f35b6100f460048036038101906100ef919061061c565b6101f0565b60405161010393929190610681565b60405180910390f35b610126600480360381019061012191906106b8565b610233565b604051610133919061074b565b60405180910390f35b60015481565b600080600080610151856101f0565b809350819450829550505050600186848484604051600081526020016040526040516101809493929190610766565b6020604051602081039080840390855afa1580156101a2573d6000803e3d6000fd5b50505060206040510351935050505092915050565b6000816040516020016101ca919061081c565b604051602081830303815290604052805190602001206001819055506001549050919050565b6000806000604184511461020357600080fd5b60008060006020870151925060408701519150606087015160001a90508083839550955095505050509193909250565b60008083604051602001610247919061081c565b60405160208183030381529060405280519060200120905060008054906101000a900473ffffffffffffffffffffffffffffffffffffffff1673ffffffffffffffffffffffffffffffffffffffff166102a08285610142565b73ffffffffffffffffffffffffffffffffffffffff161491505092915050565b6000819050919050565b6102d3816102c0565b82525050565b60006020820190506102ee60008301846102ca565b92915050565b6000604051905090565b600080fd5b600080fd5b610311816102c0565b811461031c57600080fd5b50565b60008135905061032e81610308565b92915050565b600080fd5b600080fd5b6000601f19601f8301169050919050565b7f4e487b7100000000000000000000000000000000000000000000000000000000600052604160045260246000fd5b6103878261033e565b810181811067ffffffffffffffff821117156103a6576103a561034f565b5b80604052505050565b60006103b96102f4565b90506103c5828261037e565b919050565b600067ffffffffffffffff8211156103e5576103e461034f565b5b6103ee8261033e565b9050602081019050919050565b82818337600083830152505050565b600061041d610418846103ca565b6103af565b90508281526020810184848401111561043957610438610339565b5b6104448482856103fb565b509392505050565b600082601f83011261046157610460610334565b5b813561047184826020860161040a565b91505092915050565b60008060408385031215610491576104906102fe565b5b600061049f8582860161031f565b925050602083013567ffffffffffffffff8111156104c0576104bf610303565b5b6104cc8582860161044c565b9150509250929050565b600073ffffffffffffffffffffffffffffffffffffffff82169050919050565b6000610501826104d6565b9050919050565b610511816104f6565b82525050565b600060208201905061052c6000830184610508565b92915050565b600067ffffffffffffffff82111561054d5761054c61034f565b5b6105568261033e565b9050602081019050919050565b600061057661057184610532565b6103af565b90508281526020810184848401111561059257610591610339565b5b61059d8482856103fb565b509392505050565b600082601f8301126105ba576105b9610334565b5b81356105ca848260208601610563565b91505092915050565b6000602082840312156105e9576105e86102fe565b5b600082013567ffffffffffffffff81111561060757610606610303565b5b610613848285016105a5565b91505092915050565b600060208284031215610632576106316102fe565b5b600082013567ffffffffffffffff8111156106505761064f610303565b5b61065c8482850161044c565b91505092915050565b600060ff82169050919050565b61067b81610665565b82525050565b60006060820190506106966000830186610672565b6106a360208301856102ca565b6106b060408301846102ca565b949350505050565b600080604083850312156106cf576106ce6102fe565b5b600083013567ffffffffffffffff8111156106ed576106ec610303565b5b6106f9858286016105a5565b925050602083013567ffffffffffffffff81111561071a57610719610303565b5b6107268582860161044c565b9150509250929050565b60008115159050919050565b61074581610730565b82525050565b6000602082019050610760600083018461073c565b92915050565b600060808201905061077b60008301876102ca565b6107886020830186610672565b61079560408301856102ca565b6107a260608301846102ca565b95945050505050565b600081519050919050565b600081905092915050565b60005b838110156107df5780820151818401526020810190506107c4565b60008484015250505050565b60006107f6826107ab565b61080081856107b6565b93506108108185602086016107c1565b80840191505092915050565b600061082882846107eb565b91508190509291505056fea2646970667358221220aa02d028f4e32aa2976c483fc21ab854bc94495ae52f3175335041995bb6940064736f6c63430008110033",
					"opcodes": "PUSH1 0x80 PUSH1 0x40 MSTORE CALLVALUE DUP1 ISZERO PUSH2 0x10 JUMPI PUSH1 0x0 DUP1 REVERT JUMPDEST POP PUSH1 0x40 MLOAD PUSH2 0x980 CODESIZE SUB DUP1 PUSH2 0x980 DUP4 CODECOPY DUP2 DUP2 ADD PUSH1 0x40 MSTORE DUP2 ADD SWAP1 PUSH2 0x32 SWAP2 SWAP1 PUSH2 0xDB JUMP JUMPDEST DUP1 PUSH1 0x0 DUP1 PUSH2 0x100 EXP DUP2 SLOAD DUP2 PUSH20 0xFFFFFFFFFFFFFFFFFFFFFFFFFFFFFFFFFFFFFFFF MUL NOT AND SWAP1 DUP4 PUSH20 0xFFFFFFFFFFFFFFFFFFFFFFFFFFFFFFFFFFFFFFFF AND MUL OR SWAP1 SSTORE POP POP PUSH2 0x108 JUMP JUMPDEST PUSH1 0x0 DUP1 REVERT JUMPDEST PUSH1 0x0 PUSH20 0xFFFFFFFFFFFFFFFFFFFFFFFFFFFFFFFFFFFFFFFF DUP3 AND SWAP1 POP SWAP2 SWAP1 POP JUMP JUMPDEST PUSH1 0x0 PUSH2 0xA8 DUP3 PUSH2 0x7D JUMP JUMPDEST SWAP1 POP SWAP2 SWAP1 POP JUMP JUMPDEST PUSH2 0xB8 DUP2 PUSH2 0x9D JUMP JUMPDEST DUP2 EQ PUSH2 0xC3 JUMPI PUSH1 0x0 DUP1 REVERT JUMPDEST POP JUMP JUMPDEST PUSH1 0x0 DUP2 MLOAD SWAP1 POP PUSH2 0xD5 DUP2 PUSH2 0xAF JUMP JUMPDEST SWAP3 SWAP2 POP POP JUMP JUMPDEST PUSH1 0x0 PUSH1 0x20 DUP3 DUP5 SUB SLT ISZERO PUSH2 0xF1 JUMPI PUSH2 0xF0 PUSH2 0x78 JUMP JUMPDEST JUMPDEST PUSH1 0x0 PUSH2 0xFF DUP5 DUP3 DUP6 ADD PUSH2 0xC6 JUMP JUMPDEST SWAP2 POP POP SWAP3 SWAP2 POP POP JUMP JUMPDEST PUSH2 0x869 DUP1 PUSH2 0x117 PUSH1 0x0 CODECOPY PUSH1 0x0 RETURN INVALID PUSH1 0x80 PUSH1 0x40 MSTORE CALLVALUE DUP1 ISZERO PUSH2 0x10 JUMPI PUSH1 0x0 DUP1 REVERT JUMPDEST POP PUSH1 0x4 CALLDATASIZE LT PUSH2 0x57 JUMPI PUSH1 0x0 CALLDATALOAD PUSH1 0xE0 SHR DUP1 PUSH4 0x4A719623 EQ PUSH2 0x5C JUMPI DUP1 PUSH4 0x97ABA7F9 EQ PUSH2 0x7A JUMPI DUP1 PUSH4 0x9AC71BDE EQ PUSH2 0xAA JUMPI DUP1 PUSH4 0xA7BB5803 EQ PUSH2 0xDA JUMPI DUP1 PUSH4 0xADB41F75 EQ PUSH2 0x10C JUMPI JUMPDEST PUSH1 0x0 DUP1 REVERT JUMPDEST PUSH2 0x64 PUSH2 0x13C JUMP JUMPDEST PUSH1 0x40 MLOAD PUSH2 0x71 SWAP2 SWAP1 PUSH2 0x2D9 JUMP JUMPDEST PUSH1 0x40 MLOAD DUP1 SWAP2 SUB SWAP1 RETURN JUMPDEST PUSH2 0x94 PUSH1 0x4 DUP1 CALLDATASIZE SUB DUP2 ADD SWAP1 PUSH2 0x8F SWAP2 SWAP1 PUSH2 0x47A JUMP JUMPDEST PUSH2 0x142 JUMP JUMPDEST PUSH1 0x40 MLOAD PUSH2 0xA1 SWAP2 SWAP1 PUSH2 0x517 JUMP JUMPDEST PUSH1 0x40 MLOAD DUP1 SWAP2 SUB SWAP1 RETURN JUMPDEST PUSH2 0xC4 PUSH1 0x4 DUP1 CALLDATASIZE SUB DUP2 ADD SWAP1 PUSH2 0xBF SWAP2 SWAP1 PUSH2 0x5D3 JUMP JUMPDEST PUSH2 0x1B7 JUMP JUMPDEST PUSH1 0x40 MLOAD PUSH2 0xD1 SWAP2 SWAP1 PUSH2 0x2D9 JUMP JUMPDEST PUSH1 0x40 MLOAD DUP1 SWAP2 SUB SWAP1 RETURN JUMPDEST PUSH2 0xF4 PUSH1 0x4 DUP1 CALLDATASIZE SUB DUP2 ADD SWAP1 PUSH2 0xEF SWAP2 SWAP1 PUSH2 0x61C JUMP JUMPDEST PUSH2 0x1F0 JUMP JUMPDEST PUSH1 0x40 MLOAD PUSH2 0x103 SWAP4 SWAP3 SWAP2 SWAP1 PUSH2 0x681 JUMP JUMPDEST PUSH1 0x40 MLOAD DUP1 SWAP2 SUB SWAP1 RETURN JUMPDEST PUSH2 0x126 PUSH1 0x4 DUP1 CALLDATASIZE SUB DUP2 ADD SWAP1 PUSH2 0x121 SWAP2 SWAP1 PUSH2 0x6B8 JUMP JUMPDEST PUSH2 0x233 JUMP JUMPDEST PUSH1 0x40 MLOAD PUSH2 0x133 SWAP2 SWAP1 PUSH2 0x74B JUMP JUMPDEST PUSH1 0x40 MLOAD DUP1 SWAP2 SUB SWAP1 RETURN JUMPDEST PUSH1 0x1 SLOAD DUP2 JUMP JUMPDEST PUSH1 0x0 DUP1 PUSH1 0x0 DUP1 PUSH2 0x151 DUP6 PUSH2 0x1F0 JUMP JUMPDEST DUP1 SWAP4 POP DUP2 SWAP5 POP DUP3 SWAP6 POP POP POP POP PUSH1 0x1 DUP7 DUP5 DUP5 DUP5 PUSH1 0x40 MLOAD PUSH1 0x0 DUP2 MSTORE PUSH1 0x20 ADD PUSH1 0x40 MSTORE PUSH1 0x40 MLOAD PUSH2 0x180 SWAP5 SWAP4 SWAP3 SWAP2 SWAP1 PUSH2 0x766 JUMP JUMPDEST PUSH1 0x20 PUSH1 0x40 MLOAD PUSH1 0x20 DUP2 SUB SWAP1 DUP1 DUP5 SUB SWAP1 DUP6 GAS STATICCALL ISZERO DUP1 ISZERO PUSH2 0x1A2 JUMPI RETURNDATASIZE PUSH1 0x0 DUP1 RETURNDATACOPY RETURNDATASIZE PUSH1 0x0 REVERT JUMPDEST POP POP POP PUSH1 0x20 PUSH1 0x40 MLOAD SUB MLOAD SWAP4 POP POP POP POP SWAP3 SWAP2 POP POP JUMP JUMPDEST PUSH1 0x0 DUP2 PUSH1 0x40 MLOAD PUSH1 0x20 ADD PUSH2 0x1CA SWAP2 SWAP1 PUSH2 0x81C JUMP JUMPDEST PUSH1 0x40 MLOAD PUSH1 0x20 DUP2 DUP4 SUB SUB DUP2 MSTORE SWAP1 PUSH1 0x40 MSTORE DUP1 MLOAD SWAP1 PUSH1 0x20 ADD KECCAK256 PUSH1 0x1 DUP2 SWAP1 SSTORE POP PUSH1 0x1 SLOAD SWAP1 POP SWAP2 SWAP1 POP JUMP JUMPDEST PUSH1 0x0 DUP1 PUSH1 0x0 PUSH1 0x41 DUP5 MLOAD EQ PUSH2 0x203 JUMPI PUSH1 0x0 DUP1 REVERT JUMPDEST PUSH1 0x0 DUP1 PUSH1 0x0 PUSH1 0x20 DUP8 ADD MLOAD SWAP3 POP PUSH1 0x40 DUP8 ADD MLOAD SWAP2 POP PUSH1 0x60 DUP8 ADD MLOAD PUSH1 0x0 BYTE SWAP1 POP DUP1 DUP4 DUP4 SWAP6 POP SWAP6 POP SWAP6 POP POP POP POP SWAP2 SWAP4 SWAP1 SWAP3 POP JUMP JUMPDEST PUSH1 0x0 DUP1 DUP4 PUSH1 0x40 MLOAD PUSH1 0x20 ADD PUSH2 0x247 SWAP2 SWAP1 PUSH2 0x81C JUMP JUMPDEST PUSH1 0x40 MLOAD PUSH1 0x20 DUP2 DUP4 SUB SUB DUP2 MSTORE SWAP1 PUSH1 0x40 MSTORE DUP1 MLOAD SWAP1 PUSH1 0x20 ADD KECCAK256 SWAP1 POP PUSH1 0x0 DUP1 SLOAD SWAP1 PUSH2 0x100 EXP SWAP1 DIV PUSH20 0xFFFFFFFFFFFFFFFFFFFFFFFFFFFFFFFFFFFFFFFF AND PUSH20 0xFFFFFFFFFFFFFFFFFFFFFFFFFFFFFFFFFFFFFFFF AND PUSH2 0x2A0 DUP3 DUP6 PUSH2 0x142 JUMP JUMPDEST PUSH20 0xFFFFFFFFFFFFFFFFFFFFFFFFFFFFFFFFFFFFFFFF AND EQ SWAP2 POP POP SWAP3 SWAP2 POP POP JUMP JUMPDEST PUSH1 0x0 DUP2 SWAP1 POP SWAP2 SWAP1 POP JUMP JUMPDEST PUSH2 0x2D3 DUP2 PUSH2 0x2C0 JUMP JUMPDEST DUP3 MSTORE POP POP JUMP JUMPDEST PUSH1 0x0 PUSH1 0x20 DUP3 ADD SWAP1 POP PUSH2 0x2EE PUSH1 0x0 DUP4 ADD DUP5 PUSH2 0x2CA JUMP JUMPDEST SWAP3 SWAP2 POP POP JUMP JUMPDEST PUSH1 0x0 PUSH1 0x40 MLOAD SWAP1 POP SWAP1 JUMP JUMPDEST PUSH1 0x0 DUP1 REVERT JUMPDEST PUSH1 0x0 DUP1 REVERT JUMPDEST PUSH2 0x311 DUP2 PUSH2 0x2C0 JUMP JUMPDEST DUP2 EQ PUSH2 0x31C JUMPI PUSH1 0x0 DUP1 REVERT JUMPDEST POP JUMP JUMPDEST PUSH1 0x0 DUP2 CALLDATALOAD SWAP1 POP PUSH2 0x32E DUP2 PUSH2 0x308 JUMP JUMPDEST SWAP3 SWAP2 POP POP JUMP JUMPDEST PUSH1 0x0 DUP1 REVERT JUMPDEST PUSH1 0x0 DUP1 REVERT JUMPDEST PUSH1 0x0 PUSH1 0x1F NOT PUSH1 0x1F DUP4 ADD AND SWAP1 POP SWAP2 SWAP1 POP JUMP JUMPDEST PUSH32 0x4E487B7100000000000000000000000000000000000000000000000000000000 PUSH1 0x0 MSTORE PUSH1 0x41 PUSH1 0x4 MSTORE PUSH1 0x24 PUSH1 0x0 REVERT JUMPDEST PUSH2 0x387 DUP3 PUSH2 0x33E JUMP JUMPDEST DUP2 ADD DUP2 DUP2 LT PUSH8 0xFFFFFFFFFFFFFFFF DUP3 GT OR ISZERO PUSH2 0x3A6 JUMPI PUSH2 0x3A5 PUSH2 0x34F JUMP JUMPDEST JUMPDEST DUP1 PUSH1 0x40 MSTORE POP POP POP JUMP JUMPDEST PUSH1 0x0 PUSH2 0x3B9 PUSH2 0x2F4 JUMP JUMPDEST SWAP1 POP PUSH2 0x3C5 DUP3 DUP3 PUSH2 0x37E JUMP JUMPDEST SWAP2 SWAP1 POP JUMP JUMPDEST PUSH1 0x0 PUSH8 0xFFFFFFFFFFFFFFFF DUP3 GT ISZERO PUSH2 0x3E5 JUMPI PUSH2 0x3E4 PUSH2 0x34F JUMP JUMPDEST JUMPDEST PUSH2 0x3EE DUP3 PUSH2 0x33E JUMP JUMPDEST SWAP1 POP PUSH1 0x20 DUP2 ADD SWAP1 POP SWAP2 SWAP1 POP JUMP JUMPDEST DUP3 DUP2 DUP4 CALLDATACOPY PUSH1 0x0 DUP4 DUP4 ADD MSTORE POP POP POP JUMP JUMPDEST PUSH1 0x0 PUSH2 0x41D PUSH2 0x418 DUP5 PUSH2 0x3CA JUMP JUMPDEST PUSH2 0x3AF JUMP JUMPDEST SWAP1 POP DUP3 DUP2 MSTORE PUSH1 0x20 DUP2 ADD DUP5 DUP5 DUP5 ADD GT ISZERO PUSH2 0x439 JUMPI PUSH2 0x438 PUSH2 0x339 JUMP JUMPDEST JUMPDEST PUSH2 0x444 DUP5 DUP3 DUP6 PUSH2 0x3FB JUMP JUMPDEST POP SWAP4 SWAP3 POP POP POP JUMP JUMPDEST PUSH1 0x0 DUP3 PUSH1 0x1F DUP4 ADD SLT PUSH2 0x461 JUMPI PUSH2 0x460 PUSH2 0x334 JUMP JUMPDEST JUMPDEST DUP2 CALLDATALOAD PUSH2 0x471 DUP5 DUP3 PUSH1 0x20 DUP7 ADD PUSH2 0x40A JUMP JUMPDEST SWAP2 POP POP SWAP3 SWAP2 POP POP JUMP JUMPDEST PUSH1 0x0 DUP1 PUSH1 0x40 DUP4 DUP6 SUB SLT ISZERO PUSH2 0x491 JUMPI PUSH2 0x490 PUSH2 0x2FE JUMP JUMPDEST JUMPDEST PUSH1 0x0 PUSH2 0x49F DUP6 DUP3 DUP7 ADD PUSH2 0x31F JUMP JUMPDEST SWAP3 POP POP PUSH1 0x20 DUP4 ADD CALLDATALOAD PUSH8 0xFFFFFFFFFFFFFFFF DUP2 GT ISZERO PUSH2 0x4C0 JUMPI PUSH2 0x4BF PUSH2 0x303 JUMP JUMPDEST JUMPDEST PUSH2 0x4CC DUP6 DUP3 DUP7 ADD PUSH2 0x44C JUMP JUMPDEST SWAP2 POP POP SWAP3 POP SWAP3 SWAP1 POP JUMP JUMPDEST PUSH1 0x0 PUSH20 0xFFFFFFFFFFFFFFFFFFFFFFFFFFFFFFFFFFFFFFFF DUP3 AND SWAP1 POP SWAP2 SWAP1 POP JUMP JUMPDEST PUSH1 0x0 PUSH2 0x501 DUP3 PUSH2 0x4D6 JUMP JUMPDEST SWAP1 POP SWAP2 SWAP1 POP JUMP JUMPDEST PUSH2 0x511 DUP2 PUSH2 0x4F6 JUMP JUMPDEST DUP3 MSTORE POP POP JUMP JUMPDEST PUSH1 0x0 PUSH1 0x20 DUP3 ADD SWAP1 POP PUSH2 0x52C PUSH1 0x0 DUP4 ADD DUP5 PUSH2 0x508 JUMP JUMPDEST SWAP3 SWAP2 POP POP JUMP JUMPDEST PUSH1 0x0 PUSH8 0xFFFFFFFFFFFFFFFF DUP3 GT ISZERO PUSH2 0x54D JUMPI PUSH2 0x54C PUSH2 0x34F JUMP JUMPDEST JUMPDEST PUSH2 0x556 DUP3 PUSH2 0x33E JUMP JUMPDEST SWAP1 POP PUSH1 0x20 DUP2 ADD SWAP1 POP SWAP2 SWAP1 POP JUMP JUMPDEST PUSH1 0x0 PUSH2 0x576 PUSH2 0x571 DUP5 PUSH2 0x532 JUMP JUMPDEST PUSH2 0x3AF JUMP JUMPDEST SWAP1 POP DUP3 DUP2 MSTORE PUSH1 0x20 DUP2 ADD DUP5 DUP5 DUP5 ADD GT ISZERO PUSH2 0x592 JUMPI PUSH2 0x591 PUSH2 0x339 JUMP JUMPDEST JUMPDEST PUSH2 0x59D DUP5 DUP3 DUP6 PUSH2 0x3FB JUMP JUMPDEST POP SWAP4 SWAP3 POP POP POP JUMP JUMPDEST PUSH1 0x0 DUP3 PUSH1 0x1F DUP4 ADD SLT PUSH2 0x5BA JUMPI PUSH2 0x5B9 PUSH2 0x334 JUMP JUMPDEST JUMPDEST DUP2 CALLDATALOAD PUSH2 0x5CA DUP5 DUP3 PUSH1 0x20 DUP7 ADD PUSH2 0x563 JUMP JUMPDEST SWAP2 POP POP SWAP3 SWAP2 POP POP JUMP JUMPDEST PUSH1 0x0 PUSH1 0x20 DUP3 DUP5 SUB SLT ISZERO PUSH2 0x5E9 JUMPI PUSH2 0x5E8 PUSH2 0x2FE JUMP JUMPDEST JUMPDEST PUSH1 0x0 DUP3 ADD CALLDATALOAD PUSH8 0xFFFFFFFFFFFFFFFF DUP2 GT ISZERO PUSH2 0x607 JUMPI PUSH2 0x606 PUSH2 0x303 JUMP JUMPDEST JUMPDEST PUSH2 0x613 DUP5 DUP3 DUP6 ADD PUSH2 0x5A5 JUMP JUMPDEST SWAP2 POP POP SWAP3 SWAP2 POP POP JUMP JUMPDEST PUSH1 0x0 PUSH1 0x20 DUP3 DUP5 SUB SLT ISZERO PUSH2 0x632 JUMPI PUSH2 0x631 PUSH2 0x2FE JUMP JUMPDEST JUMPDEST PUSH1 0x0 DUP3 ADD CALLDATALOAD PUSH8 0xFFFFFFFFFFFFFFFF DUP2 GT ISZERO PUSH2 0x650 JUMPI PUSH2 0x64F PUSH2 0x303 JUMP JUMPDEST JUMPDEST PUSH2 0x65C DUP5 DUP3 DUP6 ADD PUSH2 0x44C JUMP JUMPDEST SWAP2 POP POP SWAP3 SWAP2 POP POP JUMP JUMPDEST PUSH1 0x0 PUSH1 0xFF DUP3 AND SWAP1 POP SWAP2 SWAP1 POP JUMP JUMPDEST PUSH2 0x67B DUP2 PUSH2 0x665 JUMP JUMPDEST DUP3 MSTORE POP POP JUMP JUMPDEST PUSH1 0x0 PUSH1 0x60 DUP3 ADD SWAP1 POP PUSH2 0x696 PUSH1 0x0 DUP4 ADD DUP7 PUSH2 0x672 JUMP JUMPDEST PUSH2 0x6A3 PUSH1 0x20 DUP4 ADD DUP6 PUSH2 0x2CA JUMP JUMPDEST PUSH2 0x6B0 PUSH1 0x40 DUP4 ADD DUP5 PUSH2 0x2CA JUMP JUMPDEST SWAP5 SWAP4 POP POP POP POP JUMP JUMPDEST PUSH1 0x0 DUP1 PUSH1 0x40 DUP4 DUP6 SUB SLT ISZERO PUSH2 0x6CF JUMPI PUSH2 0x6CE PUSH2 0x2FE JUMP JUMPDEST JUMPDEST PUSH1 0x0 DUP4 ADD CALLDATALOAD PUSH8 0xFFFFFFFFFFFFFFFF DUP2 GT ISZERO PUSH2 0x6ED JUMPI PUSH2 0x6EC PUSH2 0x303 JUMP JUMPDEST JUMPDEST PUSH2 0x6F9 DUP6 DUP3 DUP7 ADD PUSH2 0x5A5 JUMP JUMPDEST SWAP3 POP POP PUSH1 0x20 DUP4 ADD CALLDATALOAD PUSH8 0xFFFFFFFFFFFFFFFF DUP2 GT ISZERO PUSH2 0x71A JUMPI PUSH2 0x719 PUSH2 0x303 JUMP JUMPDEST JUMPDEST PUSH2 0x726 DUP6 DUP3 DUP7 ADD PUSH2 0x44C JUMP JUMPDEST SWAP2 POP POP SWAP3 POP SWAP3 SWAP1 POP JUMP JUMPDEST PUSH1 0x0 DUP2 ISZERO ISZERO SWAP1 POP SWAP2 SWAP1 POP JUMP JUMPDEST PUSH2 0x745 DUP2 PUSH2 0x730 JUMP JUMPDEST DUP3 MSTORE POP POP JUMP JUMPDEST PUSH1 0x0 PUSH1 0x20 DUP3 ADD SWAP1 POP PUSH2 0x760 PUSH1 0x0 DUP4 ADD DUP5 PUSH2 0x73C JUMP JUMPDEST SWAP3 SWAP2 POP POP JUMP JUMPDEST PUSH1 0x0 PUSH1 0x80 DUP3 ADD SWAP1 POP PUSH2 0x77B PUSH1 0x0 DUP4 ADD DUP8 PUSH2 0x2CA JUMP JUMPDEST PUSH2 0x788 PUSH1 0x20 DUP4 ADD DUP7 PUSH2 0x672 JUMP JUMPDEST PUSH2 0x795 PUSH1 0x40 DUP4 ADD DUP6 PUSH2 0x2CA JUMP JUMPDEST PUSH2 0x7A2 PUSH1 0x60 DUP4 ADD DUP5 PUSH2 0x2CA JUMP JUMPDEST SWAP6 SWAP5 POP POP POP POP POP JUMP JUMPDEST PUSH1 0x0 DUP2 MLOAD SWAP1 POP SWAP2 SWAP1 POP JUMP JUMPDEST PUSH1 0x0 DUP2 SWAP1 POP SWAP3 SWAP2 POP POP JUMP JUMPDEST PUSH1 0x0 JUMPDEST DUP4 DUP2 LT ISZERO PUSH2 0x7DF JUMPI DUP1 DUP3 ADD MLOAD DUP2 DUP5 ADD MSTORE PUSH1 0x20 DUP2 ADD SWAP1 POP PUSH2 0x7C4 JUMP JUMPDEST PUSH1 0x0 DUP5 DUP5 ADD MSTORE POP POP POP POP JUMP JUMPDEST PUSH1 0x0 PUSH2 0x7F6 DUP3 PUSH2 0x7AB JUMP JUMPDEST PUSH2 0x800 DUP2 DUP6 PUSH2 0x7B6 JUMP JUMPDEST SWAP4 POP PUSH2 0x810 DUP2 DUP6 PUSH1 0x20 DUP7 ADD PUSH2 0x7C1 JUMP JUMPDEST DUP1 DUP5 ADD SWAP2 POP POP SWAP3 SWAP2 POP POP JUMP JUMPDEST PUSH1 0x0 PUSH2 0x828 DUP3 DUP5 PUSH2 0x7EB JUMP JUMPDEST SWAP2 POP DUP2 SWAP1 POP SWAP3 SWAP2 POP POP JUMP INVALID LOG2 PUSH5 0x6970667358 0x22 SLT KECCAK256 0xAA MUL 0xD0 0x28 DELEGATECALL 0xE3 0x2A LOG2 SWAP8 PUSH13 0x483FC21AB854BC94495AE52F31 PUSH22 0x335041995BB6940064736F6C63430008110033000000 "
				},
				"gasEstimates": {
					"creation": {
						"codeDepositCost": "430600",
						"executionCost": "infinite",
						"totalCost": "infinite"
					},
					"external": {
						"isValidData(string,bytes)": "infinite",
						"msgR()": "2407",
						"msgRR(string)": "infinite",
						"recoverSigner(bytes32,bytes)": "infinite",
						"splitSignature(bytes)": "infinite"
					}
				},
				"methodIdentifiers": {
					"isValidData(string,bytes)": "adb41f75",
					"msgR()": "4a719623",
					"msgRR(string)": "9ac71bde",
					"recoverSigner(bytes32,bytes)": "97aba7f9",
					"splitSignature(bytes)": "a7bb5803"
				}
			},
			"storageLayout": {
				"storage": [
					{
						"astId": 3,
						"contract": "contract-442812f524.sol:Verify",
						"label": "importantAddress",
						"offset": 0,
						"slot": "0",
						"type": "t_address"
					},
					{
						"astId": 5,
						"contract": "contract-442812f524.sol:Verify",
						"label": "msgR",
						"offset": 0,
						"slot": "1",
						"type": "t_bytes32"
					}
				],
				"types": {
					"t_address": {
						"encoding": "inplace",
						"label": "address",
						"numberOfBytes": "20"
					},
					"t_bytes32": {
						"encoding": "inplace",
						"label": "bytes32",
						"numberOfBytes": "32"
					}
				}
			},
			"userdoc": {
				"kind": "user",
				"methods": {},
				"version": 1
			}
		}
	}
}