{
	"feg.sol": {
		"FEG": {
			"abi": [
				{
					"inputs": [],
					"stateMutability": "nonpayable",
					"type": "constructor"
				},
				{
					"anonymous": false,
					"inputs": [
						{
							"indexed": true,
							"internalType": "address",
							"name": "owner",
							"type": "address"
						},
						{
							"indexed": true,
							"internalType": "address",
							"name": "spender",
							"type": "address"
						},
						{
							"indexed": false,
							"internalType": "uint256",
							"name": "value",
							"type": "uint256"
						}
					],
					"name": "Approval",
					"type": "event"
				},
				{
					"anonymous": false,
					"inputs": [
						{
							"indexed": true,
							"internalType": "address",
							"name": "previousOwner",
							"type": "address"
						},
						{
							"indexed": true,
							"internalType": "address",
							"name": "newOwner",
							"type": "address"
						}
					],
					"name": "OwnershipTransferred",
					"type": "event"
				},
				{
					"anonymous": false,
					"inputs": [
						{
							"indexed": true,
							"internalType": "address",
							"name": "from",
							"type": "address"
						},
						{
							"indexed": true,
							"internalType": "address",
							"name": "to",
							"type": "address"
						},
						{
							"indexed": false,
							"internalType": "uint256",
							"name": "value",
							"type": "uint256"
						}
					],
					"name": "Transfer",
					"type": "event"
				},
				{
					"inputs": [
						{
							"internalType": "address",
							"name": "",
							"type": "address"
						}
					],
					"name": "_rOwned",
					"outputs": [
						{
							"internalType": "uint256",
							"name": "",
							"type": "uint256"
						}
					],
					"stateMutability": "view",
					"type": "function"
				},
				{
					"inputs": [
						{
							"internalType": "address",
							"name": "owner",
							"type": "address"
						},
						{
							"internalType": "address",
							"name": "spender",
							"type": "address"
						}
					],
					"name": "allowance",
					"outputs": [
						{
							"internalType": "uint256",
							"name": "",
							"type": "uint256"
						}
					],
					"stateMutability": "view",
					"type": "function"
				},
				{
					"inputs": [
						{
							"internalType": "address",
							"name": "spender",
							"type": "address"
						},
						{
							"internalType": "uint256",
							"name": "amount",
							"type": "uint256"
						}
					],
					"name": "approve",
					"outputs": [
						{
							"internalType": "bool",
							"name": "",
							"type": "bool"
						}
					],
					"stateMutability": "nonpayable",
					"type": "function"
				},
				{
					"inputs": [
						{
							"internalType": "address",
							"name": "account",
							"type": "address"
						}
					],
					"name": "balanceOf",
					"outputs": [
						{
							"internalType": "uint256",
							"name": "",
							"type": "uint256"
						}
					],
					"stateMutability": "view",
					"type": "function"
				},
				{
					"inputs": [],
					"name": "decimals",
					"outputs": [
						{
							"internalType": "uint8",
							"name": "",
							"type": "uint8"
						}
					],
					"stateMutability": "view",
					"type": "function"
				},
				{
					"inputs": [
						{
							"internalType": "address",
							"name": "spender",
							"type": "address"
						},
						{
							"internalType": "uint256",
							"name": "subtractedValue",
							"type": "uint256"
						}
					],
					"name": "decreaseAllowance",
					"outputs": [
						{
							"internalType": "bool",
							"name": "",
							"type": "bool"
						}
					],
					"stateMutability": "nonpayable",
					"type": "function"
				},
				{
					"inputs": [
						{
							"internalType": "address",
							"name": "account",
							"type": "address"
						}
					],
					"name": "excludeAccount",
					"outputs": [],
					"stateMutability": "nonpayable",
					"type": "function"
				},
				{
					"inputs": [
						{
							"internalType": "address",
							"name": "account",
							"type": "address"
						}
					],
					"name": "includeAccount",
					"outputs": [],
					"stateMutability": "nonpayable",
					"type": "function"
				},
				{
					"inputs": [
						{
							"internalType": "address",
							"name": "spender",
							"type": "address"
						},
						{
							"internalType": "uint256",
							"name": "addedValue",
							"type": "uint256"
						}
					],
					"name": "increaseAllowance",
					"outputs": [
						{
							"internalType": "bool",
							"name": "",
							"type": "bool"
						}
					],
					"stateMutability": "nonpayable",
					"type": "function"
				},
				{
					"inputs": [
						{
							"internalType": "address",
							"name": "account",
							"type": "address"
						}
					],
					"name": "isExcluded",
					"outputs": [
						{
							"internalType": "bool",
							"name": "",
							"type": "bool"
						}
					],
					"stateMutability": "view",
					"type": "function"
				},
				{
					"inputs": [],
					"name": "name",
					"outputs": [
						{
							"internalType": "string",
							"name": "",
							"type": "string"
						}
					],
					"stateMutability": "view",
					"type": "function"
				},
				{
					"inputs": [],
					"name": "owner",
					"outputs": [
						{
							"internalType": "address",
							"name": "",
							"type": "address"
						}
					],
					"stateMutability": "view",
					"type": "function"
				},
				{
					"inputs": [
						{
							"internalType": "uint256",
							"name": "tAmount",
							"type": "uint256"
						}
					],
					"name": "reflect",
					"outputs": [],
					"stateMutability": "nonpayable",
					"type": "function"
				},
				{
					"inputs": [
						{
							"internalType": "uint256",
							"name": "tAmount",
							"type": "uint256"
						},
						{
							"internalType": "bool",
							"name": "deductTransferFee",
							"type": "bool"
						}
					],
					"name": "reflectionFromToken",
					"outputs": [
						{
							"internalType": "uint256",
							"name": "",
							"type": "uint256"
						}
					],
					"stateMutability": "view",
					"type": "function"
				},
				{
					"inputs": [],
					"name": "renounceOwnership",
					"outputs": [],
					"stateMutability": "nonpayable",
					"type": "function"
				},
				{
					"inputs": [],
					"name": "symbol",
					"outputs": [
						{
							"internalType": "string",
							"name": "",
							"type": "string"
						}
					],
					"stateMutability": "view",
					"type": "function"
				},
				{
					"inputs": [
						{
							"internalType": "uint256",
							"name": "rAmount",
							"type": "uint256"
						}
					],
					"name": "tokenFromReflection",
					"outputs": [
						{
							"internalType": "uint256",
							"name": "",
							"type": "uint256"
						}
					],
					"stateMutability": "view",
					"type": "function"
				},
				{
					"inputs": [],
					"name": "totalFees",
					"outputs": [
						{
							"internalType": "uint256",
							"name": "",
							"type": "uint256"
						}
					],
					"stateMutability": "view",
					"type": "function"
				},
				{
					"inputs": [],
					"name": "totalSupply",
					"outputs": [
						{
							"internalType": "uint256",
							"name": "",
							"type": "uint256"
						}
					],
					"stateMutability": "view",
					"type": "function"
				},
				{
					"inputs": [
						{
							"internalType": "address",
							"name": "recipient",
							"type": "address"
						},
						{
							"internalType": "uint256",
							"name": "amount",
							"type": "uint256"
						}
					],
					"name": "transfer",
					"outputs": [
						{
							"internalType": "bool",
							"name": "",
							"type": "bool"
						}
					],
					"stateMutability": "nonpayable",
					"type": "function"
				},
				{
					"inputs": [
						{
							"internalType": "address",
							"name": "sender",
							"type": "address"
						},
						{
							"internalType": "address",
							"name": "recipient",
							"type": "address"
						},
						{
							"internalType": "uint256",
							"name": "amount",
							"type": "uint256"
						}
					],
					"name": "transferFrom",
					"outputs": [
						{
							"internalType": "bool",
							"name": "",
							"type": "bool"
						}
					],
					"stateMutability": "nonpayable",
					"type": "function"
				},
				{
					"inputs": [
						{
							"internalType": "address",
							"name": "newOwner",
							"type": "address"
						}
					],
					"name": "transferOwnership",
					"outputs": [],
					"stateMutability": "nonpayable",
					"type": "function"
				}
			],
			"devdoc": {
				"kind": "dev",
				"methods": {
					"allowance(address,address)": {
						"details": "Returns the remaining number of tokens that `spender` will be allowed to spend on behalf of `owner` through {transferFrom}. This is zero by default. This value changes when {approve} or {transferFrom} are called."
					},
					"approve(address,uint256)": {
						"details": "Sets `amount` as the allowance of `spender` over the caller's tokens. Returns a boolean value indicating whether the operation succeeded. IMPORTANT: Beware that changing an allowance with this method brings the risk that someone may use both the old and the new allowance by unfortunate transaction ordering. One possible solution to mitigate this race condition is to first reduce the spender's allowance to 0 and set the desired value afterwards: https://github.com/ethereum/EIPs/issues/20#issuecomment-263524729 Emits an {Approval} event."
					},
					"balanceOf(address)": {
						"details": "Returns the amount of tokens owned by `account`."
					},
					"owner()": {
						"details": "Returns the address of the current owner."
					},
					"renounceOwnership()": {
						"details": "Leaves the contract without owner. It will not be possible to call `onlyOwner` functions anymore. Can only be called by the current owner. NOTE: Renouncing ownership will leave the contract without an owner, thereby removing any functionality that is only available to the owner."
					},
					"totalSupply()": {
						"details": "Returns the amount of tokens in existence."
					},
					"transfer(address,uint256)": {
						"details": "Moves `amount` tokens from the caller's account to `recipient`. Returns a boolean value indicating whether the operation succeeded. Emits a {Transfer} event."
					},
					"transferFrom(address,address,uint256)": {
						"details": "Moves `amount` tokens from `sender` to `recipient` using the allowance mechanism. `amount` is then deducted from the caller's allowance. Returns a boolean value indicating whether the operation succeeded. Emits a {Transfer} event."
					},
					"transferOwnership(address)": {
						"details": "Transfers ownership of the contract to a new account (`newOwner`). Can only be called by the current owner."
					}
				},
				"version": 1
			},
			"evm": {
				"assembly": "    /* \"feg.sol\":15540:25464  contract FEG is Context, IERC20, Ownable {... */\n  mstore(0x40, 0x80)\n    /* \"feg.sol\":15997:16025  100000000000 * 10**6 * 10**9 */\n  0x52b7d2dcc80cd2e4000000\n    /* \"feg.sol\":15954:15955  0 */\n  0x00\n    /* \"feg.sol\":15945:15956  ~uint256(0) */\n  not\n    /* \"feg.sol\":16065:16078  MAX % _tTotal */\n  dup2\n  tag_1\n  jumpi\n  invalid\ntag_1:\n  mod\n    /* \"feg.sol\":15954:15955  0 */\n  0x00\n    /* \"feg.sol\":15945:15956  ~uint256(0) */\n  not\n    /* \"feg.sol\":16058:16079  MAX - (MAX % _tTotal) */\n  sub\n    /* \"feg.sol\":16031:16080  uint256 private _rTotal = (MAX - (MAX % _tTotal)) */\n  0x06\n  sstore\n    /* \"feg.sol\":16119:16152  string private _name = 'FEGtoken' */\n  mload(0x40)\n  dup1\n  0x40\n  add\n  0x40\n  mstore\n  dup1\n  0x08\n  dup2\n  mstore\n  0x20\n  add\n  0x464547746f6b656e000000000000000000000000000000000000000000000000\n  dup2\n  mstore\n  pop\n  0x08\n  swap1\n  dup1\n  mload\n  swap1\n  0x20\n  add\n  swap1\n  tag_2\n  swap3\n  swap2\n  swap1\n  tag_3\n  jump\t// in\ntag_2:\n  pop\n    /* \"feg.sol\":16158:16188  string private _symbol = 'FEG' */\n  mload(0x40)\n  dup1\n  0x40\n  add\n  0x40\n  mstore\n  dup1\n  0x03\n  dup2\n  mstore\n  0x20\n  add\n  0x4645470000000000000000000000000000000000000000000000000000000000\n  dup2\n  mstore\n  pop\n  0x09\n  swap1\n  dup1\n  mload\n  swap1\n  0x20\n  add\n  swap1\n  tag_4\n  swap3\n  swap2\n  swap1\n  tag_3\n  jump\t// in\ntag_4:\n  pop\n    /* \"feg.sol\":16220:16221  9 */\n  0x09\n    /* \"feg.sol\":16194:16221  uint8 private _decimals = 9 */\n  0x0a\n  exp(0x0100, 0x00)\n  dup2\n  sload\n  dup2\n  0xff\n  mul\n  not\n  and\n  swap1\n  dup4\n  0xff\n  and\n  mul\n  or\n  swap1\n  sstore\n  pop\n    /* \"feg.sol\":16228:16356  constructor () public {... */\n  callvalue\n  dup1\n  iszero\n  tag_5\n  jumpi\n  0x00\n  dup1\n  revert\ntag_5:\n  pop\n    /* \"feg.sol\":14176:14193  address msgSender */\n  0x00\n    /* \"feg.sol\":14196:14208  _msgSender() */\n  tag_9\n    /* \"feg.sol\":14196:14206  _msgSender */\n  shl(0x20, tag_10)\n    /* \"feg.sol\":14196:14208  _msgSender() */\n  0x20\n  shr\n  jump\t// in\ntag_9:\n    /* \"feg.sol\":14176:14208  address msgSender = _msgSender() */\n  swap1\n  pop\n    /* \"feg.sol\":14227:14236  msgSender */\n  dup1\n    /* \"feg.sol\":14218:14224  _owner */\n  0x00\n  dup1\n    /* \"feg.sol\":14218:14236  _owner = msgSender */\n  0x0100\n  exp\n  dup2\n  sload\n  dup2\n  0xffffffffffffffffffffffffffffffffffffffff\n  mul\n  not\n  and\n  swap1\n  dup4\n  0xffffffffffffffffffffffffffffffffffffffff\n  and\n  mul\n  or\n  swap1\n  sstore\n  pop\n    /* \"feg.sol\":14284:14293  msgSender */\n  dup1\n    /* \"feg.sol\":14251:14294  OwnershipTransferred(address(0), msgSender) */\n  0xffffffffffffffffffffffffffffffffffffffff\n  and\n    /* \"feg.sol\":14280:14281  0 */\n  0x00\n    /* \"feg.sol\":14251:14294  OwnershipTransferred(address(0), msgSender) */\n  0xffffffffffffffffffffffffffffffffffffffff\n  and\n  0x8be0079c531659141344cd1fd0a4f28419497f9722a3daafe3b4186f6b6457e0\n  mload(0x40)\n  mload(0x40)\n  dup1\n  swap2\n  sub\n  swap1\n  log3\n    /* \"feg.sol\":14142:14301  constructor () internal {... */\n  pop\n    /* \"feg.sol\":16284:16291  _rTotal */\n  sload(0x06)\n    /* \"feg.sol\":16260:16267  _rOwned */\n  0x01\n    /* \"feg.sol\":16260:16281  _rOwned[_msgSender()] */\n  0x00\n    /* \"feg.sol\":16268:16280  _msgSender() */\n  tag_12\n    /* \"feg.sol\":16268:16278  _msgSender */\n  shl(0x20, tag_10)\n    /* \"feg.sol\":16268:16280  _msgSender() */\n  0x20\n  shr\n  jump\t// in\ntag_12:\n    /* \"feg.sol\":16260:16281  _rOwned[_msgSender()] */\n  0xffffffffffffffffffffffffffffffffffffffff\n  and\n  0xffffffffffffffffffffffffffffffffffffffff\n  and\n  dup2\n  mstore\n  0x20\n  add\n  swap1\n  dup2\n  mstore\n  0x20\n  add\n  0x00\n  keccak256\n    /* \"feg.sol\":16260:16291  _rOwned[_msgSender()] = _rTotal */\n  dup2\n  swap1\n  sstore\n  pop\n    /* \"feg.sol\":16327:16339  _msgSender() */\n  tag_13\n    /* \"feg.sol\":16327:16337  _msgSender */\n  shl(0x20, tag_10)\n    /* \"feg.sol\":16327:16339  _msgSender() */\n  0x20\n  shr\n  jump\t// in\ntag_13:\n    /* \"feg.sol\":16306:16349  Transfer(address(0), _msgSender(), _tTotal) */\n  0xffffffffffffffffffffffffffffffffffffffff\n  and\n    /* \"feg.sol\":16323:16324  0 */\n  0x00\n    /* \"feg.sol\":16306:16349  Transfer(address(0), _msgSender(), _tTotal) */\n  0xffffffffffffffffffffffffffffffffffffffff\n  and\n  0xddf252ad1be2c89b69c2b068fc378daa952ba7f163c4a11628f55a4df523b3ef\n    /* \"feg.sol\":15997:16025  100000000000 * 10**6 * 10**9 */\n  0x52b7d2dcc80cd2e4000000\n    /* \"feg.sol\":16306:16349  Transfer(address(0), _msgSender(), _tTotal) */\n  mload(0x40)\n  dup1\n  dup3\n  dup2\n  mstore\n  0x20\n  add\n  swap2\n  pop\n  pop\n  mload(0x40)\n  dup1\n  swap2\n  sub\n  swap1\n  log3\n    /* \"feg.sol\":15540:25464  contract FEG is Context, IERC20, Ownable {... */\n  jump(tag_14)\n    /* \"feg.sol\":448:552  function _msgSender() internal view virtual returns (address payable) {... */\ntag_10:\n    /* \"feg.sol\":501:516  address payable */\n  0x00\n    /* \"feg.sol\":535:545  msg.sender */\n  caller\n    /* \"feg.sol\":528:545  return msg.sender */\n  swap1\n  pop\n    /* \"feg.sol\":448:552  function _msgSender() internal view virtual returns (address payable) {... */\n  swap1\n  jump\t// out\n    /* \"feg.sol\":15540:25464  contract FEG is Context, IERC20, Ownable {... */\ntag_3:\n  dup3\n  dup1\n  sload\n  0x01\n  dup2\n  0x01\n  and\n  iszero\n  0x0100\n  mul\n  sub\n  and\n  0x02\n  swap1\n  div\n  swap1\n  0x00\n  mstore\n  keccak256(0x00, 0x20)\n  swap1\n  0x1f\n  add\n  0x20\n  swap1\n  div\n  dup2\n  add\n  swap3\n  dup3\n  0x1f\n  lt\n  tag_17\n  jumpi\n  dup1\n  mload\n  not(0xff)\n  and\n  dup4\n  dup1\n  add\n  or\n  dup6\n  sstore\n  jump(tag_16)\ntag_17:\n  dup3\n  dup1\n  add\n  0x01\n  add\n  dup6\n  sstore\n  dup3\n  iszero\n  tag_16\n  jumpi\n  swap2\n  dup3\n  add\ntag_18:\n  dup3\n  dup2\n  gt\n  iszero\n  tag_19\n  jumpi\n  dup3\n  mload\n  dup3\n  sstore\n  swap2\n  0x20\n  add\n  swap2\n  swap1\n  0x01\n  add\n  swap1\n  jump(tag_18)\ntag_19:\ntag_16:\n  pop\n  swap1\n  pop\n  tag_20\n  swap2\n  swap1\n  tag_21\n  jump\t// in\ntag_20:\n  pop\n  swap1\n  jump\t// out\ntag_21:\ntag_22:\n  dup1\n  dup3\n  gt\n  iszero\n  tag_23\n  jumpi\n  0x00\n  dup2\n  0x00\n  swap1\n  sstore\n  pop\n  0x01\n  add\n  jump(tag_22)\ntag_23:\n  pop\n  swap1\n  jump\t// out\ntag_14:\n  dataSize(sub_0)\n  dup1\n  dataOffset(sub_0)\n  0x00\n  codecopy\n  0x00\n  return\nstop\n\nsub_0: assembly {\n        /* \"feg.sol\":15540:25464  contract FEG is Context, IERC20, Ownable {... */\n      mstore(0x40, 0x80)\n      callvalue\n      dup1\n      iszero\n      tag_1\n      jumpi\n      0x00\n      dup1\n      revert\n    tag_1:\n      pop\n      jumpi(tag_2, lt(calldatasize, 0x04))\n      shr(0xe0, calldataload(0x00))\n      dup1\n      0x70a08231\n      gt\n      tag_25\n      jumpi\n      dup1\n      0xa9059cbb\n      gt\n      tag_26\n      jumpi\n      dup1\n      0xa9059cbb\n      eq\n      tag_19\n      jumpi\n      dup1\n      0xcba0e996\n      eq\n      tag_20\n      jumpi\n      dup1\n      0xdd62ed3e\n      eq\n      tag_21\n      jumpi\n      dup1\n      0xf2cc0c18\n      eq\n      tag_22\n      jumpi\n      dup1\n      0xf2fde38b\n      eq\n      tag_23\n      jumpi\n      dup1\n      0xf84354f1\n      eq\n      tag_24\n      jumpi\n      jump(tag_2)\n    tag_26:\n      dup1\n      0x70a08231\n      eq\n      tag_14\n      jumpi\n      dup1\n      0x715018a6\n      eq\n      tag_15\n      jumpi\n      dup1\n      0x8da5cb5b\n      eq\n      tag_16\n      jumpi\n      dup1\n      0x95d89b41\n      eq\n      tag_17\n      jumpi\n      dup1\n      0xa457c2d7\n      eq\n      tag_18\n      jumpi\n      jump(tag_2)\n    tag_25:\n      dup1\n      0x18160ddd\n      gt\n      tag_27\n      jumpi\n      dup1\n      0x18160ddd\n      eq\n      tag_8\n      jumpi\n      dup1\n      0x23b872dd\n      eq\n      tag_9\n      jumpi\n      dup1\n      0x2d838119\n      eq\n      tag_10\n      jumpi\n      dup1\n      0x313ce567\n      eq\n      tag_11\n      jumpi\n      dup1\n      0x39509351\n      eq\n      tag_12\n      jumpi\n      dup1\n      0x4549b039\n      eq\n      tag_13\n      jumpi\n      jump(tag_2)\n    tag_27:\n      dup1\n      0x053ab182\n      eq\n      tag_3\n      jumpi\n      dup1\n      0x06fdde03\n      eq\n      tag_4\n      jumpi\n      dup1\n      0x095ea7b3\n      eq\n      tag_5\n      jumpi\n      dup1\n      0x0cfc15f9\n      eq\n      tag_6\n      jumpi\n      dup1\n      0x13114a9d\n      eq\n      tag_7\n      jumpi\n    tag_2:\n      0x00\n      dup1\n      revert\n        /* \"feg.sol\":18421:18790  function reflect(uint256 tAmount) public {... */\n    tag_3:\n      tag_28\n      0x04\n      dup1\n      calldatasize\n      sub\n      0x20\n      dup2\n      lt\n      iszero\n      tag_29\n      jumpi\n      0x00\n      dup1\n      revert\n    tag_29:\n      dup2\n      add\n      swap1\n      dup1\n      dup1\n      calldataload\n      swap1\n      0x20\n      add\n      swap1\n      swap3\n      swap2\n      swap1\n      pop\n      pop\n      pop\n      tag_30\n      jump\t// in\n    tag_28:\n      stop\n        /* \"feg.sol\":16362:16443  function name() public view returns (string memory) {... */\n    tag_4:\n      tag_31\n      tag_32\n      jump\t// in\n    tag_31:\n      mload(0x40)\n      dup1\n      dup1\n      0x20\n      add\n      dup3\n      dup2\n      sub\n      dup3\n      mstore\n      dup4\n      dup2\n      dup2\n      mload\n      dup2\n      mstore\n      0x20\n      add\n      swap2\n      pop\n      dup1\n      mload\n      swap1\n      0x20\n      add\n      swap1\n      dup1\n      dup4\n      dup4\n      0x00\n    tag_33:\n      dup4\n      dup2\n      lt\n      iszero\n      tag_35\n      jumpi\n      dup1\n      dup3\n      add\n      mload\n      dup2\n      dup5\n      add\n      mstore\n      0x20\n      dup2\n      add\n      swap1\n      pop\n      jump(tag_33)\n    tag_35:\n      pop\n      pop\n      pop\n      pop\n      swap1\n      pop\n      swap1\n      dup2\n      add\n      swap1\n      0x1f\n      and\n      dup1\n      iszero\n      tag_36\n      jumpi\n      dup1\n      dup3\n      sub\n      dup1\n      mload\n      0x01\n      dup4\n      0x20\n      sub\n      0x0100\n      exp\n      sub\n      not\n      and\n      dup2\n      mstore\n      0x20\n      add\n      swap2\n      pop\n    tag_36:\n      pop\n      swap3\n      pop\n      pop\n      pop\n      mload(0x40)\n      dup1\n      swap2\n      sub\n      swap1\n      return\n        /* \"feg.sol\":17244:17402  function approve(address spender, uint256 amount) public override returns (bool) {... */\n    tag_5:\n      tag_37\n      0x04\n      dup1\n      calldatasize\n      sub\n      0x40\n      dup2\n      lt\n      iszero\n      tag_38\n      jumpi\n      0x00\n      dup1\n      revert\n    tag_38:\n      dup2\n      add\n      swap1\n      dup1\n      dup1\n      calldataload\n      0xffffffffffffffffffffffffffffffffffffffff\n      and\n      swap1\n      0x20\n      add\n      swap1\n      swap3\n      swap2\n      swap1\n      dup1\n      calldataload\n      swap1\n      0x20\n      add\n      swap1\n      swap3\n      swap2\n      swap1\n      pop\n      pop\n      pop\n      tag_39\n      jump\t// in\n    tag_37:\n      mload(0x40)\n      dup1\n      dup3\n      iszero\n      iszero\n      dup2\n      mstore\n      0x20\n      add\n      swap2\n      pop\n      pop\n      mload(0x40)\n      dup1\n      swap2\n      sub\n      swap1\n      return\n        /* \"feg.sol\":15651:15694  mapping (address => uint256) public _rOwned */\n    tag_6:\n      tag_40\n      0x04\n      dup1\n      calldatasize\n      sub\n      0x20\n      dup2\n      lt\n      iszero\n      tag_41\n      jumpi\n      0x00\n      dup1\n      revert\n    tag_41:\n      dup2\n      add\n      swap1\n      dup1\n      dup1\n      calldataload\n      0xffffffffffffffffffffffffffffffffffffffff\n      and\n      swap1\n      0x20\n      add\n      swap1\n      swap3\n      swap2\n      swap1\n      pop\n      pop\n      pop\n      tag_42\n      jump\t// in\n    tag_40:\n      mload(0x40)\n      dup1\n      dup3\n      dup2\n      mstore\n      0x20\n      add\n      swap2\n      pop\n      pop\n      mload(0x40)\n      dup1\n      swap2\n      sub\n      swap1\n      return\n        /* \"feg.sol\":18330:18415  function totalFees() public view returns (uint256) {... */\n    tag_7:\n      tag_43\n      tag_44\n      jump\t// in\n    tag_43:\n      mload(0x40)\n      dup1\n      dup3\n      dup2\n      mstore\n      0x20\n      add\n      swap2\n      pop\n      pop\n      mload(0x40)\n      dup1\n      swap2\n      sub\n      swap1\n      return\n        /* \"feg.sol\":16627:16720  function totalSupply() public view override returns (uint256) {... */\n    tag_8:\n      tag_45\n      tag_46\n      jump\t// in\n    tag_45:\n      mload(0x40)\n      dup1\n      dup3\n      dup2\n      mstore\n      0x20\n      add\n      swap2\n      pop\n      pop\n      mload(0x40)\n      dup1\n      swap2\n      sub\n      swap1\n      return\n        /* \"feg.sol\":17408:17717  function transferFrom(address sender, address recipient, uint256 amount) public override returns (bool) {... */\n    tag_9:\n      tag_47\n      0x04\n      dup1\n      calldatasize\n      sub\n      0x60\n      dup2\n      lt\n      iszero\n      tag_48\n      jumpi\n      0x00\n      dup1\n      revert\n    tag_48:\n      dup2\n      add\n      swap1\n      dup1\n      dup1\n      calldataload\n      0xffffffffffffffffffffffffffffffffffffffff\n      and\n      swap1\n      0x20\n      add\n      swap1\n      swap3\n      swap2\n      swap1\n      dup1\n      calldataload\n      0xffffffffffffffffffffffffffffffffffffffff\n      and\n      swap1\n      0x20\n      add\n      swap1\n      swap3\n      swap2\n      swap1\n      dup1\n      calldataload\n      swap1\n      0x20\n      add\n      swap1\n      swap3\n      swap2\n      swap1\n      pop\n      pop\n      pop\n      tag_49\n      jump\t// in\n    tag_47:\n      mload(0x40)\n      dup1\n      dup3\n      iszero\n      iszero\n      dup2\n      mstore\n      0x20\n      add\n      swap2\n      pop\n      pop\n      mload(0x40)\n      dup1\n      swap2\n      sub\n      swap1\n      return\n        /* \"feg.sol\":19227:19476  function tokenFromReflection(uint256 rAmount) public view returns(uint256) {... */\n    tag_10:\n      tag_50\n      0x04\n      dup1\n      calldatasize\n      sub\n      0x20\n      dup2\n      lt\n      iszero\n      tag_51\n      jumpi\n      0x00\n      dup1\n      revert\n    tag_51:\n      dup2\n      add\n      swap1\n      dup1\n      dup1\n      calldataload\n      swap1\n      0x20\n      add\n      swap1\n      swap3\n      swap2\n      swap1\n      pop\n      pop\n      pop\n      tag_52\n      jump\t// in\n    tag_50:\n      mload(0x40)\n      dup1\n      dup3\n      dup2\n      mstore\n      0x20\n      add\n      swap2\n      pop\n      pop\n      mload(0x40)\n      dup1\n      swap2\n      sub\n      swap1\n      return\n        /* \"feg.sol\":16540:16621  function decimals() public view returns (uint8) {... */\n    tag_11:\n      tag_53\n      tag_54\n      jump\t// in\n    tag_53:\n      mload(0x40)\n      dup1\n      dup3\n      0xff\n      and\n      dup2\n      mstore\n      0x20\n      add\n      swap2\n      pop\n      pop\n      mload(0x40)\n      dup1\n      swap2\n      sub\n      swap1\n      return\n        /* \"feg.sol\":17723:17938  function increaseAllowance(address spender, uint256 addedValue) public virtual returns (bool) {... */\n    tag_12:\n      tag_55\n      0x04\n      dup1\n      calldatasize\n      sub\n      0x40\n      dup2\n      lt\n      iszero\n      tag_56\n      jumpi\n      0x00\n      dup1\n      revert\n    tag_56:\n      dup2\n      add\n      swap1\n      dup1\n      dup1\n      calldataload\n      0xffffffffffffffffffffffffffffffffffffffff\n      and\n      swap1\n      0x20\n      add\n      swap1\n      swap3\n      swap2\n      swap1\n      dup1\n      calldataload\n      swap1\n      0x20\n      add\n      swap1\n      swap3\n      swap2\n      swap1\n      pop\n      pop\n      pop\n      tag_57\n      jump\t// in\n    tag_55:\n      mload(0x40)\n      dup1\n      dup3\n      iszero\n      iszero\n      dup2\n      mstore\n      0x20\n      add\n      swap2\n      pop\n      pop\n      mload(0x40)\n      dup1\n      swap2\n      sub\n      swap1\n      return\n        /* \"feg.sol\":18796:19221  function reflectionFromToken(uint256 tAmount, bool deductTransferFee) public view returns(uint256) {... */\n    tag_13:\n      tag_58\n      0x04\n      dup1\n      calldatasize\n      sub\n      0x40\n      dup2\n      lt\n      iszero\n      tag_59\n      jumpi\n      0x00\n      dup1\n      revert\n    tag_59:\n      dup2\n      add\n      swap1\n      dup1\n      dup1\n      calldataload\n      swap1\n      0x20\n      add\n      swap1\n      swap3\n      swap2\n      swap1\n      dup1\n      calldataload\n      iszero\n      iszero\n      swap1\n      0x20\n      add\n      swap1\n      swap3\n      swap2\n      swap1\n      pop\n      pop\n      pop\n      tag_60\n      jump\t// in\n    tag_58:\n      mload(0x40)\n      dup1\n      dup3\n      dup2\n      mstore\n      0x20\n      add\n      swap2\n      pop\n      pop\n      mload(0x40)\n      dup1\n      swap2\n      sub\n      swap1\n      return\n        /* \"feg.sol\":16726:16921  function balanceOf(address account) public view override returns (uint256) {... */\n    tag_14:\n      tag_61\n      0x04\n      dup1\n      calldatasize\n      sub\n      0x20\n      dup2\n      lt\n      iszero\n      tag_62\n      jumpi\n      0x00\n      dup1\n      revert\n    tag_62:\n      dup2\n      add\n      swap1\n      dup1\n      dup1\n      calldataload\n      0xffffffffffffffffffffffffffffffffffffffff\n      and\n      swap1\n      0x20\n      add\n      swap1\n      swap3\n      swap2\n      swap1\n      pop\n      pop\n      pop\n      tag_63\n      jump\t// in\n    tag_61:\n      mload(0x40)\n      dup1\n      dup3\n      dup2\n      mstore\n      0x20\n      add\n      swap2\n      pop\n      pop\n      mload(0x40)\n      dup1\n      swap2\n      sub\n      swap1\n      return\n        /* \"feg.sol\":15000:15145  function renounceOwnership() public virtual onlyOwner {... */\n    tag_15:\n      tag_64\n      tag_65\n      jump\t// in\n    tag_64:\n      stop\n        /* \"feg.sol\":14377:14454  function owner() public view returns (address) {... */\n    tag_16:\n      tag_66\n      tag_67\n      jump\t// in\n    tag_66:\n      mload(0x40)\n      dup1\n      dup3\n      0xffffffffffffffffffffffffffffffffffffffff\n      and\n      dup2\n      mstore\n      0x20\n      add\n      swap2\n      pop\n      pop\n      mload(0x40)\n      dup1\n      swap2\n      sub\n      swap1\n      return\n        /* \"feg.sol\":16449:16534  function symbol() public view returns (string memory) {... */\n    tag_17:\n      tag_68\n      tag_69\n      jump\t// in\n    tag_68:\n      mload(0x40)\n      dup1\n      dup1\n      0x20\n      add\n      dup3\n      dup2\n      sub\n      dup3\n      mstore\n      dup4\n      dup2\n      dup2\n      mload\n      dup2\n      mstore\n      0x20\n      add\n      swap2\n      pop\n      dup1\n      mload\n      swap1\n      0x20\n      add\n      swap1\n      dup1\n      dup4\n      dup4\n      0x00\n    tag_70:\n      dup4\n      dup2\n      lt\n      iszero\n      tag_72\n      jumpi\n      dup1\n      dup3\n      add\n      mload\n      dup2\n      dup5\n      add\n      mstore\n      0x20\n      dup2\n      add\n      swap1\n      pop\n      jump(tag_70)\n    tag_72:\n      pop\n      pop\n      pop\n      pop\n      swap1\n      pop\n      swap1\n      dup2\n      add\n      swap1\n      0x1f\n      and\n      dup1\n      iszero\n      tag_73\n      jumpi\n      dup1\n      dup3\n      sub\n      dup1\n      mload\n      0x01\n      dup4\n      0x20\n      sub\n      0x0100\n      exp\n      sub\n      not\n      and\n      dup2\n      mstore\n      0x20\n      add\n      swap2\n      pop\n    tag_73:\n      pop\n      swap3\n      pop\n      pop\n      pop\n      mload(0x40)\n      dup1\n      swap2\n      sub\n      swap1\n      return\n        /* \"feg.sol\":17944:18210  function decreaseAllowance(address spender, uint256 subtractedValue) public virtual returns (bool) {... */\n    tag_18:\n      tag_74\n      0x04\n      dup1\n      calldatasize\n      sub\n      0x40\n      dup2\n      lt\n      iszero\n      tag_75\n      jumpi\n      0x00\n      dup1\n      revert\n    tag_75:\n      dup2\n      add\n      swap1\n      dup1\n      dup1\n      calldataload\n      0xffffffffffffffffffffffffffffffffffffffff\n      and\n      swap1\n      0x20\n      add\n      swap1\n      swap3\n      swap2\n      swap1\n      dup1\n      calldataload\n      swap1\n      0x20\n      add\n      swap1\n      swap3\n      swap2\n      swap1\n      pop\n      pop\n      pop\n      tag_76\n      jump\t// in\n    tag_74:\n      mload(0x40)\n      dup1\n      dup3\n      iszero\n      iszero\n      dup2\n      mstore\n      0x20\n      add\n      swap2\n      pop\n      pop\n      mload(0x40)\n      dup1\n      swap2\n      sub\n      swap1\n      return\n        /* \"feg.sol\":16927:17091  function transfer(address recipient, uint256 amount) public override returns (bool) {... */\n    tag_19:\n      tag_77\n      0x04\n      dup1\n      calldatasize\n      sub\n      0x40\n      dup2\n      lt\n      iszero\n      tag_78\n      jumpi\n      0x00\n      dup1\n      revert\n    tag_78:\n      dup2\n      add\n      swap1\n      dup1\n      dup1\n      calldataload\n      0xffffffffffffffffffffffffffffffffffffffff\n      and\n      swap1\n      0x20\n      add\n      swap1\n      swap3\n      swap2\n      swap1\n      dup1\n      calldataload\n      swap1\n      0x20\n      add\n      swap1\n      swap3\n      swap2\n      swap1\n      pop\n      pop\n      pop\n      tag_79\n      jump\t// in\n    tag_77:\n      mload(0x40)\n      dup1\n      dup3\n      iszero\n      iszero\n      dup2\n      mstore\n      0x20\n      add\n      swap2\n      pop\n      pop\n      mload(0x40)\n      dup1\n      swap2\n      sub\n      swap1\n      return\n        /* \"feg.sol\":18216:18324  function isExcluded(address account) public view returns (bool) {... */\n    tag_20:\n      tag_80\n      0x04\n      dup1\n      calldatasize\n      sub\n      0x20\n      dup2\n      lt\n      iszero\n      tag_81\n      jumpi\n      0x00\n      dup1\n      revert\n    tag_81:\n      dup2\n      add\n      swap1\n      dup1\n      dup1\n      calldataload\n      0xffffffffffffffffffffffffffffffffffffffff\n      and\n      swap1\n      0x20\n      add\n      swap1\n      swap3\n      swap2\n      swap1\n      pop\n      pop\n      pop\n      tag_82\n      jump\t// in\n    tag_80:\n      mload(0x40)\n      dup1\n      dup3\n      iszero\n      iszero\n      dup2\n      mstore\n      0x20\n      add\n      swap2\n      pop\n      pop\n      mload(0x40)\n      dup1\n      swap2\n      sub\n      swap1\n      return\n        /* \"feg.sol\":17097:17238  function allowance(address owner, address spender) public view override returns (uint256) {... */\n    tag_21:\n      tag_83\n      0x04\n      dup1\n      calldatasize\n      sub\n      0x40\n      dup2\n      lt\n      iszero\n      tag_84\n      jumpi\n      0x00\n      dup1\n      revert\n    tag_84:\n      dup2\n      add\n      swap1\n      dup1\n      dup1\n      calldataload\n      0xffffffffffffffffffffffffffffffffffffffff\n      and\n      swap1\n      0x20\n      add\n      swap1\n      swap3\n      swap2\n      swap1\n      dup1\n      calldataload\n      0xffffffffffffffffffffffffffffffffffffffff\n      and\n      swap1\n      0x20\n      add\n      swap1\n      swap3\n      swap2\n      swap1\n      pop\n      pop\n      pop\n      tag_85\n      jump\t// in\n    tag_83:\n      mload(0x40)\n      dup1\n      dup3\n      dup2\n      mstore\n      0x20\n      add\n      swap2\n      pop\n      pop\n      mload(0x40)\n      dup1\n      swap2\n      sub\n      swap1\n      return\n        /* \"feg.sol\":19482:19807  function excludeAccount(address account) external onlyOwner() {... */\n    tag_22:\n      tag_86\n      0x04\n      dup1\n      calldatasize\n      sub\n      0x20\n      dup2\n      lt\n      iszero\n      tag_87\n      jumpi\n      0x00\n      dup1\n      revert\n    tag_87:\n      dup2\n      add\n      swap1\n      dup1\n      dup1\n      calldataload\n      0xffffffffffffffffffffffffffffffffffffffff\n      and\n      swap1\n      0x20\n      add\n      swap1\n      swap3\n      swap2\n      swap1\n      pop\n      pop\n      pop\n      tag_88\n      jump\t// in\n    tag_86:\n      stop\n        /* \"feg.sol\":15294:15534  function transferOwnership(address newOwner) public virtual onlyOwner {... */\n    tag_23:\n      tag_89\n      0x04\n      dup1\n      calldatasize\n      sub\n      0x20\n      dup2\n      lt\n      iszero\n      tag_90\n      jumpi\n      0x00\n      dup1\n      revert\n    tag_90:\n      dup2\n      add\n      swap1\n      dup1\n      dup1\n      calldataload\n      0xffffffffffffffffffffffffffffffffffffffff\n      and\n      swap1\n      0x20\n      add\n      swap1\n      swap3\n      swap2\n      swap1\n      pop\n      pop\n      pop\n      tag_91\n      jump\t// in\n    tag_89:\n      stop\n        /* \"feg.sol\":19813:20280  function includeAccount(address account) external onlyOwner() {... */\n    tag_24:\n      tag_92\n      0x04\n      dup1\n      calldatasize\n      sub\n      0x20\n      dup2\n      lt\n      iszero\n      tag_93\n      jumpi\n      0x00\n      dup1\n      revert\n    tag_93:\n      dup2\n      add\n      swap1\n      dup1\n      dup1\n      calldataload\n      0xffffffffffffffffffffffffffffffffffffffff\n      and\n      swap1\n      0x20\n      add\n      swap1\n      swap3\n      swap2\n      swap1\n      pop\n      pop\n      pop\n      tag_94\n      jump\t// in\n    tag_92:\n      stop\n        /* \"feg.sol\":18421:18790  function reflect(uint256 tAmount) public {... */\n    tag_30:\n        /* \"feg.sol\":18472:18486  address sender */\n      0x00\n        /* \"feg.sol\":18489:18501  _msgSender() */\n      tag_96\n        /* \"feg.sol\":18489:18499  _msgSender */\n      tag_97\n        /* \"feg.sol\":18489:18501  _msgSender() */\n      jump\t// in\n    tag_96:\n        /* \"feg.sol\":18472:18501  address sender = _msgSender() */\n      swap1\n      pop\n        /* \"feg.sol\":18520:18531  _isExcluded */\n      0x04\n        /* \"feg.sol\":18520:18539  _isExcluded[sender] */\n      0x00\n        /* \"feg.sol\":18532:18538  sender */\n      dup3\n        /* \"feg.sol\":18520:18539  _isExcluded[sender] */\n      0xffffffffffffffffffffffffffffffffffffffff\n      and\n      0xffffffffffffffffffffffffffffffffffffffff\n      and\n      dup2\n      mstore\n      0x20\n      add\n      swap1\n      dup2\n      mstore\n      0x20\n      add\n      0x00\n      keccak256\n      0x00\n      swap1\n      sload\n      swap1\n      0x0100\n      exp\n      swap1\n      div\n      0xff\n      and\n        /* \"feg.sol\":18519:18539  !_isExcluded[sender] */\n      iszero\n        /* \"feg.sol\":18511:18588  require(!_isExcluded[sender], \"Excluded addresses cannot call this function\") */\n      tag_98\n      jumpi\n      mload(0x40)\n      0x08c379a000000000000000000000000000000000000000000000000000000000\n      dup2\n      mstore\n      0x04\n      add\n      dup1\n      dup1\n      0x20\n      add\n      dup3\n      dup2\n      sub\n      dup3\n      mstore\n      0x2c\n      dup2\n      mstore\n      0x20\n      add\n      dup1\n      data_ecefcaf5fbcf9ca6dcdb02298ba1da96f4ead317b0a4779917ecb2e5e7dc3ac4\n      0x2c\n      swap2\n      codecopy\n      0x40\n      add\n      swap2\n      pop\n      pop\n      mload(0x40)\n      dup1\n      swap2\n      sub\n      swap1\n      revert\n    tag_98:\n        /* \"feg.sol\":18599:18614  uint256 rAmount */\n      0x00\n        /* \"feg.sol\":18622:18641  _getValues(tAmount) */\n      tag_99\n        /* \"feg.sol\":18633:18640  tAmount */\n      dup4\n        /* \"feg.sol\":18622:18632  _getValues */\n      tag_100\n        /* \"feg.sol\":18622:18641  _getValues(tAmount) */\n      jump\t// in\n    tag_99:\n        /* \"feg.sol\":18598:18641  (uint256 rAmount,,,,) = _getValues(tAmount) */\n      pop\n      pop\n      pop\n      pop\n      swap1\n      pop\n        /* \"feg.sol\":18669:18697  _rOwned[sender].sub(rAmount) */\n      tag_101\n        /* \"feg.sol\":18689:18696  rAmount */\n      dup2\n        /* \"feg.sol\":18669:18676  _rOwned */\n      0x01\n        /* \"feg.sol\":18669:18684  _rOwned[sender] */\n      0x00\n        /* \"feg.sol\":18677:18683  sender */\n      dup6\n        /* \"feg.sol\":18669:18684  _rOwned[sender] */\n      0xffffffffffffffffffffffffffffffffffffffff\n      and\n      0xffffffffffffffffffffffffffffffffffffffff\n      and\n      dup2\n      mstore\n      0x20\n      add\n      swap1\n      dup2\n      mstore\n      0x20\n      add\n      0x00\n      keccak256\n      sload\n        /* \"feg.sol\":18669:18688  _rOwned[sender].sub */\n      tag_102\n      swap1\n        /* \"feg.sol\":18669:18697  _rOwned[sender].sub(rAmount) */\n      swap2\n      swap1\n      0xffffffff\n      and\n      jump\t// in\n    tag_101:\n        /* \"feg.sol\":18651:18658  _rOwned */\n      0x01\n        /* \"feg.sol\":18651:18666  _rOwned[sender] */\n      0x00\n        /* \"feg.sol\":18659:18665  sender */\n      dup5\n        /* \"feg.sol\":18651:18666  _rOwned[sender] */\n      0xffffffffffffffffffffffffffffffffffffffff\n      and\n      0xffffffffffffffffffffffffffffffffffffffff\n      and\n      dup2\n      mstore\n      0x20\n      add\n      swap1\n      dup2\n      mstore\n      0x20\n      add\n      0x00\n      keccak256\n        /* \"feg.sol\":18651:18697  _rOwned[sender] = _rOwned[sender].sub(rAmount) */\n      dup2\n      swap1\n      sstore\n      pop\n        /* \"feg.sol\":18717:18737  _rTotal.sub(rAmount) */\n      tag_103\n        /* \"feg.sol\":18729:18736  rAmount */\n      dup2\n        /* \"feg.sol\":18717:18724  _rTotal */\n      sload(0x06)\n        /* \"feg.sol\":18717:18728  _rTotal.sub */\n      tag_102\n      swap1\n        /* \"feg.sol\":18717:18737  _rTotal.sub(rAmount) */\n      swap2\n      swap1\n      0xffffffff\n      and\n      jump\t// in\n    tag_103:\n        /* \"feg.sol\":18707:18714  _rTotal */\n      0x06\n        /* \"feg.sol\":18707:18737  _rTotal = _rTotal.sub(rAmount) */\n      dup2\n      swap1\n      sstore\n      pop\n        /* \"feg.sol\":18760:18783  _tFeeTotal.add(tAmount) */\n      tag_104\n        /* \"feg.sol\":18775:18782  tAmount */\n      dup4\n        /* \"feg.sol\":18760:18770  _tFeeTotal */\n      sload(0x07)\n        /* \"feg.sol\":18760:18774  _tFeeTotal.add */\n      tag_105\n      swap1\n        /* \"feg.sol\":18760:18783  _tFeeTotal.add(tAmount) */\n      swap2\n      swap1\n      0xffffffff\n      and\n      jump\t// in\n    tag_104:\n        /* \"feg.sol\":18747:18757  _tFeeTotal */\n      0x07\n        /* \"feg.sol\":18747:18783  _tFeeTotal = _tFeeTotal.add(tAmount) */\n      dup2\n      swap1\n      sstore\n      pop\n        /* \"feg.sol\":18421:18790  function reflect(uint256 tAmount) public {... */\n      pop\n      pop\n      pop\n      jump\t// out\n        /* \"feg.sol\":16362:16443  function name() public view returns (string memory) {... */\n    tag_32:\n        /* \"feg.sol\":16399:16412  string memory */\n      0x60\n        /* \"feg.sol\":16431:16436  _name */\n      0x08\n        /* \"feg.sol\":16424:16436  return _name */\n      dup1\n      sload\n      0x01\n      dup2\n      0x01\n      and\n      iszero\n      0x0100\n      mul\n      sub\n      and\n      0x02\n      swap1\n      div\n      dup1\n      0x1f\n      add\n      0x20\n      dup1\n      swap2\n      div\n      mul\n      0x20\n      add\n      mload(0x40)\n      swap1\n      dup2\n      add\n      0x40\n      mstore\n      dup1\n      swap3\n      swap2\n      swap1\n      dup2\n      dup2\n      mstore\n      0x20\n      add\n      dup3\n      dup1\n      sload\n      0x01\n      dup2\n      0x01\n      and\n      iszero\n      0x0100\n      mul\n      sub\n      and\n      0x02\n      swap1\n      div\n      dup1\n      iszero\n      tag_107\n      jumpi\n      dup1\n      0x1f\n      lt\n      tag_108\n      jumpi\n      0x0100\n      dup1\n      dup4\n      sload\n      div\n      mul\n      dup4\n      mstore\n      swap2\n      0x20\n      add\n      swap2\n      jump(tag_107)\n    tag_108:\n      dup3\n      add\n      swap2\n      swap1\n      0x00\n      mstore\n      keccak256(0x00, 0x20)\n      swap1\n    tag_109:\n      dup2\n      sload\n      dup2\n      mstore\n      swap1\n      0x01\n      add\n      swap1\n      0x20\n      add\n      dup1\n      dup4\n      gt\n      tag_109\n      jumpi\n      dup3\n      swap1\n      sub\n      0x1f\n      and\n      dup3\n      add\n      swap2\n    tag_107:\n      pop\n      pop\n      pop\n      pop\n      pop\n      swap1\n      pop\n        /* \"feg.sol\":16362:16443  function name() public view returns (string memory) {... */\n      swap1\n      jump\t// out\n        /* \"feg.sol\":17244:17402  function approve(address spender, uint256 amount) public override returns (bool) {... */\n    tag_39:\n        /* \"feg.sol\":17319:17323  bool */\n      0x00\n        /* \"feg.sol\":17335:17374  _approve(_msgSender(), spender, amount) */\n      tag_111\n        /* \"feg.sol\":17344:17356  _msgSender() */\n      tag_112\n        /* \"feg.sol\":17344:17354  _msgSender */\n      tag_97\n        /* \"feg.sol\":17344:17356  _msgSender() */\n      jump\t// in\n    tag_112:\n        /* \"feg.sol\":17358:17365  spender */\n      dup5\n        /* \"feg.sol\":17367:17373  amount */\n      dup5\n        /* \"feg.sol\":17335:17343  _approve */\n      tag_113\n        /* \"feg.sol\":17335:17374  _approve(_msgSender(), spender, amount) */\n      jump\t// in\n    tag_111:\n        /* \"feg.sol\":17391:17395  true */\n      0x01\n        /* \"feg.sol\":17384:17395  return true */\n      swap1\n      pop\n        /* \"feg.sol\":17244:17402  function approve(address spender, uint256 amount) public override returns (bool) {... */\n      swap3\n      swap2\n      pop\n      pop\n      jump\t// out\n        /* \"feg.sol\":15651:15694  mapping (address => uint256) public _rOwned */\n    tag_42:\n      mstore(0x20, 0x01)\n      dup1\n      0x00\n      mstore\n      keccak256(0x00, 0x40)\n      0x00\n      swap2\n      pop\n      swap1\n      pop\n      sload\n      dup2\n      jump\t// out\n        /* \"feg.sol\":18330:18415  function totalFees() public view returns (uint256) {... */\n    tag_44:\n        /* \"feg.sol\":18372:18379  uint256 */\n      0x00\n        /* \"feg.sol\":18398:18408  _tFeeTotal */\n      sload(0x07)\n        /* \"feg.sol\":18391:18408  return _tFeeTotal */\n      swap1\n      pop\n        /* \"feg.sol\":18330:18415  function totalFees() public view returns (uint256) {... */\n      swap1\n      jump\t// out\n        /* \"feg.sol\":16627:16720  function totalSupply() public view override returns (uint256) {... */\n    tag_46:\n        /* \"feg.sol\":16680:16687  uint256 */\n      0x00\n        /* \"feg.sol\":15997:16025  100000000000 * 10**6 * 10**9 */\n      0x52b7d2dcc80cd2e4000000\n        /* \"feg.sol\":16699:16713  return _tTotal */\n      swap1\n      pop\n        /* \"feg.sol\":16627:16720  function totalSupply() public view override returns (uint256) {... */\n      swap1\n      jump\t// out\n        /* \"feg.sol\":17408:17717  function transferFrom(address sender, address recipient, uint256 amount) public override returns (bool) {... */\n    tag_49:\n        /* \"feg.sol\":17506:17510  bool */\n      0x00\n        /* \"feg.sol\":17522:17558  _transfer(sender, recipient, amount) */\n      tag_117\n        /* \"feg.sol\":17532:17538  sender */\n      dup5\n        /* \"feg.sol\":17540:17549  recipient */\n      dup5\n        /* \"feg.sol\":17551:17557  amount */\n      dup5\n        /* \"feg.sol\":17522:17531  _transfer */\n      tag_118\n        /* \"feg.sol\":17522:17558  _transfer(sender, recipient, amount) */\n      jump\t// in\n    tag_117:\n        /* \"feg.sol\":17568:17689  _approve(sender, _msgSender(), _allowances[sender][_msgSender()].sub(amount, \"ERC20: transfer amount exceeds allowance\")) */\n      tag_119\n        /* \"feg.sol\":17577:17583  sender */\n      dup5\n        /* \"feg.sol\":17585:17597  _msgSender() */\n      tag_120\n        /* \"feg.sol\":17585:17595  _msgSender */\n      tag_97\n        /* \"feg.sol\":17585:17597  _msgSender() */\n      jump\t// in\n    tag_120:\n        /* \"feg.sol\":17599:17688  _allowances[sender][_msgSender()].sub(amount, \"ERC20: transfer amount exceeds allowance\") */\n      tag_121\n        /* \"feg.sol\":17637:17643  amount */\n      dup6\n        /* \"feg.sol\":17599:17688  _allowances[sender][_msgSender()].sub(amount, \"ERC20: transfer amount exceeds allowance\") */\n      mload(0x40)\n      dup1\n      0x60\n      add\n      0x40\n      mstore\n      dup1\n      0x28\n      dup2\n      mstore\n      0x20\n      add\n      data_974d1b4421da69cc60b481194f0dad36a5bb4e23da810da7a7fb30cdba178330\n      0x28\n      swap2\n      codecopy\n        /* \"feg.sol\":17599:17610  _allowances */\n      0x03\n        /* \"feg.sol\":17599:17618  _allowances[sender] */\n      0x00\n        /* \"feg.sol\":17611:17617  sender */\n      dup12\n        /* \"feg.sol\":17599:17618  _allowances[sender] */\n      0xffffffffffffffffffffffffffffffffffffffff\n      and\n      0xffffffffffffffffffffffffffffffffffffffff\n      and\n      dup2\n      mstore\n      0x20\n      add\n      swap1\n      dup2\n      mstore\n      0x20\n      add\n      0x00\n      keccak256\n        /* \"feg.sol\":17599:17632  _allowances[sender][_msgSender()] */\n      0x00\n        /* \"feg.sol\":17619:17631  _msgSender() */\n      tag_122\n        /* \"feg.sol\":17619:17629  _msgSender */\n      tag_97\n        /* \"feg.sol\":17619:17631  _msgSender() */\n      jump\t// in\n    tag_122:\n        /* \"feg.sol\":17599:17632  _allowances[sender][_msgSender()] */\n      0xffffffffffffffffffffffffffffffffffffffff\n      and\n      0xffffffffffffffffffffffffffffffffffffffff\n      and\n      dup2\n      mstore\n      0x20\n      add\n      swap1\n      dup2\n      mstore\n      0x20\n      add\n      0x00\n      keccak256\n      sload\n        /* \"feg.sol\":17599:17636  _allowances[sender][_msgSender()].sub */\n      tag_123\n      swap1\n        /* \"feg.sol\":17599:17688  _allowances[sender][_msgSender()].sub(amount, \"ERC20: transfer amount exceeds allowance\") */\n      swap3\n      swap2\n      swap1\n      0xffffffff\n      and\n      jump\t// in\n    tag_121:\n        /* \"feg.sol\":17568:17576  _approve */\n      tag_113\n        /* \"feg.sol\":17568:17689  _approve(sender, _msgSender(), _allowances[sender][_msgSender()].sub(amount, \"ERC20: transfer amount exceeds allowance\")) */\n      jump\t// in\n    tag_119:\n        /* \"feg.sol\":17706:17710  true */\n      0x01\n        /* \"feg.sol\":17699:17710  return true */\n      swap1\n      pop\n        /* \"feg.sol\":17408:17717  function transferFrom(address sender, address recipient, uint256 amount) public override returns (bool) {... */\n      swap4\n      swap3\n      pop\n      pop\n      pop\n      jump\t// out\n        /* \"feg.sol\":19227:19476  function tokenFromReflection(uint256 rAmount) public view returns(uint256) {... */\n    tag_52:\n        /* \"feg.sol\":19293:19300  uint256 */\n      0x00\n        /* \"feg.sol\":19331:19338  _rTotal */\n      sload(0x06)\n        /* \"feg.sol\":19320:19327  rAmount */\n      dup3\n        /* \"feg.sol\":19320:19338  rAmount <= _rTotal */\n      gt\n      iszero\n        /* \"feg.sol\":19312:19385  require(rAmount <= _rTotal, \"Amount must be less than total reflections\") */\n      tag_125\n      jumpi\n      mload(0x40)\n      0x08c379a000000000000000000000000000000000000000000000000000000000\n      dup2\n      mstore\n      0x04\n      add\n      dup1\n      dup1\n      0x20\n      add\n      dup3\n      dup2\n      sub\n      dup3\n      mstore\n      0x2a\n      dup2\n      mstore\n      0x20\n      add\n      dup1\n      data_22f7af55a509c3b14f0d528f087748dec8a8bf425135e3f5dc28c6a31ec6d812\n      0x2a\n      swap2\n      codecopy\n      0x40\n      add\n      swap2\n      pop\n      pop\n      mload(0x40)\n      dup1\n      swap2\n      sub\n      swap1\n      revert\n    tag_125:\n        /* \"feg.sol\":19395:19414  uint256 currentRate */\n      0x00\n        /* \"feg.sol\":19418:19428  _getRate() */\n      tag_126\n        /* \"feg.sol\":19418:19426  _getRate */\n      tag_127\n        /* \"feg.sol\":19418:19428  _getRate() */\n      jump\t// in\n    tag_126:\n        /* \"feg.sol\":19395:19428  uint256 currentRate =  _getRate() */\n      swap1\n      pop\n        /* \"feg.sol\":19445:19469  rAmount.div(currentRate) */\n      tag_128\n        /* \"feg.sol\":19457:19468  currentRate */\n      dup2\n        /* \"feg.sol\":19445:19452  rAmount */\n      dup5\n        /* \"feg.sol\":19445:19456  rAmount.div */\n      tag_129\n      swap1\n        /* \"feg.sol\":19445:19469  rAmount.div(currentRate) */\n      swap2\n      swap1\n      0xffffffff\n      and\n      jump\t// in\n    tag_128:\n        /* \"feg.sol\":19438:19469  return rAmount.div(currentRate) */\n      swap2\n      pop\n      pop\n        /* \"feg.sol\":19227:19476  function tokenFromReflection(uint256 rAmount) public view returns(uint256) {... */\n      swap2\n      swap1\n      pop\n      jump\t// out\n        /* \"feg.sol\":16540:16621  function decimals() public view returns (uint8) {... */\n    tag_54:\n        /* \"feg.sol\":16581:16586  uint8 */\n      0x00\n        /* \"feg.sol\":16605:16614  _decimals */\n      0x0a\n      0x00\n      swap1\n      sload\n      swap1\n      0x0100\n      exp\n      swap1\n      div\n      0xff\n      and\n        /* \"feg.sol\":16598:16614  return _decimals */\n      swap1\n      pop\n        /* \"feg.sol\":16540:16621  function decimals() public view returns (uint8) {... */\n      swap1\n      jump\t// out\n        /* \"feg.sol\":17723:17938  function increaseAllowance(address spender, uint256 addedValue) public virtual returns (bool) {... */\n    tag_57:\n        /* \"feg.sol\":17811:17815  bool */\n      0x00\n        /* \"feg.sol\":17827:17910  _approve(_msgSender(), spender, _allowances[_msgSender()][spender].add(addedValue)) */\n      tag_132\n        /* \"feg.sol\":17836:17848  _msgSender() */\n      tag_133\n        /* \"feg.sol\":17836:17846  _msgSender */\n      tag_97\n        /* \"feg.sol\":17836:17848  _msgSender() */\n      jump\t// in\n    tag_133:\n        /* \"feg.sol\":17850:17857  spender */\n      dup5\n        /* \"feg.sol\":17859:17909  _allowances[_msgSender()][spender].add(addedValue) */\n      tag_134\n        /* \"feg.sol\":17898:17908  addedValue */\n      dup6\n        /* \"feg.sol\":17859:17870  _allowances */\n      0x03\n        /* \"feg.sol\":17859:17884  _allowances[_msgSender()] */\n      0x00\n        /* \"feg.sol\":17871:17883  _msgSender() */\n      tag_135\n        /* \"feg.sol\":17871:17881  _msgSender */\n      tag_97\n        /* \"feg.sol\":17871:17883  _msgSender() */\n      jump\t// in\n    tag_135:\n        /* \"feg.sol\":17859:17884  _allowances[_msgSender()] */\n      0xffffffffffffffffffffffffffffffffffffffff\n      and\n      0xffffffffffffffffffffffffffffffffffffffff\n      and\n      dup2\n      mstore\n      0x20\n      add\n      swap1\n      dup2\n      mstore\n      0x20\n      add\n      0x00\n      keccak256\n        /* \"feg.sol\":17859:17893  _allowances[_msgSender()][spender] */\n      0x00\n        /* \"feg.sol\":17885:17892  spender */\n      dup10\n        /* \"feg.sol\":17859:17893  _allowances[_msgSender()][spender] */\n      0xffffffffffffffffffffffffffffffffffffffff\n      and\n      0xffffffffffffffffffffffffffffffffffffffff\n      and\n      dup2\n      mstore\n      0x20\n      add\n      swap1\n      dup2\n      mstore\n      0x20\n      add\n      0x00\n      keccak256\n      sload\n        /* \"feg.sol\":17859:17897  _allowances[_msgSender()][spender].add */\n      tag_105\n      swap1\n        /* \"feg.sol\":17859:17909  _allowances[_msgSender()][spender].add(addedValue) */\n      swap2\n      swap1\n      0xffffffff\n      and\n      jump\t// in\n    tag_134:\n        /* \"feg.sol\":17827:17835  _approve */\n      tag_113\n        /* \"feg.sol\":17827:17910  _approve(_msgSender(), spender, _allowances[_msgSender()][spender].add(addedValue)) */\n      jump\t// in\n    tag_132:\n        /* \"feg.sol\":17927:17931  true */\n      0x01\n        /* \"feg.sol\":17920:17931  return true */\n      swap1\n      pop\n        /* \"feg.sol\":17723:17938  function increaseAllowance(address spender, uint256 addedValue) public virtual returns (bool) {... */\n      swap3\n      swap2\n      pop\n      pop\n      jump\t// out\n        /* \"feg.sol\":18796:19221  function reflectionFromToken(uint256 tAmount, bool deductTransferFee) public view returns(uint256) {... */\n    tag_60:\n        /* \"feg.sol\":18886:18893  uint256 */\n      0x00\n        /* \"feg.sol\":15997:16025  100000000000 * 10**6 * 10**9 */\n      0x52b7d2dcc80cd2e4000000\n        /* \"feg.sol\":18913:18920  tAmount */\n      dup4\n        /* \"feg.sol\":18913:18931  tAmount <= _tTotal */\n      gt\n      iszero\n        /* \"feg.sol\":18905:18967  require(tAmount <= _tTotal, \"Amount must be less than supply\") */\n      tag_137\n      jumpi\n      mload(0x40)\n      0x08c379a000000000000000000000000000000000000000000000000000000000\n      dup2\n      mstore\n      0x04\n      add\n      dup1\n      dup1\n      0x20\n      add\n      dup3\n      dup2\n      sub\n      dup3\n      mstore\n      0x1f\n      dup2\n      mstore\n      0x20\n      add\n      dup1\n      0x416d6f756e74206d757374206265206c657373207468616e20737570706c7900\n      dup2\n      mstore\n      pop\n      0x20\n      add\n      swap2\n      pop\n      pop\n      mload(0x40)\n      dup1\n      swap2\n      sub\n      swap1\n      revert\n    tag_137:\n        /* \"feg.sol\":18982:18999  deductTransferFee */\n      dup2\n        /* \"feg.sol\":18977:19215  if (!deductTransferFee) {... */\n      tag_138\n      jumpi\n        /* \"feg.sol\":19016:19031  uint256 rAmount */\n      0x00\n        /* \"feg.sol\":19039:19058  _getValues(tAmount) */\n      tag_139\n        /* \"feg.sol\":19050:19057  tAmount */\n      dup5\n        /* \"feg.sol\":19039:19049  _getValues */\n      tag_100\n        /* \"feg.sol\":19039:19058  _getValues(tAmount) */\n      jump\t// in\n    tag_139:\n        /* \"feg.sol\":19015:19058  (uint256 rAmount,,,,) = _getValues(tAmount) */\n      pop\n      pop\n      pop\n      pop\n      swap1\n      pop\n        /* \"feg.sol\":19079:19086  rAmount */\n      dup1\n        /* \"feg.sol\":19072:19086  return rAmount */\n      swap2\n      pop\n      pop\n      jump(tag_136)\n        /* \"feg.sol\":18977:19215  if (!deductTransferFee) {... */\n    tag_138:\n        /* \"feg.sol\":19119:19142  uint256 rTransferAmount */\n      0x00\n        /* \"feg.sol\":19149:19168  _getValues(tAmount) */\n      tag_141\n        /* \"feg.sol\":19160:19167  tAmount */\n      dup5\n        /* \"feg.sol\":19149:19159  _getValues */\n      tag_100\n        /* \"feg.sol\":19149:19168  _getValues(tAmount) */\n      jump\t// in\n    tag_141:\n        /* \"feg.sol\":19117:19168  (,uint256 rTransferAmount,,,) = _getValues(tAmount) */\n      pop\n      pop\n      pop\n      swap2\n      pop\n      pop\n        /* \"feg.sol\":19189:19204  rTransferAmount */\n      dup1\n        /* \"feg.sol\":19182:19204  return rTransferAmount */\n      swap2\n      pop\n      pop\n        /* \"feg.sol\":18796:19221  function reflectionFromToken(uint256 tAmount, bool deductTransferFee) public view returns(uint256) {... */\n    tag_136:\n      swap3\n      swap2\n      pop\n      pop\n      jump\t// out\n        /* \"feg.sol\":16726:16921  function balanceOf(address account) public view override returns (uint256) {... */\n    tag_63:\n        /* \"feg.sol\":16792:16799  uint256 */\n      0x00\n        /* \"feg.sol\":16815:16826  _isExcluded */\n      0x04\n        /* \"feg.sol\":16815:16835  _isExcluded[account] */\n      0x00\n        /* \"feg.sol\":16827:16834  account */\n      dup4\n        /* \"feg.sol\":16815:16835  _isExcluded[account] */\n      0xffffffffffffffffffffffffffffffffffffffff\n      and\n      0xffffffffffffffffffffffffffffffffffffffff\n      and\n      dup2\n      mstore\n      0x20\n      add\n      swap1\n      dup2\n      mstore\n      0x20\n      add\n      0x00\n      keccak256\n      0x00\n      swap1\n      sload\n      swap1\n      0x0100\n      exp\n      swap1\n      div\n      0xff\n      and\n        /* \"feg.sol\":16811:16860  if (_isExcluded[account]) return _tOwned[account] */\n      iszero\n      tag_143\n      jumpi\n        /* \"feg.sol\":16844:16851  _tOwned */\n      0x02\n        /* \"feg.sol\":16844:16860  _tOwned[account] */\n      0x00\n        /* \"feg.sol\":16852:16859  account */\n      dup4\n        /* \"feg.sol\":16844:16860  _tOwned[account] */\n      0xffffffffffffffffffffffffffffffffffffffff\n      and\n      0xffffffffffffffffffffffffffffffffffffffff\n      and\n      dup2\n      mstore\n      0x20\n      add\n      swap1\n      dup2\n      mstore\n      0x20\n      add\n      0x00\n      keccak256\n      sload\n        /* \"feg.sol\":16837:16860  return _tOwned[account] */\n      swap1\n      pop\n      jump(tag_142)\n        /* \"feg.sol\":16811:16860  if (_isExcluded[account]) return _tOwned[account] */\n    tag_143:\n        /* \"feg.sol\":16877:16914  tokenFromReflection(_rOwned[account]) */\n      tag_144\n        /* \"feg.sol\":16897:16904  _rOwned */\n      0x01\n        /* \"feg.sol\":16897:16913  _rOwned[account] */\n      0x00\n        /* \"feg.sol\":16905:16912  account */\n      dup5\n        /* \"feg.sol\":16897:16913  _rOwned[account] */\n      0xffffffffffffffffffffffffffffffffffffffff\n      and\n      0xffffffffffffffffffffffffffffffffffffffff\n      and\n      dup2\n      mstore\n      0x20\n      add\n      swap1\n      dup2\n      mstore\n      0x20\n      add\n      0x00\n      keccak256\n      sload\n        /* \"feg.sol\":16877:16896  tokenFromReflection */\n      tag_52\n        /* \"feg.sol\":16877:16914  tokenFromReflection(_rOwned[account]) */\n      jump\t// in\n    tag_144:\n        /* \"feg.sol\":16870:16914  return tokenFromReflection(_rOwned[account]) */\n      swap1\n      pop\n        /* \"feg.sol\":16726:16921  function balanceOf(address account) public view override returns (uint256) {... */\n    tag_142:\n      swap2\n      swap1\n      pop\n      jump\t// out\n        /* \"feg.sol\":15000:15145  function renounceOwnership() public virtual onlyOwner {... */\n    tag_65:\n        /* \"feg.sol\":14591:14603  _msgSender() */\n      tag_146\n        /* \"feg.sol\":14591:14601  _msgSender */\n      tag_97\n        /* \"feg.sol\":14591:14603  _msgSender() */\n      jump\t// in\n    tag_146:\n        /* \"feg.sol\":14581:14603  _owner == _msgSender() */\n      0xffffffffffffffffffffffffffffffffffffffff\n      and\n        /* \"feg.sol\":14581:14587  _owner */\n      0x00\n      dup1\n      sload\n      swap1\n      0x0100\n      exp\n      swap1\n      div\n      0xffffffffffffffffffffffffffffffffffffffff\n      and\n        /* \"feg.sol\":14581:14603  _owner == _msgSender() */\n      0xffffffffffffffffffffffffffffffffffffffff\n      and\n      eq\n        /* \"feg.sol\":14573:14640  require(_owner == _msgSender(), \"Ownable: caller is not the owner\") */\n      tag_147\n      jumpi\n      mload(0x40)\n      0x08c379a000000000000000000000000000000000000000000000000000000000\n      dup2\n      mstore\n      0x04\n      add\n      dup1\n      dup1\n      0x20\n      add\n      dup3\n      dup2\n      sub\n      dup3\n      mstore\n      0x20\n      dup2\n      mstore\n      0x20\n      add\n      dup1\n      0x4f776e61626c653a2063616c6c6572206973206e6f7420746865206f776e6572\n      dup2\n      mstore\n      pop\n      0x20\n      add\n      swap2\n      pop\n      pop\n      mload(0x40)\n      dup1\n      swap2\n      sub\n      swap1\n      revert\n    tag_147:\n        /* \"feg.sol\":15106:15107  0 */\n      0x00\n        /* \"feg.sol\":15069:15109  OwnershipTransferred(_owner, address(0)) */\n      0xffffffffffffffffffffffffffffffffffffffff\n      and\n        /* \"feg.sol\":15090:15096  _owner */\n      0x00\n      dup1\n      sload\n      swap1\n      0x0100\n      exp\n      swap1\n      div\n      0xffffffffffffffffffffffffffffffffffffffff\n      and\n        /* \"feg.sol\":15069:15109  OwnershipTransferred(_owner, address(0)) */\n      0xffffffffffffffffffffffffffffffffffffffff\n      and\n      0x8be0079c531659141344cd1fd0a4f28419497f9722a3daafe3b4186f6b6457e0\n      mload(0x40)\n      mload(0x40)\n      dup1\n      swap2\n      sub\n      swap1\n      log3\n        /* \"feg.sol\":15136:15137  0 */\n      0x00\n        /* \"feg.sol\":15119:15125  _owner */\n      dup1\n      0x00\n        /* \"feg.sol\":15119:15138  _owner = address(0) */\n      0x0100\n      exp\n      dup2\n      sload\n      dup2\n      0xffffffffffffffffffffffffffffffffffffffff\n      mul\n      not\n      and\n      swap1\n      dup4\n      0xffffffffffffffffffffffffffffffffffffffff\n      and\n      mul\n      or\n      swap1\n      sstore\n      pop\n        /* \"feg.sol\":15000:15145  function renounceOwnership() public virtual onlyOwner {... */\n      jump\t// out\n        /* \"feg.sol\":14377:14454  function owner() public view returns (address) {... */\n    tag_67:\n        /* \"feg.sol\":14415:14422  address */\n      0x00\n        /* \"feg.sol\":14441:14447  _owner */\n      dup1\n      0x00\n      swap1\n      sload\n      swap1\n      0x0100\n      exp\n      swap1\n      div\n      0xffffffffffffffffffffffffffffffffffffffff\n      and\n        /* \"feg.sol\":14434:14447  return _owner */\n      swap1\n      pop\n        /* \"feg.sol\":14377:14454  function owner() public view returns (address) {... */\n      swap1\n      jump\t// out\n        /* \"feg.sol\":16449:16534  function symbol() public view returns (string memory) {... */\n    tag_69:\n        /* \"feg.sol\":16488:16501  string memory */\n      0x60\n        /* \"feg.sol\":16520:16527  _symbol */\n      0x09\n        /* \"feg.sol\":16513:16527  return _symbol */\n      dup1\n      sload\n      0x01\n      dup2\n      0x01\n      and\n      iszero\n      0x0100\n      mul\n      sub\n      and\n      0x02\n      swap1\n      div\n      dup1\n      0x1f\n      add\n      0x20\n      dup1\n      swap2\n      div\n      mul\n      0x20\n      add\n      mload(0x40)\n      swap1\n      dup2\n      add\n      0x40\n      mstore\n      dup1\n      swap3\n      swap2\n      swap1\n      dup2\n      dup2\n      mstore\n      0x20\n      add\n      dup3\n      dup1\n      sload\n      0x01\n      dup2\n      0x01\n      and\n      iszero\n      0x0100\n      mul\n      sub\n      and\n      0x02\n      swap1\n      div\n      dup1\n      iszero\n      tag_151\n      jumpi\n      dup1\n      0x1f\n      lt\n      tag_152\n      jumpi\n      0x0100\n      dup1\n      dup4\n      sload\n      div\n      mul\n      dup4\n      mstore\n      swap2\n      0x20\n      add\n      swap2\n      jump(tag_151)\n    tag_152:\n      dup3\n      add\n      swap2\n      swap1\n      0x00\n      mstore\n      keccak256(0x00, 0x20)\n      swap1\n    tag_153:\n      dup2\n      sload\n      dup2\n      mstore\n      swap1\n      0x01\n      add\n      swap1\n      0x20\n      add\n      dup1\n      dup4\n      gt\n      tag_153\n      jumpi\n      dup3\n      swap1\n      sub\n      0x1f\n      and\n      dup3\n      add\n      swap2\n    tag_151:\n      pop\n      pop\n      pop\n      pop\n      pop\n      swap1\n      pop\n        /* \"feg.sol\":16449:16534  function symbol() public view returns (string memory) {... */\n      swap1\n      jump\t// out\n        /* \"feg.sol\":17944:18210  function decreaseAllowance(address spender, uint256 subtractedValue) public virtual returns (bool) {... */\n    tag_76:\n        /* \"feg.sol\":18037:18041  bool */\n      0x00\n        /* \"feg.sol\":18053:18182  _approve(_msgSender(), spender, _allowances[_msgSender()][spender].sub(subtractedValue, \"ERC20: decreased allowance below zero\")) */\n      tag_155\n        /* \"feg.sol\":18062:18074  _msgSender() */\n      tag_156\n        /* \"feg.sol\":18062:18072  _msgSender */\n      tag_97\n        /* \"feg.sol\":18062:18074  _msgSender() */\n      jump\t// in\n    tag_156:\n        /* \"feg.sol\":18076:18083  spender */\n      dup5\n        /* \"feg.sol\":18085:18181  _allowances[_msgSender()][spender].sub(subtractedValue, \"ERC20: decreased allowance below zero\") */\n      tag_157\n        /* \"feg.sol\":18124:18139  subtractedValue */\n      dup6\n        /* \"feg.sol\":18085:18181  _allowances[_msgSender()][spender].sub(subtractedValue, \"ERC20: decreased allowance below zero\") */\n      mload(0x40)\n      dup1\n      0x60\n      add\n      0x40\n      mstore\n      dup1\n      0x25\n      dup2\n      mstore\n      0x20\n      add\n      data_f8b476f7d28209d77d4a4ac1fe36b9f8259aa1bb6bddfa6e89de7e51615cf8a8\n      0x25\n      swap2\n      codecopy\n        /* \"feg.sol\":18085:18096  _allowances */\n      0x03\n        /* \"feg.sol\":18085:18110  _allowances[_msgSender()] */\n      0x00\n        /* \"feg.sol\":18097:18109  _msgSender() */\n      tag_158\n        /* \"feg.sol\":18097:18107  _msgSender */\n      tag_97\n        /* \"feg.sol\":18097:18109  _msgSender() */\n      jump\t// in\n    tag_158:\n        /* \"feg.sol\":18085:18110  _allowances[_msgSender()] */\n      0xffffffffffffffffffffffffffffffffffffffff\n      and\n      0xffffffffffffffffffffffffffffffffffffffff\n      and\n      dup2\n      mstore\n      0x20\n      add\n      swap1\n      dup2\n      mstore\n      0x20\n      add\n      0x00\n      keccak256\n        /* \"feg.sol\":18085:18119  _allowances[_msgSender()][spender] */\n      0x00\n        /* \"feg.sol\":18111:18118  spender */\n      dup11\n        /* \"feg.sol\":18085:18119  _allowances[_msgSender()][spender] */\n      0xffffffffffffffffffffffffffffffffffffffff\n      and\n      0xffffffffffffffffffffffffffffffffffffffff\n      and\n      dup2\n      mstore\n      0x20\n      add\n      swap1\n      dup2\n      mstore\n      0x20\n      add\n      0x00\n      keccak256\n      sload\n        /* \"feg.sol\":18085:18123  _allowances[_msgSender()][spender].sub */\n      tag_123\n      swap1\n        /* \"feg.sol\":18085:18181  _allowances[_msgSender()][spender].sub(subtractedValue, \"ERC20: decreased allowance below zero\") */\n      swap3\n      swap2\n      swap1\n      0xffffffff\n      and\n      jump\t// in\n    tag_157:\n        /* \"feg.sol\":18053:18061  _approve */\n      tag_113\n        /* \"feg.sol\":18053:18182  _approve(_msgSender(), spender, _allowances[_msgSender()][spender].sub(subtractedValue, \"ERC20: decreased allowance below zero\")) */\n      jump\t// in\n    tag_155:\n        /* \"feg.sol\":18199:18203  true */\n      0x01\n        /* \"feg.sol\":18192:18203  return true */\n      swap1\n      pop\n        /* \"feg.sol\":17944:18210  function decreaseAllowance(address spender, uint256 subtractedValue) public virtual returns (bool) {... */\n      swap3\n      swap2\n      pop\n      pop\n      jump\t// out\n        /* \"feg.sol\":16927:17091  function transfer(address recipient, uint256 amount) public override returns (bool) {... */\n    tag_79:\n        /* \"feg.sol\":17005:17009  bool */\n      0x00\n        /* \"feg.sol\":17021:17063  _transfer(_msgSender(), recipient, amount) */\n      tag_160\n        /* \"feg.sol\":17031:17043  _msgSender() */\n      tag_161\n        /* \"feg.sol\":17031:17041  _msgSender */\n      tag_97\n        /* \"feg.sol\":17031:17043  _msgSender() */\n      jump\t// in\n    tag_161:\n        /* \"feg.sol\":17045:17054  recipient */\n      dup5\n        /* \"feg.sol\":17056:17062  amount */\n      dup5\n        /* \"feg.sol\":17021:17030  _transfer */\n      tag_118\n        /* \"feg.sol\":17021:17063  _transfer(_msgSender(), recipient, amount) */\n      jump\t// in\n    tag_160:\n        /* \"feg.sol\":17080:17084  true */\n      0x01\n        /* \"feg.sol\":17073:17084  return true */\n      swap1\n      pop\n        /* \"feg.sol\":16927:17091  function transfer(address recipient, uint256 amount) public override returns (bool) {... */\n      swap3\n      swap2\n      pop\n      pop\n      jump\t// out\n        /* \"feg.sol\":18216:18324  function isExcluded(address account) public view returns (bool) {... */\n    tag_82:\n        /* \"feg.sol\":18274:18278  bool */\n      0x00\n        /* \"feg.sol\":18297:18308  _isExcluded */\n      0x04\n        /* \"feg.sol\":18297:18317  _isExcluded[account] */\n      0x00\n        /* \"feg.sol\":18309:18316  account */\n      dup4\n        /* \"feg.sol\":18297:18317  _isExcluded[account] */\n      0xffffffffffffffffffffffffffffffffffffffff\n      and\n      0xffffffffffffffffffffffffffffffffffffffff\n      and\n      dup2\n      mstore\n      0x20\n      add\n      swap1\n      dup2\n      mstore\n      0x20\n      add\n      0x00\n      keccak256\n      0x00\n      swap1\n      sload\n      swap1\n      0x0100\n      exp\n      swap1\n      div\n      0xff\n      and\n        /* \"feg.sol\":18290:18317  return _isExcluded[account] */\n      swap1\n      pop\n        /* \"feg.sol\":18216:18324  function isExcluded(address account) public view returns (bool) {... */\n      swap2\n      swap1\n      pop\n      jump\t// out\n        /* \"feg.sol\":17097:17238  function allowance(address owner, address spender) public view override returns (uint256) {... */\n    tag_85:\n        /* \"feg.sol\":17178:17185  uint256 */\n      0x00\n        /* \"feg.sol\":17204:17215  _allowances */\n      0x03\n        /* \"feg.sol\":17204:17222  _allowances[owner] */\n      0x00\n        /* \"feg.sol\":17216:17221  owner */\n      dup5\n        /* \"feg.sol\":17204:17222  _allowances[owner] */\n      0xffffffffffffffffffffffffffffffffffffffff\n      and\n      0xffffffffffffffffffffffffffffffffffffffff\n      and\n      dup2\n      mstore\n      0x20\n      add\n      swap1\n      dup2\n      mstore\n      0x20\n      add\n      0x00\n      keccak256\n        /* \"feg.sol\":17204:17231  _allowances[owner][spender] */\n      0x00\n        /* \"feg.sol\":17223:17230  spender */\n      dup4\n        /* \"feg.sol\":17204:17231  _allowances[owner][spender] */\n      0xffffffffffffffffffffffffffffffffffffffff\n      and\n      0xffffffffffffffffffffffffffffffffffffffff\n      and\n      dup2\n      mstore\n      0x20\n      add\n      swap1\n      dup2\n      mstore\n      0x20\n      add\n      0x00\n      keccak256\n      sload\n        /* \"feg.sol\":17197:17231  return _allowances[owner][spender] */\n      swap1\n      pop\n        /* \"feg.sol\":17097:17238  function allowance(address owner, address spender) public view override returns (uint256) {... */\n      swap3\n      swap2\n      pop\n      pop\n      jump\t// out\n        /* \"feg.sol\":19482:19807  function excludeAccount(address account) external onlyOwner() {... */\n    tag_88:\n        /* \"feg.sol\":14591:14603  _msgSender() */\n      tag_165\n        /* \"feg.sol\":14591:14601  _msgSender */\n      tag_97\n        /* \"feg.sol\":14591:14603  _msgSender() */\n      jump\t// in\n    tag_165:\n        /* \"feg.sol\":14581:14603  _owner == _msgSender() */\n      0xffffffffffffffffffffffffffffffffffffffff\n      and\n        /* \"feg.sol\":14581:14587  _owner */\n      0x00\n      dup1\n      sload\n      swap1\n      0x0100\n      exp\n      swap1\n      div\n      0xffffffffffffffffffffffffffffffffffffffff\n      and\n        /* \"feg.sol\":14581:14603  _owner == _msgSender() */\n      0xffffffffffffffffffffffffffffffffffffffff\n      and\n      eq\n        /* \"feg.sol\":14573:14640  require(_owner == _msgSender(), \"Ownable: caller is not the owner\") */\n      tag_166\n      jumpi\n      mload(0x40)\n      0x08c379a000000000000000000000000000000000000000000000000000000000\n      dup2\n      mstore\n      0x04\n      add\n      dup1\n      dup1\n      0x20\n      add\n      dup3\n      dup2\n      sub\n      dup3\n      mstore\n      0x20\n      dup2\n      mstore\n      0x20\n      add\n      dup1\n      0x4f776e61626c653a2063616c6c6572206973206e6f7420746865206f776e6572\n      dup2\n      mstore\n      pop\n      0x20\n      add\n      swap2\n      pop\n      pop\n      mload(0x40)\n      dup1\n      swap2\n      sub\n      swap1\n      revert\n    tag_166:\n        /* \"feg.sol\":19563:19574  _isExcluded */\n      0x04\n        /* \"feg.sol\":19563:19583  _isExcluded[account] */\n      0x00\n        /* \"feg.sol\":19575:19582  account */\n      dup3\n        /* \"feg.sol\":19563:19583  _isExcluded[account] */\n      0xffffffffffffffffffffffffffffffffffffffff\n      and\n      0xffffffffffffffffffffffffffffffffffffffff\n      and\n      dup2\n      mstore\n      0x20\n      add\n      swap1\n      dup2\n      mstore\n      0x20\n      add\n      0x00\n      keccak256\n      0x00\n      swap1\n      sload\n      swap1\n      0x0100\n      exp\n      swap1\n      div\n      0xff\n      and\n        /* \"feg.sol\":19562:19583  !_isExcluded[account] */\n      iszero\n        /* \"feg.sol\":19554:19615  require(!_isExcluded[account], \"Account is already excluded\") */\n      tag_168\n      jumpi\n      mload(0x40)\n      0x08c379a000000000000000000000000000000000000000000000000000000000\n      dup2\n      mstore\n      0x04\n      add\n      dup1\n      dup1\n      0x20\n      add\n      dup3\n      dup2\n      sub\n      dup3\n      mstore\n      0x1b\n      dup2\n      mstore\n      0x20\n      add\n      dup1\n      0x4163636f756e7420697320616c7265616479206578636c756465640000000000\n      dup2\n      mstore\n      pop\n      0x20\n      add\n      swap2\n      pop\n      pop\n      mload(0x40)\n      dup1\n      swap2\n      sub\n      swap1\n      revert\n    tag_168:\n        /* \"feg.sol\":19647:19648  0 */\n      0x00\n        /* \"feg.sol\":19628:19635  _rOwned */\n      0x01\n        /* \"feg.sol\":19628:19644  _rOwned[account] */\n      0x00\n        /* \"feg.sol\":19636:19643  account */\n      dup4\n        /* \"feg.sol\":19628:19644  _rOwned[account] */\n      0xffffffffffffffffffffffffffffffffffffffff\n      and\n      0xffffffffffffffffffffffffffffffffffffffff\n      and\n      dup2\n      mstore\n      0x20\n      add\n      swap1\n      dup2\n      mstore\n      0x20\n      add\n      0x00\n      keccak256\n      sload\n        /* \"feg.sol\":19628:19648  _rOwned[account] > 0 */\n      gt\n        /* \"feg.sol\":19625:19731  if(_rOwned[account] > 0) {... */\n      iszero\n      tag_169\n      jumpi\n        /* \"feg.sol\":19683:19720  tokenFromReflection(_rOwned[account]) */\n      tag_170\n        /* \"feg.sol\":19703:19710  _rOwned */\n      0x01\n        /* \"feg.sol\":19703:19719  _rOwned[account] */\n      0x00\n        /* \"feg.sol\":19711:19718  account */\n      dup4\n        /* \"feg.sol\":19703:19719  _rOwned[account] */\n      0xffffffffffffffffffffffffffffffffffffffff\n      and\n      0xffffffffffffffffffffffffffffffffffffffff\n      and\n      dup2\n      mstore\n      0x20\n      add\n      swap1\n      dup2\n      mstore\n      0x20\n      add\n      0x00\n      keccak256\n      sload\n        /* \"feg.sol\":19683:19702  tokenFromReflection */\n      tag_52\n        /* \"feg.sol\":19683:19720  tokenFromReflection(_rOwned[account]) */\n      jump\t// in\n    tag_170:\n        /* \"feg.sol\":19664:19671  _tOwned */\n      0x02\n        /* \"feg.sol\":19664:19680  _tOwned[account] */\n      0x00\n        /* \"feg.sol\":19672:19679  account */\n      dup4\n        /* \"feg.sol\":19664:19680  _tOwned[account] */\n      0xffffffffffffffffffffffffffffffffffffffff\n      and\n      0xffffffffffffffffffffffffffffffffffffffff\n      and\n      dup2\n      mstore\n      0x20\n      add\n      swap1\n      dup2\n      mstore\n      0x20\n      add\n      0x00\n      keccak256\n        /* \"feg.sol\":19664:19720  _tOwned[account] = tokenFromReflection(_rOwned[account]) */\n      dup2\n      swap1\n      sstore\n      pop\n        /* \"feg.sol\":19625:19731  if(_rOwned[account] > 0) {... */\n    tag_169:\n        /* \"feg.sol\":19763:19767  true */\n      0x01\n        /* \"feg.sol\":19740:19751  _isExcluded */\n      0x04\n        /* \"feg.sol\":19740:19760  _isExcluded[account] */\n      0x00\n        /* \"feg.sol\":19752:19759  account */\n      dup4\n        /* \"feg.sol\":19740:19760  _isExcluded[account] */\n      0xffffffffffffffffffffffffffffffffffffffff\n      and\n      0xffffffffffffffffffffffffffffffffffffffff\n      and\n      dup2\n      mstore\n      0x20\n      add\n      swap1\n      dup2\n      mstore\n      0x20\n      add\n      0x00\n      keccak256\n      0x00\n        /* \"feg.sol\":19740:19767  _isExcluded[account] = true */\n      0x0100\n      exp\n      dup2\n      sload\n      dup2\n      0xff\n      mul\n      not\n      and\n      swap1\n      dup4\n      iszero\n      iszero\n      mul\n      or\n      swap1\n      sstore\n      pop\n        /* \"feg.sol\":19777:19786  _excluded */\n      0x05\n        /* \"feg.sol\":19792:19799  account */\n      dup2\n        /* \"feg.sol\":19777:19800  _excluded.push(account) */\n      swap1\n      dup1\n      0x01\n      dup2\n      sload\n      add\n      dup1\n      dup3\n      sstore\n      dup1\n      swap2\n      pop\n      pop\n      0x01\n      swap1\n      sub\n      swap1\n      0x00\n      mstore\n      keccak256(0x00, 0x20)\n      add\n      0x00\n      swap1\n      swap2\n      swap1\n      swap2\n      swap1\n      swap2\n      0x0100\n      exp\n      dup2\n      sload\n      dup2\n      0xffffffffffffffffffffffffffffffffffffffff\n      mul\n      not\n      and\n      swap1\n      dup4\n      0xffffffffffffffffffffffffffffffffffffffff\n      and\n      mul\n      or\n      swap1\n      sstore\n      pop\n        /* \"feg.sol\":19482:19807  function excludeAccount(address account) external onlyOwner() {... */\n      pop\n      jump\t// out\n        /* \"feg.sol\":15294:15534  function transferOwnership(address newOwner) public virtual onlyOwner {... */\n    tag_91:\n        /* \"feg.sol\":14591:14603  _msgSender() */\n      tag_173\n        /* \"feg.sol\":14591:14601  _msgSender */\n      tag_97\n        /* \"feg.sol\":14591:14603  _msgSender() */\n      jump\t// in\n    tag_173:\n        /* \"feg.sol\":14581:14603  _owner == _msgSender() */\n      0xffffffffffffffffffffffffffffffffffffffff\n      and\n        /* \"feg.sol\":14581:14587  _owner */\n      0x00\n      dup1\n      sload\n      swap1\n      0x0100\n      exp\n      swap1\n      div\n      0xffffffffffffffffffffffffffffffffffffffff\n      and\n        /* \"feg.sol\":14581:14603  _owner == _msgSender() */\n      0xffffffffffffffffffffffffffffffffffffffff\n      and\n      eq\n        /* \"feg.sol\":14573:14640  require(_owner == _msgSender(), \"Ownable: caller is not the owner\") */\n      tag_174\n      jumpi\n      mload(0x40)\n      0x08c379a000000000000000000000000000000000000000000000000000000000\n      dup2\n      mstore\n      0x04\n      add\n      dup1\n      dup1\n      0x20\n      add\n      dup3\n      dup2\n      sub\n      dup3\n      mstore\n      0x20\n      dup2\n      mstore\n      0x20\n      add\n      dup1\n      0x4f776e61626c653a2063616c6c6572206973206e6f7420746865206f776e6572\n      dup2\n      mstore\n      pop\n      0x20\n      add\n      swap2\n      pop\n      pop\n      mload(0x40)\n      dup1\n      swap2\n      sub\n      swap1\n      revert\n    tag_174:\n        /* \"feg.sol\":15402:15403  0 */\n      0x00\n        /* \"feg.sol\":15382:15404  newOwner != address(0) */\n      0xffffffffffffffffffffffffffffffffffffffff\n      and\n        /* \"feg.sol\":15382:15390  newOwner */\n      dup2\n        /* \"feg.sol\":15382:15404  newOwner != address(0) */\n      0xffffffffffffffffffffffffffffffffffffffff\n      and\n      eq\n      iszero\n        /* \"feg.sol\":15374:15447  require(newOwner != address(0), \"Ownable: new owner is the zero address\") */\n      tag_176\n      jumpi\n      mload(0x40)\n      0x08c379a000000000000000000000000000000000000000000000000000000000\n      dup2\n      mstore\n      0x04\n      add\n      dup1\n      dup1\n      0x20\n      add\n      dup3\n      dup2\n      sub\n      dup3\n      mstore\n      0x26\n      dup2\n      mstore\n      0x20\n      add\n      dup1\n      data_245f15ff17f551913a7a18385165551503906a406f905ac1c2437281a7cd0cfe\n      0x26\n      swap2\n      codecopy\n      0x40\n      add\n      swap2\n      pop\n      pop\n      mload(0x40)\n      dup1\n      swap2\n      sub\n      swap1\n      revert\n    tag_176:\n        /* \"feg.sol\":15491:15499  newOwner */\n      dup1\n        /* \"feg.sol\":15462:15500  OwnershipTransferred(_owner, newOwner) */\n      0xffffffffffffffffffffffffffffffffffffffff\n      and\n        /* \"feg.sol\":15483:15489  _owner */\n      0x00\n      dup1\n      sload\n      swap1\n      0x0100\n      exp\n      swap1\n      div\n      0xffffffffffffffffffffffffffffffffffffffff\n      and\n        /* \"feg.sol\":15462:15500  OwnershipTransferred(_owner, newOwner) */\n      0xffffffffffffffffffffffffffffffffffffffff\n      and\n      0x8be0079c531659141344cd1fd0a4f28419497f9722a3daafe3b4186f6b6457e0\n      mload(0x40)\n      mload(0x40)\n      dup1\n      swap2\n      sub\n      swap1\n      log3\n        /* \"feg.sol\":15519:15527  newOwner */\n      dup1\n        /* \"feg.sol\":15510:15516  _owner */\n      0x00\n      dup1\n        /* \"feg.sol\":15510:15527  _owner = newOwner */\n      0x0100\n      exp\n      dup2\n      sload\n      dup2\n      0xffffffffffffffffffffffffffffffffffffffff\n      mul\n      not\n      and\n      swap1\n      dup4\n      0xffffffffffffffffffffffffffffffffffffffff\n      and\n      mul\n      or\n      swap1\n      sstore\n      pop\n        /* \"feg.sol\":15294:15534  function transferOwnership(address newOwner) public virtual onlyOwner {... */\n      pop\n      jump\t// out\n        /* \"feg.sol\":19813:20280  function includeAccount(address account) external onlyOwner() {... */\n    tag_94:\n        /* \"feg.sol\":14591:14603  _msgSender() */\n      tag_178\n        /* \"feg.sol\":14591:14601  _msgSender */\n      tag_97\n        /* \"feg.sol\":14591:14603  _msgSender() */\n      jump\t// in\n    tag_178:\n        /* \"feg.sol\":14581:14603  _owner == _msgSender() */\n      0xffffffffffffffffffffffffffffffffffffffff\n      and\n        /* \"feg.sol\":14581:14587  _owner */\n      0x00\n      dup1\n      sload\n      swap1\n      0x0100\n      exp\n      swap1\n      div\n      0xffffffffffffffffffffffffffffffffffffffff\n      and\n        /* \"feg.sol\":14581:14603  _owner == _msgSender() */\n      0xffffffffffffffffffffffffffffffffffffffff\n      and\n      eq\n        /* \"feg.sol\":14573:14640  require(_owner == _msgSender(), \"Ownable: caller is not the owner\") */\n      tag_179\n      jumpi\n      mload(0x40)\n      0x08c379a000000000000000000000000000000000000000000000000000000000\n      dup2\n      mstore\n      0x04\n      add\n      dup1\n      dup1\n      0x20\n      add\n      dup3\n      dup2\n      sub\n      dup3\n      mstore\n      0x20\n      dup2\n      mstore\n      0x20\n      add\n      dup1\n      0x4f776e61626c653a2063616c6c6572206973206e6f7420746865206f776e6572\n      dup2\n      mstore\n      pop\n      0x20\n      add\n      swap2\n      pop\n      pop\n      mload(0x40)\n      dup1\n      swap2\n      sub\n      swap1\n      revert\n    tag_179:\n        /* \"feg.sol\":19893:19904  _isExcluded */\n      0x04\n        /* \"feg.sol\":19893:19913  _isExcluded[account] */\n      0x00\n        /* \"feg.sol\":19905:19912  account */\n      dup3\n        /* \"feg.sol\":19893:19913  _isExcluded[account] */\n      0xffffffffffffffffffffffffffffffffffffffff\n      and\n      0xffffffffffffffffffffffffffffffffffffffff\n      and\n      dup2\n      mstore\n      0x20\n      add\n      swap1\n      dup2\n      mstore\n      0x20\n      add\n      0x00\n      keccak256\n      0x00\n      swap1\n      sload\n      swap1\n      0x0100\n      exp\n      swap1\n      div\n      0xff\n      and\n        /* \"feg.sol\":19885:19945  require(_isExcluded[account], \"Account is already excluded\") */\n      tag_181\n      jumpi\n      mload(0x40)\n      0x08c379a000000000000000000000000000000000000000000000000000000000\n      dup2\n      mstore\n      0x04\n      add\n      dup1\n      dup1\n      0x20\n      add\n      dup3\n      dup2\n      sub\n      dup3\n      mstore\n      0x1b\n      dup2\n      mstore\n      0x20\n      add\n      dup1\n      0x4163636f756e7420697320616c7265616479206578636c756465640000000000\n      dup2\n      mstore\n      pop\n      0x20\n      add\n      swap2\n      pop\n      pop\n      mload(0x40)\n      dup1\n      swap2\n      sub\n      swap1\n      revert\n    tag_181:\n        /* \"feg.sol\":19960:19969  uint256 i */\n      0x00\n        /* \"feg.sol\":19955:20274  for (uint256 i = 0; i < _excluded.length; i++) {... */\n    tag_182:\n        /* \"feg.sol\":19979:19988  _excluded */\n      0x05\n        /* \"feg.sol\":19979:19995  _excluded.length */\n      dup1\n      sload\n      swap1\n      pop\n        /* \"feg.sol\":19975:19976  i */\n      dup2\n        /* \"feg.sol\":19975:19995  i < _excluded.length */\n      lt\n        /* \"feg.sol\":19955:20274  for (uint256 i = 0; i < _excluded.length; i++) {... */\n      iszero\n      tag_183\n      jumpi\n        /* \"feg.sol\":20036:20043  account */\n      dup2\n        /* \"feg.sol\":20020:20043  _excluded[i] == account */\n      0xffffffffffffffffffffffffffffffffffffffff\n      and\n        /* \"feg.sol\":20020:20029  _excluded */\n      0x05\n        /* \"feg.sol\":20030:20031  i */\n      dup3\n        /* \"feg.sol\":20020:20032  _excluded[i] */\n      dup2\n      sload\n      dup2\n      lt\n      tag_185\n      jumpi\n      invalid\n    tag_185:\n      swap1\n      0x00\n      mstore\n      keccak256(0x00, 0x20)\n      add\n      0x00\n      swap1\n      sload\n      swap1\n      0x0100\n      exp\n      swap1\n      div\n      0xffffffffffffffffffffffffffffffffffffffff\n      and\n        /* \"feg.sol\":20020:20043  _excluded[i] == account */\n      0xffffffffffffffffffffffffffffffffffffffff\n      and\n      eq\n        /* \"feg.sol\":20016:20264  if (_excluded[i] == account) {... */\n      iszero\n      tag_187\n      jumpi\n        /* \"feg.sol\":20078:20087  _excluded */\n      0x05\n        /* \"feg.sol\":20107:20108  1 */\n      0x01\n        /* \"feg.sol\":20088:20097  _excluded */\n      0x05\n        /* \"feg.sol\":20088:20104  _excluded.length */\n      dup1\n      sload\n      swap1\n      pop\n        /* \"feg.sol\":20088:20108  _excluded.length - 1 */\n      sub\n        /* \"feg.sol\":20078:20109  _excluded[_excluded.length - 1] */\n      dup2\n      sload\n      dup2\n      lt\n      tag_188\n      jumpi\n      invalid\n    tag_188:\n      swap1\n      0x00\n      mstore\n      keccak256(0x00, 0x20)\n      add\n      0x00\n      swap1\n      sload\n      swap1\n      0x0100\n      exp\n      swap1\n      div\n      0xffffffffffffffffffffffffffffffffffffffff\n      and\n        /* \"feg.sol\":20063:20072  _excluded */\n      0x05\n        /* \"feg.sol\":20073:20074  i */\n      dup3\n        /* \"feg.sol\":20063:20075  _excluded[i] */\n      dup2\n      sload\n      dup2\n      lt\n      tag_190\n      jumpi\n      invalid\n    tag_190:\n      swap1\n      0x00\n      mstore\n      keccak256(0x00, 0x20)\n      add\n      0x00\n        /* \"feg.sol\":20063:20109  _excluded[i] = _excluded[_excluded.length - 1] */\n      0x0100\n      exp\n      dup2\n      sload\n      dup2\n      0xffffffffffffffffffffffffffffffffffffffff\n      mul\n      not\n      and\n      swap1\n      dup4\n      0xffffffffffffffffffffffffffffffffffffffff\n      and\n      mul\n      or\n      swap1\n      sstore\n      pop\n        /* \"feg.sol\":20146:20147  0 */\n      0x00\n        /* \"feg.sol\":20127:20134  _tOwned */\n      0x02\n        /* \"feg.sol\":20127:20143  _tOwned[account] */\n      0x00\n        /* \"feg.sol\":20135:20142  account */\n      dup5\n        /* \"feg.sol\":20127:20143  _tOwned[account] */\n      0xffffffffffffffffffffffffffffffffffffffff\n      and\n      0xffffffffffffffffffffffffffffffffffffffff\n      and\n      dup2\n      mstore\n      0x20\n      add\n      swap1\n      dup2\n      mstore\n      0x20\n      add\n      0x00\n      keccak256\n        /* \"feg.sol\":20127:20147  _tOwned[account] = 0 */\n      dup2\n      swap1\n      sstore\n      pop\n        /* \"feg.sol\":20188:20193  false */\n      0x00\n        /* \"feg.sol\":20165:20176  _isExcluded */\n      0x04\n        /* \"feg.sol\":20165:20185  _isExcluded[account] */\n      0x00\n        /* \"feg.sol\":20177:20184  account */\n      dup5\n        /* \"feg.sol\":20165:20185  _isExcluded[account] */\n      0xffffffffffffffffffffffffffffffffffffffff\n      and\n      0xffffffffffffffffffffffffffffffffffffffff\n      and\n      dup2\n      mstore\n      0x20\n      add\n      swap1\n      dup2\n      mstore\n      0x20\n      add\n      0x00\n      keccak256\n      0x00\n        /* \"feg.sol\":20165:20193  _isExcluded[account] = false */\n      0x0100\n      exp\n      dup2\n      sload\n      dup2\n      0xff\n      mul\n      not\n      and\n      swap1\n      dup4\n      iszero\n      iszero\n      mul\n      or\n      swap1\n      sstore\n      pop\n        /* \"feg.sol\":20211:20220  _excluded */\n      0x05\n        /* \"feg.sol\":20211:20226  _excluded.pop() */\n      dup1\n      sload\n      dup1\n      tag_192\n      jumpi\n      invalid\n    tag_192:\n      0x01\n      swap1\n      sub\n      dup2\n      dup2\n      swap1\n      0x00\n      mstore\n      keccak256(0x00, 0x20)\n      add\n      exp(0x0100, 0x00)\n      dup2\n      sload\n      swap1\n      0xffffffffffffffffffffffffffffffffffffffff\n      mul\n      not\n      and\n      swap1\n      sstore\n      swap1\n      sstore\n        /* \"feg.sol\":20244:20249  break */\n      jump(tag_183)\n        /* \"feg.sol\":20016:20264  if (_excluded[i] == account) {... */\n    tag_187:\n        /* \"feg.sol\":19997:20000  i++ */\n      dup1\n      dup1\n      0x01\n      add\n      swap2\n      pop\n      pop\n        /* \"feg.sol\":19955:20274  for (uint256 i = 0; i < _excluded.length; i++) {... */\n      jump(tag_182)\n    tag_183:\n      pop\n        /* \"feg.sol\":19813:20280  function includeAccount(address account) external onlyOwner() {... */\n      pop\n      jump\t// out\n        /* \"feg.sol\":448:552  function _msgSender() internal view virtual returns (address payable) {... */\n    tag_97:\n        /* \"feg.sol\":501:516  address payable */\n      0x00\n        /* \"feg.sol\":535:545  msg.sender */\n      caller\n        /* \"feg.sol\":528:545  return msg.sender */\n      swap1\n      pop\n        /* \"feg.sol\":448:552  function _msgSender() internal view virtual returns (address payable) {... */\n      swap1\n      jump\t// out\n        /* \"feg.sol\":23766:24172  function _getValues(uint256 tAmount) private view returns (uint256, uint256, uint256, uint256, uint256) {... */\n    tag_100:\n        /* \"feg.sol\":23825:23832  uint256 */\n      0x00\n        /* \"feg.sol\":23834:23841  uint256 */\n      dup1\n        /* \"feg.sol\":23843:23850  uint256 */\n      0x00\n        /* \"feg.sol\":23852:23859  uint256 */\n      dup1\n        /* \"feg.sol\":23861:23868  uint256 */\n      0x00\n        /* \"feg.sol\":23881:23904  uint256 tTransferAmount */\n      dup1\n        /* \"feg.sol\":23906:23918  uint256 tFee */\n      0x00\n        /* \"feg.sol\":23922:23942  _getTValues(tAmount) */\n      tag_196\n        /* \"feg.sol\":23934:23941  tAmount */\n      dup9\n        /* \"feg.sol\":23922:23933  _getTValues */\n      tag_197\n        /* \"feg.sol\":23922:23942  _getTValues(tAmount) */\n      jump\t// in\n    tag_196:\n        /* \"feg.sol\":23880:23942  (uint256 tTransferAmount, uint256 tFee) = _getTValues(tAmount) */\n      swap2\n      pop\n      swap2\n      pop\n        /* \"feg.sol\":23952:23971  uint256 currentRate */\n      0x00\n        /* \"feg.sol\":23975:23985  _getRate() */\n      tag_198\n        /* \"feg.sol\":23975:23983  _getRate */\n      tag_127\n        /* \"feg.sol\":23975:23985  _getRate() */\n      jump\t// in\n    tag_198:\n        /* \"feg.sol\":23952:23985  uint256 currentRate =  _getRate() */\n      swap1\n      pop\n        /* \"feg.sol\":23996:24011  uint256 rAmount */\n      0x00\n        /* \"feg.sol\":24013:24036  uint256 rTransferAmount */\n      dup1\n        /* \"feg.sol\":24038:24050  uint256 rFee */\n      0x00\n        /* \"feg.sol\":24054:24093  _getRValues(tAmount, tFee, currentRate) */\n      tag_199\n        /* \"feg.sol\":24066:24073  tAmount */\n      dup13\n        /* \"feg.sol\":24075:24079  tFee */\n      dup7\n        /* \"feg.sol\":24081:24092  currentRate */\n      dup7\n        /* \"feg.sol\":24054:24065  _getRValues */\n      tag_200\n        /* \"feg.sol\":24054:24093  _getRValues(tAmount, tFee, currentRate) */\n      jump\t// in\n    tag_199:\n        /* \"feg.sol\":23995:24093  (uint256 rAmount, uint256 rTransferAmount, uint256 rFee) = _getRValues(tAmount, tFee, currentRate) */\n      swap3\n      pop\n      swap3\n      pop\n      swap3\n      pop\n        /* \"feg.sol\":24111:24118  rAmount */\n      dup3\n        /* \"feg.sol\":24120:24135  rTransferAmount */\n      dup3\n        /* \"feg.sol\":24137:24141  rFee */\n      dup3\n        /* \"feg.sol\":24143:24158  tTransferAmount */\n      dup9\n        /* \"feg.sol\":24160:24164  tFee */\n      dup9\n        /* \"feg.sol\":24103:24165  return (rAmount, rTransferAmount, rFee, tTransferAmount, tFee) */\n      swap11\n      pop\n      swap11\n      pop\n      swap11\n      pop\n      swap11\n      pop\n      swap11\n      pop\n      pop\n      pop\n      pop\n      pop\n      pop\n      pop\n        /* \"feg.sol\":23766:24172  function _getValues(uint256 tAmount) private view returns (uint256, uint256, uint256, uint256, uint256) {... */\n      swap2\n      swap4\n      swap6\n      swap1\n      swap3\n      swap5\n      pop\n      jump\t// out\n        /* \"feg.sol\":4059:4193  function sub(uint256 a, uint256 b) internal pure returns (uint256) {... */\n    tag_102:\n        /* \"feg.sol\":4117:4124  uint256 */\n      0x00\n        /* \"feg.sol\":4143:4186  sub(a, b, \"SafeMath: subtraction overflow\") */\n      tag_202\n        /* \"feg.sol\":4147:4148  a */\n      dup4\n        /* \"feg.sol\":4150:4151  b */\n      dup4\n        /* \"feg.sol\":4143:4186  sub(a, b, \"SafeMath: subtraction overflow\") */\n      mload(0x40)\n      dup1\n      0x40\n      add\n      0x40\n      mstore\n      dup1\n      0x1e\n      dup2\n      mstore\n      0x20\n      add\n      0x536166654d6174683a207375627472616374696f6e206f766572666c6f770000\n      dup2\n      mstore\n      pop\n        /* \"feg.sol\":4143:4146  sub */\n      tag_123\n        /* \"feg.sol\":4143:4186  sub(a, b, \"SafeMath: subtraction overflow\") */\n      jump\t// in\n    tag_202:\n        /* \"feg.sol\":4136:4186  return sub(a, b, \"SafeMath: subtraction overflow\") */\n      swap1\n      pop\n        /* \"feg.sol\":4059:4193  function sub(uint256 a, uint256 b) internal pure returns (uint256) {... */\n      swap3\n      swap2\n      pop\n      pop\n      jump\t// out\n        /* \"feg.sol\":3612:3788  function add(uint256 a, uint256 b) internal pure returns (uint256) {... */\n    tag_105:\n        /* \"feg.sol\":3670:3677  uint256 */\n      0x00\n        /* \"feg.sol\":3689:3698  uint256 c */\n      dup1\n        /* \"feg.sol\":3705:3706  b */\n      dup3\n        /* \"feg.sol\":3701:3702  a */\n      dup5\n        /* \"feg.sol\":3701:3706  a + b */\n      add\n        /* \"feg.sol\":3689:3706  uint256 c = a + b */\n      swap1\n      pop\n        /* \"feg.sol\":3729:3730  a */\n      dup4\n        /* \"feg.sol\":3724:3725  c */\n      dup2\n        /* \"feg.sol\":3724:3730  c >= a */\n      lt\n      iszero\n        /* \"feg.sol\":3716:3762  require(c >= a, \"SafeMath: addition overflow\") */\n      tag_204\n      jumpi\n      mload(0x40)\n      0x08c379a000000000000000000000000000000000000000000000000000000000\n      dup2\n      mstore\n      0x04\n      add\n      dup1\n      dup1\n      0x20\n      add\n      dup3\n      dup2\n      sub\n      dup3\n      mstore\n      0x1b\n      dup2\n      mstore\n      0x20\n      add\n      dup1\n      0x536166654d6174683a206164646974696f6e206f766572666c6f770000000000\n      dup2\n      mstore\n      pop\n      0x20\n      add\n      swap2\n      pop\n      pop\n      mload(0x40)\n      dup1\n      swap2\n      sub\n      swap1\n      revert\n    tag_204:\n        /* \"feg.sol\":3780:3781  c */\n      dup1\n        /* \"feg.sol\":3773:3781  return c */\n      swap2\n      pop\n      pop\n        /* \"feg.sol\":3612:3788  function add(uint256 a, uint256 b) internal pure returns (uint256) {... */\n      swap3\n      swap2\n      pop\n      pop\n      jump\t// out\n        /* \"feg.sol\":20286:20617  function _approve(address owner, address spender, uint256 amount) private {... */\n    tag_113:\n        /* \"feg.sol\":20395:20396  0 */\n      0x00\n        /* \"feg.sol\":20378:20397  owner != address(0) */\n      0xffffffffffffffffffffffffffffffffffffffff\n      and\n        /* \"feg.sol\":20378:20383  owner */\n      dup4\n        /* \"feg.sol\":20378:20397  owner != address(0) */\n      0xffffffffffffffffffffffffffffffffffffffff\n      and\n      eq\n      iszero\n        /* \"feg.sol\":20370:20438  require(owner != address(0), \"ERC20: approve from the zero address\") */\n      tag_206\n      jumpi\n      mload(0x40)\n      0x08c379a000000000000000000000000000000000000000000000000000000000\n      dup2\n      mstore\n      0x04\n      add\n      dup1\n      dup1\n      0x20\n      add\n      dup3\n      dup2\n      sub\n      dup3\n      mstore\n      0x24\n      dup2\n      mstore\n      0x20\n      add\n      dup1\n      data_c953f4879035ed60e766b34720f656aab5c697b141d924c283124ecedb91c208\n      0x24\n      swap2\n      codecopy\n      0x40\n      add\n      swap2\n      pop\n      pop\n      mload(0x40)\n      dup1\n      swap2\n      sub\n      swap1\n      revert\n    tag_206:\n        /* \"feg.sol\":20475:20476  0 */\n      0x00\n        /* \"feg.sol\":20456:20477  spender != address(0) */\n      0xffffffffffffffffffffffffffffffffffffffff\n      and\n        /* \"feg.sol\":20456:20463  spender */\n      dup3\n        /* \"feg.sol\":20456:20477  spender != address(0) */\n      0xffffffffffffffffffffffffffffffffffffffff\n      and\n      eq\n      iszero\n        /* \"feg.sol\":20448:20516  require(spender != address(0), \"ERC20: approve to the zero address\") */\n      tag_207\n      jumpi\n      mload(0x40)\n      0x08c379a000000000000000000000000000000000000000000000000000000000\n      dup2\n      mstore\n      0x04\n      add\n      dup1\n      dup1\n      0x20\n      add\n      dup3\n      dup2\n      sub\n      dup3\n      mstore\n      0x22\n      dup2\n      mstore\n      0x20\n      add\n      dup1\n      data_24883cc5fe64ace9d0df1893501ecb93c77180f0ff69cca79affb3c316dc8029\n      0x22\n      swap2\n      codecopy\n      0x40\n      add\n      swap2\n      pop\n      pop\n      mload(0x40)\n      dup1\n      swap2\n      sub\n      swap1\n      revert\n    tag_207:\n        /* \"feg.sol\":20557:20563  amount */\n      dup1\n        /* \"feg.sol\":20527:20538  _allowances */\n      0x03\n        /* \"feg.sol\":20527:20545  _allowances[owner] */\n      0x00\n        /* \"feg.sol\":20539:20544  owner */\n      dup6\n        /* \"feg.sol\":20527:20545  _allowances[owner] */\n      0xffffffffffffffffffffffffffffffffffffffff\n      and\n      0xffffffffffffffffffffffffffffffffffffffff\n      and\n      dup2\n      mstore\n      0x20\n      add\n      swap1\n      dup2\n      mstore\n      0x20\n      add\n      0x00\n      keccak256\n        /* \"feg.sol\":20527:20554  _allowances[owner][spender] */\n      0x00\n        /* \"feg.sol\":20546:20553  spender */\n      dup5\n        /* \"feg.sol\":20527:20554  _allowances[owner][spender] */\n      0xffffffffffffffffffffffffffffffffffffffff\n      and\n      0xffffffffffffffffffffffffffffffffffffffff\n      and\n      dup2\n      mstore\n      0x20\n      add\n      swap1\n      dup2\n      mstore\n      0x20\n      add\n      0x00\n      keccak256\n        /* \"feg.sol\":20527:20563  _allowances[owner][spender] = amount */\n      dup2\n      swap1\n      sstore\n      pop\n        /* \"feg.sol\":20594:20601  spender */\n      dup2\n        /* \"feg.sol\":20578:20610  Approval(owner, spender, amount) */\n      0xffffffffffffffffffffffffffffffffffffffff\n      and\n        /* \"feg.sol\":20587:20592  owner */\n      dup4\n        /* \"feg.sol\":20578:20610  Approval(owner, spender, amount) */\n      0xffffffffffffffffffffffffffffffffffffffff\n      and\n      0x8c5be1e5ebec7d5bd14f71427d1e84f3dd0314c0f7b2291e5b200ac8c7c3b925\n        /* \"feg.sol\":20603:20609  amount */\n      dup4\n        /* \"feg.sol\":20578:20610  Approval(owner, spender, amount) */\n      mload(0x40)\n      dup1\n      dup3\n      dup2\n      mstore\n      0x20\n      add\n      swap2\n      pop\n      pop\n      mload(0x40)\n      dup1\n      swap2\n      sub\n      swap1\n      log3\n        /* \"feg.sol\":20286:20617  function _approve(address owner, address spender, uint256 amount) private {... */\n      pop\n      pop\n      pop\n      jump\t// out\n        /* \"feg.sol\":20623:21539  function _transfer(address sender, address recipient, uint256 amount) private {... */\n    tag_118:\n        /* \"feg.sol\":20737:20738  0 */\n      0x00\n        /* \"feg.sol\":20719:20739  sender != address(0) */\n      0xffffffffffffffffffffffffffffffffffffffff\n      and\n        /* \"feg.sol\":20719:20725  sender */\n      dup4\n        /* \"feg.sol\":20719:20739  sender != address(0) */\n      0xffffffffffffffffffffffffffffffffffffffff\n      and\n      eq\n      iszero\n        /* \"feg.sol\":20711:20781  require(sender != address(0), \"ERC20: transfer from the zero address\") */\n      tag_209\n      jumpi\n      mload(0x40)\n      0x08c379a000000000000000000000000000000000000000000000000000000000\n      dup2\n      mstore\n      0x04\n      add\n      dup1\n      dup1\n      0x20\n      add\n      dup3\n      dup2\n      sub\n      dup3\n      mstore\n      0x25\n      dup2\n      mstore\n      0x20\n      add\n      dup1\n      data_baecc556b46f4ed0f2b4cb599d60785ac8563dd2dc0a5bf12edea1c39e5e1fea\n      0x25\n      swap2\n      codecopy\n      0x40\n      add\n      swap2\n      pop\n      pop\n      mload(0x40)\n      dup1\n      swap2\n      sub\n      swap1\n      revert\n    tag_209:\n        /* \"feg.sol\":20820:20821  0 */\n      0x00\n        /* \"feg.sol\":20799:20822  recipient != address(0) */\n      0xffffffffffffffffffffffffffffffffffffffff\n      and\n        /* \"feg.sol\":20799:20808  recipient */\n      dup3\n        /* \"feg.sol\":20799:20822  recipient != address(0) */\n      0xffffffffffffffffffffffffffffffffffffffff\n      and\n      eq\n      iszero\n        /* \"feg.sol\":20791:20862  require(recipient != address(0), \"ERC20: transfer to the zero address\") */\n      tag_210\n      jumpi\n      mload(0x40)\n      0x08c379a000000000000000000000000000000000000000000000000000000000\n      dup2\n      mstore\n      0x04\n      add\n      dup1\n      dup1\n      0x20\n      add\n      dup3\n      dup2\n      sub\n      dup3\n      mstore\n      0x23\n      dup2\n      mstore\n      0x20\n      add\n      dup1\n      data_0557e210f7a69a685100a7e4e3d0a7024c546085cee28910fd17d0b081d9516f\n      0x23\n      swap2\n      codecopy\n      0x40\n      add\n      swap2\n      pop\n      pop\n      mload(0x40)\n      dup1\n      swap2\n      sub\n      swap1\n      revert\n    tag_210:\n        /* \"feg.sol\":20889:20890  0 */\n      0x00\n        /* \"feg.sol\":20880:20886  amount */\n      dup2\n        /* \"feg.sol\":20880:20890  amount > 0 */\n      gt\n        /* \"feg.sol\":20872:20936  require(amount > 0, \"Transfer amount must be greater than zero\") */\n      tag_211\n      jumpi\n      mload(0x40)\n      0x08c379a000000000000000000000000000000000000000000000000000000000\n      dup2\n      mstore\n      0x04\n      add\n      dup1\n      dup1\n      0x20\n      add\n      dup3\n      dup2\n      sub\n      dup3\n      mstore\n      0x29\n      dup2\n      mstore\n      0x20\n      add\n      dup1\n      data_9edb5ab58321f35d2386ea65721c9b107daa2c273610fc16d394af2a320ba785\n      0x29\n      swap2\n      codecopy\n      0x40\n      add\n      swap2\n      pop\n      pop\n      mload(0x40)\n      dup1\n      swap2\n      sub\n      swap1\n      revert\n    tag_211:\n        /* \"feg.sol\":20950:20961  _isExcluded */\n      0x04\n        /* \"feg.sol\":20950:20969  _isExcluded[sender] */\n      0x00\n        /* \"feg.sol\":20962:20968  sender */\n      dup5\n        /* \"feg.sol\":20950:20969  _isExcluded[sender] */\n      0xffffffffffffffffffffffffffffffffffffffff\n      and\n      0xffffffffffffffffffffffffffffffffffffffff\n      and\n      dup2\n      mstore\n      0x20\n      add\n      swap1\n      dup2\n      mstore\n      0x20\n      add\n      0x00\n      keccak256\n      0x00\n      swap1\n      sload\n      swap1\n      0x0100\n      exp\n      swap1\n      div\n      0xff\n      and\n        /* \"feg.sol\":20950:20996  _isExcluded[sender] && !_isExcluded[recipient] */\n      dup1\n      iszero\n      tag_212\n      jumpi\n      pop\n        /* \"feg.sol\":20974:20985  _isExcluded */\n      0x04\n        /* \"feg.sol\":20974:20996  _isExcluded[recipient] */\n      0x00\n        /* \"feg.sol\":20986:20995  recipient */\n      dup4\n        /* \"feg.sol\":20974:20996  _isExcluded[recipient] */\n      0xffffffffffffffffffffffffffffffffffffffff\n      and\n      0xffffffffffffffffffffffffffffffffffffffff\n      and\n      dup2\n      mstore\n      0x20\n      add\n      swap1\n      dup2\n      mstore\n      0x20\n      add\n      0x00\n      keccak256\n      0x00\n      swap1\n      sload\n      swap1\n      0x0100\n      exp\n      swap1\n      div\n      0xff\n      and\n        /* \"feg.sol\":20973:20996  !_isExcluded[recipient] */\n      iszero\n        /* \"feg.sol\":20950:20996  _isExcluded[sender] && !_isExcluded[recipient] */\n    tag_212:\n        /* \"feg.sol\":20946:21533  if (_isExcluded[sender] && !_isExcluded[recipient]) {... */\n      iszero\n      tag_213\n      jumpi\n        /* \"feg.sol\":21012:21060  _transferFromExcluded(sender, recipient, amount) */\n      tag_214\n        /* \"feg.sol\":21034:21040  sender */\n      dup4\n        /* \"feg.sol\":21042:21051  recipient */\n      dup4\n        /* \"feg.sol\":21053:21059  amount */\n      dup4\n        /* \"feg.sol\":21012:21033  _transferFromExcluded */\n      tag_215\n        /* \"feg.sol\":21012:21060  _transferFromExcluded(sender, recipient, amount) */\n      jump\t// in\n    tag_214:\n        /* \"feg.sol\":20946:21533  if (_isExcluded[sender] && !_isExcluded[recipient]) {... */\n      jump(tag_216)\n    tag_213:\n        /* \"feg.sol\":21082:21093  _isExcluded */\n      0x04\n        /* \"feg.sol\":21082:21101  _isExcluded[sender] */\n      0x00\n        /* \"feg.sol\":21094:21100  sender */\n      dup5\n        /* \"feg.sol\":21082:21101  _isExcluded[sender] */\n      0xffffffffffffffffffffffffffffffffffffffff\n      and\n      0xffffffffffffffffffffffffffffffffffffffff\n      and\n      dup2\n      mstore\n      0x20\n      add\n      swap1\n      dup2\n      mstore\n      0x20\n      add\n      0x00\n      keccak256\n      0x00\n      swap1\n      sload\n      swap1\n      0x0100\n      exp\n      swap1\n      div\n      0xff\n      and\n        /* \"feg.sol\":21081:21101  !_isExcluded[sender] */\n      iszero\n        /* \"feg.sol\":21081:21127  !_isExcluded[sender] && _isExcluded[recipient] */\n      dup1\n      iszero\n      tag_217\n      jumpi\n      pop\n        /* \"feg.sol\":21105:21116  _isExcluded */\n      0x04\n        /* \"feg.sol\":21105:21127  _isExcluded[recipient] */\n      0x00\n        /* \"feg.sol\":21117:21126  recipient */\n      dup4\n        /* \"feg.sol\":21105:21127  _isExcluded[recipient] */\n      0xffffffffffffffffffffffffffffffffffffffff\n      and\n      0xffffffffffffffffffffffffffffffffffffffff\n      and\n      dup2\n      mstore\n      0x20\n      add\n      swap1\n      dup2\n      mstore\n      0x20\n      add\n      0x00\n      keccak256\n      0x00\n      swap1\n      sload\n      swap1\n      0x0100\n      exp\n      swap1\n      div\n      0xff\n      and\n        /* \"feg.sol\":21081:21127  !_isExcluded[sender] && _isExcluded[recipient] */\n    tag_217:\n        /* \"feg.sol\":21077:21533  if (!_isExcluded[sender] && _isExcluded[recipient]) {... */\n      iszero\n      tag_218\n      jumpi\n        /* \"feg.sol\":21143:21189  _transferToExcluded(sender, recipient, amount) */\n      tag_219\n        /* \"feg.sol\":21163:21169  sender */\n      dup4\n        /* \"feg.sol\":21171:21180  recipient */\n      dup4\n        /* \"feg.sol\":21182:21188  amount */\n      dup4\n        /* \"feg.sol\":21143:21162  _transferToExcluded */\n      tag_220\n        /* \"feg.sol\":21143:21189  _transferToExcluded(sender, recipient, amount) */\n      jump\t// in\n    tag_219:\n        /* \"feg.sol\":21077:21533  if (!_isExcluded[sender] && _isExcluded[recipient]) {... */\n      jump(tag_221)\n    tag_218:\n        /* \"feg.sol\":21211:21222  _isExcluded */\n      0x04\n        /* \"feg.sol\":21211:21230  _isExcluded[sender] */\n      0x00\n        /* \"feg.sol\":21223:21229  sender */\n      dup5\n        /* \"feg.sol\":21211:21230  _isExcluded[sender] */\n      0xffffffffffffffffffffffffffffffffffffffff\n      and\n      0xffffffffffffffffffffffffffffffffffffffff\n      and\n      dup2\n      mstore\n      0x20\n      add\n      swap1\n      dup2\n      mstore\n      0x20\n      add\n      0x00\n      keccak256\n      0x00\n      swap1\n      sload\n      swap1\n      0x0100\n      exp\n      swap1\n      div\n      0xff\n      and\n        /* \"feg.sol\":21210:21230  !_isExcluded[sender] */\n      iszero\n        /* \"feg.sol\":21210:21257  !_isExcluded[sender] && !_isExcluded[recipient] */\n      dup1\n      iszero\n      tag_222\n      jumpi\n      pop\n        /* \"feg.sol\":21235:21246  _isExcluded */\n      0x04\n        /* \"feg.sol\":21235:21257  _isExcluded[recipient] */\n      0x00\n        /* \"feg.sol\":21247:21256  recipient */\n      dup4\n        /* \"feg.sol\":21235:21257  _isExcluded[recipient] */\n      0xffffffffffffffffffffffffffffffffffffffff\n      and\n      0xffffffffffffffffffffffffffffffffffffffff\n      and\n      dup2\n      mstore\n      0x20\n      add\n      swap1\n      dup2\n      mstore\n      0x20\n      add\n      0x00\n      keccak256\n      0x00\n      swap1\n      sload\n      swap1\n      0x0100\n      exp\n      swap1\n      div\n      0xff\n      and\n        /* \"feg.sol\":21234:21257  !_isExcluded[recipient] */\n      iszero\n        /* \"feg.sol\":21210:21257  !_isExcluded[sender] && !_isExcluded[recipient] */\n    tag_222:\n        /* \"feg.sol\":21206:21533  if (!_isExcluded[sender] && !_isExcluded[recipient]) {... */\n      iszero\n      tag_223\n      jumpi\n        /* \"feg.sol\":21273:21317  _transferStandard(sender, recipient, amount) */\n      tag_224\n        /* \"feg.sol\":21291:21297  sender */\n      dup4\n        /* \"feg.sol\":21299:21308  recipient */\n      dup4\n        /* \"feg.sol\":21310:21316  amount */\n      dup4\n        /* \"feg.sol\":21273:21290  _transferStandard */\n      tag_225\n        /* \"feg.sol\":21273:21317  _transferStandard(sender, recipient, amount) */\n      jump\t// in\n    tag_224:\n        /* \"feg.sol\":21206:21533  if (!_isExcluded[sender] && !_isExcluded[recipient]) {... */\n      jump(tag_226)\n    tag_223:\n        /* \"feg.sol\":21338:21349  _isExcluded */\n      0x04\n        /* \"feg.sol\":21338:21357  _isExcluded[sender] */\n      0x00\n        /* \"feg.sol\":21350:21356  sender */\n      dup5\n        /* \"feg.sol\":21338:21357  _isExcluded[sender] */\n      0xffffffffffffffffffffffffffffffffffffffff\n      and\n      0xffffffffffffffffffffffffffffffffffffffff\n      and\n      dup2\n      mstore\n      0x20\n      add\n      swap1\n      dup2\n      mstore\n      0x20\n      add\n      0x00\n      keccak256\n      0x00\n      swap1\n      sload\n      swap1\n      0x0100\n      exp\n      swap1\n      div\n      0xff\n      and\n        /* \"feg.sol\":21338:21383  _isExcluded[sender] && _isExcluded[recipient] */\n      dup1\n      iszero\n      tag_227\n      jumpi\n      pop\n        /* \"feg.sol\":21361:21372  _isExcluded */\n      0x04\n        /* \"feg.sol\":21361:21383  _isExcluded[recipient] */\n      0x00\n        /* \"feg.sol\":21373:21382  recipient */\n      dup4\n        /* \"feg.sol\":21361:21383  _isExcluded[recipient] */\n      0xffffffffffffffffffffffffffffffffffffffff\n      and\n      0xffffffffffffffffffffffffffffffffffffffff\n      and\n      dup2\n      mstore\n      0x20\n      add\n      swap1\n      dup2\n      mstore\n      0x20\n      add\n      0x00\n      keccak256\n      0x00\n      swap1\n      sload\n      swap1\n      0x0100\n      exp\n      swap1\n      div\n      0xff\n      and\n        /* \"feg.sol\":21338:21383  _isExcluded[sender] && _isExcluded[recipient] */\n    tag_227:\n        /* \"feg.sol\":21334:21533  if (_isExcluded[sender] && _isExcluded[recipient]) {... */\n      iszero\n      tag_228\n      jumpi\n        /* \"feg.sol\":21399:21447  _transferBothExcluded(sender, recipient, amount) */\n      tag_229\n        /* \"feg.sol\":21421:21427  sender */\n      dup4\n        /* \"feg.sol\":21429:21438  recipient */\n      dup4\n        /* \"feg.sol\":21440:21446  amount */\n      dup4\n        /* \"feg.sol\":21399:21420  _transferBothExcluded */\n      tag_230\n        /* \"feg.sol\":21399:21447  _transferBothExcluded(sender, recipient, amount) */\n      jump\t// in\n    tag_229:\n        /* \"feg.sol\":21334:21533  if (_isExcluded[sender] && _isExcluded[recipient]) {... */\n      jump(tag_231)\n    tag_228:\n        /* \"feg.sol\":21478:21522  _transferStandard(sender, recipient, amount) */\n      tag_232\n        /* \"feg.sol\":21496:21502  sender */\n      dup4\n        /* \"feg.sol\":21504:21513  recipient */\n      dup4\n        /* \"feg.sol\":21515:21521  amount */\n      dup4\n        /* \"feg.sol\":21478:21495  _transferStandard */\n      tag_225\n        /* \"feg.sol\":21478:21522  _transferStandard(sender, recipient, amount) */\n      jump\t// in\n    tag_232:\n        /* \"feg.sol\":21334:21533  if (_isExcluded[sender] && _isExcluded[recipient]) {... */\n    tag_231:\n        /* \"feg.sol\":21206:21533  if (!_isExcluded[sender] && !_isExcluded[recipient]) {... */\n    tag_226:\n        /* \"feg.sol\":21077:21533  if (!_isExcluded[sender] && _isExcluded[recipient]) {... */\n    tag_221:\n        /* \"feg.sol\":20946:21533  if (_isExcluded[sender] && !_isExcluded[recipient]) {... */\n    tag_216:\n        /* \"feg.sol\":20623:21539  function _transfer(address sender, address recipient, uint256 amount) private {... */\n      pop\n      pop\n      pop\n      jump\t// out\n        /* \"feg.sol\":4484:4671  function sub(uint256 a, uint256 b, string memory errorMessage) internal pure returns (uint256) {... */\n    tag_123:\n        /* \"feg.sol\":4570:4577  uint256 */\n      0x00\n        /* \"feg.sol\":4602:4603  a */\n      dup4\n        /* \"feg.sol\":4597:4598  b */\n      dup4\n        /* \"feg.sol\":4597:4603  b <= a */\n      gt\n      iszero\n        /* \"feg.sol\":4605:4617  errorMessage */\n      dup3\n        /* \"feg.sol\":4589:4618  require(b <= a, errorMessage) */\n      swap1\n      tag_234\n      jumpi\n      mload(0x40)\n      0x08c379a000000000000000000000000000000000000000000000000000000000\n      dup2\n      mstore\n      0x04\n      add\n      dup1\n      dup1\n      0x20\n      add\n      dup3\n      dup2\n      sub\n      dup3\n      mstore\n      dup4\n      dup2\n      dup2\n      mload\n      dup2\n      mstore\n      0x20\n      add\n      swap2\n      pop\n      dup1\n      mload\n      swap1\n      0x20\n      add\n      swap1\n      dup1\n      dup4\n      dup4\n      0x00\n    tag_235:\n      dup4\n      dup2\n      lt\n      iszero\n      tag_237\n      jumpi\n      dup1\n      dup3\n      add\n      mload\n      dup2\n      dup5\n      add\n      mstore\n      0x20\n      dup2\n      add\n      swap1\n      pop\n      jump(tag_235)\n    tag_237:\n      pop\n      pop\n      pop\n      pop\n      swap1\n      pop\n      swap1\n      dup2\n      add\n      swap1\n      0x1f\n      and\n      dup1\n      iszero\n      tag_238\n      jumpi\n      dup1\n      dup3\n      sub\n      dup1\n      mload\n      0x01\n      dup4\n      0x20\n      sub\n      0x0100\n      exp\n      sub\n      not\n      and\n      dup2\n      mstore\n      0x20\n      add\n      swap2\n      pop\n    tag_238:\n      pop\n      swap3\n      pop\n      pop\n      pop\n      mload(0x40)\n      dup1\n      swap2\n      sub\n      swap1\n      revert\n    tag_234:\n      pop\n        /* \"feg.sol\":4628:4637  uint256 c */\n      0x00\n        /* \"feg.sol\":4644:4645  b */\n      dup4\n        /* \"feg.sol\":4640:4641  a */\n      dup6\n        /* \"feg.sol\":4640:4645  a - b */\n      sub\n        /* \"feg.sol\":4628:4645  uint256 c = a - b */\n      swap1\n      pop\n        /* \"feg.sol\":4663:4664  c */\n      dup1\n        /* \"feg.sol\":4656:4664  return c */\n      swap2\n      pop\n      pop\n        /* \"feg.sol\":4484:4671  function sub(uint256 a, uint256 b, string memory errorMessage) internal pure returns (uint256) {... */\n      swap4\n      swap3\n      pop\n      pop\n      pop\n      jump\t// out\n        /* \"feg.sol\":24745:24905  function _getRate() private view returns(uint256) {... */\n    tag_127:\n        /* \"feg.sol\":24786:24793  uint256 */\n      0x00\n        /* \"feg.sol\":24806:24821  uint256 rSupply */\n      dup1\n        /* \"feg.sol\":24823:24838  uint256 tSupply */\n      0x00\n        /* \"feg.sol\":24842:24861  _getCurrentSupply() */\n      tag_240\n        /* \"feg.sol\":24842:24859  _getCurrentSupply */\n      tag_241\n        /* \"feg.sol\":24842:24861  _getCurrentSupply() */\n      jump\t// in\n    tag_240:\n        /* \"feg.sol\":24805:24861  (uint256 rSupply, uint256 tSupply) = _getCurrentSupply() */\n      swap2\n      pop\n      swap2\n      pop\n        /* \"feg.sol\":24878:24898  rSupply.div(tSupply) */\n      tag_242\n        /* \"feg.sol\":24890:24897  tSupply */\n      dup2\n        /* \"feg.sol\":24878:24885  rSupply */\n      dup4\n        /* \"feg.sol\":24878:24889  rSupply.div */\n      tag_129\n      swap1\n        /* \"feg.sol\":24878:24898  rSupply.div(tSupply) */\n      swap2\n      swap1\n      0xffffffff\n      and\n      jump\t// in\n    tag_242:\n        /* \"feg.sol\":24871:24898  return rSupply.div(tSupply) */\n      swap3\n      pop\n      pop\n      pop\n        /* \"feg.sol\":24745:24905  function _getRate() private view returns(uint256) {... */\n      swap1\n      jump\t// out\n        /* \"feg.sol\":5839:5969  function div(uint256 a, uint256 b) internal pure returns (uint256) {... */\n    tag_129:\n        /* \"feg.sol\":5897:5904  uint256 */\n      0x00\n        /* \"feg.sol\":5923:5962  div(a, b, \"SafeMath: division by zero\") */\n      tag_244\n        /* \"feg.sol\":5927:5928  a */\n      dup4\n        /* \"feg.sol\":5930:5931  b */\n      dup4\n        /* \"feg.sol\":5923:5962  div(a, b, \"SafeMath: division by zero\") */\n      mload(0x40)\n      dup1\n      0x40\n      add\n      0x40\n      mstore\n      dup1\n      0x1a\n      dup2\n      mstore\n      0x20\n      add\n      0x536166654d6174683a206469766973696f6e206279207a65726f000000000000\n      dup2\n      mstore\n      pop\n        /* \"feg.sol\":5923:5926  div */\n      tag_245\n        /* \"feg.sol\":5923:5962  div(a, b, \"SafeMath: division by zero\") */\n      jump\t// in\n    tag_244:\n        /* \"feg.sol\":5916:5962  return div(a, b, \"SafeMath: division by zero\") */\n      swap1\n      pop\n        /* \"feg.sol\":5839:5969  function div(uint256 a, uint256 b) internal pure returns (uint256) {... */\n      swap3\n      swap2\n      pop\n      pop\n      jump\t// out\n        /* \"feg.sol\":24178:24404  function _getTValues(uint256 tAmount) private pure returns (uint256, uint256) {... */\n    tag_197:\n        /* \"feg.sol\":24238:24245  uint256 */\n      0x00\n        /* \"feg.sol\":24247:24254  uint256 */\n      dup1\n        /* \"feg.sol\":24266:24278  uint256 tFee */\n      0x00\n        /* \"feg.sol\":24281:24304  tAmount.div(100).mul(2) */\n      tag_247\n        /* \"feg.sol\":24302:24303  2 */\n      0x02\n        /* \"feg.sol\":24281:24297  tAmount.div(100) */\n      tag_248\n        /* \"feg.sol\":24293:24296  100 */\n      0x64\n        /* \"feg.sol\":24281:24288  tAmount */\n      dup8\n        /* \"feg.sol\":24281:24292  tAmount.div */\n      tag_129\n      swap1\n        /* \"feg.sol\":24281:24297  tAmount.div(100) */\n      swap2\n      swap1\n      0xffffffff\n      and\n      jump\t// in\n    tag_248:\n        /* \"feg.sol\":24281:24301  tAmount.div(100).mul */\n      tag_249\n      swap1\n        /* \"feg.sol\":24281:24304  tAmount.div(100).mul(2) */\n      swap2\n      swap1\n      0xffffffff\n      and\n      jump\t// in\n    tag_247:\n        /* \"feg.sol\":24266:24304  uint256 tFee = tAmount.div(100).mul(2) */\n      swap1\n      pop\n        /* \"feg.sol\":24314:24337  uint256 tTransferAmount */\n      0x00\n        /* \"feg.sol\":24340:24357  tAmount.sub(tFee) */\n      tag_250\n        /* \"feg.sol\":24352:24356  tFee */\n      dup3\n        /* \"feg.sol\":24340:24347  tAmount */\n      dup7\n        /* \"feg.sol\":24340:24351  tAmount.sub */\n      tag_102\n      swap1\n        /* \"feg.sol\":24340:24357  tAmount.sub(tFee) */\n      swap2\n      swap1\n      0xffffffff\n      and\n      jump\t// in\n    tag_250:\n        /* \"feg.sol\":24314:24357  uint256 tTransferAmount = tAmount.sub(tFee) */\n      swap1\n      pop\n        /* \"feg.sol\":24375:24390  tTransferAmount */\n      dup1\n        /* \"feg.sol\":24392:24396  tFee */\n      dup3\n        /* \"feg.sol\":24367:24397  return (tTransferAmount, tFee) */\n      swap4\n      pop\n      swap4\n      pop\n      pop\n      pop\n        /* \"feg.sol\":24178:24404  function _getTValues(uint256 tAmount) private pure returns (uint256, uint256) {... */\n      swap2\n      pop\n      swap2\n      jump\t// out\n        /* \"feg.sol\":24410:24739  function _getRValues(uint256 tAmount, uint256 tFee, uint256 currentRate) private pure returns (uint256, uint256, uint256) {... */\n    tag_200:\n        /* \"feg.sol\":24505:24512  uint256 */\n      0x00\n        /* \"feg.sol\":24514:24521  uint256 */\n      dup1\n        /* \"feg.sol\":24523:24530  uint256 */\n      0x00\n        /* \"feg.sol\":24542:24557  uint256 rAmount */\n      dup1\n        /* \"feg.sol\":24560:24584  tAmount.mul(currentRate) */\n      tag_252\n        /* \"feg.sol\":24572:24583  currentRate */\n      dup6\n        /* \"feg.sol\":24560:24567  tAmount */\n      dup9\n        /* \"feg.sol\":24560:24571  tAmount.mul */\n      tag_249\n      swap1\n        /* \"feg.sol\":24560:24584  tAmount.mul(currentRate) */\n      swap2\n      swap1\n      0xffffffff\n      and\n      jump\t// in\n    tag_252:\n        /* \"feg.sol\":24542:24584  uint256 rAmount = tAmount.mul(currentRate) */\n      swap1\n      pop\n        /* \"feg.sol\":24594:24606  uint256 rFee */\n      0x00\n        /* \"feg.sol\":24609:24630  tFee.mul(currentRate) */\n      tag_253\n        /* \"feg.sol\":24618:24629  currentRate */\n      dup7\n        /* \"feg.sol\":24609:24613  tFee */\n      dup9\n        /* \"feg.sol\":24609:24617  tFee.mul */\n      tag_249\n      swap1\n        /* \"feg.sol\":24609:24630  tFee.mul(currentRate) */\n      swap2\n      swap1\n      0xffffffff\n      and\n      jump\t// in\n    tag_253:\n        /* \"feg.sol\":24594:24630  uint256 rFee = tFee.mul(currentRate) */\n      swap1\n      pop\n        /* \"feg.sol\":24640:24663  uint256 rTransferAmount */\n      0x00\n        /* \"feg.sol\":24666:24683  rAmount.sub(rFee) */\n      tag_254\n        /* \"feg.sol\":24678:24682  rFee */\n      dup3\n        /* \"feg.sol\":24666:24673  rAmount */\n      dup5\n        /* \"feg.sol\":24666:24677  rAmount.sub */\n      tag_102\n      swap1\n        /* \"feg.sol\":24666:24683  rAmount.sub(rFee) */\n      swap2\n      swap1\n      0xffffffff\n      and\n      jump\t// in\n    tag_254:\n        /* \"feg.sol\":24640:24683  uint256 rTransferAmount = rAmount.sub(rFee) */\n      swap1\n      pop\n        /* \"feg.sol\":24701:24708  rAmount */\n      dup3\n        /* \"feg.sol\":24710:24725  rTransferAmount */\n      dup2\n        /* \"feg.sol\":24727:24731  rFee */\n      dup4\n        /* \"feg.sol\":24693:24732  return (rAmount, rTransferAmount, rFee) */\n      swap6\n      pop\n      swap6\n      pop\n      swap6\n      pop\n      pop\n      pop\n      pop\n        /* \"feg.sol\":24410:24739  function _getRValues(uint256 tAmount, uint256 tFee, uint256 currentRate) private pure returns (uint256, uint256, uint256) {... */\n      swap4\n      pop\n      swap4\n      pop\n      swap4\n      swap1\n      pop\n      jump\t// out\n        /* \"feg.sol\":22525:23027  function _transferFromExcluded(address sender, address recipient, uint256 tAmount) private {... */\n    tag_215:\n        /* \"feg.sol\":22627:22642  uint256 rAmount */\n      0x00\n        /* \"feg.sol\":22644:22667  uint256 rTransferAmount */\n      dup1\n        /* \"feg.sol\":22669:22681  uint256 rFee */\n      0x00\n        /* \"feg.sol\":22683:22706  uint256 tTransferAmount */\n      dup1\n        /* \"feg.sol\":22708:22720  uint256 tFee */\n      0x00\n        /* \"feg.sol\":22724:22743  _getValues(tAmount) */\n      tag_256\n        /* \"feg.sol\":22735:22742  tAmount */\n      dup7\n        /* \"feg.sol\":22724:22734  _getValues */\n      tag_100\n        /* \"feg.sol\":22724:22743  _getValues(tAmount) */\n      jump\t// in\n    tag_256:\n        /* \"feg.sol\":22626:22743  (uint256 rAmount, uint256 rTransferAmount, uint256 rFee, uint256 tTransferAmount, uint256 tFee) = _getValues(tAmount) */\n      swap5\n      pop\n      swap5\n      pop\n      swap5\n      pop\n      swap5\n      pop\n      swap5\n      pop\n        /* \"feg.sol\":22771:22799  _tOwned[sender].sub(tAmount) */\n      tag_257\n        /* \"feg.sol\":22791:22798  tAmount */\n      dup7\n        /* \"feg.sol\":22771:22778  _tOwned */\n      0x02\n        /* \"feg.sol\":22771:22786  _tOwned[sender] */\n      0x00\n        /* \"feg.sol\":22779:22785  sender */\n      dup12\n        /* \"feg.sol\":22771:22786  _tOwned[sender] */\n      0xffffffffffffffffffffffffffffffffffffffff\n      and\n      0xffffffffffffffffffffffffffffffffffffffff\n      and\n      dup2\n      mstore\n      0x20\n      add\n      swap1\n      dup2\n      mstore\n      0x20\n      add\n      0x00\n      keccak256\n      sload\n        /* \"feg.sol\":22771:22790  _tOwned[sender].sub */\n      tag_102\n      swap1\n        /* \"feg.sol\":22771:22799  _tOwned[sender].sub(tAmount) */\n      swap2\n      swap1\n      0xffffffff\n      and\n      jump\t// in\n    tag_257:\n        /* \"feg.sol\":22753:22760  _tOwned */\n      0x02\n        /* \"feg.sol\":22753:22768  _tOwned[sender] */\n      0x00\n        /* \"feg.sol\":22761:22767  sender */\n      dup11\n        /* \"feg.sol\":22753:22768  _tOwned[sender] */\n      0xffffffffffffffffffffffffffffffffffffffff\n      and\n      0xffffffffffffffffffffffffffffffffffffffff\n      and\n      dup2\n      mstore\n      0x20\n      add\n      swap1\n      dup2\n      mstore\n      0x20\n      add\n      0x00\n      keccak256\n        /* \"feg.sol\":22753:22799  _tOwned[sender] = _tOwned[sender].sub(tAmount) */\n      dup2\n      swap1\n      sstore\n      pop\n        /* \"feg.sol\":22827:22855  _rOwned[sender].sub(rAmount) */\n      tag_258\n        /* \"feg.sol\":22847:22854  rAmount */\n      dup6\n        /* \"feg.sol\":22827:22834  _rOwned */\n      0x01\n        /* \"feg.sol\":22827:22842  _rOwned[sender] */\n      0x00\n        /* \"feg.sol\":22835:22841  sender */\n      dup12\n        /* \"feg.sol\":22827:22842  _rOwned[sender] */\n      0xffffffffffffffffffffffffffffffffffffffff\n      and\n      0xffffffffffffffffffffffffffffffffffffffff\n      and\n      dup2\n      mstore\n      0x20\n      add\n      swap1\n      dup2\n      mstore\n      0x20\n      add\n      0x00\n      keccak256\n      sload\n        /* \"feg.sol\":22827:22846  _rOwned[sender].sub */\n      tag_102\n      swap1\n        /* \"feg.sol\":22827:22855  _rOwned[sender].sub(rAmount) */\n      swap2\n      swap1\n      0xffffffff\n      and\n      jump\t// in\n    tag_258:\n        /* \"feg.sol\":22809:22816  _rOwned */\n      0x01\n        /* \"feg.sol\":22809:22824  _rOwned[sender] */\n      0x00\n        /* \"feg.sol\":22817:22823  sender */\n      dup11\n        /* \"feg.sol\":22809:22824  _rOwned[sender] */\n      0xffffffffffffffffffffffffffffffffffffffff\n      and\n      0xffffffffffffffffffffffffffffffffffffffff\n      and\n      dup2\n      mstore\n      0x20\n      add\n      swap1\n      dup2\n      mstore\n      0x20\n      add\n      0x00\n      keccak256\n        /* \"feg.sol\":22809:22855  _rOwned[sender] = _rOwned[sender].sub(rAmount) */\n      dup2\n      swap1\n      sstore\n      pop\n        /* \"feg.sol\":22886:22925  _rOwned[recipient].add(rTransferAmount) */\n      tag_259\n        /* \"feg.sol\":22909:22924  rTransferAmount */\n      dup5\n        /* \"feg.sol\":22886:22893  _rOwned */\n      0x01\n        /* \"feg.sol\":22886:22904  _rOwned[recipient] */\n      0x00\n        /* \"feg.sol\":22894:22903  recipient */\n      dup11\n        /* \"feg.sol\":22886:22904  _rOwned[recipient] */\n      0xffffffffffffffffffffffffffffffffffffffff\n      and\n      0xffffffffffffffffffffffffffffffffffffffff\n      and\n      dup2\n      mstore\n      0x20\n      add\n      swap1\n      dup2\n      mstore\n      0x20\n      add\n      0x00\n      keccak256\n      sload\n        /* \"feg.sol\":22886:22908  _rOwned[recipient].add */\n      tag_105\n      swap1\n        /* \"feg.sol\":22886:22925  _rOwned[recipient].add(rTransferAmount) */\n      swap2\n      swap1\n      0xffffffff\n      and\n      jump\t// in\n    tag_259:\n        /* \"feg.sol\":22865:22872  _rOwned */\n      0x01\n        /* \"feg.sol\":22865:22883  _rOwned[recipient] */\n      0x00\n        /* \"feg.sol\":22873:22882  recipient */\n      dup10\n        /* \"feg.sol\":22865:22883  _rOwned[recipient] */\n      0xffffffffffffffffffffffffffffffffffffffff\n      and\n      0xffffffffffffffffffffffffffffffffffffffff\n      and\n      dup2\n      mstore\n      0x20\n      add\n      swap1\n      dup2\n      mstore\n      0x20\n      add\n      0x00\n      keccak256\n        /* \"feg.sol\":22865:22925  _rOwned[recipient] = _rOwned[recipient].add(rTransferAmount) */\n      dup2\n      swap1\n      sstore\n      pop\n        /* \"feg.sol\":22938:22961  _reflectFee(rFee, tFee) */\n      tag_260\n        /* \"feg.sol\":22950:22954  rFee */\n      dup4\n        /* \"feg.sol\":22956:22960  tFee */\n      dup3\n        /* \"feg.sol\":22938:22949  _reflectFee */\n      tag_261\n        /* \"feg.sol\":22938:22961  _reflectFee(rFee, tFee) */\n      jump\t// in\n    tag_260:\n        /* \"feg.sol\":22993:23002  recipient */\n      dup7\n        /* \"feg.sol\":22976:23020  Transfer(sender, recipient, tTransferAmount) */\n      0xffffffffffffffffffffffffffffffffffffffff\n      and\n        /* \"feg.sol\":22985:22991  sender */\n      dup9\n        /* \"feg.sol\":22976:23020  Transfer(sender, recipient, tTransferAmount) */\n      0xffffffffffffffffffffffffffffffffffffffff\n      and\n      0xddf252ad1be2c89b69c2b068fc378daa952ba7f163c4a11628f55a4df523b3ef\n        /* \"feg.sol\":23004:23019  tTransferAmount */\n      dup5\n        /* \"feg.sol\":22976:23020  Transfer(sender, recipient, tTransferAmount) */\n      mload(0x40)\n      dup1\n      dup3\n      dup2\n      mstore\n      0x20\n      add\n      swap2\n      pop\n      pop\n      mload(0x40)\n      dup1\n      swap2\n      sub\n      swap1\n      log3\n        /* \"feg.sol\":22525:23027  function _transferFromExcluded(address sender, address recipient, uint256 tAmount) private {... */\n      pop\n      pop\n      pop\n      pop\n      pop\n      pop\n      pop\n      pop\n      jump\t// out\n        /* \"feg.sol\":21997:22519  function _transferToExcluded(address sender, address recipient, uint256 tAmount) private {... */\n    tag_220:\n        /* \"feg.sol\":22097:22112  uint256 rAmount */\n      0x00\n        /* \"feg.sol\":22114:22137  uint256 rTransferAmount */\n      dup1\n        /* \"feg.sol\":22139:22151  uint256 rFee */\n      0x00\n        /* \"feg.sol\":22153:22176  uint256 tTransferAmount */\n      dup1\n        /* \"feg.sol\":22178:22190  uint256 tFee */\n      0x00\n        /* \"feg.sol\":22194:22213  _getValues(tAmount) */\n      tag_263\n        /* \"feg.sol\":22205:22212  tAmount */\n      dup7\n        /* \"feg.sol\":22194:22204  _getValues */\n      tag_100\n        /* \"feg.sol\":22194:22213  _getValues(tAmount) */\n      jump\t// in\n    tag_263:\n        /* \"feg.sol\":22096:22213  (uint256 rAmount, uint256 rTransferAmount, uint256 rFee, uint256 tTransferAmount, uint256 tFee) = _getValues(tAmount) */\n      swap5\n      pop\n      swap5\n      pop\n      swap5\n      pop\n      swap5\n      pop\n      swap5\n      pop\n        /* \"feg.sol\":22241:22269  _rOwned[sender].sub(rAmount) */\n      tag_264\n        /* \"feg.sol\":22261:22268  rAmount */\n      dup6\n        /* \"feg.sol\":22241:22248  _rOwned */\n      0x01\n        /* \"feg.sol\":22241:22256  _rOwned[sender] */\n      0x00\n        /* \"feg.sol\":22249:22255  sender */\n      dup12\n        /* \"feg.sol\":22241:22256  _rOwned[sender] */\n      0xffffffffffffffffffffffffffffffffffffffff\n      and\n      0xffffffffffffffffffffffffffffffffffffffff\n      and\n      dup2\n      mstore\n      0x20\n      add\n      swap1\n      dup2\n      mstore\n      0x20\n      add\n      0x00\n      keccak256\n      sload\n        /* \"feg.sol\":22241:22260  _rOwned[sender].sub */\n      tag_102\n      swap1\n        /* \"feg.sol\":22241:22269  _rOwned[sender].sub(rAmount) */\n      swap2\n      swap1\n      0xffffffff\n      and\n      jump\t// in\n    tag_264:\n        /* \"feg.sol\":22223:22230  _rOwned */\n      0x01\n        /* \"feg.sol\":22223:22238  _rOwned[sender] */\n      0x00\n        /* \"feg.sol\":22231:22237  sender */\n      dup11\n        /* \"feg.sol\":22223:22238  _rOwned[sender] */\n      0xffffffffffffffffffffffffffffffffffffffff\n      and\n      0xffffffffffffffffffffffffffffffffffffffff\n      and\n      dup2\n      mstore\n      0x20\n      add\n      swap1\n      dup2\n      mstore\n      0x20\n      add\n      0x00\n      keccak256\n        /* \"feg.sol\":22223:22269  _rOwned[sender] = _rOwned[sender].sub(rAmount) */\n      dup2\n      swap1\n      sstore\n      pop\n        /* \"feg.sol\":22300:22339  _tOwned[recipient].add(tTransferAmount) */\n      tag_265\n        /* \"feg.sol\":22323:22338  tTransferAmount */\n      dup3\n        /* \"feg.sol\":22300:22307  _tOwned */\n      0x02\n        /* \"feg.sol\":22300:22318  _tOwned[recipient] */\n      0x00\n        /* \"feg.sol\":22308:22317  recipient */\n      dup11\n        /* \"feg.sol\":22300:22318  _tOwned[recipient] */\n      0xffffffffffffffffffffffffffffffffffffffff\n      and\n      0xffffffffffffffffffffffffffffffffffffffff\n      and\n      dup2\n      mstore\n      0x20\n      add\n      swap1\n      dup2\n      mstore\n      0x20\n      add\n      0x00\n      keccak256\n      sload\n        /* \"feg.sol\":22300:22322  _tOwned[recipient].add */\n      tag_105\n      swap1\n        /* \"feg.sol\":22300:22339  _tOwned[recipient].add(tTransferAmount) */\n      swap2\n      swap1\n      0xffffffff\n      and\n      jump\t// in\n    tag_265:\n        /* \"feg.sol\":22279:22286  _tOwned */\n      0x02\n        /* \"feg.sol\":22279:22297  _tOwned[recipient] */\n      0x00\n        /* \"feg.sol\":22287:22296  recipient */\n      dup10\n        /* \"feg.sol\":22279:22297  _tOwned[recipient] */\n      0xffffffffffffffffffffffffffffffffffffffff\n      and\n      0xffffffffffffffffffffffffffffffffffffffff\n      and\n      dup2\n      mstore\n      0x20\n      add\n      swap1\n      dup2\n      mstore\n      0x20\n      add\n      0x00\n      keccak256\n        /* \"feg.sol\":22279:22339  _tOwned[recipient] = _tOwned[recipient].add(tTransferAmount) */\n      dup2\n      swap1\n      sstore\n      pop\n        /* \"feg.sol\":22370:22409  _rOwned[recipient].add(rTransferAmount) */\n      tag_266\n        /* \"feg.sol\":22393:22408  rTransferAmount */\n      dup5\n        /* \"feg.sol\":22370:22377  _rOwned */\n      0x01\n        /* \"feg.sol\":22370:22388  _rOwned[recipient] */\n      0x00\n        /* \"feg.sol\":22378:22387  recipient */\n      dup11\n        /* \"feg.sol\":22370:22388  _rOwned[recipient] */\n      0xffffffffffffffffffffffffffffffffffffffff\n      and\n      0xffffffffffffffffffffffffffffffffffffffff\n      and\n      dup2\n      mstore\n      0x20\n      add\n      swap1\n      dup2\n      mstore\n      0x20\n      add\n      0x00\n      keccak256\n      sload\n        /* \"feg.sol\":22370:22392  _rOwned[recipient].add */\n      tag_105\n      swap1\n        /* \"feg.sol\":22370:22409  _rOwned[recipient].add(rTransferAmount) */\n      swap2\n      swap1\n      0xffffffff\n      and\n      jump\t// in\n    tag_266:\n        /* \"feg.sol\":22349:22356  _rOwned */\n      0x01\n        /* \"feg.sol\":22349:22367  _rOwned[recipient] */\n      0x00\n        /* \"feg.sol\":22357:22366  recipient */\n      dup10\n        /* \"feg.sol\":22349:22367  _rOwned[recipient] */\n      0xffffffffffffffffffffffffffffffffffffffff\n      and\n      0xffffffffffffffffffffffffffffffffffffffff\n      and\n      dup2\n      mstore\n      0x20\n      add\n      swap1\n      dup2\n      mstore\n      0x20\n      add\n      0x00\n      keccak256\n        /* \"feg.sol\":22349:22409  _rOwned[recipient] = _rOwned[recipient].add(rTransferAmount) */\n      dup2\n      swap1\n      sstore\n      pop\n        /* \"feg.sol\":22430:22453  _reflectFee(rFee, tFee) */\n      tag_267\n        /* \"feg.sol\":22442:22446  rFee */\n      dup4\n        /* \"feg.sol\":22448:22452  tFee */\n      dup3\n        /* \"feg.sol\":22430:22441  _reflectFee */\n      tag_261\n        /* \"feg.sol\":22430:22453  _reflectFee(rFee, tFee) */\n      jump\t// in\n    tag_267:\n        /* \"feg.sol\":22485:22494  recipient */\n      dup7\n        /* \"feg.sol\":22468:22512  Transfer(sender, recipient, tTransferAmount) */\n      0xffffffffffffffffffffffffffffffffffffffff\n      and\n        /* \"feg.sol\":22477:22483  sender */\n      dup9\n        /* \"feg.sol\":22468:22512  Transfer(sender, recipient, tTransferAmount) */\n      0xffffffffffffffffffffffffffffffffffffffff\n      and\n      0xddf252ad1be2c89b69c2b068fc378daa952ba7f163c4a11628f55a4df523b3ef\n        /* \"feg.sol\":22496:22511  tTransferAmount */\n      dup5\n        /* \"feg.sol\":22468:22512  Transfer(sender, recipient, tTransferAmount) */\n      mload(0x40)\n      dup1\n      dup3\n      dup2\n      mstore\n      0x20\n      add\n      swap2\n      pop\n      pop\n      mload(0x40)\n      dup1\n      swap2\n      sub\n      swap1\n      log3\n        /* \"feg.sol\":21997:22519  function _transferToExcluded(address sender, address recipient, uint256 tAmount) private {... */\n      pop\n      pop\n      pop\n      pop\n      pop\n      pop\n      pop\n      pop\n      jump\t// out\n        /* \"feg.sol\":21545:21991  function _transferStandard(address sender, address recipient, uint256 tAmount) private {... */\n    tag_225:\n        /* \"feg.sol\":21643:21658  uint256 rAmount */\n      0x00\n        /* \"feg.sol\":21660:21683  uint256 rTransferAmount */\n      dup1\n        /* \"feg.sol\":21685:21697  uint256 rFee */\n      0x00\n        /* \"feg.sol\":21699:21722  uint256 tTransferAmount */\n      dup1\n        /* \"feg.sol\":21724:21736  uint256 tFee */\n      0x00\n        /* \"feg.sol\":21740:21759  _getValues(tAmount) */\n      tag_269\n        /* \"feg.sol\":21751:21758  tAmount */\n      dup7\n        /* \"feg.sol\":21740:21750  _getValues */\n      tag_100\n        /* \"feg.sol\":21740:21759  _getValues(tAmount) */\n      jump\t// in\n    tag_269:\n        /* \"feg.sol\":21642:21759  (uint256 rAmount, uint256 rTransferAmount, uint256 rFee, uint256 tTransferAmount, uint256 tFee) = _getValues(tAmount) */\n      swap5\n      pop\n      swap5\n      pop\n      swap5\n      pop\n      swap5\n      pop\n      swap5\n      pop\n        /* \"feg.sol\":21787:21815  _rOwned[sender].sub(rAmount) */\n      tag_270\n        /* \"feg.sol\":21807:21814  rAmount */\n      dup6\n        /* \"feg.sol\":21787:21794  _rOwned */\n      0x01\n        /* \"feg.sol\":21787:21802  _rOwned[sender] */\n      0x00\n        /* \"feg.sol\":21795:21801  sender */\n      dup12\n        /* \"feg.sol\":21787:21802  _rOwned[sender] */\n      0xffffffffffffffffffffffffffffffffffffffff\n      and\n      0xffffffffffffffffffffffffffffffffffffffff\n      and\n      dup2\n      mstore\n      0x20\n      add\n      swap1\n      dup2\n      mstore\n      0x20\n      add\n      0x00\n      keccak256\n      sload\n        /* \"feg.sol\":21787:21806  _rOwned[sender].sub */\n      tag_102\n      swap1\n        /* \"feg.sol\":21787:21815  _rOwned[sender].sub(rAmount) */\n      swap2\n      swap1\n      0xffffffff\n      and\n      jump\t// in\n    tag_270:\n        /* \"feg.sol\":21769:21776  _rOwned */\n      0x01\n        /* \"feg.sol\":21769:21784  _rOwned[sender] */\n      0x00\n        /* \"feg.sol\":21777:21783  sender */\n      dup11\n        /* \"feg.sol\":21769:21784  _rOwned[sender] */\n      0xffffffffffffffffffffffffffffffffffffffff\n      and\n      0xffffffffffffffffffffffffffffffffffffffff\n      and\n      dup2\n      mstore\n      0x20\n      add\n      swap1\n      dup2\n      mstore\n      0x20\n      add\n      0x00\n      keccak256\n        /* \"feg.sol\":21769:21815  _rOwned[sender] = _rOwned[sender].sub(rAmount) */\n      dup2\n      swap1\n      sstore\n      pop\n        /* \"feg.sol\":21846:21885  _rOwned[recipient].add(rTransferAmount) */\n      tag_271\n        /* \"feg.sol\":21869:21884  rTransferAmount */\n      dup5\n        /* \"feg.sol\":21846:21853  _rOwned */\n      0x01\n        /* \"feg.sol\":21846:21864  _rOwned[recipient] */\n      0x00\n        /* \"feg.sol\":21854:21863  recipient */\n      dup11\n        /* \"feg.sol\":21846:21864  _rOwned[recipient] */\n      0xffffffffffffffffffffffffffffffffffffffff\n      and\n      0xffffffffffffffffffffffffffffffffffffffff\n      and\n      dup2\n      mstore\n      0x20\n      add\n      swap1\n      dup2\n      mstore\n      0x20\n      add\n      0x00\n      keccak256\n      sload\n        /* \"feg.sol\":21846:21868  _rOwned[recipient].add */\n      tag_105\n      swap1\n        /* \"feg.sol\":21846:21885  _rOwned[recipient].add(rTransferAmount) */\n      swap2\n      swap1\n      0xffffffff\n      and\n      jump\t// in\n    tag_271:\n        /* \"feg.sol\":21825:21832  _rOwned */\n      0x01\n        /* \"feg.sol\":21825:21843  _rOwned[recipient] */\n      0x00\n        /* \"feg.sol\":21833:21842  recipient */\n      dup10\n        /* \"feg.sol\":21825:21843  _rOwned[recipient] */\n      0xffffffffffffffffffffffffffffffffffffffff\n      and\n      0xffffffffffffffffffffffffffffffffffffffff\n      and\n      dup2\n      mstore\n      0x20\n      add\n      swap1\n      dup2\n      mstore\n      0x20\n      add\n      0x00\n      keccak256\n        /* \"feg.sol\":21825:21885  _rOwned[recipient] = _rOwned[recipient].add(rTransferAmount) */\n      dup2\n      swap1\n      sstore\n      pop\n        /* \"feg.sol\":21902:21925  _reflectFee(rFee, tFee) */\n      tag_272\n        /* \"feg.sol\":21914:21918  rFee */\n      dup4\n        /* \"feg.sol\":21920:21924  tFee */\n      dup3\n        /* \"feg.sol\":21902:21913  _reflectFee */\n      tag_261\n        /* \"feg.sol\":21902:21925  _reflectFee(rFee, tFee) */\n      jump\t// in\n    tag_272:\n        /* \"feg.sol\":21957:21966  recipient */\n      dup7\n        /* \"feg.sol\":21940:21984  Transfer(sender, recipient, tTransferAmount) */\n      0xffffffffffffffffffffffffffffffffffffffff\n      and\n        /* \"feg.sol\":21949:21955  sender */\n      dup9\n        /* \"feg.sol\":21940:21984  Transfer(sender, recipient, tTransferAmount) */\n      0xffffffffffffffffffffffffffffffffffffffff\n      and\n      0xddf252ad1be2c89b69c2b068fc378daa952ba7f163c4a11628f55a4df523b3ef\n        /* \"feg.sol\":21968:21983  tTransferAmount */\n      dup5\n        /* \"feg.sol\":21940:21984  Transfer(sender, recipient, tTransferAmount) */\n      mload(0x40)\n      dup1\n      dup3\n      dup2\n      mstore\n      0x20\n      add\n      swap2\n      pop\n      pop\n      mload(0x40)\n      dup1\n      swap2\n      sub\n      swap1\n      log3\n        /* \"feg.sol\":21545:21991  function _transferStandard(address sender, address recipient, uint256 tAmount) private {... */\n      pop\n      pop\n      pop\n      pop\n      pop\n      pop\n      pop\n      pop\n      jump\t// out\n        /* \"feg.sol\":23033:23610  function _transferBothExcluded(address sender, address recipient, uint256 tAmount) private {... */\n    tag_230:\n        /* \"feg.sol\":23135:23150  uint256 rAmount */\n      0x00\n        /* \"feg.sol\":23152:23175  uint256 rTransferAmount */\n      dup1\n        /* \"feg.sol\":23177:23189  uint256 rFee */\n      0x00\n        /* \"feg.sol\":23191:23214  uint256 tTransferAmount */\n      dup1\n        /* \"feg.sol\":23216:23228  uint256 tFee */\n      0x00\n        /* \"feg.sol\":23232:23251  _getValues(tAmount) */\n      tag_274\n        /* \"feg.sol\":23243:23250  tAmount */\n      dup7\n        /* \"feg.sol\":23232:23242  _getValues */\n      tag_100\n        /* \"feg.sol\":23232:23251  _getValues(tAmount) */\n      jump\t// in\n    tag_274:\n        /* \"feg.sol\":23134:23251  (uint256 rAmount, uint256 rTransferAmount, uint256 rFee, uint256 tTransferAmount, uint256 tFee) = _getValues(tAmount) */\n      swap5\n      pop\n      swap5\n      pop\n      swap5\n      pop\n      swap5\n      pop\n      swap5\n      pop\n        /* \"feg.sol\":23279:23307  _tOwned[sender].sub(tAmount) */\n      tag_275\n        /* \"feg.sol\":23299:23306  tAmount */\n      dup7\n        /* \"feg.sol\":23279:23286  _tOwned */\n      0x02\n        /* \"feg.sol\":23279:23294  _tOwned[sender] */\n      0x00\n        /* \"feg.sol\":23287:23293  sender */\n      dup12\n        /* \"feg.sol\":23279:23294  _tOwned[sender] */\n      0xffffffffffffffffffffffffffffffffffffffff\n      and\n      0xffffffffffffffffffffffffffffffffffffffff\n      and\n      dup2\n      mstore\n      0x20\n      add\n      swap1\n      dup2\n      mstore\n      0x20\n      add\n      0x00\n      keccak256\n      sload\n        /* \"feg.sol\":23279:23298  _tOwned[sender].sub */\n      tag_102\n      swap1\n        /* \"feg.sol\":23279:23307  _tOwned[sender].sub(tAmount) */\n      swap2\n      swap1\n      0xffffffff\n      and\n      jump\t// in\n    tag_275:\n        /* \"feg.sol\":23261:23268  _tOwned */\n      0x02\n        /* \"feg.sol\":23261:23276  _tOwned[sender] */\n      0x00\n        /* \"feg.sol\":23269:23275  sender */\n      dup11\n        /* \"feg.sol\":23261:23276  _tOwned[sender] */\n      0xffffffffffffffffffffffffffffffffffffffff\n      and\n      0xffffffffffffffffffffffffffffffffffffffff\n      and\n      dup2\n      mstore\n      0x20\n      add\n      swap1\n      dup2\n      mstore\n      0x20\n      add\n      0x00\n      keccak256\n        /* \"feg.sol\":23261:23307  _tOwned[sender] = _tOwned[sender].sub(tAmount) */\n      dup2\n      swap1\n      sstore\n      pop\n        /* \"feg.sol\":23335:23363  _rOwned[sender].sub(rAmount) */\n      tag_276\n        /* \"feg.sol\":23355:23362  rAmount */\n      dup6\n        /* \"feg.sol\":23335:23342  _rOwned */\n      0x01\n        /* \"feg.sol\":23335:23350  _rOwned[sender] */\n      0x00\n        /* \"feg.sol\":23343:23349  sender */\n      dup12\n        /* \"feg.sol\":23335:23350  _rOwned[sender] */\n      0xffffffffffffffffffffffffffffffffffffffff\n      and\n      0xffffffffffffffffffffffffffffffffffffffff\n      and\n      dup2\n      mstore\n      0x20\n      add\n      swap1\n      dup2\n      mstore\n      0x20\n      add\n      0x00\n      keccak256\n      sload\n        /* \"feg.sol\":23335:23354  _rOwned[sender].sub */\n      tag_102\n      swap1\n        /* \"feg.sol\":23335:23363  _rOwned[sender].sub(rAmount) */\n      swap2\n      swap1\n      0xffffffff\n      and\n      jump\t// in\n    tag_276:\n        /* \"feg.sol\":23317:23324  _rOwned */\n      0x01\n        /* \"feg.sol\":23317:23332  _rOwned[sender] */\n      0x00\n        /* \"feg.sol\":23325:23331  sender */\n      dup11\n        /* \"feg.sol\":23317:23332  _rOwned[sender] */\n      0xffffffffffffffffffffffffffffffffffffffff\n      and\n      0xffffffffffffffffffffffffffffffffffffffff\n      and\n      dup2\n      mstore\n      0x20\n      add\n      swap1\n      dup2\n      mstore\n      0x20\n      add\n      0x00\n      keccak256\n        /* \"feg.sol\":23317:23363  _rOwned[sender] = _rOwned[sender].sub(rAmount) */\n      dup2\n      swap1\n      sstore\n      pop\n        /* \"feg.sol\":23394:23433  _tOwned[recipient].add(tTransferAmount) */\n      tag_277\n        /* \"feg.sol\":23417:23432  tTransferAmount */\n      dup3\n        /* \"feg.sol\":23394:23401  _tOwned */\n      0x02\n        /* \"feg.sol\":23394:23412  _tOwned[recipient] */\n      0x00\n        /* \"feg.sol\":23402:23411  recipient */\n      dup11\n        /* \"feg.sol\":23394:23412  _tOwned[recipient] */\n      0xffffffffffffffffffffffffffffffffffffffff\n      and\n      0xffffffffffffffffffffffffffffffffffffffff\n      and\n      dup2\n      mstore\n      0x20\n      add\n      swap1\n      dup2\n      mstore\n      0x20\n      add\n      0x00\n      keccak256\n      sload\n        /* \"feg.sol\":23394:23416  _tOwned[recipient].add */\n      tag_105\n      swap1\n        /* \"feg.sol\":23394:23433  _tOwned[recipient].add(tTransferAmount) */\n      swap2\n      swap1\n      0xffffffff\n      and\n      jump\t// in\n    tag_277:\n        /* \"feg.sol\":23373:23380  _tOwned */\n      0x02\n        /* \"feg.sol\":23373:23391  _tOwned[recipient] */\n      0x00\n        /* \"feg.sol\":23381:23390  recipient */\n      dup10\n        /* \"feg.sol\":23373:23391  _tOwned[recipient] */\n      0xffffffffffffffffffffffffffffffffffffffff\n      and\n      0xffffffffffffffffffffffffffffffffffffffff\n      and\n      dup2\n      mstore\n      0x20\n      add\n      swap1\n      dup2\n      mstore\n      0x20\n      add\n      0x00\n      keccak256\n        /* \"feg.sol\":23373:23433  _tOwned[recipient] = _tOwned[recipient].add(tTransferAmount) */\n      dup2\n      swap1\n      sstore\n      pop\n        /* \"feg.sol\":23464:23503  _rOwned[recipient].add(rTransferAmount) */\n      tag_278\n        /* \"feg.sol\":23487:23502  rTransferAmount */\n      dup5\n        /* \"feg.sol\":23464:23471  _rOwned */\n      0x01\n        /* \"feg.sol\":23464:23482  _rOwned[recipient] */\n      0x00\n        /* \"feg.sol\":23472:23481  recipient */\n      dup11\n        /* \"feg.sol\":23464:23482  _rOwned[recipient] */\n      0xffffffffffffffffffffffffffffffffffffffff\n      and\n      0xffffffffffffffffffffffffffffffffffffffff\n      and\n      dup2\n      mstore\n      0x20\n      add\n      swap1\n      dup2\n      mstore\n      0x20\n      add\n      0x00\n      keccak256\n      sload\n        /* \"feg.sol\":23464:23486  _rOwned[recipient].add */\n      tag_105\n      swap1\n        /* \"feg.sol\":23464:23503  _rOwned[recipient].add(rTransferAmount) */\n      swap2\n      swap1\n      0xffffffff\n      and\n      jump\t// in\n    tag_278:\n        /* \"feg.sol\":23443:23450  _rOwned */\n      0x01\n        /* \"feg.sol\":23443:23461  _rOwned[recipient] */\n      0x00\n        /* \"feg.sol\":23451:23460  recipient */\n      dup10\n        /* \"feg.sol\":23443:23461  _rOwned[recipient] */\n      0xffffffffffffffffffffffffffffffffffffffff\n      and\n      0xffffffffffffffffffffffffffffffffffffffff\n      and\n      dup2\n      mstore\n      0x20\n      add\n      swap1\n      dup2\n      mstore\n      0x20\n      add\n      0x00\n      keccak256\n        /* \"feg.sol\":23443:23503  _rOwned[recipient] = _rOwned[recipient].add(rTransferAmount) */\n      dup2\n      swap1\n      sstore\n      pop\n        /* \"feg.sol\":23521:23544  _reflectFee(rFee, tFee) */\n      tag_279\n        /* \"feg.sol\":23533:23537  rFee */\n      dup4\n        /* \"feg.sol\":23539:23543  tFee */\n      dup3\n        /* \"feg.sol\":23521:23532  _reflectFee */\n      tag_261\n        /* \"feg.sol\":23521:23544  _reflectFee(rFee, tFee) */\n      jump\t// in\n    tag_279:\n        /* \"feg.sol\":23576:23585  recipient */\n      dup7\n        /* \"feg.sol\":23559:23603  Transfer(sender, recipient, tTransferAmount) */\n      0xffffffffffffffffffffffffffffffffffffffff\n      and\n        /* \"feg.sol\":23568:23574  sender */\n      dup9\n        /* \"feg.sol\":23559:23603  Transfer(sender, recipient, tTransferAmount) */\n      0xffffffffffffffffffffffffffffffffffffffff\n      and\n      0xddf252ad1be2c89b69c2b068fc378daa952ba7f163c4a11628f55a4df523b3ef\n        /* \"feg.sol\":23587:23602  tTransferAmount */\n      dup5\n        /* \"feg.sol\":23559:23603  Transfer(sender, recipient, tTransferAmount) */\n      mload(0x40)\n      dup1\n      dup3\n      dup2\n      mstore\n      0x20\n      add\n      swap2\n      pop\n      pop\n      mload(0x40)\n      dup1\n      swap2\n      sub\n      swap1\n      log3\n        /* \"feg.sol\":23033:23610  function _transferBothExcluded(address sender, address recipient, uint256 tAmount) private {... */\n      pop\n      pop\n      pop\n      pop\n      pop\n      pop\n      pop\n      pop\n      jump\t// out\n        /* \"feg.sol\":24911:25462  function _getCurrentSupply() private view returns(uint256, uint256) {... */\n    tag_241:\n        /* \"feg.sol\":24961:24968  uint256 */\n      0x00\n        /* \"feg.sol\":24970:24977  uint256 */\n      dup1\n        /* \"feg.sol\":24989:25004  uint256 rSupply */\n      0x00\n        /* \"feg.sol\":25007:25014  _rTotal */\n      sload(0x06)\n        /* \"feg.sol\":24989:25014  uint256 rSupply = _rTotal */\n      swap1\n      pop\n        /* \"feg.sol\":25024:25039  uint256 tSupply */\n      0x00\n        /* \"feg.sol\":15997:16025  100000000000 * 10**6 * 10**9 */\n      0x52b7d2dcc80cd2e4000000\n        /* \"feg.sol\":25024:25049  uint256 tSupply = _tTotal */\n      swap1\n      pop\n        /* \"feg.sol\":25070:25079  uint256 i */\n      0x00\n        /* \"feg.sol\":25065:25350  for (uint256 i = 0; i < _excluded.length; i++) {... */\n    tag_281:\n        /* \"feg.sol\":25089:25098  _excluded */\n      0x05\n        /* \"feg.sol\":25089:25105  _excluded.length */\n      dup1\n      sload\n      swap1\n      pop\n        /* \"feg.sol\":25085:25086  i */\n      dup2\n        /* \"feg.sol\":25085:25105  i < _excluded.length */\n      lt\n        /* \"feg.sol\":25065:25350  for (uint256 i = 0; i < _excluded.length; i++) {... */\n      iszero\n      tag_282\n      jumpi\n        /* \"feg.sol\":25154:25161  rSupply */\n      dup3\n        /* \"feg.sol\":25130:25137  _rOwned */\n      0x01\n        /* \"feg.sol\":25130:25151  _rOwned[_excluded[i]] */\n      0x00\n        /* \"feg.sol\":25138:25147  _excluded */\n      0x05\n        /* \"feg.sol\":25148:25149  i */\n      dup5\n        /* \"feg.sol\":25138:25150  _excluded[i] */\n      dup2\n      sload\n      dup2\n      lt\n      tag_284\n      jumpi\n      invalid\n    tag_284:\n      swap1\n      0x00\n      mstore\n      keccak256(0x00, 0x20)\n      add\n      0x00\n      swap1\n      sload\n      swap1\n      0x0100\n      exp\n      swap1\n      div\n      0xffffffffffffffffffffffffffffffffffffffff\n      and\n        /* \"feg.sol\":25130:25151  _rOwned[_excluded[i]] */\n      0xffffffffffffffffffffffffffffffffffffffff\n      and\n      0xffffffffffffffffffffffffffffffffffffffff\n      and\n      dup2\n      mstore\n      0x20\n      add\n      swap1\n      dup2\n      mstore\n      0x20\n      add\n      0x00\n      keccak256\n      sload\n        /* \"feg.sol\":25130:25161  _rOwned[_excluded[i]] > rSupply */\n      gt\n        /* \"feg.sol\":25130:25196  _rOwned[_excluded[i]] > rSupply || _tOwned[_excluded[i]] > tSupply */\n      dup1\n      tag_286\n      jumpi\n      pop\n        /* \"feg.sol\":25189:25196  tSupply */\n      dup2\n        /* \"feg.sol\":25165:25172  _tOwned */\n      0x02\n        /* \"feg.sol\":25165:25186  _tOwned[_excluded[i]] */\n      0x00\n        /* \"feg.sol\":25173:25182  _excluded */\n      0x05\n        /* \"feg.sol\":25183:25184  i */\n      dup5\n        /* \"feg.sol\":25173:25185  _excluded[i] */\n      dup2\n      sload\n      dup2\n      lt\n      tag_287\n      jumpi\n      invalid\n    tag_287:\n      swap1\n      0x00\n      mstore\n      keccak256(0x00, 0x20)\n      add\n      0x00\n      swap1\n      sload\n      swap1\n      0x0100\n      exp\n      swap1\n      div\n      0xffffffffffffffffffffffffffffffffffffffff\n      and\n        /* \"feg.sol\":25165:25186  _tOwned[_excluded[i]] */\n      0xffffffffffffffffffffffffffffffffffffffff\n      and\n      0xffffffffffffffffffffffffffffffffffffffff\n      and\n      dup2\n      mstore\n      0x20\n      add\n      swap1\n      dup2\n      mstore\n      0x20\n      add\n      0x00\n      keccak256\n      sload\n        /* \"feg.sol\":25165:25196  _tOwned[_excluded[i]] > tSupply */\n      gt\n        /* \"feg.sol\":25130:25196  _rOwned[_excluded[i]] > rSupply || _tOwned[_excluded[i]] > tSupply */\n    tag_286:\n        /* \"feg.sol\":25126:25223  if (_rOwned[_excluded[i]] > rSupply || _tOwned[_excluded[i]] > tSupply) return (_rTotal, _tTotal) */\n      iszero\n      tag_289\n      jumpi\n        /* \"feg.sol\":25206:25213  _rTotal */\n      sload(0x06)\n        /* \"feg.sol\":15997:16025  100000000000 * 10**6 * 10**9 */\n      0x52b7d2dcc80cd2e4000000\n        /* \"feg.sol\":25198:25223  return (_rTotal, _tTotal) */\n      swap5\n      pop\n      swap5\n      pop\n      pop\n      pop\n      pop\n      jump(tag_280)\n        /* \"feg.sol\":25126:25223  if (_rOwned[_excluded[i]] > rSupply || _tOwned[_excluded[i]] > tSupply) return (_rTotal, _tTotal) */\n    tag_289:\n        /* \"feg.sol\":25247:25281  rSupply.sub(_rOwned[_excluded[i]]) */\n      tag_290\n        /* \"feg.sol\":25259:25266  _rOwned */\n      0x01\n        /* \"feg.sol\":25259:25280  _rOwned[_excluded[i]] */\n      0x00\n        /* \"feg.sol\":25267:25276  _excluded */\n      0x05\n        /* \"feg.sol\":25277:25278  i */\n      dup5\n        /* \"feg.sol\":25267:25279  _excluded[i] */\n      dup2\n      sload\n      dup2\n      lt\n      tag_291\n      jumpi\n      invalid\n    tag_291:\n      swap1\n      0x00\n      mstore\n      keccak256(0x00, 0x20)\n      add\n      0x00\n      swap1\n      sload\n      swap1\n      0x0100\n      exp\n      swap1\n      div\n      0xffffffffffffffffffffffffffffffffffffffff\n      and\n        /* \"feg.sol\":25259:25280  _rOwned[_excluded[i]] */\n      0xffffffffffffffffffffffffffffffffffffffff\n      and\n      0xffffffffffffffffffffffffffffffffffffffff\n      and\n      dup2\n      mstore\n      0x20\n      add\n      swap1\n      dup2\n      mstore\n      0x20\n      add\n      0x00\n      keccak256\n      sload\n        /* \"feg.sol\":25247:25254  rSupply */\n      dup5\n        /* \"feg.sol\":25247:25258  rSupply.sub */\n      tag_102\n      swap1\n        /* \"feg.sol\":25247:25281  rSupply.sub(_rOwned[_excluded[i]]) */\n      swap2\n      swap1\n      0xffffffff\n      and\n      jump\t// in\n    tag_290:\n        /* \"feg.sol\":25237:25281  rSupply = rSupply.sub(_rOwned[_excluded[i]]) */\n      swap3\n      pop\n        /* \"feg.sol\":25305:25339  tSupply.sub(_tOwned[_excluded[i]]) */\n      tag_293\n        /* \"feg.sol\":25317:25324  _tOwned */\n      0x02\n        /* \"feg.sol\":25317:25338  _tOwned[_excluded[i]] */\n      0x00\n        /* \"feg.sol\":25325:25334  _excluded */\n      0x05\n        /* \"feg.sol\":25335:25336  i */\n      dup5\n        /* \"feg.sol\":25325:25337  _excluded[i] */\n      dup2\n      sload\n      dup2\n      lt\n      tag_294\n      jumpi\n      invalid\n    tag_294:\n      swap1\n      0x00\n      mstore\n      keccak256(0x00, 0x20)\n      add\n      0x00\n      swap1\n      sload\n      swap1\n      0x0100\n      exp\n      swap1\n      div\n      0xffffffffffffffffffffffffffffffffffffffff\n      and\n        /* \"feg.sol\":25317:25338  _tOwned[_excluded[i]] */\n      0xffffffffffffffffffffffffffffffffffffffff\n      and\n      0xffffffffffffffffffffffffffffffffffffffff\n      and\n      dup2\n      mstore\n      0x20\n      add\n      swap1\n      dup2\n      mstore\n      0x20\n      add\n      0x00\n      keccak256\n      sload\n        /* \"feg.sol\":25305:25312  tSupply */\n      dup4\n        /* \"feg.sol\":25305:25316  tSupply.sub */\n      tag_102\n      swap1\n        /* \"feg.sol\":25305:25339  tSupply.sub(_tOwned[_excluded[i]]) */\n      swap2\n      swap1\n      0xffffffff\n      and\n      jump\t// in\n    tag_293:\n        /* \"feg.sol\":25295:25339  tSupply = tSupply.sub(_tOwned[_excluded[i]]) */\n      swap2\n      pop\n        /* \"feg.sol\":25107:25110  i++ */\n      dup1\n      dup1\n      0x01\n      add\n      swap2\n      pop\n      pop\n        /* \"feg.sol\":25065:25350  for (uint256 i = 0; i < _excluded.length; i++) {... */\n      jump(tag_281)\n    tag_282:\n      pop\n        /* \"feg.sol\":25373:25393  _rTotal.div(_tTotal) */\n      tag_296\n        /* \"feg.sol\":15997:16025  100000000000 * 10**6 * 10**9 */\n      0x52b7d2dcc80cd2e4000000\n        /* \"feg.sol\":25373:25380  _rTotal */\n      sload(0x06)\n        /* \"feg.sol\":25373:25384  _rTotal.div */\n      tag_129\n      swap1\n        /* \"feg.sol\":25373:25393  _rTotal.div(_tTotal) */\n      swap2\n      swap1\n      0xffffffff\n      and\n      jump\t// in\n    tag_296:\n        /* \"feg.sol\":25363:25370  rSupply */\n      dup3\n        /* \"feg.sol\":25363:25393  rSupply < _rTotal.div(_tTotal) */\n      lt\n        /* \"feg.sol\":25359:25420  if (rSupply < _rTotal.div(_tTotal)) return (_rTotal, _tTotal) */\n      iszero\n      tag_297\n      jumpi\n        /* \"feg.sol\":25403:25410  _rTotal */\n      sload(0x06)\n        /* \"feg.sol\":15997:16025  100000000000 * 10**6 * 10**9 */\n      0x52b7d2dcc80cd2e4000000\n        /* \"feg.sol\":25395:25420  return (_rTotal, _tTotal) */\n      swap4\n      pop\n      swap4\n      pop\n      pop\n      pop\n      jump(tag_280)\n        /* \"feg.sol\":25359:25420  if (rSupply < _rTotal.div(_tTotal)) return (_rTotal, _tTotal) */\n    tag_297:\n        /* \"feg.sol\":25438:25445  rSupply */\n      dup2\n        /* \"feg.sol\":25447:25454  tSupply */\n      dup2\n        /* \"feg.sol\":25430:25455  return (rSupply, tSupply) */\n      swap4\n      pop\n      swap4\n      pop\n      pop\n      pop\n        /* \"feg.sol\":24911:25462  function _getCurrentSupply() private view returns(uint256, uint256) {... */\n    tag_280:\n      swap1\n      swap2\n      jump\t// out\n        /* \"feg.sol\":6451:6723  function div(uint256 a, uint256 b, string memory errorMessage) internal pure returns (uint256) {... */\n    tag_245:\n        /* \"feg.sol\":6537:6544  uint256 */\n      0x00\n        /* \"feg.sol\":6568:6569  0 */\n      dup1\n        /* \"feg.sol\":6564:6565  b */\n      dup4\n        /* \"feg.sol\":6564:6569  b > 0 */\n      gt\n        /* \"feg.sol\":6571:6583  errorMessage */\n      dup3\n        /* \"feg.sol\":6556:6584  require(b > 0, errorMessage) */\n      swap1\n      tag_299\n      jumpi\n      mload(0x40)\n      0x08c379a000000000000000000000000000000000000000000000000000000000\n      dup2\n      mstore\n      0x04\n      add\n      dup1\n      dup1\n      0x20\n      add\n      dup3\n      dup2\n      sub\n      dup3\n      mstore\n      dup4\n      dup2\n      dup2\n      mload\n      dup2\n      mstore\n      0x20\n      add\n      swap2\n      pop\n      dup1\n      mload\n      swap1\n      0x20\n      add\n      swap1\n      dup1\n      dup4\n      dup4\n      0x00\n    tag_300:\n      dup4\n      dup2\n      lt\n      iszero\n      tag_302\n      jumpi\n      dup1\n      dup3\n      add\n      mload\n      dup2\n      dup5\n      add\n      mstore\n      0x20\n      dup2\n      add\n      swap1\n      pop\n      jump(tag_300)\n    tag_302:\n      pop\n      pop\n      pop\n      pop\n      swap1\n      pop\n      swap1\n      dup2\n      add\n      swap1\n      0x1f\n      and\n      dup1\n      iszero\n      tag_303\n      jumpi\n      dup1\n      dup3\n      sub\n      dup1\n      mload\n      0x01\n      dup4\n      0x20\n      sub\n      0x0100\n      exp\n      sub\n      not\n      and\n      dup2\n      mstore\n      0x20\n      add\n      swap2\n      pop\n    tag_303:\n      pop\n      swap3\n      pop\n      pop\n      pop\n      mload(0x40)\n      dup1\n      swap2\n      sub\n      swap1\n      revert\n    tag_299:\n      pop\n        /* \"feg.sol\":6594:6603  uint256 c */\n      0x00\n        /* \"feg.sol\":6610:6611  b */\n      dup4\n        /* \"feg.sol\":6606:6607  a */\n      dup6\n        /* \"feg.sol\":6606:6611  a / b */\n      dup2\n      tag_304\n      jumpi\n      invalid\n    tag_304:\n      div\n        /* \"feg.sol\":6594:6611  uint256 c = a / b */\n      swap1\n      pop\n        /* \"feg.sol\":6715:6716  c */\n      dup1\n        /* \"feg.sol\":6708:6716  return c */\n      swap2\n      pop\n      pop\n        /* \"feg.sol\":6451:6723  function div(uint256 a, uint256 b, string memory errorMessage) internal pure returns (uint256) {... */\n      swap4\n      swap3\n      pop\n      pop\n      pop\n      jump\t// out\n        /* \"feg.sol\":4918:5377  function mul(uint256 a, uint256 b) internal pure returns (uint256) {... */\n    tag_249:\n        /* \"feg.sol\":4976:4983  uint256 */\n      0x00\n        /* \"feg.sol\":5222:5223  0 */\n      dup1\n        /* \"feg.sol\":5217:5218  a */\n      dup4\n        /* \"feg.sol\":5217:5223  a == 0 */\n      eq\n        /* \"feg.sol\":5213:5258  if (a == 0) {... */\n      iszero\n      tag_306\n      jumpi\n        /* \"feg.sol\":5246:5247  0 */\n      0x00\n        /* \"feg.sol\":5239:5247  return 0 */\n      swap1\n      pop\n      jump(tag_305)\n        /* \"feg.sol\":5213:5258  if (a == 0) {... */\n    tag_306:\n        /* \"feg.sol\":5268:5277  uint256 c */\n      0x00\n        /* \"feg.sol\":5284:5285  b */\n      dup3\n        /* \"feg.sol\":5280:5281  a */\n      dup5\n        /* \"feg.sol\":5280:5285  a * b */\n      mul\n        /* \"feg.sol\":5268:5285  uint256 c = a * b */\n      swap1\n      pop\n        /* \"feg.sol\":5312:5313  b */\n      dup3\n        /* \"feg.sol\":5307:5308  a */\n      dup5\n        /* \"feg.sol\":5303:5304  c */\n      dup3\n        /* \"feg.sol\":5303:5308  c / a */\n      dup2\n      tag_307\n      jumpi\n      invalid\n    tag_307:\n      div\n        /* \"feg.sol\":5303:5313  c / a == b */\n      eq\n        /* \"feg.sol\":5295:5351  require(c / a == b, \"SafeMath: multiplication overflow\") */\n      tag_308\n      jumpi\n      mload(0x40)\n      0x08c379a000000000000000000000000000000000000000000000000000000000\n      dup2\n      mstore\n      0x04\n      add\n      dup1\n      dup1\n      0x20\n      add\n      dup3\n      dup2\n      sub\n      dup3\n      mstore\n      0x21\n      dup2\n      mstore\n      0x20\n      add\n      dup1\n      data_9113bb53c2876a3805b2c9242029423fc540a728243ce887ab24c82cf119fba3\n      0x21\n      swap2\n      codecopy\n      0x40\n      add\n      swap2\n      pop\n      pop\n      mload(0x40)\n      dup1\n      swap2\n      sub\n      swap1\n      revert\n    tag_308:\n        /* \"feg.sol\":5369:5370  c */\n      dup1\n        /* \"feg.sol\":5362:5370  return c */\n      swap2\n      pop\n      pop\n        /* \"feg.sol\":4918:5377  function mul(uint256 a, uint256 b) internal pure returns (uint256) {... */\n    tag_305:\n      swap3\n      swap2\n      pop\n      pop\n      jump\t// out\n        /* \"feg.sol\":23616:23760  function _reflectFee(uint256 rFee, uint256 tFee) private {... */\n    tag_261:\n        /* \"feg.sol\":23693:23710  _rTotal.sub(rFee) */\n      tag_310\n        /* \"feg.sol\":23705:23709  rFee */\n      dup3\n        /* \"feg.sol\":23693:23700  _rTotal */\n      sload(0x06)\n        /* \"feg.sol\":23693:23704  _rTotal.sub */\n      tag_102\n      swap1\n        /* \"feg.sol\":23693:23710  _rTotal.sub(rFee) */\n      swap2\n      swap1\n      0xffffffff\n      and\n      jump\t// in\n    tag_310:\n        /* \"feg.sol\":23683:23690  _rTotal */\n      0x06\n        /* \"feg.sol\":23683:23710  _rTotal = _rTotal.sub(rFee) */\n      dup2\n      swap1\n      sstore\n      pop\n        /* \"feg.sol\":23733:23753  _tFeeTotal.add(tFee) */\n      tag_311\n        /* \"feg.sol\":23748:23752  tFee */\n      dup2\n        /* \"feg.sol\":23733:23743  _tFeeTotal */\n      sload(0x07)\n        /* \"feg.sol\":23733:23747  _tFeeTotal.add */\n      tag_105\n      swap1\n        /* \"feg.sol\":23733:23753  _tFeeTotal.add(tFee) */\n      swap2\n      swap1\n      0xffffffff\n      and\n      jump\t// in\n    tag_311:\n        /* \"feg.sol\":23720:23730  _tFeeTotal */\n      0x07\n        /* \"feg.sol\":23720:23753  _tFeeTotal = _tFeeTotal.add(tFee) */\n      dup2\n      swap1\n      sstore\n      pop\n        /* \"feg.sol\":23616:23760  function _reflectFee(uint256 rFee, uint256 tFee) private {... */\n      pop\n      pop\n      jump\t// out\n    stop\n    data_0557e210f7a69a685100a7e4e3d0a7024c546085cee28910fd17d0b081d9516f 45524332303a207472616e7366657220746f20746865207a65726f2061646472657373\n    data_22f7af55a509c3b14f0d528f087748dec8a8bf425135e3f5dc28c6a31ec6d812 416d6f756e74206d757374206265206c657373207468616e20746f74616c207265666c656374696f6e73\n    data_245f15ff17f551913a7a18385165551503906a406f905ac1c2437281a7cd0cfe 4f776e61626c653a206e6577206f776e657220697320746865207a65726f2061646472657373\n    data_24883cc5fe64ace9d0df1893501ecb93c77180f0ff69cca79affb3c316dc8029 45524332303a20617070726f766520746f20746865207a65726f2061646472657373\n    data_9113bb53c2876a3805b2c9242029423fc540a728243ce887ab24c82cf119fba3 536166654d6174683a206d756c7469706c69636174696f6e206f766572666c6f77\n    data_974d1b4421da69cc60b481194f0dad36a5bb4e23da810da7a7fb30cdba178330 45524332303a207472616e7366657220616d6f756e74206578636565647320616c6c6f77616e6365\n    data_9edb5ab58321f35d2386ea65721c9b107daa2c273610fc16d394af2a320ba785 5472616e7366657220616d6f756e74206d7573742062652067726561746572207468616e207a65726f\n    data_baecc556b46f4ed0f2b4cb599d60785ac8563dd2dc0a5bf12edea1c39e5e1fea 45524332303a207472616e736665722066726f6d20746865207a65726f2061646472657373\n    data_c953f4879035ed60e766b34720f656aab5c697b141d924c283124ecedb91c208 45524332303a20617070726f76652066726f6d20746865207a65726f2061646472657373\n    data_ecefcaf5fbcf9ca6dcdb02298ba1da96f4ead317b0a4779917ecb2e5e7dc3ac4 4578636c75646564206164647265737365732063616e6e6f742063616c6c20746869732066756e6374696f6e\n    data_f8b476f7d28209d77d4a4ac1fe36b9f8259aa1bb6bddfa6e89de7e51615cf8a8 45524332303a2064656372656173656420616c6c6f77616e63652062656c6f77207a65726f\n\n    auxdata: 0xa2646970667358221220b884c9c0d90d4aa2bb76363c31c7cf67ef1fdbb7a5ba41a584d9327301929daa64736f6c634300060c0033\n}\n",
				"bytecode": {
					"linkReferences": {},
					"object": "60806040526a52b7d2dcc80cd2e4000000600019816200001b57fe5b06600019036006556040518060400160405280600881526020017f464547746f6b656e00000000000000000000000000000000000000000000000081525060089080519060200190620000709291906200027c565b506040518060400160405280600381526020017f464547000000000000000000000000000000000000000000000000000000000081525060099080519060200190620000be9291906200027c565b506009600a60006101000a81548160ff021916908360ff160217905550348015620000e857600080fd5b506000620000fb6200027460201b60201c565b9050806000806101000a81548173ffffffffffffffffffffffffffffffffffffffff021916908373ffffffffffffffffffffffffffffffffffffffff1602179055508073ffffffffffffffffffffffffffffffffffffffff16600073ffffffffffffffffffffffffffffffffffffffff167f8be0079c531659141344cd1fd0a4f28419497f9722a3daafe3b4186f6b6457e060405160405180910390a35060065460016000620001b06200027460201b60201c565b73ffffffffffffffffffffffffffffffffffffffff1673ffffffffffffffffffffffffffffffffffffffff16815260200190815260200160002081905550620001fe6200027460201b60201c565b73ffffffffffffffffffffffffffffffffffffffff16600073ffffffffffffffffffffffffffffffffffffffff167fddf252ad1be2c89b69c2b068fc378daa952ba7f163c4a11628f55a4df523b3ef6a52b7d2dcc80cd2e40000006040518082815260200191505060405180910390a362000322565b600033905090565b828054600181600116156101000203166002900490600052602060002090601f016020900481019282601f10620002bf57805160ff1916838001178555620002f0565b82800160010185558215620002f0579182015b82811115620002ef578251825591602001919060010190620002d2565b5b509050620002ff919062000303565b5090565b5b808211156200031e57600081600090555060010162000304565b5090565b6133ea80620003326000396000f3fe608060405234801561001057600080fd5b50600436106101425760003560e01c806370a08231116100b8578063a9059cbb1161007c578063a9059cbb14610606578063cba0e9961461066a578063dd62ed3e146106c4578063f2cc0c181461073c578063f2fde38b14610780578063f84354f1146107c457610142565b806370a0823114610489578063715018a6146104e15780638da5cb5b146104eb57806395d89b411461051f578063a457c2d7146105a257610142565b806318160ddd1161010a57806318160ddd146102d257806323b872dd146102f05780632d83811914610374578063313ce567146103b657806339509351146103d75780634549b0391461043b57610142565b8063053ab1821461014757806306fdde0314610175578063095ea7b3146101f85780630cfc15f91461025c57806313114a9d146102b4575b600080fd5b6101736004803603602081101561015d57600080fd5b8101908080359060200190929190505050610808565b005b61017d610998565b6040518080602001828103825283818151815260200191508051906020019080838360005b838110156101bd5780820151818401526020810190506101a2565b50505050905090810190601f1680156101ea5780820380516001836020036101000a031916815260200191505b509250505060405180910390f35b6102446004803603604081101561020e57600080fd5b81019080803573ffffffffffffffffffffffffffffffffffffffff16906020019092919080359060200190929190505050610a3a565b60405180821515815260200191505060405180910390f35b61029e6004803603602081101561027257600080fd5b81019080803573ffffffffffffffffffffffffffffffffffffffff169060200190929190505050610a58565b6040518082815260200191505060405180910390f35b6102bc610a70565b6040518082815260200191505060405180910390f35b6102da610a7a565b6040518082815260200191505060405180910390f35b61035c6004803603606081101561030657600080fd5b81019080803573ffffffffffffffffffffffffffffffffffffffff169060200190929190803573ffffffffffffffffffffffffffffffffffffffff16906020019092919080359060200190929190505050610a8d565b60405180821515815260200191505060405180910390f35b6103a06004803603602081101561038a57600080fd5b8101908080359060200190929190505050610b66565b6040518082815260200191505060405180910390f35b6103be610bea565b604051808260ff16815260200191505060405180910390f35b610423600480360360408110156103ed57600080fd5b81019080803573ffffffffffffffffffffffffffffffffffffffff16906020019092919080359060200190929190505050610c01565b60405180821515815260200191505060405180910390f35b6104736004803603604081101561045157600080fd5b8101908080359060200190929190803515159060200190929190505050610cb4565b6040518082815260200191505060405180910390f35b6104cb6004803603602081101561049f57600080fd5b81019080803573ffffffffffffffffffffffffffffffffffffffff169060200190929190505050610d72565b6040518082815260200191505060405180910390f35b6104e9610e5d565b005b6104f3610fe3565b604051808273ffffffffffffffffffffffffffffffffffffffff16815260200191505060405180910390f35b61052761100c565b6040518080602001828103825283818151815260200191508051906020019080838360005b8381101561056757808201518184015260208101905061054c565b50505050905090810190601f1680156105945780820380516001836020036101000a031916815260200191505b509250505060405180910390f35b6105ee600480360360408110156105b857600080fd5b81019080803573ffffffffffffffffffffffffffffffffffffffff169060200190929190803590602001909291905050506110ae565b60405180821515815260200191505060405180910390f35b6106526004803603604081101561061c57600080fd5b81019080803573ffffffffffffffffffffffffffffffffffffffff1690602001909291908035906020019092919050505061117b565b60405180821515815260200191505060405180910390f35b6106ac6004803603602081101561068057600080fd5b81019080803573ffffffffffffffffffffffffffffffffffffffff169060200190929190505050611199565b60405180821515815260200191505060405180910390f35b610726600480360360408110156106da57600080fd5b81019080803573ffffffffffffffffffffffffffffffffffffffff169060200190929190803573ffffffffffffffffffffffffffffffffffffffff1690602001909291905050506111ef565b6040518082815260200191505060405180910390f35b61077e6004803603602081101561075257600080fd5b81019080803573ffffffffffffffffffffffffffffffffffffffff169060200190929190505050611276565b005b6107c26004803603602081101561079657600080fd5b81019080803573ffffffffffffffffffffffffffffffffffffffff169060200190929190505050611590565b005b610806600480360360208110156107da57600080fd5b81019080803573ffffffffffffffffffffffffffffffffffffffff16906020019092919050505061179b565b005b6000610812611b25565b9050600460008273ffffffffffffffffffffffffffffffffffffffff1673ffffffffffffffffffffffffffffffffffffffff16815260200190815260200160002060009054906101000a900460ff16156108b7576040517f08c379a000000000000000000000000000000000000000000000000000000000815260040180806020018281038252602c815260200180613364602c913960400191505060405180910390fd5b60006108c283611b2d565b50505050905061091a81600160008573ffffffffffffffffffffffffffffffffffffffff1673ffffffffffffffffffffffffffffffffffffffff16815260200190815260200160002054611b8590919063ffffffff16565b600160008473ffffffffffffffffffffffffffffffffffffffff1673ffffffffffffffffffffffffffffffffffffffff1681526020019081526020016000208190555061097281600654611b8590919063ffffffff16565b60068190555061098d83600754611bcf90919063ffffffff16565b600781905550505050565b606060088054600181600116156101000203166002900480601f016020809104026020016040519081016040528092919081815260200182805460018160011615610100020316600290048015610a305780601f10610a0557610100808354040283529160200191610a30565b820191906000526020600020905b815481529060010190602001808311610a1357829003601f168201915b5050505050905090565b6000610a4e610a47611b25565b8484611c57565b6001905092915050565b60016020528060005260406000206000915090505481565b6000600754905090565b60006a52b7d2dcc80cd2e4000000905090565b6000610a9a848484611e4e565b610b5b84610aa6611b25565b610b56856040518060600160405280602881526020016132ca60289139600360008b73ffffffffffffffffffffffffffffffffffffffff1673ffffffffffffffffffffffffffffffffffffffff1681526020019081526020016000206000610b0c611b25565b73ffffffffffffffffffffffffffffffffffffffff1673ffffffffffffffffffffffffffffffffffffffff168152602001908152602001600020546122a79092919063ffffffff16565b611c57565b600190509392505050565b6000600654821115610bc3576040517f08c379a000000000000000000000000000000000000000000000000000000000815260040180806020018281038252602a815260200180613237602a913960400191505060405180910390fd5b6000610bcd612367565b9050610be2818461239290919063ffffffff16565b915050919050565b6000600a60009054906101000a900460ff16905090565b6000610caa610c0e611b25565b84610ca58560036000610c1f611b25565b73ffffffffffffffffffffffffffffffffffffffff1673ffffffffffffffffffffffffffffffffffffffff16815260200190815260200160002060008973ffffffffffffffffffffffffffffffffffffffff1673ffffffffffffffffffffffffffffffffffffffff16815260200190815260200160002054611bcf90919063ffffffff16565b611c57565b6001905092915050565b60006a52b7d2dcc80cd2e4000000831115610d37576040517f08c379a000000000000000000000000000000000000000000000000000000000815260040180806020018281038252601f8152602001807f416d6f756e74206d757374206265206c657373207468616e20737570706c790081525060200191505060405180910390fd5b81610d56576000610d4784611b2d565b50505050905080915050610d6c565b6000610d6184611b2d565b505050915050809150505b92915050565b6000600460008373ffffffffffffffffffffffffffffffffffffffff1673ffffffffffffffffffffffffffffffffffffffff16815260200190815260200160002060009054906101000a900460ff1615610e0d57600260008373ffffffffffffffffffffffffffffffffffffffff1673ffffffffffffffffffffffffffffffffffffffff168152602001908152602001600020549050610e58565b610e55600160008473ffffffffffffffffffffffffffffffffffffffff1673ffffffffffffffffffffffffffffffffffffffff16815260200190815260200160002054610b66565b90505b919050565b610e65611b25565b73ffffffffffffffffffffffffffffffffffffffff1660008054906101000a900473ffffffffffffffffffffffffffffffffffffffff1673ffffffffffffffffffffffffffffffffffffffff1614610f25576040517f08c379a00000000000000000000000000000000000000000000000000000000081526004018080602001828103825260208152602001807f4f776e61626c653a2063616c6c6572206973206e6f7420746865206f776e657281525060200191505060405180910390fd5b600073ffffffffffffffffffffffffffffffffffffffff1660008054906101000a900473ffffffffffffffffffffffffffffffffffffffff1673ffffffffffffffffffffffffffffffffffffffff167f8be0079c531659141344cd1fd0a4f28419497f9722a3daafe3b4186f6b6457e060405160405180910390a360008060006101000a81548173ffffffffffffffffffffffffffffffffffffffff021916908373ffffffffffffffffffffffffffffffffffffffff160217905550565b60008060009054906101000a900473ffffffffffffffffffffffffffffffffffffffff16905090565b606060098054600181600116156101000203166002900480601f0160208091040260200160405190810160405280929190818152602001828054600181600116156101000203166002900480156110a45780601f10611079576101008083540402835291602001916110a4565b820191906000526020600020905b81548152906001019060200180831161108757829003601f168201915b5050505050905090565b60006111716110bb611b25565b8461116c8560405180606001604052806025815260200161339060259139600360006110e5611b25565b73ffffffffffffffffffffffffffffffffffffffff1673ffffffffffffffffffffffffffffffffffffffff16815260200190815260200160002060008a73ffffffffffffffffffffffffffffffffffffffff1673ffffffffffffffffffffffffffffffffffffffff168152602001908152602001600020546122a79092919063ffffffff16565b611c57565b6001905092915050565b600061118f611188611b25565b8484611e4e565b6001905092915050565b6000600460008373ffffffffffffffffffffffffffffffffffffffff1673ffffffffffffffffffffffffffffffffffffffff16815260200190815260200160002060009054906101000a900460ff169050919050565b6000600360008473ffffffffffffffffffffffffffffffffffffffff1673ffffffffffffffffffffffffffffffffffffffff16815260200190815260200160002060008373ffffffffffffffffffffffffffffffffffffffff1673ffffffffffffffffffffffffffffffffffffffff16815260200190815260200160002054905092915050565b61127e611b25565b73ffffffffffffffffffffffffffffffffffffffff1660008054906101000a900473ffffffffffffffffffffffffffffffffffffffff1673ffffffffffffffffffffffffffffffffffffffff161461133e576040517f08c379a00000000000000000000000000000000000000000000000000000000081526004018080602001828103825260208152602001807f4f776e61626c653a2063616c6c6572206973206e6f7420746865206f776e657281525060200191505060405180910390fd5b600460008273ffffffffffffffffffffffffffffffffffffffff1673ffffffffffffffffffffffffffffffffffffffff16815260200190815260200160002060009054906101000a900460ff16156113fe576040517f08c379a000000000000000000000000000000000000000000000000000000000815260040180806020018281038252601b8152602001807f4163636f756e7420697320616c7265616479206578636c75646564000000000081525060200191505060405180910390fd5b6000600160008373ffffffffffffffffffffffffffffffffffffffff1673ffffffffffffffffffffffffffffffffffffffff1681526020019081526020016000205411156114d25761148e600160008373ffffffffffffffffffffffffffffffffffffffff1673ffffffffffffffffffffffffffffffffffffffff16815260200190815260200160002054610b66565b600260008373ffffffffffffffffffffffffffffffffffffffff1673ffffffffffffffffffffffffffffffffffffffff168152602001908152602001600020819055505b6001600460008373ffffffffffffffffffffffffffffffffffffffff1673ffffffffffffffffffffffffffffffffffffffff16815260200190815260200160002060006101000a81548160ff0219169083151502179055506005819080600181540180825580915050600190039060005260206000200160009091909190916101000a81548173ffffffffffffffffffffffffffffffffffffffff021916908373ffffffffffffffffffffffffffffffffffffffff16021790555050565b611598611b25565b73ffffffffffffffffffffffffffffffffffffffff1660008054906101000a900473ffffffffffffffffffffffffffffffffffffffff1673ffffffffffffffffffffffffffffffffffffffff1614611658576040517f08c379a00000000000000000000000000000000000000000000000000000000081526004018080602001828103825260208152602001807f4f776e61626c653a2063616c6c6572206973206e6f7420746865206f776e657281525060200191505060405180910390fd5b600073ffffffffffffffffffffffffffffffffffffffff168173ffffffffffffffffffffffffffffffffffffffff1614156116de576040517f08c379a00000000000000000000000000000000000000000000000000000000081526004018080602001828103825260268152602001806132616026913960400191505060405180910390fd5b8073ffffffffffffffffffffffffffffffffffffffff1660008054906101000a900473ffffffffffffffffffffffffffffffffffffffff1673ffffffffffffffffffffffffffffffffffffffff167f8be0079c531659141344cd1fd0a4f28419497f9722a3daafe3b4186f6b6457e060405160405180910390a3806000806101000a81548173ffffffffffffffffffffffffffffffffffffffff021916908373ffffffffffffffffffffffffffffffffffffffff16021790555050565b6117a3611b25565b73ffffffffffffffffffffffffffffffffffffffff1660008054906101000a900473ffffffffffffffffffffffffffffffffffffffff1673ffffffffffffffffffffffffffffffffffffffff1614611863576040517f08c379a00000000000000000000000000000000000000000000000000000000081526004018080602001828103825260208152602001807f4f776e61626c653a2063616c6c6572206973206e6f7420746865206f776e657281525060200191505060405180910390fd5b600460008273ffffffffffffffffffffffffffffffffffffffff1673ffffffffffffffffffffffffffffffffffffffff16815260200190815260200160002060009054906101000a900460ff16611922576040517f08c379a000000000000000000000000000000000000000000000000000000000815260040180806020018281038252601b8152602001807f4163636f756e7420697320616c7265616479206578636c75646564000000000081525060200191505060405180910390fd5b60005b600580549050811015611b21578173ffffffffffffffffffffffffffffffffffffffff166005828154811061195657fe5b9060005260206000200160009054906101000a900473ffffffffffffffffffffffffffffffffffffffff1673ffffffffffffffffffffffffffffffffffffffff161415611b14576005600160058054905003815481106119b257fe5b9060005260206000200160009054906101000a900473ffffffffffffffffffffffffffffffffffffffff16600582815481106119ea57fe5b9060005260206000200160006101000a81548173ffffffffffffffffffffffffffffffffffffffff021916908373ffffffffffffffffffffffffffffffffffffffff1602179055506000600260008473ffffffffffffffffffffffffffffffffffffffff1673ffffffffffffffffffffffffffffffffffffffff168152602001908152602001600020819055506000600460008473ffffffffffffffffffffffffffffffffffffffff1673ffffffffffffffffffffffffffffffffffffffff16815260200190815260200160002060006101000a81548160ff0219169083151502179055506005805480611ada57fe5b6001900381819060005260206000200160006101000a81549073ffffffffffffffffffffffffffffffffffffffff02191690559055611b21565b8080600101915050611925565b5050565b600033905090565b6000806000806000806000611b41886123dc565b915091506000611b4f612367565b90506000806000611b618c868661242e565b92509250925082828288889a509a509a509a509a5050505050505091939590929450565b6000611bc783836040518060400160405280601e81526020017f536166654d6174683a207375627472616374696f6e206f766572666c6f7700008152506122a7565b905092915050565b600080828401905083811015611c4d576040517f08c379a000000000000000000000000000000000000000000000000000000000815260040180806020018281038252601b8152602001807f536166654d6174683a206164646974696f6e206f766572666c6f77000000000081525060200191505060405180910390fd5b8091505092915050565b600073ffffffffffffffffffffffffffffffffffffffff168373ffffffffffffffffffffffffffffffffffffffff161415611cdd576040517f08c379a00000000000000000000000000000000000000000000000000000000081526004018080602001828103825260248152602001806133406024913960400191505060405180910390fd5b600073ffffffffffffffffffffffffffffffffffffffff168273ffffffffffffffffffffffffffffffffffffffff161415611d63576040517f08c379a00000000000000000000000000000000000000000000000000000000081526004018080602001828103825260228152602001806132876022913960400191505060405180910390fd5b80600360008573ffffffffffffffffffffffffffffffffffffffff1673ffffffffffffffffffffffffffffffffffffffff16815260200190815260200160002060008473ffffffffffffffffffffffffffffffffffffffff1673ffffffffffffffffffffffffffffffffffffffff168152602001908152602001600020819055508173ffffffffffffffffffffffffffffffffffffffff168373ffffffffffffffffffffffffffffffffffffffff167f8c5be1e5ebec7d5bd14f71427d1e84f3dd0314c0f7b2291e5b200ac8c7c3b925836040518082815260200191505060405180910390a3505050565b600073ffffffffffffffffffffffffffffffffffffffff168373ffffffffffffffffffffffffffffffffffffffff161415611ed4576040517f08c379a000000000000000000000000000000000000000000000000000000000815260040180806020018281038252602581526020018061331b6025913960400191505060405180910390fd5b600073ffffffffffffffffffffffffffffffffffffffff168273ffffffffffffffffffffffffffffffffffffffff161415611f5a576040517f08c379a00000000000000000000000000000000000000000000000000000000081526004018080602001828103825260238152602001806132146023913960400191505060405180910390fd5b60008111611fb3576040517f08c379a00000000000000000000000000000000000000000000000000000000081526004018080602001828103825260298152602001806132f26029913960400191505060405180910390fd5b600460008473ffffffffffffffffffffffffffffffffffffffff1673ffffffffffffffffffffffffffffffffffffffff16815260200190815260200160002060009054906101000a900460ff1680156120565750600460008373ffffffffffffffffffffffffffffffffffffffff1673ffffffffffffffffffffffffffffffffffffffff16815260200190815260200160002060009054906101000a900460ff16155b1561206b5761206683838361248c565b6122a2565b600460008473ffffffffffffffffffffffffffffffffffffffff1673ffffffffffffffffffffffffffffffffffffffff16815260200190815260200160002060009054906101000a900460ff1615801561210e5750600460008373ffffffffffffffffffffffffffffffffffffffff1673ffffffffffffffffffffffffffffffffffffffff16815260200190815260200160002060009054906101000a900460ff165b156121235761211e8383836126df565b6122a1565b600460008473ffffffffffffffffffffffffffffffffffffffff1673ffffffffffffffffffffffffffffffffffffffff16815260200190815260200160002060009054906101000a900460ff161580156121c75750600460008373ffffffffffffffffffffffffffffffffffffffff1673ffffffffffffffffffffffffffffffffffffffff16815260200190815260200160002060009054906101000a900460ff16155b156121dc576121d7838383612932565b6122a0565b600460008473ffffffffffffffffffffffffffffffffffffffff1673ffffffffffffffffffffffffffffffffffffffff16815260200190815260200160002060009054906101000a900460ff16801561227e5750600460008373ffffffffffffffffffffffffffffffffffffffff1673ffffffffffffffffffffffffffffffffffffffff16815260200190815260200160002060009054906101000a900460ff165b156122935761228e838383612af0565b61229f565b61229e838383612932565b5b5b5b5b505050565b6000838311158290612354576040517f08c379a00000000000000000000000000000000000000000000000000000000081526004018080602001828103825283818151815260200191508051906020019080838360005b838110156123195780820151818401526020810190506122fe565b50505050905090810190601f1680156123465780820380516001836020036101000a031916815260200191505b509250505060405180910390fd5b5060008385039050809150509392505050565b6000806000612374612dd8565b9150915061238b818361239290919063ffffffff16565b9250505090565b60006123d483836040518060400160405280601a81526020017f536166654d6174683a206469766973696f6e206279207a65726f00000000000081525061308d565b905092915050565b600080600061240860026123fa60648761239290919063ffffffff16565b61315390919063ffffffff16565b9050600061241f8286611b8590919063ffffffff16565b90508082935093505050915091565b600080600080612447858861315390919063ffffffff16565b9050600061245e868861315390919063ffffffff16565b905060006124758284611b8590919063ffffffff16565b905082818395509550955050505093509350939050565b600080600080600061249d86611b2d565b945094509450945094506124f986600260008b73ffffffffffffffffffffffffffffffffffffffff1673ffffffffffffffffffffffffffffffffffffffff16815260200190815260200160002054611b8590919063ffffffff16565b600260008a73ffffffffffffffffffffffffffffffffffffffff1673ffffffffffffffffffffffffffffffffffffffff1681526020019081526020016000208190555061258e85600160008b73ffffffffffffffffffffffffffffffffffffffff1673ffffffffffffffffffffffffffffffffffffffff16815260200190815260200160002054611b8590919063ffffffff16565b600160008a73ffffffffffffffffffffffffffffffffffffffff1673ffffffffffffffffffffffffffffffffffffffff1681526020019081526020016000208190555061262384600160008a73ffffffffffffffffffffffffffffffffffffffff1673ffffffffffffffffffffffffffffffffffffffff16815260200190815260200160002054611bcf90919063ffffffff16565b600160008973ffffffffffffffffffffffffffffffffffffffff1673ffffffffffffffffffffffffffffffffffffffff1681526020019081526020016000208190555061267083826131d9565b8673ffffffffffffffffffffffffffffffffffffffff168873ffffffffffffffffffffffffffffffffffffffff167fddf252ad1be2c89b69c2b068fc378daa952ba7f163c4a11628f55a4df523b3ef846040518082815260200191505060405180910390a35050505050505050565b60008060008060006126f086611b2d565b9450945094509450945061274c85600160008b73ffffffffffffffffffffffffffffffffffffffff1673ffffffffffffffffffffffffffffffffffffffff16815260200190815260200160002054611b8590919063ffffffff16565b600160008a73ffffffffffffffffffffffffffffffffffffffff1673ffffffffffffffffffffffffffffffffffffffff168152602001908152602001600020819055506127e182600260008a73ffffffffffffffffffffffffffffffffffffffff1673ffffffffffffffffffffffffffffffffffffffff16815260200190815260200160002054611bcf90919063ffffffff16565b600260008973ffffffffffffffffffffffffffffffffffffffff1673ffffffffffffffffffffffffffffffffffffffff1681526020019081526020016000208190555061287684600160008a73ffffffffffffffffffffffffffffffffffffffff1673ffffffffffffffffffffffffffffffffffffffff16815260200190815260200160002054611bcf90919063ffffffff16565b600160008973ffffffffffffffffffffffffffffffffffffffff1673ffffffffffffffffffffffffffffffffffffffff168152602001908152602001600020819055506128c383826131d9565b8673ffffffffffffffffffffffffffffffffffffffff168873ffffffffffffffffffffffffffffffffffffffff167fddf252ad1be2c89b69c2b068fc378daa952ba7f163c4a11628f55a4df523b3ef846040518082815260200191505060405180910390a35050505050505050565b600080600080600061294386611b2d565b9450945094509450945061299f85600160008b73ffffffffffffffffffffffffffffffffffffffff1673ffffffffffffffffffffffffffffffffffffffff16815260200190815260200160002054611b8590919063ffffffff16565b600160008a73ffffffffffffffffffffffffffffffffffffffff1673ffffffffffffffffffffffffffffffffffffffff16815260200190815260200160002081905550612a3484600160008a73ffffffffffffffffffffffffffffffffffffffff1673ffffffffffffffffffffffffffffffffffffffff16815260200190815260200160002054611bcf90919063ffffffff16565b600160008973ffffffffffffffffffffffffffffffffffffffff1673ffffffffffffffffffffffffffffffffffffffff16815260200190815260200160002081905550612a8183826131d9565b8673ffffffffffffffffffffffffffffffffffffffff168873ffffffffffffffffffffffffffffffffffffffff167fddf252ad1be2c89b69c2b068fc378daa952ba7f163c4a11628f55a4df523b3ef846040518082815260200191505060405180910390a35050505050505050565b6000806000806000612b0186611b2d565b94509450945094509450612b5d86600260008b73ffffffffffffffffffffffffffffffffffffffff1673ffffffffffffffffffffffffffffffffffffffff16815260200190815260200160002054611b8590919063ffffffff16565b600260008a73ffffffffffffffffffffffffffffffffffffffff1673ffffffffffffffffffffffffffffffffffffffff16815260200190815260200160002081905550612bf285600160008b73ffffffffffffffffffffffffffffffffffffffff1673ffffffffffffffffffffffffffffffffffffffff16815260200190815260200160002054611b8590919063ffffffff16565b600160008a73ffffffffffffffffffffffffffffffffffffffff1673ffffffffffffffffffffffffffffffffffffffff16815260200190815260200160002081905550612c8782600260008a73ffffffffffffffffffffffffffffffffffffffff1673ffffffffffffffffffffffffffffffffffffffff16815260200190815260200160002054611bcf90919063ffffffff16565b600260008973ffffffffffffffffffffffffffffffffffffffff1673ffffffffffffffffffffffffffffffffffffffff16815260200190815260200160002081905550612d1c84600160008a73ffffffffffffffffffffffffffffffffffffffff1673ffffffffffffffffffffffffffffffffffffffff16815260200190815260200160002054611bcf90919063ffffffff16565b600160008973ffffffffffffffffffffffffffffffffffffffff1673ffffffffffffffffffffffffffffffffffffffff16815260200190815260200160002081905550612d6983826131d9565b8673ffffffffffffffffffffffffffffffffffffffff168873ffffffffffffffffffffffffffffffffffffffff167fddf252ad1be2c89b69c2b068fc378daa952ba7f163c4a11628f55a4df523b3ef846040518082815260200191505060405180910390a35050505050505050565b6000806000600654905060006a52b7d2dcc80cd2e4000000905060005b60058054905081101561303e57826001600060058481548110612e1457fe5b9060005260206000200160009054906101000a900473ffffffffffffffffffffffffffffffffffffffff1673ffffffffffffffffffffffffffffffffffffffff1673ffffffffffffffffffffffffffffffffffffffff168152602001908152602001600020541180612efb5750816002600060058481548110612e9357fe5b9060005260206000200160009054906101000a900473ffffffffffffffffffffffffffffffffffffffff1673ffffffffffffffffffffffffffffffffffffffff1673ffffffffffffffffffffffffffffffffffffffff16815260200190815260200160002054115b15612f1b576006546a52b7d2dcc80cd2e400000094509450505050613089565b612fa46001600060058481548110612f2f57fe5b9060005260206000200160009054906101000a900473ffffffffffffffffffffffffffffffffffffffff1673ffffffffffffffffffffffffffffffffffffffff1673ffffffffffffffffffffffffffffffffffffffff1681526020019081526020016000205484611b8590919063ffffffff16565b925061302f6002600060058481548110612fba57fe5b9060005260206000200160009054906101000a900473ffffffffffffffffffffffffffffffffffffffff1673ffffffffffffffffffffffffffffffffffffffff1673ffffffffffffffffffffffffffffffffffffffff1681526020019081526020016000205483611b8590919063ffffffff16565b91508080600101915050612df5565b5061305f6a52b7d2dcc80cd2e400000060065461239290919063ffffffff16565b821015613080576006546a52b7d2dcc80cd2e4000000935093505050613089565b81819350935050505b9091565b60008083118290613139576040517f08c379a00000000000000000000000000000000000000000000000000000000081526004018080602001828103825283818151815260200191508051906020019080838360005b838110156130fe5780820151818401526020810190506130e3565b50505050905090810190601f16801561312b5780820380516001836020036101000a031916815260200191505b509250505060405180910390fd5b50600083858161314557fe5b049050809150509392505050565b60008083141561316657600090506131d3565b600082840290508284828161317757fe5b04146131ce576040517f08c379a00000000000000000000000000000000000000000000000000000000081526004018080602001828103825260218152602001806132a96021913960400191505060405180910390fd5b809150505b92915050565b6131ee82600654611b8590919063ffffffff16565b60068190555061320981600754611bcf90919063ffffffff16565b600781905550505056fe45524332303a207472616e7366657220746f20746865207a65726f2061646472657373416d6f756e74206d757374206265206c657373207468616e20746f74616c207265666c656374696f6e734f776e61626c653a206e6577206f776e657220697320746865207a65726f206164647265737345524332303a20617070726f766520746f20746865207a65726f2061646472657373536166654d6174683a206d756c7469706c69636174696f6e206f766572666c6f7745524332303a207472616e7366657220616d6f756e74206578636565647320616c6c6f77616e63655472616e7366657220616d6f756e74206d7573742062652067726561746572207468616e207a65726f45524332303a207472616e736665722066726f6d20746865207a65726f206164647265737345524332303a20617070726f76652066726f6d20746865207a65726f20616464726573734578636c75646564206164647265737365732063616e6e6f742063616c6c20746869732066756e6374696f6e45524332303a2064656372656173656420616c6c6f77616e63652062656c6f77207a65726fa2646970667358221220b884c9c0d90d4aa2bb76363c31c7cf67ef1fdbb7a5ba41a584d9327301929daa64736f6c634300060c0033",
					"opcodes": "PUSH1 0x80 PUSH1 0x40 MSTORE PUSH11 0x52B7D2DCC80CD2E4000000 PUSH1 0x0 NOT DUP2 PUSH3 0x1B JUMPI INVALID JUMPDEST MOD PUSH1 0x0 NOT SUB PUSH1 0x6 SSTORE PUSH1 0x40 MLOAD DUP1 PUSH1 0x40 ADD PUSH1 0x40 MSTORE DUP1 PUSH1 0x8 DUP2 MSTORE PUSH1 0x20 ADD PUSH32 0x464547746F6B656E000000000000000000000000000000000000000000000000 DUP2 MSTORE POP PUSH1 0x8 SWAP1 DUP1 MLOAD SWAP1 PUSH1 0x20 ADD SWAP1 PUSH3 0x70 SWAP3 SWAP2 SWAP1 PUSH3 0x27C JUMP JUMPDEST POP PUSH1 0x40 MLOAD DUP1 PUSH1 0x40 ADD PUSH1 0x40 MSTORE DUP1 PUSH1 0x3 DUP2 MSTORE PUSH1 0x20 ADD PUSH32 0x4645470000000000000000000000000000000000000000000000000000000000 DUP2 MSTORE POP PUSH1 0x9 SWAP1 DUP1 MLOAD SWAP1 PUSH1 0x20 ADD SWAP1 PUSH3 0xBE SWAP3 SWAP2 SWAP1 PUSH3 0x27C JUMP JUMPDEST POP PUSH1 0x9 PUSH1 0xA PUSH1 0x0 PUSH2 0x100 EXP DUP2 SLOAD DUP2 PUSH1 0xFF MUL NOT AND SWAP1 DUP4 PUSH1 0xFF AND MUL OR SWAP1 SSTORE POP CALLVALUE DUP1 ISZERO PUSH3 0xE8 JUMPI PUSH1 0x0 DUP1 REVERT JUMPDEST POP PUSH1 0x0 PUSH3 0xFB PUSH3 0x274 PUSH1 0x20 SHL PUSH1 0x20 SHR JUMP JUMPDEST SWAP1 POP DUP1 PUSH1 0x0 DUP1 PUSH2 0x100 EXP DUP2 SLOAD DUP2 PUSH20 0xFFFFFFFFFFFFFFFFFFFFFFFFFFFFFFFFFFFFFFFF MUL NOT AND SWAP1 DUP4 PUSH20 0xFFFFFFFFFFFFFFFFFFFFFFFFFFFFFFFFFFFFFFFF AND MUL OR SWAP1 SSTORE POP DUP1 PUSH20 0xFFFFFFFFFFFFFFFFFFFFFFFFFFFFFFFFFFFFFFFF AND PUSH1 0x0 PUSH20 0xFFFFFFFFFFFFFFFFFFFFFFFFFFFFFFFFFFFFFFFF AND PUSH32 0x8BE0079C531659141344CD1FD0A4F28419497F9722A3DAAFE3B4186F6B6457E0 PUSH1 0x40 MLOAD PUSH1 0x40 MLOAD DUP1 SWAP2 SUB SWAP1 LOG3 POP PUSH1 0x6 SLOAD PUSH1 0x1 PUSH1 0x0 PUSH3 0x1B0 PUSH3 0x274 PUSH1 0x20 SHL PUSH1 0x20 SHR JUMP JUMPDEST PUSH20 0xFFFFFFFFFFFFFFFFFFFFFFFFFFFFFFFFFFFFFFFF AND PUSH20 0xFFFFFFFFFFFFFFFFFFFFFFFFFFFFFFFFFFFFFFFF AND DUP2 MSTORE PUSH1 0x20 ADD SWAP1 DUP2 MSTORE PUSH1 0x20 ADD PUSH1 0x0 KECCAK256 DUP2 SWAP1 SSTORE POP PUSH3 0x1FE PUSH3 0x274 PUSH1 0x20 SHL PUSH1 0x20 SHR JUMP JUMPDEST PUSH20 0xFFFFFFFFFFFFFFFFFFFFFFFFFFFFFFFFFFFFFFFF AND PUSH1 0x0 PUSH20 0xFFFFFFFFFFFFFFFFFFFFFFFFFFFFFFFFFFFFFFFF AND PUSH32 0xDDF252AD1BE2C89B69C2B068FC378DAA952BA7F163C4A11628F55A4DF523B3EF PUSH11 0x52B7D2DCC80CD2E4000000 PUSH1 0x40 MLOAD DUP1 DUP3 DUP2 MSTORE PUSH1 0x20 ADD SWAP2 POP POP PUSH1 0x40 MLOAD DUP1 SWAP2 SUB SWAP1 LOG3 PUSH3 0x322 JUMP JUMPDEST PUSH1 0x0 CALLER SWAP1 POP SWAP1 JUMP JUMPDEST DUP3 DUP1 SLOAD PUSH1 0x1 DUP2 PUSH1 0x1 AND ISZERO PUSH2 0x100 MUL SUB AND PUSH1 0x2 SWAP1 DIV SWAP1 PUSH1 0x0 MSTORE PUSH1 0x20 PUSH1 0x0 KECCAK256 SWAP1 PUSH1 0x1F ADD PUSH1 0x20 SWAP1 DIV DUP2 ADD SWAP3 DUP3 PUSH1 0x1F LT PUSH3 0x2BF JUMPI DUP1 MLOAD PUSH1 0xFF NOT AND DUP4 DUP1 ADD OR DUP6 SSTORE PUSH3 0x2F0 JUMP JUMPDEST DUP3 DUP1 ADD PUSH1 0x1 ADD DUP6 SSTORE DUP3 ISZERO PUSH3 0x2F0 JUMPI SWAP2 DUP3 ADD JUMPDEST DUP3 DUP2 GT ISZERO PUSH3 0x2EF JUMPI DUP3 MLOAD DUP3 SSTORE SWAP2 PUSH1 0x20 ADD SWAP2 SWAP1 PUSH1 0x1 ADD SWAP1 PUSH3 0x2D2 JUMP JUMPDEST JUMPDEST POP SWAP1 POP PUSH3 0x2FF SWAP2 SWAP1 PUSH3 0x303 JUMP JUMPDEST POP SWAP1 JUMP JUMPDEST JUMPDEST DUP1 DUP3 GT ISZERO PUSH3 0x31E JUMPI PUSH1 0x0 DUP2 PUSH1 0x0 SWAP1 SSTORE POP PUSH1 0x1 ADD PUSH3 0x304 JUMP JUMPDEST POP SWAP1 JUMP JUMPDEST PUSH2 0x33EA DUP1 PUSH3 0x332 PUSH1 0x0 CODECOPY PUSH1 0x0 RETURN INVALID PUSH1 0x80 PUSH1 0x40 MSTORE CALLVALUE DUP1 ISZERO PUSH2 0x10 JUMPI PUSH1 0x0 DUP1 REVERT JUMPDEST POP PUSH1 0x4 CALLDATASIZE LT PUSH2 0x142 JUMPI PUSH1 0x0 CALLDATALOAD PUSH1 0xE0 SHR DUP1 PUSH4 0x70A08231 GT PUSH2 0xB8 JUMPI DUP1 PUSH4 0xA9059CBB GT PUSH2 0x7C JUMPI DUP1 PUSH4 0xA9059CBB EQ PUSH2 0x606 JUMPI DUP1 PUSH4 0xCBA0E996 EQ PUSH2 0x66A JUMPI DUP1 PUSH4 0xDD62ED3E EQ PUSH2 0x6C4 JUMPI DUP1 PUSH4 0xF2CC0C18 EQ PUSH2 0x73C JUMPI DUP1 PUSH4 0xF2FDE38B EQ PUSH2 0x780 JUMPI DUP1 PUSH4 0xF84354F1 EQ PUSH2 0x7C4 JUMPI PUSH2 0x142 JUMP JUMPDEST DUP1 PUSH4 0x70A08231 EQ PUSH2 0x489 JUMPI DUP1 PUSH4 0x715018A6 EQ PUSH2 0x4E1 JUMPI DUP1 PUSH4 0x8DA5CB5B EQ PUSH2 0x4EB JUMPI DUP1 PUSH4 0x95D89B41 EQ PUSH2 0x51F JUMPI DUP1 PUSH4 0xA457C2D7 EQ PUSH2 0x5A2 JUMPI PUSH2 0x142 JUMP JUMPDEST DUP1 PUSH4 0x18160DDD GT PUSH2 0x10A JUMPI DUP1 PUSH4 0x18160DDD EQ PUSH2 0x2D2 JUMPI DUP1 PUSH4 0x23B872DD EQ PUSH2 0x2F0 JUMPI DUP1 PUSH4 0x2D838119 EQ PUSH2 0x374 JUMPI DUP1 PUSH4 0x313CE567 EQ PUSH2 0x3B6 JUMPI DUP1 PUSH4 0x39509351 EQ PUSH2 0x3D7 JUMPI DUP1 PUSH4 0x4549B039 EQ PUSH2 0x43B JUMPI PUSH2 0x142 JUMP JUMPDEST DUP1 PUSH4 0x53AB182 EQ PUSH2 0x147 JUMPI DUP1 PUSH4 0x6FDDE03 EQ PUSH2 0x175 JUMPI DUP1 PUSH4 0x95EA7B3 EQ PUSH2 0x1F8 JUMPI DUP1 PUSH4 0xCFC15F9 EQ PUSH2 0x25C JUMPI DUP1 PUSH4 0x13114A9D EQ PUSH2 0x2B4 JUMPI JUMPDEST PUSH1 0x0 DUP1 REVERT JUMPDEST PUSH2 0x173 PUSH1 0x4 DUP1 CALLDATASIZE SUB PUSH1 0x20 DUP2 LT ISZERO PUSH2 0x15D JUMPI PUSH1 0x0 DUP1 REVERT JUMPDEST DUP2 ADD SWAP1 DUP1 DUP1 CALLDATALOAD SWAP1 PUSH1 0x20 ADD SWAP1 SWAP3 SWAP2 SWAP1 POP POP POP PUSH2 0x808 JUMP JUMPDEST STOP JUMPDEST PUSH2 0x17D PUSH2 0x998 JUMP JUMPDEST PUSH1 0x40 MLOAD DUP1 DUP1 PUSH1 0x20 ADD DUP3 DUP2 SUB DUP3 MSTORE DUP4 DUP2 DUP2 MLOAD DUP2 MSTORE PUSH1 0x20 ADD SWAP2 POP DUP1 MLOAD SWAP1 PUSH1 0x20 ADD SWAP1 DUP1 DUP4 DUP4 PUSH1 0x0 JUMPDEST DUP4 DUP2 LT ISZERO PUSH2 0x1BD JUMPI DUP1 DUP3 ADD MLOAD DUP2 DUP5 ADD MSTORE PUSH1 0x20 DUP2 ADD SWAP1 POP PUSH2 0x1A2 JUMP JUMPDEST POP POP POP POP SWAP1 POP SWAP1 DUP2 ADD SWAP1 PUSH1 0x1F AND DUP1 ISZERO PUSH2 0x1EA JUMPI DUP1 DUP3 SUB DUP1 MLOAD PUSH1 0x1 DUP4 PUSH1 0x20 SUB PUSH2 0x100 EXP SUB NOT AND DUP2 MSTORE PUSH1 0x20 ADD SWAP2 POP JUMPDEST POP SWAP3 POP POP POP PUSH1 0x40 MLOAD DUP1 SWAP2 SUB SWAP1 RETURN JUMPDEST PUSH2 0x244 PUSH1 0x4 DUP1 CALLDATASIZE SUB PUSH1 0x40 DUP2 LT ISZERO PUSH2 0x20E JUMPI PUSH1 0x0 DUP1 REVERT JUMPDEST DUP2 ADD SWAP1 DUP1 DUP1 CALLDATALOAD PUSH20 0xFFFFFFFFFFFFFFFFFFFFFFFFFFFFFFFFFFFFFFFF AND SWAP1 PUSH1 0x20 ADD SWAP1 SWAP3 SWAP2 SWAP1 DUP1 CALLDATALOAD SWAP1 PUSH1 0x20 ADD SWAP1 SWAP3 SWAP2 SWAP1 POP POP POP PUSH2 0xA3A JUMP JUMPDEST PUSH1 0x40 MLOAD DUP1 DUP3 ISZERO ISZERO DUP2 MSTORE PUSH1 0x20 ADD SWAP2 POP POP PUSH1 0x40 MLOAD DUP1 SWAP2 SUB SWAP1 RETURN JUMPDEST PUSH2 0x29E PUSH1 0x4 DUP1 CALLDATASIZE SUB PUSH1 0x20 DUP2 LT ISZERO PUSH2 0x272 JUMPI PUSH1 0x0 DUP1 REVERT JUMPDEST DUP2 ADD SWAP1 DUP1 DUP1 CALLDATALOAD PUSH20 0xFFFFFFFFFFFFFFFFFFFFFFFFFFFFFFFFFFFFFFFF AND SWAP1 PUSH1 0x20 ADD SWAP1 SWAP3 SWAP2 SWAP1 POP POP POP PUSH2 0xA58 JUMP JUMPDEST PUSH1 0x40 MLOAD DUP1 DUP3 DUP2 MSTORE PUSH1 0x20 ADD SWAP2 POP POP PUSH1 0x40 MLOAD DUP1 SWAP2 SUB SWAP1 RETURN JUMPDEST PUSH2 0x2BC PUSH2 0xA70 JUMP JUMPDEST PUSH1 0x40 MLOAD DUP1 DUP3 DUP2 MSTORE PUSH1 0x20 ADD SWAP2 POP POP PUSH1 0x40 MLOAD DUP1 SWAP2 SUB SWAP1 RETURN JUMPDEST PUSH2 0x2DA PUSH2 0xA7A JUMP JUMPDEST PUSH1 0x40 MLOAD DUP1 DUP3 DUP2 MSTORE PUSH1 0x20 ADD SWAP2 POP POP PUSH1 0x40 MLOAD DUP1 SWAP2 SUB SWAP1 RETURN JUMPDEST PUSH2 0x35C PUSH1 0x4 DUP1 CALLDATASIZE SUB PUSH1 0x60 DUP2 LT ISZERO PUSH2 0x306 JUMPI PUSH1 0x0 DUP1 REVERT JUMPDEST DUP2 ADD SWAP1 DUP1 DUP1 CALLDATALOAD PUSH20 0xFFFFFFFFFFFFFFFFFFFFFFFFFFFFFFFFFFFFFFFF AND SWAP1 PUSH1 0x20 ADD SWAP1 SWAP3 SWAP2 SWAP1 DUP1 CALLDATALOAD PUSH20 0xFFFFFFFFFFFFFFFFFFFFFFFFFFFFFFFFFFFFFFFF AND SWAP1 PUSH1 0x20 ADD SWAP1 SWAP3 SWAP2 SWAP1 DUP1 CALLDATALOAD SWAP1 PUSH1 0x20 ADD SWAP1 SWAP3 SWAP2 SWAP1 POP POP POP PUSH2 0xA8D JUMP JUMPDEST PUSH1 0x40 MLOAD DUP1 DUP3 ISZERO ISZERO DUP2 MSTORE PUSH1 0x20 ADD SWAP2 POP POP PUSH1 0x40 MLOAD DUP1 SWAP2 SUB SWAP1 RETURN JUMPDEST PUSH2 0x3A0 PUSH1 0x4 DUP1 CALLDATASIZE SUB PUSH1 0x20 DUP2 LT ISZERO PUSH2 0x38A JUMPI PUSH1 0x0 DUP1 REVERT JUMPDEST DUP2 ADD SWAP1 DUP1 DUP1 CALLDATALOAD SWAP1 PUSH1 0x20 ADD SWAP1 SWAP3 SWAP2 SWAP1 POP POP POP PUSH2 0xB66 JUMP JUMPDEST PUSH1 0x40 MLOAD DUP1 DUP3 DUP2 MSTORE PUSH1 0x20 ADD SWAP2 POP POP PUSH1 0x40 MLOAD DUP1 SWAP2 SUB SWAP1 RETURN JUMPDEST PUSH2 0x3BE PUSH2 0xBEA JUMP JUMPDEST PUSH1 0x40 MLOAD DUP1 DUP3 PUSH1 0xFF AND DUP2 MSTORE PUSH1 0x20 ADD SWAP2 POP POP PUSH1 0x40 MLOAD DUP1 SWAP2 SUB SWAP1 RETURN JUMPDEST PUSH2 0x423 PUSH1 0x4 DUP1 CALLDATASIZE SUB PUSH1 0x40 DUP2 LT ISZERO PUSH2 0x3ED JUMPI PUSH1 0x0 DUP1 REVERT JUMPDEST DUP2 ADD SWAP1 DUP1 DUP1 CALLDATALOAD PUSH20 0xFFFFFFFFFFFFFFFFFFFFFFFFFFFFFFFFFFFFFFFF AND SWAP1 PUSH1 0x20 ADD SWAP1 SWAP3 SWAP2 SWAP1 DUP1 CALLDATALOAD SWAP1 PUSH1 0x20 ADD SWAP1 SWAP3 SWAP2 SWAP1 POP POP POP PUSH2 0xC01 JUMP JUMPDEST PUSH1 0x40 MLOAD DUP1 DUP3 ISZERO ISZERO DUP2 MSTORE PUSH1 0x20 ADD SWAP2 POP POP PUSH1 0x40 MLOAD DUP1 SWAP2 SUB SWAP1 RETURN JUMPDEST PUSH2 0x473 PUSH1 0x4 DUP1 CALLDATASIZE SUB PUSH1 0x40 DUP2 LT ISZERO PUSH2 0x451 JUMPI PUSH1 0x0 DUP1 REVERT JUMPDEST DUP2 ADD SWAP1 DUP1 DUP1 CALLDATALOAD SWAP1 PUSH1 0x20 ADD SWAP1 SWAP3 SWAP2 SWAP1 DUP1 CALLDATALOAD ISZERO ISZERO SWAP1 PUSH1 0x20 ADD SWAP1 SWAP3 SWAP2 SWAP1 POP POP POP PUSH2 0xCB4 JUMP JUMPDEST PUSH1 0x40 MLOAD DUP1 DUP3 DUP2 MSTORE PUSH1 0x20 ADD SWAP2 POP POP PUSH1 0x40 MLOAD DUP1 SWAP2 SUB SWAP1 RETURN JUMPDEST PUSH2 0x4CB PUSH1 0x4 DUP1 CALLDATASIZE SUB PUSH1 0x20 DUP2 LT ISZERO PUSH2 0x49F JUMPI PUSH1 0x0 DUP1 REVERT JUMPDEST DUP2 ADD SWAP1 DUP1 DUP1 CALLDATALOAD PUSH20 0xFFFFFFFFFFFFFFFFFFFFFFFFFFFFFFFFFFFFFFFF AND SWAP1 PUSH1 0x20 ADD SWAP1 SWAP3 SWAP2 SWAP1 POP POP POP PUSH2 0xD72 JUMP JUMPDEST PUSH1 0x40 MLOAD DUP1 DUP3 DUP2 MSTORE PUSH1 0x20 ADD SWAP2 POP POP PUSH1 0x40 MLOAD DUP1 SWAP2 SUB SWAP1 RETURN JUMPDEST PUSH2 0x4E9 PUSH2 0xE5D JUMP JUMPDEST STOP JUMPDEST PUSH2 0x4F3 PUSH2 0xFE3 JUMP JUMPDEST PUSH1 0x40 MLOAD DUP1 DUP3 PUSH20 0xFFFFFFFFFFFFFFFFFFFFFFFFFFFFFFFFFFFFFFFF AND DUP2 MSTORE PUSH1 0x20 ADD SWAP2 POP POP PUSH1 0x40 MLOAD DUP1 SWAP2 SUB SWAP1 RETURN JUMPDEST PUSH2 0x527 PUSH2 0x100C JUMP JUMPDEST PUSH1 0x40 MLOAD DUP1 DUP1 PUSH1 0x20 ADD DUP3 DUP2 SUB DUP3 MSTORE DUP4 DUP2 DUP2 MLOAD DUP2 MSTORE PUSH1 0x20 ADD SWAP2 POP DUP1 MLOAD SWAP1 PUSH1 0x20 ADD SWAP1 DUP1 DUP4 DUP4 PUSH1 0x0 JUMPDEST DUP4 DUP2 LT ISZERO PUSH2 0x567 JUMPI DUP1 DUP3 ADD MLOAD DUP2 DUP5 ADD MSTORE PUSH1 0x20 DUP2 ADD SWAP1 POP PUSH2 0x54C JUMP JUMPDEST POP POP POP POP SWAP1 POP SWAP1 DUP2 ADD SWAP1 PUSH1 0x1F AND DUP1 ISZERO PUSH2 0x594 JUMPI DUP1 DUP3 SUB DUP1 MLOAD PUSH1 0x1 DUP4 PUSH1 0x20 SUB PUSH2 0x100 EXP SUB NOT AND DUP2 MSTORE PUSH1 0x20 ADD SWAP2 POP JUMPDEST POP SWAP3 POP POP POP PUSH1 0x40 MLOAD DUP1 SWAP2 SUB SWAP1 RETURN JUMPDEST PUSH2 0x5EE PUSH1 0x4 DUP1 CALLDATASIZE SUB PUSH1 0x40 DUP2 LT ISZERO PUSH2 0x5B8 JUMPI PUSH1 0x0 DUP1 REVERT JUMPDEST DUP2 ADD SWAP1 DUP1 DUP1 CALLDATALOAD PUSH20 0xFFFFFFFFFFFFFFFFFFFFFFFFFFFFFFFFFFFFFFFF AND SWAP1 PUSH1 0x20 ADD SWAP1 SWAP3 SWAP2 SWAP1 DUP1 CALLDATALOAD SWAP1 PUSH1 0x20 ADD SWAP1 SWAP3 SWAP2 SWAP1 POP POP POP PUSH2 0x10AE JUMP JUMPDEST PUSH1 0x40 MLOAD DUP1 DUP3 ISZERO ISZERO DUP2 MSTORE PUSH1 0x20 ADD SWAP2 POP POP PUSH1 0x40 MLOAD DUP1 SWAP2 SUB SWAP1 RETURN JUMPDEST PUSH2 0x652 PUSH1 0x4 DUP1 CALLDATASIZE SUB PUSH1 0x40 DUP2 LT ISZERO PUSH2 0x61C JUMPI PUSH1 0x0 DUP1 REVERT JUMPDEST DUP2 ADD SWAP1 DUP1 DUP1 CALLDATALOAD PUSH20 0xFFFFFFFFFFFFFFFFFFFFFFFFFFFFFFFFFFFFFFFF AND SWAP1 PUSH1 0x20 ADD SWAP1 SWAP3 SWAP2 SWAP1 DUP1 CALLDATALOAD SWAP1 PUSH1 0x20 ADD SWAP1 SWAP3 SWAP2 SWAP1 POP POP POP PUSH2 0x117B JUMP JUMPDEST PUSH1 0x40 MLOAD DUP1 DUP3 ISZERO ISZERO DUP2 MSTORE PUSH1 0x20 ADD SWAP2 POP POP PUSH1 0x40 MLOAD DUP1 SWAP2 SUB SWAP1 RETURN JUMPDEST PUSH2 0x6AC PUSH1 0x4 DUP1 CALLDATASIZE SUB PUSH1 0x20 DUP2 LT ISZERO PUSH2 0x680 JUMPI PUSH1 0x0 DUP1 REVERT JUMPDEST DUP2 ADD SWAP1 DUP1 DUP1 CALLDATALOAD PUSH20 0xFFFFFFFFFFFFFFFFFFFFFFFFFFFFFFFFFFFFFFFF AND SWAP1 PUSH1 0x20 ADD SWAP1 SWAP3 SWAP2 SWAP1 POP POP POP PUSH2 0x1199 JUMP JUMPDEST PUSH1 0x40 MLOAD DUP1 DUP3 ISZERO ISZERO DUP2 MSTORE PUSH1 0x20 ADD SWAP2 POP POP PUSH1 0x40 MLOAD DUP1 SWAP2 SUB SWAP1 RETURN JUMPDEST PUSH2 0x726 PUSH1 0x4 DUP1 CALLDATASIZE SUB PUSH1 0x40 DUP2 LT ISZERO PUSH2 0x6DA JUMPI PUSH1 0x0 DUP1 REVERT JUMPDEST DUP2 ADD SWAP1 DUP1 DUP1 CALLDATALOAD PUSH20 0xFFFFFFFFFFFFFFFFFFFFFFFFFFFFFFFFFFFFFFFF AND SWAP1 PUSH1 0x20 ADD SWAP1 SWAP3 SWAP2 SWAP1 DUP1 CALLDATALOAD PUSH20 0xFFFFFFFFFFFFFFFFFFFFFFFFFFFFFFFFFFFFFFFF AND SWAP1 PUSH1 0x20 ADD SWAP1 SWAP3 SWAP2 SWAP1 POP POP POP PUSH2 0x11EF JUMP JUMPDEST PUSH1 0x40 MLOAD DUP1 DUP3 DUP2 MSTORE PUSH1 0x20 ADD SWAP2 POP POP PUSH1 0x40 MLOAD DUP1 SWAP2 SUB SWAP1 RETURN JUMPDEST PUSH2 0x77E PUSH1 0x4 DUP1 CALLDATASIZE SUB PUSH1 0x20 DUP2 LT ISZERO PUSH2 0x752 JUMPI PUSH1 0x0 DUP1 REVERT JUMPDEST DUP2 ADD SWAP1 DUP1 DUP1 CALLDATALOAD PUSH20 0xFFFFFFFFFFFFFFFFFFFFFFFFFFFFFFFFFFFFFFFF AND SWAP1 PUSH1 0x20 ADD SWAP1 SWAP3 SWAP2 SWAP1 POP POP POP PUSH2 0x1276 JUMP JUMPDEST STOP JUMPDEST PUSH2 0x7C2 PUSH1 0x4 DUP1 CALLDATASIZE SUB PUSH1 0x20 DUP2 LT ISZERO PUSH2 0x796 JUMPI PUSH1 0x0 DUP1 REVERT JUMPDEST DUP2 ADD SWAP1 DUP1 DUP1 CALLDATALOAD PUSH20 0xFFFFFFFFFFFFFFFFFFFFFFFFFFFFFFFFFFFFFFFF AND SWAP1 PUSH1 0x20 ADD SWAP1 SWAP3 SWAP2 SWAP1 POP POP POP PUSH2 0x1590 JUMP JUMPDEST STOP JUMPDEST PUSH2 0x806 PUSH1 0x4 DUP1 CALLDATASIZE SUB PUSH1 0x20 DUP2 LT ISZERO PUSH2 0x7DA JUMPI PUSH1 0x0 DUP1 REVERT JUMPDEST DUP2 ADD SWAP1 DUP1 DUP1 CALLDATALOAD PUSH20 0xFFFFFFFFFFFFFFFFFFFFFFFFFFFFFFFFFFFFFFFF AND SWAP1 PUSH1 0x20 ADD SWAP1 SWAP3 SWAP2 SWAP1 POP POP POP PUSH2 0x179B JUMP JUMPDEST STOP JUMPDEST PUSH1 0x0 PUSH2 0x812 PUSH2 0x1B25 JUMP JUMPDEST SWAP1 POP PUSH1 0x4 PUSH1 0x0 DUP3 PUSH20 0xFFFFFFFFFFFFFFFFFFFFFFFFFFFFFFFFFFFFFFFF AND PUSH20 0xFFFFFFFFFFFFFFFFFFFFFFFFFFFFFFFFFFFFFFFF AND DUP2 MSTORE PUSH1 0x20 ADD SWAP1 DUP2 MSTORE PUSH1 0x20 ADD PUSH1 0x0 KECCAK256 PUSH1 0x0 SWAP1 SLOAD SWAP1 PUSH2 0x100 EXP SWAP1 DIV PUSH1 0xFF AND ISZERO PUSH2 0x8B7 JUMPI PUSH1 0x40 MLOAD PUSH32 0x8C379A000000000000000000000000000000000000000000000000000000000 DUP2 MSTORE PUSH1 0x4 ADD DUP1 DUP1 PUSH1 0x20 ADD DUP3 DUP2 SUB DUP3 MSTORE PUSH1 0x2C DUP2 MSTORE PUSH1 0x20 ADD DUP1 PUSH2 0x3364 PUSH1 0x2C SWAP2 CODECOPY PUSH1 0x40 ADD SWAP2 POP POP PUSH1 0x40 MLOAD DUP1 SWAP2 SUB SWAP1 REVERT JUMPDEST PUSH1 0x0 PUSH2 0x8C2 DUP4 PUSH2 0x1B2D JUMP JUMPDEST POP POP POP POP SWAP1 POP PUSH2 0x91A DUP2 PUSH1 0x1 PUSH1 0x0 DUP6 PUSH20 0xFFFFFFFFFFFFFFFFFFFFFFFFFFFFFFFFFFFFFFFF AND PUSH20 0xFFFFFFFFFFFFFFFFFFFFFFFFFFFFFFFFFFFFFFFF AND DUP2 MSTORE PUSH1 0x20 ADD SWAP1 DUP2 MSTORE PUSH1 0x20 ADD PUSH1 0x0 KECCAK256 SLOAD PUSH2 0x1B85 SWAP1 SWAP2 SWAP1 PUSH4 0xFFFFFFFF AND JUMP JUMPDEST PUSH1 0x1 PUSH1 0x0 DUP5 PUSH20 0xFFFFFFFFFFFFFFFFFFFFFFFFFFFFFFFFFFFFFFFF AND PUSH20 0xFFFFFFFFFFFFFFFFFFFFFFFFFFFFFFFFFFFFFFFF AND DUP2 MSTORE PUSH1 0x20 ADD SWAP1 DUP2 MSTORE PUSH1 0x20 ADD PUSH1 0x0 KECCAK256 DUP2 SWAP1 SSTORE POP PUSH2 0x972 DUP2 PUSH1 0x6 SLOAD PUSH2 0x1B85 SWAP1 SWAP2 SWAP1 PUSH4 0xFFFFFFFF AND JUMP JUMPDEST PUSH1 0x6 DUP2 SWAP1 SSTORE POP PUSH2 0x98D DUP4 PUSH1 0x7 SLOAD PUSH2 0x1BCF SWAP1 SWAP2 SWAP1 PUSH4 0xFFFFFFFF AND JUMP JUMPDEST PUSH1 0x7 DUP2 SWAP1 SSTORE POP POP POP POP JUMP JUMPDEST PUSH1 0x60 PUSH1 0x8 DUP1 SLOAD PUSH1 0x1 DUP2 PUSH1 0x1 AND ISZERO PUSH2 0x100 MUL SUB AND PUSH1 0x2 SWAP1 DIV DUP1 PUSH1 0x1F ADD PUSH1 0x20 DUP1 SWAP2 DIV MUL PUSH1 0x20 ADD PUSH1 0x40 MLOAD SWAP1 DUP2 ADD PUSH1 0x40 MSTORE DUP1 SWAP3 SWAP2 SWAP1 DUP2 DUP2 MSTORE PUSH1 0x20 ADD DUP3 DUP1 SLOAD PUSH1 0x1 DUP2 PUSH1 0x1 AND ISZERO PUSH2 0x100 MUL SUB AND PUSH1 0x2 SWAP1 DIV DUP1 ISZERO PUSH2 0xA30 JUMPI DUP1 PUSH1 0x1F LT PUSH2 0xA05 JUMPI PUSH2 0x100 DUP1 DUP4 SLOAD DIV MUL DUP4 MSTORE SWAP2 PUSH1 0x20 ADD SWAP2 PUSH2 0xA30 JUMP JUMPDEST DUP3 ADD SWAP2 SWAP1 PUSH1 0x0 MSTORE PUSH1 0x20 PUSH1 0x0 KECCAK256 SWAP1 JUMPDEST DUP2 SLOAD DUP2 MSTORE SWAP1 PUSH1 0x1 ADD SWAP1 PUSH1 0x20 ADD DUP1 DUP4 GT PUSH2 0xA13 JUMPI DUP3 SWAP1 SUB PUSH1 0x1F AND DUP3 ADD SWAP2 JUMPDEST POP POP POP POP POP SWAP1 POP SWAP1 JUMP JUMPDEST PUSH1 0x0 PUSH2 0xA4E PUSH2 0xA47 PUSH2 0x1B25 JUMP JUMPDEST DUP5 DUP5 PUSH2 0x1C57 JUMP JUMPDEST PUSH1 0x1 SWAP1 POP SWAP3 SWAP2 POP POP JUMP JUMPDEST PUSH1 0x1 PUSH1 0x20 MSTORE DUP1 PUSH1 0x0 MSTORE PUSH1 0x40 PUSH1 0x0 KECCAK256 PUSH1 0x0 SWAP2 POP SWAP1 POP SLOAD DUP2 JUMP JUMPDEST PUSH1 0x0 PUSH1 0x7 SLOAD SWAP1 POP SWAP1 JUMP JUMPDEST PUSH1 0x0 PUSH11 0x52B7D2DCC80CD2E4000000 SWAP1 POP SWAP1 JUMP JUMPDEST PUSH1 0x0 PUSH2 0xA9A DUP5 DUP5 DUP5 PUSH2 0x1E4E JUMP JUMPDEST PUSH2 0xB5B DUP5 PUSH2 0xAA6 PUSH2 0x1B25 JUMP JUMPDEST PUSH2 0xB56 DUP6 PUSH1 0x40 MLOAD DUP1 PUSH1 0x60 ADD PUSH1 0x40 MSTORE DUP1 PUSH1 0x28 DUP2 MSTORE PUSH1 0x20 ADD PUSH2 0x32CA PUSH1 0x28 SWAP2 CODECOPY PUSH1 0x3 PUSH1 0x0 DUP12 PUSH20 0xFFFFFFFFFFFFFFFFFFFFFFFFFFFFFFFFFFFFFFFF AND PUSH20 0xFFFFFFFFFFFFFFFFFFFFFFFFFFFFFFFFFFFFFFFF AND DUP2 MSTORE PUSH1 0x20 ADD SWAP1 DUP2 MSTORE PUSH1 0x20 ADD PUSH1 0x0 KECCAK256 PUSH1 0x0 PUSH2 0xB0C PUSH2 0x1B25 JUMP JUMPDEST PUSH20 0xFFFFFFFFFFFFFFFFFFFFFFFFFFFFFFFFFFFFFFFF AND PUSH20 0xFFFFFFFFFFFFFFFFFFFFFFFFFFFFFFFFFFFFFFFF AND DUP2 MSTORE PUSH1 0x20 ADD SWAP1 DUP2 MSTORE PUSH1 0x20 ADD PUSH1 0x0 KECCAK256 SLOAD PUSH2 0x22A7 SWAP1 SWAP3 SWAP2 SWAP1 PUSH4 0xFFFFFFFF AND JUMP JUMPDEST PUSH2 0x1C57 JUMP JUMPDEST PUSH1 0x1 SWAP1 POP SWAP4 SWAP3 POP POP POP JUMP JUMPDEST PUSH1 0x0 PUSH1 0x6 SLOAD DUP3 GT ISZERO PUSH2 0xBC3 JUMPI PUSH1 0x40 MLOAD PUSH32 0x8C379A000000000000000000000000000000000000000000000000000000000 DUP2 MSTORE PUSH1 0x4 ADD DUP1 DUP1 PUSH1 0x20 ADD DUP3 DUP2 SUB DUP3 MSTORE PUSH1 0x2A DUP2 MSTORE PUSH1 0x20 ADD DUP1 PUSH2 0x3237 PUSH1 0x2A SWAP2 CODECOPY PUSH1 0x40 ADD SWAP2 POP POP PUSH1 0x40 MLOAD DUP1 SWAP2 SUB SWAP1 REVERT JUMPDEST PUSH1 0x0 PUSH2 0xBCD PUSH2 0x2367 JUMP JUMPDEST SWAP1 POP PUSH2 0xBE2 DUP2 DUP5 PUSH2 0x2392 SWAP1 SWAP2 SWAP1 PUSH4 0xFFFFFFFF AND JUMP JUMPDEST SWAP2 POP POP SWAP2 SWAP1 POP JUMP JUMPDEST PUSH1 0x0 PUSH1 0xA PUSH1 0x0 SWAP1 SLOAD SWAP1 PUSH2 0x100 EXP SWAP1 DIV PUSH1 0xFF AND SWAP1 POP SWAP1 JUMP JUMPDEST PUSH1 0x0 PUSH2 0xCAA PUSH2 0xC0E PUSH2 0x1B25 JUMP JUMPDEST DUP5 PUSH2 0xCA5 DUP6 PUSH1 0x3 PUSH1 0x0 PUSH2 0xC1F PUSH2 0x1B25 JUMP JUMPDEST PUSH20 0xFFFFFFFFFFFFFFFFFFFFFFFFFFFFFFFFFFFFFFFF AND PUSH20 0xFFFFFFFFFFFFFFFFFFFFFFFFFFFFFFFFFFFFFFFF AND DUP2 MSTORE PUSH1 0x20 ADD SWAP1 DUP2 MSTORE PUSH1 0x20 ADD PUSH1 0x0 KECCAK256 PUSH1 0x0 DUP10 PUSH20 0xFFFFFFFFFFFFFFFFFFFFFFFFFFFFFFFFFFFFFFFF AND PUSH20 0xFFFFFFFFFFFFFFFFFFFFFFFFFFFFFFFFFFFFFFFF AND DUP2 MSTORE PUSH1 0x20 ADD SWAP1 DUP2 MSTORE PUSH1 0x20 ADD PUSH1 0x0 KECCAK256 SLOAD PUSH2 0x1BCF SWAP1 SWAP2 SWAP1 PUSH4 0xFFFFFFFF AND JUMP JUMPDEST PUSH2 0x1C57 JUMP JUMPDEST PUSH1 0x1 SWAP1 POP SWAP3 SWAP2 POP POP JUMP JUMPDEST PUSH1 0x0 PUSH11 0x52B7D2DCC80CD2E4000000 DUP4 GT ISZERO PUSH2 0xD37 JUMPI PUSH1 0x40 MLOAD PUSH32 0x8C379A000000000000000000000000000000000000000000000000000000000 DUP2 MSTORE PUSH1 0x4 ADD DUP1 DUP1 PUSH1 0x20 ADD DUP3 DUP2 SUB DUP3 MSTORE PUSH1 0x1F DUP2 MSTORE PUSH1 0x20 ADD DUP1 PUSH32 0x416D6F756E74206D757374206265206C657373207468616E20737570706C7900 DUP2 MSTORE POP PUSH1 0x20 ADD SWAP2 POP POP PUSH1 0x40 MLOAD DUP1 SWAP2 SUB SWAP1 REVERT JUMPDEST DUP2 PUSH2 0xD56 JUMPI PUSH1 0x0 PUSH2 0xD47 DUP5 PUSH2 0x1B2D JUMP JUMPDEST POP POP POP POP SWAP1 POP DUP1 SWAP2 POP POP PUSH2 0xD6C JUMP JUMPDEST PUSH1 0x0 PUSH2 0xD61 DUP5 PUSH2 0x1B2D JUMP JUMPDEST POP POP POP SWAP2 POP POP DUP1 SWAP2 POP POP JUMPDEST SWAP3 SWAP2 POP POP JUMP JUMPDEST PUSH1 0x0 PUSH1 0x4 PUSH1 0x0 DUP4 PUSH20 0xFFFFFFFFFFFFFFFFFFFFFFFFFFFFFFFFFFFFFFFF AND PUSH20 0xFFFFFFFFFFFFFFFFFFFFFFFFFFFFFFFFFFFFFFFF AND DUP2 MSTORE PUSH1 0x20 ADD SWAP1 DUP2 MSTORE PUSH1 0x20 ADD PUSH1 0x0 KECCAK256 PUSH1 0x0 SWAP1 SLOAD SWAP1 PUSH2 0x100 EXP SWAP1 DIV PUSH1 0xFF AND ISZERO PUSH2 0xE0D JUMPI PUSH1 0x2 PUSH1 0x0 DUP4 PUSH20 0xFFFFFFFFFFFFFFFFFFFFFFFFFFFFFFFFFFFFFFFF AND PUSH20 0xFFFFFFFFFFFFFFFFFFFFFFFFFFFFFFFFFFFFFFFF AND DUP2 MSTORE PUSH1 0x20 ADD SWAP1 DUP2 MSTORE PUSH1 0x20 ADD PUSH1 0x0 KECCAK256 SLOAD SWAP1 POP PUSH2 0xE58 JUMP JUMPDEST PUSH2 0xE55 PUSH1 0x1 PUSH1 0x0 DUP5 PUSH20 0xFFFFFFFFFFFFFFFFFFFFFFFFFFFFFFFFFFFFFFFF AND PUSH20 0xFFFFFFFFFFFFFFFFFFFFFFFFFFFFFFFFFFFFFFFF AND DUP2 MSTORE PUSH1 0x20 ADD SWAP1 DUP2 MSTORE PUSH1 0x20 ADD PUSH1 0x0 KECCAK256 SLOAD PUSH2 0xB66 JUMP JUMPDEST SWAP1 POP JUMPDEST SWAP2 SWAP1 POP JUMP JUMPDEST PUSH2 0xE65 PUSH2 0x1B25 JUMP JUMPDEST PUSH20 0xFFFFFFFFFFFFFFFFFFFFFFFFFFFFFFFFFFFFFFFF AND PUSH1 0x0 DUP1 SLOAD SWAP1 PUSH2 0x100 EXP SWAP1 DIV PUSH20 0xFFFFFFFFFFFFFFFFFFFFFFFFFFFFFFFFFFFFFFFF AND PUSH20 0xFFFFFFFFFFFFFFFFFFFFFFFFFFFFFFFFFFFFFFFF AND EQ PUSH2 0xF25 JUMPI PUSH1 0x40 MLOAD PUSH32 0x8C379A000000000000000000000000000000000000000000000000000000000 DUP2 MSTORE PUSH1 0x4 ADD DUP1 DUP1 PUSH1 0x20 ADD DUP3 DUP2 SUB DUP3 MSTORE PUSH1 0x20 DUP2 MSTORE PUSH1 0x20 ADD DUP1 PUSH32 0x4F776E61626C653A2063616C6C6572206973206E6F7420746865206F776E6572 DUP2 MSTORE POP PUSH1 0x20 ADD SWAP2 POP POP PUSH1 0x40 MLOAD DUP1 SWAP2 SUB SWAP1 REVERT JUMPDEST PUSH1 0x0 PUSH20 0xFFFFFFFFFFFFFFFFFFFFFFFFFFFFFFFFFFFFFFFF AND PUSH1 0x0 DUP1 SLOAD SWAP1 PUSH2 0x100 EXP SWAP1 DIV PUSH20 0xFFFFFFFFFFFFFFFFFFFFFFFFFFFFFFFFFFFFFFFF AND PUSH20 0xFFFFFFFFFFFFFFFFFFFFFFFFFFFFFFFFFFFFFFFF AND PUSH32 0x8BE0079C531659141344CD1FD0A4F28419497F9722A3DAAFE3B4186F6B6457E0 PUSH1 0x40 MLOAD PUSH1 0x40 MLOAD DUP1 SWAP2 SUB SWAP1 LOG3 PUSH1 0x0 DUP1 PUSH1 0x0 PUSH2 0x100 EXP DUP2 SLOAD DUP2 PUSH20 0xFFFFFFFFFFFFFFFFFFFFFFFFFFFFFFFFFFFFFFFF MUL NOT AND SWAP1 DUP4 PUSH20 0xFFFFFFFFFFFFFFFFFFFFFFFFFFFFFFFFFFFFFFFF AND MUL OR SWAP1 SSTORE POP JUMP JUMPDEST PUSH1 0x0 DUP1 PUSH1 0x0 SWAP1 SLOAD SWAP1 PUSH2 0x100 EXP SWAP1 DIV PUSH20 0xFFFFFFFFFFFFFFFFFFFFFFFFFFFFFFFFFFFFFFFF AND SWAP1 POP SWAP1 JUMP JUMPDEST PUSH1 0x60 PUSH1 0x9 DUP1 SLOAD PUSH1 0x1 DUP2 PUSH1 0x1 AND ISZERO PUSH2 0x100 MUL SUB AND PUSH1 0x2 SWAP1 DIV DUP1 PUSH1 0x1F ADD PUSH1 0x20 DUP1 SWAP2 DIV MUL PUSH1 0x20 ADD PUSH1 0x40 MLOAD SWAP1 DUP2 ADD PUSH1 0x40 MSTORE DUP1 SWAP3 SWAP2 SWAP1 DUP2 DUP2 MSTORE PUSH1 0x20 ADD DUP3 DUP1 SLOAD PUSH1 0x1 DUP2 PUSH1 0x1 AND ISZERO PUSH2 0x100 MUL SUB AND PUSH1 0x2 SWAP1 DIV DUP1 ISZERO PUSH2 0x10A4 JUMPI DUP1 PUSH1 0x1F LT PUSH2 0x1079 JUMPI PUSH2 0x100 DUP1 DUP4 SLOAD DIV MUL DUP4 MSTORE SWAP2 PUSH1 0x20 ADD SWAP2 PUSH2 0x10A4 JUMP JUMPDEST DUP3 ADD SWAP2 SWAP1 PUSH1 0x0 MSTORE PUSH1 0x20 PUSH1 0x0 KECCAK256 SWAP1 JUMPDEST DUP2 SLOAD DUP2 MSTORE SWAP1 PUSH1 0x1 ADD SWAP1 PUSH1 0x20 ADD DUP1 DUP4 GT PUSH2 0x1087 JUMPI DUP3 SWAP1 SUB PUSH1 0x1F AND DUP3 ADD SWAP2 JUMPDEST POP POP POP POP POP SWAP1 POP SWAP1 JUMP JUMPDEST PUSH1 0x0 PUSH2 0x1171 PUSH2 0x10BB PUSH2 0x1B25 JUMP JUMPDEST DUP5 PUSH2 0x116C DUP6 PUSH1 0x40 MLOAD DUP1 PUSH1 0x60 ADD PUSH1 0x40 MSTORE DUP1 PUSH1 0x25 DUP2 MSTORE PUSH1 0x20 ADD PUSH2 0x3390 PUSH1 0x25 SWAP2 CODECOPY PUSH1 0x3 PUSH1 0x0 PUSH2 0x10E5 PUSH2 0x1B25 JUMP JUMPDEST PUSH20 0xFFFFFFFFFFFFFFFFFFFFFFFFFFFFFFFFFFFFFFFF AND PUSH20 0xFFFFFFFFFFFFFFFFFFFFFFFFFFFFFFFFFFFFFFFF AND DUP2 MSTORE PUSH1 0x20 ADD SWAP1 DUP2 MSTORE PUSH1 0x20 ADD PUSH1 0x0 KECCAK256 PUSH1 0x0 DUP11 PUSH20 0xFFFFFFFFFFFFFFFFFFFFFFFFFFFFFFFFFFFFFFFF AND PUSH20 0xFFFFFFFFFFFFFFFFFFFFFFFFFFFFFFFFFFFFFFFF AND DUP2 MSTORE PUSH1 0x20 ADD SWAP1 DUP2 MSTORE PUSH1 0x20 ADD PUSH1 0x0 KECCAK256 SLOAD PUSH2 0x22A7 SWAP1 SWAP3 SWAP2 SWAP1 PUSH4 0xFFFFFFFF AND JUMP JUMPDEST PUSH2 0x1C57 JUMP JUMPDEST PUSH1 0x1 SWAP1 POP SWAP3 SWAP2 POP POP JUMP JUMPDEST PUSH1 0x0 PUSH2 0x118F PUSH2 0x1188 PUSH2 0x1B25 JUMP JUMPDEST DUP5 DUP5 PUSH2 0x1E4E JUMP JUMPDEST PUSH1 0x1 SWAP1 POP SWAP3 SWAP2 POP POP JUMP JUMPDEST PUSH1 0x0 PUSH1 0x4 PUSH1 0x0 DUP4 PUSH20 0xFFFFFFFFFFFFFFFFFFFFFFFFFFFFFFFFFFFFFFFF AND PUSH20 0xFFFFFFFFFFFFFFFFFFFFFFFFFFFFFFFFFFFFFFFF AND DUP2 MSTORE PUSH1 0x20 ADD SWAP1 DUP2 MSTORE PUSH1 0x20 ADD PUSH1 0x0 KECCAK256 PUSH1 0x0 SWAP1 SLOAD SWAP1 PUSH2 0x100 EXP SWAP1 DIV PUSH1 0xFF AND SWAP1 POP SWAP2 SWAP1 POP JUMP JUMPDEST PUSH1 0x0 PUSH1 0x3 PUSH1 0x0 DUP5 PUSH20 0xFFFFFFFFFFFFFFFFFFFFFFFFFFFFFFFFFFFFFFFF AND PUSH20 0xFFFFFFFFFFFFFFFFFFFFFFFFFFFFFFFFFFFFFFFF AND DUP2 MSTORE PUSH1 0x20 ADD SWAP1 DUP2 MSTORE PUSH1 0x20 ADD PUSH1 0x0 KECCAK256 PUSH1 0x0 DUP4 PUSH20 0xFFFFFFFFFFFFFFFFFFFFFFFFFFFFFFFFFFFFFFFF AND PUSH20 0xFFFFFFFFFFFFFFFFFFFFFFFFFFFFFFFFFFFFFFFF AND DUP2 MSTORE PUSH1 0x20 ADD SWAP1 DUP2 MSTORE PUSH1 0x20 ADD PUSH1 0x0 KECCAK256 SLOAD SWAP1 POP SWAP3 SWAP2 POP POP JUMP JUMPDEST PUSH2 0x127E PUSH2 0x1B25 JUMP JUMPDEST PUSH20 0xFFFFFFFFFFFFFFFFFFFFFFFFFFFFFFFFFFFFFFFF AND PUSH1 0x0 DUP1 SLOAD SWAP1 PUSH2 0x100 EXP SWAP1 DIV PUSH20 0xFFFFFFFFFFFFFFFFFFFFFFFFFFFFFFFFFFFFFFFF AND PUSH20 0xFFFFFFFFFFFFFFFFFFFFFFFFFFFFFFFFFFFFFFFF AND EQ PUSH2 0x133E JUMPI PUSH1 0x40 MLOAD PUSH32 0x8C379A000000000000000000000000000000000000000000000000000000000 DUP2 MSTORE PUSH1 0x4 ADD DUP1 DUP1 PUSH1 0x20 ADD DUP3 DUP2 SUB DUP3 MSTORE PUSH1 0x20 DUP2 MSTORE PUSH1 0x20 ADD DUP1 PUSH32 0x4F776E61626C653A2063616C6C6572206973206E6F7420746865206F776E6572 DUP2 MSTORE POP PUSH1 0x20 ADD SWAP2 POP POP PUSH1 0x40 MLOAD DUP1 SWAP2 SUB SWAP1 REVERT JUMPDEST PUSH1 0x4 PUSH1 0x0 DUP3 PUSH20 0xFFFFFFFFFFFFFFFFFFFFFFFFFFFFFFFFFFFFFFFF AND PUSH20 0xFFFFFFFFFFFFFFFFFFFFFFFFFFFFFFFFFFFFFFFF AND DUP2 MSTORE PUSH1 0x20 ADD SWAP1 DUP2 MSTORE PUSH1 0x20 ADD PUSH1 0x0 KECCAK256 PUSH1 0x0 SWAP1 SLOAD SWAP1 PUSH2 0x100 EXP SWAP1 DIV PUSH1 0xFF AND ISZERO PUSH2 0x13FE JUMPI PUSH1 0x40 MLOAD PUSH32 0x8C379A000000000000000000000000000000000000000000000000000000000 DUP2 MSTORE PUSH1 0x4 ADD DUP1 DUP1 PUSH1 0x20 ADD DUP3 DUP2 SUB DUP3 MSTORE PUSH1 0x1B DUP2 MSTORE PUSH1 0x20 ADD DUP1 PUSH32 0x4163636F756E7420697320616C7265616479206578636C756465640000000000 DUP2 MSTORE POP PUSH1 0x20 ADD SWAP2 POP POP PUSH1 0x40 MLOAD DUP1 SWAP2 SUB SWAP1 REVERT JUMPDEST PUSH1 0x0 PUSH1 0x1 PUSH1 0x0 DUP4 PUSH20 0xFFFFFFFFFFFFFFFFFFFFFFFFFFFFFFFFFFFFFFFF AND PUSH20 0xFFFFFFFFFFFFFFFFFFFFFFFFFFFFFFFFFFFFFFFF AND DUP2 MSTORE PUSH1 0x20 ADD SWAP1 DUP2 MSTORE PUSH1 0x20 ADD PUSH1 0x0 KECCAK256 SLOAD GT ISZERO PUSH2 0x14D2 JUMPI PUSH2 0x148E PUSH1 0x1 PUSH1 0x0 DUP4 PUSH20 0xFFFFFFFFFFFFFFFFFFFFFFFFFFFFFFFFFFFFFFFF AND PUSH20 0xFFFFFFFFFFFFFFFFFFFFFFFFFFFFFFFFFFFFFFFF AND DUP2 MSTORE PUSH1 0x20 ADD SWAP1 DUP2 MSTORE PUSH1 0x20 ADD PUSH1 0x0 KECCAK256 SLOAD PUSH2 0xB66 JUMP JUMPDEST PUSH1 0x2 PUSH1 0x0 DUP4 PUSH20 0xFFFFFFFFFFFFFFFFFFFFFFFFFFFFFFFFFFFFFFFF AND PUSH20 0xFFFFFFFFFFFFFFFFFFFFFFFFFFFFFFFFFFFFFFFF AND DUP2 MSTORE PUSH1 0x20 ADD SWAP1 DUP2 MSTORE PUSH1 0x20 ADD PUSH1 0x0 KECCAK256 DUP2 SWAP1 SSTORE POP JUMPDEST PUSH1 0x1 PUSH1 0x4 PUSH1 0x0 DUP4 PUSH20 0xFFFFFFFFFFFFFFFFFFFFFFFFFFFFFFFFFFFFFFFF AND PUSH20 0xFFFFFFFFFFFFFFFFFFFFFFFFFFFFFFFFFFFFFFFF AND DUP2 MSTORE PUSH1 0x20 ADD SWAP1 DUP2 MSTORE PUSH1 0x20 ADD PUSH1 0x0 KECCAK256 PUSH1 0x0 PUSH2 0x100 EXP DUP2 SLOAD DUP2 PUSH1 0xFF MUL NOT AND SWAP1 DUP4 ISZERO ISZERO MUL OR SWAP1 SSTORE POP PUSH1 0x5 DUP2 SWAP1 DUP1 PUSH1 0x1 DUP2 SLOAD ADD DUP1 DUP3 SSTORE DUP1 SWAP2 POP POP PUSH1 0x1 SWAP1 SUB SWAP1 PUSH1 0x0 MSTORE PUSH1 0x20 PUSH1 0x0 KECCAK256 ADD PUSH1 0x0 SWAP1 SWAP2 SWAP1 SWAP2 SWAP1 SWAP2 PUSH2 0x100 EXP DUP2 SLOAD DUP2 PUSH20 0xFFFFFFFFFFFFFFFFFFFFFFFFFFFFFFFFFFFFFFFF MUL NOT AND SWAP1 DUP4 PUSH20 0xFFFFFFFFFFFFFFFFFFFFFFFFFFFFFFFFFFFFFFFF AND MUL OR SWAP1 SSTORE POP POP JUMP JUMPDEST PUSH2 0x1598 PUSH2 0x1B25 JUMP JUMPDEST PUSH20 0xFFFFFFFFFFFFFFFFFFFFFFFFFFFFFFFFFFFFFFFF AND PUSH1 0x0 DUP1 SLOAD SWAP1 PUSH2 0x100 EXP SWAP1 DIV PUSH20 0xFFFFFFFFFFFFFFFFFFFFFFFFFFFFFFFFFFFFFFFF AND PUSH20 0xFFFFFFFFFFFFFFFFFFFFFFFFFFFFFFFFFFFFFFFF AND EQ PUSH2 0x1658 JUMPI PUSH1 0x40 MLOAD PUSH32 0x8C379A000000000000000000000000000000000000000000000000000000000 DUP2 MSTORE PUSH1 0x4 ADD DUP1 DUP1 PUSH1 0x20 ADD DUP3 DUP2 SUB DUP3 MSTORE PUSH1 0x20 DUP2 MSTORE PUSH1 0x20 ADD DUP1 PUSH32 0x4F776E61626C653A2063616C6C6572206973206E6F7420746865206F776E6572 DUP2 MSTORE POP PUSH1 0x20 ADD SWAP2 POP POP PUSH1 0x40 MLOAD DUP1 SWAP2 SUB SWAP1 REVERT JUMPDEST PUSH1 0x0 PUSH20 0xFFFFFFFFFFFFFFFFFFFFFFFFFFFFFFFFFFFFFFFF AND DUP2 PUSH20 0xFFFFFFFFFFFFFFFFFFFFFFFFFFFFFFFFFFFFFFFF AND EQ ISZERO PUSH2 0x16DE JUMPI PUSH1 0x40 MLOAD PUSH32 0x8C379A000000000000000000000000000000000000000000000000000000000 DUP2 MSTORE PUSH1 0x4 ADD DUP1 DUP1 PUSH1 0x20 ADD DUP3 DUP2 SUB DUP3 MSTORE PUSH1 0x26 DUP2 MSTORE PUSH1 0x20 ADD DUP1 PUSH2 0x3261 PUSH1 0x26 SWAP2 CODECOPY PUSH1 0x40 ADD SWAP2 POP POP PUSH1 0x40 MLOAD DUP1 SWAP2 SUB SWAP1 REVERT JUMPDEST DUP1 PUSH20 0xFFFFFFFFFFFFFFFFFFFFFFFFFFFFFFFFFFFFFFFF AND PUSH1 0x0 DUP1 SLOAD SWAP1 PUSH2 0x100 EXP SWAP1 DIV PUSH20 0xFFFFFFFFFFFFFFFFFFFFFFFFFFFFFFFFFFFFFFFF AND PUSH20 0xFFFFFFFFFFFFFFFFFFFFFFFFFFFFFFFFFFFFFFFF AND PUSH32 0x8BE0079C531659141344CD1FD0A4F28419497F9722A3DAAFE3B4186F6B6457E0 PUSH1 0x40 MLOAD PUSH1 0x40 MLOAD DUP1 SWAP2 SUB SWAP1 LOG3 DUP1 PUSH1 0x0 DUP1 PUSH2 0x100 EXP DUP2 SLOAD DUP2 PUSH20 0xFFFFFFFFFFFFFFFFFFFFFFFFFFFFFFFFFFFFFFFF MUL NOT AND SWAP1 DUP4 PUSH20 0xFFFFFFFFFFFFFFFFFFFFFFFFFFFFFFFFFFFFFFFF AND MUL OR SWAP1 SSTORE POP POP JUMP JUMPDEST PUSH2 0x17A3 PUSH2 0x1B25 JUMP JUMPDEST PUSH20 0xFFFFFFFFFFFFFFFFFFFFFFFFFFFFFFFFFFFFFFFF AND PUSH1 0x0 DUP1 SLOAD SWAP1 PUSH2 0x100 EXP SWAP1 DIV PUSH20 0xFFFFFFFFFFFFFFFFFFFFFFFFFFFFFFFFFFFFFFFF AND PUSH20 0xFFFFFFFFFFFFFFFFFFFFFFFFFFFFFFFFFFFFFFFF AND EQ PUSH2 0x1863 JUMPI PUSH1 0x40 MLOAD PUSH32 0x8C379A000000000000000000000000000000000000000000000000000000000 DUP2 MSTORE PUSH1 0x4 ADD DUP1 DUP1 PUSH1 0x20 ADD DUP3 DUP2 SUB DUP3 MSTORE PUSH1 0x20 DUP2 MSTORE PUSH1 0x20 ADD DUP1 PUSH32 0x4F776E61626C653A2063616C6C6572206973206E6F7420746865206F776E6572 DUP2 MSTORE POP PUSH1 0x20 ADD SWAP2 POP POP PUSH1 0x40 MLOAD DUP1 SWAP2 SUB SWAP1 REVERT JUMPDEST PUSH1 0x4 PUSH1 0x0 DUP3 PUSH20 0xFFFFFFFFFFFFFFFFFFFFFFFFFFFFFFFFFFFFFFFF AND PUSH20 0xFFFFFFFFFFFFFFFFFFFFFFFFFFFFFFFFFFFFFFFF AND DUP2 MSTORE PUSH1 0x20 ADD SWAP1 DUP2 MSTORE PUSH1 0x20 ADD PUSH1 0x0 KECCAK256 PUSH1 0x0 SWAP1 SLOAD SWAP1 PUSH2 0x100 EXP SWAP1 DIV PUSH1 0xFF AND PUSH2 0x1922 JUMPI PUSH1 0x40 MLOAD PUSH32 0x8C379A000000000000000000000000000000000000000000000000000000000 DUP2 MSTORE PUSH1 0x4 ADD DUP1 DUP1 PUSH1 0x20 ADD DUP3 DUP2 SUB DUP3 MSTORE PUSH1 0x1B DUP2 MSTORE PUSH1 0x20 ADD DUP1 PUSH32 0x4163636F756E7420697320616C7265616479206578636C756465640000000000 DUP2 MSTORE POP PUSH1 0x20 ADD SWAP2 POP POP PUSH1 0x40 MLOAD DUP1 SWAP2 SUB SWAP1 REVERT JUMPDEST PUSH1 0x0 JUMPDEST PUSH1 0x5 DUP1 SLOAD SWAP1 POP DUP2 LT ISZERO PUSH2 0x1B21 JUMPI DUP2 PUSH20 0xFFFFFFFFFFFFFFFFFFFFFFFFFFFFFFFFFFFFFFFF AND PUSH1 0x5 DUP3 DUP2 SLOAD DUP2 LT PUSH2 0x1956 JUMPI INVALID JUMPDEST SWAP1 PUSH1 0x0 MSTORE PUSH1 0x20 PUSH1 0x0 KECCAK256 ADD PUSH1 0x0 SWAP1 SLOAD SWAP1 PUSH2 0x100 EXP SWAP1 DIV PUSH20 0xFFFFFFFFFFFFFFFFFFFFFFFFFFFFFFFFFFFFFFFF AND PUSH20 0xFFFFFFFFFFFFFFFFFFFFFFFFFFFFFFFFFFFFFFFF AND EQ ISZERO PUSH2 0x1B14 JUMPI PUSH1 0x5 PUSH1 0x1 PUSH1 0x5 DUP1 SLOAD SWAP1 POP SUB DUP2 SLOAD DUP2 LT PUSH2 0x19B2 JUMPI INVALID JUMPDEST SWAP1 PUSH1 0x0 MSTORE PUSH1 0x20 PUSH1 0x0 KECCAK256 ADD PUSH1 0x0 SWAP1 SLOAD SWAP1 PUSH2 0x100 EXP SWAP1 DIV PUSH20 0xFFFFFFFFFFFFFFFFFFFFFFFFFFFFFFFFFFFFFFFF AND PUSH1 0x5 DUP3 DUP2 SLOAD DUP2 LT PUSH2 0x19EA JUMPI INVALID JUMPDEST SWAP1 PUSH1 0x0 MSTORE PUSH1 0x20 PUSH1 0x0 KECCAK256 ADD PUSH1 0x0 PUSH2 0x100 EXP DUP2 SLOAD DUP2 PUSH20 0xFFFFFFFFFFFFFFFFFFFFFFFFFFFFFFFFFFFFFFFF MUL NOT AND SWAP1 DUP4 PUSH20 0xFFFFFFFFFFFFFFFFFFFFFFFFFFFFFFFFFFFFFFFF AND MUL OR SWAP1 SSTORE POP PUSH1 0x0 PUSH1 0x2 PUSH1 0x0 DUP5 PUSH20 0xFFFFFFFFFFFFFFFFFFFFFFFFFFFFFFFFFFFFFFFF AND PUSH20 0xFFFFFFFFFFFFFFFFFFFFFFFFFFFFFFFFFFFFFFFF AND DUP2 MSTORE PUSH1 0x20 ADD SWAP1 DUP2 MSTORE PUSH1 0x20 ADD PUSH1 0x0 KECCAK256 DUP2 SWAP1 SSTORE POP PUSH1 0x0 PUSH1 0x4 PUSH1 0x0 DUP5 PUSH20 0xFFFFFFFFFFFFFFFFFFFFFFFFFFFFFFFFFFFFFFFF AND PUSH20 0xFFFFFFFFFFFFFFFFFFFFFFFFFFFFFFFFFFFFFFFF AND DUP2 MSTORE PUSH1 0x20 ADD SWAP1 DUP2 MSTORE PUSH1 0x20 ADD PUSH1 0x0 KECCAK256 PUSH1 0x0 PUSH2 0x100 EXP DUP2 SLOAD DUP2 PUSH1 0xFF MUL NOT AND SWAP1 DUP4 ISZERO ISZERO MUL OR SWAP1 SSTORE POP PUSH1 0x5 DUP1 SLOAD DUP1 PUSH2 0x1ADA JUMPI INVALID JUMPDEST PUSH1 0x1 SWAP1 SUB DUP2 DUP2 SWAP1 PUSH1 0x0 MSTORE PUSH1 0x20 PUSH1 0x0 KECCAK256 ADD PUSH1 0x0 PUSH2 0x100 EXP DUP2 SLOAD SWAP1 PUSH20 0xFFFFFFFFFFFFFFFFFFFFFFFFFFFFFFFFFFFFFFFF MUL NOT AND SWAP1 SSTORE SWAP1 SSTORE PUSH2 0x1B21 JUMP JUMPDEST DUP1 DUP1 PUSH1 0x1 ADD SWAP2 POP POP PUSH2 0x1925 JUMP JUMPDEST POP POP JUMP JUMPDEST PUSH1 0x0 CALLER SWAP1 POP SWAP1 JUMP JUMPDEST PUSH1 0x0 DUP1 PUSH1 0x0 DUP1 PUSH1 0x0 DUP1 PUSH1 0x0 PUSH2 0x1B41 DUP9 PUSH2 0x23DC JUMP JUMPDEST SWAP2 POP SWAP2 POP PUSH1 0x0 PUSH2 0x1B4F PUSH2 0x2367 JUMP JUMPDEST SWAP1 POP PUSH1 0x0 DUP1 PUSH1 0x0 PUSH2 0x1B61 DUP13 DUP7 DUP7 PUSH2 0x242E JUMP JUMPDEST SWAP3 POP SWAP3 POP SWAP3 POP DUP3 DUP3 DUP3 DUP9 DUP9 SWAP11 POP SWAP11 POP SWAP11 POP SWAP11 POP SWAP11 POP POP POP POP POP POP POP SWAP2 SWAP4 SWAP6 SWAP1 SWAP3 SWAP5 POP JUMP JUMPDEST PUSH1 0x0 PUSH2 0x1BC7 DUP4 DUP4 PUSH1 0x40 MLOAD DUP1 PUSH1 0x40 ADD PUSH1 0x40 MSTORE DUP1 PUSH1 0x1E DUP2 MSTORE PUSH1 0x20 ADD PUSH32 0x536166654D6174683A207375627472616374696F6E206F766572666C6F770000 DUP2 MSTORE POP PUSH2 0x22A7 JUMP JUMPDEST SWAP1 POP SWAP3 SWAP2 POP POP JUMP JUMPDEST PUSH1 0x0 DUP1 DUP3 DUP5 ADD SWAP1 POP DUP4 DUP2 LT ISZERO PUSH2 0x1C4D JUMPI PUSH1 0x40 MLOAD PUSH32 0x8C379A000000000000000000000000000000000000000000000000000000000 DUP2 MSTORE PUSH1 0x4 ADD DUP1 DUP1 PUSH1 0x20 ADD DUP3 DUP2 SUB DUP3 MSTORE PUSH1 0x1B DUP2 MSTORE PUSH1 0x20 ADD DUP1 PUSH32 0x536166654D6174683A206164646974696F6E206F766572666C6F770000000000 DUP2 MSTORE POP PUSH1 0x20 ADD SWAP2 POP POP PUSH1 0x40 MLOAD DUP1 SWAP2 SUB SWAP1 REVERT JUMPDEST DUP1 SWAP2 POP POP SWAP3 SWAP2 POP POP JUMP JUMPDEST PUSH1 0x0 PUSH20 0xFFFFFFFFFFFFFFFFFFFFFFFFFFFFFFFFFFFFFFFF AND DUP4 PUSH20 0xFFFFFFFFFFFFFFFFFFFFFFFFFFFFFFFFFFFFFFFF AND EQ ISZERO PUSH2 0x1CDD JUMPI PUSH1 0x40 MLOAD PUSH32 0x8C379A000000000000000000000000000000000000000000000000000000000 DUP2 MSTORE PUSH1 0x4 ADD DUP1 DUP1 PUSH1 0x20 ADD DUP3 DUP2 SUB DUP3 MSTORE PUSH1 0x24 DUP2 MSTORE PUSH1 0x20 ADD DUP1 PUSH2 0x3340 PUSH1 0x24 SWAP2 CODECOPY PUSH1 0x40 ADD SWAP2 POP POP PUSH1 0x40 MLOAD DUP1 SWAP2 SUB SWAP1 REVERT JUMPDEST PUSH1 0x0 PUSH20 0xFFFFFFFFFFFFFFFFFFFFFFFFFFFFFFFFFFFFFFFF AND DUP3 PUSH20 0xFFFFFFFFFFFFFFFFFFFFFFFFFFFFFFFFFFFFFFFF AND EQ ISZERO PUSH2 0x1D63 JUMPI PUSH1 0x40 MLOAD PUSH32 0x8C379A000000000000000000000000000000000000000000000000000000000 DUP2 MSTORE PUSH1 0x4 ADD DUP1 DUP1 PUSH1 0x20 ADD DUP3 DUP2 SUB DUP3 MSTORE PUSH1 0x22 DUP2 MSTORE PUSH1 0x20 ADD DUP1 PUSH2 0x3287 PUSH1 0x22 SWAP2 CODECOPY PUSH1 0x40 ADD SWAP2 POP POP PUSH1 0x40 MLOAD DUP1 SWAP2 SUB SWAP1 REVERT JUMPDEST DUP1 PUSH1 0x3 PUSH1 0x0 DUP6 PUSH20 0xFFFFFFFFFFFFFFFFFFFFFFFFFFFFFFFFFFFFFFFF AND PUSH20 0xFFFFFFFFFFFFFFFFFFFFFFFFFFFFFFFFFFFFFFFF AND DUP2 MSTORE PUSH1 0x20 ADD SWAP1 DUP2 MSTORE PUSH1 0x20 ADD PUSH1 0x0 KECCAK256 PUSH1 0x0 DUP5 PUSH20 0xFFFFFFFFFFFFFFFFFFFFFFFFFFFFFFFFFFFFFFFF AND PUSH20 0xFFFFFFFFFFFFFFFFFFFFFFFFFFFFFFFFFFFFFFFF AND DUP2 MSTORE PUSH1 0x20 ADD SWAP1 DUP2 MSTORE PUSH1 0x20 ADD PUSH1 0x0 KECCAK256 DUP2 SWAP1 SSTORE POP DUP2 PUSH20 0xFFFFFFFFFFFFFFFFFFFFFFFFFFFFFFFFFFFFFFFF AND DUP4 PUSH20 0xFFFFFFFFFFFFFFFFFFFFFFFFFFFFFFFFFFFFFFFF AND PUSH32 0x8C5BE1E5EBEC7D5BD14F71427D1E84F3DD0314C0F7B2291E5B200AC8C7C3B925 DUP4 PUSH1 0x40 MLOAD DUP1 DUP3 DUP2 MSTORE PUSH1 0x20 ADD SWAP2 POP POP PUSH1 0x40 MLOAD DUP1 SWAP2 SUB SWAP1 LOG3 POP POP POP JUMP JUMPDEST PUSH1 0x0 PUSH20 0xFFFFFFFFFFFFFFFFFFFFFFFFFFFFFFFFFFFFFFFF AND DUP4 PUSH20 0xFFFFFFFFFFFFFFFFFFFFFFFFFFFFFFFFFFFFFFFF AND EQ ISZERO PUSH2 0x1ED4 JUMPI PUSH1 0x40 MLOAD PUSH32 0x8C379A000000000000000000000000000000000000000000000000000000000 DUP2 MSTORE PUSH1 0x4 ADD DUP1 DUP1 PUSH1 0x20 ADD DUP3 DUP2 SUB DUP3 MSTORE PUSH1 0x25 DUP2 MSTORE PUSH1 0x20 ADD DUP1 PUSH2 0x331B PUSH1 0x25 SWAP2 CODECOPY PUSH1 0x40 ADD SWAP2 POP POP PUSH1 0x40 MLOAD DUP1 SWAP2 SUB SWAP1 REVERT JUMPDEST PUSH1 0x0 PUSH20 0xFFFFFFFFFFFFFFFFFFFFFFFFFFFFFFFFFFFFFFFF AND DUP3 PUSH20 0xFFFFFFFFFFFFFFFFFFFFFFFFFFFFFFFFFFFFFFFF AND EQ ISZERO PUSH2 0x1F5A JUMPI PUSH1 0x40 MLOAD PUSH32 0x8C379A000000000000000000000000000000000000000000000000000000000 DUP2 MSTORE PUSH1 0x4 ADD DUP1 DUP1 PUSH1 0x20 ADD DUP3 DUP2 SUB DUP3 MSTORE PUSH1 0x23 DUP2 MSTORE PUSH1 0x20 ADD DUP1 PUSH2 0x3214 PUSH1 0x23 SWAP2 CODECOPY PUSH1 0x40 ADD SWAP2 POP POP PUSH1 0x40 MLOAD DUP1 SWAP2 SUB SWAP1 REVERT JUMPDEST PUSH1 0x0 DUP2 GT PUSH2 0x1FB3 JUMPI PUSH1 0x40 MLOAD PUSH32 0x8C379A000000000000000000000000000000000000000000000000000000000 DUP2 MSTORE PUSH1 0x4 ADD DUP1 DUP1 PUSH1 0x20 ADD DUP3 DUP2 SUB DUP3 MSTORE PUSH1 0x29 DUP2 MSTORE PUSH1 0x20 ADD DUP1 PUSH2 0x32F2 PUSH1 0x29 SWAP2 CODECOPY PUSH1 0x40 ADD SWAP2 POP POP PUSH1 0x40 MLOAD DUP1 SWAP2 SUB SWAP1 REVERT JUMPDEST PUSH1 0x4 PUSH1 0x0 DUP5 PUSH20 0xFFFFFFFFFFFFFFFFFFFFFFFFFFFFFFFFFFFFFFFF AND PUSH20 0xFFFFFFFFFFFFFFFFFFFFFFFFFFFFFFFFFFFFFFFF AND DUP2 MSTORE PUSH1 0x20 ADD SWAP1 DUP2 MSTORE PUSH1 0x20 ADD PUSH1 0x0 KECCAK256 PUSH1 0x0 SWAP1 SLOAD SWAP1 PUSH2 0x100 EXP SWAP1 DIV PUSH1 0xFF AND DUP1 ISZERO PUSH2 0x2056 JUMPI POP PUSH1 0x4 PUSH1 0x0 DUP4 PUSH20 0xFFFFFFFFFFFFFFFFFFFFFFFFFFFFFFFFFFFFFFFF AND PUSH20 0xFFFFFFFFFFFFFFFFFFFFFFFFFFFFFFFFFFFFFFFF AND DUP2 MSTORE PUSH1 0x20 ADD SWAP1 DUP2 MSTORE PUSH1 0x20 ADD PUSH1 0x0 KECCAK256 PUSH1 0x0 SWAP1 SLOAD SWAP1 PUSH2 0x100 EXP SWAP1 DIV PUSH1 0xFF AND ISZERO JUMPDEST ISZERO PUSH2 0x206B JUMPI PUSH2 0x2066 DUP4 DUP4 DUP4 PUSH2 0x248C JUMP JUMPDEST PUSH2 0x22A2 JUMP JUMPDEST PUSH1 0x4 PUSH1 0x0 DUP5 PUSH20 0xFFFFFFFFFFFFFFFFFFFFFFFFFFFFFFFFFFFFFFFF AND PUSH20 0xFFFFFFFFFFFFFFFFFFFFFFFFFFFFFFFFFFFFFFFF AND DUP2 MSTORE PUSH1 0x20 ADD SWAP1 DUP2 MSTORE PUSH1 0x20 ADD PUSH1 0x0 KECCAK256 PUSH1 0x0 SWAP1 SLOAD SWAP1 PUSH2 0x100 EXP SWAP1 DIV PUSH1 0xFF AND ISZERO DUP1 ISZERO PUSH2 0x210E JUMPI POP PUSH1 0x4 PUSH1 0x0 DUP4 PUSH20 0xFFFFFFFFFFFFFFFFFFFFFFFFFFFFFFFFFFFFFFFF AND PUSH20 0xFFFFFFFFFFFFFFFFFFFFFFFFFFFFFFFFFFFFFFFF AND DUP2 MSTORE PUSH1 0x20 ADD SWAP1 DUP2 MSTORE PUSH1 0x20 ADD PUSH1 0x0 KECCAK256 PUSH1 0x0 SWAP1 SLOAD SWAP1 PUSH2 0x100 EXP SWAP1 DIV PUSH1 0xFF AND JUMPDEST ISZERO PUSH2 0x2123 JUMPI PUSH2 0x211E DUP4 DUP4 DUP4 PUSH2 0x26DF JUMP JUMPDEST PUSH2 0x22A1 JUMP JUMPDEST PUSH1 0x4 PUSH1 0x0 DUP5 PUSH20 0xFFFFFFFFFFFFFFFFFFFFFFFFFFFFFFFFFFFFFFFF AND PUSH20 0xFFFFFFFFFFFFFFFFFFFFFFFFFFFFFFFFFFFFFFFF AND DUP2 MSTORE PUSH1 0x20 ADD SWAP1 DUP2 MSTORE PUSH1 0x20 ADD PUSH1 0x0 KECCAK256 PUSH1 0x0 SWAP1 SLOAD SWAP1 PUSH2 0x100 EXP SWAP1 DIV PUSH1 0xFF AND ISZERO DUP1 ISZERO PUSH2 0x21C7 JUMPI POP PUSH1 0x4 PUSH1 0x0 DUP4 PUSH20 0xFFFFFFFFFFFFFFFFFFFFFFFFFFFFFFFFFFFFFFFF AND PUSH20 0xFFFFFFFFFFFFFFFFFFFFFFFFFFFFFFFFFFFFFFFF AND DUP2 MSTORE PUSH1 0x20 ADD SWAP1 DUP2 MSTORE PUSH1 0x20 ADD PUSH1 0x0 KECCAK256 PUSH1 0x0 SWAP1 SLOAD SWAP1 PUSH2 0x100 EXP SWAP1 DIV PUSH1 0xFF AND ISZERO JUMPDEST ISZERO PUSH2 0x21DC JUMPI PUSH2 0x21D7 DUP4 DUP4 DUP4 PUSH2 0x2932 JUMP JUMPDEST PUSH2 0x22A0 JUMP JUMPDEST PUSH1 0x4 PUSH1 0x0 DUP5 PUSH20 0xFFFFFFFFFFFFFFFFFFFFFFFFFFFFFFFFFFFFFFFF AND PUSH20 0xFFFFFFFFFFFFFFFFFFFFFFFFFFFFFFFFFFFFFFFF AND DUP2 MSTORE PUSH1 0x20 ADD SWAP1 DUP2 MSTORE PUSH1 0x20 ADD PUSH1 0x0 KECCAK256 PUSH1 0x0 SWAP1 SLOAD SWAP1 PUSH2 0x100 EXP SWAP1 DIV PUSH1 0xFF AND DUP1 ISZERO PUSH2 0x227E JUMPI POP PUSH1 0x4 PUSH1 0x0 DUP4 PUSH20 0xFFFFFFFFFFFFFFFFFFFFFFFFFFFFFFFFFFFFFFFF AND PUSH20 0xFFFFFFFFFFFFFFFFFFFFFFFFFFFFFFFFFFFFFFFF AND DUP2 MSTORE PUSH1 0x20 ADD SWAP1 DUP2 MSTORE PUSH1 0x20 ADD PUSH1 0x0 KECCAK256 PUSH1 0x0 SWAP1 SLOAD SWAP1 PUSH2 0x100 EXP SWAP1 DIV PUSH1 0xFF AND JUMPDEST ISZERO PUSH2 0x2293 JUMPI PUSH2 0x228E DUP4 DUP4 DUP4 PUSH2 0x2AF0 JUMP JUMPDEST PUSH2 0x229F JUMP JUMPDEST PUSH2 0x229E DUP4 DUP4 DUP4 PUSH2 0x2932 JUMP JUMPDEST JUMPDEST JUMPDEST JUMPDEST JUMPDEST POP POP POP JUMP JUMPDEST PUSH1 0x0 DUP4 DUP4 GT ISZERO DUP3 SWAP1 PUSH2 0x2354 JUMPI PUSH1 0x40 MLOAD PUSH32 0x8C379A000000000000000000000000000000000000000000000000000000000 DUP2 MSTORE PUSH1 0x4 ADD DUP1 DUP1 PUSH1 0x20 ADD DUP3 DUP2 SUB DUP3 MSTORE DUP4 DUP2 DUP2 MLOAD DUP2 MSTORE PUSH1 0x20 ADD SWAP2 POP DUP1 MLOAD SWAP1 PUSH1 0x20 ADD SWAP1 DUP1 DUP4 DUP4 PUSH1 0x0 JUMPDEST DUP4 DUP2 LT ISZERO PUSH2 0x2319 JUMPI DUP1 DUP3 ADD MLOAD DUP2 DUP5 ADD MSTORE PUSH1 0x20 DUP2 ADD SWAP1 POP PUSH2 0x22FE JUMP JUMPDEST POP POP POP POP SWAP1 POP SWAP1 DUP2 ADD SWAP1 PUSH1 0x1F AND DUP1 ISZERO PUSH2 0x2346 JUMPI DUP1 DUP3 SUB DUP1 MLOAD PUSH1 0x1 DUP4 PUSH1 0x20 SUB PUSH2 0x100 EXP SUB NOT AND DUP2 MSTORE PUSH1 0x20 ADD SWAP2 POP JUMPDEST POP SWAP3 POP POP POP PUSH1 0x40 MLOAD DUP1 SWAP2 SUB SWAP1 REVERT JUMPDEST POP PUSH1 0x0 DUP4 DUP6 SUB SWAP1 POP DUP1 SWAP2 POP POP SWAP4 SWAP3 POP POP POP JUMP JUMPDEST PUSH1 0x0 DUP1 PUSH1 0x0 PUSH2 0x2374 PUSH2 0x2DD8 JUMP JUMPDEST SWAP2 POP SWAP2 POP PUSH2 0x238B DUP2 DUP4 PUSH2 0x2392 SWAP1 SWAP2 SWAP1 PUSH4 0xFFFFFFFF AND JUMP JUMPDEST SWAP3 POP POP POP SWAP1 JUMP JUMPDEST PUSH1 0x0 PUSH2 0x23D4 DUP4 DUP4 PUSH1 0x40 MLOAD DUP1 PUSH1 0x40 ADD PUSH1 0x40 MSTORE DUP1 PUSH1 0x1A DUP2 MSTORE PUSH1 0x20 ADD PUSH32 0x536166654D6174683A206469766973696F6E206279207A65726F000000000000 DUP2 MSTORE POP PUSH2 0x308D JUMP JUMPDEST SWAP1 POP SWAP3 SWAP2 POP POP JUMP JUMPDEST PUSH1 0x0 DUP1 PUSH1 0x0 PUSH2 0x2408 PUSH1 0x2 PUSH2 0x23FA PUSH1 0x64 DUP8 PUSH2 0x2392 SWAP1 SWAP2 SWAP1 PUSH4 0xFFFFFFFF AND JUMP JUMPDEST PUSH2 0x3153 SWAP1 SWAP2 SWAP1 PUSH4 0xFFFFFFFF AND JUMP JUMPDEST SWAP1 POP PUSH1 0x0 PUSH2 0x241F DUP3 DUP7 PUSH2 0x1B85 SWAP1 SWAP2 SWAP1 PUSH4 0xFFFFFFFF AND JUMP JUMPDEST SWAP1 POP DUP1 DUP3 SWAP4 POP SWAP4 POP POP POP SWAP2 POP SWAP2 JUMP JUMPDEST PUSH1 0x0 DUP1 PUSH1 0x0 DUP1 PUSH2 0x2447 DUP6 DUP9 PUSH2 0x3153 SWAP1 SWAP2 SWAP1 PUSH4 0xFFFFFFFF AND JUMP JUMPDEST SWAP1 POP PUSH1 0x0 PUSH2 0x245E DUP7 DUP9 PUSH2 0x3153 SWAP1 SWAP2 SWAP1 PUSH4 0xFFFFFFFF AND JUMP JUMPDEST SWAP1 POP PUSH1 0x0 PUSH2 0x2475 DUP3 DUP5 PUSH2 0x1B85 SWAP1 SWAP2 SWAP1 PUSH4 0xFFFFFFFF AND JUMP JUMPDEST SWAP1 POP DUP3 DUP2 DUP4 SWAP6 POP SWAP6 POP SWAP6 POP POP POP POP SWAP4 POP SWAP4 POP SWAP4 SWAP1 POP JUMP JUMPDEST PUSH1 0x0 DUP1 PUSH1 0x0 DUP1 PUSH1 0x0 PUSH2 0x249D DUP7 PUSH2 0x1B2D JUMP JUMPDEST SWAP5 POP SWAP5 POP SWAP5 POP SWAP5 POP SWAP5 POP PUSH2 0x24F9 DUP7 PUSH1 0x2 PUSH1 0x0 DUP12 PUSH20 0xFFFFFFFFFFFFFFFFFFFFFFFFFFFFFFFFFFFFFFFF AND PUSH20 0xFFFFFFFFFFFFFFFFFFFFFFFFFFFFFFFFFFFFFFFF AND DUP2 MSTORE PUSH1 0x20 ADD SWAP1 DUP2 MSTORE PUSH1 0x20 ADD PUSH1 0x0 KECCAK256 SLOAD PUSH2 0x1B85 SWAP1 SWAP2 SWAP1 PUSH4 0xFFFFFFFF AND JUMP JUMPDEST PUSH1 0x2 PUSH1 0x0 DUP11 PUSH20 0xFFFFFFFFFFFFFFFFFFFFFFFFFFFFFFFFFFFFFFFF AND PUSH20 0xFFFFFFFFFFFFFFFFFFFFFFFFFFFFFFFFFFFFFFFF AND DUP2 MSTORE PUSH1 0x20 ADD SWAP1 DUP2 MSTORE PUSH1 0x20 ADD PUSH1 0x0 KECCAK256 DUP2 SWAP1 SSTORE POP PUSH2 0x258E DUP6 PUSH1 0x1 PUSH1 0x0 DUP12 PUSH20 0xFFFFFFFFFFFFFFFFFFFFFFFFFFFFFFFFFFFFFFFF AND PUSH20 0xFFFFFFFFFFFFFFFFFFFFFFFFFFFFFFFFFFFFFFFF AND DUP2 MSTORE PUSH1 0x20 ADD SWAP1 DUP2 MSTORE PUSH1 0x20 ADD PUSH1 0x0 KECCAK256 SLOAD PUSH2 0x1B85 SWAP1 SWAP2 SWAP1 PUSH4 0xFFFFFFFF AND JUMP JUMPDEST PUSH1 0x1 PUSH1 0x0 DUP11 PUSH20 0xFFFFFFFFFFFFFFFFFFFFFFFFFFFFFFFFFFFFFFFF AND PUSH20 0xFFFFFFFFFFFFFFFFFFFFFFFFFFFFFFFFFFFFFFFF AND DUP2 MSTORE PUSH1 0x20 ADD SWAP1 DUP2 MSTORE PUSH1 0x20 ADD PUSH1 0x0 KECCAK256 DUP2 SWAP1 SSTORE POP PUSH2 0x2623 DUP5 PUSH1 0x1 PUSH1 0x0 DUP11 PUSH20 0xFFFFFFFFFFFFFFFFFFFFFFFFFFFFFFFFFFFFFFFF AND PUSH20 0xFFFFFFFFFFFFFFFFFFFFFFFFFFFFFFFFFFFFFFFF AND DUP2 MSTORE PUSH1 0x20 ADD SWAP1 DUP2 MSTORE PUSH1 0x20 ADD PUSH1 0x0 KECCAK256 SLOAD PUSH2 0x1BCF SWAP1 SWAP2 SWAP1 PUSH4 0xFFFFFFFF AND JUMP JUMPDEST PUSH1 0x1 PUSH1 0x0 DUP10 PUSH20 0xFFFFFFFFFFFFFFFFFFFFFFFFFFFFFFFFFFFFFFFF AND PUSH20 0xFFFFFFFFFFFFFFFFFFFFFFFFFFFFFFFFFFFFFFFF AND DUP2 MSTORE PUSH1 0x20 ADD SWAP1 DUP2 MSTORE PUSH1 0x20 ADD PUSH1 0x0 KECCAK256 DUP2 SWAP1 SSTORE POP PUSH2 0x2670 DUP4 DUP3 PUSH2 0x31D9 JUMP JUMPDEST DUP7 PUSH20 0xFFFFFFFFFFFFFFFFFFFFFFFFFFFFFFFFFFFFFFFF AND DUP9 PUSH20 0xFFFFFFFFFFFFFFFFFFFFFFFFFFFFFFFFFFFFFFFF AND PUSH32 0xDDF252AD1BE2C89B69C2B068FC378DAA952BA7F163C4A11628F55A4DF523B3EF DUP5 PUSH1 0x40 MLOAD DUP1 DUP3 DUP2 MSTORE PUSH1 0x20 ADD SWAP2 POP POP PUSH1 0x40 MLOAD DUP1 SWAP2 SUB SWAP1 LOG3 POP POP POP POP POP POP POP POP JUMP JUMPDEST PUSH1 0x0 DUP1 PUSH1 0x0 DUP1 PUSH1 0x0 PUSH2 0x26F0 DUP7 PUSH2 0x1B2D JUMP JUMPDEST SWAP5 POP SWAP5 POP SWAP5 POP SWAP5 POP SWAP5 POP PUSH2 0x274C DUP6 PUSH1 0x1 PUSH1 0x0 DUP12 PUSH20 0xFFFFFFFFFFFFFFFFFFFFFFFFFFFFFFFFFFFFFFFF AND PUSH20 0xFFFFFFFFFFFFFFFFFFFFFFFFFFFFFFFFFFFFFFFF AND DUP2 MSTORE PUSH1 0x20 ADD SWAP1 DUP2 MSTORE PUSH1 0x20 ADD PUSH1 0x0 KECCAK256 SLOAD PUSH2 0x1B85 SWAP1 SWAP2 SWAP1 PUSH4 0xFFFFFFFF AND JUMP JUMPDEST PUSH1 0x1 PUSH1 0x0 DUP11 PUSH20 0xFFFFFFFFFFFFFFFFFFFFFFFFFFFFFFFFFFFFFFFF AND PUSH20 0xFFFFFFFFFFFFFFFFFFFFFFFFFFFFFFFFFFFFFFFF AND DUP2 MSTORE PUSH1 0x20 ADD SWAP1 DUP2 MSTORE PUSH1 0x20 ADD PUSH1 0x0 KECCAK256 DUP2 SWAP1 SSTORE POP PUSH2 0x27E1 DUP3 PUSH1 0x2 PUSH1 0x0 DUP11 PUSH20 0xFFFFFFFFFFFFFFFFFFFFFFFFFFFFFFFFFFFFFFFF AND PUSH20 0xFFFFFFFFFFFFFFFFFFFFFFFFFFFFFFFFFFFFFFFF AND DUP2 MSTORE PUSH1 0x20 ADD SWAP1 DUP2 MSTORE PUSH1 0x20 ADD PUSH1 0x0 KECCAK256 SLOAD PUSH2 0x1BCF SWAP1 SWAP2 SWAP1 PUSH4 0xFFFFFFFF AND JUMP JUMPDEST PUSH1 0x2 PUSH1 0x0 DUP10 PUSH20 0xFFFFFFFFFFFFFFFFFFFFFFFFFFFFFFFFFFFFFFFF AND PUSH20 0xFFFFFFFFFFFFFFFFFFFFFFFFFFFFFFFFFFFFFFFF AND DUP2 MSTORE PUSH1 0x20 ADD SWAP1 DUP2 MSTORE PUSH1 0x20 ADD PUSH1 0x0 KECCAK256 DUP2 SWAP1 SSTORE POP PUSH2 0x2876 DUP5 PUSH1 0x1 PUSH1 0x0 DUP11 PUSH20 0xFFFFFFFFFFFFFFFFFFFFFFFFFFFFFFFFFFFFFFFF AND PUSH20 0xFFFFFFFFFFFFFFFFFFFFFFFFFFFFFFFFFFFFFFFF AND DUP2 MSTORE PUSH1 0x20 ADD SWAP1 DUP2 MSTORE PUSH1 0x20 ADD PUSH1 0x0 KECCAK256 SLOAD PUSH2 0x1BCF SWAP1 SWAP2 SWAP1 PUSH4 0xFFFFFFFF AND JUMP JUMPDEST PUSH1 0x1 PUSH1 0x0 DUP10 PUSH20 0xFFFFFFFFFFFFFFFFFFFFFFFFFFFFFFFFFFFFFFFF AND PUSH20 0xFFFFFFFFFFFFFFFFFFFFFFFFFFFFFFFFFFFFFFFF AND DUP2 MSTORE PUSH1 0x20 ADD SWAP1 DUP2 MSTORE PUSH1 0x20 ADD PUSH1 0x0 KECCAK256 DUP2 SWAP1 SSTORE POP PUSH2 0x28C3 DUP4 DUP3 PUSH2 0x31D9 JUMP JUMPDEST DUP7 PUSH20 0xFFFFFFFFFFFFFFFFFFFFFFFFFFFFFFFFFFFFFFFF AND DUP9 PUSH20 0xFFFFFFFFFFFFFFFFFFFFFFFFFFFFFFFFFFFFFFFF AND PUSH32 0xDDF252AD1BE2C89B69C2B068FC378DAA952BA7F163C4A11628F55A4DF523B3EF DUP5 PUSH1 0x40 MLOAD DUP1 DUP3 DUP2 MSTORE PUSH1 0x20 ADD SWAP2 POP POP PUSH1 0x40 MLOAD DUP1 SWAP2 SUB SWAP1 LOG3 POP POP POP POP POP POP POP POP JUMP JUMPDEST PUSH1 0x0 DUP1 PUSH1 0x0 DUP1 PUSH1 0x0 PUSH2 0x2943 DUP7 PUSH2 0x1B2D JUMP JUMPDEST SWAP5 POP SWAP5 POP SWAP5 POP SWAP5 POP SWAP5 POP PUSH2 0x299F DUP6 PUSH1 0x1 PUSH1 0x0 DUP12 PUSH20 0xFFFFFFFFFFFFFFFFFFFFFFFFFFFFFFFFFFFFFFFF AND PUSH20 0xFFFFFFFFFFFFFFFFFFFFFFFFFFFFFFFFFFFFFFFF AND DUP2 MSTORE PUSH1 0x20 ADD SWAP1 DUP2 MSTORE PUSH1 0x20 ADD PUSH1 0x0 KECCAK256 SLOAD PUSH2 0x1B85 SWAP1 SWAP2 SWAP1 PUSH4 0xFFFFFFFF AND JUMP JUMPDEST PUSH1 0x1 PUSH1 0x0 DUP11 PUSH20 0xFFFFFFFFFFFFFFFFFFFFFFFFFFFFFFFFFFFFFFFF AND PUSH20 0xFFFFFFFFFFFFFFFFFFFFFFFFFFFFFFFFFFFFFFFF AND DUP2 MSTORE PUSH1 0x20 ADD SWAP1 DUP2 MSTORE PUSH1 0x20 ADD PUSH1 0x0 KECCAK256 DUP2 SWAP1 SSTORE POP PUSH2 0x2A34 DUP5 PUSH1 0x1 PUSH1 0x0 DUP11 PUSH20 0xFFFFFFFFFFFFFFFFFFFFFFFFFFFFFFFFFFFFFFFF AND PUSH20 0xFFFFFFFFFFFFFFFFFFFFFFFFFFFFFFFFFFFFFFFF AND DUP2 MSTORE PUSH1 0x20 ADD SWAP1 DUP2 MSTORE PUSH1 0x20 ADD PUSH1 0x0 KECCAK256 SLOAD PUSH2 0x1BCF SWAP1 SWAP2 SWAP1 PUSH4 0xFFFFFFFF AND JUMP JUMPDEST PUSH1 0x1 PUSH1 0x0 DUP10 PUSH20 0xFFFFFFFFFFFFFFFFFFFFFFFFFFFFFFFFFFFFFFFF AND PUSH20 0xFFFFFFFFFFFFFFFFFFFFFFFFFFFFFFFFFFFFFFFF AND DUP2 MSTORE PUSH1 0x20 ADD SWAP1 DUP2 MSTORE PUSH1 0x20 ADD PUSH1 0x0 KECCAK256 DUP2 SWAP1 SSTORE POP PUSH2 0x2A81 DUP4 DUP3 PUSH2 0x31D9 JUMP JUMPDEST DUP7 PUSH20 0xFFFFFFFFFFFFFFFFFFFFFFFFFFFFFFFFFFFFFFFF AND DUP9 PUSH20 0xFFFFFFFFFFFFFFFFFFFFFFFFFFFFFFFFFFFFFFFF AND PUSH32 0xDDF252AD1BE2C89B69C2B068FC378DAA952BA7F163C4A11628F55A4DF523B3EF DUP5 PUSH1 0x40 MLOAD DUP1 DUP3 DUP2 MSTORE PUSH1 0x20 ADD SWAP2 POP POP PUSH1 0x40 MLOAD DUP1 SWAP2 SUB SWAP1 LOG3 POP POP POP POP POP POP POP POP JUMP JUMPDEST PUSH1 0x0 DUP1 PUSH1 0x0 DUP1 PUSH1 0x0 PUSH2 0x2B01 DUP7 PUSH2 0x1B2D JUMP JUMPDEST SWAP5 POP SWAP5 POP SWAP5 POP SWAP5 POP SWAP5 POP PUSH2 0x2B5D DUP7 PUSH1 0x2 PUSH1 0x0 DUP12 PUSH20 0xFFFFFFFFFFFFFFFFFFFFFFFFFFFFFFFFFFFFFFFF AND PUSH20 0xFFFFFFFFFFFFFFFFFFFFFFFFFFFFFFFFFFFFFFFF AND DUP2 MSTORE PUSH1 0x20 ADD SWAP1 DUP2 MSTORE PUSH1 0x20 ADD PUSH1 0x0 KECCAK256 SLOAD PUSH2 0x1B85 SWAP1 SWAP2 SWAP1 PUSH4 0xFFFFFFFF AND JUMP JUMPDEST PUSH1 0x2 PUSH1 0x0 DUP11 PUSH20 0xFFFFFFFFFFFFFFFFFFFFFFFFFFFFFFFFFFFFFFFF AND PUSH20 0xFFFFFFFFFFFFFFFFFFFFFFFFFFFFFFFFFFFFFFFF AND DUP2 MSTORE PUSH1 0x20 ADD SWAP1 DUP2 MSTORE PUSH1 0x20 ADD PUSH1 0x0 KECCAK256 DUP2 SWAP1 SSTORE POP PUSH2 0x2BF2 DUP6 PUSH1 0x1 PUSH1 0x0 DUP12 PUSH20 0xFFFFFFFFFFFFFFFFFFFFFFFFFFFFFFFFFFFFFFFF AND PUSH20 0xFFFFFFFFFFFFFFFFFFFFFFFFFFFFFFFFFFFFFFFF AND DUP2 MSTORE PUSH1 0x20 ADD SWAP1 DUP2 MSTORE PUSH1 0x20 ADD PUSH1 0x0 KECCAK256 SLOAD PUSH2 0x1B85 SWAP1 SWAP2 SWAP1 PUSH4 0xFFFFFFFF AND JUMP JUMPDEST PUSH1 0x1 PUSH1 0x0 DUP11 PUSH20 0xFFFFFFFFFFFFFFFFFFFFFFFFFFFFFFFFFFFFFFFF AND PUSH20 0xFFFFFFFFFFFFFFFFFFFFFFFFFFFFFFFFFFFFFFFF AND DUP2 MSTORE PUSH1 0x20 ADD SWAP1 DUP2 MSTORE PUSH1 0x20 ADD PUSH1 0x0 KECCAK256 DUP2 SWAP1 SSTORE POP PUSH2 0x2C87 DUP3 PUSH1 0x2 PUSH1 0x0 DUP11 PUSH20 0xFFFFFFFFFFFFFFFFFFFFFFFFFFFFFFFFFFFFFFFF AND PUSH20 0xFFFFFFFFFFFFFFFFFFFFFFFFFFFFFFFFFFFFFFFF AND DUP2 MSTORE PUSH1 0x20 ADD SWAP1 DUP2 MSTORE PUSH1 0x20 ADD PUSH1 0x0 KECCAK256 SLOAD PUSH2 0x1BCF SWAP1 SWAP2 SWAP1 PUSH4 0xFFFFFFFF AND JUMP JUMPDEST PUSH1 0x2 PUSH1 0x0 DUP10 PUSH20 0xFFFFFFFFFFFFFFFFFFFFFFFFFFFFFFFFFFFFFFFF AND PUSH20 0xFFFFFFFFFFFFFFFFFFFFFFFFFFFFFFFFFFFFFFFF AND DUP2 MSTORE PUSH1 0x20 ADD SWAP1 DUP2 MSTORE PUSH1 0x20 ADD PUSH1 0x0 KECCAK256 DUP2 SWAP1 SSTORE POP PUSH2 0x2D1C DUP5 PUSH1 0x1 PUSH1 0x0 DUP11 PUSH20 0xFFFFFFFFFFFFFFFFFFFFFFFFFFFFFFFFFFFFFFFF AND PUSH20 0xFFFFFFFFFFFFFFFFFFFFFFFFFFFFFFFFFFFFFFFF AND DUP2 MSTORE PUSH1 0x20 ADD SWAP1 DUP2 MSTORE PUSH1 0x20 ADD PUSH1 0x0 KECCAK256 SLOAD PUSH2 0x1BCF SWAP1 SWAP2 SWAP1 PUSH4 0xFFFFFFFF AND JUMP JUMPDEST PUSH1 0x1 PUSH1 0x0 DUP10 PUSH20 0xFFFFFFFFFFFFFFFFFFFFFFFFFFFFFFFFFFFFFFFF AND PUSH20 0xFFFFFFFFFFFFFFFFFFFFFFFFFFFFFFFFFFFFFFFF AND DUP2 MSTORE PUSH1 0x20 ADD SWAP1 DUP2 MSTORE PUSH1 0x20 ADD PUSH1 0x0 KECCAK256 DUP2 SWAP1 SSTORE POP PUSH2 0x2D69 DUP4 DUP3 PUSH2 0x31D9 JUMP JUMPDEST DUP7 PUSH20 0xFFFFFFFFFFFFFFFFFFFFFFFFFFFFFFFFFFFFFFFF AND DUP9 PUSH20 0xFFFFFFFFFFFFFFFFFFFFFFFFFFFFFFFFFFFFFFFF AND PUSH32 0xDDF252AD1BE2C89B69C2B068FC378DAA952BA7F163C4A11628F55A4DF523B3EF DUP5 PUSH1 0x40 MLOAD DUP1 DUP3 DUP2 MSTORE PUSH1 0x20 ADD SWAP2 POP POP PUSH1 0x40 MLOAD DUP1 SWAP2 SUB SWAP1 LOG3 POP POP POP POP POP POP POP POP JUMP JUMPDEST PUSH1 0x0 DUP1 PUSH1 0x0 PUSH1 0x6 SLOAD SWAP1 POP PUSH1 0x0 PUSH11 0x52B7D2DCC80CD2E4000000 SWAP1 POP PUSH1 0x0 JUMPDEST PUSH1 0x5 DUP1 SLOAD SWAP1 POP DUP2 LT ISZERO PUSH2 0x303E JUMPI DUP3 PUSH1 0x1 PUSH1 0x0 PUSH1 0x5 DUP5 DUP2 SLOAD DUP2 LT PUSH2 0x2E14 JUMPI INVALID JUMPDEST SWAP1 PUSH1 0x0 MSTORE PUSH1 0x20 PUSH1 0x0 KECCAK256 ADD PUSH1 0x0 SWAP1 SLOAD SWAP1 PUSH2 0x100 EXP SWAP1 DIV PUSH20 0xFFFFFFFFFFFFFFFFFFFFFFFFFFFFFFFFFFFFFFFF AND PUSH20 0xFFFFFFFFFFFFFFFFFFFFFFFFFFFFFFFFFFFFFFFF AND PUSH20 0xFFFFFFFFFFFFFFFFFFFFFFFFFFFFFFFFFFFFFFFF AND DUP2 MSTORE PUSH1 0x20 ADD SWAP1 DUP2 MSTORE PUSH1 0x20 ADD PUSH1 0x0 KECCAK256 SLOAD GT DUP1 PUSH2 0x2EFB JUMPI POP DUP2 PUSH1 0x2 PUSH1 0x0 PUSH1 0x5 DUP5 DUP2 SLOAD DUP2 LT PUSH2 0x2E93 JUMPI INVALID JUMPDEST SWAP1 PUSH1 0x0 MSTORE PUSH1 0x20 PUSH1 0x0 KECCAK256 ADD PUSH1 0x0 SWAP1 SLOAD SWAP1 PUSH2 0x100 EXP SWAP1 DIV PUSH20 0xFFFFFFFFFFFFFFFFFFFFFFFFFFFFFFFFFFFFFFFF AND PUSH20 0xFFFFFFFFFFFFFFFFFFFFFFFFFFFFFFFFFFFFFFFF AND PUSH20 0xFFFFFFFFFFFFFFFFFFFFFFFFFFFFFFFFFFFFFFFF AND DUP2 MSTORE PUSH1 0x20 ADD SWAP1 DUP2 MSTORE PUSH1 0x20 ADD PUSH1 0x0 KECCAK256 SLOAD GT JUMPDEST ISZERO PUSH2 0x2F1B JUMPI PUSH1 0x6 SLOAD PUSH11 0x52B7D2DCC80CD2E4000000 SWAP5 POP SWAP5 POP POP POP POP PUSH2 0x3089 JUMP JUMPDEST PUSH2 0x2FA4 PUSH1 0x1 PUSH1 0x0 PUSH1 0x5 DUP5 DUP2 SLOAD DUP2 LT PUSH2 0x2F2F JUMPI INVALID JUMPDEST SWAP1 PUSH1 0x0 MSTORE PUSH1 0x20 PUSH1 0x0 KECCAK256 ADD PUSH1 0x0 SWAP1 SLOAD SWAP1 PUSH2 0x100 EXP SWAP1 DIV PUSH20 0xFFFFFFFFFFFFFFFFFFFFFFFFFFFFFFFFFFFFFFFF AND PUSH20 0xFFFFFFFFFFFFFFFFFFFFFFFFFFFFFFFFFFFFFFFF AND PUSH20 0xFFFFFFFFFFFFFFFFFFFFFFFFFFFFFFFFFFFFFFFF AND DUP2 MSTORE PUSH1 0x20 ADD SWAP1 DUP2 MSTORE PUSH1 0x20 ADD PUSH1 0x0 KECCAK256 SLOAD DUP5 PUSH2 0x1B85 SWAP1 SWAP2 SWAP1 PUSH4 0xFFFFFFFF AND JUMP JUMPDEST SWAP3 POP PUSH2 0x302F PUSH1 0x2 PUSH1 0x0 PUSH1 0x5 DUP5 DUP2 SLOAD DUP2 LT PUSH2 0x2FBA JUMPI INVALID JUMPDEST SWAP1 PUSH1 0x0 MSTORE PUSH1 0x20 PUSH1 0x0 KECCAK256 ADD PUSH1 0x0 SWAP1 SLOAD SWAP1 PUSH2 0x100 EXP SWAP1 DIV PUSH20 0xFFFFFFFFFFFFFFFFFFFFFFFFFFFFFFFFFFFFFFFF AND PUSH20 0xFFFFFFFFFFFFFFFFFFFFFFFFFFFFFFFFFFFFFFFF AND PUSH20 0xFFFFFFFFFFFFFFFFFFFFFFFFFFFFFFFFFFFFFFFF AND DUP2 MSTORE PUSH1 0x20 ADD SWAP1 DUP2 MSTORE PUSH1 0x20 ADD PUSH1 0x0 KECCAK256 SLOAD DUP4 PUSH2 0x1B85 SWAP1 SWAP2 SWAP1 PUSH4 0xFFFFFFFF AND JUMP JUMPDEST SWAP2 POP DUP1 DUP1 PUSH1 0x1 ADD SWAP2 POP POP PUSH2 0x2DF5 JUMP JUMPDEST POP PUSH2 0x305F PUSH11 0x52B7D2DCC80CD2E4000000 PUSH1 0x6 SLOAD PUSH2 0x2392 SWAP1 SWAP2 SWAP1 PUSH4 0xFFFFFFFF AND JUMP JUMPDEST DUP3 LT ISZERO PUSH2 0x3080 JUMPI PUSH1 0x6 SLOAD PUSH11 0x52B7D2DCC80CD2E4000000 SWAP4 POP SWAP4 POP POP POP PUSH2 0x3089 JUMP JUMPDEST DUP2 DUP2 SWAP4 POP SWAP4 POP POP POP JUMPDEST SWAP1 SWAP2 JUMP JUMPDEST PUSH1 0x0 DUP1 DUP4 GT DUP3 SWAP1 PUSH2 0x3139 JUMPI PUSH1 0x40 MLOAD PUSH32 0x8C379A000000000000000000000000000000000000000000000000000000000 DUP2 MSTORE PUSH1 0x4 ADD DUP1 DUP1 PUSH1 0x20 ADD DUP3 DUP2 SUB DUP3 MSTORE DUP4 DUP2 DUP2 MLOAD DUP2 MSTORE PUSH1 0x20 ADD SWAP2 POP DUP1 MLOAD SWAP1 PUSH1 0x20 ADD SWAP1 DUP1 DUP4 DUP4 PUSH1 0x0 JUMPDEST DUP4 DUP2 LT ISZERO PUSH2 0x30FE JUMPI DUP1 DUP3 ADD MLOAD DUP2 DUP5 ADD MSTORE PUSH1 0x20 DUP2 ADD SWAP1 POP PUSH2 0x30E3 JUMP JUMPDEST POP POP POP POP SWAP1 POP SWAP1 DUP2 ADD SWAP1 PUSH1 0x1F AND DUP1 ISZERO PUSH2 0x312B JUMPI DUP1 DUP3 SUB DUP1 MLOAD PUSH1 0x1 DUP4 PUSH1 0x20 SUB PUSH2 0x100 EXP SUB NOT AND DUP2 MSTORE PUSH1 0x20 ADD SWAP2 POP JUMPDEST POP SWAP3 POP POP POP PUSH1 0x40 MLOAD DUP1 SWAP2 SUB SWAP1 REVERT JUMPDEST POP PUSH1 0x0 DUP4 DUP6 DUP2 PUSH2 0x3145 JUMPI INVALID JUMPDEST DIV SWAP1 POP DUP1 SWAP2 POP POP SWAP4 SWAP3 POP POP POP JUMP JUMPDEST PUSH1 0x0 DUP1 DUP4 EQ ISZERO PUSH2 0x3166 JUMPI PUSH1 0x0 SWAP1 POP PUSH2 0x31D3 JUMP JUMPDEST PUSH1 0x0 DUP3 DUP5 MUL SWAP1 POP DUP3 DUP5 DUP3 DUP2 PUSH2 0x3177 JUMPI INVALID JUMPDEST DIV EQ PUSH2 0x31CE JUMPI PUSH1 0x40 MLOAD PUSH32 0x8C379A000000000000000000000000000000000000000000000000000000000 DUP2 MSTORE PUSH1 0x4 ADD DUP1 DUP1 PUSH1 0x20 ADD DUP3 DUP2 SUB DUP3 MSTORE PUSH1 0x21 DUP2 MSTORE PUSH1 0x20 ADD DUP1 PUSH2 0x32A9 PUSH1 0x21 SWAP2 CODECOPY PUSH1 0x40 ADD SWAP2 POP POP PUSH1 0x40 MLOAD DUP1 SWAP2 SUB SWAP1 REVERT JUMPDEST DUP1 SWAP2 POP POP JUMPDEST SWAP3 SWAP2 POP POP JUMP JUMPDEST PUSH2 0x31EE DUP3 PUSH1 0x6 SLOAD PUSH2 0x1B85 SWAP1 SWAP2 SWAP1 PUSH4 0xFFFFFFFF AND JUMP JUMPDEST PUSH1 0x6 DUP2 SWAP1 SSTORE POP PUSH2 0x3209 DUP2 PUSH1 0x7 SLOAD PUSH2 0x1BCF SWAP1 SWAP2 SWAP1 PUSH4 0xFFFFFFFF AND JUMP JUMPDEST PUSH1 0x7 DUP2 SWAP1 SSTORE POP POP POP JUMP INVALID GASLIMIT MSTORE NUMBER ORIGIN ADDRESS GASPRICE KECCAK256 PUSH21 0x72616E7366657220746F20746865207A65726F2061 PUSH5 0x6472657373 COINBASE PUSH14 0x6F756E74206D757374206265206C PUSH6 0x737320746861 PUSH15 0x20746F74616C207265666C65637469 PUSH16 0x6E734F776E61626C653A206E6577206F PUSH24 0x6E657220697320746865207A65726F206164647265737345 MSTORE NUMBER ORIGIN ADDRESS GASPRICE KECCAK256 PUSH2 0x7070 PUSH19 0x6F766520746F20746865207A65726F20616464 PUSH19 0x657373536166654D6174683A206D756C746970 PUSH13 0x69636174696F6E206F76657266 PUSH13 0x6F7745524332303A207472616E PUSH20 0x66657220616D6F756E7420657863656564732061 PUSH13 0x6C6F77616E63655472616E7366 PUSH6 0x7220616D6F75 PUSH15 0x74206D757374206265206772656174 PUSH6 0x72207468616E KECCAK256 PUSH27 0x65726F45524332303A207472616E736665722066726F6D20746865 KECCAK256 PUSH27 0x65726F206164647265737345524332303A20617070726F76652066 PUSH19 0x6F6D20746865207A65726F2061646472657373 GASLIMIT PUSH25 0x636C75646564206164647265737365732063616E6E6F742063 PUSH2 0x6C6C KECCAK256 PUSH21 0x6869732066756E6374696F6E45524332303A206465 PUSH4 0x72656173 PUSH6 0x6420616C6C6F PUSH24 0x616E63652062656C6F77207A65726FA26469706673582212 KECCAK256 0xB8 DUP5 0xC9 0xC0 0xD9 0xD 0x4A LOG2 0xBB PUSH23 0x363C31C7CF67EF1FDBB7A5BA41A584D9327301929DAA64 PUSH20 0x6F6C634300060C00330000000000000000000000 "
				},
				"gasEstimates": {
					"creation": {
						"codeDepositCost": "2658000",
						"executionCost": "infinite",
						"totalCost": "infinite"
					},
					"external": {
						"_rOwned(address)": "1259",
						"allowance(address,address)": "1387",
						"approve(address,uint256)": "infinite",
						"balanceOf(address)": "infinite",
						"decimals()": "1144",
						"decreaseAllowance(address,uint256)": "infinite",
						"excludeAccount(address)": "infinite",
						"includeAccount(address)": "infinite",
						"increaseAllowance(address,uint256)": "infinite",
						"isExcluded(address)": "1282",
						"name()": "infinite",
						"owner()": "1122",
						"reflect(uint256)": "infinite",
						"reflectionFromToken(uint256,bool)": "infinite",
						"renounceOwnership()": "24336",
						"symbol()": "infinite",
						"tokenFromReflection(uint256)": "infinite",
						"totalFees()": "1125",
						"totalSupply()": "236",
						"transfer(address,uint256)": "infinite",
						"transferFrom(address,address,uint256)": "infinite",
						"transferOwnership(address)": "infinite"
					},
					"internal": {
						"_approve(address,address,uint256)": "infinite",
						"_getCurrentSupply()": "infinite",
						"_getRValues(uint256,uint256,uint256)": "infinite",
						"_getRate()": "infinite",
						"_getTValues(uint256)": "infinite",
						"_getValues(uint256)": "infinite",
						"_reflectFee(uint256,uint256)": "infinite",
						"_transfer(address,address,uint256)": "infinite",
						"_transferBothExcluded(address,address,uint256)": "infinite",
						"_transferFromExcluded(address,address,uint256)": "infinite",
						"_transferStandard(address,address,uint256)": "infinite",
						"_transferToExcluded(address,address,uint256)": "infinite"
					}
				},
				"methodIdentifiers": {
					"_rOwned(address)": "0cfc15f9",
					"allowance(address,address)": "dd62ed3e",
					"approve(address,uint256)": "095ea7b3",
					"balanceOf(address)": "70a08231",
					"decimals()": "313ce567",
					"decreaseAllowance(address,uint256)": "a457c2d7",
					"excludeAccount(address)": "f2cc0c18",
					"includeAccount(address)": "f84354f1",
					"increaseAllowance(address,uint256)": "39509351",
					"isExcluded(address)": "cba0e996",
					"name()": "06fdde03",
					"owner()": "8da5cb5b",
					"reflect(uint256)": "053ab182",
					"reflectionFromToken(uint256,bool)": "4549b039",
					"renounceOwnership()": "715018a6",
					"symbol()": "95d89b41",
					"tokenFromReflection(uint256)": "2d838119",
					"totalFees()": "13114a9d",
					"totalSupply()": "18160ddd",
					"transfer(address,uint256)": "a9059cbb",
					"transferFrom(address,address,uint256)": "23b872dd",
					"transferOwnership(address)": "f2fde38b"
				}
			},
			"storageLayout": {
				"storage": [
					{
						"astId": 495,
						"contract": "feg.sol:FEG",
						"label": "_owner",
						"offset": 0,
						"slot": "0",
						"type": "t_address"
					},
					{
						"astId": 612,
						"contract": "feg.sol:FEG",
						"label": "_rOwned",
						"offset": 0,
						"slot": "1",
						"type": "t_mapping(t_address,t_uint256)"
					},
					{
						"astId": 616,
						"contract": "feg.sol:FEG",
						"label": "_tOwned",
						"offset": 0,
						"slot": "2",
						"type": "t_mapping(t_address,t_uint256)"
					},
					{
						"astId": 622,
						"contract": "feg.sol:FEG",
						"label": "_allowances",
						"offset": 0,
						"slot": "3",
						"type": "t_mapping(t_address,t_mapping(t_address,t_uint256))"
					},
					{
						"astId": 626,
						"contract": "feg.sol:FEG",
						"label": "_isExcluded",
						"offset": 0,
						"slot": "4",
						"type": "t_mapping(t_address,t_bool)"
					},
					{
						"astId": 629,
						"contract": "feg.sol:FEG",
						"label": "_excluded",
						"offset": 0,
						"slot": "5",
						"type": "t_array(t_address)dyn_storage"
					},
					{
						"astId": 656,
						"contract": "feg.sol:FEG",
						"label": "_rTotal",
						"offset": 0,
						"slot": "6",
						"type": "t_uint256"
					},
					{
						"astId": 658,
						"contract": "feg.sol:FEG",
						"label": "_tFeeTotal",
						"offset": 0,
						"slot": "7",
						"type": "t_uint256"
					},
					{
						"astId": 661,
						"contract": "feg.sol:FEG",
						"label": "_name",
						"offset": 0,
						"slot": "8",
						"type": "t_string_storage"
					},
					{
						"astId": 664,
						"contract": "feg.sol:FEG",
						"label": "_symbol",
						"offset": 0,
						"slot": "9",
						"type": "t_string_storage"
					},
					{
						"astId": 667,
						"contract": "feg.sol:FEG",
						"label": "_decimals",
						"offset": 0,
						"slot": "10",
						"type": "t_uint8"
					}
				],
				"types": {
					"t_address": {
						"encoding": "inplace",
						"label": "address",
						"numberOfBytes": "20"
					},
					"t_array(t_address)dyn_storage": {
						"base": "t_address",
						"encoding": "dynamic_array",
						"label": "address[]",
						"numberOfBytes": "32"
					},
					"t_bool": {
						"encoding": "inplace",
						"label": "bool",
						"numberOfBytes": "1"
					},
					"t_mapping(t_address,t_bool)": {
						"encoding": "mapping",
						"key": "t_address",
						"label": "mapping(address => bool)",
						"numberOfBytes": "32",
						"value": "t_bool"
					},
					"t_mapping(t_address,t_mapping(t_address,t_uint256))": {
						"encoding": "mapping",
						"key": "t_address",
						"label": "mapping(address => mapping(address => uint256))",
						"numberOfBytes": "32",
						"value": "t_mapping(t_address,t_uint256)"
					},
					"t_mapping(t_address,t_uint256)": {
						"encoding": "mapping",
						"key": "t_address",
						"label": "mapping(address => uint256)",
						"numberOfBytes": "32",
						"value": "t_uint256"
					},
					"t_string_storage": {
						"encoding": "bytes",
						"label": "string",
						"numberOfBytes": "32"
					},
					"t_uint256": {
						"encoding": "inplace",
						"label": "uint256",
						"numberOfBytes": "32"
					},
					"t_uint8": {
						"encoding": "inplace",
						"label": "uint8",
						"numberOfBytes": "1"
					}
				}
			},
			"userdoc": {
				"kind": "user",
				"methods": {},
				"version": 1
			}
		}
	}
}