{
	"contract-442812f524.sol": {
		"Verify": {
			"abi": [
				{
					"inputs": [
						{
							"internalType": "address",
							"name": "_importantAddress",
							"type": "address"
						}
					],
					"stateMutability": "nonpayable",
					"type": "constructor"
				},
				{
					"inputs": [
						{
							"internalType": "string",
							"name": "_word",
							"type": "string"
						},
						{
							"internalType": "bytes",
							"name": "sig",
							"type": "bytes"
						}
					],
					"name": "isValidData",
					"outputs": [
						{
							"internalType": "bool",
							"name": "",
							"type": "bool"
						}
					],
					"stateMutability": "view",
					"type": "function"
				},
				{
					"inputs": [
						{
							"internalType": "bytes32",
							"name": "message",
							"type": "bytes32"
						},
						{
							"internalType": "bytes",
							"name": "sig",
							"type": "bytes"
						}
					],
					"name": "recoverSigner",
					"outputs": [
						{
							"internalType": "address",
							"name": "",
							"type": "address"
						}
					],
					"stateMutability": "pure",
					"type": "function"
				},
				{
					"inputs": [
						{
							"internalType": "bytes",
							"name": "sig",
							"type": "bytes"
						}
					],
					"name": "splitSignature",
					"outputs": [
						{
							"internalType": "uint8",
							"name": "",
							"type": "uint8"
						},
						{
							"internalType": "bytes32",
							"name": "",
							"type": "bytes32"
						},
						{
							"internalType": "bytes32",
							"name": "",
							"type": "bytes32"
						}
					],
					"stateMutability": "pure",
					"type": "function"
				}
			],
			"devdoc": {
				"kind": "dev",
				"methods": {},
				"version": 1
			},
			"evm": {
				"assembly": "    /* \"contract-442812f524.sol\":57:1228  contract Verify {... */\n  mstore(0x40, 0x80)\n    /* \"contract-442812f524.sol\":110:207  constructor (address _importantAddress) public{... */\n  callvalue\n  dup1\n  iszero\n  tag_1\n  jumpi\n  0x00\n  dup1\n  revert\ntag_1:\n  pop\n  mload(0x40)\n  sub(codesize, bytecodeSize)\n  dup1\n  bytecodeSize\n  dup4\n  codecopy\n  dup2\n  dup2\n  add\n  0x40\n  mstore\n  dup2\n  add\n  swap1\n  tag_2\n  swap2\n  swap1\n  tag_3\n  jump\t// in\ntag_2:\n    /* \"contract-442812f524.sol\":184:201  _importantAddress */\n  dup1\n    /* \"contract-442812f524.sol\":165:181  importantAddress */\n  0x00\n  dup1\n    /* \"contract-442812f524.sol\":165:201  importantAddress = _importantAddress */\n  0x0100\n  exp\n  dup2\n  sload\n  dup2\n  0xffffffffffffffffffffffffffffffffffffffff\n  mul\n  not\n  and\n  swap1\n  dup4\n  0xffffffffffffffffffffffffffffffffffffffff\n  and\n  mul\n  or\n  swap1\n  sstore\n  pop\n    /* \"contract-442812f524.sol\":110:207  constructor (address _importantAddress) public{... */\n  pop\n    /* \"contract-442812f524.sol\":57:1228  contract Verify {... */\n  jump(tag_6)\n    /* \"#utility.yul\":88:205   */\ntag_8:\n    /* \"#utility.yul\":197:198   */\n  0x00\n    /* \"#utility.yul\":194:195   */\n  dup1\n    /* \"#utility.yul\":187:199   */\n  revert\n    /* \"#utility.yul\":334:460   */\ntag_10:\n    /* \"#utility.yul\":371:378   */\n  0x00\n    /* \"#utility.yul\":411:453   */\n  0xffffffffffffffffffffffffffffffffffffffff\n    /* \"#utility.yul\":404:409   */\n  dup3\n    /* \"#utility.yul\":400:454   */\n  and\n    /* \"#utility.yul\":389:454   */\n  swap1\n  pop\n    /* \"#utility.yul\":334:460   */\n  swap2\n  swap1\n  pop\n  jump\t// out\n    /* \"#utility.yul\":466:562   */\ntag_11:\n    /* \"#utility.yul\":503:510   */\n  0x00\n    /* \"#utility.yul\":532:556   */\n  tag_20\n    /* \"#utility.yul\":550:555   */\n  dup3\n    /* \"#utility.yul\":532:556   */\n  tag_10\n  jump\t// in\ntag_20:\n    /* \"#utility.yul\":521:556   */\n  swap1\n  pop\n    /* \"#utility.yul\":466:562   */\n  swap2\n  swap1\n  pop\n  jump\t// out\n    /* \"#utility.yul\":568:690   */\ntag_12:\n    /* \"#utility.yul\":641:665   */\n  tag_22\n    /* \"#utility.yul\":659:664   */\n  dup2\n    /* \"#utility.yul\":641:665   */\n  tag_11\n  jump\t// in\ntag_22:\n    /* \"#utility.yul\":634:639   */\n  dup2\n    /* \"#utility.yul\":631:666   */\n  eq\n    /* \"#utility.yul\":621:684   */\n  tag_23\n  jumpi\n    /* \"#utility.yul\":680:681   */\n  0x00\n    /* \"#utility.yul\":677:678   */\n  dup1\n    /* \"#utility.yul\":670:682   */\n  revert\n    /* \"#utility.yul\":621:684   */\ntag_23:\n    /* \"#utility.yul\":568:690   */\n  pop\n  jump\t// out\n    /* \"#utility.yul\":696:839   */\ntag_13:\n    /* \"#utility.yul\":753:758   */\n  0x00\n    /* \"#utility.yul\":784:790   */\n  dup2\n    /* \"#utility.yul\":778:791   */\n  mload\n    /* \"#utility.yul\":769:791   */\n  swap1\n  pop\n    /* \"#utility.yul\":800:833   */\n  tag_25\n    /* \"#utility.yul\":827:832   */\n  dup2\n    /* \"#utility.yul\":800:833   */\n  tag_12\n  jump\t// in\ntag_25:\n    /* \"#utility.yul\":696:839   */\n  swap3\n  swap2\n  pop\n  pop\n  jump\t// out\n    /* \"#utility.yul\":845:1196   */\ntag_3:\n    /* \"#utility.yul\":915:921   */\n  0x00\n    /* \"#utility.yul\":964:966   */\n  0x20\n    /* \"#utility.yul\":952:961   */\n  dup3\n    /* \"#utility.yul\":943:950   */\n  dup5\n    /* \"#utility.yul\":939:962   */\n  sub\n    /* \"#utility.yul\":935:967   */\n  slt\n    /* \"#utility.yul\":932:1051   */\n  iszero\n  tag_27\n  jumpi\n    /* \"#utility.yul\":970:1049   */\n  tag_28\n  tag_8\n  jump\t// in\ntag_28:\n    /* \"#utility.yul\":932:1051   */\ntag_27:\n    /* \"#utility.yul\":1090:1091   */\n  0x00\n    /* \"#utility.yul\":1115:1179   */\n  tag_29\n    /* \"#utility.yul\":1171:1178   */\n  dup5\n    /* \"#utility.yul\":1162:1168   */\n  dup3\n    /* \"#utility.yul\":1151:1160   */\n  dup6\n    /* \"#utility.yul\":1147:1169   */\n  add\n    /* \"#utility.yul\":1115:1179   */\n  tag_13\n  jump\t// in\ntag_29:\n    /* \"#utility.yul\":1105:1179   */\n  swap2\n  pop\n    /* \"#utility.yul\":1061:1189   */\n  pop\n    /* \"#utility.yul\":845:1196   */\n  swap3\n  swap2\n  pop\n  pop\n  jump\t// out\n    /* \"contract-442812f524.sol\":57:1228  contract Verify {... */\ntag_6:\n  dataSize(sub_0)\n  dup1\n  dataOffset(sub_0)\n  0x00\n  codecopy\n  0x00\n  return\nstop\n\nsub_0: assembly {\n        /* \"contract-442812f524.sol\":57:1228  contract Verify {... */\n      mstore(0x40, 0x80)\n      callvalue\n      dup1\n      iszero\n      tag_1\n      jumpi\n      0x00\n      dup1\n      revert\n    tag_1:\n      pop\n      jumpi(tag_2, lt(calldatasize, 0x04))\n      shr(0xe0, calldataload(0x00))\n      dup1\n      0x97aba7f9\n      eq\n      tag_3\n      jumpi\n      dup1\n      0xa7bb5803\n      eq\n      tag_4\n      jumpi\n      dup1\n      0xadb41f75\n      eq\n      tag_5\n      jumpi\n    tag_2:\n      0x00\n      dup1\n      revert\n        /* \"contract-442812f524.sol\":444:699  function recoverSigner(bytes32 message, bytes memory sig)... */\n    tag_3:\n      tag_6\n      0x04\n      dup1\n      calldatasize\n      sub\n      dup2\n      add\n      swap1\n      tag_7\n      swap2\n      swap1\n      tag_8\n      jump\t// in\n    tag_7:\n      tag_9\n      jump\t// in\n    tag_6:\n      mload(0x40)\n      tag_10\n      swap2\n      swap1\n      tag_11\n      jump\t// in\n    tag_10:\n      mload(0x40)\n      dup1\n      swap2\n      sub\n      swap1\n      return\n        /* \"contract-442812f524.sol\":704:1226  function splitSignature(bytes memory sig)... */\n    tag_4:\n      tag_12\n      0x04\n      dup1\n      calldatasize\n      sub\n      dup2\n      add\n      swap1\n      tag_13\n      swap2\n      swap1\n      tag_14\n      jump\t// in\n    tag_13:\n      tag_15\n      jump\t// in\n    tag_12:\n      mload(0x40)\n      tag_16\n      swap4\n      swap3\n      swap2\n      swap1\n      tag_17\n      jump\t// in\n    tag_16:\n      mload(0x40)\n      dup1\n      swap2\n      sub\n      swap1\n      return\n        /* \"contract-442812f524.sol\":214:433  function isValidData( string memory _word, bytes memory sig) public view returns(bool){... */\n    tag_5:\n      tag_18\n      0x04\n      dup1\n      calldatasize\n      sub\n      dup2\n      add\n      swap1\n      tag_19\n      swap2\n      swap1\n      tag_20\n      jump\t// in\n    tag_19:\n      tag_21\n      jump\t// in\n    tag_18:\n      mload(0x40)\n      tag_22\n      swap2\n      swap1\n      tag_23\n      jump\t// in\n    tag_22:\n      mload(0x40)\n      dup1\n      swap2\n      sub\n      swap1\n      return\n        /* \"contract-442812f524.sol\":444:699  function recoverSigner(bytes32 message, bytes memory sig)... */\n    tag_9:\n        /* \"contract-442812f524.sol\":544:551  address */\n      0x00\n        /* \"contract-442812f524.sol\":567:574  uint8 v */\n      dup1\n        /* \"contract-442812f524.sol\":583:592  bytes32 r */\n      0x00\n        /* \"contract-442812f524.sol\":601:610  bytes32 s */\n      dup1\n        /* \"contract-442812f524.sol\":631:650  splitSignature(sig) */\n      tag_25\n        /* \"contract-442812f524.sol\":646:649  sig */\n      dup6\n        /* \"contract-442812f524.sol\":631:645  splitSignature */\n      tag_15\n        /* \"contract-442812f524.sol\":631:650  splitSignature(sig) */\n      jump\t// in\n    tag_25:\n        /* \"contract-442812f524.sol\":619:650  (v, r, s) = splitSignature(sig) */\n      dup1\n      swap4\n      pop\n      dup2\n      swap5\n      pop\n      dup3\n      swap6\n      pop\n      pop\n      pop\n      pop\n        /* \"contract-442812f524.sol\":666:693  ecrecover(message, v, r, s) */\n      0x01\n        /* \"contract-442812f524.sol\":676:683  message */\n      dup7\n        /* \"contract-442812f524.sol\":685:686  v */\n      dup5\n        /* \"contract-442812f524.sol\":688:689  r */\n      dup5\n        /* \"contract-442812f524.sol\":691:692  s */\n      dup5\n        /* \"contract-442812f524.sol\":666:693  ecrecover(message, v, r, s) */\n      mload(0x40)\n      0x00\n      dup2\n      mstore\n      0x20\n      add\n      0x40\n      mstore\n      mload(0x40)\n      tag_26\n      swap5\n      swap4\n      swap3\n      swap2\n      swap1\n      tag_27\n      jump\t// in\n    tag_26:\n      0x20\n      mload(0x40)\n      0x20\n      dup2\n      sub\n      swap1\n      dup1\n      dup5\n      sub\n      swap1\n      dup6\n      gas\n      staticcall\n      iszero\n      dup1\n      iszero\n      tag_29\n      jumpi\n      returndatasize\n      0x00\n      dup1\n      returndatacopy\n      revert(0x00, returndatasize)\n    tag_29:\n      pop\n      pop\n      pop\n      mload(sub(mload(0x40), 0x20))\n        /* \"contract-442812f524.sol\":659:693  return ecrecover(message, v, r, s) */\n      swap4\n      pop\n      pop\n      pop\n      pop\n        /* \"contract-442812f524.sol\":444:699  function recoverSigner(bytes32 message, bytes memory sig)... */\n      swap3\n      swap2\n      pop\n      pop\n      jump\t// out\n        /* \"contract-442812f524.sol\":704:1226  function splitSignature(bytes memory sig)... */\n    tag_15:\n        /* \"contract-442812f524.sol\":788:793  uint8 */\n      0x00\n        /* \"contract-442812f524.sol\":795:802  bytes32 */\n      dup1\n        /* \"contract-442812f524.sol\":804:811  bytes32 */\n      0x00\n        /* \"contract-442812f524.sol\":849:851  65 */\n      0x41\n        /* \"contract-442812f524.sol\":835:838  sig */\n      dup5\n        /* \"contract-442812f524.sol\":835:845  sig.length */\n      mload\n        /* \"contract-442812f524.sol\":835:851  sig.length == 65 */\n      eq\n        /* \"contract-442812f524.sol\":827:852  require(sig.length == 65) */\n      tag_31\n      jumpi\n      0x00\n      dup1\n      revert\n    tag_31:\n        /* \"contract-442812f524.sol\":862:871  bytes32 r */\n      0x00\n        /* \"contract-442812f524.sol\":880:889  bytes32 s */\n      dup1\n        /* \"contract-442812f524.sol\":898:905  uint8 v */\n      0x00\n        /* \"contract-442812f524.sol\":1011:1013  32 */\n      0x20\n        /* \"contract-442812f524.sol\":1006:1009  sig */\n      dup8\n        /* \"contract-442812f524.sol\":1002:1014  add(sig, 32) */\n      add\n        /* \"contract-442812f524.sol\":996:1015  mload(add(sig, 32)) */\n      mload\n        /* \"contract-442812f524.sol\":991:1015  r := mload(add(sig, 32)) */\n      swap3\n      pop\n        /* \"contract-442812f524.sol\":1077:1079  64 */\n      0x40\n        /* \"contract-442812f524.sol\":1072:1075  sig */\n      dup8\n        /* \"contract-442812f524.sol\":1068:1080  add(sig, 64) */\n      add\n        /* \"contract-442812f524.sol\":1062:1081  mload(add(sig, 64)) */\n      mload\n        /* \"contract-442812f524.sol\":1057:1081  s := mload(add(sig, 64)) */\n      swap2\n      pop\n        /* \"contract-442812f524.sol\":1180:1182  96 */\n      0x60\n        /* \"contract-442812f524.sol\":1175:1178  sig */\n      dup8\n        /* \"contract-442812f524.sol\":1171:1183  add(sig, 96) */\n      add\n        /* \"contract-442812f524.sol\":1165:1184  mload(add(sig, 96)) */\n      mload\n        /* \"contract-442812f524.sol\":1162:1163  0 */\n      0x00\n        /* \"contract-442812f524.sol\":1157:1185  byte(0, mload(add(sig, 96))) */\n      byte\n        /* \"contract-442812f524.sol\":1152:1185  v := byte(0, mload(add(sig, 96))) */\n      swap1\n      pop\n        /* \"contract-442812f524.sol\":1212:1213  v */\n      dup1\n        /* \"contract-442812f524.sol\":1215:1216  r */\n      dup4\n        /* \"contract-442812f524.sol\":1218:1219  s */\n      dup4\n        /* \"contract-442812f524.sol\":1204:1220  return (v, r, s) */\n      swap6\n      pop\n      swap6\n      pop\n      swap6\n      pop\n      pop\n      pop\n      pop\n        /* \"contract-442812f524.sol\":704:1226  function splitSignature(bytes memory sig)... */\n      swap2\n      swap4\n      swap1\n      swap3\n      pop\n      jump\t// out\n        /* \"contract-442812f524.sol\":214:433  function isValidData( string memory _word, bytes memory sig) public view returns(bool){... */\n    tag_21:\n        /* \"contract-442812f524.sol\":295:299  bool */\n      0x00\n        /* \"contract-442812f524.sol\":309:324  bytes32 message */\n      dup1\n        /* \"contract-442812f524.sol\":355:360  _word */\n      dup4\n        /* \"contract-442812f524.sol\":337:361  abi.encodePacked( _word) */\n      add(0x20, mload(0x40))\n      tag_33\n      swap2\n      swap1\n      tag_34\n      jump\t// in\n    tag_33:\n      mload(0x40)\n      0x20\n      dup2\n      dup4\n      sub\n      sub\n      dup2\n      mstore\n      swap1\n      0x40\n      mstore\n        /* \"contract-442812f524.sol\":327:362  keccak256(abi.encodePacked( _word)) */\n      dup1\n      mload\n      swap1\n      0x20\n      add\n      keccak256\n        /* \"contract-442812f524.sol\":309:362  bytes32 message = keccak256(abi.encodePacked( _word)) */\n      swap1\n      pop\n        /* \"contract-442812f524.sol\":410:426  importantAddress */\n      0x00\n      dup1\n      sload\n      swap1\n      0x0100\n      exp\n      swap1\n      div\n      0xffffffffffffffffffffffffffffffffffffffff\n      and\n        /* \"contract-442812f524.sol\":379:426  recoverSigner(message, sig) == importantAddress */\n      0xffffffffffffffffffffffffffffffffffffffff\n      and\n        /* \"contract-442812f524.sol\":379:406  recoverSigner(message, sig) */\n      tag_35\n        /* \"contract-442812f524.sol\":393:400  message */\n      dup3\n        /* \"contract-442812f524.sol\":402:405  sig */\n      dup6\n        /* \"contract-442812f524.sol\":379:392  recoverSigner */\n      tag_9\n        /* \"contract-442812f524.sol\":379:406  recoverSigner(message, sig) */\n      jump\t// in\n    tag_35:\n        /* \"contract-442812f524.sol\":379:426  recoverSigner(message, sig) == importantAddress */\n      0xffffffffffffffffffffffffffffffffffffffff\n      and\n      eq\n        /* \"contract-442812f524.sol\":371:427  return (recoverSigner(message, sig) == importantAddress) */\n      swap2\n      pop\n      pop\n        /* \"contract-442812f524.sol\":214:433  function isValidData( string memory _word, bytes memory sig) public view returns(bool){... */\n      swap3\n      swap2\n      pop\n      pop\n      jump\t// out\n        /* \"#utility.yul\":7:82   */\n    tag_36:\n        /* \"#utility.yul\":40:46   */\n      0x00\n        /* \"#utility.yul\":73:75   */\n      0x40\n        /* \"#utility.yul\":67:76   */\n      mload\n        /* \"#utility.yul\":57:76   */\n      swap1\n      pop\n        /* \"#utility.yul\":7:82   */\n      swap1\n      jump\t// out\n        /* \"#utility.yul\":88:205   */\n    tag_37:\n        /* \"#utility.yul\":197:198   */\n      0x00\n        /* \"#utility.yul\":194:195   */\n      dup1\n        /* \"#utility.yul\":187:199   */\n      revert\n        /* \"#utility.yul\":211:328   */\n    tag_38:\n        /* \"#utility.yul\":320:321   */\n      0x00\n        /* \"#utility.yul\":317:318   */\n      dup1\n        /* \"#utility.yul\":310:322   */\n      revert\n        /* \"#utility.yul\":334:411   */\n    tag_39:\n        /* \"#utility.yul\":371:378   */\n      0x00\n        /* \"#utility.yul\":400:405   */\n      dup2\n        /* \"#utility.yul\":389:405   */\n      swap1\n      pop\n        /* \"#utility.yul\":334:411   */\n      swap2\n      swap1\n      pop\n      jump\t// out\n        /* \"#utility.yul\":417:539   */\n    tag_40:\n        /* \"#utility.yul\":490:514   */\n      tag_73\n        /* \"#utility.yul\":508:513   */\n      dup2\n        /* \"#utility.yul\":490:514   */\n      tag_39\n      jump\t// in\n    tag_73:\n        /* \"#utility.yul\":483:488   */\n      dup2\n        /* \"#utility.yul\":480:515   */\n      eq\n        /* \"#utility.yul\":470:533   */\n      tag_74\n      jumpi\n        /* \"#utility.yul\":529:530   */\n      0x00\n        /* \"#utility.yul\":526:527   */\n      dup1\n        /* \"#utility.yul\":519:531   */\n      revert\n        /* \"#utility.yul\":470:533   */\n    tag_74:\n        /* \"#utility.yul\":417:539   */\n      pop\n      jump\t// out\n        /* \"#utility.yul\":545:684   */\n    tag_41:\n        /* \"#utility.yul\":591:596   */\n      0x00\n        /* \"#utility.yul\":629:635   */\n      dup2\n        /* \"#utility.yul\":616:636   */\n      calldataload\n        /* \"#utility.yul\":607:636   */\n      swap1\n      pop\n        /* \"#utility.yul\":645:678   */\n      tag_76\n        /* \"#utility.yul\":672:677   */\n      dup2\n        /* \"#utility.yul\":645:678   */\n      tag_40\n      jump\t// in\n    tag_76:\n        /* \"#utility.yul\":545:684   */\n      swap3\n      swap2\n      pop\n      pop\n      jump\t// out\n        /* \"#utility.yul\":690:807   */\n    tag_42:\n        /* \"#utility.yul\":799:800   */\n      0x00\n        /* \"#utility.yul\":796:797   */\n      dup1\n        /* \"#utility.yul\":789:801   */\n      revert\n        /* \"#utility.yul\":813:930   */\n    tag_43:\n        /* \"#utility.yul\":922:923   */\n      0x00\n        /* \"#utility.yul\":919:920   */\n      dup1\n        /* \"#utility.yul\":912:924   */\n      revert\n        /* \"#utility.yul\":936:1038   */\n    tag_44:\n        /* \"#utility.yul\":977:983   */\n      0x00\n        /* \"#utility.yul\":1028:1030   */\n      0x1f\n        /* \"#utility.yul\":1024:1031   */\n      not\n        /* \"#utility.yul\":1019:1021   */\n      0x1f\n        /* \"#utility.yul\":1012:1017   */\n      dup4\n        /* \"#utility.yul\":1008:1022   */\n      add\n        /* \"#utility.yul\":1004:1032   */\n      and\n        /* \"#utility.yul\":994:1032   */\n      swap1\n      pop\n        /* \"#utility.yul\":936:1038   */\n      swap2\n      swap1\n      pop\n      jump\t// out\n        /* \"#utility.yul\":1044:1224   */\n    tag_45:\n        /* \"#utility.yul\":1092:1169   */\n      0x4e487b7100000000000000000000000000000000000000000000000000000000\n        /* \"#utility.yul\":1089:1090   */\n      0x00\n        /* \"#utility.yul\":1082:1170   */\n      mstore\n        /* \"#utility.yul\":1189:1193   */\n      0x41\n        /* \"#utility.yul\":1186:1187   */\n      0x04\n        /* \"#utility.yul\":1179:1194   */\n      mstore\n        /* \"#utility.yul\":1213:1217   */\n      0x24\n        /* \"#utility.yul\":1210:1211   */\n      0x00\n        /* \"#utility.yul\":1203:1218   */\n      revert\n        /* \"#utility.yul\":1230:1511   */\n    tag_46:\n        /* \"#utility.yul\":1313:1340   */\n      tag_82\n        /* \"#utility.yul\":1335:1339   */\n      dup3\n        /* \"#utility.yul\":1313:1340   */\n      tag_44\n      jump\t// in\n    tag_82:\n        /* \"#utility.yul\":1305:1311   */\n      dup2\n        /* \"#utility.yul\":1301:1341   */\n      add\n        /* \"#utility.yul\":1443:1449   */\n      dup2\n        /* \"#utility.yul\":1431:1441   */\n      dup2\n        /* \"#utility.yul\":1428:1450   */\n      lt\n        /* \"#utility.yul\":1407:1425   */\n      0xffffffffffffffff\n        /* \"#utility.yul\":1395:1405   */\n      dup3\n        /* \"#utility.yul\":1392:1426   */\n      gt\n        /* \"#utility.yul\":1389:1451   */\n      or\n        /* \"#utility.yul\":1386:1474   */\n      iszero\n      tag_83\n      jumpi\n        /* \"#utility.yul\":1454:1472   */\n      tag_84\n      tag_45\n      jump\t// in\n    tag_84:\n        /* \"#utility.yul\":1386:1474   */\n    tag_83:\n        /* \"#utility.yul\":1494:1504   */\n      dup1\n        /* \"#utility.yul\":1490:1492   */\n      0x40\n        /* \"#utility.yul\":1483:1505   */\n      mstore\n        /* \"#utility.yul\":1273:1511   */\n      pop\n        /* \"#utility.yul\":1230:1511   */\n      pop\n      pop\n      jump\t// out\n        /* \"#utility.yul\":1517:1646   */\n    tag_47:\n        /* \"#utility.yul\":1551:1557   */\n      0x00\n        /* \"#utility.yul\":1578:1598   */\n      tag_86\n      tag_36\n      jump\t// in\n    tag_86:\n        /* \"#utility.yul\":1568:1598   */\n      swap1\n      pop\n        /* \"#utility.yul\":1607:1640   */\n      tag_87\n        /* \"#utility.yul\":1635:1639   */\n      dup3\n        /* \"#utility.yul\":1627:1633   */\n      dup3\n        /* \"#utility.yul\":1607:1640   */\n      tag_46\n      jump\t// in\n    tag_87:\n        /* \"#utility.yul\":1517:1646   */\n      swap2\n      swap1\n      pop\n      jump\t// out\n        /* \"#utility.yul\":1652:1959   */\n    tag_48:\n        /* \"#utility.yul\":1713:1717   */\n      0x00\n        /* \"#utility.yul\":1803:1821   */\n      0xffffffffffffffff\n        /* \"#utility.yul\":1795:1801   */\n      dup3\n        /* \"#utility.yul\":1792:1822   */\n      gt\n        /* \"#utility.yul\":1789:1845   */\n      iszero\n      tag_89\n      jumpi\n        /* \"#utility.yul\":1825:1843   */\n      tag_90\n      tag_45\n      jump\t// in\n    tag_90:\n        /* \"#utility.yul\":1789:1845   */\n    tag_89:\n        /* \"#utility.yul\":1863:1892   */\n      tag_91\n        /* \"#utility.yul\":1885:1891   */\n      dup3\n        /* \"#utility.yul\":1863:1892   */\n      tag_44\n      jump\t// in\n    tag_91:\n        /* \"#utility.yul\":1855:1892   */\n      swap1\n      pop\n        /* \"#utility.yul\":1947:1951   */\n      0x20\n        /* \"#utility.yul\":1941:1945   */\n      dup2\n        /* \"#utility.yul\":1937:1952   */\n      add\n        /* \"#utility.yul\":1929:1952   */\n      swap1\n      pop\n        /* \"#utility.yul\":1652:1959   */\n      swap2\n      swap1\n      pop\n      jump\t// out\n        /* \"#utility.yul\":1965:2111   */\n    tag_49:\n        /* \"#utility.yul\":2062:2068   */\n      dup3\n        /* \"#utility.yul\":2057:2060   */\n      dup2\n        /* \"#utility.yul\":2052:2055   */\n      dup4\n        /* \"#utility.yul\":2039:2069   */\n      calldatacopy\n        /* \"#utility.yul\":2103:2104   */\n      0x00\n        /* \"#utility.yul\":2094:2100   */\n      dup4\n        /* \"#utility.yul\":2089:2092   */\n      dup4\n        /* \"#utility.yul\":2085:2101   */\n      add\n        /* \"#utility.yul\":2078:2105   */\n      mstore\n        /* \"#utility.yul\":1965:2111   */\n      pop\n      pop\n      pop\n      jump\t// out\n        /* \"#utility.yul\":2117:2540   */\n    tag_50:\n        /* \"#utility.yul\":2194:2199   */\n      0x00\n        /* \"#utility.yul\":2219:2284   */\n      tag_94\n        /* \"#utility.yul\":2235:2283   */\n      tag_95\n        /* \"#utility.yul\":2276:2282   */\n      dup5\n        /* \"#utility.yul\":2235:2283   */\n      tag_48\n      jump\t// in\n    tag_95:\n        /* \"#utility.yul\":2219:2284   */\n      tag_47\n      jump\t// in\n    tag_94:\n        /* \"#utility.yul\":2210:2284   */\n      swap1\n      pop\n        /* \"#utility.yul\":2307:2313   */\n      dup3\n        /* \"#utility.yul\":2300:2305   */\n      dup2\n        /* \"#utility.yul\":2293:2314   */\n      mstore\n        /* \"#utility.yul\":2345:2349   */\n      0x20\n        /* \"#utility.yul\":2338:2343   */\n      dup2\n        /* \"#utility.yul\":2334:2350   */\n      add\n        /* \"#utility.yul\":2383:2386   */\n      dup5\n        /* \"#utility.yul\":2374:2380   */\n      dup5\n        /* \"#utility.yul\":2369:2372   */\n      dup5\n        /* \"#utility.yul\":2365:2381   */\n      add\n        /* \"#utility.yul\":2362:2387   */\n      gt\n        /* \"#utility.yul\":2359:2471   */\n      iszero\n      tag_96\n      jumpi\n        /* \"#utility.yul\":2390:2469   */\n      tag_97\n      tag_43\n      jump\t// in\n    tag_97:\n        /* \"#utility.yul\":2359:2471   */\n    tag_96:\n        /* \"#utility.yul\":2480:2534   */\n      tag_98\n        /* \"#utility.yul\":2527:2533   */\n      dup5\n        /* \"#utility.yul\":2522:2525   */\n      dup3\n        /* \"#utility.yul\":2517:2520   */\n      dup6\n        /* \"#utility.yul\":2480:2534   */\n      tag_49\n      jump\t// in\n    tag_98:\n        /* \"#utility.yul\":2200:2540   */\n      pop\n        /* \"#utility.yul\":2117:2540   */\n      swap4\n      swap3\n      pop\n      pop\n      pop\n      jump\t// out\n        /* \"#utility.yul\":2559:2897   */\n    tag_51:\n        /* \"#utility.yul\":2614:2619   */\n      0x00\n        /* \"#utility.yul\":2663:2666   */\n      dup3\n        /* \"#utility.yul\":2656:2660   */\n      0x1f\n        /* \"#utility.yul\":2648:2654   */\n      dup4\n        /* \"#utility.yul\":2644:2661   */\n      add\n        /* \"#utility.yul\":2640:2667   */\n      slt\n        /* \"#utility.yul\":2630:2752   */\n      tag_100\n      jumpi\n        /* \"#utility.yul\":2671:2750   */\n      tag_101\n      tag_42\n      jump\t// in\n    tag_101:\n        /* \"#utility.yul\":2630:2752   */\n    tag_100:\n        /* \"#utility.yul\":2788:2794   */\n      dup2\n        /* \"#utility.yul\":2775:2795   */\n      calldataload\n        /* \"#utility.yul\":2813:2891   */\n      tag_102\n        /* \"#utility.yul\":2887:2890   */\n      dup5\n        /* \"#utility.yul\":2879:2885   */\n      dup3\n        /* \"#utility.yul\":2872:2876   */\n      0x20\n        /* \"#utility.yul\":2864:2870   */\n      dup7\n        /* \"#utility.yul\":2860:2877   */\n      add\n        /* \"#utility.yul\":2813:2891   */\n      tag_50\n      jump\t// in\n    tag_102:\n        /* \"#utility.yul\":2804:2891   */\n      swap2\n      pop\n        /* \"#utility.yul\":2620:2897   */\n      pop\n        /* \"#utility.yul\":2559:2897   */\n      swap3\n      swap2\n      pop\n      pop\n      jump\t// out\n        /* \"#utility.yul\":2903:3555   */\n    tag_8:\n        /* \"#utility.yul\":2980:2986   */\n      0x00\n        /* \"#utility.yul\":2988:2994   */\n      dup1\n        /* \"#utility.yul\":3037:3039   */\n      0x40\n        /* \"#utility.yul\":3025:3034   */\n      dup4\n        /* \"#utility.yul\":3016:3023   */\n      dup6\n        /* \"#utility.yul\":3012:3035   */\n      sub\n        /* \"#utility.yul\":3008:3040   */\n      slt\n        /* \"#utility.yul\":3005:3124   */\n      iszero\n      tag_104\n      jumpi\n        /* \"#utility.yul\":3043:3122   */\n      tag_105\n      tag_37\n      jump\t// in\n    tag_105:\n        /* \"#utility.yul\":3005:3124   */\n    tag_104:\n        /* \"#utility.yul\":3163:3164   */\n      0x00\n        /* \"#utility.yul\":3188:3241   */\n      tag_106\n        /* \"#utility.yul\":3233:3240   */\n      dup6\n        /* \"#utility.yul\":3224:3230   */\n      dup3\n        /* \"#utility.yul\":3213:3222   */\n      dup7\n        /* \"#utility.yul\":3209:3231   */\n      add\n        /* \"#utility.yul\":3188:3241   */\n      tag_41\n      jump\t// in\n    tag_106:\n        /* \"#utility.yul\":3178:3241   */\n      swap3\n      pop\n        /* \"#utility.yul\":3134:3251   */\n      pop\n        /* \"#utility.yul\":3318:3320   */\n      0x20\n        /* \"#utility.yul\":3307:3316   */\n      dup4\n        /* \"#utility.yul\":3303:3321   */\n      add\n        /* \"#utility.yul\":3290:3322   */\n      calldataload\n        /* \"#utility.yul\":3349:3367   */\n      0xffffffffffffffff\n        /* \"#utility.yul\":3341:3347   */\n      dup2\n        /* \"#utility.yul\":3338:3368   */\n      gt\n        /* \"#utility.yul\":3335:3452   */\n      iszero\n      tag_107\n      jumpi\n        /* \"#utility.yul\":3371:3450   */\n      tag_108\n      tag_38\n      jump\t// in\n    tag_108:\n        /* \"#utility.yul\":3335:3452   */\n    tag_107:\n        /* \"#utility.yul\":3476:3538   */\n      tag_109\n        /* \"#utility.yul\":3530:3537   */\n      dup6\n        /* \"#utility.yul\":3521:3527   */\n      dup3\n        /* \"#utility.yul\":3510:3519   */\n      dup7\n        /* \"#utility.yul\":3506:3528   */\n      add\n        /* \"#utility.yul\":3476:3538   */\n      tag_51\n      jump\t// in\n    tag_109:\n        /* \"#utility.yul\":3466:3538   */\n      swap2\n      pop\n        /* \"#utility.yul\":3261:3548   */\n      pop\n        /* \"#utility.yul\":2903:3555   */\n      swap3\n      pop\n      swap3\n      swap1\n      pop\n      jump\t// out\n        /* \"#utility.yul\":3561:3687   */\n    tag_52:\n        /* \"#utility.yul\":3598:3605   */\n      0x00\n        /* \"#utility.yul\":3638:3680   */\n      0xffffffffffffffffffffffffffffffffffffffff\n        /* \"#utility.yul\":3631:3636   */\n      dup3\n        /* \"#utility.yul\":3627:3681   */\n      and\n        /* \"#utility.yul\":3616:3681   */\n      swap1\n      pop\n        /* \"#utility.yul\":3561:3687   */\n      swap2\n      swap1\n      pop\n      jump\t// out\n        /* \"#utility.yul\":3693:3789   */\n    tag_53:\n        /* \"#utility.yul\":3730:3737   */\n      0x00\n        /* \"#utility.yul\":3759:3783   */\n      tag_112\n        /* \"#utility.yul\":3777:3782   */\n      dup3\n        /* \"#utility.yul\":3759:3783   */\n      tag_52\n      jump\t// in\n    tag_112:\n        /* \"#utility.yul\":3748:3783   */\n      swap1\n      pop\n        /* \"#utility.yul\":3693:3789   */\n      swap2\n      swap1\n      pop\n      jump\t// out\n        /* \"#utility.yul\":3795:3913   */\n    tag_54:\n        /* \"#utility.yul\":3882:3906   */\n      tag_114\n        /* \"#utility.yul\":3900:3905   */\n      dup2\n        /* \"#utility.yul\":3882:3906   */\n      tag_53\n      jump\t// in\n    tag_114:\n        /* \"#utility.yul\":3877:3880   */\n      dup3\n        /* \"#utility.yul\":3870:3907   */\n      mstore\n        /* \"#utility.yul\":3795:3913   */\n      pop\n      pop\n      jump\t// out\n        /* \"#utility.yul\":3919:4141   */\n    tag_11:\n        /* \"#utility.yul\":4012:4016   */\n      0x00\n        /* \"#utility.yul\":4050:4052   */\n      0x20\n        /* \"#utility.yul\":4039:4048   */\n      dup3\n        /* \"#utility.yul\":4035:4053   */\n      add\n        /* \"#utility.yul\":4027:4053   */\n      swap1\n      pop\n        /* \"#utility.yul\":4063:4134   */\n      tag_116\n        /* \"#utility.yul\":4131:4132   */\n      0x00\n        /* \"#utility.yul\":4120:4129   */\n      dup4\n        /* \"#utility.yul\":4116:4133   */\n      add\n        /* \"#utility.yul\":4107:4113   */\n      dup5\n        /* \"#utility.yul\":4063:4134   */\n      tag_54\n      jump\t// in\n    tag_116:\n        /* \"#utility.yul\":3919:4141   */\n      swap3\n      swap2\n      pop\n      pop\n      jump\t// out\n        /* \"#utility.yul\":4147:4654   */\n    tag_14:\n        /* \"#utility.yul\":4215:4221   */\n      0x00\n        /* \"#utility.yul\":4264:4266   */\n      0x20\n        /* \"#utility.yul\":4252:4261   */\n      dup3\n        /* \"#utility.yul\":4243:4250   */\n      dup5\n        /* \"#utility.yul\":4239:4262   */\n      sub\n        /* \"#utility.yul\":4235:4267   */\n      slt\n        /* \"#utility.yul\":4232:4351   */\n      iszero\n      tag_118\n      jumpi\n        /* \"#utility.yul\":4270:4349   */\n      tag_119\n      tag_37\n      jump\t// in\n    tag_119:\n        /* \"#utility.yul\":4232:4351   */\n    tag_118:\n        /* \"#utility.yul\":4418:4419   */\n      0x00\n        /* \"#utility.yul\":4407:4416   */\n      dup3\n        /* \"#utility.yul\":4403:4420   */\n      add\n        /* \"#utility.yul\":4390:4421   */\n      calldataload\n        /* \"#utility.yul\":4448:4466   */\n      0xffffffffffffffff\n        /* \"#utility.yul\":4440:4446   */\n      dup2\n        /* \"#utility.yul\":4437:4467   */\n      gt\n        /* \"#utility.yul\":4434:4551   */\n      iszero\n      tag_120\n      jumpi\n        /* \"#utility.yul\":4470:4549   */\n      tag_121\n      tag_38\n      jump\t// in\n    tag_121:\n        /* \"#utility.yul\":4434:4551   */\n    tag_120:\n        /* \"#utility.yul\":4575:4637   */\n      tag_122\n        /* \"#utility.yul\":4629:4636   */\n      dup5\n        /* \"#utility.yul\":4620:4626   */\n      dup3\n        /* \"#utility.yul\":4609:4618   */\n      dup6\n        /* \"#utility.yul\":4605:4627   */\n      add\n        /* \"#utility.yul\":4575:4637   */\n      tag_51\n      jump\t// in\n    tag_122:\n        /* \"#utility.yul\":4565:4637   */\n      swap2\n      pop\n        /* \"#utility.yul\":4361:4647   */\n      pop\n        /* \"#utility.yul\":4147:4654   */\n      swap3\n      swap2\n      pop\n      pop\n      jump\t// out\n        /* \"#utility.yul\":4660:4746   */\n    tag_55:\n        /* \"#utility.yul\":4695:4702   */\n      0x00\n        /* \"#utility.yul\":4735:4739   */\n      0xff\n        /* \"#utility.yul\":4728:4733   */\n      dup3\n        /* \"#utility.yul\":4724:4740   */\n      and\n        /* \"#utility.yul\":4713:4740   */\n      swap1\n      pop\n        /* \"#utility.yul\":4660:4746   */\n      swap2\n      swap1\n      pop\n      jump\t// out\n        /* \"#utility.yul\":4752:4864   */\n    tag_56:\n        /* \"#utility.yul\":4835:4857   */\n      tag_125\n        /* \"#utility.yul\":4851:4856   */\n      dup2\n        /* \"#utility.yul\":4835:4857   */\n      tag_55\n      jump\t// in\n    tag_125:\n        /* \"#utility.yul\":4830:4833   */\n      dup3\n        /* \"#utility.yul\":4823:4858   */\n      mstore\n        /* \"#utility.yul\":4752:4864   */\n      pop\n      pop\n      jump\t// out\n        /* \"#utility.yul\":4870:4988   */\n    tag_57:\n        /* \"#utility.yul\":4957:4981   */\n      tag_127\n        /* \"#utility.yul\":4975:4980   */\n      dup2\n        /* \"#utility.yul\":4957:4981   */\n      tag_39\n      jump\t// in\n    tag_127:\n        /* \"#utility.yul\":4952:4955   */\n      dup3\n        /* \"#utility.yul\":4945:4982   */\n      mstore\n        /* \"#utility.yul\":4870:4988   */\n      pop\n      pop\n      jump\t// out\n        /* \"#utility.yul\":4994:5428   */\n    tag_17:\n        /* \"#utility.yul\":5139:5143   */\n      0x00\n        /* \"#utility.yul\":5177:5179   */\n      0x60\n        /* \"#utility.yul\":5166:5175   */\n      dup3\n        /* \"#utility.yul\":5162:5180   */\n      add\n        /* \"#utility.yul\":5154:5180   */\n      swap1\n      pop\n        /* \"#utility.yul\":5190:5257   */\n      tag_129\n        /* \"#utility.yul\":5254:5255   */\n      0x00\n        /* \"#utility.yul\":5243:5252   */\n      dup4\n        /* \"#utility.yul\":5239:5256   */\n      add\n        /* \"#utility.yul\":5230:5236   */\n      dup7\n        /* \"#utility.yul\":5190:5257   */\n      tag_56\n      jump\t// in\n    tag_129:\n        /* \"#utility.yul\":5267:5339   */\n      tag_130\n        /* \"#utility.yul\":5335:5337   */\n      0x20\n        /* \"#utility.yul\":5324:5333   */\n      dup4\n        /* \"#utility.yul\":5320:5338   */\n      add\n        /* \"#utility.yul\":5311:5317   */\n      dup6\n        /* \"#utility.yul\":5267:5339   */\n      tag_57\n      jump\t// in\n    tag_130:\n        /* \"#utility.yul\":5349:5421   */\n      tag_131\n        /* \"#utility.yul\":5417:5419   */\n      0x40\n        /* \"#utility.yul\":5406:5415   */\n      dup4\n        /* \"#utility.yul\":5402:5420   */\n      add\n        /* \"#utility.yul\":5393:5399   */\n      dup5\n        /* \"#utility.yul\":5349:5421   */\n      tag_57\n      jump\t// in\n    tag_131:\n        /* \"#utility.yul\":4994:5428   */\n      swap5\n      swap4\n      pop\n      pop\n      pop\n      pop\n      jump\t// out\n        /* \"#utility.yul\":5434:5742   */\n    tag_58:\n        /* \"#utility.yul\":5496:5500   */\n      0x00\n        /* \"#utility.yul\":5586:5604   */\n      0xffffffffffffffff\n        /* \"#utility.yul\":5578:5584   */\n      dup3\n        /* \"#utility.yul\":5575:5605   */\n      gt\n        /* \"#utility.yul\":5572:5628   */\n      iszero\n      tag_133\n      jumpi\n        /* \"#utility.yul\":5608:5626   */\n      tag_134\n      tag_45\n      jump\t// in\n    tag_134:\n        /* \"#utility.yul\":5572:5628   */\n    tag_133:\n        /* \"#utility.yul\":5646:5675   */\n      tag_135\n        /* \"#utility.yul\":5668:5674   */\n      dup3\n        /* \"#utility.yul\":5646:5675   */\n      tag_44\n      jump\t// in\n    tag_135:\n        /* \"#utility.yul\":5638:5675   */\n      swap1\n      pop\n        /* \"#utility.yul\":5730:5734   */\n      0x20\n        /* \"#utility.yul\":5724:5728   */\n      dup2\n        /* \"#utility.yul\":5720:5735   */\n      add\n        /* \"#utility.yul\":5712:5735   */\n      swap1\n      pop\n        /* \"#utility.yul\":5434:5742   */\n      swap2\n      swap1\n      pop\n      jump\t// out\n        /* \"#utility.yul\":5748:6173   */\n    tag_59:\n        /* \"#utility.yul\":5826:5831   */\n      0x00\n        /* \"#utility.yul\":5851:5917   */\n      tag_137\n        /* \"#utility.yul\":5867:5916   */\n      tag_138\n        /* \"#utility.yul\":5909:5915   */\n      dup5\n        /* \"#utility.yul\":5867:5916   */\n      tag_58\n      jump\t// in\n    tag_138:\n        /* \"#utility.yul\":5851:5917   */\n      tag_47\n      jump\t// in\n    tag_137:\n        /* \"#utility.yul\":5842:5917   */\n      swap1\n      pop\n        /* \"#utility.yul\":5940:5946   */\n      dup3\n        /* \"#utility.yul\":5933:5938   */\n      dup2\n        /* \"#utility.yul\":5926:5947   */\n      mstore\n        /* \"#utility.yul\":5978:5982   */\n      0x20\n        /* \"#utility.yul\":5971:5976   */\n      dup2\n        /* \"#utility.yul\":5967:5983   */\n      add\n        /* \"#utility.yul\":6016:6019   */\n      dup5\n        /* \"#utility.yul\":6007:6013   */\n      dup5\n        /* \"#utility.yul\":6002:6005   */\n      dup5\n        /* \"#utility.yul\":5998:6014   */\n      add\n        /* \"#utility.yul\":5995:6020   */\n      gt\n        /* \"#utility.yul\":5992:6104   */\n      iszero\n      tag_139\n      jumpi\n        /* \"#utility.yul\":6023:6102   */\n      tag_140\n      tag_43\n      jump\t// in\n    tag_140:\n        /* \"#utility.yul\":5992:6104   */\n    tag_139:\n        /* \"#utility.yul\":6113:6167   */\n      tag_141\n        /* \"#utility.yul\":6160:6166   */\n      dup5\n        /* \"#utility.yul\":6155:6158   */\n      dup3\n        /* \"#utility.yul\":6150:6153   */\n      dup6\n        /* \"#utility.yul\":6113:6167   */\n      tag_49\n      jump\t// in\n    tag_141:\n        /* \"#utility.yul\":5832:6173   */\n      pop\n        /* \"#utility.yul\":5748:6173   */\n      swap4\n      swap3\n      pop\n      pop\n      pop\n      jump\t// out\n        /* \"#utility.yul\":6193:6533   */\n    tag_60:\n        /* \"#utility.yul\":6249:6254   */\n      0x00\n        /* \"#utility.yul\":6298:6301   */\n      dup3\n        /* \"#utility.yul\":6291:6295   */\n      0x1f\n        /* \"#utility.yul\":6283:6289   */\n      dup4\n        /* \"#utility.yul\":6279:6296   */\n      add\n        /* \"#utility.yul\":6275:6302   */\n      slt\n        /* \"#utility.yul\":6265:6387   */\n      tag_143\n      jumpi\n        /* \"#utility.yul\":6306:6385   */\n      tag_144\n      tag_42\n      jump\t// in\n    tag_144:\n        /* \"#utility.yul\":6265:6387   */\n    tag_143:\n        /* \"#utility.yul\":6423:6429   */\n      dup2\n        /* \"#utility.yul\":6410:6430   */\n      calldataload\n        /* \"#utility.yul\":6448:6527   */\n      tag_145\n        /* \"#utility.yul\":6523:6526   */\n      dup5\n        /* \"#utility.yul\":6515:6521   */\n      dup3\n        /* \"#utility.yul\":6508:6512   */\n      0x20\n        /* \"#utility.yul\":6500:6506   */\n      dup7\n        /* \"#utility.yul\":6496:6513   */\n      add\n        /* \"#utility.yul\":6448:6527   */\n      tag_59\n      jump\t// in\n    tag_145:\n        /* \"#utility.yul\":6439:6527   */\n      swap2\n      pop\n        /* \"#utility.yul\":6255:6533   */\n      pop\n        /* \"#utility.yul\":6193:6533   */\n      swap3\n      swap2\n      pop\n      pop\n      jump\t// out\n        /* \"#utility.yul\":6539:7371   */\n    tag_20:\n        /* \"#utility.yul\":6626:6632   */\n      0x00\n        /* \"#utility.yul\":6634:6640   */\n      dup1\n        /* \"#utility.yul\":6683:6685   */\n      0x40\n        /* \"#utility.yul\":6671:6680   */\n      dup4\n        /* \"#utility.yul\":6662:6669   */\n      dup6\n        /* \"#utility.yul\":6658:6681   */\n      sub\n        /* \"#utility.yul\":6654:6686   */\n      slt\n        /* \"#utility.yul\":6651:6770   */\n      iszero\n      tag_147\n      jumpi\n        /* \"#utility.yul\":6689:6768   */\n      tag_148\n      tag_37\n      jump\t// in\n    tag_148:\n        /* \"#utility.yul\":6651:6770   */\n    tag_147:\n        /* \"#utility.yul\":6837:6838   */\n      0x00\n        /* \"#utility.yul\":6826:6835   */\n      dup4\n        /* \"#utility.yul\":6822:6839   */\n      add\n        /* \"#utility.yul\":6809:6840   */\n      calldataload\n        /* \"#utility.yul\":6867:6885   */\n      0xffffffffffffffff\n        /* \"#utility.yul\":6859:6865   */\n      dup2\n        /* \"#utility.yul\":6856:6886   */\n      gt\n        /* \"#utility.yul\":6853:6970   */\n      iszero\n      tag_149\n      jumpi\n        /* \"#utility.yul\":6889:6968   */\n      tag_150\n      tag_38\n      jump\t// in\n    tag_150:\n        /* \"#utility.yul\":6853:6970   */\n    tag_149:\n        /* \"#utility.yul\":6994:7057   */\n      tag_151\n        /* \"#utility.yul\":7049:7056   */\n      dup6\n        /* \"#utility.yul\":7040:7046   */\n      dup3\n        /* \"#utility.yul\":7029:7038   */\n      dup7\n        /* \"#utility.yul\":7025:7047   */\n      add\n        /* \"#utility.yul\":6994:7057   */\n      tag_60\n      jump\t// in\n    tag_151:\n        /* \"#utility.yul\":6984:7057   */\n      swap3\n      pop\n        /* \"#utility.yul\":6780:7067   */\n      pop\n        /* \"#utility.yul\":7134:7136   */\n      0x20\n        /* \"#utility.yul\":7123:7132   */\n      dup4\n        /* \"#utility.yul\":7119:7137   */\n      add\n        /* \"#utility.yul\":7106:7138   */\n      calldataload\n        /* \"#utility.yul\":7165:7183   */\n      0xffffffffffffffff\n        /* \"#utility.yul\":7157:7163   */\n      dup2\n        /* \"#utility.yul\":7154:7184   */\n      gt\n        /* \"#utility.yul\":7151:7268   */\n      iszero\n      tag_152\n      jumpi\n        /* \"#utility.yul\":7187:7266   */\n      tag_153\n      tag_38\n      jump\t// in\n    tag_153:\n        /* \"#utility.yul\":7151:7268   */\n    tag_152:\n        /* \"#utility.yul\":7292:7354   */\n      tag_154\n        /* \"#utility.yul\":7346:7353   */\n      dup6\n        /* \"#utility.yul\":7337:7343   */\n      dup3\n        /* \"#utility.yul\":7326:7335   */\n      dup7\n        /* \"#utility.yul\":7322:7344   */\n      add\n        /* \"#utility.yul\":7292:7354   */\n      tag_51\n      jump\t// in\n    tag_154:\n        /* \"#utility.yul\":7282:7354   */\n      swap2\n      pop\n        /* \"#utility.yul\":7077:7364   */\n      pop\n        /* \"#utility.yul\":6539:7371   */\n      swap3\n      pop\n      swap3\n      swap1\n      pop\n      jump\t// out\n        /* \"#utility.yul\":7377:7467   */\n    tag_61:\n        /* \"#utility.yul\":7411:7418   */\n      0x00\n        /* \"#utility.yul\":7454:7459   */\n      dup2\n        /* \"#utility.yul\":7447:7460   */\n      iszero\n        /* \"#utility.yul\":7440:7461   */\n      iszero\n        /* \"#utility.yul\":7429:7461   */\n      swap1\n      pop\n        /* \"#utility.yul\":7377:7467   */\n      swap2\n      swap1\n      pop\n      jump\t// out\n        /* \"#utility.yul\":7473:7582   */\n    tag_62:\n        /* \"#utility.yul\":7554:7575   */\n      tag_157\n        /* \"#utility.yul\":7569:7574   */\n      dup2\n        /* \"#utility.yul\":7554:7575   */\n      tag_61\n      jump\t// in\n    tag_157:\n        /* \"#utility.yul\":7549:7552   */\n      dup3\n        /* \"#utility.yul\":7542:7576   */\n      mstore\n        /* \"#utility.yul\":7473:7582   */\n      pop\n      pop\n      jump\t// out\n        /* \"#utility.yul\":7588:7798   */\n    tag_23:\n        /* \"#utility.yul\":7675:7679   */\n      0x00\n        /* \"#utility.yul\":7713:7715   */\n      0x20\n        /* \"#utility.yul\":7702:7711   */\n      dup3\n        /* \"#utility.yul\":7698:7716   */\n      add\n        /* \"#utility.yul\":7690:7716   */\n      swap1\n      pop\n        /* \"#utility.yul\":7726:7791   */\n      tag_159\n        /* \"#utility.yul\":7788:7789   */\n      0x00\n        /* \"#utility.yul\":7777:7786   */\n      dup4\n        /* \"#utility.yul\":7773:7790   */\n      add\n        /* \"#utility.yul\":7764:7770   */\n      dup5\n        /* \"#utility.yul\":7726:7791   */\n      tag_62\n      jump\t// in\n    tag_159:\n        /* \"#utility.yul\":7588:7798   */\n      swap3\n      swap2\n      pop\n      pop\n      jump\t// out\n        /* \"#utility.yul\":7804:8349   */\n    tag_27:\n        /* \"#utility.yul\":7977:7981   */\n      0x00\n        /* \"#utility.yul\":8015:8018   */\n      0x80\n        /* \"#utility.yul\":8004:8013   */\n      dup3\n        /* \"#utility.yul\":8000:8019   */\n      add\n        /* \"#utility.yul\":7992:8019   */\n      swap1\n      pop\n        /* \"#utility.yul\":8029:8100   */\n      tag_161\n        /* \"#utility.yul\":8097:8098   */\n      0x00\n        /* \"#utility.yul\":8086:8095   */\n      dup4\n        /* \"#utility.yul\":8082:8099   */\n      add\n        /* \"#utility.yul\":8073:8079   */\n      dup8\n        /* \"#utility.yul\":8029:8100   */\n      tag_57\n      jump\t// in\n    tag_161:\n        /* \"#utility.yul\":8110:8178   */\n      tag_162\n        /* \"#utility.yul\":8174:8176   */\n      0x20\n        /* \"#utility.yul\":8163:8172   */\n      dup4\n        /* \"#utility.yul\":8159:8177   */\n      add\n        /* \"#utility.yul\":8150:8156   */\n      dup7\n        /* \"#utility.yul\":8110:8178   */\n      tag_56\n      jump\t// in\n    tag_162:\n        /* \"#utility.yul\":8188:8260   */\n      tag_163\n        /* \"#utility.yul\":8256:8258   */\n      0x40\n        /* \"#utility.yul\":8245:8254   */\n      dup4\n        /* \"#utility.yul\":8241:8259   */\n      add\n        /* \"#utility.yul\":8232:8238   */\n      dup6\n        /* \"#utility.yul\":8188:8260   */\n      tag_57\n      jump\t// in\n    tag_163:\n        /* \"#utility.yul\":8270:8342   */\n      tag_164\n        /* \"#utility.yul\":8338:8340   */\n      0x60\n        /* \"#utility.yul\":8327:8336   */\n      dup4\n        /* \"#utility.yul\":8323:8341   */\n      add\n        /* \"#utility.yul\":8314:8320   */\n      dup5\n        /* \"#utility.yul\":8270:8342   */\n      tag_57\n      jump\t// in\n    tag_164:\n        /* \"#utility.yul\":7804:8349   */\n      swap6\n      swap5\n      pop\n      pop\n      pop\n      pop\n      pop\n      jump\t// out\n        /* \"#utility.yul\":8355:8454   */\n    tag_63:\n        /* \"#utility.yul\":8407:8413   */\n      0x00\n        /* \"#utility.yul\":8441:8446   */\n      dup2\n        /* \"#utility.yul\":8435:8447   */\n      mload\n        /* \"#utility.yul\":8425:8447   */\n      swap1\n      pop\n        /* \"#utility.yul\":8355:8454   */\n      swap2\n      swap1\n      pop\n      jump\t// out\n        /* \"#utility.yul\":8460:8608   */\n    tag_64:\n        /* \"#utility.yul\":8562:8573   */\n      0x00\n        /* \"#utility.yul\":8599:8602   */\n      dup2\n        /* \"#utility.yul\":8584:8602   */\n      swap1\n      pop\n        /* \"#utility.yul\":8460:8608   */\n      swap3\n      swap2\n      pop\n      pop\n      jump\t// out\n        /* \"#utility.yul\":8614:8860   */\n    tag_65:\n        /* \"#utility.yul\":8695:8696   */\n      0x00\n        /* \"#utility.yul\":8705:8818   */\n    tag_168:\n        /* \"#utility.yul\":8719:8725   */\n      dup4\n        /* \"#utility.yul\":8716:8717   */\n      dup2\n        /* \"#utility.yul\":8713:8726   */\n      lt\n        /* \"#utility.yul\":8705:8818   */\n      iszero\n      tag_170\n      jumpi\n        /* \"#utility.yul\":8804:8805   */\n      dup1\n        /* \"#utility.yul\":8799:8802   */\n      dup3\n        /* \"#utility.yul\":8795:8806   */\n      add\n        /* \"#utility.yul\":8789:8807   */\n      mload\n        /* \"#utility.yul\":8785:8786   */\n      dup2\n        /* \"#utility.yul\":8780:8783   */\n      dup5\n        /* \"#utility.yul\":8776:8787   */\n      add\n        /* \"#utility.yul\":8769:8808   */\n      mstore\n        /* \"#utility.yul\":8741:8743   */\n      0x20\n        /* \"#utility.yul\":8738:8739   */\n      dup2\n        /* \"#utility.yul\":8734:8744   */\n      add\n        /* \"#utility.yul\":8729:8744   */\n      swap1\n      pop\n        /* \"#utility.yul\":8705:8818   */\n      jump(tag_168)\n    tag_170:\n        /* \"#utility.yul\":8852:8853   */\n      0x00\n        /* \"#utility.yul\":8843:8849   */\n      dup5\n        /* \"#utility.yul\":8838:8841   */\n      dup5\n        /* \"#utility.yul\":8834:8850   */\n      add\n        /* \"#utility.yul\":8827:8854   */\n      mstore\n        /* \"#utility.yul\":8676:8860   */\n      pop\n        /* \"#utility.yul\":8614:8860   */\n      pop\n      pop\n      pop\n      jump\t// out\n        /* \"#utility.yul\":8866:9256   */\n    tag_66:\n        /* \"#utility.yul\":8972:8975   */\n      0x00\n        /* \"#utility.yul\":9000:9039   */\n      tag_172\n        /* \"#utility.yul\":9033:9038   */\n      dup3\n        /* \"#utility.yul\":9000:9039   */\n      tag_63\n      jump\t// in\n    tag_172:\n        /* \"#utility.yul\":9055:9144   */\n      tag_173\n        /* \"#utility.yul\":9137:9143   */\n      dup2\n        /* \"#utility.yul\":9132:9135   */\n      dup6\n        /* \"#utility.yul\":9055:9144   */\n      tag_64\n      jump\t// in\n    tag_173:\n        /* \"#utility.yul\":9048:9144   */\n      swap4\n      pop\n        /* \"#utility.yul\":9153:9218   */\n      tag_174\n        /* \"#utility.yul\":9211:9217   */\n      dup2\n        /* \"#utility.yul\":9206:9209   */\n      dup6\n        /* \"#utility.yul\":9199:9203   */\n      0x20\n        /* \"#utility.yul\":9192:9197   */\n      dup7\n        /* \"#utility.yul\":9188:9204   */\n      add\n        /* \"#utility.yul\":9153:9218   */\n      tag_65\n      jump\t// in\n    tag_174:\n        /* \"#utility.yul\":9243:9249   */\n      dup1\n        /* \"#utility.yul\":9238:9241   */\n      dup5\n        /* \"#utility.yul\":9234:9250   */\n      add\n        /* \"#utility.yul\":9227:9250   */\n      swap2\n      pop\n        /* \"#utility.yul\":8976:9256   */\n      pop\n        /* \"#utility.yul\":8866:9256   */\n      swap3\n      swap2\n      pop\n      pop\n      jump\t// out\n        /* \"#utility.yul\":9262:9537   */\n    tag_34:\n        /* \"#utility.yul\":9394:9397   */\n      0x00\n        /* \"#utility.yul\":9416:9511   */\n      tag_176\n        /* \"#utility.yul\":9507:9510   */\n      dup3\n        /* \"#utility.yul\":9498:9504   */\n      dup5\n        /* \"#utility.yul\":9416:9511   */\n      tag_66\n      jump\t// in\n    tag_176:\n        /* \"#utility.yul\":9409:9511   */\n      swap2\n      pop\n        /* \"#utility.yul\":9528:9531   */\n      dup2\n        /* \"#utility.yul\":9521:9531   */\n      swap1\n      pop\n        /* \"#utility.yul\":9262:9537   */\n      swap3\n      swap2\n      pop\n      pop\n      jump\t// out\n\n    auxdata: 0xa26469706673582212203701e3fac8afe3f617e7d2a910a0c72b7f16c6e1793810c29d868e8e44329fc964736f6c63430008110033\n}\n",
				"bytecode": {
					"linkReferences": {},
					"object": "608060405234801561001057600080fd5b50604051610879380380610879833981810160405281019061003291906100db565b806000806101000a81548173ffffffffffffffffffffffffffffffffffffffff021916908373ffffffffffffffffffffffffffffffffffffffff16021790555050610108565b600080fd5b600073ffffffffffffffffffffffffffffffffffffffff82169050919050565b60006100a88261007d565b9050919050565b6100b88161009d565b81146100c357600080fd5b50565b6000815190506100d5816100af565b92915050565b6000602082840312156100f1576100f0610078565b5b60006100ff848285016100c6565b91505092915050565b610762806101176000396000f3fe608060405234801561001057600080fd5b50600436106100415760003560e01c806397aba7f914610046578063a7bb580314610076578063adb41f75146100a8575b600080fd5b610060600480360381019061005b91906103ad565b6100d8565b60405161006d919061044a565b60405180910390f35b610090600480360381019061008b9190610465565b61014d565b60405161009f939291906104d9565b60405180910390f35b6100c260048036038101906100bd91906105b1565b610190565b6040516100cf9190610644565b60405180910390f35b6000806000806100e78561014d565b80935081945082955050505060018684848460405160008152602001604052604051610116949392919061065f565b6020604051602081039080840390855afa158015610138573d6000803e3d6000fd5b50505060206040510351935050505092915050565b6000806000604184511461016057600080fd5b60008060006020870151925060408701519150606087015160001a90508083839550955095505050509193909250565b600080836040516020016101a49190610715565b60405160208183030381529060405280519060200120905060008054906101000a900473ffffffffffffffffffffffffffffffffffffffff1673ffffffffffffffffffffffffffffffffffffffff166101fd82856100d8565b73ffffffffffffffffffffffffffffffffffffffff161491505092915050565b6000604051905090565b600080fd5b600080fd5b6000819050919050565b61024481610231565b811461024f57600080fd5b50565b6000813590506102618161023b565b92915050565b600080fd5b600080fd5b6000601f19601f8301169050919050565b7f4e487b7100000000000000000000000000000000000000000000000000000000600052604160045260246000fd5b6102ba82610271565b810181811067ffffffffffffffff821117156102d9576102d8610282565b5b80604052505050565b60006102ec61021d565b90506102f882826102b1565b919050565b600067ffffffffffffffff82111561031857610317610282565b5b61032182610271565b9050602081019050919050565b82818337600083830152505050565b600061035061034b846102fd565b6102e2565b90508281526020810184848401111561036c5761036b61026c565b5b61037784828561032e565b509392505050565b600082601f83011261039457610393610267565b5b81356103a484826020860161033d565b91505092915050565b600080604083850312156103c4576103c3610227565b5b60006103d285828601610252565b925050602083013567ffffffffffffffff8111156103f3576103f261022c565b5b6103ff8582860161037f565b9150509250929050565b600073ffffffffffffffffffffffffffffffffffffffff82169050919050565b600061043482610409565b9050919050565b61044481610429565b82525050565b600060208201905061045f600083018461043b565b92915050565b60006020828403121561047b5761047a610227565b5b600082013567ffffffffffffffff8111156104995761049861022c565b5b6104a58482850161037f565b91505092915050565b600060ff82169050919050565b6104c4816104ae565b82525050565b6104d381610231565b82525050565b60006060820190506104ee60008301866104bb565b6104fb60208301856104ca565b61050860408301846104ca565b949350505050565b600067ffffffffffffffff82111561052b5761052a610282565b5b61053482610271565b9050602081019050919050565b600061055461054f84610510565b6102e2565b9050828152602081018484840111156105705761056f61026c565b5b61057b84828561032e565b509392505050565b600082601f83011261059857610597610267565b5b81356105a8848260208601610541565b91505092915050565b600080604083850312156105c8576105c7610227565b5b600083013567ffffffffffffffff8111156105e6576105e561022c565b5b6105f285828601610583565b925050602083013567ffffffffffffffff8111156106135761061261022c565b5b61061f8582860161037f565b9150509250929050565b60008115159050919050565b61063e81610629565b82525050565b60006020820190506106596000830184610635565b92915050565b600060808201905061067460008301876104ca565b61068160208301866104bb565b61068e60408301856104ca565b61069b60608301846104ca565b95945050505050565b600081519050919050565b600081905092915050565b60005b838110156106d85780820151818401526020810190506106bd565b60008484015250505050565b60006106ef826106a4565b6106f981856106af565b93506107098185602086016106ba565b80840191505092915050565b600061072182846106e4565b91508190509291505056fea26469706673582212203701e3fac8afe3f617e7d2a910a0c72b7f16c6e1793810c29d868e8e44329fc964736f6c63430008110033",
					"opcodes": "PUSH1 0x80 PUSH1 0x40 MSTORE CALLVALUE DUP1 ISZERO PUSH2 0x10 JUMPI PUSH1 0x0 DUP1 REVERT JUMPDEST POP PUSH1 0x40 MLOAD PUSH2 0x879 CODESIZE SUB DUP1 PUSH2 0x879 DUP4 CODECOPY DUP2 DUP2 ADD PUSH1 0x40 MSTORE DUP2 ADD SWAP1 PUSH2 0x32 SWAP2 SWAP1 PUSH2 0xDB JUMP JUMPDEST DUP1 PUSH1 0x0 DUP1 PUSH2 0x100 EXP DUP2 SLOAD DUP2 PUSH20 0xFFFFFFFFFFFFFFFFFFFFFFFFFFFFFFFFFFFFFFFF MUL NOT AND SWAP1 DUP4 PUSH20 0xFFFFFFFFFFFFFFFFFFFFFFFFFFFFFFFFFFFFFFFF AND MUL OR SWAP1 SSTORE POP POP PUSH2 0x108 JUMP JUMPDEST PUSH1 0x0 DUP1 REVERT JUMPDEST PUSH1 0x0 PUSH20 0xFFFFFFFFFFFFFFFFFFFFFFFFFFFFFFFFFFFFFFFF DUP3 AND SWAP1 POP SWAP2 SWAP1 POP JUMP JUMPDEST PUSH1 0x0 PUSH2 0xA8 DUP3 PUSH2 0x7D JUMP JUMPDEST SWAP1 POP SWAP2 SWAP1 POP JUMP JUMPDEST PUSH2 0xB8 DUP2 PUSH2 0x9D JUMP JUMPDEST DUP2 EQ PUSH2 0xC3 JUMPI PUSH1 0x0 DUP1 REVERT JUMPDEST POP JUMP JUMPDEST PUSH1 0x0 DUP2 MLOAD SWAP1 POP PUSH2 0xD5 DUP2 PUSH2 0xAF JUMP JUMPDEST SWAP3 SWAP2 POP POP JUMP JUMPDEST PUSH1 0x0 PUSH1 0x20 DUP3 DUP5 SUB SLT ISZERO PUSH2 0xF1 JUMPI PUSH2 0xF0 PUSH2 0x78 JUMP JUMPDEST JUMPDEST PUSH1 0x0 PUSH2 0xFF DUP5 DUP3 DUP6 ADD PUSH2 0xC6 JUMP JUMPDEST SWAP2 POP POP SWAP3 SWAP2 POP POP JUMP JUMPDEST PUSH2 0x762 DUP1 PUSH2 0x117 PUSH1 0x0 CODECOPY PUSH1 0x0 RETURN INVALID PUSH1 0x80 PUSH1 0x40 MSTORE CALLVALUE DUP1 ISZERO PUSH2 0x10 JUMPI PUSH1 0x0 DUP1 REVERT JUMPDEST POP PUSH1 0x4 CALLDATASIZE LT PUSH2 0x41 JUMPI PUSH1 0x0 CALLDATALOAD PUSH1 0xE0 SHR DUP1 PUSH4 0x97ABA7F9 EQ PUSH2 0x46 JUMPI DUP1 PUSH4 0xA7BB5803 EQ PUSH2 0x76 JUMPI DUP1 PUSH4 0xADB41F75 EQ PUSH2 0xA8 JUMPI JUMPDEST PUSH1 0x0 DUP1 REVERT JUMPDEST PUSH2 0x60 PUSH1 0x4 DUP1 CALLDATASIZE SUB DUP2 ADD SWAP1 PUSH2 0x5B SWAP2 SWAP1 PUSH2 0x3AD JUMP JUMPDEST PUSH2 0xD8 JUMP JUMPDEST PUSH1 0x40 MLOAD PUSH2 0x6D SWAP2 SWAP1 PUSH2 0x44A JUMP JUMPDEST PUSH1 0x40 MLOAD DUP1 SWAP2 SUB SWAP1 RETURN JUMPDEST PUSH2 0x90 PUSH1 0x4 DUP1 CALLDATASIZE SUB DUP2 ADD SWAP1 PUSH2 0x8B SWAP2 SWAP1 PUSH2 0x465 JUMP JUMPDEST PUSH2 0x14D JUMP JUMPDEST PUSH1 0x40 MLOAD PUSH2 0x9F SWAP4 SWAP3 SWAP2 SWAP1 PUSH2 0x4D9 JUMP JUMPDEST PUSH1 0x40 MLOAD DUP1 SWAP2 SUB SWAP1 RETURN JUMPDEST PUSH2 0xC2 PUSH1 0x4 DUP1 CALLDATASIZE SUB DUP2 ADD SWAP1 PUSH2 0xBD SWAP2 SWAP1 PUSH2 0x5B1 JUMP JUMPDEST PUSH2 0x190 JUMP JUMPDEST PUSH1 0x40 MLOAD PUSH2 0xCF SWAP2 SWAP1 PUSH2 0x644 JUMP JUMPDEST PUSH1 0x40 MLOAD DUP1 SWAP2 SUB SWAP1 RETURN JUMPDEST PUSH1 0x0 DUP1 PUSH1 0x0 DUP1 PUSH2 0xE7 DUP6 PUSH2 0x14D JUMP JUMPDEST DUP1 SWAP4 POP DUP2 SWAP5 POP DUP3 SWAP6 POP POP POP POP PUSH1 0x1 DUP7 DUP5 DUP5 DUP5 PUSH1 0x40 MLOAD PUSH1 0x0 DUP2 MSTORE PUSH1 0x20 ADD PUSH1 0x40 MSTORE PUSH1 0x40 MLOAD PUSH2 0x116 SWAP5 SWAP4 SWAP3 SWAP2 SWAP1 PUSH2 0x65F JUMP JUMPDEST PUSH1 0x20 PUSH1 0x40 MLOAD PUSH1 0x20 DUP2 SUB SWAP1 DUP1 DUP5 SUB SWAP1 DUP6 GAS STATICCALL ISZERO DUP1 ISZERO PUSH2 0x138 JUMPI RETURNDATASIZE PUSH1 0x0 DUP1 RETURNDATACOPY RETURNDATASIZE PUSH1 0x0 REVERT JUMPDEST POP POP POP PUSH1 0x20 PUSH1 0x40 MLOAD SUB MLOAD SWAP4 POP POP POP POP SWAP3 SWAP2 POP POP JUMP JUMPDEST PUSH1 0x0 DUP1 PUSH1 0x0 PUSH1 0x41 DUP5 MLOAD EQ PUSH2 0x160 JUMPI PUSH1 0x0 DUP1 REVERT JUMPDEST PUSH1 0x0 DUP1 PUSH1 0x0 PUSH1 0x20 DUP8 ADD MLOAD SWAP3 POP PUSH1 0x40 DUP8 ADD MLOAD SWAP2 POP PUSH1 0x60 DUP8 ADD MLOAD PUSH1 0x0 BYTE SWAP1 POP DUP1 DUP4 DUP4 SWAP6 POP SWAP6 POP SWAP6 POP POP POP POP SWAP2 SWAP4 SWAP1 SWAP3 POP JUMP JUMPDEST PUSH1 0x0 DUP1 DUP4 PUSH1 0x40 MLOAD PUSH1 0x20 ADD PUSH2 0x1A4 SWAP2 SWAP1 PUSH2 0x715 JUMP JUMPDEST PUSH1 0x40 MLOAD PUSH1 0x20 DUP2 DUP4 SUB SUB DUP2 MSTORE SWAP1 PUSH1 0x40 MSTORE DUP1 MLOAD SWAP1 PUSH1 0x20 ADD KECCAK256 SWAP1 POP PUSH1 0x0 DUP1 SLOAD SWAP1 PUSH2 0x100 EXP SWAP1 DIV PUSH20 0xFFFFFFFFFFFFFFFFFFFFFFFFFFFFFFFFFFFFFFFF AND PUSH20 0xFFFFFFFFFFFFFFFFFFFFFFFFFFFFFFFFFFFFFFFF AND PUSH2 0x1FD DUP3 DUP6 PUSH2 0xD8 JUMP JUMPDEST PUSH20 0xFFFFFFFFFFFFFFFFFFFFFFFFFFFFFFFFFFFFFFFF AND EQ SWAP2 POP POP SWAP3 SWAP2 POP POP JUMP JUMPDEST PUSH1 0x0 PUSH1 0x40 MLOAD SWAP1 POP SWAP1 JUMP JUMPDEST PUSH1 0x0 DUP1 REVERT JUMPDEST PUSH1 0x0 DUP1 REVERT JUMPDEST PUSH1 0x0 DUP2 SWAP1 POP SWAP2 SWAP1 POP JUMP JUMPDEST PUSH2 0x244 DUP2 PUSH2 0x231 JUMP JUMPDEST DUP2 EQ PUSH2 0x24F JUMPI PUSH1 0x0 DUP1 REVERT JUMPDEST POP JUMP JUMPDEST PUSH1 0x0 DUP2 CALLDATALOAD SWAP1 POP PUSH2 0x261 DUP2 PUSH2 0x23B JUMP JUMPDEST SWAP3 SWAP2 POP POP JUMP JUMPDEST PUSH1 0x0 DUP1 REVERT JUMPDEST PUSH1 0x0 DUP1 REVERT JUMPDEST PUSH1 0x0 PUSH1 0x1F NOT PUSH1 0x1F DUP4 ADD AND SWAP1 POP SWAP2 SWAP1 POP JUMP JUMPDEST PUSH32 0x4E487B7100000000000000000000000000000000000000000000000000000000 PUSH1 0x0 MSTORE PUSH1 0x41 PUSH1 0x4 MSTORE PUSH1 0x24 PUSH1 0x0 REVERT JUMPDEST PUSH2 0x2BA DUP3 PUSH2 0x271 JUMP JUMPDEST DUP2 ADD DUP2 DUP2 LT PUSH8 0xFFFFFFFFFFFFFFFF DUP3 GT OR ISZERO PUSH2 0x2D9 JUMPI PUSH2 0x2D8 PUSH2 0x282 JUMP JUMPDEST JUMPDEST DUP1 PUSH1 0x40 MSTORE POP POP POP JUMP JUMPDEST PUSH1 0x0 PUSH2 0x2EC PUSH2 0x21D JUMP JUMPDEST SWAP1 POP PUSH2 0x2F8 DUP3 DUP3 PUSH2 0x2B1 JUMP JUMPDEST SWAP2 SWAP1 POP JUMP JUMPDEST PUSH1 0x0 PUSH8 0xFFFFFFFFFFFFFFFF DUP3 GT ISZERO PUSH2 0x318 JUMPI PUSH2 0x317 PUSH2 0x282 JUMP JUMPDEST JUMPDEST PUSH2 0x321 DUP3 PUSH2 0x271 JUMP JUMPDEST SWAP1 POP PUSH1 0x20 DUP2 ADD SWAP1 POP SWAP2 SWAP1 POP JUMP JUMPDEST DUP3 DUP2 DUP4 CALLDATACOPY PUSH1 0x0 DUP4 DUP4 ADD MSTORE POP POP POP JUMP JUMPDEST PUSH1 0x0 PUSH2 0x350 PUSH2 0x34B DUP5 PUSH2 0x2FD JUMP JUMPDEST PUSH2 0x2E2 JUMP JUMPDEST SWAP1 POP DUP3 DUP2 MSTORE PUSH1 0x20 DUP2 ADD DUP5 DUP5 DUP5 ADD GT ISZERO PUSH2 0x36C JUMPI PUSH2 0x36B PUSH2 0x26C JUMP JUMPDEST JUMPDEST PUSH2 0x377 DUP5 DUP3 DUP6 PUSH2 0x32E JUMP JUMPDEST POP SWAP4 SWAP3 POP POP POP JUMP JUMPDEST PUSH1 0x0 DUP3 PUSH1 0x1F DUP4 ADD SLT PUSH2 0x394 JUMPI PUSH2 0x393 PUSH2 0x267 JUMP JUMPDEST JUMPDEST DUP2 CALLDATALOAD PUSH2 0x3A4 DUP5 DUP3 PUSH1 0x20 DUP7 ADD PUSH2 0x33D JUMP JUMPDEST SWAP2 POP POP SWAP3 SWAP2 POP POP JUMP JUMPDEST PUSH1 0x0 DUP1 PUSH1 0x40 DUP4 DUP6 SUB SLT ISZERO PUSH2 0x3C4 JUMPI PUSH2 0x3C3 PUSH2 0x227 JUMP JUMPDEST JUMPDEST PUSH1 0x0 PUSH2 0x3D2 DUP6 DUP3 DUP7 ADD PUSH2 0x252 JUMP JUMPDEST SWAP3 POP POP PUSH1 0x20 DUP4 ADD CALLDATALOAD PUSH8 0xFFFFFFFFFFFFFFFF DUP2 GT ISZERO PUSH2 0x3F3 JUMPI PUSH2 0x3F2 PUSH2 0x22C JUMP JUMPDEST JUMPDEST PUSH2 0x3FF DUP6 DUP3 DUP7 ADD PUSH2 0x37F JUMP JUMPDEST SWAP2 POP POP SWAP3 POP SWAP3 SWAP1 POP JUMP JUMPDEST PUSH1 0x0 PUSH20 0xFFFFFFFFFFFFFFFFFFFFFFFFFFFFFFFFFFFFFFFF DUP3 AND SWAP1 POP SWAP2 SWAP1 POP JUMP JUMPDEST PUSH1 0x0 PUSH2 0x434 DUP3 PUSH2 0x409 JUMP JUMPDEST SWAP1 POP SWAP2 SWAP1 POP JUMP JUMPDEST PUSH2 0x444 DUP2 PUSH2 0x429 JUMP JUMPDEST DUP3 MSTORE POP POP JUMP JUMPDEST PUSH1 0x0 PUSH1 0x20 DUP3 ADD SWAP1 POP PUSH2 0x45F PUSH1 0x0 DUP4 ADD DUP5 PUSH2 0x43B JUMP JUMPDEST SWAP3 SWAP2 POP POP JUMP JUMPDEST PUSH1 0x0 PUSH1 0x20 DUP3 DUP5 SUB SLT ISZERO PUSH2 0x47B JUMPI PUSH2 0x47A PUSH2 0x227 JUMP JUMPDEST JUMPDEST PUSH1 0x0 DUP3 ADD CALLDATALOAD PUSH8 0xFFFFFFFFFFFFFFFF DUP2 GT ISZERO PUSH2 0x499 JUMPI PUSH2 0x498 PUSH2 0x22C JUMP JUMPDEST JUMPDEST PUSH2 0x4A5 DUP5 DUP3 DUP6 ADD PUSH2 0x37F JUMP JUMPDEST SWAP2 POP POP SWAP3 SWAP2 POP POP JUMP JUMPDEST PUSH1 0x0 PUSH1 0xFF DUP3 AND SWAP1 POP SWAP2 SWAP1 POP JUMP JUMPDEST PUSH2 0x4C4 DUP2 PUSH2 0x4AE JUMP JUMPDEST DUP3 MSTORE POP POP JUMP JUMPDEST PUSH2 0x4D3 DUP2 PUSH2 0x231 JUMP JUMPDEST DUP3 MSTORE POP POP JUMP JUMPDEST PUSH1 0x0 PUSH1 0x60 DUP3 ADD SWAP1 POP PUSH2 0x4EE PUSH1 0x0 DUP4 ADD DUP7 PUSH2 0x4BB JUMP JUMPDEST PUSH2 0x4FB PUSH1 0x20 DUP4 ADD DUP6 PUSH2 0x4CA JUMP JUMPDEST PUSH2 0x508 PUSH1 0x40 DUP4 ADD DUP5 PUSH2 0x4CA JUMP JUMPDEST SWAP5 SWAP4 POP POP POP POP JUMP JUMPDEST PUSH1 0x0 PUSH8 0xFFFFFFFFFFFFFFFF DUP3 GT ISZERO PUSH2 0x52B JUMPI PUSH2 0x52A PUSH2 0x282 JUMP JUMPDEST JUMPDEST PUSH2 0x534 DUP3 PUSH2 0x271 JUMP JUMPDEST SWAP1 POP PUSH1 0x20 DUP2 ADD SWAP1 POP SWAP2 SWAP1 POP JUMP JUMPDEST PUSH1 0x0 PUSH2 0x554 PUSH2 0x54F DUP5 PUSH2 0x510 JUMP JUMPDEST PUSH2 0x2E2 JUMP JUMPDEST SWAP1 POP DUP3 DUP2 MSTORE PUSH1 0x20 DUP2 ADD DUP5 DUP5 DUP5 ADD GT ISZERO PUSH2 0x570 JUMPI PUSH2 0x56F PUSH2 0x26C JUMP JUMPDEST JUMPDEST PUSH2 0x57B DUP5 DUP3 DUP6 PUSH2 0x32E JUMP JUMPDEST POP SWAP4 SWAP3 POP POP POP JUMP JUMPDEST PUSH1 0x0 DUP3 PUSH1 0x1F DUP4 ADD SLT PUSH2 0x598 JUMPI PUSH2 0x597 PUSH2 0x267 JUMP JUMPDEST JUMPDEST DUP2 CALLDATALOAD PUSH2 0x5A8 DUP5 DUP3 PUSH1 0x20 DUP7 ADD PUSH2 0x541 JUMP JUMPDEST SWAP2 POP POP SWAP3 SWAP2 POP POP JUMP JUMPDEST PUSH1 0x0 DUP1 PUSH1 0x40 DUP4 DUP6 SUB SLT ISZERO PUSH2 0x5C8 JUMPI PUSH2 0x5C7 PUSH2 0x227 JUMP JUMPDEST JUMPDEST PUSH1 0x0 DUP4 ADD CALLDATALOAD PUSH8 0xFFFFFFFFFFFFFFFF DUP2 GT ISZERO PUSH2 0x5E6 JUMPI PUSH2 0x5E5 PUSH2 0x22C JUMP JUMPDEST JUMPDEST PUSH2 0x5F2 DUP6 DUP3 DUP7 ADD PUSH2 0x583 JUMP JUMPDEST SWAP3 POP POP PUSH1 0x20 DUP4 ADD CALLDATALOAD PUSH8 0xFFFFFFFFFFFFFFFF DUP2 GT ISZERO PUSH2 0x613 JUMPI PUSH2 0x612 PUSH2 0x22C JUMP JUMPDEST JUMPDEST PUSH2 0x61F DUP6 DUP3 DUP7 ADD PUSH2 0x37F JUMP JUMPDEST SWAP2 POP POP SWAP3 POP SWAP3 SWAP1 POP JUMP JUMPDEST PUSH1 0x0 DUP2 ISZERO ISZERO SWAP1 POP SWAP2 SWAP1 POP JUMP JUMPDEST PUSH2 0x63E DUP2 PUSH2 0x629 JUMP JUMPDEST DUP3 MSTORE POP POP JUMP JUMPDEST PUSH1 0x0 PUSH1 0x20 DUP3 ADD SWAP1 POP PUSH2 0x659 PUSH1 0x0 DUP4 ADD DUP5 PUSH2 0x635 JUMP JUMPDEST SWAP3 SWAP2 POP POP JUMP JUMPDEST PUSH1 0x0 PUSH1 0x80 DUP3 ADD SWAP1 POP PUSH2 0x674 PUSH1 0x0 DUP4 ADD DUP8 PUSH2 0x4CA JUMP JUMPDEST PUSH2 0x681 PUSH1 0x20 DUP4 ADD DUP7 PUSH2 0x4BB JUMP JUMPDEST PUSH2 0x68E PUSH1 0x40 DUP4 ADD DUP6 PUSH2 0x4CA JUMP JUMPDEST PUSH2 0x69B PUSH1 0x60 DUP4 ADD DUP5 PUSH2 0x4CA JUMP JUMPDEST SWAP6 SWAP5 POP POP POP POP POP JUMP JUMPDEST PUSH1 0x0 DUP2 MLOAD SWAP1 POP SWAP2 SWAP1 POP JUMP JUMPDEST PUSH1 0x0 DUP2 SWAP1 POP SWAP3 SWAP2 POP POP JUMP JUMPDEST PUSH1 0x0 JUMPDEST DUP4 DUP2 LT ISZERO PUSH2 0x6D8 JUMPI DUP1 DUP3 ADD MLOAD DUP2 DUP5 ADD MSTORE PUSH1 0x20 DUP2 ADD SWAP1 POP PUSH2 0x6BD JUMP JUMPDEST PUSH1 0x0 DUP5 DUP5 ADD MSTORE POP POP POP POP JUMP JUMPDEST PUSH1 0x0 PUSH2 0x6EF DUP3 PUSH2 0x6A4 JUMP JUMPDEST PUSH2 0x6F9 DUP2 DUP6 PUSH2 0x6AF JUMP JUMPDEST SWAP4 POP PUSH2 0x709 DUP2 DUP6 PUSH1 0x20 DUP7 ADD PUSH2 0x6BA JUMP JUMPDEST DUP1 DUP5 ADD SWAP2 POP POP SWAP3 SWAP2 POP POP JUMP JUMPDEST PUSH1 0x0 PUSH2 0x721 DUP3 DUP5 PUSH2 0x6E4 JUMP JUMPDEST SWAP2 POP DUP2 SWAP1 POP SWAP3 SWAP2 POP POP JUMP INVALID LOG2 PUSH5 0x6970667358 0x22 SLT KECCAK256 CALLDATACOPY ADD 0xE3 STATICCALL 0xC8 0xAF 0xE3 0xF6 OR 0xE7 0xD2 0xA9 LT LOG0 0xC7 0x2B PUSH32 0x16C6E1793810C29D868E8E44329FC964736F6C63430008110033000000000000 "
				},
				"gasEstimates": {
					"creation": {
						"codeDepositCost": "378000",
						"executionCost": "infinite",
						"totalCost": "infinite"
					},
					"external": {
						"isValidData(string,bytes)": "infinite",
						"recoverSigner(bytes32,bytes)": "infinite",
						"splitSignature(bytes)": "infinite"
					}
				},
				"methodIdentifiers": {
					"isValidData(string,bytes)": "adb41f75",
					"recoverSigner(bytes32,bytes)": "97aba7f9",
					"splitSignature(bytes)": "a7bb5803"
				}
			},
			"storageLayout": {
				"storage": [
					{
						"astId": 3,
						"contract": "contract-442812f524.sol:Verify",
						"label": "importantAddress",
						"offset": 0,
						"slot": "0",
						"type": "t_address"
					}
				],
				"types": {
					"t_address": {
						"encoding": "inplace",
						"label": "address",
						"numberOfBytes": "20"
					}
				}
			},
			"userdoc": {
				"kind": "user",
				"methods": {},
				"version": 1
			}
		}
	}
}