{
	"contract-442812f524.sol": {
		"VerifySignature": {
			"abi": [
				{
					"inputs": [
						{
							"internalType": "bytes32",
							"name": "_messageHash",
							"type": "bytes32"
						}
					],
					"name": "getEthSignedMessageHash",
					"outputs": [
						{
							"internalType": "bytes32",
							"name": "",
							"type": "bytes32"
						}
					],
					"stateMutability": "pure",
					"type": "function"
				},
				{
					"inputs": [
						{
							"internalType": "string",
							"name": "_message",
							"type": "string"
						}
					],
					"name": "getMessageHash",
					"outputs": [
						{
							"internalType": "bytes32",
							"name": "",
							"type": "bytes32"
						}
					],
					"stateMutability": "pure",
					"type": "function"
				},
				{
					"inputs": [
						{
							"internalType": "bytes32",
							"name": "_ethSignedMessageHash",
							"type": "bytes32"
						},
						{
							"internalType": "bytes",
							"name": "_signature",
							"type": "bytes"
						}
					],
					"name": "recoverSigner",
					"outputs": [
						{
							"internalType": "address",
							"name": "",
							"type": "address"
						}
					],
					"stateMutability": "pure",
					"type": "function"
				},
				{
					"inputs": [
						{
							"internalType": "bytes",
							"name": "sig",
							"type": "bytes"
						}
					],
					"name": "splitSignature",
					"outputs": [
						{
							"internalType": "bytes32",
							"name": "r",
							"type": "bytes32"
						},
						{
							"internalType": "bytes32",
							"name": "s",
							"type": "bytes32"
						},
						{
							"internalType": "uint8",
							"name": "v",
							"type": "uint8"
						}
					],
					"stateMutability": "pure",
					"type": "function"
				},
				{
					"inputs": [
						{
							"internalType": "address",
							"name": "_signer",
							"type": "address"
						},
						{
							"internalType": "string",
							"name": "_message",
							"type": "string"
						},
						{
							"internalType": "bytes",
							"name": "signature",
							"type": "bytes"
						}
					],
					"name": "verify",
					"outputs": [
						{
							"internalType": "bool",
							"name": "",
							"type": "bool"
						}
					],
					"stateMutability": "pure",
					"type": "function"
				}
			],
			"devdoc": {
				"kind": "dev",
				"methods": {},
				"version": 1
			},
			"evm": {
				"assembly": "    /* \"contract-442812f524.sol\":368:3642  contract VerifySignature {... */\n  mstore(0x40, 0x80)\n  callvalue\n  dup1\n  iszero\n  tag_1\n  jumpi\n  0x00\n  dup1\n  revert\ntag_1:\n  pop\n  dataSize(sub_0)\n  dup1\n  dataOffset(sub_0)\n  0x00\n  codecopy\n  0x00\n  return\nstop\n\nsub_0: assembly {\n        /* \"contract-442812f524.sol\":368:3642  contract VerifySignature {... */\n      mstore(0x40, 0x80)\n      callvalue\n      dup1\n      iszero\n      tag_1\n      jumpi\n      0x00\n      dup1\n      revert\n    tag_1:\n      pop\n      jumpi(tag_2, lt(calldatasize, 0x04))\n      shr(0xe0, calldataload(0x00))\n      dup1\n      0x2dd34f0f\n      eq\n      tag_3\n      jumpi\n      dup1\n      0x97aba7f9\n      eq\n      tag_4\n      jumpi\n      dup1\n      0xa7bb5803\n      eq\n      tag_5\n      jumpi\n      dup1\n      0xb446f3b2\n      eq\n      tag_6\n      jumpi\n      dup1\n      0xfa540801\n      eq\n      tag_7\n      jumpi\n    tag_2:\n      0x00\n      dup1\n      revert\n        /* \"contract-442812f524.sol\":2141:2494  function verify(... */\n    tag_3:\n      tag_8\n      0x04\n      dup1\n      calldatasize\n      sub\n      dup2\n      add\n      swap1\n      tag_9\n      swap2\n      swap1\n      tag_10\n      jump\t// in\n    tag_9:\n      tag_11\n      jump\t// in\n    tag_8:\n      mload(0x40)\n      tag_12\n      swap2\n      swap1\n      tag_13\n      jump\t// in\n    tag_12:\n      mload(0x40)\n      dup1\n      swap2\n      sub\n      swap1\n      return\n        /* \"contract-442812f524.sol\":2500:2773  function recoverSigner(bytes32 _ethSignedMessageHash, bytes memory _signature)... */\n    tag_4:\n      tag_14\n      0x04\n      dup1\n      calldatasize\n      sub\n      dup2\n      add\n      swap1\n      tag_15\n      swap2\n      swap1\n      tag_16\n      jump\t// in\n    tag_15:\n      tag_17\n      jump\t// in\n    tag_14:\n      mload(0x40)\n      tag_18\n      swap2\n      swap1\n      tag_19\n      jump\t// in\n    tag_18:\n      mload(0x40)\n      dup1\n      swap2\n      sub\n      swap1\n      return\n        /* \"contract-442812f524.sol\":2779:3640  function splitSignature(bytes memory sig)... */\n    tag_5:\n      tag_20\n      0x04\n      dup1\n      calldatasize\n      sub\n      dup2\n      add\n      swap1\n      tag_21\n      swap2\n      swap1\n      tag_22\n      jump\t// in\n    tag_21:\n      tag_23\n      jump\t// in\n    tag_20:\n      mload(0x40)\n      tag_24\n      swap4\n      swap3\n      swap2\n      swap1\n      tag_25\n      jump\t// in\n    tag_24:\n      mload(0x40)\n      dup1\n      swap2\n      sub\n      swap1\n      return\n        /* \"contract-442812f524.sol\":716:870  function getMessageHash(... */\n    tag_6:\n      tag_26\n      0x04\n      dup1\n      calldatasize\n      sub\n      dup2\n      add\n      swap1\n      tag_27\n      swap2\n      swap1\n      tag_28\n      jump\t// in\n    tag_27:\n      tag_29\n      jump\t// in\n    tag_26:\n      mload(0x40)\n      tag_30\n      swap2\n      swap1\n      tag_31\n      jump\t// in\n    tag_30:\n      mload(0x40)\n      dup1\n      swap2\n      sub\n      swap1\n      return\n        /* \"contract-442812f524.sol\":1351:1771  function getEthSignedMessageHash(bytes32 _messageHash)... */\n    tag_7:\n      tag_32\n      0x04\n      dup1\n      calldatasize\n      sub\n      dup2\n      add\n      swap1\n      tag_33\n      swap2\n      swap1\n      tag_34\n      jump\t// in\n    tag_33:\n      tag_35\n      jump\t// in\n    tag_32:\n      mload(0x40)\n      tag_36\n      swap2\n      swap1\n      tag_31\n      jump\t// in\n    tag_36:\n      mload(0x40)\n      dup1\n      swap2\n      sub\n      swap1\n      return\n        /* \"contract-442812f524.sol\":2141:2494  function verify(... */\n    tag_11:\n        /* \"contract-442812f524.sol\":2273:2277  bool */\n      0x00\n        /* \"contract-442812f524.sol\":2289:2308  bytes32 messageHash */\n      dup1\n        /* \"contract-442812f524.sol\":2311:2335  getMessageHash(_message) */\n      tag_38\n        /* \"contract-442812f524.sol\":2326:2334  _message */\n      dup5\n        /* \"contract-442812f524.sol\":2311:2325  getMessageHash */\n      tag_29\n        /* \"contract-442812f524.sol\":2311:2335  getMessageHash(_message) */\n      jump\t// in\n    tag_38:\n        /* \"contract-442812f524.sol\":2289:2335  bytes32 messageHash = getMessageHash(_message) */\n      swap1\n      pop\n        /* \"contract-442812f524.sol\":2345:2373  bytes32 ethSignedMessageHash */\n      0x00\n        /* \"contract-442812f524.sol\":2376:2412  getEthSignedMessageHash(messageHash) */\n      tag_39\n        /* \"contract-442812f524.sol\":2400:2411  messageHash */\n      dup3\n        /* \"contract-442812f524.sol\":2376:2399  getEthSignedMessageHash */\n      tag_35\n        /* \"contract-442812f524.sol\":2376:2412  getEthSignedMessageHash(messageHash) */\n      jump\t// in\n    tag_39:\n        /* \"contract-442812f524.sol\":2345:2412  bytes32 ethSignedMessageHash = getEthSignedMessageHash(messageHash) */\n      swap1\n      pop\n        /* \"contract-442812f524.sol\":2480:2487  _signer */\n      dup6\n        /* \"contract-442812f524.sol\":2430:2487  recoverSigner(ethSignedMessageHash, signature) == _signer */\n      0xffffffffffffffffffffffffffffffffffffffff\n      and\n        /* \"contract-442812f524.sol\":2430:2476  recoverSigner(ethSignedMessageHash, signature) */\n      tag_40\n        /* \"contract-442812f524.sol\":2444:2464  ethSignedMessageHash */\n      dup3\n        /* \"contract-442812f524.sol\":2466:2475  signature */\n      dup7\n        /* \"contract-442812f524.sol\":2430:2443  recoverSigner */\n      tag_17\n        /* \"contract-442812f524.sol\":2430:2476  recoverSigner(ethSignedMessageHash, signature) */\n      jump\t// in\n    tag_40:\n        /* \"contract-442812f524.sol\":2430:2487  recoverSigner(ethSignedMessageHash, signature) == _signer */\n      0xffffffffffffffffffffffffffffffffffffffff\n      and\n      eq\n        /* \"contract-442812f524.sol\":2423:2487  return recoverSigner(ethSignedMessageHash, signature) == _signer */\n      swap3\n      pop\n      pop\n      pop\n        /* \"contract-442812f524.sol\":2141:2494  function verify(... */\n      swap4\n      swap3\n      pop\n      pop\n      pop\n      jump\t// out\n        /* \"contract-442812f524.sol\":2500:2773  function recoverSigner(bytes32 _ethSignedMessageHash, bytes memory _signature)... */\n    tag_17:\n        /* \"contract-442812f524.sol\":2624:2631  address */\n      0x00\n        /* \"contract-442812f524.sol\":2648:2657  bytes32 r */\n      dup1\n        /* \"contract-442812f524.sol\":2659:2668  bytes32 s */\n      0x00\n        /* \"contract-442812f524.sol\":2670:2677  uint8 v */\n      dup1\n        /* \"contract-442812f524.sol\":2681:2707  splitSignature(_signature) */\n      tag_42\n        /* \"contract-442812f524.sol\":2696:2706  _signature */\n      dup6\n        /* \"contract-442812f524.sol\":2681:2695  splitSignature */\n      tag_23\n        /* \"contract-442812f524.sol\":2681:2707  splitSignature(_signature) */\n      jump\t// in\n    tag_42:\n        /* \"contract-442812f524.sol\":2647:2707  (bytes32 r, bytes32 s, uint8 v) = splitSignature(_signature) */\n      swap3\n      pop\n      swap3\n      pop\n      swap3\n      pop\n        /* \"contract-442812f524.sol\":2725:2766  ecrecover(_ethSignedMessageHash, v, r, s) */\n      0x01\n        /* \"contract-442812f524.sol\":2735:2756  _ethSignedMessageHash */\n      dup7\n        /* \"contract-442812f524.sol\":2758:2759  v */\n      dup3\n        /* \"contract-442812f524.sol\":2761:2762  r */\n      dup6\n        /* \"contract-442812f524.sol\":2764:2765  s */\n      dup6\n        /* \"contract-442812f524.sol\":2725:2766  ecrecover(_ethSignedMessageHash, v, r, s) */\n      mload(0x40)\n      0x00\n      dup2\n      mstore\n      0x20\n      add\n      0x40\n      mstore\n      mload(0x40)\n      tag_43\n      swap5\n      swap4\n      swap3\n      swap2\n      swap1\n      tag_44\n      jump\t// in\n    tag_43:\n      0x20\n      mload(0x40)\n      0x20\n      dup2\n      sub\n      swap1\n      dup1\n      dup5\n      sub\n      swap1\n      dup6\n      gas\n      staticcall\n      iszero\n      dup1\n      iszero\n      tag_46\n      jumpi\n      returndatasize\n      0x00\n      dup1\n      returndatacopy\n      revert(0x00, returndatasize)\n    tag_46:\n      pop\n      pop\n      pop\n      mload(sub(mload(0x40), 0x20))\n        /* \"contract-442812f524.sol\":2718:2766  return ecrecover(_ethSignedMessageHash, v, r, s) */\n      swap4\n      pop\n      pop\n      pop\n      pop\n        /* \"contract-442812f524.sol\":2500:2773  function recoverSigner(bytes32 _ethSignedMessageHash, bytes memory _signature)... */\n      swap3\n      swap2\n      pop\n      pop\n      jump\t// out\n        /* \"contract-442812f524.sol\":2779:3640  function splitSignature(bytes memory sig)... */\n    tag_23:\n        /* \"contract-442812f524.sol\":2879:2888  bytes32 r */\n      0x00\n        /* \"contract-442812f524.sol\":2902:2911  bytes32 s */\n      dup1\n        /* \"contract-442812f524.sol\":2925:2932  uint8 v */\n      0x00\n        /* \"contract-442812f524.sol\":2979:2981  65 */\n      0x41\n        /* \"contract-442812f524.sol\":2965:2968  sig */\n      dup5\n        /* \"contract-442812f524.sol\":2965:2975  sig.length */\n      mload\n        /* \"contract-442812f524.sol\":2965:2981  sig.length == 65 */\n      eq\n        /* \"contract-442812f524.sol\":2957:3010  require(sig.length == 65, \"invalid signature length\") */\n      tag_48\n      jumpi\n      mload(0x40)\n      0x08c379a000000000000000000000000000000000000000000000000000000000\n      dup2\n      mstore\n      0x04\n      add\n      tag_49\n      swap1\n      tag_50\n      jump\t// in\n    tag_49:\n      mload(0x40)\n      dup1\n      swap2\n      sub\n      swap1\n      revert\n    tag_48:\n        /* \"contract-442812f524.sol\":3406:3408  32 */\n      0x20\n        /* \"contract-442812f524.sol\":3401:3404  sig */\n      dup5\n        /* \"contract-442812f524.sol\":3397:3409  add(sig, 32) */\n      add\n        /* \"contract-442812f524.sol\":3391:3410  mload(add(sig, 32)) */\n      mload\n        /* \"contract-442812f524.sol\":3386:3410  r := mload(add(sig, 32)) */\n      swap3\n      pop\n        /* \"contract-442812f524.sol\":3474:3476  64 */\n      0x40\n        /* \"contract-442812f524.sol\":3469:3472  sig */\n      dup5\n        /* \"contract-442812f524.sol\":3465:3477  add(sig, 64) */\n      add\n        /* \"contract-442812f524.sol\":3459:3478  mload(add(sig, 64)) */\n      mload\n        /* \"contract-442812f524.sol\":3454:3478  s := mload(add(sig, 64)) */\n      swap2\n      pop\n        /* \"contract-442812f524.sol\":3579:3581  96 */\n      0x60\n        /* \"contract-442812f524.sol\":3574:3577  sig */\n      dup5\n        /* \"contract-442812f524.sol\":3570:3582  add(sig, 96) */\n      add\n        /* \"contract-442812f524.sol\":3564:3583  mload(add(sig, 96)) */\n      mload\n        /* \"contract-442812f524.sol\":3561:3562  0 */\n      0x00\n        /* \"contract-442812f524.sol\":3556:3584  byte(0, mload(add(sig, 96))) */\n      byte\n        /* \"contract-442812f524.sol\":3551:3584  v := byte(0, mload(add(sig, 96))) */\n      swap1\n      pop\n        /* \"contract-442812f524.sol\":2779:3640  function splitSignature(bytes memory sig)... */\n      swap2\n      swap4\n      swap1\n      swap3\n      pop\n      jump\t// out\n        /* \"contract-442812f524.sol\":716:870  function getMessageHash(... */\n    tag_29:\n        /* \"contract-442812f524.sol\":799:806  bytes32 */\n      0x00\n        /* \"contract-442812f524.sol\":853:861  _message */\n      dup2\n        /* \"contract-442812f524.sol\":835:862  abi.encodePacked( _message) */\n      add(0x20, mload(0x40))\n      tag_52\n      swap2\n      swap1\n      tag_53\n      jump\t// in\n    tag_52:\n      mload(0x40)\n      0x20\n      dup2\n      dup4\n      sub\n      sub\n      dup2\n      mstore\n      swap1\n      0x40\n      mstore\n        /* \"contract-442812f524.sol\":825:863  keccak256(abi.encodePacked( _message)) */\n      dup1\n      mload\n      swap1\n      0x20\n      add\n      keccak256\n        /* \"contract-442812f524.sol\":818:863  return keccak256(abi.encodePacked( _message)) */\n      swap1\n      pop\n        /* \"contract-442812f524.sol\":716:870  function getMessageHash(... */\n      swap2\n      swap1\n      pop\n      jump\t// out\n        /* \"contract-442812f524.sol\":1351:1771  function getEthSignedMessageHash(bytes32 _messageHash)... */\n    tag_35:\n        /* \"contract-442812f524.sol\":1451:1458  bytes32 */\n      0x00\n        /* \"contract-442812f524.sol\":1737:1749  _messageHash */\n      dup2\n        /* \"contract-442812f524.sol\":1684:1750  abi.encodePacked(\"\\x19Ethereum Signed Message:\\n32\", _messageHash) */\n      add(0x20, mload(0x40))\n      tag_55\n      swap2\n      swap1\n      tag_56\n      jump\t// in\n    tag_55:\n      mload(0x40)\n      0x20\n      dup2\n      dup4\n      sub\n      sub\n      dup2\n      mstore\n      swap1\n      0x40\n      mstore\n        /* \"contract-442812f524.sol\":1657:1764  keccak256(... */\n      dup1\n      mload\n      swap1\n      0x20\n      add\n      keccak256\n        /* \"contract-442812f524.sol\":1638:1764  return... */\n      swap1\n      pop\n        /* \"contract-442812f524.sol\":1351:1771  function getEthSignedMessageHash(bytes32 _messageHash)... */\n      swap2\n      swap1\n      pop\n      jump\t// out\n        /* \"#utility.yul\":7:82   */\n    tag_57:\n        /* \"#utility.yul\":40:46   */\n      0x00\n        /* \"#utility.yul\":73:75   */\n      0x40\n        /* \"#utility.yul\":67:76   */\n      mload\n        /* \"#utility.yul\":57:76   */\n      swap1\n      pop\n        /* \"#utility.yul\":7:82   */\n      swap1\n      jump\t// out\n        /* \"#utility.yul\":88:205   */\n    tag_58:\n        /* \"#utility.yul\":197:198   */\n      0x00\n        /* \"#utility.yul\":194:195   */\n      dup1\n        /* \"#utility.yul\":187:199   */\n      revert\n        /* \"#utility.yul\":211:328   */\n    tag_59:\n        /* \"#utility.yul\":320:321   */\n      0x00\n        /* \"#utility.yul\":317:318   */\n      dup1\n        /* \"#utility.yul\":310:322   */\n      revert\n        /* \"#utility.yul\":334:460   */\n    tag_60:\n        /* \"#utility.yul\":371:378   */\n      0x00\n        /* \"#utility.yul\":411:453   */\n      0xffffffffffffffffffffffffffffffffffffffff\n        /* \"#utility.yul\":404:409   */\n      dup3\n        /* \"#utility.yul\":400:454   */\n      and\n        /* \"#utility.yul\":389:454   */\n      swap1\n      pop\n        /* \"#utility.yul\":334:460   */\n      swap2\n      swap1\n      pop\n      jump\t// out\n        /* \"#utility.yul\":466:562   */\n    tag_61:\n        /* \"#utility.yul\":503:510   */\n      0x00\n        /* \"#utility.yul\":532:556   */\n      tag_103\n        /* \"#utility.yul\":550:555   */\n      dup3\n        /* \"#utility.yul\":532:556   */\n      tag_60\n      jump\t// in\n    tag_103:\n        /* \"#utility.yul\":521:556   */\n      swap1\n      pop\n        /* \"#utility.yul\":466:562   */\n      swap2\n      swap1\n      pop\n      jump\t// out\n        /* \"#utility.yul\":568:690   */\n    tag_62:\n        /* \"#utility.yul\":641:665   */\n      tag_105\n        /* \"#utility.yul\":659:664   */\n      dup2\n        /* \"#utility.yul\":641:665   */\n      tag_61\n      jump\t// in\n    tag_105:\n        /* \"#utility.yul\":634:639   */\n      dup2\n        /* \"#utility.yul\":631:666   */\n      eq\n        /* \"#utility.yul\":621:684   */\n      tag_106\n      jumpi\n        /* \"#utility.yul\":680:681   */\n      0x00\n        /* \"#utility.yul\":677:678   */\n      dup1\n        /* \"#utility.yul\":670:682   */\n      revert\n        /* \"#utility.yul\":621:684   */\n    tag_106:\n        /* \"#utility.yul\":568:690   */\n      pop\n      jump\t// out\n        /* \"#utility.yul\":696:835   */\n    tag_63:\n        /* \"#utility.yul\":742:747   */\n      0x00\n        /* \"#utility.yul\":780:786   */\n      dup2\n        /* \"#utility.yul\":767:787   */\n      calldataload\n        /* \"#utility.yul\":758:787   */\n      swap1\n      pop\n        /* \"#utility.yul\":796:829   */\n      tag_108\n        /* \"#utility.yul\":823:828   */\n      dup2\n        /* \"#utility.yul\":796:829   */\n      tag_62\n      jump\t// in\n    tag_108:\n        /* \"#utility.yul\":696:835   */\n      swap3\n      swap2\n      pop\n      pop\n      jump\t// out\n        /* \"#utility.yul\":841:958   */\n    tag_64:\n        /* \"#utility.yul\":950:951   */\n      0x00\n        /* \"#utility.yul\":947:948   */\n      dup1\n        /* \"#utility.yul\":940:952   */\n      revert\n        /* \"#utility.yul\":964:1081   */\n    tag_65:\n        /* \"#utility.yul\":1073:1074   */\n      0x00\n        /* \"#utility.yul\":1070:1071   */\n      dup1\n        /* \"#utility.yul\":1063:1075   */\n      revert\n        /* \"#utility.yul\":1087:1189   */\n    tag_66:\n        /* \"#utility.yul\":1128:1134   */\n      0x00\n        /* \"#utility.yul\":1179:1181   */\n      0x1f\n        /* \"#utility.yul\":1175:1182   */\n      not\n        /* \"#utility.yul\":1170:1172   */\n      0x1f\n        /* \"#utility.yul\":1163:1168   */\n      dup4\n        /* \"#utility.yul\":1159:1173   */\n      add\n        /* \"#utility.yul\":1155:1183   */\n      and\n        /* \"#utility.yul\":1145:1183   */\n      swap1\n      pop\n        /* \"#utility.yul\":1087:1189   */\n      swap2\n      swap1\n      pop\n      jump\t// out\n        /* \"#utility.yul\":1195:1375   */\n    tag_67:\n        /* \"#utility.yul\":1243:1320   */\n      0x4e487b7100000000000000000000000000000000000000000000000000000000\n        /* \"#utility.yul\":1240:1241   */\n      0x00\n        /* \"#utility.yul\":1233:1321   */\n      mstore\n        /* \"#utility.yul\":1340:1344   */\n      0x41\n        /* \"#utility.yul\":1337:1338   */\n      0x04\n        /* \"#utility.yul\":1330:1345   */\n      mstore\n        /* \"#utility.yul\":1364:1368   */\n      0x24\n        /* \"#utility.yul\":1361:1362   */\n      0x00\n        /* \"#utility.yul\":1354:1369   */\n      revert\n        /* \"#utility.yul\":1381:1662   */\n    tag_68:\n        /* \"#utility.yul\":1464:1491   */\n      tag_114\n        /* \"#utility.yul\":1486:1490   */\n      dup3\n        /* \"#utility.yul\":1464:1491   */\n      tag_66\n      jump\t// in\n    tag_114:\n        /* \"#utility.yul\":1456:1462   */\n      dup2\n        /* \"#utility.yul\":1452:1492   */\n      add\n        /* \"#utility.yul\":1594:1600   */\n      dup2\n        /* \"#utility.yul\":1582:1592   */\n      dup2\n        /* \"#utility.yul\":1579:1601   */\n      lt\n        /* \"#utility.yul\":1558:1576   */\n      0xffffffffffffffff\n        /* \"#utility.yul\":1546:1556   */\n      dup3\n        /* \"#utility.yul\":1543:1577   */\n      gt\n        /* \"#utility.yul\":1540:1602   */\n      or\n        /* \"#utility.yul\":1537:1625   */\n      iszero\n      tag_115\n      jumpi\n        /* \"#utility.yul\":1605:1623   */\n      tag_116\n      tag_67\n      jump\t// in\n    tag_116:\n        /* \"#utility.yul\":1537:1625   */\n    tag_115:\n        /* \"#utility.yul\":1645:1655   */\n      dup1\n        /* \"#utility.yul\":1641:1643   */\n      0x40\n        /* \"#utility.yul\":1634:1656   */\n      mstore\n        /* \"#utility.yul\":1424:1662   */\n      pop\n        /* \"#utility.yul\":1381:1662   */\n      pop\n      pop\n      jump\t// out\n        /* \"#utility.yul\":1668:1797   */\n    tag_69:\n        /* \"#utility.yul\":1702:1708   */\n      0x00\n        /* \"#utility.yul\":1729:1749   */\n      tag_118\n      tag_57\n      jump\t// in\n    tag_118:\n        /* \"#utility.yul\":1719:1749   */\n      swap1\n      pop\n        /* \"#utility.yul\":1758:1791   */\n      tag_119\n        /* \"#utility.yul\":1786:1790   */\n      dup3\n        /* \"#utility.yul\":1778:1784   */\n      dup3\n        /* \"#utility.yul\":1758:1791   */\n      tag_68\n      jump\t// in\n    tag_119:\n        /* \"#utility.yul\":1668:1797   */\n      swap2\n      swap1\n      pop\n      jump\t// out\n        /* \"#utility.yul\":1803:2111   */\n    tag_70:\n        /* \"#utility.yul\":1865:1869   */\n      0x00\n        /* \"#utility.yul\":1955:1973   */\n      0xffffffffffffffff\n        /* \"#utility.yul\":1947:1953   */\n      dup3\n        /* \"#utility.yul\":1944:1974   */\n      gt\n        /* \"#utility.yul\":1941:1997   */\n      iszero\n      tag_121\n      jumpi\n        /* \"#utility.yul\":1977:1995   */\n      tag_122\n      tag_67\n      jump\t// in\n    tag_122:\n        /* \"#utility.yul\":1941:1997   */\n    tag_121:\n        /* \"#utility.yul\":2015:2044   */\n      tag_123\n        /* \"#utility.yul\":2037:2043   */\n      dup3\n        /* \"#utility.yul\":2015:2044   */\n      tag_66\n      jump\t// in\n    tag_123:\n        /* \"#utility.yul\":2007:2044   */\n      swap1\n      pop\n        /* \"#utility.yul\":2099:2103   */\n      0x20\n        /* \"#utility.yul\":2093:2097   */\n      dup2\n        /* \"#utility.yul\":2089:2104   */\n      add\n        /* \"#utility.yul\":2081:2104   */\n      swap1\n      pop\n        /* \"#utility.yul\":1803:2111   */\n      swap2\n      swap1\n      pop\n      jump\t// out\n        /* \"#utility.yul\":2117:2263   */\n    tag_71:\n        /* \"#utility.yul\":2214:2220   */\n      dup3\n        /* \"#utility.yul\":2209:2212   */\n      dup2\n        /* \"#utility.yul\":2204:2207   */\n      dup4\n        /* \"#utility.yul\":2191:2221   */\n      calldatacopy\n        /* \"#utility.yul\":2255:2256   */\n      0x00\n        /* \"#utility.yul\":2246:2252   */\n      dup4\n        /* \"#utility.yul\":2241:2244   */\n      dup4\n        /* \"#utility.yul\":2237:2253   */\n      add\n        /* \"#utility.yul\":2230:2257   */\n      mstore\n        /* \"#utility.yul\":2117:2263   */\n      pop\n      pop\n      pop\n      jump\t// out\n        /* \"#utility.yul\":2269:2694   */\n    tag_72:\n        /* \"#utility.yul\":2347:2352   */\n      0x00\n        /* \"#utility.yul\":2372:2438   */\n      tag_126\n        /* \"#utility.yul\":2388:2437   */\n      tag_127\n        /* \"#utility.yul\":2430:2436   */\n      dup5\n        /* \"#utility.yul\":2388:2437   */\n      tag_70\n      jump\t// in\n    tag_127:\n        /* \"#utility.yul\":2372:2438   */\n      tag_69\n      jump\t// in\n    tag_126:\n        /* \"#utility.yul\":2363:2438   */\n      swap1\n      pop\n        /* \"#utility.yul\":2461:2467   */\n      dup3\n        /* \"#utility.yul\":2454:2459   */\n      dup2\n        /* \"#utility.yul\":2447:2468   */\n      mstore\n        /* \"#utility.yul\":2499:2503   */\n      0x20\n        /* \"#utility.yul\":2492:2497   */\n      dup2\n        /* \"#utility.yul\":2488:2504   */\n      add\n        /* \"#utility.yul\":2537:2540   */\n      dup5\n        /* \"#utility.yul\":2528:2534   */\n      dup5\n        /* \"#utility.yul\":2523:2526   */\n      dup5\n        /* \"#utility.yul\":2519:2535   */\n      add\n        /* \"#utility.yul\":2516:2541   */\n      gt\n        /* \"#utility.yul\":2513:2625   */\n      iszero\n      tag_128\n      jumpi\n        /* \"#utility.yul\":2544:2623   */\n      tag_129\n      tag_65\n      jump\t// in\n    tag_129:\n        /* \"#utility.yul\":2513:2625   */\n    tag_128:\n        /* \"#utility.yul\":2634:2688   */\n      tag_130\n        /* \"#utility.yul\":2681:2687   */\n      dup5\n        /* \"#utility.yul\":2676:2679   */\n      dup3\n        /* \"#utility.yul\":2671:2674   */\n      dup6\n        /* \"#utility.yul\":2634:2688   */\n      tag_71\n      jump\t// in\n    tag_130:\n        /* \"#utility.yul\":2353:2694   */\n      pop\n        /* \"#utility.yul\":2269:2694   */\n      swap4\n      swap3\n      pop\n      pop\n      pop\n      jump\t// out\n        /* \"#utility.yul\":2714:3054   */\n    tag_73:\n        /* \"#utility.yul\":2770:2775   */\n      0x00\n        /* \"#utility.yul\":2819:2822   */\n      dup3\n        /* \"#utility.yul\":2812:2816   */\n      0x1f\n        /* \"#utility.yul\":2804:2810   */\n      dup4\n        /* \"#utility.yul\":2800:2817   */\n      add\n        /* \"#utility.yul\":2796:2823   */\n      slt\n        /* \"#utility.yul\":2786:2908   */\n      tag_132\n      jumpi\n        /* \"#utility.yul\":2827:2906   */\n      tag_133\n      tag_64\n      jump\t// in\n    tag_133:\n        /* \"#utility.yul\":2786:2908   */\n    tag_132:\n        /* \"#utility.yul\":2944:2950   */\n      dup2\n        /* \"#utility.yul\":2931:2951   */\n      calldataload\n        /* \"#utility.yul\":2969:3048   */\n      tag_134\n        /* \"#utility.yul\":3044:3047   */\n      dup5\n        /* \"#utility.yul\":3036:3042   */\n      dup3\n        /* \"#utility.yul\":3029:3033   */\n      0x20\n        /* \"#utility.yul\":3021:3027   */\n      dup7\n        /* \"#utility.yul\":3017:3034   */\n      add\n        /* \"#utility.yul\":2969:3048   */\n      tag_72\n      jump\t// in\n    tag_134:\n        /* \"#utility.yul\":2960:3048   */\n      swap2\n      pop\n        /* \"#utility.yul\":2776:3054   */\n      pop\n        /* \"#utility.yul\":2714:3054   */\n      swap3\n      swap2\n      pop\n      pop\n      jump\t// out\n        /* \"#utility.yul\":3060:3367   */\n    tag_74:\n        /* \"#utility.yul\":3121:3125   */\n      0x00\n        /* \"#utility.yul\":3211:3229   */\n      0xffffffffffffffff\n        /* \"#utility.yul\":3203:3209   */\n      dup3\n        /* \"#utility.yul\":3200:3230   */\n      gt\n        /* \"#utility.yul\":3197:3253   */\n      iszero\n      tag_136\n      jumpi\n        /* \"#utility.yul\":3233:3251   */\n      tag_137\n      tag_67\n      jump\t// in\n    tag_137:\n        /* \"#utility.yul\":3197:3253   */\n    tag_136:\n        /* \"#utility.yul\":3271:3300   */\n      tag_138\n        /* \"#utility.yul\":3293:3299   */\n      dup3\n        /* \"#utility.yul\":3271:3300   */\n      tag_66\n      jump\t// in\n    tag_138:\n        /* \"#utility.yul\":3263:3300   */\n      swap1\n      pop\n        /* \"#utility.yul\":3355:3359   */\n      0x20\n        /* \"#utility.yul\":3349:3353   */\n      dup2\n        /* \"#utility.yul\":3345:3360   */\n      add\n        /* \"#utility.yul\":3337:3360   */\n      swap1\n      pop\n        /* \"#utility.yul\":3060:3367   */\n      swap2\n      swap1\n      pop\n      jump\t// out\n        /* \"#utility.yul\":3373:3796   */\n    tag_75:\n        /* \"#utility.yul\":3450:3455   */\n      0x00\n        /* \"#utility.yul\":3475:3540   */\n      tag_140\n        /* \"#utility.yul\":3491:3539   */\n      tag_141\n        /* \"#utility.yul\":3532:3538   */\n      dup5\n        /* \"#utility.yul\":3491:3539   */\n      tag_74\n      jump\t// in\n    tag_141:\n        /* \"#utility.yul\":3475:3540   */\n      tag_69\n      jump\t// in\n    tag_140:\n        /* \"#utility.yul\":3466:3540   */\n      swap1\n      pop\n        /* \"#utility.yul\":3563:3569   */\n      dup3\n        /* \"#utility.yul\":3556:3561   */\n      dup2\n        /* \"#utility.yul\":3549:3570   */\n      mstore\n        /* \"#utility.yul\":3601:3605   */\n      0x20\n        /* \"#utility.yul\":3594:3599   */\n      dup2\n        /* \"#utility.yul\":3590:3606   */\n      add\n        /* \"#utility.yul\":3639:3642   */\n      dup5\n        /* \"#utility.yul\":3630:3636   */\n      dup5\n        /* \"#utility.yul\":3625:3628   */\n      dup5\n        /* \"#utility.yul\":3621:3637   */\n      add\n        /* \"#utility.yul\":3618:3643   */\n      gt\n        /* \"#utility.yul\":3615:3727   */\n      iszero\n      tag_142\n      jumpi\n        /* \"#utility.yul\":3646:3725   */\n      tag_143\n      tag_65\n      jump\t// in\n    tag_143:\n        /* \"#utility.yul\":3615:3727   */\n    tag_142:\n        /* \"#utility.yul\":3736:3790   */\n      tag_144\n        /* \"#utility.yul\":3783:3789   */\n      dup5\n        /* \"#utility.yul\":3778:3781   */\n      dup3\n        /* \"#utility.yul\":3773:3776   */\n      dup6\n        /* \"#utility.yul\":3736:3790   */\n      tag_71\n      jump\t// in\n    tag_144:\n        /* \"#utility.yul\":3456:3796   */\n      pop\n        /* \"#utility.yul\":3373:3796   */\n      swap4\n      swap3\n      pop\n      pop\n      pop\n      jump\t// out\n        /* \"#utility.yul\":3815:4153   */\n    tag_76:\n        /* \"#utility.yul\":3870:3875   */\n      0x00\n        /* \"#utility.yul\":3919:3922   */\n      dup3\n        /* \"#utility.yul\":3912:3916   */\n      0x1f\n        /* \"#utility.yul\":3904:3910   */\n      dup4\n        /* \"#utility.yul\":3900:3917   */\n      add\n        /* \"#utility.yul\":3896:3923   */\n      slt\n        /* \"#utility.yul\":3886:4008   */\n      tag_146\n      jumpi\n        /* \"#utility.yul\":3927:4006   */\n      tag_147\n      tag_64\n      jump\t// in\n    tag_147:\n        /* \"#utility.yul\":3886:4008   */\n    tag_146:\n        /* \"#utility.yul\":4044:4050   */\n      dup2\n        /* \"#utility.yul\":4031:4051   */\n      calldataload\n        /* \"#utility.yul\":4069:4147   */\n      tag_148\n        /* \"#utility.yul\":4143:4146   */\n      dup5\n        /* \"#utility.yul\":4135:4141   */\n      dup3\n        /* \"#utility.yul\":4128:4132   */\n      0x20\n        /* \"#utility.yul\":4120:4126   */\n      dup7\n        /* \"#utility.yul\":4116:4133   */\n      add\n        /* \"#utility.yul\":4069:4147   */\n      tag_75\n      jump\t// in\n    tag_148:\n        /* \"#utility.yul\":4060:4147   */\n      swap2\n      pop\n        /* \"#utility.yul\":3876:4153   */\n      pop\n        /* \"#utility.yul\":3815:4153   */\n      swap3\n      swap2\n      pop\n      pop\n      jump\t// out\n        /* \"#utility.yul\":4159:5136   */\n    tag_10:\n        /* \"#utility.yul\":4255:4261   */\n      0x00\n        /* \"#utility.yul\":4263:4269   */\n      dup1\n        /* \"#utility.yul\":4271:4277   */\n      0x00\n        /* \"#utility.yul\":4320:4322   */\n      0x60\n        /* \"#utility.yul\":4308:4317   */\n      dup5\n        /* \"#utility.yul\":4299:4306   */\n      dup7\n        /* \"#utility.yul\":4295:4318   */\n      sub\n        /* \"#utility.yul\":4291:4323   */\n      slt\n        /* \"#utility.yul\":4288:4407   */\n      iszero\n      tag_150\n      jumpi\n        /* \"#utility.yul\":4326:4405   */\n      tag_151\n      tag_58\n      jump\t// in\n    tag_151:\n        /* \"#utility.yul\":4288:4407   */\n    tag_150:\n        /* \"#utility.yul\":4446:4447   */\n      0x00\n        /* \"#utility.yul\":4471:4524   */\n      tag_152\n        /* \"#utility.yul\":4516:4523   */\n      dup7\n        /* \"#utility.yul\":4507:4513   */\n      dup3\n        /* \"#utility.yul\":4496:4505   */\n      dup8\n        /* \"#utility.yul\":4492:4514   */\n      add\n        /* \"#utility.yul\":4471:4524   */\n      tag_63\n      jump\t// in\n    tag_152:\n        /* \"#utility.yul\":4461:4524   */\n      swap4\n      pop\n        /* \"#utility.yul\":4417:4534   */\n      pop\n        /* \"#utility.yul\":4601:4603   */\n      0x20\n        /* \"#utility.yul\":4590:4599   */\n      dup5\n        /* \"#utility.yul\":4586:4604   */\n      add\n        /* \"#utility.yul\":4573:4605   */\n      calldataload\n        /* \"#utility.yul\":4632:4650   */\n      0xffffffffffffffff\n        /* \"#utility.yul\":4624:4630   */\n      dup2\n        /* \"#utility.yul\":4621:4651   */\n      gt\n        /* \"#utility.yul\":4618:4735   */\n      iszero\n      tag_153\n      jumpi\n        /* \"#utility.yul\":4654:4733   */\n      tag_154\n      tag_59\n      jump\t// in\n    tag_154:\n        /* \"#utility.yul\":4618:4735   */\n    tag_153:\n        /* \"#utility.yul\":4759:4822   */\n      tag_155\n        /* \"#utility.yul\":4814:4821   */\n      dup7\n        /* \"#utility.yul\":4805:4811   */\n      dup3\n        /* \"#utility.yul\":4794:4803   */\n      dup8\n        /* \"#utility.yul\":4790:4812   */\n      add\n        /* \"#utility.yul\":4759:4822   */\n      tag_73\n      jump\t// in\n    tag_155:\n        /* \"#utility.yul\":4749:4822   */\n      swap3\n      pop\n        /* \"#utility.yul\":4544:4832   */\n      pop\n        /* \"#utility.yul\":4899:4901   */\n      0x40\n        /* \"#utility.yul\":4888:4897   */\n      dup5\n        /* \"#utility.yul\":4884:4902   */\n      add\n        /* \"#utility.yul\":4871:4903   */\n      calldataload\n        /* \"#utility.yul\":4930:4948   */\n      0xffffffffffffffff\n        /* \"#utility.yul\":4922:4928   */\n      dup2\n        /* \"#utility.yul\":4919:4949   */\n      gt\n        /* \"#utility.yul\":4916:5033   */\n      iszero\n      tag_156\n      jumpi\n        /* \"#utility.yul\":4952:5031   */\n      tag_157\n      tag_59\n      jump\t// in\n    tag_157:\n        /* \"#utility.yul\":4916:5033   */\n    tag_156:\n        /* \"#utility.yul\":5057:5119   */\n      tag_158\n        /* \"#utility.yul\":5111:5118   */\n      dup7\n        /* \"#utility.yul\":5102:5108   */\n      dup3\n        /* \"#utility.yul\":5091:5100   */\n      dup8\n        /* \"#utility.yul\":5087:5109   */\n      add\n        /* \"#utility.yul\":5057:5119   */\n      tag_76\n      jump\t// in\n    tag_158:\n        /* \"#utility.yul\":5047:5119   */\n      swap2\n      pop\n        /* \"#utility.yul\":4842:5129   */\n      pop\n        /* \"#utility.yul\":4159:5136   */\n      swap3\n      pop\n      swap3\n      pop\n      swap3\n      jump\t// out\n        /* \"#utility.yul\":5142:5232   */\n    tag_77:\n        /* \"#utility.yul\":5176:5183   */\n      0x00\n        /* \"#utility.yul\":5219:5224   */\n      dup2\n        /* \"#utility.yul\":5212:5225   */\n      iszero\n        /* \"#utility.yul\":5205:5226   */\n      iszero\n        /* \"#utility.yul\":5194:5226   */\n      swap1\n      pop\n        /* \"#utility.yul\":5142:5232   */\n      swap2\n      swap1\n      pop\n      jump\t// out\n        /* \"#utility.yul\":5238:5347   */\n    tag_78:\n        /* \"#utility.yul\":5319:5340   */\n      tag_161\n        /* \"#utility.yul\":5334:5339   */\n      dup2\n        /* \"#utility.yul\":5319:5340   */\n      tag_77\n      jump\t// in\n    tag_161:\n        /* \"#utility.yul\":5314:5317   */\n      dup3\n        /* \"#utility.yul\":5307:5341   */\n      mstore\n        /* \"#utility.yul\":5238:5347   */\n      pop\n      pop\n      jump\t// out\n        /* \"#utility.yul\":5353:5563   */\n    tag_13:\n        /* \"#utility.yul\":5440:5444   */\n      0x00\n        /* \"#utility.yul\":5478:5480   */\n      0x20\n        /* \"#utility.yul\":5467:5476   */\n      dup3\n        /* \"#utility.yul\":5463:5481   */\n      add\n        /* \"#utility.yul\":5455:5481   */\n      swap1\n      pop\n        /* \"#utility.yul\":5491:5556   */\n      tag_163\n        /* \"#utility.yul\":5553:5554   */\n      0x00\n        /* \"#utility.yul\":5542:5551   */\n      dup4\n        /* \"#utility.yul\":5538:5555   */\n      add\n        /* \"#utility.yul\":5529:5535   */\n      dup5\n        /* \"#utility.yul\":5491:5556   */\n      tag_78\n      jump\t// in\n    tag_163:\n        /* \"#utility.yul\":5353:5563   */\n      swap3\n      swap2\n      pop\n      pop\n      jump\t// out\n        /* \"#utility.yul\":5569:5646   */\n    tag_79:\n        /* \"#utility.yul\":5606:5613   */\n      0x00\n        /* \"#utility.yul\":5635:5640   */\n      dup2\n        /* \"#utility.yul\":5624:5640   */\n      swap1\n      pop\n        /* \"#utility.yul\":5569:5646   */\n      swap2\n      swap1\n      pop\n      jump\t// out\n        /* \"#utility.yul\":5652:5774   */\n    tag_80:\n        /* \"#utility.yul\":5725:5749   */\n      tag_166\n        /* \"#utility.yul\":5743:5748   */\n      dup2\n        /* \"#utility.yul\":5725:5749   */\n      tag_79\n      jump\t// in\n    tag_166:\n        /* \"#utility.yul\":5718:5723   */\n      dup2\n        /* \"#utility.yul\":5715:5750   */\n      eq\n        /* \"#utility.yul\":5705:5768   */\n      tag_167\n      jumpi\n        /* \"#utility.yul\":5764:5765   */\n      0x00\n        /* \"#utility.yul\":5761:5762   */\n      dup1\n        /* \"#utility.yul\":5754:5766   */\n      revert\n        /* \"#utility.yul\":5705:5768   */\n    tag_167:\n        /* \"#utility.yul\":5652:5774   */\n      pop\n      jump\t// out\n        /* \"#utility.yul\":5780:5919   */\n    tag_81:\n        /* \"#utility.yul\":5826:5831   */\n      0x00\n        /* \"#utility.yul\":5864:5870   */\n      dup2\n        /* \"#utility.yul\":5851:5871   */\n      calldataload\n        /* \"#utility.yul\":5842:5871   */\n      swap1\n      pop\n        /* \"#utility.yul\":5880:5913   */\n      tag_169\n        /* \"#utility.yul\":5907:5912   */\n      dup2\n        /* \"#utility.yul\":5880:5913   */\n      tag_80\n      jump\t// in\n    tag_169:\n        /* \"#utility.yul\":5780:5919   */\n      swap3\n      swap2\n      pop\n      pop\n      jump\t// out\n        /* \"#utility.yul\":5925:6577   */\n    tag_16:\n        /* \"#utility.yul\":6002:6008   */\n      0x00\n        /* \"#utility.yul\":6010:6016   */\n      dup1\n        /* \"#utility.yul\":6059:6061   */\n      0x40\n        /* \"#utility.yul\":6047:6056   */\n      dup4\n        /* \"#utility.yul\":6038:6045   */\n      dup6\n        /* \"#utility.yul\":6034:6057   */\n      sub\n        /* \"#utility.yul\":6030:6062   */\n      slt\n        /* \"#utility.yul\":6027:6146   */\n      iszero\n      tag_171\n      jumpi\n        /* \"#utility.yul\":6065:6144   */\n      tag_172\n      tag_58\n      jump\t// in\n    tag_172:\n        /* \"#utility.yul\":6027:6146   */\n    tag_171:\n        /* \"#utility.yul\":6185:6186   */\n      0x00\n        /* \"#utility.yul\":6210:6263   */\n      tag_173\n        /* \"#utility.yul\":6255:6262   */\n      dup6\n        /* \"#utility.yul\":6246:6252   */\n      dup3\n        /* \"#utility.yul\":6235:6244   */\n      dup7\n        /* \"#utility.yul\":6231:6253   */\n      add\n        /* \"#utility.yul\":6210:6263   */\n      tag_81\n      jump\t// in\n    tag_173:\n        /* \"#utility.yul\":6200:6263   */\n      swap3\n      pop\n        /* \"#utility.yul\":6156:6273   */\n      pop\n        /* \"#utility.yul\":6340:6342   */\n      0x20\n        /* \"#utility.yul\":6329:6338   */\n      dup4\n        /* \"#utility.yul\":6325:6343   */\n      add\n        /* \"#utility.yul\":6312:6344   */\n      calldataload\n        /* \"#utility.yul\":6371:6389   */\n      0xffffffffffffffff\n        /* \"#utility.yul\":6363:6369   */\n      dup2\n        /* \"#utility.yul\":6360:6390   */\n      gt\n        /* \"#utility.yul\":6357:6474   */\n      iszero\n      tag_174\n      jumpi\n        /* \"#utility.yul\":6393:6472   */\n      tag_175\n      tag_59\n      jump\t// in\n    tag_175:\n        /* \"#utility.yul\":6357:6474   */\n    tag_174:\n        /* \"#utility.yul\":6498:6560   */\n      tag_176\n        /* \"#utility.yul\":6552:6559   */\n      dup6\n        /* \"#utility.yul\":6543:6549   */\n      dup3\n        /* \"#utility.yul\":6532:6541   */\n      dup7\n        /* \"#utility.yul\":6528:6550   */\n      add\n        /* \"#utility.yul\":6498:6560   */\n      tag_76\n      jump\t// in\n    tag_176:\n        /* \"#utility.yul\":6488:6560   */\n      swap2\n      pop\n        /* \"#utility.yul\":6283:6570   */\n      pop\n        /* \"#utility.yul\":5925:6577   */\n      swap3\n      pop\n      swap3\n      swap1\n      pop\n      jump\t// out\n        /* \"#utility.yul\":6583:6701   */\n    tag_82:\n        /* \"#utility.yul\":6670:6694   */\n      tag_178\n        /* \"#utility.yul\":6688:6693   */\n      dup2\n        /* \"#utility.yul\":6670:6694   */\n      tag_61\n      jump\t// in\n    tag_178:\n        /* \"#utility.yul\":6665:6668   */\n      dup3\n        /* \"#utility.yul\":6658:6695   */\n      mstore\n        /* \"#utility.yul\":6583:6701   */\n      pop\n      pop\n      jump\t// out\n        /* \"#utility.yul\":6707:6929   */\n    tag_19:\n        /* \"#utility.yul\":6800:6804   */\n      0x00\n        /* \"#utility.yul\":6838:6840   */\n      0x20\n        /* \"#utility.yul\":6827:6836   */\n      dup3\n        /* \"#utility.yul\":6823:6841   */\n      add\n        /* \"#utility.yul\":6815:6841   */\n      swap1\n      pop\n        /* \"#utility.yul\":6851:6922   */\n      tag_180\n        /* \"#utility.yul\":6919:6920   */\n      0x00\n        /* \"#utility.yul\":6908:6917   */\n      dup4\n        /* \"#utility.yul\":6904:6921   */\n      add\n        /* \"#utility.yul\":6895:6901   */\n      dup5\n        /* \"#utility.yul\":6851:6922   */\n      tag_82\n      jump\t// in\n    tag_180:\n        /* \"#utility.yul\":6707:6929   */\n      swap3\n      swap2\n      pop\n      pop\n      jump\t// out\n        /* \"#utility.yul\":6935:7442   */\n    tag_22:\n        /* \"#utility.yul\":7003:7009   */\n      0x00\n        /* \"#utility.yul\":7052:7054   */\n      0x20\n        /* \"#utility.yul\":7040:7049   */\n      dup3\n        /* \"#utility.yul\":7031:7038   */\n      dup5\n        /* \"#utility.yul\":7027:7050   */\n      sub\n        /* \"#utility.yul\":7023:7055   */\n      slt\n        /* \"#utility.yul\":7020:7139   */\n      iszero\n      tag_182\n      jumpi\n        /* \"#utility.yul\":7058:7137   */\n      tag_183\n      tag_58\n      jump\t// in\n    tag_183:\n        /* \"#utility.yul\":7020:7139   */\n    tag_182:\n        /* \"#utility.yul\":7206:7207   */\n      0x00\n        /* \"#utility.yul\":7195:7204   */\n      dup3\n        /* \"#utility.yul\":7191:7208   */\n      add\n        /* \"#utility.yul\":7178:7209   */\n      calldataload\n        /* \"#utility.yul\":7236:7254   */\n      0xffffffffffffffff\n        /* \"#utility.yul\":7228:7234   */\n      dup2\n        /* \"#utility.yul\":7225:7255   */\n      gt\n        /* \"#utility.yul\":7222:7339   */\n      iszero\n      tag_184\n      jumpi\n        /* \"#utility.yul\":7258:7337   */\n      tag_185\n      tag_59\n      jump\t// in\n    tag_185:\n        /* \"#utility.yul\":7222:7339   */\n    tag_184:\n        /* \"#utility.yul\":7363:7425   */\n      tag_186\n        /* \"#utility.yul\":7417:7424   */\n      dup5\n        /* \"#utility.yul\":7408:7414   */\n      dup3\n        /* \"#utility.yul\":7397:7406   */\n      dup6\n        /* \"#utility.yul\":7393:7415   */\n      add\n        /* \"#utility.yul\":7363:7425   */\n      tag_76\n      jump\t// in\n    tag_186:\n        /* \"#utility.yul\":7353:7425   */\n      swap2\n      pop\n        /* \"#utility.yul\":7149:7435   */\n      pop\n        /* \"#utility.yul\":6935:7442   */\n      swap3\n      swap2\n      pop\n      pop\n      jump\t// out\n        /* \"#utility.yul\":7448:7566   */\n    tag_83:\n        /* \"#utility.yul\":7535:7559   */\n      tag_188\n        /* \"#utility.yul\":7553:7558   */\n      dup2\n        /* \"#utility.yul\":7535:7559   */\n      tag_79\n      jump\t// in\n    tag_188:\n        /* \"#utility.yul\":7530:7533   */\n      dup3\n        /* \"#utility.yul\":7523:7560   */\n      mstore\n        /* \"#utility.yul\":7448:7566   */\n      pop\n      pop\n      jump\t// out\n        /* \"#utility.yul\":7572:7658   */\n    tag_84:\n        /* \"#utility.yul\":7607:7614   */\n      0x00\n        /* \"#utility.yul\":7647:7651   */\n      0xff\n        /* \"#utility.yul\":7640:7645   */\n      dup3\n        /* \"#utility.yul\":7636:7652   */\n      and\n        /* \"#utility.yul\":7625:7652   */\n      swap1\n      pop\n        /* \"#utility.yul\":7572:7658   */\n      swap2\n      swap1\n      pop\n      jump\t// out\n        /* \"#utility.yul\":7664:7776   */\n    tag_85:\n        /* \"#utility.yul\":7747:7769   */\n      tag_191\n        /* \"#utility.yul\":7763:7768   */\n      dup2\n        /* \"#utility.yul\":7747:7769   */\n      tag_84\n      jump\t// in\n    tag_191:\n        /* \"#utility.yul\":7742:7745   */\n      dup3\n        /* \"#utility.yul\":7735:7770   */\n      mstore\n        /* \"#utility.yul\":7664:7776   */\n      pop\n      pop\n      jump\t// out\n        /* \"#utility.yul\":7782:8216   */\n    tag_25:\n        /* \"#utility.yul\":7927:7931   */\n      0x00\n        /* \"#utility.yul\":7965:7967   */\n      0x60\n        /* \"#utility.yul\":7954:7963   */\n      dup3\n        /* \"#utility.yul\":7950:7968   */\n      add\n        /* \"#utility.yul\":7942:7968   */\n      swap1\n      pop\n        /* \"#utility.yul\":7978:8049   */\n      tag_193\n        /* \"#utility.yul\":8046:8047   */\n      0x00\n        /* \"#utility.yul\":8035:8044   */\n      dup4\n        /* \"#utility.yul\":8031:8048   */\n      add\n        /* \"#utility.yul\":8022:8028   */\n      dup7\n        /* \"#utility.yul\":7978:8049   */\n      tag_83\n      jump\t// in\n    tag_193:\n        /* \"#utility.yul\":8059:8131   */\n      tag_194\n        /* \"#utility.yul\":8127:8129   */\n      0x20\n        /* \"#utility.yul\":8116:8125   */\n      dup4\n        /* \"#utility.yul\":8112:8130   */\n      add\n        /* \"#utility.yul\":8103:8109   */\n      dup6\n        /* \"#utility.yul\":8059:8131   */\n      tag_83\n      jump\t// in\n    tag_194:\n        /* \"#utility.yul\":8141:8209   */\n      tag_195\n        /* \"#utility.yul\":8205:8207   */\n      0x40\n        /* \"#utility.yul\":8194:8203   */\n      dup4\n        /* \"#utility.yul\":8190:8208   */\n      add\n        /* \"#utility.yul\":8181:8187   */\n      dup5\n        /* \"#utility.yul\":8141:8209   */\n      tag_85\n      jump\t// in\n    tag_195:\n        /* \"#utility.yul\":7782:8216   */\n      swap5\n      swap4\n      pop\n      pop\n      pop\n      pop\n      jump\t// out\n        /* \"#utility.yul\":8222:8731   */\n    tag_28:\n        /* \"#utility.yul\":8291:8297   */\n      0x00\n        /* \"#utility.yul\":8340:8342   */\n      0x20\n        /* \"#utility.yul\":8328:8337   */\n      dup3\n        /* \"#utility.yul\":8319:8326   */\n      dup5\n        /* \"#utility.yul\":8315:8338   */\n      sub\n        /* \"#utility.yul\":8311:8343   */\n      slt\n        /* \"#utility.yul\":8308:8427   */\n      iszero\n      tag_197\n      jumpi\n        /* \"#utility.yul\":8346:8425   */\n      tag_198\n      tag_58\n      jump\t// in\n    tag_198:\n        /* \"#utility.yul\":8308:8427   */\n    tag_197:\n        /* \"#utility.yul\":8494:8495   */\n      0x00\n        /* \"#utility.yul\":8483:8492   */\n      dup3\n        /* \"#utility.yul\":8479:8496   */\n      add\n        /* \"#utility.yul\":8466:8497   */\n      calldataload\n        /* \"#utility.yul\":8524:8542   */\n      0xffffffffffffffff\n        /* \"#utility.yul\":8516:8522   */\n      dup2\n        /* \"#utility.yul\":8513:8543   */\n      gt\n        /* \"#utility.yul\":8510:8627   */\n      iszero\n      tag_199\n      jumpi\n        /* \"#utility.yul\":8546:8625   */\n      tag_200\n      tag_59\n      jump\t// in\n    tag_200:\n        /* \"#utility.yul\":8510:8627   */\n    tag_199:\n        /* \"#utility.yul\":8651:8714   */\n      tag_201\n        /* \"#utility.yul\":8706:8713   */\n      dup5\n        /* \"#utility.yul\":8697:8703   */\n      dup3\n        /* \"#utility.yul\":8686:8695   */\n      dup6\n        /* \"#utility.yul\":8682:8704   */\n      add\n        /* \"#utility.yul\":8651:8714   */\n      tag_73\n      jump\t// in\n    tag_201:\n        /* \"#utility.yul\":8641:8714   */\n      swap2\n      pop\n        /* \"#utility.yul\":8437:8724   */\n      pop\n        /* \"#utility.yul\":8222:8731   */\n      swap3\n      swap2\n      pop\n      pop\n      jump\t// out\n        /* \"#utility.yul\":8737:8959   */\n    tag_31:\n        /* \"#utility.yul\":8830:8834   */\n      0x00\n        /* \"#utility.yul\":8868:8870   */\n      0x20\n        /* \"#utility.yul\":8857:8866   */\n      dup3\n        /* \"#utility.yul\":8853:8871   */\n      add\n        /* \"#utility.yul\":8845:8871   */\n      swap1\n      pop\n        /* \"#utility.yul\":8881:8952   */\n      tag_203\n        /* \"#utility.yul\":8949:8950   */\n      0x00\n        /* \"#utility.yul\":8938:8947   */\n      dup4\n        /* \"#utility.yul\":8934:8951   */\n      add\n        /* \"#utility.yul\":8925:8931   */\n      dup5\n        /* \"#utility.yul\":8881:8952   */\n      tag_83\n      jump\t// in\n    tag_203:\n        /* \"#utility.yul\":8737:8959   */\n      swap3\n      swap2\n      pop\n      pop\n      jump\t// out\n        /* \"#utility.yul\":8965:9294   */\n    tag_34:\n        /* \"#utility.yul\":9024:9030   */\n      0x00\n        /* \"#utility.yul\":9073:9075   */\n      0x20\n        /* \"#utility.yul\":9061:9070   */\n      dup3\n        /* \"#utility.yul\":9052:9059   */\n      dup5\n        /* \"#utility.yul\":9048:9071   */\n      sub\n        /* \"#utility.yul\":9044:9076   */\n      slt\n        /* \"#utility.yul\":9041:9160   */\n      iszero\n      tag_205\n      jumpi\n        /* \"#utility.yul\":9079:9158   */\n      tag_206\n      tag_58\n      jump\t// in\n    tag_206:\n        /* \"#utility.yul\":9041:9160   */\n    tag_205:\n        /* \"#utility.yul\":9199:9200   */\n      0x00\n        /* \"#utility.yul\":9224:9277   */\n      tag_207\n        /* \"#utility.yul\":9269:9276   */\n      dup5\n        /* \"#utility.yul\":9260:9266   */\n      dup3\n        /* \"#utility.yul\":9249:9258   */\n      dup6\n        /* \"#utility.yul\":9245:9267   */\n      add\n        /* \"#utility.yul\":9224:9277   */\n      tag_81\n      jump\t// in\n    tag_207:\n        /* \"#utility.yul\":9214:9277   */\n      swap2\n      pop\n        /* \"#utility.yul\":9170:9287   */\n      pop\n        /* \"#utility.yul\":8965:9294   */\n      swap3\n      swap2\n      pop\n      pop\n      jump\t// out\n        /* \"#utility.yul\":9300:9845   */\n    tag_44:\n        /* \"#utility.yul\":9473:9477   */\n      0x00\n        /* \"#utility.yul\":9511:9514   */\n      0x80\n        /* \"#utility.yul\":9500:9509   */\n      dup3\n        /* \"#utility.yul\":9496:9515   */\n      add\n        /* \"#utility.yul\":9488:9515   */\n      swap1\n      pop\n        /* \"#utility.yul\":9525:9596   */\n      tag_209\n        /* \"#utility.yul\":9593:9594   */\n      0x00\n        /* \"#utility.yul\":9582:9591   */\n      dup4\n        /* \"#utility.yul\":9578:9595   */\n      add\n        /* \"#utility.yul\":9569:9575   */\n      dup8\n        /* \"#utility.yul\":9525:9596   */\n      tag_83\n      jump\t// in\n    tag_209:\n        /* \"#utility.yul\":9606:9674   */\n      tag_210\n        /* \"#utility.yul\":9670:9672   */\n      0x20\n        /* \"#utility.yul\":9659:9668   */\n      dup4\n        /* \"#utility.yul\":9655:9673   */\n      add\n        /* \"#utility.yul\":9646:9652   */\n      dup7\n        /* \"#utility.yul\":9606:9674   */\n      tag_85\n      jump\t// in\n    tag_210:\n        /* \"#utility.yul\":9684:9756   */\n      tag_211\n        /* \"#utility.yul\":9752:9754   */\n      0x40\n        /* \"#utility.yul\":9741:9750   */\n      dup4\n        /* \"#utility.yul\":9737:9755   */\n      add\n        /* \"#utility.yul\":9728:9734   */\n      dup6\n        /* \"#utility.yul\":9684:9756   */\n      tag_83\n      jump\t// in\n    tag_211:\n        /* \"#utility.yul\":9766:9838   */\n      tag_212\n        /* \"#utility.yul\":9834:9836   */\n      0x60\n        /* \"#utility.yul\":9823:9832   */\n      dup4\n        /* \"#utility.yul\":9819:9837   */\n      add\n        /* \"#utility.yul\":9810:9816   */\n      dup5\n        /* \"#utility.yul\":9766:9838   */\n      tag_83\n      jump\t// in\n    tag_212:\n        /* \"#utility.yul\":9300:9845   */\n      swap6\n      swap5\n      pop\n      pop\n      pop\n      pop\n      pop\n      jump\t// out\n        /* \"#utility.yul\":9851:10020   */\n    tag_86:\n        /* \"#utility.yul\":9935:9946   */\n      0x00\n        /* \"#utility.yul\":9969:9975   */\n      dup3\n        /* \"#utility.yul\":9964:9967   */\n      dup3\n        /* \"#utility.yul\":9957:9976   */\n      mstore\n        /* \"#utility.yul\":10009:10013   */\n      0x20\n        /* \"#utility.yul\":10004:10007   */\n      dup3\n        /* \"#utility.yul\":10000:10014   */\n      add\n        /* \"#utility.yul\":9985:10014   */\n      swap1\n      pop\n        /* \"#utility.yul\":9851:10020   */\n      swap3\n      swap2\n      pop\n      pop\n      jump\t// out\n        /* \"#utility.yul\":10026:10200   */\n    tag_87:\n        /* \"#utility.yul\":10166:10192   */\n      0x696e76616c6964207369676e6174757265206c656e6774680000000000000000\n        /* \"#utility.yul\":10162:10163   */\n      0x00\n        /* \"#utility.yul\":10154:10160   */\n      dup3\n        /* \"#utility.yul\":10150:10164   */\n      add\n        /* \"#utility.yul\":10143:10193   */\n      mstore\n        /* \"#utility.yul\":10026:10200   */\n      pop\n      jump\t// out\n        /* \"#utility.yul\":10206:10572   */\n    tag_88:\n        /* \"#utility.yul\":10348:10351   */\n      0x00\n        /* \"#utility.yul\":10369:10436   */\n      tag_216\n        /* \"#utility.yul\":10433:10435   */\n      0x18\n        /* \"#utility.yul\":10428:10431   */\n      dup4\n        /* \"#utility.yul\":10369:10436   */\n      tag_86\n      jump\t// in\n    tag_216:\n        /* \"#utility.yul\":10362:10436   */\n      swap2\n      pop\n        /* \"#utility.yul\":10445:10538   */\n      tag_217\n        /* \"#utility.yul\":10534:10537   */\n      dup3\n        /* \"#utility.yul\":10445:10538   */\n      tag_87\n      jump\t// in\n    tag_217:\n        /* \"#utility.yul\":10563:10565   */\n      0x20\n        /* \"#utility.yul\":10558:10561   */\n      dup3\n        /* \"#utility.yul\":10554:10566   */\n      add\n        /* \"#utility.yul\":10547:10566   */\n      swap1\n      pop\n        /* \"#utility.yul\":10206:10572   */\n      swap2\n      swap1\n      pop\n      jump\t// out\n        /* \"#utility.yul\":10578:10997   */\n    tag_50:\n        /* \"#utility.yul\":10744:10748   */\n      0x00\n        /* \"#utility.yul\":10782:10784   */\n      0x20\n        /* \"#utility.yul\":10771:10780   */\n      dup3\n        /* \"#utility.yul\":10767:10785   */\n      add\n        /* \"#utility.yul\":10759:10785   */\n      swap1\n      pop\n        /* \"#utility.yul\":10831:10840   */\n      dup2\n        /* \"#utility.yul\":10825:10829   */\n      dup2\n        /* \"#utility.yul\":10821:10841   */\n      sub\n        /* \"#utility.yul\":10817:10818   */\n      0x00\n        /* \"#utility.yul\":10806:10815   */\n      dup4\n        /* \"#utility.yul\":10802:10819   */\n      add\n        /* \"#utility.yul\":10795:10842   */\n      mstore\n        /* \"#utility.yul\":10859:10990   */\n      tag_219\n        /* \"#utility.yul\":10985:10989   */\n      dup2\n        /* \"#utility.yul\":10859:10990   */\n      tag_88\n      jump\t// in\n    tag_219:\n        /* \"#utility.yul\":10851:10990   */\n      swap1\n      pop\n        /* \"#utility.yul\":10578:10997   */\n      swap2\n      swap1\n      pop\n      jump\t// out\n        /* \"#utility.yul\":11003:11102   */\n    tag_89:\n        /* \"#utility.yul\":11055:11061   */\n      0x00\n        /* \"#utility.yul\":11089:11094   */\n      dup2\n        /* \"#utility.yul\":11083:11095   */\n      mload\n        /* \"#utility.yul\":11073:11095   */\n      swap1\n      pop\n        /* \"#utility.yul\":11003:11102   */\n      swap2\n      swap1\n      pop\n      jump\t// out\n        /* \"#utility.yul\":11108:11256   */\n    tag_90:\n        /* \"#utility.yul\":11210:11221   */\n      0x00\n        /* \"#utility.yul\":11247:11250   */\n      dup2\n        /* \"#utility.yul\":11232:11250   */\n      swap1\n      pop\n        /* \"#utility.yul\":11108:11256   */\n      swap3\n      swap2\n      pop\n      pop\n      jump\t// out\n        /* \"#utility.yul\":11262:11508   */\n    tag_91:\n        /* \"#utility.yul\":11343:11344   */\n      0x00\n        /* \"#utility.yul\":11353:11466   */\n    tag_223:\n        /* \"#utility.yul\":11367:11373   */\n      dup4\n        /* \"#utility.yul\":11364:11365   */\n      dup2\n        /* \"#utility.yul\":11361:11374   */\n      lt\n        /* \"#utility.yul\":11353:11466   */\n      iszero\n      tag_225\n      jumpi\n        /* \"#utility.yul\":11452:11453   */\n      dup1\n        /* \"#utility.yul\":11447:11450   */\n      dup3\n        /* \"#utility.yul\":11443:11454   */\n      add\n        /* \"#utility.yul\":11437:11455   */\n      mload\n        /* \"#utility.yul\":11433:11434   */\n      dup2\n        /* \"#utility.yul\":11428:11431   */\n      dup5\n        /* \"#utility.yul\":11424:11435   */\n      add\n        /* \"#utility.yul\":11417:11456   */\n      mstore\n        /* \"#utility.yul\":11389:11391   */\n      0x20\n        /* \"#utility.yul\":11386:11387   */\n      dup2\n        /* \"#utility.yul\":11382:11392   */\n      add\n        /* \"#utility.yul\":11377:11392   */\n      swap1\n      pop\n        /* \"#utility.yul\":11353:11466   */\n      jump(tag_223)\n    tag_225:\n        /* \"#utility.yul\":11500:11501   */\n      0x00\n        /* \"#utility.yul\":11491:11497   */\n      dup5\n        /* \"#utility.yul\":11486:11489   */\n      dup5\n        /* \"#utility.yul\":11482:11498   */\n      add\n        /* \"#utility.yul\":11475:11502   */\n      mstore\n        /* \"#utility.yul\":11324:11508   */\n      pop\n        /* \"#utility.yul\":11262:11508   */\n      pop\n      pop\n      pop\n      jump\t// out\n        /* \"#utility.yul\":11514:11904   */\n    tag_92:\n        /* \"#utility.yul\":11620:11623   */\n      0x00\n        /* \"#utility.yul\":11648:11687   */\n      tag_227\n        /* \"#utility.yul\":11681:11686   */\n      dup3\n        /* \"#utility.yul\":11648:11687   */\n      tag_89\n      jump\t// in\n    tag_227:\n        /* \"#utility.yul\":11703:11792   */\n      tag_228\n        /* \"#utility.yul\":11785:11791   */\n      dup2\n        /* \"#utility.yul\":11780:11783   */\n      dup6\n        /* \"#utility.yul\":11703:11792   */\n      tag_90\n      jump\t// in\n    tag_228:\n        /* \"#utility.yul\":11696:11792   */\n      swap4\n      pop\n        /* \"#utility.yul\":11801:11866   */\n      tag_229\n        /* \"#utility.yul\":11859:11865   */\n      dup2\n        /* \"#utility.yul\":11854:11857   */\n      dup6\n        /* \"#utility.yul\":11847:11851   */\n      0x20\n        /* \"#utility.yul\":11840:11845   */\n      dup7\n        /* \"#utility.yul\":11836:11852   */\n      add\n        /* \"#utility.yul\":11801:11866   */\n      tag_91\n      jump\t// in\n    tag_229:\n        /* \"#utility.yul\":11891:11897   */\n      dup1\n        /* \"#utility.yul\":11886:11889   */\n      dup5\n        /* \"#utility.yul\":11882:11898   */\n      add\n        /* \"#utility.yul\":11875:11898   */\n      swap2\n      pop\n        /* \"#utility.yul\":11624:11904   */\n      pop\n        /* \"#utility.yul\":11514:11904   */\n      swap3\n      swap2\n      pop\n      pop\n      jump\t// out\n        /* \"#utility.yul\":11910:12185   */\n    tag_53:\n        /* \"#utility.yul\":12042:12045   */\n      0x00\n        /* \"#utility.yul\":12064:12159   */\n      tag_231\n        /* \"#utility.yul\":12155:12158   */\n      dup3\n        /* \"#utility.yul\":12146:12152   */\n      dup5\n        /* \"#utility.yul\":12064:12159   */\n      tag_92\n      jump\t// in\n    tag_231:\n        /* \"#utility.yul\":12057:12159   */\n      swap2\n      pop\n        /* \"#utility.yul\":12176:12179   */\n      dup2\n        /* \"#utility.yul\":12169:12179   */\n      swap1\n      pop\n        /* \"#utility.yul\":11910:12185   */\n      swap3\n      swap2\n      pop\n      pop\n      jump\t// out\n        /* \"#utility.yul\":12191:12405   */\n    tag_93:\n        /* \"#utility.yul\":12331:12397   */\n      0x19457468657265756d205369676e6564204d6573736167653a0a333200000000\n        /* \"#utility.yul\":12327:12328   */\n      0x00\n        /* \"#utility.yul\":12319:12325   */\n      dup3\n        /* \"#utility.yul\":12315:12329   */\n      add\n        /* \"#utility.yul\":12308:12398   */\n      mstore\n        /* \"#utility.yul\":12191:12405   */\n      pop\n      jump\t// out\n        /* \"#utility.yul\":12411:12813   */\n    tag_94:\n        /* \"#utility.yul\":12571:12574   */\n      0x00\n        /* \"#utility.yul\":12592:12677   */\n      tag_234\n        /* \"#utility.yul\":12674:12676   */\n      0x1c\n        /* \"#utility.yul\":12669:12672   */\n      dup4\n        /* \"#utility.yul\":12592:12677   */\n      tag_90\n      jump\t// in\n    tag_234:\n        /* \"#utility.yul\":12585:12677   */\n      swap2\n      pop\n        /* \"#utility.yul\":12686:12779   */\n      tag_235\n        /* \"#utility.yul\":12775:12778   */\n      dup3\n        /* \"#utility.yul\":12686:12779   */\n      tag_93\n      jump\t// in\n    tag_235:\n        /* \"#utility.yul\":12804:12806   */\n      0x1c\n        /* \"#utility.yul\":12799:12802   */\n      dup3\n        /* \"#utility.yul\":12795:12807   */\n      add\n        /* \"#utility.yul\":12788:12807   */\n      swap1\n      pop\n        /* \"#utility.yul\":12411:12813   */\n      swap2\n      swap1\n      pop\n      jump\t// out\n        /* \"#utility.yul\":12819:12898   */\n    tag_95:\n        /* \"#utility.yul\":12858:12865   */\n      0x00\n        /* \"#utility.yul\":12887:12892   */\n      dup2\n        /* \"#utility.yul\":12876:12892   */\n      swap1\n      pop\n        /* \"#utility.yul\":12819:12898   */\n      swap2\n      swap1\n      pop\n      jump\t// out\n        /* \"#utility.yul\":12904:13061   */\n    tag_96:\n        /* \"#utility.yul\":13009:13054   */\n      tag_238\n        /* \"#utility.yul\":13029:13053   */\n      tag_239\n        /* \"#utility.yul\":13047:13052   */\n      dup3\n        /* \"#utility.yul\":13029:13053   */\n      tag_79\n      jump\t// in\n    tag_239:\n        /* \"#utility.yul\":13009:13054   */\n      tag_95\n      jump\t// in\n    tag_238:\n        /* \"#utility.yul\":13004:13007   */\n      dup3\n        /* \"#utility.yul\":12997:13055   */\n      mstore\n        /* \"#utility.yul\":12904:13061   */\n      pop\n      pop\n      jump\t// out\n        /* \"#utility.yul\":13067:13589   */\n    tag_56:\n        /* \"#utility.yul\":13280:13283   */\n      0x00\n        /* \"#utility.yul\":13302:13450   */\n      tag_241\n        /* \"#utility.yul\":13446:13449   */\n      dup3\n        /* \"#utility.yul\":13302:13450   */\n      tag_94\n      jump\t// in\n    tag_241:\n        /* \"#utility.yul\":13295:13450   */\n      swap2\n      pop\n        /* \"#utility.yul\":13460:13535   */\n      tag_242\n        /* \"#utility.yul\":13531:13534   */\n      dup3\n        /* \"#utility.yul\":13522:13528   */\n      dup5\n        /* \"#utility.yul\":13460:13535   */\n      tag_96\n      jump\t// in\n    tag_242:\n        /* \"#utility.yul\":13560:13562   */\n      0x20\n        /* \"#utility.yul\":13555:13558   */\n      dup3\n        /* \"#utility.yul\":13551:13563   */\n      add\n        /* \"#utility.yul\":13544:13563   */\n      swap2\n      pop\n        /* \"#utility.yul\":13580:13583   */\n      dup2\n        /* \"#utility.yul\":13573:13583   */\n      swap1\n      pop\n        /* \"#utility.yul\":13067:13589   */\n      swap3\n      swap2\n      pop\n      pop\n      jump\t// out\n\n    auxdata: 0xa2646970667358221220841d3a831f28fc0b085ea89c61c921efac53a08bd44d953aee2b33fe25d5d35e64736f6c63430008110033\n}\n",
				"bytecode": {
					"linkReferences": {},
					"object": "608060405234801561001057600080fd5b50610a08806100206000396000f3fe608060405234801561001057600080fd5b50600436106100575760003560e01c80632dd34f0f1461005c57806397aba7f91461008c578063a7bb5803146100bc578063b446f3b2146100ee578063fa5408011461011e575b600080fd5b6100766004803603810190610071919061053c565b61014e565b60405161008391906105e2565b60405180910390f35b6100a660048036038101906100a19190610633565b6101ac565b6040516100b3919061069e565b60405180910390f35b6100d660048036038101906100d191906106b9565b61021b565b6040516100e59392919061072d565b60405180910390f35b61010860048036038101906101039190610764565b610283565b60405161011591906107ad565b60405180910390f35b610138600480360381019061013391906107c8565b6102b3565b60405161014591906107ad565b60405180910390f35b60008061015a84610283565b90506000610167826102b3565b90508573ffffffffffffffffffffffffffffffffffffffff1661018a82866101ac565b73ffffffffffffffffffffffffffffffffffffffff1614925050509392505050565b6000806000806101bb8561021b565b925092509250600186828585604051600081526020016040526040516101e494939291906107f5565b6020604051602081039080840390855afa158015610206573d6000803e3d6000fd5b50505060206040510351935050505092915050565b60008060006041845114610264576040517f08c379a000000000000000000000000000000000000000000000000000000000815260040161025b90610897565b60405180910390fd5b6020840151925060408401519150606084015160001a90509193909250565b6000816040516020016102969190610928565b604051602081830303815290604052805190602001209050919050565b6000816040516020016102c691906109ac565b604051602081830303815290604052805190602001209050919050565b6000604051905090565b600080fd5b600080fd5b600073ffffffffffffffffffffffffffffffffffffffff82169050919050565b6000610322826102f7565b9050919050565b61033281610317565b811461033d57600080fd5b50565b60008135905061034f81610329565b92915050565b600080fd5b600080fd5b6000601f19601f8301169050919050565b7f4e487b7100000000000000000000000000000000000000000000000000000000600052604160045260246000fd5b6103a88261035f565b810181811067ffffffffffffffff821117156103c7576103c6610370565b5b80604052505050565b60006103da6102e3565b90506103e6828261039f565b919050565b600067ffffffffffffffff82111561040657610405610370565b5b61040f8261035f565b9050602081019050919050565b82818337600083830152505050565b600061043e610439846103eb565b6103d0565b90508281526020810184848401111561045a5761045961035a565b5b61046584828561041c565b509392505050565b600082601f83011261048257610481610355565b5b813561049284826020860161042b565b91505092915050565b600067ffffffffffffffff8211156104b6576104b5610370565b5b6104bf8261035f565b9050602081019050919050565b60006104df6104da8461049b565b6103d0565b9050828152602081018484840111156104fb576104fa61035a565b5b61050684828561041c565b509392505050565b600082601f83011261052357610522610355565b5b81356105338482602086016104cc565b91505092915050565b600080600060608486031215610555576105546102ed565b5b600061056386828701610340565b935050602084013567ffffffffffffffff811115610584576105836102f2565b5b6105908682870161046d565b925050604084013567ffffffffffffffff8111156105b1576105b06102f2565b5b6105bd8682870161050e565b9150509250925092565b60008115159050919050565b6105dc816105c7565b82525050565b60006020820190506105f760008301846105d3565b92915050565b6000819050919050565b610610816105fd565b811461061b57600080fd5b50565b60008135905061062d81610607565b92915050565b6000806040838503121561064a576106496102ed565b5b60006106588582860161061e565b925050602083013567ffffffffffffffff811115610679576106786102f2565b5b6106858582860161050e565b9150509250929050565b61069881610317565b82525050565b60006020820190506106b3600083018461068f565b92915050565b6000602082840312156106cf576106ce6102ed565b5b600082013567ffffffffffffffff8111156106ed576106ec6102f2565b5b6106f98482850161050e565b91505092915050565b61070b816105fd565b82525050565b600060ff82169050919050565b61072781610711565b82525050565b60006060820190506107426000830186610702565b61074f6020830185610702565b61075c604083018461071e565b949350505050565b60006020828403121561077a576107796102ed565b5b600082013567ffffffffffffffff811115610798576107976102f2565b5b6107a48482850161046d565b91505092915050565b60006020820190506107c26000830184610702565b92915050565b6000602082840312156107de576107dd6102ed565b5b60006107ec8482850161061e565b91505092915050565b600060808201905061080a6000830187610702565b610817602083018661071e565b6108246040830185610702565b6108316060830184610702565b95945050505050565b600082825260208201905092915050565b7f696e76616c6964207369676e6174757265206c656e6774680000000000000000600082015250565b600061088160188361083a565b915061088c8261084b565b602082019050919050565b600060208201905081810360008301526108b081610874565b9050919050565b600081519050919050565b600081905092915050565b60005b838110156108eb5780820151818401526020810190506108d0565b60008484015250505050565b6000610902826108b7565b61090c81856108c2565b935061091c8185602086016108cd565b80840191505092915050565b600061093482846108f7565b915081905092915050565b7f19457468657265756d205369676e6564204d6573736167653a0a333200000000600082015250565b6000610975601c836108c2565b91506109808261093f565b601c82019050919050565b6000819050919050565b6109a66109a1826105fd565b61098b565b82525050565b60006109b782610968565b91506109c38284610995565b6020820191508190509291505056fea2646970667358221220841d3a831f28fc0b085ea89c61c921efac53a08bd44d953aee2b33fe25d5d35e64736f6c63430008110033",
					"opcodes": "PUSH1 0x80 PUSH1 0x40 MSTORE CALLVALUE DUP1 ISZERO PUSH2 0x10 JUMPI PUSH1 0x0 DUP1 REVERT JUMPDEST POP PUSH2 0xA08 DUP1 PUSH2 0x20 PUSH1 0x0 CODECOPY PUSH1 0x0 RETURN INVALID PUSH1 0x80 PUSH1 0x40 MSTORE CALLVALUE DUP1 ISZERO PUSH2 0x10 JUMPI PUSH1 0x0 DUP1 REVERT JUMPDEST POP PUSH1 0x4 CALLDATASIZE LT PUSH2 0x57 JUMPI PUSH1 0x0 CALLDATALOAD PUSH1 0xE0 SHR DUP1 PUSH4 0x2DD34F0F EQ PUSH2 0x5C JUMPI DUP1 PUSH4 0x97ABA7F9 EQ PUSH2 0x8C JUMPI DUP1 PUSH4 0xA7BB5803 EQ PUSH2 0xBC JUMPI DUP1 PUSH4 0xB446F3B2 EQ PUSH2 0xEE JUMPI DUP1 PUSH4 0xFA540801 EQ PUSH2 0x11E JUMPI JUMPDEST PUSH1 0x0 DUP1 REVERT JUMPDEST PUSH2 0x76 PUSH1 0x4 DUP1 CALLDATASIZE SUB DUP2 ADD SWAP1 PUSH2 0x71 SWAP2 SWAP1 PUSH2 0x53C JUMP JUMPDEST PUSH2 0x14E JUMP JUMPDEST PUSH1 0x40 MLOAD PUSH2 0x83 SWAP2 SWAP1 PUSH2 0x5E2 JUMP JUMPDEST PUSH1 0x40 MLOAD DUP1 SWAP2 SUB SWAP1 RETURN JUMPDEST PUSH2 0xA6 PUSH1 0x4 DUP1 CALLDATASIZE SUB DUP2 ADD SWAP1 PUSH2 0xA1 SWAP2 SWAP1 PUSH2 0x633 JUMP JUMPDEST PUSH2 0x1AC JUMP JUMPDEST PUSH1 0x40 MLOAD PUSH2 0xB3 SWAP2 SWAP1 PUSH2 0x69E JUMP JUMPDEST PUSH1 0x40 MLOAD DUP1 SWAP2 SUB SWAP1 RETURN JUMPDEST PUSH2 0xD6 PUSH1 0x4 DUP1 CALLDATASIZE SUB DUP2 ADD SWAP1 PUSH2 0xD1 SWAP2 SWAP1 PUSH2 0x6B9 JUMP JUMPDEST PUSH2 0x21B JUMP JUMPDEST PUSH1 0x40 MLOAD PUSH2 0xE5 SWAP4 SWAP3 SWAP2 SWAP1 PUSH2 0x72D JUMP JUMPDEST PUSH1 0x40 MLOAD DUP1 SWAP2 SUB SWAP1 RETURN JUMPDEST PUSH2 0x108 PUSH1 0x4 DUP1 CALLDATASIZE SUB DUP2 ADD SWAP1 PUSH2 0x103 SWAP2 SWAP1 PUSH2 0x764 JUMP JUMPDEST PUSH2 0x283 JUMP JUMPDEST PUSH1 0x40 MLOAD PUSH2 0x115 SWAP2 SWAP1 PUSH2 0x7AD JUMP JUMPDEST PUSH1 0x40 MLOAD DUP1 SWAP2 SUB SWAP1 RETURN JUMPDEST PUSH2 0x138 PUSH1 0x4 DUP1 CALLDATASIZE SUB DUP2 ADD SWAP1 PUSH2 0x133 SWAP2 SWAP1 PUSH2 0x7C8 JUMP JUMPDEST PUSH2 0x2B3 JUMP JUMPDEST PUSH1 0x40 MLOAD PUSH2 0x145 SWAP2 SWAP1 PUSH2 0x7AD JUMP JUMPDEST PUSH1 0x40 MLOAD DUP1 SWAP2 SUB SWAP1 RETURN JUMPDEST PUSH1 0x0 DUP1 PUSH2 0x15A DUP5 PUSH2 0x283 JUMP JUMPDEST SWAP1 POP PUSH1 0x0 PUSH2 0x167 DUP3 PUSH2 0x2B3 JUMP JUMPDEST SWAP1 POP DUP6 PUSH20 0xFFFFFFFFFFFFFFFFFFFFFFFFFFFFFFFFFFFFFFFF AND PUSH2 0x18A DUP3 DUP7 PUSH2 0x1AC JUMP JUMPDEST PUSH20 0xFFFFFFFFFFFFFFFFFFFFFFFFFFFFFFFFFFFFFFFF AND EQ SWAP3 POP POP POP SWAP4 SWAP3 POP POP POP JUMP JUMPDEST PUSH1 0x0 DUP1 PUSH1 0x0 DUP1 PUSH2 0x1BB DUP6 PUSH2 0x21B JUMP JUMPDEST SWAP3 POP SWAP3 POP SWAP3 POP PUSH1 0x1 DUP7 DUP3 DUP6 DUP6 PUSH1 0x40 MLOAD PUSH1 0x0 DUP2 MSTORE PUSH1 0x20 ADD PUSH1 0x40 MSTORE PUSH1 0x40 MLOAD PUSH2 0x1E4 SWAP5 SWAP4 SWAP3 SWAP2 SWAP1 PUSH2 0x7F5 JUMP JUMPDEST PUSH1 0x20 PUSH1 0x40 MLOAD PUSH1 0x20 DUP2 SUB SWAP1 DUP1 DUP5 SUB SWAP1 DUP6 GAS STATICCALL ISZERO DUP1 ISZERO PUSH2 0x206 JUMPI RETURNDATASIZE PUSH1 0x0 DUP1 RETURNDATACOPY RETURNDATASIZE PUSH1 0x0 REVERT JUMPDEST POP POP POP PUSH1 0x20 PUSH1 0x40 MLOAD SUB MLOAD SWAP4 POP POP POP POP SWAP3 SWAP2 POP POP JUMP JUMPDEST PUSH1 0x0 DUP1 PUSH1 0x0 PUSH1 0x41 DUP5 MLOAD EQ PUSH2 0x264 JUMPI PUSH1 0x40 MLOAD PUSH32 0x8C379A000000000000000000000000000000000000000000000000000000000 DUP2 MSTORE PUSH1 0x4 ADD PUSH2 0x25B SWAP1 PUSH2 0x897 JUMP JUMPDEST PUSH1 0x40 MLOAD DUP1 SWAP2 SUB SWAP1 REVERT JUMPDEST PUSH1 0x20 DUP5 ADD MLOAD SWAP3 POP PUSH1 0x40 DUP5 ADD MLOAD SWAP2 POP PUSH1 0x60 DUP5 ADD MLOAD PUSH1 0x0 BYTE SWAP1 POP SWAP2 SWAP4 SWAP1 SWAP3 POP JUMP JUMPDEST PUSH1 0x0 DUP2 PUSH1 0x40 MLOAD PUSH1 0x20 ADD PUSH2 0x296 SWAP2 SWAP1 PUSH2 0x928 JUMP JUMPDEST PUSH1 0x40 MLOAD PUSH1 0x20 DUP2 DUP4 SUB SUB DUP2 MSTORE SWAP1 PUSH1 0x40 MSTORE DUP1 MLOAD SWAP1 PUSH1 0x20 ADD KECCAK256 SWAP1 POP SWAP2 SWAP1 POP JUMP JUMPDEST PUSH1 0x0 DUP2 PUSH1 0x40 MLOAD PUSH1 0x20 ADD PUSH2 0x2C6 SWAP2 SWAP1 PUSH2 0x9AC JUMP JUMPDEST PUSH1 0x40 MLOAD PUSH1 0x20 DUP2 DUP4 SUB SUB DUP2 MSTORE SWAP1 PUSH1 0x40 MSTORE DUP1 MLOAD SWAP1 PUSH1 0x20 ADD KECCAK256 SWAP1 POP SWAP2 SWAP1 POP JUMP JUMPDEST PUSH1 0x0 PUSH1 0x40 MLOAD SWAP1 POP SWAP1 JUMP JUMPDEST PUSH1 0x0 DUP1 REVERT JUMPDEST PUSH1 0x0 DUP1 REVERT JUMPDEST PUSH1 0x0 PUSH20 0xFFFFFFFFFFFFFFFFFFFFFFFFFFFFFFFFFFFFFFFF DUP3 AND SWAP1 POP SWAP2 SWAP1 POP JUMP JUMPDEST PUSH1 0x0 PUSH2 0x322 DUP3 PUSH2 0x2F7 JUMP JUMPDEST SWAP1 POP SWAP2 SWAP1 POP JUMP JUMPDEST PUSH2 0x332 DUP2 PUSH2 0x317 JUMP JUMPDEST DUP2 EQ PUSH2 0x33D JUMPI PUSH1 0x0 DUP1 REVERT JUMPDEST POP JUMP JUMPDEST PUSH1 0x0 DUP2 CALLDATALOAD SWAP1 POP PUSH2 0x34F DUP2 PUSH2 0x329 JUMP JUMPDEST SWAP3 SWAP2 POP POP JUMP JUMPDEST PUSH1 0x0 DUP1 REVERT JUMPDEST PUSH1 0x0 DUP1 REVERT JUMPDEST PUSH1 0x0 PUSH1 0x1F NOT PUSH1 0x1F DUP4 ADD AND SWAP1 POP SWAP2 SWAP1 POP JUMP JUMPDEST PUSH32 0x4E487B7100000000000000000000000000000000000000000000000000000000 PUSH1 0x0 MSTORE PUSH1 0x41 PUSH1 0x4 MSTORE PUSH1 0x24 PUSH1 0x0 REVERT JUMPDEST PUSH2 0x3A8 DUP3 PUSH2 0x35F JUMP JUMPDEST DUP2 ADD DUP2 DUP2 LT PUSH8 0xFFFFFFFFFFFFFFFF DUP3 GT OR ISZERO PUSH2 0x3C7 JUMPI PUSH2 0x3C6 PUSH2 0x370 JUMP JUMPDEST JUMPDEST DUP1 PUSH1 0x40 MSTORE POP POP POP JUMP JUMPDEST PUSH1 0x0 PUSH2 0x3DA PUSH2 0x2E3 JUMP JUMPDEST SWAP1 POP PUSH2 0x3E6 DUP3 DUP3 PUSH2 0x39F JUMP JUMPDEST SWAP2 SWAP1 POP JUMP JUMPDEST PUSH1 0x0 PUSH8 0xFFFFFFFFFFFFFFFF DUP3 GT ISZERO PUSH2 0x406 JUMPI PUSH2 0x405 PUSH2 0x370 JUMP JUMPDEST JUMPDEST PUSH2 0x40F DUP3 PUSH2 0x35F JUMP JUMPDEST SWAP1 POP PUSH1 0x20 DUP2 ADD SWAP1 POP SWAP2 SWAP1 POP JUMP JUMPDEST DUP3 DUP2 DUP4 CALLDATACOPY PUSH1 0x0 DUP4 DUP4 ADD MSTORE POP POP POP JUMP JUMPDEST PUSH1 0x0 PUSH2 0x43E PUSH2 0x439 DUP5 PUSH2 0x3EB JUMP JUMPDEST PUSH2 0x3D0 JUMP JUMPDEST SWAP1 POP DUP3 DUP2 MSTORE PUSH1 0x20 DUP2 ADD DUP5 DUP5 DUP5 ADD GT ISZERO PUSH2 0x45A JUMPI PUSH2 0x459 PUSH2 0x35A JUMP JUMPDEST JUMPDEST PUSH2 0x465 DUP5 DUP3 DUP6 PUSH2 0x41C JUMP JUMPDEST POP SWAP4 SWAP3 POP POP POP JUMP JUMPDEST PUSH1 0x0 DUP3 PUSH1 0x1F DUP4 ADD SLT PUSH2 0x482 JUMPI PUSH2 0x481 PUSH2 0x355 JUMP JUMPDEST JUMPDEST DUP2 CALLDATALOAD PUSH2 0x492 DUP5 DUP3 PUSH1 0x20 DUP7 ADD PUSH2 0x42B JUMP JUMPDEST SWAP2 POP POP SWAP3 SWAP2 POP POP JUMP JUMPDEST PUSH1 0x0 PUSH8 0xFFFFFFFFFFFFFFFF DUP3 GT ISZERO PUSH2 0x4B6 JUMPI PUSH2 0x4B5 PUSH2 0x370 JUMP JUMPDEST JUMPDEST PUSH2 0x4BF DUP3 PUSH2 0x35F JUMP JUMPDEST SWAP1 POP PUSH1 0x20 DUP2 ADD SWAP1 POP SWAP2 SWAP1 POP JUMP JUMPDEST PUSH1 0x0 PUSH2 0x4DF PUSH2 0x4DA DUP5 PUSH2 0x49B JUMP JUMPDEST PUSH2 0x3D0 JUMP JUMPDEST SWAP1 POP DUP3 DUP2 MSTORE PUSH1 0x20 DUP2 ADD DUP5 DUP5 DUP5 ADD GT ISZERO PUSH2 0x4FB JUMPI PUSH2 0x4FA PUSH2 0x35A JUMP JUMPDEST JUMPDEST PUSH2 0x506 DUP5 DUP3 DUP6 PUSH2 0x41C JUMP JUMPDEST POP SWAP4 SWAP3 POP POP POP JUMP JUMPDEST PUSH1 0x0 DUP3 PUSH1 0x1F DUP4 ADD SLT PUSH2 0x523 JUMPI PUSH2 0x522 PUSH2 0x355 JUMP JUMPDEST JUMPDEST DUP2 CALLDATALOAD PUSH2 0x533 DUP5 DUP3 PUSH1 0x20 DUP7 ADD PUSH2 0x4CC JUMP JUMPDEST SWAP2 POP POP SWAP3 SWAP2 POP POP JUMP JUMPDEST PUSH1 0x0 DUP1 PUSH1 0x0 PUSH1 0x60 DUP5 DUP7 SUB SLT ISZERO PUSH2 0x555 JUMPI PUSH2 0x554 PUSH2 0x2ED JUMP JUMPDEST JUMPDEST PUSH1 0x0 PUSH2 0x563 DUP7 DUP3 DUP8 ADD PUSH2 0x340 JUMP JUMPDEST SWAP4 POP POP PUSH1 0x20 DUP5 ADD CALLDATALOAD PUSH8 0xFFFFFFFFFFFFFFFF DUP2 GT ISZERO PUSH2 0x584 JUMPI PUSH2 0x583 PUSH2 0x2F2 JUMP JUMPDEST JUMPDEST PUSH2 0x590 DUP7 DUP3 DUP8 ADD PUSH2 0x46D JUMP JUMPDEST SWAP3 POP POP PUSH1 0x40 DUP5 ADD CALLDATALOAD PUSH8 0xFFFFFFFFFFFFFFFF DUP2 GT ISZERO PUSH2 0x5B1 JUMPI PUSH2 0x5B0 PUSH2 0x2F2 JUMP JUMPDEST JUMPDEST PUSH2 0x5BD DUP7 DUP3 DUP8 ADD PUSH2 0x50E JUMP JUMPDEST SWAP2 POP POP SWAP3 POP SWAP3 POP SWAP3 JUMP JUMPDEST PUSH1 0x0 DUP2 ISZERO ISZERO SWAP1 POP SWAP2 SWAP1 POP JUMP JUMPDEST PUSH2 0x5DC DUP2 PUSH2 0x5C7 JUMP JUMPDEST DUP3 MSTORE POP POP JUMP JUMPDEST PUSH1 0x0 PUSH1 0x20 DUP3 ADD SWAP1 POP PUSH2 0x5F7 PUSH1 0x0 DUP4 ADD DUP5 PUSH2 0x5D3 JUMP JUMPDEST SWAP3 SWAP2 POP POP JUMP JUMPDEST PUSH1 0x0 DUP2 SWAP1 POP SWAP2 SWAP1 POP JUMP JUMPDEST PUSH2 0x610 DUP2 PUSH2 0x5FD JUMP JUMPDEST DUP2 EQ PUSH2 0x61B JUMPI PUSH1 0x0 DUP1 REVERT JUMPDEST POP JUMP JUMPDEST PUSH1 0x0 DUP2 CALLDATALOAD SWAP1 POP PUSH2 0x62D DUP2 PUSH2 0x607 JUMP JUMPDEST SWAP3 SWAP2 POP POP JUMP JUMPDEST PUSH1 0x0 DUP1 PUSH1 0x40 DUP4 DUP6 SUB SLT ISZERO PUSH2 0x64A JUMPI PUSH2 0x649 PUSH2 0x2ED JUMP JUMPDEST JUMPDEST PUSH1 0x0 PUSH2 0x658 DUP6 DUP3 DUP7 ADD PUSH2 0x61E JUMP JUMPDEST SWAP3 POP POP PUSH1 0x20 DUP4 ADD CALLDATALOAD PUSH8 0xFFFFFFFFFFFFFFFF DUP2 GT ISZERO PUSH2 0x679 JUMPI PUSH2 0x678 PUSH2 0x2F2 JUMP JUMPDEST JUMPDEST PUSH2 0x685 DUP6 DUP3 DUP7 ADD PUSH2 0x50E JUMP JUMPDEST SWAP2 POP POP SWAP3 POP SWAP3 SWAP1 POP JUMP JUMPDEST PUSH2 0x698 DUP2 PUSH2 0x317 JUMP JUMPDEST DUP3 MSTORE POP POP JUMP JUMPDEST PUSH1 0x0 PUSH1 0x20 DUP3 ADD SWAP1 POP PUSH2 0x6B3 PUSH1 0x0 DUP4 ADD DUP5 PUSH2 0x68F JUMP JUMPDEST SWAP3 SWAP2 POP POP JUMP JUMPDEST PUSH1 0x0 PUSH1 0x20 DUP3 DUP5 SUB SLT ISZERO PUSH2 0x6CF JUMPI PUSH2 0x6CE PUSH2 0x2ED JUMP JUMPDEST JUMPDEST PUSH1 0x0 DUP3 ADD CALLDATALOAD PUSH8 0xFFFFFFFFFFFFFFFF DUP2 GT ISZERO PUSH2 0x6ED JUMPI PUSH2 0x6EC PUSH2 0x2F2 JUMP JUMPDEST JUMPDEST PUSH2 0x6F9 DUP5 DUP3 DUP6 ADD PUSH2 0x50E JUMP JUMPDEST SWAP2 POP POP SWAP3 SWAP2 POP POP JUMP JUMPDEST PUSH2 0x70B DUP2 PUSH2 0x5FD JUMP JUMPDEST DUP3 MSTORE POP POP JUMP JUMPDEST PUSH1 0x0 PUSH1 0xFF DUP3 AND SWAP1 POP SWAP2 SWAP1 POP JUMP JUMPDEST PUSH2 0x727 DUP2 PUSH2 0x711 JUMP JUMPDEST DUP3 MSTORE POP POP JUMP JUMPDEST PUSH1 0x0 PUSH1 0x60 DUP3 ADD SWAP1 POP PUSH2 0x742 PUSH1 0x0 DUP4 ADD DUP7 PUSH2 0x702 JUMP JUMPDEST PUSH2 0x74F PUSH1 0x20 DUP4 ADD DUP6 PUSH2 0x702 JUMP JUMPDEST PUSH2 0x75C PUSH1 0x40 DUP4 ADD DUP5 PUSH2 0x71E JUMP JUMPDEST SWAP5 SWAP4 POP POP POP POP JUMP JUMPDEST PUSH1 0x0 PUSH1 0x20 DUP3 DUP5 SUB SLT ISZERO PUSH2 0x77A JUMPI PUSH2 0x779 PUSH2 0x2ED JUMP JUMPDEST JUMPDEST PUSH1 0x0 DUP3 ADD CALLDATALOAD PUSH8 0xFFFFFFFFFFFFFFFF DUP2 GT ISZERO PUSH2 0x798 JUMPI PUSH2 0x797 PUSH2 0x2F2 JUMP JUMPDEST JUMPDEST PUSH2 0x7A4 DUP5 DUP3 DUP6 ADD PUSH2 0x46D JUMP JUMPDEST SWAP2 POP POP SWAP3 SWAP2 POP POP JUMP JUMPDEST PUSH1 0x0 PUSH1 0x20 DUP3 ADD SWAP1 POP PUSH2 0x7C2 PUSH1 0x0 DUP4 ADD DUP5 PUSH2 0x702 JUMP JUMPDEST SWAP3 SWAP2 POP POP JUMP JUMPDEST PUSH1 0x0 PUSH1 0x20 DUP3 DUP5 SUB SLT ISZERO PUSH2 0x7DE JUMPI PUSH2 0x7DD PUSH2 0x2ED JUMP JUMPDEST JUMPDEST PUSH1 0x0 PUSH2 0x7EC DUP5 DUP3 DUP6 ADD PUSH2 0x61E JUMP JUMPDEST SWAP2 POP POP SWAP3 SWAP2 POP POP JUMP JUMPDEST PUSH1 0x0 PUSH1 0x80 DUP3 ADD SWAP1 POP PUSH2 0x80A PUSH1 0x0 DUP4 ADD DUP8 PUSH2 0x702 JUMP JUMPDEST PUSH2 0x817 PUSH1 0x20 DUP4 ADD DUP7 PUSH2 0x71E JUMP JUMPDEST PUSH2 0x824 PUSH1 0x40 DUP4 ADD DUP6 PUSH2 0x702 JUMP JUMPDEST PUSH2 0x831 PUSH1 0x60 DUP4 ADD DUP5 PUSH2 0x702 JUMP JUMPDEST SWAP6 SWAP5 POP POP POP POP POP JUMP JUMPDEST PUSH1 0x0 DUP3 DUP3 MSTORE PUSH1 0x20 DUP3 ADD SWAP1 POP SWAP3 SWAP2 POP POP JUMP JUMPDEST PUSH32 0x696E76616C6964207369676E6174757265206C656E6774680000000000000000 PUSH1 0x0 DUP3 ADD MSTORE POP JUMP JUMPDEST PUSH1 0x0 PUSH2 0x881 PUSH1 0x18 DUP4 PUSH2 0x83A JUMP JUMPDEST SWAP2 POP PUSH2 0x88C DUP3 PUSH2 0x84B JUMP JUMPDEST PUSH1 0x20 DUP3 ADD SWAP1 POP SWAP2 SWAP1 POP JUMP JUMPDEST PUSH1 0x0 PUSH1 0x20 DUP3 ADD SWAP1 POP DUP2 DUP2 SUB PUSH1 0x0 DUP4 ADD MSTORE PUSH2 0x8B0 DUP2 PUSH2 0x874 JUMP JUMPDEST SWAP1 POP SWAP2 SWAP1 POP JUMP JUMPDEST PUSH1 0x0 DUP2 MLOAD SWAP1 POP SWAP2 SWAP1 POP JUMP JUMPDEST PUSH1 0x0 DUP2 SWAP1 POP SWAP3 SWAP2 POP POP JUMP JUMPDEST PUSH1 0x0 JUMPDEST DUP4 DUP2 LT ISZERO PUSH2 0x8EB JUMPI DUP1 DUP3 ADD MLOAD DUP2 DUP5 ADD MSTORE PUSH1 0x20 DUP2 ADD SWAP1 POP PUSH2 0x8D0 JUMP JUMPDEST PUSH1 0x0 DUP5 DUP5 ADD MSTORE POP POP POP POP JUMP JUMPDEST PUSH1 0x0 PUSH2 0x902 DUP3 PUSH2 0x8B7 JUMP JUMPDEST PUSH2 0x90C DUP2 DUP6 PUSH2 0x8C2 JUMP JUMPDEST SWAP4 POP PUSH2 0x91C DUP2 DUP6 PUSH1 0x20 DUP7 ADD PUSH2 0x8CD JUMP JUMPDEST DUP1 DUP5 ADD SWAP2 POP POP SWAP3 SWAP2 POP POP JUMP JUMPDEST PUSH1 0x0 PUSH2 0x934 DUP3 DUP5 PUSH2 0x8F7 JUMP JUMPDEST SWAP2 POP DUP2 SWAP1 POP SWAP3 SWAP2 POP POP JUMP JUMPDEST PUSH32 0x19457468657265756D205369676E6564204D6573736167653A0A333200000000 PUSH1 0x0 DUP3 ADD MSTORE POP JUMP JUMPDEST PUSH1 0x0 PUSH2 0x975 PUSH1 0x1C DUP4 PUSH2 0x8C2 JUMP JUMPDEST SWAP2 POP PUSH2 0x980 DUP3 PUSH2 0x93F JUMP JUMPDEST PUSH1 0x1C DUP3 ADD SWAP1 POP SWAP2 SWAP1 POP JUMP JUMPDEST PUSH1 0x0 DUP2 SWAP1 POP SWAP2 SWAP1 POP JUMP JUMPDEST PUSH2 0x9A6 PUSH2 0x9A1 DUP3 PUSH2 0x5FD JUMP JUMPDEST PUSH2 0x98B JUMP JUMPDEST DUP3 MSTORE POP POP JUMP JUMPDEST PUSH1 0x0 PUSH2 0x9B7 DUP3 PUSH2 0x968 JUMP JUMPDEST SWAP2 POP PUSH2 0x9C3 DUP3 DUP5 PUSH2 0x995 JUMP JUMPDEST PUSH1 0x20 DUP3 ADD SWAP2 POP DUP2 SWAP1 POP SWAP3 SWAP2 POP POP JUMP INVALID LOG2 PUSH5 0x6970667358 0x22 SLT KECCAK256 DUP5 SAR GASPRICE DUP4 0x1F 0x28 0xFC SIGNEXTEND ADDMOD 0x5E 0xA8 SWAP13 PUSH2 0xC921 0xEF 0xAC MSTORE8 LOG0 DUP12 0xD4 0x4D SWAP6 GASPRICE 0xEE 0x2B CALLER INVALID 0x25 0xD5 0xD3 0x5E PUSH5 0x736F6C6343 STOP ADDMOD GT STOP CALLER "
				},
				"gasEstimates": {
					"creation": {
						"codeDepositCost": "513600",
						"executionCost": "549",
						"totalCost": "514149"
					},
					"external": {
						"getEthSignedMessageHash(bytes32)": "infinite",
						"getMessageHash(string)": "infinite",
						"recoverSigner(bytes32,bytes)": "infinite",
						"splitSignature(bytes)": "infinite",
						"verify(address,string,bytes)": "infinite"
					}
				},
				"methodIdentifiers": {
					"getEthSignedMessageHash(bytes32)": "fa540801",
					"getMessageHash(string)": "b446f3b2",
					"recoverSigner(bytes32,bytes)": "97aba7f9",
					"splitSignature(bytes)": "a7bb5803",
					"verify(address,string,bytes)": "2dd34f0f"
				}
			},
			"storageLayout": {
				"storage": [],
				"types": null
			},
			"userdoc": {
				"kind": "user",
				"methods": {},
				"version": 1
			}
		}
	}
}