{
	"contract-442812f524.sol": {
		"Verify": {
			"abi": [
				{
					"inputs": [],
					"stateMutability": "nonpayable",
					"type": "constructor"
				},
				{
					"inputs": [],
					"name": "importantAddress",
					"outputs": [
						{
							"internalType": "address",
							"name": "",
							"type": "address"
						}
					],
					"stateMutability": "view",
					"type": "function"
				},
				{
					"inputs": [
						{
							"internalType": "string",
							"name": "_word",
							"type": "string"
						},
						{
							"internalType": "bytes",
							"name": "sig",
							"type": "bytes"
						}
					],
					"name": "isValidData",
					"outputs": [
						{
							"internalType": "bool",
							"name": "",
							"type": "bool"
						}
					],
					"stateMutability": "view",
					"type": "function"
				},
				{
					"inputs": [
						{
							"internalType": "bytes32",
							"name": "_word",
							"type": "bytes32"
						},
						{
							"internalType": "bytes",
							"name": "sig",
							"type": "bytes"
						}
					],
					"name": "isValidData2",
					"outputs": [
						{
							"internalType": "bool",
							"name": "",
							"type": "bool"
						}
					],
					"stateMutability": "view",
					"type": "function"
				},
				{
					"inputs": [],
					"name": "messg",
					"outputs": [
						{
							"internalType": "bytes32",
							"name": "",
							"type": "bytes32"
						}
					],
					"stateMutability": "view",
					"type": "function"
				},
				{
					"inputs": [
						{
							"internalType": "string",
							"name": "_w",
							"type": "string"
						}
					],
					"name": "msgR",
					"outputs": [
						{
							"internalType": "bytes32",
							"name": "",
							"type": "bytes32"
						}
					],
					"stateMutability": "nonpayable",
					"type": "function"
				},
				{
					"inputs": [
						{
							"internalType": "bytes32",
							"name": "message",
							"type": "bytes32"
						},
						{
							"internalType": "bytes",
							"name": "sig",
							"type": "bytes"
						}
					],
					"name": "recoverSigner",
					"outputs": [
						{
							"internalType": "address",
							"name": "",
							"type": "address"
						}
					],
					"stateMutability": "pure",
					"type": "function"
				},
				{
					"inputs": [
						{
							"internalType": "bytes",
							"name": "sig",
							"type": "bytes"
						}
					],
					"name": "splitSignature",
					"outputs": [
						{
							"internalType": "uint8",
							"name": "",
							"type": "uint8"
						},
						{
							"internalType": "bytes32",
							"name": "",
							"type": "bytes32"
						},
						{
							"internalType": "bytes32",
							"name": "",
							"type": "bytes32"
						}
					],
					"stateMutability": "pure",
					"type": "function"
				}
			],
			"devdoc": {
				"kind": "dev",
				"methods": {},
				"version": 1
			},
			"evm": {
				"assembly": "    /* \"contract-442812f524.sol\":57:1683  contract Verify {... */\n  mstore(0x40, 0x80)\n    /* \"contract-442812f524.sol\":143:234  constructor () {... */\n  callvalue\n  dup1\n  iszero\n  tag_1\n  jumpi\n  0x00\n  dup1\n  revert\ntag_1:\n  pop\n    /* \"contract-442812f524.sol\":186:228  0xC109f6944e282d0C02742115EA0343a9a85eEA6f */\n  0xc109f6944e282d0c02742115ea0343a9a85eea6f\n    /* \"contract-442812f524.sol\":167:183  importantAddress */\n  0x00\n  dup1\n    /* \"contract-442812f524.sol\":167:228  importantAddress = 0xC109f6944e282d0C02742115EA0343a9a85eEA6f */\n  0x0100\n  exp\n  dup2\n  sload\n  dup2\n  0xffffffffffffffffffffffffffffffffffffffff\n  mul\n  not\n  and\n  swap1\n  dup4\n  0xffffffffffffffffffffffffffffffffffffffff\n  and\n  mul\n  or\n  swap1\n  sstore\n  pop\n    /* \"contract-442812f524.sol\":57:1683  contract Verify {... */\n  dataSize(sub_0)\n  dup1\n  dataOffset(sub_0)\n  0x00\n  codecopy\n  0x00\n  return\nstop\n\nsub_0: assembly {\n        /* \"contract-442812f524.sol\":57:1683  contract Verify {... */\n      mstore(0x40, 0x80)\n      callvalue\n      dup1\n      iszero\n      tag_1\n      jumpi\n      0x00\n      dup1\n      revert\n    tag_1:\n      pop\n      jumpi(tag_2, lt(calldatasize, 0x04))\n      shr(0xe0, calldataload(0x00))\n      dup1\n      0x97aba7f9\n      gt\n      tag_10\n      jumpi\n      dup1\n      0x97aba7f9\n      eq\n      tag_6\n      jumpi\n      dup1\n      0xa7bb5803\n      eq\n      tag_7\n      jumpi\n      dup1\n      0xadb41f75\n      eq\n      tag_8\n      jumpi\n      dup1\n      0xb4604750\n      eq\n      tag_9\n      jumpi\n      jump(tag_2)\n    tag_10:\n      dup1\n      0x1398b444\n      eq\n      tag_3\n      jumpi\n      dup1\n      0x71524b93\n      eq\n      tag_4\n      jumpi\n      dup1\n      0x8dabc6a9\n      eq\n      tag_5\n      jumpi\n    tag_2:\n      0x00\n      dup1\n      revert\n        /* \"contract-442812f524.sol\":80:111  address public importantAddress */\n    tag_3:\n      tag_11\n      tag_12\n      jump\t// in\n    tag_11:\n      mload(0x40)\n      tag_13\n      swap2\n      swap1\n      tag_14\n      jump\t// in\n    tag_13:\n      mload(0x40)\n      dup1\n      swap2\n      sub\n      swap1\n      return\n        /* \"contract-442812f524.sol\":117:137  bytes32 public messg */\n    tag_4:\n      tag_15\n      tag_16\n      jump\t// in\n    tag_15:\n      mload(0x40)\n      tag_17\n      swap2\n      swap1\n      tag_18\n      jump\t// in\n    tag_17:\n      mload(0x40)\n      dup1\n      swap2\n      sub\n      swap1\n      return\n        /* \"contract-442812f524.sol\":540:755  function isValidData2( bytes32  _word, bytes memory sig) public view returns(bool){... */\n    tag_5:\n      tag_19\n      0x04\n      dup1\n      calldatasize\n      sub\n      dup2\n      add\n      swap1\n      tag_20\n      swap2\n      swap1\n      tag_21\n      jump\t// in\n    tag_20:\n      tag_22\n      jump\t// in\n    tag_19:\n      mload(0x40)\n      tag_23\n      swap2\n      swap1\n      tag_24\n      jump\t// in\n    tag_23:\n      mload(0x40)\n      dup1\n      swap2\n      sub\n      swap1\n      return\n        /* \"contract-442812f524.sol\":899:1154  function recoverSigner(bytes32 message, bytes memory sig)... */\n    tag_6:\n      tag_25\n      0x04\n      dup1\n      calldatasize\n      sub\n      dup2\n      add\n      swap1\n      tag_26\n      swap2\n      swap1\n      tag_21\n      jump\t// in\n    tag_26:\n      tag_27\n      jump\t// in\n    tag_25:\n      mload(0x40)\n      tag_28\n      swap2\n      swap1\n      tag_14\n      jump\t// in\n    tag_28:\n      mload(0x40)\n      dup1\n      swap2\n      sub\n      swap1\n      return\n        /* \"contract-442812f524.sol\":1159:1681  function splitSignature(bytes memory sig)... */\n    tag_7:\n      tag_29\n      0x04\n      dup1\n      calldatasize\n      sub\n      dup2\n      add\n      swap1\n      tag_30\n      swap2\n      swap1\n      tag_31\n      jump\t// in\n    tag_30:\n      tag_32\n      jump\t// in\n    tag_29:\n      mload(0x40)\n      tag_33\n      swap4\n      swap3\n      swap2\n      swap1\n      tag_34\n      jump\t// in\n    tag_33:\n      mload(0x40)\n      dup1\n      swap2\n      sub\n      swap1\n      return\n        /* \"contract-442812f524.sol\":241:538  function isValidData( string memory _word, bytes memory sig) public view returns(bool){... */\n    tag_8:\n      tag_35\n      0x04\n      dup1\n      calldatasize\n      sub\n      dup2\n      add\n      swap1\n      tag_36\n      swap2\n      swap1\n      tag_37\n      jump\t// in\n    tag_36:\n      tag_38\n      jump\t// in\n    tag_35:\n      mload(0x40)\n      tag_39\n      swap2\n      swap1\n      tag_24\n      jump\t// in\n    tag_39:\n      mload(0x40)\n      dup1\n      swap2\n      sub\n      swap1\n      return\n        /* \"contract-442812f524.sol\":760:894  function msgR(string memory _w)public returns(bytes32){... */\n    tag_9:\n      tag_40\n      0x04\n      dup1\n      calldatasize\n      sub\n      dup2\n      add\n      swap1\n      tag_41\n      swap2\n      swap1\n      tag_42\n      jump\t// in\n    tag_41:\n      tag_43\n      jump\t// in\n    tag_40:\n      mload(0x40)\n      tag_44\n      swap2\n      swap1\n      tag_18\n      jump\t// in\n    tag_44:\n      mload(0x40)\n      dup1\n      swap2\n      sub\n      swap1\n      return\n        /* \"contract-442812f524.sol\":80:111  address public importantAddress */\n    tag_12:\n      0x00\n      dup1\n      sload\n      swap1\n      0x0100\n      exp\n      swap1\n      div\n      0xffffffffffffffffffffffffffffffffffffffff\n      and\n      dup2\n      jump\t// out\n        /* \"contract-442812f524.sol\":117:137  bytes32 public messg */\n    tag_16:\n      sload(0x01)\n      dup2\n      jump\t// out\n        /* \"contract-442812f524.sol\":540:755  function isValidData2( bytes32  _word, bytes memory sig) public view returns(bool){... */\n    tag_22:\n        /* \"contract-442812f524.sol\":617:621  bool */\n      0x00\n        /* \"contract-442812f524.sol\":732:748  importantAddress */\n      dup1\n      0x00\n      swap1\n      sload\n      swap1\n      0x0100\n      exp\n      swap1\n      div\n      0xffffffffffffffffffffffffffffffffffffffff\n      and\n        /* \"contract-442812f524.sol\":703:748  recoverSigner(_word, sig) == importantAddress */\n      0xffffffffffffffffffffffffffffffffffffffff\n      and\n        /* \"contract-442812f524.sol\":703:728  recoverSigner(_word, sig) */\n      tag_46\n        /* \"contract-442812f524.sol\":717:722  _word */\n      dup5\n        /* \"contract-442812f524.sol\":724:727  sig */\n      dup5\n        /* \"contract-442812f524.sol\":703:716  recoverSigner */\n      tag_27\n        /* \"contract-442812f524.sol\":703:728  recoverSigner(_word, sig) */\n      jump\t// in\n    tag_46:\n        /* \"contract-442812f524.sol\":703:748  recoverSigner(_word, sig) == importantAddress */\n      0xffffffffffffffffffffffffffffffffffffffff\n      and\n      eq\n        /* \"contract-442812f524.sol\":695:749  return (recoverSigner(_word, sig) == importantAddress) */\n      swap1\n      pop\n        /* \"contract-442812f524.sol\":540:755  function isValidData2( bytes32  _word, bytes memory sig) public view returns(bool){... */\n      swap3\n      swap2\n      pop\n      pop\n      jump\t// out\n        /* \"contract-442812f524.sol\":899:1154  function recoverSigner(bytes32 message, bytes memory sig)... */\n    tag_27:\n        /* \"contract-442812f524.sol\":999:1006  address */\n      0x00\n        /* \"contract-442812f524.sol\":1022:1029  uint8 v */\n      dup1\n        /* \"contract-442812f524.sol\":1038:1047  bytes32 r */\n      0x00\n        /* \"contract-442812f524.sol\":1056:1065  bytes32 s */\n      dup1\n        /* \"contract-442812f524.sol\":1086:1105  splitSignature(sig) */\n      tag_48\n        /* \"contract-442812f524.sol\":1101:1104  sig */\n      dup6\n        /* \"contract-442812f524.sol\":1086:1100  splitSignature */\n      tag_32\n        /* \"contract-442812f524.sol\":1086:1105  splitSignature(sig) */\n      jump\t// in\n    tag_48:\n        /* \"contract-442812f524.sol\":1074:1105  (v, r, s) = splitSignature(sig) */\n      dup1\n      swap4\n      pop\n      dup2\n      swap5\n      pop\n      dup3\n      swap6\n      pop\n      pop\n      pop\n      pop\n        /* \"contract-442812f524.sol\":1121:1148  ecrecover(message, v, r, s) */\n      0x01\n        /* \"contract-442812f524.sol\":1131:1138  message */\n      dup7\n        /* \"contract-442812f524.sol\":1140:1141  v */\n      dup5\n        /* \"contract-442812f524.sol\":1143:1144  r */\n      dup5\n        /* \"contract-442812f524.sol\":1146:1147  s */\n      dup5\n        /* \"contract-442812f524.sol\":1121:1148  ecrecover(message, v, r, s) */\n      mload(0x40)\n      0x00\n      dup2\n      mstore\n      0x20\n      add\n      0x40\n      mstore\n      mload(0x40)\n      tag_49\n      swap5\n      swap4\n      swap3\n      swap2\n      swap1\n      tag_50\n      jump\t// in\n    tag_49:\n      0x20\n      mload(0x40)\n      0x20\n      dup2\n      sub\n      swap1\n      dup1\n      dup5\n      sub\n      swap1\n      dup6\n      gas\n      staticcall\n      iszero\n      dup1\n      iszero\n      tag_52\n      jumpi\n      returndatasize\n      0x00\n      dup1\n      returndatacopy\n      revert(0x00, returndatasize)\n    tag_52:\n      pop\n      pop\n      pop\n      mload(sub(mload(0x40), 0x20))\n        /* \"contract-442812f524.sol\":1114:1148  return ecrecover(message, v, r, s) */\n      swap4\n      pop\n      pop\n      pop\n      pop\n        /* \"contract-442812f524.sol\":899:1154  function recoverSigner(bytes32 message, bytes memory sig)... */\n      swap3\n      swap2\n      pop\n      pop\n      jump\t// out\n        /* \"contract-442812f524.sol\":1159:1681  function splitSignature(bytes memory sig)... */\n    tag_32:\n        /* \"contract-442812f524.sol\":1243:1248  uint8 */\n      0x00\n        /* \"contract-442812f524.sol\":1250:1257  bytes32 */\n      dup1\n        /* \"contract-442812f524.sol\":1259:1266  bytes32 */\n      0x00\n        /* \"contract-442812f524.sol\":1304:1306  65 */\n      0x41\n        /* \"contract-442812f524.sol\":1290:1293  sig */\n      dup5\n        /* \"contract-442812f524.sol\":1290:1300  sig.length */\n      mload\n        /* \"contract-442812f524.sol\":1290:1306  sig.length == 65 */\n      eq\n        /* \"contract-442812f524.sol\":1282:1307  require(sig.length == 65) */\n      tag_54\n      jumpi\n      0x00\n      dup1\n      revert\n    tag_54:\n        /* \"contract-442812f524.sol\":1317:1326  bytes32 r */\n      0x00\n        /* \"contract-442812f524.sol\":1335:1344  bytes32 s */\n      dup1\n        /* \"contract-442812f524.sol\":1353:1360  uint8 v */\n      0x00\n        /* \"contract-442812f524.sol\":1466:1468  32 */\n      0x20\n        /* \"contract-442812f524.sol\":1461:1464  sig */\n      dup8\n        /* \"contract-442812f524.sol\":1457:1469  add(sig, 32) */\n      add\n        /* \"contract-442812f524.sol\":1451:1470  mload(add(sig, 32)) */\n      mload\n        /* \"contract-442812f524.sol\":1446:1470  r := mload(add(sig, 32)) */\n      swap3\n      pop\n        /* \"contract-442812f524.sol\":1532:1534  64 */\n      0x40\n        /* \"contract-442812f524.sol\":1527:1530  sig */\n      dup8\n        /* \"contract-442812f524.sol\":1523:1535  add(sig, 64) */\n      add\n        /* \"contract-442812f524.sol\":1517:1536  mload(add(sig, 64)) */\n      mload\n        /* \"contract-442812f524.sol\":1512:1536  s := mload(add(sig, 64)) */\n      swap2\n      pop\n        /* \"contract-442812f524.sol\":1635:1637  96 */\n      0x60\n        /* \"contract-442812f524.sol\":1630:1633  sig */\n      dup8\n        /* \"contract-442812f524.sol\":1626:1638  add(sig, 96) */\n      add\n        /* \"contract-442812f524.sol\":1620:1639  mload(add(sig, 96)) */\n      mload\n        /* \"contract-442812f524.sol\":1617:1618  0 */\n      0x00\n        /* \"contract-442812f524.sol\":1612:1640  byte(0, mload(add(sig, 96))) */\n      byte\n        /* \"contract-442812f524.sol\":1607:1640  v := byte(0, mload(add(sig, 96))) */\n      swap1\n      pop\n        /* \"contract-442812f524.sol\":1667:1668  v */\n      dup1\n        /* \"contract-442812f524.sol\":1670:1671  r */\n      dup4\n        /* \"contract-442812f524.sol\":1673:1674  s */\n      dup4\n        /* \"contract-442812f524.sol\":1659:1675  return (v, r, s) */\n      swap6\n      pop\n      swap6\n      pop\n      swap6\n      pop\n      pop\n      pop\n      pop\n        /* \"contract-442812f524.sol\":1159:1681  function splitSignature(bytes memory sig)... */\n      swap2\n      swap4\n      swap1\n      swap3\n      pop\n      jump\t// out\n        /* \"contract-442812f524.sol\":241:538  function isValidData( string memory _word, bytes memory sig) public view returns(bool){... */\n    tag_38:\n        /* \"contract-442812f524.sol\":322:326  bool */\n      0x00\n        /* \"contract-442812f524.sol\":336:351  bytes32 message */\n      dup1\n        /* \"contract-442812f524.sol\":447:452  _word */\n      dup4\n        /* \"contract-442812f524.sol\":394:453  abi.encodePacked( \"\\x19Ethereum Signed Message:\\n32\",_word) */\n      add(0x20, mload(0x40))\n      tag_56\n      swap2\n      swap1\n      tag_57\n      jump\t// in\n    tag_56:\n      mload(0x40)\n      0x20\n      dup2\n      dup4\n      sub\n      sub\n      dup2\n      mstore\n      swap1\n      0x40\n      mstore\n        /* \"contract-442812f524.sol\":367:467  keccak256(... */\n      dup1\n      mload\n      swap1\n      0x20\n      add\n      keccak256\n        /* \"contract-442812f524.sol\":336:467  bytes32 message = ... */\n      swap1\n      pop\n        /* \"contract-442812f524.sol\":515:531  importantAddress */\n      0x00\n      dup1\n      sload\n      swap1\n      0x0100\n      exp\n      swap1\n      div\n      0xffffffffffffffffffffffffffffffffffffffff\n      and\n        /* \"contract-442812f524.sol\":484:531  recoverSigner(message, sig) == importantAddress */\n      0xffffffffffffffffffffffffffffffffffffffff\n      and\n        /* \"contract-442812f524.sol\":484:511  recoverSigner(message, sig) */\n      tag_58\n        /* \"contract-442812f524.sol\":498:505  message */\n      dup3\n        /* \"contract-442812f524.sol\":507:510  sig */\n      dup6\n        /* \"contract-442812f524.sol\":484:497  recoverSigner */\n      tag_27\n        /* \"contract-442812f524.sol\":484:511  recoverSigner(message, sig) */\n      jump\t// in\n    tag_58:\n        /* \"contract-442812f524.sol\":484:531  recoverSigner(message, sig) == importantAddress */\n      0xffffffffffffffffffffffffffffffffffffffff\n      and\n      eq\n        /* \"contract-442812f524.sol\":476:532  return (recoverSigner(message, sig) == importantAddress) */\n      swap2\n      pop\n      pop\n        /* \"contract-442812f524.sol\":241:538  function isValidData( string memory _word, bytes memory sig) public view returns(bool){... */\n      swap3\n      swap2\n      pop\n      pop\n      jump\t// out\n        /* \"contract-442812f524.sol\":760:894  function msgR(string memory _w)public returns(bytes32){... */\n    tag_43:\n        /* \"contract-442812f524.sol\":806:813  bytes32 */\n      0x00\n        /* \"contract-442812f524.sol\":861:863  _w */\n      dup2\n        /* \"contract-442812f524.sol\":843:864  abi.encodePacked( _w) */\n      add(0x20, mload(0x40))\n      tag_60\n      swap2\n      swap1\n      tag_61\n      jump\t// in\n    tag_60:\n      mload(0x40)\n      0x20\n      dup2\n      dup4\n      sub\n      sub\n      dup2\n      mstore\n      swap1\n      0x40\n      mstore\n        /* \"contract-442812f524.sol\":833:865  keccak256(abi.encodePacked( _w)) */\n      dup1\n      mload\n      swap1\n      0x20\n      add\n      keccak256\n        /* \"contract-442812f524.sol\":825:830  messg */\n      0x01\n        /* \"contract-442812f524.sol\":825:865  messg = keccak256(abi.encodePacked( _w)) */\n      dup2\n      swap1\n      sstore\n      pop\n        /* \"contract-442812f524.sol\":882:887  messg */\n      sload(0x01)\n        /* \"contract-442812f524.sol\":875:887  return messg */\n      swap1\n      pop\n        /* \"contract-442812f524.sol\":760:894  function msgR(string memory _w)public returns(bytes32){... */\n      swap2\n      swap1\n      pop\n      jump\t// out\n        /* \"#utility.yul\":7:133   */\n    tag_62:\n        /* \"#utility.yul\":44:51   */\n      0x00\n        /* \"#utility.yul\":84:126   */\n      0xffffffffffffffffffffffffffffffffffffffff\n        /* \"#utility.yul\":77:82   */\n      dup3\n        /* \"#utility.yul\":73:127   */\n      and\n        /* \"#utility.yul\":62:127   */\n      swap1\n      pop\n        /* \"#utility.yul\":7:133   */\n      swap2\n      swap1\n      pop\n      jump\t// out\n        /* \"#utility.yul\":139:235   */\n    tag_63:\n        /* \"#utility.yul\":176:183   */\n      0x00\n        /* \"#utility.yul\":205:229   */\n      tag_98\n        /* \"#utility.yul\":223:228   */\n      dup3\n        /* \"#utility.yul\":205:229   */\n      tag_62\n      jump\t// in\n    tag_98:\n        /* \"#utility.yul\":194:229   */\n      swap1\n      pop\n        /* \"#utility.yul\":139:235   */\n      swap2\n      swap1\n      pop\n      jump\t// out\n        /* \"#utility.yul\":241:359   */\n    tag_64:\n        /* \"#utility.yul\":328:352   */\n      tag_100\n        /* \"#utility.yul\":346:351   */\n      dup2\n        /* \"#utility.yul\":328:352   */\n      tag_63\n      jump\t// in\n    tag_100:\n        /* \"#utility.yul\":323:326   */\n      dup3\n        /* \"#utility.yul\":316:353   */\n      mstore\n        /* \"#utility.yul\":241:359   */\n      pop\n      pop\n      jump\t// out\n        /* \"#utility.yul\":365:587   */\n    tag_14:\n        /* \"#utility.yul\":458:462   */\n      0x00\n        /* \"#utility.yul\":496:498   */\n      0x20\n        /* \"#utility.yul\":485:494   */\n      dup3\n        /* \"#utility.yul\":481:499   */\n      add\n        /* \"#utility.yul\":473:499   */\n      swap1\n      pop\n        /* \"#utility.yul\":509:580   */\n      tag_102\n        /* \"#utility.yul\":577:578   */\n      0x00\n        /* \"#utility.yul\":566:575   */\n      dup4\n        /* \"#utility.yul\":562:579   */\n      add\n        /* \"#utility.yul\":553:559   */\n      dup5\n        /* \"#utility.yul\":509:580   */\n      tag_64\n      jump\t// in\n    tag_102:\n        /* \"#utility.yul\":365:587   */\n      swap3\n      swap2\n      pop\n      pop\n      jump\t// out\n        /* \"#utility.yul\":593:670   */\n    tag_65:\n        /* \"#utility.yul\":630:637   */\n      0x00\n        /* \"#utility.yul\":659:664   */\n      dup2\n        /* \"#utility.yul\":648:664   */\n      swap1\n      pop\n        /* \"#utility.yul\":593:670   */\n      swap2\n      swap1\n      pop\n      jump\t// out\n        /* \"#utility.yul\":676:794   */\n    tag_66:\n        /* \"#utility.yul\":763:787   */\n      tag_105\n        /* \"#utility.yul\":781:786   */\n      dup2\n        /* \"#utility.yul\":763:787   */\n      tag_65\n      jump\t// in\n    tag_105:\n        /* \"#utility.yul\":758:761   */\n      dup3\n        /* \"#utility.yul\":751:788   */\n      mstore\n        /* \"#utility.yul\":676:794   */\n      pop\n      pop\n      jump\t// out\n        /* \"#utility.yul\":800:1022   */\n    tag_18:\n        /* \"#utility.yul\":893:897   */\n      0x00\n        /* \"#utility.yul\":931:933   */\n      0x20\n        /* \"#utility.yul\":920:929   */\n      dup3\n        /* \"#utility.yul\":916:934   */\n      add\n        /* \"#utility.yul\":908:934   */\n      swap1\n      pop\n        /* \"#utility.yul\":944:1015   */\n      tag_107\n        /* \"#utility.yul\":1012:1013   */\n      0x00\n        /* \"#utility.yul\":1001:1010   */\n      dup4\n        /* \"#utility.yul\":997:1014   */\n      add\n        /* \"#utility.yul\":988:994   */\n      dup5\n        /* \"#utility.yul\":944:1015   */\n      tag_66\n      jump\t// in\n    tag_107:\n        /* \"#utility.yul\":800:1022   */\n      swap3\n      swap2\n      pop\n      pop\n      jump\t// out\n        /* \"#utility.yul\":1028:1103   */\n    tag_67:\n        /* \"#utility.yul\":1061:1067   */\n      0x00\n        /* \"#utility.yul\":1094:1096   */\n      0x40\n        /* \"#utility.yul\":1088:1097   */\n      mload\n        /* \"#utility.yul\":1078:1097   */\n      swap1\n      pop\n        /* \"#utility.yul\":1028:1103   */\n      swap1\n      jump\t// out\n        /* \"#utility.yul\":1109:1226   */\n    tag_68:\n        /* \"#utility.yul\":1218:1219   */\n      0x00\n        /* \"#utility.yul\":1215:1216   */\n      dup1\n        /* \"#utility.yul\":1208:1220   */\n      revert\n        /* \"#utility.yul\":1232:1349   */\n    tag_69:\n        /* \"#utility.yul\":1341:1342   */\n      0x00\n        /* \"#utility.yul\":1338:1339   */\n      dup1\n        /* \"#utility.yul\":1331:1343   */\n      revert\n        /* \"#utility.yul\":1355:1477   */\n    tag_70:\n        /* \"#utility.yul\":1428:1452   */\n      tag_112\n        /* \"#utility.yul\":1446:1451   */\n      dup2\n        /* \"#utility.yul\":1428:1452   */\n      tag_65\n      jump\t// in\n    tag_112:\n        /* \"#utility.yul\":1421:1426   */\n      dup2\n        /* \"#utility.yul\":1418:1453   */\n      eq\n        /* \"#utility.yul\":1408:1471   */\n      tag_113\n      jumpi\n        /* \"#utility.yul\":1467:1468   */\n      0x00\n        /* \"#utility.yul\":1464:1465   */\n      dup1\n        /* \"#utility.yul\":1457:1469   */\n      revert\n        /* \"#utility.yul\":1408:1471   */\n    tag_113:\n        /* \"#utility.yul\":1355:1477   */\n      pop\n      jump\t// out\n        /* \"#utility.yul\":1483:1622   */\n    tag_71:\n        /* \"#utility.yul\":1529:1534   */\n      0x00\n        /* \"#utility.yul\":1567:1573   */\n      dup2\n        /* \"#utility.yul\":1554:1574   */\n      calldataload\n        /* \"#utility.yul\":1545:1574   */\n      swap1\n      pop\n        /* \"#utility.yul\":1583:1616   */\n      tag_115\n        /* \"#utility.yul\":1610:1615   */\n      dup2\n        /* \"#utility.yul\":1583:1616   */\n      tag_70\n      jump\t// in\n    tag_115:\n        /* \"#utility.yul\":1483:1622   */\n      swap3\n      swap2\n      pop\n      pop\n      jump\t// out\n        /* \"#utility.yul\":1628:1745   */\n    tag_72:\n        /* \"#utility.yul\":1737:1738   */\n      0x00\n        /* \"#utility.yul\":1734:1735   */\n      dup1\n        /* \"#utility.yul\":1727:1739   */\n      revert\n        /* \"#utility.yul\":1751:1868   */\n    tag_73:\n        /* \"#utility.yul\":1860:1861   */\n      0x00\n        /* \"#utility.yul\":1857:1858   */\n      dup1\n        /* \"#utility.yul\":1850:1862   */\n      revert\n        /* \"#utility.yul\":1874:1976   */\n    tag_74:\n        /* \"#utility.yul\":1915:1921   */\n      0x00\n        /* \"#utility.yul\":1966:1968   */\n      0x1f\n        /* \"#utility.yul\":1962:1969   */\n      not\n        /* \"#utility.yul\":1957:1959   */\n      0x1f\n        /* \"#utility.yul\":1950:1955   */\n      dup4\n        /* \"#utility.yul\":1946:1960   */\n      add\n        /* \"#utility.yul\":1942:1970   */\n      and\n        /* \"#utility.yul\":1932:1970   */\n      swap1\n      pop\n        /* \"#utility.yul\":1874:1976   */\n      swap2\n      swap1\n      pop\n      jump\t// out\n        /* \"#utility.yul\":1982:2162   */\n    tag_75:\n        /* \"#utility.yul\":2030:2107   */\n      0x4e487b7100000000000000000000000000000000000000000000000000000000\n        /* \"#utility.yul\":2027:2028   */\n      0x00\n        /* \"#utility.yul\":2020:2108   */\n      mstore\n        /* \"#utility.yul\":2127:2131   */\n      0x41\n        /* \"#utility.yul\":2124:2125   */\n      0x04\n        /* \"#utility.yul\":2117:2132   */\n      mstore\n        /* \"#utility.yul\":2151:2155   */\n      0x24\n        /* \"#utility.yul\":2148:2149   */\n      0x00\n        /* \"#utility.yul\":2141:2156   */\n      revert\n        /* \"#utility.yul\":2168:2449   */\n    tag_76:\n        /* \"#utility.yul\":2251:2278   */\n      tag_121\n        /* \"#utility.yul\":2273:2277   */\n      dup3\n        /* \"#utility.yul\":2251:2278   */\n      tag_74\n      jump\t// in\n    tag_121:\n        /* \"#utility.yul\":2243:2249   */\n      dup2\n        /* \"#utility.yul\":2239:2279   */\n      add\n        /* \"#utility.yul\":2381:2387   */\n      dup2\n        /* \"#utility.yul\":2369:2379   */\n      dup2\n        /* \"#utility.yul\":2366:2388   */\n      lt\n        /* \"#utility.yul\":2345:2363   */\n      0xffffffffffffffff\n        /* \"#utility.yul\":2333:2343   */\n      dup3\n        /* \"#utility.yul\":2330:2364   */\n      gt\n        /* \"#utility.yul\":2327:2389   */\n      or\n        /* \"#utility.yul\":2324:2412   */\n      iszero\n      tag_122\n      jumpi\n        /* \"#utility.yul\":2392:2410   */\n      tag_123\n      tag_75\n      jump\t// in\n    tag_123:\n        /* \"#utility.yul\":2324:2412   */\n    tag_122:\n        /* \"#utility.yul\":2432:2442   */\n      dup1\n        /* \"#utility.yul\":2428:2430   */\n      0x40\n        /* \"#utility.yul\":2421:2443   */\n      mstore\n        /* \"#utility.yul\":2211:2449   */\n      pop\n        /* \"#utility.yul\":2168:2449   */\n      pop\n      pop\n      jump\t// out\n        /* \"#utility.yul\":2455:2584   */\n    tag_77:\n        /* \"#utility.yul\":2489:2495   */\n      0x00\n        /* \"#utility.yul\":2516:2536   */\n      tag_125\n      tag_67\n      jump\t// in\n    tag_125:\n        /* \"#utility.yul\":2506:2536   */\n      swap1\n      pop\n        /* \"#utility.yul\":2545:2578   */\n      tag_126\n        /* \"#utility.yul\":2573:2577   */\n      dup3\n        /* \"#utility.yul\":2565:2571   */\n      dup3\n        /* \"#utility.yul\":2545:2578   */\n      tag_76\n      jump\t// in\n    tag_126:\n        /* \"#utility.yul\":2455:2584   */\n      swap2\n      swap1\n      pop\n      jump\t// out\n        /* \"#utility.yul\":2590:2897   */\n    tag_78:\n        /* \"#utility.yul\":2651:2655   */\n      0x00\n        /* \"#utility.yul\":2741:2759   */\n      0xffffffffffffffff\n        /* \"#utility.yul\":2733:2739   */\n      dup3\n        /* \"#utility.yul\":2730:2760   */\n      gt\n        /* \"#utility.yul\":2727:2783   */\n      iszero\n      tag_128\n      jumpi\n        /* \"#utility.yul\":2763:2781   */\n      tag_129\n      tag_75\n      jump\t// in\n    tag_129:\n        /* \"#utility.yul\":2727:2783   */\n    tag_128:\n        /* \"#utility.yul\":2801:2830   */\n      tag_130\n        /* \"#utility.yul\":2823:2829   */\n      dup3\n        /* \"#utility.yul\":2801:2830   */\n      tag_74\n      jump\t// in\n    tag_130:\n        /* \"#utility.yul\":2793:2830   */\n      swap1\n      pop\n        /* \"#utility.yul\":2885:2889   */\n      0x20\n        /* \"#utility.yul\":2879:2883   */\n      dup2\n        /* \"#utility.yul\":2875:2890   */\n      add\n        /* \"#utility.yul\":2867:2890   */\n      swap1\n      pop\n        /* \"#utility.yul\":2590:2897   */\n      swap2\n      swap1\n      pop\n      jump\t// out\n        /* \"#utility.yul\":2903:3049   */\n    tag_79:\n        /* \"#utility.yul\":3000:3006   */\n      dup3\n        /* \"#utility.yul\":2995:2998   */\n      dup2\n        /* \"#utility.yul\":2990:2993   */\n      dup4\n        /* \"#utility.yul\":2977:3007   */\n      calldatacopy\n        /* \"#utility.yul\":3041:3042   */\n      0x00\n        /* \"#utility.yul\":3032:3038   */\n      dup4\n        /* \"#utility.yul\":3027:3030   */\n      dup4\n        /* \"#utility.yul\":3023:3039   */\n      add\n        /* \"#utility.yul\":3016:3043   */\n      mstore\n        /* \"#utility.yul\":2903:3049   */\n      pop\n      pop\n      pop\n      jump\t// out\n        /* \"#utility.yul\":3055:3478   */\n    tag_80:\n        /* \"#utility.yul\":3132:3137   */\n      0x00\n        /* \"#utility.yul\":3157:3222   */\n      tag_133\n        /* \"#utility.yul\":3173:3221   */\n      tag_134\n        /* \"#utility.yul\":3214:3220   */\n      dup5\n        /* \"#utility.yul\":3173:3221   */\n      tag_78\n      jump\t// in\n    tag_134:\n        /* \"#utility.yul\":3157:3222   */\n      tag_77\n      jump\t// in\n    tag_133:\n        /* \"#utility.yul\":3148:3222   */\n      swap1\n      pop\n        /* \"#utility.yul\":3245:3251   */\n      dup3\n        /* \"#utility.yul\":3238:3243   */\n      dup2\n        /* \"#utility.yul\":3231:3252   */\n      mstore\n        /* \"#utility.yul\":3283:3287   */\n      0x20\n        /* \"#utility.yul\":3276:3281   */\n      dup2\n        /* \"#utility.yul\":3272:3288   */\n      add\n        /* \"#utility.yul\":3321:3324   */\n      dup5\n        /* \"#utility.yul\":3312:3318   */\n      dup5\n        /* \"#utility.yul\":3307:3310   */\n      dup5\n        /* \"#utility.yul\":3303:3319   */\n      add\n        /* \"#utility.yul\":3300:3325   */\n      gt\n        /* \"#utility.yul\":3297:3409   */\n      iszero\n      tag_135\n      jumpi\n        /* \"#utility.yul\":3328:3407   */\n      tag_136\n      tag_73\n      jump\t// in\n    tag_136:\n        /* \"#utility.yul\":3297:3409   */\n    tag_135:\n        /* \"#utility.yul\":3418:3472   */\n      tag_137\n        /* \"#utility.yul\":3465:3471   */\n      dup5\n        /* \"#utility.yul\":3460:3463   */\n      dup3\n        /* \"#utility.yul\":3455:3458   */\n      dup6\n        /* \"#utility.yul\":3418:3472   */\n      tag_79\n      jump\t// in\n    tag_137:\n        /* \"#utility.yul\":3138:3478   */\n      pop\n        /* \"#utility.yul\":3055:3478   */\n      swap4\n      swap3\n      pop\n      pop\n      pop\n      jump\t// out\n        /* \"#utility.yul\":3497:3835   */\n    tag_81:\n        /* \"#utility.yul\":3552:3557   */\n      0x00\n        /* \"#utility.yul\":3601:3604   */\n      dup3\n        /* \"#utility.yul\":3594:3598   */\n      0x1f\n        /* \"#utility.yul\":3586:3592   */\n      dup4\n        /* \"#utility.yul\":3582:3599   */\n      add\n        /* \"#utility.yul\":3578:3605   */\n      slt\n        /* \"#utility.yul\":3568:3690   */\n      tag_139\n      jumpi\n        /* \"#utility.yul\":3609:3688   */\n      tag_140\n      tag_72\n      jump\t// in\n    tag_140:\n        /* \"#utility.yul\":3568:3690   */\n    tag_139:\n        /* \"#utility.yul\":3726:3732   */\n      dup2\n        /* \"#utility.yul\":3713:3733   */\n      calldataload\n        /* \"#utility.yul\":3751:3829   */\n      tag_141\n        /* \"#utility.yul\":3825:3828   */\n      dup5\n        /* \"#utility.yul\":3817:3823   */\n      dup3\n        /* \"#utility.yul\":3810:3814   */\n      0x20\n        /* \"#utility.yul\":3802:3808   */\n      dup7\n        /* \"#utility.yul\":3798:3815   */\n      add\n        /* \"#utility.yul\":3751:3829   */\n      tag_80\n      jump\t// in\n    tag_141:\n        /* \"#utility.yul\":3742:3829   */\n      swap2\n      pop\n        /* \"#utility.yul\":3558:3835   */\n      pop\n        /* \"#utility.yul\":3497:3835   */\n      swap3\n      swap2\n      pop\n      pop\n      jump\t// out\n        /* \"#utility.yul\":3841:4493   */\n    tag_21:\n        /* \"#utility.yul\":3918:3924   */\n      0x00\n        /* \"#utility.yul\":3926:3932   */\n      dup1\n        /* \"#utility.yul\":3975:3977   */\n      0x40\n        /* \"#utility.yul\":3963:3972   */\n      dup4\n        /* \"#utility.yul\":3954:3961   */\n      dup6\n        /* \"#utility.yul\":3950:3973   */\n      sub\n        /* \"#utility.yul\":3946:3978   */\n      slt\n        /* \"#utility.yul\":3943:4062   */\n      iszero\n      tag_143\n      jumpi\n        /* \"#utility.yul\":3981:4060   */\n      tag_144\n      tag_68\n      jump\t// in\n    tag_144:\n        /* \"#utility.yul\":3943:4062   */\n    tag_143:\n        /* \"#utility.yul\":4101:4102   */\n      0x00\n        /* \"#utility.yul\":4126:4179   */\n      tag_145\n        /* \"#utility.yul\":4171:4178   */\n      dup6\n        /* \"#utility.yul\":4162:4168   */\n      dup3\n        /* \"#utility.yul\":4151:4160   */\n      dup7\n        /* \"#utility.yul\":4147:4169   */\n      add\n        /* \"#utility.yul\":4126:4179   */\n      tag_71\n      jump\t// in\n    tag_145:\n        /* \"#utility.yul\":4116:4179   */\n      swap3\n      pop\n        /* \"#utility.yul\":4072:4189   */\n      pop\n        /* \"#utility.yul\":4256:4258   */\n      0x20\n        /* \"#utility.yul\":4245:4254   */\n      dup4\n        /* \"#utility.yul\":4241:4259   */\n      add\n        /* \"#utility.yul\":4228:4260   */\n      calldataload\n        /* \"#utility.yul\":4287:4305   */\n      0xffffffffffffffff\n        /* \"#utility.yul\":4279:4285   */\n      dup2\n        /* \"#utility.yul\":4276:4306   */\n      gt\n        /* \"#utility.yul\":4273:4390   */\n      iszero\n      tag_146\n      jumpi\n        /* \"#utility.yul\":4309:4388   */\n      tag_147\n      tag_69\n      jump\t// in\n    tag_147:\n        /* \"#utility.yul\":4273:4390   */\n    tag_146:\n        /* \"#utility.yul\":4414:4476   */\n      tag_148\n        /* \"#utility.yul\":4468:4475   */\n      dup6\n        /* \"#utility.yul\":4459:4465   */\n      dup3\n        /* \"#utility.yul\":4448:4457   */\n      dup7\n        /* \"#utility.yul\":4444:4466   */\n      add\n        /* \"#utility.yul\":4414:4476   */\n      tag_81\n      jump\t// in\n    tag_148:\n        /* \"#utility.yul\":4404:4476   */\n      swap2\n      pop\n        /* \"#utility.yul\":4199:4486   */\n      pop\n        /* \"#utility.yul\":3841:4493   */\n      swap3\n      pop\n      swap3\n      swap1\n      pop\n      jump\t// out\n        /* \"#utility.yul\":4499:4589   */\n    tag_82:\n        /* \"#utility.yul\":4533:4540   */\n      0x00\n        /* \"#utility.yul\":4576:4581   */\n      dup2\n        /* \"#utility.yul\":4569:4582   */\n      iszero\n        /* \"#utility.yul\":4562:4583   */\n      iszero\n        /* \"#utility.yul\":4551:4583   */\n      swap1\n      pop\n        /* \"#utility.yul\":4499:4589   */\n      swap2\n      swap1\n      pop\n      jump\t// out\n        /* \"#utility.yul\":4595:4704   */\n    tag_83:\n        /* \"#utility.yul\":4676:4697   */\n      tag_151\n        /* \"#utility.yul\":4691:4696   */\n      dup2\n        /* \"#utility.yul\":4676:4697   */\n      tag_82\n      jump\t// in\n    tag_151:\n        /* \"#utility.yul\":4671:4674   */\n      dup3\n        /* \"#utility.yul\":4664:4698   */\n      mstore\n        /* \"#utility.yul\":4595:4704   */\n      pop\n      pop\n      jump\t// out\n        /* \"#utility.yul\":4710:4920   */\n    tag_24:\n        /* \"#utility.yul\":4797:4801   */\n      0x00\n        /* \"#utility.yul\":4835:4837   */\n      0x20\n        /* \"#utility.yul\":4824:4833   */\n      dup3\n        /* \"#utility.yul\":4820:4838   */\n      add\n        /* \"#utility.yul\":4812:4838   */\n      swap1\n      pop\n        /* \"#utility.yul\":4848:4913   */\n      tag_153\n        /* \"#utility.yul\":4910:4911   */\n      0x00\n        /* \"#utility.yul\":4899:4908   */\n      dup4\n        /* \"#utility.yul\":4895:4912   */\n      add\n        /* \"#utility.yul\":4886:4892   */\n      dup5\n        /* \"#utility.yul\":4848:4913   */\n      tag_83\n      jump\t// in\n    tag_153:\n        /* \"#utility.yul\":4710:4920   */\n      swap3\n      swap2\n      pop\n      pop\n      jump\t// out\n        /* \"#utility.yul\":4926:5433   */\n    tag_31:\n        /* \"#utility.yul\":4994:5000   */\n      0x00\n        /* \"#utility.yul\":5043:5045   */\n      0x20\n        /* \"#utility.yul\":5031:5040   */\n      dup3\n        /* \"#utility.yul\":5022:5029   */\n      dup5\n        /* \"#utility.yul\":5018:5041   */\n      sub\n        /* \"#utility.yul\":5014:5046   */\n      slt\n        /* \"#utility.yul\":5011:5130   */\n      iszero\n      tag_155\n      jumpi\n        /* \"#utility.yul\":5049:5128   */\n      tag_156\n      tag_68\n      jump\t// in\n    tag_156:\n        /* \"#utility.yul\":5011:5130   */\n    tag_155:\n        /* \"#utility.yul\":5197:5198   */\n      0x00\n        /* \"#utility.yul\":5186:5195   */\n      dup3\n        /* \"#utility.yul\":5182:5199   */\n      add\n        /* \"#utility.yul\":5169:5200   */\n      calldataload\n        /* \"#utility.yul\":5227:5245   */\n      0xffffffffffffffff\n        /* \"#utility.yul\":5219:5225   */\n      dup2\n        /* \"#utility.yul\":5216:5246   */\n      gt\n        /* \"#utility.yul\":5213:5330   */\n      iszero\n      tag_157\n      jumpi\n        /* \"#utility.yul\":5249:5328   */\n      tag_158\n      tag_69\n      jump\t// in\n    tag_158:\n        /* \"#utility.yul\":5213:5330   */\n    tag_157:\n        /* \"#utility.yul\":5354:5416   */\n      tag_159\n        /* \"#utility.yul\":5408:5415   */\n      dup5\n        /* \"#utility.yul\":5399:5405   */\n      dup3\n        /* \"#utility.yul\":5388:5397   */\n      dup6\n        /* \"#utility.yul\":5384:5406   */\n      add\n        /* \"#utility.yul\":5354:5416   */\n      tag_81\n      jump\t// in\n    tag_159:\n        /* \"#utility.yul\":5344:5416   */\n      swap2\n      pop\n        /* \"#utility.yul\":5140:5426   */\n      pop\n        /* \"#utility.yul\":4926:5433   */\n      swap3\n      swap2\n      pop\n      pop\n      jump\t// out\n        /* \"#utility.yul\":5439:5525   */\n    tag_84:\n        /* \"#utility.yul\":5474:5481   */\n      0x00\n        /* \"#utility.yul\":5514:5518   */\n      0xff\n        /* \"#utility.yul\":5507:5512   */\n      dup3\n        /* \"#utility.yul\":5503:5519   */\n      and\n        /* \"#utility.yul\":5492:5519   */\n      swap1\n      pop\n        /* \"#utility.yul\":5439:5525   */\n      swap2\n      swap1\n      pop\n      jump\t// out\n        /* \"#utility.yul\":5531:5643   */\n    tag_85:\n        /* \"#utility.yul\":5614:5636   */\n      tag_162\n        /* \"#utility.yul\":5630:5635   */\n      dup2\n        /* \"#utility.yul\":5614:5636   */\n      tag_84\n      jump\t// in\n    tag_162:\n        /* \"#utility.yul\":5609:5612   */\n      dup3\n        /* \"#utility.yul\":5602:5637   */\n      mstore\n        /* \"#utility.yul\":5531:5643   */\n      pop\n      pop\n      jump\t// out\n        /* \"#utility.yul\":5649:6083   */\n    tag_34:\n        /* \"#utility.yul\":5794:5798   */\n      0x00\n        /* \"#utility.yul\":5832:5834   */\n      0x60\n        /* \"#utility.yul\":5821:5830   */\n      dup3\n        /* \"#utility.yul\":5817:5835   */\n      add\n        /* \"#utility.yul\":5809:5835   */\n      swap1\n      pop\n        /* \"#utility.yul\":5845:5912   */\n      tag_164\n        /* \"#utility.yul\":5909:5910   */\n      0x00\n        /* \"#utility.yul\":5898:5907   */\n      dup4\n        /* \"#utility.yul\":5894:5911   */\n      add\n        /* \"#utility.yul\":5885:5891   */\n      dup7\n        /* \"#utility.yul\":5845:5912   */\n      tag_85\n      jump\t// in\n    tag_164:\n        /* \"#utility.yul\":5922:5994   */\n      tag_165\n        /* \"#utility.yul\":5990:5992   */\n      0x20\n        /* \"#utility.yul\":5979:5988   */\n      dup4\n        /* \"#utility.yul\":5975:5993   */\n      add\n        /* \"#utility.yul\":5966:5972   */\n      dup6\n        /* \"#utility.yul\":5922:5994   */\n      tag_66\n      jump\t// in\n    tag_165:\n        /* \"#utility.yul\":6004:6076   */\n      tag_166\n        /* \"#utility.yul\":6072:6074   */\n      0x40\n        /* \"#utility.yul\":6061:6070   */\n      dup4\n        /* \"#utility.yul\":6057:6075   */\n      add\n        /* \"#utility.yul\":6048:6054   */\n      dup5\n        /* \"#utility.yul\":6004:6076   */\n      tag_66\n      jump\t// in\n    tag_166:\n        /* \"#utility.yul\":5649:6083   */\n      swap5\n      swap4\n      pop\n      pop\n      pop\n      pop\n      jump\t// out\n        /* \"#utility.yul\":6089:6397   */\n    tag_86:\n        /* \"#utility.yul\":6151:6155   */\n      0x00\n        /* \"#utility.yul\":6241:6259   */\n      0xffffffffffffffff\n        /* \"#utility.yul\":6233:6239   */\n      dup3\n        /* \"#utility.yul\":6230:6260   */\n      gt\n        /* \"#utility.yul\":6227:6283   */\n      iszero\n      tag_168\n      jumpi\n        /* \"#utility.yul\":6263:6281   */\n      tag_169\n      tag_75\n      jump\t// in\n    tag_169:\n        /* \"#utility.yul\":6227:6283   */\n    tag_168:\n        /* \"#utility.yul\":6301:6330   */\n      tag_170\n        /* \"#utility.yul\":6323:6329   */\n      dup3\n        /* \"#utility.yul\":6301:6330   */\n      tag_74\n      jump\t// in\n    tag_170:\n        /* \"#utility.yul\":6293:6330   */\n      swap1\n      pop\n        /* \"#utility.yul\":6385:6389   */\n      0x20\n        /* \"#utility.yul\":6379:6383   */\n      dup2\n        /* \"#utility.yul\":6375:6390   */\n      add\n        /* \"#utility.yul\":6367:6390   */\n      swap1\n      pop\n        /* \"#utility.yul\":6089:6397   */\n      swap2\n      swap1\n      pop\n      jump\t// out\n        /* \"#utility.yul\":6403:6828   */\n    tag_87:\n        /* \"#utility.yul\":6481:6486   */\n      0x00\n        /* \"#utility.yul\":6506:6572   */\n      tag_172\n        /* \"#utility.yul\":6522:6571   */\n      tag_173\n        /* \"#utility.yul\":6564:6570   */\n      dup5\n        /* \"#utility.yul\":6522:6571   */\n      tag_86\n      jump\t// in\n    tag_173:\n        /* \"#utility.yul\":6506:6572   */\n      tag_77\n      jump\t// in\n    tag_172:\n        /* \"#utility.yul\":6497:6572   */\n      swap1\n      pop\n        /* \"#utility.yul\":6595:6601   */\n      dup3\n        /* \"#utility.yul\":6588:6593   */\n      dup2\n        /* \"#utility.yul\":6581:6602   */\n      mstore\n        /* \"#utility.yul\":6633:6637   */\n      0x20\n        /* \"#utility.yul\":6626:6631   */\n      dup2\n        /* \"#utility.yul\":6622:6638   */\n      add\n        /* \"#utility.yul\":6671:6674   */\n      dup5\n        /* \"#utility.yul\":6662:6668   */\n      dup5\n        /* \"#utility.yul\":6657:6660   */\n      dup5\n        /* \"#utility.yul\":6653:6669   */\n      add\n        /* \"#utility.yul\":6650:6675   */\n      gt\n        /* \"#utility.yul\":6647:6759   */\n      iszero\n      tag_174\n      jumpi\n        /* \"#utility.yul\":6678:6757   */\n      tag_175\n      tag_73\n      jump\t// in\n    tag_175:\n        /* \"#utility.yul\":6647:6759   */\n    tag_174:\n        /* \"#utility.yul\":6768:6822   */\n      tag_176\n        /* \"#utility.yul\":6815:6821   */\n      dup5\n        /* \"#utility.yul\":6810:6813   */\n      dup3\n        /* \"#utility.yul\":6805:6808   */\n      dup6\n        /* \"#utility.yul\":6768:6822   */\n      tag_79\n      jump\t// in\n    tag_176:\n        /* \"#utility.yul\":6487:6828   */\n      pop\n        /* \"#utility.yul\":6403:6828   */\n      swap4\n      swap3\n      pop\n      pop\n      pop\n      jump\t// out\n        /* \"#utility.yul\":6848:7188   */\n    tag_88:\n        /* \"#utility.yul\":6904:6909   */\n      0x00\n        /* \"#utility.yul\":6953:6956   */\n      dup3\n        /* \"#utility.yul\":6946:6950   */\n      0x1f\n        /* \"#utility.yul\":6938:6944   */\n      dup4\n        /* \"#utility.yul\":6934:6951   */\n      add\n        /* \"#utility.yul\":6930:6957   */\n      slt\n        /* \"#utility.yul\":6920:7042   */\n      tag_178\n      jumpi\n        /* \"#utility.yul\":6961:7040   */\n      tag_179\n      tag_72\n      jump\t// in\n    tag_179:\n        /* \"#utility.yul\":6920:7042   */\n    tag_178:\n        /* \"#utility.yul\":7078:7084   */\n      dup2\n        /* \"#utility.yul\":7065:7085   */\n      calldataload\n        /* \"#utility.yul\":7103:7182   */\n      tag_180\n        /* \"#utility.yul\":7178:7181   */\n      dup5\n        /* \"#utility.yul\":7170:7176   */\n      dup3\n        /* \"#utility.yul\":7163:7167   */\n      0x20\n        /* \"#utility.yul\":7155:7161   */\n      dup7\n        /* \"#utility.yul\":7151:7168   */\n      add\n        /* \"#utility.yul\":7103:7182   */\n      tag_87\n      jump\t// in\n    tag_180:\n        /* \"#utility.yul\":7094:7182   */\n      swap2\n      pop\n        /* \"#utility.yul\":6910:7188   */\n      pop\n        /* \"#utility.yul\":6848:7188   */\n      swap3\n      swap2\n      pop\n      pop\n      jump\t// out\n        /* \"#utility.yul\":7194:8026   */\n    tag_37:\n        /* \"#utility.yul\":7281:7287   */\n      0x00\n        /* \"#utility.yul\":7289:7295   */\n      dup1\n        /* \"#utility.yul\":7338:7340   */\n      0x40\n        /* \"#utility.yul\":7326:7335   */\n      dup4\n        /* \"#utility.yul\":7317:7324   */\n      dup6\n        /* \"#utility.yul\":7313:7336   */\n      sub\n        /* \"#utility.yul\":7309:7341   */\n      slt\n        /* \"#utility.yul\":7306:7425   */\n      iszero\n      tag_182\n      jumpi\n        /* \"#utility.yul\":7344:7423   */\n      tag_183\n      tag_68\n      jump\t// in\n    tag_183:\n        /* \"#utility.yul\":7306:7425   */\n    tag_182:\n        /* \"#utility.yul\":7492:7493   */\n      0x00\n        /* \"#utility.yul\":7481:7490   */\n      dup4\n        /* \"#utility.yul\":7477:7494   */\n      add\n        /* \"#utility.yul\":7464:7495   */\n      calldataload\n        /* \"#utility.yul\":7522:7540   */\n      0xffffffffffffffff\n        /* \"#utility.yul\":7514:7520   */\n      dup2\n        /* \"#utility.yul\":7511:7541   */\n      gt\n        /* \"#utility.yul\":7508:7625   */\n      iszero\n      tag_184\n      jumpi\n        /* \"#utility.yul\":7544:7623   */\n      tag_185\n      tag_69\n      jump\t// in\n    tag_185:\n        /* \"#utility.yul\":7508:7625   */\n    tag_184:\n        /* \"#utility.yul\":7649:7712   */\n      tag_186\n        /* \"#utility.yul\":7704:7711   */\n      dup6\n        /* \"#utility.yul\":7695:7701   */\n      dup3\n        /* \"#utility.yul\":7684:7693   */\n      dup7\n        /* \"#utility.yul\":7680:7702   */\n      add\n        /* \"#utility.yul\":7649:7712   */\n      tag_88\n      jump\t// in\n    tag_186:\n        /* \"#utility.yul\":7639:7712   */\n      swap3\n      pop\n        /* \"#utility.yul\":7435:7722   */\n      pop\n        /* \"#utility.yul\":7789:7791   */\n      0x20\n        /* \"#utility.yul\":7778:7787   */\n      dup4\n        /* \"#utility.yul\":7774:7792   */\n      add\n        /* \"#utility.yul\":7761:7793   */\n      calldataload\n        /* \"#utility.yul\":7820:7838   */\n      0xffffffffffffffff\n        /* \"#utility.yul\":7812:7818   */\n      dup2\n        /* \"#utility.yul\":7809:7839   */\n      gt\n        /* \"#utility.yul\":7806:7923   */\n      iszero\n      tag_187\n      jumpi\n        /* \"#utility.yul\":7842:7921   */\n      tag_188\n      tag_69\n      jump\t// in\n    tag_188:\n        /* \"#utility.yul\":7806:7923   */\n    tag_187:\n        /* \"#utility.yul\":7947:8009   */\n      tag_189\n        /* \"#utility.yul\":8001:8008   */\n      dup6\n        /* \"#utility.yul\":7992:7998   */\n      dup3\n        /* \"#utility.yul\":7981:7990   */\n      dup7\n        /* \"#utility.yul\":7977:7999   */\n      add\n        /* \"#utility.yul\":7947:8009   */\n      tag_81\n      jump\t// in\n    tag_189:\n        /* \"#utility.yul\":7937:8009   */\n      swap2\n      pop\n        /* \"#utility.yul\":7732:8019   */\n      pop\n        /* \"#utility.yul\":7194:8026   */\n      swap3\n      pop\n      swap3\n      swap1\n      pop\n      jump\t// out\n        /* \"#utility.yul\":8032:8541   */\n    tag_42:\n        /* \"#utility.yul\":8101:8107   */\n      0x00\n        /* \"#utility.yul\":8150:8152   */\n      0x20\n        /* \"#utility.yul\":8138:8147   */\n      dup3\n        /* \"#utility.yul\":8129:8136   */\n      dup5\n        /* \"#utility.yul\":8125:8148   */\n      sub\n        /* \"#utility.yul\":8121:8153   */\n      slt\n        /* \"#utility.yul\":8118:8237   */\n      iszero\n      tag_191\n      jumpi\n        /* \"#utility.yul\":8156:8235   */\n      tag_192\n      tag_68\n      jump\t// in\n    tag_192:\n        /* \"#utility.yul\":8118:8237   */\n    tag_191:\n        /* \"#utility.yul\":8304:8305   */\n      0x00\n        /* \"#utility.yul\":8293:8302   */\n      dup3\n        /* \"#utility.yul\":8289:8306   */\n      add\n        /* \"#utility.yul\":8276:8307   */\n      calldataload\n        /* \"#utility.yul\":8334:8352   */\n      0xffffffffffffffff\n        /* \"#utility.yul\":8326:8332   */\n      dup2\n        /* \"#utility.yul\":8323:8353   */\n      gt\n        /* \"#utility.yul\":8320:8437   */\n      iszero\n      tag_193\n      jumpi\n        /* \"#utility.yul\":8356:8435   */\n      tag_194\n      tag_69\n      jump\t// in\n    tag_194:\n        /* \"#utility.yul\":8320:8437   */\n    tag_193:\n        /* \"#utility.yul\":8461:8524   */\n      tag_195\n        /* \"#utility.yul\":8516:8523   */\n      dup5\n        /* \"#utility.yul\":8507:8513   */\n      dup3\n        /* \"#utility.yul\":8496:8505   */\n      dup6\n        /* \"#utility.yul\":8492:8514   */\n      add\n        /* \"#utility.yul\":8461:8524   */\n      tag_88\n      jump\t// in\n    tag_195:\n        /* \"#utility.yul\":8451:8524   */\n      swap2\n      pop\n        /* \"#utility.yul\":8247:8534   */\n      pop\n        /* \"#utility.yul\":8032:8541   */\n      swap3\n      swap2\n      pop\n      pop\n      jump\t// out\n        /* \"#utility.yul\":8547:9092   */\n    tag_50:\n        /* \"#utility.yul\":8720:8724   */\n      0x00\n        /* \"#utility.yul\":8758:8761   */\n      0x80\n        /* \"#utility.yul\":8747:8756   */\n      dup3\n        /* \"#utility.yul\":8743:8762   */\n      add\n        /* \"#utility.yul\":8735:8762   */\n      swap1\n      pop\n        /* \"#utility.yul\":8772:8843   */\n      tag_197\n        /* \"#utility.yul\":8840:8841   */\n      0x00\n        /* \"#utility.yul\":8829:8838   */\n      dup4\n        /* \"#utility.yul\":8825:8842   */\n      add\n        /* \"#utility.yul\":8816:8822   */\n      dup8\n        /* \"#utility.yul\":8772:8843   */\n      tag_66\n      jump\t// in\n    tag_197:\n        /* \"#utility.yul\":8853:8921   */\n      tag_198\n        /* \"#utility.yul\":8917:8919   */\n      0x20\n        /* \"#utility.yul\":8906:8915   */\n      dup4\n        /* \"#utility.yul\":8902:8920   */\n      add\n        /* \"#utility.yul\":8893:8899   */\n      dup7\n        /* \"#utility.yul\":8853:8921   */\n      tag_85\n      jump\t// in\n    tag_198:\n        /* \"#utility.yul\":8931:9003   */\n      tag_199\n        /* \"#utility.yul\":8999:9001   */\n      0x40\n        /* \"#utility.yul\":8988:8997   */\n      dup4\n        /* \"#utility.yul\":8984:9002   */\n      add\n        /* \"#utility.yul\":8975:8981   */\n      dup6\n        /* \"#utility.yul\":8931:9003   */\n      tag_66\n      jump\t// in\n    tag_199:\n        /* \"#utility.yul\":9013:9085   */\n      tag_200\n        /* \"#utility.yul\":9081:9083   */\n      0x60\n        /* \"#utility.yul\":9070:9079   */\n      dup4\n        /* \"#utility.yul\":9066:9084   */\n      add\n        /* \"#utility.yul\":9057:9063   */\n      dup5\n        /* \"#utility.yul\":9013:9085   */\n      tag_66\n      jump\t// in\n    tag_200:\n        /* \"#utility.yul\":8547:9092   */\n      swap6\n      swap5\n      pop\n      pop\n      pop\n      pop\n      pop\n      jump\t// out\n        /* \"#utility.yul\":9098:9246   */\n    tag_89:\n        /* \"#utility.yul\":9200:9211   */\n      0x00\n        /* \"#utility.yul\":9237:9240   */\n      dup2\n        /* \"#utility.yul\":9222:9240   */\n      swap1\n      pop\n        /* \"#utility.yul\":9098:9246   */\n      swap3\n      swap2\n      pop\n      pop\n      jump\t// out\n        /* \"#utility.yul\":9252:9466   */\n    tag_90:\n        /* \"#utility.yul\":9392:9458   */\n      0x19457468657265756d205369676e6564204d6573736167653a0a333200000000\n        /* \"#utility.yul\":9388:9389   */\n      0x00\n        /* \"#utility.yul\":9380:9386   */\n      dup3\n        /* \"#utility.yul\":9376:9390   */\n      add\n        /* \"#utility.yul\":9369:9459   */\n      mstore\n        /* \"#utility.yul\":9252:9466   */\n      pop\n      jump\t// out\n        /* \"#utility.yul\":9472:9874   */\n    tag_91:\n        /* \"#utility.yul\":9632:9635   */\n      0x00\n        /* \"#utility.yul\":9653:9738   */\n      tag_204\n        /* \"#utility.yul\":9735:9737   */\n      0x1c\n        /* \"#utility.yul\":9730:9733   */\n      dup4\n        /* \"#utility.yul\":9653:9738   */\n      tag_89\n      jump\t// in\n    tag_204:\n        /* \"#utility.yul\":9646:9738   */\n      swap2\n      pop\n        /* \"#utility.yul\":9747:9840   */\n      tag_205\n        /* \"#utility.yul\":9836:9839   */\n      dup3\n        /* \"#utility.yul\":9747:9840   */\n      tag_90\n      jump\t// in\n    tag_205:\n        /* \"#utility.yul\":9865:9867   */\n      0x1c\n        /* \"#utility.yul\":9860:9863   */\n      dup3\n        /* \"#utility.yul\":9856:9868   */\n      add\n        /* \"#utility.yul\":9849:9868   */\n      swap1\n      pop\n        /* \"#utility.yul\":9472:9874   */\n      swap2\n      swap1\n      pop\n      jump\t// out\n        /* \"#utility.yul\":9880:9979   */\n    tag_92:\n        /* \"#utility.yul\":9932:9938   */\n      0x00\n        /* \"#utility.yul\":9966:9971   */\n      dup2\n        /* \"#utility.yul\":9960:9972   */\n      mload\n        /* \"#utility.yul\":9950:9972   */\n      swap1\n      pop\n        /* \"#utility.yul\":9880:9979   */\n      swap2\n      swap1\n      pop\n      jump\t// out\n        /* \"#utility.yul\":9985:10231   */\n    tag_93:\n        /* \"#utility.yul\":10066:10067   */\n      0x00\n        /* \"#utility.yul\":10076:10189   */\n    tag_208:\n        /* \"#utility.yul\":10090:10096   */\n      dup4\n        /* \"#utility.yul\":10087:10088   */\n      dup2\n        /* \"#utility.yul\":10084:10097   */\n      lt\n        /* \"#utility.yul\":10076:10189   */\n      iszero\n      tag_210\n      jumpi\n        /* \"#utility.yul\":10175:10176   */\n      dup1\n        /* \"#utility.yul\":10170:10173   */\n      dup3\n        /* \"#utility.yul\":10166:10177   */\n      add\n        /* \"#utility.yul\":10160:10178   */\n      mload\n        /* \"#utility.yul\":10156:10157   */\n      dup2\n        /* \"#utility.yul\":10151:10154   */\n      dup5\n        /* \"#utility.yul\":10147:10158   */\n      add\n        /* \"#utility.yul\":10140:10179   */\n      mstore\n        /* \"#utility.yul\":10112:10114   */\n      0x20\n        /* \"#utility.yul\":10109:10110   */\n      dup2\n        /* \"#utility.yul\":10105:10115   */\n      add\n        /* \"#utility.yul\":10100:10115   */\n      swap1\n      pop\n        /* \"#utility.yul\":10076:10189   */\n      jump(tag_208)\n    tag_210:\n        /* \"#utility.yul\":10223:10224   */\n      0x00\n        /* \"#utility.yul\":10214:10220   */\n      dup5\n        /* \"#utility.yul\":10209:10212   */\n      dup5\n        /* \"#utility.yul\":10205:10221   */\n      add\n        /* \"#utility.yul\":10198:10225   */\n      mstore\n        /* \"#utility.yul\":10047:10231   */\n      pop\n        /* \"#utility.yul\":9985:10231   */\n      pop\n      pop\n      pop\n      jump\t// out\n        /* \"#utility.yul\":10237:10627   */\n    tag_94:\n        /* \"#utility.yul\":10343:10346   */\n      0x00\n        /* \"#utility.yul\":10371:10410   */\n      tag_212\n        /* \"#utility.yul\":10404:10409   */\n      dup3\n        /* \"#utility.yul\":10371:10410   */\n      tag_92\n      jump\t// in\n    tag_212:\n        /* \"#utility.yul\":10426:10515   */\n      tag_213\n        /* \"#utility.yul\":10508:10514   */\n      dup2\n        /* \"#utility.yul\":10503:10506   */\n      dup6\n        /* \"#utility.yul\":10426:10515   */\n      tag_89\n      jump\t// in\n    tag_213:\n        /* \"#utility.yul\":10419:10515   */\n      swap4\n      pop\n        /* \"#utility.yul\":10524:10589   */\n      tag_214\n        /* \"#utility.yul\":10582:10588   */\n      dup2\n        /* \"#utility.yul\":10577:10580   */\n      dup6\n        /* \"#utility.yul\":10570:10574   */\n      0x20\n        /* \"#utility.yul\":10563:10568   */\n      dup7\n        /* \"#utility.yul\":10559:10575   */\n      add\n        /* \"#utility.yul\":10524:10589   */\n      tag_93\n      jump\t// in\n    tag_214:\n        /* \"#utility.yul\":10614:10620   */\n      dup1\n        /* \"#utility.yul\":10609:10612   */\n      dup5\n        /* \"#utility.yul\":10605:10621   */\n      add\n        /* \"#utility.yul\":10598:10621   */\n      swap2\n      pop\n        /* \"#utility.yul\":10347:10627   */\n      pop\n        /* \"#utility.yul\":10237:10627   */\n      swap3\n      swap2\n      pop\n      pop\n      jump\t// out\n        /* \"#utility.yul\":10633:11174   */\n    tag_57:\n        /* \"#utility.yul\":10866:10869   */\n      0x00\n        /* \"#utility.yul\":10888:11036   */\n      tag_216\n        /* \"#utility.yul\":11032:11035   */\n      dup3\n        /* \"#utility.yul\":10888:11036   */\n      tag_91\n      jump\t// in\n    tag_216:\n        /* \"#utility.yul\":10881:11036   */\n      swap2\n      pop\n        /* \"#utility.yul\":11053:11148   */\n      tag_217\n        /* \"#utility.yul\":11144:11147   */\n      dup3\n        /* \"#utility.yul\":11135:11141   */\n      dup5\n        /* \"#utility.yul\":11053:11148   */\n      tag_94\n      jump\t// in\n    tag_217:\n        /* \"#utility.yul\":11046:11148   */\n      swap2\n      pop\n        /* \"#utility.yul\":11165:11168   */\n      dup2\n        /* \"#utility.yul\":11158:11168   */\n      swap1\n      pop\n        /* \"#utility.yul\":10633:11174   */\n      swap3\n      swap2\n      pop\n      pop\n      jump\t// out\n        /* \"#utility.yul\":11180:11455   */\n    tag_61:\n        /* \"#utility.yul\":11312:11315   */\n      0x00\n        /* \"#utility.yul\":11334:11429   */\n      tag_219\n        /* \"#utility.yul\":11425:11428   */\n      dup3\n        /* \"#utility.yul\":11416:11422   */\n      dup5\n        /* \"#utility.yul\":11334:11429   */\n      tag_94\n      jump\t// in\n    tag_219:\n        /* \"#utility.yul\":11327:11429   */\n      swap2\n      pop\n        /* \"#utility.yul\":11446:11449   */\n      dup2\n        /* \"#utility.yul\":11439:11449   */\n      swap1\n      pop\n        /* \"#utility.yul\":11180:11455   */\n      swap3\n      swap2\n      pop\n      pop\n      jump\t// out\n\n    auxdata: 0xa26469706673582212201dbe86e47ba99cce4dbe78cbe7446cfdb9e3f71304a00f59031b9b27916a8f1764736f6c63430008110033\n}\n",
				"bytecode": {
					"linkReferences": {},
					"object": "608060405234801561001057600080fd5b5073c109f6944e282d0c02742115ea0343a9a85eea6f6000806101000a81548173ffffffffffffffffffffffffffffffffffffffff021916908373ffffffffffffffffffffffffffffffffffffffff1602179055506109d2806100746000396000f3fe608060405234801561001057600080fd5b506004361061007d5760003560e01c806397aba7f91161005b57806397aba7f9146100ee578063a7bb58031461011e578063adb41f7514610150578063b4604750146101805761007d565b80631398b4441461008257806371524b93146100a05780638dabc6a9146100be575b600080fd5b61008a6101b0565b60405161009791906103fc565b60405180910390f35b6100a86101d4565b6040516100b59190610430565b60405180910390f35b6100d860048036038101906100d391906105d1565b6101da565b6040516100e59190610648565b60405180910390f35b610108600480360381019061010391906105d1565b61023d565b60405161011591906103fc565b60405180910390f35b61013860048036038101906101339190610663565b6102b2565b604051610147939291906106c8565b60405180910390f35b61016a600480360381019061016591906107a0565b6102f5565b6040516101779190610648565b60405180910390f35b61019a60048036038101906101959190610818565b610382565b6040516101a79190610430565b60405180910390f35b60008054906101000a900473ffffffffffffffffffffffffffffffffffffffff1681565b60015481565b60008060009054906101000a900473ffffffffffffffffffffffffffffffffffffffff1673ffffffffffffffffffffffffffffffffffffffff1661021e848461023d565b73ffffffffffffffffffffffffffffffffffffffff1614905092915050565b60008060008061024c856102b2565b8093508194508295505050506001868484846040516000815260200160405260405161027b9493929190610861565b6020604051602081039080840390855afa15801561029d573d6000803e3d6000fd5b50505060206040510351935050505092915050565b600080600060418451146102c557600080fd5b60008060006020870151925060408701519150606087015160001a90508083839550955095505050509193909250565b600080836040516020016103099190610963565b60405160208183030381529060405280519060200120905060008054906101000a900473ffffffffffffffffffffffffffffffffffffffff1673ffffffffffffffffffffffffffffffffffffffff16610362828561023d565b73ffffffffffffffffffffffffffffffffffffffff161491505092915050565b6000816040516020016103959190610985565b604051602081830303815290604052805190602001206001819055506001549050919050565b600073ffffffffffffffffffffffffffffffffffffffff82169050919050565b60006103e6826103bb565b9050919050565b6103f6816103db565b82525050565b600060208201905061041160008301846103ed565b92915050565b6000819050919050565b61042a81610417565b82525050565b60006020820190506104456000830184610421565b92915050565b6000604051905090565b600080fd5b600080fd5b61046881610417565b811461047357600080fd5b50565b6000813590506104858161045f565b92915050565b600080fd5b600080fd5b6000601f19601f8301169050919050565b7f4e487b7100000000000000000000000000000000000000000000000000000000600052604160045260246000fd5b6104de82610495565b810181811067ffffffffffffffff821117156104fd576104fc6104a6565b5b80604052505050565b600061051061044b565b905061051c82826104d5565b919050565b600067ffffffffffffffff82111561053c5761053b6104a6565b5b61054582610495565b9050602081019050919050565b82818337600083830152505050565b600061057461056f84610521565b610506565b9050828152602081018484840111156105905761058f610490565b5b61059b848285610552565b509392505050565b600082601f8301126105b8576105b761048b565b5b81356105c8848260208601610561565b91505092915050565b600080604083850312156105e8576105e7610455565b5b60006105f685828601610476565b925050602083013567ffffffffffffffff8111156106175761061661045a565b5b610623858286016105a3565b9150509250929050565b60008115159050919050565b6106428161062d565b82525050565b600060208201905061065d6000830184610639565b92915050565b60006020828403121561067957610678610455565b5b600082013567ffffffffffffffff8111156106975761069661045a565b5b6106a3848285016105a3565b91505092915050565b600060ff82169050919050565b6106c2816106ac565b82525050565b60006060820190506106dd60008301866106b9565b6106ea6020830185610421565b6106f76040830184610421565b949350505050565b600067ffffffffffffffff82111561071a576107196104a6565b5b61072382610495565b9050602081019050919050565b600061074361073e846106ff565b610506565b90508281526020810184848401111561075f5761075e610490565b5b61076a848285610552565b509392505050565b600082601f8301126107875761078661048b565b5b8135610797848260208601610730565b91505092915050565b600080604083850312156107b7576107b6610455565b5b600083013567ffffffffffffffff8111156107d5576107d461045a565b5b6107e185828601610772565b925050602083013567ffffffffffffffff8111156108025761080161045a565b5b61080e858286016105a3565b9150509250929050565b60006020828403121561082e5761082d610455565b5b600082013567ffffffffffffffff81111561084c5761084b61045a565b5b61085884828501610772565b91505092915050565b60006080820190506108766000830187610421565b61088360208301866106b9565b6108906040830185610421565b61089d6060830184610421565b95945050505050565b600081905092915050565b7f19457468657265756d205369676e6564204d6573736167653a0a333200000000600082015250565b60006108e7601c836108a6565b91506108f2826108b1565b601c82019050919050565b600081519050919050565b60005b8381101561092657808201518184015260208101905061090b565b60008484015250505050565b600061093d826108fd565b61094781856108a6565b9350610957818560208601610908565b80840191505092915050565b600061096e826108da565b915061097a8284610932565b915081905092915050565b60006109918284610932565b91508190509291505056fea26469706673582212201dbe86e47ba99cce4dbe78cbe7446cfdb9e3f71304a00f59031b9b27916a8f1764736f6c63430008110033",
					"opcodes": "PUSH1 0x80 PUSH1 0x40 MSTORE CALLVALUE DUP1 ISZERO PUSH2 0x10 JUMPI PUSH1 0x0 DUP1 REVERT JUMPDEST POP PUSH20 0xC109F6944E282D0C02742115EA0343A9A85EEA6F PUSH1 0x0 DUP1 PUSH2 0x100 EXP DUP2 SLOAD DUP2 PUSH20 0xFFFFFFFFFFFFFFFFFFFFFFFFFFFFFFFFFFFFFFFF MUL NOT AND SWAP1 DUP4 PUSH20 0xFFFFFFFFFFFFFFFFFFFFFFFFFFFFFFFFFFFFFFFF AND MUL OR SWAP1 SSTORE POP PUSH2 0x9D2 DUP1 PUSH2 0x74 PUSH1 0x0 CODECOPY PUSH1 0x0 RETURN INVALID PUSH1 0x80 PUSH1 0x40 MSTORE CALLVALUE DUP1 ISZERO PUSH2 0x10 JUMPI PUSH1 0x0 DUP1 REVERT JUMPDEST POP PUSH1 0x4 CALLDATASIZE LT PUSH2 0x7D JUMPI PUSH1 0x0 CALLDATALOAD PUSH1 0xE0 SHR DUP1 PUSH4 0x97ABA7F9 GT PUSH2 0x5B JUMPI DUP1 PUSH4 0x97ABA7F9 EQ PUSH2 0xEE JUMPI DUP1 PUSH4 0xA7BB5803 EQ PUSH2 0x11E JUMPI DUP1 PUSH4 0xADB41F75 EQ PUSH2 0x150 JUMPI DUP1 PUSH4 0xB4604750 EQ PUSH2 0x180 JUMPI PUSH2 0x7D JUMP JUMPDEST DUP1 PUSH4 0x1398B444 EQ PUSH2 0x82 JUMPI DUP1 PUSH4 0x71524B93 EQ PUSH2 0xA0 JUMPI DUP1 PUSH4 0x8DABC6A9 EQ PUSH2 0xBE JUMPI JUMPDEST PUSH1 0x0 DUP1 REVERT JUMPDEST PUSH2 0x8A PUSH2 0x1B0 JUMP JUMPDEST PUSH1 0x40 MLOAD PUSH2 0x97 SWAP2 SWAP1 PUSH2 0x3FC JUMP JUMPDEST PUSH1 0x40 MLOAD DUP1 SWAP2 SUB SWAP1 RETURN JUMPDEST PUSH2 0xA8 PUSH2 0x1D4 JUMP JUMPDEST PUSH1 0x40 MLOAD PUSH2 0xB5 SWAP2 SWAP1 PUSH2 0x430 JUMP JUMPDEST PUSH1 0x40 MLOAD DUP1 SWAP2 SUB SWAP1 RETURN JUMPDEST PUSH2 0xD8 PUSH1 0x4 DUP1 CALLDATASIZE SUB DUP2 ADD SWAP1 PUSH2 0xD3 SWAP2 SWAP1 PUSH2 0x5D1 JUMP JUMPDEST PUSH2 0x1DA JUMP JUMPDEST PUSH1 0x40 MLOAD PUSH2 0xE5 SWAP2 SWAP1 PUSH2 0x648 JUMP JUMPDEST PUSH1 0x40 MLOAD DUP1 SWAP2 SUB SWAP1 RETURN JUMPDEST PUSH2 0x108 PUSH1 0x4 DUP1 CALLDATASIZE SUB DUP2 ADD SWAP1 PUSH2 0x103 SWAP2 SWAP1 PUSH2 0x5D1 JUMP JUMPDEST PUSH2 0x23D JUMP JUMPDEST PUSH1 0x40 MLOAD PUSH2 0x115 SWAP2 SWAP1 PUSH2 0x3FC JUMP JUMPDEST PUSH1 0x40 MLOAD DUP1 SWAP2 SUB SWAP1 RETURN JUMPDEST PUSH2 0x138 PUSH1 0x4 DUP1 CALLDATASIZE SUB DUP2 ADD SWAP1 PUSH2 0x133 SWAP2 SWAP1 PUSH2 0x663 JUMP JUMPDEST PUSH2 0x2B2 JUMP JUMPDEST PUSH1 0x40 MLOAD PUSH2 0x147 SWAP4 SWAP3 SWAP2 SWAP1 PUSH2 0x6C8 JUMP JUMPDEST PUSH1 0x40 MLOAD DUP1 SWAP2 SUB SWAP1 RETURN JUMPDEST PUSH2 0x16A PUSH1 0x4 DUP1 CALLDATASIZE SUB DUP2 ADD SWAP1 PUSH2 0x165 SWAP2 SWAP1 PUSH2 0x7A0 JUMP JUMPDEST PUSH2 0x2F5 JUMP JUMPDEST PUSH1 0x40 MLOAD PUSH2 0x177 SWAP2 SWAP1 PUSH2 0x648 JUMP JUMPDEST PUSH1 0x40 MLOAD DUP1 SWAP2 SUB SWAP1 RETURN JUMPDEST PUSH2 0x19A PUSH1 0x4 DUP1 CALLDATASIZE SUB DUP2 ADD SWAP1 PUSH2 0x195 SWAP2 SWAP1 PUSH2 0x818 JUMP JUMPDEST PUSH2 0x382 JUMP JUMPDEST PUSH1 0x40 MLOAD PUSH2 0x1A7 SWAP2 SWAP1 PUSH2 0x430 JUMP JUMPDEST PUSH1 0x40 MLOAD DUP1 SWAP2 SUB SWAP1 RETURN JUMPDEST PUSH1 0x0 DUP1 SLOAD SWAP1 PUSH2 0x100 EXP SWAP1 DIV PUSH20 0xFFFFFFFFFFFFFFFFFFFFFFFFFFFFFFFFFFFFFFFF AND DUP2 JUMP JUMPDEST PUSH1 0x1 SLOAD DUP2 JUMP JUMPDEST PUSH1 0x0 DUP1 PUSH1 0x0 SWAP1 SLOAD SWAP1 PUSH2 0x100 EXP SWAP1 DIV PUSH20 0xFFFFFFFFFFFFFFFFFFFFFFFFFFFFFFFFFFFFFFFF AND PUSH20 0xFFFFFFFFFFFFFFFFFFFFFFFFFFFFFFFFFFFFFFFF AND PUSH2 0x21E DUP5 DUP5 PUSH2 0x23D JUMP JUMPDEST PUSH20 0xFFFFFFFFFFFFFFFFFFFFFFFFFFFFFFFFFFFFFFFF AND EQ SWAP1 POP SWAP3 SWAP2 POP POP JUMP JUMPDEST PUSH1 0x0 DUP1 PUSH1 0x0 DUP1 PUSH2 0x24C DUP6 PUSH2 0x2B2 JUMP JUMPDEST DUP1 SWAP4 POP DUP2 SWAP5 POP DUP3 SWAP6 POP POP POP POP PUSH1 0x1 DUP7 DUP5 DUP5 DUP5 PUSH1 0x40 MLOAD PUSH1 0x0 DUP2 MSTORE PUSH1 0x20 ADD PUSH1 0x40 MSTORE PUSH1 0x40 MLOAD PUSH2 0x27B SWAP5 SWAP4 SWAP3 SWAP2 SWAP1 PUSH2 0x861 JUMP JUMPDEST PUSH1 0x20 PUSH1 0x40 MLOAD PUSH1 0x20 DUP2 SUB SWAP1 DUP1 DUP5 SUB SWAP1 DUP6 GAS STATICCALL ISZERO DUP1 ISZERO PUSH2 0x29D JUMPI RETURNDATASIZE PUSH1 0x0 DUP1 RETURNDATACOPY RETURNDATASIZE PUSH1 0x0 REVERT JUMPDEST POP POP POP PUSH1 0x20 PUSH1 0x40 MLOAD SUB MLOAD SWAP4 POP POP POP POP SWAP3 SWAP2 POP POP JUMP JUMPDEST PUSH1 0x0 DUP1 PUSH1 0x0 PUSH1 0x41 DUP5 MLOAD EQ PUSH2 0x2C5 JUMPI PUSH1 0x0 DUP1 REVERT JUMPDEST PUSH1 0x0 DUP1 PUSH1 0x0 PUSH1 0x20 DUP8 ADD MLOAD SWAP3 POP PUSH1 0x40 DUP8 ADD MLOAD SWAP2 POP PUSH1 0x60 DUP8 ADD MLOAD PUSH1 0x0 BYTE SWAP1 POP DUP1 DUP4 DUP4 SWAP6 POP SWAP6 POP SWAP6 POP POP POP POP SWAP2 SWAP4 SWAP1 SWAP3 POP JUMP JUMPDEST PUSH1 0x0 DUP1 DUP4 PUSH1 0x40 MLOAD PUSH1 0x20 ADD PUSH2 0x309 SWAP2 SWAP1 PUSH2 0x963 JUMP JUMPDEST PUSH1 0x40 MLOAD PUSH1 0x20 DUP2 DUP4 SUB SUB DUP2 MSTORE SWAP1 PUSH1 0x40 MSTORE DUP1 MLOAD SWAP1 PUSH1 0x20 ADD KECCAK256 SWAP1 POP PUSH1 0x0 DUP1 SLOAD SWAP1 PUSH2 0x100 EXP SWAP1 DIV PUSH20 0xFFFFFFFFFFFFFFFFFFFFFFFFFFFFFFFFFFFFFFFF AND PUSH20 0xFFFFFFFFFFFFFFFFFFFFFFFFFFFFFFFFFFFFFFFF AND PUSH2 0x362 DUP3 DUP6 PUSH2 0x23D JUMP JUMPDEST PUSH20 0xFFFFFFFFFFFFFFFFFFFFFFFFFFFFFFFFFFFFFFFF AND EQ SWAP2 POP POP SWAP3 SWAP2 POP POP JUMP JUMPDEST PUSH1 0x0 DUP2 PUSH1 0x40 MLOAD PUSH1 0x20 ADD PUSH2 0x395 SWAP2 SWAP1 PUSH2 0x985 JUMP JUMPDEST PUSH1 0x40 MLOAD PUSH1 0x20 DUP2 DUP4 SUB SUB DUP2 MSTORE SWAP1 PUSH1 0x40 MSTORE DUP1 MLOAD SWAP1 PUSH1 0x20 ADD KECCAK256 PUSH1 0x1 DUP2 SWAP1 SSTORE POP PUSH1 0x1 SLOAD SWAP1 POP SWAP2 SWAP1 POP JUMP JUMPDEST PUSH1 0x0 PUSH20 0xFFFFFFFFFFFFFFFFFFFFFFFFFFFFFFFFFFFFFFFF DUP3 AND SWAP1 POP SWAP2 SWAP1 POP JUMP JUMPDEST PUSH1 0x0 PUSH2 0x3E6 DUP3 PUSH2 0x3BB JUMP JUMPDEST SWAP1 POP SWAP2 SWAP1 POP JUMP JUMPDEST PUSH2 0x3F6 DUP2 PUSH2 0x3DB JUMP JUMPDEST DUP3 MSTORE POP POP JUMP JUMPDEST PUSH1 0x0 PUSH1 0x20 DUP3 ADD SWAP1 POP PUSH2 0x411 PUSH1 0x0 DUP4 ADD DUP5 PUSH2 0x3ED JUMP JUMPDEST SWAP3 SWAP2 POP POP JUMP JUMPDEST PUSH1 0x0 DUP2 SWAP1 POP SWAP2 SWAP1 POP JUMP JUMPDEST PUSH2 0x42A DUP2 PUSH2 0x417 JUMP JUMPDEST DUP3 MSTORE POP POP JUMP JUMPDEST PUSH1 0x0 PUSH1 0x20 DUP3 ADD SWAP1 POP PUSH2 0x445 PUSH1 0x0 DUP4 ADD DUP5 PUSH2 0x421 JUMP JUMPDEST SWAP3 SWAP2 POP POP JUMP JUMPDEST PUSH1 0x0 PUSH1 0x40 MLOAD SWAP1 POP SWAP1 JUMP JUMPDEST PUSH1 0x0 DUP1 REVERT JUMPDEST PUSH1 0x0 DUP1 REVERT JUMPDEST PUSH2 0x468 DUP2 PUSH2 0x417 JUMP JUMPDEST DUP2 EQ PUSH2 0x473 JUMPI PUSH1 0x0 DUP1 REVERT JUMPDEST POP JUMP JUMPDEST PUSH1 0x0 DUP2 CALLDATALOAD SWAP1 POP PUSH2 0x485 DUP2 PUSH2 0x45F JUMP JUMPDEST SWAP3 SWAP2 POP POP JUMP JUMPDEST PUSH1 0x0 DUP1 REVERT JUMPDEST PUSH1 0x0 DUP1 REVERT JUMPDEST PUSH1 0x0 PUSH1 0x1F NOT PUSH1 0x1F DUP4 ADD AND SWAP1 POP SWAP2 SWAP1 POP JUMP JUMPDEST PUSH32 0x4E487B7100000000000000000000000000000000000000000000000000000000 PUSH1 0x0 MSTORE PUSH1 0x41 PUSH1 0x4 MSTORE PUSH1 0x24 PUSH1 0x0 REVERT JUMPDEST PUSH2 0x4DE DUP3 PUSH2 0x495 JUMP JUMPDEST DUP2 ADD DUP2 DUP2 LT PUSH8 0xFFFFFFFFFFFFFFFF DUP3 GT OR ISZERO PUSH2 0x4FD JUMPI PUSH2 0x4FC PUSH2 0x4A6 JUMP JUMPDEST JUMPDEST DUP1 PUSH1 0x40 MSTORE POP POP POP JUMP JUMPDEST PUSH1 0x0 PUSH2 0x510 PUSH2 0x44B JUMP JUMPDEST SWAP1 POP PUSH2 0x51C DUP3 DUP3 PUSH2 0x4D5 JUMP JUMPDEST SWAP2 SWAP1 POP JUMP JUMPDEST PUSH1 0x0 PUSH8 0xFFFFFFFFFFFFFFFF DUP3 GT ISZERO PUSH2 0x53C JUMPI PUSH2 0x53B PUSH2 0x4A6 JUMP JUMPDEST JUMPDEST PUSH2 0x545 DUP3 PUSH2 0x495 JUMP JUMPDEST SWAP1 POP PUSH1 0x20 DUP2 ADD SWAP1 POP SWAP2 SWAP1 POP JUMP JUMPDEST DUP3 DUP2 DUP4 CALLDATACOPY PUSH1 0x0 DUP4 DUP4 ADD MSTORE POP POP POP JUMP JUMPDEST PUSH1 0x0 PUSH2 0x574 PUSH2 0x56F DUP5 PUSH2 0x521 JUMP JUMPDEST PUSH2 0x506 JUMP JUMPDEST SWAP1 POP DUP3 DUP2 MSTORE PUSH1 0x20 DUP2 ADD DUP5 DUP5 DUP5 ADD GT ISZERO PUSH2 0x590 JUMPI PUSH2 0x58F PUSH2 0x490 JUMP JUMPDEST JUMPDEST PUSH2 0x59B DUP5 DUP3 DUP6 PUSH2 0x552 JUMP JUMPDEST POP SWAP4 SWAP3 POP POP POP JUMP JUMPDEST PUSH1 0x0 DUP3 PUSH1 0x1F DUP4 ADD SLT PUSH2 0x5B8 JUMPI PUSH2 0x5B7 PUSH2 0x48B JUMP JUMPDEST JUMPDEST DUP2 CALLDATALOAD PUSH2 0x5C8 DUP5 DUP3 PUSH1 0x20 DUP7 ADD PUSH2 0x561 JUMP JUMPDEST SWAP2 POP POP SWAP3 SWAP2 POP POP JUMP JUMPDEST PUSH1 0x0 DUP1 PUSH1 0x40 DUP4 DUP6 SUB SLT ISZERO PUSH2 0x5E8 JUMPI PUSH2 0x5E7 PUSH2 0x455 JUMP JUMPDEST JUMPDEST PUSH1 0x0 PUSH2 0x5F6 DUP6 DUP3 DUP7 ADD PUSH2 0x476 JUMP JUMPDEST SWAP3 POP POP PUSH1 0x20 DUP4 ADD CALLDATALOAD PUSH8 0xFFFFFFFFFFFFFFFF DUP2 GT ISZERO PUSH2 0x617 JUMPI PUSH2 0x616 PUSH2 0x45A JUMP JUMPDEST JUMPDEST PUSH2 0x623 DUP6 DUP3 DUP7 ADD PUSH2 0x5A3 JUMP JUMPDEST SWAP2 POP POP SWAP3 POP SWAP3 SWAP1 POP JUMP JUMPDEST PUSH1 0x0 DUP2 ISZERO ISZERO SWAP1 POP SWAP2 SWAP1 POP JUMP JUMPDEST PUSH2 0x642 DUP2 PUSH2 0x62D JUMP JUMPDEST DUP3 MSTORE POP POP JUMP JUMPDEST PUSH1 0x0 PUSH1 0x20 DUP3 ADD SWAP1 POP PUSH2 0x65D PUSH1 0x0 DUP4 ADD DUP5 PUSH2 0x639 JUMP JUMPDEST SWAP3 SWAP2 POP POP JUMP JUMPDEST PUSH1 0x0 PUSH1 0x20 DUP3 DUP5 SUB SLT ISZERO PUSH2 0x679 JUMPI PUSH2 0x678 PUSH2 0x455 JUMP JUMPDEST JUMPDEST PUSH1 0x0 DUP3 ADD CALLDATALOAD PUSH8 0xFFFFFFFFFFFFFFFF DUP2 GT ISZERO PUSH2 0x697 JUMPI PUSH2 0x696 PUSH2 0x45A JUMP JUMPDEST JUMPDEST PUSH2 0x6A3 DUP5 DUP3 DUP6 ADD PUSH2 0x5A3 JUMP JUMPDEST SWAP2 POP POP SWAP3 SWAP2 POP POP JUMP JUMPDEST PUSH1 0x0 PUSH1 0xFF DUP3 AND SWAP1 POP SWAP2 SWAP1 POP JUMP JUMPDEST PUSH2 0x6C2 DUP2 PUSH2 0x6AC JUMP JUMPDEST DUP3 MSTORE POP POP JUMP JUMPDEST PUSH1 0x0 PUSH1 0x60 DUP3 ADD SWAP1 POP PUSH2 0x6DD PUSH1 0x0 DUP4 ADD DUP7 PUSH2 0x6B9 JUMP JUMPDEST PUSH2 0x6EA PUSH1 0x20 DUP4 ADD DUP6 PUSH2 0x421 JUMP JUMPDEST PUSH2 0x6F7 PUSH1 0x40 DUP4 ADD DUP5 PUSH2 0x421 JUMP JUMPDEST SWAP5 SWAP4 POP POP POP POP JUMP JUMPDEST PUSH1 0x0 PUSH8 0xFFFFFFFFFFFFFFFF DUP3 GT ISZERO PUSH2 0x71A JUMPI PUSH2 0x719 PUSH2 0x4A6 JUMP JUMPDEST JUMPDEST PUSH2 0x723 DUP3 PUSH2 0x495 JUMP JUMPDEST SWAP1 POP PUSH1 0x20 DUP2 ADD SWAP1 POP SWAP2 SWAP1 POP JUMP JUMPDEST PUSH1 0x0 PUSH2 0x743 PUSH2 0x73E DUP5 PUSH2 0x6FF JUMP JUMPDEST PUSH2 0x506 JUMP JUMPDEST SWAP1 POP DUP3 DUP2 MSTORE PUSH1 0x20 DUP2 ADD DUP5 DUP5 DUP5 ADD GT ISZERO PUSH2 0x75F JUMPI PUSH2 0x75E PUSH2 0x490 JUMP JUMPDEST JUMPDEST PUSH2 0x76A DUP5 DUP3 DUP6 PUSH2 0x552 JUMP JUMPDEST POP SWAP4 SWAP3 POP POP POP JUMP JUMPDEST PUSH1 0x0 DUP3 PUSH1 0x1F DUP4 ADD SLT PUSH2 0x787 JUMPI PUSH2 0x786 PUSH2 0x48B JUMP JUMPDEST JUMPDEST DUP2 CALLDATALOAD PUSH2 0x797 DUP5 DUP3 PUSH1 0x20 DUP7 ADD PUSH2 0x730 JUMP JUMPDEST SWAP2 POP POP SWAP3 SWAP2 POP POP JUMP JUMPDEST PUSH1 0x0 DUP1 PUSH1 0x40 DUP4 DUP6 SUB SLT ISZERO PUSH2 0x7B7 JUMPI PUSH2 0x7B6 PUSH2 0x455 JUMP JUMPDEST JUMPDEST PUSH1 0x0 DUP4 ADD CALLDATALOAD PUSH8 0xFFFFFFFFFFFFFFFF DUP2 GT ISZERO PUSH2 0x7D5 JUMPI PUSH2 0x7D4 PUSH2 0x45A JUMP JUMPDEST JUMPDEST PUSH2 0x7E1 DUP6 DUP3 DUP7 ADD PUSH2 0x772 JUMP JUMPDEST SWAP3 POP POP PUSH1 0x20 DUP4 ADD CALLDATALOAD PUSH8 0xFFFFFFFFFFFFFFFF DUP2 GT ISZERO PUSH2 0x802 JUMPI PUSH2 0x801 PUSH2 0x45A JUMP JUMPDEST JUMPDEST PUSH2 0x80E DUP6 DUP3 DUP7 ADD PUSH2 0x5A3 JUMP JUMPDEST SWAP2 POP POP SWAP3 POP SWAP3 SWAP1 POP JUMP JUMPDEST PUSH1 0x0 PUSH1 0x20 DUP3 DUP5 SUB SLT ISZERO PUSH2 0x82E JUMPI PUSH2 0x82D PUSH2 0x455 JUMP JUMPDEST JUMPDEST PUSH1 0x0 DUP3 ADD CALLDATALOAD PUSH8 0xFFFFFFFFFFFFFFFF DUP2 GT ISZERO PUSH2 0x84C JUMPI PUSH2 0x84B PUSH2 0x45A JUMP JUMPDEST JUMPDEST PUSH2 0x858 DUP5 DUP3 DUP6 ADD PUSH2 0x772 JUMP JUMPDEST SWAP2 POP POP SWAP3 SWAP2 POP POP JUMP JUMPDEST PUSH1 0x0 PUSH1 0x80 DUP3 ADD SWAP1 POP PUSH2 0x876 PUSH1 0x0 DUP4 ADD DUP8 PUSH2 0x421 JUMP JUMPDEST PUSH2 0x883 PUSH1 0x20 DUP4 ADD DUP7 PUSH2 0x6B9 JUMP JUMPDEST PUSH2 0x890 PUSH1 0x40 DUP4 ADD DUP6 PUSH2 0x421 JUMP JUMPDEST PUSH2 0x89D PUSH1 0x60 DUP4 ADD DUP5 PUSH2 0x421 JUMP JUMPDEST SWAP6 SWAP5 POP POP POP POP POP JUMP JUMPDEST PUSH1 0x0 DUP2 SWAP1 POP SWAP3 SWAP2 POP POP JUMP JUMPDEST PUSH32 0x19457468657265756D205369676E6564204D6573736167653A0A333200000000 PUSH1 0x0 DUP3 ADD MSTORE POP JUMP JUMPDEST PUSH1 0x0 PUSH2 0x8E7 PUSH1 0x1C DUP4 PUSH2 0x8A6 JUMP JUMPDEST SWAP2 POP PUSH2 0x8F2 DUP3 PUSH2 0x8B1 JUMP JUMPDEST PUSH1 0x1C DUP3 ADD SWAP1 POP SWAP2 SWAP1 POP JUMP JUMPDEST PUSH1 0x0 DUP2 MLOAD SWAP1 POP SWAP2 SWAP1 POP JUMP JUMPDEST PUSH1 0x0 JUMPDEST DUP4 DUP2 LT ISZERO PUSH2 0x926 JUMPI DUP1 DUP3 ADD MLOAD DUP2 DUP5 ADD MSTORE PUSH1 0x20 DUP2 ADD SWAP1 POP PUSH2 0x90B JUMP JUMPDEST PUSH1 0x0 DUP5 DUP5 ADD MSTORE POP POP POP POP JUMP JUMPDEST PUSH1 0x0 PUSH2 0x93D DUP3 PUSH2 0x8FD JUMP JUMPDEST PUSH2 0x947 DUP2 DUP6 PUSH2 0x8A6 JUMP JUMPDEST SWAP4 POP PUSH2 0x957 DUP2 DUP6 PUSH1 0x20 DUP7 ADD PUSH2 0x908 JUMP JUMPDEST DUP1 DUP5 ADD SWAP2 POP POP SWAP3 SWAP2 POP POP JUMP JUMPDEST PUSH1 0x0 PUSH2 0x96E DUP3 PUSH2 0x8DA JUMP JUMPDEST SWAP2 POP PUSH2 0x97A DUP3 DUP5 PUSH2 0x932 JUMP JUMPDEST SWAP2 POP DUP2 SWAP1 POP SWAP3 SWAP2 POP POP JUMP JUMPDEST PUSH1 0x0 PUSH2 0x991 DUP3 DUP5 PUSH2 0x932 JUMP JUMPDEST SWAP2 POP DUP2 SWAP1 POP SWAP3 SWAP2 POP POP JUMP INVALID LOG2 PUSH5 0x6970667358 0x22 SLT KECCAK256 SAR 0xBE DUP7 0xE4 PUSH28 0xA99CCE4DBE78CBE7446CFDB9E3F71304A00F59031B9B27916A8F1764 PUSH20 0x6F6C634300081100330000000000000000000000 "
				},
				"gasEstimates": {
					"creation": {
						"codeDepositCost": "502800",
						"executionCost": "24804",
						"totalCost": "527604"
					},
					"external": {
						"importantAddress()": "2512",
						"isValidData(string,bytes)": "infinite",
						"isValidData2(bytes32,bytes)": "infinite",
						"messg()": "2452",
						"msgR(string)": "infinite",
						"recoverSigner(bytes32,bytes)": "infinite",
						"splitSignature(bytes)": "infinite"
					}
				},
				"methodIdentifiers": {
					"importantAddress()": "1398b444",
					"isValidData(string,bytes)": "adb41f75",
					"isValidData2(bytes32,bytes)": "8dabc6a9",
					"messg()": "71524b93",
					"msgR(string)": "b4604750",
					"recoverSigner(bytes32,bytes)": "97aba7f9",
					"splitSignature(bytes)": "a7bb5803"
				}
			},
			"storageLayout": {
				"storage": [
					{
						"astId": 3,
						"contract": "contract-442812f524.sol:Verify",
						"label": "importantAddress",
						"offset": 0,
						"slot": "0",
						"type": "t_address"
					},
					{
						"astId": 5,
						"contract": "contract-442812f524.sol:Verify",
						"label": "messg",
						"offset": 0,
						"slot": "1",
						"type": "t_bytes32"
					}
				],
				"types": {
					"t_address": {
						"encoding": "inplace",
						"label": "address",
						"numberOfBytes": "20"
					},
					"t_bytes32": {
						"encoding": "inplace",
						"label": "bytes32",
						"numberOfBytes": "32"
					}
				}
			},
			"userdoc": {
				"kind": "user",
				"methods": {},
				"version": 1
			}
		}
	}
}