{
	"contract-71ad24318f.sol": {
		"BallotBox": {
			"abi": [
				{
					"inputs": [
						{
							"internalType": "address",
							"name": "_twitt",
							"type": "address"
						}
					],
					"stateMutability": "nonpayable",
					"type": "constructor"
				},
				{
					"anonymous": false,
					"inputs": [
						{
							"indexed": false,
							"internalType": "uint256",
							"name": "balances",
							"type": "uint256"
						}
					],
					"name": "balncer",
					"type": "event"
				},
				{
					"inputs": [
						{
							"internalType": "uint256",
							"name": "",
							"type": "uint256"
						}
					],
					"name": "proposals",
					"outputs": [
						{
							"internalType": "bytes32",
							"name": "name",
							"type": "bytes32"
						},
						{
							"internalType": "uint256",
							"name": "voteCount",
							"type": "uint256"
						}
					],
					"stateMutability": "view",
					"type": "function"
				},
				{
					"inputs": [],
					"name": "test",
					"outputs": [],
					"stateMutability": "nonpayable",
					"type": "function"
				},
				{
					"inputs": [],
					"name": "twitt",
					"outputs": [
						{
							"internalType": "contract IERC20",
							"name": "",
							"type": "address"
						}
					],
					"stateMutability": "view",
					"type": "function"
				},
				{
					"inputs": [
						{
							"internalType": "uint256",
							"name": "proposal",
							"type": "uint256"
						}
					],
					"name": "vote",
					"outputs": [],
					"stateMutability": "nonpayable",
					"type": "function"
				},
				{
					"inputs": [
						{
							"internalType": "address",
							"name": "",
							"type": "address"
						}
					],
					"name": "voters",
					"outputs": [
						{
							"internalType": "uint256",
							"name": "weight",
							"type": "uint256"
						},
						{
							"internalType": "bool",
							"name": "voted",
							"type": "bool"
						},
						{
							"internalType": "uint256",
							"name": "vote",
							"type": "uint256"
						}
					],
					"stateMutability": "view",
					"type": "function"
				},
				{
					"inputs": [],
					"name": "winnerName",
					"outputs": [
						{
							"internalType": "bytes32",
							"name": "winnerName_",
							"type": "bytes32"
						}
					],
					"stateMutability": "view",
					"type": "function"
				},
				{
					"inputs": [],
					"name": "winningProposal",
					"outputs": [
						{
							"internalType": "uint256",
							"name": "winningProposal_",
							"type": "uint256"
						}
					],
					"stateMutability": "view",
					"type": "function"
				}
			],
			"devdoc": {
				"kind": "dev",
				"methods": {
					"winningProposal()": {
						"details": "Computes the winning proposal taking all previous votes into account."
					}
				},
				"title": "Voting with delegation.",
				"version": 1
			},
			"evm": {
				"assembly": "    /* \"contract-71ad24318f.sol\":160:2845  contract BallotBox {... */\n  mstore(0x40, 0x80)\n    /* \"contract-71ad24318f.sol\":1425:1493  constructor(address  _twitt) {... */\n  callvalue\n  dup1\n  iszero\n  tag_1\n  jumpi\n  0x00\n  dup1\n  revert\ntag_1:\n  pop\n  mload(0x40)\n  sub(codesize, bytecodeSize)\n  dup1\n  bytecodeSize\n  dup4\n  codecopy\n  dup2\n  dup2\n  add\n  0x40\n  mstore\n  dup2\n  add\n  swap1\n  tag_2\n  swap2\n  swap1\n  tag_3\n  jump\t// in\ntag_2:\n    /* \"contract-71ad24318f.sol\":1479:1485  _twitt */\n  dup1\n    /* \"contract-71ad24318f.sol\":1464:1469  twitt */\n  0x00\n  dup1\n    /* \"contract-71ad24318f.sol\":1464:1486  twitt = IERC20(_twitt) */\n  0x0100\n  exp\n  dup2\n  sload\n  dup2\n  0xffffffffffffffffffffffffffffffffffffffff\n  mul\n  not\n  and\n  swap1\n  dup4\n  0xffffffffffffffffffffffffffffffffffffffff\n  and\n  mul\n  or\n  swap1\n  sstore\n  pop\n    /* \"contract-71ad24318f.sol\":1425:1493  constructor(address  _twitt) {... */\n  pop\n    /* \"contract-71ad24318f.sol\":160:2845  contract BallotBox {... */\n  jump(tag_6)\n    /* \"#utility.yul\":88:205   */\ntag_8:\n    /* \"#utility.yul\":197:198   */\n  0x00\n    /* \"#utility.yul\":194:195   */\n  dup1\n    /* \"#utility.yul\":187:199   */\n  revert\n    /* \"#utility.yul\":334:460   */\ntag_10:\n    /* \"#utility.yul\":371:378   */\n  0x00\n    /* \"#utility.yul\":411:453   */\n  0xffffffffffffffffffffffffffffffffffffffff\n    /* \"#utility.yul\":404:409   */\n  dup3\n    /* \"#utility.yul\":400:454   */\n  and\n    /* \"#utility.yul\":389:454   */\n  swap1\n  pop\n    /* \"#utility.yul\":334:460   */\n  swap2\n  swap1\n  pop\n  jump\t// out\n    /* \"#utility.yul\":466:562   */\ntag_11:\n    /* \"#utility.yul\":503:510   */\n  0x00\n    /* \"#utility.yul\":532:556   */\n  tag_20\n    /* \"#utility.yul\":550:555   */\n  dup3\n    /* \"#utility.yul\":532:556   */\n  tag_10\n  jump\t// in\ntag_20:\n    /* \"#utility.yul\":521:556   */\n  swap1\n  pop\n    /* \"#utility.yul\":466:562   */\n  swap2\n  swap1\n  pop\n  jump\t// out\n    /* \"#utility.yul\":568:690   */\ntag_12:\n    /* \"#utility.yul\":641:665   */\n  tag_22\n    /* \"#utility.yul\":659:664   */\n  dup2\n    /* \"#utility.yul\":641:665   */\n  tag_11\n  jump\t// in\ntag_22:\n    /* \"#utility.yul\":634:639   */\n  dup2\n    /* \"#utility.yul\":631:666   */\n  eq\n    /* \"#utility.yul\":621:684   */\n  tag_23\n  jumpi\n    /* \"#utility.yul\":680:681   */\n  0x00\n    /* \"#utility.yul\":677:678   */\n  dup1\n    /* \"#utility.yul\":670:682   */\n  revert\n    /* \"#utility.yul\":621:684   */\ntag_23:\n    /* \"#utility.yul\":568:690   */\n  pop\n  jump\t// out\n    /* \"#utility.yul\":696:839   */\ntag_13:\n    /* \"#utility.yul\":753:758   */\n  0x00\n    /* \"#utility.yul\":784:790   */\n  dup2\n    /* \"#utility.yul\":778:791   */\n  mload\n    /* \"#utility.yul\":769:791   */\n  swap1\n  pop\n    /* \"#utility.yul\":800:833   */\n  tag_25\n    /* \"#utility.yul\":827:832   */\n  dup2\n    /* \"#utility.yul\":800:833   */\n  tag_12\n  jump\t// in\ntag_25:\n    /* \"#utility.yul\":696:839   */\n  swap3\n  swap2\n  pop\n  pop\n  jump\t// out\n    /* \"#utility.yul\":845:1196   */\ntag_3:\n    /* \"#utility.yul\":915:921   */\n  0x00\n    /* \"#utility.yul\":964:966   */\n  0x20\n    /* \"#utility.yul\":952:961   */\n  dup3\n    /* \"#utility.yul\":943:950   */\n  dup5\n    /* \"#utility.yul\":939:962   */\n  sub\n    /* \"#utility.yul\":935:967   */\n  slt\n    /* \"#utility.yul\":932:1051   */\n  iszero\n  tag_27\n  jumpi\n    /* \"#utility.yul\":970:1049   */\n  tag_28\n  tag_8\n  jump\t// in\ntag_28:\n    /* \"#utility.yul\":932:1051   */\ntag_27:\n    /* \"#utility.yul\":1090:1091   */\n  0x00\n    /* \"#utility.yul\":1115:1179   */\n  tag_29\n    /* \"#utility.yul\":1171:1178   */\n  dup5\n    /* \"#utility.yul\":1162:1168   */\n  dup3\n    /* \"#utility.yul\":1151:1160   */\n  dup6\n    /* \"#utility.yul\":1147:1169   */\n  add\n    /* \"#utility.yul\":1115:1179   */\n  tag_13\n  jump\t// in\ntag_29:\n    /* \"#utility.yul\":1105:1179   */\n  swap2\n  pop\n    /* \"#utility.yul\":1061:1189   */\n  pop\n    /* \"#utility.yul\":845:1196   */\n  swap3\n  swap2\n  pop\n  pop\n  jump\t// out\n    /* \"contract-71ad24318f.sol\":160:2845  contract BallotBox {... */\ntag_6:\n  dataSize(sub_0)\n  dup1\n  dataOffset(sub_0)\n  0x00\n  codecopy\n  0x00\n  return\nstop\n\nsub_0: assembly {\n        /* \"contract-71ad24318f.sol\":160:2845  contract BallotBox {... */\n      mstore(0x40, 0x80)\n      callvalue\n      dup1\n      iszero\n      tag_1\n      jumpi\n      0x00\n      dup1\n      revert\n    tag_1:\n      pop\n      jumpi(tag_2, lt(calldatasize, 0x04))\n      shr(0xe0, calldataload(0x00))\n      dup1\n      0x609ff1bd\n      gt\n      tag_10\n      jumpi\n      dup1\n      0x609ff1bd\n      eq\n      tag_6\n      jumpi\n      dup1\n      0xa3ec138d\n      eq\n      tag_7\n      jumpi\n      dup1\n      0xe2ba53f0\n      eq\n      tag_8\n      jumpi\n      dup1\n      0xf8a8fd6d\n      eq\n      tag_9\n      jumpi\n      jump(tag_2)\n    tag_10:\n      dup1\n      0x0121b93f\n      eq\n      tag_3\n      jumpi\n      dup1\n      0x013cf08b\n      eq\n      tag_4\n      jumpi\n      dup1\n      0x49e0335f\n      eq\n      tag_5\n      jumpi\n    tag_2:\n      0x00\n      dup1\n      revert\n        /* \"contract-71ad24318f.sol\":1611:2071  function vote(uint proposal) external {... */\n    tag_3:\n      tag_11\n      0x04\n      dup1\n      calldatasize\n      sub\n      dup2\n      add\n      swap1\n      tag_12\n      swap2\n      swap1\n      tag_13\n      jump\t// in\n    tag_12:\n      tag_14\n      jump\t// in\n    tag_11:\n      stop\n        /* \"contract-71ad24318f.sol\":1329:1356  Proposal[] public proposals */\n    tag_4:\n      tag_15\n      0x04\n      dup1\n      calldatasize\n      sub\n      dup2\n      add\n      swap1\n      tag_16\n      swap2\n      swap1\n      tag_13\n      jump\t// in\n    tag_16:\n      tag_17\n      jump\t// in\n    tag_15:\n      mload(0x40)\n      tag_18\n      swap3\n      swap2\n      swap1\n      tag_19\n      jump\t// in\n    tag_18:\n      mload(0x40)\n      dup1\n      swap2\n      sub\n      swap1\n      return\n        /* \"contract-71ad24318f.sol\":313:332  IERC20 public twitt */\n    tag_5:\n      tag_20\n      tag_21\n      jump\t// in\n    tag_20:\n      mload(0x40)\n      tag_22\n      swap2\n      swap1\n      tag_23\n      jump\t// in\n    tag_22:\n      mload(0x40)\n      dup1\n      swap2\n      sub\n      swap1\n      return\n        /* \"contract-71ad24318f.sol\":2168:2533  function winningProposal() public view... */\n    tag_6:\n      tag_24\n      tag_25\n      jump\t// in\n    tag_24:\n      mload(0x40)\n      tag_26\n      swap2\n      swap1\n      tag_27\n      jump\t// in\n    tag_26:\n      mload(0x40)\n      dup1\n      swap2\n      sub\n      swap1\n      return\n        /* \"contract-71ad24318f.sol\":1227:1266  mapping(address => Voter) public voters */\n    tag_7:\n      tag_28\n      0x04\n      dup1\n      calldatasize\n      sub\n      dup2\n      add\n      swap1\n      tag_29\n      swap2\n      swap1\n      tag_30\n      jump\t// in\n    tag_29:\n      tag_31\n      jump\t// in\n    tag_28:\n      mload(0x40)\n      tag_32\n      swap4\n      swap3\n      swap2\n      swap1\n      tag_33\n      jump\t// in\n    tag_32:\n      mload(0x40)\n      dup1\n      swap2\n      sub\n      swap1\n      return\n        /* \"contract-71ad24318f.sol\":2697:2843  function winnerName() external view... */\n    tag_8:\n      tag_34\n      tag_35\n      jump\t// in\n    tag_34:\n      mload(0x40)\n      tag_36\n      swap2\n      swap1\n      tag_37\n      jump\t// in\n    tag_36:\n      mload(0x40)\n      dup1\n      swap2\n      sub\n      swap1\n      return\n        /* \"contract-71ad24318f.sol\":657:738  function test() public {... */\n    tag_9:\n      tag_38\n      tag_39\n      jump\t// in\n    tag_38:\n      stop\n        /* \"contract-71ad24318f.sol\":1611:2071  function vote(uint proposal) external {... */\n    tag_14:\n        /* \"contract-71ad24318f.sol\":1659:1679  Voter storage sender */\n      0x00\n        /* \"contract-71ad24318f.sol\":1682:1688  voters */\n      0x01\n        /* \"contract-71ad24318f.sol\":1682:1700  voters[msg.sender] */\n      0x00\n        /* \"contract-71ad24318f.sol\":1689:1699  msg.sender */\n      caller\n        /* \"contract-71ad24318f.sol\":1682:1700  voters[msg.sender] */\n      0xffffffffffffffffffffffffffffffffffffffff\n      and\n      0xffffffffffffffffffffffffffffffffffffffff\n      and\n      dup2\n      mstore\n      0x20\n      add\n      swap1\n      dup2\n      mstore\n      0x20\n      add\n      0x00\n      keccak256\n        /* \"contract-71ad24318f.sol\":1659:1700  Voter storage sender = voters[msg.sender] */\n      swap1\n      pop\n        /* \"contract-71ad24318f.sol\":1735:1736  0 */\n      0x00\n        /* \"contract-71ad24318f.sol\":1718:1724  sender */\n      dup2\n        /* \"contract-71ad24318f.sol\":1718:1731  sender.weight */\n      0x00\n      add\n      sload\n        /* \"contract-71ad24318f.sol\":1718:1736  sender.weight != 0 */\n      sub\n        /* \"contract-71ad24318f.sol\":1710:1761  require(sender.weight != 0, \"Has no right to vote\") */\n      tag_41\n      jumpi\n      mload(0x40)\n      0x08c379a000000000000000000000000000000000000000000000000000000000\n      dup2\n      mstore\n      0x04\n      add\n      tag_42\n      swap1\n      tag_43\n      jump\t// in\n    tag_42:\n      mload(0x40)\n      dup1\n      swap2\n      sub\n      swap1\n      revert\n    tag_41:\n        /* \"contract-71ad24318f.sol\":1780:1786  sender */\n      dup1\n        /* \"contract-71ad24318f.sol\":1780:1792  sender.voted */\n      0x01\n      add\n      0x00\n      swap1\n      sload\n      swap1\n      0x0100\n      exp\n      swap1\n      div\n      0xff\n      and\n        /* \"contract-71ad24318f.sol\":1779:1792  !sender.voted */\n      iszero\n        /* \"contract-71ad24318f.sol\":1771:1811  require(!sender.voted, \"Already voted.\") */\n      tag_44\n      jumpi\n      mload(0x40)\n      0x08c379a000000000000000000000000000000000000000000000000000000000\n      dup2\n      mstore\n      0x04\n      add\n      tag_45\n      swap1\n      tag_46\n      jump\t// in\n    tag_45:\n      mload(0x40)\n      dup1\n      swap2\n      sub\n      swap1\n      revert\n    tag_44:\n        /* \"contract-71ad24318f.sol\":1836:1840  true */\n      0x01\n        /* \"contract-71ad24318f.sol\":1821:1827  sender */\n      dup2\n        /* \"contract-71ad24318f.sol\":1821:1833  sender.voted */\n      0x01\n      add\n      0x00\n        /* \"contract-71ad24318f.sol\":1821:1840  sender.voted = true */\n      0x0100\n      exp\n      dup2\n      sload\n      dup2\n      0xff\n      mul\n      not\n      and\n      swap1\n      dup4\n      iszero\n      iszero\n      mul\n      or\n      swap1\n      sstore\n      pop\n        /* \"contract-71ad24318f.sol\":1864:1872  proposal */\n      dup2\n        /* \"contract-71ad24318f.sol\":1850:1856  sender */\n      dup2\n        /* \"contract-71ad24318f.sol\":1850:1861  sender.vote */\n      0x02\n      add\n        /* \"contract-71ad24318f.sol\":1850:1872  sender.vote = proposal */\n      dup2\n      swap1\n      sstore\n      pop\n        /* \"contract-71ad24318f.sol\":2051:2057  sender */\n      dup1\n        /* \"contract-71ad24318f.sol\":2051:2064  sender.weight */\n      0x00\n      add\n      sload\n        /* \"contract-71ad24318f.sol\":2018:2027  proposals */\n      0x02\n        /* \"contract-71ad24318f.sol\":2028:2036  proposal */\n      dup4\n        /* \"contract-71ad24318f.sol\":2018:2037  proposals[proposal] */\n      dup2\n      sload\n      dup2\n      lt\n      tag_47\n      jumpi\n      tag_48\n      tag_49\n      jump\t// in\n    tag_48:\n    tag_47:\n      swap1\n      0x00\n      mstore\n      keccak256(0x00, 0x20)\n      swap1\n      0x02\n      mul\n      add\n        /* \"contract-71ad24318f.sol\":2018:2047  proposals[proposal].voteCount */\n      0x01\n      add\n      0x00\n        /* \"contract-71ad24318f.sol\":2018:2064  proposals[proposal].voteCount += sender.weight */\n      dup3\n      dup3\n      sload\n      tag_51\n      swap2\n      swap1\n      tag_52\n      jump\t// in\n    tag_51:\n      swap3\n      pop\n      pop\n      dup2\n      swap1\n      sstore\n      pop\n        /* \"contract-71ad24318f.sol\":1649:2071  {... */\n      pop\n        /* \"contract-71ad24318f.sol\":1611:2071  function vote(uint proposal) external {... */\n      pop\n      jump\t// out\n        /* \"contract-71ad24318f.sol\":1329:1356  Proposal[] public proposals */\n    tag_17:\n      0x02\n      dup2\n      dup2\n      sload\n      dup2\n      lt\n      tag_53\n      jumpi\n      0x00\n      dup1\n      revert\n    tag_53:\n      swap1\n      0x00\n      mstore\n      keccak256(0x00, 0x20)\n      swap1\n      0x02\n      mul\n      add\n      0x00\n      swap2\n      pop\n      swap1\n      pop\n      dup1\n      0x00\n      add\n      sload\n      swap1\n      dup1\n      0x01\n      add\n      sload\n      swap1\n      pop\n      dup3\n      jump\t// out\n        /* \"contract-71ad24318f.sol\":313:332  IERC20 public twitt */\n    tag_21:\n      0x00\n      dup1\n      sload\n      swap1\n      0x0100\n      exp\n      swap1\n      div\n      0xffffffffffffffffffffffffffffffffffffffff\n      and\n      dup2\n      jump\t// out\n        /* \"contract-71ad24318f.sol\":2168:2533  function winningProposal() public view... */\n    tag_25:\n        /* \"contract-71ad24318f.sol\":2228:2249  uint winningProposal_ */\n      0x00\n        /* \"contract-71ad24318f.sol\":2265:2286  uint winningVoteCount */\n      dup1\n        /* \"contract-71ad24318f.sol\":2289:2290  0 */\n      0x00\n        /* \"contract-71ad24318f.sol\":2265:2290  uint winningVoteCount = 0 */\n      swap1\n      pop\n        /* \"contract-71ad24318f.sol\":2305:2311  uint p */\n      0x00\n        /* \"contract-71ad24318f.sol\":2300:2527  for (uint p = 0; p < proposals.length; p++) {... */\n    tag_56:\n        /* \"contract-71ad24318f.sol\":2321:2330  proposals */\n      0x02\n        /* \"contract-71ad24318f.sol\":2321:2337  proposals.length */\n      dup1\n      sload\n      swap1\n      pop\n        /* \"contract-71ad24318f.sol\":2317:2318  p */\n      dup2\n        /* \"contract-71ad24318f.sol\":2317:2337  p < proposals.length */\n      lt\n        /* \"contract-71ad24318f.sol\":2300:2527  for (uint p = 0; p < proposals.length; p++) {... */\n      iszero\n      tag_57\n      jumpi\n        /* \"contract-71ad24318f.sol\":2387:2403  winningVoteCount */\n      dup2\n        /* \"contract-71ad24318f.sol\":2362:2371  proposals */\n      0x02\n        /* \"contract-71ad24318f.sol\":2372:2373  p */\n      dup3\n        /* \"contract-71ad24318f.sol\":2362:2374  proposals[p] */\n      dup2\n      sload\n      dup2\n      lt\n      tag_59\n      jumpi\n      tag_60\n      tag_49\n      jump\t// in\n    tag_60:\n    tag_59:\n      swap1\n      0x00\n      mstore\n      keccak256(0x00, 0x20)\n      swap1\n      0x02\n      mul\n      add\n        /* \"contract-71ad24318f.sol\":2362:2384  proposals[p].voteCount */\n      0x01\n      add\n      sload\n        /* \"contract-71ad24318f.sol\":2362:2403  proposals[p].voteCount > winningVoteCount */\n      gt\n        /* \"contract-71ad24318f.sol\":2358:2517  if (proposals[p].voteCount > winningVoteCount) {... */\n      iszero\n      tag_62\n      jumpi\n        /* \"contract-71ad24318f.sol\":2442:2451  proposals */\n      0x02\n        /* \"contract-71ad24318f.sol\":2452:2453  p */\n      dup2\n        /* \"contract-71ad24318f.sol\":2442:2454  proposals[p] */\n      dup2\n      sload\n      dup2\n      lt\n      tag_63\n      jumpi\n      tag_64\n      tag_49\n      jump\t// in\n    tag_64:\n    tag_63:\n      swap1\n      0x00\n      mstore\n      keccak256(0x00, 0x20)\n      swap1\n      0x02\n      mul\n      add\n        /* \"contract-71ad24318f.sol\":2442:2464  proposals[p].voteCount */\n      0x01\n      add\n      sload\n        /* \"contract-71ad24318f.sol\":2423:2464  winningVoteCount = proposals[p].voteCount */\n      swap2\n      pop\n        /* \"contract-71ad24318f.sol\":2501:2502  p */\n      dup1\n        /* \"contract-71ad24318f.sol\":2482:2502  winningProposal_ = p */\n      swap3\n      pop\n        /* \"contract-71ad24318f.sol\":2358:2517  if (proposals[p].voteCount > winningVoteCount) {... */\n    tag_62:\n        /* \"contract-71ad24318f.sol\":2339:2342  p++ */\n      dup1\n      dup1\n      tag_66\n      swap1\n      tag_67\n      jump\t// in\n    tag_66:\n      swap2\n      pop\n      pop\n        /* \"contract-71ad24318f.sol\":2300:2527  for (uint p = 0; p < proposals.length; p++) {... */\n      jump(tag_56)\n    tag_57:\n      pop\n        /* \"contract-71ad24318f.sol\":2255:2533  {... */\n      pop\n        /* \"contract-71ad24318f.sol\":2168:2533  function winningProposal() public view... */\n      swap1\n      jump\t// out\n        /* \"contract-71ad24318f.sol\":1227:1266  mapping(address => Voter) public voters */\n    tag_31:\n      mstore(0x20, 0x01)\n      dup1\n      0x00\n      mstore\n      keccak256(0x00, 0x40)\n      0x00\n      swap2\n      pop\n      swap1\n      pop\n      dup1\n      0x00\n      add\n      sload\n      swap1\n      dup1\n      0x01\n      add\n      0x00\n      swap1\n      sload\n      swap1\n      0x0100\n      exp\n      swap1\n      div\n      0xff\n      and\n      swap1\n      dup1\n      0x02\n      add\n      sload\n      swap1\n      pop\n      dup4\n      jump\t// out\n        /* \"contract-71ad24318f.sol\":2697:2843  function winnerName() external view... */\n    tag_35:\n        /* \"contract-71ad24318f.sol\":2754:2773  bytes32 winnerName_ */\n      0x00\n        /* \"contract-71ad24318f.sol\":2803:2812  proposals */\n      0x02\n        /* \"contract-71ad24318f.sol\":2813:2830  winningProposal() */\n      tag_69\n        /* \"contract-71ad24318f.sol\":2813:2828  winningProposal */\n      tag_25\n        /* \"contract-71ad24318f.sol\":2813:2830  winningProposal() */\n      jump\t// in\n    tag_69:\n        /* \"contract-71ad24318f.sol\":2803:2831  proposals[winningProposal()] */\n      dup2\n      sload\n      dup2\n      lt\n      tag_70\n      jumpi\n      tag_71\n      tag_49\n      jump\t// in\n    tag_71:\n    tag_70:\n      swap1\n      0x00\n      mstore\n      keccak256(0x00, 0x20)\n      swap1\n      0x02\n      mul\n      add\n        /* \"contract-71ad24318f.sol\":2803:2836  proposals[winningProposal()].name */\n      0x00\n      add\n      sload\n        /* \"contract-71ad24318f.sol\":2789:2836  winnerName_ = proposals[winningProposal()].name */\n      swap1\n      pop\n        /* \"contract-71ad24318f.sol\":2697:2843  function winnerName() external view... */\n      swap1\n      jump\t// out\n        /* \"contract-71ad24318f.sol\":657:738  function test() public {... */\n    tag_39:\n        /* \"contract-71ad24318f.sol\":695:731  balncer(twitt.balanceOf(msg.sender)) */\n      0x0eb9f2c7847c327566a2cffcd0cc9edbc0d5b763e17989a09b04e8945a1a1e56\n        /* \"contract-71ad24318f.sol\":703:708  twitt */\n      0x00\n      dup1\n      sload\n      swap1\n      0x0100\n      exp\n      swap1\n      div\n      0xffffffffffffffffffffffffffffffffffffffff\n      and\n        /* \"contract-71ad24318f.sol\":703:718  twitt.balanceOf */\n      0xffffffffffffffffffffffffffffffffffffffff\n      and\n      0x70a08231\n        /* \"contract-71ad24318f.sol\":719:729  msg.sender */\n      caller\n        /* \"contract-71ad24318f.sol\":703:730  twitt.balanceOf(msg.sender) */\n      mload(0x40)\n      dup3\n      0xffffffff\n      and\n      0xe0\n      shl\n      dup2\n      mstore\n      0x04\n      add\n      tag_74\n      swap2\n      swap1\n      tag_75\n      jump\t// in\n    tag_74:\n      0x20\n      mload(0x40)\n      dup1\n      dup4\n      sub\n      dup2\n      dup7\n      gas\n      staticcall\n      iszero\n      dup1\n      iszero\n      tag_77\n      jumpi\n      returndatasize\n      0x00\n      dup1\n      returndatacopy\n      revert(0x00, returndatasize)\n    tag_77:\n      pop\n      pop\n      pop\n      pop\n      mload(0x40)\n      returndatasize\n      not(0x1f)\n      0x1f\n      dup3\n      add\n      and\n      dup3\n      add\n      dup1\n      0x40\n      mstore\n      pop\n      dup2\n      add\n      swap1\n      tag_78\n      swap2\n      swap1\n      tag_79\n      jump\t// in\n    tag_78:\n        /* \"contract-71ad24318f.sol\":695:731  balncer(twitt.balanceOf(msg.sender)) */\n      mload(0x40)\n      tag_80\n      swap2\n      swap1\n      tag_27\n      jump\t// in\n    tag_80:\n      mload(0x40)\n      dup1\n      swap2\n      sub\n      swap1\n      log1\n        /* \"contract-71ad24318f.sol\":657:738  function test() public {... */\n      jump\t// out\n        /* \"#utility.yul\":88:205   */\n    tag_82:\n        /* \"#utility.yul\":197:198   */\n      0x00\n        /* \"#utility.yul\":194:195   */\n      dup1\n        /* \"#utility.yul\":187:199   */\n      revert\n        /* \"#utility.yul\":334:411   */\n    tag_84:\n        /* \"#utility.yul\":371:378   */\n      0x00\n        /* \"#utility.yul\":400:405   */\n      dup2\n        /* \"#utility.yul\":389:405   */\n      swap1\n      pop\n        /* \"#utility.yul\":334:411   */\n      swap2\n      swap1\n      pop\n      jump\t// out\n        /* \"#utility.yul\":417:539   */\n    tag_85:\n        /* \"#utility.yul\":490:514   */\n      tag_115\n        /* \"#utility.yul\":508:513   */\n      dup2\n        /* \"#utility.yul\":490:514   */\n      tag_84\n      jump\t// in\n    tag_115:\n        /* \"#utility.yul\":483:488   */\n      dup2\n        /* \"#utility.yul\":480:515   */\n      eq\n        /* \"#utility.yul\":470:533   */\n      tag_116\n      jumpi\n        /* \"#utility.yul\":529:530   */\n      0x00\n        /* \"#utility.yul\":526:527   */\n      dup1\n        /* \"#utility.yul\":519:531   */\n      revert\n        /* \"#utility.yul\":470:533   */\n    tag_116:\n        /* \"#utility.yul\":417:539   */\n      pop\n      jump\t// out\n        /* \"#utility.yul\":545:684   */\n    tag_86:\n        /* \"#utility.yul\":591:596   */\n      0x00\n        /* \"#utility.yul\":629:635   */\n      dup2\n        /* \"#utility.yul\":616:636   */\n      calldataload\n        /* \"#utility.yul\":607:636   */\n      swap1\n      pop\n        /* \"#utility.yul\":645:678   */\n      tag_118\n        /* \"#utility.yul\":672:677   */\n      dup2\n        /* \"#utility.yul\":645:678   */\n      tag_85\n      jump\t// in\n    tag_118:\n        /* \"#utility.yul\":545:684   */\n      swap3\n      swap2\n      pop\n      pop\n      jump\t// out\n        /* \"#utility.yul\":690:1019   */\n    tag_13:\n        /* \"#utility.yul\":749:755   */\n      0x00\n        /* \"#utility.yul\":798:800   */\n      0x20\n        /* \"#utility.yul\":786:795   */\n      dup3\n        /* \"#utility.yul\":777:784   */\n      dup5\n        /* \"#utility.yul\":773:796   */\n      sub\n        /* \"#utility.yul\":769:801   */\n      slt\n        /* \"#utility.yul\":766:885   */\n      iszero\n      tag_120\n      jumpi\n        /* \"#utility.yul\":804:883   */\n      tag_121\n      tag_82\n      jump\t// in\n    tag_121:\n        /* \"#utility.yul\":766:885   */\n    tag_120:\n        /* \"#utility.yul\":924:925   */\n      0x00\n        /* \"#utility.yul\":949:1002   */\n      tag_122\n        /* \"#utility.yul\":994:1001   */\n      dup5\n        /* \"#utility.yul\":985:991   */\n      dup3\n        /* \"#utility.yul\":974:983   */\n      dup6\n        /* \"#utility.yul\":970:992   */\n      add\n        /* \"#utility.yul\":949:1002   */\n      tag_86\n      jump\t// in\n    tag_122:\n        /* \"#utility.yul\":939:1002   */\n      swap2\n      pop\n        /* \"#utility.yul\":895:1012   */\n      pop\n        /* \"#utility.yul\":690:1019   */\n      swap3\n      swap2\n      pop\n      pop\n      jump\t// out\n        /* \"#utility.yul\":1025:1102   */\n    tag_87:\n        /* \"#utility.yul\":1062:1069   */\n      0x00\n        /* \"#utility.yul\":1091:1096   */\n      dup2\n        /* \"#utility.yul\":1080:1096   */\n      swap1\n      pop\n        /* \"#utility.yul\":1025:1102   */\n      swap2\n      swap1\n      pop\n      jump\t// out\n        /* \"#utility.yul\":1108:1226   */\n    tag_88:\n        /* \"#utility.yul\":1195:1219   */\n      tag_125\n        /* \"#utility.yul\":1213:1218   */\n      dup2\n        /* \"#utility.yul\":1195:1219   */\n      tag_87\n      jump\t// in\n    tag_125:\n        /* \"#utility.yul\":1190:1193   */\n      dup3\n        /* \"#utility.yul\":1183:1220   */\n      mstore\n        /* \"#utility.yul\":1108:1226   */\n      pop\n      pop\n      jump\t// out\n        /* \"#utility.yul\":1232:1350   */\n    tag_89:\n        /* \"#utility.yul\":1319:1343   */\n      tag_127\n        /* \"#utility.yul\":1337:1342   */\n      dup2\n        /* \"#utility.yul\":1319:1343   */\n      tag_84\n      jump\t// in\n    tag_127:\n        /* \"#utility.yul\":1314:1317   */\n      dup3\n        /* \"#utility.yul\":1307:1344   */\n      mstore\n        /* \"#utility.yul\":1232:1350   */\n      pop\n      pop\n      jump\t// out\n        /* \"#utility.yul\":1356:1688   */\n    tag_19:\n        /* \"#utility.yul\":1477:1481   */\n      0x00\n        /* \"#utility.yul\":1515:1517   */\n      0x40\n        /* \"#utility.yul\":1504:1513   */\n      dup3\n        /* \"#utility.yul\":1500:1518   */\n      add\n        /* \"#utility.yul\":1492:1518   */\n      swap1\n      pop\n        /* \"#utility.yul\":1528:1599   */\n      tag_129\n        /* \"#utility.yul\":1596:1597   */\n      0x00\n        /* \"#utility.yul\":1585:1594   */\n      dup4\n        /* \"#utility.yul\":1581:1598   */\n      add\n        /* \"#utility.yul\":1572:1578   */\n      dup6\n        /* \"#utility.yul\":1528:1599   */\n      tag_88\n      jump\t// in\n    tag_129:\n        /* \"#utility.yul\":1609:1681   */\n      tag_130\n        /* \"#utility.yul\":1677:1679   */\n      0x20\n        /* \"#utility.yul\":1666:1675   */\n      dup4\n        /* \"#utility.yul\":1662:1680   */\n      add\n        /* \"#utility.yul\":1653:1659   */\n      dup5\n        /* \"#utility.yul\":1609:1681   */\n      tag_89\n      jump\t// in\n    tag_130:\n        /* \"#utility.yul\":1356:1688   */\n      swap4\n      swap3\n      pop\n      pop\n      pop\n      jump\t// out\n        /* \"#utility.yul\":1694:1820   */\n    tag_90:\n        /* \"#utility.yul\":1731:1738   */\n      0x00\n        /* \"#utility.yul\":1771:1813   */\n      0xffffffffffffffffffffffffffffffffffffffff\n        /* \"#utility.yul\":1764:1769   */\n      dup3\n        /* \"#utility.yul\":1760:1814   */\n      and\n        /* \"#utility.yul\":1749:1814   */\n      swap1\n      pop\n        /* \"#utility.yul\":1694:1820   */\n      swap2\n      swap1\n      pop\n      jump\t// out\n        /* \"#utility.yul\":1826:1886   */\n    tag_91:\n        /* \"#utility.yul\":1854:1857   */\n      0x00\n        /* \"#utility.yul\":1875:1880   */\n      dup2\n        /* \"#utility.yul\":1868:1880   */\n      swap1\n      pop\n        /* \"#utility.yul\":1826:1886   */\n      swap2\n      swap1\n      pop\n      jump\t// out\n        /* \"#utility.yul\":1892:2034   */\n    tag_92:\n        /* \"#utility.yul\":1942:1951   */\n      0x00\n        /* \"#utility.yul\":1975:2028   */\n      tag_134\n        /* \"#utility.yul\":1993:2027   */\n      tag_135\n        /* \"#utility.yul\":2002:2026   */\n      tag_136\n        /* \"#utility.yul\":2020:2025   */\n      dup5\n        /* \"#utility.yul\":2002:2026   */\n      tag_90\n      jump\t// in\n    tag_136:\n        /* \"#utility.yul\":1993:2027   */\n      tag_91\n      jump\t// in\n    tag_135:\n        /* \"#utility.yul\":1975:2028   */\n      tag_90\n      jump\t// in\n    tag_134:\n        /* \"#utility.yul\":1962:2028   */\n      swap1\n      pop\n        /* \"#utility.yul\":1892:2034   */\n      swap2\n      swap1\n      pop\n      jump\t// out\n        /* \"#utility.yul\":2040:2166   */\n    tag_93:\n        /* \"#utility.yul\":2090:2099   */\n      0x00\n        /* \"#utility.yul\":2123:2160   */\n      tag_138\n        /* \"#utility.yul\":2154:2159   */\n      dup3\n        /* \"#utility.yul\":2123:2160   */\n      tag_92\n      jump\t// in\n    tag_138:\n        /* \"#utility.yul\":2110:2160   */\n      swap1\n      pop\n        /* \"#utility.yul\":2040:2166   */\n      swap2\n      swap1\n      pop\n      jump\t// out\n        /* \"#utility.yul\":2172:2311   */\n    tag_94:\n        /* \"#utility.yul\":2235:2244   */\n      0x00\n        /* \"#utility.yul\":2268:2305   */\n      tag_140\n        /* \"#utility.yul\":2299:2304   */\n      dup3\n        /* \"#utility.yul\":2268:2305   */\n      tag_93\n      jump\t// in\n    tag_140:\n        /* \"#utility.yul\":2255:2305   */\n      swap1\n      pop\n        /* \"#utility.yul\":2172:2311   */\n      swap2\n      swap1\n      pop\n      jump\t// out\n        /* \"#utility.yul\":2317:2474   */\n    tag_95:\n        /* \"#utility.yul\":2417:2467   */\n      tag_142\n        /* \"#utility.yul\":2461:2466   */\n      dup2\n        /* \"#utility.yul\":2417:2467   */\n      tag_94\n      jump\t// in\n    tag_142:\n        /* \"#utility.yul\":2412:2415   */\n      dup3\n        /* \"#utility.yul\":2405:2468   */\n      mstore\n        /* \"#utility.yul\":2317:2474   */\n      pop\n      pop\n      jump\t// out\n        /* \"#utility.yul\":2480:2728   */\n    tag_23:\n        /* \"#utility.yul\":2586:2590   */\n      0x00\n        /* \"#utility.yul\":2624:2626   */\n      0x20\n        /* \"#utility.yul\":2613:2622   */\n      dup3\n        /* \"#utility.yul\":2609:2627   */\n      add\n        /* \"#utility.yul\":2601:2627   */\n      swap1\n      pop\n        /* \"#utility.yul\":2637:2721   */\n      tag_144\n        /* \"#utility.yul\":2718:2719   */\n      0x00\n        /* \"#utility.yul\":2707:2716   */\n      dup4\n        /* \"#utility.yul\":2703:2720   */\n      add\n        /* \"#utility.yul\":2694:2700   */\n      dup5\n        /* \"#utility.yul\":2637:2721   */\n      tag_95\n      jump\t// in\n    tag_144:\n        /* \"#utility.yul\":2480:2728   */\n      swap3\n      swap2\n      pop\n      pop\n      jump\t// out\n        /* \"#utility.yul\":2734:2956   */\n    tag_27:\n        /* \"#utility.yul\":2827:2831   */\n      0x00\n        /* \"#utility.yul\":2865:2867   */\n      0x20\n        /* \"#utility.yul\":2854:2863   */\n      dup3\n        /* \"#utility.yul\":2850:2868   */\n      add\n        /* \"#utility.yul\":2842:2868   */\n      swap1\n      pop\n        /* \"#utility.yul\":2878:2949   */\n      tag_146\n        /* \"#utility.yul\":2946:2947   */\n      0x00\n        /* \"#utility.yul\":2935:2944   */\n      dup4\n        /* \"#utility.yul\":2931:2948   */\n      add\n        /* \"#utility.yul\":2922:2928   */\n      dup5\n        /* \"#utility.yul\":2878:2949   */\n      tag_89\n      jump\t// in\n    tag_146:\n        /* \"#utility.yul\":2734:2956   */\n      swap3\n      swap2\n      pop\n      pop\n      jump\t// out\n        /* \"#utility.yul\":2962:3058   */\n    tag_96:\n        /* \"#utility.yul\":2999:3006   */\n      0x00\n        /* \"#utility.yul\":3028:3052   */\n      tag_148\n        /* \"#utility.yul\":3046:3051   */\n      dup3\n        /* \"#utility.yul\":3028:3052   */\n      tag_90\n      jump\t// in\n    tag_148:\n        /* \"#utility.yul\":3017:3052   */\n      swap1\n      pop\n        /* \"#utility.yul\":2962:3058   */\n      swap2\n      swap1\n      pop\n      jump\t// out\n        /* \"#utility.yul\":3064:3186   */\n    tag_97:\n        /* \"#utility.yul\":3137:3161   */\n      tag_150\n        /* \"#utility.yul\":3155:3160   */\n      dup2\n        /* \"#utility.yul\":3137:3161   */\n      tag_96\n      jump\t// in\n    tag_150:\n        /* \"#utility.yul\":3130:3135   */\n      dup2\n        /* \"#utility.yul\":3127:3162   */\n      eq\n        /* \"#utility.yul\":3117:3180   */\n      tag_151\n      jumpi\n        /* \"#utility.yul\":3176:3177   */\n      0x00\n        /* \"#utility.yul\":3173:3174   */\n      dup1\n        /* \"#utility.yul\":3166:3178   */\n      revert\n        /* \"#utility.yul\":3117:3180   */\n    tag_151:\n        /* \"#utility.yul\":3064:3186   */\n      pop\n      jump\t// out\n        /* \"#utility.yul\":3192:3331   */\n    tag_98:\n        /* \"#utility.yul\":3238:3243   */\n      0x00\n        /* \"#utility.yul\":3276:3282   */\n      dup2\n        /* \"#utility.yul\":3263:3283   */\n      calldataload\n        /* \"#utility.yul\":3254:3283   */\n      swap1\n      pop\n        /* \"#utility.yul\":3292:3325   */\n      tag_153\n        /* \"#utility.yul\":3319:3324   */\n      dup2\n        /* \"#utility.yul\":3292:3325   */\n      tag_97\n      jump\t// in\n    tag_153:\n        /* \"#utility.yul\":3192:3331   */\n      swap3\n      swap2\n      pop\n      pop\n      jump\t// out\n        /* \"#utility.yul\":3337:3666   */\n    tag_30:\n        /* \"#utility.yul\":3396:3402   */\n      0x00\n        /* \"#utility.yul\":3445:3447   */\n      0x20\n        /* \"#utility.yul\":3433:3442   */\n      dup3\n        /* \"#utility.yul\":3424:3431   */\n      dup5\n        /* \"#utility.yul\":3420:3443   */\n      sub\n        /* \"#utility.yul\":3416:3448   */\n      slt\n        /* \"#utility.yul\":3413:3532   */\n      iszero\n      tag_155\n      jumpi\n        /* \"#utility.yul\":3451:3530   */\n      tag_156\n      tag_82\n      jump\t// in\n    tag_156:\n        /* \"#utility.yul\":3413:3532   */\n    tag_155:\n        /* \"#utility.yul\":3571:3572   */\n      0x00\n        /* \"#utility.yul\":3596:3649   */\n      tag_157\n        /* \"#utility.yul\":3641:3648   */\n      dup5\n        /* \"#utility.yul\":3632:3638   */\n      dup3\n        /* \"#utility.yul\":3621:3630   */\n      dup6\n        /* \"#utility.yul\":3617:3639   */\n      add\n        /* \"#utility.yul\":3596:3649   */\n      tag_98\n      jump\t// in\n    tag_157:\n        /* \"#utility.yul\":3586:3649   */\n      swap2\n      pop\n        /* \"#utility.yul\":3542:3659   */\n      pop\n        /* \"#utility.yul\":3337:3666   */\n      swap3\n      swap2\n      pop\n      pop\n      jump\t// out\n        /* \"#utility.yul\":3672:3762   */\n    tag_99:\n        /* \"#utility.yul\":3706:3713   */\n      0x00\n        /* \"#utility.yul\":3749:3754   */\n      dup2\n        /* \"#utility.yul\":3742:3755   */\n      iszero\n        /* \"#utility.yul\":3735:3756   */\n      iszero\n        /* \"#utility.yul\":3724:3756   */\n      swap1\n      pop\n        /* \"#utility.yul\":3672:3762   */\n      swap2\n      swap1\n      pop\n      jump\t// out\n        /* \"#utility.yul\":3768:3877   */\n    tag_100:\n        /* \"#utility.yul\":3849:3870   */\n      tag_160\n        /* \"#utility.yul\":3864:3869   */\n      dup2\n        /* \"#utility.yul\":3849:3870   */\n      tag_99\n      jump\t// in\n    tag_160:\n        /* \"#utility.yul\":3844:3847   */\n      dup3\n        /* \"#utility.yul\":3837:3871   */\n      mstore\n        /* \"#utility.yul\":3768:3877   */\n      pop\n      pop\n      jump\t// out\n        /* \"#utility.yul\":3883:4313   */\n    tag_33:\n        /* \"#utility.yul\":4026:4030   */\n      0x00\n        /* \"#utility.yul\":4064:4066   */\n      0x60\n        /* \"#utility.yul\":4053:4062   */\n      dup3\n        /* \"#utility.yul\":4049:4067   */\n      add\n        /* \"#utility.yul\":4041:4067   */\n      swap1\n      pop\n        /* \"#utility.yul\":4077:4148   */\n      tag_162\n        /* \"#utility.yul\":4145:4146   */\n      0x00\n        /* \"#utility.yul\":4134:4143   */\n      dup4\n        /* \"#utility.yul\":4130:4147   */\n      add\n        /* \"#utility.yul\":4121:4127   */\n      dup7\n        /* \"#utility.yul\":4077:4148   */\n      tag_89\n      jump\t// in\n    tag_162:\n        /* \"#utility.yul\":4158:4224   */\n      tag_163\n        /* \"#utility.yul\":4220:4222   */\n      0x20\n        /* \"#utility.yul\":4209:4218   */\n      dup4\n        /* \"#utility.yul\":4205:4223   */\n      add\n        /* \"#utility.yul\":4196:4202   */\n      dup6\n        /* \"#utility.yul\":4158:4224   */\n      tag_100\n      jump\t// in\n    tag_163:\n        /* \"#utility.yul\":4234:4306   */\n      tag_164\n        /* \"#utility.yul\":4302:4304   */\n      0x40\n        /* \"#utility.yul\":4291:4300   */\n      dup4\n        /* \"#utility.yul\":4287:4305   */\n      add\n        /* \"#utility.yul\":4278:4284   */\n      dup5\n        /* \"#utility.yul\":4234:4306   */\n      tag_89\n      jump\t// in\n    tag_164:\n        /* \"#utility.yul\":3883:4313   */\n      swap5\n      swap4\n      pop\n      pop\n      pop\n      pop\n      jump\t// out\n        /* \"#utility.yul\":4319:4541   */\n    tag_37:\n        /* \"#utility.yul\":4412:4416   */\n      0x00\n        /* \"#utility.yul\":4450:4452   */\n      0x20\n        /* \"#utility.yul\":4439:4448   */\n      dup3\n        /* \"#utility.yul\":4435:4453   */\n      add\n        /* \"#utility.yul\":4427:4453   */\n      swap1\n      pop\n        /* \"#utility.yul\":4463:4534   */\n      tag_166\n        /* \"#utility.yul\":4531:4532   */\n      0x00\n        /* \"#utility.yul\":4520:4529   */\n      dup4\n        /* \"#utility.yul\":4516:4533   */\n      add\n        /* \"#utility.yul\":4507:4513   */\n      dup5\n        /* \"#utility.yul\":4463:4534   */\n      tag_88\n      jump\t// in\n    tag_166:\n        /* \"#utility.yul\":4319:4541   */\n      swap3\n      swap2\n      pop\n      pop\n      jump\t// out\n        /* \"#utility.yul\":4547:4716   */\n    tag_101:\n        /* \"#utility.yul\":4631:4642   */\n      0x00\n        /* \"#utility.yul\":4665:4671   */\n      dup3\n        /* \"#utility.yul\":4660:4663   */\n      dup3\n        /* \"#utility.yul\":4653:4672   */\n      mstore\n        /* \"#utility.yul\":4705:4709   */\n      0x20\n        /* \"#utility.yul\":4700:4703   */\n      dup3\n        /* \"#utility.yul\":4696:4710   */\n      add\n        /* \"#utility.yul\":4681:4710   */\n      swap1\n      pop\n        /* \"#utility.yul\":4547:4716   */\n      swap3\n      swap2\n      pop\n      pop\n      jump\t// out\n        /* \"#utility.yul\":4722:4892   */\n    tag_102:\n        /* \"#utility.yul\":4862:4884   */\n      0x486173206e6f20726967687420746f20766f7465000000000000000000000000\n        /* \"#utility.yul\":4858:4859   */\n      0x00\n        /* \"#utility.yul\":4850:4856   */\n      dup3\n        /* \"#utility.yul\":4846:4860   */\n      add\n        /* \"#utility.yul\":4839:4885   */\n      mstore\n        /* \"#utility.yul\":4722:4892   */\n      pop\n      jump\t// out\n        /* \"#utility.yul\":4898:5264   */\n    tag_103:\n        /* \"#utility.yul\":5040:5043   */\n      0x00\n        /* \"#utility.yul\":5061:5128   */\n      tag_170\n        /* \"#utility.yul\":5125:5127   */\n      0x14\n        /* \"#utility.yul\":5120:5123   */\n      dup4\n        /* \"#utility.yul\":5061:5128   */\n      tag_101\n      jump\t// in\n    tag_170:\n        /* \"#utility.yul\":5054:5128   */\n      swap2\n      pop\n        /* \"#utility.yul\":5137:5230   */\n      tag_171\n        /* \"#utility.yul\":5226:5229   */\n      dup3\n        /* \"#utility.yul\":5137:5230   */\n      tag_102\n      jump\t// in\n    tag_171:\n        /* \"#utility.yul\":5255:5257   */\n      0x20\n        /* \"#utility.yul\":5250:5253   */\n      dup3\n        /* \"#utility.yul\":5246:5258   */\n      add\n        /* \"#utility.yul\":5239:5258   */\n      swap1\n      pop\n        /* \"#utility.yul\":4898:5264   */\n      swap2\n      swap1\n      pop\n      jump\t// out\n        /* \"#utility.yul\":5270:5689   */\n    tag_43:\n        /* \"#utility.yul\":5436:5440   */\n      0x00\n        /* \"#utility.yul\":5474:5476   */\n      0x20\n        /* \"#utility.yul\":5463:5472   */\n      dup3\n        /* \"#utility.yul\":5459:5477   */\n      add\n        /* \"#utility.yul\":5451:5477   */\n      swap1\n      pop\n        /* \"#utility.yul\":5523:5532   */\n      dup2\n        /* \"#utility.yul\":5517:5521   */\n      dup2\n        /* \"#utility.yul\":5513:5533   */\n      sub\n        /* \"#utility.yul\":5509:5510   */\n      0x00\n        /* \"#utility.yul\":5498:5507   */\n      dup4\n        /* \"#utility.yul\":5494:5511   */\n      add\n        /* \"#utility.yul\":5487:5534   */\n      mstore\n        /* \"#utility.yul\":5551:5682   */\n      tag_173\n        /* \"#utility.yul\":5677:5681   */\n      dup2\n        /* \"#utility.yul\":5551:5682   */\n      tag_103\n      jump\t// in\n    tag_173:\n        /* \"#utility.yul\":5543:5682   */\n      swap1\n      pop\n        /* \"#utility.yul\":5270:5689   */\n      swap2\n      swap1\n      pop\n      jump\t// out\n        /* \"#utility.yul\":5695:5859   */\n    tag_104:\n        /* \"#utility.yul\":5835:5851   */\n      0x416c726561647920766f7465642e000000000000000000000000000000000000\n        /* \"#utility.yul\":5831:5832   */\n      0x00\n        /* \"#utility.yul\":5823:5829   */\n      dup3\n        /* \"#utility.yul\":5819:5833   */\n      add\n        /* \"#utility.yul\":5812:5852   */\n      mstore\n        /* \"#utility.yul\":5695:5859   */\n      pop\n      jump\t// out\n        /* \"#utility.yul\":5865:6231   */\n    tag_105:\n        /* \"#utility.yul\":6007:6010   */\n      0x00\n        /* \"#utility.yul\":6028:6095   */\n      tag_176\n        /* \"#utility.yul\":6092:6094   */\n      0x0e\n        /* \"#utility.yul\":6087:6090   */\n      dup4\n        /* \"#utility.yul\":6028:6095   */\n      tag_101\n      jump\t// in\n    tag_176:\n        /* \"#utility.yul\":6021:6095   */\n      swap2\n      pop\n        /* \"#utility.yul\":6104:6197   */\n      tag_177\n        /* \"#utility.yul\":6193:6196   */\n      dup3\n        /* \"#utility.yul\":6104:6197   */\n      tag_104\n      jump\t// in\n    tag_177:\n        /* \"#utility.yul\":6222:6224   */\n      0x20\n        /* \"#utility.yul\":6217:6220   */\n      dup3\n        /* \"#utility.yul\":6213:6225   */\n      add\n        /* \"#utility.yul\":6206:6225   */\n      swap1\n      pop\n        /* \"#utility.yul\":5865:6231   */\n      swap2\n      swap1\n      pop\n      jump\t// out\n        /* \"#utility.yul\":6237:6656   */\n    tag_46:\n        /* \"#utility.yul\":6403:6407   */\n      0x00\n        /* \"#utility.yul\":6441:6443   */\n      0x20\n        /* \"#utility.yul\":6430:6439   */\n      dup3\n        /* \"#utility.yul\":6426:6444   */\n      add\n        /* \"#utility.yul\":6418:6444   */\n      swap1\n      pop\n        /* \"#utility.yul\":6490:6499   */\n      dup2\n        /* \"#utility.yul\":6484:6488   */\n      dup2\n        /* \"#utility.yul\":6480:6500   */\n      sub\n        /* \"#utility.yul\":6476:6477   */\n      0x00\n        /* \"#utility.yul\":6465:6474   */\n      dup4\n        /* \"#utility.yul\":6461:6478   */\n      add\n        /* \"#utility.yul\":6454:6501   */\n      mstore\n        /* \"#utility.yul\":6518:6649   */\n      tag_179\n        /* \"#utility.yul\":6644:6648   */\n      dup2\n        /* \"#utility.yul\":6518:6649   */\n      tag_105\n      jump\t// in\n    tag_179:\n        /* \"#utility.yul\":6510:6649   */\n      swap1\n      pop\n        /* \"#utility.yul\":6237:6656   */\n      swap2\n      swap1\n      pop\n      jump\t// out\n        /* \"#utility.yul\":6662:6842   */\n    tag_49:\n        /* \"#utility.yul\":6710:6787   */\n      0x4e487b7100000000000000000000000000000000000000000000000000000000\n        /* \"#utility.yul\":6707:6708   */\n      0x00\n        /* \"#utility.yul\":6700:6788   */\n      mstore\n        /* \"#utility.yul\":6807:6811   */\n      0x32\n        /* \"#utility.yul\":6804:6805   */\n      0x04\n        /* \"#utility.yul\":6797:6812   */\n      mstore\n        /* \"#utility.yul\":6831:6835   */\n      0x24\n        /* \"#utility.yul\":6828:6829   */\n      0x00\n        /* \"#utility.yul\":6821:6836   */\n      revert\n        /* \"#utility.yul\":6848:7028   */\n    tag_106:\n        /* \"#utility.yul\":6896:6973   */\n      0x4e487b7100000000000000000000000000000000000000000000000000000000\n        /* \"#utility.yul\":6893:6894   */\n      0x00\n        /* \"#utility.yul\":6886:6974   */\n      mstore\n        /* \"#utility.yul\":6993:6997   */\n      0x11\n        /* \"#utility.yul\":6990:6991   */\n      0x04\n        /* \"#utility.yul\":6983:6998   */\n      mstore\n        /* \"#utility.yul\":7017:7021   */\n      0x24\n        /* \"#utility.yul\":7014:7015   */\n      0x00\n        /* \"#utility.yul\":7007:7022   */\n      revert\n        /* \"#utility.yul\":7034:7225   */\n    tag_52:\n        /* \"#utility.yul\":7074:7077   */\n      0x00\n        /* \"#utility.yul\":7093:7113   */\n      tag_183\n        /* \"#utility.yul\":7111:7112   */\n      dup3\n        /* \"#utility.yul\":7093:7113   */\n      tag_84\n      jump\t// in\n    tag_183:\n        /* \"#utility.yul\":7088:7113   */\n      swap2\n      pop\n        /* \"#utility.yul\":7127:7147   */\n      tag_184\n        /* \"#utility.yul\":7145:7146   */\n      dup4\n        /* \"#utility.yul\":7127:7147   */\n      tag_84\n      jump\t// in\n    tag_184:\n        /* \"#utility.yul\":7122:7147   */\n      swap3\n      pop\n        /* \"#utility.yul\":7170:7171   */\n      dup3\n        /* \"#utility.yul\":7167:7168   */\n      dup3\n        /* \"#utility.yul\":7163:7172   */\n      add\n        /* \"#utility.yul\":7156:7172   */\n      swap1\n      pop\n        /* \"#utility.yul\":7191:7194   */\n      dup1\n        /* \"#utility.yul\":7188:7189   */\n      dup3\n        /* \"#utility.yul\":7185:7195   */\n      gt\n        /* \"#utility.yul\":7182:7218   */\n      iszero\n      tag_185\n      jumpi\n        /* \"#utility.yul\":7198:7216   */\n      tag_186\n      tag_106\n      jump\t// in\n    tag_186:\n        /* \"#utility.yul\":7182:7218   */\n    tag_185:\n        /* \"#utility.yul\":7034:7225   */\n      swap3\n      swap2\n      pop\n      pop\n      jump\t// out\n        /* \"#utility.yul\":7231:7464   */\n    tag_67:\n        /* \"#utility.yul\":7270:7273   */\n      0x00\n        /* \"#utility.yul\":7293:7317   */\n      tag_188\n        /* \"#utility.yul\":7311:7316   */\n      dup3\n        /* \"#utility.yul\":7293:7317   */\n      tag_84\n      jump\t// in\n    tag_188:\n        /* \"#utility.yul\":7284:7317   */\n      swap2\n      pop\n        /* \"#utility.yul\":7339:7405   */\n      0xffffffffffffffffffffffffffffffffffffffffffffffffffffffffffffffff\n        /* \"#utility.yul\":7332:7337   */\n      dup3\n        /* \"#utility.yul\":7329:7406   */\n      sub\n        /* \"#utility.yul\":7326:7429   */\n      tag_189\n      jumpi\n        /* \"#utility.yul\":7409:7427   */\n      tag_190\n      tag_106\n      jump\t// in\n    tag_190:\n        /* \"#utility.yul\":7326:7429   */\n    tag_189:\n        /* \"#utility.yul\":7456:7457   */\n      0x01\n        /* \"#utility.yul\":7449:7454   */\n      dup3\n        /* \"#utility.yul\":7445:7458   */\n      add\n        /* \"#utility.yul\":7438:7458   */\n      swap1\n      pop\n        /* \"#utility.yul\":7231:7464   */\n      swap2\n      swap1\n      pop\n      jump\t// out\n        /* \"#utility.yul\":7470:7588   */\n    tag_107:\n        /* \"#utility.yul\":7557:7581   */\n      tag_192\n        /* \"#utility.yul\":7575:7580   */\n      dup2\n        /* \"#utility.yul\":7557:7581   */\n      tag_96\n      jump\t// in\n    tag_192:\n        /* \"#utility.yul\":7552:7555   */\n      dup3\n        /* \"#utility.yul\":7545:7582   */\n      mstore\n        /* \"#utility.yul\":7470:7588   */\n      pop\n      pop\n      jump\t// out\n        /* \"#utility.yul\":7594:7816   */\n    tag_75:\n        /* \"#utility.yul\":7687:7691   */\n      0x00\n        /* \"#utility.yul\":7725:7727   */\n      0x20\n        /* \"#utility.yul\":7714:7723   */\n      dup3\n        /* \"#utility.yul\":7710:7728   */\n      add\n        /* \"#utility.yul\":7702:7728   */\n      swap1\n      pop\n        /* \"#utility.yul\":7738:7809   */\n      tag_194\n        /* \"#utility.yul\":7806:7807   */\n      0x00\n        /* \"#utility.yul\":7795:7804   */\n      dup4\n        /* \"#utility.yul\":7791:7808   */\n      add\n        /* \"#utility.yul\":7782:7788   */\n      dup5\n        /* \"#utility.yul\":7738:7809   */\n      tag_107\n      jump\t// in\n    tag_194:\n        /* \"#utility.yul\":7594:7816   */\n      swap3\n      swap2\n      pop\n      pop\n      jump\t// out\n        /* \"#utility.yul\":7822:7965   */\n    tag_108:\n        /* \"#utility.yul\":7879:7884   */\n      0x00\n        /* \"#utility.yul\":7910:7916   */\n      dup2\n        /* \"#utility.yul\":7904:7917   */\n      mload\n        /* \"#utility.yul\":7895:7917   */\n      swap1\n      pop\n        /* \"#utility.yul\":7926:7959   */\n      tag_196\n        /* \"#utility.yul\":7953:7958   */\n      dup2\n        /* \"#utility.yul\":7926:7959   */\n      tag_85\n      jump\t// in\n    tag_196:\n        /* \"#utility.yul\":7822:7965   */\n      swap3\n      swap2\n      pop\n      pop\n      jump\t// out\n        /* \"#utility.yul\":7971:8322   */\n    tag_79:\n        /* \"#utility.yul\":8041:8047   */\n      0x00\n        /* \"#utility.yul\":8090:8092   */\n      0x20\n        /* \"#utility.yul\":8078:8087   */\n      dup3\n        /* \"#utility.yul\":8069:8076   */\n      dup5\n        /* \"#utility.yul\":8065:8088   */\n      sub\n        /* \"#utility.yul\":8061:8093   */\n      slt\n        /* \"#utility.yul\":8058:8177   */\n      iszero\n      tag_198\n      jumpi\n        /* \"#utility.yul\":8096:8175   */\n      tag_199\n      tag_82\n      jump\t// in\n    tag_199:\n        /* \"#utility.yul\":8058:8177   */\n    tag_198:\n        /* \"#utility.yul\":8216:8217   */\n      0x00\n        /* \"#utility.yul\":8241:8305   */\n      tag_200\n        /* \"#utility.yul\":8297:8304   */\n      dup5\n        /* \"#utility.yul\":8288:8294   */\n      dup3\n        /* \"#utility.yul\":8277:8286   */\n      dup6\n        /* \"#utility.yul\":8273:8295   */\n      add\n        /* \"#utility.yul\":8241:8305   */\n      tag_108\n      jump\t// in\n    tag_200:\n        /* \"#utility.yul\":8231:8305   */\n      swap2\n      pop\n        /* \"#utility.yul\":8187:8315   */\n      pop\n        /* \"#utility.yul\":7971:8322   */\n      swap3\n      swap2\n      pop\n      pop\n      jump\t// out\n\n    auxdata: 0xa2646970667358221220cd2f81481e78afdd9e190ebfbe3ac9dcbe780d1ed7ba85a48cd8a93f2105275f64736f6c63430008110033\n}\n",
				"bytecode": {
					"linkReferences": {},
					"object": "608060405234801561001057600080fd5b50604051610a8a380380610a8a833981810160405281019061003291906100db565b806000806101000a81548173ffffffffffffffffffffffffffffffffffffffff021916908373ffffffffffffffffffffffffffffffffffffffff16021790555050610108565b600080fd5b600073ffffffffffffffffffffffffffffffffffffffff82169050919050565b60006100a88261007d565b9050919050565b6100b88161009d565b81146100c357600080fd5b50565b6000815190506100d5816100af565b92915050565b6000602082840312156100f1576100f0610078565b5b60006100ff848285016100c6565b91505092915050565b610973806101176000396000f3fe608060405234801561001057600080fd5b506004361061007d5760003560e01c8063609ff1bd1161005b578063609ff1bd146100ed578063a3ec138d1461010b578063e2ba53f01461013d578063f8a8fd6d1461015b5761007d565b80630121b93f14610082578063013cf08b1461009e57806349e0335f146100cf575b600080fd5b61009c60048036038101906100979190610503565b610165565b005b6100b860048036038101906100b39190610503565b6102ab565b6040516100c6929190610558565b60405180910390f35b6100d76102df565b6040516100e49190610600565b60405180910390f35b6100f5610303565b604051610102919061061b565b60405180910390f35b61012560048036038101906101209190610674565b61038b565b604051610134939291906106bc565b60405180910390f35b6101456103c2565b60405161015291906106f3565b60405180910390f35b6101636103f6565b005b6000600160003373ffffffffffffffffffffffffffffffffffffffff1673ffffffffffffffffffffffffffffffffffffffff168152602001908152602001600020905060008160000154036101ef576040517f08c379a00000000000000000000000000000000000000000000000000000000081526004016101e69061076b565b60405180910390fd5b8060010160009054906101000a900460ff1615610241576040517f08c379a0000000000000000000000000000000000000000000000000000000008152600401610238906107d7565b60405180910390fd5b60018160010160006101000a81548160ff0219169083151502179055508181600201819055508060000154600283815481106102805761027f6107f7565b5b906000526020600020906002020160010160008282546102a09190610855565b925050819055505050565b600281815481106102bb57600080fd5b90600052602060002090600202016000915090508060000154908060010154905082565b60008054906101000a900473ffffffffffffffffffffffffffffffffffffffff1681565b6000806000905060005b60028054905081101561038657816002828154811061032f5761032e6107f7565b5b9060005260206000209060020201600101541115610373576002818154811061035b5761035a6107f7565b5b90600052602060002090600202016001015491508092505b808061037e90610889565b91505061030d565b505090565b60016020528060005260406000206000915090508060000154908060010160009054906101000a900460ff16908060020154905083565b600060026103ce610303565b815481106103df576103de6107f7565b5b906000526020600020906002020160000154905090565b7f0eb9f2c7847c327566a2cffcd0cc9edbc0d5b763e17989a09b04e8945a1a1e5660008054906101000a900473ffffffffffffffffffffffffffffffffffffffff1673ffffffffffffffffffffffffffffffffffffffff166370a08231336040518263ffffffff1660e01b815260040161047091906108e0565b602060405180830381865afa15801561048d573d6000803e3d6000fd5b505050506040513d601f19601f820116820180604052508101906104b19190610910565b6040516104be919061061b565b60405180910390a1565b600080fd5b6000819050919050565b6104e0816104cd565b81146104eb57600080fd5b50565b6000813590506104fd816104d7565b92915050565b600060208284031215610519576105186104c8565b5b6000610527848285016104ee565b91505092915050565b6000819050919050565b61054381610530565b82525050565b610552816104cd565b82525050565b600060408201905061056d600083018561053a565b61057a6020830184610549565b9392505050565b600073ffffffffffffffffffffffffffffffffffffffff82169050919050565b6000819050919050565b60006105c66105c16105bc84610581565b6105a1565b610581565b9050919050565b60006105d8826105ab565b9050919050565b60006105ea826105cd565b9050919050565b6105fa816105df565b82525050565b600060208201905061061560008301846105f1565b92915050565b60006020820190506106306000830184610549565b92915050565b600061064182610581565b9050919050565b61065181610636565b811461065c57600080fd5b50565b60008135905061066e81610648565b92915050565b60006020828403121561068a576106896104c8565b5b60006106988482850161065f565b91505092915050565b60008115159050919050565b6106b6816106a1565b82525050565b60006060820190506106d16000830186610549565b6106de60208301856106ad565b6106eb6040830184610549565b949350505050565b6000602082019050610708600083018461053a565b92915050565b600082825260208201905092915050565b7f486173206e6f20726967687420746f20766f7465000000000000000000000000600082015250565b600061075560148361070e565b91506107608261071f565b602082019050919050565b6000602082019050818103600083015261078481610748565b9050919050565b7f416c726561647920766f7465642e000000000000000000000000000000000000600082015250565b60006107c1600e8361070e565b91506107cc8261078b565b602082019050919050565b600060208201905081810360008301526107f0816107b4565b9050919050565b7f4e487b7100000000000000000000000000000000000000000000000000000000600052603260045260246000fd5b7f4e487b7100000000000000000000000000000000000000000000000000000000600052601160045260246000fd5b6000610860826104cd565b915061086b836104cd565b925082820190508082111561088357610882610826565b5b92915050565b6000610894826104cd565b91507fffffffffffffffffffffffffffffffffffffffffffffffffffffffffffffffff82036108c6576108c5610826565b5b600182019050919050565b6108da81610636565b82525050565b60006020820190506108f560008301846108d1565b92915050565b60008151905061090a816104d7565b92915050565b600060208284031215610926576109256104c8565b5b6000610934848285016108fb565b9150509291505056fea2646970667358221220cd2f81481e78afdd9e190ebfbe3ac9dcbe780d1ed7ba85a48cd8a93f2105275f64736f6c63430008110033",
					"opcodes": "PUSH1 0x80 PUSH1 0x40 MSTORE CALLVALUE DUP1 ISZERO PUSH2 0x10 JUMPI PUSH1 0x0 DUP1 REVERT JUMPDEST POP PUSH1 0x40 MLOAD PUSH2 0xA8A CODESIZE SUB DUP1 PUSH2 0xA8A DUP4 CODECOPY DUP2 DUP2 ADD PUSH1 0x40 MSTORE DUP2 ADD SWAP1 PUSH2 0x32 SWAP2 SWAP1 PUSH2 0xDB JUMP JUMPDEST DUP1 PUSH1 0x0 DUP1 PUSH2 0x100 EXP DUP2 SLOAD DUP2 PUSH20 0xFFFFFFFFFFFFFFFFFFFFFFFFFFFFFFFFFFFFFFFF MUL NOT AND SWAP1 DUP4 PUSH20 0xFFFFFFFFFFFFFFFFFFFFFFFFFFFFFFFFFFFFFFFF AND MUL OR SWAP1 SSTORE POP POP PUSH2 0x108 JUMP JUMPDEST PUSH1 0x0 DUP1 REVERT JUMPDEST PUSH1 0x0 PUSH20 0xFFFFFFFFFFFFFFFFFFFFFFFFFFFFFFFFFFFFFFFF DUP3 AND SWAP1 POP SWAP2 SWAP1 POP JUMP JUMPDEST PUSH1 0x0 PUSH2 0xA8 DUP3 PUSH2 0x7D JUMP JUMPDEST SWAP1 POP SWAP2 SWAP1 POP JUMP JUMPDEST PUSH2 0xB8 DUP2 PUSH2 0x9D JUMP JUMPDEST DUP2 EQ PUSH2 0xC3 JUMPI PUSH1 0x0 DUP1 REVERT JUMPDEST POP JUMP JUMPDEST PUSH1 0x0 DUP2 MLOAD SWAP1 POP PUSH2 0xD5 DUP2 PUSH2 0xAF JUMP JUMPDEST SWAP3 SWAP2 POP POP JUMP JUMPDEST PUSH1 0x0 PUSH1 0x20 DUP3 DUP5 SUB SLT ISZERO PUSH2 0xF1 JUMPI PUSH2 0xF0 PUSH2 0x78 JUMP JUMPDEST JUMPDEST PUSH1 0x0 PUSH2 0xFF DUP5 DUP3 DUP6 ADD PUSH2 0xC6 JUMP JUMPDEST SWAP2 POP POP SWAP3 SWAP2 POP POP JUMP JUMPDEST PUSH2 0x973 DUP1 PUSH2 0x117 PUSH1 0x0 CODECOPY PUSH1 0x0 RETURN INVALID PUSH1 0x80 PUSH1 0x40 MSTORE CALLVALUE DUP1 ISZERO PUSH2 0x10 JUMPI PUSH1 0x0 DUP1 REVERT JUMPDEST POP PUSH1 0x4 CALLDATASIZE LT PUSH2 0x7D JUMPI PUSH1 0x0 CALLDATALOAD PUSH1 0xE0 SHR DUP1 PUSH4 0x609FF1BD GT PUSH2 0x5B JUMPI DUP1 PUSH4 0x609FF1BD EQ PUSH2 0xED JUMPI DUP1 PUSH4 0xA3EC138D EQ PUSH2 0x10B JUMPI DUP1 PUSH4 0xE2BA53F0 EQ PUSH2 0x13D JUMPI DUP1 PUSH4 0xF8A8FD6D EQ PUSH2 0x15B JUMPI PUSH2 0x7D JUMP JUMPDEST DUP1 PUSH4 0x121B93F EQ PUSH2 0x82 JUMPI DUP1 PUSH4 0x13CF08B EQ PUSH2 0x9E JUMPI DUP1 PUSH4 0x49E0335F EQ PUSH2 0xCF JUMPI JUMPDEST PUSH1 0x0 DUP1 REVERT JUMPDEST PUSH2 0x9C PUSH1 0x4 DUP1 CALLDATASIZE SUB DUP2 ADD SWAP1 PUSH2 0x97 SWAP2 SWAP1 PUSH2 0x503 JUMP JUMPDEST PUSH2 0x165 JUMP JUMPDEST STOP JUMPDEST PUSH2 0xB8 PUSH1 0x4 DUP1 CALLDATASIZE SUB DUP2 ADD SWAP1 PUSH2 0xB3 SWAP2 SWAP1 PUSH2 0x503 JUMP JUMPDEST PUSH2 0x2AB JUMP JUMPDEST PUSH1 0x40 MLOAD PUSH2 0xC6 SWAP3 SWAP2 SWAP1 PUSH2 0x558 JUMP JUMPDEST PUSH1 0x40 MLOAD DUP1 SWAP2 SUB SWAP1 RETURN JUMPDEST PUSH2 0xD7 PUSH2 0x2DF JUMP JUMPDEST PUSH1 0x40 MLOAD PUSH2 0xE4 SWAP2 SWAP1 PUSH2 0x600 JUMP JUMPDEST PUSH1 0x40 MLOAD DUP1 SWAP2 SUB SWAP1 RETURN JUMPDEST PUSH2 0xF5 PUSH2 0x303 JUMP JUMPDEST PUSH1 0x40 MLOAD PUSH2 0x102 SWAP2 SWAP1 PUSH2 0x61B JUMP JUMPDEST PUSH1 0x40 MLOAD DUP1 SWAP2 SUB SWAP1 RETURN JUMPDEST PUSH2 0x125 PUSH1 0x4 DUP1 CALLDATASIZE SUB DUP2 ADD SWAP1 PUSH2 0x120 SWAP2 SWAP1 PUSH2 0x674 JUMP JUMPDEST PUSH2 0x38B JUMP JUMPDEST PUSH1 0x40 MLOAD PUSH2 0x134 SWAP4 SWAP3 SWAP2 SWAP1 PUSH2 0x6BC JUMP JUMPDEST PUSH1 0x40 MLOAD DUP1 SWAP2 SUB SWAP1 RETURN JUMPDEST PUSH2 0x145 PUSH2 0x3C2 JUMP JUMPDEST PUSH1 0x40 MLOAD PUSH2 0x152 SWAP2 SWAP1 PUSH2 0x6F3 JUMP JUMPDEST PUSH1 0x40 MLOAD DUP1 SWAP2 SUB SWAP1 RETURN JUMPDEST PUSH2 0x163 PUSH2 0x3F6 JUMP JUMPDEST STOP JUMPDEST PUSH1 0x0 PUSH1 0x1 PUSH1 0x0 CALLER PUSH20 0xFFFFFFFFFFFFFFFFFFFFFFFFFFFFFFFFFFFFFFFF AND PUSH20 0xFFFFFFFFFFFFFFFFFFFFFFFFFFFFFFFFFFFFFFFF AND DUP2 MSTORE PUSH1 0x20 ADD SWAP1 DUP2 MSTORE PUSH1 0x20 ADD PUSH1 0x0 KECCAK256 SWAP1 POP PUSH1 0x0 DUP2 PUSH1 0x0 ADD SLOAD SUB PUSH2 0x1EF JUMPI PUSH1 0x40 MLOAD PUSH32 0x8C379A000000000000000000000000000000000000000000000000000000000 DUP2 MSTORE PUSH1 0x4 ADD PUSH2 0x1E6 SWAP1 PUSH2 0x76B JUMP JUMPDEST PUSH1 0x40 MLOAD DUP1 SWAP2 SUB SWAP1 REVERT JUMPDEST DUP1 PUSH1 0x1 ADD PUSH1 0x0 SWAP1 SLOAD SWAP1 PUSH2 0x100 EXP SWAP1 DIV PUSH1 0xFF AND ISZERO PUSH2 0x241 JUMPI PUSH1 0x40 MLOAD PUSH32 0x8C379A000000000000000000000000000000000000000000000000000000000 DUP2 MSTORE PUSH1 0x4 ADD PUSH2 0x238 SWAP1 PUSH2 0x7D7 JUMP JUMPDEST PUSH1 0x40 MLOAD DUP1 SWAP2 SUB SWAP1 REVERT JUMPDEST PUSH1 0x1 DUP2 PUSH1 0x1 ADD PUSH1 0x0 PUSH2 0x100 EXP DUP2 SLOAD DUP2 PUSH1 0xFF MUL NOT AND SWAP1 DUP4 ISZERO ISZERO MUL OR SWAP1 SSTORE POP DUP2 DUP2 PUSH1 0x2 ADD DUP2 SWAP1 SSTORE POP DUP1 PUSH1 0x0 ADD SLOAD PUSH1 0x2 DUP4 DUP2 SLOAD DUP2 LT PUSH2 0x280 JUMPI PUSH2 0x27F PUSH2 0x7F7 JUMP JUMPDEST JUMPDEST SWAP1 PUSH1 0x0 MSTORE PUSH1 0x20 PUSH1 0x0 KECCAK256 SWAP1 PUSH1 0x2 MUL ADD PUSH1 0x1 ADD PUSH1 0x0 DUP3 DUP3 SLOAD PUSH2 0x2A0 SWAP2 SWAP1 PUSH2 0x855 JUMP JUMPDEST SWAP3 POP POP DUP2 SWAP1 SSTORE POP POP POP JUMP JUMPDEST PUSH1 0x2 DUP2 DUP2 SLOAD DUP2 LT PUSH2 0x2BB JUMPI PUSH1 0x0 DUP1 REVERT JUMPDEST SWAP1 PUSH1 0x0 MSTORE PUSH1 0x20 PUSH1 0x0 KECCAK256 SWAP1 PUSH1 0x2 MUL ADD PUSH1 0x0 SWAP2 POP SWAP1 POP DUP1 PUSH1 0x0 ADD SLOAD SWAP1 DUP1 PUSH1 0x1 ADD SLOAD SWAP1 POP DUP3 JUMP JUMPDEST PUSH1 0x0 DUP1 SLOAD SWAP1 PUSH2 0x100 EXP SWAP1 DIV PUSH20 0xFFFFFFFFFFFFFFFFFFFFFFFFFFFFFFFFFFFFFFFF AND DUP2 JUMP JUMPDEST PUSH1 0x0 DUP1 PUSH1 0x0 SWAP1 POP PUSH1 0x0 JUMPDEST PUSH1 0x2 DUP1 SLOAD SWAP1 POP DUP2 LT ISZERO PUSH2 0x386 JUMPI DUP2 PUSH1 0x2 DUP3 DUP2 SLOAD DUP2 LT PUSH2 0x32F JUMPI PUSH2 0x32E PUSH2 0x7F7 JUMP JUMPDEST JUMPDEST SWAP1 PUSH1 0x0 MSTORE PUSH1 0x20 PUSH1 0x0 KECCAK256 SWAP1 PUSH1 0x2 MUL ADD PUSH1 0x1 ADD SLOAD GT ISZERO PUSH2 0x373 JUMPI PUSH1 0x2 DUP2 DUP2 SLOAD DUP2 LT PUSH2 0x35B JUMPI PUSH2 0x35A PUSH2 0x7F7 JUMP JUMPDEST JUMPDEST SWAP1 PUSH1 0x0 MSTORE PUSH1 0x20 PUSH1 0x0 KECCAK256 SWAP1 PUSH1 0x2 MUL ADD PUSH1 0x1 ADD SLOAD SWAP2 POP DUP1 SWAP3 POP JUMPDEST DUP1 DUP1 PUSH2 0x37E SWAP1 PUSH2 0x889 JUMP JUMPDEST SWAP2 POP POP PUSH2 0x30D JUMP JUMPDEST POP POP SWAP1 JUMP JUMPDEST PUSH1 0x1 PUSH1 0x20 MSTORE DUP1 PUSH1 0x0 MSTORE PUSH1 0x40 PUSH1 0x0 KECCAK256 PUSH1 0x0 SWAP2 POP SWAP1 POP DUP1 PUSH1 0x0 ADD SLOAD SWAP1 DUP1 PUSH1 0x1 ADD PUSH1 0x0 SWAP1 SLOAD SWAP1 PUSH2 0x100 EXP SWAP1 DIV PUSH1 0xFF AND SWAP1 DUP1 PUSH1 0x2 ADD SLOAD SWAP1 POP DUP4 JUMP JUMPDEST PUSH1 0x0 PUSH1 0x2 PUSH2 0x3CE PUSH2 0x303 JUMP JUMPDEST DUP2 SLOAD DUP2 LT PUSH2 0x3DF JUMPI PUSH2 0x3DE PUSH2 0x7F7 JUMP JUMPDEST JUMPDEST SWAP1 PUSH1 0x0 MSTORE PUSH1 0x20 PUSH1 0x0 KECCAK256 SWAP1 PUSH1 0x2 MUL ADD PUSH1 0x0 ADD SLOAD SWAP1 POP SWAP1 JUMP JUMPDEST PUSH32 0xEB9F2C7847C327566A2CFFCD0CC9EDBC0D5B763E17989A09B04E8945A1A1E56 PUSH1 0x0 DUP1 SLOAD SWAP1 PUSH2 0x100 EXP SWAP1 DIV PUSH20 0xFFFFFFFFFFFFFFFFFFFFFFFFFFFFFFFFFFFFFFFF AND PUSH20 0xFFFFFFFFFFFFFFFFFFFFFFFFFFFFFFFFFFFFFFFF AND PUSH4 0x70A08231 CALLER PUSH1 0x40 MLOAD DUP3 PUSH4 0xFFFFFFFF AND PUSH1 0xE0 SHL DUP2 MSTORE PUSH1 0x4 ADD PUSH2 0x470 SWAP2 SWAP1 PUSH2 0x8E0 JUMP JUMPDEST PUSH1 0x20 PUSH1 0x40 MLOAD DUP1 DUP4 SUB DUP2 DUP7 GAS STATICCALL ISZERO DUP1 ISZERO PUSH2 0x48D JUMPI RETURNDATASIZE PUSH1 0x0 DUP1 RETURNDATACOPY RETURNDATASIZE PUSH1 0x0 REVERT JUMPDEST POP POP POP POP PUSH1 0x40 MLOAD RETURNDATASIZE PUSH1 0x1F NOT PUSH1 0x1F DUP3 ADD AND DUP3 ADD DUP1 PUSH1 0x40 MSTORE POP DUP2 ADD SWAP1 PUSH2 0x4B1 SWAP2 SWAP1 PUSH2 0x910 JUMP JUMPDEST PUSH1 0x40 MLOAD PUSH2 0x4BE SWAP2 SWAP1 PUSH2 0x61B JUMP JUMPDEST PUSH1 0x40 MLOAD DUP1 SWAP2 SUB SWAP1 LOG1 JUMP JUMPDEST PUSH1 0x0 DUP1 REVERT JUMPDEST PUSH1 0x0 DUP2 SWAP1 POP SWAP2 SWAP1 POP JUMP JUMPDEST PUSH2 0x4E0 DUP2 PUSH2 0x4CD JUMP JUMPDEST DUP2 EQ PUSH2 0x4EB JUMPI PUSH1 0x0 DUP1 REVERT JUMPDEST POP JUMP JUMPDEST PUSH1 0x0 DUP2 CALLDATALOAD SWAP1 POP PUSH2 0x4FD DUP2 PUSH2 0x4D7 JUMP JUMPDEST SWAP3 SWAP2 POP POP JUMP JUMPDEST PUSH1 0x0 PUSH1 0x20 DUP3 DUP5 SUB SLT ISZERO PUSH2 0x519 JUMPI PUSH2 0x518 PUSH2 0x4C8 JUMP JUMPDEST JUMPDEST PUSH1 0x0 PUSH2 0x527 DUP5 DUP3 DUP6 ADD PUSH2 0x4EE JUMP JUMPDEST SWAP2 POP POP SWAP3 SWAP2 POP POP JUMP JUMPDEST PUSH1 0x0 DUP2 SWAP1 POP SWAP2 SWAP1 POP JUMP JUMPDEST PUSH2 0x543 DUP2 PUSH2 0x530 JUMP JUMPDEST DUP3 MSTORE POP POP JUMP JUMPDEST PUSH2 0x552 DUP2 PUSH2 0x4CD JUMP JUMPDEST DUP3 MSTORE POP POP JUMP JUMPDEST PUSH1 0x0 PUSH1 0x40 DUP3 ADD SWAP1 POP PUSH2 0x56D PUSH1 0x0 DUP4 ADD DUP6 PUSH2 0x53A JUMP JUMPDEST PUSH2 0x57A PUSH1 0x20 DUP4 ADD DUP5 PUSH2 0x549 JUMP JUMPDEST SWAP4 SWAP3 POP POP POP JUMP JUMPDEST PUSH1 0x0 PUSH20 0xFFFFFFFFFFFFFFFFFFFFFFFFFFFFFFFFFFFFFFFF DUP3 AND SWAP1 POP SWAP2 SWAP1 POP JUMP JUMPDEST PUSH1 0x0 DUP2 SWAP1 POP SWAP2 SWAP1 POP JUMP JUMPDEST PUSH1 0x0 PUSH2 0x5C6 PUSH2 0x5C1 PUSH2 0x5BC DUP5 PUSH2 0x581 JUMP JUMPDEST PUSH2 0x5A1 JUMP JUMPDEST PUSH2 0x581 JUMP JUMPDEST SWAP1 POP SWAP2 SWAP1 POP JUMP JUMPDEST PUSH1 0x0 PUSH2 0x5D8 DUP3 PUSH2 0x5AB JUMP JUMPDEST SWAP1 POP SWAP2 SWAP1 POP JUMP JUMPDEST PUSH1 0x0 PUSH2 0x5EA DUP3 PUSH2 0x5CD JUMP JUMPDEST SWAP1 POP SWAP2 SWAP1 POP JUMP JUMPDEST PUSH2 0x5FA DUP2 PUSH2 0x5DF JUMP JUMPDEST DUP3 MSTORE POP POP JUMP JUMPDEST PUSH1 0x0 PUSH1 0x20 DUP3 ADD SWAP1 POP PUSH2 0x615 PUSH1 0x0 DUP4 ADD DUP5 PUSH2 0x5F1 JUMP JUMPDEST SWAP3 SWAP2 POP POP JUMP JUMPDEST PUSH1 0x0 PUSH1 0x20 DUP3 ADD SWAP1 POP PUSH2 0x630 PUSH1 0x0 DUP4 ADD DUP5 PUSH2 0x549 JUMP JUMPDEST SWAP3 SWAP2 POP POP JUMP JUMPDEST PUSH1 0x0 PUSH2 0x641 DUP3 PUSH2 0x581 JUMP JUMPDEST SWAP1 POP SWAP2 SWAP1 POP JUMP JUMPDEST PUSH2 0x651 DUP2 PUSH2 0x636 JUMP JUMPDEST DUP2 EQ PUSH2 0x65C JUMPI PUSH1 0x0 DUP1 REVERT JUMPDEST POP JUMP JUMPDEST PUSH1 0x0 DUP2 CALLDATALOAD SWAP1 POP PUSH2 0x66E DUP2 PUSH2 0x648 JUMP JUMPDEST SWAP3 SWAP2 POP POP JUMP JUMPDEST PUSH1 0x0 PUSH1 0x20 DUP3 DUP5 SUB SLT ISZERO PUSH2 0x68A JUMPI PUSH2 0x689 PUSH2 0x4C8 JUMP JUMPDEST JUMPDEST PUSH1 0x0 PUSH2 0x698 DUP5 DUP3 DUP6 ADD PUSH2 0x65F JUMP JUMPDEST SWAP2 POP POP SWAP3 SWAP2 POP POP JUMP JUMPDEST PUSH1 0x0 DUP2 ISZERO ISZERO SWAP1 POP SWAP2 SWAP1 POP JUMP JUMPDEST PUSH2 0x6B6 DUP2 PUSH2 0x6A1 JUMP JUMPDEST DUP3 MSTORE POP POP JUMP JUMPDEST PUSH1 0x0 PUSH1 0x60 DUP3 ADD SWAP1 POP PUSH2 0x6D1 PUSH1 0x0 DUP4 ADD DUP7 PUSH2 0x549 JUMP JUMPDEST PUSH2 0x6DE PUSH1 0x20 DUP4 ADD DUP6 PUSH2 0x6AD JUMP JUMPDEST PUSH2 0x6EB PUSH1 0x40 DUP4 ADD DUP5 PUSH2 0x549 JUMP JUMPDEST SWAP5 SWAP4 POP POP POP POP JUMP JUMPDEST PUSH1 0x0 PUSH1 0x20 DUP3 ADD SWAP1 POP PUSH2 0x708 PUSH1 0x0 DUP4 ADD DUP5 PUSH2 0x53A JUMP JUMPDEST SWAP3 SWAP2 POP POP JUMP JUMPDEST PUSH1 0x0 DUP3 DUP3 MSTORE PUSH1 0x20 DUP3 ADD SWAP1 POP SWAP3 SWAP2 POP POP JUMP JUMPDEST PUSH32 0x486173206E6F20726967687420746F20766F7465000000000000000000000000 PUSH1 0x0 DUP3 ADD MSTORE POP JUMP JUMPDEST PUSH1 0x0 PUSH2 0x755 PUSH1 0x14 DUP4 PUSH2 0x70E JUMP JUMPDEST SWAP2 POP PUSH2 0x760 DUP3 PUSH2 0x71F JUMP JUMPDEST PUSH1 0x20 DUP3 ADD SWAP1 POP SWAP2 SWAP1 POP JUMP JUMPDEST PUSH1 0x0 PUSH1 0x20 DUP3 ADD SWAP1 POP DUP2 DUP2 SUB PUSH1 0x0 DUP4 ADD MSTORE PUSH2 0x784 DUP2 PUSH2 0x748 JUMP JUMPDEST SWAP1 POP SWAP2 SWAP1 POP JUMP JUMPDEST PUSH32 0x416C726561647920766F7465642E000000000000000000000000000000000000 PUSH1 0x0 DUP3 ADD MSTORE POP JUMP JUMPDEST PUSH1 0x0 PUSH2 0x7C1 PUSH1 0xE DUP4 PUSH2 0x70E JUMP JUMPDEST SWAP2 POP PUSH2 0x7CC DUP3 PUSH2 0x78B JUMP JUMPDEST PUSH1 0x20 DUP3 ADD SWAP1 POP SWAP2 SWAP1 POP JUMP JUMPDEST PUSH1 0x0 PUSH1 0x20 DUP3 ADD SWAP1 POP DUP2 DUP2 SUB PUSH1 0x0 DUP4 ADD MSTORE PUSH2 0x7F0 DUP2 PUSH2 0x7B4 JUMP JUMPDEST SWAP1 POP SWAP2 SWAP1 POP JUMP JUMPDEST PUSH32 0x4E487B7100000000000000000000000000000000000000000000000000000000 PUSH1 0x0 MSTORE PUSH1 0x32 PUSH1 0x4 MSTORE PUSH1 0x24 PUSH1 0x0 REVERT JUMPDEST PUSH32 0x4E487B7100000000000000000000000000000000000000000000000000000000 PUSH1 0x0 MSTORE PUSH1 0x11 PUSH1 0x4 MSTORE PUSH1 0x24 PUSH1 0x0 REVERT JUMPDEST PUSH1 0x0 PUSH2 0x860 DUP3 PUSH2 0x4CD JUMP JUMPDEST SWAP2 POP PUSH2 0x86B DUP4 PUSH2 0x4CD JUMP JUMPDEST SWAP3 POP DUP3 DUP3 ADD SWAP1 POP DUP1 DUP3 GT ISZERO PUSH2 0x883 JUMPI PUSH2 0x882 PUSH2 0x826 JUMP JUMPDEST JUMPDEST SWAP3 SWAP2 POP POP JUMP JUMPDEST PUSH1 0x0 PUSH2 0x894 DUP3 PUSH2 0x4CD JUMP JUMPDEST SWAP2 POP PUSH32 0xFFFFFFFFFFFFFFFFFFFFFFFFFFFFFFFFFFFFFFFFFFFFFFFFFFFFFFFFFFFFFFFF DUP3 SUB PUSH2 0x8C6 JUMPI PUSH2 0x8C5 PUSH2 0x826 JUMP JUMPDEST JUMPDEST PUSH1 0x1 DUP3 ADD SWAP1 POP SWAP2 SWAP1 POP JUMP JUMPDEST PUSH2 0x8DA DUP2 PUSH2 0x636 JUMP JUMPDEST DUP3 MSTORE POP POP JUMP JUMPDEST PUSH1 0x0 PUSH1 0x20 DUP3 ADD SWAP1 POP PUSH2 0x8F5 PUSH1 0x0 DUP4 ADD DUP5 PUSH2 0x8D1 JUMP JUMPDEST SWAP3 SWAP2 POP POP JUMP JUMPDEST PUSH1 0x0 DUP2 MLOAD SWAP1 POP PUSH2 0x90A DUP2 PUSH2 0x4D7 JUMP JUMPDEST SWAP3 SWAP2 POP POP JUMP JUMPDEST PUSH1 0x0 PUSH1 0x20 DUP3 DUP5 SUB SLT ISZERO PUSH2 0x926 JUMPI PUSH2 0x925 PUSH2 0x4C8 JUMP JUMPDEST JUMPDEST PUSH1 0x0 PUSH2 0x934 DUP5 DUP3 DUP6 ADD PUSH2 0x8FB JUMP JUMPDEST SWAP2 POP POP SWAP3 SWAP2 POP POP JUMP INVALID LOG2 PUSH5 0x6970667358 0x22 SLT KECCAK256 0xCD 0x2F DUP2 BASEFEE 0x1E PUSH25 0xAFDD9E190EBFBE3AC9DCBE780D1ED7BA85A48CD8A93F210527 0x5F PUSH5 0x736F6C6343 STOP ADDMOD GT STOP CALLER "
				},
				"gasEstimates": {
					"creation": {
						"codeDepositCost": "483800",
						"executionCost": "infinite",
						"totalCost": "infinite"
					},
					"external": {
						"proposals(uint256)": "infinite",
						"test()": "infinite",
						"twitt()": "infinite",
						"vote(uint256)": "infinite",
						"voters(address)": "infinite",
						"winnerName()": "infinite",
						"winningProposal()": "infinite"
					}
				},
				"methodIdentifiers": {
					"proposals(uint256)": "013cf08b",
					"test()": "f8a8fd6d",
					"twitt()": "49e0335f",
					"vote(uint256)": "0121b93f",
					"voters(address)": "a3ec138d",
					"winnerName()": "e2ba53f0",
					"winningProposal()": "609ff1bd"
				}
			},
			"storageLayout": {
				"storage": [
					{
						"astId": 84,
						"contract": "contract-71ad24318f.sol:BallotBox",
						"label": "twitt",
						"offset": 0,
						"slot": "0",
						"type": "t_contract(IERC20)77"
					},
					{
						"astId": 86,
						"contract": "contract-71ad24318f.sol:BallotBox",
						"label": "locked",
						"offset": 20,
						"slot": "0",
						"type": "t_bool"
					},
					{
						"astId": 152,
						"contract": "contract-71ad24318f.sol:BallotBox",
						"label": "voters",
						"offset": 0,
						"slot": "1",
						"type": "t_mapping(t_address,t_struct(Voter)142_storage)"
					},
					{
						"astId": 156,
						"contract": "contract-71ad24318f.sol:BallotBox",
						"label": "proposals",
						"offset": 0,
						"slot": "2",
						"type": "t_array(t_struct(Proposal)147_storage)dyn_storage"
					}
				],
				"types": {
					"t_address": {
						"encoding": "inplace",
						"label": "address",
						"numberOfBytes": "20"
					},
					"t_array(t_struct(Proposal)147_storage)dyn_storage": {
						"base": "t_struct(Proposal)147_storage",
						"encoding": "dynamic_array",
						"label": "struct BallotBox.Proposal[]",
						"numberOfBytes": "32"
					},
					"t_bool": {
						"encoding": "inplace",
						"label": "bool",
						"numberOfBytes": "1"
					},
					"t_bytes32": {
						"encoding": "inplace",
						"label": "bytes32",
						"numberOfBytes": "32"
					},
					"t_contract(IERC20)77": {
						"encoding": "inplace",
						"label": "contract IERC20",
						"numberOfBytes": "20"
					},
					"t_mapping(t_address,t_struct(Voter)142_storage)": {
						"encoding": "mapping",
						"key": "t_address",
						"label": "mapping(address => struct BallotBox.Voter)",
						"numberOfBytes": "32",
						"value": "t_struct(Voter)142_storage"
					},
					"t_struct(Proposal)147_storage": {
						"encoding": "inplace",
						"label": "struct BallotBox.Proposal",
						"members": [
							{
								"astId": 144,
								"contract": "contract-71ad24318f.sol:BallotBox",
								"label": "name",
								"offset": 0,
								"slot": "0",
								"type": "t_bytes32"
							},
							{
								"astId": 146,
								"contract": "contract-71ad24318f.sol:BallotBox",
								"label": "voteCount",
								"offset": 0,
								"slot": "1",
								"type": "t_uint256"
							}
						],
						"numberOfBytes": "64"
					},
					"t_struct(Voter)142_storage": {
						"encoding": "inplace",
						"label": "struct BallotBox.Voter",
						"members": [
							{
								"astId": 137,
								"contract": "contract-71ad24318f.sol:BallotBox",
								"label": "weight",
								"offset": 0,
								"slot": "0",
								"type": "t_uint256"
							},
							{
								"astId": 139,
								"contract": "contract-71ad24318f.sol:BallotBox",
								"label": "voted",
								"offset": 0,
								"slot": "1",
								"type": "t_bool"
							},
							{
								"astId": 141,
								"contract": "contract-71ad24318f.sol:BallotBox",
								"label": "vote",
								"offset": 0,
								"slot": "2",
								"type": "t_uint256"
							}
						],
						"numberOfBytes": "96"
					},
					"t_uint256": {
						"encoding": "inplace",
						"label": "uint256",
						"numberOfBytes": "32"
					}
				}
			},
			"userdoc": {
				"kind": "user",
				"methods": {
					"constructor": {
						"notice": "Create a new ballot to choose one of `proposalNames`."
					},
					"vote(uint256)": {
						"notice": "Give your vote (including votes delegated to you) to proposal `proposals[proposal].name`."
					}
				},
				"version": 1
			}
		}
	}
}