{
	"feg.sol": {
		"FEG": {
			"abi": [
				{
					"inputs": [],
					"stateMutability": "nonpayable",
					"type": "constructor"
				},
				{
					"anonymous": false,
					"inputs": [
						{
							"indexed": true,
							"internalType": "address",
							"name": "owner",
							"type": "address"
						},
						{
							"indexed": true,
							"internalType": "address",
							"name": "spender",
							"type": "address"
						},
						{
							"indexed": false,
							"internalType": "uint256",
							"name": "value",
							"type": "uint256"
						}
					],
					"name": "Approval",
					"type": "event"
				},
				{
					"anonymous": false,
					"inputs": [
						{
							"indexed": true,
							"internalType": "address",
							"name": "previousOwner",
							"type": "address"
						},
						{
							"indexed": true,
							"internalType": "address",
							"name": "newOwner",
							"type": "address"
						}
					],
					"name": "OwnershipTransferred",
					"type": "event"
				},
				{
					"anonymous": false,
					"inputs": [
						{
							"indexed": true,
							"internalType": "address",
							"name": "from",
							"type": "address"
						},
						{
							"indexed": true,
							"internalType": "address",
							"name": "to",
							"type": "address"
						},
						{
							"indexed": false,
							"internalType": "uint256",
							"name": "value",
							"type": "uint256"
						}
					],
					"name": "Transfer",
					"type": "event"
				},
				{
					"inputs": [],
					"name": "MAX",
					"outputs": [
						{
							"internalType": "uint256",
							"name": "",
							"type": "uint256"
						}
					],
					"stateMutability": "view",
					"type": "function"
				},
				{
					"inputs": [
						{
							"internalType": "address",
							"name": "",
							"type": "address"
						},
						{
							"internalType": "address",
							"name": "",
							"type": "address"
						}
					],
					"name": "_allowances",
					"outputs": [
						{
							"internalType": "uint256",
							"name": "",
							"type": "uint256"
						}
					],
					"stateMutability": "view",
					"type": "function"
				},
				{
					"inputs": [
						{
							"internalType": "address",
							"name": "owner",
							"type": "address"
						},
						{
							"internalType": "address",
							"name": "spender",
							"type": "address"
						},
						{
							"internalType": "uint256",
							"name": "amount",
							"type": "uint256"
						}
					],
					"name": "_approve",
					"outputs": [],
					"stateMutability": "nonpayable",
					"type": "function"
				},
				{
					"inputs": [],
					"name": "_decimals",
					"outputs": [
						{
							"internalType": "uint8",
							"name": "",
							"type": "uint8"
						}
					],
					"stateMutability": "view",
					"type": "function"
				},
				{
					"inputs": [
						{
							"internalType": "uint256",
							"name": "",
							"type": "uint256"
						}
					],
					"name": "_excluded",
					"outputs": [
						{
							"internalType": "address",
							"name": "",
							"type": "address"
						}
					],
					"stateMutability": "view",
					"type": "function"
				},
				{
					"inputs": [],
					"name": "_getCurrentSupply",
					"outputs": [
						{
							"internalType": "uint256",
							"name": "",
							"type": "uint256"
						},
						{
							"internalType": "uint256",
							"name": "",
							"type": "uint256"
						}
					],
					"stateMutability": "view",
					"type": "function"
				},
				{
					"inputs": [
						{
							"internalType": "uint256",
							"name": "tAmount",
							"type": "uint256"
						},
						{
							"internalType": "uint256",
							"name": "tFee",
							"type": "uint256"
						},
						{
							"internalType": "uint256",
							"name": "currentRate",
							"type": "uint256"
						}
					],
					"name": "_getRValues",
					"outputs": [
						{
							"internalType": "uint256",
							"name": "",
							"type": "uint256"
						},
						{
							"internalType": "uint256",
							"name": "",
							"type": "uint256"
						},
						{
							"internalType": "uint256",
							"name": "",
							"type": "uint256"
						}
					],
					"stateMutability": "pure",
					"type": "function"
				},
				{
					"inputs": [],
					"name": "_getRate",
					"outputs": [
						{
							"internalType": "uint256",
							"name": "",
							"type": "uint256"
						}
					],
					"stateMutability": "view",
					"type": "function"
				},
				{
					"inputs": [
						{
							"internalType": "uint256",
							"name": "tAmount",
							"type": "uint256"
						}
					],
					"name": "_getTValues",
					"outputs": [
						{
							"internalType": "uint256",
							"name": "",
							"type": "uint256"
						},
						{
							"internalType": "uint256",
							"name": "",
							"type": "uint256"
						}
					],
					"stateMutability": "view",
					"type": "function"
				},
				{
					"inputs": [
						{
							"internalType": "uint256",
							"name": "tAmount",
							"type": "uint256"
						}
					],
					"name": "_getValues",
					"outputs": [
						{
							"internalType": "uint256",
							"name": "",
							"type": "uint256"
						},
						{
							"internalType": "uint256",
							"name": "",
							"type": "uint256"
						},
						{
							"internalType": "uint256",
							"name": "",
							"type": "uint256"
						},
						{
							"internalType": "uint256",
							"name": "",
							"type": "uint256"
						},
						{
							"internalType": "uint256",
							"name": "",
							"type": "uint256"
						}
					],
					"stateMutability": "view",
					"type": "function"
				},
				{
					"inputs": [
						{
							"internalType": "address",
							"name": "",
							"type": "address"
						}
					],
					"name": "_isExcluded",
					"outputs": [
						{
							"internalType": "bool",
							"name": "",
							"type": "bool"
						}
					],
					"stateMutability": "view",
					"type": "function"
				},
				{
					"inputs": [],
					"name": "_name",
					"outputs": [
						{
							"internalType": "string",
							"name": "",
							"type": "string"
						}
					],
					"stateMutability": "view",
					"type": "function"
				},
				{
					"inputs": [],
					"name": "_owner",
					"outputs": [
						{
							"internalType": "address",
							"name": "",
							"type": "address"
						}
					],
					"stateMutability": "view",
					"type": "function"
				},
				{
					"inputs": [
						{
							"internalType": "address",
							"name": "",
							"type": "address"
						}
					],
					"name": "_rOwned",
					"outputs": [
						{
							"internalType": "uint256",
							"name": "",
							"type": "uint256"
						}
					],
					"stateMutability": "view",
					"type": "function"
				},
				{
					"inputs": [],
					"name": "_rTotal",
					"outputs": [
						{
							"internalType": "uint256",
							"name": "",
							"type": "uint256"
						}
					],
					"stateMutability": "view",
					"type": "function"
				},
				{
					"inputs": [
						{
							"internalType": "uint256",
							"name": "rFee",
							"type": "uint256"
						},
						{
							"internalType": "uint256",
							"name": "tFee",
							"type": "uint256"
						}
					],
					"name": "_reflectFee",
					"outputs": [],
					"stateMutability": "nonpayable",
					"type": "function"
				},
				{
					"inputs": [],
					"name": "_symbol",
					"outputs": [
						{
							"internalType": "string",
							"name": "",
							"type": "string"
						}
					],
					"stateMutability": "view",
					"type": "function"
				},
				{
					"inputs": [],
					"name": "_tFeeTotal",
					"outputs": [
						{
							"internalType": "uint256",
							"name": "",
							"type": "uint256"
						}
					],
					"stateMutability": "view",
					"type": "function"
				},
				{
					"inputs": [
						{
							"internalType": "address",
							"name": "",
							"type": "address"
						}
					],
					"name": "_tOwned",
					"outputs": [
						{
							"internalType": "uint256",
							"name": "",
							"type": "uint256"
						}
					],
					"stateMutability": "view",
					"type": "function"
				},
				{
					"inputs": [],
					"name": "_tTotal",
					"outputs": [
						{
							"internalType": "uint256",
							"name": "",
							"type": "uint256"
						}
					],
					"stateMutability": "view",
					"type": "function"
				},
				{
					"inputs": [
						{
							"internalType": "address",
							"name": "sender",
							"type": "address"
						},
						{
							"internalType": "address",
							"name": "recipient",
							"type": "address"
						},
						{
							"internalType": "uint256",
							"name": "amount",
							"type": "uint256"
						}
					],
					"name": "_transfer",
					"outputs": [],
					"stateMutability": "nonpayable",
					"type": "function"
				},
				{
					"inputs": [
						{
							"internalType": "address",
							"name": "sender",
							"type": "address"
						},
						{
							"internalType": "address",
							"name": "recipient",
							"type": "address"
						},
						{
							"internalType": "uint256",
							"name": "tAmount",
							"type": "uint256"
						}
					],
					"name": "_transferBothExcluded",
					"outputs": [],
					"stateMutability": "nonpayable",
					"type": "function"
				},
				{
					"inputs": [
						{
							"internalType": "address",
							"name": "sender",
							"type": "address"
						},
						{
							"internalType": "address",
							"name": "recipient",
							"type": "address"
						},
						{
							"internalType": "uint256",
							"name": "tAmount",
							"type": "uint256"
						}
					],
					"name": "_transferFromExcluded",
					"outputs": [],
					"stateMutability": "nonpayable",
					"type": "function"
				},
				{
					"inputs": [
						{
							"internalType": "address",
							"name": "sender",
							"type": "address"
						},
						{
							"internalType": "address",
							"name": "recipient",
							"type": "address"
						},
						{
							"internalType": "uint256",
							"name": "tAmount",
							"type": "uint256"
						}
					],
					"name": "_transferStandard",
					"outputs": [],
					"stateMutability": "nonpayable",
					"type": "function"
				},
				{
					"inputs": [
						{
							"internalType": "address",
							"name": "sender",
							"type": "address"
						},
						{
							"internalType": "address",
							"name": "recipient",
							"type": "address"
						},
						{
							"internalType": "uint256",
							"name": "tAmount",
							"type": "uint256"
						}
					],
					"name": "_transferToExcluded",
					"outputs": [],
					"stateMutability": "nonpayable",
					"type": "function"
				},
				{
					"inputs": [
						{
							"internalType": "address",
							"name": "owner",
							"type": "address"
						},
						{
							"internalType": "address",
							"name": "spender",
							"type": "address"
						}
					],
					"name": "allowance",
					"outputs": [
						{
							"internalType": "uint256",
							"name": "",
							"type": "uint256"
						}
					],
					"stateMutability": "view",
					"type": "function"
				},
				{
					"inputs": [
						{
							"internalType": "address",
							"name": "spender",
							"type": "address"
						},
						{
							"internalType": "uint256",
							"name": "amount",
							"type": "uint256"
						}
					],
					"name": "approve",
					"outputs": [
						{
							"internalType": "bool",
							"name": "",
							"type": "bool"
						}
					],
					"stateMutability": "nonpayable",
					"type": "function"
				},
				{
					"inputs": [
						{
							"internalType": "address",
							"name": "account",
							"type": "address"
						}
					],
					"name": "balanceOf",
					"outputs": [
						{
							"internalType": "uint256",
							"name": "",
							"type": "uint256"
						}
					],
					"stateMutability": "view",
					"type": "function"
				},
				{
					"inputs": [],
					"name": "decimals",
					"outputs": [
						{
							"internalType": "uint8",
							"name": "",
							"type": "uint8"
						}
					],
					"stateMutability": "view",
					"type": "function"
				},
				{
					"inputs": [
						{
							"internalType": "address",
							"name": "spender",
							"type": "address"
						},
						{
							"internalType": "uint256",
							"name": "subtractedValue",
							"type": "uint256"
						}
					],
					"name": "decreaseAllowance",
					"outputs": [
						{
							"internalType": "bool",
							"name": "",
							"type": "bool"
						}
					],
					"stateMutability": "nonpayable",
					"type": "function"
				},
				{
					"inputs": [
						{
							"internalType": "address",
							"name": "account",
							"type": "address"
						}
					],
					"name": "excludeAccount",
					"outputs": [],
					"stateMutability": "nonpayable",
					"type": "function"
				},
				{
					"inputs": [
						{
							"internalType": "address",
							"name": "account",
							"type": "address"
						}
					],
					"name": "includeAccount",
					"outputs": [],
					"stateMutability": "nonpayable",
					"type": "function"
				},
				{
					"inputs": [
						{
							"internalType": "address",
							"name": "spender",
							"type": "address"
						},
						{
							"internalType": "uint256",
							"name": "addedValue",
							"type": "uint256"
						}
					],
					"name": "increaseAllowance",
					"outputs": [
						{
							"internalType": "bool",
							"name": "",
							"type": "bool"
						}
					],
					"stateMutability": "nonpayable",
					"type": "function"
				},
				{
					"inputs": [
						{
							"internalType": "address",
							"name": "account",
							"type": "address"
						}
					],
					"name": "isExcluded",
					"outputs": [
						{
							"internalType": "bool",
							"name": "",
							"type": "bool"
						}
					],
					"stateMutability": "view",
					"type": "function"
				},
				{
					"inputs": [],
					"name": "name",
					"outputs": [
						{
							"internalType": "string",
							"name": "",
							"type": "string"
						}
					],
					"stateMutability": "view",
					"type": "function"
				},
				{
					"inputs": [],
					"name": "owner",
					"outputs": [
						{
							"internalType": "address",
							"name": "",
							"type": "address"
						}
					],
					"stateMutability": "view",
					"type": "function"
				},
				{
					"inputs": [],
					"name": "percent",
					"outputs": [
						{
							"internalType": "uint256",
							"name": "",
							"type": "uint256"
						}
					],
					"stateMutability": "view",
					"type": "function"
				},
				{
					"inputs": [
						{
							"internalType": "uint256",
							"name": "tAmount",
							"type": "uint256"
						}
					],
					"name": "reflect",
					"outputs": [],
					"stateMutability": "nonpayable",
					"type": "function"
				},
				{
					"inputs": [
						{
							"internalType": "uint256",
							"name": "tAmount",
							"type": "uint256"
						},
						{
							"internalType": "bool",
							"name": "deductTransferFee",
							"type": "bool"
						}
					],
					"name": "reflectionFromToken",
					"outputs": [
						{
							"internalType": "uint256",
							"name": "",
							"type": "uint256"
						}
					],
					"stateMutability": "view",
					"type": "function"
				},
				{
					"inputs": [],
					"name": "renounceOwnership",
					"outputs": [],
					"stateMutability": "nonpayable",
					"type": "function"
				},
				{
					"inputs": [],
					"name": "symbol",
					"outputs": [
						{
							"internalType": "string",
							"name": "",
							"type": "string"
						}
					],
					"stateMutability": "view",
					"type": "function"
				},
				{
					"inputs": [
						{
							"internalType": "uint256",
							"name": "rAmount",
							"type": "uint256"
						}
					],
					"name": "tokenFromReflection",
					"outputs": [
						{
							"internalType": "uint256",
							"name": "",
							"type": "uint256"
						}
					],
					"stateMutability": "view",
					"type": "function"
				},
				{
					"inputs": [],
					"name": "totalFees",
					"outputs": [
						{
							"internalType": "uint256",
							"name": "",
							"type": "uint256"
						}
					],
					"stateMutability": "view",
					"type": "function"
				},
				{
					"inputs": [],
					"name": "totalSupply",
					"outputs": [
						{
							"internalType": "uint256",
							"name": "",
							"type": "uint256"
						}
					],
					"stateMutability": "view",
					"type": "function"
				},
				{
					"inputs": [
						{
							"internalType": "address",
							"name": "recipient",
							"type": "address"
						},
						{
							"internalType": "uint256",
							"name": "amount",
							"type": "uint256"
						}
					],
					"name": "transfer",
					"outputs": [
						{
							"internalType": "bool",
							"name": "",
							"type": "bool"
						}
					],
					"stateMutability": "nonpayable",
					"type": "function"
				},
				{
					"inputs": [
						{
							"internalType": "address",
							"name": "sender",
							"type": "address"
						},
						{
							"internalType": "address",
							"name": "recipient",
							"type": "address"
						},
						{
							"internalType": "uint256",
							"name": "amount",
							"type": "uint256"
						}
					],
					"name": "transferFrom",
					"outputs": [
						{
							"internalType": "bool",
							"name": "",
							"type": "bool"
						}
					],
					"stateMutability": "nonpayable",
					"type": "function"
				},
				{
					"inputs": [
						{
							"internalType": "address",
							"name": "newOwner",
							"type": "address"
						}
					],
					"name": "transferOwnership",
					"outputs": [],
					"stateMutability": "nonpayable",
					"type": "function"
				},
				{
					"inputs": [],
					"name": "workingSupply",
					"outputs": [
						{
							"internalType": "uint256",
							"name": "",
							"type": "uint256"
						}
					],
					"stateMutability": "view",
					"type": "function"
				}
			],
			"devdoc": {
				"kind": "dev",
				"methods": {
					"allowance(address,address)": {
						"details": "Returns the remaining number of tokens that `spender` will be allowed to spend on behalf of `owner` through {transferFrom}. This is zero by default. This value changes when {approve} or {transferFrom} are called."
					},
					"approve(address,uint256)": {
						"details": "Sets `amount` as the allowance of `spender` over the caller's tokens. Returns a boolean value indicating whether the operation succeeded. IMPORTANT: Beware that changing an allowance with this method brings the risk that someone may use both the old and the new allowance by unfortunate transaction ordering. One possible solution to mitigate this race condition is to first reduce the spender's allowance to 0 and set the desired value afterwards: https://github.com/ethereum/EIPs/issues/20#issuecomment-263524729 Emits an {Approval} event."
					},
					"balanceOf(address)": {
						"details": "Returns the amount of tokens owned by `account`."
					},
					"owner()": {
						"details": "Returns the address of the current owner."
					},
					"renounceOwnership()": {
						"details": "Leaves the contract without owner. It will not be possible to call `onlyOwner` functions anymore. Can only be called by the current owner. NOTE: Renouncing ownership will leave the contract without an owner, thereby removing any functionality that is only available to the owner."
					},
					"totalSupply()": {
						"details": "Returns the amount of tokens in existence."
					},
					"transfer(address,uint256)": {
						"details": "Moves `amount` tokens from the caller's account to `recipient`. Returns a boolean value indicating whether the operation succeeded. Emits a {Transfer} event."
					},
					"transferFrom(address,address,uint256)": {
						"details": "Moves `amount` tokens from `sender` to `recipient` using the allowance mechanism. `amount` is then deducted from the caller's allowance. Returns a boolean value indicating whether the operation succeeded. Emits a {Transfer} event."
					},
					"transferOwnership(address)": {
						"details": "Transfers ownership of the contract to a new account (`newOwner`). Can only be called by the current owner."
					}
				},
				"version": 1
			},
			"evm": {
				"assembly": "    /* \"feg.sol\":15538:25819  contract FEG is Context, IERC20, Ownable {... */\n  mstore(0x40, 0x80)\n    /* \"feg.sol\":16016:16017  8 */\n  0x08\n    /* \"feg.sol\":15991:16017  uint8 public _decimals = 8 */\n  0x06\n  exp(0x0100, 0x00)\n  dup2\n  sload\n  dup2\n  0xff\n  mul\n  not\n  and\n  swap1\n  dup4\n  0xff\n  and\n  mul\n  or\n  swap1\n  sstore\n  pop\n    /* \"feg.sol\":16048:16050  20 */\n  0x14\n    /* \"feg.sol\":16023:16050  uint256 public percent = 20 */\n  0x07\n  sstore\n    /* \"feg.sol\":15982:15985  100 */\n  0x64\n    /* \"feg.sol\":15938:15942  1000 */\n  0x03e8\n    /* \"feg.sol\":16280:16293  MAX % _tTotal */\n  dup2\n  tag_1\n  jumpi\n  invalid\ntag_1:\n  mod\n    /* \"feg.sol\":15938:15942  1000 */\n  0x03e8\n    /* \"feg.sol\":16273:16294  MAX - (MAX % _tTotal) */\n  sub\n    /* \"feg.sol\":16247:16295  uint256 public _rTotal = (MAX - (MAX % _tTotal)) */\n  0x08\n  sstore\n    /* \"feg.sol\":16333:16365  string public _name = 'FEGtoken' */\n  mload(0x40)\n  dup1\n  0x40\n  add\n  0x40\n  mstore\n  dup1\n  0x08\n  dup2\n  mstore\n  0x20\n  add\n  0x464547746f6b656e000000000000000000000000000000000000000000000000\n  dup2\n  mstore\n  pop\n  0x0a\n  swap1\n  dup1\n  mload\n  swap1\n  0x20\n  add\n  swap1\n  tag_2\n  swap3\n  swap2\n  swap1\n  tag_3\n  jump\t// in\ntag_2:\n  pop\n    /* \"feg.sol\":16371:16400  string public _symbol = 'FEG' */\n  mload(0x40)\n  dup1\n  0x40\n  add\n  0x40\n  mstore\n  dup1\n  0x03\n  dup2\n  mstore\n  0x20\n  add\n  0x4645470000000000000000000000000000000000000000000000000000000000\n  dup2\n  mstore\n  pop\n  0x0b\n  swap1\n  dup1\n  mload\n  swap1\n  0x20\n  add\n  swap1\n  tag_4\n  swap3\n  swap2\n  swap1\n  tag_3\n  jump\t// in\ntag_4:\n  pop\n    /* \"feg.sol\":16416:16544  constructor () public {... */\n  callvalue\n  dup1\n  iszero\n  tag_5\n  jumpi\n  0x00\n  dup1\n  revert\ntag_5:\n  pop\n    /* \"feg.sol\":14174:14191  address msgSender */\n  0x00\n    /* \"feg.sol\":14194:14206  _msgSender() */\n  tag_9\n    /* \"feg.sol\":14194:14204  _msgSender */\n  shl(0x20, tag_10)\n    /* \"feg.sol\":14194:14206  _msgSender() */\n  0x20\n  shr\n  jump\t// in\ntag_9:\n    /* \"feg.sol\":14174:14206  address msgSender = _msgSender() */\n  swap1\n  pop\n    /* \"feg.sol\":14225:14234  msgSender */\n  dup1\n    /* \"feg.sol\":14216:14222  _owner */\n  0x00\n  dup1\n    /* \"feg.sol\":14216:14234  _owner = msgSender */\n  0x0100\n  exp\n  dup2\n  sload\n  dup2\n  0xffffffffffffffffffffffffffffffffffffffff\n  mul\n  not\n  and\n  swap1\n  dup4\n  0xffffffffffffffffffffffffffffffffffffffff\n  and\n  mul\n  or\n  swap1\n  sstore\n  pop\n    /* \"feg.sol\":14282:14291  msgSender */\n  dup1\n    /* \"feg.sol\":14249:14292  OwnershipTransferred(address(0), msgSender) */\n  0xffffffffffffffffffffffffffffffffffffffff\n  and\n    /* \"feg.sol\":14278:14279  0 */\n  0x00\n    /* \"feg.sol\":14249:14292  OwnershipTransferred(address(0), msgSender) */\n  0xffffffffffffffffffffffffffffffffffffffff\n  and\n  0x8be0079c531659141344cd1fd0a4f28419497f9722a3daafe3b4186f6b6457e0\n  mload(0x40)\n  mload(0x40)\n  dup1\n  swap2\n  sub\n  swap1\n  log3\n    /* \"feg.sol\":14140:14299  constructor () internal {... */\n  pop\n    /* \"feg.sol\":16472:16479  _rTotal */\n  sload(0x08)\n    /* \"feg.sol\":16448:16455  _rOwned */\n  0x01\n    /* \"feg.sol\":16448:16469  _rOwned[_msgSender()] */\n  0x00\n    /* \"feg.sol\":16456:16468  _msgSender() */\n  tag_12\n    /* \"feg.sol\":16456:16466  _msgSender */\n  shl(0x20, tag_10)\n    /* \"feg.sol\":16456:16468  _msgSender() */\n  0x20\n  shr\n  jump\t// in\ntag_12:\n    /* \"feg.sol\":16448:16469  _rOwned[_msgSender()] */\n  0xffffffffffffffffffffffffffffffffffffffff\n  and\n  0xffffffffffffffffffffffffffffffffffffffff\n  and\n  dup2\n  mstore\n  0x20\n  add\n  swap1\n  dup2\n  mstore\n  0x20\n  add\n  0x00\n  keccak256\n    /* \"feg.sol\":16448:16479  _rOwned[_msgSender()] = _rTotal */\n  dup2\n  swap1\n  sstore\n  pop\n    /* \"feg.sol\":16515:16527  _msgSender() */\n  tag_13\n    /* \"feg.sol\":16515:16525  _msgSender */\n  shl(0x20, tag_10)\n    /* \"feg.sol\":16515:16527  _msgSender() */\n  0x20\n  shr\n  jump\t// in\ntag_13:\n    /* \"feg.sol\":16494:16537  Transfer(address(0), _msgSender(), _tTotal) */\n  0xffffffffffffffffffffffffffffffffffffffff\n  and\n    /* \"feg.sol\":16511:16512  0 */\n  0x00\n    /* \"feg.sol\":16494:16537  Transfer(address(0), _msgSender(), _tTotal) */\n  0xffffffffffffffffffffffffffffffffffffffff\n  and\n  0xddf252ad1be2c89b69c2b068fc378daa952ba7f163c4a11628f55a4df523b3ef\n    /* \"feg.sol\":15982:15985  100 */\n  0x64\n    /* \"feg.sol\":16494:16537  Transfer(address(0), _msgSender(), _tTotal) */\n  mload(0x40)\n  dup1\n  dup3\n  dup2\n  mstore\n  0x20\n  add\n  swap2\n  pop\n  pop\n  mload(0x40)\n  dup1\n  swap2\n  sub\n  swap1\n  log3\n    /* \"feg.sol\":15538:25819  contract FEG is Context, IERC20, Ownable {... */\n  jump(tag_14)\n    /* \"feg.sol\":448:552  function _msgSender() internal view virtual returns (address payable) {... */\ntag_10:\n    /* \"feg.sol\":501:516  address payable */\n  0x00\n    /* \"feg.sol\":535:545  msg.sender */\n  caller\n    /* \"feg.sol\":528:545  return msg.sender */\n  swap1\n  pop\n    /* \"feg.sol\":448:552  function _msgSender() internal view virtual returns (address payable) {... */\n  swap1\n  jump\t// out\n    /* \"feg.sol\":15538:25819  contract FEG is Context, IERC20, Ownable {... */\ntag_3:\n  dup3\n  dup1\n  sload\n  0x01\n  dup2\n  0x01\n  and\n  iszero\n  0x0100\n  mul\n  sub\n  and\n  0x02\n  swap1\n  div\n  swap1\n  0x00\n  mstore\n  keccak256(0x00, 0x20)\n  swap1\n  0x1f\n  add\n  0x20\n  swap1\n  div\n  dup2\n  add\n  swap3\n  dup3\n  0x1f\n  lt\n  tag_17\n  jumpi\n  dup1\n  mload\n  not(0xff)\n  and\n  dup4\n  dup1\n  add\n  or\n  dup6\n  sstore\n  jump(tag_16)\ntag_17:\n  dup3\n  dup1\n  add\n  0x01\n  add\n  dup6\n  sstore\n  dup3\n  iszero\n  tag_16\n  jumpi\n  swap2\n  dup3\n  add\ntag_18:\n  dup3\n  dup2\n  gt\n  iszero\n  tag_19\n  jumpi\n  dup3\n  mload\n  dup3\n  sstore\n  swap2\n  0x20\n  add\n  swap2\n  swap1\n  0x01\n  add\n  swap1\n  jump(tag_18)\ntag_19:\ntag_16:\n  pop\n  swap1\n  pop\n  tag_20\n  swap2\n  swap1\n  tag_21\n  jump\t// in\ntag_20:\n  pop\n  swap1\n  jump\t// out\ntag_21:\ntag_22:\n  dup1\n  dup3\n  gt\n  iszero\n  tag_23\n  jumpi\n  0x00\n  dup2\n  0x00\n  swap1\n  sstore\n  pop\n  0x01\n  add\n  jump(tag_22)\ntag_23:\n  pop\n  swap1\n  jump\t// out\ntag_14:\n  dataSize(sub_0)\n  dup1\n  dataOffset(sub_0)\n  0x00\n  codecopy\n  0x00\n  return\nstop\n\nsub_0: assembly {\n        /* \"feg.sol\":15538:25819  contract FEG is Context, IERC20, Ownable {... */\n      mstore(0x40, 0x80)\n      callvalue\n      dup1\n      iszero\n      tag_1\n      jumpi\n      0x00\n      dup1\n      revert\n    tag_1:\n      pop\n      jumpi(tag_2, lt(calldatasize, 0x04))\n      shr(0xe0, calldataload(0x00))\n      dup1\n      0x70a08231\n      gt\n      tag_51\n      jumpi\n      dup1\n      0xc2264c6a\n      gt\n      tag_52\n      jumpi\n      dup1\n      0xd49d5181\n      gt\n      tag_53\n      jumpi\n      dup1\n      0xd49d5181\n      eq\n      tag_45\n      jumpi\n      dup1\n      0xdd62ed3e\n      eq\n      tag_46\n      jumpi\n      dup1\n      0xf2cc0c18\n      eq\n      tag_47\n      jumpi\n      dup1\n      0xf2fde38b\n      eq\n      tag_48\n      jumpi\n      dup1\n      0xf84354f1\n      eq\n      tag_49\n      jumpi\n      dup1\n      0xfb1eb14b\n      eq\n      tag_50\n      jumpi\n      jump(tag_2)\n    tag_53:\n      dup1\n      0xc2264c6a\n      eq\n      tag_39\n      jumpi\n      dup1\n      0xc7d9be66\n      eq\n      tag_40\n      jumpi\n      dup1\n      0xc8562f72\n      eq\n      tag_41\n      jumpi\n      dup1\n      0xcba0e996\n      eq\n      tag_42\n      jumpi\n      dup1\n      0xd28d8852\n      eq\n      tag_43\n      jumpi\n      dup1\n      0xd4780e36\n      eq\n      tag_44\n      jumpi\n      jump(tag_2)\n    tag_52:\n      dup1\n      0x97a9d560\n      gt\n      tag_54\n      jumpi\n      dup1\n      0x97a9d560\n      eq\n      tag_33\n      jumpi\n      dup1\n      0xa457c2d7\n      eq\n      tag_34\n      jumpi\n      dup1\n      0xa9059cbb\n      eq\n      tag_35\n      jumpi\n      dup1\n      0xaf465a27\n      eq\n      tag_36\n      jumpi\n      dup1\n      0xb09f1266\n      eq\n      tag_37\n      jumpi\n      dup1\n      0xb2bdfa7b\n      eq\n      tag_38\n      jumpi\n      jump(tag_2)\n    tag_54:\n      dup1\n      0x70a08231\n      eq\n      tag_27\n      jumpi\n      dup1\n      0x70ba1113\n      eq\n      tag_28\n      jumpi\n      dup1\n      0x715018a6\n      eq\n      tag_29\n      jumpi\n      dup1\n      0x8da5cb5b\n      eq\n      tag_30\n      jumpi\n      dup1\n      0x94e10784\n      eq\n      tag_31\n      jumpi\n      dup1\n      0x95d89b41\n      eq\n      tag_32\n      jumpi\n      jump(tag_2)\n    tag_51:\n      dup1\n      0x23b872dd\n      gt\n      tag_55\n      jumpi\n      dup1\n      0x39509351\n      gt\n      tag_56\n      jumpi\n      dup1\n      0x39509351\n      eq\n      tag_21\n      jumpi\n      dup1\n      0x3b7e6d4a\n      eq\n      tag_22\n      jumpi\n      dup1\n      0x4549b039\n      eq\n      tag_23\n      jumpi\n      dup1\n      0x45e0b9d4\n      eq\n      tag_24\n      jumpi\n      dup1\n      0x4d09deb3\n      eq\n      tag_25\n      jumpi\n      dup1\n      0x6ff6cdf4\n      eq\n      tag_26\n      jumpi\n      jump(tag_2)\n    tag_56:\n      dup1\n      0x23b872dd\n      eq\n      tag_15\n      jumpi\n      dup1\n      0x2852df65\n      eq\n      tag_16\n      jumpi\n      dup1\n      0x2d838119\n      eq\n      tag_17\n      jumpi\n      dup1\n      0x30e0789e\n      eq\n      tag_18\n      jumpi\n      dup1\n      0x313ce567\n      eq\n      tag_19\n      jumpi\n      dup1\n      0x32424aa3\n      eq\n      tag_20\n      jumpi\n      jump(tag_2)\n    tag_55:\n      dup1\n      0x104e81ff\n      gt\n      tag_57\n      jumpi\n      dup1\n      0x104e81ff\n      eq\n      tag_9\n      jumpi\n      dup1\n      0x11902160\n      eq\n      tag_10\n      jumpi\n      dup1\n      0x13114a9d\n      eq\n      tag_11\n      jumpi\n      dup1\n      0x16f1cc83\n      eq\n      tag_12\n      jumpi\n      dup1\n      0x18160ddd\n      eq\n      tag_13\n      jumpi\n      dup1\n      0x184d894e\n      eq\n      tag_14\n      jumpi\n      jump(tag_2)\n    tag_57:\n      dup1\n      0x024c2ddd\n      eq\n      tag_3\n      jumpi\n      dup1\n      0x053ab182\n      eq\n      tag_4\n      jumpi\n      dup1\n      0x06fdde03\n      eq\n      tag_5\n      jumpi\n      dup1\n      0x095ea7b3\n      eq\n      tag_6\n      jumpi\n      dup1\n      0x0b285b1f\n      eq\n      tag_7\n      jumpi\n      dup1\n      0x0cfc15f9\n      eq\n      tag_8\n      jumpi\n    tag_2:\n      0x00\n      dup1\n      revert\n        /* \"feg.sol\":15747:15815  mapping (address => mapping (address => uint256)) public _allowances */\n    tag_3:\n      tag_58\n      0x04\n      dup1\n      calldatasize\n      sub\n      0x40\n      dup2\n      lt\n      iszero\n      tag_59\n      jumpi\n      0x00\n      dup1\n      revert\n    tag_59:\n      dup2\n      add\n      swap1\n      dup1\n      dup1\n      calldataload\n      0xffffffffffffffffffffffffffffffffffffffff\n      and\n      swap1\n      0x20\n      add\n      swap1\n      swap3\n      swap2\n      swap1\n      dup1\n      calldataload\n      0xffffffffffffffffffffffffffffffffffffffff\n      and\n      swap1\n      0x20\n      add\n      swap1\n      swap3\n      swap2\n      swap1\n      pop\n      pop\n      pop\n      tag_60\n      jump\t// in\n    tag_58:\n      mload(0x40)\n      dup1\n      dup3\n      dup2\n      mstore\n      0x20\n      add\n      swap2\n      pop\n      pop\n      mload(0x40)\n      dup1\n      swap2\n      sub\n      swap1\n      return\n        /* \"feg.sol\":18789:19158  function reflect(uint256 tAmount) public {... */\n    tag_4:\n      tag_61\n      0x04\n      dup1\n      calldatasize\n      sub\n      0x20\n      dup2\n      lt\n      iszero\n      tag_62\n      jumpi\n      0x00\n      dup1\n      revert\n    tag_62:\n      dup2\n      add\n      swap1\n      dup1\n      dup1\n      calldataload\n      swap1\n      0x20\n      add\n      swap1\n      swap3\n      swap2\n      swap1\n      pop\n      pop\n      pop\n      tag_63\n      jump\t// in\n    tag_61:\n      stop\n        /* \"feg.sol\":16550:16631  function name() public view returns (string memory) {... */\n    tag_5:\n      tag_64\n      tag_65\n      jump\t// in\n    tag_64:\n      mload(0x40)\n      dup1\n      dup1\n      0x20\n      add\n      dup3\n      dup2\n      sub\n      dup3\n      mstore\n      dup4\n      dup2\n      dup2\n      mload\n      dup2\n      mstore\n      0x20\n      add\n      swap2\n      pop\n      dup1\n      mload\n      swap1\n      0x20\n      add\n      swap1\n      dup1\n      dup4\n      dup4\n      0x00\n    tag_66:\n      dup4\n      dup2\n      lt\n      iszero\n      tag_68\n      jumpi\n      dup1\n      dup3\n      add\n      mload\n      dup2\n      dup5\n      add\n      mstore\n      0x20\n      dup2\n      add\n      swap1\n      pop\n      jump(tag_66)\n    tag_68:\n      pop\n      pop\n      pop\n      pop\n      swap1\n      pop\n      swap1\n      dup2\n      add\n      swap1\n      0x1f\n      and\n      dup1\n      iszero\n      tag_69\n      jumpi\n      dup1\n      dup3\n      sub\n      dup1\n      mload\n      0x01\n      dup4\n      0x20\n      sub\n      0x0100\n      exp\n      sub\n      not\n      and\n      dup2\n      mstore\n      0x20\n      add\n      swap2\n      pop\n    tag_69:\n      pop\n      swap3\n      pop\n      pop\n      pop\n      mload(0x40)\n      dup1\n      swap2\n      sub\n      swap1\n      return\n        /* \"feg.sol\":17612:17770  function approve(address spender, uint256 amount) public override returns (bool) {... */\n    tag_6:\n      tag_70\n      0x04\n      dup1\n      calldatasize\n      sub\n      0x40\n      dup2\n      lt\n      iszero\n      tag_71\n      jumpi\n      0x00\n      dup1\n      revert\n    tag_71:\n      dup2\n      add\n      swap1\n      dup1\n      dup1\n      calldataload\n      0xffffffffffffffffffffffffffffffffffffffff\n      and\n      swap1\n      0x20\n      add\n      swap1\n      swap3\n      swap2\n      swap1\n      dup1\n      calldataload\n      swap1\n      0x20\n      add\n      swap1\n      swap3\n      swap2\n      swap1\n      pop\n      pop\n      pop\n      tag_72\n      jump\t// in\n    tag_70:\n      mload(0x40)\n      dup1\n      dup3\n      iszero\n      iszero\n      dup2\n      mstore\n      0x20\n      add\n      swap2\n      pop\n      pop\n      mload(0x40)\n      dup1\n      swap2\n      sub\n      swap1\n      return\n        /* \"feg.sol\":15822:15866  mapping (address => bool) public _isExcluded */\n    tag_7:\n      tag_73\n      0x04\n      dup1\n      calldatasize\n      sub\n      0x20\n      dup2\n      lt\n      iszero\n      tag_74\n      jumpi\n      0x00\n      dup1\n      revert\n    tag_74:\n      dup2\n      add\n      swap1\n      dup1\n      dup1\n      calldataload\n      0xffffffffffffffffffffffffffffffffffffffff\n      and\n      swap1\n      0x20\n      add\n      swap1\n      swap3\n      swap2\n      swap1\n      pop\n      pop\n      pop\n      tag_75\n      jump\t// in\n    tag_73:\n      mload(0x40)\n      dup1\n      dup3\n      iszero\n      iszero\n      dup2\n      mstore\n      0x20\n      add\n      swap2\n      pop\n      pop\n      mload(0x40)\n      dup1\n      swap2\n      sub\n      swap1\n      return\n        /* \"feg.sol\":15649:15692  mapping (address => uint256) public _rOwned */\n    tag_8:\n      tag_76\n      0x04\n      dup1\n      calldatasize\n      sub\n      0x20\n      dup2\n      lt\n      iszero\n      tag_77\n      jumpi\n      0x00\n      dup1\n      revert\n    tag_77:\n      dup2\n      add\n      swap1\n      dup1\n      dup1\n      calldataload\n      0xffffffffffffffffffffffffffffffffffffffff\n      and\n      swap1\n      0x20\n      add\n      swap1\n      swap3\n      swap2\n      swap1\n      pop\n      pop\n      pop\n      tag_78\n      jump\t// in\n    tag_76:\n      mload(0x40)\n      dup1\n      dup3\n      dup2\n      mstore\n      0x20\n      add\n      swap2\n      pop\n      pop\n      mload(0x40)\n      dup1\n      swap2\n      sub\n      swap1\n      return\n        /* \"feg.sol\":20654:20984  function _approve(address owner, address spender, uint256 amount) public {... */\n    tag_9:\n      tag_79\n      0x04\n      dup1\n      calldatasize\n      sub\n      0x60\n      dup2\n      lt\n      iszero\n      tag_80\n      jumpi\n      0x00\n      dup1\n      revert\n    tag_80:\n      dup2\n      add\n      swap1\n      dup1\n      dup1\n      calldataload\n      0xffffffffffffffffffffffffffffffffffffffff\n      and\n      swap1\n      0x20\n      add\n      swap1\n      swap3\n      swap2\n      swap1\n      dup1\n      calldataload\n      0xffffffffffffffffffffffffffffffffffffffff\n      and\n      swap1\n      0x20\n      add\n      swap1\n      swap3\n      swap2\n      swap1\n      dup1\n      calldataload\n      swap1\n      0x20\n      add\n      swap1\n      swap3\n      swap2\n      swap1\n      pop\n      pop\n      pop\n      tag_81\n      jump\t// in\n    tag_79:\n      stop\n        /* \"feg.sol\":24538:24762  function _getTValues(uint256 tAmount) public view returns (uint256, uint256) {... */\n    tag_10:\n      tag_82\n      0x04\n      dup1\n      calldatasize\n      sub\n      0x20\n      dup2\n      lt\n      iszero\n      tag_83\n      jumpi\n      0x00\n      dup1\n      revert\n    tag_83:\n      dup2\n      add\n      swap1\n      dup1\n      dup1\n      calldataload\n      swap1\n      0x20\n      add\n      swap1\n      swap3\n      swap2\n      swap1\n      pop\n      pop\n      pop\n      tag_84\n      jump\t// in\n    tag_82:\n      mload(0x40)\n      dup1\n      dup4\n      dup2\n      mstore\n      0x20\n      add\n      dup3\n      dup2\n      mstore\n      0x20\n      add\n      swap3\n      pop\n      pop\n      pop\n      mload(0x40)\n      dup1\n      swap2\n      sub\n      swap1\n      return\n        /* \"feg.sol\":18698:18783  function totalFees() public view returns (uint256) {... */\n    tag_11:\n      tag_85\n      tag_86\n      jump\t// in\n    tag_85:\n      mload(0x40)\n      dup1\n      dup3\n      dup2\n      mstore\n      0x20\n      add\n      swap2\n      pop\n      pop\n      mload(0x40)\n      dup1\n      swap2\n      sub\n      swap1\n      return\n        /* \"feg.sol\":22362:22883  function _transferToExcluded(address sender, address recipient, uint256 tAmount) public {... */\n    tag_12:\n      tag_87\n      0x04\n      dup1\n      calldatasize\n      sub\n      0x60\n      dup2\n      lt\n      iszero\n      tag_88\n      jumpi\n      0x00\n      dup1\n      revert\n    tag_88:\n      dup2\n      add\n      swap1\n      dup1\n      dup1\n      calldataload\n      0xffffffffffffffffffffffffffffffffffffffff\n      and\n      swap1\n      0x20\n      add\n      swap1\n      swap3\n      swap2\n      swap1\n      dup1\n      calldataload\n      0xffffffffffffffffffffffffffffffffffffffff\n      and\n      swap1\n      0x20\n      add\n      swap1\n      swap3\n      swap2\n      swap1\n      dup1\n      calldataload\n      swap1\n      0x20\n      add\n      swap1\n      swap3\n      swap2\n      swap1\n      pop\n      pop\n      pop\n      tag_89\n      jump\t// in\n    tag_87:\n      stop\n        /* \"feg.sol\":16815:16908  function totalSupply() public view override returns (uint256) {... */\n    tag_13:\n      tag_90\n      tag_91\n      jump\t// in\n    tag_90:\n      mload(0x40)\n      dup1\n      dup3\n      dup2\n      mstore\n      0x20\n      add\n      swap2\n      pop\n      pop\n      mload(0x40)\n      dup1\n      swap2\n      sub\n      swap1\n      return\n        /* \"feg.sol\":23978:24121  function _reflectFee(uint256 rFee, uint256 tFee) public {... */\n    tag_14:\n      tag_92\n      0x04\n      dup1\n      calldatasize\n      sub\n      0x40\n      dup2\n      lt\n      iszero\n      tag_93\n      jumpi\n      0x00\n      dup1\n      revert\n    tag_93:\n      dup2\n      add\n      swap1\n      dup1\n      dup1\n      calldataload\n      swap1\n      0x20\n      add\n      swap1\n      swap3\n      swap2\n      swap1\n      dup1\n      calldataload\n      swap1\n      0x20\n      add\n      swap1\n      swap3\n      swap2\n      swap1\n      pop\n      pop\n      pop\n      tag_94\n      jump\t// in\n    tag_92:\n      stop\n        /* \"feg.sol\":17776:18085  function transferFrom(address sender, address recipient, uint256 amount) public override returns (bool) {... */\n    tag_15:\n      tag_95\n      0x04\n      dup1\n      calldatasize\n      sub\n      0x60\n      dup2\n      lt\n      iszero\n      tag_96\n      jumpi\n      0x00\n      dup1\n      revert\n    tag_96:\n      dup2\n      add\n      swap1\n      dup1\n      dup1\n      calldataload\n      0xffffffffffffffffffffffffffffffffffffffff\n      and\n      swap1\n      0x20\n      add\n      swap1\n      swap3\n      swap2\n      swap1\n      dup1\n      calldataload\n      0xffffffffffffffffffffffffffffffffffffffff\n      and\n      swap1\n      0x20\n      add\n      swap1\n      swap3\n      swap2\n      swap1\n      dup1\n      calldataload\n      swap1\n      0x20\n      add\n      swap1\n      swap3\n      swap2\n      swap1\n      pop\n      pop\n      pop\n      tag_97\n      jump\t// in\n    tag_95:\n      mload(0x40)\n      dup1\n      dup3\n      iszero\n      iszero\n      dup2\n      mstore\n      0x20\n      add\n      swap2\n      pop\n      pop\n      mload(0x40)\n      dup1\n      swap2\n      sub\n      swap1\n      return\n        /* \"feg.sol\":21911:22356  function _transferStandard(address sender, address recipient, uint256 tAmount) public {... */\n    tag_16:\n      tag_98\n      0x04\n      dup1\n      calldatasize\n      sub\n      0x60\n      dup2\n      lt\n      iszero\n      tag_99\n      jumpi\n      0x00\n      dup1\n      revert\n    tag_99:\n      dup2\n      add\n      swap1\n      dup1\n      dup1\n      calldataload\n      0xffffffffffffffffffffffffffffffffffffffff\n      and\n      swap1\n      0x20\n      add\n      swap1\n      swap3\n      swap2\n      swap1\n      dup1\n      calldataload\n      0xffffffffffffffffffffffffffffffffffffffff\n      and\n      swap1\n      0x20\n      add\n      swap1\n      swap3\n      swap2\n      swap1\n      dup1\n      calldataload\n      swap1\n      0x20\n      add\n      swap1\n      swap3\n      swap2\n      swap1\n      pop\n      pop\n      pop\n      tag_100\n      jump\t// in\n    tag_98:\n      stop\n        /* \"feg.sol\":19595:19844  function tokenFromReflection(uint256 rAmount) public view returns(uint256) {... */\n    tag_17:\n      tag_101\n      0x04\n      dup1\n      calldatasize\n      sub\n      0x20\n      dup2\n      lt\n      iszero\n      tag_102\n      jumpi\n      0x00\n      dup1\n      revert\n    tag_102:\n      dup2\n      add\n      swap1\n      dup1\n      dup1\n      calldataload\n      swap1\n      0x20\n      add\n      swap1\n      swap3\n      swap2\n      swap1\n      pop\n      pop\n      pop\n      tag_103\n      jump\t// in\n    tag_101:\n      mload(0x40)\n      dup1\n      dup3\n      dup2\n      mstore\n      0x20\n      add\n      swap2\n      pop\n      pop\n      mload(0x40)\n      dup1\n      swap2\n      sub\n      swap1\n      return\n        /* \"feg.sol\":20990:21905  function _transfer(address sender, address recipient, uint256 amount) public {... */\n    tag_18:\n      tag_104\n      0x04\n      dup1\n      calldatasize\n      sub\n      0x60\n      dup2\n      lt\n      iszero\n      tag_105\n      jumpi\n      0x00\n      dup1\n      revert\n    tag_105:\n      dup2\n      add\n      swap1\n      dup1\n      dup1\n      calldataload\n      0xffffffffffffffffffffffffffffffffffffffff\n      and\n      swap1\n      0x20\n      add\n      swap1\n      swap3\n      swap2\n      swap1\n      dup1\n      calldataload\n      0xffffffffffffffffffffffffffffffffffffffff\n      and\n      swap1\n      0x20\n      add\n      swap1\n      swap3\n      swap2\n      swap1\n      dup1\n      calldataload\n      swap1\n      0x20\n      add\n      swap1\n      swap3\n      swap2\n      swap1\n      pop\n      pop\n      pop\n      tag_106\n      jump\t// in\n    tag_104:\n      stop\n        /* \"feg.sol\":16728:16809  function decimals() public view returns (uint8) {... */\n    tag_19:\n      tag_107\n      tag_108\n      jump\t// in\n    tag_107:\n      mload(0x40)\n      dup1\n      dup3\n      0xff\n      and\n      dup2\n      mstore\n      0x20\n      add\n      swap2\n      pop\n      pop\n      mload(0x40)\n      dup1\n      swap2\n      sub\n      swap1\n      return\n        /* \"feg.sol\":15991:16017  uint8 public _decimals = 8 */\n    tag_20:\n      tag_109\n      tag_110\n      jump\t// in\n    tag_109:\n      mload(0x40)\n      dup1\n      dup3\n      0xff\n      and\n      dup2\n      mstore\n      0x20\n      add\n      swap2\n      pop\n      pop\n      mload(0x40)\n      dup1\n      swap2\n      sub\n      swap1\n      return\n        /* \"feg.sol\":18091:18306  function increaseAllowance(address spender, uint256 addedValue) public virtual returns (bool) {... */\n    tag_21:\n      tag_111\n      0x04\n      dup1\n      calldatasize\n      sub\n      0x40\n      dup2\n      lt\n      iszero\n      tag_112\n      jumpi\n      0x00\n      dup1\n      revert\n    tag_112:\n      dup2\n      add\n      swap1\n      dup1\n      dup1\n      calldataload\n      0xffffffffffffffffffffffffffffffffffffffff\n      and\n      swap1\n      0x20\n      add\n      swap1\n      swap3\n      swap2\n      swap1\n      dup1\n      calldataload\n      swap1\n      0x20\n      add\n      swap1\n      swap3\n      swap2\n      swap1\n      pop\n      pop\n      pop\n      tag_113\n      jump\t// in\n    tag_111:\n      mload(0x40)\n      dup1\n      dup3\n      iszero\n      iszero\n      dup2\n      mstore\n      0x20\n      add\n      swap2\n      pop\n      pop\n      mload(0x40)\n      dup1\n      swap2\n      sub\n      swap1\n      return\n        /* \"feg.sol\":15698:15741  mapping (address => uint256) public _tOwned */\n    tag_22:\n      tag_114\n      0x04\n      dup1\n      calldatasize\n      sub\n      0x20\n      dup2\n      lt\n      iszero\n      tag_115\n      jumpi\n      0x00\n      dup1\n      revert\n    tag_115:\n      dup2\n      add\n      swap1\n      dup1\n      dup1\n      calldataload\n      0xffffffffffffffffffffffffffffffffffffffff\n      and\n      swap1\n      0x20\n      add\n      swap1\n      swap3\n      swap2\n      swap1\n      pop\n      pop\n      pop\n      tag_116\n      jump\t// in\n    tag_114:\n      mload(0x40)\n      dup1\n      dup3\n      dup2\n      mstore\n      0x20\n      add\n      swap2\n      pop\n      pop\n      mload(0x40)\n      dup1\n      swap2\n      sub\n      swap1\n      return\n        /* \"feg.sol\":19164:19589  function reflectionFromToken(uint256 tAmount, bool deductTransferFee) public view returns(uint256) {... */\n    tag_23:\n      tag_117\n      0x04\n      dup1\n      calldatasize\n      sub\n      0x40\n      dup2\n      lt\n      iszero\n      tag_118\n      jumpi\n      0x00\n      dup1\n      revert\n    tag_118:\n      dup2\n      add\n      swap1\n      dup1\n      dup1\n      calldataload\n      swap1\n      0x20\n      add\n      swap1\n      swap3\n      swap2\n      swap1\n      dup1\n      calldataload\n      iszero\n      iszero\n      swap1\n      0x20\n      add\n      swap1\n      swap3\n      swap2\n      swap1\n      pop\n      pop\n      pop\n      tag_119\n      jump\t// in\n    tag_117:\n      mload(0x40)\n      dup1\n      dup3\n      dup2\n      mstore\n      0x20\n      add\n      swap2\n      pop\n      pop\n      mload(0x40)\n      dup1\n      swap2\n      sub\n      swap1\n      return\n        /* \"feg.sol\":16247:16295  uint256 public _rTotal = (MAX - (MAX % _tTotal)) */\n    tag_24:\n      tag_120\n      tag_121\n      jump\t// in\n    tag_120:\n      mload(0x40)\n      dup1\n      dup3\n      dup2\n      mstore\n      0x20\n      add\n      swap2\n      pop\n      pop\n      mload(0x40)\n      dup1\n      swap2\n      sub\n      swap1\n      return\n        /* \"feg.sol\":15872:15898  address[] public _excluded */\n    tag_25:\n      tag_122\n      0x04\n      dup1\n      calldatasize\n      sub\n      0x20\n      dup2\n      lt\n      iszero\n      tag_123\n      jumpi\n      0x00\n      dup1\n      revert\n    tag_123:\n      dup2\n      add\n      swap1\n      dup1\n      dup1\n      calldataload\n      swap1\n      0x20\n      add\n      swap1\n      swap3\n      swap2\n      swap1\n      pop\n      pop\n      pop\n      tag_124\n      jump\t// in\n    tag_122:\n      mload(0x40)\n      dup1\n      dup3\n      0xffffffffffffffffffffffffffffffffffffffff\n      and\n      dup2\n      mstore\n      0x20\n      add\n      swap2\n      pop\n      pop\n      mload(0x40)\n      dup1\n      swap2\n      sub\n      swap1\n      return\n        /* \"feg.sol\":23396:23972  function _transferBothExcluded(address sender, address recipient, uint256 tAmount) public {... */\n    tag_26:\n      tag_125\n      0x04\n      dup1\n      calldatasize\n      sub\n      0x60\n      dup2\n      lt\n      iszero\n      tag_126\n      jumpi\n      0x00\n      dup1\n      revert\n    tag_126:\n      dup2\n      add\n      swap1\n      dup1\n      dup1\n      calldataload\n      0xffffffffffffffffffffffffffffffffffffffff\n      and\n      swap1\n      0x20\n      add\n      swap1\n      swap3\n      swap2\n      swap1\n      dup1\n      calldataload\n      0xffffffffffffffffffffffffffffffffffffffff\n      and\n      swap1\n      0x20\n      add\n      swap1\n      swap3\n      swap2\n      swap1\n      dup1\n      calldataload\n      swap1\n      0x20\n      add\n      swap1\n      swap3\n      swap2\n      swap1\n      pop\n      pop\n      pop\n      tag_127\n      jump\t// in\n    tag_125:\n      stop\n        /* \"feg.sol\":17094:17289  function balanceOf(address account) public view override returns (uint256) {... */\n    tag_27:\n      tag_128\n      0x04\n      dup1\n      calldatasize\n      sub\n      0x20\n      dup2\n      lt\n      iszero\n      tag_129\n      jumpi\n      0x00\n      dup1\n      revert\n    tag_129:\n      dup2\n      add\n      swap1\n      dup1\n      dup1\n      calldataload\n      0xffffffffffffffffffffffffffffffffffffffff\n      and\n      swap1\n      0x20\n      add\n      swap1\n      swap3\n      swap2\n      swap1\n      pop\n      pop\n      pop\n      tag_130\n      jump\t// in\n    tag_128:\n      mload(0x40)\n      dup1\n      dup3\n      dup2\n      mstore\n      0x20\n      add\n      swap2\n      pop\n      pop\n      mload(0x40)\n      dup1\n      swap2\n      sub\n      swap1\n      return\n        /* \"feg.sol\":16023:16050  uint256 public percent = 20 */\n    tag_28:\n      tag_131\n      tag_132\n      jump\t// in\n    tag_131:\n      mload(0x40)\n      dup1\n      dup3\n      dup2\n      mstore\n      0x20\n      add\n      swap2\n      pop\n      pop\n      mload(0x40)\n      dup1\n      swap2\n      sub\n      swap1\n      return\n        /* \"feg.sol\":14998:15143  function renounceOwnership() public virtual onlyOwner {... */\n    tag_29:\n      tag_133\n      tag_134\n      jump\t// in\n    tag_133:\n      stop\n        /* \"feg.sol\":14375:14452  function owner() public view returns (address) {... */\n    tag_30:\n      tag_135\n      tag_136\n      jump\t// in\n    tag_135:\n      mload(0x40)\n      dup1\n      dup3\n      0xffffffffffffffffffffffffffffffffffffffff\n      and\n      dup2\n      mstore\n      0x20\n      add\n      swap2\n      pop\n      pop\n      mload(0x40)\n      dup1\n      swap2\n      sub\n      swap1\n      return\n        /* \"feg.sol\":25102:25261  function _getRate() public view returns(uint256) {... */\n    tag_31:\n      tag_137\n      tag_138\n      jump\t// in\n    tag_137:\n      mload(0x40)\n      dup1\n      dup3\n      dup2\n      mstore\n      0x20\n      add\n      swap2\n      pop\n      pop\n      mload(0x40)\n      dup1\n      swap2\n      sub\n      swap1\n      return\n        /* \"feg.sol\":16637:16722  function symbol() public view returns (string memory) {... */\n    tag_32:\n      tag_139\n      tag_140\n      jump\t// in\n    tag_139:\n      mload(0x40)\n      dup1\n      dup1\n      0x20\n      add\n      dup3\n      dup2\n      sub\n      dup3\n      mstore\n      dup4\n      dup2\n      dup2\n      mload\n      dup2\n      mstore\n      0x20\n      add\n      swap2\n      pop\n      dup1\n      mload\n      swap1\n      0x20\n      add\n      swap1\n      dup1\n      dup4\n      dup4\n      0x00\n    tag_141:\n      dup4\n      dup2\n      lt\n      iszero\n      tag_143\n      jumpi\n      dup1\n      dup3\n      add\n      mload\n      dup2\n      dup5\n      add\n      mstore\n      0x20\n      dup2\n      add\n      swap1\n      pop\n      jump(tag_141)\n    tag_143:\n      pop\n      pop\n      pop\n      pop\n      swap1\n      pop\n      swap1\n      dup2\n      add\n      swap1\n      0x1f\n      and\n      dup1\n      iszero\n      tag_144\n      jumpi\n      dup1\n      dup3\n      sub\n      dup1\n      mload\n      0x01\n      dup4\n      0x20\n      sub\n      0x0100\n      exp\n      sub\n      not\n      and\n      dup2\n      mstore\n      0x20\n      add\n      swap2\n      pop\n    tag_144:\n      pop\n      swap3\n      pop\n      pop\n      pop\n      mload(0x40)\n      dup1\n      swap2\n      sub\n      swap1\n      return\n        /* \"feg.sol\":25267:25817  function _getCurrentSupply() public view returns(uint256, uint256) {... */\n    tag_33:\n      tag_145\n      tag_146\n      jump\t// in\n    tag_145:\n      mload(0x40)\n      dup1\n      dup4\n      dup2\n      mstore\n      0x20\n      add\n      dup3\n      dup2\n      mstore\n      0x20\n      add\n      swap3\n      pop\n      pop\n      pop\n      mload(0x40)\n      dup1\n      swap2\n      sub\n      swap1\n      return\n        /* \"feg.sol\":18312:18578  function decreaseAllowance(address spender, uint256 subtractedValue) public virtual returns (bool) {... */\n    tag_34:\n      tag_147\n      0x04\n      dup1\n      calldatasize\n      sub\n      0x40\n      dup2\n      lt\n      iszero\n      tag_148\n      jumpi\n      0x00\n      dup1\n      revert\n    tag_148:\n      dup2\n      add\n      swap1\n      dup1\n      dup1\n      calldataload\n      0xffffffffffffffffffffffffffffffffffffffff\n      and\n      swap1\n      0x20\n      add\n      swap1\n      swap3\n      swap2\n      swap1\n      dup1\n      calldataload\n      swap1\n      0x20\n      add\n      swap1\n      swap3\n      swap2\n      swap1\n      pop\n      pop\n      pop\n      tag_149\n      jump\t// in\n    tag_147:\n      mload(0x40)\n      dup1\n      dup3\n      iszero\n      iszero\n      dup2\n      mstore\n      0x20\n      add\n      swap2\n      pop\n      pop\n      mload(0x40)\n      dup1\n      swap2\n      sub\n      swap1\n      return\n        /* \"feg.sol\":17295:17459  function transfer(address recipient, uint256 amount) public override returns (bool) {... */\n    tag_35:\n      tag_150\n      0x04\n      dup1\n      calldatasize\n      sub\n      0x40\n      dup2\n      lt\n      iszero\n      tag_151\n      jumpi\n      0x00\n      dup1\n      revert\n    tag_151:\n      dup2\n      add\n      swap1\n      dup1\n      dup1\n      calldataload\n      0xffffffffffffffffffffffffffffffffffffffff\n      and\n      swap1\n      0x20\n      add\n      swap1\n      swap3\n      swap2\n      swap1\n      dup1\n      calldataload\n      swap1\n      0x20\n      add\n      swap1\n      swap3\n      swap2\n      swap1\n      pop\n      pop\n      pop\n      tag_152\n      jump\t// in\n    tag_150:\n      mload(0x40)\n      dup1\n      dup3\n      iszero\n      iszero\n      dup2\n      mstore\n      0x20\n      add\n      swap2\n      pop\n      pop\n      mload(0x40)\n      dup1\n      swap2\n      sub\n      swap1\n      return\n        /* \"feg.sol\":15948:15985  uint256 public constant _tTotal = 100 */\n    tag_36:\n      tag_153\n      tag_154\n      jump\t// in\n    tag_153:\n      mload(0x40)\n      dup1\n      dup3\n      dup2\n      mstore\n      0x20\n      add\n      swap2\n      pop\n      pop\n      mload(0x40)\n      dup1\n      swap2\n      sub\n      swap1\n      return\n        /* \"feg.sol\":16371:16400  string public _symbol = 'FEG' */\n    tag_37:\n      tag_155\n      tag_156\n      jump\t// in\n    tag_155:\n      mload(0x40)\n      dup1\n      dup1\n      0x20\n      add\n      dup3\n      dup2\n      sub\n      dup3\n      mstore\n      dup4\n      dup2\n      dup2\n      mload\n      dup2\n      mstore\n      0x20\n      add\n      swap2\n      pop\n      dup1\n      mload\n      swap1\n      0x20\n      add\n      swap1\n      dup1\n      dup4\n      dup4\n      0x00\n    tag_157:\n      dup4\n      dup2\n      lt\n      iszero\n      tag_159\n      jumpi\n      dup1\n      dup3\n      add\n      mload\n      dup2\n      dup5\n      add\n      mstore\n      0x20\n      dup2\n      add\n      swap1\n      pop\n      jump(tag_157)\n    tag_159:\n      pop\n      pop\n      pop\n      pop\n      swap1\n      pop\n      swap1\n      dup2\n      add\n      swap1\n      0x1f\n      and\n      dup1\n      iszero\n      tag_160\n      jumpi\n      dup1\n      dup3\n      sub\n      dup1\n      mload\n      0x01\n      dup4\n      0x20\n      sub\n      0x0100\n      exp\n      sub\n      not\n      and\n      dup2\n      mstore\n      0x20\n      add\n      swap2\n      pop\n    tag_160:\n      pop\n      swap3\n      pop\n      pop\n      pop\n      mload(0x40)\n      dup1\n      swap2\n      sub\n      swap1\n      return\n        /* \"feg.sol\":13926:13947  address public _owner */\n    tag_38:\n      tag_161\n      tag_162\n      jump\t// in\n    tag_161:\n      mload(0x40)\n      dup1\n      dup3\n      0xffffffffffffffffffffffffffffffffffffffff\n      and\n      dup2\n      mstore\n      0x20\n      add\n      swap2\n      pop\n      pop\n      mload(0x40)\n      dup1\n      swap2\n      sub\n      swap1\n      return\n        /* \"feg.sol\":24768:25096  function _getRValues(uint256 tAmount, uint256 tFee, uint256 currentRate) public pure returns (uint256, uint256, uint256) {... */\n    tag_39:\n      tag_163\n      0x04\n      dup1\n      calldatasize\n      sub\n      0x60\n      dup2\n      lt\n      iszero\n      tag_164\n      jumpi\n      0x00\n      dup1\n      revert\n    tag_164:\n      dup2\n      add\n      swap1\n      dup1\n      dup1\n      calldataload\n      swap1\n      0x20\n      add\n      swap1\n      swap3\n      swap2\n      swap1\n      dup1\n      calldataload\n      swap1\n      0x20\n      add\n      swap1\n      swap3\n      swap2\n      swap1\n      dup1\n      calldataload\n      swap1\n      0x20\n      add\n      swap1\n      swap3\n      swap2\n      swap1\n      pop\n      pop\n      pop\n      tag_165\n      jump\t// in\n    tag_163:\n      mload(0x40)\n      dup1\n      dup5\n      dup2\n      mstore\n      0x20\n      add\n      dup4\n      dup2\n      mstore\n      0x20\n      add\n      dup3\n      dup2\n      mstore\n      0x20\n      add\n      swap4\n      pop\n      pop\n      pop\n      pop\n      mload(0x40)\n      dup1\n      swap2\n      sub\n      swap1\n      return\n        /* \"feg.sol\":22889:23390  function _transferFromExcluded(address sender, address recipient, uint256 tAmount) public {... */\n    tag_40:\n      tag_166\n      0x04\n      dup1\n      calldatasize\n      sub\n      0x60\n      dup2\n      lt\n      iszero\n      tag_167\n      jumpi\n      0x00\n      dup1\n      revert\n    tag_167:\n      dup2\n      add\n      swap1\n      dup1\n      dup1\n      calldataload\n      0xffffffffffffffffffffffffffffffffffffffff\n      and\n      swap1\n      0x20\n      add\n      swap1\n      swap3\n      swap2\n      swap1\n      dup1\n      calldataload\n      0xffffffffffffffffffffffffffffffffffffffff\n      and\n      swap1\n      0x20\n      add\n      swap1\n      swap3\n      swap2\n      swap1\n      dup1\n      calldataload\n      swap1\n      0x20\n      add\n      swap1\n      swap3\n      swap2\n      swap1\n      pop\n      pop\n      pop\n      tag_168\n      jump\t// in\n    tag_166:\n      stop\n        /* \"feg.sol\":16914:17088  function workingSupply() public view returns(uint256){... */\n    tag_41:\n      tag_169\n      tag_170\n      jump\t// in\n    tag_169:\n      mload(0x40)\n      dup1\n      dup3\n      dup2\n      mstore\n      0x20\n      add\n      swap2\n      pop\n      pop\n      mload(0x40)\n      dup1\n      swap2\n      sub\n      swap1\n      return\n        /* \"feg.sol\":18584:18692  function isExcluded(address account) public view returns (bool) {... */\n    tag_42:\n      tag_171\n      0x04\n      dup1\n      calldatasize\n      sub\n      0x20\n      dup2\n      lt\n      iszero\n      tag_172\n      jumpi\n      0x00\n      dup1\n      revert\n    tag_172:\n      dup2\n      add\n      swap1\n      dup1\n      dup1\n      calldataload\n      0xffffffffffffffffffffffffffffffffffffffff\n      and\n      swap1\n      0x20\n      add\n      swap1\n      swap3\n      swap2\n      swap1\n      pop\n      pop\n      pop\n      tag_173\n      jump\t// in\n    tag_171:\n      mload(0x40)\n      dup1\n      dup3\n      iszero\n      iszero\n      dup2\n      mstore\n      0x20\n      add\n      swap2\n      pop\n      pop\n      mload(0x40)\n      dup1\n      swap2\n      sub\n      swap1\n      return\n        /* \"feg.sol\":16333:16365  string public _name = 'FEGtoken' */\n    tag_43:\n      tag_174\n      tag_175\n      jump\t// in\n    tag_174:\n      mload(0x40)\n      dup1\n      dup1\n      0x20\n      add\n      dup3\n      dup2\n      sub\n      dup3\n      mstore\n      dup4\n      dup2\n      dup2\n      mload\n      dup2\n      mstore\n      0x20\n      add\n      swap2\n      pop\n      dup1\n      mload\n      swap1\n      0x20\n      add\n      swap1\n      dup1\n      dup4\n      dup4\n      0x00\n    tag_176:\n      dup4\n      dup2\n      lt\n      iszero\n      tag_178\n      jumpi\n      dup1\n      dup3\n      add\n      mload\n      dup2\n      dup5\n      add\n      mstore\n      0x20\n      dup2\n      add\n      swap1\n      pop\n      jump(tag_176)\n    tag_178:\n      pop\n      pop\n      pop\n      pop\n      swap1\n      pop\n      swap1\n      dup2\n      add\n      swap1\n      0x1f\n      and\n      dup1\n      iszero\n      tag_179\n      jumpi\n      dup1\n      dup3\n      sub\n      dup1\n      mload\n      0x01\n      dup4\n      0x20\n      sub\n      0x0100\n      exp\n      sub\n      not\n      and\n      dup2\n      mstore\n      0x20\n      add\n      swap2\n      pop\n    tag_179:\n      pop\n      swap3\n      pop\n      pop\n      pop\n      mload(0x40)\n      dup1\n      swap2\n      sub\n      swap1\n      return\n        /* \"feg.sol\":24127:24532  function _getValues(uint256 tAmount) public view returns (uint256, uint256, uint256, uint256, uint256) {... */\n    tag_44:\n      tag_180\n      0x04\n      dup1\n      calldatasize\n      sub\n      0x20\n      dup2\n      lt\n      iszero\n      tag_181\n      jumpi\n      0x00\n      dup1\n      revert\n    tag_181:\n      dup2\n      add\n      swap1\n      dup1\n      dup1\n      calldataload\n      swap1\n      0x20\n      add\n      swap1\n      swap3\n      swap2\n      swap1\n      pop\n      pop\n      pop\n      tag_182\n      jump\t// in\n    tag_180:\n      mload(0x40)\n      dup1\n      dup7\n      dup2\n      mstore\n      0x20\n      add\n      dup6\n      dup2\n      mstore\n      0x20\n      add\n      dup5\n      dup2\n      mstore\n      0x20\n      add\n      dup4\n      dup2\n      mstore\n      0x20\n      add\n      dup3\n      dup2\n      mstore\n      0x20\n      add\n      swap6\n      pop\n      pop\n      pop\n      pop\n      pop\n      pop\n      mload(0x40)\n      dup1\n      swap2\n      sub\n      swap1\n      return\n        /* \"feg.sol\":15908:15942  uint256 public constant MAX = 1000 */\n    tag_45:\n      tag_183\n      tag_184\n      jump\t// in\n    tag_183:\n      mload(0x40)\n      dup1\n      dup3\n      dup2\n      mstore\n      0x20\n      add\n      swap2\n      pop\n      pop\n      mload(0x40)\n      dup1\n      swap2\n      sub\n      swap1\n      return\n        /* \"feg.sol\":17465:17606  function allowance(address owner, address spender) public view override returns (uint256) {... */\n    tag_46:\n      tag_185\n      0x04\n      dup1\n      calldatasize\n      sub\n      0x40\n      dup2\n      lt\n      iszero\n      tag_186\n      jumpi\n      0x00\n      dup1\n      revert\n    tag_186:\n      dup2\n      add\n      swap1\n      dup1\n      dup1\n      calldataload\n      0xffffffffffffffffffffffffffffffffffffffff\n      and\n      swap1\n      0x20\n      add\n      swap1\n      swap3\n      swap2\n      swap1\n      dup1\n      calldataload\n      0xffffffffffffffffffffffffffffffffffffffff\n      and\n      swap1\n      0x20\n      add\n      swap1\n      swap3\n      swap2\n      swap1\n      pop\n      pop\n      pop\n      tag_187\n      jump\t// in\n    tag_185:\n      mload(0x40)\n      dup1\n      dup3\n      dup2\n      mstore\n      0x20\n      add\n      swap2\n      pop\n      pop\n      mload(0x40)\n      dup1\n      swap2\n      sub\n      swap1\n      return\n        /* \"feg.sol\":19850:20175  function excludeAccount(address account) external onlyOwner() {... */\n    tag_47:\n      tag_188\n      0x04\n      dup1\n      calldatasize\n      sub\n      0x20\n      dup2\n      lt\n      iszero\n      tag_189\n      jumpi\n      0x00\n      dup1\n      revert\n    tag_189:\n      dup2\n      add\n      swap1\n      dup1\n      dup1\n      calldataload\n      0xffffffffffffffffffffffffffffffffffffffff\n      and\n      swap1\n      0x20\n      add\n      swap1\n      swap3\n      swap2\n      swap1\n      pop\n      pop\n      pop\n      tag_190\n      jump\t// in\n    tag_188:\n      stop\n        /* \"feg.sol\":15292:15532  function transferOwnership(address newOwner) public virtual onlyOwner {... */\n    tag_48:\n      tag_191\n      0x04\n      dup1\n      calldatasize\n      sub\n      0x20\n      dup2\n      lt\n      iszero\n      tag_192\n      jumpi\n      0x00\n      dup1\n      revert\n    tag_192:\n      dup2\n      add\n      swap1\n      dup1\n      dup1\n      calldataload\n      0xffffffffffffffffffffffffffffffffffffffff\n      and\n      swap1\n      0x20\n      add\n      swap1\n      swap3\n      swap2\n      swap1\n      pop\n      pop\n      pop\n      tag_193\n      jump\t// in\n    tag_191:\n      stop\n        /* \"feg.sol\":20181:20648  function includeAccount(address account) external onlyOwner() {... */\n    tag_49:\n      tag_194\n      0x04\n      dup1\n      calldatasize\n      sub\n      0x20\n      dup2\n      lt\n      iszero\n      tag_195\n      jumpi\n      0x00\n      dup1\n      revert\n    tag_195:\n      dup2\n      add\n      swap1\n      dup1\n      dup1\n      calldataload\n      0xffffffffffffffffffffffffffffffffffffffff\n      and\n      swap1\n      0x20\n      add\n      swap1\n      swap3\n      swap2\n      swap1\n      pop\n      pop\n      pop\n      tag_196\n      jump\t// in\n    tag_194:\n      stop\n        /* \"feg.sol\":16301:16326  uint256 public _tFeeTotal */\n    tag_50:\n      tag_197\n      tag_198\n      jump\t// in\n    tag_197:\n      mload(0x40)\n      dup1\n      dup3\n      dup2\n      mstore\n      0x20\n      add\n      swap2\n      pop\n      pop\n      mload(0x40)\n      dup1\n      swap2\n      sub\n      swap1\n      return\n        /* \"feg.sol\":15747:15815  mapping (address => mapping (address => uint256)) public _allowances */\n    tag_60:\n      mstore(0x20, 0x03)\n      dup2\n      0x00\n      mstore\n      mstore(0x20, keccak256(0x00, 0x40))\n      dup1\n      0x00\n      mstore\n      keccak256(0x00, 0x40)\n      0x00\n      swap2\n      pop\n      swap2\n      pop\n      pop\n      sload\n      dup2\n      jump\t// out\n        /* \"feg.sol\":18789:19158  function reflect(uint256 tAmount) public {... */\n    tag_63:\n        /* \"feg.sol\":18840:18854  address sender */\n      0x00\n        /* \"feg.sol\":18857:18869  _msgSender() */\n      tag_200\n        /* \"feg.sol\":18857:18867  _msgSender */\n      tag_201\n        /* \"feg.sol\":18857:18869  _msgSender() */\n      jump\t// in\n    tag_200:\n        /* \"feg.sol\":18840:18869  address sender = _msgSender() */\n      swap1\n      pop\n        /* \"feg.sol\":18888:18899  _isExcluded */\n      0x04\n        /* \"feg.sol\":18888:18907  _isExcluded[sender] */\n      0x00\n        /* \"feg.sol\":18900:18906  sender */\n      dup3\n        /* \"feg.sol\":18888:18907  _isExcluded[sender] */\n      0xffffffffffffffffffffffffffffffffffffffff\n      and\n      0xffffffffffffffffffffffffffffffffffffffff\n      and\n      dup2\n      mstore\n      0x20\n      add\n      swap1\n      dup2\n      mstore\n      0x20\n      add\n      0x00\n      keccak256\n      0x00\n      swap1\n      sload\n      swap1\n      0x0100\n      exp\n      swap1\n      div\n      0xff\n      and\n        /* \"feg.sol\":18887:18907  !_isExcluded[sender] */\n      iszero\n        /* \"feg.sol\":18879:18956  require(!_isExcluded[sender], \"Excluded addresses cannot call this function\") */\n      tag_202\n      jumpi\n      mload(0x40)\n      0x08c379a000000000000000000000000000000000000000000000000000000000\n      dup2\n      mstore\n      0x04\n      add\n      dup1\n      dup1\n      0x20\n      add\n      dup3\n      dup2\n      sub\n      dup3\n      mstore\n      0x2c\n      dup2\n      mstore\n      0x20\n      add\n      dup1\n      data_ecefcaf5fbcf9ca6dcdb02298ba1da96f4ead317b0a4779917ecb2e5e7dc3ac4\n      0x2c\n      swap2\n      codecopy\n      0x40\n      add\n      swap2\n      pop\n      pop\n      mload(0x40)\n      dup1\n      swap2\n      sub\n      swap1\n      revert\n    tag_202:\n        /* \"feg.sol\":18967:18982  uint256 rAmount */\n      0x00\n        /* \"feg.sol\":18990:19009  _getValues(tAmount) */\n      tag_203\n        /* \"feg.sol\":19001:19008  tAmount */\n      dup4\n        /* \"feg.sol\":18990:19000  _getValues */\n      tag_182\n        /* \"feg.sol\":18990:19009  _getValues(tAmount) */\n      jump\t// in\n    tag_203:\n        /* \"feg.sol\":18966:19009  (uint256 rAmount,,,,) = _getValues(tAmount) */\n      pop\n      pop\n      pop\n      pop\n      swap1\n      pop\n        /* \"feg.sol\":19037:19065  _rOwned[sender].sub(rAmount) */\n      tag_204\n        /* \"feg.sol\":19057:19064  rAmount */\n      dup2\n        /* \"feg.sol\":19037:19044  _rOwned */\n      0x01\n        /* \"feg.sol\":19037:19052  _rOwned[sender] */\n      0x00\n        /* \"feg.sol\":19045:19051  sender */\n      dup6\n        /* \"feg.sol\":19037:19052  _rOwned[sender] */\n      0xffffffffffffffffffffffffffffffffffffffff\n      and\n      0xffffffffffffffffffffffffffffffffffffffff\n      and\n      dup2\n      mstore\n      0x20\n      add\n      swap1\n      dup2\n      mstore\n      0x20\n      add\n      0x00\n      keccak256\n      sload\n        /* \"feg.sol\":19037:19056  _rOwned[sender].sub */\n      tag_205\n      swap1\n        /* \"feg.sol\":19037:19065  _rOwned[sender].sub(rAmount) */\n      swap2\n      swap1\n      0xffffffff\n      and\n      jump\t// in\n    tag_204:\n        /* \"feg.sol\":19019:19026  _rOwned */\n      0x01\n        /* \"feg.sol\":19019:19034  _rOwned[sender] */\n      0x00\n        /* \"feg.sol\":19027:19033  sender */\n      dup5\n        /* \"feg.sol\":19019:19034  _rOwned[sender] */\n      0xffffffffffffffffffffffffffffffffffffffff\n      and\n      0xffffffffffffffffffffffffffffffffffffffff\n      and\n      dup2\n      mstore\n      0x20\n      add\n      swap1\n      dup2\n      mstore\n      0x20\n      add\n      0x00\n      keccak256\n        /* \"feg.sol\":19019:19065  _rOwned[sender] = _rOwned[sender].sub(rAmount) */\n      dup2\n      swap1\n      sstore\n      pop\n        /* \"feg.sol\":19085:19105  _rTotal.sub(rAmount) */\n      tag_206\n        /* \"feg.sol\":19097:19104  rAmount */\n      dup2\n        /* \"feg.sol\":19085:19092  _rTotal */\n      sload(0x08)\n        /* \"feg.sol\":19085:19096  _rTotal.sub */\n      tag_205\n      swap1\n        /* \"feg.sol\":19085:19105  _rTotal.sub(rAmount) */\n      swap2\n      swap1\n      0xffffffff\n      and\n      jump\t// in\n    tag_206:\n        /* \"feg.sol\":19075:19082  _rTotal */\n      0x08\n        /* \"feg.sol\":19075:19105  _rTotal = _rTotal.sub(rAmount) */\n      dup2\n      swap1\n      sstore\n      pop\n        /* \"feg.sol\":19128:19151  _tFeeTotal.add(tAmount) */\n      tag_207\n        /* \"feg.sol\":19143:19150  tAmount */\n      dup4\n        /* \"feg.sol\":19128:19138  _tFeeTotal */\n      sload(0x09)\n        /* \"feg.sol\":19128:19142  _tFeeTotal.add */\n      tag_208\n      swap1\n        /* \"feg.sol\":19128:19151  _tFeeTotal.add(tAmount) */\n      swap2\n      swap1\n      0xffffffff\n      and\n      jump\t// in\n    tag_207:\n        /* \"feg.sol\":19115:19125  _tFeeTotal */\n      0x09\n        /* \"feg.sol\":19115:19151  _tFeeTotal = _tFeeTotal.add(tAmount) */\n      dup2\n      swap1\n      sstore\n      pop\n        /* \"feg.sol\":18789:19158  function reflect(uint256 tAmount) public {... */\n      pop\n      pop\n      pop\n      jump\t// out\n        /* \"feg.sol\":16550:16631  function name() public view returns (string memory) {... */\n    tag_65:\n        /* \"feg.sol\":16587:16600  string memory */\n      0x60\n        /* \"feg.sol\":16619:16624  _name */\n      0x0a\n        /* \"feg.sol\":16612:16624  return _name */\n      dup1\n      sload\n      0x01\n      dup2\n      0x01\n      and\n      iszero\n      0x0100\n      mul\n      sub\n      and\n      0x02\n      swap1\n      div\n      dup1\n      0x1f\n      add\n      0x20\n      dup1\n      swap2\n      div\n      mul\n      0x20\n      add\n      mload(0x40)\n      swap1\n      dup2\n      add\n      0x40\n      mstore\n      dup1\n      swap3\n      swap2\n      swap1\n      dup2\n      dup2\n      mstore\n      0x20\n      add\n      dup3\n      dup1\n      sload\n      0x01\n      dup2\n      0x01\n      and\n      iszero\n      0x0100\n      mul\n      sub\n      and\n      0x02\n      swap1\n      div\n      dup1\n      iszero\n      tag_210\n      jumpi\n      dup1\n      0x1f\n      lt\n      tag_211\n      jumpi\n      0x0100\n      dup1\n      dup4\n      sload\n      div\n      mul\n      dup4\n      mstore\n      swap2\n      0x20\n      add\n      swap2\n      jump(tag_210)\n    tag_211:\n      dup3\n      add\n      swap2\n      swap1\n      0x00\n      mstore\n      keccak256(0x00, 0x20)\n      swap1\n    tag_212:\n      dup2\n      sload\n      dup2\n      mstore\n      swap1\n      0x01\n      add\n      swap1\n      0x20\n      add\n      dup1\n      dup4\n      gt\n      tag_212\n      jumpi\n      dup3\n      swap1\n      sub\n      0x1f\n      and\n      dup3\n      add\n      swap2\n    tag_210:\n      pop\n      pop\n      pop\n      pop\n      pop\n      swap1\n      pop\n        /* \"feg.sol\":16550:16631  function name() public view returns (string memory) {... */\n      swap1\n      jump\t// out\n        /* \"feg.sol\":17612:17770  function approve(address spender, uint256 amount) public override returns (bool) {... */\n    tag_72:\n        /* \"feg.sol\":17687:17691  bool */\n      0x00\n        /* \"feg.sol\":17703:17742  _approve(_msgSender(), spender, amount) */\n      tag_214\n        /* \"feg.sol\":17712:17724  _msgSender() */\n      tag_215\n        /* \"feg.sol\":17712:17722  _msgSender */\n      tag_201\n        /* \"feg.sol\":17712:17724  _msgSender() */\n      jump\t// in\n    tag_215:\n        /* \"feg.sol\":17726:17733  spender */\n      dup5\n        /* \"feg.sol\":17735:17741  amount */\n      dup5\n        /* \"feg.sol\":17703:17711  _approve */\n      tag_81\n        /* \"feg.sol\":17703:17742  _approve(_msgSender(), spender, amount) */\n      jump\t// in\n    tag_214:\n        /* \"feg.sol\":17759:17763  true */\n      0x01\n        /* \"feg.sol\":17752:17763  return true */\n      swap1\n      pop\n        /* \"feg.sol\":17612:17770  function approve(address spender, uint256 amount) public override returns (bool) {... */\n      swap3\n      swap2\n      pop\n      pop\n      jump\t// out\n        /* \"feg.sol\":15822:15866  mapping (address => bool) public _isExcluded */\n    tag_75:\n      mstore(0x20, 0x04)\n      dup1\n      0x00\n      mstore\n      keccak256(0x00, 0x40)\n      0x00\n      swap2\n      pop\n      sload\n      swap1\n      0x0100\n      exp\n      swap1\n      div\n      0xff\n      and\n      dup2\n      jump\t// out\n        /* \"feg.sol\":15649:15692  mapping (address => uint256) public _rOwned */\n    tag_78:\n      mstore(0x20, 0x01)\n      dup1\n      0x00\n      mstore\n      keccak256(0x00, 0x40)\n      0x00\n      swap2\n      pop\n      swap1\n      pop\n      sload\n      dup2\n      jump\t// out\n        /* \"feg.sol\":20654:20984  function _approve(address owner, address spender, uint256 amount) public {... */\n    tag_81:\n        /* \"feg.sol\":20762:20763  0 */\n      0x00\n        /* \"feg.sol\":20745:20764  owner != address(0) */\n      0xffffffffffffffffffffffffffffffffffffffff\n      and\n        /* \"feg.sol\":20745:20750  owner */\n      dup4\n        /* \"feg.sol\":20745:20764  owner != address(0) */\n      0xffffffffffffffffffffffffffffffffffffffff\n      and\n      eq\n      iszero\n        /* \"feg.sol\":20737:20805  require(owner != address(0), \"ERC20: approve from the zero address\") */\n      tag_217\n      jumpi\n      mload(0x40)\n      0x08c379a000000000000000000000000000000000000000000000000000000000\n      dup2\n      mstore\n      0x04\n      add\n      dup1\n      dup1\n      0x20\n      add\n      dup3\n      dup2\n      sub\n      dup3\n      mstore\n      0x24\n      dup2\n      mstore\n      0x20\n      add\n      dup1\n      data_c953f4879035ed60e766b34720f656aab5c697b141d924c283124ecedb91c208\n      0x24\n      swap2\n      codecopy\n      0x40\n      add\n      swap2\n      pop\n      pop\n      mload(0x40)\n      dup1\n      swap2\n      sub\n      swap1\n      revert\n    tag_217:\n        /* \"feg.sol\":20842:20843  0 */\n      0x00\n        /* \"feg.sol\":20823:20844  spender != address(0) */\n      0xffffffffffffffffffffffffffffffffffffffff\n      and\n        /* \"feg.sol\":20823:20830  spender */\n      dup3\n        /* \"feg.sol\":20823:20844  spender != address(0) */\n      0xffffffffffffffffffffffffffffffffffffffff\n      and\n      eq\n      iszero\n        /* \"feg.sol\":20815:20883  require(spender != address(0), \"ERC20: approve to the zero address\") */\n      tag_218\n      jumpi\n      mload(0x40)\n      0x08c379a000000000000000000000000000000000000000000000000000000000\n      dup2\n      mstore\n      0x04\n      add\n      dup1\n      dup1\n      0x20\n      add\n      dup3\n      dup2\n      sub\n      dup3\n      mstore\n      0x22\n      dup2\n      mstore\n      0x20\n      add\n      dup1\n      data_24883cc5fe64ace9d0df1893501ecb93c77180f0ff69cca79affb3c316dc8029\n      0x22\n      swap2\n      codecopy\n      0x40\n      add\n      swap2\n      pop\n      pop\n      mload(0x40)\n      dup1\n      swap2\n      sub\n      swap1\n      revert\n    tag_218:\n        /* \"feg.sol\":20924:20930  amount */\n      dup1\n        /* \"feg.sol\":20894:20905  _allowances */\n      0x03\n        /* \"feg.sol\":20894:20912  _allowances[owner] */\n      0x00\n        /* \"feg.sol\":20906:20911  owner */\n      dup6\n        /* \"feg.sol\":20894:20912  _allowances[owner] */\n      0xffffffffffffffffffffffffffffffffffffffff\n      and\n      0xffffffffffffffffffffffffffffffffffffffff\n      and\n      dup2\n      mstore\n      0x20\n      add\n      swap1\n      dup2\n      mstore\n      0x20\n      add\n      0x00\n      keccak256\n        /* \"feg.sol\":20894:20921  _allowances[owner][spender] */\n      0x00\n        /* \"feg.sol\":20913:20920  spender */\n      dup5\n        /* \"feg.sol\":20894:20921  _allowances[owner][spender] */\n      0xffffffffffffffffffffffffffffffffffffffff\n      and\n      0xffffffffffffffffffffffffffffffffffffffff\n      and\n      dup2\n      mstore\n      0x20\n      add\n      swap1\n      dup2\n      mstore\n      0x20\n      add\n      0x00\n      keccak256\n        /* \"feg.sol\":20894:20930  _allowances[owner][spender] = amount */\n      dup2\n      swap1\n      sstore\n      pop\n        /* \"feg.sol\":20961:20968  spender */\n      dup2\n        /* \"feg.sol\":20945:20977  Approval(owner, spender, amount) */\n      0xffffffffffffffffffffffffffffffffffffffff\n      and\n        /* \"feg.sol\":20954:20959  owner */\n      dup4\n        /* \"feg.sol\":20945:20977  Approval(owner, spender, amount) */\n      0xffffffffffffffffffffffffffffffffffffffff\n      and\n      0x8c5be1e5ebec7d5bd14f71427d1e84f3dd0314c0f7b2291e5b200ac8c7c3b925\n        /* \"feg.sol\":20970:20976  amount */\n      dup4\n        /* \"feg.sol\":20945:20977  Approval(owner, spender, amount) */\n      mload(0x40)\n      dup1\n      dup3\n      dup2\n      mstore\n      0x20\n      add\n      swap2\n      pop\n      pop\n      mload(0x40)\n      dup1\n      swap2\n      sub\n      swap1\n      log3\n        /* \"feg.sol\":20654:20984  function _approve(address owner, address spender, uint256 amount) public {... */\n      pop\n      pop\n      pop\n      jump\t// out\n        /* \"feg.sol\":24538:24762  function _getTValues(uint256 tAmount) public view returns (uint256, uint256) {... */\n    tag_84:\n        /* \"feg.sol\":24597:24604  uint256 */\n      0x00\n        /* \"feg.sol\":24606:24613  uint256 */\n      dup1\n        /* \"feg.sol\":24625:24637  uint256 tFee */\n      0x00\n        /* \"feg.sol\":24640:24662  tAmount.div(10).mul(2) */\n      tag_220\n        /* \"feg.sol\":24660:24661  2 */\n      0x02\n        /* \"feg.sol\":24640:24655  tAmount.div(10) */\n      tag_221\n        /* \"feg.sol\":24652:24654  10 */\n      0x0a\n        /* \"feg.sol\":24640:24647  tAmount */\n      dup8\n        /* \"feg.sol\":24640:24651  tAmount.div */\n      tag_222\n      swap1\n        /* \"feg.sol\":24640:24655  tAmount.div(10) */\n      swap2\n      swap1\n      0xffffffff\n      and\n      jump\t// in\n    tag_221:\n        /* \"feg.sol\":24640:24659  tAmount.div(10).mul */\n      tag_223\n      swap1\n        /* \"feg.sol\":24640:24662  tAmount.div(10).mul(2) */\n      swap2\n      swap1\n      0xffffffff\n      and\n      jump\t// in\n    tag_220:\n        /* \"feg.sol\":24625:24662  uint256 tFee = tAmount.div(10).mul(2) */\n      swap1\n      pop\n        /* \"feg.sol\":24672:24695  uint256 tTransferAmount */\n      0x00\n        /* \"feg.sol\":24698:24715  tAmount.sub(tFee) */\n      tag_224\n        /* \"feg.sol\":24710:24714  tFee */\n      dup3\n        /* \"feg.sol\":24698:24705  tAmount */\n      dup7\n        /* \"feg.sol\":24698:24709  tAmount.sub */\n      tag_205\n      swap1\n        /* \"feg.sol\":24698:24715  tAmount.sub(tFee) */\n      swap2\n      swap1\n      0xffffffff\n      and\n      jump\t// in\n    tag_224:\n        /* \"feg.sol\":24672:24715  uint256 tTransferAmount = tAmount.sub(tFee) */\n      swap1\n      pop\n        /* \"feg.sol\":24733:24748  tTransferAmount */\n      dup1\n        /* \"feg.sol\":24750:24754  tFee */\n      dup3\n        /* \"feg.sol\":24725:24755  return (tTransferAmount, tFee) */\n      swap4\n      pop\n      swap4\n      pop\n      pop\n      pop\n        /* \"feg.sol\":24538:24762  function _getTValues(uint256 tAmount) public view returns (uint256, uint256) {... */\n      swap2\n      pop\n      swap2\n      jump\t// out\n        /* \"feg.sol\":18698:18783  function totalFees() public view returns (uint256) {... */\n    tag_86:\n        /* \"feg.sol\":18740:18747  uint256 */\n      0x00\n        /* \"feg.sol\":18766:18776  _tFeeTotal */\n      sload(0x09)\n        /* \"feg.sol\":18759:18776  return _tFeeTotal */\n      swap1\n      pop\n        /* \"feg.sol\":18698:18783  function totalFees() public view returns (uint256) {... */\n      swap1\n      jump\t// out\n        /* \"feg.sol\":22362:22883  function _transferToExcluded(address sender, address recipient, uint256 tAmount) public {... */\n    tag_89:\n        /* \"feg.sol\":22461:22476  uint256 rAmount */\n      0x00\n        /* \"feg.sol\":22478:22501  uint256 rTransferAmount */\n      dup1\n        /* \"feg.sol\":22503:22515  uint256 rFee */\n      0x00\n        /* \"feg.sol\":22517:22540  uint256 tTransferAmount */\n      dup1\n        /* \"feg.sol\":22542:22554  uint256 tFee */\n      0x00\n        /* \"feg.sol\":22558:22577  _getValues(tAmount) */\n      tag_227\n        /* \"feg.sol\":22569:22576  tAmount */\n      dup7\n        /* \"feg.sol\":22558:22568  _getValues */\n      tag_182\n        /* \"feg.sol\":22558:22577  _getValues(tAmount) */\n      jump\t// in\n    tag_227:\n        /* \"feg.sol\":22460:22577  (uint256 rAmount, uint256 rTransferAmount, uint256 rFee, uint256 tTransferAmount, uint256 tFee) = _getValues(tAmount) */\n      swap5\n      pop\n      swap5\n      pop\n      swap5\n      pop\n      swap5\n      pop\n      swap5\n      pop\n        /* \"feg.sol\":22605:22633  _rOwned[sender].sub(rAmount) */\n      tag_228\n        /* \"feg.sol\":22625:22632  rAmount */\n      dup6\n        /* \"feg.sol\":22605:22612  _rOwned */\n      0x01\n        /* \"feg.sol\":22605:22620  _rOwned[sender] */\n      0x00\n        /* \"feg.sol\":22613:22619  sender */\n      dup12\n        /* \"feg.sol\":22605:22620  _rOwned[sender] */\n      0xffffffffffffffffffffffffffffffffffffffff\n      and\n      0xffffffffffffffffffffffffffffffffffffffff\n      and\n      dup2\n      mstore\n      0x20\n      add\n      swap1\n      dup2\n      mstore\n      0x20\n      add\n      0x00\n      keccak256\n      sload\n        /* \"feg.sol\":22605:22624  _rOwned[sender].sub */\n      tag_205\n      swap1\n        /* \"feg.sol\":22605:22633  _rOwned[sender].sub(rAmount) */\n      swap2\n      swap1\n      0xffffffff\n      and\n      jump\t// in\n    tag_228:\n        /* \"feg.sol\":22587:22594  _rOwned */\n      0x01\n        /* \"feg.sol\":22587:22602  _rOwned[sender] */\n      0x00\n        /* \"feg.sol\":22595:22601  sender */\n      dup11\n        /* \"feg.sol\":22587:22602  _rOwned[sender] */\n      0xffffffffffffffffffffffffffffffffffffffff\n      and\n      0xffffffffffffffffffffffffffffffffffffffff\n      and\n      dup2\n      mstore\n      0x20\n      add\n      swap1\n      dup2\n      mstore\n      0x20\n      add\n      0x00\n      keccak256\n        /* \"feg.sol\":22587:22633  _rOwned[sender] = _rOwned[sender].sub(rAmount) */\n      dup2\n      swap1\n      sstore\n      pop\n        /* \"feg.sol\":22664:22703  _tOwned[recipient].add(tTransferAmount) */\n      tag_229\n        /* \"feg.sol\":22687:22702  tTransferAmount */\n      dup3\n        /* \"feg.sol\":22664:22671  _tOwned */\n      0x02\n        /* \"feg.sol\":22664:22682  _tOwned[recipient] */\n      0x00\n        /* \"feg.sol\":22672:22681  recipient */\n      dup11\n        /* \"feg.sol\":22664:22682  _tOwned[recipient] */\n      0xffffffffffffffffffffffffffffffffffffffff\n      and\n      0xffffffffffffffffffffffffffffffffffffffff\n      and\n      dup2\n      mstore\n      0x20\n      add\n      swap1\n      dup2\n      mstore\n      0x20\n      add\n      0x00\n      keccak256\n      sload\n        /* \"feg.sol\":22664:22686  _tOwned[recipient].add */\n      tag_208\n      swap1\n        /* \"feg.sol\":22664:22703  _tOwned[recipient].add(tTransferAmount) */\n      swap2\n      swap1\n      0xffffffff\n      and\n      jump\t// in\n    tag_229:\n        /* \"feg.sol\":22643:22650  _tOwned */\n      0x02\n        /* \"feg.sol\":22643:22661  _tOwned[recipient] */\n      0x00\n        /* \"feg.sol\":22651:22660  recipient */\n      dup10\n        /* \"feg.sol\":22643:22661  _tOwned[recipient] */\n      0xffffffffffffffffffffffffffffffffffffffff\n      and\n      0xffffffffffffffffffffffffffffffffffffffff\n      and\n      dup2\n      mstore\n      0x20\n      add\n      swap1\n      dup2\n      mstore\n      0x20\n      add\n      0x00\n      keccak256\n        /* \"feg.sol\":22643:22703  _tOwned[recipient] = _tOwned[recipient].add(tTransferAmount) */\n      dup2\n      swap1\n      sstore\n      pop\n        /* \"feg.sol\":22734:22773  _rOwned[recipient].add(rTransferAmount) */\n      tag_230\n        /* \"feg.sol\":22757:22772  rTransferAmount */\n      dup5\n        /* \"feg.sol\":22734:22741  _rOwned */\n      0x01\n        /* \"feg.sol\":22734:22752  _rOwned[recipient] */\n      0x00\n        /* \"feg.sol\":22742:22751  recipient */\n      dup11\n        /* \"feg.sol\":22734:22752  _rOwned[recipient] */\n      0xffffffffffffffffffffffffffffffffffffffff\n      and\n      0xffffffffffffffffffffffffffffffffffffffff\n      and\n      dup2\n      mstore\n      0x20\n      add\n      swap1\n      dup2\n      mstore\n      0x20\n      add\n      0x00\n      keccak256\n      sload\n        /* \"feg.sol\":22734:22756  _rOwned[recipient].add */\n      tag_208\n      swap1\n        /* \"feg.sol\":22734:22773  _rOwned[recipient].add(rTransferAmount) */\n      swap2\n      swap1\n      0xffffffff\n      and\n      jump\t// in\n    tag_230:\n        /* \"feg.sol\":22713:22720  _rOwned */\n      0x01\n        /* \"feg.sol\":22713:22731  _rOwned[recipient] */\n      0x00\n        /* \"feg.sol\":22721:22730  recipient */\n      dup10\n        /* \"feg.sol\":22713:22731  _rOwned[recipient] */\n      0xffffffffffffffffffffffffffffffffffffffff\n      and\n      0xffffffffffffffffffffffffffffffffffffffff\n      and\n      dup2\n      mstore\n      0x20\n      add\n      swap1\n      dup2\n      mstore\n      0x20\n      add\n      0x00\n      keccak256\n        /* \"feg.sol\":22713:22773  _rOwned[recipient] = _rOwned[recipient].add(rTransferAmount) */\n      dup2\n      swap1\n      sstore\n      pop\n        /* \"feg.sol\":22794:22817  _reflectFee(rFee, tFee) */\n      tag_231\n        /* \"feg.sol\":22806:22810  rFee */\n      dup4\n        /* \"feg.sol\":22812:22816  tFee */\n      dup3\n        /* \"feg.sol\":22794:22805  _reflectFee */\n      tag_94\n        /* \"feg.sol\":22794:22817  _reflectFee(rFee, tFee) */\n      jump\t// in\n    tag_231:\n        /* \"feg.sol\":22849:22858  recipient */\n      dup7\n        /* \"feg.sol\":22832:22876  Transfer(sender, recipient, tTransferAmount) */\n      0xffffffffffffffffffffffffffffffffffffffff\n      and\n        /* \"feg.sol\":22841:22847  sender */\n      dup9\n        /* \"feg.sol\":22832:22876  Transfer(sender, recipient, tTransferAmount) */\n      0xffffffffffffffffffffffffffffffffffffffff\n      and\n      0xddf252ad1be2c89b69c2b068fc378daa952ba7f163c4a11628f55a4df523b3ef\n        /* \"feg.sol\":22860:22875  tTransferAmount */\n      dup5\n        /* \"feg.sol\":22832:22876  Transfer(sender, recipient, tTransferAmount) */\n      mload(0x40)\n      dup1\n      dup3\n      dup2\n      mstore\n      0x20\n      add\n      swap2\n      pop\n      pop\n      mload(0x40)\n      dup1\n      swap2\n      sub\n      swap1\n      log3\n        /* \"feg.sol\":22362:22883  function _transferToExcluded(address sender, address recipient, uint256 tAmount) public {... */\n      pop\n      pop\n      pop\n      pop\n      pop\n      pop\n      pop\n      pop\n      jump\t// out\n        /* \"feg.sol\":16815:16908  function totalSupply() public view override returns (uint256) {... */\n    tag_91:\n        /* \"feg.sol\":16868:16875  uint256 */\n      0x00\n        /* \"feg.sol\":15982:15985  100 */\n      0x64\n        /* \"feg.sol\":16887:16901  return _tTotal */\n      swap1\n      pop\n        /* \"feg.sol\":16815:16908  function totalSupply() public view override returns (uint256) {... */\n      swap1\n      jump\t// out\n        /* \"feg.sol\":23978:24121  function _reflectFee(uint256 rFee, uint256 tFee) public {... */\n    tag_94:\n        /* \"feg.sol\":24054:24071  _rTotal.sub(rFee) */\n      tag_234\n        /* \"feg.sol\":24066:24070  rFee */\n      dup3\n        /* \"feg.sol\":24054:24061  _rTotal */\n      sload(0x08)\n        /* \"feg.sol\":24054:24065  _rTotal.sub */\n      tag_205\n      swap1\n        /* \"feg.sol\":24054:24071  _rTotal.sub(rFee) */\n      swap2\n      swap1\n      0xffffffff\n      and\n      jump\t// in\n    tag_234:\n        /* \"feg.sol\":24044:24051  _rTotal */\n      0x08\n        /* \"feg.sol\":24044:24071  _rTotal = _rTotal.sub(rFee) */\n      dup2\n      swap1\n      sstore\n      pop\n        /* \"feg.sol\":24094:24114  _tFeeTotal.add(tFee) */\n      tag_235\n        /* \"feg.sol\":24109:24113  tFee */\n      dup2\n        /* \"feg.sol\":24094:24104  _tFeeTotal */\n      sload(0x09)\n        /* \"feg.sol\":24094:24108  _tFeeTotal.add */\n      tag_208\n      swap1\n        /* \"feg.sol\":24094:24114  _tFeeTotal.add(tFee) */\n      swap2\n      swap1\n      0xffffffff\n      and\n      jump\t// in\n    tag_235:\n        /* \"feg.sol\":24081:24091  _tFeeTotal */\n      0x09\n        /* \"feg.sol\":24081:24114  _tFeeTotal = _tFeeTotal.add(tFee) */\n      dup2\n      swap1\n      sstore\n      pop\n        /* \"feg.sol\":23978:24121  function _reflectFee(uint256 rFee, uint256 tFee) public {... */\n      pop\n      pop\n      jump\t// out\n        /* \"feg.sol\":17776:18085  function transferFrom(address sender, address recipient, uint256 amount) public override returns (bool) {... */\n    tag_97:\n        /* \"feg.sol\":17874:17878  bool */\n      0x00\n        /* \"feg.sol\":17890:17926  _transfer(sender, recipient, amount) */\n      tag_237\n        /* \"feg.sol\":17900:17906  sender */\n      dup5\n        /* \"feg.sol\":17908:17917  recipient */\n      dup5\n        /* \"feg.sol\":17919:17925  amount */\n      dup5\n        /* \"feg.sol\":17890:17899  _transfer */\n      tag_106\n        /* \"feg.sol\":17890:17926  _transfer(sender, recipient, amount) */\n      jump\t// in\n    tag_237:\n        /* \"feg.sol\":17936:18057  _approve(sender, _msgSender(), _allowances[sender][_msgSender()].sub(amount, \"ERC20: transfer amount exceeds allowance\")) */\n      tag_238\n        /* \"feg.sol\":17945:17951  sender */\n      dup5\n        /* \"feg.sol\":17953:17965  _msgSender() */\n      tag_239\n        /* \"feg.sol\":17953:17963  _msgSender */\n      tag_201\n        /* \"feg.sol\":17953:17965  _msgSender() */\n      jump\t// in\n    tag_239:\n        /* \"feg.sol\":17967:18056  _allowances[sender][_msgSender()].sub(amount, \"ERC20: transfer amount exceeds allowance\") */\n      tag_240\n        /* \"feg.sol\":18005:18011  amount */\n      dup6\n        /* \"feg.sol\":17967:18056  _allowances[sender][_msgSender()].sub(amount, \"ERC20: transfer amount exceeds allowance\") */\n      mload(0x40)\n      dup1\n      0x60\n      add\n      0x40\n      mstore\n      dup1\n      0x28\n      dup2\n      mstore\n      0x20\n      add\n      data_974d1b4421da69cc60b481194f0dad36a5bb4e23da810da7a7fb30cdba178330\n      0x28\n      swap2\n      codecopy\n        /* \"feg.sol\":17967:17978  _allowances */\n      0x03\n        /* \"feg.sol\":17967:17986  _allowances[sender] */\n      0x00\n        /* \"feg.sol\":17979:17985  sender */\n      dup12\n        /* \"feg.sol\":17967:17986  _allowances[sender] */\n      0xffffffffffffffffffffffffffffffffffffffff\n      and\n      0xffffffffffffffffffffffffffffffffffffffff\n      and\n      dup2\n      mstore\n      0x20\n      add\n      swap1\n      dup2\n      mstore\n      0x20\n      add\n      0x00\n      keccak256\n        /* \"feg.sol\":17967:18000  _allowances[sender][_msgSender()] */\n      0x00\n        /* \"feg.sol\":17987:17999  _msgSender() */\n      tag_241\n        /* \"feg.sol\":17987:17997  _msgSender */\n      tag_201\n        /* \"feg.sol\":17987:17999  _msgSender() */\n      jump\t// in\n    tag_241:\n        /* \"feg.sol\":17967:18000  _allowances[sender][_msgSender()] */\n      0xffffffffffffffffffffffffffffffffffffffff\n      and\n      0xffffffffffffffffffffffffffffffffffffffff\n      and\n      dup2\n      mstore\n      0x20\n      add\n      swap1\n      dup2\n      mstore\n      0x20\n      add\n      0x00\n      keccak256\n      sload\n        /* \"feg.sol\":17967:18004  _allowances[sender][_msgSender()].sub */\n      tag_242\n      swap1\n        /* \"feg.sol\":17967:18056  _allowances[sender][_msgSender()].sub(amount, \"ERC20: transfer amount exceeds allowance\") */\n      swap3\n      swap2\n      swap1\n      0xffffffff\n      and\n      jump\t// in\n    tag_240:\n        /* \"feg.sol\":17936:17944  _approve */\n      tag_81\n        /* \"feg.sol\":17936:18057  _approve(sender, _msgSender(), _allowances[sender][_msgSender()].sub(amount, \"ERC20: transfer amount exceeds allowance\")) */\n      jump\t// in\n    tag_238:\n        /* \"feg.sol\":18074:18078  true */\n      0x01\n        /* \"feg.sol\":18067:18078  return true */\n      swap1\n      pop\n        /* \"feg.sol\":17776:18085  function transferFrom(address sender, address recipient, uint256 amount) public override returns (bool) {... */\n      swap4\n      swap3\n      pop\n      pop\n      pop\n      jump\t// out\n        /* \"feg.sol\":21911:22356  function _transferStandard(address sender, address recipient, uint256 tAmount) public {... */\n    tag_100:\n        /* \"feg.sol\":22008:22023  uint256 rAmount */\n      0x00\n        /* \"feg.sol\":22025:22048  uint256 rTransferAmount */\n      dup1\n        /* \"feg.sol\":22050:22062  uint256 rFee */\n      0x00\n        /* \"feg.sol\":22064:22087  uint256 tTransferAmount */\n      dup1\n        /* \"feg.sol\":22089:22101  uint256 tFee */\n      0x00\n        /* \"feg.sol\":22105:22124  _getValues(tAmount) */\n      tag_244\n        /* \"feg.sol\":22116:22123  tAmount */\n      dup7\n        /* \"feg.sol\":22105:22115  _getValues */\n      tag_182\n        /* \"feg.sol\":22105:22124  _getValues(tAmount) */\n      jump\t// in\n    tag_244:\n        /* \"feg.sol\":22007:22124  (uint256 rAmount, uint256 rTransferAmount, uint256 rFee, uint256 tTransferAmount, uint256 tFee) = _getValues(tAmount) */\n      swap5\n      pop\n      swap5\n      pop\n      swap5\n      pop\n      swap5\n      pop\n      swap5\n      pop\n        /* \"feg.sol\":22152:22180  _rOwned[sender].sub(rAmount) */\n      tag_245\n        /* \"feg.sol\":22172:22179  rAmount */\n      dup6\n        /* \"feg.sol\":22152:22159  _rOwned */\n      0x01\n        /* \"feg.sol\":22152:22167  _rOwned[sender] */\n      0x00\n        /* \"feg.sol\":22160:22166  sender */\n      dup12\n        /* \"feg.sol\":22152:22167  _rOwned[sender] */\n      0xffffffffffffffffffffffffffffffffffffffff\n      and\n      0xffffffffffffffffffffffffffffffffffffffff\n      and\n      dup2\n      mstore\n      0x20\n      add\n      swap1\n      dup2\n      mstore\n      0x20\n      add\n      0x00\n      keccak256\n      sload\n        /* \"feg.sol\":22152:22171  _rOwned[sender].sub */\n      tag_205\n      swap1\n        /* \"feg.sol\":22152:22180  _rOwned[sender].sub(rAmount) */\n      swap2\n      swap1\n      0xffffffff\n      and\n      jump\t// in\n    tag_245:\n        /* \"feg.sol\":22134:22141  _rOwned */\n      0x01\n        /* \"feg.sol\":22134:22149  _rOwned[sender] */\n      0x00\n        /* \"feg.sol\":22142:22148  sender */\n      dup11\n        /* \"feg.sol\":22134:22149  _rOwned[sender] */\n      0xffffffffffffffffffffffffffffffffffffffff\n      and\n      0xffffffffffffffffffffffffffffffffffffffff\n      and\n      dup2\n      mstore\n      0x20\n      add\n      swap1\n      dup2\n      mstore\n      0x20\n      add\n      0x00\n      keccak256\n        /* \"feg.sol\":22134:22180  _rOwned[sender] = _rOwned[sender].sub(rAmount) */\n      dup2\n      swap1\n      sstore\n      pop\n        /* \"feg.sol\":22211:22250  _rOwned[recipient].add(rTransferAmount) */\n      tag_246\n        /* \"feg.sol\":22234:22249  rTransferAmount */\n      dup5\n        /* \"feg.sol\":22211:22218  _rOwned */\n      0x01\n        /* \"feg.sol\":22211:22229  _rOwned[recipient] */\n      0x00\n        /* \"feg.sol\":22219:22228  recipient */\n      dup11\n        /* \"feg.sol\":22211:22229  _rOwned[recipient] */\n      0xffffffffffffffffffffffffffffffffffffffff\n      and\n      0xffffffffffffffffffffffffffffffffffffffff\n      and\n      dup2\n      mstore\n      0x20\n      add\n      swap1\n      dup2\n      mstore\n      0x20\n      add\n      0x00\n      keccak256\n      sload\n        /* \"feg.sol\":22211:22233  _rOwned[recipient].add */\n      tag_208\n      swap1\n        /* \"feg.sol\":22211:22250  _rOwned[recipient].add(rTransferAmount) */\n      swap2\n      swap1\n      0xffffffff\n      and\n      jump\t// in\n    tag_246:\n        /* \"feg.sol\":22190:22197  _rOwned */\n      0x01\n        /* \"feg.sol\":22190:22208  _rOwned[recipient] */\n      0x00\n        /* \"feg.sol\":22198:22207  recipient */\n      dup10\n        /* \"feg.sol\":22190:22208  _rOwned[recipient] */\n      0xffffffffffffffffffffffffffffffffffffffff\n      and\n      0xffffffffffffffffffffffffffffffffffffffff\n      and\n      dup2\n      mstore\n      0x20\n      add\n      swap1\n      dup2\n      mstore\n      0x20\n      add\n      0x00\n      keccak256\n        /* \"feg.sol\":22190:22250  _rOwned[recipient] = _rOwned[recipient].add(rTransferAmount) */\n      dup2\n      swap1\n      sstore\n      pop\n        /* \"feg.sol\":22267:22290  _reflectFee(rFee, tFee) */\n      tag_247\n        /* \"feg.sol\":22279:22283  rFee */\n      dup4\n        /* \"feg.sol\":22285:22289  tFee */\n      dup3\n        /* \"feg.sol\":22267:22278  _reflectFee */\n      tag_94\n        /* \"feg.sol\":22267:22290  _reflectFee(rFee, tFee) */\n      jump\t// in\n    tag_247:\n        /* \"feg.sol\":22322:22331  recipient */\n      dup7\n        /* \"feg.sol\":22305:22349  Transfer(sender, recipient, tTransferAmount) */\n      0xffffffffffffffffffffffffffffffffffffffff\n      and\n        /* \"feg.sol\":22314:22320  sender */\n      dup9\n        /* \"feg.sol\":22305:22349  Transfer(sender, recipient, tTransferAmount) */\n      0xffffffffffffffffffffffffffffffffffffffff\n      and\n      0xddf252ad1be2c89b69c2b068fc378daa952ba7f163c4a11628f55a4df523b3ef\n        /* \"feg.sol\":22333:22348  tTransferAmount */\n      dup5\n        /* \"feg.sol\":22305:22349  Transfer(sender, recipient, tTransferAmount) */\n      mload(0x40)\n      dup1\n      dup3\n      dup2\n      mstore\n      0x20\n      add\n      swap2\n      pop\n      pop\n      mload(0x40)\n      dup1\n      swap2\n      sub\n      swap1\n      log3\n        /* \"feg.sol\":21911:22356  function _transferStandard(address sender, address recipient, uint256 tAmount) public {... */\n      pop\n      pop\n      pop\n      pop\n      pop\n      pop\n      pop\n      pop\n      jump\t// out\n        /* \"feg.sol\":19595:19844  function tokenFromReflection(uint256 rAmount) public view returns(uint256) {... */\n    tag_103:\n        /* \"feg.sol\":19661:19668  uint256 */\n      0x00\n        /* \"feg.sol\":19699:19706  _rTotal */\n      sload(0x08)\n        /* \"feg.sol\":19688:19695  rAmount */\n      dup3\n        /* \"feg.sol\":19688:19706  rAmount <= _rTotal */\n      gt\n      iszero\n        /* \"feg.sol\":19680:19753  require(rAmount <= _rTotal, \"Amount must be less than total reflections\") */\n      tag_249\n      jumpi\n      mload(0x40)\n      0x08c379a000000000000000000000000000000000000000000000000000000000\n      dup2\n      mstore\n      0x04\n      add\n      dup1\n      dup1\n      0x20\n      add\n      dup3\n      dup2\n      sub\n      dup3\n      mstore\n      0x2a\n      dup2\n      mstore\n      0x20\n      add\n      dup1\n      data_22f7af55a509c3b14f0d528f087748dec8a8bf425135e3f5dc28c6a31ec6d812\n      0x2a\n      swap2\n      codecopy\n      0x40\n      add\n      swap2\n      pop\n      pop\n      mload(0x40)\n      dup1\n      swap2\n      sub\n      swap1\n      revert\n    tag_249:\n        /* \"feg.sol\":19763:19782  uint256 currentRate */\n      0x00\n        /* \"feg.sol\":19786:19796  _getRate() */\n      tag_250\n        /* \"feg.sol\":19786:19794  _getRate */\n      tag_138\n        /* \"feg.sol\":19786:19796  _getRate() */\n      jump\t// in\n    tag_250:\n        /* \"feg.sol\":19763:19796  uint256 currentRate =  _getRate() */\n      swap1\n      pop\n        /* \"feg.sol\":19813:19837  rAmount.div(currentRate) */\n      tag_251\n        /* \"feg.sol\":19825:19836  currentRate */\n      dup2\n        /* \"feg.sol\":19813:19820  rAmount */\n      dup5\n        /* \"feg.sol\":19813:19824  rAmount.div */\n      tag_222\n      swap1\n        /* \"feg.sol\":19813:19837  rAmount.div(currentRate) */\n      swap2\n      swap1\n      0xffffffff\n      and\n      jump\t// in\n    tag_251:\n        /* \"feg.sol\":19806:19837  return rAmount.div(currentRate) */\n      swap2\n      pop\n      pop\n        /* \"feg.sol\":19595:19844  function tokenFromReflection(uint256 rAmount) public view returns(uint256) {... */\n      swap2\n      swap1\n      pop\n      jump\t// out\n        /* \"feg.sol\":20990:21905  function _transfer(address sender, address recipient, uint256 amount) public {... */\n    tag_106:\n        /* \"feg.sol\":21103:21104  0 */\n      0x00\n        /* \"feg.sol\":21085:21105  sender != address(0) */\n      0xffffffffffffffffffffffffffffffffffffffff\n      and\n        /* \"feg.sol\":21085:21091  sender */\n      dup4\n        /* \"feg.sol\":21085:21105  sender != address(0) */\n      0xffffffffffffffffffffffffffffffffffffffff\n      and\n      eq\n      iszero\n        /* \"feg.sol\":21077:21147  require(sender != address(0), \"ERC20: transfer from the zero address\") */\n      tag_253\n      jumpi\n      mload(0x40)\n      0x08c379a000000000000000000000000000000000000000000000000000000000\n      dup2\n      mstore\n      0x04\n      add\n      dup1\n      dup1\n      0x20\n      add\n      dup3\n      dup2\n      sub\n      dup3\n      mstore\n      0x25\n      dup2\n      mstore\n      0x20\n      add\n      dup1\n      data_baecc556b46f4ed0f2b4cb599d60785ac8563dd2dc0a5bf12edea1c39e5e1fea\n      0x25\n      swap2\n      codecopy\n      0x40\n      add\n      swap2\n      pop\n      pop\n      mload(0x40)\n      dup1\n      swap2\n      sub\n      swap1\n      revert\n    tag_253:\n        /* \"feg.sol\":21186:21187  0 */\n      0x00\n        /* \"feg.sol\":21165:21188  recipient != address(0) */\n      0xffffffffffffffffffffffffffffffffffffffff\n      and\n        /* \"feg.sol\":21165:21174  recipient */\n      dup3\n        /* \"feg.sol\":21165:21188  recipient != address(0) */\n      0xffffffffffffffffffffffffffffffffffffffff\n      and\n      eq\n      iszero\n        /* \"feg.sol\":21157:21228  require(recipient != address(0), \"ERC20: transfer to the zero address\") */\n      tag_254\n      jumpi\n      mload(0x40)\n      0x08c379a000000000000000000000000000000000000000000000000000000000\n      dup2\n      mstore\n      0x04\n      add\n      dup1\n      dup1\n      0x20\n      add\n      dup3\n      dup2\n      sub\n      dup3\n      mstore\n      0x23\n      dup2\n      mstore\n      0x20\n      add\n      dup1\n      data_0557e210f7a69a685100a7e4e3d0a7024c546085cee28910fd17d0b081d9516f\n      0x23\n      swap2\n      codecopy\n      0x40\n      add\n      swap2\n      pop\n      pop\n      mload(0x40)\n      dup1\n      swap2\n      sub\n      swap1\n      revert\n    tag_254:\n        /* \"feg.sol\":21255:21256  0 */\n      0x00\n        /* \"feg.sol\":21246:21252  amount */\n      dup2\n        /* \"feg.sol\":21246:21256  amount > 0 */\n      gt\n        /* \"feg.sol\":21238:21302  require(amount > 0, \"Transfer amount must be greater than zero\") */\n      tag_255\n      jumpi\n      mload(0x40)\n      0x08c379a000000000000000000000000000000000000000000000000000000000\n      dup2\n      mstore\n      0x04\n      add\n      dup1\n      dup1\n      0x20\n      add\n      dup3\n      dup2\n      sub\n      dup3\n      mstore\n      0x29\n      dup2\n      mstore\n      0x20\n      add\n      dup1\n      data_9edb5ab58321f35d2386ea65721c9b107daa2c273610fc16d394af2a320ba785\n      0x29\n      swap2\n      codecopy\n      0x40\n      add\n      swap2\n      pop\n      pop\n      mload(0x40)\n      dup1\n      swap2\n      sub\n      swap1\n      revert\n    tag_255:\n        /* \"feg.sol\":21316:21327  _isExcluded */\n      0x04\n        /* \"feg.sol\":21316:21335  _isExcluded[sender] */\n      0x00\n        /* \"feg.sol\":21328:21334  sender */\n      dup5\n        /* \"feg.sol\":21316:21335  _isExcluded[sender] */\n      0xffffffffffffffffffffffffffffffffffffffff\n      and\n      0xffffffffffffffffffffffffffffffffffffffff\n      and\n      dup2\n      mstore\n      0x20\n      add\n      swap1\n      dup2\n      mstore\n      0x20\n      add\n      0x00\n      keccak256\n      0x00\n      swap1\n      sload\n      swap1\n      0x0100\n      exp\n      swap1\n      div\n      0xff\n      and\n        /* \"feg.sol\":21316:21362  _isExcluded[sender] && !_isExcluded[recipient] */\n      dup1\n      iszero\n      tag_256\n      jumpi\n      pop\n        /* \"feg.sol\":21340:21351  _isExcluded */\n      0x04\n        /* \"feg.sol\":21340:21362  _isExcluded[recipient] */\n      0x00\n        /* \"feg.sol\":21352:21361  recipient */\n      dup4\n        /* \"feg.sol\":21340:21362  _isExcluded[recipient] */\n      0xffffffffffffffffffffffffffffffffffffffff\n      and\n      0xffffffffffffffffffffffffffffffffffffffff\n      and\n      dup2\n      mstore\n      0x20\n      add\n      swap1\n      dup2\n      mstore\n      0x20\n      add\n      0x00\n      keccak256\n      0x00\n      swap1\n      sload\n      swap1\n      0x0100\n      exp\n      swap1\n      div\n      0xff\n      and\n        /* \"feg.sol\":21339:21362  !_isExcluded[recipient] */\n      iszero\n        /* \"feg.sol\":21316:21362  _isExcluded[sender] && !_isExcluded[recipient] */\n    tag_256:\n        /* \"feg.sol\":21312:21899  if (_isExcluded[sender] && !_isExcluded[recipient]) {... */\n      iszero\n      tag_257\n      jumpi\n        /* \"feg.sol\":21378:21426  _transferFromExcluded(sender, recipient, amount) */\n      tag_258\n        /* \"feg.sol\":21400:21406  sender */\n      dup4\n        /* \"feg.sol\":21408:21417  recipient */\n      dup4\n        /* \"feg.sol\":21419:21425  amount */\n      dup4\n        /* \"feg.sol\":21378:21399  _transferFromExcluded */\n      tag_168\n        /* \"feg.sol\":21378:21426  _transferFromExcluded(sender, recipient, amount) */\n      jump\t// in\n    tag_258:\n        /* \"feg.sol\":21312:21899  if (_isExcluded[sender] && !_isExcluded[recipient]) {... */\n      jump(tag_259)\n    tag_257:\n        /* \"feg.sol\":21448:21459  _isExcluded */\n      0x04\n        /* \"feg.sol\":21448:21467  _isExcluded[sender] */\n      0x00\n        /* \"feg.sol\":21460:21466  sender */\n      dup5\n        /* \"feg.sol\":21448:21467  _isExcluded[sender] */\n      0xffffffffffffffffffffffffffffffffffffffff\n      and\n      0xffffffffffffffffffffffffffffffffffffffff\n      and\n      dup2\n      mstore\n      0x20\n      add\n      swap1\n      dup2\n      mstore\n      0x20\n      add\n      0x00\n      keccak256\n      0x00\n      swap1\n      sload\n      swap1\n      0x0100\n      exp\n      swap1\n      div\n      0xff\n      and\n        /* \"feg.sol\":21447:21467  !_isExcluded[sender] */\n      iszero\n        /* \"feg.sol\":21447:21493  !_isExcluded[sender] && _isExcluded[recipient] */\n      dup1\n      iszero\n      tag_260\n      jumpi\n      pop\n        /* \"feg.sol\":21471:21482  _isExcluded */\n      0x04\n        /* \"feg.sol\":21471:21493  _isExcluded[recipient] */\n      0x00\n        /* \"feg.sol\":21483:21492  recipient */\n      dup4\n        /* \"feg.sol\":21471:21493  _isExcluded[recipient] */\n      0xffffffffffffffffffffffffffffffffffffffff\n      and\n      0xffffffffffffffffffffffffffffffffffffffff\n      and\n      dup2\n      mstore\n      0x20\n      add\n      swap1\n      dup2\n      mstore\n      0x20\n      add\n      0x00\n      keccak256\n      0x00\n      swap1\n      sload\n      swap1\n      0x0100\n      exp\n      swap1\n      div\n      0xff\n      and\n        /* \"feg.sol\":21447:21493  !_isExcluded[sender] && _isExcluded[recipient] */\n    tag_260:\n        /* \"feg.sol\":21443:21899  if (!_isExcluded[sender] && _isExcluded[recipient]) {... */\n      iszero\n      tag_261\n      jumpi\n        /* \"feg.sol\":21509:21555  _transferToExcluded(sender, recipient, amount) */\n      tag_262\n        /* \"feg.sol\":21529:21535  sender */\n      dup4\n        /* \"feg.sol\":21537:21546  recipient */\n      dup4\n        /* \"feg.sol\":21548:21554  amount */\n      dup4\n        /* \"feg.sol\":21509:21528  _transferToExcluded */\n      tag_89\n        /* \"feg.sol\":21509:21555  _transferToExcluded(sender, recipient, amount) */\n      jump\t// in\n    tag_262:\n        /* \"feg.sol\":21443:21899  if (!_isExcluded[sender] && _isExcluded[recipient]) {... */\n      jump(tag_263)\n    tag_261:\n        /* \"feg.sol\":21577:21588  _isExcluded */\n      0x04\n        /* \"feg.sol\":21577:21596  _isExcluded[sender] */\n      0x00\n        /* \"feg.sol\":21589:21595  sender */\n      dup5\n        /* \"feg.sol\":21577:21596  _isExcluded[sender] */\n      0xffffffffffffffffffffffffffffffffffffffff\n      and\n      0xffffffffffffffffffffffffffffffffffffffff\n      and\n      dup2\n      mstore\n      0x20\n      add\n      swap1\n      dup2\n      mstore\n      0x20\n      add\n      0x00\n      keccak256\n      0x00\n      swap1\n      sload\n      swap1\n      0x0100\n      exp\n      swap1\n      div\n      0xff\n      and\n        /* \"feg.sol\":21576:21596  !_isExcluded[sender] */\n      iszero\n        /* \"feg.sol\":21576:21623  !_isExcluded[sender] && !_isExcluded[recipient] */\n      dup1\n      iszero\n      tag_264\n      jumpi\n      pop\n        /* \"feg.sol\":21601:21612  _isExcluded */\n      0x04\n        /* \"feg.sol\":21601:21623  _isExcluded[recipient] */\n      0x00\n        /* \"feg.sol\":21613:21622  recipient */\n      dup4\n        /* \"feg.sol\":21601:21623  _isExcluded[recipient] */\n      0xffffffffffffffffffffffffffffffffffffffff\n      and\n      0xffffffffffffffffffffffffffffffffffffffff\n      and\n      dup2\n      mstore\n      0x20\n      add\n      swap1\n      dup2\n      mstore\n      0x20\n      add\n      0x00\n      keccak256\n      0x00\n      swap1\n      sload\n      swap1\n      0x0100\n      exp\n      swap1\n      div\n      0xff\n      and\n        /* \"feg.sol\":21600:21623  !_isExcluded[recipient] */\n      iszero\n        /* \"feg.sol\":21576:21623  !_isExcluded[sender] && !_isExcluded[recipient] */\n    tag_264:\n        /* \"feg.sol\":21572:21899  if (!_isExcluded[sender] && !_isExcluded[recipient]) {... */\n      iszero\n      tag_265\n      jumpi\n        /* \"feg.sol\":21639:21683  _transferStandard(sender, recipient, amount) */\n      tag_266\n        /* \"feg.sol\":21657:21663  sender */\n      dup4\n        /* \"feg.sol\":21665:21674  recipient */\n      dup4\n        /* \"feg.sol\":21676:21682  amount */\n      dup4\n        /* \"feg.sol\":21639:21656  _transferStandard */\n      tag_100\n        /* \"feg.sol\":21639:21683  _transferStandard(sender, recipient, amount) */\n      jump\t// in\n    tag_266:\n        /* \"feg.sol\":21572:21899  if (!_isExcluded[sender] && !_isExcluded[recipient]) {... */\n      jump(tag_267)\n    tag_265:\n        /* \"feg.sol\":21704:21715  _isExcluded */\n      0x04\n        /* \"feg.sol\":21704:21723  _isExcluded[sender] */\n      0x00\n        /* \"feg.sol\":21716:21722  sender */\n      dup5\n        /* \"feg.sol\":21704:21723  _isExcluded[sender] */\n      0xffffffffffffffffffffffffffffffffffffffff\n      and\n      0xffffffffffffffffffffffffffffffffffffffff\n      and\n      dup2\n      mstore\n      0x20\n      add\n      swap1\n      dup2\n      mstore\n      0x20\n      add\n      0x00\n      keccak256\n      0x00\n      swap1\n      sload\n      swap1\n      0x0100\n      exp\n      swap1\n      div\n      0xff\n      and\n        /* \"feg.sol\":21704:21749  _isExcluded[sender] && _isExcluded[recipient] */\n      dup1\n      iszero\n      tag_268\n      jumpi\n      pop\n        /* \"feg.sol\":21727:21738  _isExcluded */\n      0x04\n        /* \"feg.sol\":21727:21749  _isExcluded[recipient] */\n      0x00\n        /* \"feg.sol\":21739:21748  recipient */\n      dup4\n        /* \"feg.sol\":21727:21749  _isExcluded[recipient] */\n      0xffffffffffffffffffffffffffffffffffffffff\n      and\n      0xffffffffffffffffffffffffffffffffffffffff\n      and\n      dup2\n      mstore\n      0x20\n      add\n      swap1\n      dup2\n      mstore\n      0x20\n      add\n      0x00\n      keccak256\n      0x00\n      swap1\n      sload\n      swap1\n      0x0100\n      exp\n      swap1\n      div\n      0xff\n      and\n        /* \"feg.sol\":21704:21749  _isExcluded[sender] && _isExcluded[recipient] */\n    tag_268:\n        /* \"feg.sol\":21700:21899  if (_isExcluded[sender] && _isExcluded[recipient]) {... */\n      iszero\n      tag_269\n      jumpi\n        /* \"feg.sol\":21765:21813  _transferBothExcluded(sender, recipient, amount) */\n      tag_270\n        /* \"feg.sol\":21787:21793  sender */\n      dup4\n        /* \"feg.sol\":21795:21804  recipient */\n      dup4\n        /* \"feg.sol\":21806:21812  amount */\n      dup4\n        /* \"feg.sol\":21765:21786  _transferBothExcluded */\n      tag_127\n        /* \"feg.sol\":21765:21813  _transferBothExcluded(sender, recipient, amount) */\n      jump\t// in\n    tag_270:\n        /* \"feg.sol\":21700:21899  if (_isExcluded[sender] && _isExcluded[recipient]) {... */\n      jump(tag_271)\n    tag_269:\n        /* \"feg.sol\":21844:21888  _transferStandard(sender, recipient, amount) */\n      tag_272\n        /* \"feg.sol\":21862:21868  sender */\n      dup4\n        /* \"feg.sol\":21870:21879  recipient */\n      dup4\n        /* \"feg.sol\":21881:21887  amount */\n      dup4\n        /* \"feg.sol\":21844:21861  _transferStandard */\n      tag_100\n        /* \"feg.sol\":21844:21888  _transferStandard(sender, recipient, amount) */\n      jump\t// in\n    tag_272:\n        /* \"feg.sol\":21700:21899  if (_isExcluded[sender] && _isExcluded[recipient]) {... */\n    tag_271:\n        /* \"feg.sol\":21572:21899  if (!_isExcluded[sender] && !_isExcluded[recipient]) {... */\n    tag_267:\n        /* \"feg.sol\":21443:21899  if (!_isExcluded[sender] && _isExcluded[recipient]) {... */\n    tag_263:\n        /* \"feg.sol\":21312:21899  if (_isExcluded[sender] && !_isExcluded[recipient]) {... */\n    tag_259:\n        /* \"feg.sol\":20990:21905  function _transfer(address sender, address recipient, uint256 amount) public {... */\n      pop\n      pop\n      pop\n      jump\t// out\n        /* \"feg.sol\":16728:16809  function decimals() public view returns (uint8) {... */\n    tag_108:\n        /* \"feg.sol\":16769:16774  uint8 */\n      0x00\n        /* \"feg.sol\":16793:16802  _decimals */\n      0x06\n      0x00\n      swap1\n      sload\n      swap1\n      0x0100\n      exp\n      swap1\n      div\n      0xff\n      and\n        /* \"feg.sol\":16786:16802  return _decimals */\n      swap1\n      pop\n        /* \"feg.sol\":16728:16809  function decimals() public view returns (uint8) {... */\n      swap1\n      jump\t// out\n        /* \"feg.sol\":15991:16017  uint8 public _decimals = 8 */\n    tag_110:\n      0x06\n      0x00\n      swap1\n      sload\n      swap1\n      0x0100\n      exp\n      swap1\n      div\n      0xff\n      and\n      dup2\n      jump\t// out\n        /* \"feg.sol\":18091:18306  function increaseAllowance(address spender, uint256 addedValue) public virtual returns (bool) {... */\n    tag_113:\n        /* \"feg.sol\":18179:18183  bool */\n      0x00\n        /* \"feg.sol\":18195:18278  _approve(_msgSender(), spender, _allowances[_msgSender()][spender].add(addedValue)) */\n      tag_275\n        /* \"feg.sol\":18204:18216  _msgSender() */\n      tag_276\n        /* \"feg.sol\":18204:18214  _msgSender */\n      tag_201\n        /* \"feg.sol\":18204:18216  _msgSender() */\n      jump\t// in\n    tag_276:\n        /* \"feg.sol\":18218:18225  spender */\n      dup5\n        /* \"feg.sol\":18227:18277  _allowances[_msgSender()][spender].add(addedValue) */\n      tag_277\n        /* \"feg.sol\":18266:18276  addedValue */\n      dup6\n        /* \"feg.sol\":18227:18238  _allowances */\n      0x03\n        /* \"feg.sol\":18227:18252  _allowances[_msgSender()] */\n      0x00\n        /* \"feg.sol\":18239:18251  _msgSender() */\n      tag_278\n        /* \"feg.sol\":18239:18249  _msgSender */\n      tag_201\n        /* \"feg.sol\":18239:18251  _msgSender() */\n      jump\t// in\n    tag_278:\n        /* \"feg.sol\":18227:18252  _allowances[_msgSender()] */\n      0xffffffffffffffffffffffffffffffffffffffff\n      and\n      0xffffffffffffffffffffffffffffffffffffffff\n      and\n      dup2\n      mstore\n      0x20\n      add\n      swap1\n      dup2\n      mstore\n      0x20\n      add\n      0x00\n      keccak256\n        /* \"feg.sol\":18227:18261  _allowances[_msgSender()][spender] */\n      0x00\n        /* \"feg.sol\":18253:18260  spender */\n      dup10\n        /* \"feg.sol\":18227:18261  _allowances[_msgSender()][spender] */\n      0xffffffffffffffffffffffffffffffffffffffff\n      and\n      0xffffffffffffffffffffffffffffffffffffffff\n      and\n      dup2\n      mstore\n      0x20\n      add\n      swap1\n      dup2\n      mstore\n      0x20\n      add\n      0x00\n      keccak256\n      sload\n        /* \"feg.sol\":18227:18265  _allowances[_msgSender()][spender].add */\n      tag_208\n      swap1\n        /* \"feg.sol\":18227:18277  _allowances[_msgSender()][spender].add(addedValue) */\n      swap2\n      swap1\n      0xffffffff\n      and\n      jump\t// in\n    tag_277:\n        /* \"feg.sol\":18195:18203  _approve */\n      tag_81\n        /* \"feg.sol\":18195:18278  _approve(_msgSender(), spender, _allowances[_msgSender()][spender].add(addedValue)) */\n      jump\t// in\n    tag_275:\n        /* \"feg.sol\":18295:18299  true */\n      0x01\n        /* \"feg.sol\":18288:18299  return true */\n      swap1\n      pop\n        /* \"feg.sol\":18091:18306  function increaseAllowance(address spender, uint256 addedValue) public virtual returns (bool) {... */\n      swap3\n      swap2\n      pop\n      pop\n      jump\t// out\n        /* \"feg.sol\":15698:15741  mapping (address => uint256) public _tOwned */\n    tag_116:\n      mstore(0x20, 0x02)\n      dup1\n      0x00\n      mstore\n      keccak256(0x00, 0x40)\n      0x00\n      swap2\n      pop\n      swap1\n      pop\n      sload\n      dup2\n      jump\t// out\n        /* \"feg.sol\":19164:19589  function reflectionFromToken(uint256 tAmount, bool deductTransferFee) public view returns(uint256) {... */\n    tag_119:\n        /* \"feg.sol\":19254:19261  uint256 */\n      0x00\n        /* \"feg.sol\":15982:15985  100 */\n      0x64\n        /* \"feg.sol\":19281:19288  tAmount */\n      dup4\n        /* \"feg.sol\":19281:19299  tAmount <= _tTotal */\n      gt\n      iszero\n        /* \"feg.sol\":19273:19335  require(tAmount <= _tTotal, \"Amount must be less than supply\") */\n      tag_280\n      jumpi\n      mload(0x40)\n      0x08c379a000000000000000000000000000000000000000000000000000000000\n      dup2\n      mstore\n      0x04\n      add\n      dup1\n      dup1\n      0x20\n      add\n      dup3\n      dup2\n      sub\n      dup3\n      mstore\n      0x1f\n      dup2\n      mstore\n      0x20\n      add\n      dup1\n      0x416d6f756e74206d757374206265206c657373207468616e20737570706c7900\n      dup2\n      mstore\n      pop\n      0x20\n      add\n      swap2\n      pop\n      pop\n      mload(0x40)\n      dup1\n      swap2\n      sub\n      swap1\n      revert\n    tag_280:\n        /* \"feg.sol\":19350:19367  deductTransferFee */\n      dup2\n        /* \"feg.sol\":19345:19583  if (!deductTransferFee) {... */\n      tag_281\n      jumpi\n        /* \"feg.sol\":19384:19399  uint256 rAmount */\n      0x00\n        /* \"feg.sol\":19407:19426  _getValues(tAmount) */\n      tag_282\n        /* \"feg.sol\":19418:19425  tAmount */\n      dup5\n        /* \"feg.sol\":19407:19417  _getValues */\n      tag_182\n        /* \"feg.sol\":19407:19426  _getValues(tAmount) */\n      jump\t// in\n    tag_282:\n        /* \"feg.sol\":19383:19426  (uint256 rAmount,,,,) = _getValues(tAmount) */\n      pop\n      pop\n      pop\n      pop\n      swap1\n      pop\n        /* \"feg.sol\":19447:19454  rAmount */\n      dup1\n        /* \"feg.sol\":19440:19454  return rAmount */\n      swap2\n      pop\n      pop\n      jump(tag_279)\n        /* \"feg.sol\":19345:19583  if (!deductTransferFee) {... */\n    tag_281:\n        /* \"feg.sol\":19487:19510  uint256 rTransferAmount */\n      0x00\n        /* \"feg.sol\":19517:19536  _getValues(tAmount) */\n      tag_284\n        /* \"feg.sol\":19528:19535  tAmount */\n      dup5\n        /* \"feg.sol\":19517:19527  _getValues */\n      tag_182\n        /* \"feg.sol\":19517:19536  _getValues(tAmount) */\n      jump\t// in\n    tag_284:\n        /* \"feg.sol\":19485:19536  (,uint256 rTransferAmount,,,) = _getValues(tAmount) */\n      pop\n      pop\n      pop\n      swap2\n      pop\n      pop\n        /* \"feg.sol\":19557:19572  rTransferAmount */\n      dup1\n        /* \"feg.sol\":19550:19572  return rTransferAmount */\n      swap2\n      pop\n      pop\n        /* \"feg.sol\":19164:19589  function reflectionFromToken(uint256 tAmount, bool deductTransferFee) public view returns(uint256) {... */\n    tag_279:\n      swap3\n      swap2\n      pop\n      pop\n      jump\t// out\n        /* \"feg.sol\":16247:16295  uint256 public _rTotal = (MAX - (MAX % _tTotal)) */\n    tag_121:\n      sload(0x08)\n      dup2\n      jump\t// out\n        /* \"feg.sol\":15872:15898  address[] public _excluded */\n    tag_124:\n      0x05\n      dup2\n      dup2\n      sload\n      dup2\n      lt\n      tag_285\n      jumpi\n      invalid\n    tag_285:\n      swap1\n      0x00\n      mstore\n      keccak256(0x00, 0x20)\n      add\n      0x00\n      swap2\n      pop\n      sload\n      swap1\n      0x0100\n      exp\n      swap1\n      div\n      0xffffffffffffffffffffffffffffffffffffffff\n      and\n      dup2\n      jump\t// out\n        /* \"feg.sol\":23396:23972  function _transferBothExcluded(address sender, address recipient, uint256 tAmount) public {... */\n    tag_127:\n        /* \"feg.sol\":23497:23512  uint256 rAmount */\n      0x00\n        /* \"feg.sol\":23514:23537  uint256 rTransferAmount */\n      dup1\n        /* \"feg.sol\":23539:23551  uint256 rFee */\n      0x00\n        /* \"feg.sol\":23553:23576  uint256 tTransferAmount */\n      dup1\n        /* \"feg.sol\":23578:23590  uint256 tFee */\n      0x00\n        /* \"feg.sol\":23594:23613  _getValues(tAmount) */\n      tag_288\n        /* \"feg.sol\":23605:23612  tAmount */\n      dup7\n        /* \"feg.sol\":23594:23604  _getValues */\n      tag_182\n        /* \"feg.sol\":23594:23613  _getValues(tAmount) */\n      jump\t// in\n    tag_288:\n        /* \"feg.sol\":23496:23613  (uint256 rAmount, uint256 rTransferAmount, uint256 rFee, uint256 tTransferAmount, uint256 tFee) = _getValues(tAmount) */\n      swap5\n      pop\n      swap5\n      pop\n      swap5\n      pop\n      swap5\n      pop\n      swap5\n      pop\n        /* \"feg.sol\":23641:23669  _tOwned[sender].sub(tAmount) */\n      tag_289\n        /* \"feg.sol\":23661:23668  tAmount */\n      dup7\n        /* \"feg.sol\":23641:23648  _tOwned */\n      0x02\n        /* \"feg.sol\":23641:23656  _tOwned[sender] */\n      0x00\n        /* \"feg.sol\":23649:23655  sender */\n      dup12\n        /* \"feg.sol\":23641:23656  _tOwned[sender] */\n      0xffffffffffffffffffffffffffffffffffffffff\n      and\n      0xffffffffffffffffffffffffffffffffffffffff\n      and\n      dup2\n      mstore\n      0x20\n      add\n      swap1\n      dup2\n      mstore\n      0x20\n      add\n      0x00\n      keccak256\n      sload\n        /* \"feg.sol\":23641:23660  _tOwned[sender].sub */\n      tag_205\n      swap1\n        /* \"feg.sol\":23641:23669  _tOwned[sender].sub(tAmount) */\n      swap2\n      swap1\n      0xffffffff\n      and\n      jump\t// in\n    tag_289:\n        /* \"feg.sol\":23623:23630  _tOwned */\n      0x02\n        /* \"feg.sol\":23623:23638  _tOwned[sender] */\n      0x00\n        /* \"feg.sol\":23631:23637  sender */\n      dup11\n        /* \"feg.sol\":23623:23638  _tOwned[sender] */\n      0xffffffffffffffffffffffffffffffffffffffff\n      and\n      0xffffffffffffffffffffffffffffffffffffffff\n      and\n      dup2\n      mstore\n      0x20\n      add\n      swap1\n      dup2\n      mstore\n      0x20\n      add\n      0x00\n      keccak256\n        /* \"feg.sol\":23623:23669  _tOwned[sender] = _tOwned[sender].sub(tAmount) */\n      dup2\n      swap1\n      sstore\n      pop\n        /* \"feg.sol\":23697:23725  _rOwned[sender].sub(rAmount) */\n      tag_290\n        /* \"feg.sol\":23717:23724  rAmount */\n      dup6\n        /* \"feg.sol\":23697:23704  _rOwned */\n      0x01\n        /* \"feg.sol\":23697:23712  _rOwned[sender] */\n      0x00\n        /* \"feg.sol\":23705:23711  sender */\n      dup12\n        /* \"feg.sol\":23697:23712  _rOwned[sender] */\n      0xffffffffffffffffffffffffffffffffffffffff\n      and\n      0xffffffffffffffffffffffffffffffffffffffff\n      and\n      dup2\n      mstore\n      0x20\n      add\n      swap1\n      dup2\n      mstore\n      0x20\n      add\n      0x00\n      keccak256\n      sload\n        /* \"feg.sol\":23697:23716  _rOwned[sender].sub */\n      tag_205\n      swap1\n        /* \"feg.sol\":23697:23725  _rOwned[sender].sub(rAmount) */\n      swap2\n      swap1\n      0xffffffff\n      and\n      jump\t// in\n    tag_290:\n        /* \"feg.sol\":23679:23686  _rOwned */\n      0x01\n        /* \"feg.sol\":23679:23694  _rOwned[sender] */\n      0x00\n        /* \"feg.sol\":23687:23693  sender */\n      dup11\n        /* \"feg.sol\":23679:23694  _rOwned[sender] */\n      0xffffffffffffffffffffffffffffffffffffffff\n      and\n      0xffffffffffffffffffffffffffffffffffffffff\n      and\n      dup2\n      mstore\n      0x20\n      add\n      swap1\n      dup2\n      mstore\n      0x20\n      add\n      0x00\n      keccak256\n        /* \"feg.sol\":23679:23725  _rOwned[sender] = _rOwned[sender].sub(rAmount) */\n      dup2\n      swap1\n      sstore\n      pop\n        /* \"feg.sol\":23756:23795  _tOwned[recipient].add(tTransferAmount) */\n      tag_291\n        /* \"feg.sol\":23779:23794  tTransferAmount */\n      dup3\n        /* \"feg.sol\":23756:23763  _tOwned */\n      0x02\n        /* \"feg.sol\":23756:23774  _tOwned[recipient] */\n      0x00\n        /* \"feg.sol\":23764:23773  recipient */\n      dup11\n        /* \"feg.sol\":23756:23774  _tOwned[recipient] */\n      0xffffffffffffffffffffffffffffffffffffffff\n      and\n      0xffffffffffffffffffffffffffffffffffffffff\n      and\n      dup2\n      mstore\n      0x20\n      add\n      swap1\n      dup2\n      mstore\n      0x20\n      add\n      0x00\n      keccak256\n      sload\n        /* \"feg.sol\":23756:23778  _tOwned[recipient].add */\n      tag_208\n      swap1\n        /* \"feg.sol\":23756:23795  _tOwned[recipient].add(tTransferAmount) */\n      swap2\n      swap1\n      0xffffffff\n      and\n      jump\t// in\n    tag_291:\n        /* \"feg.sol\":23735:23742  _tOwned */\n      0x02\n        /* \"feg.sol\":23735:23753  _tOwned[recipient] */\n      0x00\n        /* \"feg.sol\":23743:23752  recipient */\n      dup10\n        /* \"feg.sol\":23735:23753  _tOwned[recipient] */\n      0xffffffffffffffffffffffffffffffffffffffff\n      and\n      0xffffffffffffffffffffffffffffffffffffffff\n      and\n      dup2\n      mstore\n      0x20\n      add\n      swap1\n      dup2\n      mstore\n      0x20\n      add\n      0x00\n      keccak256\n        /* \"feg.sol\":23735:23795  _tOwned[recipient] = _tOwned[recipient].add(tTransferAmount) */\n      dup2\n      swap1\n      sstore\n      pop\n        /* \"feg.sol\":23826:23865  _rOwned[recipient].add(rTransferAmount) */\n      tag_292\n        /* \"feg.sol\":23849:23864  rTransferAmount */\n      dup5\n        /* \"feg.sol\":23826:23833  _rOwned */\n      0x01\n        /* \"feg.sol\":23826:23844  _rOwned[recipient] */\n      0x00\n        /* \"feg.sol\":23834:23843  recipient */\n      dup11\n        /* \"feg.sol\":23826:23844  _rOwned[recipient] */\n      0xffffffffffffffffffffffffffffffffffffffff\n      and\n      0xffffffffffffffffffffffffffffffffffffffff\n      and\n      dup2\n      mstore\n      0x20\n      add\n      swap1\n      dup2\n      mstore\n      0x20\n      add\n      0x00\n      keccak256\n      sload\n        /* \"feg.sol\":23826:23848  _rOwned[recipient].add */\n      tag_208\n      swap1\n        /* \"feg.sol\":23826:23865  _rOwned[recipient].add(rTransferAmount) */\n      swap2\n      swap1\n      0xffffffff\n      and\n      jump\t// in\n    tag_292:\n        /* \"feg.sol\":23805:23812  _rOwned */\n      0x01\n        /* \"feg.sol\":23805:23823  _rOwned[recipient] */\n      0x00\n        /* \"feg.sol\":23813:23822  recipient */\n      dup10\n        /* \"feg.sol\":23805:23823  _rOwned[recipient] */\n      0xffffffffffffffffffffffffffffffffffffffff\n      and\n      0xffffffffffffffffffffffffffffffffffffffff\n      and\n      dup2\n      mstore\n      0x20\n      add\n      swap1\n      dup2\n      mstore\n      0x20\n      add\n      0x00\n      keccak256\n        /* \"feg.sol\":23805:23865  _rOwned[recipient] = _rOwned[recipient].add(rTransferAmount) */\n      dup2\n      swap1\n      sstore\n      pop\n        /* \"feg.sol\":23883:23906  _reflectFee(rFee, tFee) */\n      tag_293\n        /* \"feg.sol\":23895:23899  rFee */\n      dup4\n        /* \"feg.sol\":23901:23905  tFee */\n      dup3\n        /* \"feg.sol\":23883:23894  _reflectFee */\n      tag_94\n        /* \"feg.sol\":23883:23906  _reflectFee(rFee, tFee) */\n      jump\t// in\n    tag_293:\n        /* \"feg.sol\":23938:23947  recipient */\n      dup7\n        /* \"feg.sol\":23921:23965  Transfer(sender, recipient, tTransferAmount) */\n      0xffffffffffffffffffffffffffffffffffffffff\n      and\n        /* \"feg.sol\":23930:23936  sender */\n      dup9\n        /* \"feg.sol\":23921:23965  Transfer(sender, recipient, tTransferAmount) */\n      0xffffffffffffffffffffffffffffffffffffffff\n      and\n      0xddf252ad1be2c89b69c2b068fc378daa952ba7f163c4a11628f55a4df523b3ef\n        /* \"feg.sol\":23949:23964  tTransferAmount */\n      dup5\n        /* \"feg.sol\":23921:23965  Transfer(sender, recipient, tTransferAmount) */\n      mload(0x40)\n      dup1\n      dup3\n      dup2\n      mstore\n      0x20\n      add\n      swap2\n      pop\n      pop\n      mload(0x40)\n      dup1\n      swap2\n      sub\n      swap1\n      log3\n        /* \"feg.sol\":23396:23972  function _transferBothExcluded(address sender, address recipient, uint256 tAmount) public {... */\n      pop\n      pop\n      pop\n      pop\n      pop\n      pop\n      pop\n      pop\n      jump\t// out\n        /* \"feg.sol\":17094:17289  function balanceOf(address account) public view override returns (uint256) {... */\n    tag_130:\n        /* \"feg.sol\":17160:17167  uint256 */\n      0x00\n        /* \"feg.sol\":17183:17194  _isExcluded */\n      0x04\n        /* \"feg.sol\":17183:17203  _isExcluded[account] */\n      0x00\n        /* \"feg.sol\":17195:17202  account */\n      dup4\n        /* \"feg.sol\":17183:17203  _isExcluded[account] */\n      0xffffffffffffffffffffffffffffffffffffffff\n      and\n      0xffffffffffffffffffffffffffffffffffffffff\n      and\n      dup2\n      mstore\n      0x20\n      add\n      swap1\n      dup2\n      mstore\n      0x20\n      add\n      0x00\n      keccak256\n      0x00\n      swap1\n      sload\n      swap1\n      0x0100\n      exp\n      swap1\n      div\n      0xff\n      and\n        /* \"feg.sol\":17179:17228  if (_isExcluded[account]) return _tOwned[account] */\n      iszero\n      tag_295\n      jumpi\n        /* \"feg.sol\":17212:17219  _tOwned */\n      0x02\n        /* \"feg.sol\":17212:17228  _tOwned[account] */\n      0x00\n        /* \"feg.sol\":17220:17227  account */\n      dup4\n        /* \"feg.sol\":17212:17228  _tOwned[account] */\n      0xffffffffffffffffffffffffffffffffffffffff\n      and\n      0xffffffffffffffffffffffffffffffffffffffff\n      and\n      dup2\n      mstore\n      0x20\n      add\n      swap1\n      dup2\n      mstore\n      0x20\n      add\n      0x00\n      keccak256\n      sload\n        /* \"feg.sol\":17205:17228  return _tOwned[account] */\n      swap1\n      pop\n      jump(tag_294)\n        /* \"feg.sol\":17179:17228  if (_isExcluded[account]) return _tOwned[account] */\n    tag_295:\n        /* \"feg.sol\":17245:17282  tokenFromReflection(_rOwned[account]) */\n      tag_296\n        /* \"feg.sol\":17265:17272  _rOwned */\n      0x01\n        /* \"feg.sol\":17265:17281  _rOwned[account] */\n      0x00\n        /* \"feg.sol\":17273:17280  account */\n      dup5\n        /* \"feg.sol\":17265:17281  _rOwned[account] */\n      0xffffffffffffffffffffffffffffffffffffffff\n      and\n      0xffffffffffffffffffffffffffffffffffffffff\n      and\n      dup2\n      mstore\n      0x20\n      add\n      swap1\n      dup2\n      mstore\n      0x20\n      add\n      0x00\n      keccak256\n      sload\n        /* \"feg.sol\":17245:17264  tokenFromReflection */\n      tag_103\n        /* \"feg.sol\":17245:17282  tokenFromReflection(_rOwned[account]) */\n      jump\t// in\n    tag_296:\n        /* \"feg.sol\":17238:17282  return tokenFromReflection(_rOwned[account]) */\n      swap1\n      pop\n        /* \"feg.sol\":17094:17289  function balanceOf(address account) public view override returns (uint256) {... */\n    tag_294:\n      swap2\n      swap1\n      pop\n      jump\t// out\n        /* \"feg.sol\":16023:16050  uint256 public percent = 20 */\n    tag_132:\n      sload(0x07)\n      dup2\n      jump\t// out\n        /* \"feg.sol\":14998:15143  function renounceOwnership() public virtual onlyOwner {... */\n    tag_134:\n        /* \"feg.sol\":14589:14601  _msgSender() */\n      tag_298\n        /* \"feg.sol\":14589:14599  _msgSender */\n      tag_201\n        /* \"feg.sol\":14589:14601  _msgSender() */\n      jump\t// in\n    tag_298:\n        /* \"feg.sol\":14579:14601  _owner == _msgSender() */\n      0xffffffffffffffffffffffffffffffffffffffff\n      and\n        /* \"feg.sol\":14579:14585  _owner */\n      0x00\n      dup1\n      sload\n      swap1\n      0x0100\n      exp\n      swap1\n      div\n      0xffffffffffffffffffffffffffffffffffffffff\n      and\n        /* \"feg.sol\":14579:14601  _owner == _msgSender() */\n      0xffffffffffffffffffffffffffffffffffffffff\n      and\n      eq\n        /* \"feg.sol\":14571:14638  require(_owner == _msgSender(), \"Ownable: caller is not the owner\") */\n      tag_299\n      jumpi\n      mload(0x40)\n      0x08c379a000000000000000000000000000000000000000000000000000000000\n      dup2\n      mstore\n      0x04\n      add\n      dup1\n      dup1\n      0x20\n      add\n      dup3\n      dup2\n      sub\n      dup3\n      mstore\n      0x20\n      dup2\n      mstore\n      0x20\n      add\n      dup1\n      0x4f776e61626c653a2063616c6c6572206973206e6f7420746865206f776e6572\n      dup2\n      mstore\n      pop\n      0x20\n      add\n      swap2\n      pop\n      pop\n      mload(0x40)\n      dup1\n      swap2\n      sub\n      swap1\n      revert\n    tag_299:\n        /* \"feg.sol\":15104:15105  0 */\n      0x00\n        /* \"feg.sol\":15067:15107  OwnershipTransferred(_owner, address(0)) */\n      0xffffffffffffffffffffffffffffffffffffffff\n      and\n        /* \"feg.sol\":15088:15094  _owner */\n      0x00\n      dup1\n      sload\n      swap1\n      0x0100\n      exp\n      swap1\n      div\n      0xffffffffffffffffffffffffffffffffffffffff\n      and\n        /* \"feg.sol\":15067:15107  OwnershipTransferred(_owner, address(0)) */\n      0xffffffffffffffffffffffffffffffffffffffff\n      and\n      0x8be0079c531659141344cd1fd0a4f28419497f9722a3daafe3b4186f6b6457e0\n      mload(0x40)\n      mload(0x40)\n      dup1\n      swap2\n      sub\n      swap1\n      log3\n        /* \"feg.sol\":15134:15135  0 */\n      0x00\n        /* \"feg.sol\":15117:15123  _owner */\n      dup1\n      0x00\n        /* \"feg.sol\":15117:15136  _owner = address(0) */\n      0x0100\n      exp\n      dup2\n      sload\n      dup2\n      0xffffffffffffffffffffffffffffffffffffffff\n      mul\n      not\n      and\n      swap1\n      dup4\n      0xffffffffffffffffffffffffffffffffffffffff\n      and\n      mul\n      or\n      swap1\n      sstore\n      pop\n        /* \"feg.sol\":14998:15143  function renounceOwnership() public virtual onlyOwner {... */\n      jump\t// out\n        /* \"feg.sol\":14375:14452  function owner() public view returns (address) {... */\n    tag_136:\n        /* \"feg.sol\":14413:14420  address */\n      0x00\n        /* \"feg.sol\":14439:14445  _owner */\n      dup1\n      0x00\n      swap1\n      sload\n      swap1\n      0x0100\n      exp\n      swap1\n      div\n      0xffffffffffffffffffffffffffffffffffffffff\n      and\n        /* \"feg.sol\":14432:14445  return _owner */\n      swap1\n      pop\n        /* \"feg.sol\":14375:14452  function owner() public view returns (address) {... */\n      swap1\n      jump\t// out\n        /* \"feg.sol\":25102:25261  function _getRate() public view returns(uint256) {... */\n    tag_138:\n        /* \"feg.sol\":25142:25149  uint256 */\n      0x00\n        /* \"feg.sol\":25162:25177  uint256 rSupply */\n      dup1\n        /* \"feg.sol\":25179:25194  uint256 tSupply */\n      0x00\n        /* \"feg.sol\":25198:25217  _getCurrentSupply() */\n      tag_303\n        /* \"feg.sol\":25198:25215  _getCurrentSupply */\n      tag_146\n        /* \"feg.sol\":25198:25217  _getCurrentSupply() */\n      jump\t// in\n    tag_303:\n        /* \"feg.sol\":25161:25217  (uint256 rSupply, uint256 tSupply) = _getCurrentSupply() */\n      swap2\n      pop\n      swap2\n      pop\n        /* \"feg.sol\":25234:25254  rSupply.div(tSupply) */\n      tag_304\n        /* \"feg.sol\":25246:25253  tSupply */\n      dup2\n        /* \"feg.sol\":25234:25241  rSupply */\n      dup4\n        /* \"feg.sol\":25234:25245  rSupply.div */\n      tag_222\n      swap1\n        /* \"feg.sol\":25234:25254  rSupply.div(tSupply) */\n      swap2\n      swap1\n      0xffffffff\n      and\n      jump\t// in\n    tag_304:\n        /* \"feg.sol\":25227:25254  return rSupply.div(tSupply) */\n      swap3\n      pop\n      pop\n      pop\n        /* \"feg.sol\":25102:25261  function _getRate() public view returns(uint256) {... */\n      swap1\n      jump\t// out\n        /* \"feg.sol\":16637:16722  function symbol() public view returns (string memory) {... */\n    tag_140:\n        /* \"feg.sol\":16676:16689  string memory */\n      0x60\n        /* \"feg.sol\":16708:16715  _symbol */\n      0x0b\n        /* \"feg.sol\":16701:16715  return _symbol */\n      dup1\n      sload\n      0x01\n      dup2\n      0x01\n      and\n      iszero\n      0x0100\n      mul\n      sub\n      and\n      0x02\n      swap1\n      div\n      dup1\n      0x1f\n      add\n      0x20\n      dup1\n      swap2\n      div\n      mul\n      0x20\n      add\n      mload(0x40)\n      swap1\n      dup2\n      add\n      0x40\n      mstore\n      dup1\n      swap3\n      swap2\n      swap1\n      dup2\n      dup2\n      mstore\n      0x20\n      add\n      dup3\n      dup1\n      sload\n      0x01\n      dup2\n      0x01\n      and\n      iszero\n      0x0100\n      mul\n      sub\n      and\n      0x02\n      swap1\n      div\n      dup1\n      iszero\n      tag_306\n      jumpi\n      dup1\n      0x1f\n      lt\n      tag_307\n      jumpi\n      0x0100\n      dup1\n      dup4\n      sload\n      div\n      mul\n      dup4\n      mstore\n      swap2\n      0x20\n      add\n      swap2\n      jump(tag_306)\n    tag_307:\n      dup3\n      add\n      swap2\n      swap1\n      0x00\n      mstore\n      keccak256(0x00, 0x20)\n      swap1\n    tag_308:\n      dup2\n      sload\n      dup2\n      mstore\n      swap1\n      0x01\n      add\n      swap1\n      0x20\n      add\n      dup1\n      dup4\n      gt\n      tag_308\n      jumpi\n      dup3\n      swap1\n      sub\n      0x1f\n      and\n      dup3\n      add\n      swap2\n    tag_306:\n      pop\n      pop\n      pop\n      pop\n      pop\n      swap1\n      pop\n        /* \"feg.sol\":16637:16722  function symbol() public view returns (string memory) {... */\n      swap1\n      jump\t// out\n        /* \"feg.sol\":25267:25817  function _getCurrentSupply() public view returns(uint256, uint256) {... */\n    tag_146:\n        /* \"feg.sol\":25316:25323  uint256 */\n      0x00\n        /* \"feg.sol\":25325:25332  uint256 */\n      dup1\n        /* \"feg.sol\":25344:25359  uint256 rSupply */\n      0x00\n        /* \"feg.sol\":25362:25369  _rTotal */\n      sload(0x08)\n        /* \"feg.sol\":25344:25369  uint256 rSupply = _rTotal */\n      swap1\n      pop\n        /* \"feg.sol\":25379:25394  uint256 tSupply */\n      0x00\n        /* \"feg.sol\":15982:15985  100 */\n      0x64\n        /* \"feg.sol\":25379:25404  uint256 tSupply = _tTotal */\n      swap1\n      pop\n        /* \"feg.sol\":25425:25434  uint256 i */\n      0x00\n        /* \"feg.sol\":25420:25705  for (uint256 i = 0; i < _excluded.length; i++) {... */\n    tag_310:\n        /* \"feg.sol\":25444:25453  _excluded */\n      0x05\n        /* \"feg.sol\":25444:25460  _excluded.length */\n      dup1\n      sload\n      swap1\n      pop\n        /* \"feg.sol\":25440:25441  i */\n      dup2\n        /* \"feg.sol\":25440:25460  i < _excluded.length */\n      lt\n        /* \"feg.sol\":25420:25705  for (uint256 i = 0; i < _excluded.length; i++) {... */\n      iszero\n      tag_311\n      jumpi\n        /* \"feg.sol\":25509:25516  rSupply */\n      dup3\n        /* \"feg.sol\":25485:25492  _rOwned */\n      0x01\n        /* \"feg.sol\":25485:25506  _rOwned[_excluded[i]] */\n      0x00\n        /* \"feg.sol\":25493:25502  _excluded */\n      0x05\n        /* \"feg.sol\":25503:25504  i */\n      dup5\n        /* \"feg.sol\":25493:25505  _excluded[i] */\n      dup2\n      sload\n      dup2\n      lt\n      tag_313\n      jumpi\n      invalid\n    tag_313:\n      swap1\n      0x00\n      mstore\n      keccak256(0x00, 0x20)\n      add\n      0x00\n      swap1\n      sload\n      swap1\n      0x0100\n      exp\n      swap1\n      div\n      0xffffffffffffffffffffffffffffffffffffffff\n      and\n        /* \"feg.sol\":25485:25506  _rOwned[_excluded[i]] */\n      0xffffffffffffffffffffffffffffffffffffffff\n      and\n      0xffffffffffffffffffffffffffffffffffffffff\n      and\n      dup2\n      mstore\n      0x20\n      add\n      swap1\n      dup2\n      mstore\n      0x20\n      add\n      0x00\n      keccak256\n      sload\n        /* \"feg.sol\":25485:25516  _rOwned[_excluded[i]] > rSupply */\n      gt\n        /* \"feg.sol\":25485:25551  _rOwned[_excluded[i]] > rSupply || _tOwned[_excluded[i]] > tSupply */\n      dup1\n      tag_315\n      jumpi\n      pop\n        /* \"feg.sol\":25544:25551  tSupply */\n      dup2\n        /* \"feg.sol\":25520:25527  _tOwned */\n      0x02\n        /* \"feg.sol\":25520:25541  _tOwned[_excluded[i]] */\n      0x00\n        /* \"feg.sol\":25528:25537  _excluded */\n      0x05\n        /* \"feg.sol\":25538:25539  i */\n      dup5\n        /* \"feg.sol\":25528:25540  _excluded[i] */\n      dup2\n      sload\n      dup2\n      lt\n      tag_316\n      jumpi\n      invalid\n    tag_316:\n      swap1\n      0x00\n      mstore\n      keccak256(0x00, 0x20)\n      add\n      0x00\n      swap1\n      sload\n      swap1\n      0x0100\n      exp\n      swap1\n      div\n      0xffffffffffffffffffffffffffffffffffffffff\n      and\n        /* \"feg.sol\":25520:25541  _tOwned[_excluded[i]] */\n      0xffffffffffffffffffffffffffffffffffffffff\n      and\n      0xffffffffffffffffffffffffffffffffffffffff\n      and\n      dup2\n      mstore\n      0x20\n      add\n      swap1\n      dup2\n      mstore\n      0x20\n      add\n      0x00\n      keccak256\n      sload\n        /* \"feg.sol\":25520:25551  _tOwned[_excluded[i]] > tSupply */\n      gt\n        /* \"feg.sol\":25485:25551  _rOwned[_excluded[i]] > rSupply || _tOwned[_excluded[i]] > tSupply */\n    tag_315:\n        /* \"feg.sol\":25481:25578  if (_rOwned[_excluded[i]] > rSupply || _tOwned[_excluded[i]] > tSupply) return (_rTotal, _tTotal) */\n      iszero\n      tag_318\n      jumpi\n        /* \"feg.sol\":25561:25568  _rTotal */\n      sload(0x08)\n        /* \"feg.sol\":15982:15985  100 */\n      0x64\n        /* \"feg.sol\":25553:25578  return (_rTotal, _tTotal) */\n      swap5\n      pop\n      swap5\n      pop\n      pop\n      pop\n      pop\n      jump(tag_309)\n        /* \"feg.sol\":25481:25578  if (_rOwned[_excluded[i]] > rSupply || _tOwned[_excluded[i]] > tSupply) return (_rTotal, _tTotal) */\n    tag_318:\n        /* \"feg.sol\":25602:25636  rSupply.sub(_rOwned[_excluded[i]]) */\n      tag_319\n        /* \"feg.sol\":25614:25621  _rOwned */\n      0x01\n        /* \"feg.sol\":25614:25635  _rOwned[_excluded[i]] */\n      0x00\n        /* \"feg.sol\":25622:25631  _excluded */\n      0x05\n        /* \"feg.sol\":25632:25633  i */\n      dup5\n        /* \"feg.sol\":25622:25634  _excluded[i] */\n      dup2\n      sload\n      dup2\n      lt\n      tag_320\n      jumpi\n      invalid\n    tag_320:\n      swap1\n      0x00\n      mstore\n      keccak256(0x00, 0x20)\n      add\n      0x00\n      swap1\n      sload\n      swap1\n      0x0100\n      exp\n      swap1\n      div\n      0xffffffffffffffffffffffffffffffffffffffff\n      and\n        /* \"feg.sol\":25614:25635  _rOwned[_excluded[i]] */\n      0xffffffffffffffffffffffffffffffffffffffff\n      and\n      0xffffffffffffffffffffffffffffffffffffffff\n      and\n      dup2\n      mstore\n      0x20\n      add\n      swap1\n      dup2\n      mstore\n      0x20\n      add\n      0x00\n      keccak256\n      sload\n        /* \"feg.sol\":25602:25609  rSupply */\n      dup5\n        /* \"feg.sol\":25602:25613  rSupply.sub */\n      tag_205\n      swap1\n        /* \"feg.sol\":25602:25636  rSupply.sub(_rOwned[_excluded[i]]) */\n      swap2\n      swap1\n      0xffffffff\n      and\n      jump\t// in\n    tag_319:\n        /* \"feg.sol\":25592:25636  rSupply = rSupply.sub(_rOwned[_excluded[i]]) */\n      swap3\n      pop\n        /* \"feg.sol\":25660:25694  tSupply.sub(_tOwned[_excluded[i]]) */\n      tag_322\n        /* \"feg.sol\":25672:25679  _tOwned */\n      0x02\n        /* \"feg.sol\":25672:25693  _tOwned[_excluded[i]] */\n      0x00\n        /* \"feg.sol\":25680:25689  _excluded */\n      0x05\n        /* \"feg.sol\":25690:25691  i */\n      dup5\n        /* \"feg.sol\":25680:25692  _excluded[i] */\n      dup2\n      sload\n      dup2\n      lt\n      tag_323\n      jumpi\n      invalid\n    tag_323:\n      swap1\n      0x00\n      mstore\n      keccak256(0x00, 0x20)\n      add\n      0x00\n      swap1\n      sload\n      swap1\n      0x0100\n      exp\n      swap1\n      div\n      0xffffffffffffffffffffffffffffffffffffffff\n      and\n        /* \"feg.sol\":25672:25693  _tOwned[_excluded[i]] */\n      0xffffffffffffffffffffffffffffffffffffffff\n      and\n      0xffffffffffffffffffffffffffffffffffffffff\n      and\n      dup2\n      mstore\n      0x20\n      add\n      swap1\n      dup2\n      mstore\n      0x20\n      add\n      0x00\n      keccak256\n      sload\n        /* \"feg.sol\":25660:25667  tSupply */\n      dup4\n        /* \"feg.sol\":25660:25671  tSupply.sub */\n      tag_205\n      swap1\n        /* \"feg.sol\":25660:25694  tSupply.sub(_tOwned[_excluded[i]]) */\n      swap2\n      swap1\n      0xffffffff\n      and\n      jump\t// in\n    tag_322:\n        /* \"feg.sol\":25650:25694  tSupply = tSupply.sub(_tOwned[_excluded[i]]) */\n      swap2\n      pop\n        /* \"feg.sol\":25462:25465  i++ */\n      dup1\n      dup1\n      0x01\n      add\n      swap2\n      pop\n      pop\n        /* \"feg.sol\":25420:25705  for (uint256 i = 0; i < _excluded.length; i++) {... */\n      jump(tag_310)\n    tag_311:\n      pop\n        /* \"feg.sol\":25728:25748  _rTotal.div(_tTotal) */\n      tag_325\n        /* \"feg.sol\":15982:15985  100 */\n      0x64\n        /* \"feg.sol\":25728:25735  _rTotal */\n      sload(0x08)\n        /* \"feg.sol\":25728:25739  _rTotal.div */\n      tag_222\n      swap1\n        /* \"feg.sol\":25728:25748  _rTotal.div(_tTotal) */\n      swap2\n      swap1\n      0xffffffff\n      and\n      jump\t// in\n    tag_325:\n        /* \"feg.sol\":25718:25725  rSupply */\n      dup3\n        /* \"feg.sol\":25718:25748  rSupply < _rTotal.div(_tTotal) */\n      lt\n        /* \"feg.sol\":25714:25775  if (rSupply < _rTotal.div(_tTotal)) return (_rTotal, _tTotal) */\n      iszero\n      tag_326\n      jumpi\n        /* \"feg.sol\":25758:25765  _rTotal */\n      sload(0x08)\n        /* \"feg.sol\":15982:15985  100 */\n      0x64\n        /* \"feg.sol\":25750:25775  return (_rTotal, _tTotal) */\n      swap4\n      pop\n      swap4\n      pop\n      pop\n      pop\n      jump(tag_309)\n        /* \"feg.sol\":25714:25775  if (rSupply < _rTotal.div(_tTotal)) return (_rTotal, _tTotal) */\n    tag_326:\n        /* \"feg.sol\":25793:25800  rSupply */\n      dup2\n        /* \"feg.sol\":25802:25809  tSupply */\n      dup2\n        /* \"feg.sol\":25785:25810  return (rSupply, tSupply) */\n      swap4\n      pop\n      swap4\n      pop\n      pop\n      pop\n        /* \"feg.sol\":25267:25817  function _getCurrentSupply() public view returns(uint256, uint256) {... */\n    tag_309:\n      swap1\n      swap2\n      jump\t// out\n        /* \"feg.sol\":18312:18578  function decreaseAllowance(address spender, uint256 subtractedValue) public virtual returns (bool) {... */\n    tag_149:\n        /* \"feg.sol\":18405:18409  bool */\n      0x00\n        /* \"feg.sol\":18421:18550  _approve(_msgSender(), spender, _allowances[_msgSender()][spender].sub(subtractedValue, \"ERC20: decreased allowance below zero\")) */\n      tag_328\n        /* \"feg.sol\":18430:18442  _msgSender() */\n      tag_329\n        /* \"feg.sol\":18430:18440  _msgSender */\n      tag_201\n        /* \"feg.sol\":18430:18442  _msgSender() */\n      jump\t// in\n    tag_329:\n        /* \"feg.sol\":18444:18451  spender */\n      dup5\n        /* \"feg.sol\":18453:18549  _allowances[_msgSender()][spender].sub(subtractedValue, \"ERC20: decreased allowance below zero\") */\n      tag_330\n        /* \"feg.sol\":18492:18507  subtractedValue */\n      dup6\n        /* \"feg.sol\":18453:18549  _allowances[_msgSender()][spender].sub(subtractedValue, \"ERC20: decreased allowance below zero\") */\n      mload(0x40)\n      dup1\n      0x60\n      add\n      0x40\n      mstore\n      dup1\n      0x25\n      dup2\n      mstore\n      0x20\n      add\n      data_f8b476f7d28209d77d4a4ac1fe36b9f8259aa1bb6bddfa6e89de7e51615cf8a8\n      0x25\n      swap2\n      codecopy\n        /* \"feg.sol\":18453:18464  _allowances */\n      0x03\n        /* \"feg.sol\":18453:18478  _allowances[_msgSender()] */\n      0x00\n        /* \"feg.sol\":18465:18477  _msgSender() */\n      tag_331\n        /* \"feg.sol\":18465:18475  _msgSender */\n      tag_201\n        /* \"feg.sol\":18465:18477  _msgSender() */\n      jump\t// in\n    tag_331:\n        /* \"feg.sol\":18453:18478  _allowances[_msgSender()] */\n      0xffffffffffffffffffffffffffffffffffffffff\n      and\n      0xffffffffffffffffffffffffffffffffffffffff\n      and\n      dup2\n      mstore\n      0x20\n      add\n      swap1\n      dup2\n      mstore\n      0x20\n      add\n      0x00\n      keccak256\n        /* \"feg.sol\":18453:18487  _allowances[_msgSender()][spender] */\n      0x00\n        /* \"feg.sol\":18479:18486  spender */\n      dup11\n        /* \"feg.sol\":18453:18487  _allowances[_msgSender()][spender] */\n      0xffffffffffffffffffffffffffffffffffffffff\n      and\n      0xffffffffffffffffffffffffffffffffffffffff\n      and\n      dup2\n      mstore\n      0x20\n      add\n      swap1\n      dup2\n      mstore\n      0x20\n      add\n      0x00\n      keccak256\n      sload\n        /* \"feg.sol\":18453:18491  _allowances[_msgSender()][spender].sub */\n      tag_242\n      swap1\n        /* \"feg.sol\":18453:18549  _allowances[_msgSender()][spender].sub(subtractedValue, \"ERC20: decreased allowance below zero\") */\n      swap3\n      swap2\n      swap1\n      0xffffffff\n      and\n      jump\t// in\n    tag_330:\n        /* \"feg.sol\":18421:18429  _approve */\n      tag_81\n        /* \"feg.sol\":18421:18550  _approve(_msgSender(), spender, _allowances[_msgSender()][spender].sub(subtractedValue, \"ERC20: decreased allowance below zero\")) */\n      jump\t// in\n    tag_328:\n        /* \"feg.sol\":18567:18571  true */\n      0x01\n        /* \"feg.sol\":18560:18571  return true */\n      swap1\n      pop\n        /* \"feg.sol\":18312:18578  function decreaseAllowance(address spender, uint256 subtractedValue) public virtual returns (bool) {... */\n      swap3\n      swap2\n      pop\n      pop\n      jump\t// out\n        /* \"feg.sol\":17295:17459  function transfer(address recipient, uint256 amount) public override returns (bool) {... */\n    tag_152:\n        /* \"feg.sol\":17373:17377  bool */\n      0x00\n        /* \"feg.sol\":17389:17431  _transfer(_msgSender(), recipient, amount) */\n      tag_333\n        /* \"feg.sol\":17399:17411  _msgSender() */\n      tag_334\n        /* \"feg.sol\":17399:17409  _msgSender */\n      tag_201\n        /* \"feg.sol\":17399:17411  _msgSender() */\n      jump\t// in\n    tag_334:\n        /* \"feg.sol\":17413:17422  recipient */\n      dup5\n        /* \"feg.sol\":17424:17430  amount */\n      dup5\n        /* \"feg.sol\":17389:17398  _transfer */\n      tag_106\n        /* \"feg.sol\":17389:17431  _transfer(_msgSender(), recipient, amount) */\n      jump\t// in\n    tag_333:\n        /* \"feg.sol\":17448:17452  true */\n      0x01\n        /* \"feg.sol\":17441:17452  return true */\n      swap1\n      pop\n        /* \"feg.sol\":17295:17459  function transfer(address recipient, uint256 amount) public override returns (bool) {... */\n      swap3\n      swap2\n      pop\n      pop\n      jump\t// out\n        /* \"feg.sol\":15948:15985  uint256 public constant _tTotal = 100 */\n    tag_154:\n        /* \"feg.sol\":15982:15985  100 */\n      0x64\n        /* \"feg.sol\":15948:15985  uint256 public constant _tTotal = 100 */\n      dup2\n      jump\t// out\n        /* \"feg.sol\":16371:16400  string public _symbol = 'FEG' */\n    tag_156:\n      0x0b\n      dup1\n      sload\n      0x01\n      dup2\n      0x01\n      and\n      iszero\n      0x0100\n      mul\n      sub\n      and\n      0x02\n      swap1\n      div\n      dup1\n      0x1f\n      add\n      0x20\n      dup1\n      swap2\n      div\n      mul\n      0x20\n      add\n      mload(0x40)\n      swap1\n      dup2\n      add\n      0x40\n      mstore\n      dup1\n      swap3\n      swap2\n      swap1\n      dup2\n      dup2\n      mstore\n      0x20\n      add\n      dup3\n      dup1\n      sload\n      0x01\n      dup2\n      0x01\n      and\n      iszero\n      0x0100\n      mul\n      sub\n      and\n      0x02\n      swap1\n      div\n      dup1\n      iszero\n      tag_335\n      jumpi\n      dup1\n      0x1f\n      lt\n      tag_336\n      jumpi\n      0x0100\n      dup1\n      dup4\n      sload\n      div\n      mul\n      dup4\n      mstore\n      swap2\n      0x20\n      add\n      swap2\n      jump(tag_335)\n    tag_336:\n      dup3\n      add\n      swap2\n      swap1\n      0x00\n      mstore\n      keccak256(0x00, 0x20)\n      swap1\n    tag_337:\n      dup2\n      sload\n      dup2\n      mstore\n      swap1\n      0x01\n      add\n      swap1\n      0x20\n      add\n      dup1\n      dup4\n      gt\n      tag_337\n      jumpi\n      dup3\n      swap1\n      sub\n      0x1f\n      and\n      dup3\n      add\n      swap2\n    tag_335:\n      pop\n      pop\n      pop\n      pop\n      pop\n      dup2\n      jump\t// out\n        /* \"feg.sol\":13926:13947  address public _owner */\n    tag_162:\n      0x00\n      dup1\n      sload\n      swap1\n      0x0100\n      exp\n      swap1\n      div\n      0xffffffffffffffffffffffffffffffffffffffff\n      and\n      dup2\n      jump\t// out\n        /* \"feg.sol\":24768:25096  function _getRValues(uint256 tAmount, uint256 tFee, uint256 currentRate) public pure returns (uint256, uint256, uint256) {... */\n    tag_165:\n        /* \"feg.sol\":24862:24869  uint256 */\n      0x00\n        /* \"feg.sol\":24871:24878  uint256 */\n      dup1\n        /* \"feg.sol\":24880:24887  uint256 */\n      0x00\n        /* \"feg.sol\":24899:24914  uint256 rAmount */\n      dup1\n        /* \"feg.sol\":24917:24941  tAmount.mul(currentRate) */\n      tag_339\n        /* \"feg.sol\":24929:24940  currentRate */\n      dup6\n        /* \"feg.sol\":24917:24924  tAmount */\n      dup9\n        /* \"feg.sol\":24917:24928  tAmount.mul */\n      tag_223\n      swap1\n        /* \"feg.sol\":24917:24941  tAmount.mul(currentRate) */\n      swap2\n      swap1\n      0xffffffff\n      and\n      jump\t// in\n    tag_339:\n        /* \"feg.sol\":24899:24941  uint256 rAmount = tAmount.mul(currentRate) */\n      swap1\n      pop\n        /* \"feg.sol\":24951:24963  uint256 rFee */\n      0x00\n        /* \"feg.sol\":24966:24987  tFee.mul(currentRate) */\n      tag_340\n        /* \"feg.sol\":24975:24986  currentRate */\n      dup7\n        /* \"feg.sol\":24966:24970  tFee */\n      dup9\n        /* \"feg.sol\":24966:24974  tFee.mul */\n      tag_223\n      swap1\n        /* \"feg.sol\":24966:24987  tFee.mul(currentRate) */\n      swap2\n      swap1\n      0xffffffff\n      and\n      jump\t// in\n    tag_340:\n        /* \"feg.sol\":24951:24987  uint256 rFee = tFee.mul(currentRate) */\n      swap1\n      pop\n        /* \"feg.sol\":24997:25020  uint256 rTransferAmount */\n      0x00\n        /* \"feg.sol\":25023:25040  rAmount.sub(rFee) */\n      tag_341\n        /* \"feg.sol\":25035:25039  rFee */\n      dup3\n        /* \"feg.sol\":25023:25030  rAmount */\n      dup5\n        /* \"feg.sol\":25023:25034  rAmount.sub */\n      tag_205\n      swap1\n        /* \"feg.sol\":25023:25040  rAmount.sub(rFee) */\n      swap2\n      swap1\n      0xffffffff\n      and\n      jump\t// in\n    tag_341:\n        /* \"feg.sol\":24997:25040  uint256 rTransferAmount = rAmount.sub(rFee) */\n      swap1\n      pop\n        /* \"feg.sol\":25058:25065  rAmount */\n      dup3\n        /* \"feg.sol\":25067:25082  rTransferAmount */\n      dup2\n        /* \"feg.sol\":25084:25088  rFee */\n      dup4\n        /* \"feg.sol\":25050:25089  return (rAmount, rTransferAmount, rFee) */\n      swap6\n      pop\n      swap6\n      pop\n      swap6\n      pop\n      pop\n      pop\n      pop\n        /* \"feg.sol\":24768:25096  function _getRValues(uint256 tAmount, uint256 tFee, uint256 currentRate) public pure returns (uint256, uint256, uint256) {... */\n      swap4\n      pop\n      swap4\n      pop\n      swap4\n      swap1\n      pop\n      jump\t// out\n        /* \"feg.sol\":22889:23390  function _transferFromExcluded(address sender, address recipient, uint256 tAmount) public {... */\n    tag_168:\n        /* \"feg.sol\":22990:23005  uint256 rAmount */\n      0x00\n        /* \"feg.sol\":23007:23030  uint256 rTransferAmount */\n      dup1\n        /* \"feg.sol\":23032:23044  uint256 rFee */\n      0x00\n        /* \"feg.sol\":23046:23069  uint256 tTransferAmount */\n      dup1\n        /* \"feg.sol\":23071:23083  uint256 tFee */\n      0x00\n        /* \"feg.sol\":23087:23106  _getValues(tAmount) */\n      tag_343\n        /* \"feg.sol\":23098:23105  tAmount */\n      dup7\n        /* \"feg.sol\":23087:23097  _getValues */\n      tag_182\n        /* \"feg.sol\":23087:23106  _getValues(tAmount) */\n      jump\t// in\n    tag_343:\n        /* \"feg.sol\":22989:23106  (uint256 rAmount, uint256 rTransferAmount, uint256 rFee, uint256 tTransferAmount, uint256 tFee) = _getValues(tAmount) */\n      swap5\n      pop\n      swap5\n      pop\n      swap5\n      pop\n      swap5\n      pop\n      swap5\n      pop\n        /* \"feg.sol\":23134:23162  _tOwned[sender].sub(tAmount) */\n      tag_344\n        /* \"feg.sol\":23154:23161  tAmount */\n      dup7\n        /* \"feg.sol\":23134:23141  _tOwned */\n      0x02\n        /* \"feg.sol\":23134:23149  _tOwned[sender] */\n      0x00\n        /* \"feg.sol\":23142:23148  sender */\n      dup12\n        /* \"feg.sol\":23134:23149  _tOwned[sender] */\n      0xffffffffffffffffffffffffffffffffffffffff\n      and\n      0xffffffffffffffffffffffffffffffffffffffff\n      and\n      dup2\n      mstore\n      0x20\n      add\n      swap1\n      dup2\n      mstore\n      0x20\n      add\n      0x00\n      keccak256\n      sload\n        /* \"feg.sol\":23134:23153  _tOwned[sender].sub */\n      tag_205\n      swap1\n        /* \"feg.sol\":23134:23162  _tOwned[sender].sub(tAmount) */\n      swap2\n      swap1\n      0xffffffff\n      and\n      jump\t// in\n    tag_344:\n        /* \"feg.sol\":23116:23123  _tOwned */\n      0x02\n        /* \"feg.sol\":23116:23131  _tOwned[sender] */\n      0x00\n        /* \"feg.sol\":23124:23130  sender */\n      dup11\n        /* \"feg.sol\":23116:23131  _tOwned[sender] */\n      0xffffffffffffffffffffffffffffffffffffffff\n      and\n      0xffffffffffffffffffffffffffffffffffffffff\n      and\n      dup2\n      mstore\n      0x20\n      add\n      swap1\n      dup2\n      mstore\n      0x20\n      add\n      0x00\n      keccak256\n        /* \"feg.sol\":23116:23162  _tOwned[sender] = _tOwned[sender].sub(tAmount) */\n      dup2\n      swap1\n      sstore\n      pop\n        /* \"feg.sol\":23190:23218  _rOwned[sender].sub(rAmount) */\n      tag_345\n        /* \"feg.sol\":23210:23217  rAmount */\n      dup6\n        /* \"feg.sol\":23190:23197  _rOwned */\n      0x01\n        /* \"feg.sol\":23190:23205  _rOwned[sender] */\n      0x00\n        /* \"feg.sol\":23198:23204  sender */\n      dup12\n        /* \"feg.sol\":23190:23205  _rOwned[sender] */\n      0xffffffffffffffffffffffffffffffffffffffff\n      and\n      0xffffffffffffffffffffffffffffffffffffffff\n      and\n      dup2\n      mstore\n      0x20\n      add\n      swap1\n      dup2\n      mstore\n      0x20\n      add\n      0x00\n      keccak256\n      sload\n        /* \"feg.sol\":23190:23209  _rOwned[sender].sub */\n      tag_205\n      swap1\n        /* \"feg.sol\":23190:23218  _rOwned[sender].sub(rAmount) */\n      swap2\n      swap1\n      0xffffffff\n      and\n      jump\t// in\n    tag_345:\n        /* \"feg.sol\":23172:23179  _rOwned */\n      0x01\n        /* \"feg.sol\":23172:23187  _rOwned[sender] */\n      0x00\n        /* \"feg.sol\":23180:23186  sender */\n      dup11\n        /* \"feg.sol\":23172:23187  _rOwned[sender] */\n      0xffffffffffffffffffffffffffffffffffffffff\n      and\n      0xffffffffffffffffffffffffffffffffffffffff\n      and\n      dup2\n      mstore\n      0x20\n      add\n      swap1\n      dup2\n      mstore\n      0x20\n      add\n      0x00\n      keccak256\n        /* \"feg.sol\":23172:23218  _rOwned[sender] = _rOwned[sender].sub(rAmount) */\n      dup2\n      swap1\n      sstore\n      pop\n        /* \"feg.sol\":23249:23288  _rOwned[recipient].add(rTransferAmount) */\n      tag_346\n        /* \"feg.sol\":23272:23287  rTransferAmount */\n      dup5\n        /* \"feg.sol\":23249:23256  _rOwned */\n      0x01\n        /* \"feg.sol\":23249:23267  _rOwned[recipient] */\n      0x00\n        /* \"feg.sol\":23257:23266  recipient */\n      dup11\n        /* \"feg.sol\":23249:23267  _rOwned[recipient] */\n      0xffffffffffffffffffffffffffffffffffffffff\n      and\n      0xffffffffffffffffffffffffffffffffffffffff\n      and\n      dup2\n      mstore\n      0x20\n      add\n      swap1\n      dup2\n      mstore\n      0x20\n      add\n      0x00\n      keccak256\n      sload\n        /* \"feg.sol\":23249:23271  _rOwned[recipient].add */\n      tag_208\n      swap1\n        /* \"feg.sol\":23249:23288  _rOwned[recipient].add(rTransferAmount) */\n      swap2\n      swap1\n      0xffffffff\n      and\n      jump\t// in\n    tag_346:\n        /* \"feg.sol\":23228:23235  _rOwned */\n      0x01\n        /* \"feg.sol\":23228:23246  _rOwned[recipient] */\n      0x00\n        /* \"feg.sol\":23236:23245  recipient */\n      dup10\n        /* \"feg.sol\":23228:23246  _rOwned[recipient] */\n      0xffffffffffffffffffffffffffffffffffffffff\n      and\n      0xffffffffffffffffffffffffffffffffffffffff\n      and\n      dup2\n      mstore\n      0x20\n      add\n      swap1\n      dup2\n      mstore\n      0x20\n      add\n      0x00\n      keccak256\n        /* \"feg.sol\":23228:23288  _rOwned[recipient] = _rOwned[recipient].add(rTransferAmount) */\n      dup2\n      swap1\n      sstore\n      pop\n        /* \"feg.sol\":23301:23324  _reflectFee(rFee, tFee) */\n      tag_347\n        /* \"feg.sol\":23313:23317  rFee */\n      dup4\n        /* \"feg.sol\":23319:23323  tFee */\n      dup3\n        /* \"feg.sol\":23301:23312  _reflectFee */\n      tag_94\n        /* \"feg.sol\":23301:23324  _reflectFee(rFee, tFee) */\n      jump\t// in\n    tag_347:\n        /* \"feg.sol\":23356:23365  recipient */\n      dup7\n        /* \"feg.sol\":23339:23383  Transfer(sender, recipient, tTransferAmount) */\n      0xffffffffffffffffffffffffffffffffffffffff\n      and\n        /* \"feg.sol\":23348:23354  sender */\n      dup9\n        /* \"feg.sol\":23339:23383  Transfer(sender, recipient, tTransferAmount) */\n      0xffffffffffffffffffffffffffffffffffffffff\n      and\n      0xddf252ad1be2c89b69c2b068fc378daa952ba7f163c4a11628f55a4df523b3ef\n        /* \"feg.sol\":23367:23382  tTransferAmount */\n      dup5\n        /* \"feg.sol\":23339:23383  Transfer(sender, recipient, tTransferAmount) */\n      mload(0x40)\n      dup1\n      dup3\n      dup2\n      mstore\n      0x20\n      add\n      swap2\n      pop\n      pop\n      mload(0x40)\n      dup1\n      swap2\n      sub\n      swap1\n      log3\n        /* \"feg.sol\":22889:23390  function _transferFromExcluded(address sender, address recipient, uint256 tAmount) public {... */\n      pop\n      pop\n      pop\n      pop\n      pop\n      pop\n      pop\n      pop\n      jump\t// out\n        /* \"feg.sol\":16914:17088  function workingSupply() public view returns(uint256){... */\n    tag_170:\n        /* \"feg.sol\":16959:16966  uint256 */\n      0x00\n        /* \"feg.sol\":16977:16989  uint256 temp */\n      dup1\n        /* \"feg.sol\":17002:17039  reflectionFromToken(_tFeeTotal,false) */\n      tag_349\n        /* \"feg.sol\":17022:17032  _tFeeTotal */\n      sload(0x09)\n        /* \"feg.sol\":17033:17038  false */\n      0x00\n        /* \"feg.sol\":17002:17021  reflectionFromToken */\n      tag_119\n        /* \"feg.sol\":17002:17039  reflectionFromToken(_tFeeTotal,false) */\n      jump\t// in\n    tag_349:\n        /* \"feg.sol\":16992:16999  _rTotal */\n      sload(0x08)\n        /* \"feg.sol\":16992:17039  _rTotal - reflectionFromToken(_tFeeTotal,false) */\n      sub\n        /* \"feg.sol\":16977:17039  uint256 temp = _rTotal - reflectionFromToken(_tFeeTotal,false) */\n      swap1\n      pop\n        /* \"feg.sol\":17056:17081  tokenFromReflection(temp) */\n      tag_350\n        /* \"feg.sol\":17076:17080  temp */\n      dup2\n        /* \"feg.sol\":17056:17075  tokenFromReflection */\n      tag_103\n        /* \"feg.sol\":17056:17081  tokenFromReflection(temp) */\n      jump\t// in\n    tag_350:\n        /* \"feg.sol\":17049:17081  return tokenFromReflection(temp) */\n      swap2\n      pop\n      pop\n        /* \"feg.sol\":16914:17088  function workingSupply() public view returns(uint256){... */\n      swap1\n      jump\t// out\n        /* \"feg.sol\":18584:18692  function isExcluded(address account) public view returns (bool) {... */\n    tag_173:\n        /* \"feg.sol\":18642:18646  bool */\n      0x00\n        /* \"feg.sol\":18665:18676  _isExcluded */\n      0x04\n        /* \"feg.sol\":18665:18685  _isExcluded[account] */\n      0x00\n        /* \"feg.sol\":18677:18684  account */\n      dup4\n        /* \"feg.sol\":18665:18685  _isExcluded[account] */\n      0xffffffffffffffffffffffffffffffffffffffff\n      and\n      0xffffffffffffffffffffffffffffffffffffffff\n      and\n      dup2\n      mstore\n      0x20\n      add\n      swap1\n      dup2\n      mstore\n      0x20\n      add\n      0x00\n      keccak256\n      0x00\n      swap1\n      sload\n      swap1\n      0x0100\n      exp\n      swap1\n      div\n      0xff\n      and\n        /* \"feg.sol\":18658:18685  return _isExcluded[account] */\n      swap1\n      pop\n        /* \"feg.sol\":18584:18692  function isExcluded(address account) public view returns (bool) {... */\n      swap2\n      swap1\n      pop\n      jump\t// out\n        /* \"feg.sol\":16333:16365  string public _name = 'FEGtoken' */\n    tag_175:\n      0x0a\n      dup1\n      sload\n      0x01\n      dup2\n      0x01\n      and\n      iszero\n      0x0100\n      mul\n      sub\n      and\n      0x02\n      swap1\n      div\n      dup1\n      0x1f\n      add\n      0x20\n      dup1\n      swap2\n      div\n      mul\n      0x20\n      add\n      mload(0x40)\n      swap1\n      dup2\n      add\n      0x40\n      mstore\n      dup1\n      swap3\n      swap2\n      swap1\n      dup2\n      dup2\n      mstore\n      0x20\n      add\n      dup3\n      dup1\n      sload\n      0x01\n      dup2\n      0x01\n      and\n      iszero\n      0x0100\n      mul\n      sub\n      and\n      0x02\n      swap1\n      div\n      dup1\n      iszero\n      tag_352\n      jumpi\n      dup1\n      0x1f\n      lt\n      tag_353\n      jumpi\n      0x0100\n      dup1\n      dup4\n      sload\n      div\n      mul\n      dup4\n      mstore\n      swap2\n      0x20\n      add\n      swap2\n      jump(tag_352)\n    tag_353:\n      dup3\n      add\n      swap2\n      swap1\n      0x00\n      mstore\n      keccak256(0x00, 0x20)\n      swap1\n    tag_354:\n      dup2\n      sload\n      dup2\n      mstore\n      swap1\n      0x01\n      add\n      swap1\n      0x20\n      add\n      dup1\n      dup4\n      gt\n      tag_354\n      jumpi\n      dup3\n      swap1\n      sub\n      0x1f\n      and\n      dup3\n      add\n      swap2\n    tag_352:\n      pop\n      pop\n      pop\n      pop\n      pop\n      dup2\n      jump\t// out\n        /* \"feg.sol\":24127:24532  function _getValues(uint256 tAmount) public view returns (uint256, uint256, uint256, uint256, uint256) {... */\n    tag_182:\n        /* \"feg.sol\":24185:24192  uint256 */\n      0x00\n        /* \"feg.sol\":24194:24201  uint256 */\n      dup1\n        /* \"feg.sol\":24203:24210  uint256 */\n      0x00\n        /* \"feg.sol\":24212:24219  uint256 */\n      dup1\n        /* \"feg.sol\":24221:24228  uint256 */\n      0x00\n        /* \"feg.sol\":24241:24264  uint256 tTransferAmount */\n      dup1\n        /* \"feg.sol\":24266:24278  uint256 tFee */\n      0x00\n        /* \"feg.sol\":24282:24302  _getTValues(tAmount) */\n      tag_356\n        /* \"feg.sol\":24294:24301  tAmount */\n      dup9\n        /* \"feg.sol\":24282:24293  _getTValues */\n      tag_84\n        /* \"feg.sol\":24282:24302  _getTValues(tAmount) */\n      jump\t// in\n    tag_356:\n        /* \"feg.sol\":24240:24302  (uint256 tTransferAmount, uint256 tFee) = _getTValues(tAmount) */\n      swap2\n      pop\n      swap2\n      pop\n        /* \"feg.sol\":24312:24331  uint256 currentRate */\n      0x00\n        /* \"feg.sol\":24335:24345  _getRate() */\n      tag_357\n        /* \"feg.sol\":24335:24343  _getRate */\n      tag_138\n        /* \"feg.sol\":24335:24345  _getRate() */\n      jump\t// in\n    tag_357:\n        /* \"feg.sol\":24312:24345  uint256 currentRate =  _getRate() */\n      swap1\n      pop\n        /* \"feg.sol\":24356:24371  uint256 rAmount */\n      0x00\n        /* \"feg.sol\":24373:24396  uint256 rTransferAmount */\n      dup1\n        /* \"feg.sol\":24398:24410  uint256 rFee */\n      0x00\n        /* \"feg.sol\":24414:24453  _getRValues(tAmount, tFee, currentRate) */\n      tag_358\n        /* \"feg.sol\":24426:24433  tAmount */\n      dup13\n        /* \"feg.sol\":24435:24439  tFee */\n      dup7\n        /* \"feg.sol\":24441:24452  currentRate */\n      dup7\n        /* \"feg.sol\":24414:24425  _getRValues */\n      tag_165\n        /* \"feg.sol\":24414:24453  _getRValues(tAmount, tFee, currentRate) */\n      jump\t// in\n    tag_358:\n        /* \"feg.sol\":24355:24453  (uint256 rAmount, uint256 rTransferAmount, uint256 rFee) = _getRValues(tAmount, tFee, currentRate) */\n      swap3\n      pop\n      swap3\n      pop\n      swap3\n      pop\n        /* \"feg.sol\":24471:24478  rAmount */\n      dup3\n        /* \"feg.sol\":24480:24495  rTransferAmount */\n      dup3\n        /* \"feg.sol\":24497:24501  rFee */\n      dup3\n        /* \"feg.sol\":24503:24518  tTransferAmount */\n      dup9\n        /* \"feg.sol\":24520:24524  tFee */\n      dup9\n        /* \"feg.sol\":24463:24525  return (rAmount, rTransferAmount, rFee, tTransferAmount, tFee) */\n      swap11\n      pop\n      swap11\n      pop\n      swap11\n      pop\n      swap11\n      pop\n      swap11\n      pop\n      pop\n      pop\n      pop\n      pop\n      pop\n      pop\n        /* \"feg.sol\":24127:24532  function _getValues(uint256 tAmount) public view returns (uint256, uint256, uint256, uint256, uint256) {... */\n      swap2\n      swap4\n      swap6\n      swap1\n      swap3\n      swap5\n      pop\n      jump\t// out\n        /* \"feg.sol\":15908:15942  uint256 public constant MAX = 1000 */\n    tag_184:\n        /* \"feg.sol\":15938:15942  1000 */\n      0x03e8\n        /* \"feg.sol\":15908:15942  uint256 public constant MAX = 1000 */\n      dup2\n      jump\t// out\n        /* \"feg.sol\":17465:17606  function allowance(address owner, address spender) public view override returns (uint256) {... */\n    tag_187:\n        /* \"feg.sol\":17546:17553  uint256 */\n      0x00\n        /* \"feg.sol\":17572:17583  _allowances */\n      0x03\n        /* \"feg.sol\":17572:17590  _allowances[owner] */\n      0x00\n        /* \"feg.sol\":17584:17589  owner */\n      dup5\n        /* \"feg.sol\":17572:17590  _allowances[owner] */\n      0xffffffffffffffffffffffffffffffffffffffff\n      and\n      0xffffffffffffffffffffffffffffffffffffffff\n      and\n      dup2\n      mstore\n      0x20\n      add\n      swap1\n      dup2\n      mstore\n      0x20\n      add\n      0x00\n      keccak256\n        /* \"feg.sol\":17572:17599  _allowances[owner][spender] */\n      0x00\n        /* \"feg.sol\":17591:17598  spender */\n      dup4\n        /* \"feg.sol\":17572:17599  _allowances[owner][spender] */\n      0xffffffffffffffffffffffffffffffffffffffff\n      and\n      0xffffffffffffffffffffffffffffffffffffffff\n      and\n      dup2\n      mstore\n      0x20\n      add\n      swap1\n      dup2\n      mstore\n      0x20\n      add\n      0x00\n      keccak256\n      sload\n        /* \"feg.sol\":17565:17599  return _allowances[owner][spender] */\n      swap1\n      pop\n        /* \"feg.sol\":17465:17606  function allowance(address owner, address spender) public view override returns (uint256) {... */\n      swap3\n      swap2\n      pop\n      pop\n      jump\t// out\n        /* \"feg.sol\":19850:20175  function excludeAccount(address account) external onlyOwner() {... */\n    tag_190:\n        /* \"feg.sol\":14589:14601  _msgSender() */\n      tag_361\n        /* \"feg.sol\":14589:14599  _msgSender */\n      tag_201\n        /* \"feg.sol\":14589:14601  _msgSender() */\n      jump\t// in\n    tag_361:\n        /* \"feg.sol\":14579:14601  _owner == _msgSender() */\n      0xffffffffffffffffffffffffffffffffffffffff\n      and\n        /* \"feg.sol\":14579:14585  _owner */\n      0x00\n      dup1\n      sload\n      swap1\n      0x0100\n      exp\n      swap1\n      div\n      0xffffffffffffffffffffffffffffffffffffffff\n      and\n        /* \"feg.sol\":14579:14601  _owner == _msgSender() */\n      0xffffffffffffffffffffffffffffffffffffffff\n      and\n      eq\n        /* \"feg.sol\":14571:14638  require(_owner == _msgSender(), \"Ownable: caller is not the owner\") */\n      tag_362\n      jumpi\n      mload(0x40)\n      0x08c379a000000000000000000000000000000000000000000000000000000000\n      dup2\n      mstore\n      0x04\n      add\n      dup1\n      dup1\n      0x20\n      add\n      dup3\n      dup2\n      sub\n      dup3\n      mstore\n      0x20\n      dup2\n      mstore\n      0x20\n      add\n      dup1\n      0x4f776e61626c653a2063616c6c6572206973206e6f7420746865206f776e6572\n      dup2\n      mstore\n      pop\n      0x20\n      add\n      swap2\n      pop\n      pop\n      mload(0x40)\n      dup1\n      swap2\n      sub\n      swap1\n      revert\n    tag_362:\n        /* \"feg.sol\":19931:19942  _isExcluded */\n      0x04\n        /* \"feg.sol\":19931:19951  _isExcluded[account] */\n      0x00\n        /* \"feg.sol\":19943:19950  account */\n      dup3\n        /* \"feg.sol\":19931:19951  _isExcluded[account] */\n      0xffffffffffffffffffffffffffffffffffffffff\n      and\n      0xffffffffffffffffffffffffffffffffffffffff\n      and\n      dup2\n      mstore\n      0x20\n      add\n      swap1\n      dup2\n      mstore\n      0x20\n      add\n      0x00\n      keccak256\n      0x00\n      swap1\n      sload\n      swap1\n      0x0100\n      exp\n      swap1\n      div\n      0xff\n      and\n        /* \"feg.sol\":19930:19951  !_isExcluded[account] */\n      iszero\n        /* \"feg.sol\":19922:19983  require(!_isExcluded[account], \"Account is already excluded\") */\n      tag_364\n      jumpi\n      mload(0x40)\n      0x08c379a000000000000000000000000000000000000000000000000000000000\n      dup2\n      mstore\n      0x04\n      add\n      dup1\n      dup1\n      0x20\n      add\n      dup3\n      dup2\n      sub\n      dup3\n      mstore\n      0x1b\n      dup2\n      mstore\n      0x20\n      add\n      dup1\n      0x4163636f756e7420697320616c7265616479206578636c756465640000000000\n      dup2\n      mstore\n      pop\n      0x20\n      add\n      swap2\n      pop\n      pop\n      mload(0x40)\n      dup1\n      swap2\n      sub\n      swap1\n      revert\n    tag_364:\n        /* \"feg.sol\":20015:20016  0 */\n      0x00\n        /* \"feg.sol\":19996:20003  _rOwned */\n      0x01\n        /* \"feg.sol\":19996:20012  _rOwned[account] */\n      0x00\n        /* \"feg.sol\":20004:20011  account */\n      dup4\n        /* \"feg.sol\":19996:20012  _rOwned[account] */\n      0xffffffffffffffffffffffffffffffffffffffff\n      and\n      0xffffffffffffffffffffffffffffffffffffffff\n      and\n      dup2\n      mstore\n      0x20\n      add\n      swap1\n      dup2\n      mstore\n      0x20\n      add\n      0x00\n      keccak256\n      sload\n        /* \"feg.sol\":19996:20016  _rOwned[account] > 0 */\n      gt\n        /* \"feg.sol\":19993:20099  if(_rOwned[account] > 0) {... */\n      iszero\n      tag_365\n      jumpi\n        /* \"feg.sol\":20051:20088  tokenFromReflection(_rOwned[account]) */\n      tag_366\n        /* \"feg.sol\":20071:20078  _rOwned */\n      0x01\n        /* \"feg.sol\":20071:20087  _rOwned[account] */\n      0x00\n        /* \"feg.sol\":20079:20086  account */\n      dup4\n        /* \"feg.sol\":20071:20087  _rOwned[account] */\n      0xffffffffffffffffffffffffffffffffffffffff\n      and\n      0xffffffffffffffffffffffffffffffffffffffff\n      and\n      dup2\n      mstore\n      0x20\n      add\n      swap1\n      dup2\n      mstore\n      0x20\n      add\n      0x00\n      keccak256\n      sload\n        /* \"feg.sol\":20051:20070  tokenFromReflection */\n      tag_103\n        /* \"feg.sol\":20051:20088  tokenFromReflection(_rOwned[account]) */\n      jump\t// in\n    tag_366:\n        /* \"feg.sol\":20032:20039  _tOwned */\n      0x02\n        /* \"feg.sol\":20032:20048  _tOwned[account] */\n      0x00\n        /* \"feg.sol\":20040:20047  account */\n      dup4\n        /* \"feg.sol\":20032:20048  _tOwned[account] */\n      0xffffffffffffffffffffffffffffffffffffffff\n      and\n      0xffffffffffffffffffffffffffffffffffffffff\n      and\n      dup2\n      mstore\n      0x20\n      add\n      swap1\n      dup2\n      mstore\n      0x20\n      add\n      0x00\n      keccak256\n        /* \"feg.sol\":20032:20088  _tOwned[account] = tokenFromReflection(_rOwned[account]) */\n      dup2\n      swap1\n      sstore\n      pop\n        /* \"feg.sol\":19993:20099  if(_rOwned[account] > 0) {... */\n    tag_365:\n        /* \"feg.sol\":20131:20135  true */\n      0x01\n        /* \"feg.sol\":20108:20119  _isExcluded */\n      0x04\n        /* \"feg.sol\":20108:20128  _isExcluded[account] */\n      0x00\n        /* \"feg.sol\":20120:20127  account */\n      dup4\n        /* \"feg.sol\":20108:20128  _isExcluded[account] */\n      0xffffffffffffffffffffffffffffffffffffffff\n      and\n      0xffffffffffffffffffffffffffffffffffffffff\n      and\n      dup2\n      mstore\n      0x20\n      add\n      swap1\n      dup2\n      mstore\n      0x20\n      add\n      0x00\n      keccak256\n      0x00\n        /* \"feg.sol\":20108:20135  _isExcluded[account] = true */\n      0x0100\n      exp\n      dup2\n      sload\n      dup2\n      0xff\n      mul\n      not\n      and\n      swap1\n      dup4\n      iszero\n      iszero\n      mul\n      or\n      swap1\n      sstore\n      pop\n        /* \"feg.sol\":20145:20154  _excluded */\n      0x05\n        /* \"feg.sol\":20160:20167  account */\n      dup2\n        /* \"feg.sol\":20145:20168  _excluded.push(account) */\n      swap1\n      dup1\n      0x01\n      dup2\n      sload\n      add\n      dup1\n      dup3\n      sstore\n      dup1\n      swap2\n      pop\n      pop\n      0x01\n      swap1\n      sub\n      swap1\n      0x00\n      mstore\n      keccak256(0x00, 0x20)\n      add\n      0x00\n      swap1\n      swap2\n      swap1\n      swap2\n      swap1\n      swap2\n      0x0100\n      exp\n      dup2\n      sload\n      dup2\n      0xffffffffffffffffffffffffffffffffffffffff\n      mul\n      not\n      and\n      swap1\n      dup4\n      0xffffffffffffffffffffffffffffffffffffffff\n      and\n      mul\n      or\n      swap1\n      sstore\n      pop\n        /* \"feg.sol\":19850:20175  function excludeAccount(address account) external onlyOwner() {... */\n      pop\n      jump\t// out\n        /* \"feg.sol\":15292:15532  function transferOwnership(address newOwner) public virtual onlyOwner {... */\n    tag_193:\n        /* \"feg.sol\":14589:14601  _msgSender() */\n      tag_369\n        /* \"feg.sol\":14589:14599  _msgSender */\n      tag_201\n        /* \"feg.sol\":14589:14601  _msgSender() */\n      jump\t// in\n    tag_369:\n        /* \"feg.sol\":14579:14601  _owner == _msgSender() */\n      0xffffffffffffffffffffffffffffffffffffffff\n      and\n        /* \"feg.sol\":14579:14585  _owner */\n      0x00\n      dup1\n      sload\n      swap1\n      0x0100\n      exp\n      swap1\n      div\n      0xffffffffffffffffffffffffffffffffffffffff\n      and\n        /* \"feg.sol\":14579:14601  _owner == _msgSender() */\n      0xffffffffffffffffffffffffffffffffffffffff\n      and\n      eq\n        /* \"feg.sol\":14571:14638  require(_owner == _msgSender(), \"Ownable: caller is not the owner\") */\n      tag_370\n      jumpi\n      mload(0x40)\n      0x08c379a000000000000000000000000000000000000000000000000000000000\n      dup2\n      mstore\n      0x04\n      add\n      dup1\n      dup1\n      0x20\n      add\n      dup3\n      dup2\n      sub\n      dup3\n      mstore\n      0x20\n      dup2\n      mstore\n      0x20\n      add\n      dup1\n      0x4f776e61626c653a2063616c6c6572206973206e6f7420746865206f776e6572\n      dup2\n      mstore\n      pop\n      0x20\n      add\n      swap2\n      pop\n      pop\n      mload(0x40)\n      dup1\n      swap2\n      sub\n      swap1\n      revert\n    tag_370:\n        /* \"feg.sol\":15400:15401  0 */\n      0x00\n        /* \"feg.sol\":15380:15402  newOwner != address(0) */\n      0xffffffffffffffffffffffffffffffffffffffff\n      and\n        /* \"feg.sol\":15380:15388  newOwner */\n      dup2\n        /* \"feg.sol\":15380:15402  newOwner != address(0) */\n      0xffffffffffffffffffffffffffffffffffffffff\n      and\n      eq\n      iszero\n        /* \"feg.sol\":15372:15445  require(newOwner != address(0), \"Ownable: new owner is the zero address\") */\n      tag_372\n      jumpi\n      mload(0x40)\n      0x08c379a000000000000000000000000000000000000000000000000000000000\n      dup2\n      mstore\n      0x04\n      add\n      dup1\n      dup1\n      0x20\n      add\n      dup3\n      dup2\n      sub\n      dup3\n      mstore\n      0x26\n      dup2\n      mstore\n      0x20\n      add\n      dup1\n      data_245f15ff17f551913a7a18385165551503906a406f905ac1c2437281a7cd0cfe\n      0x26\n      swap2\n      codecopy\n      0x40\n      add\n      swap2\n      pop\n      pop\n      mload(0x40)\n      dup1\n      swap2\n      sub\n      swap1\n      revert\n    tag_372:\n        /* \"feg.sol\":15489:15497  newOwner */\n      dup1\n        /* \"feg.sol\":15460:15498  OwnershipTransferred(_owner, newOwner) */\n      0xffffffffffffffffffffffffffffffffffffffff\n      and\n        /* \"feg.sol\":15481:15487  _owner */\n      0x00\n      dup1\n      sload\n      swap1\n      0x0100\n      exp\n      swap1\n      div\n      0xffffffffffffffffffffffffffffffffffffffff\n      and\n        /* \"feg.sol\":15460:15498  OwnershipTransferred(_owner, newOwner) */\n      0xffffffffffffffffffffffffffffffffffffffff\n      and\n      0x8be0079c531659141344cd1fd0a4f28419497f9722a3daafe3b4186f6b6457e0\n      mload(0x40)\n      mload(0x40)\n      dup1\n      swap2\n      sub\n      swap1\n      log3\n        /* \"feg.sol\":15517:15525  newOwner */\n      dup1\n        /* \"feg.sol\":15508:15514  _owner */\n      0x00\n      dup1\n        /* \"feg.sol\":15508:15525  _owner = newOwner */\n      0x0100\n      exp\n      dup2\n      sload\n      dup2\n      0xffffffffffffffffffffffffffffffffffffffff\n      mul\n      not\n      and\n      swap1\n      dup4\n      0xffffffffffffffffffffffffffffffffffffffff\n      and\n      mul\n      or\n      swap1\n      sstore\n      pop\n        /* \"feg.sol\":15292:15532  function transferOwnership(address newOwner) public virtual onlyOwner {... */\n      pop\n      jump\t// out\n        /* \"feg.sol\":20181:20648  function includeAccount(address account) external onlyOwner() {... */\n    tag_196:\n        /* \"feg.sol\":14589:14601  _msgSender() */\n      tag_374\n        /* \"feg.sol\":14589:14599  _msgSender */\n      tag_201\n        /* \"feg.sol\":14589:14601  _msgSender() */\n      jump\t// in\n    tag_374:\n        /* \"feg.sol\":14579:14601  _owner == _msgSender() */\n      0xffffffffffffffffffffffffffffffffffffffff\n      and\n        /* \"feg.sol\":14579:14585  _owner */\n      0x00\n      dup1\n      sload\n      swap1\n      0x0100\n      exp\n      swap1\n      div\n      0xffffffffffffffffffffffffffffffffffffffff\n      and\n        /* \"feg.sol\":14579:14601  _owner == _msgSender() */\n      0xffffffffffffffffffffffffffffffffffffffff\n      and\n      eq\n        /* \"feg.sol\":14571:14638  require(_owner == _msgSender(), \"Ownable: caller is not the owner\") */\n      tag_375\n      jumpi\n      mload(0x40)\n      0x08c379a000000000000000000000000000000000000000000000000000000000\n      dup2\n      mstore\n      0x04\n      add\n      dup1\n      dup1\n      0x20\n      add\n      dup3\n      dup2\n      sub\n      dup3\n      mstore\n      0x20\n      dup2\n      mstore\n      0x20\n      add\n      dup1\n      0x4f776e61626c653a2063616c6c6572206973206e6f7420746865206f776e6572\n      dup2\n      mstore\n      pop\n      0x20\n      add\n      swap2\n      pop\n      pop\n      mload(0x40)\n      dup1\n      swap2\n      sub\n      swap1\n      revert\n    tag_375:\n        /* \"feg.sol\":20261:20272  _isExcluded */\n      0x04\n        /* \"feg.sol\":20261:20281  _isExcluded[account] */\n      0x00\n        /* \"feg.sol\":20273:20280  account */\n      dup3\n        /* \"feg.sol\":20261:20281  _isExcluded[account] */\n      0xffffffffffffffffffffffffffffffffffffffff\n      and\n      0xffffffffffffffffffffffffffffffffffffffff\n      and\n      dup2\n      mstore\n      0x20\n      add\n      swap1\n      dup2\n      mstore\n      0x20\n      add\n      0x00\n      keccak256\n      0x00\n      swap1\n      sload\n      swap1\n      0x0100\n      exp\n      swap1\n      div\n      0xff\n      and\n        /* \"feg.sol\":20253:20313  require(_isExcluded[account], \"Account is already excluded\") */\n      tag_377\n      jumpi\n      mload(0x40)\n      0x08c379a000000000000000000000000000000000000000000000000000000000\n      dup2\n      mstore\n      0x04\n      add\n      dup1\n      dup1\n      0x20\n      add\n      dup3\n      dup2\n      sub\n      dup3\n      mstore\n      0x1b\n      dup2\n      mstore\n      0x20\n      add\n      dup1\n      0x4163636f756e7420697320616c7265616479206578636c756465640000000000\n      dup2\n      mstore\n      pop\n      0x20\n      add\n      swap2\n      pop\n      pop\n      mload(0x40)\n      dup1\n      swap2\n      sub\n      swap1\n      revert\n    tag_377:\n        /* \"feg.sol\":20328:20337  uint256 i */\n      0x00\n        /* \"feg.sol\":20323:20642  for (uint256 i = 0; i < _excluded.length; i++) {... */\n    tag_378:\n        /* \"feg.sol\":20347:20356  _excluded */\n      0x05\n        /* \"feg.sol\":20347:20363  _excluded.length */\n      dup1\n      sload\n      swap1\n      pop\n        /* \"feg.sol\":20343:20344  i */\n      dup2\n        /* \"feg.sol\":20343:20363  i < _excluded.length */\n      lt\n        /* \"feg.sol\":20323:20642  for (uint256 i = 0; i < _excluded.length; i++) {... */\n      iszero\n      tag_379\n      jumpi\n        /* \"feg.sol\":20404:20411  account */\n      dup2\n        /* \"feg.sol\":20388:20411  _excluded[i] == account */\n      0xffffffffffffffffffffffffffffffffffffffff\n      and\n        /* \"feg.sol\":20388:20397  _excluded */\n      0x05\n        /* \"feg.sol\":20398:20399  i */\n      dup3\n        /* \"feg.sol\":20388:20400  _excluded[i] */\n      dup2\n      sload\n      dup2\n      lt\n      tag_381\n      jumpi\n      invalid\n    tag_381:\n      swap1\n      0x00\n      mstore\n      keccak256(0x00, 0x20)\n      add\n      0x00\n      swap1\n      sload\n      swap1\n      0x0100\n      exp\n      swap1\n      div\n      0xffffffffffffffffffffffffffffffffffffffff\n      and\n        /* \"feg.sol\":20388:20411  _excluded[i] == account */\n      0xffffffffffffffffffffffffffffffffffffffff\n      and\n      eq\n        /* \"feg.sol\":20384:20632  if (_excluded[i] == account) {... */\n      iszero\n      tag_383\n      jumpi\n        /* \"feg.sol\":20446:20455  _excluded */\n      0x05\n        /* \"feg.sol\":20475:20476  1 */\n      0x01\n        /* \"feg.sol\":20456:20465  _excluded */\n      0x05\n        /* \"feg.sol\":20456:20472  _excluded.length */\n      dup1\n      sload\n      swap1\n      pop\n        /* \"feg.sol\":20456:20476  _excluded.length - 1 */\n      sub\n        /* \"feg.sol\":20446:20477  _excluded[_excluded.length - 1] */\n      dup2\n      sload\n      dup2\n      lt\n      tag_384\n      jumpi\n      invalid\n    tag_384:\n      swap1\n      0x00\n      mstore\n      keccak256(0x00, 0x20)\n      add\n      0x00\n      swap1\n      sload\n      swap1\n      0x0100\n      exp\n      swap1\n      div\n      0xffffffffffffffffffffffffffffffffffffffff\n      and\n        /* \"feg.sol\":20431:20440  _excluded */\n      0x05\n        /* \"feg.sol\":20441:20442  i */\n      dup3\n        /* \"feg.sol\":20431:20443  _excluded[i] */\n      dup2\n      sload\n      dup2\n      lt\n      tag_386\n      jumpi\n      invalid\n    tag_386:\n      swap1\n      0x00\n      mstore\n      keccak256(0x00, 0x20)\n      add\n      0x00\n        /* \"feg.sol\":20431:20477  _excluded[i] = _excluded[_excluded.length - 1] */\n      0x0100\n      exp\n      dup2\n      sload\n      dup2\n      0xffffffffffffffffffffffffffffffffffffffff\n      mul\n      not\n      and\n      swap1\n      dup4\n      0xffffffffffffffffffffffffffffffffffffffff\n      and\n      mul\n      or\n      swap1\n      sstore\n      pop\n        /* \"feg.sol\":20514:20515  0 */\n      0x00\n        /* \"feg.sol\":20495:20502  _tOwned */\n      0x02\n        /* \"feg.sol\":20495:20511  _tOwned[account] */\n      0x00\n        /* \"feg.sol\":20503:20510  account */\n      dup5\n        /* \"feg.sol\":20495:20511  _tOwned[account] */\n      0xffffffffffffffffffffffffffffffffffffffff\n      and\n      0xffffffffffffffffffffffffffffffffffffffff\n      and\n      dup2\n      mstore\n      0x20\n      add\n      swap1\n      dup2\n      mstore\n      0x20\n      add\n      0x00\n      keccak256\n        /* \"feg.sol\":20495:20515  _tOwned[account] = 0 */\n      dup2\n      swap1\n      sstore\n      pop\n        /* \"feg.sol\":20556:20561  false */\n      0x00\n        /* \"feg.sol\":20533:20544  _isExcluded */\n      0x04\n        /* \"feg.sol\":20533:20553  _isExcluded[account] */\n      0x00\n        /* \"feg.sol\":20545:20552  account */\n      dup5\n        /* \"feg.sol\":20533:20553  _isExcluded[account] */\n      0xffffffffffffffffffffffffffffffffffffffff\n      and\n      0xffffffffffffffffffffffffffffffffffffffff\n      and\n      dup2\n      mstore\n      0x20\n      add\n      swap1\n      dup2\n      mstore\n      0x20\n      add\n      0x00\n      keccak256\n      0x00\n        /* \"feg.sol\":20533:20561  _isExcluded[account] = false */\n      0x0100\n      exp\n      dup2\n      sload\n      dup2\n      0xff\n      mul\n      not\n      and\n      swap1\n      dup4\n      iszero\n      iszero\n      mul\n      or\n      swap1\n      sstore\n      pop\n        /* \"feg.sol\":20579:20588  _excluded */\n      0x05\n        /* \"feg.sol\":20579:20594  _excluded.pop() */\n      dup1\n      sload\n      dup1\n      tag_388\n      jumpi\n      invalid\n    tag_388:\n      0x01\n      swap1\n      sub\n      dup2\n      dup2\n      swap1\n      0x00\n      mstore\n      keccak256(0x00, 0x20)\n      add\n      exp(0x0100, 0x00)\n      dup2\n      sload\n      swap1\n      0xffffffffffffffffffffffffffffffffffffffff\n      mul\n      not\n      and\n      swap1\n      sstore\n      swap1\n      sstore\n        /* \"feg.sol\":20612:20617  break */\n      jump(tag_379)\n        /* \"feg.sol\":20384:20632  if (_excluded[i] == account) {... */\n    tag_383:\n        /* \"feg.sol\":20365:20368  i++ */\n      dup1\n      dup1\n      0x01\n      add\n      swap2\n      pop\n      pop\n        /* \"feg.sol\":20323:20642  for (uint256 i = 0; i < _excluded.length; i++) {... */\n      jump(tag_378)\n    tag_379:\n      pop\n        /* \"feg.sol\":20181:20648  function includeAccount(address account) external onlyOwner() {... */\n      pop\n      jump\t// out\n        /* \"feg.sol\":16301:16326  uint256 public _tFeeTotal */\n    tag_198:\n      sload(0x09)\n      dup2\n      jump\t// out\n        /* \"feg.sol\":448:552  function _msgSender() internal view virtual returns (address payable) {... */\n    tag_201:\n        /* \"feg.sol\":501:516  address payable */\n      0x00\n        /* \"feg.sol\":535:545  msg.sender */\n      caller\n        /* \"feg.sol\":528:545  return msg.sender */\n      swap1\n      pop\n        /* \"feg.sol\":448:552  function _msgSender() internal view virtual returns (address payable) {... */\n      swap1\n      jump\t// out\n        /* \"feg.sol\":4059:4193  function sub(uint256 a, uint256 b) internal pure returns (uint256) {... */\n    tag_205:\n        /* \"feg.sol\":4117:4124  uint256 */\n      0x00\n        /* \"feg.sol\":4143:4186  sub(a, b, \"SafeMath: subtraction overflow\") */\n      tag_392\n        /* \"feg.sol\":4147:4148  a */\n      dup4\n        /* \"feg.sol\":4150:4151  b */\n      dup4\n        /* \"feg.sol\":4143:4186  sub(a, b, \"SafeMath: subtraction overflow\") */\n      mload(0x40)\n      dup1\n      0x40\n      add\n      0x40\n      mstore\n      dup1\n      0x1e\n      dup2\n      mstore\n      0x20\n      add\n      0x536166654d6174683a207375627472616374696f6e206f766572666c6f770000\n      dup2\n      mstore\n      pop\n        /* \"feg.sol\":4143:4146  sub */\n      tag_242\n        /* \"feg.sol\":4143:4186  sub(a, b, \"SafeMath: subtraction overflow\") */\n      jump\t// in\n    tag_392:\n        /* \"feg.sol\":4136:4186  return sub(a, b, \"SafeMath: subtraction overflow\") */\n      swap1\n      pop\n        /* \"feg.sol\":4059:4193  function sub(uint256 a, uint256 b) internal pure returns (uint256) {... */\n      swap3\n      swap2\n      pop\n      pop\n      jump\t// out\n        /* \"feg.sol\":3612:3788  function add(uint256 a, uint256 b) internal pure returns (uint256) {... */\n    tag_208:\n        /* \"feg.sol\":3670:3677  uint256 */\n      0x00\n        /* \"feg.sol\":3689:3698  uint256 c */\n      dup1\n        /* \"feg.sol\":3705:3706  b */\n      dup3\n        /* \"feg.sol\":3701:3702  a */\n      dup5\n        /* \"feg.sol\":3701:3706  a + b */\n      add\n        /* \"feg.sol\":3689:3706  uint256 c = a + b */\n      swap1\n      pop\n        /* \"feg.sol\":3729:3730  a */\n      dup4\n        /* \"feg.sol\":3724:3725  c */\n      dup2\n        /* \"feg.sol\":3724:3730  c >= a */\n      lt\n      iszero\n        /* \"feg.sol\":3716:3762  require(c >= a, \"SafeMath: addition overflow\") */\n      tag_394\n      jumpi\n      mload(0x40)\n      0x08c379a000000000000000000000000000000000000000000000000000000000\n      dup2\n      mstore\n      0x04\n      add\n      dup1\n      dup1\n      0x20\n      add\n      dup3\n      dup2\n      sub\n      dup3\n      mstore\n      0x1b\n      dup2\n      mstore\n      0x20\n      add\n      dup1\n      0x536166654d6174683a206164646974696f6e206f766572666c6f770000000000\n      dup2\n      mstore\n      pop\n      0x20\n      add\n      swap2\n      pop\n      pop\n      mload(0x40)\n      dup1\n      swap2\n      sub\n      swap1\n      revert\n    tag_394:\n        /* \"feg.sol\":3780:3781  c */\n      dup1\n        /* \"feg.sol\":3773:3781  return c */\n      swap2\n      pop\n      pop\n        /* \"feg.sol\":3612:3788  function add(uint256 a, uint256 b) internal pure returns (uint256) {... */\n      swap3\n      swap2\n      pop\n      pop\n      jump\t// out\n        /* \"feg.sol\":5839:5969  function div(uint256 a, uint256 b) internal pure returns (uint256) {... */\n    tag_222:\n        /* \"feg.sol\":5897:5904  uint256 */\n      0x00\n        /* \"feg.sol\":5923:5962  div(a, b, \"SafeMath: division by zero\") */\n      tag_396\n        /* \"feg.sol\":5927:5928  a */\n      dup4\n        /* \"feg.sol\":5930:5931  b */\n      dup4\n        /* \"feg.sol\":5923:5962  div(a, b, \"SafeMath: division by zero\") */\n      mload(0x40)\n      dup1\n      0x40\n      add\n      0x40\n      mstore\n      dup1\n      0x1a\n      dup2\n      mstore\n      0x20\n      add\n      0x536166654d6174683a206469766973696f6e206279207a65726f000000000000\n      dup2\n      mstore\n      pop\n        /* \"feg.sol\":5923:5926  div */\n      tag_397\n        /* \"feg.sol\":5923:5962  div(a, b, \"SafeMath: division by zero\") */\n      jump\t// in\n    tag_396:\n        /* \"feg.sol\":5916:5962  return div(a, b, \"SafeMath: division by zero\") */\n      swap1\n      pop\n        /* \"feg.sol\":5839:5969  function div(uint256 a, uint256 b) internal pure returns (uint256) {... */\n      swap3\n      swap2\n      pop\n      pop\n      jump\t// out\n        /* \"feg.sol\":4918:5377  function mul(uint256 a, uint256 b) internal pure returns (uint256) {... */\n    tag_223:\n        /* \"feg.sol\":4976:4983  uint256 */\n      0x00\n        /* \"feg.sol\":5222:5223  0 */\n      dup1\n        /* \"feg.sol\":5217:5218  a */\n      dup4\n        /* \"feg.sol\":5217:5223  a == 0 */\n      eq\n        /* \"feg.sol\":5213:5258  if (a == 0) {... */\n      iszero\n      tag_399\n      jumpi\n        /* \"feg.sol\":5246:5247  0 */\n      0x00\n        /* \"feg.sol\":5239:5247  return 0 */\n      swap1\n      pop\n      jump(tag_398)\n        /* \"feg.sol\":5213:5258  if (a == 0) {... */\n    tag_399:\n        /* \"feg.sol\":5268:5277  uint256 c */\n      0x00\n        /* \"feg.sol\":5284:5285  b */\n      dup3\n        /* \"feg.sol\":5280:5281  a */\n      dup5\n        /* \"feg.sol\":5280:5285  a * b */\n      mul\n        /* \"feg.sol\":5268:5285  uint256 c = a * b */\n      swap1\n      pop\n        /* \"feg.sol\":5312:5313  b */\n      dup3\n        /* \"feg.sol\":5307:5308  a */\n      dup5\n        /* \"feg.sol\":5303:5304  c */\n      dup3\n        /* \"feg.sol\":5303:5308  c / a */\n      dup2\n      tag_400\n      jumpi\n      invalid\n    tag_400:\n      div\n        /* \"feg.sol\":5303:5313  c / a == b */\n      eq\n        /* \"feg.sol\":5295:5351  require(c / a == b, \"SafeMath: multiplication overflow\") */\n      tag_401\n      jumpi\n      mload(0x40)\n      0x08c379a000000000000000000000000000000000000000000000000000000000\n      dup2\n      mstore\n      0x04\n      add\n      dup1\n      dup1\n      0x20\n      add\n      dup3\n      dup2\n      sub\n      dup3\n      mstore\n      0x21\n      dup2\n      mstore\n      0x20\n      add\n      dup1\n      data_9113bb53c2876a3805b2c9242029423fc540a728243ce887ab24c82cf119fba3\n      0x21\n      swap2\n      codecopy\n      0x40\n      add\n      swap2\n      pop\n      pop\n      mload(0x40)\n      dup1\n      swap2\n      sub\n      swap1\n      revert\n    tag_401:\n        /* \"feg.sol\":5369:5370  c */\n      dup1\n        /* \"feg.sol\":5362:5370  return c */\n      swap2\n      pop\n      pop\n        /* \"feg.sol\":4918:5377  function mul(uint256 a, uint256 b) internal pure returns (uint256) {... */\n    tag_398:\n      swap3\n      swap2\n      pop\n      pop\n      jump\t// out\n        /* \"feg.sol\":4484:4671  function sub(uint256 a, uint256 b, string memory errorMessage) internal pure returns (uint256) {... */\n    tag_242:\n        /* \"feg.sol\":4570:4577  uint256 */\n      0x00\n        /* \"feg.sol\":4602:4603  a */\n      dup4\n        /* \"feg.sol\":4597:4598  b */\n      dup4\n        /* \"feg.sol\":4597:4603  b <= a */\n      gt\n      iszero\n        /* \"feg.sol\":4605:4617  errorMessage */\n      dup3\n        /* \"feg.sol\":4589:4618  require(b <= a, errorMessage) */\n      swap1\n      tag_403\n      jumpi\n      mload(0x40)\n      0x08c379a000000000000000000000000000000000000000000000000000000000\n      dup2\n      mstore\n      0x04\n      add\n      dup1\n      dup1\n      0x20\n      add\n      dup3\n      dup2\n      sub\n      dup3\n      mstore\n      dup4\n      dup2\n      dup2\n      mload\n      dup2\n      mstore\n      0x20\n      add\n      swap2\n      pop\n      dup1\n      mload\n      swap1\n      0x20\n      add\n      swap1\n      dup1\n      dup4\n      dup4\n      0x00\n    tag_404:\n      dup4\n      dup2\n      lt\n      iszero\n      tag_406\n      jumpi\n      dup1\n      dup3\n      add\n      mload\n      dup2\n      dup5\n      add\n      mstore\n      0x20\n      dup2\n      add\n      swap1\n      pop\n      jump(tag_404)\n    tag_406:\n      pop\n      pop\n      pop\n      pop\n      swap1\n      pop\n      swap1\n      dup2\n      add\n      swap1\n      0x1f\n      and\n      dup1\n      iszero\n      tag_407\n      jumpi\n      dup1\n      dup3\n      sub\n      dup1\n      mload\n      0x01\n      dup4\n      0x20\n      sub\n      0x0100\n      exp\n      sub\n      not\n      and\n      dup2\n      mstore\n      0x20\n      add\n      swap2\n      pop\n    tag_407:\n      pop\n      swap3\n      pop\n      pop\n      pop\n      mload(0x40)\n      dup1\n      swap2\n      sub\n      swap1\n      revert\n    tag_403:\n      pop\n        /* \"feg.sol\":4628:4637  uint256 c */\n      0x00\n        /* \"feg.sol\":4644:4645  b */\n      dup4\n        /* \"feg.sol\":4640:4641  a */\n      dup6\n        /* \"feg.sol\":4640:4645  a - b */\n      sub\n        /* \"feg.sol\":4628:4645  uint256 c = a - b */\n      swap1\n      pop\n        /* \"feg.sol\":4663:4664  c */\n      dup1\n        /* \"feg.sol\":4656:4664  return c */\n      swap2\n      pop\n      pop\n        /* \"feg.sol\":4484:4671  function sub(uint256 a, uint256 b, string memory errorMessage) internal pure returns (uint256) {... */\n      swap4\n      swap3\n      pop\n      pop\n      pop\n      jump\t// out\n        /* \"feg.sol\":6451:6723  function div(uint256 a, uint256 b, string memory errorMessage) internal pure returns (uint256) {... */\n    tag_397:\n        /* \"feg.sol\":6537:6544  uint256 */\n      0x00\n        /* \"feg.sol\":6568:6569  0 */\n      dup1\n        /* \"feg.sol\":6564:6565  b */\n      dup4\n        /* \"feg.sol\":6564:6569  b > 0 */\n      gt\n        /* \"feg.sol\":6571:6583  errorMessage */\n      dup3\n        /* \"feg.sol\":6556:6584  require(b > 0, errorMessage) */\n      swap1\n      tag_409\n      jumpi\n      mload(0x40)\n      0x08c379a000000000000000000000000000000000000000000000000000000000\n      dup2\n      mstore\n      0x04\n      add\n      dup1\n      dup1\n      0x20\n      add\n      dup3\n      dup2\n      sub\n      dup3\n      mstore\n      dup4\n      dup2\n      dup2\n      mload\n      dup2\n      mstore\n      0x20\n      add\n      swap2\n      pop\n      dup1\n      mload\n      swap1\n      0x20\n      add\n      swap1\n      dup1\n      dup4\n      dup4\n      0x00\n    tag_410:\n      dup4\n      dup2\n      lt\n      iszero\n      tag_412\n      jumpi\n      dup1\n      dup3\n      add\n      mload\n      dup2\n      dup5\n      add\n      mstore\n      0x20\n      dup2\n      add\n      swap1\n      pop\n      jump(tag_410)\n    tag_412:\n      pop\n      pop\n      pop\n      pop\n      swap1\n      pop\n      swap1\n      dup2\n      add\n      swap1\n      0x1f\n      and\n      dup1\n      iszero\n      tag_413\n      jumpi\n      dup1\n      dup3\n      sub\n      dup1\n      mload\n      0x01\n      dup4\n      0x20\n      sub\n      0x0100\n      exp\n      sub\n      not\n      and\n      dup2\n      mstore\n      0x20\n      add\n      swap2\n      pop\n    tag_413:\n      pop\n      swap3\n      pop\n      pop\n      pop\n      mload(0x40)\n      dup1\n      swap2\n      sub\n      swap1\n      revert\n    tag_409:\n      pop\n        /* \"feg.sol\":6594:6603  uint256 c */\n      0x00\n        /* \"feg.sol\":6610:6611  b */\n      dup4\n        /* \"feg.sol\":6606:6607  a */\n      dup6\n        /* \"feg.sol\":6606:6611  a / b */\n      dup2\n      tag_414\n      jumpi\n      invalid\n    tag_414:\n      div\n        /* \"feg.sol\":6594:6611  uint256 c = a / b */\n      swap1\n      pop\n        /* \"feg.sol\":6715:6716  c */\n      dup1\n        /* \"feg.sol\":6708:6716  return c */\n      swap2\n      pop\n      pop\n        /* \"feg.sol\":6451:6723  function div(uint256 a, uint256 b, string memory errorMessage) internal pure returns (uint256) {... */\n      swap4\n      swap3\n      pop\n      pop\n      pop\n      jump\t// out\n    stop\n    data_0557e210f7a69a685100a7e4e3d0a7024c546085cee28910fd17d0b081d9516f 45524332303a207472616e7366657220746f20746865207a65726f2061646472657373\n    data_22f7af55a509c3b14f0d528f087748dec8a8bf425135e3f5dc28c6a31ec6d812 416d6f756e74206d757374206265206c657373207468616e20746f74616c207265666c656374696f6e73\n    data_245f15ff17f551913a7a18385165551503906a406f905ac1c2437281a7cd0cfe 4f776e61626c653a206e6577206f776e657220697320746865207a65726f2061646472657373\n    data_24883cc5fe64ace9d0df1893501ecb93c77180f0ff69cca79affb3c316dc8029 45524332303a20617070726f766520746f20746865207a65726f2061646472657373\n    data_9113bb53c2876a3805b2c9242029423fc540a728243ce887ab24c82cf119fba3 536166654d6174683a206d756c7469706c69636174696f6e206f766572666c6f77\n    data_974d1b4421da69cc60b481194f0dad36a5bb4e23da810da7a7fb30cdba178330 45524332303a207472616e7366657220616d6f756e74206578636565647320616c6c6f77616e6365\n    data_9edb5ab58321f35d2386ea65721c9b107daa2c273610fc16d394af2a320ba785 5472616e7366657220616d6f756e74206d7573742062652067726561746572207468616e207a65726f\n    data_baecc556b46f4ed0f2b4cb599d60785ac8563dd2dc0a5bf12edea1c39e5e1fea 45524332303a207472616e736665722066726f6d20746865207a65726f2061646472657373\n    data_c953f4879035ed60e766b34720f656aab5c697b141d924c283124ecedb91c208 45524332303a20617070726f76652066726f6d20746865207a65726f2061646472657373\n    data_ecefcaf5fbcf9ca6dcdb02298ba1da96f4ead317b0a4779917ecb2e5e7dc3ac4 4578636c75646564206164647265737365732063616e6e6f742063616c6c20746869732066756e6374696f6e\n    data_f8b476f7d28209d77d4a4ac1fe36b9f8259aa1bb6bddfa6e89de7e51615cf8a8 45524332303a2064656372656173656420616c6c6f77616e63652062656c6f77207a65726f\n\n    auxdata: 0xa264697066735822122052fde1a05d82514b06dfece2c93294abb36574cc4f290a6a9e2a08ba14c98ec764736f6c634300060c0033\n}\n",
				"bytecode": {
					"linkReferences": {},
					"object": "60806040526008600660006101000a81548160ff021916908360ff160217905550601460075560646103e8816200003257fe5b066103e8036008556040518060400160405280600881526020017f464547746f6b656e000000000000000000000000000000000000000000000000815250600a9080519060200190620000879291906200026d565b506040518060400160405280600381526020017f4645470000000000000000000000000000000000000000000000000000000000815250600b9080519060200190620000d59291906200026d565b50348015620000e357600080fd5b506000620000f66200026560201b60201c565b9050806000806101000a81548173ffffffffffffffffffffffffffffffffffffffff021916908373ffffffffffffffffffffffffffffffffffffffff1602179055508073ffffffffffffffffffffffffffffffffffffffff16600073ffffffffffffffffffffffffffffffffffffffff167f8be0079c531659141344cd1fd0a4f28419497f9722a3daafe3b4186f6b6457e060405160405180910390a35060085460016000620001ab6200026560201b60201c565b73ffffffffffffffffffffffffffffffffffffffff1673ffffffffffffffffffffffffffffffffffffffff16815260200190815260200160002081905550620001f96200026560201b60201c565b73ffffffffffffffffffffffffffffffffffffffff16600073ffffffffffffffffffffffffffffffffffffffff167fddf252ad1be2c89b69c2b068fc378daa952ba7f163c4a11628f55a4df523b3ef60646040518082815260200191505060405180910390a362000313565b600033905090565b828054600181600116156101000203166002900490600052602060002090601f016020900481019282601f10620002b057805160ff1916838001178555620002e1565b82800160010185558215620002e1579182015b82811115620002e0578251825591602001919060010190620002c3565b5b509050620002f09190620002f4565b5090565b5b808211156200030f576000816000905550600101620002f5565b5090565b613f0580620003236000396000f3fe608060405234801561001057600080fd5b50600436106102a05760003560e01c806370a0823111610167578063c2264c6a116100ce578063d49d518111610087578063d49d518114610f91578063dd62ed3e14610faf578063f2cc0c1814611027578063f2fde38b1461106b578063f84354f1146110af578063fb1eb14b146110f3576102a0565b8063c2264c6a14610d66578063c7d9be6614610dca578063c8562f7214610e38578063cba0e99614610e56578063d28d885214610eb0578063d4780e3614610f33576102a0565b806397a9d5601161012057806397a9d56014610ba4578063a457c2d714610bc9578063a9059cbb14610c2d578063af465a2714610c91578063b09f126614610caf578063b2bdfa7b14610d32576102a0565b806370a0823114610a4f57806370ba111314610aa7578063715018a614610ac55780638da5cb5b14610acf57806394e1078414610b0357806395d89b4114610b21576102a0565b806323b872dd1161020b57806339509351116101c457806339509351146108615780633b7e6d4a146108c55780634549b0391461091d57806345e0b9d41461096b5780634d09deb3146109895780636ff6cdf4146109e1576102a0565b806323b872dd1461067d5780632852df65146107015780632d8381191461076f57806330e0789e146107b1578063313ce5671461081f57806332424aa314610840576102a0565b8063104e81ff1161025d578063104e81ff146104e4578063119021601461055257806313114a9d1461059b57806316f1cc83146105b957806318160ddd14610627578063184d894e14610645576102a0565b8063024c2ddd146102a5578063053ab1821461031d57806306fdde031461034b578063095ea7b3146103ce5780630b285b1f146104325780630cfc15f91461048c575b600080fd5b610307600480360360408110156102bb57600080fd5b81019080803573ffffffffffffffffffffffffffffffffffffffff169060200190929190803573ffffffffffffffffffffffffffffffffffffffff169060200190929190505050611111565b6040518082815260200191505060405180910390f35b6103496004803603602081101561033357600080fd5b8101908080359060200190929190505050611136565b005b6103536112c6565b6040518080602001828103825283818151815260200191508051906020019080838360005b83811015610393578082015181840152602081019050610378565b50505050905090810190601f1680156103c05780820380516001836020036101000a031916815260200191505b509250505060405180910390f35b61041a600480360360408110156103e457600080fd5b81019080803573ffffffffffffffffffffffffffffffffffffffff16906020019092919080359060200190929190505050611368565b60405180821515815260200191505060405180910390f35b6104746004803603602081101561044857600080fd5b81019080803573ffffffffffffffffffffffffffffffffffffffff169060200190929190505050611386565b60405180821515815260200191505060405180910390f35b6104ce600480360360208110156104a257600080fd5b81019080803573ffffffffffffffffffffffffffffffffffffffff1690602001909291905050506113a6565b6040518082815260200191505060405180910390f35b610550600480360360608110156104fa57600080fd5b81019080803573ffffffffffffffffffffffffffffffffffffffff169060200190929190803573ffffffffffffffffffffffffffffffffffffffff169060200190929190803590602001909291905050506113be565b005b61057e6004803603602081101561056857600080fd5b81019080803590602001909291905050506115b5565b604051808381526020018281526020019250505060405180910390f35b6105a3611607565b6040518082815260200191505060405180910390f35b610625600480360360608110156105cf57600080fd5b81019080803573ffffffffffffffffffffffffffffffffffffffff169060200190929190803573ffffffffffffffffffffffffffffffffffffffff16906020019092919080359060200190929190505050611611565b005b61062f611864565b6040518082815260200191505060405180910390f35b61067b6004803603604081101561065b57600080fd5b81019080803590602001909291908035906020019092919050505061186d565b005b6106e96004803603606081101561069357600080fd5b81019080803573ffffffffffffffffffffffffffffffffffffffff169060200190929190803573ffffffffffffffffffffffffffffffffffffffff169060200190929190803590602001909291905050506118a7565b60405180821515815260200191505060405180910390f35b61076d6004803603606081101561071757600080fd5b81019080803573ffffffffffffffffffffffffffffffffffffffff169060200190929190803573ffffffffffffffffffffffffffffffffffffffff16906020019092919080359060200190929190505050611980565b005b61079b6004803603602081101561078557600080fd5b8101908080359060200190929190505050611b3e565b6040518082815260200191505060405180910390f35b61081d600480360360608110156107c757600080fd5b81019080803573ffffffffffffffffffffffffffffffffffffffff169060200190929190803573ffffffffffffffffffffffffffffffffffffffff16906020019092919080359060200190929190505050611bc2565b005b61082761201b565b604051808260ff16815260200191505060405180910390f35b610848612032565b604051808260ff16815260200191505060405180910390f35b6108ad6004803603604081101561087757600080fd5b81019080803573ffffffffffffffffffffffffffffffffffffffff16906020019092919080359060200190929190505050612045565b60405180821515815260200191505060405180910390f35b610907600480360360208110156108db57600080fd5b81019080803573ffffffffffffffffffffffffffffffffffffffff1690602001909291905050506120f8565b6040518082815260200191505060405180910390f35b6109556004803603604081101561093357600080fd5b8101908080359060200190929190803515159060200190929190505050612110565b6040518082815260200191505060405180910390f35b6109736121c4565b6040518082815260200191505060405180910390f35b6109b56004803603602081101561099f57600080fd5b81019080803590602001909291905050506121ca565b604051808273ffffffffffffffffffffffffffffffffffffffff16815260200191505060405180910390f35b610a4d600480360360608110156109f757600080fd5b81019080803573ffffffffffffffffffffffffffffffffffffffff169060200190929190803573ffffffffffffffffffffffffffffffffffffffff16906020019092919080359060200190929190505050612206565b005b610a9160048036036020811015610a6557600080fd5b81019080803573ffffffffffffffffffffffffffffffffffffffff1690602001909291905050506124ee565b6040518082815260200191505060405180910390f35b610aaf6125d9565b6040518082815260200191505060405180910390f35b610acd6125df565b005b610ad7612765565b604051808273ffffffffffffffffffffffffffffffffffffffff16815260200191505060405180910390f35b610b0b61278e565b6040518082815260200191505060405180910390f35b610b296127b9565b6040518080602001828103825283818151815260200191508051906020019080838360005b83811015610b69578082015181840152602081019050610b4e565b50505050905090810190601f168015610b965780820380516001836020036101000a031916815260200191505b509250505060405180910390f35b610bac61285b565b604051808381526020018281526020019250505060405180910390f35b610c1560048036036040811015610bdf57600080fd5b81019080803573ffffffffffffffffffffffffffffffffffffffff16906020019092919080359060200190929190505050612ae8565b60405180821515815260200191505060405180910390f35b610c7960048036036040811015610c4357600080fd5b81019080803573ffffffffffffffffffffffffffffffffffffffff16906020019092919080359060200190929190505050612bb5565b60405180821515815260200191505060405180910390f35b610c99612bd3565b6040518082815260200191505060405180910390f35b610cb7612bd8565b6040518080602001828103825283818151815260200191508051906020019080838360005b83811015610cf7578082015181840152602081019050610cdc565b50505050905090810190601f168015610d245780820380516001836020036101000a031916815260200191505b509250505060405180910390f35b610d3a612c76565b604051808273ffffffffffffffffffffffffffffffffffffffff16815260200191505060405180910390f35b610da660048036036060811015610d7c57600080fd5b81019080803590602001909291908035906020019092919080359060200190929190505050612c9a565b60405180848152602001838152602001828152602001935050505060405180910390f35b610e3660048036036060811015610de057600080fd5b81019080803573ffffffffffffffffffffffffffffffffffffffff169060200190929190803573ffffffffffffffffffffffffffffffffffffffff16906020019092919080359060200190929190505050612cf8565b005b610e40612f4b565b6040518082815260200191505060405180910390f35b610e9860048036036020811015610e6c57600080fd5b81019080803573ffffffffffffffffffffffffffffffffffffffff169060200190929190505050612f70565b60405180821515815260200191505060405180910390f35b610eb8612fc6565b6040518080602001828103825283818151815260200191508051906020019080838360005b83811015610ef8578082015181840152602081019050610edd565b50505050905090810190601f168015610f255780820380516001836020036101000a031916815260200191505b509250505060405180910390f35b610f5f60048036036020811015610f4957600080fd5b8101908080359060200190929190505050613064565b604051808681526020018581526020018481526020018381526020018281526020019550505050505060405180910390f35b610f996130bc565b6040518082815260200191505060405180910390f35b61101160048036036040811015610fc557600080fd5b81019080803573ffffffffffffffffffffffffffffffffffffffff169060200190929190803573ffffffffffffffffffffffffffffffffffffffff1690602001909291905050506130c2565b6040518082815260200191505060405180910390f35b6110696004803603602081101561103d57600080fd5b81019080803573ffffffffffffffffffffffffffffffffffffffff169060200190929190505050613149565b005b6110ad6004803603602081101561108157600080fd5b81019080803573ffffffffffffffffffffffffffffffffffffffff169060200190929190505050613463565b005b6110f1600480360360208110156110c557600080fd5b81019080803573ffffffffffffffffffffffffffffffffffffffff16906020019092919050505061366e565b005b6110fb6139f8565b6040518082815260200191505060405180910390f35b6003602052816000526040600020602052806000526040600020600091509150505481565b60006111406139fe565b9050600460008273ffffffffffffffffffffffffffffffffffffffff1673ffffffffffffffffffffffffffffffffffffffff16815260200190815260200160002060009054906101000a900460ff16156111e5576040517f08c379a000000000000000000000000000000000000000000000000000000000815260040180806020018281038252602c815260200180613e7f602c913960400191505060405180910390fd5b60006111f083613064565b50505050905061124881600160008573ffffffffffffffffffffffffffffffffffffffff1673ffffffffffffffffffffffffffffffffffffffff16815260200190815260200160002054613a0690919063ffffffff16565b600160008473ffffffffffffffffffffffffffffffffffffffff1673ffffffffffffffffffffffffffffffffffffffff168152602001908152602001600020819055506112a081600854613a0690919063ffffffff16565b6008819055506112bb83600954613a5090919063ffffffff16565b600981905550505050565b6060600a8054600181600116156101000203166002900480601f01602080910402602001604051908101604052809291908181526020018280546001816001161561010002031660029004801561135e5780601f106113335761010080835404028352916020019161135e565b820191906000526020600020905b81548152906001019060200180831161134157829003601f168201915b5050505050905090565b600061137c6113756139fe565b84846113be565b6001905092915050565b60046020528060005260406000206000915054906101000a900460ff1681565b60016020528060005260406000206000915090505481565b600073ffffffffffffffffffffffffffffffffffffffff168373ffffffffffffffffffffffffffffffffffffffff161415611444576040517f08c379a0000000000000000000000000000000000000000000000000000000008152600401808060200182810382526024815260200180613e5b6024913960400191505060405180910390fd5b600073ffffffffffffffffffffffffffffffffffffffff168273ffffffffffffffffffffffffffffffffffffffff1614156114ca576040517f08c379a0000000000000000000000000000000000000000000000000000000008152600401808060200182810382526022815260200180613da26022913960400191505060405180910390fd5b80600360008573ffffffffffffffffffffffffffffffffffffffff1673ffffffffffffffffffffffffffffffffffffffff16815260200190815260200160002060008473ffffffffffffffffffffffffffffffffffffffff1673ffffffffffffffffffffffffffffffffffffffff168152602001908152602001600020819055508173ffffffffffffffffffffffffffffffffffffffff168373ffffffffffffffffffffffffffffffffffffffff167f8c5be1e5ebec7d5bd14f71427d1e84f3dd0314c0f7b2291e5b200ac8c7c3b925836040518082815260200191505060405180910390a3505050565b60008060006115e160026115d3600a87613ad890919063ffffffff16565b613b2290919063ffffffff16565b905060006115f88286613a0690919063ffffffff16565b90508082935093505050915091565b6000600954905090565b600080600080600061162286613064565b9450945094509450945061167e85600160008b73ffffffffffffffffffffffffffffffffffffffff1673ffffffffffffffffffffffffffffffffffffffff16815260200190815260200160002054613a0690919063ffffffff16565b600160008a73ffffffffffffffffffffffffffffffffffffffff1673ffffffffffffffffffffffffffffffffffffffff1681526020019081526020016000208190555061171382600260008a73ffffffffffffffffffffffffffffffffffffffff1673ffffffffffffffffffffffffffffffffffffffff16815260200190815260200160002054613a5090919063ffffffff16565b600260008973ffffffffffffffffffffffffffffffffffffffff1673ffffffffffffffffffffffffffffffffffffffff168152602001908152602001600020819055506117a884600160008a73ffffffffffffffffffffffffffffffffffffffff1673ffffffffffffffffffffffffffffffffffffffff16815260200190815260200160002054613a5090919063ffffffff16565b600160008973ffffffffffffffffffffffffffffffffffffffff1673ffffffffffffffffffffffffffffffffffffffff168152602001908152602001600020819055506117f5838261186d565b8673ffffffffffffffffffffffffffffffffffffffff168873ffffffffffffffffffffffffffffffffffffffff167fddf252ad1be2c89b69c2b068fc378daa952ba7f163c4a11628f55a4df523b3ef846040518082815260200191505060405180910390a35050505050505050565b60006064905090565b61188282600854613a0690919063ffffffff16565b60088190555061189d81600954613a5090919063ffffffff16565b6009819055505050565b60006118b4848484611bc2565b611975846118c06139fe565b61197085604051806060016040528060288152602001613de560289139600360008b73ffffffffffffffffffffffffffffffffffffffff1673ffffffffffffffffffffffffffffffffffffffff16815260200190815260200160002060006119266139fe565b73ffffffffffffffffffffffffffffffffffffffff1673ffffffffffffffffffffffffffffffffffffffff16815260200190815260200160002054613ba89092919063ffffffff16565b6113be565b600190509392505050565b600080600080600061199186613064565b945094509450945094506119ed85600160008b73ffffffffffffffffffffffffffffffffffffffff1673ffffffffffffffffffffffffffffffffffffffff16815260200190815260200160002054613a0690919063ffffffff16565b600160008a73ffffffffffffffffffffffffffffffffffffffff1673ffffffffffffffffffffffffffffffffffffffff16815260200190815260200160002081905550611a8284600160008a73ffffffffffffffffffffffffffffffffffffffff1673ffffffffffffffffffffffffffffffffffffffff16815260200190815260200160002054613a5090919063ffffffff16565b600160008973ffffffffffffffffffffffffffffffffffffffff1673ffffffffffffffffffffffffffffffffffffffff16815260200190815260200160002081905550611acf838261186d565b8673ffffffffffffffffffffffffffffffffffffffff168873ffffffffffffffffffffffffffffffffffffffff167fddf252ad1be2c89b69c2b068fc378daa952ba7f163c4a11628f55a4df523b3ef846040518082815260200191505060405180910390a35050505050505050565b6000600854821115611b9b576040517f08c379a000000000000000000000000000000000000000000000000000000000815260040180806020018281038252602a815260200180613d52602a913960400191505060405180910390fd5b6000611ba561278e565b9050611bba8184613ad890919063ffffffff16565b915050919050565b600073ffffffffffffffffffffffffffffffffffffffff168373ffffffffffffffffffffffffffffffffffffffff161415611c48576040517f08c379a0000000000000000000000000000000000000000000000000000000008152600401808060200182810382526025815260200180613e366025913960400191505060405180910390fd5b600073ffffffffffffffffffffffffffffffffffffffff168273ffffffffffffffffffffffffffffffffffffffff161415611cce576040517f08c379a0000000000000000000000000000000000000000000000000000000008152600401808060200182810382526023815260200180613d2f6023913960400191505060405180910390fd5b60008111611d27576040517f08c379a0000000000000000000000000000000000000000000000000000000008152600401808060200182810382526029815260200180613e0d6029913960400191505060405180910390fd5b600460008473ffffffffffffffffffffffffffffffffffffffff1673ffffffffffffffffffffffffffffffffffffffff16815260200190815260200160002060009054906101000a900460ff168015611dca5750600460008373ffffffffffffffffffffffffffffffffffffffff1673ffffffffffffffffffffffffffffffffffffffff16815260200190815260200160002060009054906101000a900460ff16155b15611ddf57611dda838383612cf8565b612016565b600460008473ffffffffffffffffffffffffffffffffffffffff1673ffffffffffffffffffffffffffffffffffffffff16815260200190815260200160002060009054906101000a900460ff16158015611e825750600460008373ffffffffffffffffffffffffffffffffffffffff1673ffffffffffffffffffffffffffffffffffffffff16815260200190815260200160002060009054906101000a900460ff165b15611e9757611e92838383611611565b612015565b600460008473ffffffffffffffffffffffffffffffffffffffff1673ffffffffffffffffffffffffffffffffffffffff16815260200190815260200160002060009054906101000a900460ff16158015611f3b5750600460008373ffffffffffffffffffffffffffffffffffffffff1673ffffffffffffffffffffffffffffffffffffffff16815260200190815260200160002060009054906101000a900460ff16155b15611f5057611f4b838383611980565b612014565b600460008473ffffffffffffffffffffffffffffffffffffffff1673ffffffffffffffffffffffffffffffffffffffff16815260200190815260200160002060009054906101000a900460ff168015611ff25750600460008373ffffffffffffffffffffffffffffffffffffffff1673ffffffffffffffffffffffffffffffffffffffff16815260200190815260200160002060009054906101000a900460ff165b1561200757612002838383612206565b612013565b612012838383611980565b5b5b5b5b505050565b6000600660009054906101000a900460ff16905090565b600660009054906101000a900460ff1681565b60006120ee6120526139fe565b846120e985600360006120636139fe565b73ffffffffffffffffffffffffffffffffffffffff1673ffffffffffffffffffffffffffffffffffffffff16815260200190815260200160002060008973ffffffffffffffffffffffffffffffffffffffff1673ffffffffffffffffffffffffffffffffffffffff16815260200190815260200160002054613a5090919063ffffffff16565b6113be565b6001905092915050565b60026020528060005260406000206000915090505481565b60006064831115612189576040517f08c379a000000000000000000000000000000000000000000000000000000000815260040180806020018281038252601f8152602001807f416d6f756e74206d757374206265206c657373207468616e20737570706c790081525060200191505060405180910390fd5b816121a857600061219984613064565b505050509050809150506121be565b60006121b384613064565b505050915050809150505b92915050565b60085481565b600581815481106121d757fe5b906000526020600020016000915054906101000a900473ffffffffffffffffffffffffffffffffffffffff1681565b600080600080600061221786613064565b9450945094509450945061227386600260008b73ffffffffffffffffffffffffffffffffffffffff1673ffffffffffffffffffffffffffffffffffffffff16815260200190815260200160002054613a0690919063ffffffff16565b600260008a73ffffffffffffffffffffffffffffffffffffffff1673ffffffffffffffffffffffffffffffffffffffff1681526020019081526020016000208190555061230885600160008b73ffffffffffffffffffffffffffffffffffffffff1673ffffffffffffffffffffffffffffffffffffffff16815260200190815260200160002054613a0690919063ffffffff16565b600160008a73ffffffffffffffffffffffffffffffffffffffff1673ffffffffffffffffffffffffffffffffffffffff1681526020019081526020016000208190555061239d82600260008a73ffffffffffffffffffffffffffffffffffffffff1673ffffffffffffffffffffffffffffffffffffffff16815260200190815260200160002054613a5090919063ffffffff16565b600260008973ffffffffffffffffffffffffffffffffffffffff1673ffffffffffffffffffffffffffffffffffffffff1681526020019081526020016000208190555061243284600160008a73ffffffffffffffffffffffffffffffffffffffff1673ffffffffffffffffffffffffffffffffffffffff16815260200190815260200160002054613a5090919063ffffffff16565b600160008973ffffffffffffffffffffffffffffffffffffffff1673ffffffffffffffffffffffffffffffffffffffff1681526020019081526020016000208190555061247f838261186d565b8673ffffffffffffffffffffffffffffffffffffffff168873ffffffffffffffffffffffffffffffffffffffff167fddf252ad1be2c89b69c2b068fc378daa952ba7f163c4a11628f55a4df523b3ef846040518082815260200191505060405180910390a35050505050505050565b6000600460008373ffffffffffffffffffffffffffffffffffffffff1673ffffffffffffffffffffffffffffffffffffffff16815260200190815260200160002060009054906101000a900460ff161561258957600260008373ffffffffffffffffffffffffffffffffffffffff1673ffffffffffffffffffffffffffffffffffffffff1681526020019081526020016000205490506125d4565b6125d1600160008473ffffffffffffffffffffffffffffffffffffffff1673ffffffffffffffffffffffffffffffffffffffff16815260200190815260200160002054611b3e565b90505b919050565b60075481565b6125e76139fe565b73ffffffffffffffffffffffffffffffffffffffff1660008054906101000a900473ffffffffffffffffffffffffffffffffffffffff1673ffffffffffffffffffffffffffffffffffffffff16146126a7576040517f08c379a00000000000000000000000000000000000000000000000000000000081526004018080602001828103825260208152602001807f4f776e61626c653a2063616c6c6572206973206e6f7420746865206f776e657281525060200191505060405180910390fd5b600073ffffffffffffffffffffffffffffffffffffffff1660008054906101000a900473ffffffffffffffffffffffffffffffffffffffff1673ffffffffffffffffffffffffffffffffffffffff167f8be0079c531659141344cd1fd0a4f28419497f9722a3daafe3b4186f6b6457e060405160405180910390a360008060006101000a81548173ffffffffffffffffffffffffffffffffffffffff021916908373ffffffffffffffffffffffffffffffffffffffff160217905550565b60008060009054906101000a900473ffffffffffffffffffffffffffffffffffffffff16905090565b600080600061279b61285b565b915091506127b28183613ad890919063ffffffff16565b9250505090565b6060600b8054600181600116156101000203166002900480601f0160208091040260200160405190810160405280929190818152602001828054600181600116156101000203166002900480156128515780601f1061282657610100808354040283529160200191612851565b820191906000526020600020905b81548152906001019060200180831161283457829003601f168201915b5050505050905090565b6000806000600854905060006064905060005b600580549050811015612aad5782600160006005848154811061288d57fe5b9060005260206000200160009054906101000a900473ffffffffffffffffffffffffffffffffffffffff1673ffffffffffffffffffffffffffffffffffffffff1673ffffffffffffffffffffffffffffffffffffffff168152602001908152602001600020541180612974575081600260006005848154811061290c57fe5b9060005260206000200160009054906101000a900473ffffffffffffffffffffffffffffffffffffffff1673ffffffffffffffffffffffffffffffffffffffff1673ffffffffffffffffffffffffffffffffffffffff16815260200190815260200160002054115b1561298a57600854606494509450505050612ae4565b612a13600160006005848154811061299e57fe5b9060005260206000200160009054906101000a900473ffffffffffffffffffffffffffffffffffffffff1673ffffffffffffffffffffffffffffffffffffffff1673ffffffffffffffffffffffffffffffffffffffff1681526020019081526020016000205484613a0690919063ffffffff16565b9250612a9e6002600060058481548110612a2957fe5b9060005260206000200160009054906101000a900473ffffffffffffffffffffffffffffffffffffffff1673ffffffffffffffffffffffffffffffffffffffff1673ffffffffffffffffffffffffffffffffffffffff1681526020019081526020016000205483613a0690919063ffffffff16565b9150808060010191505061286e565b50612ac46064600854613ad890919063ffffffff16565b821015612adb576008546064935093505050612ae4565b81819350935050505b9091565b6000612bab612af56139fe565b84612ba685604051806060016040528060258152602001613eab6025913960036000612b1f6139fe565b73ffffffffffffffffffffffffffffffffffffffff1673ffffffffffffffffffffffffffffffffffffffff16815260200190815260200160002060008a73ffffffffffffffffffffffffffffffffffffffff1673ffffffffffffffffffffffffffffffffffffffff16815260200190815260200160002054613ba89092919063ffffffff16565b6113be565b6001905092915050565b6000612bc9612bc26139fe565b8484611bc2565b6001905092915050565b606481565b600b8054600181600116156101000203166002900480601f016020809104026020016040519081016040528092919081815260200182805460018160011615610100020316600290048015612c6e5780601f10612c4357610100808354040283529160200191612c6e565b820191906000526020600020905b815481529060010190602001808311612c5157829003601f168201915b505050505081565b60008054906101000a900473ffffffffffffffffffffffffffffffffffffffff1681565b600080600080612cb38588613b2290919063ffffffff16565b90506000612cca8688613b2290919063ffffffff16565b90506000612ce18284613a0690919063ffffffff16565b905082818395509550955050505093509350939050565b6000806000806000612d0986613064565b94509450945094509450612d6586600260008b73ffffffffffffffffffffffffffffffffffffffff1673ffffffffffffffffffffffffffffffffffffffff16815260200190815260200160002054613a0690919063ffffffff16565b600260008a73ffffffffffffffffffffffffffffffffffffffff1673ffffffffffffffffffffffffffffffffffffffff16815260200190815260200160002081905550612dfa85600160008b73ffffffffffffffffffffffffffffffffffffffff1673ffffffffffffffffffffffffffffffffffffffff16815260200190815260200160002054613a0690919063ffffffff16565b600160008a73ffffffffffffffffffffffffffffffffffffffff1673ffffffffffffffffffffffffffffffffffffffff16815260200190815260200160002081905550612e8f84600160008a73ffffffffffffffffffffffffffffffffffffffff1673ffffffffffffffffffffffffffffffffffffffff16815260200190815260200160002054613a5090919063ffffffff16565b600160008973ffffffffffffffffffffffffffffffffffffffff1673ffffffffffffffffffffffffffffffffffffffff16815260200190815260200160002081905550612edc838261186d565b8673ffffffffffffffffffffffffffffffffffffffff168873ffffffffffffffffffffffffffffffffffffffff167fddf252ad1be2c89b69c2b068fc378daa952ba7f163c4a11628f55a4df523b3ef846040518082815260200191505060405180910390a35050505050505050565b600080612f5b6009546000612110565b600854039050612f6a81611b3e565b91505090565b6000600460008373ffffffffffffffffffffffffffffffffffffffff1673ffffffffffffffffffffffffffffffffffffffff16815260200190815260200160002060009054906101000a900460ff169050919050565b600a8054600181600116156101000203166002900480601f01602080910402602001604051908101604052809291908181526020018280546001816001161561010002031660029004801561305c5780601f106130315761010080835404028352916020019161305c565b820191906000526020600020905b81548152906001019060200180831161303f57829003601f168201915b505050505081565b6000806000806000806000613078886115b5565b91509150600061308661278e565b905060008060006130988c8686612c9a565b92509250925082828288889a509a509a509a509a5050505050505091939590929450565b6103e881565b6000600360008473ffffffffffffffffffffffffffffffffffffffff1673ffffffffffffffffffffffffffffffffffffffff16815260200190815260200160002060008373ffffffffffffffffffffffffffffffffffffffff1673ffffffffffffffffffffffffffffffffffffffff16815260200190815260200160002054905092915050565b6131516139fe565b73ffffffffffffffffffffffffffffffffffffffff1660008054906101000a900473ffffffffffffffffffffffffffffffffffffffff1673ffffffffffffffffffffffffffffffffffffffff1614613211576040517f08c379a00000000000000000000000000000000000000000000000000000000081526004018080602001828103825260208152602001807f4f776e61626c653a2063616c6c6572206973206e6f7420746865206f776e657281525060200191505060405180910390fd5b600460008273ffffffffffffffffffffffffffffffffffffffff1673ffffffffffffffffffffffffffffffffffffffff16815260200190815260200160002060009054906101000a900460ff16156132d1576040517f08c379a000000000000000000000000000000000000000000000000000000000815260040180806020018281038252601b8152602001807f4163636f756e7420697320616c7265616479206578636c75646564000000000081525060200191505060405180910390fd5b6000600160008373ffffffffffffffffffffffffffffffffffffffff1673ffffffffffffffffffffffffffffffffffffffff1681526020019081526020016000205411156133a557613361600160008373ffffffffffffffffffffffffffffffffffffffff1673ffffffffffffffffffffffffffffffffffffffff16815260200190815260200160002054611b3e565b600260008373ffffffffffffffffffffffffffffffffffffffff1673ffffffffffffffffffffffffffffffffffffffff168152602001908152602001600020819055505b6001600460008373ffffffffffffffffffffffffffffffffffffffff1673ffffffffffffffffffffffffffffffffffffffff16815260200190815260200160002060006101000a81548160ff0219169083151502179055506005819080600181540180825580915050600190039060005260206000200160009091909190916101000a81548173ffffffffffffffffffffffffffffffffffffffff021916908373ffffffffffffffffffffffffffffffffffffffff16021790555050565b61346b6139fe565b73ffffffffffffffffffffffffffffffffffffffff1660008054906101000a900473ffffffffffffffffffffffffffffffffffffffff1673ffffffffffffffffffffffffffffffffffffffff161461352b576040517f08c379a00000000000000000000000000000000000000000000000000000000081526004018080602001828103825260208152602001807f4f776e61626c653a2063616c6c6572206973206e6f7420746865206f776e657281525060200191505060405180910390fd5b600073ffffffffffffffffffffffffffffffffffffffff168173ffffffffffffffffffffffffffffffffffffffff1614156135b1576040517f08c379a0000000000000000000000000000000000000000000000000000000008152600401808060200182810382526026815260200180613d7c6026913960400191505060405180910390fd5b8073ffffffffffffffffffffffffffffffffffffffff1660008054906101000a900473ffffffffffffffffffffffffffffffffffffffff1673ffffffffffffffffffffffffffffffffffffffff167f8be0079c531659141344cd1fd0a4f28419497f9722a3daafe3b4186f6b6457e060405160405180910390a3806000806101000a81548173ffffffffffffffffffffffffffffffffffffffff021916908373ffffffffffffffffffffffffffffffffffffffff16021790555050565b6136766139fe565b73ffffffffffffffffffffffffffffffffffffffff1660008054906101000a900473ffffffffffffffffffffffffffffffffffffffff1673ffffffffffffffffffffffffffffffffffffffff1614613736576040517f08c379a00000000000000000000000000000000000000000000000000000000081526004018080602001828103825260208152602001807f4f776e61626c653a2063616c6c6572206973206e6f7420746865206f776e657281525060200191505060405180910390fd5b600460008273ffffffffffffffffffffffffffffffffffffffff1673ffffffffffffffffffffffffffffffffffffffff16815260200190815260200160002060009054906101000a900460ff166137f5576040517f08c379a000000000000000000000000000000000000000000000000000000000815260040180806020018281038252601b8152602001807f4163636f756e7420697320616c7265616479206578636c75646564000000000081525060200191505060405180910390fd5b60005b6005805490508110156139f4578173ffffffffffffffffffffffffffffffffffffffff166005828154811061382957fe5b9060005260206000200160009054906101000a900473ffffffffffffffffffffffffffffffffffffffff1673ffffffffffffffffffffffffffffffffffffffff1614156139e75760056001600580549050038154811061388557fe5b9060005260206000200160009054906101000a900473ffffffffffffffffffffffffffffffffffffffff16600582815481106138bd57fe5b9060005260206000200160006101000a81548173ffffffffffffffffffffffffffffffffffffffff021916908373ffffffffffffffffffffffffffffffffffffffff1602179055506000600260008473ffffffffffffffffffffffffffffffffffffffff1673ffffffffffffffffffffffffffffffffffffffff168152602001908152602001600020819055506000600460008473ffffffffffffffffffffffffffffffffffffffff1673ffffffffffffffffffffffffffffffffffffffff16815260200190815260200160002060006101000a81548160ff02191690831515021790555060058054806139ad57fe5b6001900381819060005260206000200160006101000a81549073ffffffffffffffffffffffffffffffffffffffff021916905590556139f4565b80806001019150506137f8565b5050565b60095481565b600033905090565b6000613a4883836040518060400160405280601e81526020017f536166654d6174683a207375627472616374696f6e206f766572666c6f770000815250613ba8565b905092915050565b600080828401905083811015613ace576040517f08c379a000000000000000000000000000000000000000000000000000000000815260040180806020018281038252601b8152602001807f536166654d6174683a206164646974696f6e206f766572666c6f77000000000081525060200191505060405180910390fd5b8091505092915050565b6000613b1a83836040518060400160405280601a81526020017f536166654d6174683a206469766973696f6e206279207a65726f000000000000815250613c68565b905092915050565b600080831415613b355760009050613ba2565b6000828402905082848281613b4657fe5b0414613b9d576040517f08c379a0000000000000000000000000000000000000000000000000000000008152600401808060200182810382526021815260200180613dc46021913960400191505060405180910390fd5b809150505b92915050565b6000838311158290613c55576040517f08c379a00000000000000000000000000000000000000000000000000000000081526004018080602001828103825283818151815260200191508051906020019080838360005b83811015613c1a578082015181840152602081019050613bff565b50505050905090810190601f168015613c475780820380516001836020036101000a031916815260200191505b509250505060405180910390fd5b5060008385039050809150509392505050565b60008083118290613d14576040517f08c379a00000000000000000000000000000000000000000000000000000000081526004018080602001828103825283818151815260200191508051906020019080838360005b83811015613cd9578082015181840152602081019050613cbe565b50505050905090810190601f168015613d065780820380516001836020036101000a031916815260200191505b509250505060405180910390fd5b506000838581613d2057fe5b04905080915050939250505056fe45524332303a207472616e7366657220746f20746865207a65726f2061646472657373416d6f756e74206d757374206265206c657373207468616e20746f74616c207265666c656374696f6e734f776e61626c653a206e6577206f776e657220697320746865207a65726f206164647265737345524332303a20617070726f766520746f20746865207a65726f2061646472657373536166654d6174683a206d756c7469706c69636174696f6e206f766572666c6f7745524332303a207472616e7366657220616d6f756e74206578636565647320616c6c6f77616e63655472616e7366657220616d6f756e74206d7573742062652067726561746572207468616e207a65726f45524332303a207472616e736665722066726f6d20746865207a65726f206164647265737345524332303a20617070726f76652066726f6d20746865207a65726f20616464726573734578636c75646564206164647265737365732063616e6e6f742063616c6c20746869732066756e6374696f6e45524332303a2064656372656173656420616c6c6f77616e63652062656c6f77207a65726fa264697066735822122052fde1a05d82514b06dfece2c93294abb36574cc4f290a6a9e2a08ba14c98ec764736f6c634300060c0033",
					"opcodes": "PUSH1 0x80 PUSH1 0x40 MSTORE PUSH1 0x8 PUSH1 0x6 PUSH1 0x0 PUSH2 0x100 EXP DUP2 SLOAD DUP2 PUSH1 0xFF MUL NOT AND SWAP1 DUP4 PUSH1 0xFF AND MUL OR SWAP1 SSTORE POP PUSH1 0x14 PUSH1 0x7 SSTORE PUSH1 0x64 PUSH2 0x3E8 DUP2 PUSH3 0x32 JUMPI INVALID JUMPDEST MOD PUSH2 0x3E8 SUB PUSH1 0x8 SSTORE PUSH1 0x40 MLOAD DUP1 PUSH1 0x40 ADD PUSH1 0x40 MSTORE DUP1 PUSH1 0x8 DUP2 MSTORE PUSH1 0x20 ADD PUSH32 0x464547746F6B656E000000000000000000000000000000000000000000000000 DUP2 MSTORE POP PUSH1 0xA SWAP1 DUP1 MLOAD SWAP1 PUSH1 0x20 ADD SWAP1 PUSH3 0x87 SWAP3 SWAP2 SWAP1 PUSH3 0x26D JUMP JUMPDEST POP PUSH1 0x40 MLOAD DUP1 PUSH1 0x40 ADD PUSH1 0x40 MSTORE DUP1 PUSH1 0x3 DUP2 MSTORE PUSH1 0x20 ADD PUSH32 0x4645470000000000000000000000000000000000000000000000000000000000 DUP2 MSTORE POP PUSH1 0xB SWAP1 DUP1 MLOAD SWAP1 PUSH1 0x20 ADD SWAP1 PUSH3 0xD5 SWAP3 SWAP2 SWAP1 PUSH3 0x26D JUMP JUMPDEST POP CALLVALUE DUP1 ISZERO PUSH3 0xE3 JUMPI PUSH1 0x0 DUP1 REVERT JUMPDEST POP PUSH1 0x0 PUSH3 0xF6 PUSH3 0x265 PUSH1 0x20 SHL PUSH1 0x20 SHR JUMP JUMPDEST SWAP1 POP DUP1 PUSH1 0x0 DUP1 PUSH2 0x100 EXP DUP2 SLOAD DUP2 PUSH20 0xFFFFFFFFFFFFFFFFFFFFFFFFFFFFFFFFFFFFFFFF MUL NOT AND SWAP1 DUP4 PUSH20 0xFFFFFFFFFFFFFFFFFFFFFFFFFFFFFFFFFFFFFFFF AND MUL OR SWAP1 SSTORE POP DUP1 PUSH20 0xFFFFFFFFFFFFFFFFFFFFFFFFFFFFFFFFFFFFFFFF AND PUSH1 0x0 PUSH20 0xFFFFFFFFFFFFFFFFFFFFFFFFFFFFFFFFFFFFFFFF AND PUSH32 0x8BE0079C531659141344CD1FD0A4F28419497F9722A3DAAFE3B4186F6B6457E0 PUSH1 0x40 MLOAD PUSH1 0x40 MLOAD DUP1 SWAP2 SUB SWAP1 LOG3 POP PUSH1 0x8 SLOAD PUSH1 0x1 PUSH1 0x0 PUSH3 0x1AB PUSH3 0x265 PUSH1 0x20 SHL PUSH1 0x20 SHR JUMP JUMPDEST PUSH20 0xFFFFFFFFFFFFFFFFFFFFFFFFFFFFFFFFFFFFFFFF AND PUSH20 0xFFFFFFFFFFFFFFFFFFFFFFFFFFFFFFFFFFFFFFFF AND DUP2 MSTORE PUSH1 0x20 ADD SWAP1 DUP2 MSTORE PUSH1 0x20 ADD PUSH1 0x0 KECCAK256 DUP2 SWAP1 SSTORE POP PUSH3 0x1F9 PUSH3 0x265 PUSH1 0x20 SHL PUSH1 0x20 SHR JUMP JUMPDEST PUSH20 0xFFFFFFFFFFFFFFFFFFFFFFFFFFFFFFFFFFFFFFFF AND PUSH1 0x0 PUSH20 0xFFFFFFFFFFFFFFFFFFFFFFFFFFFFFFFFFFFFFFFF AND PUSH32 0xDDF252AD1BE2C89B69C2B068FC378DAA952BA7F163C4A11628F55A4DF523B3EF PUSH1 0x64 PUSH1 0x40 MLOAD DUP1 DUP3 DUP2 MSTORE PUSH1 0x20 ADD SWAP2 POP POP PUSH1 0x40 MLOAD DUP1 SWAP2 SUB SWAP1 LOG3 PUSH3 0x313 JUMP JUMPDEST PUSH1 0x0 CALLER SWAP1 POP SWAP1 JUMP JUMPDEST DUP3 DUP1 SLOAD PUSH1 0x1 DUP2 PUSH1 0x1 AND ISZERO PUSH2 0x100 MUL SUB AND PUSH1 0x2 SWAP1 DIV SWAP1 PUSH1 0x0 MSTORE PUSH1 0x20 PUSH1 0x0 KECCAK256 SWAP1 PUSH1 0x1F ADD PUSH1 0x20 SWAP1 DIV DUP2 ADD SWAP3 DUP3 PUSH1 0x1F LT PUSH3 0x2B0 JUMPI DUP1 MLOAD PUSH1 0xFF NOT AND DUP4 DUP1 ADD OR DUP6 SSTORE PUSH3 0x2E1 JUMP JUMPDEST DUP3 DUP1 ADD PUSH1 0x1 ADD DUP6 SSTORE DUP3 ISZERO PUSH3 0x2E1 JUMPI SWAP2 DUP3 ADD JUMPDEST DUP3 DUP2 GT ISZERO PUSH3 0x2E0 JUMPI DUP3 MLOAD DUP3 SSTORE SWAP2 PUSH1 0x20 ADD SWAP2 SWAP1 PUSH1 0x1 ADD SWAP1 PUSH3 0x2C3 JUMP JUMPDEST JUMPDEST POP SWAP1 POP PUSH3 0x2F0 SWAP2 SWAP1 PUSH3 0x2F4 JUMP JUMPDEST POP SWAP1 JUMP JUMPDEST JUMPDEST DUP1 DUP3 GT ISZERO PUSH3 0x30F JUMPI PUSH1 0x0 DUP2 PUSH1 0x0 SWAP1 SSTORE POP PUSH1 0x1 ADD PUSH3 0x2F5 JUMP JUMPDEST POP SWAP1 JUMP JUMPDEST PUSH2 0x3F05 DUP1 PUSH3 0x323 PUSH1 0x0 CODECOPY PUSH1 0x0 RETURN INVALID PUSH1 0x80 PUSH1 0x40 MSTORE CALLVALUE DUP1 ISZERO PUSH2 0x10 JUMPI PUSH1 0x0 DUP1 REVERT JUMPDEST POP PUSH1 0x4 CALLDATASIZE LT PUSH2 0x2A0 JUMPI PUSH1 0x0 CALLDATALOAD PUSH1 0xE0 SHR DUP1 PUSH4 0x70A08231 GT PUSH2 0x167 JUMPI DUP1 PUSH4 0xC2264C6A GT PUSH2 0xCE JUMPI DUP1 PUSH4 0xD49D5181 GT PUSH2 0x87 JUMPI DUP1 PUSH4 0xD49D5181 EQ PUSH2 0xF91 JUMPI DUP1 PUSH4 0xDD62ED3E EQ PUSH2 0xFAF JUMPI DUP1 PUSH4 0xF2CC0C18 EQ PUSH2 0x1027 JUMPI DUP1 PUSH4 0xF2FDE38B EQ PUSH2 0x106B JUMPI DUP1 PUSH4 0xF84354F1 EQ PUSH2 0x10AF JUMPI DUP1 PUSH4 0xFB1EB14B EQ PUSH2 0x10F3 JUMPI PUSH2 0x2A0 JUMP JUMPDEST DUP1 PUSH4 0xC2264C6A EQ PUSH2 0xD66 JUMPI DUP1 PUSH4 0xC7D9BE66 EQ PUSH2 0xDCA JUMPI DUP1 PUSH4 0xC8562F72 EQ PUSH2 0xE38 JUMPI DUP1 PUSH4 0xCBA0E996 EQ PUSH2 0xE56 JUMPI DUP1 PUSH4 0xD28D8852 EQ PUSH2 0xEB0 JUMPI DUP1 PUSH4 0xD4780E36 EQ PUSH2 0xF33 JUMPI PUSH2 0x2A0 JUMP JUMPDEST DUP1 PUSH4 0x97A9D560 GT PUSH2 0x120 JUMPI DUP1 PUSH4 0x97A9D560 EQ PUSH2 0xBA4 JUMPI DUP1 PUSH4 0xA457C2D7 EQ PUSH2 0xBC9 JUMPI DUP1 PUSH4 0xA9059CBB EQ PUSH2 0xC2D JUMPI DUP1 PUSH4 0xAF465A27 EQ PUSH2 0xC91 JUMPI DUP1 PUSH4 0xB09F1266 EQ PUSH2 0xCAF JUMPI DUP1 PUSH4 0xB2BDFA7B EQ PUSH2 0xD32 JUMPI PUSH2 0x2A0 JUMP JUMPDEST DUP1 PUSH4 0x70A08231 EQ PUSH2 0xA4F JUMPI DUP1 PUSH4 0x70BA1113 EQ PUSH2 0xAA7 JUMPI DUP1 PUSH4 0x715018A6 EQ PUSH2 0xAC5 JUMPI DUP1 PUSH4 0x8DA5CB5B EQ PUSH2 0xACF JUMPI DUP1 PUSH4 0x94E10784 EQ PUSH2 0xB03 JUMPI DUP1 PUSH4 0x95D89B41 EQ PUSH2 0xB21 JUMPI PUSH2 0x2A0 JUMP JUMPDEST DUP1 PUSH4 0x23B872DD GT PUSH2 0x20B JUMPI DUP1 PUSH4 0x39509351 GT PUSH2 0x1C4 JUMPI DUP1 PUSH4 0x39509351 EQ PUSH2 0x861 JUMPI DUP1 PUSH4 0x3B7E6D4A EQ PUSH2 0x8C5 JUMPI DUP1 PUSH4 0x4549B039 EQ PUSH2 0x91D JUMPI DUP1 PUSH4 0x45E0B9D4 EQ PUSH2 0x96B JUMPI DUP1 PUSH4 0x4D09DEB3 EQ PUSH2 0x989 JUMPI DUP1 PUSH4 0x6FF6CDF4 EQ PUSH2 0x9E1 JUMPI PUSH2 0x2A0 JUMP JUMPDEST DUP1 PUSH4 0x23B872DD EQ PUSH2 0x67D JUMPI DUP1 PUSH4 0x2852DF65 EQ PUSH2 0x701 JUMPI DUP1 PUSH4 0x2D838119 EQ PUSH2 0x76F JUMPI DUP1 PUSH4 0x30E0789E EQ PUSH2 0x7B1 JUMPI DUP1 PUSH4 0x313CE567 EQ PUSH2 0x81F JUMPI DUP1 PUSH4 0x32424AA3 EQ PUSH2 0x840 JUMPI PUSH2 0x2A0 JUMP JUMPDEST DUP1 PUSH4 0x104E81FF GT PUSH2 0x25D JUMPI DUP1 PUSH4 0x104E81FF EQ PUSH2 0x4E4 JUMPI DUP1 PUSH4 0x11902160 EQ PUSH2 0x552 JUMPI DUP1 PUSH4 0x13114A9D EQ PUSH2 0x59B JUMPI DUP1 PUSH4 0x16F1CC83 EQ PUSH2 0x5B9 JUMPI DUP1 PUSH4 0x18160DDD EQ PUSH2 0x627 JUMPI DUP1 PUSH4 0x184D894E EQ PUSH2 0x645 JUMPI PUSH2 0x2A0 JUMP JUMPDEST DUP1 PUSH4 0x24C2DDD EQ PUSH2 0x2A5 JUMPI DUP1 PUSH4 0x53AB182 EQ PUSH2 0x31D JUMPI DUP1 PUSH4 0x6FDDE03 EQ PUSH2 0x34B JUMPI DUP1 PUSH4 0x95EA7B3 EQ PUSH2 0x3CE JUMPI DUP1 PUSH4 0xB285B1F EQ PUSH2 0x432 JUMPI DUP1 PUSH4 0xCFC15F9 EQ PUSH2 0x48C JUMPI JUMPDEST PUSH1 0x0 DUP1 REVERT JUMPDEST PUSH2 0x307 PUSH1 0x4 DUP1 CALLDATASIZE SUB PUSH1 0x40 DUP2 LT ISZERO PUSH2 0x2BB JUMPI PUSH1 0x0 DUP1 REVERT JUMPDEST DUP2 ADD SWAP1 DUP1 DUP1 CALLDATALOAD PUSH20 0xFFFFFFFFFFFFFFFFFFFFFFFFFFFFFFFFFFFFFFFF AND SWAP1 PUSH1 0x20 ADD SWAP1 SWAP3 SWAP2 SWAP1 DUP1 CALLDATALOAD PUSH20 0xFFFFFFFFFFFFFFFFFFFFFFFFFFFFFFFFFFFFFFFF AND SWAP1 PUSH1 0x20 ADD SWAP1 SWAP3 SWAP2 SWAP1 POP POP POP PUSH2 0x1111 JUMP JUMPDEST PUSH1 0x40 MLOAD DUP1 DUP3 DUP2 MSTORE PUSH1 0x20 ADD SWAP2 POP POP PUSH1 0x40 MLOAD DUP1 SWAP2 SUB SWAP1 RETURN JUMPDEST PUSH2 0x349 PUSH1 0x4 DUP1 CALLDATASIZE SUB PUSH1 0x20 DUP2 LT ISZERO PUSH2 0x333 JUMPI PUSH1 0x0 DUP1 REVERT JUMPDEST DUP2 ADD SWAP1 DUP1 DUP1 CALLDATALOAD SWAP1 PUSH1 0x20 ADD SWAP1 SWAP3 SWAP2 SWAP1 POP POP POP PUSH2 0x1136 JUMP JUMPDEST STOP JUMPDEST PUSH2 0x353 PUSH2 0x12C6 JUMP JUMPDEST PUSH1 0x40 MLOAD DUP1 DUP1 PUSH1 0x20 ADD DUP3 DUP2 SUB DUP3 MSTORE DUP4 DUP2 DUP2 MLOAD DUP2 MSTORE PUSH1 0x20 ADD SWAP2 POP DUP1 MLOAD SWAP1 PUSH1 0x20 ADD SWAP1 DUP1 DUP4 DUP4 PUSH1 0x0 JUMPDEST DUP4 DUP2 LT ISZERO PUSH2 0x393 JUMPI DUP1 DUP3 ADD MLOAD DUP2 DUP5 ADD MSTORE PUSH1 0x20 DUP2 ADD SWAP1 POP PUSH2 0x378 JUMP JUMPDEST POP POP POP POP SWAP1 POP SWAP1 DUP2 ADD SWAP1 PUSH1 0x1F AND DUP1 ISZERO PUSH2 0x3C0 JUMPI DUP1 DUP3 SUB DUP1 MLOAD PUSH1 0x1 DUP4 PUSH1 0x20 SUB PUSH2 0x100 EXP SUB NOT AND DUP2 MSTORE PUSH1 0x20 ADD SWAP2 POP JUMPDEST POP SWAP3 POP POP POP PUSH1 0x40 MLOAD DUP1 SWAP2 SUB SWAP1 RETURN JUMPDEST PUSH2 0x41A PUSH1 0x4 DUP1 CALLDATASIZE SUB PUSH1 0x40 DUP2 LT ISZERO PUSH2 0x3E4 JUMPI PUSH1 0x0 DUP1 REVERT JUMPDEST DUP2 ADD SWAP1 DUP1 DUP1 CALLDATALOAD PUSH20 0xFFFFFFFFFFFFFFFFFFFFFFFFFFFFFFFFFFFFFFFF AND SWAP1 PUSH1 0x20 ADD SWAP1 SWAP3 SWAP2 SWAP1 DUP1 CALLDATALOAD SWAP1 PUSH1 0x20 ADD SWAP1 SWAP3 SWAP2 SWAP1 POP POP POP PUSH2 0x1368 JUMP JUMPDEST PUSH1 0x40 MLOAD DUP1 DUP3 ISZERO ISZERO DUP2 MSTORE PUSH1 0x20 ADD SWAP2 POP POP PUSH1 0x40 MLOAD DUP1 SWAP2 SUB SWAP1 RETURN JUMPDEST PUSH2 0x474 PUSH1 0x4 DUP1 CALLDATASIZE SUB PUSH1 0x20 DUP2 LT ISZERO PUSH2 0x448 JUMPI PUSH1 0x0 DUP1 REVERT JUMPDEST DUP2 ADD SWAP1 DUP1 DUP1 CALLDATALOAD PUSH20 0xFFFFFFFFFFFFFFFFFFFFFFFFFFFFFFFFFFFFFFFF AND SWAP1 PUSH1 0x20 ADD SWAP1 SWAP3 SWAP2 SWAP1 POP POP POP PUSH2 0x1386 JUMP JUMPDEST PUSH1 0x40 MLOAD DUP1 DUP3 ISZERO ISZERO DUP2 MSTORE PUSH1 0x20 ADD SWAP2 POP POP PUSH1 0x40 MLOAD DUP1 SWAP2 SUB SWAP1 RETURN JUMPDEST PUSH2 0x4CE PUSH1 0x4 DUP1 CALLDATASIZE SUB PUSH1 0x20 DUP2 LT ISZERO PUSH2 0x4A2 JUMPI PUSH1 0x0 DUP1 REVERT JUMPDEST DUP2 ADD SWAP1 DUP1 DUP1 CALLDATALOAD PUSH20 0xFFFFFFFFFFFFFFFFFFFFFFFFFFFFFFFFFFFFFFFF AND SWAP1 PUSH1 0x20 ADD SWAP1 SWAP3 SWAP2 SWAP1 POP POP POP PUSH2 0x13A6 JUMP JUMPDEST PUSH1 0x40 MLOAD DUP1 DUP3 DUP2 MSTORE PUSH1 0x20 ADD SWAP2 POP POP PUSH1 0x40 MLOAD DUP1 SWAP2 SUB SWAP1 RETURN JUMPDEST PUSH2 0x550 PUSH1 0x4 DUP1 CALLDATASIZE SUB PUSH1 0x60 DUP2 LT ISZERO PUSH2 0x4FA JUMPI PUSH1 0x0 DUP1 REVERT JUMPDEST DUP2 ADD SWAP1 DUP1 DUP1 CALLDATALOAD PUSH20 0xFFFFFFFFFFFFFFFFFFFFFFFFFFFFFFFFFFFFFFFF AND SWAP1 PUSH1 0x20 ADD SWAP1 SWAP3 SWAP2 SWAP1 DUP1 CALLDATALOAD PUSH20 0xFFFFFFFFFFFFFFFFFFFFFFFFFFFFFFFFFFFFFFFF AND SWAP1 PUSH1 0x20 ADD SWAP1 SWAP3 SWAP2 SWAP1 DUP1 CALLDATALOAD SWAP1 PUSH1 0x20 ADD SWAP1 SWAP3 SWAP2 SWAP1 POP POP POP PUSH2 0x13BE JUMP JUMPDEST STOP JUMPDEST PUSH2 0x57E PUSH1 0x4 DUP1 CALLDATASIZE SUB PUSH1 0x20 DUP2 LT ISZERO PUSH2 0x568 JUMPI PUSH1 0x0 DUP1 REVERT JUMPDEST DUP2 ADD SWAP1 DUP1 DUP1 CALLDATALOAD SWAP1 PUSH1 0x20 ADD SWAP1 SWAP3 SWAP2 SWAP1 POP POP POP PUSH2 0x15B5 JUMP JUMPDEST PUSH1 0x40 MLOAD DUP1 DUP4 DUP2 MSTORE PUSH1 0x20 ADD DUP3 DUP2 MSTORE PUSH1 0x20 ADD SWAP3 POP POP POP PUSH1 0x40 MLOAD DUP1 SWAP2 SUB SWAP1 RETURN JUMPDEST PUSH2 0x5A3 PUSH2 0x1607 JUMP JUMPDEST PUSH1 0x40 MLOAD DUP1 DUP3 DUP2 MSTORE PUSH1 0x20 ADD SWAP2 POP POP PUSH1 0x40 MLOAD DUP1 SWAP2 SUB SWAP1 RETURN JUMPDEST PUSH2 0x625 PUSH1 0x4 DUP1 CALLDATASIZE SUB PUSH1 0x60 DUP2 LT ISZERO PUSH2 0x5CF JUMPI PUSH1 0x0 DUP1 REVERT JUMPDEST DUP2 ADD SWAP1 DUP1 DUP1 CALLDATALOAD PUSH20 0xFFFFFFFFFFFFFFFFFFFFFFFFFFFFFFFFFFFFFFFF AND SWAP1 PUSH1 0x20 ADD SWAP1 SWAP3 SWAP2 SWAP1 DUP1 CALLDATALOAD PUSH20 0xFFFFFFFFFFFFFFFFFFFFFFFFFFFFFFFFFFFFFFFF AND SWAP1 PUSH1 0x20 ADD SWAP1 SWAP3 SWAP2 SWAP1 DUP1 CALLDATALOAD SWAP1 PUSH1 0x20 ADD SWAP1 SWAP3 SWAP2 SWAP1 POP POP POP PUSH2 0x1611 JUMP JUMPDEST STOP JUMPDEST PUSH2 0x62F PUSH2 0x1864 JUMP JUMPDEST PUSH1 0x40 MLOAD DUP1 DUP3 DUP2 MSTORE PUSH1 0x20 ADD SWAP2 POP POP PUSH1 0x40 MLOAD DUP1 SWAP2 SUB SWAP1 RETURN JUMPDEST PUSH2 0x67B PUSH1 0x4 DUP1 CALLDATASIZE SUB PUSH1 0x40 DUP2 LT ISZERO PUSH2 0x65B JUMPI PUSH1 0x0 DUP1 REVERT JUMPDEST DUP2 ADD SWAP1 DUP1 DUP1 CALLDATALOAD SWAP1 PUSH1 0x20 ADD SWAP1 SWAP3 SWAP2 SWAP1 DUP1 CALLDATALOAD SWAP1 PUSH1 0x20 ADD SWAP1 SWAP3 SWAP2 SWAP1 POP POP POP PUSH2 0x186D JUMP JUMPDEST STOP JUMPDEST PUSH2 0x6E9 PUSH1 0x4 DUP1 CALLDATASIZE SUB PUSH1 0x60 DUP2 LT ISZERO PUSH2 0x693 JUMPI PUSH1 0x0 DUP1 REVERT JUMPDEST DUP2 ADD SWAP1 DUP1 DUP1 CALLDATALOAD PUSH20 0xFFFFFFFFFFFFFFFFFFFFFFFFFFFFFFFFFFFFFFFF AND SWAP1 PUSH1 0x20 ADD SWAP1 SWAP3 SWAP2 SWAP1 DUP1 CALLDATALOAD PUSH20 0xFFFFFFFFFFFFFFFFFFFFFFFFFFFFFFFFFFFFFFFF AND SWAP1 PUSH1 0x20 ADD SWAP1 SWAP3 SWAP2 SWAP1 DUP1 CALLDATALOAD SWAP1 PUSH1 0x20 ADD SWAP1 SWAP3 SWAP2 SWAP1 POP POP POP PUSH2 0x18A7 JUMP JUMPDEST PUSH1 0x40 MLOAD DUP1 DUP3 ISZERO ISZERO DUP2 MSTORE PUSH1 0x20 ADD SWAP2 POP POP PUSH1 0x40 MLOAD DUP1 SWAP2 SUB SWAP1 RETURN JUMPDEST PUSH2 0x76D PUSH1 0x4 DUP1 CALLDATASIZE SUB PUSH1 0x60 DUP2 LT ISZERO PUSH2 0x717 JUMPI PUSH1 0x0 DUP1 REVERT JUMPDEST DUP2 ADD SWAP1 DUP1 DUP1 CALLDATALOAD PUSH20 0xFFFFFFFFFFFFFFFFFFFFFFFFFFFFFFFFFFFFFFFF AND SWAP1 PUSH1 0x20 ADD SWAP1 SWAP3 SWAP2 SWAP1 DUP1 CALLDATALOAD PUSH20 0xFFFFFFFFFFFFFFFFFFFFFFFFFFFFFFFFFFFFFFFF AND SWAP1 PUSH1 0x20 ADD SWAP1 SWAP3 SWAP2 SWAP1 DUP1 CALLDATALOAD SWAP1 PUSH1 0x20 ADD SWAP1 SWAP3 SWAP2 SWAP1 POP POP POP PUSH2 0x1980 JUMP JUMPDEST STOP JUMPDEST PUSH2 0x79B PUSH1 0x4 DUP1 CALLDATASIZE SUB PUSH1 0x20 DUP2 LT ISZERO PUSH2 0x785 JUMPI PUSH1 0x0 DUP1 REVERT JUMPDEST DUP2 ADD SWAP1 DUP1 DUP1 CALLDATALOAD SWAP1 PUSH1 0x20 ADD SWAP1 SWAP3 SWAP2 SWAP1 POP POP POP PUSH2 0x1B3E JUMP JUMPDEST PUSH1 0x40 MLOAD DUP1 DUP3 DUP2 MSTORE PUSH1 0x20 ADD SWAP2 POP POP PUSH1 0x40 MLOAD DUP1 SWAP2 SUB SWAP1 RETURN JUMPDEST PUSH2 0x81D PUSH1 0x4 DUP1 CALLDATASIZE SUB PUSH1 0x60 DUP2 LT ISZERO PUSH2 0x7C7 JUMPI PUSH1 0x0 DUP1 REVERT JUMPDEST DUP2 ADD SWAP1 DUP1 DUP1 CALLDATALOAD PUSH20 0xFFFFFFFFFFFFFFFFFFFFFFFFFFFFFFFFFFFFFFFF AND SWAP1 PUSH1 0x20 ADD SWAP1 SWAP3 SWAP2 SWAP1 DUP1 CALLDATALOAD PUSH20 0xFFFFFFFFFFFFFFFFFFFFFFFFFFFFFFFFFFFFFFFF AND SWAP1 PUSH1 0x20 ADD SWAP1 SWAP3 SWAP2 SWAP1 DUP1 CALLDATALOAD SWAP1 PUSH1 0x20 ADD SWAP1 SWAP3 SWAP2 SWAP1 POP POP POP PUSH2 0x1BC2 JUMP JUMPDEST STOP JUMPDEST PUSH2 0x827 PUSH2 0x201B JUMP JUMPDEST PUSH1 0x40 MLOAD DUP1 DUP3 PUSH1 0xFF AND DUP2 MSTORE PUSH1 0x20 ADD SWAP2 POP POP PUSH1 0x40 MLOAD DUP1 SWAP2 SUB SWAP1 RETURN JUMPDEST PUSH2 0x848 PUSH2 0x2032 JUMP JUMPDEST PUSH1 0x40 MLOAD DUP1 DUP3 PUSH1 0xFF AND DUP2 MSTORE PUSH1 0x20 ADD SWAP2 POP POP PUSH1 0x40 MLOAD DUP1 SWAP2 SUB SWAP1 RETURN JUMPDEST PUSH2 0x8AD PUSH1 0x4 DUP1 CALLDATASIZE SUB PUSH1 0x40 DUP2 LT ISZERO PUSH2 0x877 JUMPI PUSH1 0x0 DUP1 REVERT JUMPDEST DUP2 ADD SWAP1 DUP1 DUP1 CALLDATALOAD PUSH20 0xFFFFFFFFFFFFFFFFFFFFFFFFFFFFFFFFFFFFFFFF AND SWAP1 PUSH1 0x20 ADD SWAP1 SWAP3 SWAP2 SWAP1 DUP1 CALLDATALOAD SWAP1 PUSH1 0x20 ADD SWAP1 SWAP3 SWAP2 SWAP1 POP POP POP PUSH2 0x2045 JUMP JUMPDEST PUSH1 0x40 MLOAD DUP1 DUP3 ISZERO ISZERO DUP2 MSTORE PUSH1 0x20 ADD SWAP2 POP POP PUSH1 0x40 MLOAD DUP1 SWAP2 SUB SWAP1 RETURN JUMPDEST PUSH2 0x907 PUSH1 0x4 DUP1 CALLDATASIZE SUB PUSH1 0x20 DUP2 LT ISZERO PUSH2 0x8DB JUMPI PUSH1 0x0 DUP1 REVERT JUMPDEST DUP2 ADD SWAP1 DUP1 DUP1 CALLDATALOAD PUSH20 0xFFFFFFFFFFFFFFFFFFFFFFFFFFFFFFFFFFFFFFFF AND SWAP1 PUSH1 0x20 ADD SWAP1 SWAP3 SWAP2 SWAP1 POP POP POP PUSH2 0x20F8 JUMP JUMPDEST PUSH1 0x40 MLOAD DUP1 DUP3 DUP2 MSTORE PUSH1 0x20 ADD SWAP2 POP POP PUSH1 0x40 MLOAD DUP1 SWAP2 SUB SWAP1 RETURN JUMPDEST PUSH2 0x955 PUSH1 0x4 DUP1 CALLDATASIZE SUB PUSH1 0x40 DUP2 LT ISZERO PUSH2 0x933 JUMPI PUSH1 0x0 DUP1 REVERT JUMPDEST DUP2 ADD SWAP1 DUP1 DUP1 CALLDATALOAD SWAP1 PUSH1 0x20 ADD SWAP1 SWAP3 SWAP2 SWAP1 DUP1 CALLDATALOAD ISZERO ISZERO SWAP1 PUSH1 0x20 ADD SWAP1 SWAP3 SWAP2 SWAP1 POP POP POP PUSH2 0x2110 JUMP JUMPDEST PUSH1 0x40 MLOAD DUP1 DUP3 DUP2 MSTORE PUSH1 0x20 ADD SWAP2 POP POP PUSH1 0x40 MLOAD DUP1 SWAP2 SUB SWAP1 RETURN JUMPDEST PUSH2 0x973 PUSH2 0x21C4 JUMP JUMPDEST PUSH1 0x40 MLOAD DUP1 DUP3 DUP2 MSTORE PUSH1 0x20 ADD SWAP2 POP POP PUSH1 0x40 MLOAD DUP1 SWAP2 SUB SWAP1 RETURN JUMPDEST PUSH2 0x9B5 PUSH1 0x4 DUP1 CALLDATASIZE SUB PUSH1 0x20 DUP2 LT ISZERO PUSH2 0x99F JUMPI PUSH1 0x0 DUP1 REVERT JUMPDEST DUP2 ADD SWAP1 DUP1 DUP1 CALLDATALOAD SWAP1 PUSH1 0x20 ADD SWAP1 SWAP3 SWAP2 SWAP1 POP POP POP PUSH2 0x21CA JUMP JUMPDEST PUSH1 0x40 MLOAD DUP1 DUP3 PUSH20 0xFFFFFFFFFFFFFFFFFFFFFFFFFFFFFFFFFFFFFFFF AND DUP2 MSTORE PUSH1 0x20 ADD SWAP2 POP POP PUSH1 0x40 MLOAD DUP1 SWAP2 SUB SWAP1 RETURN JUMPDEST PUSH2 0xA4D PUSH1 0x4 DUP1 CALLDATASIZE SUB PUSH1 0x60 DUP2 LT ISZERO PUSH2 0x9F7 JUMPI PUSH1 0x0 DUP1 REVERT JUMPDEST DUP2 ADD SWAP1 DUP1 DUP1 CALLDATALOAD PUSH20 0xFFFFFFFFFFFFFFFFFFFFFFFFFFFFFFFFFFFFFFFF AND SWAP1 PUSH1 0x20 ADD SWAP1 SWAP3 SWAP2 SWAP1 DUP1 CALLDATALOAD PUSH20 0xFFFFFFFFFFFFFFFFFFFFFFFFFFFFFFFFFFFFFFFF AND SWAP1 PUSH1 0x20 ADD SWAP1 SWAP3 SWAP2 SWAP1 DUP1 CALLDATALOAD SWAP1 PUSH1 0x20 ADD SWAP1 SWAP3 SWAP2 SWAP1 POP POP POP PUSH2 0x2206 JUMP JUMPDEST STOP JUMPDEST PUSH2 0xA91 PUSH1 0x4 DUP1 CALLDATASIZE SUB PUSH1 0x20 DUP2 LT ISZERO PUSH2 0xA65 JUMPI PUSH1 0x0 DUP1 REVERT JUMPDEST DUP2 ADD SWAP1 DUP1 DUP1 CALLDATALOAD PUSH20 0xFFFFFFFFFFFFFFFFFFFFFFFFFFFFFFFFFFFFFFFF AND SWAP1 PUSH1 0x20 ADD SWAP1 SWAP3 SWAP2 SWAP1 POP POP POP PUSH2 0x24EE JUMP JUMPDEST PUSH1 0x40 MLOAD DUP1 DUP3 DUP2 MSTORE PUSH1 0x20 ADD SWAP2 POP POP PUSH1 0x40 MLOAD DUP1 SWAP2 SUB SWAP1 RETURN JUMPDEST PUSH2 0xAAF PUSH2 0x25D9 JUMP JUMPDEST PUSH1 0x40 MLOAD DUP1 DUP3 DUP2 MSTORE PUSH1 0x20 ADD SWAP2 POP POP PUSH1 0x40 MLOAD DUP1 SWAP2 SUB SWAP1 RETURN JUMPDEST PUSH2 0xACD PUSH2 0x25DF JUMP JUMPDEST STOP JUMPDEST PUSH2 0xAD7 PUSH2 0x2765 JUMP JUMPDEST PUSH1 0x40 MLOAD DUP1 DUP3 PUSH20 0xFFFFFFFFFFFFFFFFFFFFFFFFFFFFFFFFFFFFFFFF AND DUP2 MSTORE PUSH1 0x20 ADD SWAP2 POP POP PUSH1 0x40 MLOAD DUP1 SWAP2 SUB SWAP1 RETURN JUMPDEST PUSH2 0xB0B PUSH2 0x278E JUMP JUMPDEST PUSH1 0x40 MLOAD DUP1 DUP3 DUP2 MSTORE PUSH1 0x20 ADD SWAP2 POP POP PUSH1 0x40 MLOAD DUP1 SWAP2 SUB SWAP1 RETURN JUMPDEST PUSH2 0xB29 PUSH2 0x27B9 JUMP JUMPDEST PUSH1 0x40 MLOAD DUP1 DUP1 PUSH1 0x20 ADD DUP3 DUP2 SUB DUP3 MSTORE DUP4 DUP2 DUP2 MLOAD DUP2 MSTORE PUSH1 0x20 ADD SWAP2 POP DUP1 MLOAD SWAP1 PUSH1 0x20 ADD SWAP1 DUP1 DUP4 DUP4 PUSH1 0x0 JUMPDEST DUP4 DUP2 LT ISZERO PUSH2 0xB69 JUMPI DUP1 DUP3 ADD MLOAD DUP2 DUP5 ADD MSTORE PUSH1 0x20 DUP2 ADD SWAP1 POP PUSH2 0xB4E JUMP JUMPDEST POP POP POP POP SWAP1 POP SWAP1 DUP2 ADD SWAP1 PUSH1 0x1F AND DUP1 ISZERO PUSH2 0xB96 JUMPI DUP1 DUP3 SUB DUP1 MLOAD PUSH1 0x1 DUP4 PUSH1 0x20 SUB PUSH2 0x100 EXP SUB NOT AND DUP2 MSTORE PUSH1 0x20 ADD SWAP2 POP JUMPDEST POP SWAP3 POP POP POP PUSH1 0x40 MLOAD DUP1 SWAP2 SUB SWAP1 RETURN JUMPDEST PUSH2 0xBAC PUSH2 0x285B JUMP JUMPDEST PUSH1 0x40 MLOAD DUP1 DUP4 DUP2 MSTORE PUSH1 0x20 ADD DUP3 DUP2 MSTORE PUSH1 0x20 ADD SWAP3 POP POP POP PUSH1 0x40 MLOAD DUP1 SWAP2 SUB SWAP1 RETURN JUMPDEST PUSH2 0xC15 PUSH1 0x4 DUP1 CALLDATASIZE SUB PUSH1 0x40 DUP2 LT ISZERO PUSH2 0xBDF JUMPI PUSH1 0x0 DUP1 REVERT JUMPDEST DUP2 ADD SWAP1 DUP1 DUP1 CALLDATALOAD PUSH20 0xFFFFFFFFFFFFFFFFFFFFFFFFFFFFFFFFFFFFFFFF AND SWAP1 PUSH1 0x20 ADD SWAP1 SWAP3 SWAP2 SWAP1 DUP1 CALLDATALOAD SWAP1 PUSH1 0x20 ADD SWAP1 SWAP3 SWAP2 SWAP1 POP POP POP PUSH2 0x2AE8 JUMP JUMPDEST PUSH1 0x40 MLOAD DUP1 DUP3 ISZERO ISZERO DUP2 MSTORE PUSH1 0x20 ADD SWAP2 POP POP PUSH1 0x40 MLOAD DUP1 SWAP2 SUB SWAP1 RETURN JUMPDEST PUSH2 0xC79 PUSH1 0x4 DUP1 CALLDATASIZE SUB PUSH1 0x40 DUP2 LT ISZERO PUSH2 0xC43 JUMPI PUSH1 0x0 DUP1 REVERT JUMPDEST DUP2 ADD SWAP1 DUP1 DUP1 CALLDATALOAD PUSH20 0xFFFFFFFFFFFFFFFFFFFFFFFFFFFFFFFFFFFFFFFF AND SWAP1 PUSH1 0x20 ADD SWAP1 SWAP3 SWAP2 SWAP1 DUP1 CALLDATALOAD SWAP1 PUSH1 0x20 ADD SWAP1 SWAP3 SWAP2 SWAP1 POP POP POP PUSH2 0x2BB5 JUMP JUMPDEST PUSH1 0x40 MLOAD DUP1 DUP3 ISZERO ISZERO DUP2 MSTORE PUSH1 0x20 ADD SWAP2 POP POP PUSH1 0x40 MLOAD DUP1 SWAP2 SUB SWAP1 RETURN JUMPDEST PUSH2 0xC99 PUSH2 0x2BD3 JUMP JUMPDEST PUSH1 0x40 MLOAD DUP1 DUP3 DUP2 MSTORE PUSH1 0x20 ADD SWAP2 POP POP PUSH1 0x40 MLOAD DUP1 SWAP2 SUB SWAP1 RETURN JUMPDEST PUSH2 0xCB7 PUSH2 0x2BD8 JUMP JUMPDEST PUSH1 0x40 MLOAD DUP1 DUP1 PUSH1 0x20 ADD DUP3 DUP2 SUB DUP3 MSTORE DUP4 DUP2 DUP2 MLOAD DUP2 MSTORE PUSH1 0x20 ADD SWAP2 POP DUP1 MLOAD SWAP1 PUSH1 0x20 ADD SWAP1 DUP1 DUP4 DUP4 PUSH1 0x0 JUMPDEST DUP4 DUP2 LT ISZERO PUSH2 0xCF7 JUMPI DUP1 DUP3 ADD MLOAD DUP2 DUP5 ADD MSTORE PUSH1 0x20 DUP2 ADD SWAP1 POP PUSH2 0xCDC JUMP JUMPDEST POP POP POP POP SWAP1 POP SWAP1 DUP2 ADD SWAP1 PUSH1 0x1F AND DUP1 ISZERO PUSH2 0xD24 JUMPI DUP1 DUP3 SUB DUP1 MLOAD PUSH1 0x1 DUP4 PUSH1 0x20 SUB PUSH2 0x100 EXP SUB NOT AND DUP2 MSTORE PUSH1 0x20 ADD SWAP2 POP JUMPDEST POP SWAP3 POP POP POP PUSH1 0x40 MLOAD DUP1 SWAP2 SUB SWAP1 RETURN JUMPDEST PUSH2 0xD3A PUSH2 0x2C76 JUMP JUMPDEST PUSH1 0x40 MLOAD DUP1 DUP3 PUSH20 0xFFFFFFFFFFFFFFFFFFFFFFFFFFFFFFFFFFFFFFFF AND DUP2 MSTORE PUSH1 0x20 ADD SWAP2 POP POP PUSH1 0x40 MLOAD DUP1 SWAP2 SUB SWAP1 RETURN JUMPDEST PUSH2 0xDA6 PUSH1 0x4 DUP1 CALLDATASIZE SUB PUSH1 0x60 DUP2 LT ISZERO PUSH2 0xD7C JUMPI PUSH1 0x0 DUP1 REVERT JUMPDEST DUP2 ADD SWAP1 DUP1 DUP1 CALLDATALOAD SWAP1 PUSH1 0x20 ADD SWAP1 SWAP3 SWAP2 SWAP1 DUP1 CALLDATALOAD SWAP1 PUSH1 0x20 ADD SWAP1 SWAP3 SWAP2 SWAP1 DUP1 CALLDATALOAD SWAP1 PUSH1 0x20 ADD SWAP1 SWAP3 SWAP2 SWAP1 POP POP POP PUSH2 0x2C9A JUMP JUMPDEST PUSH1 0x40 MLOAD DUP1 DUP5 DUP2 MSTORE PUSH1 0x20 ADD DUP4 DUP2 MSTORE PUSH1 0x20 ADD DUP3 DUP2 MSTORE PUSH1 0x20 ADD SWAP4 POP POP POP POP PUSH1 0x40 MLOAD DUP1 SWAP2 SUB SWAP1 RETURN JUMPDEST PUSH2 0xE36 PUSH1 0x4 DUP1 CALLDATASIZE SUB PUSH1 0x60 DUP2 LT ISZERO PUSH2 0xDE0 JUMPI PUSH1 0x0 DUP1 REVERT JUMPDEST DUP2 ADD SWAP1 DUP1 DUP1 CALLDATALOAD PUSH20 0xFFFFFFFFFFFFFFFFFFFFFFFFFFFFFFFFFFFFFFFF AND SWAP1 PUSH1 0x20 ADD SWAP1 SWAP3 SWAP2 SWAP1 DUP1 CALLDATALOAD PUSH20 0xFFFFFFFFFFFFFFFFFFFFFFFFFFFFFFFFFFFFFFFF AND SWAP1 PUSH1 0x20 ADD SWAP1 SWAP3 SWAP2 SWAP1 DUP1 CALLDATALOAD SWAP1 PUSH1 0x20 ADD SWAP1 SWAP3 SWAP2 SWAP1 POP POP POP PUSH2 0x2CF8 JUMP JUMPDEST STOP JUMPDEST PUSH2 0xE40 PUSH2 0x2F4B JUMP JUMPDEST PUSH1 0x40 MLOAD DUP1 DUP3 DUP2 MSTORE PUSH1 0x20 ADD SWAP2 POP POP PUSH1 0x40 MLOAD DUP1 SWAP2 SUB SWAP1 RETURN JUMPDEST PUSH2 0xE98 PUSH1 0x4 DUP1 CALLDATASIZE SUB PUSH1 0x20 DUP2 LT ISZERO PUSH2 0xE6C JUMPI PUSH1 0x0 DUP1 REVERT JUMPDEST DUP2 ADD SWAP1 DUP1 DUP1 CALLDATALOAD PUSH20 0xFFFFFFFFFFFFFFFFFFFFFFFFFFFFFFFFFFFFFFFF AND SWAP1 PUSH1 0x20 ADD SWAP1 SWAP3 SWAP2 SWAP1 POP POP POP PUSH2 0x2F70 JUMP JUMPDEST PUSH1 0x40 MLOAD DUP1 DUP3 ISZERO ISZERO DUP2 MSTORE PUSH1 0x20 ADD SWAP2 POP POP PUSH1 0x40 MLOAD DUP1 SWAP2 SUB SWAP1 RETURN JUMPDEST PUSH2 0xEB8 PUSH2 0x2FC6 JUMP JUMPDEST PUSH1 0x40 MLOAD DUP1 DUP1 PUSH1 0x20 ADD DUP3 DUP2 SUB DUP3 MSTORE DUP4 DUP2 DUP2 MLOAD DUP2 MSTORE PUSH1 0x20 ADD SWAP2 POP DUP1 MLOAD SWAP1 PUSH1 0x20 ADD SWAP1 DUP1 DUP4 DUP4 PUSH1 0x0 JUMPDEST DUP4 DUP2 LT ISZERO PUSH2 0xEF8 JUMPI DUP1 DUP3 ADD MLOAD DUP2 DUP5 ADD MSTORE PUSH1 0x20 DUP2 ADD SWAP1 POP PUSH2 0xEDD JUMP JUMPDEST POP POP POP POP SWAP1 POP SWAP1 DUP2 ADD SWAP1 PUSH1 0x1F AND DUP1 ISZERO PUSH2 0xF25 JUMPI DUP1 DUP3 SUB DUP1 MLOAD PUSH1 0x1 DUP4 PUSH1 0x20 SUB PUSH2 0x100 EXP SUB NOT AND DUP2 MSTORE PUSH1 0x20 ADD SWAP2 POP JUMPDEST POP SWAP3 POP POP POP PUSH1 0x40 MLOAD DUP1 SWAP2 SUB SWAP1 RETURN JUMPDEST PUSH2 0xF5F PUSH1 0x4 DUP1 CALLDATASIZE SUB PUSH1 0x20 DUP2 LT ISZERO PUSH2 0xF49 JUMPI PUSH1 0x0 DUP1 REVERT JUMPDEST DUP2 ADD SWAP1 DUP1 DUP1 CALLDATALOAD SWAP1 PUSH1 0x20 ADD SWAP1 SWAP3 SWAP2 SWAP1 POP POP POP PUSH2 0x3064 JUMP JUMPDEST PUSH1 0x40 MLOAD DUP1 DUP7 DUP2 MSTORE PUSH1 0x20 ADD DUP6 DUP2 MSTORE PUSH1 0x20 ADD DUP5 DUP2 MSTORE PUSH1 0x20 ADD DUP4 DUP2 MSTORE PUSH1 0x20 ADD DUP3 DUP2 MSTORE PUSH1 0x20 ADD SWAP6 POP POP POP POP POP POP PUSH1 0x40 MLOAD DUP1 SWAP2 SUB SWAP1 RETURN JUMPDEST PUSH2 0xF99 PUSH2 0x30BC JUMP JUMPDEST PUSH1 0x40 MLOAD DUP1 DUP3 DUP2 MSTORE PUSH1 0x20 ADD SWAP2 POP POP PUSH1 0x40 MLOAD DUP1 SWAP2 SUB SWAP1 RETURN JUMPDEST PUSH2 0x1011 PUSH1 0x4 DUP1 CALLDATASIZE SUB PUSH1 0x40 DUP2 LT ISZERO PUSH2 0xFC5 JUMPI PUSH1 0x0 DUP1 REVERT JUMPDEST DUP2 ADD SWAP1 DUP1 DUP1 CALLDATALOAD PUSH20 0xFFFFFFFFFFFFFFFFFFFFFFFFFFFFFFFFFFFFFFFF AND SWAP1 PUSH1 0x20 ADD SWAP1 SWAP3 SWAP2 SWAP1 DUP1 CALLDATALOAD PUSH20 0xFFFFFFFFFFFFFFFFFFFFFFFFFFFFFFFFFFFFFFFF AND SWAP1 PUSH1 0x20 ADD SWAP1 SWAP3 SWAP2 SWAP1 POP POP POP PUSH2 0x30C2 JUMP JUMPDEST PUSH1 0x40 MLOAD DUP1 DUP3 DUP2 MSTORE PUSH1 0x20 ADD SWAP2 POP POP PUSH1 0x40 MLOAD DUP1 SWAP2 SUB SWAP1 RETURN JUMPDEST PUSH2 0x1069 PUSH1 0x4 DUP1 CALLDATASIZE SUB PUSH1 0x20 DUP2 LT ISZERO PUSH2 0x103D JUMPI PUSH1 0x0 DUP1 REVERT JUMPDEST DUP2 ADD SWAP1 DUP1 DUP1 CALLDATALOAD PUSH20 0xFFFFFFFFFFFFFFFFFFFFFFFFFFFFFFFFFFFFFFFF AND SWAP1 PUSH1 0x20 ADD SWAP1 SWAP3 SWAP2 SWAP1 POP POP POP PUSH2 0x3149 JUMP JUMPDEST STOP JUMPDEST PUSH2 0x10AD PUSH1 0x4 DUP1 CALLDATASIZE SUB PUSH1 0x20 DUP2 LT ISZERO PUSH2 0x1081 JUMPI PUSH1 0x0 DUP1 REVERT JUMPDEST DUP2 ADD SWAP1 DUP1 DUP1 CALLDATALOAD PUSH20 0xFFFFFFFFFFFFFFFFFFFFFFFFFFFFFFFFFFFFFFFF AND SWAP1 PUSH1 0x20 ADD SWAP1 SWAP3 SWAP2 SWAP1 POP POP POP PUSH2 0x3463 JUMP JUMPDEST STOP JUMPDEST PUSH2 0x10F1 PUSH1 0x4 DUP1 CALLDATASIZE SUB PUSH1 0x20 DUP2 LT ISZERO PUSH2 0x10C5 JUMPI PUSH1 0x0 DUP1 REVERT JUMPDEST DUP2 ADD SWAP1 DUP1 DUP1 CALLDATALOAD PUSH20 0xFFFFFFFFFFFFFFFFFFFFFFFFFFFFFFFFFFFFFFFF AND SWAP1 PUSH1 0x20 ADD SWAP1 SWAP3 SWAP2 SWAP1 POP POP POP PUSH2 0x366E JUMP JUMPDEST STOP JUMPDEST PUSH2 0x10FB PUSH2 0x39F8 JUMP JUMPDEST PUSH1 0x40 MLOAD DUP1 DUP3 DUP2 MSTORE PUSH1 0x20 ADD SWAP2 POP POP PUSH1 0x40 MLOAD DUP1 SWAP2 SUB SWAP1 RETURN JUMPDEST PUSH1 0x3 PUSH1 0x20 MSTORE DUP2 PUSH1 0x0 MSTORE PUSH1 0x40 PUSH1 0x0 KECCAK256 PUSH1 0x20 MSTORE DUP1 PUSH1 0x0 MSTORE PUSH1 0x40 PUSH1 0x0 KECCAK256 PUSH1 0x0 SWAP2 POP SWAP2 POP POP SLOAD DUP2 JUMP JUMPDEST PUSH1 0x0 PUSH2 0x1140 PUSH2 0x39FE JUMP JUMPDEST SWAP1 POP PUSH1 0x4 PUSH1 0x0 DUP3 PUSH20 0xFFFFFFFFFFFFFFFFFFFFFFFFFFFFFFFFFFFFFFFF AND PUSH20 0xFFFFFFFFFFFFFFFFFFFFFFFFFFFFFFFFFFFFFFFF AND DUP2 MSTORE PUSH1 0x20 ADD SWAP1 DUP2 MSTORE PUSH1 0x20 ADD PUSH1 0x0 KECCAK256 PUSH1 0x0 SWAP1 SLOAD SWAP1 PUSH2 0x100 EXP SWAP1 DIV PUSH1 0xFF AND ISZERO PUSH2 0x11E5 JUMPI PUSH1 0x40 MLOAD PUSH32 0x8C379A000000000000000000000000000000000000000000000000000000000 DUP2 MSTORE PUSH1 0x4 ADD DUP1 DUP1 PUSH1 0x20 ADD DUP3 DUP2 SUB DUP3 MSTORE PUSH1 0x2C DUP2 MSTORE PUSH1 0x20 ADD DUP1 PUSH2 0x3E7F PUSH1 0x2C SWAP2 CODECOPY PUSH1 0x40 ADD SWAP2 POP POP PUSH1 0x40 MLOAD DUP1 SWAP2 SUB SWAP1 REVERT JUMPDEST PUSH1 0x0 PUSH2 0x11F0 DUP4 PUSH2 0x3064 JUMP JUMPDEST POP POP POP POP SWAP1 POP PUSH2 0x1248 DUP2 PUSH1 0x1 PUSH1 0x0 DUP6 PUSH20 0xFFFFFFFFFFFFFFFFFFFFFFFFFFFFFFFFFFFFFFFF AND PUSH20 0xFFFFFFFFFFFFFFFFFFFFFFFFFFFFFFFFFFFFFFFF AND DUP2 MSTORE PUSH1 0x20 ADD SWAP1 DUP2 MSTORE PUSH1 0x20 ADD PUSH1 0x0 KECCAK256 SLOAD PUSH2 0x3A06 SWAP1 SWAP2 SWAP1 PUSH4 0xFFFFFFFF AND JUMP JUMPDEST PUSH1 0x1 PUSH1 0x0 DUP5 PUSH20 0xFFFFFFFFFFFFFFFFFFFFFFFFFFFFFFFFFFFFFFFF AND PUSH20 0xFFFFFFFFFFFFFFFFFFFFFFFFFFFFFFFFFFFFFFFF AND DUP2 MSTORE PUSH1 0x20 ADD SWAP1 DUP2 MSTORE PUSH1 0x20 ADD PUSH1 0x0 KECCAK256 DUP2 SWAP1 SSTORE POP PUSH2 0x12A0 DUP2 PUSH1 0x8 SLOAD PUSH2 0x3A06 SWAP1 SWAP2 SWAP1 PUSH4 0xFFFFFFFF AND JUMP JUMPDEST PUSH1 0x8 DUP2 SWAP1 SSTORE POP PUSH2 0x12BB DUP4 PUSH1 0x9 SLOAD PUSH2 0x3A50 SWAP1 SWAP2 SWAP1 PUSH4 0xFFFFFFFF AND JUMP JUMPDEST PUSH1 0x9 DUP2 SWAP1 SSTORE POP POP POP POP JUMP JUMPDEST PUSH1 0x60 PUSH1 0xA DUP1 SLOAD PUSH1 0x1 DUP2 PUSH1 0x1 AND ISZERO PUSH2 0x100 MUL SUB AND PUSH1 0x2 SWAP1 DIV DUP1 PUSH1 0x1F ADD PUSH1 0x20 DUP1 SWAP2 DIV MUL PUSH1 0x20 ADD PUSH1 0x40 MLOAD SWAP1 DUP2 ADD PUSH1 0x40 MSTORE DUP1 SWAP3 SWAP2 SWAP1 DUP2 DUP2 MSTORE PUSH1 0x20 ADD DUP3 DUP1 SLOAD PUSH1 0x1 DUP2 PUSH1 0x1 AND ISZERO PUSH2 0x100 MUL SUB AND PUSH1 0x2 SWAP1 DIV DUP1 ISZERO PUSH2 0x135E JUMPI DUP1 PUSH1 0x1F LT PUSH2 0x1333 JUMPI PUSH2 0x100 DUP1 DUP4 SLOAD DIV MUL DUP4 MSTORE SWAP2 PUSH1 0x20 ADD SWAP2 PUSH2 0x135E JUMP JUMPDEST DUP3 ADD SWAP2 SWAP1 PUSH1 0x0 MSTORE PUSH1 0x20 PUSH1 0x0 KECCAK256 SWAP1 JUMPDEST DUP2 SLOAD DUP2 MSTORE SWAP1 PUSH1 0x1 ADD SWAP1 PUSH1 0x20 ADD DUP1 DUP4 GT PUSH2 0x1341 JUMPI DUP3 SWAP1 SUB PUSH1 0x1F AND DUP3 ADD SWAP2 JUMPDEST POP POP POP POP POP SWAP1 POP SWAP1 JUMP JUMPDEST PUSH1 0x0 PUSH2 0x137C PUSH2 0x1375 PUSH2 0x39FE JUMP JUMPDEST DUP5 DUP5 PUSH2 0x13BE JUMP JUMPDEST PUSH1 0x1 SWAP1 POP SWAP3 SWAP2 POP POP JUMP JUMPDEST PUSH1 0x4 PUSH1 0x20 MSTORE DUP1 PUSH1 0x0 MSTORE PUSH1 0x40 PUSH1 0x0 KECCAK256 PUSH1 0x0 SWAP2 POP SLOAD SWAP1 PUSH2 0x100 EXP SWAP1 DIV PUSH1 0xFF AND DUP2 JUMP JUMPDEST PUSH1 0x1 PUSH1 0x20 MSTORE DUP1 PUSH1 0x0 MSTORE PUSH1 0x40 PUSH1 0x0 KECCAK256 PUSH1 0x0 SWAP2 POP SWAP1 POP SLOAD DUP2 JUMP JUMPDEST PUSH1 0x0 PUSH20 0xFFFFFFFFFFFFFFFFFFFFFFFFFFFFFFFFFFFFFFFF AND DUP4 PUSH20 0xFFFFFFFFFFFFFFFFFFFFFFFFFFFFFFFFFFFFFFFF AND EQ ISZERO PUSH2 0x1444 JUMPI PUSH1 0x40 MLOAD PUSH32 0x8C379A000000000000000000000000000000000000000000000000000000000 DUP2 MSTORE PUSH1 0x4 ADD DUP1 DUP1 PUSH1 0x20 ADD DUP3 DUP2 SUB DUP3 MSTORE PUSH1 0x24 DUP2 MSTORE PUSH1 0x20 ADD DUP1 PUSH2 0x3E5B PUSH1 0x24 SWAP2 CODECOPY PUSH1 0x40 ADD SWAP2 POP POP PUSH1 0x40 MLOAD DUP1 SWAP2 SUB SWAP1 REVERT JUMPDEST PUSH1 0x0 PUSH20 0xFFFFFFFFFFFFFFFFFFFFFFFFFFFFFFFFFFFFFFFF AND DUP3 PUSH20 0xFFFFFFFFFFFFFFFFFFFFFFFFFFFFFFFFFFFFFFFF AND EQ ISZERO PUSH2 0x14CA JUMPI PUSH1 0x40 MLOAD PUSH32 0x8C379A000000000000000000000000000000000000000000000000000000000 DUP2 MSTORE PUSH1 0x4 ADD DUP1 DUP1 PUSH1 0x20 ADD DUP3 DUP2 SUB DUP3 MSTORE PUSH1 0x22 DUP2 MSTORE PUSH1 0x20 ADD DUP1 PUSH2 0x3DA2 PUSH1 0x22 SWAP2 CODECOPY PUSH1 0x40 ADD SWAP2 POP POP PUSH1 0x40 MLOAD DUP1 SWAP2 SUB SWAP1 REVERT JUMPDEST DUP1 PUSH1 0x3 PUSH1 0x0 DUP6 PUSH20 0xFFFFFFFFFFFFFFFFFFFFFFFFFFFFFFFFFFFFFFFF AND PUSH20 0xFFFFFFFFFFFFFFFFFFFFFFFFFFFFFFFFFFFFFFFF AND DUP2 MSTORE PUSH1 0x20 ADD SWAP1 DUP2 MSTORE PUSH1 0x20 ADD PUSH1 0x0 KECCAK256 PUSH1 0x0 DUP5 PUSH20 0xFFFFFFFFFFFFFFFFFFFFFFFFFFFFFFFFFFFFFFFF AND PUSH20 0xFFFFFFFFFFFFFFFFFFFFFFFFFFFFFFFFFFFFFFFF AND DUP2 MSTORE PUSH1 0x20 ADD SWAP1 DUP2 MSTORE PUSH1 0x20 ADD PUSH1 0x0 KECCAK256 DUP2 SWAP1 SSTORE POP DUP2 PUSH20 0xFFFFFFFFFFFFFFFFFFFFFFFFFFFFFFFFFFFFFFFF AND DUP4 PUSH20 0xFFFFFFFFFFFFFFFFFFFFFFFFFFFFFFFFFFFFFFFF AND PUSH32 0x8C5BE1E5EBEC7D5BD14F71427D1E84F3DD0314C0F7B2291E5B200AC8C7C3B925 DUP4 PUSH1 0x40 MLOAD DUP1 DUP3 DUP2 MSTORE PUSH1 0x20 ADD SWAP2 POP POP PUSH1 0x40 MLOAD DUP1 SWAP2 SUB SWAP1 LOG3 POP POP POP JUMP JUMPDEST PUSH1 0x0 DUP1 PUSH1 0x0 PUSH2 0x15E1 PUSH1 0x2 PUSH2 0x15D3 PUSH1 0xA DUP8 PUSH2 0x3AD8 SWAP1 SWAP2 SWAP1 PUSH4 0xFFFFFFFF AND JUMP JUMPDEST PUSH2 0x3B22 SWAP1 SWAP2 SWAP1 PUSH4 0xFFFFFFFF AND JUMP JUMPDEST SWAP1 POP PUSH1 0x0 PUSH2 0x15F8 DUP3 DUP7 PUSH2 0x3A06 SWAP1 SWAP2 SWAP1 PUSH4 0xFFFFFFFF AND JUMP JUMPDEST SWAP1 POP DUP1 DUP3 SWAP4 POP SWAP4 POP POP POP SWAP2 POP SWAP2 JUMP JUMPDEST PUSH1 0x0 PUSH1 0x9 SLOAD SWAP1 POP SWAP1 JUMP JUMPDEST PUSH1 0x0 DUP1 PUSH1 0x0 DUP1 PUSH1 0x0 PUSH2 0x1622 DUP7 PUSH2 0x3064 JUMP JUMPDEST SWAP5 POP SWAP5 POP SWAP5 POP SWAP5 POP SWAP5 POP PUSH2 0x167E DUP6 PUSH1 0x1 PUSH1 0x0 DUP12 PUSH20 0xFFFFFFFFFFFFFFFFFFFFFFFFFFFFFFFFFFFFFFFF AND PUSH20 0xFFFFFFFFFFFFFFFFFFFFFFFFFFFFFFFFFFFFFFFF AND DUP2 MSTORE PUSH1 0x20 ADD SWAP1 DUP2 MSTORE PUSH1 0x20 ADD PUSH1 0x0 KECCAK256 SLOAD PUSH2 0x3A06 SWAP1 SWAP2 SWAP1 PUSH4 0xFFFFFFFF AND JUMP JUMPDEST PUSH1 0x1 PUSH1 0x0 DUP11 PUSH20 0xFFFFFFFFFFFFFFFFFFFFFFFFFFFFFFFFFFFFFFFF AND PUSH20 0xFFFFFFFFFFFFFFFFFFFFFFFFFFFFFFFFFFFFFFFF AND DUP2 MSTORE PUSH1 0x20 ADD SWAP1 DUP2 MSTORE PUSH1 0x20 ADD PUSH1 0x0 KECCAK256 DUP2 SWAP1 SSTORE POP PUSH2 0x1713 DUP3 PUSH1 0x2 PUSH1 0x0 DUP11 PUSH20 0xFFFFFFFFFFFFFFFFFFFFFFFFFFFFFFFFFFFFFFFF AND PUSH20 0xFFFFFFFFFFFFFFFFFFFFFFFFFFFFFFFFFFFFFFFF AND DUP2 MSTORE PUSH1 0x20 ADD SWAP1 DUP2 MSTORE PUSH1 0x20 ADD PUSH1 0x0 KECCAK256 SLOAD PUSH2 0x3A50 SWAP1 SWAP2 SWAP1 PUSH4 0xFFFFFFFF AND JUMP JUMPDEST PUSH1 0x2 PUSH1 0x0 DUP10 PUSH20 0xFFFFFFFFFFFFFFFFFFFFFFFFFFFFFFFFFFFFFFFF AND PUSH20 0xFFFFFFFFFFFFFFFFFFFFFFFFFFFFFFFFFFFFFFFF AND DUP2 MSTORE PUSH1 0x20 ADD SWAP1 DUP2 MSTORE PUSH1 0x20 ADD PUSH1 0x0 KECCAK256 DUP2 SWAP1 SSTORE POP PUSH2 0x17A8 DUP5 PUSH1 0x1 PUSH1 0x0 DUP11 PUSH20 0xFFFFFFFFFFFFFFFFFFFFFFFFFFFFFFFFFFFFFFFF AND PUSH20 0xFFFFFFFFFFFFFFFFFFFFFFFFFFFFFFFFFFFFFFFF AND DUP2 MSTORE PUSH1 0x20 ADD SWAP1 DUP2 MSTORE PUSH1 0x20 ADD PUSH1 0x0 KECCAK256 SLOAD PUSH2 0x3A50 SWAP1 SWAP2 SWAP1 PUSH4 0xFFFFFFFF AND JUMP JUMPDEST PUSH1 0x1 PUSH1 0x0 DUP10 PUSH20 0xFFFFFFFFFFFFFFFFFFFFFFFFFFFFFFFFFFFFFFFF AND PUSH20 0xFFFFFFFFFFFFFFFFFFFFFFFFFFFFFFFFFFFFFFFF AND DUP2 MSTORE PUSH1 0x20 ADD SWAP1 DUP2 MSTORE PUSH1 0x20 ADD PUSH1 0x0 KECCAK256 DUP2 SWAP1 SSTORE POP PUSH2 0x17F5 DUP4 DUP3 PUSH2 0x186D JUMP JUMPDEST DUP7 PUSH20 0xFFFFFFFFFFFFFFFFFFFFFFFFFFFFFFFFFFFFFFFF AND DUP9 PUSH20 0xFFFFFFFFFFFFFFFFFFFFFFFFFFFFFFFFFFFFFFFF AND PUSH32 0xDDF252AD1BE2C89B69C2B068FC378DAA952BA7F163C4A11628F55A4DF523B3EF DUP5 PUSH1 0x40 MLOAD DUP1 DUP3 DUP2 MSTORE PUSH1 0x20 ADD SWAP2 POP POP PUSH1 0x40 MLOAD DUP1 SWAP2 SUB SWAP1 LOG3 POP POP POP POP POP POP POP POP JUMP JUMPDEST PUSH1 0x0 PUSH1 0x64 SWAP1 POP SWAP1 JUMP JUMPDEST PUSH2 0x1882 DUP3 PUSH1 0x8 SLOAD PUSH2 0x3A06 SWAP1 SWAP2 SWAP1 PUSH4 0xFFFFFFFF AND JUMP JUMPDEST PUSH1 0x8 DUP2 SWAP1 SSTORE POP PUSH2 0x189D DUP2 PUSH1 0x9 SLOAD PUSH2 0x3A50 SWAP1 SWAP2 SWAP1 PUSH4 0xFFFFFFFF AND JUMP JUMPDEST PUSH1 0x9 DUP2 SWAP1 SSTORE POP POP POP JUMP JUMPDEST PUSH1 0x0 PUSH2 0x18B4 DUP5 DUP5 DUP5 PUSH2 0x1BC2 JUMP JUMPDEST PUSH2 0x1975 DUP5 PUSH2 0x18C0 PUSH2 0x39FE JUMP JUMPDEST PUSH2 0x1970 DUP6 PUSH1 0x40 MLOAD DUP1 PUSH1 0x60 ADD PUSH1 0x40 MSTORE DUP1 PUSH1 0x28 DUP2 MSTORE PUSH1 0x20 ADD PUSH2 0x3DE5 PUSH1 0x28 SWAP2 CODECOPY PUSH1 0x3 PUSH1 0x0 DUP12 PUSH20 0xFFFFFFFFFFFFFFFFFFFFFFFFFFFFFFFFFFFFFFFF AND PUSH20 0xFFFFFFFFFFFFFFFFFFFFFFFFFFFFFFFFFFFFFFFF AND DUP2 MSTORE PUSH1 0x20 ADD SWAP1 DUP2 MSTORE PUSH1 0x20 ADD PUSH1 0x0 KECCAK256 PUSH1 0x0 PUSH2 0x1926 PUSH2 0x39FE JUMP JUMPDEST PUSH20 0xFFFFFFFFFFFFFFFFFFFFFFFFFFFFFFFFFFFFFFFF AND PUSH20 0xFFFFFFFFFFFFFFFFFFFFFFFFFFFFFFFFFFFFFFFF AND DUP2 MSTORE PUSH1 0x20 ADD SWAP1 DUP2 MSTORE PUSH1 0x20 ADD PUSH1 0x0 KECCAK256 SLOAD PUSH2 0x3BA8 SWAP1 SWAP3 SWAP2 SWAP1 PUSH4 0xFFFFFFFF AND JUMP JUMPDEST PUSH2 0x13BE JUMP JUMPDEST PUSH1 0x1 SWAP1 POP SWAP4 SWAP3 POP POP POP JUMP JUMPDEST PUSH1 0x0 DUP1 PUSH1 0x0 DUP1 PUSH1 0x0 PUSH2 0x1991 DUP7 PUSH2 0x3064 JUMP JUMPDEST SWAP5 POP SWAP5 POP SWAP5 POP SWAP5 POP SWAP5 POP PUSH2 0x19ED DUP6 PUSH1 0x1 PUSH1 0x0 DUP12 PUSH20 0xFFFFFFFFFFFFFFFFFFFFFFFFFFFFFFFFFFFFFFFF AND PUSH20 0xFFFFFFFFFFFFFFFFFFFFFFFFFFFFFFFFFFFFFFFF AND DUP2 MSTORE PUSH1 0x20 ADD SWAP1 DUP2 MSTORE PUSH1 0x20 ADD PUSH1 0x0 KECCAK256 SLOAD PUSH2 0x3A06 SWAP1 SWAP2 SWAP1 PUSH4 0xFFFFFFFF AND JUMP JUMPDEST PUSH1 0x1 PUSH1 0x0 DUP11 PUSH20 0xFFFFFFFFFFFFFFFFFFFFFFFFFFFFFFFFFFFFFFFF AND PUSH20 0xFFFFFFFFFFFFFFFFFFFFFFFFFFFFFFFFFFFFFFFF AND DUP2 MSTORE PUSH1 0x20 ADD SWAP1 DUP2 MSTORE PUSH1 0x20 ADD PUSH1 0x0 KECCAK256 DUP2 SWAP1 SSTORE POP PUSH2 0x1A82 DUP5 PUSH1 0x1 PUSH1 0x0 DUP11 PUSH20 0xFFFFFFFFFFFFFFFFFFFFFFFFFFFFFFFFFFFFFFFF AND PUSH20 0xFFFFFFFFFFFFFFFFFFFFFFFFFFFFFFFFFFFFFFFF AND DUP2 MSTORE PUSH1 0x20 ADD SWAP1 DUP2 MSTORE PUSH1 0x20 ADD PUSH1 0x0 KECCAK256 SLOAD PUSH2 0x3A50 SWAP1 SWAP2 SWAP1 PUSH4 0xFFFFFFFF AND JUMP JUMPDEST PUSH1 0x1 PUSH1 0x0 DUP10 PUSH20 0xFFFFFFFFFFFFFFFFFFFFFFFFFFFFFFFFFFFFFFFF AND PUSH20 0xFFFFFFFFFFFFFFFFFFFFFFFFFFFFFFFFFFFFFFFF AND DUP2 MSTORE PUSH1 0x20 ADD SWAP1 DUP2 MSTORE PUSH1 0x20 ADD PUSH1 0x0 KECCAK256 DUP2 SWAP1 SSTORE POP PUSH2 0x1ACF DUP4 DUP3 PUSH2 0x186D JUMP JUMPDEST DUP7 PUSH20 0xFFFFFFFFFFFFFFFFFFFFFFFFFFFFFFFFFFFFFFFF AND DUP9 PUSH20 0xFFFFFFFFFFFFFFFFFFFFFFFFFFFFFFFFFFFFFFFF AND PUSH32 0xDDF252AD1BE2C89B69C2B068FC378DAA952BA7F163C4A11628F55A4DF523B3EF DUP5 PUSH1 0x40 MLOAD DUP1 DUP3 DUP2 MSTORE PUSH1 0x20 ADD SWAP2 POP POP PUSH1 0x40 MLOAD DUP1 SWAP2 SUB SWAP1 LOG3 POP POP POP POP POP POP POP POP JUMP JUMPDEST PUSH1 0x0 PUSH1 0x8 SLOAD DUP3 GT ISZERO PUSH2 0x1B9B JUMPI PUSH1 0x40 MLOAD PUSH32 0x8C379A000000000000000000000000000000000000000000000000000000000 DUP2 MSTORE PUSH1 0x4 ADD DUP1 DUP1 PUSH1 0x20 ADD DUP3 DUP2 SUB DUP3 MSTORE PUSH1 0x2A DUP2 MSTORE PUSH1 0x20 ADD DUP1 PUSH2 0x3D52 PUSH1 0x2A SWAP2 CODECOPY PUSH1 0x40 ADD SWAP2 POP POP PUSH1 0x40 MLOAD DUP1 SWAP2 SUB SWAP1 REVERT JUMPDEST PUSH1 0x0 PUSH2 0x1BA5 PUSH2 0x278E JUMP JUMPDEST SWAP1 POP PUSH2 0x1BBA DUP2 DUP5 PUSH2 0x3AD8 SWAP1 SWAP2 SWAP1 PUSH4 0xFFFFFFFF AND JUMP JUMPDEST SWAP2 POP POP SWAP2 SWAP1 POP JUMP JUMPDEST PUSH1 0x0 PUSH20 0xFFFFFFFFFFFFFFFFFFFFFFFFFFFFFFFFFFFFFFFF AND DUP4 PUSH20 0xFFFFFFFFFFFFFFFFFFFFFFFFFFFFFFFFFFFFFFFF AND EQ ISZERO PUSH2 0x1C48 JUMPI PUSH1 0x40 MLOAD PUSH32 0x8C379A000000000000000000000000000000000000000000000000000000000 DUP2 MSTORE PUSH1 0x4 ADD DUP1 DUP1 PUSH1 0x20 ADD DUP3 DUP2 SUB DUP3 MSTORE PUSH1 0x25 DUP2 MSTORE PUSH1 0x20 ADD DUP1 PUSH2 0x3E36 PUSH1 0x25 SWAP2 CODECOPY PUSH1 0x40 ADD SWAP2 POP POP PUSH1 0x40 MLOAD DUP1 SWAP2 SUB SWAP1 REVERT JUMPDEST PUSH1 0x0 PUSH20 0xFFFFFFFFFFFFFFFFFFFFFFFFFFFFFFFFFFFFFFFF AND DUP3 PUSH20 0xFFFFFFFFFFFFFFFFFFFFFFFFFFFFFFFFFFFFFFFF AND EQ ISZERO PUSH2 0x1CCE JUMPI PUSH1 0x40 MLOAD PUSH32 0x8C379A000000000000000000000000000000000000000000000000000000000 DUP2 MSTORE PUSH1 0x4 ADD DUP1 DUP1 PUSH1 0x20 ADD DUP3 DUP2 SUB DUP3 MSTORE PUSH1 0x23 DUP2 MSTORE PUSH1 0x20 ADD DUP1 PUSH2 0x3D2F PUSH1 0x23 SWAP2 CODECOPY PUSH1 0x40 ADD SWAP2 POP POP PUSH1 0x40 MLOAD DUP1 SWAP2 SUB SWAP1 REVERT JUMPDEST PUSH1 0x0 DUP2 GT PUSH2 0x1D27 JUMPI PUSH1 0x40 MLOAD PUSH32 0x8C379A000000000000000000000000000000000000000000000000000000000 DUP2 MSTORE PUSH1 0x4 ADD DUP1 DUP1 PUSH1 0x20 ADD DUP3 DUP2 SUB DUP3 MSTORE PUSH1 0x29 DUP2 MSTORE PUSH1 0x20 ADD DUP1 PUSH2 0x3E0D PUSH1 0x29 SWAP2 CODECOPY PUSH1 0x40 ADD SWAP2 POP POP PUSH1 0x40 MLOAD DUP1 SWAP2 SUB SWAP1 REVERT JUMPDEST PUSH1 0x4 PUSH1 0x0 DUP5 PUSH20 0xFFFFFFFFFFFFFFFFFFFFFFFFFFFFFFFFFFFFFFFF AND PUSH20 0xFFFFFFFFFFFFFFFFFFFFFFFFFFFFFFFFFFFFFFFF AND DUP2 MSTORE PUSH1 0x20 ADD SWAP1 DUP2 MSTORE PUSH1 0x20 ADD PUSH1 0x0 KECCAK256 PUSH1 0x0 SWAP1 SLOAD SWAP1 PUSH2 0x100 EXP SWAP1 DIV PUSH1 0xFF AND DUP1 ISZERO PUSH2 0x1DCA JUMPI POP PUSH1 0x4 PUSH1 0x0 DUP4 PUSH20 0xFFFFFFFFFFFFFFFFFFFFFFFFFFFFFFFFFFFFFFFF AND PUSH20 0xFFFFFFFFFFFFFFFFFFFFFFFFFFFFFFFFFFFFFFFF AND DUP2 MSTORE PUSH1 0x20 ADD SWAP1 DUP2 MSTORE PUSH1 0x20 ADD PUSH1 0x0 KECCAK256 PUSH1 0x0 SWAP1 SLOAD SWAP1 PUSH2 0x100 EXP SWAP1 DIV PUSH1 0xFF AND ISZERO JUMPDEST ISZERO PUSH2 0x1DDF JUMPI PUSH2 0x1DDA DUP4 DUP4 DUP4 PUSH2 0x2CF8 JUMP JUMPDEST PUSH2 0x2016 JUMP JUMPDEST PUSH1 0x4 PUSH1 0x0 DUP5 PUSH20 0xFFFFFFFFFFFFFFFFFFFFFFFFFFFFFFFFFFFFFFFF AND PUSH20 0xFFFFFFFFFFFFFFFFFFFFFFFFFFFFFFFFFFFFFFFF AND DUP2 MSTORE PUSH1 0x20 ADD SWAP1 DUP2 MSTORE PUSH1 0x20 ADD PUSH1 0x0 KECCAK256 PUSH1 0x0 SWAP1 SLOAD SWAP1 PUSH2 0x100 EXP SWAP1 DIV PUSH1 0xFF AND ISZERO DUP1 ISZERO PUSH2 0x1E82 JUMPI POP PUSH1 0x4 PUSH1 0x0 DUP4 PUSH20 0xFFFFFFFFFFFFFFFFFFFFFFFFFFFFFFFFFFFFFFFF AND PUSH20 0xFFFFFFFFFFFFFFFFFFFFFFFFFFFFFFFFFFFFFFFF AND DUP2 MSTORE PUSH1 0x20 ADD SWAP1 DUP2 MSTORE PUSH1 0x20 ADD PUSH1 0x0 KECCAK256 PUSH1 0x0 SWAP1 SLOAD SWAP1 PUSH2 0x100 EXP SWAP1 DIV PUSH1 0xFF AND JUMPDEST ISZERO PUSH2 0x1E97 JUMPI PUSH2 0x1E92 DUP4 DUP4 DUP4 PUSH2 0x1611 JUMP JUMPDEST PUSH2 0x2015 JUMP JUMPDEST PUSH1 0x4 PUSH1 0x0 DUP5 PUSH20 0xFFFFFFFFFFFFFFFFFFFFFFFFFFFFFFFFFFFFFFFF AND PUSH20 0xFFFFFFFFFFFFFFFFFFFFFFFFFFFFFFFFFFFFFFFF AND DUP2 MSTORE PUSH1 0x20 ADD SWAP1 DUP2 MSTORE PUSH1 0x20 ADD PUSH1 0x0 KECCAK256 PUSH1 0x0 SWAP1 SLOAD SWAP1 PUSH2 0x100 EXP SWAP1 DIV PUSH1 0xFF AND ISZERO DUP1 ISZERO PUSH2 0x1F3B JUMPI POP PUSH1 0x4 PUSH1 0x0 DUP4 PUSH20 0xFFFFFFFFFFFFFFFFFFFFFFFFFFFFFFFFFFFFFFFF AND PUSH20 0xFFFFFFFFFFFFFFFFFFFFFFFFFFFFFFFFFFFFFFFF AND DUP2 MSTORE PUSH1 0x20 ADD SWAP1 DUP2 MSTORE PUSH1 0x20 ADD PUSH1 0x0 KECCAK256 PUSH1 0x0 SWAP1 SLOAD SWAP1 PUSH2 0x100 EXP SWAP1 DIV PUSH1 0xFF AND ISZERO JUMPDEST ISZERO PUSH2 0x1F50 JUMPI PUSH2 0x1F4B DUP4 DUP4 DUP4 PUSH2 0x1980 JUMP JUMPDEST PUSH2 0x2014 JUMP JUMPDEST PUSH1 0x4 PUSH1 0x0 DUP5 PUSH20 0xFFFFFFFFFFFFFFFFFFFFFFFFFFFFFFFFFFFFFFFF AND PUSH20 0xFFFFFFFFFFFFFFFFFFFFFFFFFFFFFFFFFFFFFFFF AND DUP2 MSTORE PUSH1 0x20 ADD SWAP1 DUP2 MSTORE PUSH1 0x20 ADD PUSH1 0x0 KECCAK256 PUSH1 0x0 SWAP1 SLOAD SWAP1 PUSH2 0x100 EXP SWAP1 DIV PUSH1 0xFF AND DUP1 ISZERO PUSH2 0x1FF2 JUMPI POP PUSH1 0x4 PUSH1 0x0 DUP4 PUSH20 0xFFFFFFFFFFFFFFFFFFFFFFFFFFFFFFFFFFFFFFFF AND PUSH20 0xFFFFFFFFFFFFFFFFFFFFFFFFFFFFFFFFFFFFFFFF AND DUP2 MSTORE PUSH1 0x20 ADD SWAP1 DUP2 MSTORE PUSH1 0x20 ADD PUSH1 0x0 KECCAK256 PUSH1 0x0 SWAP1 SLOAD SWAP1 PUSH2 0x100 EXP SWAP1 DIV PUSH1 0xFF AND JUMPDEST ISZERO PUSH2 0x2007 JUMPI PUSH2 0x2002 DUP4 DUP4 DUP4 PUSH2 0x2206 JUMP JUMPDEST PUSH2 0x2013 JUMP JUMPDEST PUSH2 0x2012 DUP4 DUP4 DUP4 PUSH2 0x1980 JUMP JUMPDEST JUMPDEST JUMPDEST JUMPDEST JUMPDEST POP POP POP JUMP JUMPDEST PUSH1 0x0 PUSH1 0x6 PUSH1 0x0 SWAP1 SLOAD SWAP1 PUSH2 0x100 EXP SWAP1 DIV PUSH1 0xFF AND SWAP1 POP SWAP1 JUMP JUMPDEST PUSH1 0x6 PUSH1 0x0 SWAP1 SLOAD SWAP1 PUSH2 0x100 EXP SWAP1 DIV PUSH1 0xFF AND DUP2 JUMP JUMPDEST PUSH1 0x0 PUSH2 0x20EE PUSH2 0x2052 PUSH2 0x39FE JUMP JUMPDEST DUP5 PUSH2 0x20E9 DUP6 PUSH1 0x3 PUSH1 0x0 PUSH2 0x2063 PUSH2 0x39FE JUMP JUMPDEST PUSH20 0xFFFFFFFFFFFFFFFFFFFFFFFFFFFFFFFFFFFFFFFF AND PUSH20 0xFFFFFFFFFFFFFFFFFFFFFFFFFFFFFFFFFFFFFFFF AND DUP2 MSTORE PUSH1 0x20 ADD SWAP1 DUP2 MSTORE PUSH1 0x20 ADD PUSH1 0x0 KECCAK256 PUSH1 0x0 DUP10 PUSH20 0xFFFFFFFFFFFFFFFFFFFFFFFFFFFFFFFFFFFFFFFF AND PUSH20 0xFFFFFFFFFFFFFFFFFFFFFFFFFFFFFFFFFFFFFFFF AND DUP2 MSTORE PUSH1 0x20 ADD SWAP1 DUP2 MSTORE PUSH1 0x20 ADD PUSH1 0x0 KECCAK256 SLOAD PUSH2 0x3A50 SWAP1 SWAP2 SWAP1 PUSH4 0xFFFFFFFF AND JUMP JUMPDEST PUSH2 0x13BE JUMP JUMPDEST PUSH1 0x1 SWAP1 POP SWAP3 SWAP2 POP POP JUMP JUMPDEST PUSH1 0x2 PUSH1 0x20 MSTORE DUP1 PUSH1 0x0 MSTORE PUSH1 0x40 PUSH1 0x0 KECCAK256 PUSH1 0x0 SWAP2 POP SWAP1 POP SLOAD DUP2 JUMP JUMPDEST PUSH1 0x0 PUSH1 0x64 DUP4 GT ISZERO PUSH2 0x2189 JUMPI PUSH1 0x40 MLOAD PUSH32 0x8C379A000000000000000000000000000000000000000000000000000000000 DUP2 MSTORE PUSH1 0x4 ADD DUP1 DUP1 PUSH1 0x20 ADD DUP3 DUP2 SUB DUP3 MSTORE PUSH1 0x1F DUP2 MSTORE PUSH1 0x20 ADD DUP1 PUSH32 0x416D6F756E74206D757374206265206C657373207468616E20737570706C7900 DUP2 MSTORE POP PUSH1 0x20 ADD SWAP2 POP POP PUSH1 0x40 MLOAD DUP1 SWAP2 SUB SWAP1 REVERT JUMPDEST DUP2 PUSH2 0x21A8 JUMPI PUSH1 0x0 PUSH2 0x2199 DUP5 PUSH2 0x3064 JUMP JUMPDEST POP POP POP POP SWAP1 POP DUP1 SWAP2 POP POP PUSH2 0x21BE JUMP JUMPDEST PUSH1 0x0 PUSH2 0x21B3 DUP5 PUSH2 0x3064 JUMP JUMPDEST POP POP POP SWAP2 POP POP DUP1 SWAP2 POP POP JUMPDEST SWAP3 SWAP2 POP POP JUMP JUMPDEST PUSH1 0x8 SLOAD DUP2 JUMP JUMPDEST PUSH1 0x5 DUP2 DUP2 SLOAD DUP2 LT PUSH2 0x21D7 JUMPI INVALID JUMPDEST SWAP1 PUSH1 0x0 MSTORE PUSH1 0x20 PUSH1 0x0 KECCAK256 ADD PUSH1 0x0 SWAP2 POP SLOAD SWAP1 PUSH2 0x100 EXP SWAP1 DIV PUSH20 0xFFFFFFFFFFFFFFFFFFFFFFFFFFFFFFFFFFFFFFFF AND DUP2 JUMP JUMPDEST PUSH1 0x0 DUP1 PUSH1 0x0 DUP1 PUSH1 0x0 PUSH2 0x2217 DUP7 PUSH2 0x3064 JUMP JUMPDEST SWAP5 POP SWAP5 POP SWAP5 POP SWAP5 POP SWAP5 POP PUSH2 0x2273 DUP7 PUSH1 0x2 PUSH1 0x0 DUP12 PUSH20 0xFFFFFFFFFFFFFFFFFFFFFFFFFFFFFFFFFFFFFFFF AND PUSH20 0xFFFFFFFFFFFFFFFFFFFFFFFFFFFFFFFFFFFFFFFF AND DUP2 MSTORE PUSH1 0x20 ADD SWAP1 DUP2 MSTORE PUSH1 0x20 ADD PUSH1 0x0 KECCAK256 SLOAD PUSH2 0x3A06 SWAP1 SWAP2 SWAP1 PUSH4 0xFFFFFFFF AND JUMP JUMPDEST PUSH1 0x2 PUSH1 0x0 DUP11 PUSH20 0xFFFFFFFFFFFFFFFFFFFFFFFFFFFFFFFFFFFFFFFF AND PUSH20 0xFFFFFFFFFFFFFFFFFFFFFFFFFFFFFFFFFFFFFFFF AND DUP2 MSTORE PUSH1 0x20 ADD SWAP1 DUP2 MSTORE PUSH1 0x20 ADD PUSH1 0x0 KECCAK256 DUP2 SWAP1 SSTORE POP PUSH2 0x2308 DUP6 PUSH1 0x1 PUSH1 0x0 DUP12 PUSH20 0xFFFFFFFFFFFFFFFFFFFFFFFFFFFFFFFFFFFFFFFF AND PUSH20 0xFFFFFFFFFFFFFFFFFFFFFFFFFFFFFFFFFFFFFFFF AND DUP2 MSTORE PUSH1 0x20 ADD SWAP1 DUP2 MSTORE PUSH1 0x20 ADD PUSH1 0x0 KECCAK256 SLOAD PUSH2 0x3A06 SWAP1 SWAP2 SWAP1 PUSH4 0xFFFFFFFF AND JUMP JUMPDEST PUSH1 0x1 PUSH1 0x0 DUP11 PUSH20 0xFFFFFFFFFFFFFFFFFFFFFFFFFFFFFFFFFFFFFFFF AND PUSH20 0xFFFFFFFFFFFFFFFFFFFFFFFFFFFFFFFFFFFFFFFF AND DUP2 MSTORE PUSH1 0x20 ADD SWAP1 DUP2 MSTORE PUSH1 0x20 ADD PUSH1 0x0 KECCAK256 DUP2 SWAP1 SSTORE POP PUSH2 0x239D DUP3 PUSH1 0x2 PUSH1 0x0 DUP11 PUSH20 0xFFFFFFFFFFFFFFFFFFFFFFFFFFFFFFFFFFFFFFFF AND PUSH20 0xFFFFFFFFFFFFFFFFFFFFFFFFFFFFFFFFFFFFFFFF AND DUP2 MSTORE PUSH1 0x20 ADD SWAP1 DUP2 MSTORE PUSH1 0x20 ADD PUSH1 0x0 KECCAK256 SLOAD PUSH2 0x3A50 SWAP1 SWAP2 SWAP1 PUSH4 0xFFFFFFFF AND JUMP JUMPDEST PUSH1 0x2 PUSH1 0x0 DUP10 PUSH20 0xFFFFFFFFFFFFFFFFFFFFFFFFFFFFFFFFFFFFFFFF AND PUSH20 0xFFFFFFFFFFFFFFFFFFFFFFFFFFFFFFFFFFFFFFFF AND DUP2 MSTORE PUSH1 0x20 ADD SWAP1 DUP2 MSTORE PUSH1 0x20 ADD PUSH1 0x0 KECCAK256 DUP2 SWAP1 SSTORE POP PUSH2 0x2432 DUP5 PUSH1 0x1 PUSH1 0x0 DUP11 PUSH20 0xFFFFFFFFFFFFFFFFFFFFFFFFFFFFFFFFFFFFFFFF AND PUSH20 0xFFFFFFFFFFFFFFFFFFFFFFFFFFFFFFFFFFFFFFFF AND DUP2 MSTORE PUSH1 0x20 ADD SWAP1 DUP2 MSTORE PUSH1 0x20 ADD PUSH1 0x0 KECCAK256 SLOAD PUSH2 0x3A50 SWAP1 SWAP2 SWAP1 PUSH4 0xFFFFFFFF AND JUMP JUMPDEST PUSH1 0x1 PUSH1 0x0 DUP10 PUSH20 0xFFFFFFFFFFFFFFFFFFFFFFFFFFFFFFFFFFFFFFFF AND PUSH20 0xFFFFFFFFFFFFFFFFFFFFFFFFFFFFFFFFFFFFFFFF AND DUP2 MSTORE PUSH1 0x20 ADD SWAP1 DUP2 MSTORE PUSH1 0x20 ADD PUSH1 0x0 KECCAK256 DUP2 SWAP1 SSTORE POP PUSH2 0x247F DUP4 DUP3 PUSH2 0x186D JUMP JUMPDEST DUP7 PUSH20 0xFFFFFFFFFFFFFFFFFFFFFFFFFFFFFFFFFFFFFFFF AND DUP9 PUSH20 0xFFFFFFFFFFFFFFFFFFFFFFFFFFFFFFFFFFFFFFFF AND PUSH32 0xDDF252AD1BE2C89B69C2B068FC378DAA952BA7F163C4A11628F55A4DF523B3EF DUP5 PUSH1 0x40 MLOAD DUP1 DUP3 DUP2 MSTORE PUSH1 0x20 ADD SWAP2 POP POP PUSH1 0x40 MLOAD DUP1 SWAP2 SUB SWAP1 LOG3 POP POP POP POP POP POP POP POP JUMP JUMPDEST PUSH1 0x0 PUSH1 0x4 PUSH1 0x0 DUP4 PUSH20 0xFFFFFFFFFFFFFFFFFFFFFFFFFFFFFFFFFFFFFFFF AND PUSH20 0xFFFFFFFFFFFFFFFFFFFFFFFFFFFFFFFFFFFFFFFF AND DUP2 MSTORE PUSH1 0x20 ADD SWAP1 DUP2 MSTORE PUSH1 0x20 ADD PUSH1 0x0 KECCAK256 PUSH1 0x0 SWAP1 SLOAD SWAP1 PUSH2 0x100 EXP SWAP1 DIV PUSH1 0xFF AND ISZERO PUSH2 0x2589 JUMPI PUSH1 0x2 PUSH1 0x0 DUP4 PUSH20 0xFFFFFFFFFFFFFFFFFFFFFFFFFFFFFFFFFFFFFFFF AND PUSH20 0xFFFFFFFFFFFFFFFFFFFFFFFFFFFFFFFFFFFFFFFF AND DUP2 MSTORE PUSH1 0x20 ADD SWAP1 DUP2 MSTORE PUSH1 0x20 ADD PUSH1 0x0 KECCAK256 SLOAD SWAP1 POP PUSH2 0x25D4 JUMP JUMPDEST PUSH2 0x25D1 PUSH1 0x1 PUSH1 0x0 DUP5 PUSH20 0xFFFFFFFFFFFFFFFFFFFFFFFFFFFFFFFFFFFFFFFF AND PUSH20 0xFFFFFFFFFFFFFFFFFFFFFFFFFFFFFFFFFFFFFFFF AND DUP2 MSTORE PUSH1 0x20 ADD SWAP1 DUP2 MSTORE PUSH1 0x20 ADD PUSH1 0x0 KECCAK256 SLOAD PUSH2 0x1B3E JUMP JUMPDEST SWAP1 POP JUMPDEST SWAP2 SWAP1 POP JUMP JUMPDEST PUSH1 0x7 SLOAD DUP2 JUMP JUMPDEST PUSH2 0x25E7 PUSH2 0x39FE JUMP JUMPDEST PUSH20 0xFFFFFFFFFFFFFFFFFFFFFFFFFFFFFFFFFFFFFFFF AND PUSH1 0x0 DUP1 SLOAD SWAP1 PUSH2 0x100 EXP SWAP1 DIV PUSH20 0xFFFFFFFFFFFFFFFFFFFFFFFFFFFFFFFFFFFFFFFF AND PUSH20 0xFFFFFFFFFFFFFFFFFFFFFFFFFFFFFFFFFFFFFFFF AND EQ PUSH2 0x26A7 JUMPI PUSH1 0x40 MLOAD PUSH32 0x8C379A000000000000000000000000000000000000000000000000000000000 DUP2 MSTORE PUSH1 0x4 ADD DUP1 DUP1 PUSH1 0x20 ADD DUP3 DUP2 SUB DUP3 MSTORE PUSH1 0x20 DUP2 MSTORE PUSH1 0x20 ADD DUP1 PUSH32 0x4F776E61626C653A2063616C6C6572206973206E6F7420746865206F776E6572 DUP2 MSTORE POP PUSH1 0x20 ADD SWAP2 POP POP PUSH1 0x40 MLOAD DUP1 SWAP2 SUB SWAP1 REVERT JUMPDEST PUSH1 0x0 PUSH20 0xFFFFFFFFFFFFFFFFFFFFFFFFFFFFFFFFFFFFFFFF AND PUSH1 0x0 DUP1 SLOAD SWAP1 PUSH2 0x100 EXP SWAP1 DIV PUSH20 0xFFFFFFFFFFFFFFFFFFFFFFFFFFFFFFFFFFFFFFFF AND PUSH20 0xFFFFFFFFFFFFFFFFFFFFFFFFFFFFFFFFFFFFFFFF AND PUSH32 0x8BE0079C531659141344CD1FD0A4F28419497F9722A3DAAFE3B4186F6B6457E0 PUSH1 0x40 MLOAD PUSH1 0x40 MLOAD DUP1 SWAP2 SUB SWAP1 LOG3 PUSH1 0x0 DUP1 PUSH1 0x0 PUSH2 0x100 EXP DUP2 SLOAD DUP2 PUSH20 0xFFFFFFFFFFFFFFFFFFFFFFFFFFFFFFFFFFFFFFFF MUL NOT AND SWAP1 DUP4 PUSH20 0xFFFFFFFFFFFFFFFFFFFFFFFFFFFFFFFFFFFFFFFF AND MUL OR SWAP1 SSTORE POP JUMP JUMPDEST PUSH1 0x0 DUP1 PUSH1 0x0 SWAP1 SLOAD SWAP1 PUSH2 0x100 EXP SWAP1 DIV PUSH20 0xFFFFFFFFFFFFFFFFFFFFFFFFFFFFFFFFFFFFFFFF AND SWAP1 POP SWAP1 JUMP JUMPDEST PUSH1 0x0 DUP1 PUSH1 0x0 PUSH2 0x279B PUSH2 0x285B JUMP JUMPDEST SWAP2 POP SWAP2 POP PUSH2 0x27B2 DUP2 DUP4 PUSH2 0x3AD8 SWAP1 SWAP2 SWAP1 PUSH4 0xFFFFFFFF AND JUMP JUMPDEST SWAP3 POP POP POP SWAP1 JUMP JUMPDEST PUSH1 0x60 PUSH1 0xB DUP1 SLOAD PUSH1 0x1 DUP2 PUSH1 0x1 AND ISZERO PUSH2 0x100 MUL SUB AND PUSH1 0x2 SWAP1 DIV DUP1 PUSH1 0x1F ADD PUSH1 0x20 DUP1 SWAP2 DIV MUL PUSH1 0x20 ADD PUSH1 0x40 MLOAD SWAP1 DUP2 ADD PUSH1 0x40 MSTORE DUP1 SWAP3 SWAP2 SWAP1 DUP2 DUP2 MSTORE PUSH1 0x20 ADD DUP3 DUP1 SLOAD PUSH1 0x1 DUP2 PUSH1 0x1 AND ISZERO PUSH2 0x100 MUL SUB AND PUSH1 0x2 SWAP1 DIV DUP1 ISZERO PUSH2 0x2851 JUMPI DUP1 PUSH1 0x1F LT PUSH2 0x2826 JUMPI PUSH2 0x100 DUP1 DUP4 SLOAD DIV MUL DUP4 MSTORE SWAP2 PUSH1 0x20 ADD SWAP2 PUSH2 0x2851 JUMP JUMPDEST DUP3 ADD SWAP2 SWAP1 PUSH1 0x0 MSTORE PUSH1 0x20 PUSH1 0x0 KECCAK256 SWAP1 JUMPDEST DUP2 SLOAD DUP2 MSTORE SWAP1 PUSH1 0x1 ADD SWAP1 PUSH1 0x20 ADD DUP1 DUP4 GT PUSH2 0x2834 JUMPI DUP3 SWAP1 SUB PUSH1 0x1F AND DUP3 ADD SWAP2 JUMPDEST POP POP POP POP POP SWAP1 POP SWAP1 JUMP JUMPDEST PUSH1 0x0 DUP1 PUSH1 0x0 PUSH1 0x8 SLOAD SWAP1 POP PUSH1 0x0 PUSH1 0x64 SWAP1 POP PUSH1 0x0 JUMPDEST PUSH1 0x5 DUP1 SLOAD SWAP1 POP DUP2 LT ISZERO PUSH2 0x2AAD JUMPI DUP3 PUSH1 0x1 PUSH1 0x0 PUSH1 0x5 DUP5 DUP2 SLOAD DUP2 LT PUSH2 0x288D JUMPI INVALID JUMPDEST SWAP1 PUSH1 0x0 MSTORE PUSH1 0x20 PUSH1 0x0 KECCAK256 ADD PUSH1 0x0 SWAP1 SLOAD SWAP1 PUSH2 0x100 EXP SWAP1 DIV PUSH20 0xFFFFFFFFFFFFFFFFFFFFFFFFFFFFFFFFFFFFFFFF AND PUSH20 0xFFFFFFFFFFFFFFFFFFFFFFFFFFFFFFFFFFFFFFFF AND PUSH20 0xFFFFFFFFFFFFFFFFFFFFFFFFFFFFFFFFFFFFFFFF AND DUP2 MSTORE PUSH1 0x20 ADD SWAP1 DUP2 MSTORE PUSH1 0x20 ADD PUSH1 0x0 KECCAK256 SLOAD GT DUP1 PUSH2 0x2974 JUMPI POP DUP2 PUSH1 0x2 PUSH1 0x0 PUSH1 0x5 DUP5 DUP2 SLOAD DUP2 LT PUSH2 0x290C JUMPI INVALID JUMPDEST SWAP1 PUSH1 0x0 MSTORE PUSH1 0x20 PUSH1 0x0 KECCAK256 ADD PUSH1 0x0 SWAP1 SLOAD SWAP1 PUSH2 0x100 EXP SWAP1 DIV PUSH20 0xFFFFFFFFFFFFFFFFFFFFFFFFFFFFFFFFFFFFFFFF AND PUSH20 0xFFFFFFFFFFFFFFFFFFFFFFFFFFFFFFFFFFFFFFFF AND PUSH20 0xFFFFFFFFFFFFFFFFFFFFFFFFFFFFFFFFFFFFFFFF AND DUP2 MSTORE PUSH1 0x20 ADD SWAP1 DUP2 MSTORE PUSH1 0x20 ADD PUSH1 0x0 KECCAK256 SLOAD GT JUMPDEST ISZERO PUSH2 0x298A JUMPI PUSH1 0x8 SLOAD PUSH1 0x64 SWAP5 POP SWAP5 POP POP POP POP PUSH2 0x2AE4 JUMP JUMPDEST PUSH2 0x2A13 PUSH1 0x1 PUSH1 0x0 PUSH1 0x5 DUP5 DUP2 SLOAD DUP2 LT PUSH2 0x299E JUMPI INVALID JUMPDEST SWAP1 PUSH1 0x0 MSTORE PUSH1 0x20 PUSH1 0x0 KECCAK256 ADD PUSH1 0x0 SWAP1 SLOAD SWAP1 PUSH2 0x100 EXP SWAP1 DIV PUSH20 0xFFFFFFFFFFFFFFFFFFFFFFFFFFFFFFFFFFFFFFFF AND PUSH20 0xFFFFFFFFFFFFFFFFFFFFFFFFFFFFFFFFFFFFFFFF AND PUSH20 0xFFFFFFFFFFFFFFFFFFFFFFFFFFFFFFFFFFFFFFFF AND DUP2 MSTORE PUSH1 0x20 ADD SWAP1 DUP2 MSTORE PUSH1 0x20 ADD PUSH1 0x0 KECCAK256 SLOAD DUP5 PUSH2 0x3A06 SWAP1 SWAP2 SWAP1 PUSH4 0xFFFFFFFF AND JUMP JUMPDEST SWAP3 POP PUSH2 0x2A9E PUSH1 0x2 PUSH1 0x0 PUSH1 0x5 DUP5 DUP2 SLOAD DUP2 LT PUSH2 0x2A29 JUMPI INVALID JUMPDEST SWAP1 PUSH1 0x0 MSTORE PUSH1 0x20 PUSH1 0x0 KECCAK256 ADD PUSH1 0x0 SWAP1 SLOAD SWAP1 PUSH2 0x100 EXP SWAP1 DIV PUSH20 0xFFFFFFFFFFFFFFFFFFFFFFFFFFFFFFFFFFFFFFFF AND PUSH20 0xFFFFFFFFFFFFFFFFFFFFFFFFFFFFFFFFFFFFFFFF AND PUSH20 0xFFFFFFFFFFFFFFFFFFFFFFFFFFFFFFFFFFFFFFFF AND DUP2 MSTORE PUSH1 0x20 ADD SWAP1 DUP2 MSTORE PUSH1 0x20 ADD PUSH1 0x0 KECCAK256 SLOAD DUP4 PUSH2 0x3A06 SWAP1 SWAP2 SWAP1 PUSH4 0xFFFFFFFF AND JUMP JUMPDEST SWAP2 POP DUP1 DUP1 PUSH1 0x1 ADD SWAP2 POP POP PUSH2 0x286E JUMP JUMPDEST POP PUSH2 0x2AC4 PUSH1 0x64 PUSH1 0x8 SLOAD PUSH2 0x3AD8 SWAP1 SWAP2 SWAP1 PUSH4 0xFFFFFFFF AND JUMP JUMPDEST DUP3 LT ISZERO PUSH2 0x2ADB JUMPI PUSH1 0x8 SLOAD PUSH1 0x64 SWAP4 POP SWAP4 POP POP POP PUSH2 0x2AE4 JUMP JUMPDEST DUP2 DUP2 SWAP4 POP SWAP4 POP POP POP JUMPDEST SWAP1 SWAP2 JUMP JUMPDEST PUSH1 0x0 PUSH2 0x2BAB PUSH2 0x2AF5 PUSH2 0x39FE JUMP JUMPDEST DUP5 PUSH2 0x2BA6 DUP6 PUSH1 0x40 MLOAD DUP1 PUSH1 0x60 ADD PUSH1 0x40 MSTORE DUP1 PUSH1 0x25 DUP2 MSTORE PUSH1 0x20 ADD PUSH2 0x3EAB PUSH1 0x25 SWAP2 CODECOPY PUSH1 0x3 PUSH1 0x0 PUSH2 0x2B1F PUSH2 0x39FE JUMP JUMPDEST PUSH20 0xFFFFFFFFFFFFFFFFFFFFFFFFFFFFFFFFFFFFFFFF AND PUSH20 0xFFFFFFFFFFFFFFFFFFFFFFFFFFFFFFFFFFFFFFFF AND DUP2 MSTORE PUSH1 0x20 ADD SWAP1 DUP2 MSTORE PUSH1 0x20 ADD PUSH1 0x0 KECCAK256 PUSH1 0x0 DUP11 PUSH20 0xFFFFFFFFFFFFFFFFFFFFFFFFFFFFFFFFFFFFFFFF AND PUSH20 0xFFFFFFFFFFFFFFFFFFFFFFFFFFFFFFFFFFFFFFFF AND DUP2 MSTORE PUSH1 0x20 ADD SWAP1 DUP2 MSTORE PUSH1 0x20 ADD PUSH1 0x0 KECCAK256 SLOAD PUSH2 0x3BA8 SWAP1 SWAP3 SWAP2 SWAP1 PUSH4 0xFFFFFFFF AND JUMP JUMPDEST PUSH2 0x13BE JUMP JUMPDEST PUSH1 0x1 SWAP1 POP SWAP3 SWAP2 POP POP JUMP JUMPDEST PUSH1 0x0 PUSH2 0x2BC9 PUSH2 0x2BC2 PUSH2 0x39FE JUMP JUMPDEST DUP5 DUP5 PUSH2 0x1BC2 JUMP JUMPDEST PUSH1 0x1 SWAP1 POP SWAP3 SWAP2 POP POP JUMP JUMPDEST PUSH1 0x64 DUP2 JUMP JUMPDEST PUSH1 0xB DUP1 SLOAD PUSH1 0x1 DUP2 PUSH1 0x1 AND ISZERO PUSH2 0x100 MUL SUB AND PUSH1 0x2 SWAP1 DIV DUP1 PUSH1 0x1F ADD PUSH1 0x20 DUP1 SWAP2 DIV MUL PUSH1 0x20 ADD PUSH1 0x40 MLOAD SWAP1 DUP2 ADD PUSH1 0x40 MSTORE DUP1 SWAP3 SWAP2 SWAP1 DUP2 DUP2 MSTORE PUSH1 0x20 ADD DUP3 DUP1 SLOAD PUSH1 0x1 DUP2 PUSH1 0x1 AND ISZERO PUSH2 0x100 MUL SUB AND PUSH1 0x2 SWAP1 DIV DUP1 ISZERO PUSH2 0x2C6E JUMPI DUP1 PUSH1 0x1F LT PUSH2 0x2C43 JUMPI PUSH2 0x100 DUP1 DUP4 SLOAD DIV MUL DUP4 MSTORE SWAP2 PUSH1 0x20 ADD SWAP2 PUSH2 0x2C6E JUMP JUMPDEST DUP3 ADD SWAP2 SWAP1 PUSH1 0x0 MSTORE PUSH1 0x20 PUSH1 0x0 KECCAK256 SWAP1 JUMPDEST DUP2 SLOAD DUP2 MSTORE SWAP1 PUSH1 0x1 ADD SWAP1 PUSH1 0x20 ADD DUP1 DUP4 GT PUSH2 0x2C51 JUMPI DUP3 SWAP1 SUB PUSH1 0x1F AND DUP3 ADD SWAP2 JUMPDEST POP POP POP POP POP DUP2 JUMP JUMPDEST PUSH1 0x0 DUP1 SLOAD SWAP1 PUSH2 0x100 EXP SWAP1 DIV PUSH20 0xFFFFFFFFFFFFFFFFFFFFFFFFFFFFFFFFFFFFFFFF AND DUP2 JUMP JUMPDEST PUSH1 0x0 DUP1 PUSH1 0x0 DUP1 PUSH2 0x2CB3 DUP6 DUP9 PUSH2 0x3B22 SWAP1 SWAP2 SWAP1 PUSH4 0xFFFFFFFF AND JUMP JUMPDEST SWAP1 POP PUSH1 0x0 PUSH2 0x2CCA DUP7 DUP9 PUSH2 0x3B22 SWAP1 SWAP2 SWAP1 PUSH4 0xFFFFFFFF AND JUMP JUMPDEST SWAP1 POP PUSH1 0x0 PUSH2 0x2CE1 DUP3 DUP5 PUSH2 0x3A06 SWAP1 SWAP2 SWAP1 PUSH4 0xFFFFFFFF AND JUMP JUMPDEST SWAP1 POP DUP3 DUP2 DUP4 SWAP6 POP SWAP6 POP SWAP6 POP POP POP POP SWAP4 POP SWAP4 POP SWAP4 SWAP1 POP JUMP JUMPDEST PUSH1 0x0 DUP1 PUSH1 0x0 DUP1 PUSH1 0x0 PUSH2 0x2D09 DUP7 PUSH2 0x3064 JUMP JUMPDEST SWAP5 POP SWAP5 POP SWAP5 POP SWAP5 POP SWAP5 POP PUSH2 0x2D65 DUP7 PUSH1 0x2 PUSH1 0x0 DUP12 PUSH20 0xFFFFFFFFFFFFFFFFFFFFFFFFFFFFFFFFFFFFFFFF AND PUSH20 0xFFFFFFFFFFFFFFFFFFFFFFFFFFFFFFFFFFFFFFFF AND DUP2 MSTORE PUSH1 0x20 ADD SWAP1 DUP2 MSTORE PUSH1 0x20 ADD PUSH1 0x0 KECCAK256 SLOAD PUSH2 0x3A06 SWAP1 SWAP2 SWAP1 PUSH4 0xFFFFFFFF AND JUMP JUMPDEST PUSH1 0x2 PUSH1 0x0 DUP11 PUSH20 0xFFFFFFFFFFFFFFFFFFFFFFFFFFFFFFFFFFFFFFFF AND PUSH20 0xFFFFFFFFFFFFFFFFFFFFFFFFFFFFFFFFFFFFFFFF AND DUP2 MSTORE PUSH1 0x20 ADD SWAP1 DUP2 MSTORE PUSH1 0x20 ADD PUSH1 0x0 KECCAK256 DUP2 SWAP1 SSTORE POP PUSH2 0x2DFA DUP6 PUSH1 0x1 PUSH1 0x0 DUP12 PUSH20 0xFFFFFFFFFFFFFFFFFFFFFFFFFFFFFFFFFFFFFFFF AND PUSH20 0xFFFFFFFFFFFFFFFFFFFFFFFFFFFFFFFFFFFFFFFF AND DUP2 MSTORE PUSH1 0x20 ADD SWAP1 DUP2 MSTORE PUSH1 0x20 ADD PUSH1 0x0 KECCAK256 SLOAD PUSH2 0x3A06 SWAP1 SWAP2 SWAP1 PUSH4 0xFFFFFFFF AND JUMP JUMPDEST PUSH1 0x1 PUSH1 0x0 DUP11 PUSH20 0xFFFFFFFFFFFFFFFFFFFFFFFFFFFFFFFFFFFFFFFF AND PUSH20 0xFFFFFFFFFFFFFFFFFFFFFFFFFFFFFFFFFFFFFFFF AND DUP2 MSTORE PUSH1 0x20 ADD SWAP1 DUP2 MSTORE PUSH1 0x20 ADD PUSH1 0x0 KECCAK256 DUP2 SWAP1 SSTORE POP PUSH2 0x2E8F DUP5 PUSH1 0x1 PUSH1 0x0 DUP11 PUSH20 0xFFFFFFFFFFFFFFFFFFFFFFFFFFFFFFFFFFFFFFFF AND PUSH20 0xFFFFFFFFFFFFFFFFFFFFFFFFFFFFFFFFFFFFFFFF AND DUP2 MSTORE PUSH1 0x20 ADD SWAP1 DUP2 MSTORE PUSH1 0x20 ADD PUSH1 0x0 KECCAK256 SLOAD PUSH2 0x3A50 SWAP1 SWAP2 SWAP1 PUSH4 0xFFFFFFFF AND JUMP JUMPDEST PUSH1 0x1 PUSH1 0x0 DUP10 PUSH20 0xFFFFFFFFFFFFFFFFFFFFFFFFFFFFFFFFFFFFFFFF AND PUSH20 0xFFFFFFFFFFFFFFFFFFFFFFFFFFFFFFFFFFFFFFFF AND DUP2 MSTORE PUSH1 0x20 ADD SWAP1 DUP2 MSTORE PUSH1 0x20 ADD PUSH1 0x0 KECCAK256 DUP2 SWAP1 SSTORE POP PUSH2 0x2EDC DUP4 DUP3 PUSH2 0x186D JUMP JUMPDEST DUP7 PUSH20 0xFFFFFFFFFFFFFFFFFFFFFFFFFFFFFFFFFFFFFFFF AND DUP9 PUSH20 0xFFFFFFFFFFFFFFFFFFFFFFFFFFFFFFFFFFFFFFFF AND PUSH32 0xDDF252AD1BE2C89B69C2B068FC378DAA952BA7F163C4A11628F55A4DF523B3EF DUP5 PUSH1 0x40 MLOAD DUP1 DUP3 DUP2 MSTORE PUSH1 0x20 ADD SWAP2 POP POP PUSH1 0x40 MLOAD DUP1 SWAP2 SUB SWAP1 LOG3 POP POP POP POP POP POP POP POP JUMP JUMPDEST PUSH1 0x0 DUP1 PUSH2 0x2F5B PUSH1 0x9 SLOAD PUSH1 0x0 PUSH2 0x2110 JUMP JUMPDEST PUSH1 0x8 SLOAD SUB SWAP1 POP PUSH2 0x2F6A DUP2 PUSH2 0x1B3E JUMP JUMPDEST SWAP2 POP POP SWAP1 JUMP JUMPDEST PUSH1 0x0 PUSH1 0x4 PUSH1 0x0 DUP4 PUSH20 0xFFFFFFFFFFFFFFFFFFFFFFFFFFFFFFFFFFFFFFFF AND PUSH20 0xFFFFFFFFFFFFFFFFFFFFFFFFFFFFFFFFFFFFFFFF AND DUP2 MSTORE PUSH1 0x20 ADD SWAP1 DUP2 MSTORE PUSH1 0x20 ADD PUSH1 0x0 KECCAK256 PUSH1 0x0 SWAP1 SLOAD SWAP1 PUSH2 0x100 EXP SWAP1 DIV PUSH1 0xFF AND SWAP1 POP SWAP2 SWAP1 POP JUMP JUMPDEST PUSH1 0xA DUP1 SLOAD PUSH1 0x1 DUP2 PUSH1 0x1 AND ISZERO PUSH2 0x100 MUL SUB AND PUSH1 0x2 SWAP1 DIV DUP1 PUSH1 0x1F ADD PUSH1 0x20 DUP1 SWAP2 DIV MUL PUSH1 0x20 ADD PUSH1 0x40 MLOAD SWAP1 DUP2 ADD PUSH1 0x40 MSTORE DUP1 SWAP3 SWAP2 SWAP1 DUP2 DUP2 MSTORE PUSH1 0x20 ADD DUP3 DUP1 SLOAD PUSH1 0x1 DUP2 PUSH1 0x1 AND ISZERO PUSH2 0x100 MUL SUB AND PUSH1 0x2 SWAP1 DIV DUP1 ISZERO PUSH2 0x305C JUMPI DUP1 PUSH1 0x1F LT PUSH2 0x3031 JUMPI PUSH2 0x100 DUP1 DUP4 SLOAD DIV MUL DUP4 MSTORE SWAP2 PUSH1 0x20 ADD SWAP2 PUSH2 0x305C JUMP JUMPDEST DUP3 ADD SWAP2 SWAP1 PUSH1 0x0 MSTORE PUSH1 0x20 PUSH1 0x0 KECCAK256 SWAP1 JUMPDEST DUP2 SLOAD DUP2 MSTORE SWAP1 PUSH1 0x1 ADD SWAP1 PUSH1 0x20 ADD DUP1 DUP4 GT PUSH2 0x303F JUMPI DUP3 SWAP1 SUB PUSH1 0x1F AND DUP3 ADD SWAP2 JUMPDEST POP POP POP POP POP DUP2 JUMP JUMPDEST PUSH1 0x0 DUP1 PUSH1 0x0 DUP1 PUSH1 0x0 DUP1 PUSH1 0x0 PUSH2 0x3078 DUP9 PUSH2 0x15B5 JUMP JUMPDEST SWAP2 POP SWAP2 POP PUSH1 0x0 PUSH2 0x3086 PUSH2 0x278E JUMP JUMPDEST SWAP1 POP PUSH1 0x0 DUP1 PUSH1 0x0 PUSH2 0x3098 DUP13 DUP7 DUP7 PUSH2 0x2C9A JUMP JUMPDEST SWAP3 POP SWAP3 POP SWAP3 POP DUP3 DUP3 DUP3 DUP9 DUP9 SWAP11 POP SWAP11 POP SWAP11 POP SWAP11 POP SWAP11 POP POP POP POP POP POP POP SWAP2 SWAP4 SWAP6 SWAP1 SWAP3 SWAP5 POP JUMP JUMPDEST PUSH2 0x3E8 DUP2 JUMP JUMPDEST PUSH1 0x0 PUSH1 0x3 PUSH1 0x0 DUP5 PUSH20 0xFFFFFFFFFFFFFFFFFFFFFFFFFFFFFFFFFFFFFFFF AND PUSH20 0xFFFFFFFFFFFFFFFFFFFFFFFFFFFFFFFFFFFFFFFF AND DUP2 MSTORE PUSH1 0x20 ADD SWAP1 DUP2 MSTORE PUSH1 0x20 ADD PUSH1 0x0 KECCAK256 PUSH1 0x0 DUP4 PUSH20 0xFFFFFFFFFFFFFFFFFFFFFFFFFFFFFFFFFFFFFFFF AND PUSH20 0xFFFFFFFFFFFFFFFFFFFFFFFFFFFFFFFFFFFFFFFF AND DUP2 MSTORE PUSH1 0x20 ADD SWAP1 DUP2 MSTORE PUSH1 0x20 ADD PUSH1 0x0 KECCAK256 SLOAD SWAP1 POP SWAP3 SWAP2 POP POP JUMP JUMPDEST PUSH2 0x3151 PUSH2 0x39FE JUMP JUMPDEST PUSH20 0xFFFFFFFFFFFFFFFFFFFFFFFFFFFFFFFFFFFFFFFF AND PUSH1 0x0 DUP1 SLOAD SWAP1 PUSH2 0x100 EXP SWAP1 DIV PUSH20 0xFFFFFFFFFFFFFFFFFFFFFFFFFFFFFFFFFFFFFFFF AND PUSH20 0xFFFFFFFFFFFFFFFFFFFFFFFFFFFFFFFFFFFFFFFF AND EQ PUSH2 0x3211 JUMPI PUSH1 0x40 MLOAD PUSH32 0x8C379A000000000000000000000000000000000000000000000000000000000 DUP2 MSTORE PUSH1 0x4 ADD DUP1 DUP1 PUSH1 0x20 ADD DUP3 DUP2 SUB DUP3 MSTORE PUSH1 0x20 DUP2 MSTORE PUSH1 0x20 ADD DUP1 PUSH32 0x4F776E61626C653A2063616C6C6572206973206E6F7420746865206F776E6572 DUP2 MSTORE POP PUSH1 0x20 ADD SWAP2 POP POP PUSH1 0x40 MLOAD DUP1 SWAP2 SUB SWAP1 REVERT JUMPDEST PUSH1 0x4 PUSH1 0x0 DUP3 PUSH20 0xFFFFFFFFFFFFFFFFFFFFFFFFFFFFFFFFFFFFFFFF AND PUSH20 0xFFFFFFFFFFFFFFFFFFFFFFFFFFFFFFFFFFFFFFFF AND DUP2 MSTORE PUSH1 0x20 ADD SWAP1 DUP2 MSTORE PUSH1 0x20 ADD PUSH1 0x0 KECCAK256 PUSH1 0x0 SWAP1 SLOAD SWAP1 PUSH2 0x100 EXP SWAP1 DIV PUSH1 0xFF AND ISZERO PUSH2 0x32D1 JUMPI PUSH1 0x40 MLOAD PUSH32 0x8C379A000000000000000000000000000000000000000000000000000000000 DUP2 MSTORE PUSH1 0x4 ADD DUP1 DUP1 PUSH1 0x20 ADD DUP3 DUP2 SUB DUP3 MSTORE PUSH1 0x1B DUP2 MSTORE PUSH1 0x20 ADD DUP1 PUSH32 0x4163636F756E7420697320616C7265616479206578636C756465640000000000 DUP2 MSTORE POP PUSH1 0x20 ADD SWAP2 POP POP PUSH1 0x40 MLOAD DUP1 SWAP2 SUB SWAP1 REVERT JUMPDEST PUSH1 0x0 PUSH1 0x1 PUSH1 0x0 DUP4 PUSH20 0xFFFFFFFFFFFFFFFFFFFFFFFFFFFFFFFFFFFFFFFF AND PUSH20 0xFFFFFFFFFFFFFFFFFFFFFFFFFFFFFFFFFFFFFFFF AND DUP2 MSTORE PUSH1 0x20 ADD SWAP1 DUP2 MSTORE PUSH1 0x20 ADD PUSH1 0x0 KECCAK256 SLOAD GT ISZERO PUSH2 0x33A5 JUMPI PUSH2 0x3361 PUSH1 0x1 PUSH1 0x0 DUP4 PUSH20 0xFFFFFFFFFFFFFFFFFFFFFFFFFFFFFFFFFFFFFFFF AND PUSH20 0xFFFFFFFFFFFFFFFFFFFFFFFFFFFFFFFFFFFFFFFF AND DUP2 MSTORE PUSH1 0x20 ADD SWAP1 DUP2 MSTORE PUSH1 0x20 ADD PUSH1 0x0 KECCAK256 SLOAD PUSH2 0x1B3E JUMP JUMPDEST PUSH1 0x2 PUSH1 0x0 DUP4 PUSH20 0xFFFFFFFFFFFFFFFFFFFFFFFFFFFFFFFFFFFFFFFF AND PUSH20 0xFFFFFFFFFFFFFFFFFFFFFFFFFFFFFFFFFFFFFFFF AND DUP2 MSTORE PUSH1 0x20 ADD SWAP1 DUP2 MSTORE PUSH1 0x20 ADD PUSH1 0x0 KECCAK256 DUP2 SWAP1 SSTORE POP JUMPDEST PUSH1 0x1 PUSH1 0x4 PUSH1 0x0 DUP4 PUSH20 0xFFFFFFFFFFFFFFFFFFFFFFFFFFFFFFFFFFFFFFFF AND PUSH20 0xFFFFFFFFFFFFFFFFFFFFFFFFFFFFFFFFFFFFFFFF AND DUP2 MSTORE PUSH1 0x20 ADD SWAP1 DUP2 MSTORE PUSH1 0x20 ADD PUSH1 0x0 KECCAK256 PUSH1 0x0 PUSH2 0x100 EXP DUP2 SLOAD DUP2 PUSH1 0xFF MUL NOT AND SWAP1 DUP4 ISZERO ISZERO MUL OR SWAP1 SSTORE POP PUSH1 0x5 DUP2 SWAP1 DUP1 PUSH1 0x1 DUP2 SLOAD ADD DUP1 DUP3 SSTORE DUP1 SWAP2 POP POP PUSH1 0x1 SWAP1 SUB SWAP1 PUSH1 0x0 MSTORE PUSH1 0x20 PUSH1 0x0 KECCAK256 ADD PUSH1 0x0 SWAP1 SWAP2 SWAP1 SWAP2 SWAP1 SWAP2 PUSH2 0x100 EXP DUP2 SLOAD DUP2 PUSH20 0xFFFFFFFFFFFFFFFFFFFFFFFFFFFFFFFFFFFFFFFF MUL NOT AND SWAP1 DUP4 PUSH20 0xFFFFFFFFFFFFFFFFFFFFFFFFFFFFFFFFFFFFFFFF AND MUL OR SWAP1 SSTORE POP POP JUMP JUMPDEST PUSH2 0x346B PUSH2 0x39FE JUMP JUMPDEST PUSH20 0xFFFFFFFFFFFFFFFFFFFFFFFFFFFFFFFFFFFFFFFF AND PUSH1 0x0 DUP1 SLOAD SWAP1 PUSH2 0x100 EXP SWAP1 DIV PUSH20 0xFFFFFFFFFFFFFFFFFFFFFFFFFFFFFFFFFFFFFFFF AND PUSH20 0xFFFFFFFFFFFFFFFFFFFFFFFFFFFFFFFFFFFFFFFF AND EQ PUSH2 0x352B JUMPI PUSH1 0x40 MLOAD PUSH32 0x8C379A000000000000000000000000000000000000000000000000000000000 DUP2 MSTORE PUSH1 0x4 ADD DUP1 DUP1 PUSH1 0x20 ADD DUP3 DUP2 SUB DUP3 MSTORE PUSH1 0x20 DUP2 MSTORE PUSH1 0x20 ADD DUP1 PUSH32 0x4F776E61626C653A2063616C6C6572206973206E6F7420746865206F776E6572 DUP2 MSTORE POP PUSH1 0x20 ADD SWAP2 POP POP PUSH1 0x40 MLOAD DUP1 SWAP2 SUB SWAP1 REVERT JUMPDEST PUSH1 0x0 PUSH20 0xFFFFFFFFFFFFFFFFFFFFFFFFFFFFFFFFFFFFFFFF AND DUP2 PUSH20 0xFFFFFFFFFFFFFFFFFFFFFFFFFFFFFFFFFFFFFFFF AND EQ ISZERO PUSH2 0x35B1 JUMPI PUSH1 0x40 MLOAD PUSH32 0x8C379A000000000000000000000000000000000000000000000000000000000 DUP2 MSTORE PUSH1 0x4 ADD DUP1 DUP1 PUSH1 0x20 ADD DUP3 DUP2 SUB DUP3 MSTORE PUSH1 0x26 DUP2 MSTORE PUSH1 0x20 ADD DUP1 PUSH2 0x3D7C PUSH1 0x26 SWAP2 CODECOPY PUSH1 0x40 ADD SWAP2 POP POP PUSH1 0x40 MLOAD DUP1 SWAP2 SUB SWAP1 REVERT JUMPDEST DUP1 PUSH20 0xFFFFFFFFFFFFFFFFFFFFFFFFFFFFFFFFFFFFFFFF AND PUSH1 0x0 DUP1 SLOAD SWAP1 PUSH2 0x100 EXP SWAP1 DIV PUSH20 0xFFFFFFFFFFFFFFFFFFFFFFFFFFFFFFFFFFFFFFFF AND PUSH20 0xFFFFFFFFFFFFFFFFFFFFFFFFFFFFFFFFFFFFFFFF AND PUSH32 0x8BE0079C531659141344CD1FD0A4F28419497F9722A3DAAFE3B4186F6B6457E0 PUSH1 0x40 MLOAD PUSH1 0x40 MLOAD DUP1 SWAP2 SUB SWAP1 LOG3 DUP1 PUSH1 0x0 DUP1 PUSH2 0x100 EXP DUP2 SLOAD DUP2 PUSH20 0xFFFFFFFFFFFFFFFFFFFFFFFFFFFFFFFFFFFFFFFF MUL NOT AND SWAP1 DUP4 PUSH20 0xFFFFFFFFFFFFFFFFFFFFFFFFFFFFFFFFFFFFFFFF AND MUL OR SWAP1 SSTORE POP POP JUMP JUMPDEST PUSH2 0x3676 PUSH2 0x39FE JUMP JUMPDEST PUSH20 0xFFFFFFFFFFFFFFFFFFFFFFFFFFFFFFFFFFFFFFFF AND PUSH1 0x0 DUP1 SLOAD SWAP1 PUSH2 0x100 EXP SWAP1 DIV PUSH20 0xFFFFFFFFFFFFFFFFFFFFFFFFFFFFFFFFFFFFFFFF AND PUSH20 0xFFFFFFFFFFFFFFFFFFFFFFFFFFFFFFFFFFFFFFFF AND EQ PUSH2 0x3736 JUMPI PUSH1 0x40 MLOAD PUSH32 0x8C379A000000000000000000000000000000000000000000000000000000000 DUP2 MSTORE PUSH1 0x4 ADD DUP1 DUP1 PUSH1 0x20 ADD DUP3 DUP2 SUB DUP3 MSTORE PUSH1 0x20 DUP2 MSTORE PUSH1 0x20 ADD DUP1 PUSH32 0x4F776E61626C653A2063616C6C6572206973206E6F7420746865206F776E6572 DUP2 MSTORE POP PUSH1 0x20 ADD SWAP2 POP POP PUSH1 0x40 MLOAD DUP1 SWAP2 SUB SWAP1 REVERT JUMPDEST PUSH1 0x4 PUSH1 0x0 DUP3 PUSH20 0xFFFFFFFFFFFFFFFFFFFFFFFFFFFFFFFFFFFFFFFF AND PUSH20 0xFFFFFFFFFFFFFFFFFFFFFFFFFFFFFFFFFFFFFFFF AND DUP2 MSTORE PUSH1 0x20 ADD SWAP1 DUP2 MSTORE PUSH1 0x20 ADD PUSH1 0x0 KECCAK256 PUSH1 0x0 SWAP1 SLOAD SWAP1 PUSH2 0x100 EXP SWAP1 DIV PUSH1 0xFF AND PUSH2 0x37F5 JUMPI PUSH1 0x40 MLOAD PUSH32 0x8C379A000000000000000000000000000000000000000000000000000000000 DUP2 MSTORE PUSH1 0x4 ADD DUP1 DUP1 PUSH1 0x20 ADD DUP3 DUP2 SUB DUP3 MSTORE PUSH1 0x1B DUP2 MSTORE PUSH1 0x20 ADD DUP1 PUSH32 0x4163636F756E7420697320616C7265616479206578636C756465640000000000 DUP2 MSTORE POP PUSH1 0x20 ADD SWAP2 POP POP PUSH1 0x40 MLOAD DUP1 SWAP2 SUB SWAP1 REVERT JUMPDEST PUSH1 0x0 JUMPDEST PUSH1 0x5 DUP1 SLOAD SWAP1 POP DUP2 LT ISZERO PUSH2 0x39F4 JUMPI DUP2 PUSH20 0xFFFFFFFFFFFFFFFFFFFFFFFFFFFFFFFFFFFFFFFF AND PUSH1 0x5 DUP3 DUP2 SLOAD DUP2 LT PUSH2 0x3829 JUMPI INVALID JUMPDEST SWAP1 PUSH1 0x0 MSTORE PUSH1 0x20 PUSH1 0x0 KECCAK256 ADD PUSH1 0x0 SWAP1 SLOAD SWAP1 PUSH2 0x100 EXP SWAP1 DIV PUSH20 0xFFFFFFFFFFFFFFFFFFFFFFFFFFFFFFFFFFFFFFFF AND PUSH20 0xFFFFFFFFFFFFFFFFFFFFFFFFFFFFFFFFFFFFFFFF AND EQ ISZERO PUSH2 0x39E7 JUMPI PUSH1 0x5 PUSH1 0x1 PUSH1 0x5 DUP1 SLOAD SWAP1 POP SUB DUP2 SLOAD DUP2 LT PUSH2 0x3885 JUMPI INVALID JUMPDEST SWAP1 PUSH1 0x0 MSTORE PUSH1 0x20 PUSH1 0x0 KECCAK256 ADD PUSH1 0x0 SWAP1 SLOAD SWAP1 PUSH2 0x100 EXP SWAP1 DIV PUSH20 0xFFFFFFFFFFFFFFFFFFFFFFFFFFFFFFFFFFFFFFFF AND PUSH1 0x5 DUP3 DUP2 SLOAD DUP2 LT PUSH2 0x38BD JUMPI INVALID JUMPDEST SWAP1 PUSH1 0x0 MSTORE PUSH1 0x20 PUSH1 0x0 KECCAK256 ADD PUSH1 0x0 PUSH2 0x100 EXP DUP2 SLOAD DUP2 PUSH20 0xFFFFFFFFFFFFFFFFFFFFFFFFFFFFFFFFFFFFFFFF MUL NOT AND SWAP1 DUP4 PUSH20 0xFFFFFFFFFFFFFFFFFFFFFFFFFFFFFFFFFFFFFFFF AND MUL OR SWAP1 SSTORE POP PUSH1 0x0 PUSH1 0x2 PUSH1 0x0 DUP5 PUSH20 0xFFFFFFFFFFFFFFFFFFFFFFFFFFFFFFFFFFFFFFFF AND PUSH20 0xFFFFFFFFFFFFFFFFFFFFFFFFFFFFFFFFFFFFFFFF AND DUP2 MSTORE PUSH1 0x20 ADD SWAP1 DUP2 MSTORE PUSH1 0x20 ADD PUSH1 0x0 KECCAK256 DUP2 SWAP1 SSTORE POP PUSH1 0x0 PUSH1 0x4 PUSH1 0x0 DUP5 PUSH20 0xFFFFFFFFFFFFFFFFFFFFFFFFFFFFFFFFFFFFFFFF AND PUSH20 0xFFFFFFFFFFFFFFFFFFFFFFFFFFFFFFFFFFFFFFFF AND DUP2 MSTORE PUSH1 0x20 ADD SWAP1 DUP2 MSTORE PUSH1 0x20 ADD PUSH1 0x0 KECCAK256 PUSH1 0x0 PUSH2 0x100 EXP DUP2 SLOAD DUP2 PUSH1 0xFF MUL NOT AND SWAP1 DUP4 ISZERO ISZERO MUL OR SWAP1 SSTORE POP PUSH1 0x5 DUP1 SLOAD DUP1 PUSH2 0x39AD JUMPI INVALID JUMPDEST PUSH1 0x1 SWAP1 SUB DUP2 DUP2 SWAP1 PUSH1 0x0 MSTORE PUSH1 0x20 PUSH1 0x0 KECCAK256 ADD PUSH1 0x0 PUSH2 0x100 EXP DUP2 SLOAD SWAP1 PUSH20 0xFFFFFFFFFFFFFFFFFFFFFFFFFFFFFFFFFFFFFFFF MUL NOT AND SWAP1 SSTORE SWAP1 SSTORE PUSH2 0x39F4 JUMP JUMPDEST DUP1 DUP1 PUSH1 0x1 ADD SWAP2 POP POP PUSH2 0x37F8 JUMP JUMPDEST POP POP JUMP JUMPDEST PUSH1 0x9 SLOAD DUP2 JUMP JUMPDEST PUSH1 0x0 CALLER SWAP1 POP SWAP1 JUMP JUMPDEST PUSH1 0x0 PUSH2 0x3A48 DUP4 DUP4 PUSH1 0x40 MLOAD DUP1 PUSH1 0x40 ADD PUSH1 0x40 MSTORE DUP1 PUSH1 0x1E DUP2 MSTORE PUSH1 0x20 ADD PUSH32 0x536166654D6174683A207375627472616374696F6E206F766572666C6F770000 DUP2 MSTORE POP PUSH2 0x3BA8 JUMP JUMPDEST SWAP1 POP SWAP3 SWAP2 POP POP JUMP JUMPDEST PUSH1 0x0 DUP1 DUP3 DUP5 ADD SWAP1 POP DUP4 DUP2 LT ISZERO PUSH2 0x3ACE JUMPI PUSH1 0x40 MLOAD PUSH32 0x8C379A000000000000000000000000000000000000000000000000000000000 DUP2 MSTORE PUSH1 0x4 ADD DUP1 DUP1 PUSH1 0x20 ADD DUP3 DUP2 SUB DUP3 MSTORE PUSH1 0x1B DUP2 MSTORE PUSH1 0x20 ADD DUP1 PUSH32 0x536166654D6174683A206164646974696F6E206F766572666C6F770000000000 DUP2 MSTORE POP PUSH1 0x20 ADD SWAP2 POP POP PUSH1 0x40 MLOAD DUP1 SWAP2 SUB SWAP1 REVERT JUMPDEST DUP1 SWAP2 POP POP SWAP3 SWAP2 POP POP JUMP JUMPDEST PUSH1 0x0 PUSH2 0x3B1A DUP4 DUP4 PUSH1 0x40 MLOAD DUP1 PUSH1 0x40 ADD PUSH1 0x40 MSTORE DUP1 PUSH1 0x1A DUP2 MSTORE PUSH1 0x20 ADD PUSH32 0x536166654D6174683A206469766973696F6E206279207A65726F000000000000 DUP2 MSTORE POP PUSH2 0x3C68 JUMP JUMPDEST SWAP1 POP SWAP3 SWAP2 POP POP JUMP JUMPDEST PUSH1 0x0 DUP1 DUP4 EQ ISZERO PUSH2 0x3B35 JUMPI PUSH1 0x0 SWAP1 POP PUSH2 0x3BA2 JUMP JUMPDEST PUSH1 0x0 DUP3 DUP5 MUL SWAP1 POP DUP3 DUP5 DUP3 DUP2 PUSH2 0x3B46 JUMPI INVALID JUMPDEST DIV EQ PUSH2 0x3B9D JUMPI PUSH1 0x40 MLOAD PUSH32 0x8C379A000000000000000000000000000000000000000000000000000000000 DUP2 MSTORE PUSH1 0x4 ADD DUP1 DUP1 PUSH1 0x20 ADD DUP3 DUP2 SUB DUP3 MSTORE PUSH1 0x21 DUP2 MSTORE PUSH1 0x20 ADD DUP1 PUSH2 0x3DC4 PUSH1 0x21 SWAP2 CODECOPY PUSH1 0x40 ADD SWAP2 POP POP PUSH1 0x40 MLOAD DUP1 SWAP2 SUB SWAP1 REVERT JUMPDEST DUP1 SWAP2 POP POP JUMPDEST SWAP3 SWAP2 POP POP JUMP JUMPDEST PUSH1 0x0 DUP4 DUP4 GT ISZERO DUP3 SWAP1 PUSH2 0x3C55 JUMPI PUSH1 0x40 MLOAD PUSH32 0x8C379A000000000000000000000000000000000000000000000000000000000 DUP2 MSTORE PUSH1 0x4 ADD DUP1 DUP1 PUSH1 0x20 ADD DUP3 DUP2 SUB DUP3 MSTORE DUP4 DUP2 DUP2 MLOAD DUP2 MSTORE PUSH1 0x20 ADD SWAP2 POP DUP1 MLOAD SWAP1 PUSH1 0x20 ADD SWAP1 DUP1 DUP4 DUP4 PUSH1 0x0 JUMPDEST DUP4 DUP2 LT ISZERO PUSH2 0x3C1A JUMPI DUP1 DUP3 ADD MLOAD DUP2 DUP5 ADD MSTORE PUSH1 0x20 DUP2 ADD SWAP1 POP PUSH2 0x3BFF JUMP JUMPDEST POP POP POP POP SWAP1 POP SWAP1 DUP2 ADD SWAP1 PUSH1 0x1F AND DUP1 ISZERO PUSH2 0x3C47 JUMPI DUP1 DUP3 SUB DUP1 MLOAD PUSH1 0x1 DUP4 PUSH1 0x20 SUB PUSH2 0x100 EXP SUB NOT AND DUP2 MSTORE PUSH1 0x20 ADD SWAP2 POP JUMPDEST POP SWAP3 POP POP POP PUSH1 0x40 MLOAD DUP1 SWAP2 SUB SWAP1 REVERT JUMPDEST POP PUSH1 0x0 DUP4 DUP6 SUB SWAP1 POP DUP1 SWAP2 POP POP SWAP4 SWAP3 POP POP POP JUMP JUMPDEST PUSH1 0x0 DUP1 DUP4 GT DUP3 SWAP1 PUSH2 0x3D14 JUMPI PUSH1 0x40 MLOAD PUSH32 0x8C379A000000000000000000000000000000000000000000000000000000000 DUP2 MSTORE PUSH1 0x4 ADD DUP1 DUP1 PUSH1 0x20 ADD DUP3 DUP2 SUB DUP3 MSTORE DUP4 DUP2 DUP2 MLOAD DUP2 MSTORE PUSH1 0x20 ADD SWAP2 POP DUP1 MLOAD SWAP1 PUSH1 0x20 ADD SWAP1 DUP1 DUP4 DUP4 PUSH1 0x0 JUMPDEST DUP4 DUP2 LT ISZERO PUSH2 0x3CD9 JUMPI DUP1 DUP3 ADD MLOAD DUP2 DUP5 ADD MSTORE PUSH1 0x20 DUP2 ADD SWAP1 POP PUSH2 0x3CBE JUMP JUMPDEST POP POP POP POP SWAP1 POP SWAP1 DUP2 ADD SWAP1 PUSH1 0x1F AND DUP1 ISZERO PUSH2 0x3D06 JUMPI DUP1 DUP3 SUB DUP1 MLOAD PUSH1 0x1 DUP4 PUSH1 0x20 SUB PUSH2 0x100 EXP SUB NOT AND DUP2 MSTORE PUSH1 0x20 ADD SWAP2 POP JUMPDEST POP SWAP3 POP POP POP PUSH1 0x40 MLOAD DUP1 SWAP2 SUB SWAP1 REVERT JUMPDEST POP PUSH1 0x0 DUP4 DUP6 DUP2 PUSH2 0x3D20 JUMPI INVALID JUMPDEST DIV SWAP1 POP DUP1 SWAP2 POP POP SWAP4 SWAP3 POP POP POP JUMP INVALID GASLIMIT MSTORE NUMBER ORIGIN ADDRESS GASPRICE KECCAK256 PUSH21 0x72616E7366657220746F20746865207A65726F2061 PUSH5 0x6472657373 COINBASE PUSH14 0x6F756E74206D757374206265206C PUSH6 0x737320746861 PUSH15 0x20746F74616C207265666C65637469 PUSH16 0x6E734F776E61626C653A206E6577206F PUSH24 0x6E657220697320746865207A65726F206164647265737345 MSTORE NUMBER ORIGIN ADDRESS GASPRICE KECCAK256 PUSH2 0x7070 PUSH19 0x6F766520746F20746865207A65726F20616464 PUSH19 0x657373536166654D6174683A206D756C746970 PUSH13 0x69636174696F6E206F76657266 PUSH13 0x6F7745524332303A207472616E PUSH20 0x66657220616D6F756E7420657863656564732061 PUSH13 0x6C6F77616E63655472616E7366 PUSH6 0x7220616D6F75 PUSH15 0x74206D757374206265206772656174 PUSH6 0x72207468616E KECCAK256 PUSH27 0x65726F45524332303A207472616E736665722066726F6D20746865 KECCAK256 PUSH27 0x65726F206164647265737345524332303A20617070726F76652066 PUSH19 0x6F6D20746865207A65726F2061646472657373 GASLIMIT PUSH25 0x636C75646564206164647265737365732063616E6E6F742063 PUSH2 0x6C6C KECCAK256 PUSH21 0x6869732066756E6374696F6E45524332303A206465 PUSH4 0x72656173 PUSH6 0x6420616C6C6F PUSH24 0x616E63652062656C6F77207A65726FA26469706673582212 KECCAK256 MSTORE REVERT 0xE1 LOG0 0x5D DUP3 MLOAD 0x4B MOD 0xDF 0xEC 0xE2 0xC9 ORIGIN SWAP5 0xAB 0xB3 PUSH6 0x74CC4F290A6A SWAP15 0x2A ADDMOD 0xBA EQ 0xC9 DUP15 0xC7 PUSH5 0x736F6C6343 STOP MOD 0xC STOP CALLER "
				},
				"gasEstimates": {
					"creation": {
						"codeDepositCost": "3226600",
						"executionCost": "infinite",
						"totalCost": "infinite"
					},
					"external": {
						"MAX()": "249",
						"_allowances(address,address)": "1314",
						"_approve(address,address,uint256)": "infinite",
						"_decimals()": "1203",
						"_excluded(uint256)": "2144",
						"_getCurrentSupply()": "infinite",
						"_getRValues(uint256,uint256,uint256)": "infinite",
						"_getRate()": "infinite",
						"_getTValues(uint256)": "infinite",
						"_getValues(uint256)": "infinite",
						"_isExcluded(address)": "1335",
						"_name()": "infinite",
						"_owner()": "1199",
						"_rOwned(address)": "1326",
						"_rTotal()": "1116",
						"_reflectFee(uint256,uint256)": "infinite",
						"_symbol()": "infinite",
						"_tFeeTotal()": "1159",
						"_tOwned(address)": "1236",
						"_tTotal()": "316",
						"_transfer(address,address,uint256)": "infinite",
						"_transferBothExcluded(address,address,uint256)": "infinite",
						"_transferFromExcluded(address,address,uint256)": "infinite",
						"_transferStandard(address,address,uint256)": "infinite",
						"_transferToExcluded(address,address,uint256)": "infinite",
						"allowance(address,address)": "1387",
						"approve(address,uint256)": "infinite",
						"balanceOf(address)": "infinite",
						"decimals()": "1189",
						"decreaseAllowance(address,uint256)": "infinite",
						"excludeAccount(address)": "infinite",
						"includeAccount(address)": "infinite",
						"increaseAllowance(address,uint256)": "infinite",
						"isExcluded(address)": "1349",
						"name()": "infinite",
						"owner()": "1167",
						"percent()": "1073",
						"reflect(uint256)": "infinite",
						"reflectionFromToken(uint256,bool)": "infinite",
						"renounceOwnership()": "24381",
						"symbol()": "infinite",
						"tokenFromReflection(uint256)": "infinite",
						"totalFees()": "1103",
						"totalSupply()": "347",
						"transfer(address,uint256)": "infinite",
						"transferFrom(address,address,uint256)": "infinite",
						"transferOwnership(address)": "infinite",
						"workingSupply()": "infinite"
					}
				},
				"methodIdentifiers": {
					"MAX()": "d49d5181",
					"_allowances(address,address)": "024c2ddd",
					"_approve(address,address,uint256)": "104e81ff",
					"_decimals()": "32424aa3",
					"_excluded(uint256)": "4d09deb3",
					"_getCurrentSupply()": "97a9d560",
					"_getRValues(uint256,uint256,uint256)": "c2264c6a",
					"_getRate()": "94e10784",
					"_getTValues(uint256)": "11902160",
					"_getValues(uint256)": "d4780e36",
					"_isExcluded(address)": "0b285b1f",
					"_name()": "d28d8852",
					"_owner()": "b2bdfa7b",
					"_rOwned(address)": "0cfc15f9",
					"_rTotal()": "45e0b9d4",
					"_reflectFee(uint256,uint256)": "184d894e",
					"_symbol()": "b09f1266",
					"_tFeeTotal()": "fb1eb14b",
					"_tOwned(address)": "3b7e6d4a",
					"_tTotal()": "af465a27",
					"_transfer(address,address,uint256)": "30e0789e",
					"_transferBothExcluded(address,address,uint256)": "6ff6cdf4",
					"_transferFromExcluded(address,address,uint256)": "c7d9be66",
					"_transferStandard(address,address,uint256)": "2852df65",
					"_transferToExcluded(address,address,uint256)": "16f1cc83",
					"allowance(address,address)": "dd62ed3e",
					"approve(address,uint256)": "095ea7b3",
					"balanceOf(address)": "70a08231",
					"decimals()": "313ce567",
					"decreaseAllowance(address,uint256)": "a457c2d7",
					"excludeAccount(address)": "f2cc0c18",
					"includeAccount(address)": "f84354f1",
					"increaseAllowance(address,uint256)": "39509351",
					"isExcluded(address)": "cba0e996",
					"name()": "06fdde03",
					"owner()": "8da5cb5b",
					"percent()": "70ba1113",
					"reflect(uint256)": "053ab182",
					"reflectionFromToken(uint256,bool)": "4549b039",
					"renounceOwnership()": "715018a6",
					"symbol()": "95d89b41",
					"tokenFromReflection(uint256)": "2d838119",
					"totalFees()": "13114a9d",
					"totalSupply()": "18160ddd",
					"transfer(address,uint256)": "a9059cbb",
					"transferFrom(address,address,uint256)": "23b872dd",
					"transferOwnership(address)": "f2fde38b",
					"workingSupply()": "c8562f72"
				}
			},
			"storageLayout": {
				"storage": [
					{
						"astId": 495,
						"contract": "feg.sol:FEG",
						"label": "_owner",
						"offset": 0,
						"slot": "0",
						"type": "t_address"
					},
					{
						"astId": 612,
						"contract": "feg.sol:FEG",
						"label": "_rOwned",
						"offset": 0,
						"slot": "1",
						"type": "t_mapping(t_address,t_uint256)"
					},
					{
						"astId": 616,
						"contract": "feg.sol:FEG",
						"label": "_tOwned",
						"offset": 0,
						"slot": "2",
						"type": "t_mapping(t_address,t_uint256)"
					},
					{
						"astId": 622,
						"contract": "feg.sol:FEG",
						"label": "_allowances",
						"offset": 0,
						"slot": "3",
						"type": "t_mapping(t_address,t_mapping(t_address,t_uint256))"
					},
					{
						"astId": 626,
						"contract": "feg.sol:FEG",
						"label": "_isExcluded",
						"offset": 0,
						"slot": "4",
						"type": "t_mapping(t_address,t_bool)"
					},
					{
						"astId": 629,
						"contract": "feg.sol:FEG",
						"label": "_excluded",
						"offset": 0,
						"slot": "5",
						"type": "t_array(t_address)dyn_storage"
					},
					{
						"astId": 638,
						"contract": "feg.sol:FEG",
						"label": "_decimals",
						"offset": 0,
						"slot": "6",
						"type": "t_uint8"
					},
					{
						"astId": 641,
						"contract": "feg.sol:FEG",
						"label": "percent",
						"offset": 0,
						"slot": "7",
						"type": "t_uint256"
					},
					{
						"astId": 650,
						"contract": "feg.sol:FEG",
						"label": "_rTotal",
						"offset": 0,
						"slot": "8",
						"type": "t_uint256"
					},
					{
						"astId": 652,
						"contract": "feg.sol:FEG",
						"label": "_tFeeTotal",
						"offset": 0,
						"slot": "9",
						"type": "t_uint256"
					},
					{
						"astId": 655,
						"contract": "feg.sol:FEG",
						"label": "_name",
						"offset": 0,
						"slot": "10",
						"type": "t_string_storage"
					},
					{
						"astId": 658,
						"contract": "feg.sol:FEG",
						"label": "_symbol",
						"offset": 0,
						"slot": "11",
						"type": "t_string_storage"
					}
				],
				"types": {
					"t_address": {
						"encoding": "inplace",
						"label": "address",
						"numberOfBytes": "20"
					},
					"t_array(t_address)dyn_storage": {
						"base": "t_address",
						"encoding": "dynamic_array",
						"label": "address[]",
						"numberOfBytes": "32"
					},
					"t_bool": {
						"encoding": "inplace",
						"label": "bool",
						"numberOfBytes": "1"
					},
					"t_mapping(t_address,t_bool)": {
						"encoding": "mapping",
						"key": "t_address",
						"label": "mapping(address => bool)",
						"numberOfBytes": "32",
						"value": "t_bool"
					},
					"t_mapping(t_address,t_mapping(t_address,t_uint256))": {
						"encoding": "mapping",
						"key": "t_address",
						"label": "mapping(address => mapping(address => uint256))",
						"numberOfBytes": "32",
						"value": "t_mapping(t_address,t_uint256)"
					},
					"t_mapping(t_address,t_uint256)": {
						"encoding": "mapping",
						"key": "t_address",
						"label": "mapping(address => uint256)",
						"numberOfBytes": "32",
						"value": "t_uint256"
					},
					"t_string_storage": {
						"encoding": "bytes",
						"label": "string",
						"numberOfBytes": "32"
					},
					"t_uint256": {
						"encoding": "inplace",
						"label": "uint256",
						"numberOfBytes": "32"
					},
					"t_uint8": {
						"encoding": "inplace",
						"label": "uint8",
						"numberOfBytes": "1"
					}
				}
			},
			"userdoc": {
				"kind": "user",
				"methods": {},
				"version": 1
			}
		}
	}
}