{
	"contract-442812f524.sol": {
		"Verify": {
			"abi": [
				{
					"inputs": [
						{
							"internalType": "address",
							"name": "_importantAddress",
							"type": "address"
						}
					],
					"stateMutability": "nonpayable",
					"type": "constructor"
				},
				{
					"inputs": [
						{
							"internalType": "uint256",
							"name": "_number",
							"type": "uint256"
						},
						{
							"internalType": "string",
							"name": "_word",
							"type": "string"
						},
						{
							"internalType": "bytes",
							"name": "sig",
							"type": "bytes"
						}
					],
					"name": "isValidData",
					"outputs": [
						{
							"internalType": "bool",
							"name": "",
							"type": "bool"
						}
					],
					"stateMutability": "view",
					"type": "function"
				},
				{
					"inputs": [
						{
							"internalType": "bytes32",
							"name": "message",
							"type": "bytes32"
						},
						{
							"internalType": "bytes",
							"name": "sig",
							"type": "bytes"
						}
					],
					"name": "recoverSigner",
					"outputs": [
						{
							"internalType": "address",
							"name": "",
							"type": "address"
						}
					],
					"stateMutability": "pure",
					"type": "function"
				},
				{
					"inputs": [
						{
							"internalType": "bytes",
							"name": "sig",
							"type": "bytes"
						}
					],
					"name": "splitSignature",
					"outputs": [
						{
							"internalType": "uint8",
							"name": "",
							"type": "uint8"
						},
						{
							"internalType": "bytes32",
							"name": "",
							"type": "bytes32"
						},
						{
							"internalType": "bytes32",
							"name": "",
							"type": "bytes32"
						}
					],
					"stateMutability": "pure",
					"type": "function"
				}
			],
			"devdoc": {
				"kind": "dev",
				"methods": {},
				"version": 1
			},
			"evm": {
				"assembly": "    /* \"contract-442812f524.sol\":58:1242  contract Verify {... */\n  mstore(0x40, 0x80)\n    /* \"contract-442812f524.sol\":110:207  constructor (address _importantAddress) public{... */\n  callvalue\n  dup1\n  iszero\n  tag_1\n  jumpi\n  0x00\n  dup1\n  revert\ntag_1:\n  pop\n  mload(0x40)\n  sub(codesize, bytecodeSize)\n  dup1\n  bytecodeSize\n  dup4\n  codecopy\n  dup2\n  dup2\n  add\n  0x40\n  mstore\n  dup2\n  add\n  swap1\n  tag_2\n  swap2\n  swap1\n  tag_3\n  jump\t// in\ntag_2:\n    /* \"contract-442812f524.sol\":184:201  _importantAddress */\n  dup1\n    /* \"contract-442812f524.sol\":165:181  importantAddress */\n  0x00\n  dup1\n    /* \"contract-442812f524.sol\":165:201  importantAddress = _importantAddress */\n  0x0100\n  exp\n  dup2\n  sload\n  dup2\n  0xffffffffffffffffffffffffffffffffffffffff\n  mul\n  not\n  and\n  swap1\n  dup4\n  0xffffffffffffffffffffffffffffffffffffffff\n  and\n  mul\n  or\n  swap1\n  sstore\n  pop\n    /* \"contract-442812f524.sol\":110:207  constructor (address _importantAddress) public{... */\n  pop\n    /* \"contract-442812f524.sol\":58:1242  contract Verify {... */\n  jump(tag_6)\n    /* \"#utility.yul\":88:205   */\ntag_8:\n    /* \"#utility.yul\":197:198   */\n  0x00\n    /* \"#utility.yul\":194:195   */\n  dup1\n    /* \"#utility.yul\":187:199   */\n  revert\n    /* \"#utility.yul\":334:460   */\ntag_10:\n    /* \"#utility.yul\":371:378   */\n  0x00\n    /* \"#utility.yul\":411:453   */\n  0xffffffffffffffffffffffffffffffffffffffff\n    /* \"#utility.yul\":404:409   */\n  dup3\n    /* \"#utility.yul\":400:454   */\n  and\n    /* \"#utility.yul\":389:454   */\n  swap1\n  pop\n    /* \"#utility.yul\":334:460   */\n  swap2\n  swap1\n  pop\n  jump\t// out\n    /* \"#utility.yul\":466:562   */\ntag_11:\n    /* \"#utility.yul\":503:510   */\n  0x00\n    /* \"#utility.yul\":532:556   */\n  tag_20\n    /* \"#utility.yul\":550:555   */\n  dup3\n    /* \"#utility.yul\":532:556   */\n  tag_10\n  jump\t// in\ntag_20:\n    /* \"#utility.yul\":521:556   */\n  swap1\n  pop\n    /* \"#utility.yul\":466:562   */\n  swap2\n  swap1\n  pop\n  jump\t// out\n    /* \"#utility.yul\":568:690   */\ntag_12:\n    /* \"#utility.yul\":641:665   */\n  tag_22\n    /* \"#utility.yul\":659:664   */\n  dup2\n    /* \"#utility.yul\":641:665   */\n  tag_11\n  jump\t// in\ntag_22:\n    /* \"#utility.yul\":634:639   */\n  dup2\n    /* \"#utility.yul\":631:666   */\n  eq\n    /* \"#utility.yul\":621:684   */\n  tag_23\n  jumpi\n    /* \"#utility.yul\":680:681   */\n  0x00\n    /* \"#utility.yul\":677:678   */\n  dup1\n    /* \"#utility.yul\":670:682   */\n  revert\n    /* \"#utility.yul\":621:684   */\ntag_23:\n    /* \"#utility.yul\":568:690   */\n  pop\n  jump\t// out\n    /* \"#utility.yul\":696:839   */\ntag_13:\n    /* \"#utility.yul\":753:758   */\n  0x00\n    /* \"#utility.yul\":784:790   */\n  dup2\n    /* \"#utility.yul\":778:791   */\n  mload\n    /* \"#utility.yul\":769:791   */\n  swap1\n  pop\n    /* \"#utility.yul\":800:833   */\n  tag_25\n    /* \"#utility.yul\":827:832   */\n  dup2\n    /* \"#utility.yul\":800:833   */\n  tag_12\n  jump\t// in\ntag_25:\n    /* \"#utility.yul\":696:839   */\n  swap3\n  swap2\n  pop\n  pop\n  jump\t// out\n    /* \"#utility.yul\":845:1196   */\ntag_3:\n    /* \"#utility.yul\":915:921   */\n  0x00\n    /* \"#utility.yul\":964:966   */\n  0x20\n    /* \"#utility.yul\":952:961   */\n  dup3\n    /* \"#utility.yul\":943:950   */\n  dup5\n    /* \"#utility.yul\":939:962   */\n  sub\n    /* \"#utility.yul\":935:967   */\n  slt\n    /* \"#utility.yul\":932:1051   */\n  iszero\n  tag_27\n  jumpi\n    /* \"#utility.yul\":970:1049   */\n  tag_28\n  tag_8\n  jump\t// in\ntag_28:\n    /* \"#utility.yul\":932:1051   */\ntag_27:\n    /* \"#utility.yul\":1090:1091   */\n  0x00\n    /* \"#utility.yul\":1115:1179   */\n  tag_29\n    /* \"#utility.yul\":1171:1178   */\n  dup5\n    /* \"#utility.yul\":1162:1168   */\n  dup3\n    /* \"#utility.yul\":1151:1160   */\n  dup6\n    /* \"#utility.yul\":1147:1169   */\n  add\n    /* \"#utility.yul\":1115:1179   */\n  tag_13\n  jump\t// in\ntag_29:\n    /* \"#utility.yul\":1105:1179   */\n  swap2\n  pop\n    /* \"#utility.yul\":1061:1189   */\n  pop\n    /* \"#utility.yul\":845:1196   */\n  swap3\n  swap2\n  pop\n  pop\n  jump\t// out\n    /* \"contract-442812f524.sol\":58:1242  contract Verify {... */\ntag_6:\n  dataSize(sub_0)\n  dup1\n  dataOffset(sub_0)\n  0x00\n  codecopy\n  0x00\n  return\nstop\n\nsub_0: assembly {\n        /* \"contract-442812f524.sol\":58:1242  contract Verify {... */\n      mstore(0x40, 0x80)\n      callvalue\n      dup1\n      iszero\n      tag_1\n      jumpi\n      0x00\n      dup1\n      revert\n    tag_1:\n      pop\n      jumpi(tag_2, lt(calldatasize, 0x04))\n      shr(0xe0, calldataload(0x00))\n      dup1\n      0x24a69a7e\n      eq\n      tag_3\n      jumpi\n      dup1\n      0x97aba7f9\n      eq\n      tag_4\n      jumpi\n      dup1\n      0xa7bb5803\n      eq\n      tag_5\n      jumpi\n    tag_2:\n      0x00\n      dup1\n      revert\n        /* \"contract-442812f524.sol\":214:457  function isValidData(uint256 _number, string memory _word, bytes memory sig) public view returns(bool){... */\n    tag_3:\n      tag_6\n      0x04\n      dup1\n      calldatasize\n      sub\n      dup2\n      add\n      swap1\n      tag_7\n      swap2\n      swap1\n      tag_8\n      jump\t// in\n    tag_7:\n      tag_9\n      jump\t// in\n    tag_6:\n      mload(0x40)\n      tag_10\n      swap2\n      swap1\n      tag_11\n      jump\t// in\n    tag_10:\n      mload(0x40)\n      dup1\n      swap2\n      sub\n      swap1\n      return\n        /* \"contract-442812f524.sol\":461:716  function recoverSigner(bytes32 message, bytes memory sig)... */\n    tag_4:\n      tag_12\n      0x04\n      dup1\n      calldatasize\n      sub\n      dup2\n      add\n      swap1\n      tag_13\n      swap2\n      swap1\n      tag_14\n      jump\t// in\n    tag_13:\n      tag_15\n      jump\t// in\n    tag_12:\n      mload(0x40)\n      tag_16\n      swap2\n      swap1\n      tag_17\n      jump\t// in\n    tag_16:\n      mload(0x40)\n      dup1\n      swap2\n      sub\n      swap1\n      return\n        /* \"contract-442812f524.sol\":720:1240  function splitSignature(bytes memory sig)... */\n    tag_5:\n      tag_18\n      0x04\n      dup1\n      calldatasize\n      sub\n      dup2\n      add\n      swap1\n      tag_19\n      swap2\n      swap1\n      tag_20\n      jump\t// in\n    tag_19:\n      tag_21\n      jump\t// in\n    tag_18:\n      mload(0x40)\n      tag_22\n      swap4\n      swap3\n      swap2\n      swap1\n      tag_23\n      jump\t// in\n    tag_22:\n      mload(0x40)\n      dup1\n      swap2\n      sub\n      swap1\n      return\n        /* \"contract-442812f524.sol\":214:457  function isValidData(uint256 _number, string memory _word, bytes memory sig) public view returns(bool){... */\n    tag_9:\n        /* \"contract-442812f524.sol\":311:315  bool */\n      0x00\n        /* \"contract-442812f524.sol\":325:340  bytes32 message */\n      dup1\n        /* \"contract-442812f524.sol\":370:377  _number */\n      dup5\n        /* \"contract-442812f524.sol\":379:384  _word */\n      dup5\n        /* \"contract-442812f524.sol\":353:385  abi.encodePacked(_number, _word) */\n      add(0x20, mload(0x40))\n      tag_25\n      swap3\n      swap2\n      swap1\n      tag_26\n      jump\t// in\n    tag_25:\n      mload(0x40)\n      0x20\n      dup2\n      dup4\n      sub\n      sub\n      dup2\n      mstore\n      swap1\n      0x40\n      mstore\n        /* \"contract-442812f524.sol\":343:386  keccak256(abi.encodePacked(_number, _word)) */\n      dup1\n      mload\n      swap1\n      0x20\n      add\n      keccak256\n        /* \"contract-442812f524.sol\":325:386  bytes32 message = keccak256(abi.encodePacked(_number, _word)) */\n      swap1\n      pop\n        /* \"contract-442812f524.sol\":434:450  importantAddress */\n      0x00\n      dup1\n      sload\n      swap1\n      0x0100\n      exp\n      swap1\n      div\n      0xffffffffffffffffffffffffffffffffffffffff\n      and\n        /* \"contract-442812f524.sol\":403:450  recoverSigner(message, sig) == importantAddress */\n      0xffffffffffffffffffffffffffffffffffffffff\n      and\n        /* \"contract-442812f524.sol\":403:430  recoverSigner(message, sig) */\n      tag_27\n        /* \"contract-442812f524.sol\":417:424  message */\n      dup3\n        /* \"contract-442812f524.sol\":426:429  sig */\n      dup6\n        /* \"contract-442812f524.sol\":403:416  recoverSigner */\n      tag_15\n        /* \"contract-442812f524.sol\":403:430  recoverSigner(message, sig) */\n      jump\t// in\n    tag_27:\n        /* \"contract-442812f524.sol\":403:450  recoverSigner(message, sig) == importantAddress */\n      0xffffffffffffffffffffffffffffffffffffffff\n      and\n      eq\n        /* \"contract-442812f524.sol\":395:451  return (recoverSigner(message, sig) == importantAddress) */\n      swap2\n      pop\n      pop\n        /* \"contract-442812f524.sol\":214:457  function isValidData(uint256 _number, string memory _word, bytes memory sig) public view returns(bool){... */\n      swap4\n      swap3\n      pop\n      pop\n      pop\n      jump\t// out\n        /* \"contract-442812f524.sol\":461:716  function recoverSigner(bytes32 message, bytes memory sig)... */\n    tag_15:\n        /* \"contract-442812f524.sol\":561:568  address */\n      0x00\n        /* \"contract-442812f524.sol\":584:591  uint8 v */\n      dup1\n        /* \"contract-442812f524.sol\":600:609  bytes32 r */\n      0x00\n        /* \"contract-442812f524.sol\":618:627  bytes32 s */\n      dup1\n        /* \"contract-442812f524.sol\":648:667  splitSignature(sig) */\n      tag_29\n        /* \"contract-442812f524.sol\":663:666  sig */\n      dup6\n        /* \"contract-442812f524.sol\":648:662  splitSignature */\n      tag_21\n        /* \"contract-442812f524.sol\":648:667  splitSignature(sig) */\n      jump\t// in\n    tag_29:\n        /* \"contract-442812f524.sol\":636:667  (v, r, s) = splitSignature(sig) */\n      dup1\n      swap4\n      pop\n      dup2\n      swap5\n      pop\n      dup3\n      swap6\n      pop\n      pop\n      pop\n      pop\n        /* \"contract-442812f524.sol\":683:710  ecrecover(message, v, r, s) */\n      0x01\n        /* \"contract-442812f524.sol\":693:700  message */\n      dup7\n        /* \"contract-442812f524.sol\":702:703  v */\n      dup5\n        /* \"contract-442812f524.sol\":705:706  r */\n      dup5\n        /* \"contract-442812f524.sol\":708:709  s */\n      dup5\n        /* \"contract-442812f524.sol\":683:710  ecrecover(message, v, r, s) */\n      mload(0x40)\n      0x00\n      dup2\n      mstore\n      0x20\n      add\n      0x40\n      mstore\n      mload(0x40)\n      tag_30\n      swap5\n      swap4\n      swap3\n      swap2\n      swap1\n      tag_31\n      jump\t// in\n    tag_30:\n      0x20\n      mload(0x40)\n      0x20\n      dup2\n      sub\n      swap1\n      dup1\n      dup5\n      sub\n      swap1\n      dup6\n      gas\n      staticcall\n      iszero\n      dup1\n      iszero\n      tag_33\n      jumpi\n      returndatasize\n      0x00\n      dup1\n      returndatacopy\n      revert(0x00, returndatasize)\n    tag_33:\n      pop\n      pop\n      pop\n      mload(sub(mload(0x40), 0x20))\n        /* \"contract-442812f524.sol\":676:710  return ecrecover(message, v, r, s) */\n      swap4\n      pop\n      pop\n      pop\n      pop\n        /* \"contract-442812f524.sol\":461:716  function recoverSigner(bytes32 message, bytes memory sig)... */\n      swap3\n      swap2\n      pop\n      pop\n      jump\t// out\n        /* \"contract-442812f524.sol\":720:1240  function splitSignature(bytes memory sig)... */\n    tag_21:\n        /* \"contract-442812f524.sol\":804:809  uint8 */\n      0x00\n        /* \"contract-442812f524.sol\":811:818  bytes32 */\n      dup1\n        /* \"contract-442812f524.sol\":820:827  bytes32 */\n      0x00\n        /* \"contract-442812f524.sol\":865:867  65 */\n      0x41\n        /* \"contract-442812f524.sol\":851:854  sig */\n      dup5\n        /* \"contract-442812f524.sol\":851:861  sig.length */\n      mload\n        /* \"contract-442812f524.sol\":851:867  sig.length == 65 */\n      eq\n        /* \"contract-442812f524.sol\":843:868  require(sig.length == 65) */\n      tag_35\n      jumpi\n      0x00\n      dup1\n      revert\n    tag_35:\n        /* \"contract-442812f524.sol\":877:886  bytes32 r */\n      0x00\n        /* \"contract-442812f524.sol\":895:904  bytes32 s */\n      dup1\n        /* \"contract-442812f524.sol\":913:920  uint8 v */\n      0x00\n        /* \"contract-442812f524.sol\":1025:1027  32 */\n      0x20\n        /* \"contract-442812f524.sol\":1020:1023  sig */\n      dup8\n        /* \"contract-442812f524.sol\":1016:1028  add(sig, 32) */\n      add\n        /* \"contract-442812f524.sol\":1010:1029  mload(add(sig, 32)) */\n      mload\n        /* \"contract-442812f524.sol\":1005:1029  r := mload(add(sig, 32)) */\n      swap3\n      pop\n        /* \"contract-442812f524.sol\":1091:1093  64 */\n      0x40\n        /* \"contract-442812f524.sol\":1086:1089  sig */\n      dup8\n        /* \"contract-442812f524.sol\":1082:1094  add(sig, 64) */\n      add\n        /* \"contract-442812f524.sol\":1076:1095  mload(add(sig, 64)) */\n      mload\n        /* \"contract-442812f524.sol\":1071:1095  s := mload(add(sig, 64)) */\n      swap2\n      pop\n        /* \"contract-442812f524.sol\":1194:1196  96 */\n      0x60\n        /* \"contract-442812f524.sol\":1189:1192  sig */\n      dup8\n        /* \"contract-442812f524.sol\":1185:1197  add(sig, 96) */\n      add\n        /* \"contract-442812f524.sol\":1179:1198  mload(add(sig, 96)) */\n      mload\n        /* \"contract-442812f524.sol\":1176:1177  0 */\n      0x00\n        /* \"contract-442812f524.sol\":1171:1199  byte(0, mload(add(sig, 96))) */\n      byte\n        /* \"contract-442812f524.sol\":1166:1199  v := byte(0, mload(add(sig, 96))) */\n      swap1\n      pop\n        /* \"contract-442812f524.sol\":1226:1227  v */\n      dup1\n        /* \"contract-442812f524.sol\":1229:1230  r */\n      dup4\n        /* \"contract-442812f524.sol\":1232:1233  s */\n      dup4\n        /* \"contract-442812f524.sol\":1218:1234  return (v, r, s) */\n      swap6\n      pop\n      swap6\n      pop\n      swap6\n      pop\n      pop\n      pop\n      pop\n        /* \"contract-442812f524.sol\":720:1240  function splitSignature(bytes memory sig)... */\n      swap2\n      swap4\n      swap1\n      swap3\n      pop\n      jump\t// out\n        /* \"#utility.yul\":7:82   */\n    tag_36:\n        /* \"#utility.yul\":40:46   */\n      0x00\n        /* \"#utility.yul\":73:75   */\n      0x40\n        /* \"#utility.yul\":67:76   */\n      mload\n        /* \"#utility.yul\":57:76   */\n      swap1\n      pop\n        /* \"#utility.yul\":7:82   */\n      swap1\n      jump\t// out\n        /* \"#utility.yul\":88:205   */\n    tag_37:\n        /* \"#utility.yul\":197:198   */\n      0x00\n        /* \"#utility.yul\":194:195   */\n      dup1\n        /* \"#utility.yul\":187:199   */\n      revert\n        /* \"#utility.yul\":211:328   */\n    tag_38:\n        /* \"#utility.yul\":320:321   */\n      0x00\n        /* \"#utility.yul\":317:318   */\n      dup1\n        /* \"#utility.yul\":310:322   */\n      revert\n        /* \"#utility.yul\":334:411   */\n    tag_39:\n        /* \"#utility.yul\":371:378   */\n      0x00\n        /* \"#utility.yul\":400:405   */\n      dup2\n        /* \"#utility.yul\":389:405   */\n      swap1\n      pop\n        /* \"#utility.yul\":334:411   */\n      swap2\n      swap1\n      pop\n      jump\t// out\n        /* \"#utility.yul\":417:539   */\n    tag_40:\n        /* \"#utility.yul\":490:514   */\n      tag_78\n        /* \"#utility.yul\":508:513   */\n      dup2\n        /* \"#utility.yul\":490:514   */\n      tag_39\n      jump\t// in\n    tag_78:\n        /* \"#utility.yul\":483:488   */\n      dup2\n        /* \"#utility.yul\":480:515   */\n      eq\n        /* \"#utility.yul\":470:533   */\n      tag_79\n      jumpi\n        /* \"#utility.yul\":529:530   */\n      0x00\n        /* \"#utility.yul\":526:527   */\n      dup1\n        /* \"#utility.yul\":519:531   */\n      revert\n        /* \"#utility.yul\":470:533   */\n    tag_79:\n        /* \"#utility.yul\":417:539   */\n      pop\n      jump\t// out\n        /* \"#utility.yul\":545:684   */\n    tag_41:\n        /* \"#utility.yul\":591:596   */\n      0x00\n        /* \"#utility.yul\":629:635   */\n      dup2\n        /* \"#utility.yul\":616:636   */\n      calldataload\n        /* \"#utility.yul\":607:636   */\n      swap1\n      pop\n        /* \"#utility.yul\":645:678   */\n      tag_81\n        /* \"#utility.yul\":672:677   */\n      dup2\n        /* \"#utility.yul\":645:678   */\n      tag_40\n      jump\t// in\n    tag_81:\n        /* \"#utility.yul\":545:684   */\n      swap3\n      swap2\n      pop\n      pop\n      jump\t// out\n        /* \"#utility.yul\":690:807   */\n    tag_42:\n        /* \"#utility.yul\":799:800   */\n      0x00\n        /* \"#utility.yul\":796:797   */\n      dup1\n        /* \"#utility.yul\":789:801   */\n      revert\n        /* \"#utility.yul\":813:930   */\n    tag_43:\n        /* \"#utility.yul\":922:923   */\n      0x00\n        /* \"#utility.yul\":919:920   */\n      dup1\n        /* \"#utility.yul\":912:924   */\n      revert\n        /* \"#utility.yul\":936:1038   */\n    tag_44:\n        /* \"#utility.yul\":977:983   */\n      0x00\n        /* \"#utility.yul\":1028:1030   */\n      0x1f\n        /* \"#utility.yul\":1024:1031   */\n      not\n        /* \"#utility.yul\":1019:1021   */\n      0x1f\n        /* \"#utility.yul\":1012:1017   */\n      dup4\n        /* \"#utility.yul\":1008:1022   */\n      add\n        /* \"#utility.yul\":1004:1032   */\n      and\n        /* \"#utility.yul\":994:1032   */\n      swap1\n      pop\n        /* \"#utility.yul\":936:1038   */\n      swap2\n      swap1\n      pop\n      jump\t// out\n        /* \"#utility.yul\":1044:1224   */\n    tag_45:\n        /* \"#utility.yul\":1092:1169   */\n      0x4e487b7100000000000000000000000000000000000000000000000000000000\n        /* \"#utility.yul\":1089:1090   */\n      0x00\n        /* \"#utility.yul\":1082:1170   */\n      mstore\n        /* \"#utility.yul\":1189:1193   */\n      0x41\n        /* \"#utility.yul\":1186:1187   */\n      0x04\n        /* \"#utility.yul\":1179:1194   */\n      mstore\n        /* \"#utility.yul\":1213:1217   */\n      0x24\n        /* \"#utility.yul\":1210:1211   */\n      0x00\n        /* \"#utility.yul\":1203:1218   */\n      revert\n        /* \"#utility.yul\":1230:1511   */\n    tag_46:\n        /* \"#utility.yul\":1313:1340   */\n      tag_87\n        /* \"#utility.yul\":1335:1339   */\n      dup3\n        /* \"#utility.yul\":1313:1340   */\n      tag_44\n      jump\t// in\n    tag_87:\n        /* \"#utility.yul\":1305:1311   */\n      dup2\n        /* \"#utility.yul\":1301:1341   */\n      add\n        /* \"#utility.yul\":1443:1449   */\n      dup2\n        /* \"#utility.yul\":1431:1441   */\n      dup2\n        /* \"#utility.yul\":1428:1450   */\n      lt\n        /* \"#utility.yul\":1407:1425   */\n      0xffffffffffffffff\n        /* \"#utility.yul\":1395:1405   */\n      dup3\n        /* \"#utility.yul\":1392:1426   */\n      gt\n        /* \"#utility.yul\":1389:1451   */\n      or\n        /* \"#utility.yul\":1386:1474   */\n      iszero\n      tag_88\n      jumpi\n        /* \"#utility.yul\":1454:1472   */\n      tag_89\n      tag_45\n      jump\t// in\n    tag_89:\n        /* \"#utility.yul\":1386:1474   */\n    tag_88:\n        /* \"#utility.yul\":1494:1504   */\n      dup1\n        /* \"#utility.yul\":1490:1492   */\n      0x40\n        /* \"#utility.yul\":1483:1505   */\n      mstore\n        /* \"#utility.yul\":1273:1511   */\n      pop\n        /* \"#utility.yul\":1230:1511   */\n      pop\n      pop\n      jump\t// out\n        /* \"#utility.yul\":1517:1646   */\n    tag_47:\n        /* \"#utility.yul\":1551:1557   */\n      0x00\n        /* \"#utility.yul\":1578:1598   */\n      tag_91\n      tag_36\n      jump\t// in\n    tag_91:\n        /* \"#utility.yul\":1568:1598   */\n      swap1\n      pop\n        /* \"#utility.yul\":1607:1640   */\n      tag_92\n        /* \"#utility.yul\":1635:1639   */\n      dup3\n        /* \"#utility.yul\":1627:1633   */\n      dup3\n        /* \"#utility.yul\":1607:1640   */\n      tag_46\n      jump\t// in\n    tag_92:\n        /* \"#utility.yul\":1517:1646   */\n      swap2\n      swap1\n      pop\n      jump\t// out\n        /* \"#utility.yul\":1652:1960   */\n    tag_48:\n        /* \"#utility.yul\":1714:1718   */\n      0x00\n        /* \"#utility.yul\":1804:1822   */\n      0xffffffffffffffff\n        /* \"#utility.yul\":1796:1802   */\n      dup3\n        /* \"#utility.yul\":1793:1823   */\n      gt\n        /* \"#utility.yul\":1790:1846   */\n      iszero\n      tag_94\n      jumpi\n        /* \"#utility.yul\":1826:1844   */\n      tag_95\n      tag_45\n      jump\t// in\n    tag_95:\n        /* \"#utility.yul\":1790:1846   */\n    tag_94:\n        /* \"#utility.yul\":1864:1893   */\n      tag_96\n        /* \"#utility.yul\":1886:1892   */\n      dup3\n        /* \"#utility.yul\":1864:1893   */\n      tag_44\n      jump\t// in\n    tag_96:\n        /* \"#utility.yul\":1856:1893   */\n      swap1\n      pop\n        /* \"#utility.yul\":1948:1952   */\n      0x20\n        /* \"#utility.yul\":1942:1946   */\n      dup2\n        /* \"#utility.yul\":1938:1953   */\n      add\n        /* \"#utility.yul\":1930:1953   */\n      swap1\n      pop\n        /* \"#utility.yul\":1652:1960   */\n      swap2\n      swap1\n      pop\n      jump\t// out\n        /* \"#utility.yul\":1966:2112   */\n    tag_49:\n        /* \"#utility.yul\":2063:2069   */\n      dup3\n        /* \"#utility.yul\":2058:2061   */\n      dup2\n        /* \"#utility.yul\":2053:2056   */\n      dup4\n        /* \"#utility.yul\":2040:2070   */\n      calldatacopy\n        /* \"#utility.yul\":2104:2105   */\n      0x00\n        /* \"#utility.yul\":2095:2101   */\n      dup4\n        /* \"#utility.yul\":2090:2093   */\n      dup4\n        /* \"#utility.yul\":2086:2102   */\n      add\n        /* \"#utility.yul\":2079:2106   */\n      mstore\n        /* \"#utility.yul\":1966:2112   */\n      pop\n      pop\n      pop\n      jump\t// out\n        /* \"#utility.yul\":2118:2543   */\n    tag_50:\n        /* \"#utility.yul\":2196:2201   */\n      0x00\n        /* \"#utility.yul\":2221:2287   */\n      tag_99\n        /* \"#utility.yul\":2237:2286   */\n      tag_100\n        /* \"#utility.yul\":2279:2285   */\n      dup5\n        /* \"#utility.yul\":2237:2286   */\n      tag_48\n      jump\t// in\n    tag_100:\n        /* \"#utility.yul\":2221:2287   */\n      tag_47\n      jump\t// in\n    tag_99:\n        /* \"#utility.yul\":2212:2287   */\n      swap1\n      pop\n        /* \"#utility.yul\":2310:2316   */\n      dup3\n        /* \"#utility.yul\":2303:2308   */\n      dup2\n        /* \"#utility.yul\":2296:2317   */\n      mstore\n        /* \"#utility.yul\":2348:2352   */\n      0x20\n        /* \"#utility.yul\":2341:2346   */\n      dup2\n        /* \"#utility.yul\":2337:2353   */\n      add\n        /* \"#utility.yul\":2386:2389   */\n      dup5\n        /* \"#utility.yul\":2377:2383   */\n      dup5\n        /* \"#utility.yul\":2372:2375   */\n      dup5\n        /* \"#utility.yul\":2368:2384   */\n      add\n        /* \"#utility.yul\":2365:2390   */\n      gt\n        /* \"#utility.yul\":2362:2474   */\n      iszero\n      tag_101\n      jumpi\n        /* \"#utility.yul\":2393:2472   */\n      tag_102\n      tag_43\n      jump\t// in\n    tag_102:\n        /* \"#utility.yul\":2362:2474   */\n    tag_101:\n        /* \"#utility.yul\":2483:2537   */\n      tag_103\n        /* \"#utility.yul\":2530:2536   */\n      dup5\n        /* \"#utility.yul\":2525:2528   */\n      dup3\n        /* \"#utility.yul\":2520:2523   */\n      dup6\n        /* \"#utility.yul\":2483:2537   */\n      tag_49\n      jump\t// in\n    tag_103:\n        /* \"#utility.yul\":2202:2543   */\n      pop\n        /* \"#utility.yul\":2118:2543   */\n      swap4\n      swap3\n      pop\n      pop\n      pop\n      jump\t// out\n        /* \"#utility.yul\":2563:2903   */\n    tag_51:\n        /* \"#utility.yul\":2619:2624   */\n      0x00\n        /* \"#utility.yul\":2668:2671   */\n      dup3\n        /* \"#utility.yul\":2661:2665   */\n      0x1f\n        /* \"#utility.yul\":2653:2659   */\n      dup4\n        /* \"#utility.yul\":2649:2666   */\n      add\n        /* \"#utility.yul\":2645:2672   */\n      slt\n        /* \"#utility.yul\":2635:2757   */\n      tag_105\n      jumpi\n        /* \"#utility.yul\":2676:2755   */\n      tag_106\n      tag_42\n      jump\t// in\n    tag_106:\n        /* \"#utility.yul\":2635:2757   */\n    tag_105:\n        /* \"#utility.yul\":2793:2799   */\n      dup2\n        /* \"#utility.yul\":2780:2800   */\n      calldataload\n        /* \"#utility.yul\":2818:2897   */\n      tag_107\n        /* \"#utility.yul\":2893:2896   */\n      dup5\n        /* \"#utility.yul\":2885:2891   */\n      dup3\n        /* \"#utility.yul\":2878:2882   */\n      0x20\n        /* \"#utility.yul\":2870:2876   */\n      dup7\n        /* \"#utility.yul\":2866:2883   */\n      add\n        /* \"#utility.yul\":2818:2897   */\n      tag_50\n      jump\t// in\n    tag_107:\n        /* \"#utility.yul\":2809:2897   */\n      swap2\n      pop\n        /* \"#utility.yul\":2625:2903   */\n      pop\n        /* \"#utility.yul\":2563:2903   */\n      swap3\n      swap2\n      pop\n      pop\n      jump\t// out\n        /* \"#utility.yul\":2909:3216   */\n    tag_52:\n        /* \"#utility.yul\":2970:2974   */\n      0x00\n        /* \"#utility.yul\":3060:3078   */\n      0xffffffffffffffff\n        /* \"#utility.yul\":3052:3058   */\n      dup3\n        /* \"#utility.yul\":3049:3079   */\n      gt\n        /* \"#utility.yul\":3046:3102   */\n      iszero\n      tag_109\n      jumpi\n        /* \"#utility.yul\":3082:3100   */\n      tag_110\n      tag_45\n      jump\t// in\n    tag_110:\n        /* \"#utility.yul\":3046:3102   */\n    tag_109:\n        /* \"#utility.yul\":3120:3149   */\n      tag_111\n        /* \"#utility.yul\":3142:3148   */\n      dup3\n        /* \"#utility.yul\":3120:3149   */\n      tag_44\n      jump\t// in\n    tag_111:\n        /* \"#utility.yul\":3112:3149   */\n      swap1\n      pop\n        /* \"#utility.yul\":3204:3208   */\n      0x20\n        /* \"#utility.yul\":3198:3202   */\n      dup2\n        /* \"#utility.yul\":3194:3209   */\n      add\n        /* \"#utility.yul\":3186:3209   */\n      swap1\n      pop\n        /* \"#utility.yul\":2909:3216   */\n      swap2\n      swap1\n      pop\n      jump\t// out\n        /* \"#utility.yul\":3222:3645   */\n    tag_53:\n        /* \"#utility.yul\":3299:3304   */\n      0x00\n        /* \"#utility.yul\":3324:3389   */\n      tag_113\n        /* \"#utility.yul\":3340:3388   */\n      tag_114\n        /* \"#utility.yul\":3381:3387   */\n      dup5\n        /* \"#utility.yul\":3340:3388   */\n      tag_52\n      jump\t// in\n    tag_114:\n        /* \"#utility.yul\":3324:3389   */\n      tag_47\n      jump\t// in\n    tag_113:\n        /* \"#utility.yul\":3315:3389   */\n      swap1\n      pop\n        /* \"#utility.yul\":3412:3418   */\n      dup3\n        /* \"#utility.yul\":3405:3410   */\n      dup2\n        /* \"#utility.yul\":3398:3419   */\n      mstore\n        /* \"#utility.yul\":3450:3454   */\n      0x20\n        /* \"#utility.yul\":3443:3448   */\n      dup2\n        /* \"#utility.yul\":3439:3455   */\n      add\n        /* \"#utility.yul\":3488:3491   */\n      dup5\n        /* \"#utility.yul\":3479:3485   */\n      dup5\n        /* \"#utility.yul\":3474:3477   */\n      dup5\n        /* \"#utility.yul\":3470:3486   */\n      add\n        /* \"#utility.yul\":3467:3492   */\n      gt\n        /* \"#utility.yul\":3464:3576   */\n      iszero\n      tag_115\n      jumpi\n        /* \"#utility.yul\":3495:3574   */\n      tag_116\n      tag_43\n      jump\t// in\n    tag_116:\n        /* \"#utility.yul\":3464:3576   */\n    tag_115:\n        /* \"#utility.yul\":3585:3639   */\n      tag_117\n        /* \"#utility.yul\":3632:3638   */\n      dup5\n        /* \"#utility.yul\":3627:3630   */\n      dup3\n        /* \"#utility.yul\":3622:3625   */\n      dup6\n        /* \"#utility.yul\":3585:3639   */\n      tag_49\n      jump\t// in\n    tag_117:\n        /* \"#utility.yul\":3305:3645   */\n      pop\n        /* \"#utility.yul\":3222:3645   */\n      swap4\n      swap3\n      pop\n      pop\n      pop\n      jump\t// out\n        /* \"#utility.yul\":3664:4002   */\n    tag_54:\n        /* \"#utility.yul\":3719:3724   */\n      0x00\n        /* \"#utility.yul\":3768:3771   */\n      dup3\n        /* \"#utility.yul\":3761:3765   */\n      0x1f\n        /* \"#utility.yul\":3753:3759   */\n      dup4\n        /* \"#utility.yul\":3749:3766   */\n      add\n        /* \"#utility.yul\":3745:3772   */\n      slt\n        /* \"#utility.yul\":3735:3857   */\n      tag_119\n      jumpi\n        /* \"#utility.yul\":3776:3855   */\n      tag_120\n      tag_42\n      jump\t// in\n    tag_120:\n        /* \"#utility.yul\":3735:3857   */\n    tag_119:\n        /* \"#utility.yul\":3893:3899   */\n      dup2\n        /* \"#utility.yul\":3880:3900   */\n      calldataload\n        /* \"#utility.yul\":3918:3996   */\n      tag_121\n        /* \"#utility.yul\":3992:3995   */\n      dup5\n        /* \"#utility.yul\":3984:3990   */\n      dup3\n        /* \"#utility.yul\":3977:3981   */\n      0x20\n        /* \"#utility.yul\":3969:3975   */\n      dup7\n        /* \"#utility.yul\":3965:3982   */\n      add\n        /* \"#utility.yul\":3918:3996   */\n      tag_53\n      jump\t// in\n    tag_121:\n        /* \"#utility.yul\":3909:3996   */\n      swap2\n      pop\n        /* \"#utility.yul\":3725:4002   */\n      pop\n        /* \"#utility.yul\":3664:4002   */\n      swap3\n      swap2\n      pop\n      pop\n      jump\t// out\n        /* \"#utility.yul\":4008:4985   */\n    tag_8:\n        /* \"#utility.yul\":4104:4110   */\n      0x00\n        /* \"#utility.yul\":4112:4118   */\n      dup1\n        /* \"#utility.yul\":4120:4126   */\n      0x00\n        /* \"#utility.yul\":4169:4171   */\n      0x60\n        /* \"#utility.yul\":4157:4166   */\n      dup5\n        /* \"#utility.yul\":4148:4155   */\n      dup7\n        /* \"#utility.yul\":4144:4167   */\n      sub\n        /* \"#utility.yul\":4140:4172   */\n      slt\n        /* \"#utility.yul\":4137:4256   */\n      iszero\n      tag_123\n      jumpi\n        /* \"#utility.yul\":4175:4254   */\n      tag_124\n      tag_37\n      jump\t// in\n    tag_124:\n        /* \"#utility.yul\":4137:4256   */\n    tag_123:\n        /* \"#utility.yul\":4295:4296   */\n      0x00\n        /* \"#utility.yul\":4320:4373   */\n      tag_125\n        /* \"#utility.yul\":4365:4372   */\n      dup7\n        /* \"#utility.yul\":4356:4362   */\n      dup3\n        /* \"#utility.yul\":4345:4354   */\n      dup8\n        /* \"#utility.yul\":4341:4363   */\n      add\n        /* \"#utility.yul\":4320:4373   */\n      tag_41\n      jump\t// in\n    tag_125:\n        /* \"#utility.yul\":4310:4373   */\n      swap4\n      pop\n        /* \"#utility.yul\":4266:4383   */\n      pop\n        /* \"#utility.yul\":4450:4452   */\n      0x20\n        /* \"#utility.yul\":4439:4448   */\n      dup5\n        /* \"#utility.yul\":4435:4453   */\n      add\n        /* \"#utility.yul\":4422:4454   */\n      calldataload\n        /* \"#utility.yul\":4481:4499   */\n      0xffffffffffffffff\n        /* \"#utility.yul\":4473:4479   */\n      dup2\n        /* \"#utility.yul\":4470:4500   */\n      gt\n        /* \"#utility.yul\":4467:4584   */\n      iszero\n      tag_126\n      jumpi\n        /* \"#utility.yul\":4503:4582   */\n      tag_127\n      tag_38\n      jump\t// in\n    tag_127:\n        /* \"#utility.yul\":4467:4584   */\n    tag_126:\n        /* \"#utility.yul\":4608:4671   */\n      tag_128\n        /* \"#utility.yul\":4663:4670   */\n      dup7\n        /* \"#utility.yul\":4654:4660   */\n      dup3\n        /* \"#utility.yul\":4643:4652   */\n      dup8\n        /* \"#utility.yul\":4639:4661   */\n      add\n        /* \"#utility.yul\":4608:4671   */\n      tag_51\n      jump\t// in\n    tag_128:\n        /* \"#utility.yul\":4598:4671   */\n      swap3\n      pop\n        /* \"#utility.yul\":4393:4681   */\n      pop\n        /* \"#utility.yul\":4748:4750   */\n      0x40\n        /* \"#utility.yul\":4737:4746   */\n      dup5\n        /* \"#utility.yul\":4733:4751   */\n      add\n        /* \"#utility.yul\":4720:4752   */\n      calldataload\n        /* \"#utility.yul\":4779:4797   */\n      0xffffffffffffffff\n        /* \"#utility.yul\":4771:4777   */\n      dup2\n        /* \"#utility.yul\":4768:4798   */\n      gt\n        /* \"#utility.yul\":4765:4882   */\n      iszero\n      tag_129\n      jumpi\n        /* \"#utility.yul\":4801:4880   */\n      tag_130\n      tag_38\n      jump\t// in\n    tag_130:\n        /* \"#utility.yul\":4765:4882   */\n    tag_129:\n        /* \"#utility.yul\":4906:4968   */\n      tag_131\n        /* \"#utility.yul\":4960:4967   */\n      dup7\n        /* \"#utility.yul\":4951:4957   */\n      dup3\n        /* \"#utility.yul\":4940:4949   */\n      dup8\n        /* \"#utility.yul\":4936:4958   */\n      add\n        /* \"#utility.yul\":4906:4968   */\n      tag_54\n      jump\t// in\n    tag_131:\n        /* \"#utility.yul\":4896:4968   */\n      swap2\n      pop\n        /* \"#utility.yul\":4691:4978   */\n      pop\n        /* \"#utility.yul\":4008:4985   */\n      swap3\n      pop\n      swap3\n      pop\n      swap3\n      jump\t// out\n        /* \"#utility.yul\":4991:5081   */\n    tag_55:\n        /* \"#utility.yul\":5025:5032   */\n      0x00\n        /* \"#utility.yul\":5068:5073   */\n      dup2\n        /* \"#utility.yul\":5061:5074   */\n      iszero\n        /* \"#utility.yul\":5054:5075   */\n      iszero\n        /* \"#utility.yul\":5043:5075   */\n      swap1\n      pop\n        /* \"#utility.yul\":4991:5081   */\n      swap2\n      swap1\n      pop\n      jump\t// out\n        /* \"#utility.yul\":5087:5196   */\n    tag_56:\n        /* \"#utility.yul\":5168:5189   */\n      tag_134\n        /* \"#utility.yul\":5183:5188   */\n      dup2\n        /* \"#utility.yul\":5168:5189   */\n      tag_55\n      jump\t// in\n    tag_134:\n        /* \"#utility.yul\":5163:5166   */\n      dup3\n        /* \"#utility.yul\":5156:5190   */\n      mstore\n        /* \"#utility.yul\":5087:5196   */\n      pop\n      pop\n      jump\t// out\n        /* \"#utility.yul\":5202:5412   */\n    tag_11:\n        /* \"#utility.yul\":5289:5293   */\n      0x00\n        /* \"#utility.yul\":5327:5329   */\n      0x20\n        /* \"#utility.yul\":5316:5325   */\n      dup3\n        /* \"#utility.yul\":5312:5330   */\n      add\n        /* \"#utility.yul\":5304:5330   */\n      swap1\n      pop\n        /* \"#utility.yul\":5340:5405   */\n      tag_136\n        /* \"#utility.yul\":5402:5403   */\n      0x00\n        /* \"#utility.yul\":5391:5400   */\n      dup4\n        /* \"#utility.yul\":5387:5404   */\n      add\n        /* \"#utility.yul\":5378:5384   */\n      dup5\n        /* \"#utility.yul\":5340:5405   */\n      tag_56\n      jump\t// in\n    tag_136:\n        /* \"#utility.yul\":5202:5412   */\n      swap3\n      swap2\n      pop\n      pop\n      jump\t// out\n        /* \"#utility.yul\":5418:5495   */\n    tag_57:\n        /* \"#utility.yul\":5455:5462   */\n      0x00\n        /* \"#utility.yul\":5484:5489   */\n      dup2\n        /* \"#utility.yul\":5473:5489   */\n      swap1\n      pop\n        /* \"#utility.yul\":5418:5495   */\n      swap2\n      swap1\n      pop\n      jump\t// out\n        /* \"#utility.yul\":5501:5623   */\n    tag_58:\n        /* \"#utility.yul\":5574:5598   */\n      tag_139\n        /* \"#utility.yul\":5592:5597   */\n      dup2\n        /* \"#utility.yul\":5574:5598   */\n      tag_57\n      jump\t// in\n    tag_139:\n        /* \"#utility.yul\":5567:5572   */\n      dup2\n        /* \"#utility.yul\":5564:5599   */\n      eq\n        /* \"#utility.yul\":5554:5617   */\n      tag_140\n      jumpi\n        /* \"#utility.yul\":5613:5614   */\n      0x00\n        /* \"#utility.yul\":5610:5611   */\n      dup1\n        /* \"#utility.yul\":5603:5615   */\n      revert\n        /* \"#utility.yul\":5554:5617   */\n    tag_140:\n        /* \"#utility.yul\":5501:5623   */\n      pop\n      jump\t// out\n        /* \"#utility.yul\":5629:5768   */\n    tag_59:\n        /* \"#utility.yul\":5675:5680   */\n      0x00\n        /* \"#utility.yul\":5713:5719   */\n      dup2\n        /* \"#utility.yul\":5700:5720   */\n      calldataload\n        /* \"#utility.yul\":5691:5720   */\n      swap1\n      pop\n        /* \"#utility.yul\":5729:5762   */\n      tag_142\n        /* \"#utility.yul\":5756:5761   */\n      dup2\n        /* \"#utility.yul\":5729:5762   */\n      tag_58\n      jump\t// in\n    tag_142:\n        /* \"#utility.yul\":5629:5768   */\n      swap3\n      swap2\n      pop\n      pop\n      jump\t// out\n        /* \"#utility.yul\":5774:6426   */\n    tag_14:\n        /* \"#utility.yul\":5851:5857   */\n      0x00\n        /* \"#utility.yul\":5859:5865   */\n      dup1\n        /* \"#utility.yul\":5908:5910   */\n      0x40\n        /* \"#utility.yul\":5896:5905   */\n      dup4\n        /* \"#utility.yul\":5887:5894   */\n      dup6\n        /* \"#utility.yul\":5883:5906   */\n      sub\n        /* \"#utility.yul\":5879:5911   */\n      slt\n        /* \"#utility.yul\":5876:5995   */\n      iszero\n      tag_144\n      jumpi\n        /* \"#utility.yul\":5914:5993   */\n      tag_145\n      tag_37\n      jump\t// in\n    tag_145:\n        /* \"#utility.yul\":5876:5995   */\n    tag_144:\n        /* \"#utility.yul\":6034:6035   */\n      0x00\n        /* \"#utility.yul\":6059:6112   */\n      tag_146\n        /* \"#utility.yul\":6104:6111   */\n      dup6\n        /* \"#utility.yul\":6095:6101   */\n      dup3\n        /* \"#utility.yul\":6084:6093   */\n      dup7\n        /* \"#utility.yul\":6080:6102   */\n      add\n        /* \"#utility.yul\":6059:6112   */\n      tag_59\n      jump\t// in\n    tag_146:\n        /* \"#utility.yul\":6049:6112   */\n      swap3\n      pop\n        /* \"#utility.yul\":6005:6122   */\n      pop\n        /* \"#utility.yul\":6189:6191   */\n      0x20\n        /* \"#utility.yul\":6178:6187   */\n      dup4\n        /* \"#utility.yul\":6174:6192   */\n      add\n        /* \"#utility.yul\":6161:6193   */\n      calldataload\n        /* \"#utility.yul\":6220:6238   */\n      0xffffffffffffffff\n        /* \"#utility.yul\":6212:6218   */\n      dup2\n        /* \"#utility.yul\":6209:6239   */\n      gt\n        /* \"#utility.yul\":6206:6323   */\n      iszero\n      tag_147\n      jumpi\n        /* \"#utility.yul\":6242:6321   */\n      tag_148\n      tag_38\n      jump\t// in\n    tag_148:\n        /* \"#utility.yul\":6206:6323   */\n    tag_147:\n        /* \"#utility.yul\":6347:6409   */\n      tag_149\n        /* \"#utility.yul\":6401:6408   */\n      dup6\n        /* \"#utility.yul\":6392:6398   */\n      dup3\n        /* \"#utility.yul\":6381:6390   */\n      dup7\n        /* \"#utility.yul\":6377:6399   */\n      add\n        /* \"#utility.yul\":6347:6409   */\n      tag_54\n      jump\t// in\n    tag_149:\n        /* \"#utility.yul\":6337:6409   */\n      swap2\n      pop\n        /* \"#utility.yul\":6132:6419   */\n      pop\n        /* \"#utility.yul\":5774:6426   */\n      swap3\n      pop\n      swap3\n      swap1\n      pop\n      jump\t// out\n        /* \"#utility.yul\":6432:6558   */\n    tag_60:\n        /* \"#utility.yul\":6469:6476   */\n      0x00\n        /* \"#utility.yul\":6509:6551   */\n      0xffffffffffffffffffffffffffffffffffffffff\n        /* \"#utility.yul\":6502:6507   */\n      dup3\n        /* \"#utility.yul\":6498:6552   */\n      and\n        /* \"#utility.yul\":6487:6552   */\n      swap1\n      pop\n        /* \"#utility.yul\":6432:6558   */\n      swap2\n      swap1\n      pop\n      jump\t// out\n        /* \"#utility.yul\":6564:6660   */\n    tag_61:\n        /* \"#utility.yul\":6601:6608   */\n      0x00\n        /* \"#utility.yul\":6630:6654   */\n      tag_152\n        /* \"#utility.yul\":6648:6653   */\n      dup3\n        /* \"#utility.yul\":6630:6654   */\n      tag_60\n      jump\t// in\n    tag_152:\n        /* \"#utility.yul\":6619:6654   */\n      swap1\n      pop\n        /* \"#utility.yul\":6564:6660   */\n      swap2\n      swap1\n      pop\n      jump\t// out\n        /* \"#utility.yul\":6666:6784   */\n    tag_62:\n        /* \"#utility.yul\":6753:6777   */\n      tag_154\n        /* \"#utility.yul\":6771:6776   */\n      dup2\n        /* \"#utility.yul\":6753:6777   */\n      tag_61\n      jump\t// in\n    tag_154:\n        /* \"#utility.yul\":6748:6751   */\n      dup3\n        /* \"#utility.yul\":6741:6778   */\n      mstore\n        /* \"#utility.yul\":6666:6784   */\n      pop\n      pop\n      jump\t// out\n        /* \"#utility.yul\":6790:7012   */\n    tag_17:\n        /* \"#utility.yul\":6883:6887   */\n      0x00\n        /* \"#utility.yul\":6921:6923   */\n      0x20\n        /* \"#utility.yul\":6910:6919   */\n      dup3\n        /* \"#utility.yul\":6906:6924   */\n      add\n        /* \"#utility.yul\":6898:6924   */\n      swap1\n      pop\n        /* \"#utility.yul\":6934:7005   */\n      tag_156\n        /* \"#utility.yul\":7002:7003   */\n      0x00\n        /* \"#utility.yul\":6991:7000   */\n      dup4\n        /* \"#utility.yul\":6987:7004   */\n      add\n        /* \"#utility.yul\":6978:6984   */\n      dup5\n        /* \"#utility.yul\":6934:7005   */\n      tag_62\n      jump\t// in\n    tag_156:\n        /* \"#utility.yul\":6790:7012   */\n      swap3\n      swap2\n      pop\n      pop\n      jump\t// out\n        /* \"#utility.yul\":7018:7525   */\n    tag_20:\n        /* \"#utility.yul\":7086:7092   */\n      0x00\n        /* \"#utility.yul\":7135:7137   */\n      0x20\n        /* \"#utility.yul\":7123:7132   */\n      dup3\n        /* \"#utility.yul\":7114:7121   */\n      dup5\n        /* \"#utility.yul\":7110:7133   */\n      sub\n        /* \"#utility.yul\":7106:7138   */\n      slt\n        /* \"#utility.yul\":7103:7222   */\n      iszero\n      tag_158\n      jumpi\n        /* \"#utility.yul\":7141:7220   */\n      tag_159\n      tag_37\n      jump\t// in\n    tag_159:\n        /* \"#utility.yul\":7103:7222   */\n    tag_158:\n        /* \"#utility.yul\":7289:7290   */\n      0x00\n        /* \"#utility.yul\":7278:7287   */\n      dup3\n        /* \"#utility.yul\":7274:7291   */\n      add\n        /* \"#utility.yul\":7261:7292   */\n      calldataload\n        /* \"#utility.yul\":7319:7337   */\n      0xffffffffffffffff\n        /* \"#utility.yul\":7311:7317   */\n      dup2\n        /* \"#utility.yul\":7308:7338   */\n      gt\n        /* \"#utility.yul\":7305:7422   */\n      iszero\n      tag_160\n      jumpi\n        /* \"#utility.yul\":7341:7420   */\n      tag_161\n      tag_38\n      jump\t// in\n    tag_161:\n        /* \"#utility.yul\":7305:7422   */\n    tag_160:\n        /* \"#utility.yul\":7446:7508   */\n      tag_162\n        /* \"#utility.yul\":7500:7507   */\n      dup5\n        /* \"#utility.yul\":7491:7497   */\n      dup3\n        /* \"#utility.yul\":7480:7489   */\n      dup6\n        /* \"#utility.yul\":7476:7498   */\n      add\n        /* \"#utility.yul\":7446:7508   */\n      tag_54\n      jump\t// in\n    tag_162:\n        /* \"#utility.yul\":7436:7508   */\n      swap2\n      pop\n        /* \"#utility.yul\":7232:7518   */\n      pop\n        /* \"#utility.yul\":7018:7525   */\n      swap3\n      swap2\n      pop\n      pop\n      jump\t// out\n        /* \"#utility.yul\":7531:7617   */\n    tag_63:\n        /* \"#utility.yul\":7566:7573   */\n      0x00\n        /* \"#utility.yul\":7606:7610   */\n      0xff\n        /* \"#utility.yul\":7599:7604   */\n      dup3\n        /* \"#utility.yul\":7595:7611   */\n      and\n        /* \"#utility.yul\":7584:7611   */\n      swap1\n      pop\n        /* \"#utility.yul\":7531:7617   */\n      swap2\n      swap1\n      pop\n      jump\t// out\n        /* \"#utility.yul\":7623:7735   */\n    tag_64:\n        /* \"#utility.yul\":7706:7728   */\n      tag_165\n        /* \"#utility.yul\":7722:7727   */\n      dup2\n        /* \"#utility.yul\":7706:7728   */\n      tag_63\n      jump\t// in\n    tag_165:\n        /* \"#utility.yul\":7701:7704   */\n      dup3\n        /* \"#utility.yul\":7694:7729   */\n      mstore\n        /* \"#utility.yul\":7623:7735   */\n      pop\n      pop\n      jump\t// out\n        /* \"#utility.yul\":7741:7859   */\n    tag_65:\n        /* \"#utility.yul\":7828:7852   */\n      tag_167\n        /* \"#utility.yul\":7846:7851   */\n      dup2\n        /* \"#utility.yul\":7828:7852   */\n      tag_57\n      jump\t// in\n    tag_167:\n        /* \"#utility.yul\":7823:7826   */\n      dup3\n        /* \"#utility.yul\":7816:7853   */\n      mstore\n        /* \"#utility.yul\":7741:7859   */\n      pop\n      pop\n      jump\t// out\n        /* \"#utility.yul\":7865:8299   */\n    tag_23:\n        /* \"#utility.yul\":8010:8014   */\n      0x00\n        /* \"#utility.yul\":8048:8050   */\n      0x60\n        /* \"#utility.yul\":8037:8046   */\n      dup3\n        /* \"#utility.yul\":8033:8051   */\n      add\n        /* \"#utility.yul\":8025:8051   */\n      swap1\n      pop\n        /* \"#utility.yul\":8061:8128   */\n      tag_169\n        /* \"#utility.yul\":8125:8126   */\n      0x00\n        /* \"#utility.yul\":8114:8123   */\n      dup4\n        /* \"#utility.yul\":8110:8127   */\n      add\n        /* \"#utility.yul\":8101:8107   */\n      dup7\n        /* \"#utility.yul\":8061:8128   */\n      tag_64\n      jump\t// in\n    tag_169:\n        /* \"#utility.yul\":8138:8210   */\n      tag_170\n        /* \"#utility.yul\":8206:8208   */\n      0x20\n        /* \"#utility.yul\":8195:8204   */\n      dup4\n        /* \"#utility.yul\":8191:8209   */\n      add\n        /* \"#utility.yul\":8182:8188   */\n      dup6\n        /* \"#utility.yul\":8138:8210   */\n      tag_65\n      jump\t// in\n    tag_170:\n        /* \"#utility.yul\":8220:8292   */\n      tag_171\n        /* \"#utility.yul\":8288:8290   */\n      0x40\n        /* \"#utility.yul\":8277:8286   */\n      dup4\n        /* \"#utility.yul\":8273:8291   */\n      add\n        /* \"#utility.yul\":8264:8270   */\n      dup5\n        /* \"#utility.yul\":8220:8292   */\n      tag_65\n      jump\t// in\n    tag_171:\n        /* \"#utility.yul\":7865:8299   */\n      swap5\n      swap4\n      pop\n      pop\n      pop\n      pop\n      jump\t// out\n        /* \"#utility.yul\":8305:8384   */\n    tag_66:\n        /* \"#utility.yul\":8344:8351   */\n      0x00\n        /* \"#utility.yul\":8373:8378   */\n      dup2\n        /* \"#utility.yul\":8362:8378   */\n      swap1\n      pop\n        /* \"#utility.yul\":8305:8384   */\n      swap2\n      swap1\n      pop\n      jump\t// out\n        /* \"#utility.yul\":8390:8547   */\n    tag_67:\n        /* \"#utility.yul\":8495:8540   */\n      tag_174\n        /* \"#utility.yul\":8515:8539   */\n      tag_175\n        /* \"#utility.yul\":8533:8538   */\n      dup3\n        /* \"#utility.yul\":8515:8539   */\n      tag_39\n      jump\t// in\n    tag_175:\n        /* \"#utility.yul\":8495:8540   */\n      tag_66\n      jump\t// in\n    tag_174:\n        /* \"#utility.yul\":8490:8493   */\n      dup3\n        /* \"#utility.yul\":8483:8541   */\n      mstore\n        /* \"#utility.yul\":8390:8547   */\n      pop\n      pop\n      jump\t// out\n        /* \"#utility.yul\":8553:8652   */\n    tag_68:\n        /* \"#utility.yul\":8605:8611   */\n      0x00\n        /* \"#utility.yul\":8639:8644   */\n      dup2\n        /* \"#utility.yul\":8633:8645   */\n      mload\n        /* \"#utility.yul\":8623:8645   */\n      swap1\n      pop\n        /* \"#utility.yul\":8553:8652   */\n      swap2\n      swap1\n      pop\n      jump\t// out\n        /* \"#utility.yul\":8658:8806   */\n    tag_69:\n        /* \"#utility.yul\":8760:8771   */\n      0x00\n        /* \"#utility.yul\":8797:8800   */\n      dup2\n        /* \"#utility.yul\":8782:8800   */\n      swap1\n      pop\n        /* \"#utility.yul\":8658:8806   */\n      swap3\n      swap2\n      pop\n      pop\n      jump\t// out\n        /* \"#utility.yul\":8812:9058   */\n    tag_70:\n        /* \"#utility.yul\":8893:8894   */\n      0x00\n        /* \"#utility.yul\":8903:9016   */\n    tag_179:\n        /* \"#utility.yul\":8917:8923   */\n      dup4\n        /* \"#utility.yul\":8914:8915   */\n      dup2\n        /* \"#utility.yul\":8911:8924   */\n      lt\n        /* \"#utility.yul\":8903:9016   */\n      iszero\n      tag_181\n      jumpi\n        /* \"#utility.yul\":9002:9003   */\n      dup1\n        /* \"#utility.yul\":8997:9000   */\n      dup3\n        /* \"#utility.yul\":8993:9004   */\n      add\n        /* \"#utility.yul\":8987:9005   */\n      mload\n        /* \"#utility.yul\":8983:8984   */\n      dup2\n        /* \"#utility.yul\":8978:8981   */\n      dup5\n        /* \"#utility.yul\":8974:8985   */\n      add\n        /* \"#utility.yul\":8967:9006   */\n      mstore\n        /* \"#utility.yul\":8939:8941   */\n      0x20\n        /* \"#utility.yul\":8936:8937   */\n      dup2\n        /* \"#utility.yul\":8932:8942   */\n      add\n        /* \"#utility.yul\":8927:8942   */\n      swap1\n      pop\n        /* \"#utility.yul\":8903:9016   */\n      jump(tag_179)\n    tag_181:\n        /* \"#utility.yul\":9050:9051   */\n      0x00\n        /* \"#utility.yul\":9041:9047   */\n      dup5\n        /* \"#utility.yul\":9036:9039   */\n      dup5\n        /* \"#utility.yul\":9032:9048   */\n      add\n        /* \"#utility.yul\":9025:9052   */\n      mstore\n        /* \"#utility.yul\":8874:9058   */\n      pop\n        /* \"#utility.yul\":8812:9058   */\n      pop\n      pop\n      pop\n      jump\t// out\n        /* \"#utility.yul\":9064:9454   */\n    tag_71:\n        /* \"#utility.yul\":9170:9173   */\n      0x00\n        /* \"#utility.yul\":9198:9237   */\n      tag_183\n        /* \"#utility.yul\":9231:9236   */\n      dup3\n        /* \"#utility.yul\":9198:9237   */\n      tag_68\n      jump\t// in\n    tag_183:\n        /* \"#utility.yul\":9253:9342   */\n      tag_184\n        /* \"#utility.yul\":9335:9341   */\n      dup2\n        /* \"#utility.yul\":9330:9333   */\n      dup6\n        /* \"#utility.yul\":9253:9342   */\n      tag_69\n      jump\t// in\n    tag_184:\n        /* \"#utility.yul\":9246:9342   */\n      swap4\n      pop\n        /* \"#utility.yul\":9351:9416   */\n      tag_185\n        /* \"#utility.yul\":9409:9415   */\n      dup2\n        /* \"#utility.yul\":9404:9407   */\n      dup6\n        /* \"#utility.yul\":9397:9401   */\n      0x20\n        /* \"#utility.yul\":9390:9395   */\n      dup7\n        /* \"#utility.yul\":9386:9402   */\n      add\n        /* \"#utility.yul\":9351:9416   */\n      tag_70\n      jump\t// in\n    tag_185:\n        /* \"#utility.yul\":9441:9447   */\n      dup1\n        /* \"#utility.yul\":9436:9439   */\n      dup5\n        /* \"#utility.yul\":9432:9448   */\n      add\n        /* \"#utility.yul\":9425:9448   */\n      swap2\n      pop\n        /* \"#utility.yul\":9174:9454   */\n      pop\n        /* \"#utility.yul\":9064:9454   */\n      swap3\n      swap2\n      pop\n      pop\n      jump\t// out\n        /* \"#utility.yul\":9460:9876   */\n    tag_26:\n        /* \"#utility.yul\":9620:9623   */\n      0x00\n        /* \"#utility.yul\":9635:9710   */\n      tag_187\n        /* \"#utility.yul\":9706:9709   */\n      dup3\n        /* \"#utility.yul\":9697:9703   */\n      dup6\n        /* \"#utility.yul\":9635:9710   */\n      tag_67\n      jump\t// in\n    tag_187:\n        /* \"#utility.yul\":9735:9737   */\n      0x20\n        /* \"#utility.yul\":9730:9733   */\n      dup3\n        /* \"#utility.yul\":9726:9738   */\n      add\n        /* \"#utility.yul\":9719:9738   */\n      swap2\n      pop\n        /* \"#utility.yul\":9755:9850   */\n      tag_188\n        /* \"#utility.yul\":9846:9849   */\n      dup3\n        /* \"#utility.yul\":9837:9843   */\n      dup5\n        /* \"#utility.yul\":9755:9850   */\n      tag_71\n      jump\t// in\n    tag_188:\n        /* \"#utility.yul\":9748:9850   */\n      swap2\n      pop\n        /* \"#utility.yul\":9867:9870   */\n      dup2\n        /* \"#utility.yul\":9860:9870   */\n      swap1\n      pop\n        /* \"#utility.yul\":9460:9876   */\n      swap4\n      swap3\n      pop\n      pop\n      pop\n      jump\t// out\n        /* \"#utility.yul\":9882:10427   */\n    tag_31:\n        /* \"#utility.yul\":10055:10059   */\n      0x00\n        /* \"#utility.yul\":10093:10096   */\n      0x80\n        /* \"#utility.yul\":10082:10091   */\n      dup3\n        /* \"#utility.yul\":10078:10097   */\n      add\n        /* \"#utility.yul\":10070:10097   */\n      swap1\n      pop\n        /* \"#utility.yul\":10107:10178   */\n      tag_190\n        /* \"#utility.yul\":10175:10176   */\n      0x00\n        /* \"#utility.yul\":10164:10173   */\n      dup4\n        /* \"#utility.yul\":10160:10177   */\n      add\n        /* \"#utility.yul\":10151:10157   */\n      dup8\n        /* \"#utility.yul\":10107:10178   */\n      tag_65\n      jump\t// in\n    tag_190:\n        /* \"#utility.yul\":10188:10256   */\n      tag_191\n        /* \"#utility.yul\":10252:10254   */\n      0x20\n        /* \"#utility.yul\":10241:10250   */\n      dup4\n        /* \"#utility.yul\":10237:10255   */\n      add\n        /* \"#utility.yul\":10228:10234   */\n      dup7\n        /* \"#utility.yul\":10188:10256   */\n      tag_64\n      jump\t// in\n    tag_191:\n        /* \"#utility.yul\":10266:10338   */\n      tag_192\n        /* \"#utility.yul\":10334:10336   */\n      0x40\n        /* \"#utility.yul\":10323:10332   */\n      dup4\n        /* \"#utility.yul\":10319:10337   */\n      add\n        /* \"#utility.yul\":10310:10316   */\n      dup6\n        /* \"#utility.yul\":10266:10338   */\n      tag_65\n      jump\t// in\n    tag_192:\n        /* \"#utility.yul\":10348:10420   */\n      tag_193\n        /* \"#utility.yul\":10416:10418   */\n      0x60\n        /* \"#utility.yul\":10405:10414   */\n      dup4\n        /* \"#utility.yul\":10401:10419   */\n      add\n        /* \"#utility.yul\":10392:10398   */\n      dup5\n        /* \"#utility.yul\":10348:10420   */\n      tag_65\n      jump\t// in\n    tag_193:\n        /* \"#utility.yul\":9882:10427   */\n      swap6\n      swap5\n      pop\n      pop\n      pop\n      pop\n      pop\n      jump\t// out\n\n    auxdata: 0xa264697066735822122093301d265aecb3e162e688373871e1375df4b186d473044bff511c7be0aa7f6c64736f6c63430008110033\n}\n",
				"bytecode": {
					"linkReferences": {},
					"object": "608060405234801561001057600080fd5b506040516108f73803806108f7833981810160405281019061003291906100db565b806000806101000a81548173ffffffffffffffffffffffffffffffffffffffff021916908373ffffffffffffffffffffffffffffffffffffffff16021790555050610108565b600080fd5b600073ffffffffffffffffffffffffffffffffffffffff82169050919050565b60006100a88261007d565b9050919050565b6100b88161009d565b81146100c357600080fd5b50565b6000815190506100d5816100af565b92915050565b6000602082840312156100f1576100f0610078565b5b60006100ff848285016100c6565b91505092915050565b6107e0806101176000396000f3fe608060405234801561001057600080fd5b50600436106100415760003560e01c806324a69a7e1461004657806397aba7f914610076578063a7bb5803146100a6575b600080fd5b610060600480360381019061005b9190610451565b6100d8565b60405161006d91906104f7565b60405180910390f35b610090600480360381019061008b9190610548565b610168565b60405161009d91906105e5565b60405180910390f35b6100c060048036038101906100bb9190610600565b6101dd565b6040516100cf93929190610674565b60405180910390f35b60008084846040516020016100ee92919061073d565b60405160208183030381529060405280519060200120905060008054906101000a900473ffffffffffffffffffffffffffffffffffffffff1673ffffffffffffffffffffffffffffffffffffffff166101478285610168565b73ffffffffffffffffffffffffffffffffffffffff16149150509392505050565b600080600080610177856101dd565b809350819450829550505050600186848484604051600081526020016040526040516101a69493929190610765565b6020604051602081039080840390855afa1580156101c8573d6000803e3d6000fd5b50505060206040510351935050505092915050565b600080600060418451146101f057600080fd5b60008060006020870151925060408701519150606087015160001a90508083839550955095505050509193909250565b6000604051905090565b600080fd5b600080fd5b6000819050919050565b61024781610234565b811461025257600080fd5b50565b6000813590506102648161023e565b92915050565b600080fd5b600080fd5b6000601f19601f8301169050919050565b7f4e487b7100000000000000000000000000000000000000000000000000000000600052604160045260246000fd5b6102bd82610274565b810181811067ffffffffffffffff821117156102dc576102db610285565b5b80604052505050565b60006102ef610220565b90506102fb82826102b4565b919050565b600067ffffffffffffffff82111561031b5761031a610285565b5b61032482610274565b9050602081019050919050565b82818337600083830152505050565b600061035361034e84610300565b6102e5565b90508281526020810184848401111561036f5761036e61026f565b5b61037a848285610331565b509392505050565b600082601f8301126103975761039661026a565b5b81356103a7848260208601610340565b91505092915050565b600067ffffffffffffffff8211156103cb576103ca610285565b5b6103d482610274565b9050602081019050919050565b60006103f46103ef846103b0565b6102e5565b9050828152602081018484840111156104105761040f61026f565b5b61041b848285610331565b509392505050565b600082601f8301126104385761043761026a565b5b81356104488482602086016103e1565b91505092915050565b60008060006060848603121561046a5761046961022a565b5b600061047886828701610255565b935050602084013567ffffffffffffffff8111156104995761049861022f565b5b6104a586828701610382565b925050604084013567ffffffffffffffff8111156104c6576104c561022f565b5b6104d286828701610423565b9150509250925092565b60008115159050919050565b6104f1816104dc565b82525050565b600060208201905061050c60008301846104e8565b92915050565b6000819050919050565b61052581610512565b811461053057600080fd5b50565b6000813590506105428161051c565b92915050565b6000806040838503121561055f5761055e61022a565b5b600061056d85828601610533565b925050602083013567ffffffffffffffff81111561058e5761058d61022f565b5b61059a85828601610423565b9150509250929050565b600073ffffffffffffffffffffffffffffffffffffffff82169050919050565b60006105cf826105a4565b9050919050565b6105df816105c4565b82525050565b60006020820190506105fa60008301846105d6565b92915050565b6000602082840312156106165761061561022a565b5b600082013567ffffffffffffffff8111156106345761063361022f565b5b61064084828501610423565b91505092915050565b600060ff82169050919050565b61065f81610649565b82525050565b61066e81610512565b82525050565b60006060820190506106896000830186610656565b6106966020830185610665565b6106a36040830184610665565b949350505050565b6000819050919050565b6106c66106c182610234565b6106ab565b82525050565b600081519050919050565b600081905092915050565b60005b838110156107005780820151818401526020810190506106e5565b60008484015250505050565b6000610717826106cc565b61072181856106d7565b93506107318185602086016106e2565b80840191505092915050565b600061074982856106b5565b602082019150610759828461070c565b91508190509392505050565b600060808201905061077a6000830187610665565b6107876020830186610656565b6107946040830185610665565b6107a16060830184610665565b9594505050505056fea264697066735822122093301d265aecb3e162e688373871e1375df4b186d473044bff511c7be0aa7f6c64736f6c63430008110033",
					"opcodes": "PUSH1 0x80 PUSH1 0x40 MSTORE CALLVALUE DUP1 ISZERO PUSH2 0x10 JUMPI PUSH1 0x0 DUP1 REVERT JUMPDEST POP PUSH1 0x40 MLOAD PUSH2 0x8F7 CODESIZE SUB DUP1 PUSH2 0x8F7 DUP4 CODECOPY DUP2 DUP2 ADD PUSH1 0x40 MSTORE DUP2 ADD SWAP1 PUSH2 0x32 SWAP2 SWAP1 PUSH2 0xDB JUMP JUMPDEST DUP1 PUSH1 0x0 DUP1 PUSH2 0x100 EXP DUP2 SLOAD DUP2 PUSH20 0xFFFFFFFFFFFFFFFFFFFFFFFFFFFFFFFFFFFFFFFF MUL NOT AND SWAP1 DUP4 PUSH20 0xFFFFFFFFFFFFFFFFFFFFFFFFFFFFFFFFFFFFFFFF AND MUL OR SWAP1 SSTORE POP POP PUSH2 0x108 JUMP JUMPDEST PUSH1 0x0 DUP1 REVERT JUMPDEST PUSH1 0x0 PUSH20 0xFFFFFFFFFFFFFFFFFFFFFFFFFFFFFFFFFFFFFFFF DUP3 AND SWAP1 POP SWAP2 SWAP1 POP JUMP JUMPDEST PUSH1 0x0 PUSH2 0xA8 DUP3 PUSH2 0x7D JUMP JUMPDEST SWAP1 POP SWAP2 SWAP1 POP JUMP JUMPDEST PUSH2 0xB8 DUP2 PUSH2 0x9D JUMP JUMPDEST DUP2 EQ PUSH2 0xC3 JUMPI PUSH1 0x0 DUP1 REVERT JUMPDEST POP JUMP JUMPDEST PUSH1 0x0 DUP2 MLOAD SWAP1 POP PUSH2 0xD5 DUP2 PUSH2 0xAF JUMP JUMPDEST SWAP3 SWAP2 POP POP JUMP JUMPDEST PUSH1 0x0 PUSH1 0x20 DUP3 DUP5 SUB SLT ISZERO PUSH2 0xF1 JUMPI PUSH2 0xF0 PUSH2 0x78 JUMP JUMPDEST JUMPDEST PUSH1 0x0 PUSH2 0xFF DUP5 DUP3 DUP6 ADD PUSH2 0xC6 JUMP JUMPDEST SWAP2 POP POP SWAP3 SWAP2 POP POP JUMP JUMPDEST PUSH2 0x7E0 DUP1 PUSH2 0x117 PUSH1 0x0 CODECOPY PUSH1 0x0 RETURN INVALID PUSH1 0x80 PUSH1 0x40 MSTORE CALLVALUE DUP1 ISZERO PUSH2 0x10 JUMPI PUSH1 0x0 DUP1 REVERT JUMPDEST POP PUSH1 0x4 CALLDATASIZE LT PUSH2 0x41 JUMPI PUSH1 0x0 CALLDATALOAD PUSH1 0xE0 SHR DUP1 PUSH4 0x24A69A7E EQ PUSH2 0x46 JUMPI DUP1 PUSH4 0x97ABA7F9 EQ PUSH2 0x76 JUMPI DUP1 PUSH4 0xA7BB5803 EQ PUSH2 0xA6 JUMPI JUMPDEST PUSH1 0x0 DUP1 REVERT JUMPDEST PUSH2 0x60 PUSH1 0x4 DUP1 CALLDATASIZE SUB DUP2 ADD SWAP1 PUSH2 0x5B SWAP2 SWAP1 PUSH2 0x451 JUMP JUMPDEST PUSH2 0xD8 JUMP JUMPDEST PUSH1 0x40 MLOAD PUSH2 0x6D SWAP2 SWAP1 PUSH2 0x4F7 JUMP JUMPDEST PUSH1 0x40 MLOAD DUP1 SWAP2 SUB SWAP1 RETURN JUMPDEST PUSH2 0x90 PUSH1 0x4 DUP1 CALLDATASIZE SUB DUP2 ADD SWAP1 PUSH2 0x8B SWAP2 SWAP1 PUSH2 0x548 JUMP JUMPDEST PUSH2 0x168 JUMP JUMPDEST PUSH1 0x40 MLOAD PUSH2 0x9D SWAP2 SWAP1 PUSH2 0x5E5 JUMP JUMPDEST PUSH1 0x40 MLOAD DUP1 SWAP2 SUB SWAP1 RETURN JUMPDEST PUSH2 0xC0 PUSH1 0x4 DUP1 CALLDATASIZE SUB DUP2 ADD SWAP1 PUSH2 0xBB SWAP2 SWAP1 PUSH2 0x600 JUMP JUMPDEST PUSH2 0x1DD JUMP JUMPDEST PUSH1 0x40 MLOAD PUSH2 0xCF SWAP4 SWAP3 SWAP2 SWAP1 PUSH2 0x674 JUMP JUMPDEST PUSH1 0x40 MLOAD DUP1 SWAP2 SUB SWAP1 RETURN JUMPDEST PUSH1 0x0 DUP1 DUP5 DUP5 PUSH1 0x40 MLOAD PUSH1 0x20 ADD PUSH2 0xEE SWAP3 SWAP2 SWAP1 PUSH2 0x73D JUMP JUMPDEST PUSH1 0x40 MLOAD PUSH1 0x20 DUP2 DUP4 SUB SUB DUP2 MSTORE SWAP1 PUSH1 0x40 MSTORE DUP1 MLOAD SWAP1 PUSH1 0x20 ADD KECCAK256 SWAP1 POP PUSH1 0x0 DUP1 SLOAD SWAP1 PUSH2 0x100 EXP SWAP1 DIV PUSH20 0xFFFFFFFFFFFFFFFFFFFFFFFFFFFFFFFFFFFFFFFF AND PUSH20 0xFFFFFFFFFFFFFFFFFFFFFFFFFFFFFFFFFFFFFFFF AND PUSH2 0x147 DUP3 DUP6 PUSH2 0x168 JUMP JUMPDEST PUSH20 0xFFFFFFFFFFFFFFFFFFFFFFFFFFFFFFFFFFFFFFFF AND EQ SWAP2 POP POP SWAP4 SWAP3 POP POP POP JUMP JUMPDEST PUSH1 0x0 DUP1 PUSH1 0x0 DUP1 PUSH2 0x177 DUP6 PUSH2 0x1DD JUMP JUMPDEST DUP1 SWAP4 POP DUP2 SWAP5 POP DUP3 SWAP6 POP POP POP POP PUSH1 0x1 DUP7 DUP5 DUP5 DUP5 PUSH1 0x40 MLOAD PUSH1 0x0 DUP2 MSTORE PUSH1 0x20 ADD PUSH1 0x40 MSTORE PUSH1 0x40 MLOAD PUSH2 0x1A6 SWAP5 SWAP4 SWAP3 SWAP2 SWAP1 PUSH2 0x765 JUMP JUMPDEST PUSH1 0x20 PUSH1 0x40 MLOAD PUSH1 0x20 DUP2 SUB SWAP1 DUP1 DUP5 SUB SWAP1 DUP6 GAS STATICCALL ISZERO DUP1 ISZERO PUSH2 0x1C8 JUMPI RETURNDATASIZE PUSH1 0x0 DUP1 RETURNDATACOPY RETURNDATASIZE PUSH1 0x0 REVERT JUMPDEST POP POP POP PUSH1 0x20 PUSH1 0x40 MLOAD SUB MLOAD SWAP4 POP POP POP POP SWAP3 SWAP2 POP POP JUMP JUMPDEST PUSH1 0x0 DUP1 PUSH1 0x0 PUSH1 0x41 DUP5 MLOAD EQ PUSH2 0x1F0 JUMPI PUSH1 0x0 DUP1 REVERT JUMPDEST PUSH1 0x0 DUP1 PUSH1 0x0 PUSH1 0x20 DUP8 ADD MLOAD SWAP3 POP PUSH1 0x40 DUP8 ADD MLOAD SWAP2 POP PUSH1 0x60 DUP8 ADD MLOAD PUSH1 0x0 BYTE SWAP1 POP DUP1 DUP4 DUP4 SWAP6 POP SWAP6 POP SWAP6 POP POP POP POP SWAP2 SWAP4 SWAP1 SWAP3 POP JUMP JUMPDEST PUSH1 0x0 PUSH1 0x40 MLOAD SWAP1 POP SWAP1 JUMP JUMPDEST PUSH1 0x0 DUP1 REVERT JUMPDEST PUSH1 0x0 DUP1 REVERT JUMPDEST PUSH1 0x0 DUP2 SWAP1 POP SWAP2 SWAP1 POP JUMP JUMPDEST PUSH2 0x247 DUP2 PUSH2 0x234 JUMP JUMPDEST DUP2 EQ PUSH2 0x252 JUMPI PUSH1 0x0 DUP1 REVERT JUMPDEST POP JUMP JUMPDEST PUSH1 0x0 DUP2 CALLDATALOAD SWAP1 POP PUSH2 0x264 DUP2 PUSH2 0x23E JUMP JUMPDEST SWAP3 SWAP2 POP POP JUMP JUMPDEST PUSH1 0x0 DUP1 REVERT JUMPDEST PUSH1 0x0 DUP1 REVERT JUMPDEST PUSH1 0x0 PUSH1 0x1F NOT PUSH1 0x1F DUP4 ADD AND SWAP1 POP SWAP2 SWAP1 POP JUMP JUMPDEST PUSH32 0x4E487B7100000000000000000000000000000000000000000000000000000000 PUSH1 0x0 MSTORE PUSH1 0x41 PUSH1 0x4 MSTORE PUSH1 0x24 PUSH1 0x0 REVERT JUMPDEST PUSH2 0x2BD DUP3 PUSH2 0x274 JUMP JUMPDEST DUP2 ADD DUP2 DUP2 LT PUSH8 0xFFFFFFFFFFFFFFFF DUP3 GT OR ISZERO PUSH2 0x2DC JUMPI PUSH2 0x2DB PUSH2 0x285 JUMP JUMPDEST JUMPDEST DUP1 PUSH1 0x40 MSTORE POP POP POP JUMP JUMPDEST PUSH1 0x0 PUSH2 0x2EF PUSH2 0x220 JUMP JUMPDEST SWAP1 POP PUSH2 0x2FB DUP3 DUP3 PUSH2 0x2B4 JUMP JUMPDEST SWAP2 SWAP1 POP JUMP JUMPDEST PUSH1 0x0 PUSH8 0xFFFFFFFFFFFFFFFF DUP3 GT ISZERO PUSH2 0x31B JUMPI PUSH2 0x31A PUSH2 0x285 JUMP JUMPDEST JUMPDEST PUSH2 0x324 DUP3 PUSH2 0x274 JUMP JUMPDEST SWAP1 POP PUSH1 0x20 DUP2 ADD SWAP1 POP SWAP2 SWAP1 POP JUMP JUMPDEST DUP3 DUP2 DUP4 CALLDATACOPY PUSH1 0x0 DUP4 DUP4 ADD MSTORE POP POP POP JUMP JUMPDEST PUSH1 0x0 PUSH2 0x353 PUSH2 0x34E DUP5 PUSH2 0x300 JUMP JUMPDEST PUSH2 0x2E5 JUMP JUMPDEST SWAP1 POP DUP3 DUP2 MSTORE PUSH1 0x20 DUP2 ADD DUP5 DUP5 DUP5 ADD GT ISZERO PUSH2 0x36F JUMPI PUSH2 0x36E PUSH2 0x26F JUMP JUMPDEST JUMPDEST PUSH2 0x37A DUP5 DUP3 DUP6 PUSH2 0x331 JUMP JUMPDEST POP SWAP4 SWAP3 POP POP POP JUMP JUMPDEST PUSH1 0x0 DUP3 PUSH1 0x1F DUP4 ADD SLT PUSH2 0x397 JUMPI PUSH2 0x396 PUSH2 0x26A JUMP JUMPDEST JUMPDEST DUP2 CALLDATALOAD PUSH2 0x3A7 DUP5 DUP3 PUSH1 0x20 DUP7 ADD PUSH2 0x340 JUMP JUMPDEST SWAP2 POP POP SWAP3 SWAP2 POP POP JUMP JUMPDEST PUSH1 0x0 PUSH8 0xFFFFFFFFFFFFFFFF DUP3 GT ISZERO PUSH2 0x3CB JUMPI PUSH2 0x3CA PUSH2 0x285 JUMP JUMPDEST JUMPDEST PUSH2 0x3D4 DUP3 PUSH2 0x274 JUMP JUMPDEST SWAP1 POP PUSH1 0x20 DUP2 ADD SWAP1 POP SWAP2 SWAP1 POP JUMP JUMPDEST PUSH1 0x0 PUSH2 0x3F4 PUSH2 0x3EF DUP5 PUSH2 0x3B0 JUMP JUMPDEST PUSH2 0x2E5 JUMP JUMPDEST SWAP1 POP DUP3 DUP2 MSTORE PUSH1 0x20 DUP2 ADD DUP5 DUP5 DUP5 ADD GT ISZERO PUSH2 0x410 JUMPI PUSH2 0x40F PUSH2 0x26F JUMP JUMPDEST JUMPDEST PUSH2 0x41B DUP5 DUP3 DUP6 PUSH2 0x331 JUMP JUMPDEST POP SWAP4 SWAP3 POP POP POP JUMP JUMPDEST PUSH1 0x0 DUP3 PUSH1 0x1F DUP4 ADD SLT PUSH2 0x438 JUMPI PUSH2 0x437 PUSH2 0x26A JUMP JUMPDEST JUMPDEST DUP2 CALLDATALOAD PUSH2 0x448 DUP5 DUP3 PUSH1 0x20 DUP7 ADD PUSH2 0x3E1 JUMP JUMPDEST SWAP2 POP POP SWAP3 SWAP2 POP POP JUMP JUMPDEST PUSH1 0x0 DUP1 PUSH1 0x0 PUSH1 0x60 DUP5 DUP7 SUB SLT ISZERO PUSH2 0x46A JUMPI PUSH2 0x469 PUSH2 0x22A JUMP JUMPDEST JUMPDEST PUSH1 0x0 PUSH2 0x478 DUP7 DUP3 DUP8 ADD PUSH2 0x255 JUMP JUMPDEST SWAP4 POP POP PUSH1 0x20 DUP5 ADD CALLDATALOAD PUSH8 0xFFFFFFFFFFFFFFFF DUP2 GT ISZERO PUSH2 0x499 JUMPI PUSH2 0x498 PUSH2 0x22F JUMP JUMPDEST JUMPDEST PUSH2 0x4A5 DUP7 DUP3 DUP8 ADD PUSH2 0x382 JUMP JUMPDEST SWAP3 POP POP PUSH1 0x40 DUP5 ADD CALLDATALOAD PUSH8 0xFFFFFFFFFFFFFFFF DUP2 GT ISZERO PUSH2 0x4C6 JUMPI PUSH2 0x4C5 PUSH2 0x22F JUMP JUMPDEST JUMPDEST PUSH2 0x4D2 DUP7 DUP3 DUP8 ADD PUSH2 0x423 JUMP JUMPDEST SWAP2 POP POP SWAP3 POP SWAP3 POP SWAP3 JUMP JUMPDEST PUSH1 0x0 DUP2 ISZERO ISZERO SWAP1 POP SWAP2 SWAP1 POP JUMP JUMPDEST PUSH2 0x4F1 DUP2 PUSH2 0x4DC JUMP JUMPDEST DUP3 MSTORE POP POP JUMP JUMPDEST PUSH1 0x0 PUSH1 0x20 DUP3 ADD SWAP1 POP PUSH2 0x50C PUSH1 0x0 DUP4 ADD DUP5 PUSH2 0x4E8 JUMP JUMPDEST SWAP3 SWAP2 POP POP JUMP JUMPDEST PUSH1 0x0 DUP2 SWAP1 POP SWAP2 SWAP1 POP JUMP JUMPDEST PUSH2 0x525 DUP2 PUSH2 0x512 JUMP JUMPDEST DUP2 EQ PUSH2 0x530 JUMPI PUSH1 0x0 DUP1 REVERT JUMPDEST POP JUMP JUMPDEST PUSH1 0x0 DUP2 CALLDATALOAD SWAP1 POP PUSH2 0x542 DUP2 PUSH2 0x51C JUMP JUMPDEST SWAP3 SWAP2 POP POP JUMP JUMPDEST PUSH1 0x0 DUP1 PUSH1 0x40 DUP4 DUP6 SUB SLT ISZERO PUSH2 0x55F JUMPI PUSH2 0x55E PUSH2 0x22A JUMP JUMPDEST JUMPDEST PUSH1 0x0 PUSH2 0x56D DUP6 DUP3 DUP7 ADD PUSH2 0x533 JUMP JUMPDEST SWAP3 POP POP PUSH1 0x20 DUP4 ADD CALLDATALOAD PUSH8 0xFFFFFFFFFFFFFFFF DUP2 GT ISZERO PUSH2 0x58E JUMPI PUSH2 0x58D PUSH2 0x22F JUMP JUMPDEST JUMPDEST PUSH2 0x59A DUP6 DUP3 DUP7 ADD PUSH2 0x423 JUMP JUMPDEST SWAP2 POP POP SWAP3 POP SWAP3 SWAP1 POP JUMP JUMPDEST PUSH1 0x0 PUSH20 0xFFFFFFFFFFFFFFFFFFFFFFFFFFFFFFFFFFFFFFFF DUP3 AND SWAP1 POP SWAP2 SWAP1 POP JUMP JUMPDEST PUSH1 0x0 PUSH2 0x5CF DUP3 PUSH2 0x5A4 JUMP JUMPDEST SWAP1 POP SWAP2 SWAP1 POP JUMP JUMPDEST PUSH2 0x5DF DUP2 PUSH2 0x5C4 JUMP JUMPDEST DUP3 MSTORE POP POP JUMP JUMPDEST PUSH1 0x0 PUSH1 0x20 DUP3 ADD SWAP1 POP PUSH2 0x5FA PUSH1 0x0 DUP4 ADD DUP5 PUSH2 0x5D6 JUMP JUMPDEST SWAP3 SWAP2 POP POP JUMP JUMPDEST PUSH1 0x0 PUSH1 0x20 DUP3 DUP5 SUB SLT ISZERO PUSH2 0x616 JUMPI PUSH2 0x615 PUSH2 0x22A JUMP JUMPDEST JUMPDEST PUSH1 0x0 DUP3 ADD CALLDATALOAD PUSH8 0xFFFFFFFFFFFFFFFF DUP2 GT ISZERO PUSH2 0x634 JUMPI PUSH2 0x633 PUSH2 0x22F JUMP JUMPDEST JUMPDEST PUSH2 0x640 DUP5 DUP3 DUP6 ADD PUSH2 0x423 JUMP JUMPDEST SWAP2 POP POP SWAP3 SWAP2 POP POP JUMP JUMPDEST PUSH1 0x0 PUSH1 0xFF DUP3 AND SWAP1 POP SWAP2 SWAP1 POP JUMP JUMPDEST PUSH2 0x65F DUP2 PUSH2 0x649 JUMP JUMPDEST DUP3 MSTORE POP POP JUMP JUMPDEST PUSH2 0x66E DUP2 PUSH2 0x512 JUMP JUMPDEST DUP3 MSTORE POP POP JUMP JUMPDEST PUSH1 0x0 PUSH1 0x60 DUP3 ADD SWAP1 POP PUSH2 0x689 PUSH1 0x0 DUP4 ADD DUP7 PUSH2 0x656 JUMP JUMPDEST PUSH2 0x696 PUSH1 0x20 DUP4 ADD DUP6 PUSH2 0x665 JUMP JUMPDEST PUSH2 0x6A3 PUSH1 0x40 DUP4 ADD DUP5 PUSH2 0x665 JUMP JUMPDEST SWAP5 SWAP4 POP POP POP POP JUMP JUMPDEST PUSH1 0x0 DUP2 SWAP1 POP SWAP2 SWAP1 POP JUMP JUMPDEST PUSH2 0x6C6 PUSH2 0x6C1 DUP3 PUSH2 0x234 JUMP JUMPDEST PUSH2 0x6AB JUMP JUMPDEST DUP3 MSTORE POP POP JUMP JUMPDEST PUSH1 0x0 DUP2 MLOAD SWAP1 POP SWAP2 SWAP1 POP JUMP JUMPDEST PUSH1 0x0 DUP2 SWAP1 POP SWAP3 SWAP2 POP POP JUMP JUMPDEST PUSH1 0x0 JUMPDEST DUP4 DUP2 LT ISZERO PUSH2 0x700 JUMPI DUP1 DUP3 ADD MLOAD DUP2 DUP5 ADD MSTORE PUSH1 0x20 DUP2 ADD SWAP1 POP PUSH2 0x6E5 JUMP JUMPDEST PUSH1 0x0 DUP5 DUP5 ADD MSTORE POP POP POP POP JUMP JUMPDEST PUSH1 0x0 PUSH2 0x717 DUP3 PUSH2 0x6CC JUMP JUMPDEST PUSH2 0x721 DUP2 DUP6 PUSH2 0x6D7 JUMP JUMPDEST SWAP4 POP PUSH2 0x731 DUP2 DUP6 PUSH1 0x20 DUP7 ADD PUSH2 0x6E2 JUMP JUMPDEST DUP1 DUP5 ADD SWAP2 POP POP SWAP3 SWAP2 POP POP JUMP JUMPDEST PUSH1 0x0 PUSH2 0x749 DUP3 DUP6 PUSH2 0x6B5 JUMP JUMPDEST PUSH1 0x20 DUP3 ADD SWAP2 POP PUSH2 0x759 DUP3 DUP5 PUSH2 0x70C JUMP JUMPDEST SWAP2 POP DUP2 SWAP1 POP SWAP4 SWAP3 POP POP POP JUMP JUMPDEST PUSH1 0x0 PUSH1 0x80 DUP3 ADD SWAP1 POP PUSH2 0x77A PUSH1 0x0 DUP4 ADD DUP8 PUSH2 0x665 JUMP JUMPDEST PUSH2 0x787 PUSH1 0x20 DUP4 ADD DUP7 PUSH2 0x656 JUMP JUMPDEST PUSH2 0x794 PUSH1 0x40 DUP4 ADD DUP6 PUSH2 0x665 JUMP JUMPDEST PUSH2 0x7A1 PUSH1 0x60 DUP4 ADD DUP5 PUSH2 0x665 JUMP JUMPDEST SWAP6 SWAP5 POP POP POP POP POP JUMP INVALID LOG2 PUSH5 0x6970667358 0x22 SLT KECCAK256 SWAP4 ADDRESS SAR 0x26 GAS 0xEC 0xB3 0xE1 PUSH3 0xE68837 CODESIZE PUSH18 0xE1375DF4B186D473044BFF511C7BE0AA7F6C PUSH5 0x736F6C6343 STOP ADDMOD GT STOP CALLER "
				},
				"gasEstimates": {
					"creation": {
						"codeDepositCost": "403200",
						"executionCost": "infinite",
						"totalCost": "infinite"
					},
					"external": {
						"isValidData(uint256,string,bytes)": "infinite",
						"recoverSigner(bytes32,bytes)": "infinite",
						"splitSignature(bytes)": "infinite"
					}
				},
				"methodIdentifiers": {
					"isValidData(uint256,string,bytes)": "24a69a7e",
					"recoverSigner(bytes32,bytes)": "97aba7f9",
					"splitSignature(bytes)": "a7bb5803"
				}
			},
			"storageLayout": {
				"storage": [
					{
						"astId": 3,
						"contract": "contract-442812f524.sol:Verify",
						"label": "importantAddress",
						"offset": 0,
						"slot": "0",
						"type": "t_address"
					}
				],
				"types": {
					"t_address": {
						"encoding": "inplace",
						"label": "address",
						"numberOfBytes": "20"
					}
				}
			},
			"userdoc": {
				"kind": "user",
				"methods": {},
				"version": 1
			}
		}
	}
}