{
	"contract-71ad24318f.sol": {
		"BallotBox": {
			"abi": [
				{
					"inputs": [
						{
							"internalType": "address",
							"name": "_twitt",
							"type": "address"
						}
					],
					"stateMutability": "nonpayable",
					"type": "constructor"
				},
				{
					"anonymous": false,
					"inputs": [
						{
							"indexed": false,
							"internalType": "uint256",
							"name": "balances",
							"type": "uint256"
						}
					],
					"name": "balncer",
					"type": "event"
				},
				{
					"inputs": [
						{
							"internalType": "uint256",
							"name": "",
							"type": "uint256"
						}
					],
					"name": "proposals",
					"outputs": [
						{
							"internalType": "bytes32",
							"name": "name",
							"type": "bytes32"
						},
						{
							"internalType": "uint256",
							"name": "voteCount",
							"type": "uint256"
						}
					],
					"stateMutability": "view",
					"type": "function"
				},
				{
					"inputs": [],
					"name": "test",
					"outputs": [],
					"stateMutability": "nonpayable",
					"type": "function"
				},
				{
					"inputs": [],
					"name": "twitt",
					"outputs": [
						{
							"internalType": "contract IERC20",
							"name": "",
							"type": "address"
						}
					],
					"stateMutability": "view",
					"type": "function"
				},
				{
					"inputs": [
						{
							"internalType": "uint256",
							"name": "proposal",
							"type": "uint256"
						}
					],
					"name": "vote",
					"outputs": [],
					"stateMutability": "nonpayable",
					"type": "function"
				},
				{
					"inputs": [
						{
							"internalType": "address",
							"name": "",
							"type": "address"
						}
					],
					"name": "voters",
					"outputs": [
						{
							"internalType": "uint256",
							"name": "weight",
							"type": "uint256"
						},
						{
							"internalType": "bool",
							"name": "voted",
							"type": "bool"
						},
						{
							"internalType": "address",
							"name": "delegate",
							"type": "address"
						},
						{
							"internalType": "uint256",
							"name": "vote",
							"type": "uint256"
						}
					],
					"stateMutability": "view",
					"type": "function"
				},
				{
					"inputs": [],
					"name": "winnerName",
					"outputs": [
						{
							"internalType": "bytes32",
							"name": "winnerName_",
							"type": "bytes32"
						}
					],
					"stateMutability": "view",
					"type": "function"
				},
				{
					"inputs": [],
					"name": "winningProposal",
					"outputs": [
						{
							"internalType": "uint256",
							"name": "winningProposal_",
							"type": "uint256"
						}
					],
					"stateMutability": "view",
					"type": "function"
				}
			],
			"devdoc": {
				"kind": "dev",
				"methods": {
					"winningProposal()": {
						"details": "Computes the winning proposal taking all previous votes into account."
					}
				},
				"title": "Voting with delegation.",
				"version": 1
			},
			"evm": {
				"assembly": "    /* \"contract-71ad24318f.sol\":160:2894  contract BallotBox {... */\n  mstore(0x40, 0x80)\n    /* \"contract-71ad24318f.sol\":1474:1542  constructor(address  _twitt) {... */\n  callvalue\n  dup1\n  iszero\n  tag_1\n  jumpi\n  0x00\n  dup1\n  revert\ntag_1:\n  pop\n  mload(0x40)\n  sub(codesize, bytecodeSize)\n  dup1\n  bytecodeSize\n  dup4\n  codecopy\n  dup2\n  dup2\n  add\n  0x40\n  mstore\n  dup2\n  add\n  swap1\n  tag_2\n  swap2\n  swap1\n  tag_3\n  jump\t// in\ntag_2:\n    /* \"contract-71ad24318f.sol\":1528:1534  _twitt */\n  dup1\n    /* \"contract-71ad24318f.sol\":1513:1518  twitt */\n  0x00\n  dup1\n    /* \"contract-71ad24318f.sol\":1513:1535  twitt = IERC20(_twitt) */\n  0x0100\n  exp\n  dup2\n  sload\n  dup2\n  0xffffffffffffffffffffffffffffffffffffffff\n  mul\n  not\n  and\n  swap1\n  dup4\n  0xffffffffffffffffffffffffffffffffffffffff\n  and\n  mul\n  or\n  swap1\n  sstore\n  pop\n    /* \"contract-71ad24318f.sol\":1474:1542  constructor(address  _twitt) {... */\n  pop\n    /* \"contract-71ad24318f.sol\":160:2894  contract BallotBox {... */\n  jump(tag_6)\n    /* \"#utility.yul\":88:205   */\ntag_8:\n    /* \"#utility.yul\":197:198   */\n  0x00\n    /* \"#utility.yul\":194:195   */\n  dup1\n    /* \"#utility.yul\":187:199   */\n  revert\n    /* \"#utility.yul\":334:460   */\ntag_10:\n    /* \"#utility.yul\":371:378   */\n  0x00\n    /* \"#utility.yul\":411:453   */\n  0xffffffffffffffffffffffffffffffffffffffff\n    /* \"#utility.yul\":404:409   */\n  dup3\n    /* \"#utility.yul\":400:454   */\n  and\n    /* \"#utility.yul\":389:454   */\n  swap1\n  pop\n    /* \"#utility.yul\":334:460   */\n  swap2\n  swap1\n  pop\n  jump\t// out\n    /* \"#utility.yul\":466:562   */\ntag_11:\n    /* \"#utility.yul\":503:510   */\n  0x00\n    /* \"#utility.yul\":532:556   */\n  tag_20\n    /* \"#utility.yul\":550:555   */\n  dup3\n    /* \"#utility.yul\":532:556   */\n  tag_10\n  jump\t// in\ntag_20:\n    /* \"#utility.yul\":521:556   */\n  swap1\n  pop\n    /* \"#utility.yul\":466:562   */\n  swap2\n  swap1\n  pop\n  jump\t// out\n    /* \"#utility.yul\":568:690   */\ntag_12:\n    /* \"#utility.yul\":641:665   */\n  tag_22\n    /* \"#utility.yul\":659:664   */\n  dup2\n    /* \"#utility.yul\":641:665   */\n  tag_11\n  jump\t// in\ntag_22:\n    /* \"#utility.yul\":634:639   */\n  dup2\n    /* \"#utility.yul\":631:666   */\n  eq\n    /* \"#utility.yul\":621:684   */\n  tag_23\n  jumpi\n    /* \"#utility.yul\":680:681   */\n  0x00\n    /* \"#utility.yul\":677:678   */\n  dup1\n    /* \"#utility.yul\":670:682   */\n  revert\n    /* \"#utility.yul\":621:684   */\ntag_23:\n    /* \"#utility.yul\":568:690   */\n  pop\n  jump\t// out\n    /* \"#utility.yul\":696:839   */\ntag_13:\n    /* \"#utility.yul\":753:758   */\n  0x00\n    /* \"#utility.yul\":784:790   */\n  dup2\n    /* \"#utility.yul\":778:791   */\n  mload\n    /* \"#utility.yul\":769:791   */\n  swap1\n  pop\n    /* \"#utility.yul\":800:833   */\n  tag_25\n    /* \"#utility.yul\":827:832   */\n  dup2\n    /* \"#utility.yul\":800:833   */\n  tag_12\n  jump\t// in\ntag_25:\n    /* \"#utility.yul\":696:839   */\n  swap3\n  swap2\n  pop\n  pop\n  jump\t// out\n    /* \"#utility.yul\":845:1196   */\ntag_3:\n    /* \"#utility.yul\":915:921   */\n  0x00\n    /* \"#utility.yul\":964:966   */\n  0x20\n    /* \"#utility.yul\":952:961   */\n  dup3\n    /* \"#utility.yul\":943:950   */\n  dup5\n    /* \"#utility.yul\":939:962   */\n  sub\n    /* \"#utility.yul\":935:967   */\n  slt\n    /* \"#utility.yul\":932:1051   */\n  iszero\n  tag_27\n  jumpi\n    /* \"#utility.yul\":970:1049   */\n  tag_28\n  tag_8\n  jump\t// in\ntag_28:\n    /* \"#utility.yul\":932:1051   */\ntag_27:\n    /* \"#utility.yul\":1090:1091   */\n  0x00\n    /* \"#utility.yul\":1115:1179   */\n  tag_29\n    /* \"#utility.yul\":1171:1178   */\n  dup5\n    /* \"#utility.yul\":1162:1168   */\n  dup3\n    /* \"#utility.yul\":1151:1160   */\n  dup6\n    /* \"#utility.yul\":1147:1169   */\n  add\n    /* \"#utility.yul\":1115:1179   */\n  tag_13\n  jump\t// in\ntag_29:\n    /* \"#utility.yul\":1105:1179   */\n  swap2\n  pop\n    /* \"#utility.yul\":1061:1189   */\n  pop\n    /* \"#utility.yul\":845:1196   */\n  swap3\n  swap2\n  pop\n  pop\n  jump\t// out\n    /* \"contract-71ad24318f.sol\":160:2894  contract BallotBox {... */\ntag_6:\n  dataSize(sub_0)\n  dup1\n  dataOffset(sub_0)\n  0x00\n  codecopy\n  0x00\n  return\nstop\n\nsub_0: assembly {\n        /* \"contract-71ad24318f.sol\":160:2894  contract BallotBox {... */\n      mstore(0x40, 0x80)\n      callvalue\n      dup1\n      iszero\n      tag_1\n      jumpi\n      0x00\n      dup1\n      revert\n    tag_1:\n      pop\n      jumpi(tag_2, lt(calldatasize, 0x04))\n      shr(0xe0, calldataload(0x00))\n      dup1\n      0x609ff1bd\n      gt\n      tag_10\n      jumpi\n      dup1\n      0x609ff1bd\n      eq\n      tag_6\n      jumpi\n      dup1\n      0xa3ec138d\n      eq\n      tag_7\n      jumpi\n      dup1\n      0xe2ba53f0\n      eq\n      tag_8\n      jumpi\n      dup1\n      0xf8a8fd6d\n      eq\n      tag_9\n      jumpi\n      jump(tag_2)\n    tag_10:\n      dup1\n      0x0121b93f\n      eq\n      tag_3\n      jumpi\n      dup1\n      0x013cf08b\n      eq\n      tag_4\n      jumpi\n      dup1\n      0x49e0335f\n      eq\n      tag_5\n      jumpi\n    tag_2:\n      0x00\n      dup1\n      revert\n        /* \"contract-71ad24318f.sol\":1660:2120  function vote(uint proposal) external {... */\n    tag_3:\n      tag_11\n      0x04\n      dup1\n      calldatasize\n      sub\n      dup2\n      add\n      swap1\n      tag_12\n      swap2\n      swap1\n      tag_13\n      jump\t// in\n    tag_12:\n      tag_14\n      jump\t// in\n    tag_11:\n      stop\n        /* \"contract-71ad24318f.sol\":1378:1405  Proposal[] public proposals */\n    tag_4:\n      tag_15\n      0x04\n      dup1\n      calldatasize\n      sub\n      dup2\n      add\n      swap1\n      tag_16\n      swap2\n      swap1\n      tag_13\n      jump\t// in\n    tag_16:\n      tag_17\n      jump\t// in\n    tag_15:\n      mload(0x40)\n      tag_18\n      swap3\n      swap2\n      swap1\n      tag_19\n      jump\t// in\n    tag_18:\n      mload(0x40)\n      dup1\n      swap2\n      sub\n      swap1\n      return\n        /* \"contract-71ad24318f.sol\":313:332  IERC20 public twitt */\n    tag_5:\n      tag_20\n      tag_21\n      jump\t// in\n    tag_20:\n      mload(0x40)\n      tag_22\n      swap2\n      swap1\n      tag_23\n      jump\t// in\n    tag_22:\n      mload(0x40)\n      dup1\n      swap2\n      sub\n      swap1\n      return\n        /* \"contract-71ad24318f.sol\":2217:2582  function winningProposal() public view... */\n    tag_6:\n      tag_24\n      tag_25\n      jump\t// in\n    tag_24:\n      mload(0x40)\n      tag_26\n      swap2\n      swap1\n      tag_27\n      jump\t// in\n    tag_26:\n      mload(0x40)\n      dup1\n      swap2\n      sub\n      swap1\n      return\n        /* \"contract-71ad24318f.sol\":1276:1315  mapping(address => Voter) public voters */\n    tag_7:\n      tag_28\n      0x04\n      dup1\n      calldatasize\n      sub\n      dup2\n      add\n      swap1\n      tag_29\n      swap2\n      swap1\n      tag_30\n      jump\t// in\n    tag_29:\n      tag_31\n      jump\t// in\n    tag_28:\n      mload(0x40)\n      tag_32\n      swap5\n      swap4\n      swap3\n      swap2\n      swap1\n      tag_33\n      jump\t// in\n    tag_32:\n      mload(0x40)\n      dup1\n      swap2\n      sub\n      swap1\n      return\n        /* \"contract-71ad24318f.sol\":2746:2892  function winnerName() external view... */\n    tag_8:\n      tag_34\n      tag_35\n      jump\t// in\n    tag_34:\n      mload(0x40)\n      tag_36\n      swap2\n      swap1\n      tag_37\n      jump\t// in\n    tag_36:\n      mload(0x40)\n      dup1\n      swap2\n      sub\n      swap1\n      return\n        /* \"contract-71ad24318f.sol\":657:738  function test() public {... */\n    tag_9:\n      tag_38\n      tag_39\n      jump\t// in\n    tag_38:\n      stop\n        /* \"contract-71ad24318f.sol\":1660:2120  function vote(uint proposal) external {... */\n    tag_14:\n        /* \"contract-71ad24318f.sol\":1708:1728  Voter storage sender */\n      0x00\n        /* \"contract-71ad24318f.sol\":1731:1737  voters */\n      0x01\n        /* \"contract-71ad24318f.sol\":1731:1749  voters[msg.sender] */\n      0x00\n        /* \"contract-71ad24318f.sol\":1738:1748  msg.sender */\n      caller\n        /* \"contract-71ad24318f.sol\":1731:1749  voters[msg.sender] */\n      0xffffffffffffffffffffffffffffffffffffffff\n      and\n      0xffffffffffffffffffffffffffffffffffffffff\n      and\n      dup2\n      mstore\n      0x20\n      add\n      swap1\n      dup2\n      mstore\n      0x20\n      add\n      0x00\n      keccak256\n        /* \"contract-71ad24318f.sol\":1708:1749  Voter storage sender = voters[msg.sender] */\n      swap1\n      pop\n        /* \"contract-71ad24318f.sol\":1784:1785  0 */\n      0x00\n        /* \"contract-71ad24318f.sol\":1767:1773  sender */\n      dup2\n        /* \"contract-71ad24318f.sol\":1767:1780  sender.weight */\n      0x00\n      add\n      sload\n        /* \"contract-71ad24318f.sol\":1767:1785  sender.weight != 0 */\n      sub\n        /* \"contract-71ad24318f.sol\":1759:1810  require(sender.weight != 0, \"Has no right to vote\") */\n      tag_41\n      jumpi\n      mload(0x40)\n      0x08c379a000000000000000000000000000000000000000000000000000000000\n      dup2\n      mstore\n      0x04\n      add\n      tag_42\n      swap1\n      tag_43\n      jump\t// in\n    tag_42:\n      mload(0x40)\n      dup1\n      swap2\n      sub\n      swap1\n      revert\n    tag_41:\n        /* \"contract-71ad24318f.sol\":1829:1835  sender */\n      dup1\n        /* \"contract-71ad24318f.sol\":1829:1841  sender.voted */\n      0x01\n      add\n      0x00\n      swap1\n      sload\n      swap1\n      0x0100\n      exp\n      swap1\n      div\n      0xff\n      and\n        /* \"contract-71ad24318f.sol\":1828:1841  !sender.voted */\n      iszero\n        /* \"contract-71ad24318f.sol\":1820:1860  require(!sender.voted, \"Already voted.\") */\n      tag_44\n      jumpi\n      mload(0x40)\n      0x08c379a000000000000000000000000000000000000000000000000000000000\n      dup2\n      mstore\n      0x04\n      add\n      tag_45\n      swap1\n      tag_46\n      jump\t// in\n    tag_45:\n      mload(0x40)\n      dup1\n      swap2\n      sub\n      swap1\n      revert\n    tag_44:\n        /* \"contract-71ad24318f.sol\":1885:1889  true */\n      0x01\n        /* \"contract-71ad24318f.sol\":1870:1876  sender */\n      dup2\n        /* \"contract-71ad24318f.sol\":1870:1882  sender.voted */\n      0x01\n      add\n      0x00\n        /* \"contract-71ad24318f.sol\":1870:1889  sender.voted = true */\n      0x0100\n      exp\n      dup2\n      sload\n      dup2\n      0xff\n      mul\n      not\n      and\n      swap1\n      dup4\n      iszero\n      iszero\n      mul\n      or\n      swap1\n      sstore\n      pop\n        /* \"contract-71ad24318f.sol\":1913:1921  proposal */\n      dup2\n        /* \"contract-71ad24318f.sol\":1899:1905  sender */\n      dup2\n        /* \"contract-71ad24318f.sol\":1899:1910  sender.vote */\n      0x02\n      add\n        /* \"contract-71ad24318f.sol\":1899:1921  sender.vote = proposal */\n      dup2\n      swap1\n      sstore\n      pop\n        /* \"contract-71ad24318f.sol\":2100:2106  sender */\n      dup1\n        /* \"contract-71ad24318f.sol\":2100:2113  sender.weight */\n      0x00\n      add\n      sload\n        /* \"contract-71ad24318f.sol\":2067:2076  proposals */\n      0x02\n        /* \"contract-71ad24318f.sol\":2077:2085  proposal */\n      dup4\n        /* \"contract-71ad24318f.sol\":2067:2086  proposals[proposal] */\n      dup2\n      sload\n      dup2\n      lt\n      tag_47\n      jumpi\n      tag_48\n      tag_49\n      jump\t// in\n    tag_48:\n    tag_47:\n      swap1\n      0x00\n      mstore\n      keccak256(0x00, 0x20)\n      swap1\n      0x02\n      mul\n      add\n        /* \"contract-71ad24318f.sol\":2067:2096  proposals[proposal].voteCount */\n      0x01\n      add\n      0x00\n        /* \"contract-71ad24318f.sol\":2067:2113  proposals[proposal].voteCount += sender.weight */\n      dup3\n      dup3\n      sload\n      tag_51\n      swap2\n      swap1\n      tag_52\n      jump\t// in\n    tag_51:\n      swap3\n      pop\n      pop\n      dup2\n      swap1\n      sstore\n      pop\n        /* \"contract-71ad24318f.sol\":1698:2120  {... */\n      pop\n        /* \"contract-71ad24318f.sol\":1660:2120  function vote(uint proposal) external {... */\n      pop\n      jump\t// out\n        /* \"contract-71ad24318f.sol\":1378:1405  Proposal[] public proposals */\n    tag_17:\n      0x02\n      dup2\n      dup2\n      sload\n      dup2\n      lt\n      tag_53\n      jumpi\n      0x00\n      dup1\n      revert\n    tag_53:\n      swap1\n      0x00\n      mstore\n      keccak256(0x00, 0x20)\n      swap1\n      0x02\n      mul\n      add\n      0x00\n      swap2\n      pop\n      swap1\n      pop\n      dup1\n      0x00\n      add\n      sload\n      swap1\n      dup1\n      0x01\n      add\n      sload\n      swap1\n      pop\n      dup3\n      jump\t// out\n        /* \"contract-71ad24318f.sol\":313:332  IERC20 public twitt */\n    tag_21:\n      0x00\n      dup1\n      sload\n      swap1\n      0x0100\n      exp\n      swap1\n      div\n      0xffffffffffffffffffffffffffffffffffffffff\n      and\n      dup2\n      jump\t// out\n        /* \"contract-71ad24318f.sol\":2217:2582  function winningProposal() public view... */\n    tag_25:\n        /* \"contract-71ad24318f.sol\":2277:2298  uint winningProposal_ */\n      0x00\n        /* \"contract-71ad24318f.sol\":2314:2335  uint winningVoteCount */\n      dup1\n        /* \"contract-71ad24318f.sol\":2338:2339  0 */\n      0x00\n        /* \"contract-71ad24318f.sol\":2314:2339  uint winningVoteCount = 0 */\n      swap1\n      pop\n        /* \"contract-71ad24318f.sol\":2354:2360  uint p */\n      0x00\n        /* \"contract-71ad24318f.sol\":2349:2576  for (uint p = 0; p < proposals.length; p++) {... */\n    tag_56:\n        /* \"contract-71ad24318f.sol\":2370:2379  proposals */\n      0x02\n        /* \"contract-71ad24318f.sol\":2370:2386  proposals.length */\n      dup1\n      sload\n      swap1\n      pop\n        /* \"contract-71ad24318f.sol\":2366:2367  p */\n      dup2\n        /* \"contract-71ad24318f.sol\":2366:2386  p < proposals.length */\n      lt\n        /* \"contract-71ad24318f.sol\":2349:2576  for (uint p = 0; p < proposals.length; p++) {... */\n      iszero\n      tag_57\n      jumpi\n        /* \"contract-71ad24318f.sol\":2436:2452  winningVoteCount */\n      dup2\n        /* \"contract-71ad24318f.sol\":2411:2420  proposals */\n      0x02\n        /* \"contract-71ad24318f.sol\":2421:2422  p */\n      dup3\n        /* \"contract-71ad24318f.sol\":2411:2423  proposals[p] */\n      dup2\n      sload\n      dup2\n      lt\n      tag_59\n      jumpi\n      tag_60\n      tag_49\n      jump\t// in\n    tag_60:\n    tag_59:\n      swap1\n      0x00\n      mstore\n      keccak256(0x00, 0x20)\n      swap1\n      0x02\n      mul\n      add\n        /* \"contract-71ad24318f.sol\":2411:2433  proposals[p].voteCount */\n      0x01\n      add\n      sload\n        /* \"contract-71ad24318f.sol\":2411:2452  proposals[p].voteCount > winningVoteCount */\n      gt\n        /* \"contract-71ad24318f.sol\":2407:2566  if (proposals[p].voteCount > winningVoteCount) {... */\n      iszero\n      tag_62\n      jumpi\n        /* \"contract-71ad24318f.sol\":2491:2500  proposals */\n      0x02\n        /* \"contract-71ad24318f.sol\":2501:2502  p */\n      dup2\n        /* \"contract-71ad24318f.sol\":2491:2503  proposals[p] */\n      dup2\n      sload\n      dup2\n      lt\n      tag_63\n      jumpi\n      tag_64\n      tag_49\n      jump\t// in\n    tag_64:\n    tag_63:\n      swap1\n      0x00\n      mstore\n      keccak256(0x00, 0x20)\n      swap1\n      0x02\n      mul\n      add\n        /* \"contract-71ad24318f.sol\":2491:2513  proposals[p].voteCount */\n      0x01\n      add\n      sload\n        /* \"contract-71ad24318f.sol\":2472:2513  winningVoteCount = proposals[p].voteCount */\n      swap2\n      pop\n        /* \"contract-71ad24318f.sol\":2550:2551  p */\n      dup1\n        /* \"contract-71ad24318f.sol\":2531:2551  winningProposal_ = p */\n      swap3\n      pop\n        /* \"contract-71ad24318f.sol\":2407:2566  if (proposals[p].voteCount > winningVoteCount) {... */\n    tag_62:\n        /* \"contract-71ad24318f.sol\":2388:2391  p++ */\n      dup1\n      dup1\n      tag_66\n      swap1\n      tag_67\n      jump\t// in\n    tag_66:\n      swap2\n      pop\n      pop\n        /* \"contract-71ad24318f.sol\":2349:2576  for (uint p = 0; p < proposals.length; p++) {... */\n      jump(tag_56)\n    tag_57:\n      pop\n        /* \"contract-71ad24318f.sol\":2304:2582  {... */\n      pop\n        /* \"contract-71ad24318f.sol\":2217:2582  function winningProposal() public view... */\n      swap1\n      jump\t// out\n        /* \"contract-71ad24318f.sol\":1276:1315  mapping(address => Voter) public voters */\n    tag_31:\n      mstore(0x20, 0x01)\n      dup1\n      0x00\n      mstore\n      keccak256(0x00, 0x40)\n      0x00\n      swap2\n      pop\n      swap1\n      pop\n      dup1\n      0x00\n      add\n      sload\n      swap1\n      dup1\n      0x01\n      add\n      0x00\n      swap1\n      sload\n      swap1\n      0x0100\n      exp\n      swap1\n      div\n      0xff\n      and\n      swap1\n      dup1\n      0x01\n      add\n      0x01\n      swap1\n      sload\n      swap1\n      0x0100\n      exp\n      swap1\n      div\n      0xffffffffffffffffffffffffffffffffffffffff\n      and\n      swap1\n      dup1\n      0x02\n      add\n      sload\n      swap1\n      pop\n      dup5\n      jump\t// out\n        /* \"contract-71ad24318f.sol\":2746:2892  function winnerName() external view... */\n    tag_35:\n        /* \"contract-71ad24318f.sol\":2803:2822  bytes32 winnerName_ */\n      0x00\n        /* \"contract-71ad24318f.sol\":2852:2861  proposals */\n      0x02\n        /* \"contract-71ad24318f.sol\":2862:2879  winningProposal() */\n      tag_69\n        /* \"contract-71ad24318f.sol\":2862:2877  winningProposal */\n      tag_25\n        /* \"contract-71ad24318f.sol\":2862:2879  winningProposal() */\n      jump\t// in\n    tag_69:\n        /* \"contract-71ad24318f.sol\":2852:2880  proposals[winningProposal()] */\n      dup2\n      sload\n      dup2\n      lt\n      tag_70\n      jumpi\n      tag_71\n      tag_49\n      jump\t// in\n    tag_71:\n    tag_70:\n      swap1\n      0x00\n      mstore\n      keccak256(0x00, 0x20)\n      swap1\n      0x02\n      mul\n      add\n        /* \"contract-71ad24318f.sol\":2852:2885  proposals[winningProposal()].name */\n      0x00\n      add\n      sload\n        /* \"contract-71ad24318f.sol\":2838:2885  winnerName_ = proposals[winningProposal()].name */\n      swap1\n      pop\n        /* \"contract-71ad24318f.sol\":2746:2892  function winnerName() external view... */\n      swap1\n      jump\t// out\n        /* \"contract-71ad24318f.sol\":657:738  function test() public {... */\n    tag_39:\n        /* \"contract-71ad24318f.sol\":695:731  balncer(twitt.balanceOf(msg.sender)) */\n      0x0eb9f2c7847c327566a2cffcd0cc9edbc0d5b763e17989a09b04e8945a1a1e56\n        /* \"contract-71ad24318f.sol\":703:708  twitt */\n      0x00\n      dup1\n      sload\n      swap1\n      0x0100\n      exp\n      swap1\n      div\n      0xffffffffffffffffffffffffffffffffffffffff\n      and\n        /* \"contract-71ad24318f.sol\":703:718  twitt.balanceOf */\n      0xffffffffffffffffffffffffffffffffffffffff\n      and\n      0x70a08231\n        /* \"contract-71ad24318f.sol\":719:729  msg.sender */\n      caller\n        /* \"contract-71ad24318f.sol\":703:730  twitt.balanceOf(msg.sender) */\n      mload(0x40)\n      dup3\n      0xffffffff\n      and\n      0xe0\n      shl\n      dup2\n      mstore\n      0x04\n      add\n      tag_74\n      swap2\n      swap1\n      tag_75\n      jump\t// in\n    tag_74:\n      0x20\n      mload(0x40)\n      dup1\n      dup4\n      sub\n      dup2\n      dup7\n      gas\n      staticcall\n      iszero\n      dup1\n      iszero\n      tag_77\n      jumpi\n      returndatasize\n      0x00\n      dup1\n      returndatacopy\n      revert(0x00, returndatasize)\n    tag_77:\n      pop\n      pop\n      pop\n      pop\n      mload(0x40)\n      returndatasize\n      not(0x1f)\n      0x1f\n      dup3\n      add\n      and\n      dup3\n      add\n      dup1\n      0x40\n      mstore\n      pop\n      dup2\n      add\n      swap1\n      tag_78\n      swap2\n      swap1\n      tag_79\n      jump\t// in\n    tag_78:\n        /* \"contract-71ad24318f.sol\":695:731  balncer(twitt.balanceOf(msg.sender)) */\n      mload(0x40)\n      tag_80\n      swap2\n      swap1\n      tag_27\n      jump\t// in\n    tag_80:\n      mload(0x40)\n      dup1\n      swap2\n      sub\n      swap1\n      log1\n        /* \"contract-71ad24318f.sol\":657:738  function test() public {... */\n      jump\t// out\n        /* \"#utility.yul\":88:205   */\n    tag_82:\n        /* \"#utility.yul\":197:198   */\n      0x00\n        /* \"#utility.yul\":194:195   */\n      dup1\n        /* \"#utility.yul\":187:199   */\n      revert\n        /* \"#utility.yul\":334:411   */\n    tag_84:\n        /* \"#utility.yul\":371:378   */\n      0x00\n        /* \"#utility.yul\":400:405   */\n      dup2\n        /* \"#utility.yul\":389:405   */\n      swap1\n      pop\n        /* \"#utility.yul\":334:411   */\n      swap2\n      swap1\n      pop\n      jump\t// out\n        /* \"#utility.yul\":417:539   */\n    tag_85:\n        /* \"#utility.yul\":490:514   */\n      tag_115\n        /* \"#utility.yul\":508:513   */\n      dup2\n        /* \"#utility.yul\":490:514   */\n      tag_84\n      jump\t// in\n    tag_115:\n        /* \"#utility.yul\":483:488   */\n      dup2\n        /* \"#utility.yul\":480:515   */\n      eq\n        /* \"#utility.yul\":470:533   */\n      tag_116\n      jumpi\n        /* \"#utility.yul\":529:530   */\n      0x00\n        /* \"#utility.yul\":526:527   */\n      dup1\n        /* \"#utility.yul\":519:531   */\n      revert\n        /* \"#utility.yul\":470:533   */\n    tag_116:\n        /* \"#utility.yul\":417:539   */\n      pop\n      jump\t// out\n        /* \"#utility.yul\":545:684   */\n    tag_86:\n        /* \"#utility.yul\":591:596   */\n      0x00\n        /* \"#utility.yul\":629:635   */\n      dup2\n        /* \"#utility.yul\":616:636   */\n      calldataload\n        /* \"#utility.yul\":607:636   */\n      swap1\n      pop\n        /* \"#utility.yul\":645:678   */\n      tag_118\n        /* \"#utility.yul\":672:677   */\n      dup2\n        /* \"#utility.yul\":645:678   */\n      tag_85\n      jump\t// in\n    tag_118:\n        /* \"#utility.yul\":545:684   */\n      swap3\n      swap2\n      pop\n      pop\n      jump\t// out\n        /* \"#utility.yul\":690:1019   */\n    tag_13:\n        /* \"#utility.yul\":749:755   */\n      0x00\n        /* \"#utility.yul\":798:800   */\n      0x20\n        /* \"#utility.yul\":786:795   */\n      dup3\n        /* \"#utility.yul\":777:784   */\n      dup5\n        /* \"#utility.yul\":773:796   */\n      sub\n        /* \"#utility.yul\":769:801   */\n      slt\n        /* \"#utility.yul\":766:885   */\n      iszero\n      tag_120\n      jumpi\n        /* \"#utility.yul\":804:883   */\n      tag_121\n      tag_82\n      jump\t// in\n    tag_121:\n        /* \"#utility.yul\":766:885   */\n    tag_120:\n        /* \"#utility.yul\":924:925   */\n      0x00\n        /* \"#utility.yul\":949:1002   */\n      tag_122\n        /* \"#utility.yul\":994:1001   */\n      dup5\n        /* \"#utility.yul\":985:991   */\n      dup3\n        /* \"#utility.yul\":974:983   */\n      dup6\n        /* \"#utility.yul\":970:992   */\n      add\n        /* \"#utility.yul\":949:1002   */\n      tag_86\n      jump\t// in\n    tag_122:\n        /* \"#utility.yul\":939:1002   */\n      swap2\n      pop\n        /* \"#utility.yul\":895:1012   */\n      pop\n        /* \"#utility.yul\":690:1019   */\n      swap3\n      swap2\n      pop\n      pop\n      jump\t// out\n        /* \"#utility.yul\":1025:1102   */\n    tag_87:\n        /* \"#utility.yul\":1062:1069   */\n      0x00\n        /* \"#utility.yul\":1091:1096   */\n      dup2\n        /* \"#utility.yul\":1080:1096   */\n      swap1\n      pop\n        /* \"#utility.yul\":1025:1102   */\n      swap2\n      swap1\n      pop\n      jump\t// out\n        /* \"#utility.yul\":1108:1226   */\n    tag_88:\n        /* \"#utility.yul\":1195:1219   */\n      tag_125\n        /* \"#utility.yul\":1213:1218   */\n      dup2\n        /* \"#utility.yul\":1195:1219   */\n      tag_87\n      jump\t// in\n    tag_125:\n        /* \"#utility.yul\":1190:1193   */\n      dup3\n        /* \"#utility.yul\":1183:1220   */\n      mstore\n        /* \"#utility.yul\":1108:1226   */\n      pop\n      pop\n      jump\t// out\n        /* \"#utility.yul\":1232:1350   */\n    tag_89:\n        /* \"#utility.yul\":1319:1343   */\n      tag_127\n        /* \"#utility.yul\":1337:1342   */\n      dup2\n        /* \"#utility.yul\":1319:1343   */\n      tag_84\n      jump\t// in\n    tag_127:\n        /* \"#utility.yul\":1314:1317   */\n      dup3\n        /* \"#utility.yul\":1307:1344   */\n      mstore\n        /* \"#utility.yul\":1232:1350   */\n      pop\n      pop\n      jump\t// out\n        /* \"#utility.yul\":1356:1688   */\n    tag_19:\n        /* \"#utility.yul\":1477:1481   */\n      0x00\n        /* \"#utility.yul\":1515:1517   */\n      0x40\n        /* \"#utility.yul\":1504:1513   */\n      dup3\n        /* \"#utility.yul\":1500:1518   */\n      add\n        /* \"#utility.yul\":1492:1518   */\n      swap1\n      pop\n        /* \"#utility.yul\":1528:1599   */\n      tag_129\n        /* \"#utility.yul\":1596:1597   */\n      0x00\n        /* \"#utility.yul\":1585:1594   */\n      dup4\n        /* \"#utility.yul\":1581:1598   */\n      add\n        /* \"#utility.yul\":1572:1578   */\n      dup6\n        /* \"#utility.yul\":1528:1599   */\n      tag_88\n      jump\t// in\n    tag_129:\n        /* \"#utility.yul\":1609:1681   */\n      tag_130\n        /* \"#utility.yul\":1677:1679   */\n      0x20\n        /* \"#utility.yul\":1666:1675   */\n      dup4\n        /* \"#utility.yul\":1662:1680   */\n      add\n        /* \"#utility.yul\":1653:1659   */\n      dup5\n        /* \"#utility.yul\":1609:1681   */\n      tag_89\n      jump\t// in\n    tag_130:\n        /* \"#utility.yul\":1356:1688   */\n      swap4\n      swap3\n      pop\n      pop\n      pop\n      jump\t// out\n        /* \"#utility.yul\":1694:1820   */\n    tag_90:\n        /* \"#utility.yul\":1731:1738   */\n      0x00\n        /* \"#utility.yul\":1771:1813   */\n      0xffffffffffffffffffffffffffffffffffffffff\n        /* \"#utility.yul\":1764:1769   */\n      dup3\n        /* \"#utility.yul\":1760:1814   */\n      and\n        /* \"#utility.yul\":1749:1814   */\n      swap1\n      pop\n        /* \"#utility.yul\":1694:1820   */\n      swap2\n      swap1\n      pop\n      jump\t// out\n        /* \"#utility.yul\":1826:1886   */\n    tag_91:\n        /* \"#utility.yul\":1854:1857   */\n      0x00\n        /* \"#utility.yul\":1875:1880   */\n      dup2\n        /* \"#utility.yul\":1868:1880   */\n      swap1\n      pop\n        /* \"#utility.yul\":1826:1886   */\n      swap2\n      swap1\n      pop\n      jump\t// out\n        /* \"#utility.yul\":1892:2034   */\n    tag_92:\n        /* \"#utility.yul\":1942:1951   */\n      0x00\n        /* \"#utility.yul\":1975:2028   */\n      tag_134\n        /* \"#utility.yul\":1993:2027   */\n      tag_135\n        /* \"#utility.yul\":2002:2026   */\n      tag_136\n        /* \"#utility.yul\":2020:2025   */\n      dup5\n        /* \"#utility.yul\":2002:2026   */\n      tag_90\n      jump\t// in\n    tag_136:\n        /* \"#utility.yul\":1993:2027   */\n      tag_91\n      jump\t// in\n    tag_135:\n        /* \"#utility.yul\":1975:2028   */\n      tag_90\n      jump\t// in\n    tag_134:\n        /* \"#utility.yul\":1962:2028   */\n      swap1\n      pop\n        /* \"#utility.yul\":1892:2034   */\n      swap2\n      swap1\n      pop\n      jump\t// out\n        /* \"#utility.yul\":2040:2166   */\n    tag_93:\n        /* \"#utility.yul\":2090:2099   */\n      0x00\n        /* \"#utility.yul\":2123:2160   */\n      tag_138\n        /* \"#utility.yul\":2154:2159   */\n      dup3\n        /* \"#utility.yul\":2123:2160   */\n      tag_92\n      jump\t// in\n    tag_138:\n        /* \"#utility.yul\":2110:2160   */\n      swap1\n      pop\n        /* \"#utility.yul\":2040:2166   */\n      swap2\n      swap1\n      pop\n      jump\t// out\n        /* \"#utility.yul\":2172:2311   */\n    tag_94:\n        /* \"#utility.yul\":2235:2244   */\n      0x00\n        /* \"#utility.yul\":2268:2305   */\n      tag_140\n        /* \"#utility.yul\":2299:2304   */\n      dup3\n        /* \"#utility.yul\":2268:2305   */\n      tag_93\n      jump\t// in\n    tag_140:\n        /* \"#utility.yul\":2255:2305   */\n      swap1\n      pop\n        /* \"#utility.yul\":2172:2311   */\n      swap2\n      swap1\n      pop\n      jump\t// out\n        /* \"#utility.yul\":2317:2474   */\n    tag_95:\n        /* \"#utility.yul\":2417:2467   */\n      tag_142\n        /* \"#utility.yul\":2461:2466   */\n      dup2\n        /* \"#utility.yul\":2417:2467   */\n      tag_94\n      jump\t// in\n    tag_142:\n        /* \"#utility.yul\":2412:2415   */\n      dup3\n        /* \"#utility.yul\":2405:2468   */\n      mstore\n        /* \"#utility.yul\":2317:2474   */\n      pop\n      pop\n      jump\t// out\n        /* \"#utility.yul\":2480:2728   */\n    tag_23:\n        /* \"#utility.yul\":2586:2590   */\n      0x00\n        /* \"#utility.yul\":2624:2626   */\n      0x20\n        /* \"#utility.yul\":2613:2622   */\n      dup3\n        /* \"#utility.yul\":2609:2627   */\n      add\n        /* \"#utility.yul\":2601:2627   */\n      swap1\n      pop\n        /* \"#utility.yul\":2637:2721   */\n      tag_144\n        /* \"#utility.yul\":2718:2719   */\n      0x00\n        /* \"#utility.yul\":2707:2716   */\n      dup4\n        /* \"#utility.yul\":2703:2720   */\n      add\n        /* \"#utility.yul\":2694:2700   */\n      dup5\n        /* \"#utility.yul\":2637:2721   */\n      tag_95\n      jump\t// in\n    tag_144:\n        /* \"#utility.yul\":2480:2728   */\n      swap3\n      swap2\n      pop\n      pop\n      jump\t// out\n        /* \"#utility.yul\":2734:2956   */\n    tag_27:\n        /* \"#utility.yul\":2827:2831   */\n      0x00\n        /* \"#utility.yul\":2865:2867   */\n      0x20\n        /* \"#utility.yul\":2854:2863   */\n      dup3\n        /* \"#utility.yul\":2850:2868   */\n      add\n        /* \"#utility.yul\":2842:2868   */\n      swap1\n      pop\n        /* \"#utility.yul\":2878:2949   */\n      tag_146\n        /* \"#utility.yul\":2946:2947   */\n      0x00\n        /* \"#utility.yul\":2935:2944   */\n      dup4\n        /* \"#utility.yul\":2931:2948   */\n      add\n        /* \"#utility.yul\":2922:2928   */\n      dup5\n        /* \"#utility.yul\":2878:2949   */\n      tag_89\n      jump\t// in\n    tag_146:\n        /* \"#utility.yul\":2734:2956   */\n      swap3\n      swap2\n      pop\n      pop\n      jump\t// out\n        /* \"#utility.yul\":2962:3058   */\n    tag_96:\n        /* \"#utility.yul\":2999:3006   */\n      0x00\n        /* \"#utility.yul\":3028:3052   */\n      tag_148\n        /* \"#utility.yul\":3046:3051   */\n      dup3\n        /* \"#utility.yul\":3028:3052   */\n      tag_90\n      jump\t// in\n    tag_148:\n        /* \"#utility.yul\":3017:3052   */\n      swap1\n      pop\n        /* \"#utility.yul\":2962:3058   */\n      swap2\n      swap1\n      pop\n      jump\t// out\n        /* \"#utility.yul\":3064:3186   */\n    tag_97:\n        /* \"#utility.yul\":3137:3161   */\n      tag_150\n        /* \"#utility.yul\":3155:3160   */\n      dup2\n        /* \"#utility.yul\":3137:3161   */\n      tag_96\n      jump\t// in\n    tag_150:\n        /* \"#utility.yul\":3130:3135   */\n      dup2\n        /* \"#utility.yul\":3127:3162   */\n      eq\n        /* \"#utility.yul\":3117:3180   */\n      tag_151\n      jumpi\n        /* \"#utility.yul\":3176:3177   */\n      0x00\n        /* \"#utility.yul\":3173:3174   */\n      dup1\n        /* \"#utility.yul\":3166:3178   */\n      revert\n        /* \"#utility.yul\":3117:3180   */\n    tag_151:\n        /* \"#utility.yul\":3064:3186   */\n      pop\n      jump\t// out\n        /* \"#utility.yul\":3192:3331   */\n    tag_98:\n        /* \"#utility.yul\":3238:3243   */\n      0x00\n        /* \"#utility.yul\":3276:3282   */\n      dup2\n        /* \"#utility.yul\":3263:3283   */\n      calldataload\n        /* \"#utility.yul\":3254:3283   */\n      swap1\n      pop\n        /* \"#utility.yul\":3292:3325   */\n      tag_153\n        /* \"#utility.yul\":3319:3324   */\n      dup2\n        /* \"#utility.yul\":3292:3325   */\n      tag_97\n      jump\t// in\n    tag_153:\n        /* \"#utility.yul\":3192:3331   */\n      swap3\n      swap2\n      pop\n      pop\n      jump\t// out\n        /* \"#utility.yul\":3337:3666   */\n    tag_30:\n        /* \"#utility.yul\":3396:3402   */\n      0x00\n        /* \"#utility.yul\":3445:3447   */\n      0x20\n        /* \"#utility.yul\":3433:3442   */\n      dup3\n        /* \"#utility.yul\":3424:3431   */\n      dup5\n        /* \"#utility.yul\":3420:3443   */\n      sub\n        /* \"#utility.yul\":3416:3448   */\n      slt\n        /* \"#utility.yul\":3413:3532   */\n      iszero\n      tag_155\n      jumpi\n        /* \"#utility.yul\":3451:3530   */\n      tag_156\n      tag_82\n      jump\t// in\n    tag_156:\n        /* \"#utility.yul\":3413:3532   */\n    tag_155:\n        /* \"#utility.yul\":3571:3572   */\n      0x00\n        /* \"#utility.yul\":3596:3649   */\n      tag_157\n        /* \"#utility.yul\":3641:3648   */\n      dup5\n        /* \"#utility.yul\":3632:3638   */\n      dup3\n        /* \"#utility.yul\":3621:3630   */\n      dup6\n        /* \"#utility.yul\":3617:3639   */\n      add\n        /* \"#utility.yul\":3596:3649   */\n      tag_98\n      jump\t// in\n    tag_157:\n        /* \"#utility.yul\":3586:3649   */\n      swap2\n      pop\n        /* \"#utility.yul\":3542:3659   */\n      pop\n        /* \"#utility.yul\":3337:3666   */\n      swap3\n      swap2\n      pop\n      pop\n      jump\t// out\n        /* \"#utility.yul\":3672:3762   */\n    tag_99:\n        /* \"#utility.yul\":3706:3713   */\n      0x00\n        /* \"#utility.yul\":3749:3754   */\n      dup2\n        /* \"#utility.yul\":3742:3755   */\n      iszero\n        /* \"#utility.yul\":3735:3756   */\n      iszero\n        /* \"#utility.yul\":3724:3756   */\n      swap1\n      pop\n        /* \"#utility.yul\":3672:3762   */\n      swap2\n      swap1\n      pop\n      jump\t// out\n        /* \"#utility.yul\":3768:3877   */\n    tag_100:\n        /* \"#utility.yul\":3849:3870   */\n      tag_160\n        /* \"#utility.yul\":3864:3869   */\n      dup2\n        /* \"#utility.yul\":3849:3870   */\n      tag_99\n      jump\t// in\n    tag_160:\n        /* \"#utility.yul\":3844:3847   */\n      dup3\n        /* \"#utility.yul\":3837:3871   */\n      mstore\n        /* \"#utility.yul\":3768:3877   */\n      pop\n      pop\n      jump\t// out\n        /* \"#utility.yul\":3883:4001   */\n    tag_101:\n        /* \"#utility.yul\":3970:3994   */\n      tag_162\n        /* \"#utility.yul\":3988:3993   */\n      dup2\n        /* \"#utility.yul\":3970:3994   */\n      tag_96\n      jump\t// in\n    tag_162:\n        /* \"#utility.yul\":3965:3968   */\n      dup3\n        /* \"#utility.yul\":3958:3995   */\n      mstore\n        /* \"#utility.yul\":3883:4001   */\n      pop\n      pop\n      jump\t// out\n        /* \"#utility.yul\":4007:4548   */\n    tag_33:\n        /* \"#utility.yul\":4178:4182   */\n      0x00\n        /* \"#utility.yul\":4216:4219   */\n      0x80\n        /* \"#utility.yul\":4205:4214   */\n      dup3\n        /* \"#utility.yul\":4201:4220   */\n      add\n        /* \"#utility.yul\":4193:4220   */\n      swap1\n      pop\n        /* \"#utility.yul\":4230:4301   */\n      tag_164\n        /* \"#utility.yul\":4298:4299   */\n      0x00\n        /* \"#utility.yul\":4287:4296   */\n      dup4\n        /* \"#utility.yul\":4283:4300   */\n      add\n        /* \"#utility.yul\":4274:4280   */\n      dup8\n        /* \"#utility.yul\":4230:4301   */\n      tag_89\n      jump\t// in\n    tag_164:\n        /* \"#utility.yul\":4311:4377   */\n      tag_165\n        /* \"#utility.yul\":4373:4375   */\n      0x20\n        /* \"#utility.yul\":4362:4371   */\n      dup4\n        /* \"#utility.yul\":4358:4376   */\n      add\n        /* \"#utility.yul\":4349:4355   */\n      dup7\n        /* \"#utility.yul\":4311:4377   */\n      tag_100\n      jump\t// in\n    tag_165:\n        /* \"#utility.yul\":4387:4459   */\n      tag_166\n        /* \"#utility.yul\":4455:4457   */\n      0x40\n        /* \"#utility.yul\":4444:4453   */\n      dup4\n        /* \"#utility.yul\":4440:4458   */\n      add\n        /* \"#utility.yul\":4431:4437   */\n      dup6\n        /* \"#utility.yul\":4387:4459   */\n      tag_101\n      jump\t// in\n    tag_166:\n        /* \"#utility.yul\":4469:4541   */\n      tag_167\n        /* \"#utility.yul\":4537:4539   */\n      0x60\n        /* \"#utility.yul\":4526:4535   */\n      dup4\n        /* \"#utility.yul\":4522:4540   */\n      add\n        /* \"#utility.yul\":4513:4519   */\n      dup5\n        /* \"#utility.yul\":4469:4541   */\n      tag_89\n      jump\t// in\n    tag_167:\n        /* \"#utility.yul\":4007:4548   */\n      swap6\n      swap5\n      pop\n      pop\n      pop\n      pop\n      pop\n      jump\t// out\n        /* \"#utility.yul\":4554:4776   */\n    tag_37:\n        /* \"#utility.yul\":4647:4651   */\n      0x00\n        /* \"#utility.yul\":4685:4687   */\n      0x20\n        /* \"#utility.yul\":4674:4683   */\n      dup3\n        /* \"#utility.yul\":4670:4688   */\n      add\n        /* \"#utility.yul\":4662:4688   */\n      swap1\n      pop\n        /* \"#utility.yul\":4698:4769   */\n      tag_169\n        /* \"#utility.yul\":4766:4767   */\n      0x00\n        /* \"#utility.yul\":4755:4764   */\n      dup4\n        /* \"#utility.yul\":4751:4768   */\n      add\n        /* \"#utility.yul\":4742:4748   */\n      dup5\n        /* \"#utility.yul\":4698:4769   */\n      tag_88\n      jump\t// in\n    tag_169:\n        /* \"#utility.yul\":4554:4776   */\n      swap3\n      swap2\n      pop\n      pop\n      jump\t// out\n        /* \"#utility.yul\":4782:4951   */\n    tag_102:\n        /* \"#utility.yul\":4866:4877   */\n      0x00\n        /* \"#utility.yul\":4900:4906   */\n      dup3\n        /* \"#utility.yul\":4895:4898   */\n      dup3\n        /* \"#utility.yul\":4888:4907   */\n      mstore\n        /* \"#utility.yul\":4940:4944   */\n      0x20\n        /* \"#utility.yul\":4935:4938   */\n      dup3\n        /* \"#utility.yul\":4931:4945   */\n      add\n        /* \"#utility.yul\":4916:4945   */\n      swap1\n      pop\n        /* \"#utility.yul\":4782:4951   */\n      swap3\n      swap2\n      pop\n      pop\n      jump\t// out\n        /* \"#utility.yul\":4957:5127   */\n    tag_103:\n        /* \"#utility.yul\":5097:5119   */\n      0x486173206e6f20726967687420746f20766f7465000000000000000000000000\n        /* \"#utility.yul\":5093:5094   */\n      0x00\n        /* \"#utility.yul\":5085:5091   */\n      dup3\n        /* \"#utility.yul\":5081:5095   */\n      add\n        /* \"#utility.yul\":5074:5120   */\n      mstore\n        /* \"#utility.yul\":4957:5127   */\n      pop\n      jump\t// out\n        /* \"#utility.yul\":5133:5499   */\n    tag_104:\n        /* \"#utility.yul\":5275:5278   */\n      0x00\n        /* \"#utility.yul\":5296:5363   */\n      tag_173\n        /* \"#utility.yul\":5360:5362   */\n      0x14\n        /* \"#utility.yul\":5355:5358   */\n      dup4\n        /* \"#utility.yul\":5296:5363   */\n      tag_102\n      jump\t// in\n    tag_173:\n        /* \"#utility.yul\":5289:5363   */\n      swap2\n      pop\n        /* \"#utility.yul\":5372:5465   */\n      tag_174\n        /* \"#utility.yul\":5461:5464   */\n      dup3\n        /* \"#utility.yul\":5372:5465   */\n      tag_103\n      jump\t// in\n    tag_174:\n        /* \"#utility.yul\":5490:5492   */\n      0x20\n        /* \"#utility.yul\":5485:5488   */\n      dup3\n        /* \"#utility.yul\":5481:5493   */\n      add\n        /* \"#utility.yul\":5474:5493   */\n      swap1\n      pop\n        /* \"#utility.yul\":5133:5499   */\n      swap2\n      swap1\n      pop\n      jump\t// out\n        /* \"#utility.yul\":5505:5924   */\n    tag_43:\n        /* \"#utility.yul\":5671:5675   */\n      0x00\n        /* \"#utility.yul\":5709:5711   */\n      0x20\n        /* \"#utility.yul\":5698:5707   */\n      dup3\n        /* \"#utility.yul\":5694:5712   */\n      add\n        /* \"#utility.yul\":5686:5712   */\n      swap1\n      pop\n        /* \"#utility.yul\":5758:5767   */\n      dup2\n        /* \"#utility.yul\":5752:5756   */\n      dup2\n        /* \"#utility.yul\":5748:5768   */\n      sub\n        /* \"#utility.yul\":5744:5745   */\n      0x00\n        /* \"#utility.yul\":5733:5742   */\n      dup4\n        /* \"#utility.yul\":5729:5746   */\n      add\n        /* \"#utility.yul\":5722:5769   */\n      mstore\n        /* \"#utility.yul\":5786:5917   */\n      tag_176\n        /* \"#utility.yul\":5912:5916   */\n      dup2\n        /* \"#utility.yul\":5786:5917   */\n      tag_104\n      jump\t// in\n    tag_176:\n        /* \"#utility.yul\":5778:5917   */\n      swap1\n      pop\n        /* \"#utility.yul\":5505:5924   */\n      swap2\n      swap1\n      pop\n      jump\t// out\n        /* \"#utility.yul\":5930:6094   */\n    tag_105:\n        /* \"#utility.yul\":6070:6086   */\n      0x416c726561647920766f7465642e000000000000000000000000000000000000\n        /* \"#utility.yul\":6066:6067   */\n      0x00\n        /* \"#utility.yul\":6058:6064   */\n      dup3\n        /* \"#utility.yul\":6054:6068   */\n      add\n        /* \"#utility.yul\":6047:6087   */\n      mstore\n        /* \"#utility.yul\":5930:6094   */\n      pop\n      jump\t// out\n        /* \"#utility.yul\":6100:6466   */\n    tag_106:\n        /* \"#utility.yul\":6242:6245   */\n      0x00\n        /* \"#utility.yul\":6263:6330   */\n      tag_179\n        /* \"#utility.yul\":6327:6329   */\n      0x0e\n        /* \"#utility.yul\":6322:6325   */\n      dup4\n        /* \"#utility.yul\":6263:6330   */\n      tag_102\n      jump\t// in\n    tag_179:\n        /* \"#utility.yul\":6256:6330   */\n      swap2\n      pop\n        /* \"#utility.yul\":6339:6432   */\n      tag_180\n        /* \"#utility.yul\":6428:6431   */\n      dup3\n        /* \"#utility.yul\":6339:6432   */\n      tag_105\n      jump\t// in\n    tag_180:\n        /* \"#utility.yul\":6457:6459   */\n      0x20\n        /* \"#utility.yul\":6452:6455   */\n      dup3\n        /* \"#utility.yul\":6448:6460   */\n      add\n        /* \"#utility.yul\":6441:6460   */\n      swap1\n      pop\n        /* \"#utility.yul\":6100:6466   */\n      swap2\n      swap1\n      pop\n      jump\t// out\n        /* \"#utility.yul\":6472:6891   */\n    tag_46:\n        /* \"#utility.yul\":6638:6642   */\n      0x00\n        /* \"#utility.yul\":6676:6678   */\n      0x20\n        /* \"#utility.yul\":6665:6674   */\n      dup3\n        /* \"#utility.yul\":6661:6679   */\n      add\n        /* \"#utility.yul\":6653:6679   */\n      swap1\n      pop\n        /* \"#utility.yul\":6725:6734   */\n      dup2\n        /* \"#utility.yul\":6719:6723   */\n      dup2\n        /* \"#utility.yul\":6715:6735   */\n      sub\n        /* \"#utility.yul\":6711:6712   */\n      0x00\n        /* \"#utility.yul\":6700:6709   */\n      dup4\n        /* \"#utility.yul\":6696:6713   */\n      add\n        /* \"#utility.yul\":6689:6736   */\n      mstore\n        /* \"#utility.yul\":6753:6884   */\n      tag_182\n        /* \"#utility.yul\":6879:6883   */\n      dup2\n        /* \"#utility.yul\":6753:6884   */\n      tag_106\n      jump\t// in\n    tag_182:\n        /* \"#utility.yul\":6745:6884   */\n      swap1\n      pop\n        /* \"#utility.yul\":6472:6891   */\n      swap2\n      swap1\n      pop\n      jump\t// out\n        /* \"#utility.yul\":6897:7077   */\n    tag_49:\n        /* \"#utility.yul\":6945:7022   */\n      0x4e487b7100000000000000000000000000000000000000000000000000000000\n        /* \"#utility.yul\":6942:6943   */\n      0x00\n        /* \"#utility.yul\":6935:7023   */\n      mstore\n        /* \"#utility.yul\":7042:7046   */\n      0x32\n        /* \"#utility.yul\":7039:7040   */\n      0x04\n        /* \"#utility.yul\":7032:7047   */\n      mstore\n        /* \"#utility.yul\":7066:7070   */\n      0x24\n        /* \"#utility.yul\":7063:7064   */\n      0x00\n        /* \"#utility.yul\":7056:7071   */\n      revert\n        /* \"#utility.yul\":7083:7263   */\n    tag_107:\n        /* \"#utility.yul\":7131:7208   */\n      0x4e487b7100000000000000000000000000000000000000000000000000000000\n        /* \"#utility.yul\":7128:7129   */\n      0x00\n        /* \"#utility.yul\":7121:7209   */\n      mstore\n        /* \"#utility.yul\":7228:7232   */\n      0x11\n        /* \"#utility.yul\":7225:7226   */\n      0x04\n        /* \"#utility.yul\":7218:7233   */\n      mstore\n        /* \"#utility.yul\":7252:7256   */\n      0x24\n        /* \"#utility.yul\":7249:7250   */\n      0x00\n        /* \"#utility.yul\":7242:7257   */\n      revert\n        /* \"#utility.yul\":7269:7460   */\n    tag_52:\n        /* \"#utility.yul\":7309:7312   */\n      0x00\n        /* \"#utility.yul\":7328:7348   */\n      tag_186\n        /* \"#utility.yul\":7346:7347   */\n      dup3\n        /* \"#utility.yul\":7328:7348   */\n      tag_84\n      jump\t// in\n    tag_186:\n        /* \"#utility.yul\":7323:7348   */\n      swap2\n      pop\n        /* \"#utility.yul\":7362:7382   */\n      tag_187\n        /* \"#utility.yul\":7380:7381   */\n      dup4\n        /* \"#utility.yul\":7362:7382   */\n      tag_84\n      jump\t// in\n    tag_187:\n        /* \"#utility.yul\":7357:7382   */\n      swap3\n      pop\n        /* \"#utility.yul\":7405:7406   */\n      dup3\n        /* \"#utility.yul\":7402:7403   */\n      dup3\n        /* \"#utility.yul\":7398:7407   */\n      add\n        /* \"#utility.yul\":7391:7407   */\n      swap1\n      pop\n        /* \"#utility.yul\":7426:7429   */\n      dup1\n        /* \"#utility.yul\":7423:7424   */\n      dup3\n        /* \"#utility.yul\":7420:7430   */\n      gt\n        /* \"#utility.yul\":7417:7453   */\n      iszero\n      tag_188\n      jumpi\n        /* \"#utility.yul\":7433:7451   */\n      tag_189\n      tag_107\n      jump\t// in\n    tag_189:\n        /* \"#utility.yul\":7417:7453   */\n    tag_188:\n        /* \"#utility.yul\":7269:7460   */\n      swap3\n      swap2\n      pop\n      pop\n      jump\t// out\n        /* \"#utility.yul\":7466:7699   */\n    tag_67:\n        /* \"#utility.yul\":7505:7508   */\n      0x00\n        /* \"#utility.yul\":7528:7552   */\n      tag_191\n        /* \"#utility.yul\":7546:7551   */\n      dup3\n        /* \"#utility.yul\":7528:7552   */\n      tag_84\n      jump\t// in\n    tag_191:\n        /* \"#utility.yul\":7519:7552   */\n      swap2\n      pop\n        /* \"#utility.yul\":7574:7640   */\n      0xffffffffffffffffffffffffffffffffffffffffffffffffffffffffffffffff\n        /* \"#utility.yul\":7567:7572   */\n      dup3\n        /* \"#utility.yul\":7564:7641   */\n      sub\n        /* \"#utility.yul\":7561:7664   */\n      tag_192\n      jumpi\n        /* \"#utility.yul\":7644:7662   */\n      tag_193\n      tag_107\n      jump\t// in\n    tag_193:\n        /* \"#utility.yul\":7561:7664   */\n    tag_192:\n        /* \"#utility.yul\":7691:7692   */\n      0x01\n        /* \"#utility.yul\":7684:7689   */\n      dup3\n        /* \"#utility.yul\":7680:7693   */\n      add\n        /* \"#utility.yul\":7673:7693   */\n      swap1\n      pop\n        /* \"#utility.yul\":7466:7699   */\n      swap2\n      swap1\n      pop\n      jump\t// out\n        /* \"#utility.yul\":7705:7927   */\n    tag_75:\n        /* \"#utility.yul\":7798:7802   */\n      0x00\n        /* \"#utility.yul\":7836:7838   */\n      0x20\n        /* \"#utility.yul\":7825:7834   */\n      dup3\n        /* \"#utility.yul\":7821:7839   */\n      add\n        /* \"#utility.yul\":7813:7839   */\n      swap1\n      pop\n        /* \"#utility.yul\":7849:7920   */\n      tag_195\n        /* \"#utility.yul\":7917:7918   */\n      0x00\n        /* \"#utility.yul\":7906:7915   */\n      dup4\n        /* \"#utility.yul\":7902:7919   */\n      add\n        /* \"#utility.yul\":7893:7899   */\n      dup5\n        /* \"#utility.yul\":7849:7920   */\n      tag_101\n      jump\t// in\n    tag_195:\n        /* \"#utility.yul\":7705:7927   */\n      swap3\n      swap2\n      pop\n      pop\n      jump\t// out\n        /* \"#utility.yul\":7933:8076   */\n    tag_108:\n        /* \"#utility.yul\":7990:7995   */\n      0x00\n        /* \"#utility.yul\":8021:8027   */\n      dup2\n        /* \"#utility.yul\":8015:8028   */\n      mload\n        /* \"#utility.yul\":8006:8028   */\n      swap1\n      pop\n        /* \"#utility.yul\":8037:8070   */\n      tag_197\n        /* \"#utility.yul\":8064:8069   */\n      dup2\n        /* \"#utility.yul\":8037:8070   */\n      tag_85\n      jump\t// in\n    tag_197:\n        /* \"#utility.yul\":7933:8076   */\n      swap3\n      swap2\n      pop\n      pop\n      jump\t// out\n        /* \"#utility.yul\":8082:8433   */\n    tag_79:\n        /* \"#utility.yul\":8152:8158   */\n      0x00\n        /* \"#utility.yul\":8201:8203   */\n      0x20\n        /* \"#utility.yul\":8189:8198   */\n      dup3\n        /* \"#utility.yul\":8180:8187   */\n      dup5\n        /* \"#utility.yul\":8176:8199   */\n      sub\n        /* \"#utility.yul\":8172:8204   */\n      slt\n        /* \"#utility.yul\":8169:8288   */\n      iszero\n      tag_199\n      jumpi\n        /* \"#utility.yul\":8207:8286   */\n      tag_200\n      tag_82\n      jump\t// in\n    tag_200:\n        /* \"#utility.yul\":8169:8288   */\n    tag_199:\n        /* \"#utility.yul\":8327:8328   */\n      0x00\n        /* \"#utility.yul\":8352:8416   */\n      tag_201\n        /* \"#utility.yul\":8408:8415   */\n      dup5\n        /* \"#utility.yul\":8399:8405   */\n      dup3\n        /* \"#utility.yul\":8388:8397   */\n      dup6\n        /* \"#utility.yul\":8384:8406   */\n      add\n        /* \"#utility.yul\":8352:8416   */\n      tag_108\n      jump\t// in\n    tag_201:\n        /* \"#utility.yul\":8342:8416   */\n      swap2\n      pop\n        /* \"#utility.yul\":8298:8426   */\n      pop\n        /* \"#utility.yul\":8082:8433   */\n      swap3\n      swap2\n      pop\n      pop\n      jump\t// out\n\n    auxdata: 0xa2646970667358221220d97a7f60f0c2aa5811485d2590fffadf85a23a7e5022f9da5119e03723af098e64736f6c63430008110033\n}\n",
				"bytecode": {
					"linkReferences": {},
					"object": "608060405234801561001057600080fd5b50604051610abf380380610abf833981810160405281019061003291906100db565b806000806101000a81548173ffffffffffffffffffffffffffffffffffffffff021916908373ffffffffffffffffffffffffffffffffffffffff16021790555050610108565b600080fd5b600073ffffffffffffffffffffffffffffffffffffffff82169050919050565b60006100a88261007d565b9050919050565b6100b88161009d565b81146100c357600080fd5b50565b6000815190506100d5816100af565b92915050565b6000602082840312156100f1576100f0610078565b5b60006100ff848285016100c6565b91505092915050565b6109a8806101176000396000f3fe608060405234801561001057600080fd5b506004361061007d5760003560e01c8063609ff1bd1161005b578063609ff1bd146100ed578063a3ec138d1461010b578063e2ba53f01461013e578063f8a8fd6d1461015c5761007d565b80630121b93f14610082578063013cf08b1461009e57806349e0335f146100cf575b600080fd5b61009c6004803603810190610097919061052a565b610166565b005b6100b860048036038101906100b3919061052a565b6102ac565b6040516100c692919061057f565b60405180910390f35b6100d76102e0565b6040516100e49190610627565b60405180910390f35b6100f5610304565b6040516101029190610642565b60405180910390f35b6101256004803603810190610120919061069b565b61038c565b60405161013594939291906106f2565b60405180910390f35b6101466103e9565b6040516101539190610737565b60405180910390f35b61016461041d565b005b6000600160003373ffffffffffffffffffffffffffffffffffffffff1673ffffffffffffffffffffffffffffffffffffffff168152602001908152602001600020905060008160000154036101f0576040517f08c379a00000000000000000000000000000000000000000000000000000000081526004016101e7906107af565b60405180910390fd5b8060010160009054906101000a900460ff1615610242576040517f08c379a00000000000000000000000000000000000000000000000000000000081526004016102399061081b565b60405180910390fd5b60018160010160006101000a81548160ff0219169083151502179055508181600201819055508060000154600283815481106102815761028061083b565b5b906000526020600020906002020160010160008282546102a19190610899565b925050819055505050565b600281815481106102bc57600080fd5b90600052602060002090600202016000915090508060000154908060010154905082565b60008054906101000a900473ffffffffffffffffffffffffffffffffffffffff1681565b6000806000905060005b6002805490508110156103875781600282815481106103305761032f61083b565b5b9060005260206000209060020201600101541115610374576002818154811061035c5761035b61083b565b5b90600052602060002090600202016001015491508092505b808061037f906108cd565b91505061030e565b505090565b60016020528060005260406000206000915090508060000154908060010160009054906101000a900460ff16908060010160019054906101000a900473ffffffffffffffffffffffffffffffffffffffff16908060020154905084565b600060026103f5610304565b815481106104065761040561083b565b5b906000526020600020906002020160000154905090565b7f0eb9f2c7847c327566a2cffcd0cc9edbc0d5b763e17989a09b04e8945a1a1e5660008054906101000a900473ffffffffffffffffffffffffffffffffffffffff1673ffffffffffffffffffffffffffffffffffffffff166370a08231336040518263ffffffff1660e01b81526004016104979190610915565b602060405180830381865afa1580156104b4573d6000803e3d6000fd5b505050506040513d601f19601f820116820180604052508101906104d89190610945565b6040516104e59190610642565b60405180910390a1565b600080fd5b6000819050919050565b610507816104f4565b811461051257600080fd5b50565b600081359050610524816104fe565b92915050565b6000602082840312156105405761053f6104ef565b5b600061054e84828501610515565b91505092915050565b6000819050919050565b61056a81610557565b82525050565b610579816104f4565b82525050565b60006040820190506105946000830185610561565b6105a16020830184610570565b9392505050565b600073ffffffffffffffffffffffffffffffffffffffff82169050919050565b6000819050919050565b60006105ed6105e86105e3846105a8565b6105c8565b6105a8565b9050919050565b60006105ff826105d2565b9050919050565b6000610611826105f4565b9050919050565b61062181610606565b82525050565b600060208201905061063c6000830184610618565b92915050565b60006020820190506106576000830184610570565b92915050565b6000610668826105a8565b9050919050565b6106788161065d565b811461068357600080fd5b50565b6000813590506106958161066f565b92915050565b6000602082840312156106b1576106b06104ef565b5b60006106bf84828501610686565b91505092915050565b60008115159050919050565b6106dd816106c8565b82525050565b6106ec8161065d565b82525050565b60006080820190506107076000830187610570565b61071460208301866106d4565b61072160408301856106e3565b61072e6060830184610570565b95945050505050565b600060208201905061074c6000830184610561565b92915050565b600082825260208201905092915050565b7f486173206e6f20726967687420746f20766f7465000000000000000000000000600082015250565b6000610799601483610752565b91506107a482610763565b602082019050919050565b600060208201905081810360008301526107c88161078c565b9050919050565b7f416c726561647920766f7465642e000000000000000000000000000000000000600082015250565b6000610805600e83610752565b9150610810826107cf565b602082019050919050565b60006020820190508181036000830152610834816107f8565b9050919050565b7f4e487b7100000000000000000000000000000000000000000000000000000000600052603260045260246000fd5b7f4e487b7100000000000000000000000000000000000000000000000000000000600052601160045260246000fd5b60006108a4826104f4565b91506108af836104f4565b92508282019050808211156108c7576108c661086a565b5b92915050565b60006108d8826104f4565b91507fffffffffffffffffffffffffffffffffffffffffffffffffffffffffffffffff820361090a5761090961086a565b5b600182019050919050565b600060208201905061092a60008301846106e3565b92915050565b60008151905061093f816104fe565b92915050565b60006020828403121561095b5761095a6104ef565b5b600061096984828501610930565b9150509291505056fea2646970667358221220d97a7f60f0c2aa5811485d2590fffadf85a23a7e5022f9da5119e03723af098e64736f6c63430008110033",
					"opcodes": "PUSH1 0x80 PUSH1 0x40 MSTORE CALLVALUE DUP1 ISZERO PUSH2 0x10 JUMPI PUSH1 0x0 DUP1 REVERT JUMPDEST POP PUSH1 0x40 MLOAD PUSH2 0xABF CODESIZE SUB DUP1 PUSH2 0xABF DUP4 CODECOPY DUP2 DUP2 ADD PUSH1 0x40 MSTORE DUP2 ADD SWAP1 PUSH2 0x32 SWAP2 SWAP1 PUSH2 0xDB JUMP JUMPDEST DUP1 PUSH1 0x0 DUP1 PUSH2 0x100 EXP DUP2 SLOAD DUP2 PUSH20 0xFFFFFFFFFFFFFFFFFFFFFFFFFFFFFFFFFFFFFFFF MUL NOT AND SWAP1 DUP4 PUSH20 0xFFFFFFFFFFFFFFFFFFFFFFFFFFFFFFFFFFFFFFFF AND MUL OR SWAP1 SSTORE POP POP PUSH2 0x108 JUMP JUMPDEST PUSH1 0x0 DUP1 REVERT JUMPDEST PUSH1 0x0 PUSH20 0xFFFFFFFFFFFFFFFFFFFFFFFFFFFFFFFFFFFFFFFF DUP3 AND SWAP1 POP SWAP2 SWAP1 POP JUMP JUMPDEST PUSH1 0x0 PUSH2 0xA8 DUP3 PUSH2 0x7D JUMP JUMPDEST SWAP1 POP SWAP2 SWAP1 POP JUMP JUMPDEST PUSH2 0xB8 DUP2 PUSH2 0x9D JUMP JUMPDEST DUP2 EQ PUSH2 0xC3 JUMPI PUSH1 0x0 DUP1 REVERT JUMPDEST POP JUMP JUMPDEST PUSH1 0x0 DUP2 MLOAD SWAP1 POP PUSH2 0xD5 DUP2 PUSH2 0xAF JUMP JUMPDEST SWAP3 SWAP2 POP POP JUMP JUMPDEST PUSH1 0x0 PUSH1 0x20 DUP3 DUP5 SUB SLT ISZERO PUSH2 0xF1 JUMPI PUSH2 0xF0 PUSH2 0x78 JUMP JUMPDEST JUMPDEST PUSH1 0x0 PUSH2 0xFF DUP5 DUP3 DUP6 ADD PUSH2 0xC6 JUMP JUMPDEST SWAP2 POP POP SWAP3 SWAP2 POP POP JUMP JUMPDEST PUSH2 0x9A8 DUP1 PUSH2 0x117 PUSH1 0x0 CODECOPY PUSH1 0x0 RETURN INVALID PUSH1 0x80 PUSH1 0x40 MSTORE CALLVALUE DUP1 ISZERO PUSH2 0x10 JUMPI PUSH1 0x0 DUP1 REVERT JUMPDEST POP PUSH1 0x4 CALLDATASIZE LT PUSH2 0x7D JUMPI PUSH1 0x0 CALLDATALOAD PUSH1 0xE0 SHR DUP1 PUSH4 0x609FF1BD GT PUSH2 0x5B JUMPI DUP1 PUSH4 0x609FF1BD EQ PUSH2 0xED JUMPI DUP1 PUSH4 0xA3EC138D EQ PUSH2 0x10B JUMPI DUP1 PUSH4 0xE2BA53F0 EQ PUSH2 0x13E JUMPI DUP1 PUSH4 0xF8A8FD6D EQ PUSH2 0x15C JUMPI PUSH2 0x7D JUMP JUMPDEST DUP1 PUSH4 0x121B93F EQ PUSH2 0x82 JUMPI DUP1 PUSH4 0x13CF08B EQ PUSH2 0x9E JUMPI DUP1 PUSH4 0x49E0335F EQ PUSH2 0xCF JUMPI JUMPDEST PUSH1 0x0 DUP1 REVERT JUMPDEST PUSH2 0x9C PUSH1 0x4 DUP1 CALLDATASIZE SUB DUP2 ADD SWAP1 PUSH2 0x97 SWAP2 SWAP1 PUSH2 0x52A JUMP JUMPDEST PUSH2 0x166 JUMP JUMPDEST STOP JUMPDEST PUSH2 0xB8 PUSH1 0x4 DUP1 CALLDATASIZE SUB DUP2 ADD SWAP1 PUSH2 0xB3 SWAP2 SWAP1 PUSH2 0x52A JUMP JUMPDEST PUSH2 0x2AC JUMP JUMPDEST PUSH1 0x40 MLOAD PUSH2 0xC6 SWAP3 SWAP2 SWAP1 PUSH2 0x57F JUMP JUMPDEST PUSH1 0x40 MLOAD DUP1 SWAP2 SUB SWAP1 RETURN JUMPDEST PUSH2 0xD7 PUSH2 0x2E0 JUMP JUMPDEST PUSH1 0x40 MLOAD PUSH2 0xE4 SWAP2 SWAP1 PUSH2 0x627 JUMP JUMPDEST PUSH1 0x40 MLOAD DUP1 SWAP2 SUB SWAP1 RETURN JUMPDEST PUSH2 0xF5 PUSH2 0x304 JUMP JUMPDEST PUSH1 0x40 MLOAD PUSH2 0x102 SWAP2 SWAP1 PUSH2 0x642 JUMP JUMPDEST PUSH1 0x40 MLOAD DUP1 SWAP2 SUB SWAP1 RETURN JUMPDEST PUSH2 0x125 PUSH1 0x4 DUP1 CALLDATASIZE SUB DUP2 ADD SWAP1 PUSH2 0x120 SWAP2 SWAP1 PUSH2 0x69B JUMP JUMPDEST PUSH2 0x38C JUMP JUMPDEST PUSH1 0x40 MLOAD PUSH2 0x135 SWAP5 SWAP4 SWAP3 SWAP2 SWAP1 PUSH2 0x6F2 JUMP JUMPDEST PUSH1 0x40 MLOAD DUP1 SWAP2 SUB SWAP1 RETURN JUMPDEST PUSH2 0x146 PUSH2 0x3E9 JUMP JUMPDEST PUSH1 0x40 MLOAD PUSH2 0x153 SWAP2 SWAP1 PUSH2 0x737 JUMP JUMPDEST PUSH1 0x40 MLOAD DUP1 SWAP2 SUB SWAP1 RETURN JUMPDEST PUSH2 0x164 PUSH2 0x41D JUMP JUMPDEST STOP JUMPDEST PUSH1 0x0 PUSH1 0x1 PUSH1 0x0 CALLER PUSH20 0xFFFFFFFFFFFFFFFFFFFFFFFFFFFFFFFFFFFFFFFF AND PUSH20 0xFFFFFFFFFFFFFFFFFFFFFFFFFFFFFFFFFFFFFFFF AND DUP2 MSTORE PUSH1 0x20 ADD SWAP1 DUP2 MSTORE PUSH1 0x20 ADD PUSH1 0x0 KECCAK256 SWAP1 POP PUSH1 0x0 DUP2 PUSH1 0x0 ADD SLOAD SUB PUSH2 0x1F0 JUMPI PUSH1 0x40 MLOAD PUSH32 0x8C379A000000000000000000000000000000000000000000000000000000000 DUP2 MSTORE PUSH1 0x4 ADD PUSH2 0x1E7 SWAP1 PUSH2 0x7AF JUMP JUMPDEST PUSH1 0x40 MLOAD DUP1 SWAP2 SUB SWAP1 REVERT JUMPDEST DUP1 PUSH1 0x1 ADD PUSH1 0x0 SWAP1 SLOAD SWAP1 PUSH2 0x100 EXP SWAP1 DIV PUSH1 0xFF AND ISZERO PUSH2 0x242 JUMPI PUSH1 0x40 MLOAD PUSH32 0x8C379A000000000000000000000000000000000000000000000000000000000 DUP2 MSTORE PUSH1 0x4 ADD PUSH2 0x239 SWAP1 PUSH2 0x81B JUMP JUMPDEST PUSH1 0x40 MLOAD DUP1 SWAP2 SUB SWAP1 REVERT JUMPDEST PUSH1 0x1 DUP2 PUSH1 0x1 ADD PUSH1 0x0 PUSH2 0x100 EXP DUP2 SLOAD DUP2 PUSH1 0xFF MUL NOT AND SWAP1 DUP4 ISZERO ISZERO MUL OR SWAP1 SSTORE POP DUP2 DUP2 PUSH1 0x2 ADD DUP2 SWAP1 SSTORE POP DUP1 PUSH1 0x0 ADD SLOAD PUSH1 0x2 DUP4 DUP2 SLOAD DUP2 LT PUSH2 0x281 JUMPI PUSH2 0x280 PUSH2 0x83B JUMP JUMPDEST JUMPDEST SWAP1 PUSH1 0x0 MSTORE PUSH1 0x20 PUSH1 0x0 KECCAK256 SWAP1 PUSH1 0x2 MUL ADD PUSH1 0x1 ADD PUSH1 0x0 DUP3 DUP3 SLOAD PUSH2 0x2A1 SWAP2 SWAP1 PUSH2 0x899 JUMP JUMPDEST SWAP3 POP POP DUP2 SWAP1 SSTORE POP POP POP JUMP JUMPDEST PUSH1 0x2 DUP2 DUP2 SLOAD DUP2 LT PUSH2 0x2BC JUMPI PUSH1 0x0 DUP1 REVERT JUMPDEST SWAP1 PUSH1 0x0 MSTORE PUSH1 0x20 PUSH1 0x0 KECCAK256 SWAP1 PUSH1 0x2 MUL ADD PUSH1 0x0 SWAP2 POP SWAP1 POP DUP1 PUSH1 0x0 ADD SLOAD SWAP1 DUP1 PUSH1 0x1 ADD SLOAD SWAP1 POP DUP3 JUMP JUMPDEST PUSH1 0x0 DUP1 SLOAD SWAP1 PUSH2 0x100 EXP SWAP1 DIV PUSH20 0xFFFFFFFFFFFFFFFFFFFFFFFFFFFFFFFFFFFFFFFF AND DUP2 JUMP JUMPDEST PUSH1 0x0 DUP1 PUSH1 0x0 SWAP1 POP PUSH1 0x0 JUMPDEST PUSH1 0x2 DUP1 SLOAD SWAP1 POP DUP2 LT ISZERO PUSH2 0x387 JUMPI DUP2 PUSH1 0x2 DUP3 DUP2 SLOAD DUP2 LT PUSH2 0x330 JUMPI PUSH2 0x32F PUSH2 0x83B JUMP JUMPDEST JUMPDEST SWAP1 PUSH1 0x0 MSTORE PUSH1 0x20 PUSH1 0x0 KECCAK256 SWAP1 PUSH1 0x2 MUL ADD PUSH1 0x1 ADD SLOAD GT ISZERO PUSH2 0x374 JUMPI PUSH1 0x2 DUP2 DUP2 SLOAD DUP2 LT PUSH2 0x35C JUMPI PUSH2 0x35B PUSH2 0x83B JUMP JUMPDEST JUMPDEST SWAP1 PUSH1 0x0 MSTORE PUSH1 0x20 PUSH1 0x0 KECCAK256 SWAP1 PUSH1 0x2 MUL ADD PUSH1 0x1 ADD SLOAD SWAP2 POP DUP1 SWAP3 POP JUMPDEST DUP1 DUP1 PUSH2 0x37F SWAP1 PUSH2 0x8CD JUMP JUMPDEST SWAP2 POP POP PUSH2 0x30E JUMP JUMPDEST POP POP SWAP1 JUMP JUMPDEST PUSH1 0x1 PUSH1 0x20 MSTORE DUP1 PUSH1 0x0 MSTORE PUSH1 0x40 PUSH1 0x0 KECCAK256 PUSH1 0x0 SWAP2 POP SWAP1 POP DUP1 PUSH1 0x0 ADD SLOAD SWAP1 DUP1 PUSH1 0x1 ADD PUSH1 0x0 SWAP1 SLOAD SWAP1 PUSH2 0x100 EXP SWAP1 DIV PUSH1 0xFF AND SWAP1 DUP1 PUSH1 0x1 ADD PUSH1 0x1 SWAP1 SLOAD SWAP1 PUSH2 0x100 EXP SWAP1 DIV PUSH20 0xFFFFFFFFFFFFFFFFFFFFFFFFFFFFFFFFFFFFFFFF AND SWAP1 DUP1 PUSH1 0x2 ADD SLOAD SWAP1 POP DUP5 JUMP JUMPDEST PUSH1 0x0 PUSH1 0x2 PUSH2 0x3F5 PUSH2 0x304 JUMP JUMPDEST DUP2 SLOAD DUP2 LT PUSH2 0x406 JUMPI PUSH2 0x405 PUSH2 0x83B JUMP JUMPDEST JUMPDEST SWAP1 PUSH1 0x0 MSTORE PUSH1 0x20 PUSH1 0x0 KECCAK256 SWAP1 PUSH1 0x2 MUL ADD PUSH1 0x0 ADD SLOAD SWAP1 POP SWAP1 JUMP JUMPDEST PUSH32 0xEB9F2C7847C327566A2CFFCD0CC9EDBC0D5B763E17989A09B04E8945A1A1E56 PUSH1 0x0 DUP1 SLOAD SWAP1 PUSH2 0x100 EXP SWAP1 DIV PUSH20 0xFFFFFFFFFFFFFFFFFFFFFFFFFFFFFFFFFFFFFFFF AND PUSH20 0xFFFFFFFFFFFFFFFFFFFFFFFFFFFFFFFFFFFFFFFF AND PUSH4 0x70A08231 CALLER PUSH1 0x40 MLOAD DUP3 PUSH4 0xFFFFFFFF AND PUSH1 0xE0 SHL DUP2 MSTORE PUSH1 0x4 ADD PUSH2 0x497 SWAP2 SWAP1 PUSH2 0x915 JUMP JUMPDEST PUSH1 0x20 PUSH1 0x40 MLOAD DUP1 DUP4 SUB DUP2 DUP7 GAS STATICCALL ISZERO DUP1 ISZERO PUSH2 0x4B4 JUMPI RETURNDATASIZE PUSH1 0x0 DUP1 RETURNDATACOPY RETURNDATASIZE PUSH1 0x0 REVERT JUMPDEST POP POP POP POP PUSH1 0x40 MLOAD RETURNDATASIZE PUSH1 0x1F NOT PUSH1 0x1F DUP3 ADD AND DUP3 ADD DUP1 PUSH1 0x40 MSTORE POP DUP2 ADD SWAP1 PUSH2 0x4D8 SWAP2 SWAP1 PUSH2 0x945 JUMP JUMPDEST PUSH1 0x40 MLOAD PUSH2 0x4E5 SWAP2 SWAP1 PUSH2 0x642 JUMP JUMPDEST PUSH1 0x40 MLOAD DUP1 SWAP2 SUB SWAP1 LOG1 JUMP JUMPDEST PUSH1 0x0 DUP1 REVERT JUMPDEST PUSH1 0x0 DUP2 SWAP1 POP SWAP2 SWAP1 POP JUMP JUMPDEST PUSH2 0x507 DUP2 PUSH2 0x4F4 JUMP JUMPDEST DUP2 EQ PUSH2 0x512 JUMPI PUSH1 0x0 DUP1 REVERT JUMPDEST POP JUMP JUMPDEST PUSH1 0x0 DUP2 CALLDATALOAD SWAP1 POP PUSH2 0x524 DUP2 PUSH2 0x4FE JUMP JUMPDEST SWAP3 SWAP2 POP POP JUMP JUMPDEST PUSH1 0x0 PUSH1 0x20 DUP3 DUP5 SUB SLT ISZERO PUSH2 0x540 JUMPI PUSH2 0x53F PUSH2 0x4EF JUMP JUMPDEST JUMPDEST PUSH1 0x0 PUSH2 0x54E DUP5 DUP3 DUP6 ADD PUSH2 0x515 JUMP JUMPDEST SWAP2 POP POP SWAP3 SWAP2 POP POP JUMP JUMPDEST PUSH1 0x0 DUP2 SWAP1 POP SWAP2 SWAP1 POP JUMP JUMPDEST PUSH2 0x56A DUP2 PUSH2 0x557 JUMP JUMPDEST DUP3 MSTORE POP POP JUMP JUMPDEST PUSH2 0x579 DUP2 PUSH2 0x4F4 JUMP JUMPDEST DUP3 MSTORE POP POP JUMP JUMPDEST PUSH1 0x0 PUSH1 0x40 DUP3 ADD SWAP1 POP PUSH2 0x594 PUSH1 0x0 DUP4 ADD DUP6 PUSH2 0x561 JUMP JUMPDEST PUSH2 0x5A1 PUSH1 0x20 DUP4 ADD DUP5 PUSH2 0x570 JUMP JUMPDEST SWAP4 SWAP3 POP POP POP JUMP JUMPDEST PUSH1 0x0 PUSH20 0xFFFFFFFFFFFFFFFFFFFFFFFFFFFFFFFFFFFFFFFF DUP3 AND SWAP1 POP SWAP2 SWAP1 POP JUMP JUMPDEST PUSH1 0x0 DUP2 SWAP1 POP SWAP2 SWAP1 POP JUMP JUMPDEST PUSH1 0x0 PUSH2 0x5ED PUSH2 0x5E8 PUSH2 0x5E3 DUP5 PUSH2 0x5A8 JUMP JUMPDEST PUSH2 0x5C8 JUMP JUMPDEST PUSH2 0x5A8 JUMP JUMPDEST SWAP1 POP SWAP2 SWAP1 POP JUMP JUMPDEST PUSH1 0x0 PUSH2 0x5FF DUP3 PUSH2 0x5D2 JUMP JUMPDEST SWAP1 POP SWAP2 SWAP1 POP JUMP JUMPDEST PUSH1 0x0 PUSH2 0x611 DUP3 PUSH2 0x5F4 JUMP JUMPDEST SWAP1 POP SWAP2 SWAP1 POP JUMP JUMPDEST PUSH2 0x621 DUP2 PUSH2 0x606 JUMP JUMPDEST DUP3 MSTORE POP POP JUMP JUMPDEST PUSH1 0x0 PUSH1 0x20 DUP3 ADD SWAP1 POP PUSH2 0x63C PUSH1 0x0 DUP4 ADD DUP5 PUSH2 0x618 JUMP JUMPDEST SWAP3 SWAP2 POP POP JUMP JUMPDEST PUSH1 0x0 PUSH1 0x20 DUP3 ADD SWAP1 POP PUSH2 0x657 PUSH1 0x0 DUP4 ADD DUP5 PUSH2 0x570 JUMP JUMPDEST SWAP3 SWAP2 POP POP JUMP JUMPDEST PUSH1 0x0 PUSH2 0x668 DUP3 PUSH2 0x5A8 JUMP JUMPDEST SWAP1 POP SWAP2 SWAP1 POP JUMP JUMPDEST PUSH2 0x678 DUP2 PUSH2 0x65D JUMP JUMPDEST DUP2 EQ PUSH2 0x683 JUMPI PUSH1 0x0 DUP1 REVERT JUMPDEST POP JUMP JUMPDEST PUSH1 0x0 DUP2 CALLDATALOAD SWAP1 POP PUSH2 0x695 DUP2 PUSH2 0x66F JUMP JUMPDEST SWAP3 SWAP2 POP POP JUMP JUMPDEST PUSH1 0x0 PUSH1 0x20 DUP3 DUP5 SUB SLT ISZERO PUSH2 0x6B1 JUMPI PUSH2 0x6B0 PUSH2 0x4EF JUMP JUMPDEST JUMPDEST PUSH1 0x0 PUSH2 0x6BF DUP5 DUP3 DUP6 ADD PUSH2 0x686 JUMP JUMPDEST SWAP2 POP POP SWAP3 SWAP2 POP POP JUMP JUMPDEST PUSH1 0x0 DUP2 ISZERO ISZERO SWAP1 POP SWAP2 SWAP1 POP JUMP JUMPDEST PUSH2 0x6DD DUP2 PUSH2 0x6C8 JUMP JUMPDEST DUP3 MSTORE POP POP JUMP JUMPDEST PUSH2 0x6EC DUP2 PUSH2 0x65D JUMP JUMPDEST DUP3 MSTORE POP POP JUMP JUMPDEST PUSH1 0x0 PUSH1 0x80 DUP3 ADD SWAP1 POP PUSH2 0x707 PUSH1 0x0 DUP4 ADD DUP8 PUSH2 0x570 JUMP JUMPDEST PUSH2 0x714 PUSH1 0x20 DUP4 ADD DUP7 PUSH2 0x6D4 JUMP JUMPDEST PUSH2 0x721 PUSH1 0x40 DUP4 ADD DUP6 PUSH2 0x6E3 JUMP JUMPDEST PUSH2 0x72E PUSH1 0x60 DUP4 ADD DUP5 PUSH2 0x570 JUMP JUMPDEST SWAP6 SWAP5 POP POP POP POP POP JUMP JUMPDEST PUSH1 0x0 PUSH1 0x20 DUP3 ADD SWAP1 POP PUSH2 0x74C PUSH1 0x0 DUP4 ADD DUP5 PUSH2 0x561 JUMP JUMPDEST SWAP3 SWAP2 POP POP JUMP JUMPDEST PUSH1 0x0 DUP3 DUP3 MSTORE PUSH1 0x20 DUP3 ADD SWAP1 POP SWAP3 SWAP2 POP POP JUMP JUMPDEST PUSH32 0x486173206E6F20726967687420746F20766F7465000000000000000000000000 PUSH1 0x0 DUP3 ADD MSTORE POP JUMP JUMPDEST PUSH1 0x0 PUSH2 0x799 PUSH1 0x14 DUP4 PUSH2 0x752 JUMP JUMPDEST SWAP2 POP PUSH2 0x7A4 DUP3 PUSH2 0x763 JUMP JUMPDEST PUSH1 0x20 DUP3 ADD SWAP1 POP SWAP2 SWAP1 POP JUMP JUMPDEST PUSH1 0x0 PUSH1 0x20 DUP3 ADD SWAP1 POP DUP2 DUP2 SUB PUSH1 0x0 DUP4 ADD MSTORE PUSH2 0x7C8 DUP2 PUSH2 0x78C JUMP JUMPDEST SWAP1 POP SWAP2 SWAP1 POP JUMP JUMPDEST PUSH32 0x416C726561647920766F7465642E000000000000000000000000000000000000 PUSH1 0x0 DUP3 ADD MSTORE POP JUMP JUMPDEST PUSH1 0x0 PUSH2 0x805 PUSH1 0xE DUP4 PUSH2 0x752 JUMP JUMPDEST SWAP2 POP PUSH2 0x810 DUP3 PUSH2 0x7CF JUMP JUMPDEST PUSH1 0x20 DUP3 ADD SWAP1 POP SWAP2 SWAP1 POP JUMP JUMPDEST PUSH1 0x0 PUSH1 0x20 DUP3 ADD SWAP1 POP DUP2 DUP2 SUB PUSH1 0x0 DUP4 ADD MSTORE PUSH2 0x834 DUP2 PUSH2 0x7F8 JUMP JUMPDEST SWAP1 POP SWAP2 SWAP1 POP JUMP JUMPDEST PUSH32 0x4E487B7100000000000000000000000000000000000000000000000000000000 PUSH1 0x0 MSTORE PUSH1 0x32 PUSH1 0x4 MSTORE PUSH1 0x24 PUSH1 0x0 REVERT JUMPDEST PUSH32 0x4E487B7100000000000000000000000000000000000000000000000000000000 PUSH1 0x0 MSTORE PUSH1 0x11 PUSH1 0x4 MSTORE PUSH1 0x24 PUSH1 0x0 REVERT JUMPDEST PUSH1 0x0 PUSH2 0x8A4 DUP3 PUSH2 0x4F4 JUMP JUMPDEST SWAP2 POP PUSH2 0x8AF DUP4 PUSH2 0x4F4 JUMP JUMPDEST SWAP3 POP DUP3 DUP3 ADD SWAP1 POP DUP1 DUP3 GT ISZERO PUSH2 0x8C7 JUMPI PUSH2 0x8C6 PUSH2 0x86A JUMP JUMPDEST JUMPDEST SWAP3 SWAP2 POP POP JUMP JUMPDEST PUSH1 0x0 PUSH2 0x8D8 DUP3 PUSH2 0x4F4 JUMP JUMPDEST SWAP2 POP PUSH32 0xFFFFFFFFFFFFFFFFFFFFFFFFFFFFFFFFFFFFFFFFFFFFFFFFFFFFFFFFFFFFFFFF DUP3 SUB PUSH2 0x90A JUMPI PUSH2 0x909 PUSH2 0x86A JUMP JUMPDEST JUMPDEST PUSH1 0x1 DUP3 ADD SWAP1 POP SWAP2 SWAP1 POP JUMP JUMPDEST PUSH1 0x0 PUSH1 0x20 DUP3 ADD SWAP1 POP PUSH2 0x92A PUSH1 0x0 DUP4 ADD DUP5 PUSH2 0x6E3 JUMP JUMPDEST SWAP3 SWAP2 POP POP JUMP JUMPDEST PUSH1 0x0 DUP2 MLOAD SWAP1 POP PUSH2 0x93F DUP2 PUSH2 0x4FE JUMP JUMPDEST SWAP3 SWAP2 POP POP JUMP JUMPDEST PUSH1 0x0 PUSH1 0x20 DUP3 DUP5 SUB SLT ISZERO PUSH2 0x95B JUMPI PUSH2 0x95A PUSH2 0x4EF JUMP JUMPDEST JUMPDEST PUSH1 0x0 PUSH2 0x969 DUP5 DUP3 DUP6 ADD PUSH2 0x930 JUMP JUMPDEST SWAP2 POP POP SWAP3 SWAP2 POP POP JUMP INVALID LOG2 PUSH5 0x6970667358 0x22 SLT KECCAK256 0xD9 PUSH27 0x7F60F0C2AA5811485D2590FFFADF85A23A7E5022F9DA5119E03723 0xAF MULMOD DUP15 PUSH5 0x736F6C6343 STOP ADDMOD GT STOP CALLER "
				},
				"gasEstimates": {
					"creation": {
						"codeDepositCost": "494400",
						"executionCost": "infinite",
						"totalCost": "infinite"
					},
					"external": {
						"proposals(uint256)": "infinite",
						"test()": "infinite",
						"twitt()": "infinite",
						"vote(uint256)": "infinite",
						"voters(address)": "infinite",
						"winnerName()": "infinite",
						"winningProposal()": "infinite"
					}
				},
				"methodIdentifiers": {
					"proposals(uint256)": "013cf08b",
					"test()": "f8a8fd6d",
					"twitt()": "49e0335f",
					"vote(uint256)": "0121b93f",
					"voters(address)": "a3ec138d",
					"winnerName()": "e2ba53f0",
					"winningProposal()": "609ff1bd"
				}
			},
			"storageLayout": {
				"storage": [
					{
						"astId": 84,
						"contract": "contract-71ad24318f.sol:BallotBox",
						"label": "twitt",
						"offset": 0,
						"slot": "0",
						"type": "t_contract(IERC20)77"
					},
					{
						"astId": 86,
						"contract": "contract-71ad24318f.sol:BallotBox",
						"label": "locked",
						"offset": 20,
						"slot": "0",
						"type": "t_bool"
					},
					{
						"astId": 154,
						"contract": "contract-71ad24318f.sol:BallotBox",
						"label": "voters",
						"offset": 0,
						"slot": "1",
						"type": "t_mapping(t_address,t_struct(Voter)144_storage)"
					},
					{
						"astId": 158,
						"contract": "contract-71ad24318f.sol:BallotBox",
						"label": "proposals",
						"offset": 0,
						"slot": "2",
						"type": "t_array(t_struct(Proposal)149_storage)dyn_storage"
					}
				],
				"types": {
					"t_address": {
						"encoding": "inplace",
						"label": "address",
						"numberOfBytes": "20"
					},
					"t_array(t_struct(Proposal)149_storage)dyn_storage": {
						"base": "t_struct(Proposal)149_storage",
						"encoding": "dynamic_array",
						"label": "struct BallotBox.Proposal[]",
						"numberOfBytes": "32"
					},
					"t_bool": {
						"encoding": "inplace",
						"label": "bool",
						"numberOfBytes": "1"
					},
					"t_bytes32": {
						"encoding": "inplace",
						"label": "bytes32",
						"numberOfBytes": "32"
					},
					"t_contract(IERC20)77": {
						"encoding": "inplace",
						"label": "contract IERC20",
						"numberOfBytes": "20"
					},
					"t_mapping(t_address,t_struct(Voter)144_storage)": {
						"encoding": "mapping",
						"key": "t_address",
						"label": "mapping(address => struct BallotBox.Voter)",
						"numberOfBytes": "32",
						"value": "t_struct(Voter)144_storage"
					},
					"t_struct(Proposal)149_storage": {
						"encoding": "inplace",
						"label": "struct BallotBox.Proposal",
						"members": [
							{
								"astId": 146,
								"contract": "contract-71ad24318f.sol:BallotBox",
								"label": "name",
								"offset": 0,
								"slot": "0",
								"type": "t_bytes32"
							},
							{
								"astId": 148,
								"contract": "contract-71ad24318f.sol:BallotBox",
								"label": "voteCount",
								"offset": 0,
								"slot": "1",
								"type": "t_uint256"
							}
						],
						"numberOfBytes": "64"
					},
					"t_struct(Voter)144_storage": {
						"encoding": "inplace",
						"label": "struct BallotBox.Voter",
						"members": [
							{
								"astId": 137,
								"contract": "contract-71ad24318f.sol:BallotBox",
								"label": "weight",
								"offset": 0,
								"slot": "0",
								"type": "t_uint256"
							},
							{
								"astId": 139,
								"contract": "contract-71ad24318f.sol:BallotBox",
								"label": "voted",
								"offset": 0,
								"slot": "1",
								"type": "t_bool"
							},
							{
								"astId": 141,
								"contract": "contract-71ad24318f.sol:BallotBox",
								"label": "delegate",
								"offset": 1,
								"slot": "1",
								"type": "t_address"
							},
							{
								"astId": 143,
								"contract": "contract-71ad24318f.sol:BallotBox",
								"label": "vote",
								"offset": 0,
								"slot": "2",
								"type": "t_uint256"
							}
						],
						"numberOfBytes": "96"
					},
					"t_uint256": {
						"encoding": "inplace",
						"label": "uint256",
						"numberOfBytes": "32"
					}
				}
			},
			"userdoc": {
				"kind": "user",
				"methods": {
					"constructor": {
						"notice": "Create a new ballot to choose one of `proposalNames`."
					},
					"vote(uint256)": {
						"notice": "Give your vote (including votes delegated to you) to proposal `proposals[proposal].name`."
					}
				},
				"version": 1
			}
		}
	}
}