{
	"contract-442812f524.sol": {
		"Verify": {
			"abi": [
				{
					"inputs": [
						{
							"internalType": "address",
							"name": "_importantAddress",
							"type": "address"
						}
					],
					"stateMutability": "nonpayable",
					"type": "constructor"
				},
				{
					"inputs": [
						{
							"internalType": "string",
							"name": "_word",
							"type": "string"
						},
						{
							"internalType": "bytes",
							"name": "sig",
							"type": "bytes"
						}
					],
					"name": "isValidData",
					"outputs": [
						{
							"internalType": "bool",
							"name": "",
							"type": "bool"
						}
					],
					"stateMutability": "view",
					"type": "function"
				},
				{
					"inputs": [
						{
							"internalType": "string",
							"name": "_w",
							"type": "string"
						}
					],
					"name": "msgRR",
					"outputs": [
						{
							"internalType": "bytes32",
							"name": "",
							"type": "bytes32"
						}
					],
					"stateMutability": "nonpayable",
					"type": "function"
				},
				{
					"inputs": [
						{
							"internalType": "bytes32",
							"name": "message",
							"type": "bytes32"
						},
						{
							"internalType": "bytes",
							"name": "sig",
							"type": "bytes"
						}
					],
					"name": "recoverSigner",
					"outputs": [
						{
							"internalType": "address",
							"name": "",
							"type": "address"
						}
					],
					"stateMutability": "pure",
					"type": "function"
				},
				{
					"inputs": [
						{
							"internalType": "bytes",
							"name": "sig",
							"type": "bytes"
						}
					],
					"name": "splitSignature",
					"outputs": [
						{
							"internalType": "uint8",
							"name": "",
							"type": "uint8"
						},
						{
							"internalType": "bytes32",
							"name": "",
							"type": "bytes32"
						},
						{
							"internalType": "bytes32",
							"name": "",
							"type": "bytes32"
						}
					],
					"stateMutability": "pure",
					"type": "function"
				}
			],
			"devdoc": {
				"kind": "dev",
				"methods": {},
				"version": 1
			},
			"evm": {
				"assembly": "    /* \"contract-442812f524.sol\":58:1366  contract Verify {... */\n  mstore(0x40, 0x80)\n    /* \"contract-442812f524.sol\":127:218  constructor (address _importantAddress) {... */\n  callvalue\n  dup1\n  iszero\n  tag_1\n  jumpi\n  0x00\n  dup1\n  revert\ntag_1:\n  pop\n  mload(0x40)\n  sub(codesize, bytecodeSize)\n  dup1\n  bytecodeSize\n  dup4\n  codecopy\n  dup2\n  dup2\n  add\n  0x40\n  mstore\n  dup2\n  add\n  swap1\n  tag_2\n  swap2\n  swap1\n  tag_3\n  jump\t// in\ntag_2:\n    /* \"contract-442812f524.sol\":195:212  _importantAddress */\n  dup1\n    /* \"contract-442812f524.sol\":176:192  importantAddress */\n  0x00\n  dup1\n    /* \"contract-442812f524.sol\":176:212  importantAddress = _importantAddress */\n  0x0100\n  exp\n  dup2\n  sload\n  dup2\n  0xffffffffffffffffffffffffffffffffffffffff\n  mul\n  not\n  and\n  swap1\n  dup4\n  0xffffffffffffffffffffffffffffffffffffffff\n  and\n  mul\n  or\n  swap1\n  sstore\n  pop\n    /* \"contract-442812f524.sol\":127:218  constructor (address _importantAddress) {... */\n  pop\n    /* \"contract-442812f524.sol\":58:1366  contract Verify {... */\n  jump(tag_6)\n    /* \"#utility.yul\":88:205   */\ntag_8:\n    /* \"#utility.yul\":197:198   */\n  0x00\n    /* \"#utility.yul\":194:195   */\n  dup1\n    /* \"#utility.yul\":187:199   */\n  revert\n    /* \"#utility.yul\":334:460   */\ntag_10:\n    /* \"#utility.yul\":371:378   */\n  0x00\n    /* \"#utility.yul\":411:453   */\n  0xffffffffffffffffffffffffffffffffffffffff\n    /* \"#utility.yul\":404:409   */\n  dup3\n    /* \"#utility.yul\":400:454   */\n  and\n    /* \"#utility.yul\":389:454   */\n  swap1\n  pop\n    /* \"#utility.yul\":334:460   */\n  swap2\n  swap1\n  pop\n  jump\t// out\n    /* \"#utility.yul\":466:562   */\ntag_11:\n    /* \"#utility.yul\":503:510   */\n  0x00\n    /* \"#utility.yul\":532:556   */\n  tag_20\n    /* \"#utility.yul\":550:555   */\n  dup3\n    /* \"#utility.yul\":532:556   */\n  tag_10\n  jump\t// in\ntag_20:\n    /* \"#utility.yul\":521:556   */\n  swap1\n  pop\n    /* \"#utility.yul\":466:562   */\n  swap2\n  swap1\n  pop\n  jump\t// out\n    /* \"#utility.yul\":568:690   */\ntag_12:\n    /* \"#utility.yul\":641:665   */\n  tag_22\n    /* \"#utility.yul\":659:664   */\n  dup2\n    /* \"#utility.yul\":641:665   */\n  tag_11\n  jump\t// in\ntag_22:\n    /* \"#utility.yul\":634:639   */\n  dup2\n    /* \"#utility.yul\":631:666   */\n  eq\n    /* \"#utility.yul\":621:684   */\n  tag_23\n  jumpi\n    /* \"#utility.yul\":680:681   */\n  0x00\n    /* \"#utility.yul\":677:678   */\n  dup1\n    /* \"#utility.yul\":670:682   */\n  revert\n    /* \"#utility.yul\":621:684   */\ntag_23:\n    /* \"#utility.yul\":568:690   */\n  pop\n  jump\t// out\n    /* \"#utility.yul\":696:839   */\ntag_13:\n    /* \"#utility.yul\":753:758   */\n  0x00\n    /* \"#utility.yul\":784:790   */\n  dup2\n    /* \"#utility.yul\":778:791   */\n  mload\n    /* \"#utility.yul\":769:791   */\n  swap1\n  pop\n    /* \"#utility.yul\":800:833   */\n  tag_25\n    /* \"#utility.yul\":827:832   */\n  dup2\n    /* \"#utility.yul\":800:833   */\n  tag_12\n  jump\t// in\ntag_25:\n    /* \"#utility.yul\":696:839   */\n  swap3\n  swap2\n  pop\n  pop\n  jump\t// out\n    /* \"#utility.yul\":845:1196   */\ntag_3:\n    /* \"#utility.yul\":915:921   */\n  0x00\n    /* \"#utility.yul\":964:966   */\n  0x20\n    /* \"#utility.yul\":952:961   */\n  dup3\n    /* \"#utility.yul\":943:950   */\n  dup5\n    /* \"#utility.yul\":939:962   */\n  sub\n    /* \"#utility.yul\":935:967   */\n  slt\n    /* \"#utility.yul\":932:1051   */\n  iszero\n  tag_27\n  jumpi\n    /* \"#utility.yul\":970:1049   */\n  tag_28\n  tag_8\n  jump\t// in\ntag_28:\n    /* \"#utility.yul\":932:1051   */\ntag_27:\n    /* \"#utility.yul\":1090:1091   */\n  0x00\n    /* \"#utility.yul\":1115:1179   */\n  tag_29\n    /* \"#utility.yul\":1171:1178   */\n  dup5\n    /* \"#utility.yul\":1162:1168   */\n  dup3\n    /* \"#utility.yul\":1151:1160   */\n  dup6\n    /* \"#utility.yul\":1147:1169   */\n  add\n    /* \"#utility.yul\":1115:1179   */\n  tag_13\n  jump\t// in\ntag_29:\n    /* \"#utility.yul\":1105:1179   */\n  swap2\n  pop\n    /* \"#utility.yul\":1061:1189   */\n  pop\n    /* \"#utility.yul\":845:1196   */\n  swap3\n  swap2\n  pop\n  pop\n  jump\t// out\n    /* \"contract-442812f524.sol\":58:1366  contract Verify {... */\ntag_6:\n  dataSize(sub_0)\n  dup1\n  dataOffset(sub_0)\n  0x00\n  codecopy\n  0x00\n  return\nstop\n\nsub_0: assembly {\n        /* \"contract-442812f524.sol\":58:1366  contract Verify {... */\n      mstore(0x40, 0x80)\n      callvalue\n      dup1\n      iszero\n      tag_1\n      jumpi\n      0x00\n      dup1\n      revert\n    tag_1:\n      pop\n      jumpi(tag_2, lt(calldatasize, 0x04))\n      shr(0xe0, calldataload(0x00))\n      dup1\n      0x97aba7f9\n      eq\n      tag_3\n      jumpi\n      dup1\n      0x9ac71bde\n      eq\n      tag_4\n      jumpi\n      dup1\n      0xa7bb5803\n      eq\n      tag_5\n      jumpi\n      dup1\n      0xadb41f75\n      eq\n      tag_6\n      jumpi\n    tag_2:\n      0x00\n      dup1\n      revert\n        /* \"contract-442812f524.sol\":585:840  function recoverSigner(bytes32 message, bytes memory sig)... */\n    tag_3:\n      tag_7\n      0x04\n      dup1\n      calldatasize\n      sub\n      dup2\n      add\n      swap1\n      tag_8\n      swap2\n      swap1\n      tag_9\n      jump\t// in\n    tag_8:\n      tag_10\n      jump\t// in\n    tag_7:\n      mload(0x40)\n      tag_11\n      swap2\n      swap1\n      tag_12\n      jump\t// in\n    tag_11:\n      mload(0x40)\n      dup1\n      swap2\n      sub\n      swap1\n      return\n        /* \"contract-442812f524.sol\":226:359  function msgRR(string memory _w) public returns(bytes32){... */\n    tag_4:\n      tag_13\n      0x04\n      dup1\n      calldatasize\n      sub\n      dup2\n      add\n      swap1\n      tag_14\n      swap2\n      swap1\n      tag_15\n      jump\t// in\n    tag_14:\n      tag_16\n      jump\t// in\n    tag_13:\n      mload(0x40)\n      tag_17\n      swap2\n      swap1\n      tag_18\n      jump\t// in\n    tag_17:\n      mload(0x40)\n      dup1\n      swap2\n      sub\n      swap1\n      return\n        /* \"contract-442812f524.sol\":844:1364  function splitSignature(bytes memory sig)... */\n    tag_5:\n      tag_19\n      0x04\n      dup1\n      calldatasize\n      sub\n      dup2\n      add\n      swap1\n      tag_20\n      swap2\n      swap1\n      tag_21\n      jump\t// in\n    tag_20:\n      tag_22\n      jump\t// in\n    tag_19:\n      mload(0x40)\n      tag_23\n      swap4\n      swap3\n      swap2\n      swap1\n      tag_24\n      jump\t// in\n    tag_23:\n      mload(0x40)\n      dup1\n      swap2\n      sub\n      swap1\n      return\n        /* \"contract-442812f524.sol\":363:581  function isValidData(string memory _word, bytes memory sig) public view returns(bool){... */\n    tag_6:\n      tag_25\n      0x04\n      dup1\n      calldatasize\n      sub\n      dup2\n      add\n      swap1\n      tag_26\n      swap2\n      swap1\n      tag_27\n      jump\t// in\n    tag_26:\n      tag_28\n      jump\t// in\n    tag_25:\n      mload(0x40)\n      tag_29\n      swap2\n      swap1\n      tag_30\n      jump\t// in\n    tag_29:\n      mload(0x40)\n      dup1\n      swap2\n      sub\n      swap1\n      return\n        /* \"contract-442812f524.sol\":585:840  function recoverSigner(bytes32 message, bytes memory sig)... */\n    tag_10:\n        /* \"contract-442812f524.sol\":685:692  address */\n      0x00\n        /* \"contract-442812f524.sol\":708:715  uint8 v */\n      dup1\n        /* \"contract-442812f524.sol\":724:733  bytes32 r */\n      0x00\n        /* \"contract-442812f524.sol\":742:751  bytes32 s */\n      dup1\n        /* \"contract-442812f524.sol\":772:791  splitSignature(sig) */\n      tag_32\n        /* \"contract-442812f524.sol\":787:790  sig */\n      dup6\n        /* \"contract-442812f524.sol\":772:786  splitSignature */\n      tag_22\n        /* \"contract-442812f524.sol\":772:791  splitSignature(sig) */\n      jump\t// in\n    tag_32:\n        /* \"contract-442812f524.sol\":760:791  (v, r, s) = splitSignature(sig) */\n      dup1\n      swap4\n      pop\n      dup2\n      swap5\n      pop\n      dup3\n      swap6\n      pop\n      pop\n      pop\n      pop\n        /* \"contract-442812f524.sol\":807:834  ecrecover(message, v, r, s) */\n      0x01\n        /* \"contract-442812f524.sol\":817:824  message */\n      dup7\n        /* \"contract-442812f524.sol\":826:827  v */\n      dup5\n        /* \"contract-442812f524.sol\":829:830  r */\n      dup5\n        /* \"contract-442812f524.sol\":832:833  s */\n      dup5\n        /* \"contract-442812f524.sol\":807:834  ecrecover(message, v, r, s) */\n      mload(0x40)\n      0x00\n      dup2\n      mstore\n      0x20\n      add\n      0x40\n      mstore\n      mload(0x40)\n      tag_33\n      swap5\n      swap4\n      swap3\n      swap2\n      swap1\n      tag_34\n      jump\t// in\n    tag_33:\n      0x20\n      mload(0x40)\n      0x20\n      dup2\n      sub\n      swap1\n      dup1\n      dup5\n      sub\n      swap1\n      dup6\n      gas\n      staticcall\n      iszero\n      dup1\n      iszero\n      tag_36\n      jumpi\n      returndatasize\n      0x00\n      dup1\n      returndatacopy\n      revert(0x00, returndatasize)\n    tag_36:\n      pop\n      pop\n      pop\n      mload(sub(mload(0x40), 0x20))\n        /* \"contract-442812f524.sol\":800:834  return ecrecover(message, v, r, s) */\n      swap4\n      pop\n      pop\n      pop\n      pop\n        /* \"contract-442812f524.sol\":585:840  function recoverSigner(bytes32 message, bytes memory sig)... */\n      swap3\n      swap2\n      pop\n      pop\n      jump\t// out\n        /* \"contract-442812f524.sol\":226:359  function msgRR(string memory _w) public returns(bytes32){... */\n    tag_16:\n        /* \"contract-442812f524.sol\":274:281  bytes32 */\n      0x00\n        /* \"contract-442812f524.sol\":327:329  _w */\n      dup2\n        /* \"contract-442812f524.sol\":309:330  abi.encodePacked( _w) */\n      add(0x20, mload(0x40))\n      tag_38\n      swap2\n      swap1\n      tag_39\n      jump\t// in\n    tag_38:\n      mload(0x40)\n      0x20\n      dup2\n      dup4\n      sub\n      sub\n      dup2\n      mstore\n      swap1\n      0x40\n      mstore\n        /* \"contract-442812f524.sol\":299:331  keccak256(abi.encodePacked( _w)) */\n      dup1\n      mload\n      swap1\n      0x20\n      add\n      keccak256\n        /* \"contract-442812f524.sol\":292:296  msgR */\n      0x01\n        /* \"contract-442812f524.sol\":292:331  msgR = keccak256(abi.encodePacked( _w)) */\n      dup2\n      swap1\n      sstore\n      pop\n        /* \"contract-442812f524.sol\":348:352  msgR */\n      sload(0x01)\n        /* \"contract-442812f524.sol\":341:352  return msgR */\n      swap1\n      pop\n        /* \"contract-442812f524.sol\":226:359  function msgRR(string memory _w) public returns(bytes32){... */\n      swap2\n      swap1\n      pop\n      jump\t// out\n        /* \"contract-442812f524.sol\":844:1364  function splitSignature(bytes memory sig)... */\n    tag_22:\n        /* \"contract-442812f524.sol\":928:933  uint8 */\n      0x00\n        /* \"contract-442812f524.sol\":935:942  bytes32 */\n      dup1\n        /* \"contract-442812f524.sol\":944:951  bytes32 */\n      0x00\n        /* \"contract-442812f524.sol\":989:991  65 */\n      0x41\n        /* \"contract-442812f524.sol\":975:978  sig */\n      dup5\n        /* \"contract-442812f524.sol\":975:985  sig.length */\n      mload\n        /* \"contract-442812f524.sol\":975:991  sig.length == 65 */\n      eq\n        /* \"contract-442812f524.sol\":967:992  require(sig.length == 65) */\n      tag_41\n      jumpi\n      0x00\n      dup1\n      revert\n    tag_41:\n        /* \"contract-442812f524.sol\":1001:1010  bytes32 r */\n      0x00\n        /* \"contract-442812f524.sol\":1019:1028  bytes32 s */\n      dup1\n        /* \"contract-442812f524.sol\":1037:1044  uint8 v */\n      0x00\n        /* \"contract-442812f524.sol\":1149:1151  32 */\n      0x20\n        /* \"contract-442812f524.sol\":1144:1147  sig */\n      dup8\n        /* \"contract-442812f524.sol\":1140:1152  add(sig, 32) */\n      add\n        /* \"contract-442812f524.sol\":1134:1153  mload(add(sig, 32)) */\n      mload\n        /* \"contract-442812f524.sol\":1129:1153  r := mload(add(sig, 32)) */\n      swap3\n      pop\n        /* \"contract-442812f524.sol\":1215:1217  64 */\n      0x40\n        /* \"contract-442812f524.sol\":1210:1213  sig */\n      dup8\n        /* \"contract-442812f524.sol\":1206:1218  add(sig, 64) */\n      add\n        /* \"contract-442812f524.sol\":1200:1219  mload(add(sig, 64)) */\n      mload\n        /* \"contract-442812f524.sol\":1195:1219  s := mload(add(sig, 64)) */\n      swap2\n      pop\n        /* \"contract-442812f524.sol\":1318:1320  96 */\n      0x60\n        /* \"contract-442812f524.sol\":1313:1316  sig */\n      dup8\n        /* \"contract-442812f524.sol\":1309:1321  add(sig, 96) */\n      add\n        /* \"contract-442812f524.sol\":1303:1322  mload(add(sig, 96)) */\n      mload\n        /* \"contract-442812f524.sol\":1300:1301  0 */\n      0x00\n        /* \"contract-442812f524.sol\":1295:1323  byte(0, mload(add(sig, 96))) */\n      byte\n        /* \"contract-442812f524.sol\":1290:1323  v := byte(0, mload(add(sig, 96))) */\n      swap1\n      pop\n        /* \"contract-442812f524.sol\":1350:1351  v */\n      dup1\n        /* \"contract-442812f524.sol\":1353:1354  r */\n      dup4\n        /* \"contract-442812f524.sol\":1356:1357  s */\n      dup4\n        /* \"contract-442812f524.sol\":1342:1358  return (v, r, s) */\n      swap6\n      pop\n      swap6\n      pop\n      swap6\n      pop\n      pop\n      pop\n      pop\n        /* \"contract-442812f524.sol\":844:1364  function splitSignature(bytes memory sig)... */\n      swap2\n      swap4\n      swap1\n      swap3\n      pop\n      jump\t// out\n        /* \"contract-442812f524.sol\":363:581  function isValidData(string memory _word, bytes memory sig) public view returns(bool){... */\n    tag_28:\n        /* \"contract-442812f524.sol\":443:447  bool */\n      0x00\n        /* \"contract-442812f524.sol\":457:472  bytes32 message */\n      dup1\n        /* \"contract-442812f524.sol\":503:508  _word */\n      dup4\n        /* \"contract-442812f524.sol\":485:509  abi.encodePacked( _word) */\n      add(0x20, mload(0x40))\n      tag_43\n      swap2\n      swap1\n      tag_39\n      jump\t// in\n    tag_43:\n      mload(0x40)\n      0x20\n      dup2\n      dup4\n      sub\n      sub\n      dup2\n      mstore\n      swap1\n      0x40\n      mstore\n        /* \"contract-442812f524.sol\":475:510  keccak256(abi.encodePacked( _word)) */\n      dup1\n      mload\n      swap1\n      0x20\n      add\n      keccak256\n        /* \"contract-442812f524.sol\":457:510  bytes32 message = keccak256(abi.encodePacked( _word)) */\n      swap1\n      pop\n        /* \"contract-442812f524.sol\":558:574  importantAddress */\n      0x00\n      dup1\n      sload\n      swap1\n      0x0100\n      exp\n      swap1\n      div\n      0xffffffffffffffffffffffffffffffffffffffff\n      and\n        /* \"contract-442812f524.sol\":527:574  recoverSigner(message, sig) == importantAddress */\n      0xffffffffffffffffffffffffffffffffffffffff\n      and\n        /* \"contract-442812f524.sol\":527:554  recoverSigner(message, sig) */\n      tag_44\n        /* \"contract-442812f524.sol\":541:548  message */\n      dup3\n        /* \"contract-442812f524.sol\":550:553  sig */\n      dup6\n        /* \"contract-442812f524.sol\":527:540  recoverSigner */\n      tag_10\n        /* \"contract-442812f524.sol\":527:554  recoverSigner(message, sig) */\n      jump\t// in\n    tag_44:\n        /* \"contract-442812f524.sol\":527:574  recoverSigner(message, sig) == importantAddress */\n      0xffffffffffffffffffffffffffffffffffffffff\n      and\n      eq\n        /* \"contract-442812f524.sol\":519:575  return (recoverSigner(message, sig) == importantAddress) */\n      swap2\n      pop\n      pop\n        /* \"contract-442812f524.sol\":363:581  function isValidData(string memory _word, bytes memory sig) public view returns(bool){... */\n      swap3\n      swap2\n      pop\n      pop\n      jump\t// out\n        /* \"#utility.yul\":7:82   */\n    tag_45:\n        /* \"#utility.yul\":40:46   */\n      0x00\n        /* \"#utility.yul\":73:75   */\n      0x40\n        /* \"#utility.yul\":67:76   */\n      mload\n        /* \"#utility.yul\":57:76   */\n      swap1\n      pop\n        /* \"#utility.yul\":7:82   */\n      swap1\n      jump\t// out\n        /* \"#utility.yul\":88:205   */\n    tag_46:\n        /* \"#utility.yul\":197:198   */\n      0x00\n        /* \"#utility.yul\":194:195   */\n      dup1\n        /* \"#utility.yul\":187:199   */\n      revert\n        /* \"#utility.yul\":211:328   */\n    tag_47:\n        /* \"#utility.yul\":320:321   */\n      0x00\n        /* \"#utility.yul\":317:318   */\n      dup1\n        /* \"#utility.yul\":310:322   */\n      revert\n        /* \"#utility.yul\":334:411   */\n    tag_48:\n        /* \"#utility.yul\":371:378   */\n      0x00\n        /* \"#utility.yul\":400:405   */\n      dup2\n        /* \"#utility.yul\":389:405   */\n      swap1\n      pop\n        /* \"#utility.yul\":334:411   */\n      swap2\n      swap1\n      pop\n      jump\t// out\n        /* \"#utility.yul\":417:539   */\n    tag_49:\n        /* \"#utility.yul\":490:514   */\n      tag_82\n        /* \"#utility.yul\":508:513   */\n      dup2\n        /* \"#utility.yul\":490:514   */\n      tag_48\n      jump\t// in\n    tag_82:\n        /* \"#utility.yul\":483:488   */\n      dup2\n        /* \"#utility.yul\":480:515   */\n      eq\n        /* \"#utility.yul\":470:533   */\n      tag_83\n      jumpi\n        /* \"#utility.yul\":529:530   */\n      0x00\n        /* \"#utility.yul\":526:527   */\n      dup1\n        /* \"#utility.yul\":519:531   */\n      revert\n        /* \"#utility.yul\":470:533   */\n    tag_83:\n        /* \"#utility.yul\":417:539   */\n      pop\n      jump\t// out\n        /* \"#utility.yul\":545:684   */\n    tag_50:\n        /* \"#utility.yul\":591:596   */\n      0x00\n        /* \"#utility.yul\":629:635   */\n      dup2\n        /* \"#utility.yul\":616:636   */\n      calldataload\n        /* \"#utility.yul\":607:636   */\n      swap1\n      pop\n        /* \"#utility.yul\":645:678   */\n      tag_85\n        /* \"#utility.yul\":672:677   */\n      dup2\n        /* \"#utility.yul\":645:678   */\n      tag_49\n      jump\t// in\n    tag_85:\n        /* \"#utility.yul\":545:684   */\n      swap3\n      swap2\n      pop\n      pop\n      jump\t// out\n        /* \"#utility.yul\":690:807   */\n    tag_51:\n        /* \"#utility.yul\":799:800   */\n      0x00\n        /* \"#utility.yul\":796:797   */\n      dup1\n        /* \"#utility.yul\":789:801   */\n      revert\n        /* \"#utility.yul\":813:930   */\n    tag_52:\n        /* \"#utility.yul\":922:923   */\n      0x00\n        /* \"#utility.yul\":919:920   */\n      dup1\n        /* \"#utility.yul\":912:924   */\n      revert\n        /* \"#utility.yul\":936:1038   */\n    tag_53:\n        /* \"#utility.yul\":977:983   */\n      0x00\n        /* \"#utility.yul\":1028:1030   */\n      0x1f\n        /* \"#utility.yul\":1024:1031   */\n      not\n        /* \"#utility.yul\":1019:1021   */\n      0x1f\n        /* \"#utility.yul\":1012:1017   */\n      dup4\n        /* \"#utility.yul\":1008:1022   */\n      add\n        /* \"#utility.yul\":1004:1032   */\n      and\n        /* \"#utility.yul\":994:1032   */\n      swap1\n      pop\n        /* \"#utility.yul\":936:1038   */\n      swap2\n      swap1\n      pop\n      jump\t// out\n        /* \"#utility.yul\":1044:1224   */\n    tag_54:\n        /* \"#utility.yul\":1092:1169   */\n      0x4e487b7100000000000000000000000000000000000000000000000000000000\n        /* \"#utility.yul\":1089:1090   */\n      0x00\n        /* \"#utility.yul\":1082:1170   */\n      mstore\n        /* \"#utility.yul\":1189:1193   */\n      0x41\n        /* \"#utility.yul\":1186:1187   */\n      0x04\n        /* \"#utility.yul\":1179:1194   */\n      mstore\n        /* \"#utility.yul\":1213:1217   */\n      0x24\n        /* \"#utility.yul\":1210:1211   */\n      0x00\n        /* \"#utility.yul\":1203:1218   */\n      revert\n        /* \"#utility.yul\":1230:1511   */\n    tag_55:\n        /* \"#utility.yul\":1313:1340   */\n      tag_91\n        /* \"#utility.yul\":1335:1339   */\n      dup3\n        /* \"#utility.yul\":1313:1340   */\n      tag_53\n      jump\t// in\n    tag_91:\n        /* \"#utility.yul\":1305:1311   */\n      dup2\n        /* \"#utility.yul\":1301:1341   */\n      add\n        /* \"#utility.yul\":1443:1449   */\n      dup2\n        /* \"#utility.yul\":1431:1441   */\n      dup2\n        /* \"#utility.yul\":1428:1450   */\n      lt\n        /* \"#utility.yul\":1407:1425   */\n      0xffffffffffffffff\n        /* \"#utility.yul\":1395:1405   */\n      dup3\n        /* \"#utility.yul\":1392:1426   */\n      gt\n        /* \"#utility.yul\":1389:1451   */\n      or\n        /* \"#utility.yul\":1386:1474   */\n      iszero\n      tag_92\n      jumpi\n        /* \"#utility.yul\":1454:1472   */\n      tag_93\n      tag_54\n      jump\t// in\n    tag_93:\n        /* \"#utility.yul\":1386:1474   */\n    tag_92:\n        /* \"#utility.yul\":1494:1504   */\n      dup1\n        /* \"#utility.yul\":1490:1492   */\n      0x40\n        /* \"#utility.yul\":1483:1505   */\n      mstore\n        /* \"#utility.yul\":1273:1511   */\n      pop\n        /* \"#utility.yul\":1230:1511   */\n      pop\n      pop\n      jump\t// out\n        /* \"#utility.yul\":1517:1646   */\n    tag_56:\n        /* \"#utility.yul\":1551:1557   */\n      0x00\n        /* \"#utility.yul\":1578:1598   */\n      tag_95\n      tag_45\n      jump\t// in\n    tag_95:\n        /* \"#utility.yul\":1568:1598   */\n      swap1\n      pop\n        /* \"#utility.yul\":1607:1640   */\n      tag_96\n        /* \"#utility.yul\":1635:1639   */\n      dup3\n        /* \"#utility.yul\":1627:1633   */\n      dup3\n        /* \"#utility.yul\":1607:1640   */\n      tag_55\n      jump\t// in\n    tag_96:\n        /* \"#utility.yul\":1517:1646   */\n      swap2\n      swap1\n      pop\n      jump\t// out\n        /* \"#utility.yul\":1652:1959   */\n    tag_57:\n        /* \"#utility.yul\":1713:1717   */\n      0x00\n        /* \"#utility.yul\":1803:1821   */\n      0xffffffffffffffff\n        /* \"#utility.yul\":1795:1801   */\n      dup3\n        /* \"#utility.yul\":1792:1822   */\n      gt\n        /* \"#utility.yul\":1789:1845   */\n      iszero\n      tag_98\n      jumpi\n        /* \"#utility.yul\":1825:1843   */\n      tag_99\n      tag_54\n      jump\t// in\n    tag_99:\n        /* \"#utility.yul\":1789:1845   */\n    tag_98:\n        /* \"#utility.yul\":1863:1892   */\n      tag_100\n        /* \"#utility.yul\":1885:1891   */\n      dup3\n        /* \"#utility.yul\":1863:1892   */\n      tag_53\n      jump\t// in\n    tag_100:\n        /* \"#utility.yul\":1855:1892   */\n      swap1\n      pop\n        /* \"#utility.yul\":1947:1951   */\n      0x20\n        /* \"#utility.yul\":1941:1945   */\n      dup2\n        /* \"#utility.yul\":1937:1952   */\n      add\n        /* \"#utility.yul\":1929:1952   */\n      swap1\n      pop\n        /* \"#utility.yul\":1652:1959   */\n      swap2\n      swap1\n      pop\n      jump\t// out\n        /* \"#utility.yul\":1965:2111   */\n    tag_58:\n        /* \"#utility.yul\":2062:2068   */\n      dup3\n        /* \"#utility.yul\":2057:2060   */\n      dup2\n        /* \"#utility.yul\":2052:2055   */\n      dup4\n        /* \"#utility.yul\":2039:2069   */\n      calldatacopy\n        /* \"#utility.yul\":2103:2104   */\n      0x00\n        /* \"#utility.yul\":2094:2100   */\n      dup4\n        /* \"#utility.yul\":2089:2092   */\n      dup4\n        /* \"#utility.yul\":2085:2101   */\n      add\n        /* \"#utility.yul\":2078:2105   */\n      mstore\n        /* \"#utility.yul\":1965:2111   */\n      pop\n      pop\n      pop\n      jump\t// out\n        /* \"#utility.yul\":2117:2540   */\n    tag_59:\n        /* \"#utility.yul\":2194:2199   */\n      0x00\n        /* \"#utility.yul\":2219:2284   */\n      tag_103\n        /* \"#utility.yul\":2235:2283   */\n      tag_104\n        /* \"#utility.yul\":2276:2282   */\n      dup5\n        /* \"#utility.yul\":2235:2283   */\n      tag_57\n      jump\t// in\n    tag_104:\n        /* \"#utility.yul\":2219:2284   */\n      tag_56\n      jump\t// in\n    tag_103:\n        /* \"#utility.yul\":2210:2284   */\n      swap1\n      pop\n        /* \"#utility.yul\":2307:2313   */\n      dup3\n        /* \"#utility.yul\":2300:2305   */\n      dup2\n        /* \"#utility.yul\":2293:2314   */\n      mstore\n        /* \"#utility.yul\":2345:2349   */\n      0x20\n        /* \"#utility.yul\":2338:2343   */\n      dup2\n        /* \"#utility.yul\":2334:2350   */\n      add\n        /* \"#utility.yul\":2383:2386   */\n      dup5\n        /* \"#utility.yul\":2374:2380   */\n      dup5\n        /* \"#utility.yul\":2369:2372   */\n      dup5\n        /* \"#utility.yul\":2365:2381   */\n      add\n        /* \"#utility.yul\":2362:2387   */\n      gt\n        /* \"#utility.yul\":2359:2471   */\n      iszero\n      tag_105\n      jumpi\n        /* \"#utility.yul\":2390:2469   */\n      tag_106\n      tag_52\n      jump\t// in\n    tag_106:\n        /* \"#utility.yul\":2359:2471   */\n    tag_105:\n        /* \"#utility.yul\":2480:2534   */\n      tag_107\n        /* \"#utility.yul\":2527:2533   */\n      dup5\n        /* \"#utility.yul\":2522:2525   */\n      dup3\n        /* \"#utility.yul\":2517:2520   */\n      dup6\n        /* \"#utility.yul\":2480:2534   */\n      tag_58\n      jump\t// in\n    tag_107:\n        /* \"#utility.yul\":2200:2540   */\n      pop\n        /* \"#utility.yul\":2117:2540   */\n      swap4\n      swap3\n      pop\n      pop\n      pop\n      jump\t// out\n        /* \"#utility.yul\":2559:2897   */\n    tag_60:\n        /* \"#utility.yul\":2614:2619   */\n      0x00\n        /* \"#utility.yul\":2663:2666   */\n      dup3\n        /* \"#utility.yul\":2656:2660   */\n      0x1f\n        /* \"#utility.yul\":2648:2654   */\n      dup4\n        /* \"#utility.yul\":2644:2661   */\n      add\n        /* \"#utility.yul\":2640:2667   */\n      slt\n        /* \"#utility.yul\":2630:2752   */\n      tag_109\n      jumpi\n        /* \"#utility.yul\":2671:2750   */\n      tag_110\n      tag_51\n      jump\t// in\n    tag_110:\n        /* \"#utility.yul\":2630:2752   */\n    tag_109:\n        /* \"#utility.yul\":2788:2794   */\n      dup2\n        /* \"#utility.yul\":2775:2795   */\n      calldataload\n        /* \"#utility.yul\":2813:2891   */\n      tag_111\n        /* \"#utility.yul\":2887:2890   */\n      dup5\n        /* \"#utility.yul\":2879:2885   */\n      dup3\n        /* \"#utility.yul\":2872:2876   */\n      0x20\n        /* \"#utility.yul\":2864:2870   */\n      dup7\n        /* \"#utility.yul\":2860:2877   */\n      add\n        /* \"#utility.yul\":2813:2891   */\n      tag_59\n      jump\t// in\n    tag_111:\n        /* \"#utility.yul\":2804:2891   */\n      swap2\n      pop\n        /* \"#utility.yul\":2620:2897   */\n      pop\n        /* \"#utility.yul\":2559:2897   */\n      swap3\n      swap2\n      pop\n      pop\n      jump\t// out\n        /* \"#utility.yul\":2903:3555   */\n    tag_9:\n        /* \"#utility.yul\":2980:2986   */\n      0x00\n        /* \"#utility.yul\":2988:2994   */\n      dup1\n        /* \"#utility.yul\":3037:3039   */\n      0x40\n        /* \"#utility.yul\":3025:3034   */\n      dup4\n        /* \"#utility.yul\":3016:3023   */\n      dup6\n        /* \"#utility.yul\":3012:3035   */\n      sub\n        /* \"#utility.yul\":3008:3040   */\n      slt\n        /* \"#utility.yul\":3005:3124   */\n      iszero\n      tag_113\n      jumpi\n        /* \"#utility.yul\":3043:3122   */\n      tag_114\n      tag_46\n      jump\t// in\n    tag_114:\n        /* \"#utility.yul\":3005:3124   */\n    tag_113:\n        /* \"#utility.yul\":3163:3164   */\n      0x00\n        /* \"#utility.yul\":3188:3241   */\n      tag_115\n        /* \"#utility.yul\":3233:3240   */\n      dup6\n        /* \"#utility.yul\":3224:3230   */\n      dup3\n        /* \"#utility.yul\":3213:3222   */\n      dup7\n        /* \"#utility.yul\":3209:3231   */\n      add\n        /* \"#utility.yul\":3188:3241   */\n      tag_50\n      jump\t// in\n    tag_115:\n        /* \"#utility.yul\":3178:3241   */\n      swap3\n      pop\n        /* \"#utility.yul\":3134:3251   */\n      pop\n        /* \"#utility.yul\":3318:3320   */\n      0x20\n        /* \"#utility.yul\":3307:3316   */\n      dup4\n        /* \"#utility.yul\":3303:3321   */\n      add\n        /* \"#utility.yul\":3290:3322   */\n      calldataload\n        /* \"#utility.yul\":3349:3367   */\n      0xffffffffffffffff\n        /* \"#utility.yul\":3341:3347   */\n      dup2\n        /* \"#utility.yul\":3338:3368   */\n      gt\n        /* \"#utility.yul\":3335:3452   */\n      iszero\n      tag_116\n      jumpi\n        /* \"#utility.yul\":3371:3450   */\n      tag_117\n      tag_47\n      jump\t// in\n    tag_117:\n        /* \"#utility.yul\":3335:3452   */\n    tag_116:\n        /* \"#utility.yul\":3476:3538   */\n      tag_118\n        /* \"#utility.yul\":3530:3537   */\n      dup6\n        /* \"#utility.yul\":3521:3527   */\n      dup3\n        /* \"#utility.yul\":3510:3519   */\n      dup7\n        /* \"#utility.yul\":3506:3528   */\n      add\n        /* \"#utility.yul\":3476:3538   */\n      tag_60\n      jump\t// in\n    tag_118:\n        /* \"#utility.yul\":3466:3538   */\n      swap2\n      pop\n        /* \"#utility.yul\":3261:3548   */\n      pop\n        /* \"#utility.yul\":2903:3555   */\n      swap3\n      pop\n      swap3\n      swap1\n      pop\n      jump\t// out\n        /* \"#utility.yul\":3561:3687   */\n    tag_61:\n        /* \"#utility.yul\":3598:3605   */\n      0x00\n        /* \"#utility.yul\":3638:3680   */\n      0xffffffffffffffffffffffffffffffffffffffff\n        /* \"#utility.yul\":3631:3636   */\n      dup3\n        /* \"#utility.yul\":3627:3681   */\n      and\n        /* \"#utility.yul\":3616:3681   */\n      swap1\n      pop\n        /* \"#utility.yul\":3561:3687   */\n      swap2\n      swap1\n      pop\n      jump\t// out\n        /* \"#utility.yul\":3693:3789   */\n    tag_62:\n        /* \"#utility.yul\":3730:3737   */\n      0x00\n        /* \"#utility.yul\":3759:3783   */\n      tag_121\n        /* \"#utility.yul\":3777:3782   */\n      dup3\n        /* \"#utility.yul\":3759:3783   */\n      tag_61\n      jump\t// in\n    tag_121:\n        /* \"#utility.yul\":3748:3783   */\n      swap1\n      pop\n        /* \"#utility.yul\":3693:3789   */\n      swap2\n      swap1\n      pop\n      jump\t// out\n        /* \"#utility.yul\":3795:3913   */\n    tag_63:\n        /* \"#utility.yul\":3882:3906   */\n      tag_123\n        /* \"#utility.yul\":3900:3905   */\n      dup2\n        /* \"#utility.yul\":3882:3906   */\n      tag_62\n      jump\t// in\n    tag_123:\n        /* \"#utility.yul\":3877:3880   */\n      dup3\n        /* \"#utility.yul\":3870:3907   */\n      mstore\n        /* \"#utility.yul\":3795:3913   */\n      pop\n      pop\n      jump\t// out\n        /* \"#utility.yul\":3919:4141   */\n    tag_12:\n        /* \"#utility.yul\":4012:4016   */\n      0x00\n        /* \"#utility.yul\":4050:4052   */\n      0x20\n        /* \"#utility.yul\":4039:4048   */\n      dup3\n        /* \"#utility.yul\":4035:4053   */\n      add\n        /* \"#utility.yul\":4027:4053   */\n      swap1\n      pop\n        /* \"#utility.yul\":4063:4134   */\n      tag_125\n        /* \"#utility.yul\":4131:4132   */\n      0x00\n        /* \"#utility.yul\":4120:4129   */\n      dup4\n        /* \"#utility.yul\":4116:4133   */\n      add\n        /* \"#utility.yul\":4107:4113   */\n      dup5\n        /* \"#utility.yul\":4063:4134   */\n      tag_63\n      jump\t// in\n    tag_125:\n        /* \"#utility.yul\":3919:4141   */\n      swap3\n      swap2\n      pop\n      pop\n      jump\t// out\n        /* \"#utility.yul\":4147:4455   */\n    tag_64:\n        /* \"#utility.yul\":4209:4213   */\n      0x00\n        /* \"#utility.yul\":4299:4317   */\n      0xffffffffffffffff\n        /* \"#utility.yul\":4291:4297   */\n      dup3\n        /* \"#utility.yul\":4288:4318   */\n      gt\n        /* \"#utility.yul\":4285:4341   */\n      iszero\n      tag_127\n      jumpi\n        /* \"#utility.yul\":4321:4339   */\n      tag_128\n      tag_54\n      jump\t// in\n    tag_128:\n        /* \"#utility.yul\":4285:4341   */\n    tag_127:\n        /* \"#utility.yul\":4359:4388   */\n      tag_129\n        /* \"#utility.yul\":4381:4387   */\n      dup3\n        /* \"#utility.yul\":4359:4388   */\n      tag_53\n      jump\t// in\n    tag_129:\n        /* \"#utility.yul\":4351:4388   */\n      swap1\n      pop\n        /* \"#utility.yul\":4443:4447   */\n      0x20\n        /* \"#utility.yul\":4437:4441   */\n      dup2\n        /* \"#utility.yul\":4433:4448   */\n      add\n        /* \"#utility.yul\":4425:4448   */\n      swap1\n      pop\n        /* \"#utility.yul\":4147:4455   */\n      swap2\n      swap1\n      pop\n      jump\t// out\n        /* \"#utility.yul\":4461:4886   */\n    tag_65:\n        /* \"#utility.yul\":4539:4544   */\n      0x00\n        /* \"#utility.yul\":4564:4630   */\n      tag_131\n        /* \"#utility.yul\":4580:4629   */\n      tag_132\n        /* \"#utility.yul\":4622:4628   */\n      dup5\n        /* \"#utility.yul\":4580:4629   */\n      tag_64\n      jump\t// in\n    tag_132:\n        /* \"#utility.yul\":4564:4630   */\n      tag_56\n      jump\t// in\n    tag_131:\n        /* \"#utility.yul\":4555:4630   */\n      swap1\n      pop\n        /* \"#utility.yul\":4653:4659   */\n      dup3\n        /* \"#utility.yul\":4646:4651   */\n      dup2\n        /* \"#utility.yul\":4639:4660   */\n      mstore\n        /* \"#utility.yul\":4691:4695   */\n      0x20\n        /* \"#utility.yul\":4684:4689   */\n      dup2\n        /* \"#utility.yul\":4680:4696   */\n      add\n        /* \"#utility.yul\":4729:4732   */\n      dup5\n        /* \"#utility.yul\":4720:4726   */\n      dup5\n        /* \"#utility.yul\":4715:4718   */\n      dup5\n        /* \"#utility.yul\":4711:4727   */\n      add\n        /* \"#utility.yul\":4708:4733   */\n      gt\n        /* \"#utility.yul\":4705:4817   */\n      iszero\n      tag_133\n      jumpi\n        /* \"#utility.yul\":4736:4815   */\n      tag_134\n      tag_52\n      jump\t// in\n    tag_134:\n        /* \"#utility.yul\":4705:4817   */\n    tag_133:\n        /* \"#utility.yul\":4826:4880   */\n      tag_135\n        /* \"#utility.yul\":4873:4879   */\n      dup5\n        /* \"#utility.yul\":4868:4871   */\n      dup3\n        /* \"#utility.yul\":4863:4866   */\n      dup6\n        /* \"#utility.yul\":4826:4880   */\n      tag_58\n      jump\t// in\n    tag_135:\n        /* \"#utility.yul\":4545:4886   */\n      pop\n        /* \"#utility.yul\":4461:4886   */\n      swap4\n      swap3\n      pop\n      pop\n      pop\n      jump\t// out\n        /* \"#utility.yul\":4906:5246   */\n    tag_66:\n        /* \"#utility.yul\":4962:4967   */\n      0x00\n        /* \"#utility.yul\":5011:5014   */\n      dup3\n        /* \"#utility.yul\":5004:5008   */\n      0x1f\n        /* \"#utility.yul\":4996:5002   */\n      dup4\n        /* \"#utility.yul\":4992:5009   */\n      add\n        /* \"#utility.yul\":4988:5015   */\n      slt\n        /* \"#utility.yul\":4978:5100   */\n      tag_137\n      jumpi\n        /* \"#utility.yul\":5019:5098   */\n      tag_138\n      tag_51\n      jump\t// in\n    tag_138:\n        /* \"#utility.yul\":4978:5100   */\n    tag_137:\n        /* \"#utility.yul\":5136:5142   */\n      dup2\n        /* \"#utility.yul\":5123:5143   */\n      calldataload\n        /* \"#utility.yul\":5161:5240   */\n      tag_139\n        /* \"#utility.yul\":5236:5239   */\n      dup5\n        /* \"#utility.yul\":5228:5234   */\n      dup3\n        /* \"#utility.yul\":5221:5225   */\n      0x20\n        /* \"#utility.yul\":5213:5219   */\n      dup7\n        /* \"#utility.yul\":5209:5226   */\n      add\n        /* \"#utility.yul\":5161:5240   */\n      tag_65\n      jump\t// in\n    tag_139:\n        /* \"#utility.yul\":5152:5240   */\n      swap2\n      pop\n        /* \"#utility.yul\":4968:5246   */\n      pop\n        /* \"#utility.yul\":4906:5246   */\n      swap3\n      swap2\n      pop\n      pop\n      jump\t// out\n        /* \"#utility.yul\":5252:5761   */\n    tag_15:\n        /* \"#utility.yul\":5321:5327   */\n      0x00\n        /* \"#utility.yul\":5370:5372   */\n      0x20\n        /* \"#utility.yul\":5358:5367   */\n      dup3\n        /* \"#utility.yul\":5349:5356   */\n      dup5\n        /* \"#utility.yul\":5345:5368   */\n      sub\n        /* \"#utility.yul\":5341:5373   */\n      slt\n        /* \"#utility.yul\":5338:5457   */\n      iszero\n      tag_141\n      jumpi\n        /* \"#utility.yul\":5376:5455   */\n      tag_142\n      tag_46\n      jump\t// in\n    tag_142:\n        /* \"#utility.yul\":5338:5457   */\n    tag_141:\n        /* \"#utility.yul\":5524:5525   */\n      0x00\n        /* \"#utility.yul\":5513:5522   */\n      dup3\n        /* \"#utility.yul\":5509:5526   */\n      add\n        /* \"#utility.yul\":5496:5527   */\n      calldataload\n        /* \"#utility.yul\":5554:5572   */\n      0xffffffffffffffff\n        /* \"#utility.yul\":5546:5552   */\n      dup2\n        /* \"#utility.yul\":5543:5573   */\n      gt\n        /* \"#utility.yul\":5540:5657   */\n      iszero\n      tag_143\n      jumpi\n        /* \"#utility.yul\":5576:5655   */\n      tag_144\n      tag_47\n      jump\t// in\n    tag_144:\n        /* \"#utility.yul\":5540:5657   */\n    tag_143:\n        /* \"#utility.yul\":5681:5744   */\n      tag_145\n        /* \"#utility.yul\":5736:5743   */\n      dup5\n        /* \"#utility.yul\":5727:5733   */\n      dup3\n        /* \"#utility.yul\":5716:5725   */\n      dup6\n        /* \"#utility.yul\":5712:5734   */\n      add\n        /* \"#utility.yul\":5681:5744   */\n      tag_66\n      jump\t// in\n    tag_145:\n        /* \"#utility.yul\":5671:5744   */\n      swap2\n      pop\n        /* \"#utility.yul\":5467:5754   */\n      pop\n        /* \"#utility.yul\":5252:5761   */\n      swap3\n      swap2\n      pop\n      pop\n      jump\t// out\n        /* \"#utility.yul\":5767:5885   */\n    tag_67:\n        /* \"#utility.yul\":5854:5878   */\n      tag_147\n        /* \"#utility.yul\":5872:5877   */\n      dup2\n        /* \"#utility.yul\":5854:5878   */\n      tag_48\n      jump\t// in\n    tag_147:\n        /* \"#utility.yul\":5849:5852   */\n      dup3\n        /* \"#utility.yul\":5842:5879   */\n      mstore\n        /* \"#utility.yul\":5767:5885   */\n      pop\n      pop\n      jump\t// out\n        /* \"#utility.yul\":5891:6113   */\n    tag_18:\n        /* \"#utility.yul\":5984:5988   */\n      0x00\n        /* \"#utility.yul\":6022:6024   */\n      0x20\n        /* \"#utility.yul\":6011:6020   */\n      dup3\n        /* \"#utility.yul\":6007:6025   */\n      add\n        /* \"#utility.yul\":5999:6025   */\n      swap1\n      pop\n        /* \"#utility.yul\":6035:6106   */\n      tag_149\n        /* \"#utility.yul\":6103:6104   */\n      0x00\n        /* \"#utility.yul\":6092:6101   */\n      dup4\n        /* \"#utility.yul\":6088:6105   */\n      add\n        /* \"#utility.yul\":6079:6085   */\n      dup5\n        /* \"#utility.yul\":6035:6106   */\n      tag_67\n      jump\t// in\n    tag_149:\n        /* \"#utility.yul\":5891:6113   */\n      swap3\n      swap2\n      pop\n      pop\n      jump\t// out\n        /* \"#utility.yul\":6119:6626   */\n    tag_21:\n        /* \"#utility.yul\":6187:6193   */\n      0x00\n        /* \"#utility.yul\":6236:6238   */\n      0x20\n        /* \"#utility.yul\":6224:6233   */\n      dup3\n        /* \"#utility.yul\":6215:6222   */\n      dup5\n        /* \"#utility.yul\":6211:6234   */\n      sub\n        /* \"#utility.yul\":6207:6239   */\n      slt\n        /* \"#utility.yul\":6204:6323   */\n      iszero\n      tag_151\n      jumpi\n        /* \"#utility.yul\":6242:6321   */\n      tag_152\n      tag_46\n      jump\t// in\n    tag_152:\n        /* \"#utility.yul\":6204:6323   */\n    tag_151:\n        /* \"#utility.yul\":6390:6391   */\n      0x00\n        /* \"#utility.yul\":6379:6388   */\n      dup3\n        /* \"#utility.yul\":6375:6392   */\n      add\n        /* \"#utility.yul\":6362:6393   */\n      calldataload\n        /* \"#utility.yul\":6420:6438   */\n      0xffffffffffffffff\n        /* \"#utility.yul\":6412:6418   */\n      dup2\n        /* \"#utility.yul\":6409:6439   */\n      gt\n        /* \"#utility.yul\":6406:6523   */\n      iszero\n      tag_153\n      jumpi\n        /* \"#utility.yul\":6442:6521   */\n      tag_154\n      tag_47\n      jump\t// in\n    tag_154:\n        /* \"#utility.yul\":6406:6523   */\n    tag_153:\n        /* \"#utility.yul\":6547:6609   */\n      tag_155\n        /* \"#utility.yul\":6601:6608   */\n      dup5\n        /* \"#utility.yul\":6592:6598   */\n      dup3\n        /* \"#utility.yul\":6581:6590   */\n      dup6\n        /* \"#utility.yul\":6577:6599   */\n      add\n        /* \"#utility.yul\":6547:6609   */\n      tag_60\n      jump\t// in\n    tag_155:\n        /* \"#utility.yul\":6537:6609   */\n      swap2\n      pop\n        /* \"#utility.yul\":6333:6619   */\n      pop\n        /* \"#utility.yul\":6119:6626   */\n      swap3\n      swap2\n      pop\n      pop\n      jump\t// out\n        /* \"#utility.yul\":6632:6718   */\n    tag_68:\n        /* \"#utility.yul\":6667:6674   */\n      0x00\n        /* \"#utility.yul\":6707:6711   */\n      0xff\n        /* \"#utility.yul\":6700:6705   */\n      dup3\n        /* \"#utility.yul\":6696:6712   */\n      and\n        /* \"#utility.yul\":6685:6712   */\n      swap1\n      pop\n        /* \"#utility.yul\":6632:6718   */\n      swap2\n      swap1\n      pop\n      jump\t// out\n        /* \"#utility.yul\":6724:6836   */\n    tag_69:\n        /* \"#utility.yul\":6807:6829   */\n      tag_158\n        /* \"#utility.yul\":6823:6828   */\n      dup2\n        /* \"#utility.yul\":6807:6829   */\n      tag_68\n      jump\t// in\n    tag_158:\n        /* \"#utility.yul\":6802:6805   */\n      dup3\n        /* \"#utility.yul\":6795:6830   */\n      mstore\n        /* \"#utility.yul\":6724:6836   */\n      pop\n      pop\n      jump\t// out\n        /* \"#utility.yul\":6842:7276   */\n    tag_24:\n        /* \"#utility.yul\":6987:6991   */\n      0x00\n        /* \"#utility.yul\":7025:7027   */\n      0x60\n        /* \"#utility.yul\":7014:7023   */\n      dup3\n        /* \"#utility.yul\":7010:7028   */\n      add\n        /* \"#utility.yul\":7002:7028   */\n      swap1\n      pop\n        /* \"#utility.yul\":7038:7105   */\n      tag_160\n        /* \"#utility.yul\":7102:7103   */\n      0x00\n        /* \"#utility.yul\":7091:7100   */\n      dup4\n        /* \"#utility.yul\":7087:7104   */\n      add\n        /* \"#utility.yul\":7078:7084   */\n      dup7\n        /* \"#utility.yul\":7038:7105   */\n      tag_69\n      jump\t// in\n    tag_160:\n        /* \"#utility.yul\":7115:7187   */\n      tag_161\n        /* \"#utility.yul\":7183:7185   */\n      0x20\n        /* \"#utility.yul\":7172:7181   */\n      dup4\n        /* \"#utility.yul\":7168:7186   */\n      add\n        /* \"#utility.yul\":7159:7165   */\n      dup6\n        /* \"#utility.yul\":7115:7187   */\n      tag_67\n      jump\t// in\n    tag_161:\n        /* \"#utility.yul\":7197:7269   */\n      tag_162\n        /* \"#utility.yul\":7265:7267   */\n      0x40\n        /* \"#utility.yul\":7254:7263   */\n      dup4\n        /* \"#utility.yul\":7250:7268   */\n      add\n        /* \"#utility.yul\":7241:7247   */\n      dup5\n        /* \"#utility.yul\":7197:7269   */\n      tag_67\n      jump\t// in\n    tag_162:\n        /* \"#utility.yul\":6842:7276   */\n      swap5\n      swap4\n      pop\n      pop\n      pop\n      pop\n      jump\t// out\n        /* \"#utility.yul\":7282:8114   */\n    tag_27:\n        /* \"#utility.yul\":7369:7375   */\n      0x00\n        /* \"#utility.yul\":7377:7383   */\n      dup1\n        /* \"#utility.yul\":7426:7428   */\n      0x40\n        /* \"#utility.yul\":7414:7423   */\n      dup4\n        /* \"#utility.yul\":7405:7412   */\n      dup6\n        /* \"#utility.yul\":7401:7424   */\n      sub\n        /* \"#utility.yul\":7397:7429   */\n      slt\n        /* \"#utility.yul\":7394:7513   */\n      iszero\n      tag_164\n      jumpi\n        /* \"#utility.yul\":7432:7511   */\n      tag_165\n      tag_46\n      jump\t// in\n    tag_165:\n        /* \"#utility.yul\":7394:7513   */\n    tag_164:\n        /* \"#utility.yul\":7580:7581   */\n      0x00\n        /* \"#utility.yul\":7569:7578   */\n      dup4\n        /* \"#utility.yul\":7565:7582   */\n      add\n        /* \"#utility.yul\":7552:7583   */\n      calldataload\n        /* \"#utility.yul\":7610:7628   */\n      0xffffffffffffffff\n        /* \"#utility.yul\":7602:7608   */\n      dup2\n        /* \"#utility.yul\":7599:7629   */\n      gt\n        /* \"#utility.yul\":7596:7713   */\n      iszero\n      tag_166\n      jumpi\n        /* \"#utility.yul\":7632:7711   */\n      tag_167\n      tag_47\n      jump\t// in\n    tag_167:\n        /* \"#utility.yul\":7596:7713   */\n    tag_166:\n        /* \"#utility.yul\":7737:7800   */\n      tag_168\n        /* \"#utility.yul\":7792:7799   */\n      dup6\n        /* \"#utility.yul\":7783:7789   */\n      dup3\n        /* \"#utility.yul\":7772:7781   */\n      dup7\n        /* \"#utility.yul\":7768:7790   */\n      add\n        /* \"#utility.yul\":7737:7800   */\n      tag_66\n      jump\t// in\n    tag_168:\n        /* \"#utility.yul\":7727:7800   */\n      swap3\n      pop\n        /* \"#utility.yul\":7523:7810   */\n      pop\n        /* \"#utility.yul\":7877:7879   */\n      0x20\n        /* \"#utility.yul\":7866:7875   */\n      dup4\n        /* \"#utility.yul\":7862:7880   */\n      add\n        /* \"#utility.yul\":7849:7881   */\n      calldataload\n        /* \"#utility.yul\":7908:7926   */\n      0xffffffffffffffff\n        /* \"#utility.yul\":7900:7906   */\n      dup2\n        /* \"#utility.yul\":7897:7927   */\n      gt\n        /* \"#utility.yul\":7894:8011   */\n      iszero\n      tag_169\n      jumpi\n        /* \"#utility.yul\":7930:8009   */\n      tag_170\n      tag_47\n      jump\t// in\n    tag_170:\n        /* \"#utility.yul\":7894:8011   */\n    tag_169:\n        /* \"#utility.yul\":8035:8097   */\n      tag_171\n        /* \"#utility.yul\":8089:8096   */\n      dup6\n        /* \"#utility.yul\":8080:8086   */\n      dup3\n        /* \"#utility.yul\":8069:8078   */\n      dup7\n        /* \"#utility.yul\":8065:8087   */\n      add\n        /* \"#utility.yul\":8035:8097   */\n      tag_60\n      jump\t// in\n    tag_171:\n        /* \"#utility.yul\":8025:8097   */\n      swap2\n      pop\n        /* \"#utility.yul\":7820:8107   */\n      pop\n        /* \"#utility.yul\":7282:8114   */\n      swap3\n      pop\n      swap3\n      swap1\n      pop\n      jump\t// out\n        /* \"#utility.yul\":8120:8210   */\n    tag_70:\n        /* \"#utility.yul\":8154:8161   */\n      0x00\n        /* \"#utility.yul\":8197:8202   */\n      dup2\n        /* \"#utility.yul\":8190:8203   */\n      iszero\n        /* \"#utility.yul\":8183:8204   */\n      iszero\n        /* \"#utility.yul\":8172:8204   */\n      swap1\n      pop\n        /* \"#utility.yul\":8120:8210   */\n      swap2\n      swap1\n      pop\n      jump\t// out\n        /* \"#utility.yul\":8216:8325   */\n    tag_71:\n        /* \"#utility.yul\":8297:8318   */\n      tag_174\n        /* \"#utility.yul\":8312:8317   */\n      dup2\n        /* \"#utility.yul\":8297:8318   */\n      tag_70\n      jump\t// in\n    tag_174:\n        /* \"#utility.yul\":8292:8295   */\n      dup3\n        /* \"#utility.yul\":8285:8319   */\n      mstore\n        /* \"#utility.yul\":8216:8325   */\n      pop\n      pop\n      jump\t// out\n        /* \"#utility.yul\":8331:8541   */\n    tag_30:\n        /* \"#utility.yul\":8418:8422   */\n      0x00\n        /* \"#utility.yul\":8456:8458   */\n      0x20\n        /* \"#utility.yul\":8445:8454   */\n      dup3\n        /* \"#utility.yul\":8441:8459   */\n      add\n        /* \"#utility.yul\":8433:8459   */\n      swap1\n      pop\n        /* \"#utility.yul\":8469:8534   */\n      tag_176\n        /* \"#utility.yul\":8531:8532   */\n      0x00\n        /* \"#utility.yul\":8520:8529   */\n      dup4\n        /* \"#utility.yul\":8516:8533   */\n      add\n        /* \"#utility.yul\":8507:8513   */\n      dup5\n        /* \"#utility.yul\":8469:8534   */\n      tag_71\n      jump\t// in\n    tag_176:\n        /* \"#utility.yul\":8331:8541   */\n      swap3\n      swap2\n      pop\n      pop\n      jump\t// out\n        /* \"#utility.yul\":8547:9092   */\n    tag_34:\n        /* \"#utility.yul\":8720:8724   */\n      0x00\n        /* \"#utility.yul\":8758:8761   */\n      0x80\n        /* \"#utility.yul\":8747:8756   */\n      dup3\n        /* \"#utility.yul\":8743:8762   */\n      add\n        /* \"#utility.yul\":8735:8762   */\n      swap1\n      pop\n        /* \"#utility.yul\":8772:8843   */\n      tag_178\n        /* \"#utility.yul\":8840:8841   */\n      0x00\n        /* \"#utility.yul\":8829:8838   */\n      dup4\n        /* \"#utility.yul\":8825:8842   */\n      add\n        /* \"#utility.yul\":8816:8822   */\n      dup8\n        /* \"#utility.yul\":8772:8843   */\n      tag_67\n      jump\t// in\n    tag_178:\n        /* \"#utility.yul\":8853:8921   */\n      tag_179\n        /* \"#utility.yul\":8917:8919   */\n      0x20\n        /* \"#utility.yul\":8906:8915   */\n      dup4\n        /* \"#utility.yul\":8902:8920   */\n      add\n        /* \"#utility.yul\":8893:8899   */\n      dup7\n        /* \"#utility.yul\":8853:8921   */\n      tag_69\n      jump\t// in\n    tag_179:\n        /* \"#utility.yul\":8931:9003   */\n      tag_180\n        /* \"#utility.yul\":8999:9001   */\n      0x40\n        /* \"#utility.yul\":8988:8997   */\n      dup4\n        /* \"#utility.yul\":8984:9002   */\n      add\n        /* \"#utility.yul\":8975:8981   */\n      dup6\n        /* \"#utility.yul\":8931:9003   */\n      tag_67\n      jump\t// in\n    tag_180:\n        /* \"#utility.yul\":9013:9085   */\n      tag_181\n        /* \"#utility.yul\":9081:9083   */\n      0x60\n        /* \"#utility.yul\":9070:9079   */\n      dup4\n        /* \"#utility.yul\":9066:9084   */\n      add\n        /* \"#utility.yul\":9057:9063   */\n      dup5\n        /* \"#utility.yul\":9013:9085   */\n      tag_67\n      jump\t// in\n    tag_181:\n        /* \"#utility.yul\":8547:9092   */\n      swap6\n      swap5\n      pop\n      pop\n      pop\n      pop\n      pop\n      jump\t// out\n        /* \"#utility.yul\":9098:9197   */\n    tag_72:\n        /* \"#utility.yul\":9150:9156   */\n      0x00\n        /* \"#utility.yul\":9184:9189   */\n      dup2\n        /* \"#utility.yul\":9178:9190   */\n      mload\n        /* \"#utility.yul\":9168:9190   */\n      swap1\n      pop\n        /* \"#utility.yul\":9098:9197   */\n      swap2\n      swap1\n      pop\n      jump\t// out\n        /* \"#utility.yul\":9203:9351   */\n    tag_73:\n        /* \"#utility.yul\":9305:9316   */\n      0x00\n        /* \"#utility.yul\":9342:9345   */\n      dup2\n        /* \"#utility.yul\":9327:9345   */\n      swap1\n      pop\n        /* \"#utility.yul\":9203:9351   */\n      swap3\n      swap2\n      pop\n      pop\n      jump\t// out\n        /* \"#utility.yul\":9357:9603   */\n    tag_74:\n        /* \"#utility.yul\":9438:9439   */\n      0x00\n        /* \"#utility.yul\":9448:9561   */\n    tag_185:\n        /* \"#utility.yul\":9462:9468   */\n      dup4\n        /* \"#utility.yul\":9459:9460   */\n      dup2\n        /* \"#utility.yul\":9456:9469   */\n      lt\n        /* \"#utility.yul\":9448:9561   */\n      iszero\n      tag_187\n      jumpi\n        /* \"#utility.yul\":9547:9548   */\n      dup1\n        /* \"#utility.yul\":9542:9545   */\n      dup3\n        /* \"#utility.yul\":9538:9549   */\n      add\n        /* \"#utility.yul\":9532:9550   */\n      mload\n        /* \"#utility.yul\":9528:9529   */\n      dup2\n        /* \"#utility.yul\":9523:9526   */\n      dup5\n        /* \"#utility.yul\":9519:9530   */\n      add\n        /* \"#utility.yul\":9512:9551   */\n      mstore\n        /* \"#utility.yul\":9484:9486   */\n      0x20\n        /* \"#utility.yul\":9481:9482   */\n      dup2\n        /* \"#utility.yul\":9477:9487   */\n      add\n        /* \"#utility.yul\":9472:9487   */\n      swap1\n      pop\n        /* \"#utility.yul\":9448:9561   */\n      jump(tag_185)\n    tag_187:\n        /* \"#utility.yul\":9595:9596   */\n      0x00\n        /* \"#utility.yul\":9586:9592   */\n      dup5\n        /* \"#utility.yul\":9581:9584   */\n      dup5\n        /* \"#utility.yul\":9577:9593   */\n      add\n        /* \"#utility.yul\":9570:9597   */\n      mstore\n        /* \"#utility.yul\":9419:9603   */\n      pop\n        /* \"#utility.yul\":9357:9603   */\n      pop\n      pop\n      pop\n      jump\t// out\n        /* \"#utility.yul\":9609:9999   */\n    tag_75:\n        /* \"#utility.yul\":9715:9718   */\n      0x00\n        /* \"#utility.yul\":9743:9782   */\n      tag_189\n        /* \"#utility.yul\":9776:9781   */\n      dup3\n        /* \"#utility.yul\":9743:9782   */\n      tag_72\n      jump\t// in\n    tag_189:\n        /* \"#utility.yul\":9798:9887   */\n      tag_190\n        /* \"#utility.yul\":9880:9886   */\n      dup2\n        /* \"#utility.yul\":9875:9878   */\n      dup6\n        /* \"#utility.yul\":9798:9887   */\n      tag_73\n      jump\t// in\n    tag_190:\n        /* \"#utility.yul\":9791:9887   */\n      swap4\n      pop\n        /* \"#utility.yul\":9896:9961   */\n      tag_191\n        /* \"#utility.yul\":9954:9960   */\n      dup2\n        /* \"#utility.yul\":9949:9952   */\n      dup6\n        /* \"#utility.yul\":9942:9946   */\n      0x20\n        /* \"#utility.yul\":9935:9940   */\n      dup7\n        /* \"#utility.yul\":9931:9947   */\n      add\n        /* \"#utility.yul\":9896:9961   */\n      tag_74\n      jump\t// in\n    tag_191:\n        /* \"#utility.yul\":9986:9992   */\n      dup1\n        /* \"#utility.yul\":9981:9984   */\n      dup5\n        /* \"#utility.yul\":9977:9993   */\n      add\n        /* \"#utility.yul\":9970:9993   */\n      swap2\n      pop\n        /* \"#utility.yul\":9719:9999   */\n      pop\n        /* \"#utility.yul\":9609:9999   */\n      swap3\n      swap2\n      pop\n      pop\n      jump\t// out\n        /* \"#utility.yul\":10005:10280   */\n    tag_39:\n        /* \"#utility.yul\":10137:10140   */\n      0x00\n        /* \"#utility.yul\":10159:10254   */\n      tag_193\n        /* \"#utility.yul\":10250:10253   */\n      dup3\n        /* \"#utility.yul\":10241:10247   */\n      dup5\n        /* \"#utility.yul\":10159:10254   */\n      tag_75\n      jump\t// in\n    tag_193:\n        /* \"#utility.yul\":10152:10254   */\n      swap2\n      pop\n        /* \"#utility.yul\":10271:10274   */\n      dup2\n        /* \"#utility.yul\":10264:10274   */\n      swap1\n      pop\n        /* \"#utility.yul\":10005:10280   */\n      swap3\n      swap2\n      pop\n      pop\n      jump\t// out\n\n    auxdata: 0xa26469706673582212207795c954ff6f4a91c7abc93868f751f00afbeaf7132da5fdc30c6c2aa6051e1164736f6c63430008110033\n}\n",
				"bytecode": {
					"linkReferences": {},
					"object": "608060405234801561001057600080fd5b50604051610951380380610951833981810160405281019061003291906100db565b806000806101000a81548173ffffffffffffffffffffffffffffffffffffffff021916908373ffffffffffffffffffffffffffffffffffffffff16021790555050610108565b600080fd5b600073ffffffffffffffffffffffffffffffffffffffff82169050919050565b60006100a88261007d565b9050919050565b6100b88161009d565b81146100c357600080fd5b50565b6000815190506100d5816100af565b92915050565b6000602082840312156100f1576100f0610078565b5b60006100ff848285016100c6565b91505092915050565b61083a806101176000396000f3fe608060405234801561001057600080fd5b506004361061004c5760003560e01c806397aba7f9146100515780639ac71bde14610081578063a7bb5803146100b1578063adb41f75146100e3575b600080fd5b61006b60048036038101906100669190610421565b610113565b60405161007891906104be565b60405180910390f35b61009b6004803603810190610096919061057a565b610188565b6040516100a891906105d2565b60405180910390f35b6100cb60048036038101906100c691906105ed565b6101c1565b6040516100da93929190610652565b60405180910390f35b6100fd60048036038101906100f89190610689565b610204565b60405161010a919061071c565b60405180910390f35b600080600080610122856101c1565b809350819450829550505050600186848484604051600081526020016040526040516101519493929190610737565b6020604051602081039080840390855afa158015610173573d6000803e3d6000fd5b50505060206040510351935050505092915050565b60008160405160200161019b91906107ed565b604051602081830303815290604052805190602001206001819055506001549050919050565b600080600060418451146101d457600080fd5b60008060006020870151925060408701519150606087015160001a90508083839550955095505050509193909250565b6000808360405160200161021891906107ed565b60405160208183030381529060405280519060200120905060008054906101000a900473ffffffffffffffffffffffffffffffffffffffff1673ffffffffffffffffffffffffffffffffffffffff166102718285610113565b73ffffffffffffffffffffffffffffffffffffffff161491505092915050565b6000604051905090565b600080fd5b600080fd5b6000819050919050565b6102b8816102a5565b81146102c357600080fd5b50565b6000813590506102d5816102af565b92915050565b600080fd5b600080fd5b6000601f19601f8301169050919050565b7f4e487b7100000000000000000000000000000000000000000000000000000000600052604160045260246000fd5b61032e826102e5565b810181811067ffffffffffffffff8211171561034d5761034c6102f6565b5b80604052505050565b6000610360610291565b905061036c8282610325565b919050565b600067ffffffffffffffff82111561038c5761038b6102f6565b5b610395826102e5565b9050602081019050919050565b82818337600083830152505050565b60006103c46103bf84610371565b610356565b9050828152602081018484840111156103e0576103df6102e0565b5b6103eb8482856103a2565b509392505050565b600082601f830112610408576104076102db565b5b81356104188482602086016103b1565b91505092915050565b600080604083850312156104385761043761029b565b5b6000610446858286016102c6565b925050602083013567ffffffffffffffff811115610467576104666102a0565b5b610473858286016103f3565b9150509250929050565b600073ffffffffffffffffffffffffffffffffffffffff82169050919050565b60006104a88261047d565b9050919050565b6104b88161049d565b82525050565b60006020820190506104d360008301846104af565b92915050565b600067ffffffffffffffff8211156104f4576104f36102f6565b5b6104fd826102e5565b9050602081019050919050565b600061051d610518846104d9565b610356565b905082815260208101848484011115610539576105386102e0565b5b6105448482856103a2565b509392505050565b600082601f830112610561576105606102db565b5b813561057184826020860161050a565b91505092915050565b6000602082840312156105905761058f61029b565b5b600082013567ffffffffffffffff8111156105ae576105ad6102a0565b5b6105ba8482850161054c565b91505092915050565b6105cc816102a5565b82525050565b60006020820190506105e760008301846105c3565b92915050565b6000602082840312156106035761060261029b565b5b600082013567ffffffffffffffff811115610621576106206102a0565b5b61062d848285016103f3565b91505092915050565b600060ff82169050919050565b61064c81610636565b82525050565b60006060820190506106676000830186610643565b61067460208301856105c3565b61068160408301846105c3565b949350505050565b600080604083850312156106a05761069f61029b565b5b600083013567ffffffffffffffff8111156106be576106bd6102a0565b5b6106ca8582860161054c565b925050602083013567ffffffffffffffff8111156106eb576106ea6102a0565b5b6106f7858286016103f3565b9150509250929050565b60008115159050919050565b61071681610701565b82525050565b6000602082019050610731600083018461070d565b92915050565b600060808201905061074c60008301876105c3565b6107596020830186610643565b61076660408301856105c3565b61077360608301846105c3565b95945050505050565b600081519050919050565b600081905092915050565b60005b838110156107b0578082015181840152602081019050610795565b60008484015250505050565b60006107c78261077c565b6107d18185610787565b93506107e1818560208601610792565b80840191505092915050565b60006107f982846107bc565b91508190509291505056fea26469706673582212207795c954ff6f4a91c7abc93868f751f00afbeaf7132da5fdc30c6c2aa6051e1164736f6c63430008110033",
					"opcodes": "PUSH1 0x80 PUSH1 0x40 MSTORE CALLVALUE DUP1 ISZERO PUSH2 0x10 JUMPI PUSH1 0x0 DUP1 REVERT JUMPDEST POP PUSH1 0x40 MLOAD PUSH2 0x951 CODESIZE SUB DUP1 PUSH2 0x951 DUP4 CODECOPY DUP2 DUP2 ADD PUSH1 0x40 MSTORE DUP2 ADD SWAP1 PUSH2 0x32 SWAP2 SWAP1 PUSH2 0xDB JUMP JUMPDEST DUP1 PUSH1 0x0 DUP1 PUSH2 0x100 EXP DUP2 SLOAD DUP2 PUSH20 0xFFFFFFFFFFFFFFFFFFFFFFFFFFFFFFFFFFFFFFFF MUL NOT AND SWAP1 DUP4 PUSH20 0xFFFFFFFFFFFFFFFFFFFFFFFFFFFFFFFFFFFFFFFF AND MUL OR SWAP1 SSTORE POP POP PUSH2 0x108 JUMP JUMPDEST PUSH1 0x0 DUP1 REVERT JUMPDEST PUSH1 0x0 PUSH20 0xFFFFFFFFFFFFFFFFFFFFFFFFFFFFFFFFFFFFFFFF DUP3 AND SWAP1 POP SWAP2 SWAP1 POP JUMP JUMPDEST PUSH1 0x0 PUSH2 0xA8 DUP3 PUSH2 0x7D JUMP JUMPDEST SWAP1 POP SWAP2 SWAP1 POP JUMP JUMPDEST PUSH2 0xB8 DUP2 PUSH2 0x9D JUMP JUMPDEST DUP2 EQ PUSH2 0xC3 JUMPI PUSH1 0x0 DUP1 REVERT JUMPDEST POP JUMP JUMPDEST PUSH1 0x0 DUP2 MLOAD SWAP1 POP PUSH2 0xD5 DUP2 PUSH2 0xAF JUMP JUMPDEST SWAP3 SWAP2 POP POP JUMP JUMPDEST PUSH1 0x0 PUSH1 0x20 DUP3 DUP5 SUB SLT ISZERO PUSH2 0xF1 JUMPI PUSH2 0xF0 PUSH2 0x78 JUMP JUMPDEST JUMPDEST PUSH1 0x0 PUSH2 0xFF DUP5 DUP3 DUP6 ADD PUSH2 0xC6 JUMP JUMPDEST SWAP2 POP POP SWAP3 SWAP2 POP POP JUMP JUMPDEST PUSH2 0x83A DUP1 PUSH2 0x117 PUSH1 0x0 CODECOPY PUSH1 0x0 RETURN INVALID PUSH1 0x80 PUSH1 0x40 MSTORE CALLVALUE DUP1 ISZERO PUSH2 0x10 JUMPI PUSH1 0x0 DUP1 REVERT JUMPDEST POP PUSH1 0x4 CALLDATASIZE LT PUSH2 0x4C JUMPI PUSH1 0x0 CALLDATALOAD PUSH1 0xE0 SHR DUP1 PUSH4 0x97ABA7F9 EQ PUSH2 0x51 JUMPI DUP1 PUSH4 0x9AC71BDE EQ PUSH2 0x81 JUMPI DUP1 PUSH4 0xA7BB5803 EQ PUSH2 0xB1 JUMPI DUP1 PUSH4 0xADB41F75 EQ PUSH2 0xE3 JUMPI JUMPDEST PUSH1 0x0 DUP1 REVERT JUMPDEST PUSH2 0x6B PUSH1 0x4 DUP1 CALLDATASIZE SUB DUP2 ADD SWAP1 PUSH2 0x66 SWAP2 SWAP1 PUSH2 0x421 JUMP JUMPDEST PUSH2 0x113 JUMP JUMPDEST PUSH1 0x40 MLOAD PUSH2 0x78 SWAP2 SWAP1 PUSH2 0x4BE JUMP JUMPDEST PUSH1 0x40 MLOAD DUP1 SWAP2 SUB SWAP1 RETURN JUMPDEST PUSH2 0x9B PUSH1 0x4 DUP1 CALLDATASIZE SUB DUP2 ADD SWAP1 PUSH2 0x96 SWAP2 SWAP1 PUSH2 0x57A JUMP JUMPDEST PUSH2 0x188 JUMP JUMPDEST PUSH1 0x40 MLOAD PUSH2 0xA8 SWAP2 SWAP1 PUSH2 0x5D2 JUMP JUMPDEST PUSH1 0x40 MLOAD DUP1 SWAP2 SUB SWAP1 RETURN JUMPDEST PUSH2 0xCB PUSH1 0x4 DUP1 CALLDATASIZE SUB DUP2 ADD SWAP1 PUSH2 0xC6 SWAP2 SWAP1 PUSH2 0x5ED JUMP JUMPDEST PUSH2 0x1C1 JUMP JUMPDEST PUSH1 0x40 MLOAD PUSH2 0xDA SWAP4 SWAP3 SWAP2 SWAP1 PUSH2 0x652 JUMP JUMPDEST PUSH1 0x40 MLOAD DUP1 SWAP2 SUB SWAP1 RETURN JUMPDEST PUSH2 0xFD PUSH1 0x4 DUP1 CALLDATASIZE SUB DUP2 ADD SWAP1 PUSH2 0xF8 SWAP2 SWAP1 PUSH2 0x689 JUMP JUMPDEST PUSH2 0x204 JUMP JUMPDEST PUSH1 0x40 MLOAD PUSH2 0x10A SWAP2 SWAP1 PUSH2 0x71C JUMP JUMPDEST PUSH1 0x40 MLOAD DUP1 SWAP2 SUB SWAP1 RETURN JUMPDEST PUSH1 0x0 DUP1 PUSH1 0x0 DUP1 PUSH2 0x122 DUP6 PUSH2 0x1C1 JUMP JUMPDEST DUP1 SWAP4 POP DUP2 SWAP5 POP DUP3 SWAP6 POP POP POP POP PUSH1 0x1 DUP7 DUP5 DUP5 DUP5 PUSH1 0x40 MLOAD PUSH1 0x0 DUP2 MSTORE PUSH1 0x20 ADD PUSH1 0x40 MSTORE PUSH1 0x40 MLOAD PUSH2 0x151 SWAP5 SWAP4 SWAP3 SWAP2 SWAP1 PUSH2 0x737 JUMP JUMPDEST PUSH1 0x20 PUSH1 0x40 MLOAD PUSH1 0x20 DUP2 SUB SWAP1 DUP1 DUP5 SUB SWAP1 DUP6 GAS STATICCALL ISZERO DUP1 ISZERO PUSH2 0x173 JUMPI RETURNDATASIZE PUSH1 0x0 DUP1 RETURNDATACOPY RETURNDATASIZE PUSH1 0x0 REVERT JUMPDEST POP POP POP PUSH1 0x20 PUSH1 0x40 MLOAD SUB MLOAD SWAP4 POP POP POP POP SWAP3 SWAP2 POP POP JUMP JUMPDEST PUSH1 0x0 DUP2 PUSH1 0x40 MLOAD PUSH1 0x20 ADD PUSH2 0x19B SWAP2 SWAP1 PUSH2 0x7ED JUMP JUMPDEST PUSH1 0x40 MLOAD PUSH1 0x20 DUP2 DUP4 SUB SUB DUP2 MSTORE SWAP1 PUSH1 0x40 MSTORE DUP1 MLOAD SWAP1 PUSH1 0x20 ADD KECCAK256 PUSH1 0x1 DUP2 SWAP1 SSTORE POP PUSH1 0x1 SLOAD SWAP1 POP SWAP2 SWAP1 POP JUMP JUMPDEST PUSH1 0x0 DUP1 PUSH1 0x0 PUSH1 0x41 DUP5 MLOAD EQ PUSH2 0x1D4 JUMPI PUSH1 0x0 DUP1 REVERT JUMPDEST PUSH1 0x0 DUP1 PUSH1 0x0 PUSH1 0x20 DUP8 ADD MLOAD SWAP3 POP PUSH1 0x40 DUP8 ADD MLOAD SWAP2 POP PUSH1 0x60 DUP8 ADD MLOAD PUSH1 0x0 BYTE SWAP1 POP DUP1 DUP4 DUP4 SWAP6 POP SWAP6 POP SWAP6 POP POP POP POP SWAP2 SWAP4 SWAP1 SWAP3 POP JUMP JUMPDEST PUSH1 0x0 DUP1 DUP4 PUSH1 0x40 MLOAD PUSH1 0x20 ADD PUSH2 0x218 SWAP2 SWAP1 PUSH2 0x7ED JUMP JUMPDEST PUSH1 0x40 MLOAD PUSH1 0x20 DUP2 DUP4 SUB SUB DUP2 MSTORE SWAP1 PUSH1 0x40 MSTORE DUP1 MLOAD SWAP1 PUSH1 0x20 ADD KECCAK256 SWAP1 POP PUSH1 0x0 DUP1 SLOAD SWAP1 PUSH2 0x100 EXP SWAP1 DIV PUSH20 0xFFFFFFFFFFFFFFFFFFFFFFFFFFFFFFFFFFFFFFFF AND PUSH20 0xFFFFFFFFFFFFFFFFFFFFFFFFFFFFFFFFFFFFFFFF AND PUSH2 0x271 DUP3 DUP6 PUSH2 0x113 JUMP JUMPDEST PUSH20 0xFFFFFFFFFFFFFFFFFFFFFFFFFFFFFFFFFFFFFFFF AND EQ SWAP2 POP POP SWAP3 SWAP2 POP POP JUMP JUMPDEST PUSH1 0x0 PUSH1 0x40 MLOAD SWAP1 POP SWAP1 JUMP JUMPDEST PUSH1 0x0 DUP1 REVERT JUMPDEST PUSH1 0x0 DUP1 REVERT JUMPDEST PUSH1 0x0 DUP2 SWAP1 POP SWAP2 SWAP1 POP JUMP JUMPDEST PUSH2 0x2B8 DUP2 PUSH2 0x2A5 JUMP JUMPDEST DUP2 EQ PUSH2 0x2C3 JUMPI PUSH1 0x0 DUP1 REVERT JUMPDEST POP JUMP JUMPDEST PUSH1 0x0 DUP2 CALLDATALOAD SWAP1 POP PUSH2 0x2D5 DUP2 PUSH2 0x2AF JUMP JUMPDEST SWAP3 SWAP2 POP POP JUMP JUMPDEST PUSH1 0x0 DUP1 REVERT JUMPDEST PUSH1 0x0 DUP1 REVERT JUMPDEST PUSH1 0x0 PUSH1 0x1F NOT PUSH1 0x1F DUP4 ADD AND SWAP1 POP SWAP2 SWAP1 POP JUMP JUMPDEST PUSH32 0x4E487B7100000000000000000000000000000000000000000000000000000000 PUSH1 0x0 MSTORE PUSH1 0x41 PUSH1 0x4 MSTORE PUSH1 0x24 PUSH1 0x0 REVERT JUMPDEST PUSH2 0x32E DUP3 PUSH2 0x2E5 JUMP JUMPDEST DUP2 ADD DUP2 DUP2 LT PUSH8 0xFFFFFFFFFFFFFFFF DUP3 GT OR ISZERO PUSH2 0x34D JUMPI PUSH2 0x34C PUSH2 0x2F6 JUMP JUMPDEST JUMPDEST DUP1 PUSH1 0x40 MSTORE POP POP POP JUMP JUMPDEST PUSH1 0x0 PUSH2 0x360 PUSH2 0x291 JUMP JUMPDEST SWAP1 POP PUSH2 0x36C DUP3 DUP3 PUSH2 0x325 JUMP JUMPDEST SWAP2 SWAP1 POP JUMP JUMPDEST PUSH1 0x0 PUSH8 0xFFFFFFFFFFFFFFFF DUP3 GT ISZERO PUSH2 0x38C JUMPI PUSH2 0x38B PUSH2 0x2F6 JUMP JUMPDEST JUMPDEST PUSH2 0x395 DUP3 PUSH2 0x2E5 JUMP JUMPDEST SWAP1 POP PUSH1 0x20 DUP2 ADD SWAP1 POP SWAP2 SWAP1 POP JUMP JUMPDEST DUP3 DUP2 DUP4 CALLDATACOPY PUSH1 0x0 DUP4 DUP4 ADD MSTORE POP POP POP JUMP JUMPDEST PUSH1 0x0 PUSH2 0x3C4 PUSH2 0x3BF DUP5 PUSH2 0x371 JUMP JUMPDEST PUSH2 0x356 JUMP JUMPDEST SWAP1 POP DUP3 DUP2 MSTORE PUSH1 0x20 DUP2 ADD DUP5 DUP5 DUP5 ADD GT ISZERO PUSH2 0x3E0 JUMPI PUSH2 0x3DF PUSH2 0x2E0 JUMP JUMPDEST JUMPDEST PUSH2 0x3EB DUP5 DUP3 DUP6 PUSH2 0x3A2 JUMP JUMPDEST POP SWAP4 SWAP3 POP POP POP JUMP JUMPDEST PUSH1 0x0 DUP3 PUSH1 0x1F DUP4 ADD SLT PUSH2 0x408 JUMPI PUSH2 0x407 PUSH2 0x2DB JUMP JUMPDEST JUMPDEST DUP2 CALLDATALOAD PUSH2 0x418 DUP5 DUP3 PUSH1 0x20 DUP7 ADD PUSH2 0x3B1 JUMP JUMPDEST SWAP2 POP POP SWAP3 SWAP2 POP POP JUMP JUMPDEST PUSH1 0x0 DUP1 PUSH1 0x40 DUP4 DUP6 SUB SLT ISZERO PUSH2 0x438 JUMPI PUSH2 0x437 PUSH2 0x29B JUMP JUMPDEST JUMPDEST PUSH1 0x0 PUSH2 0x446 DUP6 DUP3 DUP7 ADD PUSH2 0x2C6 JUMP JUMPDEST SWAP3 POP POP PUSH1 0x20 DUP4 ADD CALLDATALOAD PUSH8 0xFFFFFFFFFFFFFFFF DUP2 GT ISZERO PUSH2 0x467 JUMPI PUSH2 0x466 PUSH2 0x2A0 JUMP JUMPDEST JUMPDEST PUSH2 0x473 DUP6 DUP3 DUP7 ADD PUSH2 0x3F3 JUMP JUMPDEST SWAP2 POP POP SWAP3 POP SWAP3 SWAP1 POP JUMP JUMPDEST PUSH1 0x0 PUSH20 0xFFFFFFFFFFFFFFFFFFFFFFFFFFFFFFFFFFFFFFFF DUP3 AND SWAP1 POP SWAP2 SWAP1 POP JUMP JUMPDEST PUSH1 0x0 PUSH2 0x4A8 DUP3 PUSH2 0x47D JUMP JUMPDEST SWAP1 POP SWAP2 SWAP1 POP JUMP JUMPDEST PUSH2 0x4B8 DUP2 PUSH2 0x49D JUMP JUMPDEST DUP3 MSTORE POP POP JUMP JUMPDEST PUSH1 0x0 PUSH1 0x20 DUP3 ADD SWAP1 POP PUSH2 0x4D3 PUSH1 0x0 DUP4 ADD DUP5 PUSH2 0x4AF JUMP JUMPDEST SWAP3 SWAP2 POP POP JUMP JUMPDEST PUSH1 0x0 PUSH8 0xFFFFFFFFFFFFFFFF DUP3 GT ISZERO PUSH2 0x4F4 JUMPI PUSH2 0x4F3 PUSH2 0x2F6 JUMP JUMPDEST JUMPDEST PUSH2 0x4FD DUP3 PUSH2 0x2E5 JUMP JUMPDEST SWAP1 POP PUSH1 0x20 DUP2 ADD SWAP1 POP SWAP2 SWAP1 POP JUMP JUMPDEST PUSH1 0x0 PUSH2 0x51D PUSH2 0x518 DUP5 PUSH2 0x4D9 JUMP JUMPDEST PUSH2 0x356 JUMP JUMPDEST SWAP1 POP DUP3 DUP2 MSTORE PUSH1 0x20 DUP2 ADD DUP5 DUP5 DUP5 ADD GT ISZERO PUSH2 0x539 JUMPI PUSH2 0x538 PUSH2 0x2E0 JUMP JUMPDEST JUMPDEST PUSH2 0x544 DUP5 DUP3 DUP6 PUSH2 0x3A2 JUMP JUMPDEST POP SWAP4 SWAP3 POP POP POP JUMP JUMPDEST PUSH1 0x0 DUP3 PUSH1 0x1F DUP4 ADD SLT PUSH2 0x561 JUMPI PUSH2 0x560 PUSH2 0x2DB JUMP JUMPDEST JUMPDEST DUP2 CALLDATALOAD PUSH2 0x571 DUP5 DUP3 PUSH1 0x20 DUP7 ADD PUSH2 0x50A JUMP JUMPDEST SWAP2 POP POP SWAP3 SWAP2 POP POP JUMP JUMPDEST PUSH1 0x0 PUSH1 0x20 DUP3 DUP5 SUB SLT ISZERO PUSH2 0x590 JUMPI PUSH2 0x58F PUSH2 0x29B JUMP JUMPDEST JUMPDEST PUSH1 0x0 DUP3 ADD CALLDATALOAD PUSH8 0xFFFFFFFFFFFFFFFF DUP2 GT ISZERO PUSH2 0x5AE JUMPI PUSH2 0x5AD PUSH2 0x2A0 JUMP JUMPDEST JUMPDEST PUSH2 0x5BA DUP5 DUP3 DUP6 ADD PUSH2 0x54C JUMP JUMPDEST SWAP2 POP POP SWAP3 SWAP2 POP POP JUMP JUMPDEST PUSH2 0x5CC DUP2 PUSH2 0x2A5 JUMP JUMPDEST DUP3 MSTORE POP POP JUMP JUMPDEST PUSH1 0x0 PUSH1 0x20 DUP3 ADD SWAP1 POP PUSH2 0x5E7 PUSH1 0x0 DUP4 ADD DUP5 PUSH2 0x5C3 JUMP JUMPDEST SWAP3 SWAP2 POP POP JUMP JUMPDEST PUSH1 0x0 PUSH1 0x20 DUP3 DUP5 SUB SLT ISZERO PUSH2 0x603 JUMPI PUSH2 0x602 PUSH2 0x29B JUMP JUMPDEST JUMPDEST PUSH1 0x0 DUP3 ADD CALLDATALOAD PUSH8 0xFFFFFFFFFFFFFFFF DUP2 GT ISZERO PUSH2 0x621 JUMPI PUSH2 0x620 PUSH2 0x2A0 JUMP JUMPDEST JUMPDEST PUSH2 0x62D DUP5 DUP3 DUP6 ADD PUSH2 0x3F3 JUMP JUMPDEST SWAP2 POP POP SWAP3 SWAP2 POP POP JUMP JUMPDEST PUSH1 0x0 PUSH1 0xFF DUP3 AND SWAP1 POP SWAP2 SWAP1 POP JUMP JUMPDEST PUSH2 0x64C DUP2 PUSH2 0x636 JUMP JUMPDEST DUP3 MSTORE POP POP JUMP JUMPDEST PUSH1 0x0 PUSH1 0x60 DUP3 ADD SWAP1 POP PUSH2 0x667 PUSH1 0x0 DUP4 ADD DUP7 PUSH2 0x643 JUMP JUMPDEST PUSH2 0x674 PUSH1 0x20 DUP4 ADD DUP6 PUSH2 0x5C3 JUMP JUMPDEST PUSH2 0x681 PUSH1 0x40 DUP4 ADD DUP5 PUSH2 0x5C3 JUMP JUMPDEST SWAP5 SWAP4 POP POP POP POP JUMP JUMPDEST PUSH1 0x0 DUP1 PUSH1 0x40 DUP4 DUP6 SUB SLT ISZERO PUSH2 0x6A0 JUMPI PUSH2 0x69F PUSH2 0x29B JUMP JUMPDEST JUMPDEST PUSH1 0x0 DUP4 ADD CALLDATALOAD PUSH8 0xFFFFFFFFFFFFFFFF DUP2 GT ISZERO PUSH2 0x6BE JUMPI PUSH2 0x6BD PUSH2 0x2A0 JUMP JUMPDEST JUMPDEST PUSH2 0x6CA DUP6 DUP3 DUP7 ADD PUSH2 0x54C JUMP JUMPDEST SWAP3 POP POP PUSH1 0x20 DUP4 ADD CALLDATALOAD PUSH8 0xFFFFFFFFFFFFFFFF DUP2 GT ISZERO PUSH2 0x6EB JUMPI PUSH2 0x6EA PUSH2 0x2A0 JUMP JUMPDEST JUMPDEST PUSH2 0x6F7 DUP6 DUP3 DUP7 ADD PUSH2 0x3F3 JUMP JUMPDEST SWAP2 POP POP SWAP3 POP SWAP3 SWAP1 POP JUMP JUMPDEST PUSH1 0x0 DUP2 ISZERO ISZERO SWAP1 POP SWAP2 SWAP1 POP JUMP JUMPDEST PUSH2 0x716 DUP2 PUSH2 0x701 JUMP JUMPDEST DUP3 MSTORE POP POP JUMP JUMPDEST PUSH1 0x0 PUSH1 0x20 DUP3 ADD SWAP1 POP PUSH2 0x731 PUSH1 0x0 DUP4 ADD DUP5 PUSH2 0x70D JUMP JUMPDEST SWAP3 SWAP2 POP POP JUMP JUMPDEST PUSH1 0x0 PUSH1 0x80 DUP3 ADD SWAP1 POP PUSH2 0x74C PUSH1 0x0 DUP4 ADD DUP8 PUSH2 0x5C3 JUMP JUMPDEST PUSH2 0x759 PUSH1 0x20 DUP4 ADD DUP7 PUSH2 0x643 JUMP JUMPDEST PUSH2 0x766 PUSH1 0x40 DUP4 ADD DUP6 PUSH2 0x5C3 JUMP JUMPDEST PUSH2 0x773 PUSH1 0x60 DUP4 ADD DUP5 PUSH2 0x5C3 JUMP JUMPDEST SWAP6 SWAP5 POP POP POP POP POP JUMP JUMPDEST PUSH1 0x0 DUP2 MLOAD SWAP1 POP SWAP2 SWAP1 POP JUMP JUMPDEST PUSH1 0x0 DUP2 SWAP1 POP SWAP3 SWAP2 POP POP JUMP JUMPDEST PUSH1 0x0 JUMPDEST DUP4 DUP2 LT ISZERO PUSH2 0x7B0 JUMPI DUP1 DUP3 ADD MLOAD DUP2 DUP5 ADD MSTORE PUSH1 0x20 DUP2 ADD SWAP1 POP PUSH2 0x795 JUMP JUMPDEST PUSH1 0x0 DUP5 DUP5 ADD MSTORE POP POP POP POP JUMP JUMPDEST PUSH1 0x0 PUSH2 0x7C7 DUP3 PUSH2 0x77C JUMP JUMPDEST PUSH2 0x7D1 DUP2 DUP6 PUSH2 0x787 JUMP JUMPDEST SWAP4 POP PUSH2 0x7E1 DUP2 DUP6 PUSH1 0x20 DUP7 ADD PUSH2 0x792 JUMP JUMPDEST DUP1 DUP5 ADD SWAP2 POP POP SWAP3 SWAP2 POP POP JUMP JUMPDEST PUSH1 0x0 PUSH2 0x7F9 DUP3 DUP5 PUSH2 0x7BC JUMP JUMPDEST SWAP2 POP DUP2 SWAP1 POP SWAP3 SWAP2 POP POP JUMP INVALID LOG2 PUSH5 0x6970667358 0x22 SLT KECCAK256 PUSH24 0x95C954FF6F4A91C7ABC93868F751F00AFBEAF7132DA5FDC3 0xC PUSH13 0x2AA6051E1164736F6C63430008 GT STOP CALLER "
				},
				"gasEstimates": {
					"creation": {
						"codeDepositCost": "421200",
						"executionCost": "infinite",
						"totalCost": "infinite"
					},
					"external": {
						"isValidData(string,bytes)": "infinite",
						"msgRR(string)": "infinite",
						"recoverSigner(bytes32,bytes)": "infinite",
						"splitSignature(bytes)": "infinite"
					}
				},
				"methodIdentifiers": {
					"isValidData(string,bytes)": "adb41f75",
					"msgRR(string)": "9ac71bde",
					"recoverSigner(bytes32,bytes)": "97aba7f9",
					"splitSignature(bytes)": "a7bb5803"
				}
			},
			"storageLayout": {
				"storage": [
					{
						"astId": 3,
						"contract": "contract-442812f524.sol:Verify",
						"label": "importantAddress",
						"offset": 0,
						"slot": "0",
						"type": "t_address"
					},
					{
						"astId": 5,
						"contract": "contract-442812f524.sol:Verify",
						"label": "msgR",
						"offset": 0,
						"slot": "1",
						"type": "t_bytes32"
					}
				],
				"types": {
					"t_address": {
						"encoding": "inplace",
						"label": "address",
						"numberOfBytes": "20"
					},
					"t_bytes32": {
						"encoding": "inplace",
						"label": "bytes32",
						"numberOfBytes": "32"
					}
				}
			},
			"userdoc": {
				"kind": "user",
				"methods": {},
				"version": 1
			}
		}
	}
}