{
	"hh.sol": {
		"Foo": {
			"abi": [
				{
					"anonymous": false,
					"inputs": [
						{
							"indexed": false,
							"internalType": "uint256",
							"name": "val",
							"type": "uint256"
						}
					],
					"name": "New",
					"type": "event"
				},
				{
					"inputs": [
						{
							"internalType": "uint256",
							"name": "a",
							"type": "uint256"
						},
						{
							"internalType": "uint256",
							"name": "b",
							"type": "uint256"
						}
					],
					"name": "magic",
					"outputs": [],
					"stateMutability": "nonpayable",
					"type": "function"
				},
				{
					"inputs": [],
					"name": "register",
					"outputs": [],
					"stateMutability": "payable",
					"type": "function"
				}
			],
			"devdoc": {
				"kind": "dev",
				"methods": {},
				"version": 1
			},
			"evm": {
				"assembly": "    /* \"hh.sol\":26:752  contract Foo {... */\n  mstore(0x40, 0x80)\n  callvalue\n  dup1\n  iszero\n  tag_1\n  jumpi\n  0x00\n  dup1\n  revert\ntag_1:\n  pop\n  dataSize(sub_0)\n  dup1\n  dataOffset(sub_0)\n  0x00\n  codecopy\n  0x00\n  return\nstop\n\nsub_0: assembly {\n        /* \"hh.sol\":26:752  contract Foo {... */\n      mstore(0x40, 0x80)\n      jumpi(tag_1, lt(calldatasize, 0x04))\n      shr(0xe0, calldataload(0x00))\n      dup1\n      0x1aa3a008\n      eq\n      tag_2\n      jumpi\n      dup1\n      0x7503745d\n      eq\n      tag_3\n      jumpi\n    tag_1:\n      0x00\n      dup1\n      revert\n        /* \"hh.sol\":529:630  function register() public payable {... */\n    tag_2:\n      tag_4\n      tag_5\n      jump\t// in\n    tag_4:\n      stop\n        /* \"hh.sol\":636:750  function magic(uint a, uint b) public {... */\n    tag_3:\n      callvalue\n      dup1\n      iszero\n      tag_6\n      jumpi\n      0x00\n      dup1\n      revert\n    tag_6:\n      pop\n      tag_7\n      0x04\n      dup1\n      calldatasize\n      sub\n      dup2\n      add\n      swap1\n      tag_8\n      swap2\n      swap1\n      tag_9\n      jump\t// in\n    tag_8:\n      tag_10\n      jump\t// in\n    tag_7:\n      stop\n        /* \"hh.sol\":529:630  function register() public payable {... */\n    tag_5:\n        /* \"hh.sol\":602:607  31415 */\n      0x7ab7\n        /* \"hh.sol\":590:599  msg.value */\n      callvalue\n        /* \"hh.sol\":590:607  msg.value > 31415 */\n      gt\n        /* \"hh.sol\":590:623  msg.value > 31415 ? gold : silver */\n      tag_12\n      jumpi\n        /* \"hh.sol\":617:623  silver */\n      tag_13\n        /* \"hh.sol\":590:623  msg.value > 31415 ? gold : silver */\n      jump(tag_14)\n    tag_12:\n        /* \"hh.sol\":610:614  gold */\n      tag_15\n        /* \"hh.sol\":590:623  msg.value > 31415 ? gold : silver */\n    tag_14:\n        /* \"hh.sol\":574:575  k */\n      0x00\n        /* \"hh.sol\":574:587  k[msg.sender] */\n      dup1\n        /* \"hh.sol\":576:586  msg.sender */\n      caller\n        /* \"hh.sol\":574:587  k[msg.sender] */\n      0xffffffffffffffffffffffffffffffffffffffff\n      and\n      0xffffffffffffffffffffffffffffffffffffffff\n      and\n      dup2\n      mstore\n      0x20\n      add\n      swap1\n      dup2\n      mstore\n      0x20\n      add\n      0x00\n      keccak256\n      0x00\n        /* \"hh.sol\":574:623  k[msg.sender] = msg.value > 31415 ? gold : silver */\n      0x0100\n      exp\n      dup2\n      sload\n      dup2\n      0xffffffffffffffff\n      mul\n      not\n      and\n      swap1\n      dup4\n      0xffffffffffffffff\n      and\n      mul\n      or\n      swap1\n      sstore\n      pop\n        /* \"hh.sol\":529:630  function register() public payable {... */\n      jump\t// out\n        /* \"hh.sol\":636:750  function magic(uint a, uint b) public {... */\n    tag_10:\n        /* \"hh.sol\":684:692  uint val */\n      0x00\n        /* \"hh.sol\":695:720  eval(k[msg.sender], a, b) */\n      tag_17\n        /* \"hh.sol\":700:701  k */\n      0x00\n        /* \"hh.sol\":700:713  k[msg.sender] */\n      dup1\n        /* \"hh.sol\":702:712  msg.sender */\n      caller\n        /* \"hh.sol\":700:713  k[msg.sender] */\n      0xffffffffffffffffffffffffffffffffffffffff\n      and\n      0xffffffffffffffffffffffffffffffffffffffff\n      and\n      dup2\n      mstore\n      0x20\n      add\n      swap1\n      dup2\n      mstore\n      0x20\n      add\n      0x00\n      keccak256\n      0x00\n      swap1\n      sload\n      swap1\n      0x0100\n      exp\n      swap1\n      div\n      dup1\n      iszero\n      tag_18\n      mul\n      or\n      0xffffffffffffffff\n      and\n        /* \"hh.sol\":715:716  a */\n      dup5\n        /* \"hh.sol\":718:719  b */\n      dup5\n        /* \"hh.sol\":695:699  eval */\n      tag_19\n        /* \"hh.sol\":695:720  eval(k[msg.sender], a, b) */\n      jump\t// in\n    tag_17:\n        /* \"hh.sol\":684:720  uint val = eval(k[msg.sender], a, b) */\n      swap1\n      pop\n        /* \"hh.sol\":735:743  New(val) */\n      0x4356a48f357f6d0ef9fc535e6eb2f25ef210c59bb93b532fef42d63264b8992a\n        /* \"hh.sol\":739:742  val */\n      dup2\n        /* \"hh.sol\":735:743  New(val) */\n      mload(0x40)\n      tag_20\n      swap2\n      swap1\n      tag_21\n      jump\t// in\n    tag_20:\n      mload(0x40)\n      dup1\n      swap2\n      sub\n      swap1\n      log1\n        /* \"hh.sol\":674:750  {... */\n      pop\n        /* \"hh.sol\":636:750  function magic(uint a, uint b) public {... */\n      pop\n      pop\n      jump\t// out\n        /* \"hh.sol\":250:344  function silver(uint a, uint b) internal pure returns (uint) {... */\n    tag_13:\n        /* \"hh.sol\":305:309  uint */\n      0x00\n        /* \"hh.sol\":336:337  5 */\n      0x05\n        /* \"hh.sol\":332:333  b */\n      dup3\n        /* \"hh.sol\":332:337  b * 5 */\n      tag_23\n      swap2\n      swap1\n      tag_24\n      jump\t// in\n    tag_23:\n        /* \"hh.sol\":328:329  a */\n      dup4\n        /* \"hh.sol\":328:337  a + b * 5 */\n      tag_25\n      swap2\n      swap1\n      tag_26\n      jump\t// in\n    tag_25:\n        /* \"hh.sol\":321:337  return a + b * 5 */\n      swap1\n      pop\n        /* \"hh.sol\":250:344  function silver(uint a, uint b) internal pure returns (uint) {... */\n      swap3\n      swap2\n      pop\n      pop\n      jump\t// out\n        /* \"hh.sol\":151:244  function gold(uint a, uint b) internal pure returns (uint) {... */\n    tag_15:\n        /* \"hh.sol\":204:208  uint */\n      0x00\n        /* \"hh.sol\":235:237  10 */\n      0x0a\n        /* \"hh.sol\":231:232  b */\n      dup3\n        /* \"hh.sol\":231:237  b * 10 */\n      tag_28\n      swap2\n      swap1\n      tag_24\n      jump\t// in\n    tag_28:\n        /* \"hh.sol\":227:228  a */\n      dup4\n        /* \"hh.sol\":227:237  a + b * 10 */\n      tag_29\n      swap2\n      swap1\n      tag_26\n      jump\t// in\n    tag_29:\n        /* \"hh.sol\":220:237  return a + b * 10 */\n      swap1\n      pop\n        /* \"hh.sol\":151:244  function gold(uint a, uint b) internal pure returns (uint) {... */\n      swap3\n      swap2\n      pop\n      pop\n      jump\t// out\n        /* \"hh.sol\":350:523  function eval(... */\n    tag_19:\n        /* \"hh.sol\":482:486  uint */\n      0x00\n        /* \"hh.sol\":509:516  f(a, b) */\n      tag_31\n        /* \"hh.sol\":511:512  a */\n      dup4\n        /* \"hh.sol\":514:515  b */\n      dup4\n        /* \"hh.sol\":509:510  f */\n      dup7\n        /* \"hh.sol\":509:516  f(a, b) */\n      0xffffffff\n      and\n      jump\t// in\n    tag_31:\n        /* \"hh.sol\":502:516  return f(a, b) */\n      swap1\n      pop\n        /* \"hh.sol\":350:523  function eval(... */\n      swap4\n      swap3\n      pop\n      pop\n      pop\n      jump\t// out\n    tag_18:\n      tag_32\n      tag_33\n      jump\t// in\n    tag_32:\n      jump\t// out\n        /* \"#utility.yul\":7:146   */\n    tag_35:\n        /* \"#utility.yul\":53:58   */\n      0x00\n        /* \"#utility.yul\":91:97   */\n      dup2\n        /* \"#utility.yul\":78:98   */\n      calldataload\n        /* \"#utility.yul\":69:98   */\n      swap1\n      pop\n        /* \"#utility.yul\":107:140   */\n      tag_37\n        /* \"#utility.yul\":134:139   */\n      dup2\n        /* \"#utility.yul\":107:140   */\n      tag_38\n      jump\t// in\n    tag_37:\n        /* \"#utility.yul\":7:146   */\n      swap3\n      swap2\n      pop\n      pop\n      jump\t// out\n        /* \"#utility.yul\":152:626   */\n    tag_9:\n        /* \"#utility.yul\":220:226   */\n      0x00\n        /* \"#utility.yul\":228:234   */\n      dup1\n        /* \"#utility.yul\":277:279   */\n      0x40\n        /* \"#utility.yul\":265:274   */\n      dup4\n        /* \"#utility.yul\":256:263   */\n      dup6\n        /* \"#utility.yul\":252:275   */\n      sub\n        /* \"#utility.yul\":248:280   */\n      slt\n        /* \"#utility.yul\":245:364   */\n      iszero\n      tag_40\n      jumpi\n        /* \"#utility.yul\":283:362   */\n      tag_41\n      tag_42\n      jump\t// in\n    tag_41:\n        /* \"#utility.yul\":245:364   */\n    tag_40:\n        /* \"#utility.yul\":403:404   */\n      0x00\n        /* \"#utility.yul\":428:481   */\n      tag_43\n        /* \"#utility.yul\":473:480   */\n      dup6\n        /* \"#utility.yul\":464:470   */\n      dup3\n        /* \"#utility.yul\":453:462   */\n      dup7\n        /* \"#utility.yul\":449:471   */\n      add\n        /* \"#utility.yul\":428:481   */\n      tag_35\n      jump\t// in\n    tag_43:\n        /* \"#utility.yul\":418:481   */\n      swap3\n      pop\n        /* \"#utility.yul\":374:491   */\n      pop\n        /* \"#utility.yul\":530:532   */\n      0x20\n        /* \"#utility.yul\":556:609   */\n      tag_44\n        /* \"#utility.yul\":601:608   */\n      dup6\n        /* \"#utility.yul\":592:598   */\n      dup3\n        /* \"#utility.yul\":581:590   */\n      dup7\n        /* \"#utility.yul\":577:599   */\n      add\n        /* \"#utility.yul\":556:609   */\n      tag_35\n      jump\t// in\n    tag_44:\n        /* \"#utility.yul\":546:609   */\n      swap2\n      pop\n        /* \"#utility.yul\":501:619   */\n      pop\n        /* \"#utility.yul\":152:626   */\n      swap3\n      pop\n      swap3\n      swap1\n      pop\n      jump\t// out\n        /* \"#utility.yul\":632:750   */\n    tag_45:\n        /* \"#utility.yul\":719:743   */\n      tag_47\n        /* \"#utility.yul\":737:742   */\n      dup2\n        /* \"#utility.yul\":719:743   */\n      tag_48\n      jump\t// in\n    tag_47:\n        /* \"#utility.yul\":714:717   */\n      dup3\n        /* \"#utility.yul\":707:744   */\n      mstore\n        /* \"#utility.yul\":632:750   */\n      pop\n      pop\n      jump\t// out\n        /* \"#utility.yul\":756:978   */\n    tag_21:\n        /* \"#utility.yul\":849:853   */\n      0x00\n        /* \"#utility.yul\":887:889   */\n      0x20\n        /* \"#utility.yul\":876:885   */\n      dup3\n        /* \"#utility.yul\":872:890   */\n      add\n        /* \"#utility.yul\":864:890   */\n      swap1\n      pop\n        /* \"#utility.yul\":900:971   */\n      tag_50\n        /* \"#utility.yul\":968:969   */\n      0x00\n        /* \"#utility.yul\":957:966   */\n      dup4\n        /* \"#utility.yul\":953:970   */\n      add\n        /* \"#utility.yul\":944:950   */\n      dup5\n        /* \"#utility.yul\":900:971   */\n      tag_45\n      jump\t// in\n    tag_50:\n        /* \"#utility.yul\":756:978   */\n      swap3\n      swap2\n      pop\n      pop\n      jump\t// out\n        /* \"#utility.yul\":1065:1370   */\n    tag_26:\n        /* \"#utility.yul\":1105:1108   */\n      0x00\n        /* \"#utility.yul\":1124:1144   */\n      tag_54\n        /* \"#utility.yul\":1142:1143   */\n      dup3\n        /* \"#utility.yul\":1124:1144   */\n      tag_48\n      jump\t// in\n    tag_54:\n        /* \"#utility.yul\":1119:1144   */\n      swap2\n      pop\n        /* \"#utility.yul\":1158:1178   */\n      tag_55\n        /* \"#utility.yul\":1176:1177   */\n      dup4\n        /* \"#utility.yul\":1158:1178   */\n      tag_48\n      jump\t// in\n    tag_55:\n        /* \"#utility.yul\":1153:1178   */\n      swap3\n      pop\n        /* \"#utility.yul\":1312:1313   */\n      dup3\n        /* \"#utility.yul\":1244:1310   */\n      0xffffffffffffffffffffffffffffffffffffffffffffffffffffffffffffffff\n        /* \"#utility.yul\":1240:1314   */\n      sub\n        /* \"#utility.yul\":1237:1238   */\n      dup3\n        /* \"#utility.yul\":1234:1315   */\n      gt\n        /* \"#utility.yul\":1231:1338   */\n      iszero\n      tag_56\n      jumpi\n        /* \"#utility.yul\":1318:1336   */\n      tag_57\n      tag_58\n      jump\t// in\n    tag_57:\n        /* \"#utility.yul\":1231:1338   */\n    tag_56:\n        /* \"#utility.yul\":1362:1363   */\n      dup3\n        /* \"#utility.yul\":1359:1360   */\n      dup3\n        /* \"#utility.yul\":1355:1364   */\n      add\n        /* \"#utility.yul\":1348:1364   */\n      swap1\n      pop\n        /* \"#utility.yul\":1065:1370   */\n      swap3\n      swap2\n      pop\n      pop\n      jump\t// out\n        /* \"#utility.yul\":1376:1724   */\n    tag_24:\n        /* \"#utility.yul\":1416:1423   */\n      0x00\n        /* \"#utility.yul\":1439:1459   */\n      tag_60\n        /* \"#utility.yul\":1457:1458   */\n      dup3\n        /* \"#utility.yul\":1439:1459   */\n      tag_48\n      jump\t// in\n    tag_60:\n        /* \"#utility.yul\":1434:1459   */\n      swap2\n      pop\n        /* \"#utility.yul\":1473:1493   */\n      tag_61\n        /* \"#utility.yul\":1491:1492   */\n      dup4\n        /* \"#utility.yul\":1473:1493   */\n      tag_48\n      jump\t// in\n    tag_61:\n        /* \"#utility.yul\":1468:1493   */\n      swap3\n      pop\n        /* \"#utility.yul\":1661:1662   */\n      dup2\n        /* \"#utility.yul\":1593:1659   */\n      0xffffffffffffffffffffffffffffffffffffffffffffffffffffffffffffffff\n        /* \"#utility.yul\":1589:1663   */\n      div\n        /* \"#utility.yul\":1586:1587   */\n      dup4\n        /* \"#utility.yul\":1583:1664   */\n      gt\n        /* \"#utility.yul\":1578:1579   */\n      dup3\n        /* \"#utility.yul\":1571:1580   */\n      iszero\n        /* \"#utility.yul\":1564:1581   */\n      iszero\n        /* \"#utility.yul\":1560:1665   */\n      and\n        /* \"#utility.yul\":1557:1688   */\n      iszero\n      tag_62\n      jumpi\n        /* \"#utility.yul\":1668:1686   */\n      tag_63\n      tag_58\n      jump\t// in\n    tag_63:\n        /* \"#utility.yul\":1557:1688   */\n    tag_62:\n        /* \"#utility.yul\":1716:1717   */\n      dup3\n        /* \"#utility.yul\":1713:1714   */\n      dup3\n        /* \"#utility.yul\":1709:1718   */\n      mul\n        /* \"#utility.yul\":1698:1718   */\n      swap1\n      pop\n        /* \"#utility.yul\":1376:1724   */\n      swap3\n      swap2\n      pop\n      pop\n      jump\t// out\n        /* \"#utility.yul\":1730:1807   */\n    tag_48:\n        /* \"#utility.yul\":1767:1774   */\n      0x00\n        /* \"#utility.yul\":1796:1801   */\n      dup2\n        /* \"#utility.yul\":1785:1801   */\n      swap1\n      pop\n        /* \"#utility.yul\":1730:1807   */\n      swap2\n      swap1\n      pop\n      jump\t// out\n        /* \"#utility.yul\":1813:1993   */\n    tag_58:\n        /* \"#utility.yul\":1861:1938   */\n      0x4e487b7100000000000000000000000000000000000000000000000000000000\n        /* \"#utility.yul\":1858:1859   */\n      0x00\n        /* \"#utility.yul\":1851:1939   */\n      mstore\n        /* \"#utility.yul\":1958:1962   */\n      0x11\n        /* \"#utility.yul\":1955:1956   */\n      0x04\n        /* \"#utility.yul\":1948:1963   */\n      mstore\n        /* \"#utility.yul\":1982:1986   */\n      0x24\n        /* \"#utility.yul\":1979:1980   */\n      0x00\n        /* \"#utility.yul\":1972:1987   */\n      revert\n        /* \"#utility.yul\":1999:2179   */\n    tag_33:\n        /* \"#utility.yul\":2047:2124   */\n      0x4e487b7100000000000000000000000000000000000000000000000000000000\n        /* \"#utility.yul\":2044:2045   */\n      0x00\n        /* \"#utility.yul\":2037:2125   */\n      mstore\n        /* \"#utility.yul\":2144:2148   */\n      0x51\n        /* \"#utility.yul\":2141:2142   */\n      0x04\n        /* \"#utility.yul\":2134:2149   */\n      mstore\n        /* \"#utility.yul\":2168:2172   */\n      0x24\n        /* \"#utility.yul\":2165:2166   */\n      0x00\n        /* \"#utility.yul\":2158:2173   */\n      revert\n        /* \"#utility.yul\":2308:2425   */\n    tag_42:\n        /* \"#utility.yul\":2417:2418   */\n      0x00\n        /* \"#utility.yul\":2414:2415   */\n      dup1\n        /* \"#utility.yul\":2407:2419   */\n      revert\n        /* \"#utility.yul\":2431:2553   */\n    tag_38:\n        /* \"#utility.yul\":2504:2528   */\n      tag_71\n        /* \"#utility.yul\":2522:2527   */\n      dup2\n        /* \"#utility.yul\":2504:2528   */\n      tag_48\n      jump\t// in\n    tag_71:\n        /* \"#utility.yul\":2497:2502   */\n      dup2\n        /* \"#utility.yul\":2494:2529   */\n      eq\n        /* \"#utility.yul\":2484:2547   */\n      tag_72\n      jumpi\n        /* \"#utility.yul\":2543:2544   */\n      0x00\n        /* \"#utility.yul\":2540:2541   */\n      dup1\n        /* \"#utility.yul\":2533:2545   */\n      revert\n        /* \"#utility.yul\":2484:2547   */\n    tag_72:\n        /* \"#utility.yul\":2431:2553   */\n      pop\n      jump\t// out\n\n    auxdata: 0xa264697066735822122066f9014137c7619e248b2f3f27a9021809a6077c91e5b062c03853b6cf8552e564736f6c63430008070033\n}\n",
				"bytecode": {
					"linkReferences": {},
					"object": "608060405234801561001057600080fd5b506103d0806100206000396000f3fe6080604052600436106100295760003560e01c80631aa3a0081461002e5780637503745d14610038575b600080fd5b610036610061565b005b34801561004457600080fd5b5061005f600480360381019061005a91906101fc565b6100dc565b005b617ab7341161007257610180610076565b6101a25b6000803373ffffffffffffffffffffffffffffffffffffffff1673ffffffffffffffffffffffffffffffffffffffff16815260200190815260200160002060006101000a81548167ffffffffffffffff021916908367ffffffffffffffff160217905550565b60006101426000803373ffffffffffffffffffffffffffffffffffffffff1673ffffffffffffffffffffffffffffffffffffffff16815260200190815260200160002060009054906101000a900480156101dd021767ffffffffffffffff1684846101c4565b90507f4356a48f357f6d0ef9fc535e6eb2f25ef210c59bb93b532fef42d63264b8992a81604051610173919061024b565b60405180910390a1505050565b600060058261018f91906102bc565b8361019a9190610266565b905092915050565b6000600a826101b191906102bc565b836101bc9190610266565b905092915050565b60006101d483838663ffffffff16565b90509392505050565b6101e561034f565b565b6000813590506101f681610383565b92915050565b600080604083850312156102135761021261037e565b5b6000610221858286016101e7565b9250506020610232858286016101e7565b9150509250929050565b61024581610316565b82525050565b6000602082019050610260600083018461023c565b92915050565b600061027182610316565b915061027c83610316565b9250827fffffffffffffffffffffffffffffffffffffffffffffffffffffffffffffffff038211156102b1576102b0610320565b5b828201905092915050565b60006102c782610316565b91506102d283610316565b9250817fffffffffffffffffffffffffffffffffffffffffffffffffffffffffffffffff048311821515161561030b5761030a610320565b5b828202905092915050565b6000819050919050565b7f4e487b7100000000000000000000000000000000000000000000000000000000600052601160045260246000fd5b7f4e487b7100000000000000000000000000000000000000000000000000000000600052605160045260246000fd5b600080fd5b61038c81610316565b811461039757600080fd5b5056fea264697066735822122066f9014137c7619e248b2f3f27a9021809a6077c91e5b062c03853b6cf8552e564736f6c63430008070033",
					"opcodes": "PUSH1 0x80 PUSH1 0x40 MSTORE CALLVALUE DUP1 ISZERO PUSH2 0x10 JUMPI PUSH1 0x0 DUP1 REVERT JUMPDEST POP PUSH2 0x3D0 DUP1 PUSH2 0x20 PUSH1 0x0 CODECOPY PUSH1 0x0 RETURN INVALID PUSH1 0x80 PUSH1 0x40 MSTORE PUSH1 0x4 CALLDATASIZE LT PUSH2 0x29 JUMPI PUSH1 0x0 CALLDATALOAD PUSH1 0xE0 SHR DUP1 PUSH4 0x1AA3A008 EQ PUSH2 0x2E JUMPI DUP1 PUSH4 0x7503745D EQ PUSH2 0x38 JUMPI JUMPDEST PUSH1 0x0 DUP1 REVERT JUMPDEST PUSH2 0x36 PUSH2 0x61 JUMP JUMPDEST STOP JUMPDEST CALLVALUE DUP1 ISZERO PUSH2 0x44 JUMPI PUSH1 0x0 DUP1 REVERT JUMPDEST POP PUSH2 0x5F PUSH1 0x4 DUP1 CALLDATASIZE SUB DUP2 ADD SWAP1 PUSH2 0x5A SWAP2 SWAP1 PUSH2 0x1FC JUMP JUMPDEST PUSH2 0xDC JUMP JUMPDEST STOP JUMPDEST PUSH2 0x7AB7 CALLVALUE GT PUSH2 0x72 JUMPI PUSH2 0x180 PUSH2 0x76 JUMP JUMPDEST PUSH2 0x1A2 JUMPDEST PUSH1 0x0 DUP1 CALLER PUSH20 0xFFFFFFFFFFFFFFFFFFFFFFFFFFFFFFFFFFFFFFFF AND PUSH20 0xFFFFFFFFFFFFFFFFFFFFFFFFFFFFFFFFFFFFFFFF AND DUP2 MSTORE PUSH1 0x20 ADD SWAP1 DUP2 MSTORE PUSH1 0x20 ADD PUSH1 0x0 KECCAK256 PUSH1 0x0 PUSH2 0x100 EXP DUP2 SLOAD DUP2 PUSH8 0xFFFFFFFFFFFFFFFF MUL NOT AND SWAP1 DUP4 PUSH8 0xFFFFFFFFFFFFFFFF AND MUL OR SWAP1 SSTORE POP JUMP JUMPDEST PUSH1 0x0 PUSH2 0x142 PUSH1 0x0 DUP1 CALLER PUSH20 0xFFFFFFFFFFFFFFFFFFFFFFFFFFFFFFFFFFFFFFFF AND PUSH20 0xFFFFFFFFFFFFFFFFFFFFFFFFFFFFFFFFFFFFFFFF AND DUP2 MSTORE PUSH1 0x20 ADD SWAP1 DUP2 MSTORE PUSH1 0x20 ADD PUSH1 0x0 KECCAK256 PUSH1 0x0 SWAP1 SLOAD SWAP1 PUSH2 0x100 EXP SWAP1 DIV DUP1 ISZERO PUSH2 0x1DD MUL OR PUSH8 0xFFFFFFFFFFFFFFFF AND DUP5 DUP5 PUSH2 0x1C4 JUMP JUMPDEST SWAP1 POP PUSH32 0x4356A48F357F6D0EF9FC535E6EB2F25EF210C59BB93B532FEF42D63264B8992A DUP2 PUSH1 0x40 MLOAD PUSH2 0x173 SWAP2 SWAP1 PUSH2 0x24B JUMP JUMPDEST PUSH1 0x40 MLOAD DUP1 SWAP2 SUB SWAP1 LOG1 POP POP POP JUMP JUMPDEST PUSH1 0x0 PUSH1 0x5 DUP3 PUSH2 0x18F SWAP2 SWAP1 PUSH2 0x2BC JUMP JUMPDEST DUP4 PUSH2 0x19A SWAP2 SWAP1 PUSH2 0x266 JUMP JUMPDEST SWAP1 POP SWAP3 SWAP2 POP POP JUMP JUMPDEST PUSH1 0x0 PUSH1 0xA DUP3 PUSH2 0x1B1 SWAP2 SWAP1 PUSH2 0x2BC JUMP JUMPDEST DUP4 PUSH2 0x1BC SWAP2 SWAP1 PUSH2 0x266 JUMP JUMPDEST SWAP1 POP SWAP3 SWAP2 POP POP JUMP JUMPDEST PUSH1 0x0 PUSH2 0x1D4 DUP4 DUP4 DUP7 PUSH4 0xFFFFFFFF AND JUMP JUMPDEST SWAP1 POP SWAP4 SWAP3 POP POP POP JUMP JUMPDEST PUSH2 0x1E5 PUSH2 0x34F JUMP JUMPDEST JUMP JUMPDEST PUSH1 0x0 DUP2 CALLDATALOAD SWAP1 POP PUSH2 0x1F6 DUP2 PUSH2 0x383 JUMP JUMPDEST SWAP3 SWAP2 POP POP JUMP JUMPDEST PUSH1 0x0 DUP1 PUSH1 0x40 DUP4 DUP6 SUB SLT ISZERO PUSH2 0x213 JUMPI PUSH2 0x212 PUSH2 0x37E JUMP JUMPDEST JUMPDEST PUSH1 0x0 PUSH2 0x221 DUP6 DUP3 DUP7 ADD PUSH2 0x1E7 JUMP JUMPDEST SWAP3 POP POP PUSH1 0x20 PUSH2 0x232 DUP6 DUP3 DUP7 ADD PUSH2 0x1E7 JUMP JUMPDEST SWAP2 POP POP SWAP3 POP SWAP3 SWAP1 POP JUMP JUMPDEST PUSH2 0x245 DUP2 PUSH2 0x316 JUMP JUMPDEST DUP3 MSTORE POP POP JUMP JUMPDEST PUSH1 0x0 PUSH1 0x20 DUP3 ADD SWAP1 POP PUSH2 0x260 PUSH1 0x0 DUP4 ADD DUP5 PUSH2 0x23C JUMP JUMPDEST SWAP3 SWAP2 POP POP JUMP JUMPDEST PUSH1 0x0 PUSH2 0x271 DUP3 PUSH2 0x316 JUMP JUMPDEST SWAP2 POP PUSH2 0x27C DUP4 PUSH2 0x316 JUMP JUMPDEST SWAP3 POP DUP3 PUSH32 0xFFFFFFFFFFFFFFFFFFFFFFFFFFFFFFFFFFFFFFFFFFFFFFFFFFFFFFFFFFFFFFFF SUB DUP3 GT ISZERO PUSH2 0x2B1 JUMPI PUSH2 0x2B0 PUSH2 0x320 JUMP JUMPDEST JUMPDEST DUP3 DUP3 ADD SWAP1 POP SWAP3 SWAP2 POP POP JUMP JUMPDEST PUSH1 0x0 PUSH2 0x2C7 DUP3 PUSH2 0x316 JUMP JUMPDEST SWAP2 POP PUSH2 0x2D2 DUP4 PUSH2 0x316 JUMP JUMPDEST SWAP3 POP DUP2 PUSH32 0xFFFFFFFFFFFFFFFFFFFFFFFFFFFFFFFFFFFFFFFFFFFFFFFFFFFFFFFFFFFFFFFF DIV DUP4 GT DUP3 ISZERO ISZERO AND ISZERO PUSH2 0x30B JUMPI PUSH2 0x30A PUSH2 0x320 JUMP JUMPDEST JUMPDEST DUP3 DUP3 MUL SWAP1 POP SWAP3 SWAP2 POP POP JUMP JUMPDEST PUSH1 0x0 DUP2 SWAP1 POP SWAP2 SWAP1 POP JUMP JUMPDEST PUSH32 0x4E487B7100000000000000000000000000000000000000000000000000000000 PUSH1 0x0 MSTORE PUSH1 0x11 PUSH1 0x4 MSTORE PUSH1 0x24 PUSH1 0x0 REVERT JUMPDEST PUSH32 0x4E487B7100000000000000000000000000000000000000000000000000000000 PUSH1 0x0 MSTORE PUSH1 0x51 PUSH1 0x4 MSTORE PUSH1 0x24 PUSH1 0x0 REVERT JUMPDEST PUSH1 0x0 DUP1 REVERT JUMPDEST PUSH2 0x38C DUP2 PUSH2 0x316 JUMP JUMPDEST DUP2 EQ PUSH2 0x397 JUMPI PUSH1 0x0 DUP1 REVERT JUMPDEST POP JUMP INVALID LOG2 PUSH5 0x6970667358 0x22 SLT KECCAK256 PUSH7 0xF9014137C7619E 0x24 DUP12 0x2F EXTCODEHASH 0x27 0xA9 MUL XOR MULMOD 0xA6 SMOD PUSH29 0x91E5B062C03853B6CF8552E564736F6C63430008070033000000000000 "
				},
				"gasEstimates": {
					"creation": {
						"codeDepositCost": "195200",
						"executionCost": "238",
						"totalCost": "195438"
					},
					"external": {
						"magic(uint256,uint256)": "infinite",
						"register()": "24487"
					},
					"internal": {
						"eval(function (uint256,uint256) pure returns (uint256),uint256,uint256)": "infinite",
						"gold(uint256,uint256)": "infinite",
						"silver(uint256,uint256)": "infinite"
					}
				},
				"methodIdentifiers": {
					"magic(uint256,uint256)": "7503745d",
					"register()": "1aa3a008"
				}
			},
			"storageLayout": {
				"storage": [
					{
						"astId": 13,
						"contract": "hh.sol:Foo",
						"label": "k",
						"offset": 0,
						"slot": "0",
						"type": "t_mapping(t_address,t_function_internal_pure(t_uint256,t_uint256)returns(t_uint256))"
					}
				],
				"types": {
					"t_address": {
						"encoding": "inplace",
						"label": "address",
						"numberOfBytes": "20"
					},
					"t_function_internal_pure(t_uint256,t_uint256)returns(t_uint256)": {
						"encoding": "inplace",
						"label": "function (uint256,uint256) pure returns (uint256)",
						"numberOfBytes": "8"
					},
					"t_mapping(t_address,t_function_internal_pure(t_uint256,t_uint256)returns(t_uint256))": {
						"encoding": "mapping",
						"key": "t_address",
						"label": "mapping(address => function (uint256,uint256) pure returns (uint256))",
						"numberOfBytes": "32",
						"value": "t_function_internal_pure(t_uint256,t_uint256)returns(t_uint256)"
					}
				}
			},
			"userdoc": {
				"kind": "user",
				"methods": {},
				"version": 1
			}
		}
	}
}